{
  "abi": [
    {
      "type": "constructor",
      "inputs": [
        {
          "name": "_strategyManager",
          "type": "address",
          "internalType": "contract IStrategyManager"
        },
        {
          "name": "_pauserRegistry",
          "type": "address",
          "internalType": "contract IPauserRegistry"
        }
      ],
      "stateMutability": "nonpayable"
    },
    {
      "type": "function",
      "name": "EIGEN",
      "inputs": [],
      "outputs": [
        {
          "name": "",
          "type": "address",
          "internalType": "contract IEigen"
        }
      ],
      "stateMutability": "view"
    },
    {
      "type": "function",
      "name": "deposit",
      "inputs": [
        {
          "name": "token",
          "type": "address",
          "internalType": "contract IERC20"
        },
        {
          "name": "amount",
          "type": "uint256",
          "internalType": "uint256"
        }
      ],
      "outputs": [
        {
          "name": "newShares",
          "type": "uint256",
          "internalType": "uint256"
        }
      ],
      "stateMutability": "nonpayable"
    },
    {
      "type": "function",
      "name": "explanation",
      "inputs": [],
      "outputs": [
        {
          "name": "",
          "type": "string",
          "internalType": "string"
        }
      ],
      "stateMutability": "pure"
    },
    {
      "type": "function",
      "name": "initialize",
      "inputs": [
        {
          "name": "_EIGEN",
          "type": "address",
          "internalType": "contract IEigen"
        },
        {
          "name": "_bEIGEN",
          "type": "address",
          "internalType": "contract IERC20"
        }
      ],
      "outputs": [],
      "stateMutability": "nonpayable"
    },
    {
      "type": "function",
      "name": "initialize",
      "inputs": [
        {
          "name": "_underlyingToken",
          "type": "address",
          "internalType": "contract IERC20"
        }
      ],
      "outputs": [],
      "stateMutability": "nonpayable"
    },
    {
      "type": "function",
      "name": "pause",
      "inputs": [
        {
          "name": "newPausedStatus",
          "type": "uint256",
          "internalType": "uint256"
        }
      ],
      "outputs": [],
      "stateMutability": "nonpayable"
    },
    {
      "type": "function",
      "name": "pauseAll",
      "inputs": [],
      "outputs": [],
      "stateMutability": "nonpayable"
    },
    {
      "type": "function",
      "name": "paused",
      "inputs": [
        {
          "name": "index",
          "type": "uint8",
          "internalType": "uint8"
        }
      ],
      "outputs": [
        {
          "name": "",
          "type": "bool",
          "internalType": "bool"
        }
      ],
      "stateMutability": "view"
    },
    {
      "type": "function",
      "name": "paused",
      "inputs": [],
      "outputs": [
        {
          "name": "",
          "type": "uint256",
          "internalType": "uint256"
        }
      ],
      "stateMutability": "view"
    },
    {
      "type": "function",
      "name": "pauserRegistry",
      "inputs": [],
      "outputs": [
        {
          "name": "",
          "type": "address",
          "internalType": "contract IPauserRegistry"
        }
      ],
      "stateMutability": "view"
    },
    {
      "type": "function",
      "name": "shares",
      "inputs": [
        {
          "name": "user",
          "type": "address",
          "internalType": "address"
        }
      ],
      "outputs": [
        {
          "name": "",
          "type": "uint256",
          "internalType": "uint256"
        }
      ],
      "stateMutability": "view"
    },
    {
      "type": "function",
      "name": "sharesToUnderlying",
      "inputs": [
        {
          "name": "amountShares",
          "type": "uint256",
          "internalType": "uint256"
        }
      ],
      "outputs": [
        {
          "name": "",
          "type": "uint256",
          "internalType": "uint256"
        }
      ],
      "stateMutability": "view"
    },
    {
      "type": "function",
      "name": "sharesToUnderlyingView",
      "inputs": [
        {
          "name": "amountShares",
          "type": "uint256",
          "internalType": "uint256"
        }
      ],
      "outputs": [
        {
          "name": "",
          "type": "uint256",
          "internalType": "uint256"
        }
      ],
      "stateMutability": "view"
    },
    {
      "type": "function",
      "name": "strategyManager",
      "inputs": [],
      "outputs": [
        {
          "name": "",
          "type": "address",
          "internalType": "contract IStrategyManager"
        }
      ],
      "stateMutability": "view"
    },
    {
      "type": "function",
      "name": "totalShares",
      "inputs": [],
      "outputs": [
        {
          "name": "",
          "type": "uint256",
          "internalType": "uint256"
        }
      ],
      "stateMutability": "view"
    },
    {
      "type": "function",
      "name": "underlyingToShares",
      "inputs": [
        {
          "name": "amountUnderlying",
          "type": "uint256",
          "internalType": "uint256"
        }
      ],
      "outputs": [
        {
          "name": "",
          "type": "uint256",
          "internalType": "uint256"
        }
      ],
      "stateMutability": "view"
    },
    {
      "type": "function",
      "name": "underlyingToSharesView",
      "inputs": [
        {
          "name": "amountUnderlying",
          "type": "uint256",
          "internalType": "uint256"
        }
      ],
      "outputs": [
        {
          "name": "",
          "type": "uint256",
          "internalType": "uint256"
        }
      ],
      "stateMutability": "view"
    },
    {
      "type": "function",
      "name": "underlyingToken",
      "inputs": [],
      "outputs": [
        {
          "name": "",
          "type": "address",
          "internalType": "contract IERC20"
        }
      ],
      "stateMutability": "view"
    },
    {
      "type": "function",
      "name": "unpause",
      "inputs": [
        {
          "name": "newPausedStatus",
          "type": "uint256",
          "internalType": "uint256"
        }
      ],
      "outputs": [],
      "stateMutability": "nonpayable"
    },
    {
      "type": "function",
      "name": "userUnderlying",
      "inputs": [
        {
          "name": "user",
          "type": "address",
          "internalType": "address"
        }
      ],
      "outputs": [
        {
          "name": "",
          "type": "uint256",
          "internalType": "uint256"
        }
      ],
      "stateMutability": "nonpayable"
    },
    {
      "type": "function",
      "name": "userUnderlyingView",
      "inputs": [
        {
          "name": "user",
          "type": "address",
          "internalType": "address"
        }
      ],
      "outputs": [
        {
          "name": "",
          "type": "uint256",
          "internalType": "uint256"
        }
      ],
      "stateMutability": "view"
    },
    {
      "type": "function",
      "name": "withdraw",
      "inputs": [
        {
          "name": "recipient",
          "type": "address",
          "internalType": "address"
        },
        {
          "name": "token",
          "type": "address",
          "internalType": "contract IERC20"
        },
        {
          "name": "amountShares",
          "type": "uint256",
          "internalType": "uint256"
        }
      ],
      "outputs": [
        {
          "name": "amountOut",
          "type": "uint256",
          "internalType": "uint256"
        }
      ],
      "stateMutability": "nonpayable"
    },
    {
      "type": "event",
      "name": "ExchangeRateEmitted",
      "inputs": [
        {
          "name": "rate",
          "type": "uint256",
          "indexed": false,
          "internalType": "uint256"
        }
      ],
      "anonymous": false
    },
    {
      "type": "event",
      "name": "Initialized",
      "inputs": [
        {
          "name": "version",
          "type": "uint8",
          "indexed": false,
          "internalType": "uint8"
        }
      ],
      "anonymous": false
    },
    {
      "type": "event",
      "name": "Paused",
      "inputs": [
        {
          "name": "account",
          "type": "address",
          "indexed": true,
          "internalType": "address"
        },
        {
          "name": "newPausedStatus",
          "type": "uint256",
          "indexed": false,
          "internalType": "uint256"
        }
      ],
      "anonymous": false
    },
    {
      "type": "event",
      "name": "StrategyTokenSet",
      "inputs": [
        {
          "name": "token",
          "type": "address",
          "indexed": false,
          "internalType": "contract IERC20"
        },
        {
          "name": "decimals",
          "type": "uint8",
          "indexed": false,
          "internalType": "uint8"
        }
      ],
      "anonymous": false
    },
    {
      "type": "event",
      "name": "Unpaused",
      "inputs": [
        {
          "name": "account",
          "type": "address",
          "indexed": true,
          "internalType": "address"
        },
        {
          "name": "newPausedStatus",
          "type": "uint256",
          "indexed": false,
          "internalType": "uint256"
        }
      ],
      "anonymous": false
    },
    {
      "type": "error",
      "name": "BalanceExceedsMaxTotalDeposits",
      "inputs": []
    },
    {
      "type": "error",
      "name": "CurrentlyPaused",
      "inputs": []
    },
    {
      "type": "error",
      "name": "InputAddressZero",
      "inputs": []
    },
    {
      "type": "error",
      "name": "InvalidNewPausedStatus",
      "inputs": []
    },
    {
      "type": "error",
      "name": "MaxPerDepositExceedsMax",
      "inputs": []
    },
    {
      "type": "error",
      "name": "NewSharesZero",
      "inputs": []
    },
    {
      "type": "error",
      "name": "OnlyPauser",
      "inputs": []
    },
    {
      "type": "error",
      "name": "OnlyStrategyManager",
      "inputs": []
    },
    {
      "type": "error",
      "name": "OnlyUnderlyingToken",
      "inputs": []
    },
    {
      "type": "error",
      "name": "OnlyUnpauser",
      "inputs": []
    },
    {
      "type": "error",
      "name": "TotalSharesExceedsMax",
      "inputs": []
    },
    {
      "type": "error",
      "name": "WithdrawalAmountExceedsTotalDeposits",
      "inputs": []
    }
  ],
  "bytecode": {
    "object": "0x60c060405234801561000f575f5ffd5b5060405161160138038061160183398101604081905261002e9161014f565b8181806001600160a01b038116610058576040516339b190bb60e11b815260040160405180910390fd5b6001600160a01b03908116608052821660a05261007361007c565b50505050610187565b5f54610100900460ff16156100e75760405162461bcd60e51b815260206004820152602760248201527f496e697469616c697a61626c653a20636f6e747261637420697320696e697469604482015266616c697a696e6760c81b606482015260840160405180910390fd5b5f5460ff90811614610136575f805460ff191660ff9081179091556040519081527f7f26b83ff96e1f2b6a682f133852f6798a09c465da95921460cefb38474024989060200160405180910390a15b565b6001600160a01b038116811461014c575f5ffd5b50565b5f5f60408385031215610160575f5ffd5b825161016b81610138565b602084015190925061017c81610138565b809150509250929050565b60805160a0516114366101cb5f395f818161018b015281816103860152818161071e01526107a001525f81816102540152818161094e0152610e4f01526114365ff3fe608060405234801561000f575f5ffd5b506004361061013d575f3560e01c8063886f1195116100b4578063ce7c2ac211610079578063ce7c2ac2146102c4578063d9caed12146102d7578063e3dae51c146102ea578063f3e73875146102fd578063fabc1cbc14610310578063fdc371ce14610323575f5ffd5b8063886f11951461024f5780638c871019146102765780638f6a624014610289578063ab5921e11461029c578063c4d66de8146102b1575f5ffd5b8063485cc95511610105578063485cc955146101d7578063553ca5f8146101ea578063595c6a67146101fd5780635ac86ab7146102055780635c975abb146102345780637a8b26371461023c575f5ffd5b8063136439dd146101415780632495a5991461015657806339b70e38146101865780633a98ef39146101ad57806347e7ef24146101c4575b5f5ffd5b61015461014f366004611129565b610336565b005b603254610169906001600160a01b031681565b6040516001600160a01b0390911681526020015b60405180910390f35b6101697f000000000000000000000000000000000000000000000000000000000000000081565b6101b660335481565b60405190815260200161017d565b6101b66101d2366004611154565b610370565b6101546101e536600461117e565b61049f565b6101b66101f83660046111b5565b61058a565b61015461059d565b6102246102133660046111e5565b6001805460ff9092161b9081161490565b604051901515815260200161017d565b6001546101b6565b6101b661024a366004611129565b6105b1565b6101697f000000000000000000000000000000000000000000000000000000000000000081565b6101b6610284366004611129565b6105fa565b6101b66102973660046111b5565b610604565b6102a4610611565b60405161017d9190611200565b6101546102bf3660046111b5565b610631565b6101b66102d23660046111b5565b6106f7565b6101b66102e5366004611235565b610789565b6101b66102f8366004611129565b61088b565b6101b661030b366004611129565b6108c2565b61015461031e366004611129565b6108cc565b606454610169906001600160a01b031681565b61033e610939565b60015481811681146103635760405163c61dca5d60e01b815260040160405180910390fd5b61036c826109dc565b5050565b5f5f61037b81610a19565b336001600160a01b037f000000000000000000000000000000000000000000000000000000000000000016146103c4576040516348da714f60e01b815260040160405180910390fd5b6103ce8484610a4f565b6033545f6103de6103e883611287565b90505f6103e86103ec610b08565b6103f69190611287565b90505f610403878361129a565b90508061041084896112ad565b61041a91906112c4565b9550855f0361043c57604051630c392ed360e11b815260040160405180910390fd5b6104468685611287565b60338190556f4b3b4ca85a86c47a098a223fffffffff101561047b57604051632f14e8a360e11b815260040160405180910390fd5b610494826103e860335461048f9190611287565b610b77565b505050505092915050565b5f54610100900460ff16158080156104bd57505f54600160ff909116105b806104d65750303b1580156104d657505f5460ff166001145b6104fb5760405162461bcd60e51b81526004016104f2906112e3565b60405180910390fd5b5f805460ff19166001179055801561051c575f805461ff0019166101001790555b606480546001600160a01b0319166001600160a01b03851617905561054082610bc3565b8015610585575f805461ff0019169055604051600181527f7f26b83ff96e1f2b6a682f133852f6798a09c465da95921460cefb38474024989060200160405180910390a15b505050565b5f61059761024a836106f7565b92915050565b6105a5610939565b6105af5f196109dc565b565b5f5f6103e86033546105c39190611287565b90505f6103e86105d1610b08565b6105db9190611287565b9050816105e885836112ad565b6105f291906112c4565b949350505050565b5f6105978261088b565b5f61059761030b836106f7565b60606040518060800160405280604d81526020016113b4604d9139905090565b5f54610100900460ff161580801561064f57505f54600160ff909116105b806106685750303b15801561066857505f5460ff166001145b6106845760405162461bcd60e51b81526004016104f2906112e3565b5f805460ff1916600117905580156106a5575f805461ff0019166101001790555b6106ae82610bc3565b801561036c575f805461ff0019169055604051600181527f7f26b83ff96e1f2b6a682f133852f6798a09c465da95921460cefb3847402498906020015b60405180910390a15050565b60405163fe243a1760e01b81526001600160a01b0382811660048301523060248301525f917f00000000000000000000000000000000000000000000000000000000000000009091169063fe243a1790604401602060405180830381865afa158015610765573d5f5f3e3d5ffd5b505050506040513d601f19601f820116820180604052508101906105979190611331565b5f600161079581610a19565b336001600160a01b037f000000000000000000000000000000000000000000000000000000000000000016146107de576040516348da714f60e01b815260040160405180910390fd5b6107e9858585610d0e565b6033548084111561080d57604051630b469df360e41b815260040160405180910390fd5b5f61081a6103e883611287565b90505f6103e8610828610b08565b6108329190611287565b90508161083f87836112ad565b61084991906112c4565b9450610855868461129a565b603355610875610865868361129a565b6103e860335461048f9190611287565b610880888887610d54565b505050509392505050565b5f5f6103e860335461089d9190611287565b90505f6103e86108ab610b08565b6108b59190611287565b9050806105e883866112ad565b5f610597826105b1565b6108d4610e4d565b600154801982198116146108fb5760405163c61dca5d60e01b815260040160405180910390fd5b600182905560405182815233907f3582d1828e26bf56bd801502bc021ac0bc8afb57c826e4986b45593c8fad389c9060200160405180910390a25050565b60405163237dfb4760e11b81523360048201527f00000000000000000000000000000000000000000000000000000000000000006001600160a01b0316906346fbf68e90602401602060405180830381865afa15801561099b573d5f5f3e3d5ffd5b505050506040513d601f19601f820116820180604052508101906109bf9190611348565b6105af57604051631d77d47760e21b815260040160405180910390fd5b600181905560405181815233907fab40a374bc51de372200a8bc981af8c9ecdc08dfdaef0bb6e09f88f3c616ef3d9060200160405180910390a250565b610a2e816001805460ff9092161b9081161490565b15610a4c5760405163840a48d560e01b815260040160405180910390fd5b50565b6032546001600160a01b0383811691161480610a7857506064546001600160a01b038381169116145b610a9557604051630312abdd60e61b815260040160405180910390fd5b6064546001600160a01b039081169083160361036c57606454604051636f074d1f60e11b8152600481018390526001600160a01b039091169063de0e9a3e906024015f604051808303815f87803b158015610aee575f5ffd5b505af1158015610b00573d5f5f3e3d5ffd5b505050505050565b6032546040516370a0823160e01b81523060048201525f916001600160a01b0316906370a0823190602401602060405180830381865afa158015610b4e573d5f5f3e3d5ffd5b505050506040513d601f19601f82011682018060405250810190610b729190611331565b905090565b7fd2494f3479e5da49d386657c292c610b5b01df313d07c62eb0cfa49924a31be881610bab84670de0b6b3a76400006112ad565b610bb591906112c4565b6040519081526020016106eb565b5f54610100900460ff16610c2d5760405162461bcd60e51b815260206004820152602b60248201527f496e697469616c697a61626c653a20636f6e7472616374206973206e6f74206960448201526a6e697469616c697a696e6760a81b60648201526084016104f2565b603280546001600160a01b0319166001600160a01b038316179055610c515f6109dc565b7f1c540707b00eb5427b6b774fc799d756516a54aee108b64b327acc55af55750760325f9054906101000a90046001600160a01b0316826001600160a01b031663313ce5676040518163ffffffff1660e01b8152600401602060405180830381865afa158015610cc3573d5f5f3e3d5ffd5b505050506040513d601f19601f82011682018060405250810190610ce79190611367565b604080516001600160a01b03909316835260ff90911660208301520160405180910390a150565b6032546001600160a01b0383811691161480610d3757506064546001600160a01b038381169116145b61058557604051630312abdd60e61b815260040160405180910390fd5b6064546001600160a01b0390811690831603610e395760325460405163095ea7b360e01b81526001600160a01b038481166004830152602482018490529091169063095ea7b3906044016020604051808303815f875af1158015610dba573d5f5f3e3d5ffd5b505050506040513d601f19601f82011682018060405250810190610dde9190611348565b50606454604051630ea598cb60e41b8152600481018390526001600160a01b039091169063ea598cb0906024015f604051808303815f87803b158015610e22575f5ffd5b505af1158015610e34573d5f5f3e3d5ffd5b505050505b6105856001600160a01b0383168483610efe565b7f00000000000000000000000000000000000000000000000000000000000000006001600160a01b031663eab66d7a6040518163ffffffff1660e01b8152600401602060405180830381865afa158015610ea9573d5f5f3e3d5ffd5b505050506040513d601f19601f82011682018060405250810190610ecd9190611382565b6001600160a01b0316336001600160a01b0316146105af5760405163794821ff60e01b815260040160405180910390fd5b604080516001600160a01b03848116602483015260448083018590528351808403909101815260649092018352602080830180516001600160e01b031663a9059cbb60e01b17905283518085019094528084527f5361666545524332303a206c6f772d6c6576656c2063616c6c206661696c656490840152610585928692915f91610f8d91851690849061100c565b905080515f1480610fad575080806020019051810190610fad9190611348565b6105855760405162461bcd60e51b815260206004820152602a60248201527f5361666545524332303a204552433230206f7065726174696f6e20646964206e6044820152691bdd081cdd58d8d9595960b21b60648201526084016104f2565b60606105f284845f85855f5f866001600160a01b03168587604051611031919061139d565b5f6040518083038185875af1925050503d805f811461106b576040519150601f19603f3d011682016040523d82523d5f602084013e611070565b606091505b50915091506110818783838761108c565b979650505050505050565b606083156110fa5782515f036110f3576001600160a01b0385163b6110f35760405162461bcd60e51b815260206004820152601d60248201527f416464726573733a2063616c6c20746f206e6f6e2d636f6e747261637400000060448201526064016104f2565b50816105f2565b6105f2838381511561110f5781518083602001fd5b8060405162461bcd60e51b81526004016104f29190611200565b5f60208284031215611139575f5ffd5b5035919050565b6001600160a01b0381168114610a4c575f5ffd5b5f5f60408385031215611165575f5ffd5b823561117081611140565b946020939093013593505050565b5f5f6040838503121561118f575f5ffd5b823561119a81611140565b915060208301356111aa81611140565b809150509250929050565b5f602082840312156111c5575f5ffd5b81356111d081611140565b9392505050565b60ff81168114610a4c575f5ffd5b5f602082840312156111f5575f5ffd5b81356111d0816111d7565b602081525f82518060208401528060208501604085015e5f604082850101526040601f19601f83011684010191505092915050565b5f5f5f60608486031215611247575f5ffd5b833561125281611140565b9250602084013561126281611140565b929592945050506040919091013590565b634e487b7160e01b5f52601160045260245ffd5b8082018082111561059757610597611273565b8181038181111561059757610597611273565b808202811582820484141761059757610597611273565b5f826112de57634e487b7160e01b5f52601260045260245ffd5b500490565b6020808252602e908201527f496e697469616c697a61626c653a20636f6e747261637420697320616c72656160408201526d191e481a5b9a5d1a585b1a5e995960921b606082015260800190565b5f60208284031215611341575f5ffd5b5051919050565b5f60208284031215611358575f5ffd5b815180151581146111d0575f5ffd5b5f60208284031215611377575f5ffd5b81516111d0816111d7565b5f60208284031215611392575f5ffd5b81516111d081611140565b5f82518060208501845e5f92019182525091905056fe4261736520537472617465677920696d706c656d656e746174696f6e20746f20696e68657269742066726f6d20666f72206d6f726520636f6d706c657820696d706c656d656e746174696f6e73a2646970667358221220c3d1b68ce4a04509d1f163fd5261b6db458d026188f783832bc2aebf5bf4eb1e64736f6c634300081e0033",
    "linkReferences": {}
  },
  "methodIdentifiers": {
    "EIGEN()": "fdc371ce",
    "deposit(address,uint256)": "47e7ef24",
    "explanation()": "ab5921e1",
    "initialize(address)": "c4d66de8",
    "initialize(address,address)": "485cc955",
    "pause(uint256)": "136439dd",
    "pauseAll()": "595c6a67",
    "paused()": "5c975abb",
    "paused(uint8)": "5ac86ab7",
    "pauserRegistry()": "886f1195",
    "shares(address)": "ce7c2ac2",
    "sharesToUnderlying(uint256)": "f3e73875",
    "sharesToUnderlyingView(uint256)": "7a8b2637",
    "strategyManager()": "39b70e38",
    "totalShares()": "3a98ef39",
    "underlyingToShares(uint256)": "8c871019",
    "underlyingToSharesView(uint256)": "e3dae51c",
    "underlyingToken()": "2495a599",
    "unpause(uint256)": "fabc1cbc",
    "userUnderlying(address)": "8f6a6240",
    "userUnderlyingView(address)": "553ca5f8",
    "withdraw(address,address,uint256)": "d9caed12"
  },
  "id": 218
}