{
  "abi": [
    {
      "type": "constructor",
      "inputs": [
        {
          "name": "_strategyManager",
          "type": "address",
          "internalType": "contract IStrategyManager"
        },
        {
          "name": "_pauserRegistry",
          "type": "address",
          "internalType": "contract IPauserRegistry"
        }
      ],
      "stateMutability": "nonpayable"
    },
    {
      "type": "function",
      "name": "deposit",
      "inputs": [
        {
          "name": "token",
          "type": "address",
          "internalType": "contract IERC20"
        },
        {
          "name": "amount",
          "type": "uint256",
          "internalType": "uint256"
        }
      ],
      "outputs": [
        {
          "name": "newShares",
          "type": "uint256",
          "internalType": "uint256"
        }
      ],
      "stateMutability": "nonpayable"
    },
    {
      "type": "function",
      "name": "explanation",
      "inputs": [],
      "outputs": [
        {
          "name": "",
          "type": "string",
          "internalType": "string"
        }
      ],
      "stateMutability": "pure"
    },
    {
      "type": "function",
      "name": "getTVLLimits",
      "inputs": [],
      "outputs": [
        {
          "name": "",
          "type": "uint256",
          "internalType": "uint256"
        },
        {
          "name": "",
          "type": "uint256",
          "internalType": "uint256"
        }
      ],
      "stateMutability": "view"
    },
    {
      "type": "function",
      "name": "initialize",
      "inputs": [
        {
          "name": "_maxPerDeposit",
          "type": "uint256",
          "internalType": "uint256"
        },
        {
          "name": "_maxTotalDeposits",
          "type": "uint256",
          "internalType": "uint256"
        },
        {
          "name": "_underlyingToken",
          "type": "address",
          "internalType": "contract IERC20"
        }
      ],
      "outputs": [],
      "stateMutability": "nonpayable"
    },
    {
      "type": "function",
      "name": "initialize",
      "inputs": [
        {
          "name": "_underlyingToken",
          "type": "address",
          "internalType": "contract IERC20"
        }
      ],
      "outputs": [],
      "stateMutability": "nonpayable"
    },
    {
      "type": "function",
      "name": "maxPerDeposit",
      "inputs": [],
      "outputs": [
        {
          "name": "",
          "type": "uint256",
          "internalType": "uint256"
        }
      ],
      "stateMutability": "view"
    },
    {
      "type": "function",
      "name": "maxTotalDeposits",
      "inputs": [],
      "outputs": [
        {
          "name": "",
          "type": "uint256",
          "internalType": "uint256"
        }
      ],
      "stateMutability": "view"
    },
    {
      "type": "function",
      "name": "pause",
      "inputs": [
        {
          "name": "newPausedStatus",
          "type": "uint256",
          "internalType": "uint256"
        }
      ],
      "outputs": [],
      "stateMutability": "nonpayable"
    },
    {
      "type": "function",
      "name": "pauseAll",
      "inputs": [],
      "outputs": [],
      "stateMutability": "nonpayable"
    },
    {
      "type": "function",
      "name": "paused",
      "inputs": [
        {
          "name": "index",
          "type": "uint8",
          "internalType": "uint8"
        }
      ],
      "outputs": [
        {
          "name": "",
          "type": "bool",
          "internalType": "bool"
        }
      ],
      "stateMutability": "view"
    },
    {
      "type": "function",
      "name": "paused",
      "inputs": [],
      "outputs": [
        {
          "name": "",
          "type": "uint256",
          "internalType": "uint256"
        }
      ],
      "stateMutability": "view"
    },
    {
      "type": "function",
      "name": "pauserRegistry",
      "inputs": [],
      "outputs": [
        {
          "name": "",
          "type": "address",
          "internalType": "contract IPauserRegistry"
        }
      ],
      "stateMutability": "view"
    },
    {
      "type": "function",
      "name": "setTVLLimits",
      "inputs": [
        {
          "name": "newMaxPerDeposit",
          "type": "uint256",
          "internalType": "uint256"
        },
        {
          "name": "newMaxTotalDeposits",
          "type": "uint256",
          "internalType": "uint256"
        }
      ],
      "outputs": [],
      "stateMutability": "nonpayable"
    },
    {
      "type": "function",
      "name": "shares",
      "inputs": [
        {
          "name": "user",
          "type": "address",
          "internalType": "address"
        }
      ],
      "outputs": [
        {
          "name": "",
          "type": "uint256",
          "internalType": "uint256"
        }
      ],
      "stateMutability": "view"
    },
    {
      "type": "function",
      "name": "sharesToUnderlying",
      "inputs": [
        {
          "name": "amountShares",
          "type": "uint256",
          "internalType": "uint256"
        }
      ],
      "outputs": [
        {
          "name": "",
          "type": "uint256",
          "internalType": "uint256"
        }
      ],
      "stateMutability": "view"
    },
    {
      "type": "function",
      "name": "sharesToUnderlyingView",
      "inputs": [
        {
          "name": "amountShares",
          "type": "uint256",
          "internalType": "uint256"
        }
      ],
      "outputs": [
        {
          "name": "",
          "type": "uint256",
          "internalType": "uint256"
        }
      ],
      "stateMutability": "view"
    },
    {
      "type": "function",
      "name": "strategyManager",
      "inputs": [],
      "outputs": [
        {
          "name": "",
          "type": "address",
          "internalType": "contract IStrategyManager"
        }
      ],
      "stateMutability": "view"
    },
    {
      "type": "function",
      "name": "totalShares",
      "inputs": [],
      "outputs": [
        {
          "name": "",
          "type": "uint256",
          "internalType": "uint256"
        }
      ],
      "stateMutability": "view"
    },
    {
      "type": "function",
      "name": "underlyingToShares",
      "inputs": [
        {
          "name": "amountUnderlying",
          "type": "uint256",
          "internalType": "uint256"
        }
      ],
      "outputs": [
        {
          "name": "",
          "type": "uint256",
          "internalType": "uint256"
        }
      ],
      "stateMutability": "view"
    },
    {
      "type": "function",
      "name": "underlyingToSharesView",
      "inputs": [
        {
          "name": "amountUnderlying",
          "type": "uint256",
          "internalType": "uint256"
        }
      ],
      "outputs": [
        {
          "name": "",
          "type": "uint256",
          "internalType": "uint256"
        }
      ],
      "stateMutability": "view"
    },
    {
      "type": "function",
      "name": "underlyingToken",
      "inputs": [],
      "outputs": [
        {
          "name": "",
          "type": "address",
          "internalType": "contract IERC20"
        }
      ],
      "stateMutability": "view"
    },
    {
      "type": "function",
      "name": "unpause",
      "inputs": [
        {
          "name": "newPausedStatus",
          "type": "uint256",
          "internalType": "uint256"
        }
      ],
      "outputs": [],
      "stateMutability": "nonpayable"
    },
    {
      "type": "function",
      "name": "userUnderlying",
      "inputs": [
        {
          "name": "user",
          "type": "address",
          "internalType": "address"
        }
      ],
      "outputs": [
        {
          "name": "",
          "type": "uint256",
          "internalType": "uint256"
        }
      ],
      "stateMutability": "nonpayable"
    },
    {
      "type": "function",
      "name": "userUnderlyingView",
      "inputs": [
        {
          "name": "user",
          "type": "address",
          "internalType": "address"
        }
      ],
      "outputs": [
        {
          "name": "",
          "type": "uint256",
          "internalType": "uint256"
        }
      ],
      "stateMutability": "view"
    },
    {
      "type": "function",
      "name": "withdraw",
      "inputs": [
        {
          "name": "recipient",
          "type": "address",
          "internalType": "address"
        },
        {
          "name": "token",
          "type": "address",
          "internalType": "contract IERC20"
        },
        {
          "name": "amountShares",
          "type": "uint256",
          "internalType": "uint256"
        }
      ],
      "outputs": [
        {
          "name": "amountOut",
          "type": "uint256",
          "internalType": "uint256"
        }
      ],
      "stateMutability": "nonpayable"
    },
    {
      "type": "event",
      "name": "ExchangeRateEmitted",
      "inputs": [
        {
          "name": "rate",
          "type": "uint256",
          "indexed": false,
          "internalType": "uint256"
        }
      ],
      "anonymous": false
    },
    {
      "type": "event",
      "name": "Initialized",
      "inputs": [
        {
          "name": "version",
          "type": "uint8",
          "indexed": false,
          "internalType": "uint8"
        }
      ],
      "anonymous": false
    },
    {
      "type": "event",
      "name": "MaxPerDepositUpdated",
      "inputs": [
        {
          "name": "previousValue",
          "type": "uint256",
          "indexed": false,
          "internalType": "uint256"
        },
        {
          "name": "newValue",
          "type": "uint256",
          "indexed": false,
          "internalType": "uint256"
        }
      ],
      "anonymous": false
    },
    {
      "type": "event",
      "name": "MaxTotalDepositsUpdated",
      "inputs": [
        {
          "name": "previousValue",
          "type": "uint256",
          "indexed": false,
          "internalType": "uint256"
        },
        {
          "name": "newValue",
          "type": "uint256",
          "indexed": false,
          "internalType": "uint256"
        }
      ],
      "anonymous": false
    },
    {
      "type": "event",
      "name": "Paused",
      "inputs": [
        {
          "name": "account",
          "type": "address",
          "indexed": true,
          "internalType": "address"
        },
        {
          "name": "newPausedStatus",
          "type": "uint256",
          "indexed": false,
          "internalType": "uint256"
        }
      ],
      "anonymous": false
    },
    {
      "type": "event",
      "name": "StrategyTokenSet",
      "inputs": [
        {
          "name": "token",
          "type": "address",
          "indexed": false,
          "internalType": "contract IERC20"
        },
        {
          "name": "decimals",
          "type": "uint8",
          "indexed": false,
          "internalType": "uint8"
        }
      ],
      "anonymous": false
    },
    {
      "type": "event",
      "name": "Unpaused",
      "inputs": [
        {
          "name": "account",
          "type": "address",
          "indexed": true,
          "internalType": "address"
        },
        {
          "name": "newPausedStatus",
          "type": "uint256",
          "indexed": false,
          "internalType": "uint256"
        }
      ],
      "anonymous": false
    },
    {
      "type": "error",
      "name": "BalanceExceedsMaxTotalDeposits",
      "inputs": []
    },
    {
      "type": "error",
      "name": "CurrentlyPaused",
      "inputs": []
    },
    {
      "type": "error",
      "name": "InputAddressZero",
      "inputs": []
    },
    {
      "type": "error",
      "name": "InvalidNewPausedStatus",
      "inputs": []
    },
    {
      "type": "error",
      "name": "MaxPerDepositExceedsMax",
      "inputs": []
    },
    {
      "type": "error",
      "name": "NewSharesZero",
      "inputs": []
    },
    {
      "type": "error",
      "name": "OnlyPauser",
      "inputs": []
    },
    {
      "type": "error",
      "name": "OnlyStrategyManager",
      "inputs": []
    },
    {
      "type": "error",
      "name": "OnlyUnderlyingToken",
      "inputs": []
    },
    {
      "type": "error",
      "name": "OnlyUnpauser",
      "inputs": []
    },
    {
      "type": "error",
      "name": "TotalSharesExceedsMax",
      "inputs": []
    },
    {
      "type": "error",
      "name": "WithdrawalAmountExceedsTotalDeposits",
      "inputs": []
    }
  ],
  "bytecode": {
    "object": "0x60c060405234801561000f575f5ffd5b506040516115f73803806115f783398101604081905261002e9161014f565b8181806001600160a01b038116610058576040516339b190bb60e11b815260040160405180910390fd5b6001600160a01b03908116608052821660a05261007361007c565b50505050610187565b5f54610100900460ff16156100e75760405162461bcd60e51b815260206004820152602760248201527f496e697469616c697a61626c653a20636f6e747261637420697320696e697469604482015266616c697a696e6760c81b606482015260840160405180910390fd5b5f5460ff90811614610136575f805460ff191660ff9081179091556040519081527f7f26b83ff96e1f2b6a682f133852f6798a09c465da95921460cefb38474024989060200160405180910390a15b565b6001600160a01b038116811461014c575f5ffd5b50565b5f5f60408385031215610160575f5ffd5b825161016b81610138565b602084015190925061017c81610138565b809150509250929050565b60805160a05161142c6101cb5f395f81816101ce015281816103f50152818161077d01526107ff01525f81816102960152818161099a0152610b02015261142c5ff3fe608060405234801561000f575f5ffd5b506004361061016d575f3560e01c80637a8b2637116100d9578063c4d66de811610093578063df6fadc11161006e578063df6fadc11461033f578063e3dae51c1461035a578063f3e738751461036d578063fabc1cbc14610380575f5ffd5b8063c4d66de814610306578063ce7c2ac214610319578063d9caed121461032c575f5ffd5b80637a8b26371461027e578063886f1195146102915780638c871019146102b85780638f6a6240146102cb578063a6ab36f2146102de578063ab5921e1146102f1575f5ffd5b806347e7ef241161012a57806347e7ef2414610210578063553ca5f814610223578063595c6a67146102365780635ac86ab71461023e5780635c975abb1461026d57806361b01b5d14610275575f5ffd5b806311c70c9d14610171578063136439dd146101865780632495a5991461019957806339b70e38146101c95780633a98ef39146101f057806343fe08b014610207575b5f5ffd5b61018461017f366004611100565b610393565b005b610184610194366004611120565b6103a9565b6032546101ac906001600160a01b031681565b6040516001600160a01b0390911681526020015b60405180910390f35b6101ac7f000000000000000000000000000000000000000000000000000000000000000081565b6101f960335481565b6040519081526020016101c0565b6101f960645481565b6101f961021e36600461114b565b6103df565b6101f9610231366004611175565b61050e565b610184610521565b61025d61024c3660046111a5565b6001805460ff9092161b9081161490565b60405190151581526020016101c0565b6001546101f9565b6101f960655481565b6101f961028c366004611120565b610535565b6101ac7f000000000000000000000000000000000000000000000000000000000000000081565b6101f96102c6366004611120565b61057e565b6101f96102d9366004611175565b610588565b6101846102ec3660046111c0565b610595565b6102f9610670565b6040516101c091906111f6565b610184610314366004611175565b610690565b6101f9610327366004611175565b610756565b6101f961033a36600461122b565b6107e8565b606454606554604080519283526020830191909152016101c0565b6101f9610368366004611120565b6108ea565b6101f961037b366004611120565b610921565b61018461038e366004611120565b61092b565b61039b610998565b6103a58282610a49565b5050565b6103b1610aed565b60015481811681146103d65760405163c61dca5d60e01b815260040160405180910390fd5b6103a582610b90565b5f5f6103ea81610bcd565b336001600160a01b037f00000000000000000000000000000000000000000000000000000000000000001614610433576040516348da714f60e01b815260040160405180910390fd5b61043d8484610c03565b6033545f61044d6103e88361127d565b90505f6103e861045b610c5a565b610465919061127d565b90505f6104728783611290565b90508061047f84896112a3565b61048991906112ba565b9550855f036104ab57604051630c392ed360e11b815260040160405180910390fd5b6104b5868561127d565b60338190556f4b3b4ca85a86c47a098a223fffffffff10156104ea57604051632f14e8a360e11b815260040160405180910390fd5b610503826103e86033546104fe919061127d565b610cc9565b505050505092915050565b5f61051b61028c83610756565b92915050565b610529610aed565b6105335f19610b90565b565b5f5f6103e8603354610547919061127d565b90505f6103e8610555610c5a565b61055f919061127d565b90508161056c85836112a3565b61057691906112ba565b949350505050565b5f61051b826108ea565b5f61051b61037b83610756565b5f54610100900460ff16158080156105b357505f54600160ff909116105b806105cc5750303b1580156105cc57505f5460ff166001145b6105f15760405162461bcd60e51b81526004016105e8906112d9565b60405180910390fd5b5f805460ff191660011790558015610612575f805461ff0019166101001790555b61061c8484610a49565b61062582610d15565b801561066a575f805461ff0019169055604051600181527f7f26b83ff96e1f2b6a682f133852f6798a09c465da95921460cefb38474024989060200160405180910390a15b50505050565b60606040518060800160405280604d81526020016113aa604d9139905090565b5f54610100900460ff16158080156106ae57505f54600160ff909116105b806106c75750303b1580156106c757505f5460ff166001145b6106e35760405162461bcd60e51b81526004016105e8906112d9565b5f805460ff191660011790558015610704575f805461ff0019166101001790555b61070d82610d15565b80156103a5575f805461ff0019169055604051600181527f7f26b83ff96e1f2b6a682f133852f6798a09c465da95921460cefb3847402498906020015b60405180910390a15050565b60405163fe243a1760e01b81526001600160a01b0382811660048301523060248301525f917f00000000000000000000000000000000000000000000000000000000000000009091169063fe243a1790604401602060405180830381865afa1580156107c4573d5f5f3e3d5ffd5b505050506040513d601f19601f8201168201806040525081019061051b9190611327565b5f60016107f481610bcd565b336001600160a01b037f0000000000000000000000000000000000000000000000000000000000000000161461083d576040516348da714f60e01b815260040160405180910390fd5b610848858585610e60565b6033548084111561086c57604051630b469df360e41b815260040160405180910390fd5b5f6108796103e88361127d565b90505f6103e8610887610c5a565b610891919061127d565b90508161089e87836112a3565b6108a891906112ba565b94506108b48684611290565b6033556108d46108c48683611290565b6103e86033546104fe919061127d565b6108df888887610e93565b505050509392505050565b5f5f6103e86033546108fc919061127d565b90505f6103e861090a610c5a565b610914919061127d565b90508061056c83866112a3565b5f61051b82610535565b610933610998565b6001548019821981161461095a5760405163c61dca5d60e01b815260040160405180910390fd5b600182905560405182815233907f3582d1828e26bf56bd801502bc021ac0bc8afb57c826e4986b45593c8fad389c9060200160405180910390a25050565b7f00000000000000000000000000000000000000000000000000000000000000006001600160a01b031663eab66d7a6040518163ffffffff1660e01b8152600401602060405180830381865afa1580156109f4573d5f5f3e3d5ffd5b505050506040513d601f19601f82011682018060405250810190610a18919061133e565b6001600160a01b0316336001600160a01b0316146105335760405163794821ff60e01b815260040160405180910390fd5b60645460408051918252602082018490527ff97ed4e083acac67830025ecbc756d8fe847cdbdca4cee3fe1e128e98b54ecb5910160405180910390a160655460408051918252602082018390527f6ab181e0440bfbf4bacdf2e99674735ce6638005490688c5f994f5399353e452910160405180910390a180821115610ae25760405163052b07b760e21b815260040160405180910390fd5b606491909155606555565b60405163237dfb4760e11b81523360048201527f00000000000000000000000000000000000000000000000000000000000000006001600160a01b0316906346fbf68e90602401602060405180830381865afa158015610b4f573d5f5f3e3d5ffd5b505050506040513d601f19601f82011682018060405250810190610b739190611359565b61053357604051631d77d47760e21b815260040160405180910390fd5b600181905560405181815233907fab40a374bc51de372200a8bc981af8c9ecdc08dfdaef0bb6e09f88f3c616ef3d9060200160405180910390a250565b610be2816001805460ff9092161b9081161490565b15610c005760405163840a48d560e01b815260040160405180910390fd5b50565b606454811115610c265760405163052b07b760e21b815260040160405180910390fd5b606554610c31610c5a565b1115610c505760405163d86bae6760e01b815260040160405180910390fd5b6103a58282610ea7565b6032546040516370a0823160e01b81523060048201525f916001600160a01b0316906370a0823190602401602060405180830381865afa158015610ca0573d5f5f3e3d5ffd5b505050506040513d601f19601f82011682018060405250810190610cc49190611327565b905090565b7fd2494f3479e5da49d386657c292c610b5b01df313d07c62eb0cfa49924a31be881610cfd84670de0b6b3a76400006112a3565b610d0791906112ba565b60405190815260200161074a565b5f54610100900460ff16610d7f5760405162461bcd60e51b815260206004820152602b60248201527f496e697469616c697a61626c653a20636f6e7472616374206973206e6f74206960448201526a6e697469616c697a696e6760a81b60648201526084016105e8565b603280546001600160a01b0319166001600160a01b038316179055610da35f610b90565b7f1c540707b00eb5427b6b774fc799d756516a54aee108b64b327acc55af55750760325f9054906101000a90046001600160a01b0316826001600160a01b031663313ce5676040518163ffffffff1660e01b8152600401602060405180830381865afa158015610e15573d5f5f3e3d5ffd5b505050506040513d601f19601f82011682018060405250810190610e399190611378565b604080516001600160a01b03909316835260ff90911660208301520160405180910390a150565b6032546001600160a01b03838116911614610e8e57604051630312abdd60e61b815260040160405180910390fd5b505050565b610e8e6001600160a01b0383168483610ed5565b6032546001600160a01b038381169116146103a557604051630312abdd60e61b815260040160405180910390fd5b604080516001600160a01b03848116602483015260448083018590528351808403909101815260649092018352602080830180516001600160e01b031663a9059cbb60e01b17905283518085019094528084527f5361666545524332303a206c6f772d6c6576656c2063616c6c206661696c656490840152610e8e928692915f91610f64918516908490610fe3565b905080515f1480610f84575080806020019051810190610f849190611359565b610e8e5760405162461bcd60e51b815260206004820152602a60248201527f5361666545524332303a204552433230206f7065726174696f6e20646964206e6044820152691bdd081cdd58d8d9595960b21b60648201526084016105e8565b606061057684845f85855f5f866001600160a01b031685876040516110089190611393565b5f6040518083038185875af1925050503d805f8114611042576040519150601f19603f3d011682016040523d82523d5f602084013e611047565b606091505b509150915061105887838387611063565b979650505050505050565b606083156110d15782515f036110ca576001600160a01b0385163b6110ca5760405162461bcd60e51b815260206004820152601d60248201527f416464726573733a2063616c6c20746f206e6f6e2d636f6e747261637400000060448201526064016105e8565b5081610576565b61057683838151156110e65781518083602001fd5b8060405162461bcd60e51b81526004016105e891906111f6565b5f5f60408385031215611111575f5ffd5b50508035926020909101359150565b5f60208284031215611130575f5ffd5b5035919050565b6001600160a01b0381168114610c00575f5ffd5b5f5f6040838503121561115c575f5ffd5b823561116781611137565b946020939093013593505050565b5f60208284031215611185575f5ffd5b813561119081611137565b9392505050565b60ff81168114610c00575f5ffd5b5f602082840312156111b5575f5ffd5b813561119081611197565b5f5f5f606084860312156111d2575f5ffd5b833592506020840135915060408401356111eb81611137565b809150509250925092565b602081525f82518060208401528060208501604085015e5f604082850101526040601f19601f83011684010191505092915050565b5f5f5f6060848603121561123d575f5ffd5b833561124881611137565b9250602084013561125881611137565b929592945050506040919091013590565b634e487b7160e01b5f52601160045260245ffd5b8082018082111561051b5761051b611269565b8181038181111561051b5761051b611269565b808202811582820484141761051b5761051b611269565b5f826112d457634e487b7160e01b5f52601260045260245ffd5b500490565b6020808252602e908201527f496e697469616c697a61626c653a20636f6e747261637420697320616c72656160408201526d191e481a5b9a5d1a585b1a5e995960921b606082015260800190565b5f60208284031215611337575f5ffd5b5051919050565b5f6020828403121561134e575f5ffd5b815161119081611137565b5f60208284031215611369575f5ffd5b81518015158114611190575f5ffd5b5f60208284031215611388575f5ffd5b815161119081611197565b5f82518060208501845e5f92019182525091905056fe4261736520537472617465677920696d706c656d656e746174696f6e20746f20696e68657269742066726f6d20666f72206d6f726520636f6d706c657820696d706c656d656e746174696f6e73a2646970667358221220d3746c383368871009e44f7ae962ddb31f64bef2f69a89f96760599304322c1c64736f6c634300081e0033",
    "linkReferences": {}
  },
  "methodIdentifiers": {
    "deposit(address,uint256)": "47e7ef24",
    "explanation()": "ab5921e1",
    "getTVLLimits()": "df6fadc1",
    "initialize(address)": "c4d66de8",
    "initialize(uint256,uint256,address)": "a6ab36f2",
    "maxPerDeposit()": "43fe08b0",
    "maxTotalDeposits()": "61b01b5d",
    "pause(uint256)": "136439dd",
    "pauseAll()": "595c6a67",
    "paused()": "5c975abb",
    "paused(uint8)": "5ac86ab7",
    "pauserRegistry()": "886f1195",
    "setTVLLimits(uint256,uint256)": "11c70c9d",
    "shares(address)": "ce7c2ac2",
    "sharesToUnderlying(uint256)": "f3e73875",
    "sharesToUnderlyingView(uint256)": "7a8b2637",
    "strategyManager()": "39b70e38",
    "totalShares()": "3a98ef39",
    "underlyingToShares(uint256)": "8c871019",
    "underlyingToSharesView(uint256)": "e3dae51c",
    "underlyingToken()": "2495a599",
    "unpause(uint256)": "fabc1cbc",
    "userUnderlying(address)": "8f6a6240",
    "userUnderlyingView(address)": "553ca5f8",
    "withdraw(address,address,uint256)": "d9caed12"
  },
  "id": 220
}