{
  "abi": [
    {
      "type": "constructor",
      "inputs": [
        {
          "name": "_delegation",
          "type": "address",
          "internalType": "contract IDelegationManager"
        },
        {
          "name": "_slashEscrowFactory",
          "type": "address",
          "internalType": "contract ISlashEscrowFactory"
        },
        {
          "name": "_pauserRegistry",
          "type": "address",
          "internalType": "contract IPauserRegistry"
        },
        {
          "name": "_version",
          "type": "string",
          "internalType": "string"
        }
      ],
      "stateMutability": "nonpayable"
    },
    {
      "type": "function",
      "name": "DEFAULT_BURN_ADDRESS",
      "inputs": [],
      "outputs": [
        {
          "name": "",
          "type": "address",
          "internalType": "address"
        }
      ],
      "stateMutability": "view"
    },
    {
      "type": "function",
      "name": "DEPOSIT_TYPEHASH",
      "inputs": [],
      "outputs": [
        {
          "name": "",
          "type": "bytes32",
          "internalType": "bytes32"
        }
      ],
      "stateMutability": "view"
    },
    {
      "type": "function",
      "name": "addShares",
      "inputs": [
        {
          "name": "staker",
          "type": "address",
          "internalType": "address"
        },
        {
          "name": "strategy",
          "type": "address",
          "internalType": "contract IStrategy"
        },
        {
          "name": "shares",
          "type": "uint256",
          "internalType": "uint256"
        }
      ],
      "outputs": [
        {
          "name": "",
          "type": "uint256",
          "internalType": "uint256"
        },
        {
          "name": "",
          "type": "uint256",
          "internalType": "uint256"
        }
      ],
      "stateMutability": "nonpayable"
    },
    {
      "type": "function",
      "name": "addStrategiesToDepositWhitelist",
      "inputs": [
        {
          "name": "strategiesToWhitelist",
          "type": "address[]",
          "internalType": "contract IStrategy[]"
        }
      ],
      "outputs": [],
      "stateMutability": "nonpayable"
    },
    {
      "type": "function",
      "name": "burnShares",
      "inputs": [
        {
          "name": "strategy",
          "type": "address",
          "internalType": "contract IStrategy"
        }
      ],
      "outputs": [],
      "stateMutability": "nonpayable"
    },
    {
      "type": "function",
      "name": "calculateStrategyDepositDigestHash",
      "inputs": [
        {
          "name": "staker",
          "type": "address",
          "internalType": "address"
        },
        {
          "name": "strategy",
          "type": "address",
          "internalType": "contract IStrategy"
        },
        {
          "name": "token",
          "type": "address",
          "internalType": "contract IERC20"
        },
        {
          "name": "amount",
          "type": "uint256",
          "internalType": "uint256"
        },
        {
          "name": "nonce",
          "type": "uint256",
          "internalType": "uint256"
        },
        {
          "name": "expiry",
          "type": "uint256",
          "internalType": "uint256"
        }
      ],
      "outputs": [
        {
          "name": "",
          "type": "bytes32",
          "internalType": "bytes32"
        }
      ],
      "stateMutability": "view"
    },
    {
      "type": "function",
      "name": "clearBurnOrRedistributableShares",
      "inputs": [
        {
          "name": "operatorSet",
          "type": "tuple",
          "internalType": "struct OperatorSet",
          "components": [
            {
              "name": "avs",
              "type": "address",
              "internalType": "address"
            },
            {
              "name": "id",
              "type": "uint32",
              "internalType": "uint32"
            }
          ]
        },
        {
          "name": "slashId",
          "type": "uint256",
          "internalType": "uint256"
        }
      ],
      "outputs": [
        {
          "name": "",
          "type": "uint256[]",
          "internalType": "uint256[]"
        }
      ],
      "stateMutability": "nonpayable"
    },
    {
      "type": "function",
      "name": "clearBurnOrRedistributableSharesByStrategy",
      "inputs": [
        {
          "name": "operatorSet",
          "type": "tuple",
          "internalType": "struct OperatorSet",
          "components": [
            {
              "name": "avs",
              "type": "address",
              "internalType": "address"
            },
            {
              "name": "id",
              "type": "uint32",
              "internalType": "uint32"
            }
          ]
        },
        {
          "name": "slashId",
          "type": "uint256",
          "internalType": "uint256"
        },
        {
          "name": "strategy",
          "type": "address",
          "internalType": "contract IStrategy"
        }
      ],
      "outputs": [
        {
          "name": "",
          "type": "uint256",
          "internalType": "uint256"
        }
      ],
      "stateMutability": "nonpayable"
    },
    {
      "type": "function",
      "name": "delegation",
      "inputs": [],
      "outputs": [
        {
          "name": "",
          "type": "address",
          "internalType": "contract IDelegationManager"
        }
      ],
      "stateMutability": "view"
    },
    {
      "type": "function",
      "name": "depositIntoStrategy",
      "inputs": [
        {
          "name": "strategy",
          "type": "address",
          "internalType": "contract IStrategy"
        },
        {
          "name": "token",
          "type": "address",
          "internalType": "contract IERC20"
        },
        {
          "name": "amount",
          "type": "uint256",
          "internalType": "uint256"
        }
      ],
      "outputs": [
        {
          "name": "depositShares",
          "type": "uint256",
          "internalType": "uint256"
        }
      ],
      "stateMutability": "nonpayable"
    },
    {
      "type": "function",
      "name": "depositIntoStrategyWithSignature",
      "inputs": [
        {
          "name": "strategy",
          "type": "address",
          "internalType": "contract IStrategy"
        },
        {
          "name": "token",
          "type": "address",
          "internalType": "contract IERC20"
        },
        {
          "name": "amount",
          "type": "uint256",
          "internalType": "uint256"
        },
        {
          "name": "staker",
          "type": "address",
          "internalType": "address"
        },
        {
          "name": "expiry",
          "type": "uint256",
          "internalType": "uint256"
        },
        {
          "name": "signature",
          "type": "bytes",
          "internalType": "bytes"
        }
      ],
      "outputs": [
        {
          "name": "depositShares",
          "type": "uint256",
          "internalType": "uint256"
        }
      ],
      "stateMutability": "nonpayable"
    },
    {
      "type": "function",
      "name": "domainSeparator",
      "inputs": [],
      "outputs": [
        {
          "name": "",
          "type": "bytes32",
          "internalType": "bytes32"
        }
      ],
      "stateMutability": "view"
    },
    {
      "type": "function",
      "name": "getBurnOrRedistributableCount",
      "inputs": [
        {
          "name": "operatorSet",
          "type": "tuple",
          "internalType": "struct OperatorSet",
          "components": [
            {
              "name": "avs",
              "type": "address",
              "internalType": "address"
            },
            {
              "name": "id",
              "type": "uint32",
              "internalType": "uint32"
            }
          ]
        },
        {
          "name": "slashId",
          "type": "uint256",
          "internalType": "uint256"
        }
      ],
      "outputs": [
        {
          "name": "",
          "type": "uint256",
          "internalType": "uint256"
        }
      ],
      "stateMutability": "view"
    },
    {
      "type": "function",
      "name": "getBurnOrRedistributableShares",
      "inputs": [
        {
          "name": "operatorSet",
          "type": "tuple",
          "internalType": "struct OperatorSet",
          "components": [
            {
              "name": "avs",
              "type": "address",
              "internalType": "address"
            },
            {
              "name": "id",
              "type": "uint32",
              "internalType": "uint32"
            }
          ]
        },
        {
          "name": "slashId",
          "type": "uint256",
          "internalType": "uint256"
        }
      ],
      "outputs": [
        {
          "name": "",
          "type": "address[]",
          "internalType": "contract IStrategy[]"
        },
        {
          "name": "",
          "type": "uint256[]",
          "internalType": "uint256[]"
        }
      ],
      "stateMutability": "view"
    },
    {
      "type": "function",
      "name": "getBurnOrRedistributableShares",
      "inputs": [
        {
          "name": "operatorSet",
          "type": "tuple",
          "internalType": "struct OperatorSet",
          "components": [
            {
              "name": "avs",
              "type": "address",
              "internalType": "address"
            },
            {
              "name": "id",
              "type": "uint32",
              "internalType": "uint32"
            }
          ]
        },
        {
          "name": "slashId",
          "type": "uint256",
          "internalType": "uint256"
        },
        {
          "name": "strategy",
          "type": "address",
          "internalType": "contract IStrategy"
        }
      ],
      "outputs": [
        {
          "name": "",
          "type": "uint256",
          "internalType": "uint256"
        }
      ],
      "stateMutability": "view"
    },
    {
      "type": "function",
      "name": "getBurnableShares",
      "inputs": [
        {
          "name": "strategy",
          "type": "address",
          "internalType": "contract IStrategy"
        }
      ],
      "outputs": [
        {
          "name": "",
          "type": "uint256",
          "internalType": "uint256"
        }
      ],
      "stateMutability": "view"
    },
    {
      "type": "function",
      "name": "getDeposits",
      "inputs": [
        {
          "name": "staker",
          "type": "address",
          "internalType": "address"
        }
      ],
      "outputs": [
        {
          "name": "",
          "type": "address[]",
          "internalType": "contract IStrategy[]"
        },
        {
          "name": "",
          "type": "uint256[]",
          "internalType": "uint256[]"
        }
      ],
      "stateMutability": "view"
    },
    {
      "type": "function",
      "name": "getStakerStrategyList",
      "inputs": [
        {
          "name": "staker",
          "type": "address",
          "internalType": "address"
        }
      ],
      "outputs": [
        {
          "name": "",
          "type": "address[]",
          "internalType": "contract IStrategy[]"
        }
      ],
      "stateMutability": "view"
    },
    {
      "type": "function",
      "name": "getStrategiesWithBurnableShares",
      "inputs": [],
      "outputs": [
        {
          "name": "",
          "type": "address[]",
          "internalType": "address[]"
        },
        {
          "name": "",
          "type": "uint256[]",
          "internalType": "uint256[]"
        }
      ],
      "stateMutability": "view"
    },
    {
      "type": "function",
      "name": "increaseBurnOrRedistributableShares",
      "inputs": [
        {
          "name": "operatorSet",
          "type": "tuple",
          "internalType": "struct OperatorSet",
          "components": [
            {
              "name": "avs",
              "type": "address",
              "internalType": "address"
            },
            {
              "name": "id",
              "type": "uint32",
              "internalType": "uint32"
            }
          ]
        },
        {
          "name": "slashId",
          "type": "uint256",
          "internalType": "uint256"
        },
        {
          "name": "strategy",
          "type": "address",
          "internalType": "contract IStrategy"
        },
        {
          "name": "sharesToBurn",
          "type": "uint256",
          "internalType": "uint256"
        }
      ],
      "outputs": [],
      "stateMutability": "nonpayable"
    },
    {
      "type": "function",
      "name": "initialize",
      "inputs": [
        {
          "name": "initialOwner",
          "type": "address",
          "internalType": "address"
        },
        {
          "name": "initialStrategyWhitelister",
          "type": "address",
          "internalType": "address"
        },
        {
          "name": "initialPausedStatus",
          "type": "uint256",
          "internalType": "uint256"
        }
      ],
      "outputs": [],
      "stateMutability": "nonpayable"
    },
    {
      "type": "function",
      "name": "nonces",
      "inputs": [
        {
          "name": "signer",
          "type": "address",
          "internalType": "address"
        }
      ],
      "outputs": [
        {
          "name": "nonce",
          "type": "uint256",
          "internalType": "uint256"
        }
      ],
      "stateMutability": "view"
    },
    {
      "type": "function",
      "name": "owner",
      "inputs": [],
      "outputs": [
        {
          "name": "",
          "type": "address",
          "internalType": "address"
        }
      ],
      "stateMutability": "view"
    },
    {
      "type": "function",
      "name": "pause",
      "inputs": [
        {
          "name": "newPausedStatus",
          "type": "uint256",
          "internalType": "uint256"
        }
      ],
      "outputs": [],
      "stateMutability": "nonpayable"
    },
    {
      "type": "function",
      "name": "pauseAll",
      "inputs": [],
      "outputs": [],
      "stateMutability": "nonpayable"
    },
    {
      "type": "function",
      "name": "paused",
      "inputs": [
        {
          "name": "index",
          "type": "uint8",
          "internalType": "uint8"
        }
      ],
      "outputs": [
        {
          "name": "",
          "type": "bool",
          "internalType": "bool"
        }
      ],
      "stateMutability": "view"
    },
    {
      "type": "function",
      "name": "paused",
      "inputs": [],
      "outputs": [
        {
          "name": "",
          "type": "uint256",
          "internalType": "uint256"
        }
      ],
      "stateMutability": "view"
    },
    {
      "type": "function",
      "name": "pauserRegistry",
      "inputs": [],
      "outputs": [
        {
          "name": "",
          "type": "address",
          "internalType": "contract IPauserRegistry"
        }
      ],
      "stateMutability": "view"
    },
    {
      "type": "function",
      "name": "removeDepositShares",
      "inputs": [
        {
          "name": "staker",
          "type": "address",
          "internalType": "address"
        },
        {
          "name": "strategy",
          "type": "address",
          "internalType": "contract IStrategy"
        },
        {
          "name": "depositSharesToRemove",
          "type": "uint256",
          "internalType": "uint256"
        }
      ],
      "outputs": [
        {
          "name": "",
          "type": "uint256",
          "internalType": "uint256"
        }
      ],
      "stateMutability": "nonpayable"
    },
    {
      "type": "function",
      "name": "removeStrategiesFromDepositWhitelist",
      "inputs": [
        {
          "name": "strategiesToRemoveFromWhitelist",
          "type": "address[]",
          "internalType": "contract IStrategy[]"
        }
      ],
      "outputs": [],
      "stateMutability": "nonpayable"
    },
    {
      "type": "function",
      "name": "renounceOwnership",
      "inputs": [],
      "outputs": [],
      "stateMutability": "nonpayable"
    },
    {
      "type": "function",
      "name": "setStrategyWhitelister",
      "inputs": [
        {
          "name": "newStrategyWhitelister",
          "type": "address",
          "internalType": "address"
        }
      ],
      "outputs": [],
      "stateMutability": "nonpayable"
    },
    {
      "type": "function",
      "name": "slashEscrowFactory",
      "inputs": [],
      "outputs": [
        {
          "name": "",
          "type": "address",
          "internalType": "contract ISlashEscrowFactory"
        }
      ],
      "stateMutability": "view"
    },
    {
      "type": "function",
      "name": "stakerDepositShares",
      "inputs": [
        {
          "name": "staker",
          "type": "address",
          "internalType": "address"
        },
        {
          "name": "strategy",
          "type": "address",
          "internalType": "contract IStrategy"
        }
      ],
      "outputs": [
        {
          "name": "shares",
          "type": "uint256",
          "internalType": "uint256"
        }
      ],
      "stateMutability": "view"
    },
    {
      "type": "function",
      "name": "stakerStrategyList",
      "inputs": [
        {
          "name": "staker",
          "type": "address",
          "internalType": "address"
        },
        {
          "name": "",
          "type": "uint256",
          "internalType": "uint256"
        }
      ],
      "outputs": [
        {
          "name": "strategies",
          "type": "address",
          "internalType": "contract IStrategy"
        }
      ],
      "stateMutability": "view"
    },
    {
      "type": "function",
      "name": "stakerStrategyListLength",
      "inputs": [
        {
          "name": "staker",
          "type": "address",
          "internalType": "address"
        }
      ],
      "outputs": [
        {
          "name": "",
          "type": "uint256",
          "internalType": "uint256"
        }
      ],
      "stateMutability": "view"
    },
    {
      "type": "function",
      "name": "strategyIsWhitelistedForDeposit",
      "inputs": [
        {
          "name": "strategy",
          "type": "address",
          "internalType": "contract IStrategy"
        }
      ],
      "outputs": [
        {
          "name": "whitelisted",
          "type": "bool",
          "internalType": "bool"
        }
      ],
      "stateMutability": "view"
    },
    {
      "type": "function",
      "name": "strategyWhitelister",
      "inputs": [],
      "outputs": [
        {
          "name": "",
          "type": "address",
          "internalType": "address"
        }
      ],
      "stateMutability": "view"
    },
    {
      "type": "function",
      "name": "transferOwnership",
      "inputs": [
        {
          "name": "newOwner",
          "type": "address",
          "internalType": "address"
        }
      ],
      "outputs": [],
      "stateMutability": "nonpayable"
    },
    {
      "type": "function",
      "name": "unpause",
      "inputs": [
        {
          "name": "newPausedStatus",
          "type": "uint256",
          "internalType": "uint256"
        }
      ],
      "outputs": [],
      "stateMutability": "nonpayable"
    },
    {
      "type": "function",
      "name": "version",
      "inputs": [],
      "outputs": [
        {
          "name": "",
          "type": "string",
          "internalType": "string"
        }
      ],
      "stateMutability": "view"
    },
    {
      "type": "function",
      "name": "withdrawSharesAsTokens",
      "inputs": [
        {
          "name": "staker",
          "type": "address",
          "internalType": "address"
        },
        {
          "name": "strategy",
          "type": "address",
          "internalType": "contract IStrategy"
        },
        {
          "name": "token",
          "type": "address",
          "internalType": "contract IERC20"
        },
        {
          "name": "shares",
          "type": "uint256",
          "internalType": "uint256"
        }
      ],
      "outputs": [],
      "stateMutability": "nonpayable"
    },
    {
      "type": "event",
      "name": "BurnOrRedistributableSharesDecreased",
      "inputs": [
        {
          "name": "operatorSet",
          "type": "tuple",
          "indexed": false,
          "internalType": "struct OperatorSet",
          "components": [
            {
              "name": "avs",
              "type": "address",
              "internalType": "address"
            },
            {
              "name": "id",
              "type": "uint32",
              "internalType": "uint32"
            }
          ]
        },
        {
          "name": "slashId",
          "type": "uint256",
          "indexed": false,
          "internalType": "uint256"
        },
        {
          "name": "strategy",
          "type": "address",
          "indexed": false,
          "internalType": "contract IStrategy"
        },
        {
          "name": "shares",
          "type": "uint256",
          "indexed": false,
          "internalType": "uint256"
        }
      ],
      "anonymous": false
    },
    {
      "type": "event",
      "name": "BurnOrRedistributableSharesIncreased",
      "inputs": [
        {
          "name": "operatorSet",
          "type": "tuple",
          "indexed": false,
          "internalType": "struct OperatorSet",
          "components": [
            {
              "name": "avs",
              "type": "address",
              "internalType": "address"
            },
            {
              "name": "id",
              "type": "uint32",
              "internalType": "uint32"
            }
          ]
        },
        {
          "name": "slashId",
          "type": "uint256",
          "indexed": false,
          "internalType": "uint256"
        },
        {
          "name": "strategy",
          "type": "address",
          "indexed": false,
          "internalType": "contract IStrategy"
        },
        {
          "name": "shares",
          "type": "uint256",
          "indexed": false,
          "internalType": "uint256"
        }
      ],
      "anonymous": false
    },
    {
      "type": "event",
      "name": "BurnableSharesDecreased",
      "inputs": [
        {
          "name": "strategy",
          "type": "address",
          "indexed": false,
          "internalType": "contract IStrategy"
        },
        {
          "name": "shares",
          "type": "uint256",
          "indexed": false,
          "internalType": "uint256"
        }
      ],
      "anonymous": false
    },
    {
      "type": "event",
      "name": "Deposit",
      "inputs": [
        {
          "name": "staker",
          "type": "address",
          "indexed": false,
          "internalType": "address"
        },
        {
          "name": "strategy",
          "type": "address",
          "indexed": false,
          "internalType": "contract IStrategy"
        },
        {
          "name": "shares",
          "type": "uint256",
          "indexed": false,
          "internalType": "uint256"
        }
      ],
      "anonymous": false
    },
    {
      "type": "event",
      "name": "Initialized",
      "inputs": [
        {
          "name": "version",
          "type": "uint8",
          "indexed": false,
          "internalType": "uint8"
        }
      ],
      "anonymous": false
    },
    {
      "type": "event",
      "name": "OwnershipTransferred",
      "inputs": [
        {
          "name": "previousOwner",
          "type": "address",
          "indexed": true,
          "internalType": "address"
        },
        {
          "name": "newOwner",
          "type": "address",
          "indexed": true,
          "internalType": "address"
        }
      ],
      "anonymous": false
    },
    {
      "type": "event",
      "name": "Paused",
      "inputs": [
        {
          "name": "account",
          "type": "address",
          "indexed": true,
          "internalType": "address"
        },
        {
          "name": "newPausedStatus",
          "type": "uint256",
          "indexed": false,
          "internalType": "uint256"
        }
      ],
      "anonymous": false
    },
    {
      "type": "event",
      "name": "StrategyAddedToDepositWhitelist",
      "inputs": [
        {
          "name": "strategy",
          "type": "address",
          "indexed": false,
          "internalType": "contract IStrategy"
        }
      ],
      "anonymous": false
    },
    {
      "type": "event",
      "name": "StrategyRemovedFromDepositWhitelist",
      "inputs": [
        {
          "name": "strategy",
          "type": "address",
          "indexed": false,
          "internalType": "contract IStrategy"
        }
      ],
      "anonymous": false
    },
    {
      "type": "event",
      "name": "StrategyWhitelisterChanged",
      "inputs": [
        {
          "name": "previousAddress",
          "type": "address",
          "indexed": false,
          "internalType": "address"
        },
        {
          "name": "newAddress",
          "type": "address",
          "indexed": false,
          "internalType": "address"
        }
      ],
      "anonymous": false
    },
    {
      "type": "event",
      "name": "Unpaused",
      "inputs": [
        {
          "name": "account",
          "type": "address",
          "indexed": true,
          "internalType": "address"
        },
        {
          "name": "newPausedStatus",
          "type": "uint256",
          "indexed": false,
          "internalType": "uint256"
        }
      ],
      "anonymous": false
    },
    {
      "type": "error",
      "name": "CurrentlyPaused",
      "inputs": []
    },
    {
      "type": "error",
      "name": "InputAddressZero",
      "inputs": []
    },
    {
      "type": "error",
      "name": "InvalidNewPausedStatus",
      "inputs": []
    },
    {
      "type": "error",
      "name": "InvalidShortString",
      "inputs": []
    },
    {
      "type": "error",
      "name": "InvalidSignature",
      "inputs": []
    },
    {
      "type": "error",
      "name": "MaxStrategiesExceeded",
      "inputs": []
    },
    {
      "type": "error",
      "name": "OnlyDelegationManager",
      "inputs": []
    },
    {
      "type": "error",
      "name": "OnlyPauser",
      "inputs": []
    },
    {
      "type": "error",
      "name": "OnlyStrategyWhitelister",
      "inputs": []
    },
    {
      "type": "error",
      "name": "OnlyUnpauser",
      "inputs": []
    },
    {
      "type": "error",
      "name": "SharesAmountTooHigh",
      "inputs": []
    },
    {
      "type": "error",
      "name": "SharesAmountZero",
      "inputs": []
    },
    {
      "type": "error",
      "name": "SignatureExpired",
      "inputs": []
    },
    {
      "type": "error",
      "name": "StakerAddressZero",
      "inputs": []
    },
    {
      "type": "error",
      "name": "StrategyAlreadyInSlash",
      "inputs": []
    },
    {
      "type": "error",
      "name": "StrategyNotFound",
      "inputs": []
    },
    {
      "type": "error",
      "name": "StrategyNotWhitelisted",
      "inputs": []
    },
    {
      "type": "error",
      "name": "StringTooLong",
      "inputs": [
        {
          "name": "str",
          "type": "string",
          "internalType": "string"
        }
      ]
    }
  ],
  "bytecode": {
    "object": "0x610100604052348015610010575f5ffd5b506040516137e33803806137e383398101604081905261002f916101bc565b80808585856001600160a01b03811661005b576040516339b190bb60e11b815260040160405180910390fd5b6001600160a01b0390811660805291821660a0521660c05261007c81610093565b60e0525061008a90506100d9565b50505050610301565b5f5f829050601f815111156100c6578260405163305a27a960e01b81526004016100bd91906102a6565b60405180910390fd5b80516100d1826102db565b179392505050565b5f54610100900460ff16156101405760405162461bcd60e51b815260206004820152602760248201527f496e697469616c697a61626c653a20636f6e747261637420697320696e697469604482015266616c697a696e6760c81b60648201526084016100bd565b5f5460ff9081161461018f575f805460ff191660ff9081179091556040519081527f7f26b83ff96e1f2b6a682f133852f6798a09c465da95921460cefb38474024989060200160405180910390a15b565b6001600160a01b03811681146101a5575f5ffd5b50565b634e487b7160e01b5f52604160045260245ffd5b5f5f5f5f608085870312156101cf575f5ffd5b84516101da81610191565b60208601519094506101eb81610191565b60408601519093506101fc81610191565b60608601519092506001600160401b03811115610217575f5ffd5b8501601f81018713610227575f5ffd5b80516001600160401b03811115610240576102406101a8565b604051601f8201601f19908116603f011681016001600160401b038111828210171561026e5761026e6101a8565b604052818152828201602001891015610285575f5ffd5b8160208401602083015e5f6020838301015280935050505092959194509250565b602081525f82518060208401528060208501604085015e5f604082850101526040601f19601f83011684010191505092915050565b805160208083015191908110156102fb575f198160200360031b1b821691505b50919050565b60805160a05160c05160e05161346961037a5f395f81816110fa015261222701525f81816103ce015281816108310152610e8401525f81816105bc015281816109d201528181610dcb0152818161108c015281816112a70152611e9b01525f81816104aa01528181611a90015261229601526134695ff3fe608060405234801561000f575f5ffd5b5060043610610255575f3560e01c80637ecebe0011610140578063c6656702116100bf578063f2fde38b11610084578063f2fde38b146105f1578063f3b4a00014610604578063f698da251461060e578063fabc1cbc14610616578063fd98042314610629578063fe243a171461063c575f5ffd5b8063c665670214610571578063cbc2bd6214610584578063de44acb614610597578063df5cf723146105b7578063e7a050aa146105de575f5ffd5b80638da5cb5b116101055780638da5cb5b1461051457806394f649dd14610525578063967fc0d2146105385780639ac01d611461054b578063b5d8b5b81461055e575f5ffd5b80637ecebe0014610473578063829fca7314610492578063886f1195146104a557806388c10299146104cc5780638b8aac3c146104ec575f5ffd5b806350ff7225116101d75780635c975abb1161019c5780635c975abb146104085780635de08ff214610410578063663c1de414610423578063715018a614610445578063724af4231461044d57806376fb162b14610460575f5ffd5b806350ff72251461035157806354fd4d5014610379578063595c6a671461038e5780635ac86ab7146103965780635b84087f146103c9575f5ffd5b806332e89ace1161021d57806332e89ace146102db57806336a8c500146102ee5780633fb99ca51461030457806348825e94146103175780634b6d5d6e1461033e575f5ffd5b8063136439dd146102595780631794bb3c1461026e5780632d44def6146102815780632eae418c146102a757806331f8fb4c146102ba575b5f5ffd5b61026c610267366004612c76565b610666565b005b61026c61027c366004612ca1565b6106a0565b61029461028f366004612cf5565b6107c6565b6040519081526020015b60405180910390f35b61026c6102b5366004612d33565b6109c7565b6102cd6102c8366004612d81565b610a93565b60405161029e929190612e1d565b6102946102e9366004612e8f565b610c1e565b6102f6610ca3565b60405161029e929190612f6b565b61026c610312366004612fc1565b610dc0565b6102947f4337f82d142e41f2a8c10547cd8c859bddb92262a61058e77842e24d9dea922481565b61026c61034c366004613005565b610f32565b61036461035f366004612ca1565b61107f565b6040805192835260208301919091520161029e565b6103816110f3565b60405161029e919061304e565b61026c611123565b6103b96103a4366004613060565b609854600160ff9092169190911b9081161490565b604051901515815260200161029e565b6103f07f000000000000000000000000000000000000000000000000000000000000000081565b6040516001600160a01b03909116815260200161029e565b609854610294565b61026c61041e366004613080565b611137565b6103b9610431366004613005565b60d16020525f908152604090205460ff1681565b61026c61128a565b61029461045b366004612ca1565b61129b565b61029461046e366004612cf5565b611304565b610294610481366004613005565b60ca6020525f908152604090205481565b6102946104a0366004612d81565b611349565b6103f07f000000000000000000000000000000000000000000000000000000000000000081565b6104df6104da366004612d81565b61138c565b60405161029e91906130f1565b6102946104fa366004613005565b6001600160a01b03165f90815260ce602052604090205490565b6033546001600160a01b03166103f0565b6102cd610533366004613005565b61147d565b60cb546103f0906001600160a01b031681565b610294610559366004613103565b6115f5565b61026c61056c366004613080565b611686565b61026c61057f366004613005565b6117cd565b6103f0610592366004613164565b6117f0565b6105aa6105a5366004613005565b611824565b60405161029e919061318e565b6103f07f000000000000000000000000000000000000000000000000000000000000000081565b6102946105ec366004612ca1565b611897565b61026c6105ff366004613005565b6118ca565b6103f0620e16e481565b610294611940565b61026c610624366004612c76565b6119f9565b610294610637366004613005565b611a66565b61029461064a3660046131a0565b60cd60209081525f928352604080842090915290825290205481565b61066e611a7b565b60985481811681146106935760405163c61dca5d60e01b815260040160405180910390fd5b61069c82611b1e565b5050565b5f54610100900460ff16158080156106be57505f54600160ff909116105b806106d75750303b1580156106d757505f5460ff166001145b61073f5760405162461bcd60e51b815260206004820152602e60248201527f496e697469616c697a61626c653a20636f6e747261637420697320616c72656160448201526d191e481a5b9a5d1a585b1a5e995960921b60648201526084015b60405180910390fd5b5f805460ff191660011790558015610760575f805461ff0019166101001790555b61076982611b1e565b61077284611b5b565b61077b83611bac565b80156107c0575f805461ff0019169055604051600181527f7f26b83ff96e1f2b6a682f133852f6798a09c465da95921460cefb38474024989060200160405180910390a15b50505050565b5f8060d7816107e26107dd368990038901896131ef565b611c15565b815260208082019290925260409081015f9081208782529092528120915061080a8285611c78565b915061081890508285611c9c565b505f81156109bb57846001600160a01b031663d9caed127f00000000000000000000000000000000000000000000000000000000000000006001600160a01b0316633453b2348a8a6040518363ffffffff1660e01b815260040161087d92919061327d565b602060405180830381865afa158015610898573d5f5f3e3d5ffd5b505050506040513d601f19601f820116820180604052508101906108bc9190613298565b876001600160a01b0316632495a5996040518163ffffffff1660e01b8152600401602060405180830381865afa1580156108f8573d5f5f3e3d5ffd5b505050506040513d601f19601f8201168201806040525081019061091c9190613298565b856040518463ffffffff1660e01b815260040161093b939291906132b3565b6020604051808303815f875af1158015610957573d5f5f3e3d5ffd5b505050506040513d601f19601f8201168201806040525081019061097b91906132d7565b90507fe6413aa0c789e437b0a06bf64b20926584f066c79a2d8b80a759c85472f7b0af878787856040516109b294939291906132ee565b60405180910390a15b925050505b9392505050565b336001600160a01b037f00000000000000000000000000000000000000000000000000000000000000001614610a105760405163f739589b60e01b815260040160405180910390fd5b610a18611cb0565b604051636ce5768960e11b81526001600160a01b0384169063d9caed1290610a48908790869086906004016132b3565b6020604051808303815f875af1158015610a64573d5f5f3e3d5ffd5b505050506040513d601f19601f82011682018060405250810190610a8891906132d7565b506107c06001606555565b6060805f60d781610aac6107dd368990038901896131ef565b81526020019081526020015f205f8581526020019081526020015f2090505f610ad482611d09565b90505f815167ffffffffffffffff811115610af157610af1612e4a565b604051908082528060200260200182016040528015610b1a578160200160208202803683370190505b5090505f825167ffffffffffffffff811115610b3857610b38612e4a565b604051908082528060200260200182016040528015610b61578160200160208202803683370190505b5090505f5b8351811015610c0e57838181518110610b8157610b81613320565b6020026020010151838281518110610b9b57610b9b613320565b60200260200101906001600160a01b031690816001600160a01b031681525050610be7848281518110610bd057610bd0613320565b602002602001015186611c7890919063ffffffff16565b9050828281518110610bfb57610bfb613320565b6020908102919091010152600101610b66565b50909450925050505b9250929050565b5f5f610c2981611d15565b610c31611cb0565b6001600160a01b0385165f90815260ca6020526040902054610c6286610c5b818c8c8c878c6115f5565b8688611d40565b6001600160a01b0386165f90815260ca60205260409020600182019055610c8b868a8a8a611d92565b925050610c986001606555565b509695505050505050565b6060805f610cb160d4611eff565b90505f8167ffffffffffffffff811115610ccd57610ccd612e4a565b604051908082528060200260200182016040528015610cf6578160200160208202803683370190505b5090505f8267ffffffffffffffff811115610d1357610d13612e4a565b604051908082528060200260200182016040528015610d3c578160200160208202803683370190505b5090505f5b83811015610db5575f5f610d5660d484611f09565b9150915081858481518110610d6d57610d6d613320565b60200260200101906001600160a01b031690816001600160a01b03168152505080848481518110610da057610da0613320565b60209081029190910101525050600101610d41565b509094909350915050565b336001600160a01b037f00000000000000000000000000000000000000000000000000000000000000001614610e095760405163f739589b60e01b815260040160405180910390fd5b610e11611cb0565b5f60d781610e276107dd368990038901896131ef565b815260208082019290925260409081015f90812087825290925290209050610e50818484611f17565b610e6d5760405163ca354fa360e01b815260040160405180910390fd5b604051637a96761160e01b81526001600160a01b037f00000000000000000000000000000000000000000000000000000000000000001690637a96761190610ebd90889088908890600401613334565b5f604051808303815f87803b158015610ed4575f5ffd5b505af1158015610ee6573d5f5f3e3d5ffd5b505050507f5f5209798bbac45a16d2dc3bc67319fab26ee00153916d6f07b69f8a134a1e8b85858585604051610f1f94939291906132ee565b60405180910390a1506107c06001606555565b610f3a611cb0565b5f610f4660d483611c78565b915050610f5460d483611c9c565b50604080516001600160a01b0384168152602081018390527fd9d082c3ec4f3a3ffa55c324939a06407f5fbcb87d5e0ce3b9508c92c84ed839910160405180910390a1801561107157816001600160a01b031663d9caed12620e16e4846001600160a01b0316632495a5996040518163ffffffff1660e01b8152600401602060405180830381865afa158015610fec573d5f5f3e3d5ffd5b505050506040513d601f19601f820116820180604052508101906110109190613298565b846040518463ffffffff1660e01b815260040161102f939291906132b3565b6020604051808303815f875af115801561104b573d5f5f3e3d5ffd5b505050506040513d601f19601f8201168201806040525081019061106f91906132d7565b505b5061107c6001606555565b50565b5f80336001600160a01b037f000000000000000000000000000000000000000000000000000000000000000016146110ca5760405163f739589b60e01b815260040160405180910390fd5b6110d2611cb0565b6110dd858585611f2c565b915091506110eb6001606555565b935093915050565b606061111e7f0000000000000000000000000000000000000000000000000000000000000000612094565b905090565b61112b611a7b565b6111355f19611b1e565b565b60cb546001600160a01b03163314611162576040516320ba3ff960e21b815260040160405180910390fd5b61116a611cb0565b805f5b8181101561127e5760d15f85858481811061118a5761118a613320565b905060200201602081019061119f9190613005565b6001600160a01b0316815260208101919091526040015f205460ff1661127657600160d15f8686858181106111d6576111d6613320565b90506020020160208101906111eb9190613005565b6001600160a01b0316815260208101919091526040015f20805460ff19169115159190911790557f0c35b17d91c96eb2751cd456e1252f42a386e524ef9ff26ecc9950859fdc04fe84848381811061124557611245613320565b905060200201602081019061125a9190613005565b6040516001600160a01b03909116815260200160405180910390a15b60010161116d565b505061069c6001606555565b6112926120d1565b6111355f611b5b565b5f336001600160a01b037f000000000000000000000000000000000000000000000000000000000000000016146112e55760405163f739589b60e01b815260040160405180910390fd5b6112ed611cb0565b6112f884848461212b565b90506109c06001606555565b5f806109bb8360d78361131f6107dd368b90038b018b6131ef565b81526020019081526020015f205f8781526020019081526020015f20611c7890919063ffffffff16565b5f61138360d7826113626107dd368890038801886131ef565b81526020019081526020015f205f8481526020019081526020015f20611eff565b90505b92915050565b6060611396611cb0565b5f6113d060d7826113af6107dd368990038901896131ef565b81526020019081526020015f205f8581526020019081526020015f20611d09565b80519091505f8167ffffffffffffffff8111156113ef576113ef612e4a565b604051908082528060200260200182016040528015611418578160200160208202803683370190505b5090505f5b8281101561146e57611449878786848151811061143c5761143c613320565b60200260200101516107c6565b82828151811061145b5761145b613320565b602090810291909101015260010161141d565b50925050506113866001606555565b6001600160a01b0381165f90815260ce60205260408120546060918291908167ffffffffffffffff8111156114b4576114b4612e4a565b6040519080825280602002602001820160405280156114dd578160200160208202803683370190505b5090505f5b8281101561156b576001600160a01b0386165f90815260cd6020908152604080832060ce909252822080549192918490811061152057611520613320565b5f9182526020808320909101546001600160a01b03168352820192909252604001902054825183908390811061155857611558613320565b60209081029190910101526001016114e2565b5060ce5f866001600160a01b03166001600160a01b031681526020019081526020015f2081818054806020026020016040519081016040528092919081815260200182805480156115e357602002820191905f5260205f20905b81546001600160a01b031681526001909101906020018083116115c5575b50505050509150935093505050915091565b604080517f4337f82d142e41f2a8c10547cd8c859bddb92262a61058e77842e24d9dea922460208201526001600160a01b03808916928201929092528187166060820152908516608082015260a0810184905260c0810183905260e081018290525f9061167b9061010001604051602081830303815290604052805190602001206121d9565b979650505050505050565b60cb546001600160a01b031633146116b1576040516320ba3ff960e21b815260040160405180910390fd5b6116b9611cb0565b805f5b8181101561127e5760d15f8585848181106116d9576116d9613320565b90506020020160208101906116ee9190613005565b6001600160a01b0316815260208101919091526040015f205460ff16156117c5575f60d15f86868581811061172557611725613320565b905060200201602081019061173a9190613005565b6001600160a01b0316815260208101919091526040015f20805460ff19169115159190911790557f4074413b4b443e4e58019f2855a8765113358c7c72e39509c6af45fc0f5ba03084848381811061179457611794613320565b90506020020160208101906117a99190613005565b6040516001600160a01b03909116815260200160405180910390a15b6001016116bc565b6117d56120d1565b6117dd611cb0565b6117e681611bac565b61107c6001606555565b60ce602052815f5260405f208181548110611809575f80fd5b5f918252602090912001546001600160a01b03169150829050565b6001600160a01b0381165f90815260ce602090815260409182902080548351818402810184019094528084526060939283018282801561188b57602002820191905f5260205f20905b81546001600160a01b0316815260019091019060200180831161186d575b50505050509050919050565b5f5f6118a281611d15565b6118aa611cb0565b6118b633868686611d92565b91506118c26001606555565b509392505050565b6118d26120d1565b6001600160a01b0381166119375760405162461bcd60e51b815260206004820152602660248201527f4f776e61626c653a206e6577206f776e657220697320746865207a65726f206160448201526564647265737360d01b6064820152608401610736565b61107c81611b5b565b60408051808201909152600a81526922b4b3b2b72630bcb2b960b11b6020909101525f7f8b73c3c69bb8fe3d512ecc4cf759cc79239f7b179b0ffacaa9a75d522b39400f7f71b625cfad44bac63b13dba07f2e1d6084ee04b6f8752101ece6126d584ee6ea6119ad61221f565b805160209182012060408051928301949094529281019190915260608101919091524660808201523060a082015260c00160405160208183030381529060405280519060200120905090565b611a01612294565b60985480198219811614611a285760405163c61dca5d60e01b815260040160405180910390fd5b609882905560405182815233907f3582d1828e26bf56bd801502bc021ac0bc8afb57c826e4986b45593c8fad389c9060200160405180910390a25050565b5f5f611a7360d484611c78565b949350505050565b60405163237dfb4760e11b81523360048201527f00000000000000000000000000000000000000000000000000000000000000006001600160a01b0316906346fbf68e90602401602060405180830381865afa158015611add573d5f5f3e3d5ffd5b505050506040513d601f19601f82011682018060405250810190611b019190613361565b61113557604051631d77d47760e21b815260040160405180910390fd5b609881905560405181815233907fab40a374bc51de372200a8bc981af8c9ecdc08dfdaef0bb6e09f88f3c616ef3d9060200160405180910390a250565b603380546001600160a01b038381166001600160a01b0319831681179093556040519116919082907f8be0079c531659141344cd1fd0a4f28419497f9722a3daafe3b4186f6b6457e0905f90a35050565b60cb54604080516001600160a01b03928316815291831660208301527f4264275e593955ff9d6146a51a4525f6ddace2e81db9391abcc9d1ca48047d29910160405180910390a160cb80546001600160a01b0319166001600160a01b0392909216919091179055565b5f815f0151826020015163ffffffff16604051602001611c6092919060609290921b6bffffffffffffffffffffffff1916825260a01b6001600160a01b031916601482015260200190565b60405160208183030381529060405261138690613380565b5f808080611c8f866001600160a01b038716612345565b9097909650945050505050565b5f611383836001600160a01b03841661237d565b600260655403611d025760405162461bcd60e51b815260206004820152601f60248201527f5265656e7472616e637947756172643a207265656e7472616e742063616c6c006044820152606401610736565b6002606555565b60605f6109c083612399565b609854600160ff83161b9081160361107c5760405163840a48d560e01b815260040160405180910390fd5b42811015611d6157604051630819bdcd60e01b815260040160405180910390fd5b611d756001600160a01b03851684846123a4565b6107c057604051638baa579f60e01b815260040160405180910390fd5b6001600160a01b0383165f90815260d16020526040812054849060ff16611dcc57604051632efd965160e11b815260040160405180910390fd5b611de16001600160a01b0385163387866123f8565b6040516311f9fbc960e21b81526001600160a01b038581166004830152602482018590528616906347e7ef24906044016020604051808303815f875af1158015611e2d573d5f5f3e3d5ffd5b505050506040513d601f19601f82011682018060405250810190611e5191906132d7565b91505f5f611e60888886611f2c565b604051631e328e7960e11b81526001600160a01b038b811660048301528a8116602483015260448201849052606482018390529294509092507f000000000000000000000000000000000000000000000000000000000000000090911690633c651cf2906084015f604051808303815f87803b158015611ede575f5ffd5b505af1158015611ef0573d5f5f3e3d5ffd5b50505050505050949350505050565b5f61138682612450565b5f808080611c8f868661245a565b5f611a73846001600160a01b03851684612483565b5f806001600160a01b038516611f55576040516316f2ccc960e01b815260040160405180910390fd5b825f03611f75576040516342061b2560e11b815260040160405180910390fd5b6001600160a01b038086165f90815260cd602090815260408083209388168352929052908120549081900361201b576001600160a01b0386165f90815260ce602090815260409091205410611fdd576040516301a1443960e31b815260040160405180910390fd5b6001600160a01b038681165f90815260ce602090815260408220805460018101825590835291200180546001600160a01b0319169187169190911790555b61202584826133b7565b6001600160a01b038088165f90815260cd60209081526040808320938a16835292905281902091909155517f5548c837ab068cf56a2c2479df0882a4922fd203edb7517321831d95078c5f6290612081908890889088906132b3565b60405180910390a1959294509192505050565b60605f6120a08361249f565b6040805160208082528183019092529192505f91906020820181803683375050509182525060208101929092525090565b6033546001600160a01b031633146111355760405162461bcd60e51b815260206004820181905260248201527f4f776e61626c653a2063616c6c6572206973206e6f7420746865206f776e65726044820152606401610736565b5f815f0361214c576040516342061b2560e11b815260040160405180910390fd5b6001600160a01b038085165f90815260cd60209081526040808320938716835292905220548083111561219257604051634b18b19360e01b815260040160405180910390fd5b61219c83826133ca565b6001600160a01b038087165f90815260cd602090815260408083209389168352929052908120829055909150819003611a7357611a7385856124c6565b5f6121e2611940565b60405161190160f01b6020820152602281019190915260428101839052606201604051602081830303815290604052805190602001209050919050565b60605f61224b7f0000000000000000000000000000000000000000000000000000000000000000612094565b9050805f8151811061225f5761225f613320565b016020908101516040516001600160f81b03199091169181019190915260210160405160208183030381529060405291505090565b7f00000000000000000000000000000000000000000000000000000000000000006001600160a01b031663eab66d7a6040518163ffffffff1660e01b8152600401602060405180830381865afa1580156122f0573d5f5f3e3d5ffd5b505050506040513d601f19601f820116820180604052508101906123149190613298565b6001600160a01b0316336001600160a01b0316146111355760405163794821ff60e01b815260040160405180910390fd5b5f818152600283016020526040812054819080612372576123668585612644565b92505f9150610c179050565b600192509050610c17565b5f8181526002830160205260408120819055611383838361264f565b60606113868261265a565b5f5f5f6123b18585612666565b90925090505f8160048111156123c9576123c96133dd565b1480156123e75750856001600160a01b0316826001600160a01b0316145b806109bb57506109bb8686866126a5565b6107c0846323b872dd60e01b858585604051602401612419939291906132b3565b60408051601f198184030181529190526020810180516001600160e01b03166001600160e01b03199093169290921790915261278c565b5f61138682612864565b5f8080612467858561286d565b5f81815260029690960160205260409095205494959350505050565b5f8281526002840160205260408120829055611a738484612878565b5f60ff8216601f81111561138657604051632cd44ac360e21b815260040160405180910390fd5b6001600160a01b0382165f90815260ce6020526040812054905b818110156125d8576001600160a01b038481165f90815260ce602052604090208054918516918390811061251657612516613320565b5f918252602090912001546001600160a01b0316036125d0576001600160a01b0384165f90815260ce602052604090208054612554906001906133ca565b8154811061256457612564613320565b5f9182526020808320909101546001600160a01b03878116845260ce90925260409092208054919092169190839081106125a0576125a0613320565b905f5260205f20015f6101000a8154816001600160a01b0302191690836001600160a01b031602179055506125d8565b6001016124e0565b8181036125f857604051632df15a4160e11b815260040160405180910390fd5b6001600160a01b0384165f90815260ce6020526040902080548061261e5761261e6133f1565b5f8281526020902081015f1990810180546001600160a01b031916905501905550505050565b5f6113838383612883565b5f611383838361289a565b60605f6109c08361297d565b5f5f825160410361269a576020830151604084015160608501515f1a61268e878285856129d5565b94509450505050610c17565b505f90506002610c17565b5f5f5f856001600160a01b0316631626ba7e60e01b86866040516024016126cd929190613405565b60408051601f198184030181529181526020820180516001600160e01b03166001600160e01b031990941693909317909252905161270b919061341d565b5f60405180830381855afa9150503d805f8114612743576040519150601f19603f3d011682016040523d82523d5f602084013e612748565b606091505b509150915081801561275c57506020815110155b80156109bb57508051630b135d3f60e11b9061278190830160209081019084016132d7565b149695505050505050565b5f6127e0826040518060400160405280602081526020017f5361666545524332303a206c6f772d6c6576656c2063616c6c206661696c6564815250856001600160a01b0316612a929092919063ffffffff16565b905080515f14806128005750808060200190518101906128009190613361565b61285f5760405162461bcd60e51b815260206004820152602a60248201527f5361666545524332303a204552433230206f7065726174696f6e20646964206e6044820152691bdd081cdd58d8d9595960b21b6064820152608401610736565b505050565b5f611386825490565b5f6113838383612aa0565b5f6113838383612ac6565b5f8181526001830160205260408120541515611383565b5f8181526001830160205260408120548015612974575f6128bc6001836133ca565b85549091505f906128cf906001906133ca565b905081811461292e575f865f0182815481106128ed576128ed613320565b905f5260205f200154905080875f01848154811061290d5761290d613320565b5f918252602080832090910192909255918252600188019052604090208390555b855486908061293f5761293f6133f1565b600190038181905f5260205f20015f90559055856001015f8681526020019081526020015f205f905560019350505050611386565b5f915050611386565b6060815f0180548060200260200160405190810160405280929190818152602001828054801561188b57602002820191905f5260205f20905b8154815260200190600101908083116129b65750505050509050919050565b5f807f7fffffffffffffffffffffffffffffff5d576e7357a4501ddfe92f46681b20a0831115612a0a57505f90506003612a89565b604080515f8082526020820180845289905260ff881692820192909252606081018690526080810185905260019060a0016020604051602081039080840390855afa158015612a5b573d5f5f3e3d5ffd5b5050604051601f1901519150506001600160a01b038116612a83575f60019250925050612a89565b91505f90505b94509492505050565b6060611a7384845f85612b12565b5f825f018281548110612ab557612ab5613320565b905f5260205f200154905092915050565b5f818152600183016020526040812054612b0b57508154600181810184555f848152602080822090930184905584548482528286019093526040902091909155611386565b505f611386565b606082471015612b735760405162461bcd60e51b815260206004820152602660248201527f416464726573733a20696e73756666696369656e742062616c616e636520666f6044820152651c8818d85b1b60d21b6064820152608401610736565b5f5f866001600160a01b03168587604051612b8e919061341d565b5f6040518083038185875af1925050503d805f8114612bc8576040519150601f19603f3d011682016040523d82523d5f602084013e612bcd565b606091505b509150915061167b8783838760608315612c475782515f03612c40576001600160a01b0385163b612c405760405162461bcd60e51b815260206004820152601d60248201527f416464726573733a2063616c6c20746f206e6f6e2d636f6e74726163740000006044820152606401610736565b5081611a73565b611a738383815115612c5c5781518083602001fd5b8060405162461bcd60e51b8152600401610736919061304e565b5f60208284031215612c86575f5ffd5b5035919050565b6001600160a01b038116811461107c575f5ffd5b5f5f5f60608486031215612cb3575f5ffd5b8335612cbe81612c8d565b92506020840135612cce81612c8d565b929592945050506040919091013590565b5f60408284031215612cef575f5ffd5b50919050565b5f5f5f60808486031215612d07575f5ffd5b612d118585612cdf565b9250604084013591506060840135612d2881612c8d565b809150509250925092565b5f5f5f5f60808587031215612d46575f5ffd5b8435612d5181612c8d565b93506020850135612d6181612c8d565b92506040850135612d7181612c8d565b9396929550929360600135925050565b5f5f60608385031215612d92575f5ffd5b612d9c8484612cdf565b946040939093013593505050565b5f8151808452602084019350602083015f5b82811015612de35781516001600160a01b0316865260209586019590910190600101612dbc565b5093949350505050565b5f8151808452602084019350602083015f5b82811015612de3578151865260209586019590910190600101612dff565b604081525f612e2f6040830185612daa565b8281036020840152612e418185612ded565b95945050505050565b634e487b7160e01b5f52604160045260245ffd5b604051601f8201601f1916810167ffffffffffffffff81118282101715612e8757612e87612e4a565b604052919050565b5f5f5f5f5f5f60c08789031215612ea4575f5ffd5b8635612eaf81612c8d565b95506020870135612ebf81612c8d565b9450604087013593506060870135612ed681612c8d565b92506080870135915060a087013567ffffffffffffffff811115612ef8575f5ffd5b8701601f81018913612f08575f5ffd5b803567ffffffffffffffff811115612f2257612f22612e4a565b612f35601f8201601f1916602001612e5e565b8181528a6020838501011115612f49575f5ffd5b816020840160208301375f602083830101528093505050509295509295509295565b604080825283519082018190525f9060208501906060840190835b81811015612fad5783516001600160a01b0316835260209384019390920191600101612f86565b505083810360208501526109bb8186612ded565b5f5f5f5f60a08587031215612fd4575f5ffd5b612fde8686612cdf565b9350604085013592506060850135612ff581612c8d565b9396929550929360800135925050565b5f60208284031215613015575f5ffd5b81356109c081612c8d565b5f81518084528060208401602086015e5f602082860101526020601f19601f83011685010191505092915050565b602081525f6113836020830184613020565b5f60208284031215613070575f5ffd5b813560ff811681146109c0575f5ffd5b5f5f60208385031215613091575f5ffd5b823567ffffffffffffffff8111156130a7575f5ffd5b8301601f810185136130b7575f5ffd5b803567ffffffffffffffff8111156130cd575f5ffd5b8560208260051b84010111156130e1575f5ffd5b6020919091019590945092505050565b602081525f6113836020830184612ded565b5f5f5f5f5f5f60c08789031215613118575f5ffd5b863561312381612c8d565b9550602087013561313381612c8d565b9450604087013561314381612c8d565b959894975094956060810135955060808101359460a0909101359350915050565b5f5f60408385031215613175575f5ffd5b823561318081612c8d565b946020939093013593505050565b602081525f6113836020830184612daa565b5f5f604083850312156131b1575f5ffd5b82356131bc81612c8d565b915060208301356131cc81612c8d565b809150509250929050565b803563ffffffff811681146131ea575f5ffd5b919050565b5f6040828403128015613200575f5ffd5b506040805190810167ffffffffffffffff8111828210171561322457613224612e4a565b604052823561323281612c8d565b8152613240602084016131d7565b60208201529392505050565b803561325781612c8d565b6001600160a01b0316825263ffffffff613273602083016131d7565b1660208301525050565b6060810161328b828561324c565b8260408301529392505050565b5f602082840312156132a8575f5ffd5b81516109c081612c8d565b6001600160a01b039384168152919092166020820152604081019190915260600190565b5f602082840312156132e7575f5ffd5b5051919050565b60a081016132fc828761324c565b60408201949094526001600160a01b03929092166060830152608090910152919050565b634e487b7160e01b5f52603260045260245ffd5b60808101613342828661324c565b60408201939093526001600160a01b0391909116606090910152919050565b5f60208284031215613371575f5ffd5b815180151581146109c0575f5ffd5b80516020808301519190811015612cef575f1960209190910360031b1b16919050565b634e487b7160e01b5f52601160045260245ffd5b80820180821115611386576113866133a3565b81810381811115611386576113866133a3565b634e487b7160e01b5f52602160045260245ffd5b634e487b7160e01b5f52603160045260245ffd5b828152604060208201525f611a736040830184613020565b5f82518060208501845e5f92019182525091905056fea2646970667358221220d1c55ae082af97f481669fc151e33e359a4326060797716d91aa097b2f2810ce64736f6c634300081b0033",
    "linkReferences": {}
  },
  "methodIdentifiers": {
    "DEFAULT_BURN_ADDRESS()": "f3b4a000",
    "DEPOSIT_TYPEHASH()": "48825e94",
    "addShares(address,address,uint256)": "50ff7225",
    "addStrategiesToDepositWhitelist(address[])": "5de08ff2",
    "burnShares(address)": "4b6d5d6e",
    "calculateStrategyDepositDigestHash(address,address,address,uint256,uint256,uint256)": "9ac01d61",
    "clearBurnOrRedistributableShares((address,uint32),uint256)": "88c10299",
    "clearBurnOrRedistributableSharesByStrategy((address,uint32),uint256,address)": "2d44def6",
    "delegation()": "df5cf723",
    "depositIntoStrategy(address,address,uint256)": "e7a050aa",
    "depositIntoStrategyWithSignature(address,address,uint256,address,uint256,bytes)": "32e89ace",
    "domainSeparator()": "f698da25",
    "getBurnOrRedistributableCount((address,uint32),uint256)": "829fca73",
    "getBurnOrRedistributableShares((address,uint32),uint256)": "31f8fb4c",
    "getBurnOrRedistributableShares((address,uint32),uint256,address)": "76fb162b",
    "getBurnableShares(address)": "fd980423",
    "getDeposits(address)": "94f649dd",
    "getStakerStrategyList(address)": "de44acb6",
    "getStrategiesWithBurnableShares()": "36a8c500",
    "increaseBurnOrRedistributableShares((address,uint32),uint256,address,uint256)": "3fb99ca5",
    "initialize(address,address,uint256)": "1794bb3c",
    "nonces(address)": "7ecebe00",
    "owner()": "8da5cb5b",
    "pause(uint256)": "136439dd",
    "pauseAll()": "595c6a67",
    "paused()": "5c975abb",
    "paused(uint8)": "5ac86ab7",
    "pauserRegistry()": "886f1195",
    "removeDepositShares(address,address,uint256)": "724af423",
    "removeStrategiesFromDepositWhitelist(address[])": "b5d8b5b8",
    "renounceOwnership()": "715018a6",
    "setStrategyWhitelister(address)": "c6656702",
    "slashEscrowFactory()": "5b84087f",
    "stakerDepositShares(address,address)": "fe243a17",
    "stakerStrategyList(address,uint256)": "cbc2bd62",
    "stakerStrategyListLength(address)": "8b8aac3c",
    "strategyIsWhitelistedForDeposit(address)": "663c1de4",
    "strategyWhitelister()": "967fc0d2",
    "transferOwnership(address)": "f2fde38b",
    "unpause(uint256)": "fabc1cbc",
    "version()": "54fd4d50",
    "withdrawSharesAsTokens(address,address,address,uint256)": "2eae418c"
  },
  "id": 126
}