{
  "abi": [
    {
      "type": "constructor",
      "inputs": [
        {
          "name": "_strategyManager",
          "type": "address",
          "internalType": "contract IStrategyManager"
        },
        {
          "name": "_pauserRegistry",
          "type": "address",
          "internalType": "contract IPauserRegistry"
        },
        {
          "name": "_delegationManager",
          "type": "address",
          "internalType": "contract IDelegationManager"
        },
        {
          "name": "_allocationManager",
          "type": "address",
          "internalType": "contract IAllocationManager"
        },
        {
          "name": "_rewardsCoordinator",
          "type": "address",
          "internalType": "contract IRewardsCoordinator"
        },
        {
          "name": "_strategyFactory",
          "type": "address",
          "internalType": "contract IStrategyFactory"
        }
      ],
      "stateMutability": "nonpayable"
    },
    {
      "type": "function",
      "name": "advanceToWithdrawals",
      "inputs": [],
      "outputs": [],
      "stateMutability": "nonpayable"
    },
    {
      "type": "function",
      "name": "allocationManager",
      "inputs": [],
      "outputs": [
        {
          "name": "",
          "type": "address",
          "internalType": "contract IAllocationManager"
        }
      ],
      "stateMutability": "view"
    },
    {
      "type": "function",
      "name": "allocationsActive",
      "inputs": [],
      "outputs": [
        {
          "name": "",
          "type": "bool",
          "internalType": "bool"
        }
      ],
      "stateMutability": "view"
    },
    {
      "type": "function",
      "name": "arbitrator",
      "inputs": [],
      "outputs": [
        {
          "name": "",
          "type": "address",
          "internalType": "address"
        }
      ],
      "stateMutability": "view"
    },
    {
      "type": "function",
      "name": "beforeAddShares",
      "inputs": [
        {
          "name": "staker",
          "type": "address",
          "internalType": "address"
        },
        {
          "name": "shares",
          "type": "uint256",
          "internalType": "uint256"
        }
      ],
      "outputs": [],
      "stateMutability": "view"
    },
    {
      "type": "function",
      "name": "beforeRemoveShares",
      "inputs": [
        {
          "name": "",
          "type": "address",
          "internalType": "address"
        },
        {
          "name": "",
          "type": "uint256",
          "internalType": "uint256"
        }
      ],
      "outputs": [],
      "stateMutability": "view"
    },
    {
      "type": "function",
      "name": "delegationManager",
      "inputs": [],
      "outputs": [
        {
          "name": "",
          "type": "address",
          "internalType": "contract IDelegationManager"
        }
      ],
      "stateMutability": "view"
    },
    {
      "type": "function",
      "name": "deposit",
      "inputs": [
        {
          "name": "token",
          "type": "address",
          "internalType": "contract IERC20"
        },
        {
          "name": "amount",
          "type": "uint256",
          "internalType": "uint256"
        }
      ],
      "outputs": [
        {
          "name": "newShares",
          "type": "uint256",
          "internalType": "uint256"
        }
      ],
      "stateMutability": "nonpayable"
    },
    {
      "type": "function",
      "name": "depositsOpen",
      "inputs": [],
      "outputs": [
        {
          "name": "",
          "type": "bool",
          "internalType": "bool"
        }
      ],
      "stateMutability": "view"
    },
    {
      "type": "function",
      "name": "duration",
      "inputs": [],
      "outputs": [
        {
          "name": "",
          "type": "uint32",
          "internalType": "uint32"
        }
      ],
      "stateMutability": "view"
    },
    {
      "type": "function",
      "name": "explanation",
      "inputs": [],
      "outputs": [
        {
          "name": "",
          "type": "string",
          "internalType": "string"
        }
      ],
      "stateMutability": "pure"
    },
    {
      "type": "function",
      "name": "getTVLLimits",
      "inputs": [],
      "outputs": [
        {
          "name": "",
          "type": "uint256",
          "internalType": "uint256"
        },
        {
          "name": "",
          "type": "uint256",
          "internalType": "uint256"
        }
      ],
      "stateMutability": "view"
    },
    {
      "type": "function",
      "name": "initialize",
      "inputs": [
        {
          "name": "config",
          "type": "tuple",
          "internalType": "struct IDurationVaultStrategyTypes.VaultConfig",
          "components": [
            {
              "name": "underlyingToken",
              "type": "address",
              "internalType": "contract IERC20"
            },
            {
              "name": "vaultAdmin",
              "type": "address",
              "internalType": "address"
            },
            {
              "name": "arbitrator",
              "type": "address",
              "internalType": "address"
            },
            {
              "name": "duration",
              "type": "uint32",
              "internalType": "uint32"
            },
            {
              "name": "maxPerDeposit",
              "type": "uint256",
              "internalType": "uint256"
            },
            {
              "name": "stakeCap",
              "type": "uint256",
              "internalType": "uint256"
            },
            {
              "name": "metadataURI",
              "type": "string",
              "internalType": "string"
            },
            {
              "name": "operatorSet",
              "type": "tuple",
              "internalType": "struct OperatorSet",
              "components": [
                {
                  "name": "avs",
                  "type": "address",
                  "internalType": "address"
                },
                {
                  "name": "id",
                  "type": "uint32",
                  "internalType": "uint32"
                }
              ]
            },
            {
              "name": "operatorSetRegistrationData",
              "type": "bytes",
              "internalType": "bytes"
            },
            {
              "name": "delegationApprover",
              "type": "address",
              "internalType": "address"
            },
            {
              "name": "operatorMetadataURI",
              "type": "string",
              "internalType": "string"
            }
          ]
        }
      ],
      "outputs": [],
      "stateMutability": "nonpayable"
    },
    {
      "type": "function",
      "name": "initialize",
      "inputs": [
        {
          "name": "_underlyingToken",
          "type": "address",
          "internalType": "contract IERC20"
        }
      ],
      "outputs": [],
      "stateMutability": "nonpayable"
    },
    {
      "type": "function",
      "name": "isLocked",
      "inputs": [],
      "outputs": [
        {
          "name": "",
          "type": "bool",
          "internalType": "bool"
        }
      ],
      "stateMutability": "view"
    },
    {
      "type": "function",
      "name": "isMatured",
      "inputs": [],
      "outputs": [
        {
          "name": "",
          "type": "bool",
          "internalType": "bool"
        }
      ],
      "stateMutability": "view"
    },
    {
      "type": "function",
      "name": "lock",
      "inputs": [],
      "outputs": [],
      "stateMutability": "nonpayable"
    },
    {
      "type": "function",
      "name": "lockedAt",
      "inputs": [],
      "outputs": [
        {
          "name": "",
          "type": "uint32",
          "internalType": "uint32"
        }
      ],
      "stateMutability": "view"
    },
    {
      "type": "function",
      "name": "markMatured",
      "inputs": [],
      "outputs": [],
      "stateMutability": "nonpayable"
    },
    {
      "type": "function",
      "name": "maturedAt",
      "inputs": [],
      "outputs": [
        {
          "name": "",
          "type": "uint32",
          "internalType": "uint32"
        }
      ],
      "stateMutability": "view"
    },
    {
      "type": "function",
      "name": "maxPerDeposit",
      "inputs": [],
      "outputs": [
        {
          "name": "",
          "type": "uint256",
          "internalType": "uint256"
        }
      ],
      "stateMutability": "view"
    },
    {
      "type": "function",
      "name": "maxTotalDeposits",
      "inputs": [],
      "outputs": [
        {
          "name": "",
          "type": "uint256",
          "internalType": "uint256"
        }
      ],
      "stateMutability": "view"
    },
    {
      "type": "function",
      "name": "metadataURI",
      "inputs": [],
      "outputs": [
        {
          "name": "",
          "type": "string",
          "internalType": "string"
        }
      ],
      "stateMutability": "view"
    },
    {
      "type": "function",
      "name": "operatorIntegrationConfigured",
      "inputs": [],
      "outputs": [
        {
          "name": "",
          "type": "bool",
          "internalType": "bool"
        }
      ],
      "stateMutability": "pure"
    },
    {
      "type": "function",
      "name": "operatorSetInfo",
      "inputs": [],
      "outputs": [
        {
          "name": "avs",
          "type": "address",
          "internalType": "address"
        },
        {
          "name": "operatorSetId",
          "type": "uint32",
          "internalType": "uint32"
        }
      ],
      "stateMutability": "view"
    },
    {
      "type": "function",
      "name": "operatorSetRegistered",
      "inputs": [],
      "outputs": [
        {
          "name": "",
          "type": "bool",
          "internalType": "bool"
        }
      ],
      "stateMutability": "view"
    },
    {
      "type": "function",
      "name": "pause",
      "inputs": [
        {
          "name": "newPausedStatus",
          "type": "uint256",
          "internalType": "uint256"
        }
      ],
      "outputs": [],
      "stateMutability": "nonpayable"
    },
    {
      "type": "function",
      "name": "pauseAll",
      "inputs": [],
      "outputs": [],
      "stateMutability": "nonpayable"
    },
    {
      "type": "function",
      "name": "paused",
      "inputs": [
        {
          "name": "index",
          "type": "uint8",
          "internalType": "uint8"
        }
      ],
      "outputs": [
        {
          "name": "",
          "type": "bool",
          "internalType": "bool"
        }
      ],
      "stateMutability": "view"
    },
    {
      "type": "function",
      "name": "paused",
      "inputs": [],
      "outputs": [
        {
          "name": "",
          "type": "uint256",
          "internalType": "uint256"
        }
      ],
      "stateMutability": "view"
    },
    {
      "type": "function",
      "name": "pauserRegistry",
      "inputs": [],
      "outputs": [
        {
          "name": "",
          "type": "address",
          "internalType": "contract IPauserRegistry"
        }
      ],
      "stateMutability": "view"
    },
    {
      "type": "function",
      "name": "rewardsCoordinator",
      "inputs": [],
      "outputs": [
        {
          "name": "",
          "type": "address",
          "internalType": "contract IRewardsCoordinator"
        }
      ],
      "stateMutability": "view"
    },
    {
      "type": "function",
      "name": "setTVLLimits",
      "inputs": [
        {
          "name": "newMaxPerDeposit",
          "type": "uint256",
          "internalType": "uint256"
        },
        {
          "name": "newMaxTotalDeposits",
          "type": "uint256",
          "internalType": "uint256"
        }
      ],
      "outputs": [],
      "stateMutability": "nonpayable"
    },
    {
      "type": "function",
      "name": "shares",
      "inputs": [
        {
          "name": "user",
          "type": "address",
          "internalType": "address"
        }
      ],
      "outputs": [
        {
          "name": "",
          "type": "uint256",
          "internalType": "uint256"
        }
      ],
      "stateMutability": "view"
    },
    {
      "type": "function",
      "name": "sharesToUnderlying",
      "inputs": [
        {
          "name": "amountShares",
          "type": "uint256",
          "internalType": "uint256"
        }
      ],
      "outputs": [
        {
          "name": "",
          "type": "uint256",
          "internalType": "uint256"
        }
      ],
      "stateMutability": "view"
    },
    {
      "type": "function",
      "name": "sharesToUnderlyingView",
      "inputs": [
        {
          "name": "amountShares",
          "type": "uint256",
          "internalType": "uint256"
        }
      ],
      "outputs": [
        {
          "name": "",
          "type": "uint256",
          "internalType": "uint256"
        }
      ],
      "stateMutability": "view"
    },
    {
      "type": "function",
      "name": "stakeCap",
      "inputs": [],
      "outputs": [
        {
          "name": "",
          "type": "uint256",
          "internalType": "uint256"
        }
      ],
      "stateMutability": "view"
    },
    {
      "type": "function",
      "name": "state",
      "inputs": [],
      "outputs": [
        {
          "name": "",
          "type": "uint8",
          "internalType": "enum IDurationVaultStrategyTypes.VaultState"
        }
      ],
      "stateMutability": "view"
    },
    {
      "type": "function",
      "name": "strategyFactory",
      "inputs": [],
      "outputs": [
        {
          "name": "",
          "type": "address",
          "internalType": "contract IStrategyFactory"
        }
      ],
      "stateMutability": "view"
    },
    {
      "type": "function",
      "name": "strategyManager",
      "inputs": [],
      "outputs": [
        {
          "name": "",
          "type": "address",
          "internalType": "contract IStrategyManager"
        }
      ],
      "stateMutability": "view"
    },
    {
      "type": "function",
      "name": "totalShares",
      "inputs": [],
      "outputs": [
        {
          "name": "",
          "type": "uint256",
          "internalType": "uint256"
        }
      ],
      "stateMutability": "view"
    },
    {
      "type": "function",
      "name": "underlyingToShares",
      "inputs": [
        {
          "name": "amountUnderlying",
          "type": "uint256",
          "internalType": "uint256"
        }
      ],
      "outputs": [
        {
          "name": "",
          "type": "uint256",
          "internalType": "uint256"
        }
      ],
      "stateMutability": "view"
    },
    {
      "type": "function",
      "name": "underlyingToSharesView",
      "inputs": [
        {
          "name": "amountUnderlying",
          "type": "uint256",
          "internalType": "uint256"
        }
      ],
      "outputs": [
        {
          "name": "",
          "type": "uint256",
          "internalType": "uint256"
        }
      ],
      "stateMutability": "view"
    },
    {
      "type": "function",
      "name": "underlyingToken",
      "inputs": [],
      "outputs": [
        {
          "name": "",
          "type": "address",
          "internalType": "contract IERC20"
        }
      ],
      "stateMutability": "view"
    },
    {
      "type": "function",
      "name": "unlockAt",
      "inputs": [],
      "outputs": [
        {
          "name": "",
          "type": "uint32",
          "internalType": "uint32"
        }
      ],
      "stateMutability": "view"
    },
    {
      "type": "function",
      "name": "unlockTimestamp",
      "inputs": [],
      "outputs": [
        {
          "name": "",
          "type": "uint32",
          "internalType": "uint32"
        }
      ],
      "stateMutability": "view"
    },
    {
      "type": "function",
      "name": "unpause",
      "inputs": [
        {
          "name": "newPausedStatus",
          "type": "uint256",
          "internalType": "uint256"
        }
      ],
      "outputs": [],
      "stateMutability": "nonpayable"
    },
    {
      "type": "function",
      "name": "updateMetadataURI",
      "inputs": [
        {
          "name": "newMetadataURI",
          "type": "string",
          "internalType": "string"
        }
      ],
      "outputs": [],
      "stateMutability": "nonpayable"
    },
    {
      "type": "function",
      "name": "updateTVLLimits",
      "inputs": [
        {
          "name": "newMaxPerDeposit",
          "type": "uint256",
          "internalType": "uint256"
        },
        {
          "name": "newStakeCap",
          "type": "uint256",
          "internalType": "uint256"
        }
      ],
      "outputs": [],
      "stateMutability": "nonpayable"
    },
    {
      "type": "function",
      "name": "userUnderlying",
      "inputs": [
        {
          "name": "user",
          "type": "address",
          "internalType": "address"
        }
      ],
      "outputs": [
        {
          "name": "",
          "type": "uint256",
          "internalType": "uint256"
        }
      ],
      "stateMutability": "nonpayable"
    },
    {
      "type": "function",
      "name": "userUnderlyingView",
      "inputs": [
        {
          "name": "user",
          "type": "address",
          "internalType": "address"
        }
      ],
      "outputs": [
        {
          "name": "",
          "type": "uint256",
          "internalType": "uint256"
        }
      ],
      "stateMutability": "view"
    },
    {
      "type": "function",
      "name": "vaultAdmin",
      "inputs": [],
      "outputs": [
        {
          "name": "",
          "type": "address",
          "internalType": "address"
        }
      ],
      "stateMutability": "view"
    },
    {
      "type": "function",
      "name": "withdraw",
      "inputs": [
        {
          "name": "recipient",
          "type": "address",
          "internalType": "address"
        },
        {
          "name": "token",
          "type": "address",
          "internalType": "contract IERC20"
        },
        {
          "name": "amountShares",
          "type": "uint256",
          "internalType": "uint256"
        }
      ],
      "outputs": [
        {
          "name": "amountOut",
          "type": "uint256",
          "internalType": "uint256"
        }
      ],
      "stateMutability": "nonpayable"
    },
    {
      "type": "function",
      "name": "withdrawalsOpen",
      "inputs": [],
      "outputs": [
        {
          "name": "",
          "type": "bool",
          "internalType": "bool"
        }
      ],
      "stateMutability": "view"
    },
    {
      "type": "event",
      "name": "ExchangeRateEmitted",
      "inputs": [
        {
          "name": "rate",
          "type": "uint256",
          "indexed": false,
          "internalType": "uint256"
        }
      ],
      "anonymous": false
    },
    {
      "type": "event",
      "name": "Initialized",
      "inputs": [
        {
          "name": "version",
          "type": "uint8",
          "indexed": false,
          "internalType": "uint8"
        }
      ],
      "anonymous": false
    },
    {
      "type": "event",
      "name": "MaxPerDepositUpdated",
      "inputs": [
        {
          "name": "previousValue",
          "type": "uint256",
          "indexed": false,
          "internalType": "uint256"
        },
        {
          "name": "newValue",
          "type": "uint256",
          "indexed": false,
          "internalType": "uint256"
        }
      ],
      "anonymous": false
    },
    {
      "type": "event",
      "name": "MaxTotalDepositsUpdated",
      "inputs": [
        {
          "name": "previousValue",
          "type": "uint256",
          "indexed": false,
          "internalType": "uint256"
        },
        {
          "name": "newValue",
          "type": "uint256",
          "indexed": false,
          "internalType": "uint256"
        }
      ],
      "anonymous": false
    },
    {
      "type": "event",
      "name": "MetadataURIUpdated",
      "inputs": [
        {
          "name": "newMetadataURI",
          "type": "string",
          "indexed": false,
          "internalType": "string"
        }
      ],
      "anonymous": false
    },
    {
      "type": "event",
      "name": "Paused",
      "inputs": [
        {
          "name": "account",
          "type": "address",
          "indexed": true,
          "internalType": "address"
        },
        {
          "name": "newPausedStatus",
          "type": "uint256",
          "indexed": false,
          "internalType": "uint256"
        }
      ],
      "anonymous": false
    },
    {
      "type": "event",
      "name": "StrategyTokenSet",
      "inputs": [
        {
          "name": "token",
          "type": "address",
          "indexed": false,
          "internalType": "contract IERC20"
        },
        {
          "name": "decimals",
          "type": "uint8",
          "indexed": false,
          "internalType": "uint8"
        }
      ],
      "anonymous": false
    },
    {
      "type": "event",
      "name": "Unpaused",
      "inputs": [
        {
          "name": "account",
          "type": "address",
          "indexed": true,
          "internalType": "address"
        },
        {
          "name": "newPausedStatus",
          "type": "uint256",
          "indexed": false,
          "internalType": "uint256"
        }
      ],
      "anonymous": false
    },
    {
      "type": "event",
      "name": "VaultAdvancedToWithdrawals",
      "inputs": [
        {
          "name": "arbitrator",
          "type": "address",
          "indexed": true,
          "internalType": "address"
        },
        {
          "name": "maturedAt",
          "type": "uint32",
          "indexed": false,
          "internalType": "uint32"
        }
      ],
      "anonymous": false
    },
    {
      "type": "event",
      "name": "VaultInitialized",
      "inputs": [
        {
          "name": "vaultAdmin",
          "type": "address",
          "indexed": true,
          "internalType": "address"
        },
        {
          "name": "arbitrator",
          "type": "address",
          "indexed": true,
          "internalType": "address"
        },
        {
          "name": "underlyingToken",
          "type": "address",
          "indexed": true,
          "internalType": "contract IERC20"
        },
        {
          "name": "duration",
          "type": "uint32",
          "indexed": false,
          "internalType": "uint32"
        },
        {
          "name": "maxPerDeposit",
          "type": "uint256",
          "indexed": false,
          "internalType": "uint256"
        },
        {
          "name": "stakeCap",
          "type": "uint256",
          "indexed": false,
          "internalType": "uint256"
        },
        {
          "name": "metadataURI",
          "type": "string",
          "indexed": false,
          "internalType": "string"
        }
      ],
      "anonymous": false
    },
    {
      "type": "event",
      "name": "VaultLocked",
      "inputs": [
        {
          "name": "lockedAt",
          "type": "uint32",
          "indexed": false,
          "internalType": "uint32"
        },
        {
          "name": "unlockAt",
          "type": "uint32",
          "indexed": false,
          "internalType": "uint32"
        }
      ],
      "anonymous": false
    },
    {
      "type": "event",
      "name": "VaultMatured",
      "inputs": [
        {
          "name": "maturedAt",
          "type": "uint32",
          "indexed": false,
          "internalType": "uint32"
        }
      ],
      "anonymous": false
    },
    {
      "type": "error",
      "name": "BalanceExceedsMaxTotalDeposits",
      "inputs": []
    },
    {
      "type": "error",
      "name": "CurrentlyPaused",
      "inputs": []
    },
    {
      "type": "error",
      "name": "DepositsLocked",
      "inputs": []
    },
    {
      "type": "error",
      "name": "DurationAlreadyElapsed",
      "inputs": []
    },
    {
      "type": "error",
      "name": "DurationNotElapsed",
      "inputs": []
    },
    {
      "type": "error",
      "name": "InputAddressZero",
      "inputs": []
    },
    {
      "type": "error",
      "name": "InvalidArbitrator",
      "inputs": []
    },
    {
      "type": "error",
      "name": "InvalidDuration",
      "inputs": []
    },
    {
      "type": "error",
      "name": "InvalidNewPausedStatus",
      "inputs": []
    },
    {
      "type": "error",
      "name": "InvalidVaultAdmin",
      "inputs": []
    },
    {
      "type": "error",
      "name": "MaxPerDepositExceedsMax",
      "inputs": []
    },
    {
      "type": "error",
      "name": "MustBeDelegatedToVaultOperator",
      "inputs": []
    },
    {
      "type": "error",
      "name": "NewSharesZero",
      "inputs": []
    },
    {
      "type": "error",
      "name": "OnlyArbitrator",
      "inputs": []
    },
    {
      "type": "error",
      "name": "OnlyPauser",
      "inputs": []
    },
    {
      "type": "error",
      "name": "OnlyStrategyManager",
      "inputs": []
    },
    {
      "type": "error",
      "name": "OnlyUnderlyingToken",
      "inputs": []
    },
    {
      "type": "error",
      "name": "OnlyUnpauser",
      "inputs": []
    },
    {
      "type": "error",
      "name": "OnlyVaultAdmin",
      "inputs": []
    },
    {
      "type": "error",
      "name": "OperatorIntegrationInvalid",
      "inputs": []
    },
    {
      "type": "error",
      "name": "PendingAllocation",
      "inputs": []
    },
    {
      "type": "error",
      "name": "TotalSharesExceedsMax",
      "inputs": []
    },
    {
      "type": "error",
      "name": "UnderlyingTokenBlacklisted",
      "inputs": []
    },
    {
      "type": "error",
      "name": "VaultAlreadyLocked",
      "inputs": []
    },
    {
      "type": "error",
      "name": "VaultNotLocked",
      "inputs": []
    },
    {
      "type": "error",
      "name": "WithdrawalAmountExceedsTotalDeposits",
      "inputs": []
    },
    {
      "type": "error",
      "name": "WithdrawalsLockedDuringAllocations",
      "inputs": []
    }
  ],
  "bytecode": {
    "object": "0x610140604052348015610010575f5ffd5b50604051613a0d380380613a0d83398101604081905261002f916101e2565b8585806001600160a01b038116610059576040516339b190bb60e11b815260040160405180910390fd5b6001600160a01b03908116608052821660a05261007461010f565b50506001600160a01b0384161580159061009657506001600160a01b03831615155b80156100aa57506001600160a01b03821615155b80156100be57506001600160a01b03811615155b6100db57604051635881876760e01b815260040160405180910390fd5b6001600160a01b0380851660c05283811660e0528281166101005281166101205261010461010f565b505050505050610265565b5f54610100900460ff161561017a5760405162461bcd60e51b815260206004820152602760248201527f496e697469616c697a61626c653a20636f6e747261637420697320696e697469604482015266616c697a696e6760c81b606482015260840160405180910390fd5b5f5460ff908116146101c9575f805460ff191660ff9081179091556040519081527f7f26b83ff96e1f2b6a682f133852f6798a09c465da95921460cefb38474024989060200160405180910390a15b565b6001600160a01b03811681146101df575f5ffd5b50565b5f5f5f5f5f5f60c087890312156101f7575f5ffd5b8651610202816101cb565b6020880151909650610213816101cb565b6040880151909550610224816101cb565b6060880151909450610235816101cb565b6080880151909350610246816101cb565b60a0880151909250610257816101cb565b809150509295509295509295565b60805160a05160c05160e05161010051610120516136d56103385f395f81816105a40152610e1801525f818161054f015281816122d10152818161233e01526123c301525f818161067901528181611d3201528181611e810152818161223c015281816124b6015261272401525f818161073301528181610ec201528181610fde01528181612085015261210201525f81816103fc015281816107960152818161092501528181610d93015281816114e8015261156a01525f818161052801528181611825015261198d01526136d55ff3fe608060405234801561000f575f5ffd5b5060043610610333575f3560e01c80638a2fc4e3116101af578063c2cca26d116100fe578063e3dae51c1161009e578063f3e7387511610079578063f3e7387514610755578063f83d08ba14610768578063fabc1cbc14610770578063fb4d86b414610783575f5ffd5b8063e3dae51c14610708578063e7f6f2251461071b578063ea4d3c9b1461072e575f5ffd5b8063ce7c2ac2116100d9578063ce7c2ac21461069b578063d4deae81146106ae578063d9caed12146106da578063df6fadc1146106ed575f5ffd5b8063c2cca26d1461064e578063c4d66de814610661578063ca8aa7c714610674575f5ffd5b8063aa082a9d11610169578063af6eb2be11610144578063af6eb2be14610602578063b216348214610615578063ba28fd2e1461062c578063c19d93fb14610634575f5ffd5b8063aa082a9d146105ce578063aa5dec6f146105e3578063ab5921e1146105fa575f5ffd5b80638a2fc4e31461054a5780638c871019146105715780638f6a62401461058457806394aad677146105975780639ef357101461059f578063a4e2d634146105c6575f5ffd5b8063549c4627116102855780636325f6551161022557806373e3c2801161020057806373e3c280146104f55780637a8b2637146105085780637f2b6a0d1461051b578063886f119514610523575f5ffd5b80636325f655146104d25780636cc6cde1146104da5780636d8690a9146104ed575f5ffd5b806359d915ff1161026057806359d915ff1461049a5780635ac86ab7146104a25780635c975abb146104c157806361b01b5d146104c9575f5ffd5b8063549c462714610477578063553ca5f81461047f578063595c6a6714610492575f5ffd5b80632495a599116102f057806343fe08b0116102cb57806343fe08b01461043557806347e7ef241461043e57806353fd3e81146104515780635438a8c714610464575f5ffd5b80632495a599146103cc57806339b70e38146103f75780633a98ef391461041e575f5ffd5b806303e3e6eb1461033757806303ee438c1461034c5780630fb5a6b41461036a57806311c70c9d14610396578063136439dd146103a95780631f1cc9a3146103bc575b5f5ffd5b61034a6103453660046129d3565b61078b565b005b610354610816565b6040516103619190612a2b565b60405180910390f35b60335461038190600160a01b900463ffffffff1681565b60405163ffffffff9091168152602001610361565b61034a6103a4366004612a44565b6108a2565b61034a6103b7366004612a64565b6108d9565b6034546103819063ffffffff1681565b6064546103df906001600160a01b031681565b6040516001600160a01b039091168152602001610361565b6103df7f000000000000000000000000000000000000000000000000000000000000000081565b61042760655481565b604051908152602001610361565b61042760375481565b61042761044c3660046129d3565b61090f565b61034a61045f366004612a7b565b610a3e565b60015b6040519015158152602001610361565b610467610ab4565b61042761048d366004612ae7565b610adc565b61034a610aef565b610467610b03565b6104676104b0366004612b10565b6001805460ff9092161b9081161490565b600154610427565b61042760385481565b61034a610b37565b6033546103df906001600160a01b031681565b61034a610c97565b61034a6105033660046129d3565b610d88565b610427610516366004612a64565b6110ae565b6104676110f7565b6103df7f000000000000000000000000000000000000000000000000000000000000000081565b6103df7f000000000000000000000000000000000000000000000000000000000000000081565b61042761057f366004612a64565b6110ff565b610427610592366004612ae7565b611109565b610467611116565b6103df7f000000000000000000000000000000000000000000000000000000000000000081565b61046761113f565b603354600160e01b900463ffffffff16610381565b60335461038190600160e01b900463ffffffff1681565b610354611147565b61034a610610366004612a44565b611167565b60335461038190600160c01b900463ffffffff1681565b603854610427565b603454600160201b900460ff166040516103619190612b3f565b61034a61065c366004612cbf565b611192565b61034a61066f366004612ae7565b611403565b6103df7f000000000000000000000000000000000000000000000000000000000000000081565b6104276106a9366004612ae7565b6114c1565b603654604080516001600160a01b0383168152600160a01b90920463ffffffff16602083015201610361565b6104276106e8366004612dff565b611553565b60375460385460408051928352602083019190915201610361565b610427610716366004612a64565b611655565b6032546103df906001600160a01b031681565b6103df7f000000000000000000000000000000000000000000000000000000000000000081565b610427610763366004612a64565b61168c565b61034a611696565b61034a61077e366004612a64565b6117ae565b61046761181b565b336001600160a01b037f000000000000000000000000000000000000000000000000000000000000000016146107d4576040516348da714f60e01b815260040160405180910390fd5b6002603454600160201b900460ff1660038111156107f4576107f4612b2b565b03610812576040516324d94d6960e11b815260040160405180910390fd5b5050565b6035805461082390612e3d565b80601f016020809104026020016040519081016040528092919081815260200182805461084f90612e3d565b801561089a5780601f106108715761010080835404028352916020019161089a565b820191905f5260205f20905b81548152906001019060200180831161087d57829003601f168201915b505050505081565b6108aa611823565b6108b2610ab4565b6108cf5760405163faa4be9f60e01b815260040160405180910390fd5b61081282826118d4565b6108e1611978565b60015481811681146109065760405163c61dca5d60e01b815260040160405180910390fd5b61081282611a1b565b5f5f61091a81611a58565b336001600160a01b037f00000000000000000000000000000000000000000000000000000000000000001614610963576040516348da714f60e01b815260040160405180910390fd5b61096d8484611a8b565b6065545f61097d6103e883612e89565b90505f6103e861098b611ab9565b6109959190612e89565b90505f6109a28783612e9c565b9050806109af8489612eaf565b6109b99190612ec6565b9550855f036109db57604051630c392ed360e11b815260040160405180910390fd5b6109e58685612e89565b60658190556f4b3b4ca85a86c47a098a223fffffffff1015610a1a57604051632f14e8a360e11b815260040160405180910390fd5b610a33826103e8606554610a2e9190612e89565b611b23565b505050505092915050565b6032546001600160a01b03163314610a6957604051635b26872160e11b815260040160405180910390fd5b6035610a76828483612f29565b507fefafb90526da1636e1335eac0151301742fb755d986954c613b90e891778ba398282604051610aa8929190612fe2565b60405180910390a15050565b5f60015b603454600160201b900460ff166003811115610ad657610ad6612b2b565b14905090565b5f610ae9610516836114c1565b92915050565b610af7611978565b610b015f19611a1b565b565b5f6001603454600160201b900460ff166003811115610b2457610b24612b2b565b1480610b3257506002610ab8565b905090565b6033546001600160a01b03163314610b6257604051631777988560e11b815260040160405180910390fd5b6003603454600160201b900460ff166003811115610b8257610b82612b2b565b14610b01576002603454600160201b900460ff166003811115610ba757610ba7612b2b565b14610bc5576040516329d0828960e01b815260040160405180910390fd5b603354600160e01b900463ffffffff164210610bf457604051632825c17f60e11b815260040160405180910390fd5b6034805463ffffffff421664ffffffffff199091168117640300000000179091556040519081527fff979382d3040b1602e0a02f0f2a454b2250aa36e891d2da0ceb95d70d11a8f29060200160405180910390a160345460405163ffffffff909116815233907f96c49d03ef64591194500229a104cd087b2d45c68234c96444c3a2a6abb0bb979060200160405180910390a2610c8f611b6f565b610b01611df8565b6003603454600160201b900460ff166003811115610cb757610cb7612b2b565b03610cbe57565b6002603454600160201b900460ff166003811115610cde57610cde612b2b565b14610cfc576040516306560dcd60e41b815260040160405180910390fd5b603354600160e01b900463ffffffff16421015610d2c576040516306560dcd60e41b815260040160405180910390fd5b6034805463ffffffff421664ffffffffff199091168117640300000000179091556040519081527fff979382d3040b1602e0a02f0f2a454b2250aa36e891d2da0ceb95d70d11a8f29060200160405180910390a1610c8f611b6f565b336001600160a01b037f00000000000000000000000000000000000000000000000000000000000000001614610dd1576040516348da714f60e01b815260040160405180910390fd5b610dd9610ab4565b610df65760405163faa4be9f60e01b815260040160405180910390fd5b60645460405163fe575a8760e01b81526001600160a01b0391821660048201527f00000000000000000000000000000000000000000000000000000000000000009091169063fe575a8790602401602060405180830381865afa158015610e5f573d5f5f3e3d5ffd5b505050506040513d601f19601f82011682018060405250810190610e839190613010565b15610ea1576040516337b068d160e21b815260040160405180910390fd5b604051631976849960e21b81526001600160a01b03838116600483015230917f0000000000000000000000000000000000000000000000000000000000000000909116906365da126490602401602060405180830381865afa158015610f09573d5f5f3e3d5ffd5b505050506040513d601f19601f82011682018060405250810190610f2d919061302f565b6001600160a01b031614610f54576040516315192e1d60e11b815260040160405180910390fd5b5f610f5e826110ae565b9050603754811115610f835760405163052b07b760e21b815260040160405180910390fd5b6040805160018082528183019092525f916020808301908036833701905050905030815f81518110610fb757610fb761304a565b6001600160a01b039283166020918202929092010152604051639004134760e01b81525f917f0000000000000000000000000000000000000000000000000000000000000000169063900413479061101590309086906004016130a1565b5f60405180830381865afa15801561102f573d5f5f3e3d5ffd5b505050506040513d5f823e601f3d908101601f1916820160405261105691908101906130c4565b5f815181106110675761106761304a565b602002602001015190505f61108185836105169190612e89565b90506038548111156110a65760405163d86bae6760e01b815260040160405180910390fd5b505050505050565b5f5f6103e86065546110c09190612e89565b90505f6103e86110ce611ab9565b6110d89190612e89565b9050816110e58583612eaf565b6110ef9190612ec6565b949350505050565b5f6003610ab8565b5f610ae982611655565b5f610ae9610763836114c1565b5f60025b603454600160201b900460ff16600381111561113857611138612b2b565b1415905090565b5f600161111a565b60606040518060800160405280604d8152602001613653604d9139905090565b6032546001600160a01b031633146108aa57604051635b26872160e11b815260040160405180910390fd5b5f54610100900460ff16158080156111b057505f54600160ff909116105b806111c95750303b1580156111c957505f5460ff166001145b6111ee5760405162461bcd60e51b81526004016111e590613163565b60405180910390fd5b5f805460ff19166001179055801561120f575f805461ff0019166101001790555b60208201516001600160a01b031661123a57604051633b7dc71360e01b815260040160405180910390fd5b60408201516001600160a01b031661126457604051627528a560e41b815260040160405180910390fd5b606082015163ffffffff161580159061129157506303c2670063ffffffff16826060015163ffffffff1611155b6112ae57604051637616640160e01b815260040160405180910390fd5b6112c082608001518360a001516118d4565b81516112cb90611ec2565b6020820151603280546001600160a01b039283166001600160a01b0319909116179055604083015160338054606086015163ffffffff16600160a01b026001600160c01b0319909116929093169190911791909117905560c082015160359061133490826131b1565b5061133e8261200d565b6034805464ff000000001916600160201b1790558151603354603254608085015160a08601516040516001600160a01b0395861695808616959416937fbdbff63632f473bb2a7c6a4aafbc096b71fbda12e22c6b51643bfd64f13d2b9e936113ba93600160a01b90920463ffffffff169290919060359061326b565b60405180910390a48015610812575f805461ff0019169055604051600181527f7f26b83ff96e1f2b6a682f133852f6798a09c465da95921460cefb384740249890602001610aa8565b5f54610100900460ff161580801561142157505f54600160ff909116105b8061143a5750303b15801561143a57505f5460ff166001145b6114565760405162461bcd60e51b81526004016111e590613163565b5f805460ff191660011790558015611477575f805461ff0019166101001790555b61148082611ec2565b8015610812575f805461ff0019169055604051600181527f7f26b83ff96e1f2b6a682f133852f6798a09c465da95921460cefb384740249890602001610aa8565b60405163fe243a1760e01b81526001600160a01b0382811660048301523060248301525f917f00000000000000000000000000000000000000000000000000000000000000009091169063fe243a1790604401602060405180830381865afa15801561152f573d5f5f3e3d5ffd5b505050506040513d601f19601f82011682018060405250810190610ae9919061330d565b5f600161155f81611a58565b336001600160a01b037f000000000000000000000000000000000000000000000000000000000000000016146115a8576040516348da714f60e01b815260040160405180910390fd5b6115b385858561242a565b606554808411156115d757604051630b469df360e41b815260040160405180910390fd5b5f6115e46103e883612e89565b90505f6103e86115f2611ab9565b6115fc9190612e89565b9050816116098783612eaf565b6116139190612ec6565b945061161f8684612e9c565b60655561163f61162f8683612e9c565b6103e8606554610a2e9190612e89565b61164a88888761245d565b505050509392505050565b5f5f6103e86065546116679190612e89565b90505f6103e8611675611ab9565b61167f9190612e89565b9050806110e58386612eaf565b5f610ae9826110ae565b6032546001600160a01b031633146116c157604051635b26872160e11b815260040160405180910390fd5b6116c9610ab4565b6116e657604051630a6c62fd60e41b815260040160405180910390fd5b6033805463ffffffff42818116600160c01b0263ffffffff60c01b199093169290921792839055909161172291600160a01b9091041682613324565b603380546001600160e01b0316600160e01b63ffffffff938416810291909117918290556034805464020000000064ff000000001990911617905560408051600160c01b8404851681529190920490921660208301527f42cd6d7338516695d9c9ff8969dbdcf89ce22e3f2f76fda2fc11e973fe4860e4910160405180910390a16117ab612471565b50565b6117b6611823565b600154801982198116146117dd5760405163c61dca5d60e01b815260040160405180910390fd5b600182905560405182815233907f3582d1828e26bf56bd801502bc021ac0bc8afb57c826e4986b45593c8fad389c9060200160405180910390a25050565b5f6002610ab8565b7f00000000000000000000000000000000000000000000000000000000000000006001600160a01b031663eab66d7a6040518163ffffffff1660e01b8152600401602060405180830381865afa15801561187f573d5f5f3e3d5ffd5b505050506040513d601f19601f820116820180604052508101906118a3919061302f565b6001600160a01b0316336001600160a01b031614610b015760405163794821ff60e01b815260040160405180910390fd5b60375460408051918252602082018490527ff97ed4e083acac67830025ecbc756d8fe847cdbdca4cee3fe1e128e98b54ecb5910160405180910390a160385460408051918252602082018390527f6ab181e0440bfbf4bacdf2e99674735ce6638005490688c5f994f5399353e452910160405180910390a18082111561196d5760405163052b07b760e21b815260040160405180910390fd5b603791909155603855565b60405163237dfb4760e11b81523360048201527f00000000000000000000000000000000000000000000000000000000000000006001600160a01b0316906346fbf68e90602401602060405180830381865afa1580156119da573d5f5f3e3d5ffd5b505050506040513d601f19601f820116820180604052508101906119fe9190613010565b610b0157604051631d77d47760e21b815260040160405180910390fd5b600181905560405181815233907fab40a374bc51de372200a8bc981af8c9ecdc08dfdaef0bb6e09f88f3c616ef3d9060200160405180910390a250565b611a6d816001805460ff9092161b9081161490565b156117ab5760405163840a48d560e01b815260040160405180910390fd5b6064546001600160a01b0383811691161461081257604051630312abdd60e61b815260040160405180910390fd5b6064546040516370a0823160e01b81523060048201525f916001600160a01b0316906370a0823190602401602060405180830381865afa158015611aff573d5f5f3e3d5ffd5b505050506040513d601f19601f82011682018060405250810190610b32919061330d565b7fd2494f3479e5da49d386657c292c610b5b01df313d07c62eb0cfa49924a31be881611b5784670de0b6b3a7640000612eaf565b611b619190612ec6565b604051908152602001610aa8565b6040805160018082528183019092525f91816020015b611bb96040805160a081019091525f6060820181815260808301919091528190815260200160608152602001606081525090565b815260200190600190039081611b8557905050604080518082019091526036546001600160a01b0381168252600160a01b900463ffffffff16602082015281519192509082905f90611c0d57611c0d61304a565b6020908102919091010151526040805160018082528183019092529081602001602082028036833701905050815f81518110611c4b57611c4b61304a565b60200260200101516020018190525030815f81518110611c6d57611c6d61304a565b6020026020010151602001515f81518110611c8a57611c8a61304a565b6001600160a01b039290921660209283029190910182015260408051600180825281830190925291828101908036833701905050815f81518110611cd057611cd061304a565b6020026020010151604001819052505f815f81518110611cf257611cf261304a565b6020026020010151604001515f81518110611d0f57611d0f61304a565b60200260200101906001600160401b031690816001600160401b0316815250505f7f00000000000000000000000000000000000000000000000000000000000000006001600160a01b031663952899ee60e01b3084604051602401611d75929190613340565b60408051601f198184030181529181526020820180516001600160e01b03166001600160e01b0319909416939093179092529051611db39190613433565b5f604051808303815f865af19150503d805f8114611dec576040519150601f19603f3d011682016040523d82523d5f602084013e611df1565b606091505b5050505050565b6040805160608082018352818301523081526036546001600160a01b0316602082015281516001808252818401909352909181602001602082028036833701905050604082018190526036548151600160a01b90910463ffffffff1691905f90611e6457611e6461304a565b602002602001019063ffffffff16908163ffffffff16815250505f7f00000000000000000000000000000000000000000000000000000000000000006001600160a01b0316636e3492b560e01b83604051602401611d75919061347f565b5f54610100900460ff16611f2c5760405162461bcd60e51b815260206004820152602b60248201527f496e697469616c697a61626c653a20636f6e7472616374206973206e6f74206960448201526a6e697469616c697a696e6760a81b60648201526084016111e5565b606480546001600160a01b0319166001600160a01b038316179055611f505f611a1b565b7f1c540707b00eb5427b6b774fc799d756516a54aee108b64b327acc55af55750760645f9054906101000a90046001600160a01b0316826001600160a01b031663313ce5676040518163ffffffff1660e01b8152600401602060405180830381865afa158015611fc2573d5f5f3e3d5ffd5b505050506040513d601f19601f82011682018060405250810190611fe691906134bb565b604080516001600160a01b03909316835260ff90911660208301520160405180910390a150565b60e0810151516001600160a01b031661203957604051635881876760e01b815260040160405180910390fd5b60e081015180516036805460209384015163ffffffff16600160a01b026001600160c01b03199091166001600160a01b0393841617179055604080516318891fd760e31b815290515f937f00000000000000000000000000000000000000000000000000000000000000009093169263c448feb892600480820193918290030181865afa1580156120cc573d5f5f3e3d5ffd5b505050506040513d601f19601f820116820180604052508101906120f091906134d6565b90505f6120fe826001613324565b90507f00000000000000000000000000000000000000000000000000000000000000006001600160a01b0316632aa6d888846101200151838661014001516040518463ffffffff1660e01b815260040161215a939291906134f1565b5f604051808303815f87803b158015612171575f5ffd5b505af1158015612183573d5f5f3e3d5ffd5b505050506121b360405180606001604052805f6001600160a01b0316815260200160608152602001606081525090565b60e0840151516001600160a01b031681526040805160018082528183019092529060208083019080368337505050602082810182905260e0860151015181519091905f906122035761220361304a565b63ffffffff909216602092830291909101909101526101008401516040808301919091525163adc2e3d960e01b81526001600160a01b037f0000000000000000000000000000000000000000000000000000000000000000169063adc2e3d9906122739030908590600401613529565b5f604051808303815f87803b15801561228a575f5ffd5b505af115801561229c573d5f5f3e3d5ffd5b5050505060e08401515160405163dcbb03b360e01b81523060048201526001600160a01b0391821660248201525f60448201527f00000000000000000000000000000000000000000000000000000000000000009091169063dcbb03b3906064015f604051808303815f87803b158015612314575f5ffd5b505af1158015612326573d5f5f3e3d5ffd5b5050505060e0840151604051633dd3a3ab60e21b81527f00000000000000000000000000000000000000000000000000000000000000006001600160a01b03169163f74e8eac9161237d9130915f90600401613588565b5f604051808303815f87803b158015612394575f5ffd5b505af11580156123a6573d5f5f3e3d5ffd5b505060405163059edd8760e51b81523060048201525f60248201527f00000000000000000000000000000000000000000000000000000000000000006001600160a01b0316925063b3dbb0e091506044015f604051808303815f87803b15801561240e575f5ffd5b505af1158015612420573d5f5f3e3d5ffd5b5050505050505050565b6064546001600160a01b0383811691161461245857604051630312abdd60e61b815260040160405180910390fd5b505050565b6124586001600160a01b0383168483612784565b60405163021c373760e31b815230600482018190526036546001600160a01b03808216602485015260a09190911c63ffffffff16604484015260648301919091525f917f0000000000000000000000000000000000000000000000000000000000000000909116906310e1b9b890608401606060405180830381865afa1580156124fd573d5f5f3e3d5ffd5b505050506040513d601f19601f8201168201806040525081019061252191906135d0565b9050806040015163ffffffff165f1461254d5760405163024b01ff60e11b815260040160405180910390fd5b6040805160018082528183019092525f91816020015b6125976040805160a081019091525f6060820181815260808301919091528190815260200160608152602001606081525090565b81526020019060019003908161256357905050604080518082019091526036546001600160a01b0381168252600160a01b900463ffffffff16602082015281519192509082905f906125eb576125eb61304a565b6020908102919091010151526040805160018082528183019092529081602001602082028036833701905050815f815181106126295761262961304a565b60200260200101516020018190525030815f8151811061264b5761264b61304a565b6020026020010151602001515f815181106126685761266861304a565b6001600160a01b039290921660209283029190910182015260408051600180825281830190925291828101908036833701905050815f815181106126ae576126ae61304a565b602002602001015160400181905250670de0b6b3a7640000815f815181106126d8576126d861304a565b6020026020010151604001515f815181106126f5576126f561304a565b6001600160401b0390921660209283029190910190910152604051634a944cf760e11b81526001600160a01b037f0000000000000000000000000000000000000000000000000000000000000000169063952899ee9061275b9030908590600401613340565b5f604051808303815f87803b158015612772575f5ffd5b505af11580156110a6573d5f5f3e3d5ffd5b604080516001600160a01b03848116602483015260448083018590528351808403909101815260649092018352602080830180516001600160e01b031663a9059cbb60e01b17905283518085019094528084527f5361666545524332303a206c6f772d6c6576656c2063616c6c206661696c656490840152612458928692915f91612813918516908490612892565b905080515f14806128335750808060200190518101906128339190613010565b6124585760405162461bcd60e51b815260206004820152602a60248201527f5361666545524332303a204552433230206f7065726174696f6e20646964206e6044820152691bdd081cdd58d8d9595960b21b60648201526084016111e5565b60606110ef84845f85855f5f866001600160a01b031685876040516128b79190613433565b5f6040518083038185875af1925050503d805f81146128f1576040519150601f19603f3d011682016040523d82523d5f602084013e6128f6565b606091505b509150915061290787838387612912565b979650505050505050565b606083156129805782515f03612979576001600160a01b0385163b6129795760405162461bcd60e51b815260206004820152601d60248201527f416464726573733a2063616c6c20746f206e6f6e2d636f6e747261637400000060448201526064016111e5565b50816110ef565b6110ef83838151156129955781518083602001fd5b8060405162461bcd60e51b81526004016111e59190612a2b565b6001600160a01b03811681146117ab575f5ffd5b80356129ce816129af565b919050565b5f5f604083850312156129e4575f5ffd5b82356129ef816129af565b946020939093013593505050565b5f81518084528060208401602086015e5f602082860101526020601f19601f83011685010191505092915050565b602081525f612a3d60208301846129fd565b9392505050565b5f5f60408385031215612a55575f5ffd5b50508035926020909101359150565b5f60208284031215612a74575f5ffd5b5035919050565b5f5f60208385031215612a8c575f5ffd5b82356001600160401b03811115612aa1575f5ffd5b8301601f81018513612ab1575f5ffd5b80356001600160401b03811115612ac6575f5ffd5b856020828401011115612ad7575f5ffd5b6020919091019590945092505050565b5f60208284031215612af7575f5ffd5b8135612a3d816129af565b60ff811681146117ab575f5ffd5b5f60208284031215612b20575f5ffd5b8135612a3d81612b02565b634e487b7160e01b5f52602160045260245ffd5b6020810160048310612b5f57634e487b7160e01b5f52602160045260245ffd5b91905290565b634e487b7160e01b5f52604160045260245ffd5b60405161016081016001600160401b0381118282101715612b9c57612b9c612b65565b60405290565b604051601f8201601f191681016001600160401b0381118282101715612bca57612bca612b65565b604052919050565b63ffffffff811681146117ab575f5ffd5b80356129ce81612bd2565b5f82601f830112612bfd575f5ffd5b8135602083015f5f6001600160401b03841115612c1c57612c1c612b65565b50601f8301601f1916602001612c3181612ba2565b915050828152858383011115612c45575f5ffd5b828260208301375f92810160200192909252509392505050565b5f60408284031215612c6f575f5ffd5b604080519081016001600160401b0381118282101715612c9157612c91612b65565b6040529050808235612ca2816129af565b81526020830135612cb281612bd2565b6020919091015292915050565b5f60208284031215612ccf575f5ffd5b81356001600160401b03811115612ce4575f5ffd5b82016101808185031215612cf6575f5ffd5b612cfe612b79565b612d07826129c3565b8152612d15602083016129c3565b6020820152612d26604083016129c3565b6040820152612d3760608301612be3565b60608201526080828101359082015260a0808301359082015260c08201356001600160401b03811115612d68575f5ffd5b612d7486828501612bee565b60c083015250612d878560e08401612c5f565b60e08201526101208201356001600160401b03811115612da5575f5ffd5b612db186828501612bee565b61010083015250612dc561014083016129c3565b6101208201526101608201356001600160401b03811115612de4575f5ffd5b612df086828501612bee565b61014083015250949350505050565b5f5f5f60608486031215612e11575f5ffd5b8335612e1c816129af565b92506020840135612e2c816129af565b929592945050506040919091013590565b600181811c90821680612e5157607f821691505b602082108103612e6f57634e487b7160e01b5f52602260045260245ffd5b50919050565b634e487b7160e01b5f52601160045260245ffd5b80820180821115610ae957610ae9612e75565b81810381811115610ae957610ae9612e75565b8082028115828204841417610ae957610ae9612e75565b5f82612ee057634e487b7160e01b5f52601260045260245ffd5b500490565b601f82111561245857805f5260205f20601f840160051c81016020851015612f0a5750805b601f840160051c820191505b81811015611df1575f8155600101612f16565b6001600160401b03831115612f4057612f40612b65565b612f5483612f4e8354612e3d565b83612ee5565b5f601f841160018114612f85575f8515612f6e5750838201355b5f19600387901b1c1916600186901b178355611df1565b5f83815260208120601f198716915b82811015612fb45786850135825560209485019460019092019101612f94565b5086821015612fd0575f1960f88860031b161c19848701351681555b505060018560011b0183555050505050565b60208152816020820152818360408301375f818301604090810191909152601f909201601f19160101919050565b5f60208284031215613020575f5ffd5b81518015158114612a3d575f5ffd5b5f6020828403121561303f575f5ffd5b8151612a3d816129af565b634e487b7160e01b5f52603260045260245ffd5b5f8151808452602084019350602083015f5b828110156130975781516001600160a01b0316865260209586019590910190600101613070565b5093949350505050565b6001600160a01b03831681526040602082018190525f906110ef9083018461305e565b5f602082840312156130d4575f5ffd5b81516001600160401b038111156130e9575f5ffd5b8201601f810184136130f9575f5ffd5b80516001600160401b0381111561311257613112612b65565b8060051b61312260208201612ba2565b9182526020818401810192908101908784111561313d575f5ffd5b6020850194505b8385101561290757845180835260209586019590935090910190613144565b6020808252602e908201527f496e697469616c697a61626c653a20636f6e747261637420697320616c72656160408201526d191e481a5b9a5d1a585b1a5e995960921b606082015260800190565b81516001600160401b038111156131ca576131ca612b65565b6131de816131d88454612e3d565b84612ee5565b6020601f821160018114613210575f83156131f95750848201515b5f19600385901b1c1916600184901b178455611df1565b5f84815260208120601f198516915b8281101561323f578785015182556020948501946001909201910161321f565b508482101561325c57868401515f19600387901b60f8161c191681555b50505050600190811b01905550565b63ffffffff85168152836020820152826040820152608060608201525f5f835461329481612e3d565b806080860152600182165f81146132b257600181146132ce576132ff565b60ff19831660a087015260a082151560051b87010193506132ff565b865f5260205f205f5b838110156132f657815488820160a001526001909101906020016132d7565b870160a0019450505b509198975050505050505050565b5f6020828403121561331d575f5ffd5b5051919050565b63ffffffff8181168382160190811115610ae957610ae9612e75565b5f6040820160018060a01b03851683526040602084015280845180835260608501915060608160051b8601019250602086015f5b8281101561342657868503605f190184528151805180516001600160a01b0316875260209081015163ffffffff16908701526020810151608060408801526133bf608088018261305e565b60409290920151878303606089015280518084526020918201935f935091909101905b8083101561340e576001600160401b0384511682526020820191506020840193506001830192506133e2565b50965050506020938401939190910190600101613374565b5092979650505050505050565b5f82518060208501845e5f920191825250919050565b5f8151808452602084019350602083015f5b8281101561309757815163ffffffff1686526020958601959091019060010161345b565b602080825282516001600160a01b039081168383015290830151166040808301919091528201516060808301525f906110ef6080840182613449565b5f602082840312156134cb575f5ffd5b8151612a3d81612b02565b5f602082840312156134e6575f5ffd5b8151612a3d81612bd2565b6001600160a01b038416815263ffffffff831660208201526060604082018190525f90613520908301846129fd565b95945050505050565b6001600160a01b038381168252604060208084018290528451909216908301528201516060808301525f9061356160a0840182613449565b90506040840151603f1984830301608085015261357e82826129fd565b9695505050505050565b6001600160a01b0384168152608081016135be602083018580516001600160a01b0316825260209081015163ffffffff16910152565b61ffff83166060830152949350505050565b5f60608284031280156135e1575f5ffd5b50604051606081016001600160401b038111828210171561360457613604612b65565b60405282516001600160401b038116811461361d575f5ffd5b81526020830151600f81900b8114613633575f5ffd5b6020820152604083015161364681612bd2565b6040820152939250505056fe4475726174696f6e2d626f756e64207661756c74207374726174656779207769746820636f6e666967757261626c65206465706f736974206361707320616e64206c6f636b20706572696f6473a2646970667358221220b0ef85e67d155007a40534665de1daafe1dde0e9cec07a5a4a75194d87139afc64736f6c634300081e0033",
    "linkReferences": {}
  },
  "methodIdentifiers": {
    "advanceToWithdrawals()": "6325f655",
    "allocationManager()": "ca8aa7c7",
    "allocationsActive()": "fb4d86b4",
    "arbitrator()": "6cc6cde1",
    "beforeAddShares(address,uint256)": "73e3c280",
    "beforeRemoveShares(address,uint256)": "03e3e6eb",
    "delegationManager()": "ea4d3c9b",
    "deposit(address,uint256)": "47e7ef24",
    "depositsOpen()": "549c4627",
    "duration()": "0fb5a6b4",
    "explanation()": "ab5921e1",
    "getTVLLimits()": "df6fadc1",
    "initialize((address,address,address,uint32,uint256,uint256,string,(address,uint32),bytes,address,string))": "c2cca26d",
    "initialize(address)": "c4d66de8",
    "isLocked()": "a4e2d634",
    "isMatured()": "7f2b6a0d",
    "lock()": "f83d08ba",
    "lockedAt()": "b2163482",
    "markMatured()": "6d8690a9",
    "maturedAt()": "1f1cc9a3",
    "maxPerDeposit()": "43fe08b0",
    "maxTotalDeposits()": "61b01b5d",
    "metadataURI()": "03ee438c",
    "operatorIntegrationConfigured()": "5438a8c7",
    "operatorSetInfo()": "d4deae81",
    "operatorSetRegistered()": "59d915ff",
    "pause(uint256)": "136439dd",
    "pauseAll()": "595c6a67",
    "paused()": "5c975abb",
    "paused(uint8)": "5ac86ab7",
    "pauserRegistry()": "886f1195",
    "rewardsCoordinator()": "8a2fc4e3",
    "setTVLLimits(uint256,uint256)": "11c70c9d",
    "shares(address)": "ce7c2ac2",
    "sharesToUnderlying(uint256)": "f3e73875",
    "sharesToUnderlyingView(uint256)": "7a8b2637",
    "stakeCap()": "ba28fd2e",
    "state()": "c19d93fb",
    "strategyFactory()": "9ef35710",
    "strategyManager()": "39b70e38",
    "totalShares()": "3a98ef39",
    "underlyingToShares(uint256)": "8c871019",
    "underlyingToSharesView(uint256)": "e3dae51c",
    "underlyingToken()": "2495a599",
    "unlockAt()": "aa5dec6f",
    "unlockTimestamp()": "aa082a9d",
    "unpause(uint256)": "fabc1cbc",
    "updateMetadataURI(string)": "53fd3e81",
    "updateTVLLimits(uint256,uint256)": "af6eb2be",
    "userUnderlying(address)": "8f6a6240",
    "userUnderlyingView(address)": "553ca5f8",
    "vaultAdmin()": "e7f6f225",
    "withdraw(address,address,uint256)": "d9caed12",
    "withdrawalsOpen()": "94aad677"
  },
  "id": 219
}