{
  "abi": [
    {
      "type": "constructor",
      "inputs": [
        {
          "name": "_strategyManager",
          "type": "address",
          "internalType": "contract IStrategyManager"
        },
        {
          "name": "_pauserRegistry",
          "type": "address",
          "internalType": "contract IPauserRegistry"
        },
        {
          "name": "_strategyBeacon",
          "type": "address",
          "internalType": "contract IBeacon"
        },
        {
          "name": "_durationVaultBeacon",
          "type": "address",
          "internalType": "contract IBeacon"
        }
      ],
      "stateMutability": "nonpayable"
    },
    {
      "type": "function",
      "name": "blacklistTokens",
      "inputs": [
        {
          "name": "tokens",
          "type": "address[]",
          "internalType": "contract IERC20[]"
        }
      ],
      "outputs": [],
      "stateMutability": "nonpayable"
    },
    {
      "type": "function",
      "name": "deployDurationVaultStrategy",
      "inputs": [
        {
          "name": "config",
          "type": "tuple",
          "internalType": "struct IDurationVaultStrategyTypes.VaultConfig",
          "components": [
            {
              "name": "underlyingToken",
              "type": "address",
              "internalType": "contract IERC20"
            },
            {
              "name": "vaultAdmin",
              "type": "address",
              "internalType": "address"
            },
            {
              "name": "arbitrator",
              "type": "address",
              "internalType": "address"
            },
            {
              "name": "duration",
              "type": "uint32",
              "internalType": "uint32"
            },
            {
              "name": "maxPerDeposit",
              "type": "uint256",
              "internalType": "uint256"
            },
            {
              "name": "stakeCap",
              "type": "uint256",
              "internalType": "uint256"
            },
            {
              "name": "metadataURI",
              "type": "string",
              "internalType": "string"
            },
            {
              "name": "operatorSet",
              "type": "tuple",
              "internalType": "struct OperatorSet",
              "components": [
                {
                  "name": "avs",
                  "type": "address",
                  "internalType": "address"
                },
                {
                  "name": "id",
                  "type": "uint32",
                  "internalType": "uint32"
                }
              ]
            },
            {
              "name": "operatorSetRegistrationData",
              "type": "bytes",
              "internalType": "bytes"
            },
            {
              "name": "delegationApprover",
              "type": "address",
              "internalType": "address"
            },
            {
              "name": "operatorMetadataURI",
              "type": "string",
              "internalType": "string"
            }
          ]
        }
      ],
      "outputs": [
        {
          "name": "newVault",
          "type": "address",
          "internalType": "contract IDurationVaultStrategy"
        }
      ],
      "stateMutability": "nonpayable"
    },
    {
      "type": "function",
      "name": "deployNewStrategy",
      "inputs": [
        {
          "name": "token",
          "type": "address",
          "internalType": "contract IERC20"
        }
      ],
      "outputs": [
        {
          "name": "newStrategy",
          "type": "address",
          "internalType": "contract IStrategy"
        }
      ],
      "stateMutability": "nonpayable"
    },
    {
      "type": "function",
      "name": "deployedStrategies",
      "inputs": [
        {
          "name": "",
          "type": "address",
          "internalType": "contract IERC20"
        }
      ],
      "outputs": [
        {
          "name": "",
          "type": "address",
          "internalType": "contract IStrategy"
        }
      ],
      "stateMutability": "view"
    },
    {
      "type": "function",
      "name": "durationVaultBeacon",
      "inputs": [],
      "outputs": [
        {
          "name": "",
          "type": "address",
          "internalType": "contract IBeacon"
        }
      ],
      "stateMutability": "view"
    },
    {
      "type": "function",
      "name": "durationVaultsByToken",
      "inputs": [
        {
          "name": "",
          "type": "address",
          "internalType": "contract IERC20"
        },
        {
          "name": "",
          "type": "uint256",
          "internalType": "uint256"
        }
      ],
      "outputs": [
        {
          "name": "",
          "type": "address",
          "internalType": "contract IDurationVaultStrategy"
        }
      ],
      "stateMutability": "view"
    },
    {
      "type": "function",
      "name": "getDurationVaults",
      "inputs": [
        {
          "name": "token",
          "type": "address",
          "internalType": "contract IERC20"
        }
      ],
      "outputs": [
        {
          "name": "",
          "type": "address[]",
          "internalType": "contract IDurationVaultStrategy[]"
        }
      ],
      "stateMutability": "view"
    },
    {
      "type": "function",
      "name": "initialize",
      "inputs": [
        {
          "name": "_initialOwner",
          "type": "address",
          "internalType": "address"
        },
        {
          "name": "_initialPausedStatus",
          "type": "uint256",
          "internalType": "uint256"
        }
      ],
      "outputs": [],
      "stateMutability": "nonpayable"
    },
    {
      "type": "function",
      "name": "isBlacklisted",
      "inputs": [
        {
          "name": "",
          "type": "address",
          "internalType": "contract IERC20"
        }
      ],
      "outputs": [
        {
          "name": "",
          "type": "bool",
          "internalType": "bool"
        }
      ],
      "stateMutability": "view"
    },
    {
      "type": "function",
      "name": "owner",
      "inputs": [],
      "outputs": [
        {
          "name": "",
          "type": "address",
          "internalType": "address"
        }
      ],
      "stateMutability": "view"
    },
    {
      "type": "function",
      "name": "pause",
      "inputs": [
        {
          "name": "newPausedStatus",
          "type": "uint256",
          "internalType": "uint256"
        }
      ],
      "outputs": [],
      "stateMutability": "nonpayable"
    },
    {
      "type": "function",
      "name": "pauseAll",
      "inputs": [],
      "outputs": [],
      "stateMutability": "nonpayable"
    },
    {
      "type": "function",
      "name": "paused",
      "inputs": [
        {
          "name": "index",
          "type": "uint8",
          "internalType": "uint8"
        }
      ],
      "outputs": [
        {
          "name": "",
          "type": "bool",
          "internalType": "bool"
        }
      ],
      "stateMutability": "view"
    },
    {
      "type": "function",
      "name": "paused",
      "inputs": [],
      "outputs": [
        {
          "name": "",
          "type": "uint256",
          "internalType": "uint256"
        }
      ],
      "stateMutability": "view"
    },
    {
      "type": "function",
      "name": "pauserRegistry",
      "inputs": [],
      "outputs": [
        {
          "name": "",
          "type": "address",
          "internalType": "contract IPauserRegistry"
        }
      ],
      "stateMutability": "view"
    },
    {
      "type": "function",
      "name": "removeStrategiesFromWhitelist",
      "inputs": [
        {
          "name": "strategiesToRemoveFromWhitelist",
          "type": "address[]",
          "internalType": "contract IStrategy[]"
        }
      ],
      "outputs": [],
      "stateMutability": "nonpayable"
    },
    {
      "type": "function",
      "name": "renounceOwnership",
      "inputs": [],
      "outputs": [],
      "stateMutability": "nonpayable"
    },
    {
      "type": "function",
      "name": "strategyBeacon",
      "inputs": [],
      "outputs": [
        {
          "name": "",
          "type": "address",
          "internalType": "contract IBeacon"
        }
      ],
      "stateMutability": "view"
    },
    {
      "type": "function",
      "name": "strategyManager",
      "inputs": [],
      "outputs": [
        {
          "name": "",
          "type": "address",
          "internalType": "contract IStrategyManager"
        }
      ],
      "stateMutability": "view"
    },
    {
      "type": "function",
      "name": "transferOwnership",
      "inputs": [
        {
          "name": "newOwner",
          "type": "address",
          "internalType": "address"
        }
      ],
      "outputs": [],
      "stateMutability": "nonpayable"
    },
    {
      "type": "function",
      "name": "unpause",
      "inputs": [
        {
          "name": "newPausedStatus",
          "type": "uint256",
          "internalType": "uint256"
        }
      ],
      "outputs": [],
      "stateMutability": "nonpayable"
    },
    {
      "type": "function",
      "name": "whitelistStrategies",
      "inputs": [
        {
          "name": "strategiesToWhitelist",
          "type": "address[]",
          "internalType": "contract IStrategy[]"
        }
      ],
      "outputs": [],
      "stateMutability": "nonpayable"
    },
    {
      "type": "event",
      "name": "DurationVaultDeployed",
      "inputs": [
        {
          "name": "vault",
          "type": "address",
          "indexed": true,
          "internalType": "contract IDurationVaultStrategy"
        },
        {
          "name": "underlyingToken",
          "type": "address",
          "indexed": true,
          "internalType": "contract IERC20"
        },
        {
          "name": "vaultAdmin",
          "type": "address",
          "indexed": true,
          "internalType": "address"
        },
        {
          "name": "duration",
          "type": "uint32",
          "indexed": false,
          "internalType": "uint32"
        },
        {
          "name": "maxPerDeposit",
          "type": "uint256",
          "indexed": false,
          "internalType": "uint256"
        },
        {
          "name": "stakeCap",
          "type": "uint256",
          "indexed": false,
          "internalType": "uint256"
        },
        {
          "name": "metadataURI",
          "type": "string",
          "indexed": false,
          "internalType": "string"
        },
        {
          "name": "operatorSetAVS",
          "type": "address",
          "indexed": false,
          "internalType": "address"
        },
        {
          "name": "operatorSetId",
          "type": "uint32",
          "indexed": false,
          "internalType": "uint32"
        }
      ],
      "anonymous": false
    },
    {
      "type": "event",
      "name": "Initialized",
      "inputs": [
        {
          "name": "version",
          "type": "uint8",
          "indexed": false,
          "internalType": "uint8"
        }
      ],
      "anonymous": false
    },
    {
      "type": "event",
      "name": "OwnershipTransferred",
      "inputs": [
        {
          "name": "previousOwner",
          "type": "address",
          "indexed": true,
          "internalType": "address"
        },
        {
          "name": "newOwner",
          "type": "address",
          "indexed": true,
          "internalType": "address"
        }
      ],
      "anonymous": false
    },
    {
      "type": "event",
      "name": "Paused",
      "inputs": [
        {
          "name": "account",
          "type": "address",
          "indexed": true,
          "internalType": "address"
        },
        {
          "name": "newPausedStatus",
          "type": "uint256",
          "indexed": false,
          "internalType": "uint256"
        }
      ],
      "anonymous": false
    },
    {
      "type": "event",
      "name": "StrategySetForToken",
      "inputs": [
        {
          "name": "token",
          "type": "address",
          "indexed": false,
          "internalType": "contract IERC20"
        },
        {
          "name": "strategy",
          "type": "address",
          "indexed": false,
          "internalType": "contract IStrategy"
        }
      ],
      "anonymous": false
    },
    {
      "type": "event",
      "name": "TokenBlacklisted",
      "inputs": [
        {
          "name": "token",
          "type": "address",
          "indexed": false,
          "internalType": "contract IERC20"
        }
      ],
      "anonymous": false
    },
    {
      "type": "event",
      "name": "Unpaused",
      "inputs": [
        {
          "name": "account",
          "type": "address",
          "indexed": true,
          "internalType": "address"
        },
        {
          "name": "newPausedStatus",
          "type": "uint256",
          "indexed": false,
          "internalType": "uint256"
        }
      ],
      "anonymous": false
    },
    {
      "type": "error",
      "name": "AlreadyBlacklisted",
      "inputs": []
    },
    {
      "type": "error",
      "name": "BlacklistedToken",
      "inputs": []
    },
    {
      "type": "error",
      "name": "CurrentlyPaused",
      "inputs": []
    },
    {
      "type": "error",
      "name": "InputAddressZero",
      "inputs": []
    },
    {
      "type": "error",
      "name": "InvalidNewPausedStatus",
      "inputs": []
    },
    {
      "type": "error",
      "name": "OnlyPauser",
      "inputs": []
    },
    {
      "type": "error",
      "name": "OnlyUnpauser",
      "inputs": []
    },
    {
      "type": "error",
      "name": "StrategyAlreadyExists",
      "inputs": []
    }
  ],
  "bytecode": {
    "object": "0x610100604052348015610010575f5ffd5b50604051611fbc380380611fbc83398101604081905261002f9161015d565b826001600160a01b038116610057576040516339b190bb60e11b815260040160405180910390fd5b6001600160a01b0390811660805284811660a05282811660c052811660e05261007e610087565b505050506101b9565b603354610100900460ff16156100f35760405162461bcd60e51b815260206004820152602760248201527f496e697469616c697a61626c653a20636f6e747261637420697320696e697469604482015266616c697a696e6760c81b606482015260840160405180910390fd5b60335460ff90811614610144576033805460ff191660ff9081179091556040519081527f7f26b83ff96e1f2b6a682f133852f6798a09c465da95921460cefb38474024989060200160405180910390a15b565b6001600160a01b038116811461015a575f5ffd5b50565b5f5f5f5f60808587031215610170575f5ffd5b845161017b81610146565b602086015190945061018c81610146565b604086015190935061019d81610146565b60608601519092506101ae81610146565b939692955090935050565b60805160a05160c05160e051611d9161022b5f395f818161028c0152610be701525f81816102f9015261075d01525f818161019e015281816105e8015281816108100152818161092001528181610d1b0152610db101525f818161025401528181610dfd015261100a0152611d915ff3fe608060405234801561000f575f5ffd5b506004361061013d575f3560e01c80638da5cb5b116100b4578063f0062d9a11610079578063f0062d9a146102f4578063f2fde38b1461031b578063fabc1cbc1461032e578063fb51530314610341578063fe38b32d14610354578063fe575a8714610367575f5ffd5b80638da5cb5b146102765780639e4f2dcd14610287578063a5dae840146102ae578063b768ebc9146102ce578063cd6dc687146102e1575f5ffd5b8063595c6a6711610105578063595c6a67146101e85780635ac86ab7146101f05780635c975abb146102235780636b9b622914610234578063715018a614610247578063886f11951461024f575f5ffd5b8063136439dd1461014157806323103c41146101565780633101d5311461016957806339b70e3814610199578063581dfd65146101c0575b5f5ffd5b61015461014f366004611181565b610389565b005b6101546101643660046111e0565b6103c3565b61017c610177366004611243565b610651565b6040516001600160a01b0390911681526020015b60405180910390f35b61017c7f000000000000000000000000000000000000000000000000000000000000000081565b61017c6101ce36600461126d565b60016020525f90815260409020546001600160a01b031681565b610154610685565b6102136101fe36600461128f565b609954600160ff9092169190911b9081161490565b6040519015158152602001610190565b609954604051908152602001610190565b61017c61024236600461126d565b610699565b61015461087d565b61017c7f000000000000000000000000000000000000000000000000000000000000000081565b6066546001600160a01b031661017c565b61017c7f000000000000000000000000000000000000000000000000000000000000000081565b6102c16102bc36600461126d565b61088e565b60405161019091906112af565b6101546102dc3660046111e0565b610901565b6101546102ef366004611243565b610988565b61017c7f000000000000000000000000000000000000000000000000000000000000000081565b61015461032936600461126d565b610aaa565b61015461033c366004611181565b610b23565b61017c61034f3660046112fa565b610b90565b6101546103623660046111e0565b610d92565b61021361037536600461126d565b60026020525f908152604090205460ff1681565b610391610de8565b60995481811681146103b65760405163c61dca5d60e01b815260040160405180910390fd5b6103bf82610e8b565b5050565b6103cb610ec8565b5f8167ffffffffffffffff8111156103e5576103e5611332565b60405190808252806020026020018201604052801561040e578160200160208202803683370190505b5090505f805b838110156105c75760025f86868481811061043157610431611346565b9050602002016020810190610446919061126d565b6001600160a01b0316815260208101919091526040015f205460ff16156104805760405163f53de75f60e01b815260040160405180910390fd5b600160025f87878581811061049757610497611346565b90506020020160208101906104ac919061126d565b6001600160a01b0316815260208101919091526040015f20805460ff19169115159190911790557f75519c51f39873ec0e27dd3bbc09549e4865a113f505393fb9eab5898f6418b385858381811061050657610506611346565b905060200201602081019061051b919061126d565b6040516001600160a01b03909116815260200160405180910390a15f60015f87878581811061054c5761054c611346565b9050602002016020810190610561919061126d565b6001600160a01b03908116825260208201929092526040015f205416905080156105be578084848151811061059857610598611346565b6001600160a01b0390921660209283029190910190910152826105ba8161135a565b9350505b50600101610414565b50808252801561064b576040516316bb16b760e31b81526001600160a01b037f0000000000000000000000000000000000000000000000000000000000000000169063b5d8b5b89061061d9085906004016112af565b5f604051808303815f87803b158015610634575f5ffd5b505af1158015610646573d5f5f3e3d5ffd5b505050505b50505050565b6003602052815f5260405f20818154811061066a575f80fd5b5f918252602090912001546001600160a01b03169150829050565b61068d610de8565b6106975f19610e8b565b565b5f5f6106a481610f22565b6001600160a01b0383165f9081526002602052604090205460ff16156106dd5760405163091867bd60e11b815260040160405180910390fd5b6001600160a01b038381165f9081526001602052604090205416156107155760405163c45546f760e01b815260040160405180910390fd5b604080516001600160a01b03851660248083019190915282518083039091018152604490910182526020810180516001600160e01b031663189acdbd60e31b17905290515f917f00000000000000000000000000000000000000000000000000000000000000009161078690611174565b61079192919061137e565b604051809103905ff0801580156107aa573d5f5f3e3d5ffd5b5090506107b78482610f4d565b6040805160018082528183019092525f916020808301908036833701905050905081815f815181106107eb576107eb611346565b6001600160a01b039283166020918202929092010152604051632ef047f960e11b81527f000000000000000000000000000000000000000000000000000000000000000090911690635de08ff2906108479084906004016112af565b5f604051808303815f87803b15801561085e575f5ffd5b505af1158015610870573d5f5f3e3d5ffd5b5093979650505050505050565b610885610ec8565b6106975f610fb7565b6001600160a01b0381165f908152600360209081526040918290208054835181840281018401909452808452606093928301828280156108f557602002820191905f5260205f20905b81546001600160a01b031681526001909101906020018083116108d7575b50505050509050919050565b610909610ec8565b604051632ef047f960e11b81526001600160a01b037f00000000000000000000000000000000000000000000000000000000000000001690635de08ff29061095790859085906004016113c2565b5f604051808303815f87803b15801561096e575f5ffd5b505af1158015610980573d5f5f3e3d5ffd5b505050505050565b603354610100900460ff16158080156109a85750603354600160ff909116105b806109c25750303b1580156109c2575060335460ff166001145b610a2a5760405162461bcd60e51b815260206004820152602e60248201527f496e697469616c697a61626c653a20636f6e747261637420697320616c72656160448201526d191e481a5b9a5d1a585b1a5e995960921b60648201526084015b60405180910390fd5b6033805460ff191660011790558015610a4d576033805461ff0019166101001790555b610a5683610fb7565b610a5f82610e8b565b8015610aa5576033805461ff0019169055604051600181527f7f26b83ff96e1f2b6a682f133852f6798a09c465da95921460cefb38474024989060200160405180910390a15b505050565b610ab2610ec8565b6001600160a01b038116610b175760405162461bcd60e51b815260206004820152602660248201527f4f776e61626c653a206e6577206f776e657220697320746865207a65726f206160448201526564647265737360d01b6064820152608401610a21565b610b2081610fb7565b50565b610b2b611008565b60995480198219811614610b525760405163c61dca5d60e01b815260040160405180910390fd5b609982905560405182815233907f3582d1828e26bf56bd801502bc021ac0bc8afb57c826e4986b45593c8fad389c9060200160405180910390a25050565b5f5f610b9b81610f22565b5f610ba9602085018561126d565b6001600160a01b0381165f9081526002602052604090205490915060ff1615610be55760405163091867bd60e11b815260040160405180910390fd5b7f000000000000000000000000000000000000000000000000000000000000000063c2cca26d60e01b85604051602401610c1f91906114bc565b60408051601f198184030181529181526020820180516001600160e01b03166001600160e01b0319909416939093179092529051610c5c90611174565b610c6792919061137e565b604051809103905ff080158015610c80573d5f5f3e3d5ffd5b506001600160a01b038083165f9081526003602090815260408220805460018101825590835291200180546001600160a01b03191691831691909117905592506040805160018082528183019092525f9181602001602082028036833701905050905083815f81518110610cf657610cf6611346565b6001600160a01b039283166020918202929092010152604051632ef047f960e11b81527f000000000000000000000000000000000000000000000000000000000000000090911690635de08ff290610d529084906004016112af565b5f604051808303815f87803b158015610d69575f5ffd5b505af1158015610d7b573d5f5f3e3d5ffd5b50505050610d8a8483876110b9565b505050919050565b610d9a610ec8565b6040516316bb16b760e31b81526001600160a01b037f0000000000000000000000000000000000000000000000000000000000000000169063b5d8b5b89061095790859085906004016113c2565b60405163237dfb4760e11b81523360048201527f00000000000000000000000000000000000000000000000000000000000000006001600160a01b0316906346fbf68e90602401602060405180830381865afa158015610e4a573d5f5f3e3d5ffd5b505050506040513d601f19601f82011682018060405250810190610e6e91906115f8565b61069757604051631d77d47760e21b815260040160405180910390fd5b609981905560405181815233907fab40a374bc51de372200a8bc981af8c9ecdc08dfdaef0bb6e09f88f3c616ef3d9060200160405180910390a250565b6066546001600160a01b031633146106975760405162461bcd60e51b815260206004820181905260248201527f4f776e61626c653a2063616c6c6572206973206e6f7420746865206f776e65726044820152606401610a21565b609954600160ff83161b90811603610b205760405163840a48d560e01b815260040160405180910390fd5b6001600160a01b038281165f8181526001602090815260409182902080546001600160a01b031916948616948517905581519283528201929092527f6852a55230ef089d785bce7ffbf757985de34026df90a87d7b4a6e56f95d251f910160405180910390a15050565b606680546001600160a01b038381166001600160a01b0319831681179093556040519116919082907f8be0079c531659141344cd1fd0a4f28419497f9722a3daafe3b4186f6b6457e0905f90a35050565b7f00000000000000000000000000000000000000000000000000000000000000006001600160a01b031663eab66d7a6040518163ffffffff1660e01b8152600401602060405180830381865afa158015611064573d5f5f3e3d5ffd5b505050506040513d601f19601f820116820180604052508101906110889190611617565b6001600160a01b0316336001600160a01b0316146106975760405163794821ff60e01b815260040160405180910390fd5b6110c9604082016020830161126d565b6001600160a01b0316826001600160a01b0316846001600160a01b03167f6c9e2cbc6fcd0f5b21ee2edb38f3421d7538cd98b8ff00803f8187934556850484606001602081019061111a9190611632565b608086013560a087013561113160c089018961164b565b6111426101008b0160e08c0161126d565b6111546101208c016101008d01611632565b604051611167979695949392919061168e565b60405180910390a4505050565b610678806116e483390190565b5f60208284031215611191575f5ffd5b5035919050565b5f5f83601f8401126111a8575f5ffd5b50813567ffffffffffffffff8111156111bf575f5ffd5b6020830191508360208260051b85010111156111d9575f5ffd5b9250929050565b5f5f602083850312156111f1575f5ffd5b823567ffffffffffffffff811115611207575f5ffd5b61121385828601611198565b90969095509350505050565b6001600160a01b0381168114610b20575f5ffd5b803561123e8161121f565b919050565b5f5f60408385031215611254575f5ffd5b823561125f8161121f565b946020939093013593505050565b5f6020828403121561127d575f5ffd5b81356112888161121f565b9392505050565b5f6020828403121561129f575f5ffd5b813560ff81168114611288575f5ffd5b602080825282518282018190525f918401906040840190835b818110156112ef5783516001600160a01b03168352602093840193909201916001016112c8565b509095945050505050565b5f6020828403121561130a575f5ffd5b813567ffffffffffffffff811115611320575f5ffd5b82016101808185031215611288575f5ffd5b634e487b7160e01b5f52604160045260245ffd5b634e487b7160e01b5f52603260045260245ffd5b5f6001820161137757634e487b7160e01b5f52601160045260245ffd5b5060010190565b60018060a01b0383168152604060208201525f82518060408401528060208501606085015e5f606082850101526060601f19601f8301168401019150509392505050565b602080825281018290525f8360408301825b858110156114045782356113e78161121f565b6001600160a01b03168252602092830192909101906001016113d4565b5095945050505050565b803563ffffffff8116811461123e575f5ffd5b5f5f8335601e19843603018112611436575f5ffd5b830160208101925035905067ffffffffffffffff811115611455575f5ffd5b8036038213156111d9575f5ffd5b81835281816020850137505f828201602090810191909152601f909101601f19169091010190565b80356114968161121f565b6001600160a01b0316825263ffffffff6114b26020830161140e565b1660208301525050565b602081526114dd602082016114d084611233565b6001600160a01b03169052565b5f6114ea60208401611233565b6001600160a01b03811660408401525061150660408401611233565b6001600160a01b0381166060840152506115226060840161140e565b63ffffffff8116608084015250608083013560a08381019190915283013560c08084019190915261155590840184611421565b61018060e085015261156c6101a085018284611463565b915050611580610100840160e0860161148b565b61158e610120850185611421565b848303601f19016101408601526115a6838284611463565b925050506115b76101408501611233565b6001600160a01b038116610160850152506115d6610160850185611421565b848303601f19016101808601526115ee838284611463565b9695505050505050565b5f60208284031215611608575f5ffd5b81518015158114611288575f5ffd5b5f60208284031215611627575f5ffd5b81516112888161121f565b5f60208284031215611642575f5ffd5b6112888261140e565b5f5f8335601e19843603018112611660575f5ffd5b83018035915067ffffffffffffffff82111561167a575f5ffd5b6020019150368190038213156111d9575f5ffd5b63ffffffff8816815286602082015285604082015260c060608201525f6116b960c083018688611463565b6001600160a01b039490941660808301525063ffffffff9190911660a0909101529594505050505056fe6080604052604051610678380380610678833981016040819052610022916103ed565b61002d82825f610034565b5050610513565b61003d836100f1565b6040516001600160a01b038416907f1cf3b03a6cf19fa2baba4df148e9dcabedea7f8a5c07840e207e5c089be95d3e905f90a25f8251118061007c5750805b156100ec576100ea836001600160a01b0316635c60da1b6040518163ffffffff1660e01b8152600401602060405180830381865afa1580156100c0573d5f5f3e3d5ffd5b505050506040513d601f19601f820116820180604052508101906100e491906104af565b83610273565b505b505050565b6001600160a01b0381163b61015b5760405162461bcd60e51b815260206004820152602560248201527f455243313936373a206e657720626561636f6e206973206e6f74206120636f6e6044820152641d1c9858dd60da1b60648201526084015b60405180910390fd5b6101cd816001600160a01b0316635c60da1b6040518163ffffffff1660e01b8152600401602060405180830381865afa15801561019a573d5f5f3e3d5ffd5b505050506040513d601f19601f820116820180604052508101906101be91906104af565b6001600160a01b03163b151590565b6102325760405162461bcd60e51b815260206004820152603060248201527f455243313936373a20626561636f6e20696d706c656d656e746174696f6e206960448201526f1cc81b9bdd08184818dbdb9d1c9858dd60821b6064820152608401610152565b7fa3f0ad74e5423aebfd80d3ef4346578335a9a72aeaee59ff6cb3582b35133d5080546001600160a01b0319166001600160a01b0392909216919091179055565b606061029883836040518060600160405280602781526020016106516027913961029f565b9392505050565b60605f5f856001600160a01b0316856040516102bb91906104c8565b5f60405180830381855af49150503d805f81146102f3576040519150601f19603f3d011682016040523d82523d5f602084013e6102f8565b606091505b50909250905061030a86838387610314565b9695505050505050565b606083156103825782515f0361037b576001600160a01b0385163b61037b5760405162461bcd60e51b815260206004820152601d60248201527f416464726573733a2063616c6c20746f206e6f6e2d636f6e74726163740000006044820152606401610152565b508161038c565b61038c8383610394565b949350505050565b8151156103a45781518083602001fd5b8060405162461bcd60e51b815260040161015291906104de565b80516001600160a01b03811681146103d4575f5ffd5b919050565b634e487b7160e01b5f52604160045260245ffd5b5f5f604083850312156103fe575f5ffd5b610407836103be565b60208401519092506001600160401b03811115610422575f5ffd5b8301601f81018513610432575f5ffd5b80516001600160401b0381111561044b5761044b6103d9565b604051601f8201601f19908116603f011681016001600160401b0381118282101715610479576104796103d9565b604052818152828201602001871015610490575f5ffd5b8160208401602083015e5f602083830101528093505050509250929050565b5f602082840312156104bf575f5ffd5b610298826103be565b5f82518060208501845e5f920191825250919050565b602081525f82518060208401528060208501604085015e5f604082850101526040601f19601f83011684010191505092915050565b610131806105205f395ff3fe608060405236601057600e6013565b005b600e5b601f601b6021565b60b3565b565b5f60527fa3f0ad74e5423aebfd80d3ef4346578335a9a72aeaee59ff6cb3582b35133d50546001600160a01b031690565b6001600160a01b0316635c60da1b6040518163ffffffff1660e01b8152600401602060405180830381865afa158015608c573d5f5f3e3d5ffd5b505050506040513d601f19601f8201168201806040525081019060ae919060d0565b905090565b365f5f375f5f365f845af43d5f5f3e80801560cc573d5ff35b3d5ffd5b5f6020828403121560df575f5ffd5b81516001600160a01b038116811460f4575f5ffd5b939250505056fea26469706673582212207b94aecb5f7696f142cc1acc4dea07c18e8f9d41766baf4a3c001a89adb8a8a764736f6c634300081e0033416464726573733a206c6f772d6c6576656c2064656c65676174652063616c6c206661696c6564a26469706673582212200353a01ad05f640dbe6171d82b4126dda840e9012a0738b654f8fe9362b6bd6a64736f6c634300081e0033",
    "linkReferences": {}
  },
  "methodIdentifiers": {
    "blacklistTokens(address[])": "23103c41",
    "deployDurationVaultStrategy((address,address,address,uint32,uint256,uint256,string,(address,uint32),bytes,address,string))": "fb515303",
    "deployNewStrategy(address)": "6b9b6229",
    "deployedStrategies(address)": "581dfd65",
    "durationVaultBeacon()": "9e4f2dcd",
    "durationVaultsByToken(address,uint256)": "3101d531",
    "getDurationVaults(address)": "a5dae840",
    "initialize(address,uint256)": "cd6dc687",
    "isBlacklisted(address)": "fe575a87",
    "owner()": "8da5cb5b",
    "pause(uint256)": "136439dd",
    "pauseAll()": "595c6a67",
    "paused()": "5c975abb",
    "paused(uint8)": "5ac86ab7",
    "pauserRegistry()": "886f1195",
    "removeStrategiesFromWhitelist(address[])": "fe38b32d",
    "renounceOwnership()": "715018a6",
    "strategyBeacon()": "f0062d9a",
    "strategyManager()": "39b70e38",
    "transferOwnership(address)": "f2fde38b",
    "unpause(uint256)": "fabc1cbc",
    "whitelistStrategies(address[])": "b768ebc9"
  },
  "id": 224
}