{
  "abi": [
    {
      "type": "constructor",
      "inputs": [
        {
          "name": "_allocationManager",
          "type": "address",
          "internalType": "contract IAllocationManager"
        },
        {
          "name": "_delegation",
          "type": "address",
          "internalType": "contract IDelegationManager"
        },
        {
          "name": "_pauserRegistry",
          "type": "address",
          "internalType": "contract IPauserRegistry"
        },
        {
          "name": "_version",
          "type": "string",
          "internalType": "string"
        }
      ],
      "stateMutability": "nonpayable"
    },
    {
      "type": "function",
      "name": "DEFAULT_BURN_ADDRESS",
      "inputs": [],
      "outputs": [
        {
          "name": "",
          "type": "address",
          "internalType": "address"
        }
      ],
      "stateMutability": "view"
    },
    {
      "type": "function",
      "name": "DEPOSIT_TYPEHASH",
      "inputs": [],
      "outputs": [
        {
          "name": "",
          "type": "bytes32",
          "internalType": "bytes32"
        }
      ],
      "stateMutability": "view"
    },
    {
      "type": "function",
      "name": "addShares",
      "inputs": [
        {
          "name": "staker",
          "type": "address",
          "internalType": "address"
        },
        {
          "name": "strategy",
          "type": "address",
          "internalType": "contract IStrategy"
        },
        {
          "name": "shares",
          "type": "uint256",
          "internalType": "uint256"
        }
      ],
      "outputs": [
        {
          "name": "",
          "type": "uint256",
          "internalType": "uint256"
        },
        {
          "name": "",
          "type": "uint256",
          "internalType": "uint256"
        }
      ],
      "stateMutability": "nonpayable"
    },
    {
      "type": "function",
      "name": "addStrategiesToDepositWhitelist",
      "inputs": [
        {
          "name": "strategiesToWhitelist",
          "type": "address[]",
          "internalType": "contract IStrategy[]"
        }
      ],
      "outputs": [],
      "stateMutability": "nonpayable"
    },
    {
      "type": "function",
      "name": "allocationManager",
      "inputs": [],
      "outputs": [
        {
          "name": "",
          "type": "address",
          "internalType": "contract IAllocationManager"
        }
      ],
      "stateMutability": "view"
    },
    {
      "type": "function",
      "name": "burnShares",
      "inputs": [
        {
          "name": "strategy",
          "type": "address",
          "internalType": "contract IStrategy"
        }
      ],
      "outputs": [],
      "stateMutability": "nonpayable"
    },
    {
      "type": "function",
      "name": "calculateStrategyDepositDigestHash",
      "inputs": [
        {
          "name": "staker",
          "type": "address",
          "internalType": "address"
        },
        {
          "name": "strategy",
          "type": "address",
          "internalType": "contract IStrategy"
        },
        {
          "name": "token",
          "type": "address",
          "internalType": "contract IERC20"
        },
        {
          "name": "amount",
          "type": "uint256",
          "internalType": "uint256"
        },
        {
          "name": "nonce",
          "type": "uint256",
          "internalType": "uint256"
        },
        {
          "name": "expiry",
          "type": "uint256",
          "internalType": "uint256"
        }
      ],
      "outputs": [
        {
          "name": "",
          "type": "bytes32",
          "internalType": "bytes32"
        }
      ],
      "stateMutability": "view"
    },
    {
      "type": "function",
      "name": "clearBurnOrRedistributableShares",
      "inputs": [
        {
          "name": "operatorSet",
          "type": "tuple",
          "internalType": "struct OperatorSet",
          "components": [
            {
              "name": "avs",
              "type": "address",
              "internalType": "address"
            },
            {
              "name": "id",
              "type": "uint32",
              "internalType": "uint32"
            }
          ]
        },
        {
          "name": "slashId",
          "type": "uint256",
          "internalType": "uint256"
        }
      ],
      "outputs": [
        {
          "name": "",
          "type": "uint256[]",
          "internalType": "uint256[]"
        }
      ],
      "stateMutability": "nonpayable"
    },
    {
      "type": "function",
      "name": "clearBurnOrRedistributableSharesByStrategy",
      "inputs": [
        {
          "name": "operatorSet",
          "type": "tuple",
          "internalType": "struct OperatorSet",
          "components": [
            {
              "name": "avs",
              "type": "address",
              "internalType": "address"
            },
            {
              "name": "id",
              "type": "uint32",
              "internalType": "uint32"
            }
          ]
        },
        {
          "name": "slashId",
          "type": "uint256",
          "internalType": "uint256"
        },
        {
          "name": "strategy",
          "type": "address",
          "internalType": "contract IStrategy"
        }
      ],
      "outputs": [
        {
          "name": "",
          "type": "uint256",
          "internalType": "uint256"
        }
      ],
      "stateMutability": "nonpayable"
    },
    {
      "type": "function",
      "name": "delegation",
      "inputs": [],
      "outputs": [
        {
          "name": "",
          "type": "address",
          "internalType": "contract IDelegationManager"
        }
      ],
      "stateMutability": "view"
    },
    {
      "type": "function",
      "name": "depositIntoStrategy",
      "inputs": [
        {
          "name": "strategy",
          "type": "address",
          "internalType": "contract IStrategy"
        },
        {
          "name": "token",
          "type": "address",
          "internalType": "contract IERC20"
        },
        {
          "name": "amount",
          "type": "uint256",
          "internalType": "uint256"
        }
      ],
      "outputs": [
        {
          "name": "depositShares",
          "type": "uint256",
          "internalType": "uint256"
        }
      ],
      "stateMutability": "nonpayable"
    },
    {
      "type": "function",
      "name": "depositIntoStrategyWithSignature",
      "inputs": [
        {
          "name": "strategy",
          "type": "address",
          "internalType": "contract IStrategy"
        },
        {
          "name": "token",
          "type": "address",
          "internalType": "contract IERC20"
        },
        {
          "name": "amount",
          "type": "uint256",
          "internalType": "uint256"
        },
        {
          "name": "staker",
          "type": "address",
          "internalType": "address"
        },
        {
          "name": "expiry",
          "type": "uint256",
          "internalType": "uint256"
        },
        {
          "name": "signature",
          "type": "bytes",
          "internalType": "bytes"
        }
      ],
      "outputs": [
        {
          "name": "depositShares",
          "type": "uint256",
          "internalType": "uint256"
        }
      ],
      "stateMutability": "nonpayable"
    },
    {
      "type": "function",
      "name": "domainSeparator",
      "inputs": [],
      "outputs": [
        {
          "name": "",
          "type": "bytes32",
          "internalType": "bytes32"
        }
      ],
      "stateMutability": "view"
    },
    {
      "type": "function",
      "name": "getBurnOrRedistributableCount",
      "inputs": [
        {
          "name": "operatorSet",
          "type": "tuple",
          "internalType": "struct OperatorSet",
          "components": [
            {
              "name": "avs",
              "type": "address",
              "internalType": "address"
            },
            {
              "name": "id",
              "type": "uint32",
              "internalType": "uint32"
            }
          ]
        },
        {
          "name": "slashId",
          "type": "uint256",
          "internalType": "uint256"
        }
      ],
      "outputs": [
        {
          "name": "",
          "type": "uint256",
          "internalType": "uint256"
        }
      ],
      "stateMutability": "view"
    },
    {
      "type": "function",
      "name": "getBurnOrRedistributableShares",
      "inputs": [
        {
          "name": "operatorSet",
          "type": "tuple",
          "internalType": "struct OperatorSet",
          "components": [
            {
              "name": "avs",
              "type": "address",
              "internalType": "address"
            },
            {
              "name": "id",
              "type": "uint32",
              "internalType": "uint32"
            }
          ]
        },
        {
          "name": "slashId",
          "type": "uint256",
          "internalType": "uint256"
        }
      ],
      "outputs": [
        {
          "name": "",
          "type": "address[]",
          "internalType": "contract IStrategy[]"
        },
        {
          "name": "",
          "type": "uint256[]",
          "internalType": "uint256[]"
        }
      ],
      "stateMutability": "view"
    },
    {
      "type": "function",
      "name": "getBurnOrRedistributableShares",
      "inputs": [
        {
          "name": "operatorSet",
          "type": "tuple",
          "internalType": "struct OperatorSet",
          "components": [
            {
              "name": "avs",
              "type": "address",
              "internalType": "address"
            },
            {
              "name": "id",
              "type": "uint32",
              "internalType": "uint32"
            }
          ]
        },
        {
          "name": "slashId",
          "type": "uint256",
          "internalType": "uint256"
        },
        {
          "name": "strategy",
          "type": "address",
          "internalType": "contract IStrategy"
        }
      ],
      "outputs": [
        {
          "name": "",
          "type": "uint256",
          "internalType": "uint256"
        }
      ],
      "stateMutability": "view"
    },
    {
      "type": "function",
      "name": "getBurnableShares",
      "inputs": [
        {
          "name": "strategy",
          "type": "address",
          "internalType": "contract IStrategy"
        }
      ],
      "outputs": [
        {
          "name": "",
          "type": "uint256",
          "internalType": "uint256"
        }
      ],
      "stateMutability": "view"
    },
    {
      "type": "function",
      "name": "getDeposits",
      "inputs": [
        {
          "name": "staker",
          "type": "address",
          "internalType": "address"
        }
      ],
      "outputs": [
        {
          "name": "",
          "type": "address[]",
          "internalType": "contract IStrategy[]"
        },
        {
          "name": "",
          "type": "uint256[]",
          "internalType": "uint256[]"
        }
      ],
      "stateMutability": "view"
    },
    {
      "type": "function",
      "name": "getPendingOperatorSets",
      "inputs": [],
      "outputs": [
        {
          "name": "",
          "type": "tuple[]",
          "internalType": "struct OperatorSet[]",
          "components": [
            {
              "name": "avs",
              "type": "address",
              "internalType": "address"
            },
            {
              "name": "id",
              "type": "uint32",
              "internalType": "uint32"
            }
          ]
        }
      ],
      "stateMutability": "view"
    },
    {
      "type": "function",
      "name": "getPendingSlashIds",
      "inputs": [
        {
          "name": "operatorSet",
          "type": "tuple",
          "internalType": "struct OperatorSet",
          "components": [
            {
              "name": "avs",
              "type": "address",
              "internalType": "address"
            },
            {
              "name": "id",
              "type": "uint32",
              "internalType": "uint32"
            }
          ]
        }
      ],
      "outputs": [
        {
          "name": "",
          "type": "uint256[]",
          "internalType": "uint256[]"
        }
      ],
      "stateMutability": "view"
    },
    {
      "type": "function",
      "name": "getStakerStrategyList",
      "inputs": [
        {
          "name": "staker",
          "type": "address",
          "internalType": "address"
        }
      ],
      "outputs": [
        {
          "name": "",
          "type": "address[]",
          "internalType": "contract IStrategy[]"
        }
      ],
      "stateMutability": "view"
    },
    {
      "type": "function",
      "name": "getStrategiesWithBurnableShares",
      "inputs": [],
      "outputs": [
        {
          "name": "",
          "type": "address[]",
          "internalType": "address[]"
        },
        {
          "name": "",
          "type": "uint256[]",
          "internalType": "uint256[]"
        }
      ],
      "stateMutability": "view"
    },
    {
      "type": "function",
      "name": "increaseBurnOrRedistributableShares",
      "inputs": [
        {
          "name": "operatorSet",
          "type": "tuple",
          "internalType": "struct OperatorSet",
          "components": [
            {
              "name": "avs",
              "type": "address",
              "internalType": "address"
            },
            {
              "name": "id",
              "type": "uint32",
              "internalType": "uint32"
            }
          ]
        },
        {
          "name": "slashId",
          "type": "uint256",
          "internalType": "uint256"
        },
        {
          "name": "strategy",
          "type": "address",
          "internalType": "contract IStrategy"
        },
        {
          "name": "sharesToBurn",
          "type": "uint256",
          "internalType": "uint256"
        }
      ],
      "outputs": [],
      "stateMutability": "nonpayable"
    },
    {
      "type": "function",
      "name": "initialize",
      "inputs": [
        {
          "name": "initialOwner",
          "type": "address",
          "internalType": "address"
        },
        {
          "name": "initialStrategyWhitelister",
          "type": "address",
          "internalType": "address"
        },
        {
          "name": "initialPausedStatus",
          "type": "uint256",
          "internalType": "uint256"
        }
      ],
      "outputs": [],
      "stateMutability": "nonpayable"
    },
    {
      "type": "function",
      "name": "nonces",
      "inputs": [
        {
          "name": "signer",
          "type": "address",
          "internalType": "address"
        }
      ],
      "outputs": [
        {
          "name": "nonce",
          "type": "uint256",
          "internalType": "uint256"
        }
      ],
      "stateMutability": "view"
    },
    {
      "type": "function",
      "name": "owner",
      "inputs": [],
      "outputs": [
        {
          "name": "",
          "type": "address",
          "internalType": "address"
        }
      ],
      "stateMutability": "view"
    },
    {
      "type": "function",
      "name": "pause",
      "inputs": [
        {
          "name": "newPausedStatus",
          "type": "uint256",
          "internalType": "uint256"
        }
      ],
      "outputs": [],
      "stateMutability": "nonpayable"
    },
    {
      "type": "function",
      "name": "pauseAll",
      "inputs": [],
      "outputs": [],
      "stateMutability": "nonpayable"
    },
    {
      "type": "function",
      "name": "paused",
      "inputs": [
        {
          "name": "index",
          "type": "uint8",
          "internalType": "uint8"
        }
      ],
      "outputs": [
        {
          "name": "",
          "type": "bool",
          "internalType": "bool"
        }
      ],
      "stateMutability": "view"
    },
    {
      "type": "function",
      "name": "paused",
      "inputs": [],
      "outputs": [
        {
          "name": "",
          "type": "uint256",
          "internalType": "uint256"
        }
      ],
      "stateMutability": "view"
    },
    {
      "type": "function",
      "name": "pauserRegistry",
      "inputs": [],
      "outputs": [
        {
          "name": "",
          "type": "address",
          "internalType": "contract IPauserRegistry"
        }
      ],
      "stateMutability": "view"
    },
    {
      "type": "function",
      "name": "removeDepositShares",
      "inputs": [
        {
          "name": "staker",
          "type": "address",
          "internalType": "address"
        },
        {
          "name": "strategy",
          "type": "address",
          "internalType": "contract IStrategy"
        },
        {
          "name": "depositSharesToRemove",
          "type": "uint256",
          "internalType": "uint256"
        }
      ],
      "outputs": [
        {
          "name": "",
          "type": "uint256",
          "internalType": "uint256"
        }
      ],
      "stateMutability": "nonpayable"
    },
    {
      "type": "function",
      "name": "removeStrategiesFromDepositWhitelist",
      "inputs": [
        {
          "name": "strategiesToRemoveFromWhitelist",
          "type": "address[]",
          "internalType": "contract IStrategy[]"
        }
      ],
      "outputs": [],
      "stateMutability": "nonpayable"
    },
    {
      "type": "function",
      "name": "renounceOwnership",
      "inputs": [],
      "outputs": [],
      "stateMutability": "nonpayable"
    },
    {
      "type": "function",
      "name": "setStrategyWhitelister",
      "inputs": [
        {
          "name": "newStrategyWhitelister",
          "type": "address",
          "internalType": "address"
        }
      ],
      "outputs": [],
      "stateMutability": "nonpayable"
    },
    {
      "type": "function",
      "name": "stakerDepositShares",
      "inputs": [
        {
          "name": "staker",
          "type": "address",
          "internalType": "address"
        },
        {
          "name": "strategy",
          "type": "address",
          "internalType": "contract IStrategy"
        }
      ],
      "outputs": [
        {
          "name": "shares",
          "type": "uint256",
          "internalType": "uint256"
        }
      ],
      "stateMutability": "view"
    },
    {
      "type": "function",
      "name": "stakerStrategyList",
      "inputs": [
        {
          "name": "staker",
          "type": "address",
          "internalType": "address"
        },
        {
          "name": "",
          "type": "uint256",
          "internalType": "uint256"
        }
      ],
      "outputs": [
        {
          "name": "strategies",
          "type": "address",
          "internalType": "contract IStrategy"
        }
      ],
      "stateMutability": "view"
    },
    {
      "type": "function",
      "name": "stakerStrategyListLength",
      "inputs": [
        {
          "name": "staker",
          "type": "address",
          "internalType": "address"
        }
      ],
      "outputs": [
        {
          "name": "",
          "type": "uint256",
          "internalType": "uint256"
        }
      ],
      "stateMutability": "view"
    },
    {
      "type": "function",
      "name": "strategyIsWhitelistedForDeposit",
      "inputs": [
        {
          "name": "strategy",
          "type": "address",
          "internalType": "contract IStrategy"
        }
      ],
      "outputs": [
        {
          "name": "whitelisted",
          "type": "bool",
          "internalType": "bool"
        }
      ],
      "stateMutability": "view"
    },
    {
      "type": "function",
      "name": "strategyWhitelister",
      "inputs": [],
      "outputs": [
        {
          "name": "",
          "type": "address",
          "internalType": "address"
        }
      ],
      "stateMutability": "view"
    },
    {
      "type": "function",
      "name": "transferOwnership",
      "inputs": [
        {
          "name": "newOwner",
          "type": "address",
          "internalType": "address"
        }
      ],
      "outputs": [],
      "stateMutability": "nonpayable"
    },
    {
      "type": "function",
      "name": "unpause",
      "inputs": [
        {
          "name": "newPausedStatus",
          "type": "uint256",
          "internalType": "uint256"
        }
      ],
      "outputs": [],
      "stateMutability": "nonpayable"
    },
    {
      "type": "function",
      "name": "version",
      "inputs": [],
      "outputs": [
        {
          "name": "",
          "type": "string",
          "internalType": "string"
        }
      ],
      "stateMutability": "view"
    },
    {
      "type": "function",
      "name": "withdrawSharesAsTokens",
      "inputs": [
        {
          "name": "staker",
          "type": "address",
          "internalType": "address"
        },
        {
          "name": "strategy",
          "type": "address",
          "internalType": "contract IStrategy"
        },
        {
          "name": "token",
          "type": "address",
          "internalType": "contract IERC20"
        },
        {
          "name": "shares",
          "type": "uint256",
          "internalType": "uint256"
        }
      ],
      "outputs": [],
      "stateMutability": "nonpayable"
    },
    {
      "type": "event",
      "name": "BurnOrRedistributableSharesDecreased",
      "inputs": [
        {
          "name": "operatorSet",
          "type": "tuple",
          "indexed": false,
          "internalType": "struct OperatorSet",
          "components": [
            {
              "name": "avs",
              "type": "address",
              "internalType": "address"
            },
            {
              "name": "id",
              "type": "uint32",
              "internalType": "uint32"
            }
          ]
        },
        {
          "name": "slashId",
          "type": "uint256",
          "indexed": false,
          "internalType": "uint256"
        },
        {
          "name": "strategy",
          "type": "address",
          "indexed": false,
          "internalType": "contract IStrategy"
        },
        {
          "name": "shares",
          "type": "uint256",
          "indexed": false,
          "internalType": "uint256"
        }
      ],
      "anonymous": false
    },
    {
      "type": "event",
      "name": "BurnOrRedistributableSharesIncreased",
      "inputs": [
        {
          "name": "operatorSet",
          "type": "tuple",
          "indexed": false,
          "internalType": "struct OperatorSet",
          "components": [
            {
              "name": "avs",
              "type": "address",
              "internalType": "address"
            },
            {
              "name": "id",
              "type": "uint32",
              "internalType": "uint32"
            }
          ]
        },
        {
          "name": "slashId",
          "type": "uint256",
          "indexed": false,
          "internalType": "uint256"
        },
        {
          "name": "strategy",
          "type": "address",
          "indexed": false,
          "internalType": "contract IStrategy"
        },
        {
          "name": "shares",
          "type": "uint256",
          "indexed": false,
          "internalType": "uint256"
        }
      ],
      "anonymous": false
    },
    {
      "type": "event",
      "name": "BurnableSharesDecreased",
      "inputs": [
        {
          "name": "strategy",
          "type": "address",
          "indexed": false,
          "internalType": "contract IStrategy"
        },
        {
          "name": "shares",
          "type": "uint256",
          "indexed": false,
          "internalType": "uint256"
        }
      ],
      "anonymous": false
    },
    {
      "type": "event",
      "name": "Deposit",
      "inputs": [
        {
          "name": "staker",
          "type": "address",
          "indexed": false,
          "internalType": "address"
        },
        {
          "name": "strategy",
          "type": "address",
          "indexed": false,
          "internalType": "contract IStrategy"
        },
        {
          "name": "shares",
          "type": "uint256",
          "indexed": false,
          "internalType": "uint256"
        }
      ],
      "anonymous": false
    },
    {
      "type": "event",
      "name": "Initialized",
      "inputs": [
        {
          "name": "version",
          "type": "uint8",
          "indexed": false,
          "internalType": "uint8"
        }
      ],
      "anonymous": false
    },
    {
      "type": "event",
      "name": "OwnershipTransferred",
      "inputs": [
        {
          "name": "previousOwner",
          "type": "address",
          "indexed": true,
          "internalType": "address"
        },
        {
          "name": "newOwner",
          "type": "address",
          "indexed": true,
          "internalType": "address"
        }
      ],
      "anonymous": false
    },
    {
      "type": "event",
      "name": "Paused",
      "inputs": [
        {
          "name": "account",
          "type": "address",
          "indexed": true,
          "internalType": "address"
        },
        {
          "name": "newPausedStatus",
          "type": "uint256",
          "indexed": false,
          "internalType": "uint256"
        }
      ],
      "anonymous": false
    },
    {
      "type": "event",
      "name": "StrategyAddedToDepositWhitelist",
      "inputs": [
        {
          "name": "strategy",
          "type": "address",
          "indexed": false,
          "internalType": "contract IStrategy"
        }
      ],
      "anonymous": false
    },
    {
      "type": "event",
      "name": "StrategyRemovedFromDepositWhitelist",
      "inputs": [
        {
          "name": "strategy",
          "type": "address",
          "indexed": false,
          "internalType": "contract IStrategy"
        }
      ],
      "anonymous": false
    },
    {
      "type": "event",
      "name": "StrategyWhitelisterChanged",
      "inputs": [
        {
          "name": "previousAddress",
          "type": "address",
          "indexed": false,
          "internalType": "address"
        },
        {
          "name": "newAddress",
          "type": "address",
          "indexed": false,
          "internalType": "address"
        }
      ],
      "anonymous": false
    },
    {
      "type": "event",
      "name": "Unpaused",
      "inputs": [
        {
          "name": "account",
          "type": "address",
          "indexed": true,
          "internalType": "address"
        },
        {
          "name": "newPausedStatus",
          "type": "uint256",
          "indexed": false,
          "internalType": "uint256"
        }
      ],
      "anonymous": false
    },
    {
      "type": "error",
      "name": "CurrentlyPaused",
      "inputs": []
    },
    {
      "type": "error",
      "name": "InputAddressZero",
      "inputs": []
    },
    {
      "type": "error",
      "name": "InvalidNewPausedStatus",
      "inputs": []
    },
    {
      "type": "error",
      "name": "InvalidShortString",
      "inputs": []
    },
    {
      "type": "error",
      "name": "InvalidSignature",
      "inputs": []
    },
    {
      "type": "error",
      "name": "MaxStrategiesExceeded",
      "inputs": []
    },
    {
      "type": "error",
      "name": "OnlyDelegationManager",
      "inputs": []
    },
    {
      "type": "error",
      "name": "OnlyPauser",
      "inputs": []
    },
    {
      "type": "error",
      "name": "OnlyStrategyWhitelister",
      "inputs": []
    },
    {
      "type": "error",
      "name": "OnlyUnpauser",
      "inputs": []
    },
    {
      "type": "error",
      "name": "SharesAmountTooHigh",
      "inputs": []
    },
    {
      "type": "error",
      "name": "SharesAmountZero",
      "inputs": []
    },
    {
      "type": "error",
      "name": "SignatureExpired",
      "inputs": []
    },
    {
      "type": "error",
      "name": "StakerAddressZero",
      "inputs": []
    },
    {
      "type": "error",
      "name": "StrategyAlreadyInSlash",
      "inputs": []
    },
    {
      "type": "error",
      "name": "StrategyNotFound",
      "inputs": []
    },
    {
      "type": "error",
      "name": "StrategyNotWhitelisted",
      "inputs": []
    },
    {
      "type": "error",
      "name": "StringTooLong",
      "inputs": [
        {
          "name": "str",
          "type": "string",
          "internalType": "string"
        }
      ]
    }
  ],
  "bytecode": {
    "object": "0x610100604052348015610010575f5ffd5b50604051613a92380380613a9283398101604081905261002f916101bc565b80808585856001600160a01b03811661005b576040516339b190bb60e11b815260040160405180910390fd5b6001600160a01b0390811660805291821660a0521660c05261007c81610093565b60e0525061008a90506100d9565b50505050610301565b5f5f829050601f815111156100c6578260405163305a27a960e01b81526004016100bd91906102a6565b60405180910390fd5b80516100d1826102db565b179392505050565b5f54610100900460ff16156101405760405162461bcd60e51b815260206004820152602760248201527f496e697469616c697a61626c653a20636f6e747261637420697320696e697469604482015266616c697a696e6760c81b60648201526084016100bd565b5f5460ff9081161461018f575f805460ff191660ff9081179091556040519081527f7f26b83ff96e1f2b6a682f133852f6798a09c465da95921460cefb38474024989060200160405180910390a15b565b6001600160a01b03811681146101a5575f5ffd5b50565b634e487b7160e01b5f52604160045260245ffd5b5f5f5f5f608085870312156101cf575f5ffd5b84516101da81610191565b60208601519094506101eb81610191565b60408601519093506101fc81610191565b60608601519092506001600160401b03811115610217575f5ffd5b8501601f81018713610227575f5ffd5b80516001600160401b03811115610240576102406101a8565b604051601f8201601f19908116603f011681016001600160401b038111828210171561026e5761026e6101a8565b604052818152828201602001891015610285575f5ffd5b8160208401602083015e5f6020838301015280935050505092959194509250565b602081525f82518060208401528060208501604085015e5f604082850101526040601f19601f83011684010191505092915050565b805160208083015191908110156102fb575f198160200360031b1b821691505b50919050565b60805160a05160c05160e05161371861037a5f395f81816110a8015261252f01525f81816105fa015281816108c101528181610da30152818161103a0152818161125501526120a901525f81816105a001528181610815015261141a01525f81816104b601528181611aaa015261259e01526137185ff3fe608060405234801561000f575f5ffd5b506004361061026b575f3560e01c80637ecebe001161014b578063ca8aa7c7116100bf578063f2fde38b11610084578063f2fde38b1461062f578063f3b4a00014610642578063f698da251461064c578063fabc1cbc14610654578063fd98042314610667578063fe243a171461067a575f5ffd5b8063ca8aa7c71461059b578063cbc2bd62146105c2578063de44acb6146105d5578063df5cf723146105f5578063e7a050aa1461061c575f5ffd5b80638da5cb5b116101105780638da5cb5b1461052b57806394f649dd1461053c578063967fc0d21461054f5780639ac01d6114610562578063b5d8b5b814610575578063c665670214610588575f5ffd5b80637ecebe001461047f578063829fca731461049e578063886f1195146104b157806388c10299146104f05780638b8aac3c14610503575f5ffd5b806350ff7225116101e25780635de08ff2116101a75780635de08ff2146103fc578063663c1de41461040f578063715018a614610431578063724af4231461043957806376fb162b1461044c5780637def15641461045f575f5ffd5b806350ff72251461037c57806354fd4d50146103a4578063595c6a67146103b95780635ac86ab7146103c15780635c975abb146103f4575f5ffd5b806332e89ace1161023357806332e89ace146102f157806336a8c500146103045780633f292b081461031a5780633fb99ca51461032f57806348825e94146103425780634b6d5d6e14610369575f5ffd5b8063136439dd1461026f5780631794bb3c146102845780632d44def6146102975780632eae418c146102bd57806331f8fb4c146102d0575b5f5ffd5b61028261027d366004612eee565b6106a4565b005b610282610292366004612f19565b6106de565b6102aa6102a5366004612f6d565b610804565b6040519081526020015b60405180910390f35b6102826102cb366004612fab565b6108b6565b6102e36102de366004612ff9565b610982565b6040516102b4929190613095565b6102aa6102ff366004613106565b610b10565b61030c610b95565b6040516102b49291906131e0565b610322610cb0565b6040516102b49190613236565b61028261033d366004613293565b610d98565b6102aa7f4337f82d142e41f2a8c10547cd8c859bddb92262a61058e77842e24d9dea922481565b6102826103773660046132d7565b610ee0565b61038f61038a366004612f19565b61102d565b604080519283526020830191909152016102b4565b6103ac6110a1565b6040516102b49190613320565b6102826110d1565b6103e46103cf366004613332565b609854600160ff9092169190911b9081161490565b60405190151581526020016102b4565b6098546102aa565b61028261040a366004613352565b6110e5565b6103e461041d3660046132d7565b60d16020525f908152604090205460ff1681565b610282611238565b6102aa610447366004612f19565b611249565b6102aa61045a366004612f6d565b6112a6565b61047261046d3660046133c1565b6112f5565b6040516102b491906133db565b6102aa61048d3660046132d7565b60ca6020525f908152604090205481565b6102aa6104ac366004612ff9565b611327565b6104d87f000000000000000000000000000000000000000000000000000000000000000081565b6040516001600160a01b0390911681526020016102b4565b6104726104fe366004612ff9565b611361565b6102aa6105113660046132d7565b6001600160a01b03165f90815260ce602052604090205490565b6033546001600160a01b03166104d8565b6102e361054a3660046132d7565b611498565b60cb546104d8906001600160a01b031681565b6102aa6105703660046133ed565b61160f565b610282610583366004613352565b6116a0565b6102826105963660046132d7565b6117e7565b6104d87f000000000000000000000000000000000000000000000000000000000000000081565b6104d86105d036600461344e565b61180a565b6105e86105e33660046132d7565b61183e565b6040516102b49190613478565b6104d87f000000000000000000000000000000000000000000000000000000000000000081565b6102aa61062a366004612f19565b6118b1565b61028261063d3660046132d7565b6118e4565b6104d8620e16e481565b6102aa61195a565b610282610662366004612eee565b611a13565b6102aa6106753660046132d7565b611a80565b6102aa61068836600461348a565b60cd60209081525f928352604080842090915290825290205481565b6106ac611a95565b60985481811681146106d15760405163c61dca5d60e01b815260040160405180910390fd5b6106da82611b38565b5050565b5f54610100900460ff16158080156106fc57505f54600160ff909116105b806107155750303b15801561071557505f5460ff166001145b61077d5760405162461bcd60e51b815260206004820152602e60248201527f496e697469616c697a61626c653a20636f6e747261637420697320616c72656160448201526d191e481a5b9a5d1a585b1a5e995960921b60648201526084015b60405180910390fd5b5f805460ff19166001179055801561079e575f805461ff0019166101001790555b6107a782611b38565b6107b084611b75565b6107b983611bc6565b80156107fe575f805461ff0019169055604051600181527f7f26b83ff96e1f2b6a682f133852f6798a09c465da95921460cefb38474024989060200160405180910390a15b50505050565b5f61080d611c2f565b6108a38484847f00000000000000000000000000000000000000000000000000000000000000006001600160a01b0316630f3df50e896040518263ffffffff1660e01b815260040161085f919061350a565b602060405180830381865afa15801561087a573d5f5f3e3d5ffd5b505050506040513d601f19601f8201168201806040525081019061089e9190613518565b611c88565b90506108af6001606555565b9392505050565b336001600160a01b037f000000000000000000000000000000000000000000000000000000000000000016146108ff5760405163f739589b60e01b815260040160405180910390fd5b610907611c2f565b604051636ce5768960e11b81526001600160a01b0384169063d9caed129061093790879086908690600401613533565b6020604051808303815f875af1158015610953573d5f5f3e3d5ffd5b505050506040513d601f19601f820116820180604052508101906109779190613557565b506107fe6001606555565b6060805f60d7816109a061099b3689900389018961356e565b611e90565b81526020019081526020015f205f8581526020019081526020015f2090505f6109c882611ef3565b90505f81516001600160401b038111156109e4576109e46130c2565b604051908082528060200260200182016040528015610a0d578160200160208202803683370190505b5090505f82516001600160401b03811115610a2a57610a2a6130c2565b604051908082528060200260200182016040528015610a53578160200160208202803683370190505b5090505f5b8351811015610b0057838181518110610a7357610a736135ca565b6020026020010151838281518110610a8d57610a8d6135ca565b60200260200101906001600160a01b031690816001600160a01b031681525050610ad9848281518110610ac257610ac26135ca565b602002602001015186611eff90919063ffffffff16565b9050828281518110610aed57610aed6135ca565b6020908102919091010152600101610a58565b50909450925050505b9250929050565b5f5f610b1b81611f23565b610b23611c2f565b6001600160a01b0385165f90815260ca6020526040902054610b5486610b4d818c8c8c878c61160f565b8688611f4e565b6001600160a01b0386165f90815260ca60205260409020600182019055610b7d868a8a8a611fa0565b925050610b8a6001606555565b509695505050505050565b6060805f610ba360d461210d565b90505f816001600160401b03811115610bbe57610bbe6130c2565b604051908082528060200260200182016040528015610be7578160200160208202803683370190505b5090505f826001600160401b03811115610c0357610c036130c2565b604051908082528060200260200182016040528015610c2c578160200160208202803683370190505b5090505f5b83811015610ca5575f5f610c4660d484612117565b9150915081858481518110610c5d57610c5d6135ca565b60200260200101906001600160a01b031690816001600160a01b03168152505080848481518110610c9057610c906135ca565b60209081029190910101525050600101610c31565b509094909350915050565b60605f610cbd60d8612125565b90505f816001600160401b03811115610cd857610cd86130c2565b604051908082528060200260200182016040528015610d1c57816020015b604080518082019091525f8082526020820152815260200190600190039081610cf65790505b5090505f5b82811015610d9157610d6c610d3760d88361212e565b604080518082019091525f80825260208201525060408051808201909152606082901c815263ffffffff909116602082015290565b828281518110610d7e57610d7e6135ca565b6020908102919091010152600101610d21565b5092915050565b336001600160a01b037f00000000000000000000000000000000000000000000000000000000000000001614610de15760405163f739589b60e01b815260040160405180910390fd5b610de9611c2f565b5f60d781610dff61099b3689900389018961356e565b815260208082019290925260409081015f90812087825290925290209050610e28818484612139565b610e455760405163ca354fa360e01b815260040160405180910390fd5b610e62610e5a61099b3688900388018861356e565b60d89061214e565b50610e978460da5f610e7c61099b368b90038b018b61356e565b81526020019081526020015f2061214e90919063ffffffff16565b507f5f5209798bbac45a16d2dc3bc67319fab26ee00153916d6f07b69f8a134a1e8b85858585604051610ecd94939291906135de565b60405180910390a1506107fe6001606555565b610ee8611c2f565b5f610ef460d483611eff565b915050610f0260d483612159565b50604080516001600160a01b0384168152602081018390527fd9d082c3ec4f3a3ffa55c324939a06407f5fbcb87d5e0ce3b9508c92c84ed839910160405180910390a1801561101f57816001600160a01b031663d9caed12620e16e4846001600160a01b0316632495a5996040518163ffffffff1660e01b8152600401602060405180830381865afa158015610f9a573d5f5f3e3d5ffd5b505050506040513d601f19601f82011682018060405250810190610fbe9190613518565b846040518463ffffffff1660e01b8152600401610fdd93929190613533565b6020604051808303815f875af1158015610ff9573d5f5f3e3d5ffd5b505050506040513d601f19601f8201168201806040525081019061101d9190613557565b505b5061102a6001606555565b50565b5f80336001600160a01b037f000000000000000000000000000000000000000000000000000000000000000016146110785760405163f739589b60e01b815260040160405180910390fd5b611080611c2f565b61108b85858561216d565b915091506110996001606555565b935093915050565b60606110cc7f0000000000000000000000000000000000000000000000000000000000000000612331565b905090565b6110d9611a95565b6110e35f19611b38565b565b60cb546001600160a01b03163314611110576040516320ba3ff960e21b815260040160405180910390fd5b611118611c2f565b805f5b8181101561122c5760d15f858584818110611138576111386135ca565b905060200201602081019061114d91906132d7565b6001600160a01b0316815260208101919091526040015f205460ff1661122457600160d15f868685818110611184576111846135ca565b905060200201602081019061119991906132d7565b6001600160a01b0316815260208101919091526040015f20805460ff19169115159190911790557f0c35b17d91c96eb2751cd456e1252f42a386e524ef9ff26ecc9950859fdc04fe8484838181106111f3576111f36135ca565b905060200201602081019061120891906132d7565b6040516001600160a01b03909116815260200160405180910390a15b60010161111b565b50506106da6001606555565b61124061236e565b6110e35f611b75565b5f336001600160a01b037f000000000000000000000000000000000000000000000000000000000000000016146112935760405163f739589b60e01b815260040160405180910390fd5b61129b611c2f565b6108a38484846123c8565b5f806112eb8360d7836112c161099b368b90038b018b61356e565b81526020019081526020015f205f8781526020019081526020015f20611eff90919063ffffffff16565b9695505050505050565b606061132160da5f61130f61099b3687900387018761356e565b81526020019081526020015f206124d5565b92915050565b5f6108af60d78261134061099b3688900388018861356e565b81526020019081526020015f205f8481526020019081526020015f2061210d565b606061136b611c2f565b5f6113a560d78261138461099b3689900389018961356e565b81526020019081526020015f205f8581526020019081526020015f20611ef3565b80519091505f816001600160401b038111156113c3576113c36130c2565b6040519080825280602002602001820160405280156113ec578160200160208202803683370190505b5090505f5b82811015611489576114648787868481518110611410576114106135ca565b60200260200101517f00000000000000000000000000000000000000000000000000000000000000006001600160a01b0316630f3df50e8c6040518263ffffffff1660e01b815260040161085f919061350a565b828281518110611476576114766135ca565b60209081029190910101526001016113f1565b50925050506113216001606555565b6001600160a01b0381165f90815260ce6020526040812054606091829190816001600160401b038111156114ce576114ce6130c2565b6040519080825280602002602001820160405280156114f7578160200160208202803683370190505b5090505f5b82811015611585576001600160a01b0386165f90815260cd6020908152604080832060ce909252822080549192918490811061153a5761153a6135ca565b5f9182526020808320909101546001600160a01b031683528201929092526040019020548251839083908110611572576115726135ca565b60209081029190910101526001016114fc565b5060ce5f866001600160a01b03166001600160a01b031681526020019081526020015f2081818054806020026020016040519081016040528092919081815260200182805480156115fd57602002820191905f5260205f20905b81546001600160a01b031681526001909101906020018083116115df575b50505050509150935093505050915091565b604080517f4337f82d142e41f2a8c10547cd8c859bddb92262a61058e77842e24d9dea922460208201526001600160a01b03808916928201929092528187166060820152908516608082015260a0810184905260c0810183905260e081018290525f906116959061010001604051602081830303815290604052805190602001206124e1565b979650505050505050565b60cb546001600160a01b031633146116cb576040516320ba3ff960e21b815260040160405180910390fd5b6116d3611c2f565b805f5b8181101561122c5760d15f8585848181106116f3576116f36135ca565b905060200201602081019061170891906132d7565b6001600160a01b0316815260208101919091526040015f205460ff16156117df575f60d15f86868581811061173f5761173f6135ca565b905060200201602081019061175491906132d7565b6001600160a01b0316815260208101919091526040015f20805460ff19169115159190911790557f4074413b4b443e4e58019f2855a8765113358c7c72e39509c6af45fc0f5ba0308484838181106117ae576117ae6135ca565b90506020020160208101906117c391906132d7565b6040516001600160a01b03909116815260200160405180910390a15b6001016116d6565b6117ef61236e565b6117f7611c2f565b61180081611bc6565b61102a6001606555565b60ce602052815f5260405f208181548110611823575f80fd5b5f918252602090912001546001600160a01b03169150829050565b6001600160a01b0381165f90815260ce60209081526040918290208054835181840281018401909452808452606093928301828280156118a557602002820191905f5260205f20905b81546001600160a01b03168152600190910190602001808311611887575b50505050509050919050565b5f5f6118bc81611f23565b6118c4611c2f565b6118d033868686611fa0565b91506118dc6001606555565b509392505050565b6118ec61236e565b6001600160a01b0381166119515760405162461bcd60e51b815260206004820152602660248201527f4f776e61626c653a206e6577206f776e657220697320746865207a65726f206160448201526564647265737360d01b6064820152608401610774565b61102a81611b75565b60408051808201909152600a81526922b4b3b2b72630bcb2b960b11b6020909101525f7f8b73c3c69bb8fe3d512ecc4cf759cc79239f7b179b0ffacaa9a75d522b39400f7f71b625cfad44bac63b13dba07f2e1d6084ee04b6f8752101ece6126d584ee6ea6119c7612527565b805160209182012060408051928301949094529281019190915260608101919091524660808201523060a082015260c00160405160208183030381529060405280519060200120905090565b611a1b61259c565b60985480198219811614611a425760405163c61dca5d60e01b815260040160405180910390fd5b609882905560405182815233907f3582d1828e26bf56bd801502bc021ac0bc8afb57c826e4986b45593c8fad389c9060200160405180910390a25050565b5f5f611a8d60d484611eff565b949350505050565b60405163237dfb4760e11b81523360048201527f00000000000000000000000000000000000000000000000000000000000000006001600160a01b0316906346fbf68e90602401602060405180830381865afa158015611af7573d5f5f3e3d5ffd5b505050506040513d601f19601f82011682018060405250810190611b1b9190613610565b6110e357604051631d77d47760e21b815260040160405180910390fd5b609881905560405181815233907fab40a374bc51de372200a8bc981af8c9ecdc08dfdaef0bb6e09f88f3c616ef3d9060200160405180910390a250565b603380546001600160a01b038381166001600160a01b0319831681179093556040519116919082907f8be0079c531659141344cd1fd0a4f28419497f9722a3daafe3b4186f6b6457e0905f90a35050565b60cb54604080516001600160a01b03928316815291831660208301527f4264275e593955ff9d6146a51a4525f6ddace2e81db9391abcc9d1ca48047d29910160405180910390a160cb80546001600160a01b0319166001600160a01b0392909216919091179055565b600260655403611c815760405162461bcd60e51b815260206004820152601f60248201527f5265656e7472616e637947756172643a207265656e7472616e742063616c6c006044820152606401610774565b6002606555565b5f8060d781611c9f61099b368a90038a018a61356e565b815260208082019290925260409081015f90812088825290925281209150611cc78286611eff565b9150611cd590508286612159565b505f8115611dec57856001600160a01b031663d9caed1286886001600160a01b0316632495a5996040518163ffffffff1660e01b8152600401602060405180830381865afa158015611d29573d5f5f3e3d5ffd5b505050506040513d601f19601f82011682018060405250810190611d4d9190613518565b856040518463ffffffff1660e01b8152600401611d6c93929190613533565b6020604051808303815f875af1158015611d88573d5f5f3e3d5ffd5b505050506040513d601f19601f82011682018060405250810190611dac9190613557565b90507fe6413aa0c789e437b0a06bf64b20926584f066c79a2d8b80a759c85472f7b0af88888885604051611de394939291906135de565b60405180910390a15b5f611df684611ef3565b519050805f03611e8457611e348860da5f611e1961099b368f90038f018f61356e565b81526020019081526020015f2061264d90919063ffffffff16565b50611e5f60da5f611e4d61099b368e90038e018e61356e565b81526020019081526020015f20612125565b5f03611e8457611e82611e7a61099b368c90038c018c61356e565b60d89061264d565b505b50979650505050505050565b5f815f0151826020015163ffffffff16604051602001611edb92919060609290921b6bffffffffffffffffffffffff1916825260a01b6001600160a01b031916601482015260200190565b6040516020818303038152906040526113219061362f565b60605f6108af83612658565b5f808080611f16866001600160a01b038716612663565b9097909650945050505050565b609854600160ff83161b9081160361102a5760405163840a48d560e01b815260040160405180910390fd5b42811015611f6f57604051630819bdcd60e01b815260040160405180910390fd5b611f836001600160a01b038516848461269b565b6107fe57604051638baa579f60e01b815260040160405180910390fd5b6001600160a01b0383165f90815260d16020526040812054849060ff16611fda57604051632efd965160e11b815260040160405180910390fd5b611fef6001600160a01b0385163387866126ef565b6040516311f9fbc960e21b81526001600160a01b038581166004830152602482018590528616906347e7ef24906044016020604051808303815f875af115801561203b573d5f5f3e3d5ffd5b505050506040513d601f19601f8201168201806040525081019061205f9190613557565b91505f5f61206e88888661216d565b604051631e328e7960e11b81526001600160a01b038b811660048301528a8116602483015260448201849052606482018390529294509092507f000000000000000000000000000000000000000000000000000000000000000090911690633c651cf2906084015f604051808303815f87803b1580156120ec575f5ffd5b505af11580156120fe573d5f5f3e3d5ffd5b50505050505050949350505050565b5f61132182612747565b5f808080611f168686612751565b5f611321825490565b5f6108af838361277a565b5f611a8d846001600160a01b038516846127a0565b5f6108af83836127bc565b5f6108af836001600160a01b038416612808565b5f806001600160a01b038516612196576040516316f2ccc960e01b815260040160405180910390fd5b825f036121b6576040516342061b2560e11b815260040160405180910390fd5b60405162e7c78560e71b81526001600160a01b038681166004830152602482018590528516906373e3c280906044015f604051808303815f87803b1580156121fc575f5ffd5b505af115801561220e573d5f5f3e3d5ffd5b5050506001600160a01b038087165f90815260cd6020908152604080832093891683529290529081205491508190036122b8576001600160a01b0386165f90815260ce60209081526040909120541061227a576040516301a1443960e31b815260040160405180910390fd5b6001600160a01b038681165f90815260ce602090815260408220805460018101825590835291200180546001600160a01b0319169187169190911790555b6122c28482613666565b6001600160a01b038088165f90815260cd60209081526040808320938a16835292905281902091909155517f5548c837ab068cf56a2c2479df0882a4922fd203edb7517321831d95078c5f629061231e90889088908890613533565b60405180910390a1959294509192505050565b60605f61233d83612824565b6040805160208082528183019092529192505f91906020820181803683375050509182525060208101929092525090565b6033546001600160a01b031633146110e35760405162461bcd60e51b815260206004820181905260248201527f4f776e61626c653a2063616c6c6572206973206e6f7420746865206f776e65726044820152606401610774565b5f815f036123e9576040516342061b2560e11b815260040160405180910390fd5b6001600160a01b038085165f90815260cd60209081526040808320938716835292905220548083111561242f57604051634b18b19360e01b815260040160405180910390fd5b6040516303e3e6eb60e01b81526001600160a01b038681166004830152602482018590528516906303e3e6eb906044015f604051808303815f87803b158015612476575f5ffd5b505af1158015612488573d5f5f3e3d5ffd5b5050505082816124989190613679565b6001600160a01b038087165f90815260cd602090815260408083209389168352929052908120829055909150819003611a8d57611a8d858561284b565b60605f6108af836129c9565b5f6124ea61195a565b60405161190160f01b6020820152602281019190915260428101839052606201604051602081830303815290604052805190602001209050919050565b60605f6125537f0000000000000000000000000000000000000000000000000000000000000000612331565b9050805f81518110612567576125676135ca565b016020908101516040516001600160f81b03199091169181019190915260210160405160208183030381529060405291505090565b7f00000000000000000000000000000000000000000000000000000000000000006001600160a01b031663eab66d7a6040518163ffffffff1660e01b8152600401602060405180830381865afa1580156125f8573d5f5f3e3d5ffd5b505050506040513d601f19601f8201168201806040525081019061261c9190613518565b6001600160a01b0316336001600160a01b0316146110e35760405163794821ff60e01b815260040160405180910390fd5b5f6108af8383612a21565b6060611321826124d5565b5f818152600283016020526040812054819080612690576126848585612b04565b92505f9150610b099050565b600192509050610b09565b5f5f5f6126a88585612b0f565b90925090505f8160048111156126c0576126c061368c565b1480156126de5750856001600160a01b0316826001600160a01b0316145b806112eb57506112eb868686612b4e565b6107fe846323b872dd60e01b85858560405160240161271093929190613533565b60408051601f198184030181529190526020810180516001600160e01b03166001600160e01b031990931692909217909152612c35565b5f61132182612125565b5f808061275e858561212e565b5f81815260029690960160205260409095205494959350505050565b5f825f01828154811061278f5761278f6135ca565b905f5260205f200154905092915050565b5f8281526002840160205260408120829055611a8d848461214e565b5f81815260018301602052604081205461280157508154600181810184555f848152602080822090930184905584548482528286019093526040902091909155611321565b505f611321565b5f81815260028301602052604081208190556108af838361264d565b5f60ff8216601f81111561132157604051632cd44ac360e21b815260040160405180910390fd5b6001600160a01b0382165f90815260ce6020526040812054905b8181101561295d576001600160a01b038481165f90815260ce602052604090208054918516918390811061289b5761289b6135ca565b5f918252602090912001546001600160a01b031603612955576001600160a01b0384165f90815260ce6020526040902080546128d990600190613679565b815481106128e9576128e96135ca565b5f9182526020808320909101546001600160a01b03878116845260ce9092526040909220805491909216919083908110612925576129256135ca565b905f5260205f20015f6101000a8154816001600160a01b0302191690836001600160a01b0316021790555061295d565b600101612865565b81810361297d57604051632df15a4160e11b815260040160405180910390fd5b6001600160a01b0384165f90815260ce602052604090208054806129a3576129a36136a0565b5f8281526020902081015f1990810180546001600160a01b031916905501905550505050565b6060815f018054806020026020016040519081016040528092919081815260200182805480156118a557602002820191905f5260205f20905b815481526020019060010190808311612a025750505050509050919050565b5f8181526001830160205260408120548015612afb575f612a43600183613679565b85549091505f90612a5690600190613679565b9050818114612ab5575f865f018281548110612a7457612a746135ca565b905f5260205f200154905080875f018481548110612a9457612a946135ca565b5f918252602080832090910192909255918252600188019052604090208390555b8554869080612ac657612ac66136a0565b600190038181905f5260205f20015f90559055856001015f8681526020019081526020015f205f905560019350505050611321565b5f915050611321565b5f6108af8383612d0d565b5f5f8251604103612b43576020830151604084015160608501515f1a612b3787828585612d24565b94509450505050610b09565b505f90506002610b09565b5f5f5f856001600160a01b0316631626ba7e60e01b8686604051602401612b769291906136b4565b60408051601f198184030181529181526020820180516001600160e01b03166001600160e01b0319909416939093179092529051612bb491906136cc565b5f60405180830381855afa9150503d805f8114612bec576040519150601f19603f3d011682016040523d82523d5f602084013e612bf1565b606091505b5091509150818015612c0557506020815110155b80156112eb57508051630b135d3f60e11b90612c2a9083016020908101908401613557565b149695505050505050565b5f612c89826040518060400160405280602081526020017f5361666545524332303a206c6f772d6c6576656c2063616c6c206661696c6564815250856001600160a01b0316612de19092919063ffffffff16565b905080515f1480612ca9575080806020019051810190612ca99190613610565b612d085760405162461bcd60e51b815260206004820152602a60248201527f5361666545524332303a204552433230206f7065726174696f6e20646964206e6044820152691bdd081cdd58d8d9595960b21b6064820152608401610774565b505050565b5f81815260018301602052604081205415156108af565b5f807f7fffffffffffffffffffffffffffffff5d576e7357a4501ddfe92f46681b20a0831115612d5957505f90506003612dd8565b604080515f8082526020820180845289905260ff881692820192909252606081018690526080810185905260019060a0016020604051602081039080840390855afa158015612daa573d5f5f3e3d5ffd5b5050604051601f1901519150506001600160a01b038116612dd2575f60019250925050612dd8565b91505f90505b94509492505050565b6060611a8d84845f85855f5f866001600160a01b03168587604051612e0691906136cc565b5f6040518083038185875af1925050503d805f8114612e40576040519150601f19603f3d011682016040523d82523d5f602084013e612e45565b606091505b50915091506116958783838760608315612ebf5782515f03612eb8576001600160a01b0385163b612eb85760405162461bcd60e51b815260206004820152601d60248201527f416464726573733a2063616c6c20746f206e6f6e2d636f6e74726163740000006044820152606401610774565b5081611a8d565b611a8d8383815115612ed45781518083602001fd5b8060405162461bcd60e51b81526004016107749190613320565b5f60208284031215612efe575f5ffd5b5035919050565b6001600160a01b038116811461102a575f5ffd5b5f5f5f60608486031215612f2b575f5ffd5b8335612f3681612f05565b92506020840135612f4681612f05565b929592945050506040919091013590565b5f60408284031215612f67575f5ffd5b50919050565b5f5f5f60808486031215612f7f575f5ffd5b612f898585612f57565b9250604084013591506060840135612fa081612f05565b809150509250925092565b5f5f5f5f60808587031215612fbe575f5ffd5b8435612fc981612f05565b93506020850135612fd981612f05565b92506040850135612fe981612f05565b9396929550929360600135925050565b5f5f6060838503121561300a575f5ffd5b6130148484612f57565b946040939093013593505050565b5f8151808452602084019350602083015f5b8281101561305b5781516001600160a01b0316865260209586019590910190600101613034565b5093949350505050565b5f8151808452602084019350602083015f5b8281101561305b578151865260209586019590910190600101613077565b604081525f6130a76040830185613022565b82810360208401526130b98185613065565b95945050505050565b634e487b7160e01b5f52604160045260245ffd5b604051601f8201601f191681016001600160401b03811182821017156130fe576130fe6130c2565b604052919050565b5f5f5f5f5f5f60c0878903121561311b575f5ffd5b863561312681612f05565b9550602087013561313681612f05565b945060408701359350606087013561314d81612f05565b92506080870135915060a08701356001600160401b0381111561316e575f5ffd5b8701601f8101891361317e575f5ffd5b80356001600160401b03811115613197576131976130c2565b6131aa601f8201601f19166020016130d6565b8181528a60208385010111156131be575f5ffd5b816020840160208301375f602083830101528093505050509295509295509295565b604080825283519082018190525f9060208501906060840190835b818110156132225783516001600160a01b03168352602093840193909201916001016131fb565b505083810360208501526112eb8186613065565b602080825282518282018190525f918401906040840190835b8181101561328857835180516001600160a01b0316845260209081015163ffffffff16818501529093019260409092019160010161324f565b509095945050505050565b5f5f5f5f60a085870312156132a6575f5ffd5b6132b08686612f57565b93506040850135925060608501356132c781612f05565b9396929550929360800135925050565b5f602082840312156132e7575f5ffd5b81356108af81612f05565b5f81518084528060208401602086015e5f602082860101526020601f19601f83011685010191505092915050565b602081525f6108af60208301846132f2565b5f60208284031215613342575f5ffd5b813560ff811681146108af575f5ffd5b5f5f60208385031215613363575f5ffd5b82356001600160401b03811115613378575f5ffd5b8301601f81018513613388575f5ffd5b80356001600160401b0381111561339d575f5ffd5b8560208260051b84010111156133b1575f5ffd5b6020919091019590945092505050565b5f604082840312156133d1575f5ffd5b6108af8383612f57565b602081525f6108af6020830184613065565b5f5f5f5f5f5f60c08789031215613402575f5ffd5b863561340d81612f05565b9550602087013561341d81612f05565b9450604087013561342d81612f05565b959894975094956060810135955060808101359460a0909101359350915050565b5f5f6040838503121561345f575f5ffd5b823561346a81612f05565b946020939093013593505050565b602081525f6108af6020830184613022565b5f5f6040838503121561349b575f5ffd5b82356134a681612f05565b915060208301356134b681612f05565b809150509250929050565b803563ffffffff811681146134d4575f5ffd5b919050565b80356134e481612f05565b6001600160a01b0316825263ffffffff613500602083016134c1565b1660208301525050565b6040810161132182846134d9565b5f60208284031215613528575f5ffd5b81516108af81612f05565b6001600160a01b039384168152919092166020820152604081019190915260600190565b5f60208284031215613567575f5ffd5b5051919050565b5f604082840312801561357f575f5ffd5b50604080519081016001600160401b03811182821017156135a2576135a26130c2565b60405282356135b081612f05565b81526135be602084016134c1565b60208201529392505050565b634e487b7160e01b5f52603260045260245ffd5b60a081016135ec82876134d9565b60408201949094526001600160a01b03929092166060830152608090910152919050565b5f60208284031215613620575f5ffd5b815180151581146108af575f5ffd5b80516020808301519190811015612f67575f1960209190910360031b1b16919050565b634e487b7160e01b5f52601160045260245ffd5b8082018082111561132157611321613652565b8181038181111561132157611321613652565b634e487b7160e01b5f52602160045260245ffd5b634e487b7160e01b5f52603160045260245ffd5b828152604060208201525f611a8d60408301846132f2565b5f82518060208501845e5f92019182525091905056fea2646970667358221220ff4fd21d7c9c7b1b56429b0df097f2e4e21531d1bde13b0867d51fc3ccd5481264736f6c634300081e0033",
    "linkReferences": {}
  },
  "methodIdentifiers": {
    "DEFAULT_BURN_ADDRESS()": "f3b4a000",
    "DEPOSIT_TYPEHASH()": "48825e94",
    "addShares(address,address,uint256)": "50ff7225",
    "addStrategiesToDepositWhitelist(address[])": "5de08ff2",
    "allocationManager()": "ca8aa7c7",
    "burnShares(address)": "4b6d5d6e",
    "calculateStrategyDepositDigestHash(address,address,address,uint256,uint256,uint256)": "9ac01d61",
    "clearBurnOrRedistributableShares((address,uint32),uint256)": "88c10299",
    "clearBurnOrRedistributableSharesByStrategy((address,uint32),uint256,address)": "2d44def6",
    "delegation()": "df5cf723",
    "depositIntoStrategy(address,address,uint256)": "e7a050aa",
    "depositIntoStrategyWithSignature(address,address,uint256,address,uint256,bytes)": "32e89ace",
    "domainSeparator()": "f698da25",
    "getBurnOrRedistributableCount((address,uint32),uint256)": "829fca73",
    "getBurnOrRedistributableShares((address,uint32),uint256)": "31f8fb4c",
    "getBurnOrRedistributableShares((address,uint32),uint256,address)": "76fb162b",
    "getBurnableShares(address)": "fd980423",
    "getDeposits(address)": "94f649dd",
    "getPendingOperatorSets()": "3f292b08",
    "getPendingSlashIds((address,uint32))": "7def1564",
    "getStakerStrategyList(address)": "de44acb6",
    "getStrategiesWithBurnableShares()": "36a8c500",
    "increaseBurnOrRedistributableShares((address,uint32),uint256,address,uint256)": "3fb99ca5",
    "initialize(address,address,uint256)": "1794bb3c",
    "nonces(address)": "7ecebe00",
    "owner()": "8da5cb5b",
    "pause(uint256)": "136439dd",
    "pauseAll()": "595c6a67",
    "paused()": "5c975abb",
    "paused(uint8)": "5ac86ab7",
    "pauserRegistry()": "886f1195",
    "removeDepositShares(address,address,uint256)": "724af423",
    "removeStrategiesFromDepositWhitelist(address[])": "b5d8b5b8",
    "renounceOwnership()": "715018a6",
    "setStrategyWhitelister(address)": "c6656702",
    "stakerDepositShares(address,address)": "fe243a17",
    "stakerStrategyList(address,uint256)": "cbc2bd62",
    "stakerStrategyListLength(address)": "8b8aac3c",
    "strategyIsWhitelistedForDeposit(address)": "663c1de4",
    "strategyWhitelister()": "967fc0d2",
    "transferOwnership(address)": "f2fde38b",
    "unpause(uint256)": "fabc1cbc",
    "version()": "54fd4d50",
    "withdrawSharesAsTokens(address,address,address,uint256)": "2eae418c"
  },
  "id": 146
}