{
  "abi": [
    {
      "type": "constructor",
      "inputs": [
        {
          "name": "_strategyManager",
          "type": "address",
          "internalType": "contract IStrategyManager"
        },
        {
          "name": "_pauserRegistry",
          "type": "address",
          "internalType": "contract IPauserRegistry"
        }
      ],
      "stateMutability": "nonpayable"
    },
    {
      "type": "function",
      "name": "beforeAddShares",
      "inputs": [
        {
          "name": "",
          "type": "address",
          "internalType": "address"
        },
        {
          "name": "",
          "type": "uint256",
          "internalType": "uint256"
        }
      ],
      "outputs": [],
      "stateMutability": "nonpayable"
    },
    {
      "type": "function",
      "name": "beforeRemoveShares",
      "inputs": [
        {
          "name": "",
          "type": "address",
          "internalType": "address"
        },
        {
          "name": "",
          "type": "uint256",
          "internalType": "uint256"
        }
      ],
      "outputs": [],
      "stateMutability": "nonpayable"
    },
    {
      "type": "function",
      "name": "deposit",
      "inputs": [
        {
          "name": "token",
          "type": "address",
          "internalType": "contract IERC20"
        },
        {
          "name": "amount",
          "type": "uint256",
          "internalType": "uint256"
        }
      ],
      "outputs": [
        {
          "name": "newShares",
          "type": "uint256",
          "internalType": "uint256"
        }
      ],
      "stateMutability": "nonpayable"
    },
    {
      "type": "function",
      "name": "explanation",
      "inputs": [],
      "outputs": [
        {
          "name": "",
          "type": "string",
          "internalType": "string"
        }
      ],
      "stateMutability": "pure"
    },
    {
      "type": "function",
      "name": "initialize",
      "inputs": [
        {
          "name": "_underlyingToken",
          "type": "address",
          "internalType": "contract IERC20"
        }
      ],
      "outputs": [],
      "stateMutability": "nonpayable"
    },
    {
      "type": "function",
      "name": "pause",
      "inputs": [
        {
          "name": "newPausedStatus",
          "type": "uint256",
          "internalType": "uint256"
        }
      ],
      "outputs": [],
      "stateMutability": "nonpayable"
    },
    {
      "type": "function",
      "name": "pauseAll",
      "inputs": [],
      "outputs": [],
      "stateMutability": "nonpayable"
    },
    {
      "type": "function",
      "name": "paused",
      "inputs": [
        {
          "name": "index",
          "type": "uint8",
          "internalType": "uint8"
        }
      ],
      "outputs": [
        {
          "name": "",
          "type": "bool",
          "internalType": "bool"
        }
      ],
      "stateMutability": "view"
    },
    {
      "type": "function",
      "name": "paused",
      "inputs": [],
      "outputs": [
        {
          "name": "",
          "type": "uint256",
          "internalType": "uint256"
        }
      ],
      "stateMutability": "view"
    },
    {
      "type": "function",
      "name": "pauserRegistry",
      "inputs": [],
      "outputs": [
        {
          "name": "",
          "type": "address",
          "internalType": "contract IPauserRegistry"
        }
      ],
      "stateMutability": "view"
    },
    {
      "type": "function",
      "name": "shares",
      "inputs": [
        {
          "name": "user",
          "type": "address",
          "internalType": "address"
        }
      ],
      "outputs": [
        {
          "name": "",
          "type": "uint256",
          "internalType": "uint256"
        }
      ],
      "stateMutability": "view"
    },
    {
      "type": "function",
      "name": "sharesToUnderlying",
      "inputs": [
        {
          "name": "amountShares",
          "type": "uint256",
          "internalType": "uint256"
        }
      ],
      "outputs": [
        {
          "name": "",
          "type": "uint256",
          "internalType": "uint256"
        }
      ],
      "stateMutability": "view"
    },
    {
      "type": "function",
      "name": "sharesToUnderlyingView",
      "inputs": [
        {
          "name": "amountShares",
          "type": "uint256",
          "internalType": "uint256"
        }
      ],
      "outputs": [
        {
          "name": "",
          "type": "uint256",
          "internalType": "uint256"
        }
      ],
      "stateMutability": "view"
    },
    {
      "type": "function",
      "name": "strategyManager",
      "inputs": [],
      "outputs": [
        {
          "name": "",
          "type": "address",
          "internalType": "contract IStrategyManager"
        }
      ],
      "stateMutability": "view"
    },
    {
      "type": "function",
      "name": "totalShares",
      "inputs": [],
      "outputs": [
        {
          "name": "",
          "type": "uint256",
          "internalType": "uint256"
        }
      ],
      "stateMutability": "view"
    },
    {
      "type": "function",
      "name": "underlyingToShares",
      "inputs": [
        {
          "name": "amountUnderlying",
          "type": "uint256",
          "internalType": "uint256"
        }
      ],
      "outputs": [
        {
          "name": "",
          "type": "uint256",
          "internalType": "uint256"
        }
      ],
      "stateMutability": "view"
    },
    {
      "type": "function",
      "name": "underlyingToSharesView",
      "inputs": [
        {
          "name": "amountUnderlying",
          "type": "uint256",
          "internalType": "uint256"
        }
      ],
      "outputs": [
        {
          "name": "",
          "type": "uint256",
          "internalType": "uint256"
        }
      ],
      "stateMutability": "view"
    },
    {
      "type": "function",
      "name": "underlyingToken",
      "inputs": [],
      "outputs": [
        {
          "name": "",
          "type": "address",
          "internalType": "contract IERC20"
        }
      ],
      "stateMutability": "view"
    },
    {
      "type": "function",
      "name": "unpause",
      "inputs": [
        {
          "name": "newPausedStatus",
          "type": "uint256",
          "internalType": "uint256"
        }
      ],
      "outputs": [],
      "stateMutability": "nonpayable"
    },
    {
      "type": "function",
      "name": "userUnderlying",
      "inputs": [
        {
          "name": "user",
          "type": "address",
          "internalType": "address"
        }
      ],
      "outputs": [
        {
          "name": "",
          "type": "uint256",
          "internalType": "uint256"
        }
      ],
      "stateMutability": "nonpayable"
    },
    {
      "type": "function",
      "name": "userUnderlyingView",
      "inputs": [
        {
          "name": "user",
          "type": "address",
          "internalType": "address"
        }
      ],
      "outputs": [
        {
          "name": "",
          "type": "uint256",
          "internalType": "uint256"
        }
      ],
      "stateMutability": "view"
    },
    {
      "type": "function",
      "name": "withdraw",
      "inputs": [
        {
          "name": "recipient",
          "type": "address",
          "internalType": "address"
        },
        {
          "name": "token",
          "type": "address",
          "internalType": "contract IERC20"
        },
        {
          "name": "amountShares",
          "type": "uint256",
          "internalType": "uint256"
        }
      ],
      "outputs": [
        {
          "name": "amountOut",
          "type": "uint256",
          "internalType": "uint256"
        }
      ],
      "stateMutability": "nonpayable"
    },
    {
      "type": "event",
      "name": "ExchangeRateEmitted",
      "inputs": [
        {
          "name": "rate",
          "type": "uint256",
          "indexed": false,
          "internalType": "uint256"
        }
      ],
      "anonymous": false
    },
    {
      "type": "event",
      "name": "Initialized",
      "inputs": [
        {
          "name": "version",
          "type": "uint8",
          "indexed": false,
          "internalType": "uint8"
        }
      ],
      "anonymous": false
    },
    {
      "type": "event",
      "name": "Paused",
      "inputs": [
        {
          "name": "account",
          "type": "address",
          "indexed": true,
          "internalType": "address"
        },
        {
          "name": "newPausedStatus",
          "type": "uint256",
          "indexed": false,
          "internalType": "uint256"
        }
      ],
      "anonymous": false
    },
    {
      "type": "event",
      "name": "StrategyTokenSet",
      "inputs": [
        {
          "name": "token",
          "type": "address",
          "indexed": false,
          "internalType": "contract IERC20"
        },
        {
          "name": "decimals",
          "type": "uint8",
          "indexed": false,
          "internalType": "uint8"
        }
      ],
      "anonymous": false
    },
    {
      "type": "event",
      "name": "Unpaused",
      "inputs": [
        {
          "name": "account",
          "type": "address",
          "indexed": true,
          "internalType": "address"
        },
        {
          "name": "newPausedStatus",
          "type": "uint256",
          "indexed": false,
          "internalType": "uint256"
        }
      ],
      "anonymous": false
    },
    {
      "type": "error",
      "name": "BalanceExceedsMaxTotalDeposits",
      "inputs": []
    },
    {
      "type": "error",
      "name": "CurrentlyPaused",
      "inputs": []
    },
    {
      "type": "error",
      "name": "InputAddressZero",
      "inputs": []
    },
    {
      "type": "error",
      "name": "InvalidNewPausedStatus",
      "inputs": []
    },
    {
      "type": "error",
      "name": "MaxPerDepositExceedsMax",
      "inputs": []
    },
    {
      "type": "error",
      "name": "NewSharesZero",
      "inputs": []
    },
    {
      "type": "error",
      "name": "OnlyPauser",
      "inputs": []
    },
    {
      "type": "error",
      "name": "OnlyStrategyManager",
      "inputs": []
    },
    {
      "type": "error",
      "name": "OnlyUnderlyingToken",
      "inputs": []
    },
    {
      "type": "error",
      "name": "OnlyUnpauser",
      "inputs": []
    },
    {
      "type": "error",
      "name": "TotalSharesExceedsMax",
      "inputs": []
    },
    {
      "type": "error",
      "name": "WithdrawalAmountExceedsTotalDeposits",
      "inputs": []
    }
  ],
  "bytecode": {
    "object": "0x60c060405234801561000f575f5ffd5b5060405161139338038061139383398101604081905261002e9161014b565b806001600160a01b038116610056576040516339b190bb60e11b815260040160405180910390fd5b6001600160a01b03908116608052821660a052610071610078565b5050610183565b5f54610100900460ff16156100e35760405162461bcd60e51b815260206004820152602760248201527f496e697469616c697a61626c653a20636f6e747261637420697320696e697469604482015266616c697a696e6760c81b606482015260840160405180910390fd5b5f5460ff90811614610132575f805460ff191660ff9081179091556040519081527f7f26b83ff96e1f2b6a682f133852f6798a09c465da95921460cefb38474024989060200160405180910390a15b565b6001600160a01b0381168114610148575f5ffd5b50565b5f5f6040838503121561015c575f5ffd5b825161016781610134565b602084015190925061017881610134565b809150509250929050565b60805160a0516111c56101ce5f395f818161019e0152818161032e015281816103bc015281816106b5015261073701525f8181610254015281816108e50152610c6301526111c55ff3fe608060405234801561000f575f5ffd5b506004361061013d575f3560e01c80637a8b2637116100b4578063c4d66de811610079578063c4d66de8146102b1578063ce7c2ac2146102c4578063d9caed12146102d7578063e3dae51c146102ea578063f3e73875146102fd578063fabc1cbc14610310575f5ffd5b80637a8b26371461023c578063886f11951461024f5780638c871019146102765780638f6a624014610289578063ab5921e11461029c575f5ffd5b806347e7ef241161010557806347e7ef24146101d7578063553ca5f8146101ea578063595c6a67146101fd5780635ac86ab7146102055780635c975abb1461023457806373e3c28014610141575f5ffd5b806303e3e6eb14610141578063136439dd146101565780632495a5991461016957806339b70e38146101995780633a98ef39146101c0575b5f5ffd5b61015461014f366004610f51565b610323565b005b610154610164366004610f7b565b610370565b60325461017c906001600160a01b031681565b6040516001600160a01b0390911681526020015b60405180910390f35b61017c7f000000000000000000000000000000000000000000000000000000000000000081565b6101c960335481565b604051908152602001610190565b6101c96101e5366004610f51565b6103a6565b6101c96101f8366004610f92565b6104d5565b6101546104e8565b610224610213366004610fc2565b6001805460ff9092161b9081161490565b6040519015158152602001610190565b6001546101c9565b6101c961024a366004610f7b565b6104fc565b61017c7f000000000000000000000000000000000000000000000000000000000000000081565b6101c9610284366004610f7b565b610545565b6101c9610297366004610f92565b61054f565b6102a461055c565b6040516101909190610fdd565b6101546102bf366004610f92565b61057c565b6101c96102d2366004610f92565b61068e565b6101c96102e5366004611012565b610720565b6101c96102f8366004610f7b565b610822565b6101c961030b366004610f7b565b610859565b61015461031e366004610f7b565b610863565b336001600160a01b037f0000000000000000000000000000000000000000000000000000000000000000161461036c576040516348da714f60e01b815260040160405180910390fd5b5050565b6103786108d0565b600154818116811461039d5760405163c61dca5d60e01b815260040160405180910390fd5b61036c82610973565b5f5f6103b1816109b0565b336001600160a01b037f000000000000000000000000000000000000000000000000000000000000000016146103fa576040516348da714f60e01b815260040160405180910390fd5b61040484846109e6565b6033545f6104146103e883611064565b90505f6103e8610422610a14565b61042c9190611064565b90505f6104398783611077565b905080610446848961108a565b61045091906110a1565b9550855f0361047257604051630c392ed360e11b815260040160405180910390fd5b61047c8685611064565b60338190556f4b3b4ca85a86c47a098a223fffffffff10156104b157604051632f14e8a360e11b815260040160405180910390fd5b6104ca826103e86033546104c59190611064565b610a83565b505050505092915050565b5f6104e261024a8361068e565b92915050565b6104f06108d0565b6104fa5f19610973565b565b5f5f6103e860335461050e9190611064565b90505f6103e861051c610a14565b6105269190611064565b905081610533858361108a565b61053d91906110a1565b949350505050565b5f6104e282610822565b5f6104e261030b8361068e565b60606040518060800160405280604d8152602001611143604d9139905090565b5f54610100900460ff161580801561059a57505f54600160ff909116105b806105b35750303b1580156105b357505f5460ff166001145b61061b5760405162461bcd60e51b815260206004820152602e60248201527f496e697469616c697a61626c653a20636f6e747261637420697320616c72656160448201526d191e481a5b9a5d1a585b1a5e995960921b60648201526084015b60405180910390fd5b5f805460ff19166001179055801561063c575f805461ff0019166101001790555b61064582610acf565b801561036c575f805461ff0019169055604051600181527f7f26b83ff96e1f2b6a682f133852f6798a09c465da95921460cefb3847402498906020015b60405180910390a15050565b60405163fe243a1760e01b81526001600160a01b0382811660048301523060248301525f917f00000000000000000000000000000000000000000000000000000000000000009091169063fe243a1790604401602060405180830381865afa1580156106fc573d5f5f3e3d5ffd5b505050506040513d601f19601f820116820180604052508101906104e291906110c0565b5f600161072c816109b0565b336001600160a01b037f00000000000000000000000000000000000000000000000000000000000000001614610775576040516348da714f60e01b815260040160405180910390fd5b610780858585610c1a565b603354808411156107a457604051630b469df360e41b815260040160405180910390fd5b5f6107b16103e883611064565b90505f6103e86107bf610a14565b6107c99190611064565b9050816107d6878361108a565b6107e091906110a1565b94506107ec8684611077565b60335561080c6107fc8683611077565b6103e86033546104c59190611064565b610817888887610c4d565b505050509392505050565b5f5f6103e86033546108349190611064565b90505f6103e8610842610a14565b61084c9190611064565b905080610533838661108a565b5f6104e2826104fc565b61086b610c61565b600154801982198116146108925760405163c61dca5d60e01b815260040160405180910390fd5b600182905560405182815233907f3582d1828e26bf56bd801502bc021ac0bc8afb57c826e4986b45593c8fad389c9060200160405180910390a25050565b60405163237dfb4760e11b81523360048201527f00000000000000000000000000000000000000000000000000000000000000006001600160a01b0316906346fbf68e90602401602060405180830381865afa158015610932573d5f5f3e3d5ffd5b505050506040513d601f19601f8201168201806040525081019061095691906110d7565b6104fa57604051631d77d47760e21b815260040160405180910390fd5b600181905560405181815233907fab40a374bc51de372200a8bc981af8c9ecdc08dfdaef0bb6e09f88f3c616ef3d9060200160405180910390a250565b6109c5816001805460ff9092161b9081161490565b156109e35760405163840a48d560e01b815260040160405180910390fd5b50565b6032546001600160a01b0383811691161461036c57604051630312abdd60e61b815260040160405180910390fd5b6032546040516370a0823160e01b81523060048201525f916001600160a01b0316906370a0823190602401602060405180830381865afa158015610a5a573d5f5f3e3d5ffd5b505050506040513d601f19601f82011682018060405250810190610a7e91906110c0565b905090565b7fd2494f3479e5da49d386657c292c610b5b01df313d07c62eb0cfa49924a31be881610ab784670de0b6b3a764000061108a565b610ac191906110a1565b604051908152602001610682565b5f54610100900460ff16610b395760405162461bcd60e51b815260206004820152602b60248201527f496e697469616c697a61626c653a20636f6e7472616374206973206e6f74206960448201526a6e697469616c697a696e6760a81b6064820152608401610612565b603280546001600160a01b0319166001600160a01b038316179055610b5d5f610973565b7f1c540707b00eb5427b6b774fc799d756516a54aee108b64b327acc55af55750760325f9054906101000a90046001600160a01b0316826001600160a01b031663313ce5676040518163ffffffff1660e01b8152600401602060405180830381865afa158015610bcf573d5f5f3e3d5ffd5b505050506040513d601f19601f82011682018060405250810190610bf391906110f6565b604080516001600160a01b03909316835260ff90911660208301520160405180910390a150565b6032546001600160a01b03838116911614610c4857604051630312abdd60e61b815260040160405180910390fd5b505050565b610c486001600160a01b0383168483610d12565b7f00000000000000000000000000000000000000000000000000000000000000006001600160a01b031663eab66d7a6040518163ffffffff1660e01b8152600401602060405180830381865afa158015610cbd573d5f5f3e3d5ffd5b505050506040513d601f19601f82011682018060405250810190610ce19190611111565b6001600160a01b0316336001600160a01b0316146104fa5760405163794821ff60e01b815260040160405180910390fd5b604080516001600160a01b03848116602483015260448083018590528351808403909101815260649092018352602080830180516001600160e01b031663a9059cbb60e01b17905283518085019094528084527f5361666545524332303a206c6f772d6c6576656c2063616c6c206661696c656490840152610c48928692915f91610da1918516908490610e20565b905080515f1480610dc1575080806020019051810190610dc191906110d7565b610c485760405162461bcd60e51b815260206004820152602a60248201527f5361666545524332303a204552433230206f7065726174696f6e20646964206e6044820152691bdd081cdd58d8d9595960b21b6064820152608401610612565b606061053d84845f85855f5f866001600160a01b03168587604051610e45919061112c565b5f6040518083038185875af1925050503d805f8114610e7f576040519150601f19603f3d011682016040523d82523d5f602084013e610e84565b606091505b5091509150610e9587838387610ea0565b979650505050505050565b60608315610f0e5782515f03610f07576001600160a01b0385163b610f075760405162461bcd60e51b815260206004820152601d60248201527f416464726573733a2063616c6c20746f206e6f6e2d636f6e74726163740000006044820152606401610612565b508161053d565b61053d8383815115610f235781518083602001fd5b8060405162461bcd60e51b81526004016106129190610fdd565b6001600160a01b03811681146109e3575f5ffd5b5f5f60408385031215610f62575f5ffd5b8235610f6d81610f3d565b946020939093013593505050565b5f60208284031215610f8b575f5ffd5b5035919050565b5f60208284031215610fa2575f5ffd5b8135610fad81610f3d565b9392505050565b60ff811681146109e3575f5ffd5b5f60208284031215610fd2575f5ffd5b8135610fad81610fb4565b602081525f82518060208401528060208501604085015e5f604082850101526040601f19601f83011684010191505092915050565b5f5f5f60608486031215611024575f5ffd5b833561102f81610f3d565b9250602084013561103f81610f3d565b929592945050506040919091013590565b634e487b7160e01b5f52601160045260245ffd5b808201808211156104e2576104e2611050565b818103818111156104e2576104e2611050565b80820281158282048414176104e2576104e2611050565b5f826110bb57634e487b7160e01b5f52601260045260245ffd5b500490565b5f602082840312156110d0575f5ffd5b5051919050565b5f602082840312156110e7575f5ffd5b81518015158114610fad575f5ffd5b5f60208284031215611106575f5ffd5b8151610fad81610fb4565b5f60208284031215611121575f5ffd5b8151610fad81610f3d565b5f82518060208501845e5f92019182525091905056fe4261736520537472617465677920696d706c656d656e746174696f6e20746f20696e68657269742066726f6d20666f72206d6f726520636f6d706c657820696d706c656d656e746174696f6e73a2646970667358221220c0caa0194e6d2c848722fddbdc7fd62faf324a4ddb472064726dcb9f3f160fe764736f6c634300081e0033",
    "linkReferences": {}
  },
  "methodIdentifiers": {
    "beforeAddShares(address,uint256)": "73e3c280",
    "beforeRemoveShares(address,uint256)": "03e3e6eb",
    "deposit(address,uint256)": "47e7ef24",
    "explanation()": "ab5921e1",
    "initialize(address)": "c4d66de8",
    "pause(uint256)": "136439dd",
    "pauseAll()": "595c6a67",
    "paused()": "5c975abb",
    "paused(uint8)": "5ac86ab7",
    "pauserRegistry()": "886f1195",
    "shares(address)": "ce7c2ac2",
    "sharesToUnderlying(uint256)": "f3e73875",
    "sharesToUnderlyingView(uint256)": "7a8b2637",
    "strategyManager()": "39b70e38",
    "totalShares()": "3a98ef39",
    "underlyingToShares(uint256)": "8c871019",
    "underlyingToSharesView(uint256)": "e3dae51c",
    "underlyingToken()": "2495a599",
    "unpause(uint256)": "fabc1cbc",
    "userUnderlying(address)": "8f6a6240",
    "userUnderlyingView(address)": "553ca5f8",
    "withdraw(address,address,uint256)": "d9caed12"
  },
  "id": 222
}