{
  "abi": [
    {
      "type": "constructor",
      "inputs": [
        {
          "name": "_strategyManager",
          "type": "address",
          "internalType": "contract IStrategyManager"
        },
        {
          "name": "_pauserRegistry",
          "type": "address",
          "internalType": "contract IPauserRegistry"
        },
        {
          "name": "_version",
          "type": "string",
          "internalType": "string"
        }
      ],
      "stateMutability": "nonpayable"
    },
    {
      "type": "function",
      "name": "deposit",
      "inputs": [
        {
          "name": "token",
          "type": "address",
          "internalType": "contract IERC20"
        },
        {
          "name": "amount",
          "type": "uint256",
          "internalType": "uint256"
        }
      ],
      "outputs": [
        {
          "name": "newShares",
          "type": "uint256",
          "internalType": "uint256"
        }
      ],
      "stateMutability": "nonpayable"
    },
    {
      "type": "function",
      "name": "explanation",
      "inputs": [],
      "outputs": [
        {
          "name": "",
          "type": "string",
          "internalType": "string"
        }
      ],
      "stateMutability": "pure"
    },
    {
      "type": "function",
      "name": "getTVLLimits",
      "inputs": [],
      "outputs": [
        {
          "name": "",
          "type": "uint256",
          "internalType": "uint256"
        },
        {
          "name": "",
          "type": "uint256",
          "internalType": "uint256"
        }
      ],
      "stateMutability": "view"
    },
    {
      "type": "function",
      "name": "initialize",
      "inputs": [
        {
          "name": "_maxPerDeposit",
          "type": "uint256",
          "internalType": "uint256"
        },
        {
          "name": "_maxTotalDeposits",
          "type": "uint256",
          "internalType": "uint256"
        },
        {
          "name": "_underlyingToken",
          "type": "address",
          "internalType": "contract IERC20"
        }
      ],
      "outputs": [],
      "stateMutability": "nonpayable"
    },
    {
      "type": "function",
      "name": "initialize",
      "inputs": [
        {
          "name": "_underlyingToken",
          "type": "address",
          "internalType": "contract IERC20"
        }
      ],
      "outputs": [],
      "stateMutability": "nonpayable"
    },
    {
      "type": "function",
      "name": "maxPerDeposit",
      "inputs": [],
      "outputs": [
        {
          "name": "",
          "type": "uint256",
          "internalType": "uint256"
        }
      ],
      "stateMutability": "view"
    },
    {
      "type": "function",
      "name": "maxTotalDeposits",
      "inputs": [],
      "outputs": [
        {
          "name": "",
          "type": "uint256",
          "internalType": "uint256"
        }
      ],
      "stateMutability": "view"
    },
    {
      "type": "function",
      "name": "pause",
      "inputs": [
        {
          "name": "newPausedStatus",
          "type": "uint256",
          "internalType": "uint256"
        }
      ],
      "outputs": [],
      "stateMutability": "nonpayable"
    },
    {
      "type": "function",
      "name": "pauseAll",
      "inputs": [],
      "outputs": [],
      "stateMutability": "nonpayable"
    },
    {
      "type": "function",
      "name": "paused",
      "inputs": [
        {
          "name": "index",
          "type": "uint8",
          "internalType": "uint8"
        }
      ],
      "outputs": [
        {
          "name": "",
          "type": "bool",
          "internalType": "bool"
        }
      ],
      "stateMutability": "view"
    },
    {
      "type": "function",
      "name": "paused",
      "inputs": [],
      "outputs": [
        {
          "name": "",
          "type": "uint256",
          "internalType": "uint256"
        }
      ],
      "stateMutability": "view"
    },
    {
      "type": "function",
      "name": "pauserRegistry",
      "inputs": [],
      "outputs": [
        {
          "name": "",
          "type": "address",
          "internalType": "contract IPauserRegistry"
        }
      ],
      "stateMutability": "view"
    },
    {
      "type": "function",
      "name": "setTVLLimits",
      "inputs": [
        {
          "name": "newMaxPerDeposit",
          "type": "uint256",
          "internalType": "uint256"
        },
        {
          "name": "newMaxTotalDeposits",
          "type": "uint256",
          "internalType": "uint256"
        }
      ],
      "outputs": [],
      "stateMutability": "nonpayable"
    },
    {
      "type": "function",
      "name": "shares",
      "inputs": [
        {
          "name": "user",
          "type": "address",
          "internalType": "address"
        }
      ],
      "outputs": [
        {
          "name": "",
          "type": "uint256",
          "internalType": "uint256"
        }
      ],
      "stateMutability": "view"
    },
    {
      "type": "function",
      "name": "sharesToUnderlying",
      "inputs": [
        {
          "name": "amountShares",
          "type": "uint256",
          "internalType": "uint256"
        }
      ],
      "outputs": [
        {
          "name": "",
          "type": "uint256",
          "internalType": "uint256"
        }
      ],
      "stateMutability": "view"
    },
    {
      "type": "function",
      "name": "sharesToUnderlyingView",
      "inputs": [
        {
          "name": "amountShares",
          "type": "uint256",
          "internalType": "uint256"
        }
      ],
      "outputs": [
        {
          "name": "",
          "type": "uint256",
          "internalType": "uint256"
        }
      ],
      "stateMutability": "view"
    },
    {
      "type": "function",
      "name": "strategyManager",
      "inputs": [],
      "outputs": [
        {
          "name": "",
          "type": "address",
          "internalType": "contract IStrategyManager"
        }
      ],
      "stateMutability": "view"
    },
    {
      "type": "function",
      "name": "totalShares",
      "inputs": [],
      "outputs": [
        {
          "name": "",
          "type": "uint256",
          "internalType": "uint256"
        }
      ],
      "stateMutability": "view"
    },
    {
      "type": "function",
      "name": "underlyingToShares",
      "inputs": [
        {
          "name": "amountUnderlying",
          "type": "uint256",
          "internalType": "uint256"
        }
      ],
      "outputs": [
        {
          "name": "",
          "type": "uint256",
          "internalType": "uint256"
        }
      ],
      "stateMutability": "view"
    },
    {
      "type": "function",
      "name": "underlyingToSharesView",
      "inputs": [
        {
          "name": "amountUnderlying",
          "type": "uint256",
          "internalType": "uint256"
        }
      ],
      "outputs": [
        {
          "name": "",
          "type": "uint256",
          "internalType": "uint256"
        }
      ],
      "stateMutability": "view"
    },
    {
      "type": "function",
      "name": "underlyingToken",
      "inputs": [],
      "outputs": [
        {
          "name": "",
          "type": "address",
          "internalType": "contract IERC20"
        }
      ],
      "stateMutability": "view"
    },
    {
      "type": "function",
      "name": "unpause",
      "inputs": [
        {
          "name": "newPausedStatus",
          "type": "uint256",
          "internalType": "uint256"
        }
      ],
      "outputs": [],
      "stateMutability": "nonpayable"
    },
    {
      "type": "function",
      "name": "userUnderlying",
      "inputs": [
        {
          "name": "user",
          "type": "address",
          "internalType": "address"
        }
      ],
      "outputs": [
        {
          "name": "",
          "type": "uint256",
          "internalType": "uint256"
        }
      ],
      "stateMutability": "nonpayable"
    },
    {
      "type": "function",
      "name": "userUnderlyingView",
      "inputs": [
        {
          "name": "user",
          "type": "address",
          "internalType": "address"
        }
      ],
      "outputs": [
        {
          "name": "",
          "type": "uint256",
          "internalType": "uint256"
        }
      ],
      "stateMutability": "view"
    },
    {
      "type": "function",
      "name": "version",
      "inputs": [],
      "outputs": [
        {
          "name": "",
          "type": "string",
          "internalType": "string"
        }
      ],
      "stateMutability": "view"
    },
    {
      "type": "function",
      "name": "withdraw",
      "inputs": [
        {
          "name": "recipient",
          "type": "address",
          "internalType": "address"
        },
        {
          "name": "token",
          "type": "address",
          "internalType": "contract IERC20"
        },
        {
          "name": "amountShares",
          "type": "uint256",
          "internalType": "uint256"
        }
      ],
      "outputs": [
        {
          "name": "amountOut",
          "type": "uint256",
          "internalType": "uint256"
        }
      ],
      "stateMutability": "nonpayable"
    },
    {
      "type": "event",
      "name": "ExchangeRateEmitted",
      "inputs": [
        {
          "name": "rate",
          "type": "uint256",
          "indexed": false,
          "internalType": "uint256"
        }
      ],
      "anonymous": false
    },
    {
      "type": "event",
      "name": "Initialized",
      "inputs": [
        {
          "name": "version",
          "type": "uint8",
          "indexed": false,
          "internalType": "uint8"
        }
      ],
      "anonymous": false
    },
    {
      "type": "event",
      "name": "MaxPerDepositUpdated",
      "inputs": [
        {
          "name": "previousValue",
          "type": "uint256",
          "indexed": false,
          "internalType": "uint256"
        },
        {
          "name": "newValue",
          "type": "uint256",
          "indexed": false,
          "internalType": "uint256"
        }
      ],
      "anonymous": false
    },
    {
      "type": "event",
      "name": "MaxTotalDepositsUpdated",
      "inputs": [
        {
          "name": "previousValue",
          "type": "uint256",
          "indexed": false,
          "internalType": "uint256"
        },
        {
          "name": "newValue",
          "type": "uint256",
          "indexed": false,
          "internalType": "uint256"
        }
      ],
      "anonymous": false
    },
    {
      "type": "event",
      "name": "Paused",
      "inputs": [
        {
          "name": "account",
          "type": "address",
          "indexed": true,
          "internalType": "address"
        },
        {
          "name": "newPausedStatus",
          "type": "uint256",
          "indexed": false,
          "internalType": "uint256"
        }
      ],
      "anonymous": false
    },
    {
      "type": "event",
      "name": "StrategyTokenSet",
      "inputs": [
        {
          "name": "token",
          "type": "address",
          "indexed": false,
          "internalType": "contract IERC20"
        },
        {
          "name": "decimals",
          "type": "uint8",
          "indexed": false,
          "internalType": "uint8"
        }
      ],
      "anonymous": false
    },
    {
      "type": "event",
      "name": "Unpaused",
      "inputs": [
        {
          "name": "account",
          "type": "address",
          "indexed": true,
          "internalType": "address"
        },
        {
          "name": "newPausedStatus",
          "type": "uint256",
          "indexed": false,
          "internalType": "uint256"
        }
      ],
      "anonymous": false
    },
    {
      "type": "error",
      "name": "BalanceExceedsMaxTotalDeposits",
      "inputs": []
    },
    {
      "type": "error",
      "name": "CurrentlyPaused",
      "inputs": []
    },
    {
      "type": "error",
      "name": "InputAddressZero",
      "inputs": []
    },
    {
      "type": "error",
      "name": "InvalidNewPausedStatus",
      "inputs": []
    },
    {
      "type": "error",
      "name": "InvalidShortString",
      "inputs": []
    },
    {
      "type": "error",
      "name": "MaxPerDepositExceedsMax",
      "inputs": []
    },
    {
      "type": "error",
      "name": "NewSharesZero",
      "inputs": []
    },
    {
      "type": "error",
      "name": "OnlyPauser",
      "inputs": []
    },
    {
      "type": "error",
      "name": "OnlyStrategyManager",
      "inputs": []
    },
    {
      "type": "error",
      "name": "OnlyUnderlyingToken",
      "inputs": []
    },
    {
      "type": "error",
      "name": "OnlyUnpauser",
      "inputs": []
    },
    {
      "type": "error",
      "name": "StringTooLong",
      "inputs": [
        {
          "name": "str",
          "type": "string",
          "internalType": "string"
        }
      ]
    },
    {
      "type": "error",
      "name": "TotalSharesExceedsMax",
      "inputs": []
    },
    {
      "type": "error",
      "name": "WithdrawalAmountExceedsTotalDeposits",
      "inputs": []
    }
  ],
  "bytecode": {
    "object": "0x60e060405234801561000f575f5ffd5b5060405161181738038061181783398101604081905261002e916101bc565b82828280826001600160a01b03811661005a576040516339b190bb60e11b815260040160405180910390fd5b6001600160a01b031660805261006f81610093565b60a052506001600160a01b03831660c0526100886100d9565b5050505050506102ed565b5f5f829050601f815111156100c6578260405163305a27a960e01b81526004016100bd9190610292565b60405180910390fd5b80516100d1826102c7565b179392505050565b5f54610100900460ff16156101405760405162461bcd60e51b815260206004820152602760248201527f496e697469616c697a61626c653a20636f6e747261637420697320696e697469604482015266616c697a696e6760c81b60648201526084016100bd565b5f5460ff9081161461018f575f805460ff191660ff9081179091556040519081527f7f26b83ff96e1f2b6a682f133852f6798a09c465da95921460cefb38474024989060200160405180910390a15b565b6001600160a01b03811681146101a5575f5ffd5b50565b634e487b7160e01b5f52604160045260245ffd5b5f5f5f606084860312156101ce575f5ffd5b83516101d981610191565b60208501519093506101ea81610191565b60408501519092506001600160401b03811115610205575f5ffd5b8401601f81018613610215575f5ffd5b80516001600160401b0381111561022e5761022e6101a8565b604051601f8201601f19908116603f011681016001600160401b038111828210171561025c5761025c6101a8565b604052818152828201602001881015610273575f5ffd5b8160208401602083015e5f602083830101528093505050509250925092565b602081525f82518060208401528060208501604085015e5f604082850101526040601f19601f83011684010191505092915050565b805160208083015191908110156102e7575f198160200360031b1b821691505b50919050565b60805160a05160c0516114dd61033a5f395f81816101e801528181610417015281816107cf015261085101525f61053701525f81816102c5015281816109ec0152610b5401526114dd5ff3fe608060405234801561000f575f5ffd5b5060043610610187575f3560e01c80637a8b2637116100d9578063c4d66de811610093578063df6fadc11161006e578063df6fadc114610361578063e3dae51c1461037c578063f3e738751461038f578063fabc1cbc146103a2575f5ffd5b8063c4d66de814610328578063ce7c2ac21461033b578063d9caed121461034e575f5ffd5b80637a8b2637146102ad578063886f1195146102c05780638c871019146102e75780638f6a6240146102fa578063a6ab36f21461030d578063ab5921e114610320575f5ffd5b806347e7ef2411610144578063595c6a671161011f578063595c6a67146102655780635ac86ab71461026d5780635c975abb1461029c57806361b01b5d146102a4575f5ffd5b806347e7ef241461022a57806354fd4d501461023d578063553ca5f814610252575f5ffd5b806311c70c9d1461018b578063136439dd146101a05780632495a599146101b357806339b70e38146101e35780633a98ef391461020a57806343fe08b014610221575b5f5ffd5b61019e6101993660046111b1565b6103b5565b005b61019e6101ae3660046111d1565b6103cb565b6032546101c6906001600160a01b031681565b6040516001600160a01b0390911681526020015b60405180910390f35b6101c67f000000000000000000000000000000000000000000000000000000000000000081565b61021360335481565b6040519081526020016101da565b61021360645481565b6102136102383660046111fc565b610401565b610245610530565b6040516101da9190611226565b61021361026036600461125b565b610560565b61019e610573565b61028c61027b36600461128b565b6001805460ff9092161b9081161490565b60405190151581526020016101da565b600154610213565b61021360655481565b6102136102bb3660046111d1565b610587565b6101c67f000000000000000000000000000000000000000000000000000000000000000081565b6102136102f53660046111d1565b6105d0565b61021361030836600461125b565b6105da565b61019e61031b3660046112a6565b6105e7565b6102456106c2565b61019e61033636600461125b565b6106e2565b61021361034936600461125b565b6107a8565b61021361035c3660046112dc565b61083a565b606454606554604080519283526020830191909152016101da565b61021361038a3660046111d1565b61093c565b61021361039d3660046111d1565b610973565b61019e6103b03660046111d1565b61097d565b6103bd6109ea565b6103c78282610a9b565b5050565b6103d3610b3f565b60015481811681146103f85760405163c61dca5d60e01b815260040160405180910390fd5b6103c782610be2565b5f5f61040c81610c1f565b336001600160a01b037f00000000000000000000000000000000000000000000000000000000000000001614610455576040516348da714f60e01b815260040160405180910390fd5b61045f8484610c55565b6033545f61046f6103e88361132e565b90505f6103e861047d610cac565b610487919061132e565b90505f6104948783611341565b9050806104a18489611354565b6104ab919061136b565b9550855f036104cd57604051630c392ed360e11b815260040160405180910390fd5b6104d7868561132e565b60338190556f4b3b4ca85a86c47a098a223fffffffff101561050c57604051632f14e8a360e11b815260040160405180910390fd5b610525826103e8603354610520919061132e565b610d16565b505050505092915050565b606061055b7f0000000000000000000000000000000000000000000000000000000000000000610d62565b905090565b5f61056d6102bb836107a8565b92915050565b61057b610b3f565b6105855f19610be2565b565b5f5f6103e8603354610599919061132e565b90505f6103e86105a7610cac565b6105b1919061132e565b9050816105be8583611354565b6105c8919061136b565b949350505050565b5f61056d8261093c565b5f61056d61039d836107a8565b5f54610100900460ff161580801561060557505f54600160ff909116105b8061061e5750303b15801561061e57505f5460ff166001145b6106435760405162461bcd60e51b815260040161063a9061138a565b60405180910390fd5b5f805460ff191660011790558015610664575f805461ff0019166101001790555b61066e8484610a9b565b61067782610d9f565b80156106bc575f805461ff0019169055604051600181527f7f26b83ff96e1f2b6a682f133852f6798a09c465da95921460cefb38474024989060200160405180910390a15b50505050565b60606040518060800160405280604d815260200161145b604d9139905090565b5f54610100900460ff161580801561070057505f54600160ff909116105b806107195750303b15801561071957505f5460ff166001145b6107355760405162461bcd60e51b815260040161063a9061138a565b5f805460ff191660011790558015610756575f805461ff0019166101001790555b61075f82610d9f565b80156103c7575f805461ff0019169055604051600181527f7f26b83ff96e1f2b6a682f133852f6798a09c465da95921460cefb3847402498906020015b60405180910390a15050565b60405163fe243a1760e01b81526001600160a01b0382811660048301523060248301525f917f00000000000000000000000000000000000000000000000000000000000000009091169063fe243a1790604401602060405180830381865afa158015610816573d5f5f3e3d5ffd5b505050506040513d601f19601f8201168201806040525081019061056d91906113d8565b5f600161084681610c1f565b336001600160a01b037f0000000000000000000000000000000000000000000000000000000000000000161461088f576040516348da714f60e01b815260040160405180910390fd5b61089a858585610eea565b603354808411156108be57604051630b469df360e41b815260040160405180910390fd5b5f6108cb6103e88361132e565b90505f6103e86108d9610cac565b6108e3919061132e565b9050816108f08783611354565b6108fa919061136b565b94506109068684611341565b6033556109266109168683611341565b6103e8603354610520919061132e565b610931888887610f1d565b505050509392505050565b5f5f6103e860335461094e919061132e565b90505f6103e861095c610cac565b610966919061132e565b9050806105be8386611354565b5f61056d82610587565b6109856109ea565b600154801982198116146109ac5760405163c61dca5d60e01b815260040160405180910390fd5b600182905560405182815233907f3582d1828e26bf56bd801502bc021ac0bc8afb57c826e4986b45593c8fad389c9060200160405180910390a25050565b7f00000000000000000000000000000000000000000000000000000000000000006001600160a01b031663eab66d7a6040518163ffffffff1660e01b8152600401602060405180830381865afa158015610a46573d5f5f3e3d5ffd5b505050506040513d601f19601f82011682018060405250810190610a6a91906113ef565b6001600160a01b0316336001600160a01b0316146105855760405163794821ff60e01b815260040160405180910390fd5b60645460408051918252602082018490527ff97ed4e083acac67830025ecbc756d8fe847cdbdca4cee3fe1e128e98b54ecb5910160405180910390a160655460408051918252602082018390527f6ab181e0440bfbf4bacdf2e99674735ce6638005490688c5f994f5399353e452910160405180910390a180821115610b345760405163052b07b760e21b815260040160405180910390fd5b606491909155606555565b60405163237dfb4760e11b81523360048201527f00000000000000000000000000000000000000000000000000000000000000006001600160a01b0316906346fbf68e90602401602060405180830381865afa158015610ba1573d5f5f3e3d5ffd5b505050506040513d601f19601f82011682018060405250810190610bc5919061140a565b61058557604051631d77d47760e21b815260040160405180910390fd5b600181905560405181815233907fab40a374bc51de372200a8bc981af8c9ecdc08dfdaef0bb6e09f88f3c616ef3d9060200160405180910390a250565b610c34816001805460ff9092161b9081161490565b15610c525760405163840a48d560e01b815260040160405180910390fd5b50565b606454811115610c785760405163052b07b760e21b815260040160405180910390fd5b606554610c83610cac565b1115610ca25760405163d86bae6760e01b815260040160405180910390fd5b6103c78282610f31565b6032546040516370a0823160e01b81523060048201525f916001600160a01b0316906370a0823190602401602060405180830381865afa158015610cf2573d5f5f3e3d5ffd5b505050506040513d601f19601f8201168201806040525081019061055b91906113d8565b7fd2494f3479e5da49d386657c292c610b5b01df313d07c62eb0cfa49924a31be881610d4a84670de0b6b3a7640000611354565b610d54919061136b565b60405190815260200161079c565b60605f610d6e83610f5f565b6040805160208082528183019092529192505f91906020820181803683375050509182525060208101929092525090565b5f54610100900460ff16610e095760405162461bcd60e51b815260206004820152602b60248201527f496e697469616c697a61626c653a20636f6e7472616374206973206e6f74206960448201526a6e697469616c697a696e6760a81b606482015260840161063a565b603280546001600160a01b0319166001600160a01b038316179055610e2d5f610be2565b7f1c540707b00eb5427b6b774fc799d756516a54aee108b64b327acc55af55750760325f9054906101000a90046001600160a01b0316826001600160a01b031663313ce5676040518163ffffffff1660e01b8152600401602060405180830381865afa158015610e9f573d5f5f3e3d5ffd5b505050506040513d601f19601f82011682018060405250810190610ec39190611429565b604080516001600160a01b03909316835260ff90911660208301520160405180910390a150565b6032546001600160a01b03838116911614610f1857604051630312abdd60e61b815260040160405180910390fd5b505050565b610f186001600160a01b0383168483610f86565b6032546001600160a01b038381169116146103c757604051630312abdd60e61b815260040160405180910390fd5b5f60ff8216601f81111561056d57604051632cd44ac360e21b815260040160405180910390fd5b604080516001600160a01b03848116602483015260448083018590528351808403909101815260649092018352602080830180516001600160e01b031663a9059cbb60e01b17905283518085019094528084527f5361666545524332303a206c6f772d6c6576656c2063616c6c206661696c656490840152610f18928692915f91611015918516908490611094565b905080515f1480611035575080806020019051810190611035919061140a565b610f185760405162461bcd60e51b815260206004820152602a60248201527f5361666545524332303a204552433230206f7065726174696f6e20646964206e6044820152691bdd081cdd58d8d9595960b21b606482015260840161063a565b60606105c884845f85855f5f866001600160a01b031685876040516110b99190611444565b5f6040518083038185875af1925050503d805f81146110f3576040519150601f19603f3d011682016040523d82523d5f602084013e6110f8565b606091505b509150915061110987838387611114565b979650505050505050565b606083156111825782515f0361117b576001600160a01b0385163b61117b5760405162461bcd60e51b815260206004820152601d60248201527f416464726573733a2063616c6c20746f206e6f6e2d636f6e7472616374000000604482015260640161063a565b50816105c8565b6105c883838151156111975781518083602001fd5b8060405162461bcd60e51b815260040161063a9190611226565b5f5f604083850312156111c2575f5ffd5b50508035926020909101359150565b5f602082840312156111e1575f5ffd5b5035919050565b6001600160a01b0381168114610c52575f5ffd5b5f5f6040838503121561120d575f5ffd5b8235611218816111e8565b946020939093013593505050565b602081525f82518060208401528060208501604085015e5f604082850101526040601f19601f83011684010191505092915050565b5f6020828403121561126b575f5ffd5b8135611276816111e8565b9392505050565b60ff81168114610c52575f5ffd5b5f6020828403121561129b575f5ffd5b81356112768161127d565b5f5f5f606084860312156112b8575f5ffd5b833592506020840135915060408401356112d1816111e8565b809150509250925092565b5f5f5f606084860312156112ee575f5ffd5b83356112f9816111e8565b92506020840135611309816111e8565b929592945050506040919091013590565b634e487b7160e01b5f52601160045260245ffd5b8082018082111561056d5761056d61131a565b8181038181111561056d5761056d61131a565b808202811582820484141761056d5761056d61131a565b5f8261138557634e487b7160e01b5f52601260045260245ffd5b500490565b6020808252602e908201527f496e697469616c697a61626c653a20636f6e747261637420697320616c72656160408201526d191e481a5b9a5d1a585b1a5e995960921b606082015260800190565b5f602082840312156113e8575f5ffd5b5051919050565b5f602082840312156113ff575f5ffd5b8151611276816111e8565b5f6020828403121561141a575f5ffd5b81518015158114611276575f5ffd5b5f60208284031215611439575f5ffd5b81516112768161127d565b5f82518060208501845e5f92019182525091905056fe4261736520537472617465677920696d706c656d656e746174696f6e20746f20696e68657269742066726f6d20666f72206d6f726520636f6d706c657820696d706c656d656e746174696f6e73a26469706673582212208b0cfacd4d018167cd169b64d964681d0f6f22f263438f2636ee8aae671eb4d264736f6c634300081b0033",
    "linkReferences": {}
  },
  "methodIdentifiers": {
    "deposit(address,uint256)": "47e7ef24",
    "explanation()": "ab5921e1",
    "getTVLLimits()": "df6fadc1",
    "initialize(address)": "c4d66de8",
    "initialize(uint256,uint256,address)": "a6ab36f2",
    "maxPerDeposit()": "43fe08b0",
    "maxTotalDeposits()": "61b01b5d",
    "pause(uint256)": "136439dd",
    "pauseAll()": "595c6a67",
    "paused()": "5c975abb",
    "paused(uint8)": "5ac86ab7",
    "pauserRegistry()": "886f1195",
    "setTVLLimits(uint256,uint256)": "11c70c9d",
    "shares(address)": "ce7c2ac2",
    "sharesToUnderlying(uint256)": "f3e73875",
    "sharesToUnderlyingView(uint256)": "7a8b2637",
    "strategyManager()": "39b70e38",
    "totalShares()": "3a98ef39",
    "underlyingToShares(uint256)": "8c871019",
    "underlyingToSharesView(uint256)": "e3dae51c",
    "underlyingToken()": "2495a599",
    "unpause(uint256)": "fabc1cbc",
    "userUnderlying(address)": "8f6a6240",
    "userUnderlyingView(address)": "553ca5f8",
    "version()": "54fd4d50",
    "withdraw(address,address,uint256)": "d9caed12"
  },
  "id": 165
}