{
  "abi": [
    {
      "type": "function",
      "name": "releaseTokens",
      "inputs": [
        {
          "name": "slashEscrowFactory",
          "type": "address",
          "internalType": "contract ISlashEscrowFactory"
        },
        {
          "name": "slashEscrowImplementation",
          "type": "address",
          "internalType": "contract ISlashEscrow"
        },
        {
          "name": "operatorSet",
          "type": "tuple",
          "internalType": "struct OperatorSet",
          "components": [
            {
              "name": "avs",
              "type": "address",
              "internalType": "address"
            },
            {
              "name": "id",
              "type": "uint32",
              "internalType": "uint32"
            }
          ]
        },
        {
          "name": "slashId",
          "type": "uint256",
          "internalType": "uint256"
        },
        {
          "name": "recipient",
          "type": "address",
          "internalType": "address"
        },
        {
          "name": "strategy",
          "type": "address",
          "internalType": "contract IStrategy"
        }
      ],
      "outputs": [],
      "stateMutability": "nonpayable"
    },
    {
      "type": "function",
      "name": "verifyDeploymentParameters",
      "inputs": [
        {
          "name": "slashEscrowFactory",
          "type": "address",
          "internalType": "contract ISlashEscrowFactory"
        },
        {
          "name": "slashEscrowImplementation",
          "type": "address",
          "internalType": "contract ISlashEscrow"
        },
        {
          "name": "operatorSet",
          "type": "tuple",
          "internalType": "struct OperatorSet",
          "components": [
            {
              "name": "avs",
              "type": "address",
              "internalType": "address"
            },
            {
              "name": "id",
              "type": "uint32",
              "internalType": "uint32"
            }
          ]
        },
        {
          "name": "slashId",
          "type": "uint256",
          "internalType": "uint256"
        }
      ],
      "outputs": [
        {
          "name": "",
          "type": "bool",
          "internalType": "bool"
        }
      ],
      "stateMutability": "view"
    },
    {
      "type": "error",
      "name": "InvalidDeploymentParameters",
      "inputs": []
    },
    {
      "type": "error",
      "name": "OnlySlashEscrowFactory",
      "inputs": []
    }
  ],
  "bytecode": {
    "object": "0x6080604052348015600e575f5ffd5b5061077b8061001c5f395ff3fe608060405234801561000f575f5ffd5b5060043610610034575f3560e01c80630d9e4ef114610038578063ff491e651461005f575b5f5ffd5b61004b61004636600461054b565b610074565b604051901515815260200160405180910390f35b61007261006d366004610598565b61012d565b005b5f306101188561009161008c3688900388018861060c565b610269565b6040805160208101929092528101869052606001604051602081830303815290604052805190602001208860405160388101919091526f5af43d82803e903d91602b57fd5bf3ff60248201526014810192909252733d602d80600a3d3981f3363d3d373d3d3d363d73825260588201526037600c8201206078820152605560439091012090565b6001600160a01b03161490505b949350505050565b61013986868686610074565b610156576040516308429e4760e31b815260040160405180910390fd5b336001600160a01b0387161461017f57604051637dbfb55b60e11b815260040160405180910390fd5b5f816001600160a01b0316632495a5996040518163ffffffff1660e01b8152600401602060405180830381865afa1580156101bc573d5f5f3e3d5ffd5b505050506040513d601f19601f820116820180604052508101906101e0919061067f565b6040516370a0823160e01b81523060048201529091506102609084906001600160a01b038416906370a0823190602401602060405180830381865afa15801561022b573d5f5f3e3d5ffd5b505050506040513d601f19601f8201168201806040525081019061024f91906106a1565b6001600160a01b03841691906102d2565b50505050505050565b5f815f0151826020015163ffffffff166040516020016102b492919060609290921b6bffffffffffffffffffffffff1916825260a01b6001600160a01b031916601482015260200190565b6040516020818303038152906040526102cc906106b8565b92915050565b604080516001600160a01b038416602482015260448082018490528251808303909101815260649091019091526020810180516001600160e01b031663a9059cbb60e01b179052610324908490610329565b505050565b5f61037d826040518060400160405280602081526020017f5361666545524332303a206c6f772d6c6576656c2063616c6c206661696c6564815250856001600160a01b03166104019092919063ffffffff16565b905080515f148061039d57508080602001905181019061039d91906106db565b6103245760405162461bcd60e51b815260206004820152602a60248201527f5361666545524332303a204552433230206f7065726174696f6e20646964206e6044820152691bdd081cdd58d8d9595960b21b60648201526084015b60405180910390fd5b606061012584845f85855f5f866001600160a01b0316858760405161042691906106fa565b5f6040518083038185875af1925050503d805f8114610460576040519150601f19603f3d011682016040523d82523d5f602084013e610465565b606091505b509150915061047687838387610481565b979650505050505050565b606083156104ef5782515f036104e8576001600160a01b0385163b6104e85760405162461bcd60e51b815260206004820152601d60248201527f416464726573733a2063616c6c20746f206e6f6e2d636f6e747261637400000060448201526064016103f8565b5081610125565b61012583838151156105045781518083602001fd5b8060405162461bcd60e51b81526004016103f89190610710565b6001600160a01b0381168114610532575f5ffd5b50565b5f60408284031215610545575f5ffd5b50919050565b5f5f5f5f60a0858703121561055e575f5ffd5b84356105698161051e565b935060208501356105798161051e565b92506105888660408701610535565b9396929550929360800135925050565b5f5f5f5f5f5f60e087890312156105ad575f5ffd5b86356105b88161051e565b955060208701356105c88161051e565b94506105d78860408901610535565b93506080870135925060a08701356105ee8161051e565b915060c08701356105fe8161051e565b809150509295509295509295565b5f604082840312801561061d575f5ffd5b506040805190810167ffffffffffffffff8111828210171561064d57634e487b7160e01b5f52604160045260245ffd5b604052823561065b8161051e565b8152602083013563ffffffff81168114610673575f5ffd5b60208201529392505050565b5f6020828403121561068f575f5ffd5b815161069a8161051e565b9392505050565b5f602082840312156106b1575f5ffd5b5051919050565b80516020808301519190811015610545575f1960209190910360031b1b16919050565b5f602082840312156106eb575f5ffd5b8151801515811461069a575f5ffd5b5f82518060208501845e5f920191825250919050565b602081525f82518060208401528060208501604085015e5f604082850101526040601f19601f8301168401019150509291505056fea26469706673582212205d2269668ed91fcb8ef86a7c07c9513e5dadc6b928f43dc2374c6b4ae1f09f9f64736f6c634300081b0033",
    "linkReferences": {}
  },
  "methodIdentifiers": {
    "releaseTokens(address,address,(address,uint32),uint256,address,address)": "ff491e65",
    "verifyDeploymentParameters(address,address,(address,uint32),uint256)": "0d9e4ef1"
  },
  "id": 123
}