{
  "abi": [
    {
      "type": "constructor",
      "inputs": [
        {
          "name": "_strategyManager",
          "type": "address",
          "internalType": "contract IStrategyManager"
        },
        {
          "name": "_pauserRegistry",
          "type": "address",
          "internalType": "contract IPauserRegistry"
        },
        {
          "name": "_delegationManager",
          "type": "address",
          "internalType": "contract IDelegationManager"
        },
        {
          "name": "_allocationManager",
          "type": "address",
          "internalType": "contract IAllocationManager"
        },
        {
          "name": "_rewardsCoordinator",
          "type": "address",
          "internalType": "contract IRewardsCoordinator"
        },
        {
          "name": "_strategyFactory",
          "type": "address",
          "internalType": "contract IStrategyFactory"
        }
      ],
      "stateMutability": "nonpayable"
    },
    {
      "type": "function",
      "name": "allocationManager",
      "inputs": [],
      "outputs": [
        {
          "name": "",
          "type": "address",
          "internalType": "contract IAllocationManager"
        }
      ],
      "stateMutability": "view"
    },
    {
      "type": "function",
      "name": "allocationsActive",
      "inputs": [],
      "outputs": [
        {
          "name": "",
          "type": "bool",
          "internalType": "bool"
        }
      ],
      "stateMutability": "view"
    },
    {
      "type": "function",
      "name": "beforeAddShares",
      "inputs": [
        {
          "name": "staker",
          "type": "address",
          "internalType": "address"
        },
        {
          "name": "shares",
          "type": "uint256",
          "internalType": "uint256"
        }
      ],
      "outputs": [],
      "stateMutability": "view"
    },
    {
      "type": "function",
      "name": "beforeRemoveShares",
      "inputs": [
        {
          "name": "",
          "type": "address",
          "internalType": "address"
        },
        {
          "name": "",
          "type": "uint256",
          "internalType": "uint256"
        }
      ],
      "outputs": [],
      "stateMutability": "view"
    },
    {
      "type": "function",
      "name": "delegationManager",
      "inputs": [],
      "outputs": [
        {
          "name": "",
          "type": "address",
          "internalType": "contract IDelegationManager"
        }
      ],
      "stateMutability": "view"
    },
    {
      "type": "function",
      "name": "deposit",
      "inputs": [
        {
          "name": "token",
          "type": "address",
          "internalType": "contract IERC20"
        },
        {
          "name": "amount",
          "type": "uint256",
          "internalType": "uint256"
        }
      ],
      "outputs": [
        {
          "name": "newShares",
          "type": "uint256",
          "internalType": "uint256"
        }
      ],
      "stateMutability": "nonpayable"
    },
    {
      "type": "function",
      "name": "depositsOpen",
      "inputs": [],
      "outputs": [
        {
          "name": "",
          "type": "bool",
          "internalType": "bool"
        }
      ],
      "stateMutability": "view"
    },
    {
      "type": "function",
      "name": "duration",
      "inputs": [],
      "outputs": [
        {
          "name": "",
          "type": "uint32",
          "internalType": "uint32"
        }
      ],
      "stateMutability": "view"
    },
    {
      "type": "function",
      "name": "explanation",
      "inputs": [],
      "outputs": [
        {
          "name": "",
          "type": "string",
          "internalType": "string"
        }
      ],
      "stateMutability": "pure"
    },
    {
      "type": "function",
      "name": "getTVLLimits",
      "inputs": [],
      "outputs": [
        {
          "name": "",
          "type": "uint256",
          "internalType": "uint256"
        },
        {
          "name": "",
          "type": "uint256",
          "internalType": "uint256"
        }
      ],
      "stateMutability": "view"
    },
    {
      "type": "function",
      "name": "initialize",
      "inputs": [
        {
          "name": "config",
          "type": "tuple",
          "internalType": "struct IDurationVaultStrategyTypes.VaultConfig",
          "components": [
            {
              "name": "underlyingToken",
              "type": "address",
              "internalType": "contract IERC20"
            },
            {
              "name": "vaultAdmin",
              "type": "address",
              "internalType": "address"
            },
            {
              "name": "duration",
              "type": "uint32",
              "internalType": "uint32"
            },
            {
              "name": "maxPerDeposit",
              "type": "uint256",
              "internalType": "uint256"
            },
            {
              "name": "stakeCap",
              "type": "uint256",
              "internalType": "uint256"
            },
            {
              "name": "metadataURI",
              "type": "string",
              "internalType": "string"
            },
            {
              "name": "operatorSet",
              "type": "tuple",
              "internalType": "struct OperatorSet",
              "components": [
                {
                  "name": "avs",
                  "type": "address",
                  "internalType": "address"
                },
                {
                  "name": "id",
                  "type": "uint32",
                  "internalType": "uint32"
                }
              ]
            },
            {
              "name": "operatorSetRegistrationData",
              "type": "bytes",
              "internalType": "bytes"
            },
            {
              "name": "delegationApprover",
              "type": "address",
              "internalType": "address"
            },
            {
              "name": "operatorMetadataURI",
              "type": "string",
              "internalType": "string"
            }
          ]
        }
      ],
      "outputs": [],
      "stateMutability": "nonpayable"
    },
    {
      "type": "function",
      "name": "initialize",
      "inputs": [
        {
          "name": "_underlyingToken",
          "type": "address",
          "internalType": "contract IERC20"
        }
      ],
      "outputs": [],
      "stateMutability": "nonpayable"
    },
    {
      "type": "function",
      "name": "isLocked",
      "inputs": [],
      "outputs": [
        {
          "name": "",
          "type": "bool",
          "internalType": "bool"
        }
      ],
      "stateMutability": "view"
    },
    {
      "type": "function",
      "name": "isMatured",
      "inputs": [],
      "outputs": [
        {
          "name": "",
          "type": "bool",
          "internalType": "bool"
        }
      ],
      "stateMutability": "view"
    },
    {
      "type": "function",
      "name": "lock",
      "inputs": [],
      "outputs": [],
      "stateMutability": "nonpayable"
    },
    {
      "type": "function",
      "name": "lockedAt",
      "inputs": [],
      "outputs": [
        {
          "name": "",
          "type": "uint32",
          "internalType": "uint32"
        }
      ],
      "stateMutability": "view"
    },
    {
      "type": "function",
      "name": "markMatured",
      "inputs": [],
      "outputs": [],
      "stateMutability": "nonpayable"
    },
    {
      "type": "function",
      "name": "maturedAt",
      "inputs": [],
      "outputs": [
        {
          "name": "",
          "type": "uint32",
          "internalType": "uint32"
        }
      ],
      "stateMutability": "view"
    },
    {
      "type": "function",
      "name": "maxPerDeposit",
      "inputs": [],
      "outputs": [
        {
          "name": "",
          "type": "uint256",
          "internalType": "uint256"
        }
      ],
      "stateMutability": "view"
    },
    {
      "type": "function",
      "name": "maxTotalDeposits",
      "inputs": [],
      "outputs": [
        {
          "name": "",
          "type": "uint256",
          "internalType": "uint256"
        }
      ],
      "stateMutability": "view"
    },
    {
      "type": "function",
      "name": "metadataURI",
      "inputs": [],
      "outputs": [
        {
          "name": "",
          "type": "string",
          "internalType": "string"
        }
      ],
      "stateMutability": "view"
    },
    {
      "type": "function",
      "name": "operatorIntegrationConfigured",
      "inputs": [],
      "outputs": [
        {
          "name": "",
          "type": "bool",
          "internalType": "bool"
        }
      ],
      "stateMutability": "pure"
    },
    {
      "type": "function",
      "name": "operatorSetInfo",
      "inputs": [],
      "outputs": [
        {
          "name": "avs",
          "type": "address",
          "internalType": "address"
        },
        {
          "name": "operatorSetId",
          "type": "uint32",
          "internalType": "uint32"
        }
      ],
      "stateMutability": "view"
    },
    {
      "type": "function",
      "name": "operatorSetRegistered",
      "inputs": [],
      "outputs": [
        {
          "name": "",
          "type": "bool",
          "internalType": "bool"
        }
      ],
      "stateMutability": "view"
    },
    {
      "type": "function",
      "name": "pause",
      "inputs": [
        {
          "name": "newPausedStatus",
          "type": "uint256",
          "internalType": "uint256"
        }
      ],
      "outputs": [],
      "stateMutability": "nonpayable"
    },
    {
      "type": "function",
      "name": "pauseAll",
      "inputs": [],
      "outputs": [],
      "stateMutability": "nonpayable"
    },
    {
      "type": "function",
      "name": "paused",
      "inputs": [
        {
          "name": "index",
          "type": "uint8",
          "internalType": "uint8"
        }
      ],
      "outputs": [
        {
          "name": "",
          "type": "bool",
          "internalType": "bool"
        }
      ],
      "stateMutability": "view"
    },
    {
      "type": "function",
      "name": "paused",
      "inputs": [],
      "outputs": [
        {
          "name": "",
          "type": "uint256",
          "internalType": "uint256"
        }
      ],
      "stateMutability": "view"
    },
    {
      "type": "function",
      "name": "pauserRegistry",
      "inputs": [],
      "outputs": [
        {
          "name": "",
          "type": "address",
          "internalType": "contract IPauserRegistry"
        }
      ],
      "stateMutability": "view"
    },
    {
      "type": "function",
      "name": "rewardsCoordinator",
      "inputs": [],
      "outputs": [
        {
          "name": "",
          "type": "address",
          "internalType": "contract IRewardsCoordinator"
        }
      ],
      "stateMutability": "view"
    },
    {
      "type": "function",
      "name": "setTVLLimits",
      "inputs": [
        {
          "name": "newMaxPerDeposit",
          "type": "uint256",
          "internalType": "uint256"
        },
        {
          "name": "newMaxTotalDeposits",
          "type": "uint256",
          "internalType": "uint256"
        }
      ],
      "outputs": [],
      "stateMutability": "nonpayable"
    },
    {
      "type": "function",
      "name": "shares",
      "inputs": [
        {
          "name": "user",
          "type": "address",
          "internalType": "address"
        }
      ],
      "outputs": [
        {
          "name": "",
          "type": "uint256",
          "internalType": "uint256"
        }
      ],
      "stateMutability": "view"
    },
    {
      "type": "function",
      "name": "sharesToUnderlying",
      "inputs": [
        {
          "name": "amountShares",
          "type": "uint256",
          "internalType": "uint256"
        }
      ],
      "outputs": [
        {
          "name": "",
          "type": "uint256",
          "internalType": "uint256"
        }
      ],
      "stateMutability": "view"
    },
    {
      "type": "function",
      "name": "sharesToUnderlyingView",
      "inputs": [
        {
          "name": "amountShares",
          "type": "uint256",
          "internalType": "uint256"
        }
      ],
      "outputs": [
        {
          "name": "",
          "type": "uint256",
          "internalType": "uint256"
        }
      ],
      "stateMutability": "view"
    },
    {
      "type": "function",
      "name": "stakeCap",
      "inputs": [],
      "outputs": [
        {
          "name": "",
          "type": "uint256",
          "internalType": "uint256"
        }
      ],
      "stateMutability": "view"
    },
    {
      "type": "function",
      "name": "state",
      "inputs": [],
      "outputs": [
        {
          "name": "",
          "type": "uint8",
          "internalType": "enum IDurationVaultStrategyTypes.VaultState"
        }
      ],
      "stateMutability": "view"
    },
    {
      "type": "function",
      "name": "strategyFactory",
      "inputs": [],
      "outputs": [
        {
          "name": "",
          "type": "address",
          "internalType": "contract IStrategyFactory"
        }
      ],
      "stateMutability": "view"
    },
    {
      "type": "function",
      "name": "strategyManager",
      "inputs": [],
      "outputs": [
        {
          "name": "",
          "type": "address",
          "internalType": "contract IStrategyManager"
        }
      ],
      "stateMutability": "view"
    },
    {
      "type": "function",
      "name": "totalShares",
      "inputs": [],
      "outputs": [
        {
          "name": "",
          "type": "uint256",
          "internalType": "uint256"
        }
      ],
      "stateMutability": "view"
    },
    {
      "type": "function",
      "name": "underlyingToShares",
      "inputs": [
        {
          "name": "amountUnderlying",
          "type": "uint256",
          "internalType": "uint256"
        }
      ],
      "outputs": [
        {
          "name": "",
          "type": "uint256",
          "internalType": "uint256"
        }
      ],
      "stateMutability": "view"
    },
    {
      "type": "function",
      "name": "underlyingToSharesView",
      "inputs": [
        {
          "name": "amountUnderlying",
          "type": "uint256",
          "internalType": "uint256"
        }
      ],
      "outputs": [
        {
          "name": "",
          "type": "uint256",
          "internalType": "uint256"
        }
      ],
      "stateMutability": "view"
    },
    {
      "type": "function",
      "name": "underlyingToken",
      "inputs": [],
      "outputs": [
        {
          "name": "",
          "type": "address",
          "internalType": "contract IERC20"
        }
      ],
      "stateMutability": "view"
    },
    {
      "type": "function",
      "name": "unlockAt",
      "inputs": [],
      "outputs": [
        {
          "name": "",
          "type": "uint32",
          "internalType": "uint32"
        }
      ],
      "stateMutability": "view"
    },
    {
      "type": "function",
      "name": "unlockTimestamp",
      "inputs": [],
      "outputs": [
        {
          "name": "",
          "type": "uint32",
          "internalType": "uint32"
        }
      ],
      "stateMutability": "view"
    },
    {
      "type": "function",
      "name": "unpause",
      "inputs": [
        {
          "name": "newPausedStatus",
          "type": "uint256",
          "internalType": "uint256"
        }
      ],
      "outputs": [],
      "stateMutability": "nonpayable"
    },
    {
      "type": "function",
      "name": "updateMetadataURI",
      "inputs": [
        {
          "name": "newMetadataURI",
          "type": "string",
          "internalType": "string"
        }
      ],
      "outputs": [],
      "stateMutability": "nonpayable"
    },
    {
      "type": "function",
      "name": "updateTVLLimits",
      "inputs": [
        {
          "name": "newMaxPerDeposit",
          "type": "uint256",
          "internalType": "uint256"
        },
        {
          "name": "newStakeCap",
          "type": "uint256",
          "internalType": "uint256"
        }
      ],
      "outputs": [],
      "stateMutability": "nonpayable"
    },
    {
      "type": "function",
      "name": "userUnderlying",
      "inputs": [
        {
          "name": "user",
          "type": "address",
          "internalType": "address"
        }
      ],
      "outputs": [
        {
          "name": "",
          "type": "uint256",
          "internalType": "uint256"
        }
      ],
      "stateMutability": "nonpayable"
    },
    {
      "type": "function",
      "name": "userUnderlyingView",
      "inputs": [
        {
          "name": "user",
          "type": "address",
          "internalType": "address"
        }
      ],
      "outputs": [
        {
          "name": "",
          "type": "uint256",
          "internalType": "uint256"
        }
      ],
      "stateMutability": "view"
    },
    {
      "type": "function",
      "name": "vaultAdmin",
      "inputs": [],
      "outputs": [
        {
          "name": "",
          "type": "address",
          "internalType": "address"
        }
      ],
      "stateMutability": "view"
    },
    {
      "type": "function",
      "name": "withdraw",
      "inputs": [
        {
          "name": "recipient",
          "type": "address",
          "internalType": "address"
        },
        {
          "name": "token",
          "type": "address",
          "internalType": "contract IERC20"
        },
        {
          "name": "amountShares",
          "type": "uint256",
          "internalType": "uint256"
        }
      ],
      "outputs": [
        {
          "name": "amountOut",
          "type": "uint256",
          "internalType": "uint256"
        }
      ],
      "stateMutability": "nonpayable"
    },
    {
      "type": "function",
      "name": "withdrawalsOpen",
      "inputs": [],
      "outputs": [
        {
          "name": "",
          "type": "bool",
          "internalType": "bool"
        }
      ],
      "stateMutability": "view"
    },
    {
      "type": "event",
      "name": "ExchangeRateEmitted",
      "inputs": [
        {
          "name": "rate",
          "type": "uint256",
          "indexed": false,
          "internalType": "uint256"
        }
      ],
      "anonymous": false
    },
    {
      "type": "event",
      "name": "Initialized",
      "inputs": [
        {
          "name": "version",
          "type": "uint8",
          "indexed": false,
          "internalType": "uint8"
        }
      ],
      "anonymous": false
    },
    {
      "type": "event",
      "name": "MaxPerDepositUpdated",
      "inputs": [
        {
          "name": "previousValue",
          "type": "uint256",
          "indexed": false,
          "internalType": "uint256"
        },
        {
          "name": "newValue",
          "type": "uint256",
          "indexed": false,
          "internalType": "uint256"
        }
      ],
      "anonymous": false
    },
    {
      "type": "event",
      "name": "MaxTotalDepositsUpdated",
      "inputs": [
        {
          "name": "previousValue",
          "type": "uint256",
          "indexed": false,
          "internalType": "uint256"
        },
        {
          "name": "newValue",
          "type": "uint256",
          "indexed": false,
          "internalType": "uint256"
        }
      ],
      "anonymous": false
    },
    {
      "type": "event",
      "name": "MetadataURIUpdated",
      "inputs": [
        {
          "name": "newMetadataURI",
          "type": "string",
          "indexed": false,
          "internalType": "string"
        }
      ],
      "anonymous": false
    },
    {
      "type": "event",
      "name": "Paused",
      "inputs": [
        {
          "name": "account",
          "type": "address",
          "indexed": true,
          "internalType": "address"
        },
        {
          "name": "newPausedStatus",
          "type": "uint256",
          "indexed": false,
          "internalType": "uint256"
        }
      ],
      "anonymous": false
    },
    {
      "type": "event",
      "name": "StrategyTokenSet",
      "inputs": [
        {
          "name": "token",
          "type": "address",
          "indexed": false,
          "internalType": "contract IERC20"
        },
        {
          "name": "decimals",
          "type": "uint8",
          "indexed": false,
          "internalType": "uint8"
        }
      ],
      "anonymous": false
    },
    {
      "type": "event",
      "name": "Unpaused",
      "inputs": [
        {
          "name": "account",
          "type": "address",
          "indexed": true,
          "internalType": "address"
        },
        {
          "name": "newPausedStatus",
          "type": "uint256",
          "indexed": false,
          "internalType": "uint256"
        }
      ],
      "anonymous": false
    },
    {
      "type": "event",
      "name": "VaultInitialized",
      "inputs": [
        {
          "name": "vaultAdmin",
          "type": "address",
          "indexed": true,
          "internalType": "address"
        },
        {
          "name": "underlyingToken",
          "type": "address",
          "indexed": true,
          "internalType": "contract IERC20"
        },
        {
          "name": "duration",
          "type": "uint32",
          "indexed": false,
          "internalType": "uint32"
        },
        {
          "name": "maxPerDeposit",
          "type": "uint256",
          "indexed": false,
          "internalType": "uint256"
        },
        {
          "name": "stakeCap",
          "type": "uint256",
          "indexed": false,
          "internalType": "uint256"
        },
        {
          "name": "metadataURI",
          "type": "string",
          "indexed": false,
          "internalType": "string"
        }
      ],
      "anonymous": false
    },
    {
      "type": "event",
      "name": "VaultLocked",
      "inputs": [
        {
          "name": "lockedAt",
          "type": "uint32",
          "indexed": false,
          "internalType": "uint32"
        },
        {
          "name": "unlockAt",
          "type": "uint32",
          "indexed": false,
          "internalType": "uint32"
        }
      ],
      "anonymous": false
    },
    {
      "type": "event",
      "name": "VaultMatured",
      "inputs": [
        {
          "name": "maturedAt",
          "type": "uint32",
          "indexed": false,
          "internalType": "uint32"
        }
      ],
      "anonymous": false
    },
    {
      "type": "error",
      "name": "BalanceExceedsMaxTotalDeposits",
      "inputs": []
    },
    {
      "type": "error",
      "name": "CurrentlyPaused",
      "inputs": []
    },
    {
      "type": "error",
      "name": "DepositsLocked",
      "inputs": []
    },
    {
      "type": "error",
      "name": "DurationNotElapsed",
      "inputs": []
    },
    {
      "type": "error",
      "name": "InputAddressZero",
      "inputs": []
    },
    {
      "type": "error",
      "name": "InvalidDuration",
      "inputs": []
    },
    {
      "type": "error",
      "name": "InvalidNewPausedStatus",
      "inputs": []
    },
    {
      "type": "error",
      "name": "InvalidVaultAdmin",
      "inputs": []
    },
    {
      "type": "error",
      "name": "MaxPerDepositExceedsMax",
      "inputs": []
    },
    {
      "type": "error",
      "name": "MustBeDelegatedToVaultOperator",
      "inputs": []
    },
    {
      "type": "error",
      "name": "NewSharesZero",
      "inputs": []
    },
    {
      "type": "error",
      "name": "OnlyPauser",
      "inputs": []
    },
    {
      "type": "error",
      "name": "OnlyStrategyManager",
      "inputs": []
    },
    {
      "type": "error",
      "name": "OnlyUnderlyingToken",
      "inputs": []
    },
    {
      "type": "error",
      "name": "OnlyUnpauser",
      "inputs": []
    },
    {
      "type": "error",
      "name": "OnlyVaultAdmin",
      "inputs": []
    },
    {
      "type": "error",
      "name": "OperatorIntegrationInvalid",
      "inputs": []
    },
    {
      "type": "error",
      "name": "PendingAllocation",
      "inputs": []
    },
    {
      "type": "error",
      "name": "TotalSharesExceedsMax",
      "inputs": []
    },
    {
      "type": "error",
      "name": "UnderlyingTokenBlacklisted",
      "inputs": []
    },
    {
      "type": "error",
      "name": "VaultAlreadyLocked",
      "inputs": []
    },
    {
      "type": "error",
      "name": "WithdrawalAmountExceedsTotalDeposits",
      "inputs": []
    },
    {
      "type": "error",
      "name": "WithdrawalsLockedDuringAllocations",
      "inputs": []
    }
  ],
  "bytecode": {
    "object": "0x610140604052348015610010575f5ffd5b5060405161372c38038061372c83398101604081905261002f916101e2565b8585806001600160a01b038116610059576040516339b190bb60e11b815260040160405180910390fd5b6001600160a01b03908116608052821660a05261007461010f565b50506001600160a01b0384161580159061009657506001600160a01b03831615155b80156100aa57506001600160a01b03821615155b80156100be57506001600160a01b03811615155b6100db57604051635881876760e01b815260040160405180910390fd5b6001600160a01b0380851660c05283811660e0528281166101005281166101205261010461010f565b505050505050610265565b5f54610100900460ff161561017a5760405162461bcd60e51b815260206004820152602760248201527f496e697469616c697a61626c653a20636f6e747261637420697320696e697469604482015266616c697a696e6760c81b606482015260840160405180910390fd5b5f5460ff908116146101c9575f805460ff191660ff9081179091556040519081527f7f26b83ff96e1f2b6a682f133852f6798a09c465da95921460cefb38474024989060200160405180910390a15b565b6001600160a01b03811681146101df575f5ffd5b50565b5f5f5f5f5f5f60c087890312156101f7575f5ffd5b8651610202816101cb565b6020880151909650610213816101cb565b6040880151909550610224816101cb565b6060880151909450610235816101cb565b6080880151909350610246816101cb565b60a0880151909250610257816101cb565b809150509295509295509295565b60805160a05160c05160e05161010051610120516133fb6103315f395f81816105680152610e9501525f81816105130152818161206f01526120f401525f818161062a01528181611b4a01528181611c4901528181611ff7015281816121e7015261245501525f81816106e401528181610f3f0152818161105b01528181611e410152611ebe01525f81816103c801528181610747015281816108d601528181610e10015281816112f4015261137601525f81816104ec01528181611631015261179901526133fb5ff3fe608060405234801561000f575f5ffd5b50600436106102ff575f3560e01c80638a2fc4e311610195578063c4d66de8116100e4578063e3dae51c1161009e578063f3e7387511610079578063f3e7387514610706578063f83d08ba14610719578063fabc1cbc14610721578063fb4d86b414610734575f5ffd5b8063e3dae51c146106b9578063e7f6f225146106cc578063ea4d3c9b146106df575f5ffd5b8063c4d66de814610612578063ca8aa7c714610625578063ce7c2ac21461064c578063d4deae811461065f578063d9caed121461068b578063df6fadc11461069e575f5ffd5b8063aa082a9d1161014f578063af6eb2be1161012a578063af6eb2be146105c6578063b2163482146105d9578063ba28fd2e146105f0578063c19d93fb146105f8575f5ffd5b8063aa082a9d14610592578063aa5dec6f146105a7578063ab5921e1146105be575f5ffd5b80638a2fc4e31461050e5780638c871019146105355780638f6a62401461054857806394aad6771461055b5780639ef3571014610563578063a4e2d6341461058a575f5ffd5b8063549c46271161025157806361b01b5d1161020b57806373e3c280116101e657806373e3c280146104b95780637a8b2637146104cc5780637f2b6a0d146104df578063886f1195146104e7575f5ffd5b806361b01b5d146104955780636d8690a91461049e57806373136c81146104a6575f5ffd5b8063549c462714610443578063553ca5f81461044b578063595c6a671461045e57806359d915ff146104665780635ac86ab71461046e5780635c975abb1461048d575f5ffd5b80632495a599116102bc57806343fe08b01161029757806343fe08b01461040157806347e7ef241461040a57806353fd3e811461041d5780635438a8c714610430575f5ffd5b80632495a5991461039857806339b70e38146103c35780633a98ef39146103ea575f5ffd5b806303e3e6eb1461030357806303ee438c146103185780630fb5a6b41461033657806311c70c9d14610362578063136439dd146103755780631f1cc9a314610388575b5f5ffd5b610316610311366004612704565b61073c565b005b6103206107c7565b60405161032d919061275c565b60405180910390f35b60325461034d90600160a01b900463ffffffff1681565b60405163ffffffff909116815260200161032d565b610316610370366004612775565b610853565b610316610383366004612795565b61088a565b60335461034d9063ffffffff1681565b6064546103ab906001600160a01b031681565b6040516001600160a01b03909116815260200161032d565b6103ab7f000000000000000000000000000000000000000000000000000000000000000081565b6103f360655481565b60405190815260200161032d565b6103f360365481565b6103f3610418366004612704565b6108c0565b61031661042b3660046127ac565b6109ef565b60015b604051901515815260200161032d565b610433610a65565b6103f3610459366004612818565b610a8d565b610316610aa0565b610433610ab4565b61043361047c366004612841565b6001805460ff9092161b9081161490565b6001546103f3565b6103f360375481565b610316610ae8565b6103166104b43660046129b6565b610be1565b6103166104c7366004612704565b610e05565b6103f36104da366004612795565b61112b565b610433611174565b6103ab7f000000000000000000000000000000000000000000000000000000000000000081565b6103ab7f000000000000000000000000000000000000000000000000000000000000000081565b6103f3610543366004612795565b61117c565b6103f3610556366004612818565b611186565b610433611193565b6103ab7f000000000000000000000000000000000000000000000000000000000000000081565b6104336111bc565b603254600160e01b900463ffffffff1661034d565b60325461034d90600160e01b900463ffffffff1681565b6103206111c4565b6103166105d4366004612775565b6111e4565b60325461034d90600160c01b900463ffffffff1681565b6037546103f3565b603354600160201b900460ff1660405161032d9190612af8565b610316610620366004612818565b61120f565b6103ab7f000000000000000000000000000000000000000000000000000000000000000081565b6103f361065a366004612818565b6112cd565b603554604080516001600160a01b0383168152600160a01b90920463ffffffff1660208301520161032d565b6103f3610699366004612b1e565b61135f565b6036546037546040805192835260208301919091520161032d565b6103f36106c7366004612795565b611461565b6032546103ab906001600160a01b031681565b6103ab7f000000000000000000000000000000000000000000000000000000000000000081565b6103f3610714366004612795565b611498565b6103166114a2565b61031661072f366004612795565b6115ba565b610433611627565b336001600160a01b037f00000000000000000000000000000000000000000000000000000000000000001614610785576040516348da714f60e01b815260040160405180910390fd5b6002603354600160201b900460ff1660038111156107a5576107a5612ae4565b036107c3576040516324d94d6960e11b815260040160405180910390fd5b5050565b603480546107d490612b5c565b80601f016020809104026020016040519081016040528092919081815260200182805461080090612b5c565b801561084b5780601f106108225761010080835404028352916020019161084b565b820191905f5260205f20905b81548152906001019060200180831161082e57829003601f168201915b505050505081565b61085b61162f565b610863610a65565b6108805760405163faa4be9f60e01b815260040160405180910390fd5b6107c382826116e0565b610892611784565b60015481811681146108b75760405163c61dca5d60e01b815260040160405180910390fd5b6107c382611827565b5f5f6108cb81611864565b336001600160a01b037f00000000000000000000000000000000000000000000000000000000000000001614610914576040516348da714f60e01b815260040160405180910390fd5b61091e8484611897565b6065545f61092e6103e883612ba8565b90505f6103e861093c6118c5565b6109469190612ba8565b90505f6109538783612bbb565b9050806109608489612bce565b61096a9190612be5565b9550855f0361098c57604051630c392ed360e11b815260040160405180910390fd5b6109968685612ba8565b60658190556f4b3b4ca85a86c47a098a223fffffffff10156109cb57604051632f14e8a360e11b815260040160405180910390fd5b6109e4826103e86065546109df9190612ba8565b61192f565b505050505092915050565b6032546001600160a01b03163314610a1a57604051635b26872160e11b815260040160405180910390fd5b6034610a27828483612c4f565b507fefafb90526da1636e1335eac0151301742fb755d986954c613b90e891778ba398282604051610a59929190612d08565b60405180910390a15050565b5f60015b603354600160201b900460ff166003811115610a8757610a87612ae4565b14905090565b5f610a9a6104da836112cd565b92915050565b610aa8611784565b610ab25f19611827565b565b5f6001603354600160201b900460ff166003811115610ad557610ad5612ae4565b1480610ae357506002610a69565b905090565b6003603354600160201b900460ff166003811115610b0857610b08612ae4565b03610b0f57565b6002603354600160201b900460ff166003811115610b2f57610b2f612ae4565b14610b4d576040516306560dcd60e41b815260040160405180910390fd5b603254600160e01b900463ffffffff16421015610b7d576040516306560dcd60e41b815260040160405180910390fd5b6033805463ffffffff421664ffffffffff199091168117640300000000179091556040519081527fff979382d3040b1602e0a02f0f2a454b2250aa36e891d2da0ceb95d70d11a8f29060200160405180910390a1610bd961197b565b610ab2611bb1565b5f54610100900460ff1615808015610bff57505f54600160ff909116105b80610c185750303b158015610c1857505f5460ff166001145b610c3d5760405162461bcd60e51b8152600401610c3490612d36565b60405180910390fd5b5f805460ff191660011790558015610c5e575f805461ff0019166101001790555b60208201516001600160a01b0316610c8957604051633b7dc71360e01b815260040160405180910390fd5b604082015163ffffffff1615801590610cb657506303c2670063ffffffff16826040015163ffffffff1611155b610cd357604051637616640160e01b815260040160405180910390fd5b610ce5826060015183608001516116e0565b8151610cf090611c7e565b602082015160328054604085015163ffffffff16600160a01b026001600160c01b03199091166001600160a01b039093169290921791909117905560a0820151603490610d3d9082612d84565b50610d4782611dc9565b6033805464ff000000001916600160201b1790558151603254606084015160808501516040516001600160a01b03948516948416937f11f2c91364d1d8629411a968c4341d98aeeeb0c33dcc3f2cdd19c09b0ca8ab9e93610dbc93600160a01b90920463ffffffff1692909190603490612e3e565b60405180910390a380156107c3575f805461ff0019169055604051600181527f7f26b83ff96e1f2b6a682f133852f6798a09c465da95921460cefb384740249890602001610a59565b336001600160a01b037f00000000000000000000000000000000000000000000000000000000000000001614610e4e576040516348da714f60e01b815260040160405180910390fd5b610e56610a65565b610e735760405163faa4be9f60e01b815260040160405180910390fd5b60645460405163fe575a8760e01b81526001600160a01b0391821660048201527f00000000000000000000000000000000000000000000000000000000000000009091169063fe575a8790602401602060405180830381865afa158015610edc573d5f5f3e3d5ffd5b505050506040513d601f19601f82011682018060405250810190610f009190612ee0565b15610f1e576040516337b068d160e21b815260040160405180910390fd5b604051631976849960e21b81526001600160a01b03838116600483015230917f0000000000000000000000000000000000000000000000000000000000000000909116906365da126490602401602060405180830381865afa158015610f86573d5f5f3e3d5ffd5b505050506040513d601f19601f82011682018060405250810190610faa9190612eff565b6001600160a01b031614610fd1576040516315192e1d60e11b815260040160405180910390fd5b5f610fdb8261112b565b90506036548111156110005760405163052b07b760e21b815260040160405180910390fd5b6040805160018082528183019092525f916020808301908036833701905050905030815f8151811061103457611034612f1a565b6001600160a01b039283166020918202929092010152604051639004134760e01b81525f917f000000000000000000000000000000000000000000000000000000000000000016906390041347906110929030908690600401612f71565b5f60405180830381865afa1580156110ac573d5f5f3e3d5ffd5b505050506040513d5f823e601f3d908101601f191682016040526110d39190810190612f94565b5f815181106110e4576110e4612f1a565b602002602001015190505f6110fe85836104da9190612ba8565b90506037548111156111235760405163d86bae6760e01b815260040160405180910390fd5b505050505050565b5f5f6103e860655461113d9190612ba8565b90505f6103e861114b6118c5565b6111559190612ba8565b9050816111628583612bce565b61116c9190612be5565b949350505050565b5f6003610a69565b5f610a9a82611461565b5f610a9a610714836112cd565b5f60025b603354600160201b900460ff1660038111156111b5576111b5612ae4565b1415905090565b5f6001611197565b60606040518060800160405280604d8152602001613379604d9139905090565b6032546001600160a01b0316331461085b57604051635b26872160e11b815260040160405180910390fd5b5f54610100900460ff161580801561122d57505f54600160ff909116105b806112465750303b15801561124657505f5460ff166001145b6112625760405162461bcd60e51b8152600401610c3490612d36565b5f805460ff191660011790558015611283575f805461ff0019166101001790555b61128c82611c7e565b80156107c3575f805461ff0019169055604051600181527f7f26b83ff96e1f2b6a682f133852f6798a09c465da95921460cefb384740249890602001610a59565b60405163fe243a1760e01b81526001600160a01b0382811660048301523060248301525f917f00000000000000000000000000000000000000000000000000000000000000009091169063fe243a1790604401602060405180830381865afa15801561133b573d5f5f3e3d5ffd5b505050506040513d601f19601f82011682018060405250810190610a9a9190613033565b5f600161136b81611864565b336001600160a01b037f000000000000000000000000000000000000000000000000000000000000000016146113b4576040516348da714f60e01b815260040160405180910390fd5b6113bf85858561215b565b606554808411156113e357604051630b469df360e41b815260040160405180910390fd5b5f6113f06103e883612ba8565b90505f6103e86113fe6118c5565b6114089190612ba8565b9050816114158783612bce565b61141f9190612be5565b945061142b8684612bbb565b60655561144b61143b8683612bbb565b6103e86065546109df9190612ba8565b61145688888761218e565b505050509392505050565b5f5f6103e86065546114739190612ba8565b90505f6103e86114816118c5565b61148b9190612ba8565b9050806111628386612bce565b5f610a9a8261112b565b6032546001600160a01b031633146114cd57604051635b26872160e11b815260040160405180910390fd5b6114d5610a65565b6114f257604051630a6c62fd60e41b815260040160405180910390fd5b6032805463ffffffff42818116600160c01b0263ffffffff60c01b199093169290921792839055909161152e91600160a01b909104168261304a565b603280546001600160e01b0316600160e01b63ffffffff938416810291909117918290556033805464020000000064ff000000001990911617905560408051600160c01b8404851681529190920490921660208301527f42cd6d7338516695d9c9ff8969dbdcf89ce22e3f2f76fda2fc11e973fe4860e4910160405180910390a16115b76121a2565b50565b6115c261162f565b600154801982198116146115e95760405163c61dca5d60e01b815260040160405180910390fd5b600182905560405182815233907f3582d1828e26bf56bd801502bc021ac0bc8afb57c826e4986b45593c8fad389c9060200160405180910390a25050565b5f6002610a69565b7f00000000000000000000000000000000000000000000000000000000000000006001600160a01b031663eab66d7a6040518163ffffffff1660e01b8152600401602060405180830381865afa15801561168b573d5f5f3e3d5ffd5b505050506040513d601f19601f820116820180604052508101906116af9190612eff565b6001600160a01b0316336001600160a01b031614610ab25760405163794821ff60e01b815260040160405180910390fd5b60365460408051918252602082018490527ff97ed4e083acac67830025ecbc756d8fe847cdbdca4cee3fe1e128e98b54ecb5910160405180910390a160375460408051918252602082018390527f6ab181e0440bfbf4bacdf2e99674735ce6638005490688c5f994f5399353e452910160405180910390a1808211156117795760405163052b07b760e21b815260040160405180910390fd5b603691909155603755565b60405163237dfb4760e11b81523360048201527f00000000000000000000000000000000000000000000000000000000000000006001600160a01b0316906346fbf68e90602401602060405180830381865afa1580156117e6573d5f5f3e3d5ffd5b505050506040513d601f19601f8201168201806040525081019061180a9190612ee0565b610ab257604051631d77d47760e21b815260040160405180910390fd5b600181905560405181815233907fab40a374bc51de372200a8bc981af8c9ecdc08dfdaef0bb6e09f88f3c616ef3d9060200160405180910390a250565b611879816001805460ff9092161b9081161490565b156115b75760405163840a48d560e01b815260040160405180910390fd5b6064546001600160a01b038381169116146107c357604051630312abdd60e61b815260040160405180910390fd5b6064546040516370a0823160e01b81523060048201525f916001600160a01b0316906370a0823190602401602060405180830381865afa15801561190b573d5f5f3e3d5ffd5b505050506040513d601f19601f82011682018060405250810190610ae39190613033565b7fd2494f3479e5da49d386657c292c610b5b01df313d07c62eb0cfa49924a31be88161196384670de0b6b3a7640000612bce565b61196d9190612be5565b604051908152602001610a59565b6040805160018082528183019092525f91816020015b6119c56040805160a081019091525f6060820181815260808301919091528190815260200160608152602001606081525090565b81526020019060019003908161199157905050604080518082019091526035546001600160a01b0381168252600160a01b900463ffffffff16602082015281519192509082905f90611a1957611a19612f1a565b6020908102919091010151526040805160018082528183019092529081602001602082028036833701905050815f81518110611a5757611a57612f1a565b60200260200101516020018190525030815f81518110611a7957611a79612f1a565b6020026020010151602001515f81518110611a9657611a96612f1a565b6001600160a01b039290921660209283029190910182015260408051600180825281830190925291828101908036833701905050815f81518110611adc57611adc612f1a565b6020026020010151604001819052505f815f81518110611afe57611afe612f1a565b6020026020010151604001515f81518110611b1b57611b1b612f1a565b6001600160401b0390921660209283029190910190910152604051634a944cf760e11b81526001600160a01b037f0000000000000000000000000000000000000000000000000000000000000000169063952899ee90611b819030908590600401613066565b5f604051808303815f87803b158015611b98575f5ffd5b505af1925050508015611ba9575060015b156115b75750565b6040805160608082018352818301523081526035546001600160a01b0316602082015281516001808252818401909352909181602001602082028036833701905050604082018190526035548151600160a01b90910463ffffffff1691905f90611c1d57611c1d612f1a565b63ffffffff90921660209283029190910190910152604051636e3492b560e01b81526001600160a01b037f00000000000000000000000000000000000000000000000000000000000000001690636e3492b590611b8190849060040161318f565b5f54610100900460ff16611ce85760405162461bcd60e51b815260206004820152602b60248201527f496e697469616c697a61626c653a20636f6e7472616374206973206e6f74206960448201526a6e697469616c697a696e6760a81b6064820152608401610c34565b606480546001600160a01b0319166001600160a01b038316179055611d0c5f611827565b7f1c540707b00eb5427b6b774fc799d756516a54aee108b64b327acc55af55750760645f9054906101000a90046001600160a01b0316826001600160a01b031663313ce5676040518163ffffffff1660e01b8152600401602060405180830381865afa158015611d7e573d5f5f3e3d5ffd5b505050506040513d601f19601f82011682018060405250810190611da291906131cb565b604080516001600160a01b03909316835260ff90911660208301520160405180910390a150565b60c0810151516001600160a01b0316611df557604051635881876760e01b815260040160405180910390fd5b60c081015180516035805460209384015163ffffffff16600160a01b026001600160c01b03199091166001600160a01b0393841617179055604080516318891fd760e31b815290515f937f00000000000000000000000000000000000000000000000000000000000000009093169263c448feb892600480820193918290030181865afa158015611e88573d5f5f3e3d5ffd5b505050506040513d601f19601f82011682018060405250810190611eac91906131e6565b90505f611eba82600161304a565b90507f00000000000000000000000000000000000000000000000000000000000000006001600160a01b0316632aa6d888846101000151838661012001516040518463ffffffff1660e01b8152600401611f1693929190613201565b5f604051808303815f87803b158015611f2d575f5ffd5b505af1158015611f3f573d5f5f3e3d5ffd5b50505050611f6f60405180606001604052805f6001600160a01b0316815260200160608152602001606081525090565b60c0840151516001600160a01b031681526040805160018082528183019092529060208083019080368337505050602082810182905260c0860151015181519091905f90611fbf57611fbf612f1a565b63ffffffff9092166020928302919091019091015260e08401516040808301919091525163adc2e3d960e01b81526001600160a01b037f0000000000000000000000000000000000000000000000000000000000000000169063adc2e3d99061202e9030908590600401613239565b5f604051808303815f87803b158015612045575f5ffd5b505af1158015612057573d5f5f3e3d5ffd5b5050505060c0840151604051633dd3a3ab60e21b81527f00000000000000000000000000000000000000000000000000000000000000006001600160a01b03169163f74e8eac916120ae9130915f90600401613298565b5f604051808303815f87803b1580156120c5575f5ffd5b505af11580156120d7573d5f5f3e3d5ffd5b505060405163059edd8760e51b81523060048201525f60248201527f00000000000000000000000000000000000000000000000000000000000000006001600160a01b0316925063b3dbb0e091506044015f604051808303815f87803b15801561213f575f5ffd5b505af1158015612151573d5f5f3e3d5ffd5b5050505050505050565b6064546001600160a01b0383811691161461218957604051630312abdd60e61b815260040160405180910390fd5b505050565b6121896001600160a01b03831684836124b5565b60405163021c373760e31b815230600482018190526035546001600160a01b03808216602485015260a09190911c63ffffffff16604484015260648301919091525f917f0000000000000000000000000000000000000000000000000000000000000000909116906310e1b9b890608401606060405180830381865afa15801561222e573d5f5f3e3d5ffd5b505050506040513d601f19601f8201168201806040525081019061225291906132e0565b9050806040015163ffffffff165f1461227e5760405163024b01ff60e11b815260040160405180910390fd5b6040805160018082528183019092525f91816020015b6122c86040805160a081019091525f6060820181815260808301919091528190815260200160608152602001606081525090565b81526020019060019003908161229457905050604080518082019091526035546001600160a01b0381168252600160a01b900463ffffffff16602082015281519192509082905f9061231c5761231c612f1a565b6020908102919091010151526040805160018082528183019092529081602001602082028036833701905050815f8151811061235a5761235a612f1a565b60200260200101516020018190525030815f8151811061237c5761237c612f1a565b6020026020010151602001515f8151811061239957612399612f1a565b6001600160a01b039290921660209283029190910182015260408051600180825281830190925291828101908036833701905050815f815181106123df576123df612f1a565b602002602001015160400181905250670de0b6b3a7640000815f8151811061240957612409612f1a565b6020026020010151604001515f8151811061242657612426612f1a565b6001600160401b0390921660209283029190910190910152604051634a944cf760e11b81526001600160a01b037f0000000000000000000000000000000000000000000000000000000000000000169063952899ee9061248c9030908590600401613066565b5f604051808303815f87803b1580156124a3575f5ffd5b505af1158015611123573d5f5f3e3d5ffd5b604080516001600160a01b03848116602483015260448083018590528351808403909101815260649092018352602080830180516001600160e01b031663a9059cbb60e01b17905283518085019094528084527f5361666545524332303a206c6f772d6c6576656c2063616c6c206661696c656490840152612189928692915f916125449185169084906125c3565b905080515f14806125645750808060200190518101906125649190612ee0565b6121895760405162461bcd60e51b815260206004820152602a60248201527f5361666545524332303a204552433230206f7065726174696f6e20646964206e6044820152691bdd081cdd58d8d9595960b21b6064820152608401610c34565b606061116c84845f85855f5f866001600160a01b031685876040516125e89190613362565b5f6040518083038185875af1925050503d805f8114612622576040519150601f19603f3d011682016040523d82523d5f602084013e612627565b606091505b509150915061263887838387612643565b979650505050505050565b606083156126b15782515f036126aa576001600160a01b0385163b6126aa5760405162461bcd60e51b815260206004820152601d60248201527f416464726573733a2063616c6c20746f206e6f6e2d636f6e74726163740000006044820152606401610c34565b508161116c565b61116c83838151156126c65781518083602001fd5b8060405162461bcd60e51b8152600401610c34919061275c565b6001600160a01b03811681146115b7575f5ffd5b80356126ff816126e0565b919050565b5f5f60408385031215612715575f5ffd5b8235612720816126e0565b946020939093013593505050565b5f81518084528060208401602086015e5f602082860101526020601f19601f83011685010191505092915050565b602081525f61276e602083018461272e565b9392505050565b5f5f60408385031215612786575f5ffd5b50508035926020909101359150565b5f602082840312156127a5575f5ffd5b5035919050565b5f5f602083850312156127bd575f5ffd5b82356001600160401b038111156127d2575f5ffd5b8301601f810185136127e2575f5ffd5b80356001600160401b038111156127f7575f5ffd5b856020828401011115612808575f5ffd5b6020919091019590945092505050565b5f60208284031215612828575f5ffd5b813561276e816126e0565b60ff811681146115b7575f5ffd5b5f60208284031215612851575f5ffd5b813561276e81612833565b634e487b7160e01b5f52604160045260245ffd5b60405161014081016001600160401b03811182821017156128935761289361285c565b60405290565b604051601f8201601f191681016001600160401b03811182821017156128c1576128c161285c565b604052919050565b63ffffffff811681146115b7575f5ffd5b80356126ff816128c9565b5f82601f8301126128f4575f5ffd5b8135602083015f5f6001600160401b038411156129135761291361285c565b50601f8301601f191660200161292881612899565b91505082815285838301111561293c575f5ffd5b828260208301375f92810160200192909252509392505050565b5f60408284031215612966575f5ffd5b604080519081016001600160401b03811182821017156129885761298861285c565b6040529050808235612999816126e0565b815260208301356129a9816128c9565b6020919091015292915050565b5f602082840312156129c6575f5ffd5b81356001600160401b038111156129db575f5ffd5b820161016081850312156129ed575f5ffd5b6129f5612870565b6129fe826126f4565b8152612a0c602083016126f4565b6020820152612a1d604083016128da565b6040820152606082810135908201526080808301359082015260a08201356001600160401b03811115612a4e575f5ffd5b612a5a868285016128e5565b60a083015250612a6d8560c08401612956565b60c08201526101008201356001600160401b03811115612a8b575f5ffd5b612a97868285016128e5565b60e083015250612aaa61012083016126f4565b6101008201526101408201356001600160401b03811115612ac9575f5ffd5b612ad5868285016128e5565b61012083015250949350505050565b634e487b7160e01b5f52602160045260245ffd5b6020810160048310612b1857634e487b7160e01b5f52602160045260245ffd5b91905290565b5f5f5f60608486031215612b30575f5ffd5b8335612b3b816126e0565b92506020840135612b4b816126e0565b929592945050506040919091013590565b600181811c90821680612b7057607f821691505b602082108103612b8e57634e487b7160e01b5f52602260045260245ffd5b50919050565b634e487b7160e01b5f52601160045260245ffd5b80820180821115610a9a57610a9a612b94565b81810381811115610a9a57610a9a612b94565b8082028115828204841417610a9a57610a9a612b94565b5f82612bff57634e487b7160e01b5f52601260045260245ffd5b500490565b601f82111561218957805f5260205f20601f840160051c81016020851015612c295750805b601f840160051c820191505b81811015612c48575f8155600101612c35565b5050505050565b6001600160401b03831115612c6657612c6661285c565b612c7a83612c748354612b5c565b83612c04565b5f601f841160018114612cab575f8515612c945750838201355b5f19600387901b1c1916600186901b178355612c48565b5f83815260208120601f198716915b82811015612cda5786850135825560209485019460019092019101612cba565b5086821015612cf6575f1960f88860031b161c19848701351681555b505060018560011b0183555050505050565b60208152816020820152818360408301375f818301604090810191909152601f909201601f19160101919050565b6020808252602e908201527f496e697469616c697a61626c653a20636f6e747261637420697320616c72656160408201526d191e481a5b9a5d1a585b1a5e995960921b606082015260800190565b81516001600160401b03811115612d9d57612d9d61285c565b612db181612dab8454612b5c565b84612c04565b6020601f821160018114612de3575f8315612dcc5750848201515b5f19600385901b1c1916600184901b178455612c48565b5f84815260208120601f198516915b82811015612e125787850151825560209485019460019092019101612df2565b5084821015612e2f57868401515f19600387901b60f8161c191681555b50505050600190811b01905550565b63ffffffff85168152836020820152826040820152608060608201525f5f8354612e6781612b5c565b806080860152600182165f8114612e855760018114612ea157612ed2565b60ff19831660a087015260a082151560051b8701019350612ed2565b865f5260205f205f5b83811015612ec957815488820160a00152600190910190602001612eaa565b870160a0019450505b509198975050505050505050565b5f60208284031215612ef0575f5ffd5b8151801515811461276e575f5ffd5b5f60208284031215612f0f575f5ffd5b815161276e816126e0565b634e487b7160e01b5f52603260045260245ffd5b5f8151808452602084019350602083015f5b82811015612f675781516001600160a01b0316865260209586019590910190600101612f40565b5093949350505050565b6001600160a01b03831681526040602082018190525f9061116c90830184612f2e565b5f60208284031215612fa4575f5ffd5b81516001600160401b03811115612fb9575f5ffd5b8201601f81018413612fc9575f5ffd5b80516001600160401b03811115612fe257612fe261285c565b8060051b612ff260208201612899565b9182526020818401810192908101908784111561300d575f5ffd5b6020850194505b8385101561263857845180835260209586019590935090910190613014565b5f60208284031215613043575f5ffd5b5051919050565b63ffffffff8181168382160190811115610a9a57610a9a612b94565b5f6040820160018060a01b03851683526040602084015280845180835260608501915060608160051b8601019250602086015f5b8281101561314c57868503605f190184528151805180516001600160a01b0316875260209081015163ffffffff16908701526020810151608060408801526130e56080880182612f2e565b60409290920151878303606089015280518084526020918201935f935091909101905b80831015613134576001600160401b038451168252602082019150602084019350600183019250613108565b5096505050602093840193919091019060010161309a565b5092979650505050505050565b5f8151808452602084019350602083015f5b82811015612f6757815163ffffffff1686526020958601959091019060010161316b565b602080825282516001600160a01b039081168383015290830151166040808301919091528201516060808301525f9061116c6080840182613159565b5f602082840312156131db575f5ffd5b815161276e81612833565b5f602082840312156131f6575f5ffd5b815161276e816128c9565b6001600160a01b038416815263ffffffff831660208201526060604082018190525f906132309083018461272e565b95945050505050565b6001600160a01b038381168252604060208084018290528451909216908301528201516060808301525f9061327160a0840182613159565b90506040840151603f1984830301608085015261328e828261272e565b9695505050505050565b6001600160a01b0384168152608081016132ce602083018580516001600160a01b0316825260209081015163ffffffff16910152565b61ffff83166060830152949350505050565b5f60608284031280156132f1575f5ffd5b50604051606081016001600160401b03811182821017156133145761331461285c565b60405282516001600160401b038116811461332d575f5ffd5b81526020830151600f81900b8114613343575f5ffd5b60208201526040830151613356816128c9565b60408201529392505050565b5f82518060208501845e5f92019182525091905056fe4475726174696f6e2d626f756e64207661756c74207374726174656779207769746820636f6e666967757261626c65206465706f736974206361707320616e64206c6f636b20706572696f6473a2646970667358221220a2dd839ab7c8767cf89cfc466cf11aaf20845a158c6a93863fb4500363f3703864736f6c634300081e0033",
    "linkReferences": {}
  },
  "methodIdentifiers": {
    "allocationManager()": "ca8aa7c7",
    "allocationsActive()": "fb4d86b4",
    "beforeAddShares(address,uint256)": "73e3c280",
    "beforeRemoveShares(address,uint256)": "03e3e6eb",
    "delegationManager()": "ea4d3c9b",
    "deposit(address,uint256)": "47e7ef24",
    "depositsOpen()": "549c4627",
    "duration()": "0fb5a6b4",
    "explanation()": "ab5921e1",
    "getTVLLimits()": "df6fadc1",
    "initialize((address,address,uint32,uint256,uint256,string,(address,uint32),bytes,address,string))": "73136c81",
    "initialize(address)": "c4d66de8",
    "isLocked()": "a4e2d634",
    "isMatured()": "7f2b6a0d",
    "lock()": "f83d08ba",
    "lockedAt()": "b2163482",
    "markMatured()": "6d8690a9",
    "maturedAt()": "1f1cc9a3",
    "maxPerDeposit()": "43fe08b0",
    "maxTotalDeposits()": "61b01b5d",
    "metadataURI()": "03ee438c",
    "operatorIntegrationConfigured()": "5438a8c7",
    "operatorSetInfo()": "d4deae81",
    "operatorSetRegistered()": "59d915ff",
    "pause(uint256)": "136439dd",
    "pauseAll()": "595c6a67",
    "paused()": "5c975abb",
    "paused(uint8)": "5ac86ab7",
    "pauserRegistry()": "886f1195",
    "rewardsCoordinator()": "8a2fc4e3",
    "setTVLLimits(uint256,uint256)": "11c70c9d",
    "shares(address)": "ce7c2ac2",
    "sharesToUnderlying(uint256)": "f3e73875",
    "sharesToUnderlyingView(uint256)": "7a8b2637",
    "stakeCap()": "ba28fd2e",
    "state()": "c19d93fb",
    "strategyFactory()": "9ef35710",
    "strategyManager()": "39b70e38",
    "totalShares()": "3a98ef39",
    "underlyingToShares(uint256)": "8c871019",
    "underlyingToSharesView(uint256)": "e3dae51c",
    "underlyingToken()": "2495a599",
    "unlockAt()": "aa5dec6f",
    "unlockTimestamp()": "aa082a9d",
    "unpause(uint256)": "fabc1cbc",
    "updateMetadataURI(string)": "53fd3e81",
    "updateTVLLimits(uint256,uint256)": "af6eb2be",
    "userUnderlying(address)": "8f6a6240",
    "userUnderlyingView(address)": "553ca5f8",
    "vaultAdmin()": "e7f6f225",
    "withdraw(address,address,uint256)": "d9caed12",
    "withdrawalsOpen()": "94aad677"
  },
  "id": 202
}