{
  "abi": [
    {
      "type": "constructor",
      "inputs": [
        {
          "name": "_strategyManager",
          "type": "address",
          "internalType": "contract IStrategyManager"
        },
        {
          "name": "_pauserRegistry",
          "type": "address",
          "internalType": "contract IPauserRegistry"
        }
      ],
      "stateMutability": "nonpayable"
    },
    {
      "type": "function",
      "name": "beforeAddShares",
      "inputs": [
        {
          "name": "",
          "type": "address",
          "internalType": "address"
        },
        {
          "name": "",
          "type": "uint256",
          "internalType": "uint256"
        }
      ],
      "outputs": [],
      "stateMutability": "nonpayable"
    },
    {
      "type": "function",
      "name": "beforeRemoveShares",
      "inputs": [
        {
          "name": "",
          "type": "address",
          "internalType": "address"
        },
        {
          "name": "",
          "type": "uint256",
          "internalType": "uint256"
        }
      ],
      "outputs": [],
      "stateMutability": "nonpayable"
    },
    {
      "type": "function",
      "name": "deposit",
      "inputs": [
        {
          "name": "token",
          "type": "address",
          "internalType": "contract IERC20"
        },
        {
          "name": "amount",
          "type": "uint256",
          "internalType": "uint256"
        }
      ],
      "outputs": [
        {
          "name": "newShares",
          "type": "uint256",
          "internalType": "uint256"
        }
      ],
      "stateMutability": "nonpayable"
    },
    {
      "type": "function",
      "name": "explanation",
      "inputs": [],
      "outputs": [
        {
          "name": "",
          "type": "string",
          "internalType": "string"
        }
      ],
      "stateMutability": "pure"
    },
    {
      "type": "function",
      "name": "getTVLLimits",
      "inputs": [],
      "outputs": [
        {
          "name": "",
          "type": "uint256",
          "internalType": "uint256"
        },
        {
          "name": "",
          "type": "uint256",
          "internalType": "uint256"
        }
      ],
      "stateMutability": "view"
    },
    {
      "type": "function",
      "name": "initialize",
      "inputs": [
        {
          "name": "_maxPerDeposit",
          "type": "uint256",
          "internalType": "uint256"
        },
        {
          "name": "_maxTotalDeposits",
          "type": "uint256",
          "internalType": "uint256"
        },
        {
          "name": "_underlyingToken",
          "type": "address",
          "internalType": "contract IERC20"
        }
      ],
      "outputs": [],
      "stateMutability": "nonpayable"
    },
    {
      "type": "function",
      "name": "initialize",
      "inputs": [
        {
          "name": "_underlyingToken",
          "type": "address",
          "internalType": "contract IERC20"
        }
      ],
      "outputs": [],
      "stateMutability": "nonpayable"
    },
    {
      "type": "function",
      "name": "maxPerDeposit",
      "inputs": [],
      "outputs": [
        {
          "name": "",
          "type": "uint256",
          "internalType": "uint256"
        }
      ],
      "stateMutability": "view"
    },
    {
      "type": "function",
      "name": "maxTotalDeposits",
      "inputs": [],
      "outputs": [
        {
          "name": "",
          "type": "uint256",
          "internalType": "uint256"
        }
      ],
      "stateMutability": "view"
    },
    {
      "type": "function",
      "name": "pause",
      "inputs": [
        {
          "name": "newPausedStatus",
          "type": "uint256",
          "internalType": "uint256"
        }
      ],
      "outputs": [],
      "stateMutability": "nonpayable"
    },
    {
      "type": "function",
      "name": "pauseAll",
      "inputs": [],
      "outputs": [],
      "stateMutability": "nonpayable"
    },
    {
      "type": "function",
      "name": "paused",
      "inputs": [
        {
          "name": "index",
          "type": "uint8",
          "internalType": "uint8"
        }
      ],
      "outputs": [
        {
          "name": "",
          "type": "bool",
          "internalType": "bool"
        }
      ],
      "stateMutability": "view"
    },
    {
      "type": "function",
      "name": "paused",
      "inputs": [],
      "outputs": [
        {
          "name": "",
          "type": "uint256",
          "internalType": "uint256"
        }
      ],
      "stateMutability": "view"
    },
    {
      "type": "function",
      "name": "pauserRegistry",
      "inputs": [],
      "outputs": [
        {
          "name": "",
          "type": "address",
          "internalType": "contract IPauserRegistry"
        }
      ],
      "stateMutability": "view"
    },
    {
      "type": "function",
      "name": "setTVLLimits",
      "inputs": [
        {
          "name": "newMaxPerDeposit",
          "type": "uint256",
          "internalType": "uint256"
        },
        {
          "name": "newMaxTotalDeposits",
          "type": "uint256",
          "internalType": "uint256"
        }
      ],
      "outputs": [],
      "stateMutability": "nonpayable"
    },
    {
      "type": "function",
      "name": "shares",
      "inputs": [
        {
          "name": "user",
          "type": "address",
          "internalType": "address"
        }
      ],
      "outputs": [
        {
          "name": "",
          "type": "uint256",
          "internalType": "uint256"
        }
      ],
      "stateMutability": "view"
    },
    {
      "type": "function",
      "name": "sharesToUnderlying",
      "inputs": [
        {
          "name": "amountShares",
          "type": "uint256",
          "internalType": "uint256"
        }
      ],
      "outputs": [
        {
          "name": "",
          "type": "uint256",
          "internalType": "uint256"
        }
      ],
      "stateMutability": "view"
    },
    {
      "type": "function",
      "name": "sharesToUnderlyingView",
      "inputs": [
        {
          "name": "amountShares",
          "type": "uint256",
          "internalType": "uint256"
        }
      ],
      "outputs": [
        {
          "name": "",
          "type": "uint256",
          "internalType": "uint256"
        }
      ],
      "stateMutability": "view"
    },
    {
      "type": "function",
      "name": "strategyManager",
      "inputs": [],
      "outputs": [
        {
          "name": "",
          "type": "address",
          "internalType": "contract IStrategyManager"
        }
      ],
      "stateMutability": "view"
    },
    {
      "type": "function",
      "name": "totalShares",
      "inputs": [],
      "outputs": [
        {
          "name": "",
          "type": "uint256",
          "internalType": "uint256"
        }
      ],
      "stateMutability": "view"
    },
    {
      "type": "function",
      "name": "underlyingToShares",
      "inputs": [
        {
          "name": "amountUnderlying",
          "type": "uint256",
          "internalType": "uint256"
        }
      ],
      "outputs": [
        {
          "name": "",
          "type": "uint256",
          "internalType": "uint256"
        }
      ],
      "stateMutability": "view"
    },
    {
      "type": "function",
      "name": "underlyingToSharesView",
      "inputs": [
        {
          "name": "amountUnderlying",
          "type": "uint256",
          "internalType": "uint256"
        }
      ],
      "outputs": [
        {
          "name": "",
          "type": "uint256",
          "internalType": "uint256"
        }
      ],
      "stateMutability": "view"
    },
    {
      "type": "function",
      "name": "underlyingToken",
      "inputs": [],
      "outputs": [
        {
          "name": "",
          "type": "address",
          "internalType": "contract IERC20"
        }
      ],
      "stateMutability": "view"
    },
    {
      "type": "function",
      "name": "unpause",
      "inputs": [
        {
          "name": "newPausedStatus",
          "type": "uint256",
          "internalType": "uint256"
        }
      ],
      "outputs": [],
      "stateMutability": "nonpayable"
    },
    {
      "type": "function",
      "name": "userUnderlying",
      "inputs": [
        {
          "name": "user",
          "type": "address",
          "internalType": "address"
        }
      ],
      "outputs": [
        {
          "name": "",
          "type": "uint256",
          "internalType": "uint256"
        }
      ],
      "stateMutability": "nonpayable"
    },
    {
      "type": "function",
      "name": "userUnderlyingView",
      "inputs": [
        {
          "name": "user",
          "type": "address",
          "internalType": "address"
        }
      ],
      "outputs": [
        {
          "name": "",
          "type": "uint256",
          "internalType": "uint256"
        }
      ],
      "stateMutability": "view"
    },
    {
      "type": "function",
      "name": "withdraw",
      "inputs": [
        {
          "name": "recipient",
          "type": "address",
          "internalType": "address"
        },
        {
          "name": "token",
          "type": "address",
          "internalType": "contract IERC20"
        },
        {
          "name": "amountShares",
          "type": "uint256",
          "internalType": "uint256"
        }
      ],
      "outputs": [
        {
          "name": "amountOut",
          "type": "uint256",
          "internalType": "uint256"
        }
      ],
      "stateMutability": "nonpayable"
    },
    {
      "type": "event",
      "name": "ExchangeRateEmitted",
      "inputs": [
        {
          "name": "rate",
          "type": "uint256",
          "indexed": false,
          "internalType": "uint256"
        }
      ],
      "anonymous": false
    },
    {
      "type": "event",
      "name": "Initialized",
      "inputs": [
        {
          "name": "version",
          "type": "uint8",
          "indexed": false,
          "internalType": "uint8"
        }
      ],
      "anonymous": false
    },
    {
      "type": "event",
      "name": "MaxPerDepositUpdated",
      "inputs": [
        {
          "name": "previousValue",
          "type": "uint256",
          "indexed": false,
          "internalType": "uint256"
        },
        {
          "name": "newValue",
          "type": "uint256",
          "indexed": false,
          "internalType": "uint256"
        }
      ],
      "anonymous": false
    },
    {
      "type": "event",
      "name": "MaxTotalDepositsUpdated",
      "inputs": [
        {
          "name": "previousValue",
          "type": "uint256",
          "indexed": false,
          "internalType": "uint256"
        },
        {
          "name": "newValue",
          "type": "uint256",
          "indexed": false,
          "internalType": "uint256"
        }
      ],
      "anonymous": false
    },
    {
      "type": "event",
      "name": "Paused",
      "inputs": [
        {
          "name": "account",
          "type": "address",
          "indexed": true,
          "internalType": "address"
        },
        {
          "name": "newPausedStatus",
          "type": "uint256",
          "indexed": false,
          "internalType": "uint256"
        }
      ],
      "anonymous": false
    },
    {
      "type": "event",
      "name": "StrategyTokenSet",
      "inputs": [
        {
          "name": "token",
          "type": "address",
          "indexed": false,
          "internalType": "contract IERC20"
        },
        {
          "name": "decimals",
          "type": "uint8",
          "indexed": false,
          "internalType": "uint8"
        }
      ],
      "anonymous": false
    },
    {
      "type": "event",
      "name": "Unpaused",
      "inputs": [
        {
          "name": "account",
          "type": "address",
          "indexed": true,
          "internalType": "address"
        },
        {
          "name": "newPausedStatus",
          "type": "uint256",
          "indexed": false,
          "internalType": "uint256"
        }
      ],
      "anonymous": false
    },
    {
      "type": "error",
      "name": "BalanceExceedsMaxTotalDeposits",
      "inputs": []
    },
    {
      "type": "error",
      "name": "CurrentlyPaused",
      "inputs": []
    },
    {
      "type": "error",
      "name": "InputAddressZero",
      "inputs": []
    },
    {
      "type": "error",
      "name": "InvalidNewPausedStatus",
      "inputs": []
    },
    {
      "type": "error",
      "name": "MaxPerDepositExceedsMax",
      "inputs": []
    },
    {
      "type": "error",
      "name": "NewSharesZero",
      "inputs": []
    },
    {
      "type": "error",
      "name": "OnlyPauser",
      "inputs": []
    },
    {
      "type": "error",
      "name": "OnlyStrategyManager",
      "inputs": []
    },
    {
      "type": "error",
      "name": "OnlyUnderlyingToken",
      "inputs": []
    },
    {
      "type": "error",
      "name": "OnlyUnpauser",
      "inputs": []
    },
    {
      "type": "error",
      "name": "TotalSharesExceedsMax",
      "inputs": []
    },
    {
      "type": "error",
      "name": "WithdrawalAmountExceedsTotalDeposits",
      "inputs": []
    }
  ],
  "bytecode": {
    "object": "0x60c060405234801561000f575f5ffd5b5060405161168e38038061168e83398101604081905261002e9161014f565b8181806001600160a01b038116610058576040516339b190bb60e11b815260040160405180910390fd5b6001600160a01b03908116608052821660a05261007361007c565b50505050610187565b5f54610100900460ff16156100e75760405162461bcd60e51b815260206004820152602760248201527f496e697469616c697a61626c653a20636f6e747261637420697320696e697469604482015266616c697a696e6760c81b606482015260840160405180910390fd5b5f5460ff90811614610136575f805460ff191660ff9081179091556040519081527f7f26b83ff96e1f2b6a682f133852f6798a09c465da95921460cefb38474024989060200160405180910390a15b565b6001600160a01b038116811461014c575f5ffd5b50565b5f5f60408385031215610160575f5ffd5b825161016b81610138565b602084015190925061017c81610138565b809150509250929050565b60805160a0516114bc6101d25f395f8181610215015281816103e5015281816104850152818161080d015261088f01525f81816102dd01528181610a2a0152610b9201526114bc5ff3fe608060405234801561000f575f5ffd5b50600436106101a1575f3560e01c806373e3c280116100f3578063c4d66de811610093578063df6fadc11161006e578063df6fadc114610386578063e3dae51c146103a1578063f3e73875146103b4578063fabc1cbc146103c7575f5ffd5b8063c4d66de81461034d578063ce7c2ac214610360578063d9caed1214610373575f5ffd5b80638c871019116100ce5780638c871019146102ff5780638f6a624014610312578063a6ab36f214610325578063ab5921e114610338575f5ffd5b806373e3c280146101a55780637a8b2637146102c5578063886f1195146102d8575f5ffd5b806343fe08b01161015e578063595c6a6711610139578063595c6a671461027d5780635ac86ab7146102855780635c975abb146102b457806361b01b5d146102bc575f5ffd5b806343fe08b01461024e57806347e7ef2414610257578063553ca5f81461026a575f5ffd5b806303e3e6eb146101a557806311c70c9d146101ba578063136439dd146101cd5780632495a599146101e057806339b70e38146102105780633a98ef3914610237575b5f5ffd5b6101b86101b33660046111a4565b6103da565b005b6101b86101c83660046111ce565b610427565b6101b86101db3660046111ee565b610439565b6032546101f3906001600160a01b031681565b6040516001600160a01b0390911681526020015b60405180910390f35b6101f37f000000000000000000000000000000000000000000000000000000000000000081565b61024060335481565b604051908152602001610207565b61024060645481565b6102406102653660046111a4565b61046f565b610240610278366004611205565b61059e565b6101b86105b1565b6102a4610293366004611235565b6001805460ff9092161b9081161490565b6040519015158152602001610207565b600154610240565b61024060655481565b6102406102d33660046111ee565b6105c5565b6101f37f000000000000000000000000000000000000000000000000000000000000000081565b61024061030d3660046111ee565b61060e565b610240610320366004611205565b610618565b6101b8610333366004611250565b610625565b610340610700565b6040516102079190611286565b6101b861035b366004611205565b610720565b61024061036e366004611205565b6107e6565b6102406103813660046112bb565b610878565b60645460655460408051928352602083019190915201610207565b6102406103af3660046111ee565b61097a565b6102406103c23660046111ee565b6109b1565b6101b86103d53660046111ee565b6109bb565b336001600160a01b037f00000000000000000000000000000000000000000000000000000000000000001614610423576040516348da714f60e01b815260040160405180910390fd5b5050565b61042f610a28565b6104238282610ad9565b610441610b7d565b60015481811681146104665760405163c61dca5d60e01b815260040160405180910390fd5b61042382610c20565b5f5f61047a81610c5d565b336001600160a01b037f000000000000000000000000000000000000000000000000000000000000000016146104c3576040516348da714f60e01b815260040160405180910390fd5b6104cd8484610c93565b6033545f6104dd6103e88361130d565b90505f6103e86104eb610cea565b6104f5919061130d565b90505f6105028783611320565b90508061050f8489611333565b610519919061134a565b9550855f0361053b57604051630c392ed360e11b815260040160405180910390fd5b610545868561130d565b60338190556f4b3b4ca85a86c47a098a223fffffffff101561057a57604051632f14e8a360e11b815260040160405180910390fd5b610593826103e860335461058e919061130d565b610d59565b505050505092915050565b5f6105ab6102d3836107e6565b92915050565b6105b9610b7d565b6105c35f19610c20565b565b5f5f6103e86033546105d7919061130d565b90505f6103e86105e5610cea565b6105ef919061130d565b9050816105fc8583611333565b610606919061134a565b949350505050565b5f6105ab8261097a565b5f6105ab6103c2836107e6565b5f54610100900460ff161580801561064357505f54600160ff909116105b8061065c5750303b15801561065c57505f5460ff166001145b6106815760405162461bcd60e51b815260040161067890611369565b60405180910390fd5b5f805460ff1916600117905580156106a2575f805461ff0019166101001790555b6106ac8484610ad9565b6106b582610da5565b80156106fa575f805461ff0019169055604051600181527f7f26b83ff96e1f2b6a682f133852f6798a09c465da95921460cefb38474024989060200160405180910390a15b50505050565b60606040518060800160405280604d815260200161143a604d9139905090565b5f54610100900460ff161580801561073e57505f54600160ff909116105b806107575750303b15801561075757505f5460ff166001145b6107735760405162461bcd60e51b815260040161067890611369565b5f805460ff191660011790558015610794575f805461ff0019166101001790555b61079d82610da5565b8015610423575f805461ff0019169055604051600181527f7f26b83ff96e1f2b6a682f133852f6798a09c465da95921460cefb3847402498906020015b60405180910390a15050565b60405163fe243a1760e01b81526001600160a01b0382811660048301523060248301525f917f00000000000000000000000000000000000000000000000000000000000000009091169063fe243a1790604401602060405180830381865afa158015610854573d5f5f3e3d5ffd5b505050506040513d601f19601f820116820180604052508101906105ab91906113b7565b5f600161088481610c5d565b336001600160a01b037f000000000000000000000000000000000000000000000000000000000000000016146108cd576040516348da714f60e01b815260040160405180910390fd5b6108d8858585610ef0565b603354808411156108fc57604051630b469df360e41b815260040160405180910390fd5b5f6109096103e88361130d565b90505f6103e8610917610cea565b610921919061130d565b90508161092e8783611333565b610938919061134a565b94506109448684611320565b6033556109646109548683611320565b6103e860335461058e919061130d565b61096f888887610f23565b505050509392505050565b5f5f6103e860335461098c919061130d565b90505f6103e861099a610cea565b6109a4919061130d565b9050806105fc8386611333565b5f6105ab826105c5565b6109c3610a28565b600154801982198116146109ea5760405163c61dca5d60e01b815260040160405180910390fd5b600182905560405182815233907f3582d1828e26bf56bd801502bc021ac0bc8afb57c826e4986b45593c8fad389c9060200160405180910390a25050565b7f00000000000000000000000000000000000000000000000000000000000000006001600160a01b031663eab66d7a6040518163ffffffff1660e01b8152600401602060405180830381865afa158015610a84573d5f5f3e3d5ffd5b505050506040513d601f19601f82011682018060405250810190610aa891906113ce565b6001600160a01b0316336001600160a01b0316146105c35760405163794821ff60e01b815260040160405180910390fd5b60645460408051918252602082018490527ff97ed4e083acac67830025ecbc756d8fe847cdbdca4cee3fe1e128e98b54ecb5910160405180910390a160655460408051918252602082018390527f6ab181e0440bfbf4bacdf2e99674735ce6638005490688c5f994f5399353e452910160405180910390a180821115610b725760405163052b07b760e21b815260040160405180910390fd5b606491909155606555565b60405163237dfb4760e11b81523360048201527f00000000000000000000000000000000000000000000000000000000000000006001600160a01b0316906346fbf68e90602401602060405180830381865afa158015610bdf573d5f5f3e3d5ffd5b505050506040513d601f19601f82011682018060405250810190610c0391906113e9565b6105c357604051631d77d47760e21b815260040160405180910390fd5b600181905560405181815233907fab40a374bc51de372200a8bc981af8c9ecdc08dfdaef0bb6e09f88f3c616ef3d9060200160405180910390a250565b610c72816001805460ff9092161b9081161490565b15610c905760405163840a48d560e01b815260040160405180910390fd5b50565b606454811115610cb65760405163052b07b760e21b815260040160405180910390fd5b606554610cc1610cea565b1115610ce05760405163d86bae6760e01b815260040160405180910390fd5b6104238282610f37565b6032546040516370a0823160e01b81523060048201525f916001600160a01b0316906370a0823190602401602060405180830381865afa158015610d30573d5f5f3e3d5ffd5b505050506040513d601f19601f82011682018060405250810190610d5491906113b7565b905090565b7fd2494f3479e5da49d386657c292c610b5b01df313d07c62eb0cfa49924a31be881610d8d84670de0b6b3a7640000611333565b610d97919061134a565b6040519081526020016107da565b5f54610100900460ff16610e0f5760405162461bcd60e51b815260206004820152602b60248201527f496e697469616c697a61626c653a20636f6e7472616374206973206e6f74206960448201526a6e697469616c697a696e6760a81b6064820152608401610678565b603280546001600160a01b0319166001600160a01b038316179055610e335f610c20565b7f1c540707b00eb5427b6b774fc799d756516a54aee108b64b327acc55af55750760325f9054906101000a90046001600160a01b0316826001600160a01b031663313ce5676040518163ffffffff1660e01b8152600401602060405180830381865afa158015610ea5573d5f5f3e3d5ffd5b505050506040513d601f19601f82011682018060405250810190610ec99190611408565b604080516001600160a01b03909316835260ff90911660208301520160405180910390a150565b6032546001600160a01b03838116911614610f1e57604051630312abdd60e61b815260040160405180910390fd5b505050565b610f1e6001600160a01b0383168483610f65565b6032546001600160a01b0383811691161461042357604051630312abdd60e61b815260040160405180910390fd5b604080516001600160a01b03848116602483015260448083018590528351808403909101815260649092018352602080830180516001600160e01b031663a9059cbb60e01b17905283518085019094528084527f5361666545524332303a206c6f772d6c6576656c2063616c6c206661696c656490840152610f1e928692915f91610ff4918516908490611073565b905080515f148061101457508080602001905181019061101491906113e9565b610f1e5760405162461bcd60e51b815260206004820152602a60248201527f5361666545524332303a204552433230206f7065726174696f6e20646964206e6044820152691bdd081cdd58d8d9595960b21b6064820152608401610678565b606061060684845f85855f5f866001600160a01b031685876040516110989190611423565b5f6040518083038185875af1925050503d805f81146110d2576040519150601f19603f3d011682016040523d82523d5f602084013e6110d7565b606091505b50915091506110e8878383876110f3565b979650505050505050565b606083156111615782515f0361115a576001600160a01b0385163b61115a5760405162461bcd60e51b815260206004820152601d60248201527f416464726573733a2063616c6c20746f206e6f6e2d636f6e74726163740000006044820152606401610678565b5081610606565b61060683838151156111765781518083602001fd5b8060405162461bcd60e51b81526004016106789190611286565b6001600160a01b0381168114610c90575f5ffd5b5f5f604083850312156111b5575f5ffd5b82356111c081611190565b946020939093013593505050565b5f5f604083850312156111df575f5ffd5b50508035926020909101359150565b5f602082840312156111fe575f5ffd5b5035919050565b5f60208284031215611215575f5ffd5b813561122081611190565b9392505050565b60ff81168114610c90575f5ffd5b5f60208284031215611245575f5ffd5b813561122081611227565b5f5f5f60608486031215611262575f5ffd5b8335925060208401359150604084013561127b81611190565b809150509250925092565b602081525f82518060208401528060208501604085015e5f604082850101526040601f19601f83011684010191505092915050565b5f5f5f606084860312156112cd575f5ffd5b83356112d881611190565b925060208401356112e881611190565b929592945050506040919091013590565b634e487b7160e01b5f52601160045260245ffd5b808201808211156105ab576105ab6112f9565b818103818111156105ab576105ab6112f9565b80820281158282048414176105ab576105ab6112f9565b5f8261136457634e487b7160e01b5f52601260045260245ffd5b500490565b6020808252602e908201527f496e697469616c697a61626c653a20636f6e747261637420697320616c72656160408201526d191e481a5b9a5d1a585b1a5e995960921b606082015260800190565b5f602082840312156113c7575f5ffd5b5051919050565b5f602082840312156113de575f5ffd5b815161122081611190565b5f602082840312156113f9575f5ffd5b81518015158114611220575f5ffd5b5f60208284031215611418575f5ffd5b815161122081611227565b5f82518060208501845e5f92019182525091905056fe4261736520537472617465677920696d706c656d656e746174696f6e20746f20696e68657269742066726f6d20666f72206d6f726520636f6d706c657820696d706c656d656e746174696f6e73a2646970667358221220376a891b3700d3eae28d5932faaebcee6671a6353087d1edf844221ab7c7b8b164736f6c634300081e0033",
    "linkReferences": {}
  },
  "methodIdentifiers": {
    "beforeAddShares(address,uint256)": "73e3c280",
    "beforeRemoveShares(address,uint256)": "03e3e6eb",
    "deposit(address,uint256)": "47e7ef24",
    "explanation()": "ab5921e1",
    "getTVLLimits()": "df6fadc1",
    "initialize(address)": "c4d66de8",
    "initialize(uint256,uint256,address)": "a6ab36f2",
    "maxPerDeposit()": "43fe08b0",
    "maxTotalDeposits()": "61b01b5d",
    "pause(uint256)": "136439dd",
    "pauseAll()": "595c6a67",
    "paused()": "5c975abb",
    "paused(uint8)": "5ac86ab7",
    "pauserRegistry()": "886f1195",
    "setTVLLimits(uint256,uint256)": "11c70c9d",
    "shares(address)": "ce7c2ac2",
    "sharesToUnderlying(uint256)": "f3e73875",
    "sharesToUnderlyingView(uint256)": "7a8b2637",
    "strategyManager()": "39b70e38",
    "totalShares()": "3a98ef39",
    "underlyingToShares(uint256)": "8c871019",
    "underlyingToSharesView(uint256)": "e3dae51c",
    "underlyingToken()": "2495a599",
    "unpause(uint256)": "fabc1cbc",
    "userUnderlying(address)": "8f6a6240",
    "userUnderlyingView(address)": "553ca5f8",
    "withdraw(address,address,uint256)": "d9caed12"
  },
  "id": 220
}