{
  "abi": [
    {
      "type": "constructor",
      "inputs": [
        {
          "name": "_strategyManager",
          "type": "address",
          "internalType": "contract IStrategyManager"
        },
        {
          "name": "_pauserRegistry",
          "type": "address",
          "internalType": "contract IPauserRegistry"
        },
        {
          "name": "_strategyBeacon",
          "type": "address",
          "internalType": "contract IBeacon"
        },
        {
          "name": "_durationVaultBeacon",
          "type": "address",
          "internalType": "contract IBeacon"
        }
      ],
      "stateMutability": "nonpayable"
    },
    {
      "type": "function",
      "name": "blacklistTokens",
      "inputs": [
        {
          "name": "tokens",
          "type": "address[]",
          "internalType": "contract IERC20[]"
        }
      ],
      "outputs": [],
      "stateMutability": "nonpayable"
    },
    {
      "type": "function",
      "name": "deployDurationVaultStrategy",
      "inputs": [
        {
          "name": "config",
          "type": "tuple",
          "internalType": "struct IDurationVaultStrategyTypes.VaultConfig",
          "components": [
            {
              "name": "underlyingToken",
              "type": "address",
              "internalType": "contract IERC20"
            },
            {
              "name": "vaultAdmin",
              "type": "address",
              "internalType": "address"
            },
            {
              "name": "duration",
              "type": "uint32",
              "internalType": "uint32"
            },
            {
              "name": "maxPerDeposit",
              "type": "uint256",
              "internalType": "uint256"
            },
            {
              "name": "stakeCap",
              "type": "uint256",
              "internalType": "uint256"
            },
            {
              "name": "metadataURI",
              "type": "string",
              "internalType": "string"
            },
            {
              "name": "operatorSet",
              "type": "tuple",
              "internalType": "struct OperatorSet",
              "components": [
                {
                  "name": "avs",
                  "type": "address",
                  "internalType": "address"
                },
                {
                  "name": "id",
                  "type": "uint32",
                  "internalType": "uint32"
                }
              ]
            },
            {
              "name": "operatorSetRegistrationData",
              "type": "bytes",
              "internalType": "bytes"
            },
            {
              "name": "delegationApprover",
              "type": "address",
              "internalType": "address"
            },
            {
              "name": "operatorMetadataURI",
              "type": "string",
              "internalType": "string"
            }
          ]
        }
      ],
      "outputs": [
        {
          "name": "newVault",
          "type": "address",
          "internalType": "contract IDurationVaultStrategy"
        }
      ],
      "stateMutability": "nonpayable"
    },
    {
      "type": "function",
      "name": "deployNewStrategy",
      "inputs": [
        {
          "name": "token",
          "type": "address",
          "internalType": "contract IERC20"
        }
      ],
      "outputs": [
        {
          "name": "newStrategy",
          "type": "address",
          "internalType": "contract IStrategy"
        }
      ],
      "stateMutability": "nonpayable"
    },
    {
      "type": "function",
      "name": "deployedStrategies",
      "inputs": [
        {
          "name": "",
          "type": "address",
          "internalType": "contract IERC20"
        }
      ],
      "outputs": [
        {
          "name": "",
          "type": "address",
          "internalType": "contract IStrategy"
        }
      ],
      "stateMutability": "view"
    },
    {
      "type": "function",
      "name": "durationVaultBeacon",
      "inputs": [],
      "outputs": [
        {
          "name": "",
          "type": "address",
          "internalType": "contract IBeacon"
        }
      ],
      "stateMutability": "view"
    },
    {
      "type": "function",
      "name": "durationVaultsByToken",
      "inputs": [
        {
          "name": "",
          "type": "address",
          "internalType": "contract IERC20"
        },
        {
          "name": "",
          "type": "uint256",
          "internalType": "uint256"
        }
      ],
      "outputs": [
        {
          "name": "",
          "type": "address",
          "internalType": "contract IDurationVaultStrategy"
        }
      ],
      "stateMutability": "view"
    },
    {
      "type": "function",
      "name": "getDurationVaults",
      "inputs": [
        {
          "name": "token",
          "type": "address",
          "internalType": "contract IERC20"
        }
      ],
      "outputs": [
        {
          "name": "",
          "type": "address[]",
          "internalType": "contract IDurationVaultStrategy[]"
        }
      ],
      "stateMutability": "view"
    },
    {
      "type": "function",
      "name": "initialize",
      "inputs": [
        {
          "name": "_initialOwner",
          "type": "address",
          "internalType": "address"
        },
        {
          "name": "_initialPausedStatus",
          "type": "uint256",
          "internalType": "uint256"
        }
      ],
      "outputs": [],
      "stateMutability": "nonpayable"
    },
    {
      "type": "function",
      "name": "isBlacklisted",
      "inputs": [
        {
          "name": "",
          "type": "address",
          "internalType": "contract IERC20"
        }
      ],
      "outputs": [
        {
          "name": "",
          "type": "bool",
          "internalType": "bool"
        }
      ],
      "stateMutability": "view"
    },
    {
      "type": "function",
      "name": "owner",
      "inputs": [],
      "outputs": [
        {
          "name": "",
          "type": "address",
          "internalType": "address"
        }
      ],
      "stateMutability": "view"
    },
    {
      "type": "function",
      "name": "pause",
      "inputs": [
        {
          "name": "newPausedStatus",
          "type": "uint256",
          "internalType": "uint256"
        }
      ],
      "outputs": [],
      "stateMutability": "nonpayable"
    },
    {
      "type": "function",
      "name": "pauseAll",
      "inputs": [],
      "outputs": [],
      "stateMutability": "nonpayable"
    },
    {
      "type": "function",
      "name": "paused",
      "inputs": [
        {
          "name": "index",
          "type": "uint8",
          "internalType": "uint8"
        }
      ],
      "outputs": [
        {
          "name": "",
          "type": "bool",
          "internalType": "bool"
        }
      ],
      "stateMutability": "view"
    },
    {
      "type": "function",
      "name": "paused",
      "inputs": [],
      "outputs": [
        {
          "name": "",
          "type": "uint256",
          "internalType": "uint256"
        }
      ],
      "stateMutability": "view"
    },
    {
      "type": "function",
      "name": "pauserRegistry",
      "inputs": [],
      "outputs": [
        {
          "name": "",
          "type": "address",
          "internalType": "contract IPauserRegistry"
        }
      ],
      "stateMutability": "view"
    },
    {
      "type": "function",
      "name": "removeStrategiesFromWhitelist",
      "inputs": [
        {
          "name": "strategiesToRemoveFromWhitelist",
          "type": "address[]",
          "internalType": "contract IStrategy[]"
        }
      ],
      "outputs": [],
      "stateMutability": "nonpayable"
    },
    {
      "type": "function",
      "name": "renounceOwnership",
      "inputs": [],
      "outputs": [],
      "stateMutability": "nonpayable"
    },
    {
      "type": "function",
      "name": "strategyBeacon",
      "inputs": [],
      "outputs": [
        {
          "name": "",
          "type": "address",
          "internalType": "contract IBeacon"
        }
      ],
      "stateMutability": "view"
    },
    {
      "type": "function",
      "name": "strategyManager",
      "inputs": [],
      "outputs": [
        {
          "name": "",
          "type": "address",
          "internalType": "contract IStrategyManager"
        }
      ],
      "stateMutability": "view"
    },
    {
      "type": "function",
      "name": "transferOwnership",
      "inputs": [
        {
          "name": "newOwner",
          "type": "address",
          "internalType": "address"
        }
      ],
      "outputs": [],
      "stateMutability": "nonpayable"
    },
    {
      "type": "function",
      "name": "unpause",
      "inputs": [
        {
          "name": "newPausedStatus",
          "type": "uint256",
          "internalType": "uint256"
        }
      ],
      "outputs": [],
      "stateMutability": "nonpayable"
    },
    {
      "type": "function",
      "name": "whitelistStrategies",
      "inputs": [
        {
          "name": "strategiesToWhitelist",
          "type": "address[]",
          "internalType": "contract IStrategy[]"
        }
      ],
      "outputs": [],
      "stateMutability": "nonpayable"
    },
    {
      "type": "event",
      "name": "DurationVaultDeployed",
      "inputs": [
        {
          "name": "vault",
          "type": "address",
          "indexed": true,
          "internalType": "contract IDurationVaultStrategy"
        },
        {
          "name": "underlyingToken",
          "type": "address",
          "indexed": true,
          "internalType": "contract IERC20"
        },
        {
          "name": "vaultAdmin",
          "type": "address",
          "indexed": true,
          "internalType": "address"
        },
        {
          "name": "duration",
          "type": "uint32",
          "indexed": false,
          "internalType": "uint32"
        },
        {
          "name": "maxPerDeposit",
          "type": "uint256",
          "indexed": false,
          "internalType": "uint256"
        },
        {
          "name": "stakeCap",
          "type": "uint256",
          "indexed": false,
          "internalType": "uint256"
        },
        {
          "name": "metadataURI",
          "type": "string",
          "indexed": false,
          "internalType": "string"
        },
        {
          "name": "operatorSetAVS",
          "type": "address",
          "indexed": false,
          "internalType": "address"
        },
        {
          "name": "operatorSetId",
          "type": "uint32",
          "indexed": false,
          "internalType": "uint32"
        }
      ],
      "anonymous": false
    },
    {
      "type": "event",
      "name": "Initialized",
      "inputs": [
        {
          "name": "version",
          "type": "uint8",
          "indexed": false,
          "internalType": "uint8"
        }
      ],
      "anonymous": false
    },
    {
      "type": "event",
      "name": "OwnershipTransferred",
      "inputs": [
        {
          "name": "previousOwner",
          "type": "address",
          "indexed": true,
          "internalType": "address"
        },
        {
          "name": "newOwner",
          "type": "address",
          "indexed": true,
          "internalType": "address"
        }
      ],
      "anonymous": false
    },
    {
      "type": "event",
      "name": "Paused",
      "inputs": [
        {
          "name": "account",
          "type": "address",
          "indexed": true,
          "internalType": "address"
        },
        {
          "name": "newPausedStatus",
          "type": "uint256",
          "indexed": false,
          "internalType": "uint256"
        }
      ],
      "anonymous": false
    },
    {
      "type": "event",
      "name": "StrategySetForToken",
      "inputs": [
        {
          "name": "token",
          "type": "address",
          "indexed": false,
          "internalType": "contract IERC20"
        },
        {
          "name": "strategy",
          "type": "address",
          "indexed": false,
          "internalType": "contract IStrategy"
        }
      ],
      "anonymous": false
    },
    {
      "type": "event",
      "name": "TokenBlacklisted",
      "inputs": [
        {
          "name": "token",
          "type": "address",
          "indexed": false,
          "internalType": "contract IERC20"
        }
      ],
      "anonymous": false
    },
    {
      "type": "event",
      "name": "Unpaused",
      "inputs": [
        {
          "name": "account",
          "type": "address",
          "indexed": true,
          "internalType": "address"
        },
        {
          "name": "newPausedStatus",
          "type": "uint256",
          "indexed": false,
          "internalType": "uint256"
        }
      ],
      "anonymous": false
    },
    {
      "type": "error",
      "name": "AlreadyBlacklisted",
      "inputs": []
    },
    {
      "type": "error",
      "name": "BlacklistedToken",
      "inputs": []
    },
    {
      "type": "error",
      "name": "CurrentlyPaused",
      "inputs": []
    },
    {
      "type": "error",
      "name": "InputAddressZero",
      "inputs": []
    },
    {
      "type": "error",
      "name": "InvalidNewPausedStatus",
      "inputs": []
    },
    {
      "type": "error",
      "name": "OnlyPauser",
      "inputs": []
    },
    {
      "type": "error",
      "name": "OnlyUnpauser",
      "inputs": []
    },
    {
      "type": "error",
      "name": "StrategyAlreadyExists",
      "inputs": []
    }
  ],
  "bytecode": {
    "object": "0x610100604052348015610010575f5ffd5b50604051611f9d380380611f9d83398101604081905261002f9161015d565b826001600160a01b038116610057576040516339b190bb60e11b815260040160405180910390fd5b6001600160a01b0390811660805284811660a05282811660c052811660e05261007e610087565b505050506101b9565b603354610100900460ff16156100f35760405162461bcd60e51b815260206004820152602760248201527f496e697469616c697a61626c653a20636f6e747261637420697320696e697469604482015266616c697a696e6760c81b606482015260840160405180910390fd5b60335460ff90811614610144576033805460ff191660ff9081179091556040519081527f7f26b83ff96e1f2b6a682f133852f6798a09c465da95921460cefb38474024989060200160405180910390a15b565b6001600160a01b038116811461015a575f5ffd5b50565b5f5f5f5f60808587031215610170575f5ffd5b845161017b81610146565b602086015190945061018c81610146565b604086015190935061019d81610146565b60608601519092506101ae81610146565b939692955090935050565b60805160a05160c05160e051611d7261022b5f395f818161029f01526103e001525f818161030c015261095f01525f81816101b101528181610514015281816107ea01528181610a1201528181610b220152610db101525f818161026701528181610ee101526110c30152611d725ff3fe608060405234801561000f575f5ffd5b506004361061013d575f3560e01c8063886f1195116100b4578063cd6dc68711610079578063cd6dc687146102f4578063f0062d9a14610307578063f2fde38b1461032e578063fabc1cbc14610341578063fe38b32d14610354578063fe575a8714610367575f5ffd5b8063886f1195146102625780638da5cb5b146102895780639e4f2dcd1461029a578063a5dae840146102c1578063b768ebc9146102e1575f5ffd5b8063581dfd6511610105578063581dfd65146101d3578063595c6a67146101fb5780635ac86ab7146102035780635c975abb146102365780636b9b622914610247578063715018a61461025a575f5ffd5b80630c7cecc114610141578063136439dd1461017157806323103c41146101865780633101d5311461019957806339b70e38146101ac575b5f5ffd5b61015461014f36600461117f565b610389565b6040516001600160a01b0390911681526020015b60405180910390f35b61018461017f3660046111be565b61058b565b005b61018461019436600461121d565b6105c5565b6101546101a7366004611280565b610853565b6101547f000000000000000000000000000000000000000000000000000000000000000081565b6101546101e13660046112aa565b60016020525f90815260409020546001600160a01b031681565b610184610887565b6102266102113660046112c5565b609954600160ff9092169190911b9081161490565b6040519015158152602001610168565b609954604051908152602001610168565b6101546102553660046112aa565b61089b565b610184610a7f565b6101547f000000000000000000000000000000000000000000000000000000000000000081565b6066546001600160a01b0316610154565b6101547f000000000000000000000000000000000000000000000000000000000000000081565b6102d46102cf3660046112aa565b610a90565b60405161016891906112e5565b6101846102ef36600461121d565b610b03565b610184610302366004611280565b610b8a565b6101547f000000000000000000000000000000000000000000000000000000000000000081565b61018461033c3660046112aa565b610cac565b61018461034f3660046111be565b610d25565b61018461036236600461121d565b610d92565b6102266103753660046112aa565b60026020525f908152604090205460ff1681565b5f5f61039481610de8565b5f6103a260208501856112aa565b6001600160a01b0381165f9081526002602052604090205490915060ff16156103de5760405163091867bd60e11b815260040160405180910390fd5b7f00000000000000000000000000000000000000000000000000000000000000006373136c8160e01b8560405160240161041891906113de565b60408051601f198184030181529181526020820180516001600160e01b03166001600160e01b031990941693909317909252905161045590611172565b6104609291906114fd565b604051809103905ff080158015610479573d5f5f3e3d5ffd5b506001600160a01b038083165f9081526003602090815260408220805460018101825590835291200180546001600160a01b03191691831691909117905592506040805160018082528183019092525f9181602001602082028036833701905050905083815f815181106104ef576104ef611555565b6001600160a01b039283166020918202929092010152604051632ef047f960e11b81527f000000000000000000000000000000000000000000000000000000000000000090911690635de08ff29061054b9084906004016112e5565b5f604051808303815f87803b158015610562575f5ffd5b505af1158015610574573d5f5f3e3d5ffd5b50505050610583848387610e13565b505050919050565b610593610ecc565b60995481811681146105b85760405163c61dca5d60e01b815260040160405180910390fd5b6105c182610f6f565b5050565b6105cd610fac565b5f8167ffffffffffffffff8111156105e7576105e7611541565b604051908082528060200260200182016040528015610610578160200160208202803683370190505b5090505f805b838110156107c95760025f86868481811061063357610633611555565b905060200201602081019061064891906112aa565b6001600160a01b0316815260208101919091526040015f205460ff16156106825760405163f53de75f60e01b815260040160405180910390fd5b600160025f87878581811061069957610699611555565b90506020020160208101906106ae91906112aa565b6001600160a01b0316815260208101919091526040015f20805460ff19169115159190911790557f75519c51f39873ec0e27dd3bbc09549e4865a113f505393fb9eab5898f6418b385858381811061070857610708611555565b905060200201602081019061071d91906112aa565b6040516001600160a01b03909116815260200160405180910390a15f60015f87878581811061074e5761074e611555565b905060200201602081019061076391906112aa565b6001600160a01b03908116825260208201929092526040015f205416905080156107c0578084848151811061079a5761079a611555565b6001600160a01b0390921660209283029190910190910152826107bc81611569565b9350505b50600101610616565b50808252801561084d576040516316bb16b760e31b81526001600160a01b037f0000000000000000000000000000000000000000000000000000000000000000169063b5d8b5b89061081f9085906004016112e5565b5f604051808303815f87803b158015610836575f5ffd5b505af1158015610848573d5f5f3e3d5ffd5b505050505b50505050565b6003602052815f5260405f20818154811061086c575f80fd5b5f918252602090912001546001600160a01b03169150829050565b61088f610ecc565b6108995f19610f6f565b565b5f5f6108a681610de8565b6001600160a01b0383165f9081526002602052604090205460ff16156108df5760405163091867bd60e11b815260040160405180910390fd5b6001600160a01b038381165f9081526001602052604090205416156109175760405163c45546f760e01b815260040160405180910390fd5b604080516001600160a01b03851660248083019190915282518083039091018152604490910182526020810180516001600160e01b031663189acdbd60e31b17905290515f917f00000000000000000000000000000000000000000000000000000000000000009161098890611172565b6109939291906114fd565b604051809103905ff0801580156109ac573d5f5f3e3d5ffd5b5090506109b98482611006565b6040805160018082528183019092525f916020808301908036833701905050905081815f815181106109ed576109ed611555565b6001600160a01b039283166020918202929092010152604051632ef047f960e11b81527f000000000000000000000000000000000000000000000000000000000000000090911690635de08ff290610a499084906004016112e5565b5f604051808303815f87803b158015610a60575f5ffd5b505af1158015610a72573d5f5f3e3d5ffd5b5093979650505050505050565b610a87610fac565b6108995f611070565b6001600160a01b0381165f90815260036020908152604091829020805483518184028101840190945280845260609392830182828015610af757602002820191905f5260205f20905b81546001600160a01b03168152600190910190602001808311610ad9575b50505050509050919050565b610b0b610fac565b604051632ef047f960e11b81526001600160a01b037f00000000000000000000000000000000000000000000000000000000000000001690635de08ff290610b59908590859060040161158d565b5f604051808303815f87803b158015610b70575f5ffd5b505af1158015610b82573d5f5f3e3d5ffd5b505050505050565b603354610100900460ff1615808015610baa5750603354600160ff909116105b80610bc45750303b158015610bc4575060335460ff166001145b610c2c5760405162461bcd60e51b815260206004820152602e60248201527f496e697469616c697a61626c653a20636f6e747261637420697320616c72656160448201526d191e481a5b9a5d1a585b1a5e995960921b60648201526084015b60405180910390fd5b6033805460ff191660011790558015610c4f576033805461ff0019166101001790555b610c5883611070565b610c6182610f6f565b8015610ca7576033805461ff0019169055604051600181527f7f26b83ff96e1f2b6a682f133852f6798a09c465da95921460cefb38474024989060200160405180910390a15b505050565b610cb4610fac565b6001600160a01b038116610d195760405162461bcd60e51b815260206004820152602660248201527f4f776e61626c653a206e6577206f776e657220697320746865207a65726f206160448201526564647265737360d01b6064820152608401610c23565b610d2281611070565b50565b610d2d6110c1565b60995480198219811614610d545760405163c61dca5d60e01b815260040160405180910390fd5b609982905560405182815233907f3582d1828e26bf56bd801502bc021ac0bc8afb57c826e4986b45593c8fad389c9060200160405180910390a25050565b610d9a610fac565b6040516316bb16b760e31b81526001600160a01b037f0000000000000000000000000000000000000000000000000000000000000000169063b5d8b5b890610b59908590859060040161158d565b609954600160ff83161b90811603610d225760405163840a48d560e01b815260040160405180910390fd5b610e2360408201602083016112aa565b6001600160a01b0316826001600160a01b0316846001600160a01b03167f6c9e2cbc6fcd0f5b21ee2edb38f3421d7538cd98b8ff00803f81879345568504846040016020810190610e7491906115d9565b60608601356080870135610e8b60a08901896115f2565b610e9b60e08b0160c08c016112aa565b610eac6101008c0160e08d016115d9565b604051610ebf9796959493929190611635565b60405180910390a4505050565b60405163237dfb4760e11b81523360048201527f00000000000000000000000000000000000000000000000000000000000000006001600160a01b0316906346fbf68e90602401602060405180830381865afa158015610f2e573d5f5f3e3d5ffd5b505050506040513d601f19601f82011682018060405250810190610f52919061168a565b61089957604051631d77d47760e21b815260040160405180910390fd5b609981905560405181815233907fab40a374bc51de372200a8bc981af8c9ecdc08dfdaef0bb6e09f88f3c616ef3d9060200160405180910390a250565b6066546001600160a01b031633146108995760405162461bcd60e51b815260206004820181905260248201527f4f776e61626c653a2063616c6c6572206973206e6f7420746865206f776e65726044820152606401610c23565b6001600160a01b038281165f8181526001602090815260409182902080546001600160a01b031916948616948517905581519283528201929092527f6852a55230ef089d785bce7ffbf757985de34026df90a87d7b4a6e56f95d251f910160405180910390a15050565b606680546001600160a01b038381166001600160a01b0319831681179093556040519116919082907f8be0079c531659141344cd1fd0a4f28419497f9722a3daafe3b4186f6b6457e0905f90a35050565b7f00000000000000000000000000000000000000000000000000000000000000006001600160a01b031663eab66d7a6040518163ffffffff1660e01b8152600401602060405180830381865afa15801561111d573d5f5f3e3d5ffd5b505050506040513d601f19601f8201168201806040525081019061114191906116a9565b6001600160a01b0316336001600160a01b0316146108995760405163794821ff60e01b815260040160405180910390fd5b610678806116c583390190565b5f6020828403121561118f575f5ffd5b813567ffffffffffffffff8111156111a5575f5ffd5b820161016081850312156111b7575f5ffd5b9392505050565b5f602082840312156111ce575f5ffd5b5035919050565b5f5f83601f8401126111e5575f5ffd5b50813567ffffffffffffffff8111156111fc575f5ffd5b6020830191508360208260051b8501011115611216575f5ffd5b9250929050565b5f5f6020838503121561122e575f5ffd5b823567ffffffffffffffff811115611244575f5ffd5b611250858286016111d5565b90969095509350505050565b6001600160a01b0381168114610d22575f5ffd5b803561127b8161125c565b919050565b5f5f60408385031215611291575f5ffd5b823561129c8161125c565b946020939093013593505050565b5f602082840312156112ba575f5ffd5b81356111b78161125c565b5f602082840312156112d5575f5ffd5b813560ff811681146111b7575f5ffd5b602080825282518282018190525f918401906040840190835b818110156113255783516001600160a01b03168352602093840193909201916001016112fe565b509095945050505050565b803563ffffffff8116811461127b575f5ffd5b5f5f8335601e19843603018112611358575f5ffd5b830160208101925035905067ffffffffffffffff811115611377575f5ffd5b803603821315611216575f5ffd5b81835281816020850137505f828201602090810191909152601f909101601f19169091010190565b80356113b88161125c565b6001600160a01b0316825263ffffffff6113d460208301611330565b1660208301525050565b602081526113ff602082016113f284611270565b6001600160a01b03169052565b5f61140c60208401611270565b6001600160a01b03811660408401525061142860408401611330565b63ffffffff8116606084015250606083013560808381019190915283013560a08084019190915261145b90840184611343565b61016060c085015261147261018085018284611385565b91505061148560e0840160c086016113ad565b611493610100850185611343565b848303601f19016101208601526114ab838284611385565b925050506114bc6101208501611270565b6001600160a01b038116610140850152506114db610140850185611343565b848303601f19016101608601526114f3838284611385565b9695505050505050565b60018060a01b0383168152604060208201525f82518060408401528060208501606085015e5f606082850101526060601f19601f8301168401019150509392505050565b634e487b7160e01b5f52604160045260245ffd5b634e487b7160e01b5f52603260045260245ffd5b5f6001820161158657634e487b7160e01b5f52601160045260245ffd5b5060010190565b602080825281018290525f8360408301825b858110156115cf5782356115b28161125c565b6001600160a01b031682526020928301929091019060010161159f565b5095945050505050565b5f602082840312156115e9575f5ffd5b6111b782611330565b5f5f8335601e19843603018112611607575f5ffd5b83018035915067ffffffffffffffff821115611621575f5ffd5b602001915036819003821315611216575f5ffd5b63ffffffff8816815286602082015285604082015260c060608201525f61166060c083018688611385565b6001600160a01b039490941660808301525063ffffffff9190911660a09091015295945050505050565b5f6020828403121561169a575f5ffd5b815180151581146111b7575f5ffd5b5f602082840312156116b9575f5ffd5b81516111b78161125c56fe6080604052604051610678380380610678833981016040819052610022916103ed565b61002d82825f610034565b5050610513565b61003d836100f1565b6040516001600160a01b038416907f1cf3b03a6cf19fa2baba4df148e9dcabedea7f8a5c07840e207e5c089be95d3e905f90a25f8251118061007c5750805b156100ec576100ea836001600160a01b0316635c60da1b6040518163ffffffff1660e01b8152600401602060405180830381865afa1580156100c0573d5f5f3e3d5ffd5b505050506040513d601f19601f820116820180604052508101906100e491906104af565b83610273565b505b505050565b6001600160a01b0381163b61015b5760405162461bcd60e51b815260206004820152602560248201527f455243313936373a206e657720626561636f6e206973206e6f74206120636f6e6044820152641d1c9858dd60da1b60648201526084015b60405180910390fd5b6101cd816001600160a01b0316635c60da1b6040518163ffffffff1660e01b8152600401602060405180830381865afa15801561019a573d5f5f3e3d5ffd5b505050506040513d601f19601f820116820180604052508101906101be91906104af565b6001600160a01b03163b151590565b6102325760405162461bcd60e51b815260206004820152603060248201527f455243313936373a20626561636f6e20696d706c656d656e746174696f6e206960448201526f1cc81b9bdd08184818dbdb9d1c9858dd60821b6064820152608401610152565b7fa3f0ad74e5423aebfd80d3ef4346578335a9a72aeaee59ff6cb3582b35133d5080546001600160a01b0319166001600160a01b0392909216919091179055565b606061029883836040518060600160405280602781526020016106516027913961029f565b9392505050565b60605f5f856001600160a01b0316856040516102bb91906104c8565b5f60405180830381855af49150503d805f81146102f3576040519150601f19603f3d011682016040523d82523d5f602084013e6102f8565b606091505b50909250905061030a86838387610314565b9695505050505050565b606083156103825782515f0361037b576001600160a01b0385163b61037b5760405162461bcd60e51b815260206004820152601d60248201527f416464726573733a2063616c6c20746f206e6f6e2d636f6e74726163740000006044820152606401610152565b508161038c565b61038c8383610394565b949350505050565b8151156103a45781518083602001fd5b8060405162461bcd60e51b815260040161015291906104de565b80516001600160a01b03811681146103d4575f5ffd5b919050565b634e487b7160e01b5f52604160045260245ffd5b5f5f604083850312156103fe575f5ffd5b610407836103be565b60208401519092506001600160401b03811115610422575f5ffd5b8301601f81018513610432575f5ffd5b80516001600160401b0381111561044b5761044b6103d9565b604051601f8201601f19908116603f011681016001600160401b0381118282101715610479576104796103d9565b604052818152828201602001871015610490575f5ffd5b8160208401602083015e5f602083830101528093505050509250929050565b5f602082840312156104bf575f5ffd5b610298826103be565b5f82518060208501845e5f920191825250919050565b602081525f82518060208401528060208501604085015e5f604082850101526040601f19601f83011684010191505092915050565b610131806105205f395ff3fe608060405236601057600e6013565b005b600e5b601f601b6021565b60b3565b565b5f60527fa3f0ad74e5423aebfd80d3ef4346578335a9a72aeaee59ff6cb3582b35133d50546001600160a01b031690565b6001600160a01b0316635c60da1b6040518163ffffffff1660e01b8152600401602060405180830381865afa158015608c573d5f5f3e3d5ffd5b505050506040513d601f19601f8201168201806040525081019060ae919060d0565b905090565b365f5f375f5f365f845af43d5f5f3e80801560cc573d5ff35b3d5ffd5b5f6020828403121560df575f5ffd5b81516001600160a01b038116811460f4575f5ffd5b939250505056fea26469706673582212207b94aecb5f7696f142cc1acc4dea07c18e8f9d41766baf4a3c001a89adb8a8a764736f6c634300081e0033416464726573733a206c6f772d6c6576656c2064656c65676174652063616c6c206661696c6564a2646970667358221220488984e634803d9a3ba36c6f00caf4a7254f66cae19d0794e473b59f260ac85d64736f6c634300081e0033",
    "linkReferences": {}
  },
  "methodIdentifiers": {
    "blacklistTokens(address[])": "23103c41",
    "deployDurationVaultStrategy((address,address,uint32,uint256,uint256,string,(address,uint32),bytes,address,string))": "0c7cecc1",
    "deployNewStrategy(address)": "6b9b6229",
    "deployedStrategies(address)": "581dfd65",
    "durationVaultBeacon()": "9e4f2dcd",
    "durationVaultsByToken(address,uint256)": "3101d531",
    "getDurationVaults(address)": "a5dae840",
    "initialize(address,uint256)": "cd6dc687",
    "isBlacklisted(address)": "fe575a87",
    "owner()": "8da5cb5b",
    "pause(uint256)": "136439dd",
    "pauseAll()": "595c6a67",
    "paused()": "5c975abb",
    "paused(uint8)": "5ac86ab7",
    "pauserRegistry()": "886f1195",
    "removeStrategiesFromWhitelist(address[])": "fe38b32d",
    "renounceOwnership()": "715018a6",
    "strategyBeacon()": "f0062d9a",
    "strategyManager()": "39b70e38",
    "transferOwnership(address)": "f2fde38b",
    "unpause(uint256)": "fabc1cbc",
    "whitelistStrategies(address[])": "b768ebc9"
  },
  "id": 207
}