{
  "abi": [
    {
      "type": "constructor",
      "inputs": [],
      "stateMutability": "nonpayable"
    },
    {
      "type": "function",
      "name": "DEFAULT_ADMIN_ROLE",
      "inputs": [],
      "outputs": [
        {
          "name": "",
          "type": "bytes32",
          "internalType": "bytes32"
        }
      ],
      "stateMutability": "view"
    },
    {
      "type": "function",
      "name": "PAUSER_ROLE",
      "inputs": [],
      "outputs": [
        {
          "name": "",
          "type": "bytes32",
          "internalType": "bytes32"
        }
      ],
      "stateMutability": "view"
    },
    {
      "type": "function",
      "name": "configure",
      "inputs": [
        {
          "name": "addr",
          "type": "address",
          "internalType": "address"
        },
        {
          "name": "config",
          "type": "tuple",
          "internalType": "struct IProtocolRegistryTypes.DeploymentConfig",
          "components": [
            {
              "name": "pausable",
              "type": "bool",
              "internalType": "bool"
            },
            {
              "name": "deprecated",
              "type": "bool",
              "internalType": "bool"
            }
          ]
        }
      ],
      "outputs": [],
      "stateMutability": "nonpayable"
    },
    {
      "type": "function",
      "name": "getAddress",
      "inputs": [
        {
          "name": "name",
          "type": "string",
          "internalType": "string"
        }
      ],
      "outputs": [
        {
          "name": "",
          "type": "address",
          "internalType": "address"
        }
      ],
      "stateMutability": "view"
    },
    {
      "type": "function",
      "name": "getAllDeployments",
      "inputs": [],
      "outputs": [
        {
          "name": "names",
          "type": "string[]",
          "internalType": "string[]"
        },
        {
          "name": "addresses",
          "type": "address[]",
          "internalType": "address[]"
        },
        {
          "name": "configs",
          "type": "tuple[]",
          "internalType": "struct IProtocolRegistryTypes.DeploymentConfig[]",
          "components": [
            {
              "name": "pausable",
              "type": "bool",
              "internalType": "bool"
            },
            {
              "name": "deprecated",
              "type": "bool",
              "internalType": "bool"
            }
          ]
        }
      ],
      "stateMutability": "view"
    },
    {
      "type": "function",
      "name": "getDeployment",
      "inputs": [
        {
          "name": "name",
          "type": "string",
          "internalType": "string"
        }
      ],
      "outputs": [
        {
          "name": "addr",
          "type": "address",
          "internalType": "address"
        },
        {
          "name": "config",
          "type": "tuple",
          "internalType": "struct IProtocolRegistryTypes.DeploymentConfig",
          "components": [
            {
              "name": "pausable",
              "type": "bool",
              "internalType": "bool"
            },
            {
              "name": "deprecated",
              "type": "bool",
              "internalType": "bool"
            }
          ]
        }
      ],
      "stateMutability": "view"
    },
    {
      "type": "function",
      "name": "getRoleAdmin",
      "inputs": [
        {
          "name": "role",
          "type": "bytes32",
          "internalType": "bytes32"
        }
      ],
      "outputs": [
        {
          "name": "",
          "type": "bytes32",
          "internalType": "bytes32"
        }
      ],
      "stateMutability": "view"
    },
    {
      "type": "function",
      "name": "getRoleMember",
      "inputs": [
        {
          "name": "role",
          "type": "bytes32",
          "internalType": "bytes32"
        },
        {
          "name": "index",
          "type": "uint256",
          "internalType": "uint256"
        }
      ],
      "outputs": [
        {
          "name": "",
          "type": "address",
          "internalType": "address"
        }
      ],
      "stateMutability": "view"
    },
    {
      "type": "function",
      "name": "getRoleMemberCount",
      "inputs": [
        {
          "name": "role",
          "type": "bytes32",
          "internalType": "bytes32"
        }
      ],
      "outputs": [
        {
          "name": "",
          "type": "uint256",
          "internalType": "uint256"
        }
      ],
      "stateMutability": "view"
    },
    {
      "type": "function",
      "name": "grantRole",
      "inputs": [
        {
          "name": "role",
          "type": "bytes32",
          "internalType": "bytes32"
        },
        {
          "name": "account",
          "type": "address",
          "internalType": "address"
        }
      ],
      "outputs": [],
      "stateMutability": "nonpayable"
    },
    {
      "type": "function",
      "name": "hasRole",
      "inputs": [
        {
          "name": "role",
          "type": "bytes32",
          "internalType": "bytes32"
        },
        {
          "name": "account",
          "type": "address",
          "internalType": "address"
        }
      ],
      "outputs": [
        {
          "name": "",
          "type": "bool",
          "internalType": "bool"
        }
      ],
      "stateMutability": "view"
    },
    {
      "type": "function",
      "name": "initialize",
      "inputs": [
        {
          "name": "initialAdmin",
          "type": "address",
          "internalType": "address"
        },
        {
          "name": "pauserMultisig",
          "type": "address",
          "internalType": "address"
        }
      ],
      "outputs": [],
      "stateMutability": "nonpayable"
    },
    {
      "type": "function",
      "name": "majorVersion",
      "inputs": [],
      "outputs": [
        {
          "name": "",
          "type": "string",
          "internalType": "string"
        }
      ],
      "stateMutability": "view"
    },
    {
      "type": "function",
      "name": "pauseAll",
      "inputs": [],
      "outputs": [],
      "stateMutability": "nonpayable"
    },
    {
      "type": "function",
      "name": "renounceRole",
      "inputs": [
        {
          "name": "role",
          "type": "bytes32",
          "internalType": "bytes32"
        },
        {
          "name": "account",
          "type": "address",
          "internalType": "address"
        }
      ],
      "outputs": [],
      "stateMutability": "nonpayable"
    },
    {
      "type": "function",
      "name": "revokeRole",
      "inputs": [
        {
          "name": "role",
          "type": "bytes32",
          "internalType": "bytes32"
        },
        {
          "name": "account",
          "type": "address",
          "internalType": "address"
        }
      ],
      "outputs": [],
      "stateMutability": "nonpayable"
    },
    {
      "type": "function",
      "name": "ship",
      "inputs": [
        {
          "name": "addresses",
          "type": "address[]",
          "internalType": "address[]"
        },
        {
          "name": "configs",
          "type": "tuple[]",
          "internalType": "struct IProtocolRegistryTypes.DeploymentConfig[]",
          "components": [
            {
              "name": "pausable",
              "type": "bool",
              "internalType": "bool"
            },
            {
              "name": "deprecated",
              "type": "bool",
              "internalType": "bool"
            }
          ]
        },
        {
          "name": "names",
          "type": "string[]",
          "internalType": "string[]"
        },
        {
          "name": "semanticVersion",
          "type": "string",
          "internalType": "string"
        }
      ],
      "outputs": [],
      "stateMutability": "nonpayable"
    },
    {
      "type": "function",
      "name": "supportsInterface",
      "inputs": [
        {
          "name": "interfaceId",
          "type": "bytes4",
          "internalType": "bytes4"
        }
      ],
      "outputs": [
        {
          "name": "",
          "type": "bool",
          "internalType": "bool"
        }
      ],
      "stateMutability": "view"
    },
    {
      "type": "function",
      "name": "totalDeployments",
      "inputs": [],
      "outputs": [
        {
          "name": "",
          "type": "uint256",
          "internalType": "uint256"
        }
      ],
      "stateMutability": "view"
    },
    {
      "type": "function",
      "name": "version",
      "inputs": [],
      "outputs": [
        {
          "name": "",
          "type": "string",
          "internalType": "string"
        }
      ],
      "stateMutability": "view"
    },
    {
      "type": "event",
      "name": "DeploymentConfigured",
      "inputs": [
        {
          "name": "addr",
          "type": "address",
          "indexed": true,
          "internalType": "address"
        },
        {
          "name": "config",
          "type": "tuple",
          "indexed": false,
          "internalType": "struct IProtocolRegistryTypes.DeploymentConfig",
          "components": [
            {
              "name": "pausable",
              "type": "bool",
              "internalType": "bool"
            },
            {
              "name": "deprecated",
              "type": "bool",
              "internalType": "bool"
            }
          ]
        }
      ],
      "anonymous": false
    },
    {
      "type": "event",
      "name": "DeploymentShipped",
      "inputs": [
        {
          "name": "addr",
          "type": "address",
          "indexed": true,
          "internalType": "address"
        },
        {
          "name": "config",
          "type": "tuple",
          "indexed": false,
          "internalType": "struct IProtocolRegistryTypes.DeploymentConfig",
          "components": [
            {
              "name": "pausable",
              "type": "bool",
              "internalType": "bool"
            },
            {
              "name": "deprecated",
              "type": "bool",
              "internalType": "bool"
            }
          ]
        }
      ],
      "anonymous": false
    },
    {
      "type": "event",
      "name": "Initialized",
      "inputs": [
        {
          "name": "version",
          "type": "uint8",
          "indexed": false,
          "internalType": "uint8"
        }
      ],
      "anonymous": false
    },
    {
      "type": "event",
      "name": "RoleAdminChanged",
      "inputs": [
        {
          "name": "role",
          "type": "bytes32",
          "indexed": true,
          "internalType": "bytes32"
        },
        {
          "name": "previousAdminRole",
          "type": "bytes32",
          "indexed": true,
          "internalType": "bytes32"
        },
        {
          "name": "newAdminRole",
          "type": "bytes32",
          "indexed": true,
          "internalType": "bytes32"
        }
      ],
      "anonymous": false
    },
    {
      "type": "event",
      "name": "RoleGranted",
      "inputs": [
        {
          "name": "role",
          "type": "bytes32",
          "indexed": true,
          "internalType": "bytes32"
        },
        {
          "name": "account",
          "type": "address",
          "indexed": true,
          "internalType": "address"
        },
        {
          "name": "sender",
          "type": "address",
          "indexed": true,
          "internalType": "address"
        }
      ],
      "anonymous": false
    },
    {
      "type": "event",
      "name": "RoleRevoked",
      "inputs": [
        {
          "name": "role",
          "type": "bytes32",
          "indexed": true,
          "internalType": "bytes32"
        },
        {
          "name": "account",
          "type": "address",
          "indexed": true,
          "internalType": "address"
        },
        {
          "name": "sender",
          "type": "address",
          "indexed": true,
          "internalType": "address"
        }
      ],
      "anonymous": false
    },
    {
      "type": "event",
      "name": "SemanticVersionUpdated",
      "inputs": [
        {
          "name": "previousSemanticVersion",
          "type": "string",
          "indexed": false,
          "internalType": "string"
        },
        {
          "name": "semanticVersion",
          "type": "string",
          "indexed": false,
          "internalType": "string"
        }
      ],
      "anonymous": false
    },
    {
      "type": "error",
      "name": "InvalidShortString",
      "inputs": []
    },
    {
      "type": "error",
      "name": "StringTooLong",
      "inputs": [
        {
          "name": "str",
          "type": "string",
          "internalType": "string"
        }
      ]
    }
  ],
  "bytecode": {
    "object": "0x6080604052348015600e575f5ffd5b5060156019565b60d3565b5f54610100900460ff161560835760405162461bcd60e51b815260206004820152602760248201527f496e697469616c697a61626c653a20636f6e747261637420697320696e697469604482015266616c697a696e6760c81b606482015260840160405180910390fd5b5f5460ff9081161460d1575f805460ff191660ff9081179091556040519081527f7f26b83ff96e1f2b6a682f133852f6798a09c465da95921460cefb38474024989060200160405180910390a15b565b611955806100e05f395ff3fe608060405234801561000f575f5ffd5b5060043610610127575f3560e01c8063a217fddf116100a9578063d34663891161006e578063d346638914610286578063d547741f14610299578063e63ab1e9146102ac578063fb35b4e4146102b7578063fc434a8a146102bf575f5ffd5b8063a217fddf14610230578063a8091d9714610237578063af05a5c514610258578063bf40fac114610260578063ca15c87314610273575f5ffd5b806354fd4d50116100ef57806354fd4d50146101be578063595c6a67146101d35780638eec00b8146101db5780639010d07c146101f257806391d148541461021d575f5ffd5b806301ffc9a71461012b578063248a9ca3146101535780632f2ff15d1461018357806336568abe14610198578063485cc955146101ab575b5f5ffd5b61013e610139366004611288565b6102d2565b60405190151581526020015b60405180910390f35b6101756101613660046112af565b5f9081526065602052604090206001015490565b60405190815260200161014a565b6101966101913660046112e1565b6102fc565b005b6101966101a63660046112e1565b610325565b6101966101b936600461130b565b6103a8565b6101c66104c5565b60405161014a9190611361565b6101966104d7565b6101e36105b7565b60405161014a939291906113c6565b610205610200366004611483565b61078a565b6040516001600160a01b03909116815260200161014a565b61013e61022b3660046112e1565b6107a8565b6101755f81565b61024a6102453660046114e0565b6107d2565b60405161014a92919061151e565b6101c661087e565b61020561026e3660046114e0565b6108d5565b6101756102813660046112af565b61091a565b610196610294366004611549565b610930565b6101966102a73660046112e1565b6109a6565b610175600160f81b81565b6101756109ca565b6101966102cd3660046115c5565b6109d5565b5f6001600160e01b03198216635a05180f60e01b14806102f657506102f682610a72565b92915050565b5f8281526065602052604090206001015461031681610aa6565b6103208383610ab3565b505050565b6001600160a01b038116331461039a5760405162461bcd60e51b815260206004820152602f60248201527f416363657373436f6e74726f6c3a2063616e206f6e6c792072656e6f756e636560448201526e103937b632b9903337b91039b2b63360891b60648201526084015b60405180910390fd5b6103a48282610ad4565b5050565b5f54610100900460ff16158080156103c657505f54600160ff909116105b806103df5750303b1580156103df57505f5460ff166001145b6104425760405162461bcd60e51b815260206004820152602e60248201527f496e697469616c697a61626c653a20636f6e747261637420697320616c72656160448201526d191e481a5b9a5d1a585b1a5e995960921b6064820152608401610391565b5f805460ff191660011790558015610463575f805461ff0019166101001790555b61046d5f84610ab3565b61047b600160f81b83610ab3565b8015610320575f805461ff0019169055604051600181527f7f26b83ff96e1f2b6a682f133852f6798a09c465da95921460cefb3847402498906020015b60405180910390a1505050565b60606104d260c954610af5565b905090565b600160f81b6104e581610aa6565b5f6104ee6109ca565b90505f5b81811015610320575f61050660ca83610b32565b6001600160a01b0381165f90815260cd602090815260409182902082518084019093525460ff80821615801580865261010090930490911615159284019290925292945090925061055957508060200151155b156105ad57816001600160a01b031663595c6a676040518163ffffffff1660e01b81526004015f604051808303815f87803b158015610596575f5ffd5b505af11580156105a8573d5f5f3e3d5ffd5b505050505b50506001016104f2565b60608060605f6105c56109ca565b9050806001600160401b038111156105df576105df6116c0565b60405190808252806020026020018201604052801561061257816020015b60608152602001906001900390816105fd5790505b509350806001600160401b0381111561062d5761062d6116c0565b604051908082528060200260200182016040528015610656578160200160208202803683370190505b509250806001600160401b03811115610671576106716116c0565b6040519080825280602002602001820160405280156106b557816020015b604080518082019091525f808252602082015281526020019060019003908161068f5790505b5091505f5b81811015610783575f806106cf60ca84610b32565b90925090506106dd82610af5565b8784815181106106ef576106ef6116d4565b60200260200101819052508086848151811061070d5761070d6116d4565b6001600160a01b039283166020918202929092018101919091529082165f90815260cd825260409081902081518083019092525460ff8082161515835261010090910416151591810191909152855186908590811061076e5761076e6116d4565b602090810291909101015250506001016106ba565b5050909192565b5f8281526097602052604081206107a19083610b4d565b9392505050565b5f9182526065602090815260408084206001600160a01b0393909316845291905290205460ff1690565b604080518082019091525f808252602082018190529061083761082f61082c86868080601f0160208091040260200160405190810160405280939291908181526020018383808284375f92019190915250610b5892505050565b90565b60ca90610b95565b6001600160a01b0381165f90815260cd602090815260409182902082518084019093525460ff808216151584526101009091041615159082015290925090505b9250929050565b60605f61088c60c954610af5565b9050805f815181106108a0576108a06116d4565b016020908101516040516001600160f81b03199091169181019190915260210160405160208183030381529060405291505090565b5f6107a161082f61082c85858080601f0160208091040260200160405190810160405280939291908181526020018383808284375f92019190915250610b5892505050565b5f8181526097602052604081206102f690610ba0565b5f61093a81610aa6565b6001600160a01b0383165f90815260cd60205260409020829061095d82826116f5565b905050826001600160a01b03167f6c5879ec82f910f6d12844857cfb8eb474dcecc9aa5b8257c7a77dcb42990e9d83604051610999919061173b565b60405180910390a2505050565b5f828152606560205260409020600101546109c081610aa6565b6103208383610ad4565b5f6104d260ca610ba9565b5f6109df81610aa6565b6109e98383610bb3565b5f5b88811015610a6657610a5e8a8a83818110610a0857610a086116d4565b9050602002016020810190610a1d919061176b565b898984818110610a2f57610a2f6116d4565b905060400201888885818110610a4757610a476116d4565b9050602002810190610a599190611784565b610c36565b6001016109eb565b50505050505050505050565b5f6001600160e01b03198216637965db0b60e01b14806102f657506301ffc9a760e01b6001600160e01b03198316146102f6565b610ab08133610cf1565b50565b610abd8282610d4a565b5f8281526097602052604090206103209082610dcf565b610ade8282610de3565b5f8281526097602052604090206103209082610e49565b60605f610b0183610e5d565b6040805160208082528183019092529192505f91906020820181803683375050509182525060208101929092525090565b5f808080610b408686610e84565b9097909650945050505050565b5f6107a18383610ead565b5f5f829050601f81511115610b82578260405163305a27a960e01b81526004016103919190611361565b8051610b8d826117c6565b179392505050565b5f6107a18383610ed3565b5f6102f6825490565b5f6102f682610f42565b5f610bbf60c954610af5565b9050610bff83838080601f0160208091040260200160405190810160405280939291908181526020018383808284375f92019190915250610b5892505050565b60c9556040517f769656e5cb3218f54758f85bd184d41e987639374d6cb9e244439cc9d1abe1e2906104b8908390869086906117ec565b610c83610c7a61082c84848080601f0160208091040260200160405190810160405280939291908181526020018383808284375f92019190915250610b5892505050565b60ca9086610f4c565b506001600160a01b0384165f90815260cd602052604090208390610ca782826116f5565b905050836001600160a01b03167f4e81e5495dbc85919bf1b9c12a9a4bb6d546f75d3f92fa0a36867fc29a51467c84604051610ce3919061173b565b60405180910390a250505050565b610cfb82826107a8565b6103a457610d0881610f69565b610d13836020610f7b565b604051602001610d24929190611847565b60408051601f198184030181529082905262461bcd60e51b825261039191600401611361565b610d5482826107a8565b6103a4575f8281526065602090815260408083206001600160a01b03851684529091529020805460ff19166001179055610d8b3390565b6001600160a01b0316816001600160a01b0316837f2f8788117e7eff1d82e926ec794901d17c78024a50270940304540a733656f0d60405160405180910390a45050565b5f6107a1836001600160a01b038416611110565b610ded82826107a8565b156103a4575f8281526065602090815260408083206001600160a01b0385168085529252808320805460ff1916905551339285917ff6391f5c32d9c69d2a47ea670b442974b53935d1edc7fd64eb21e047a839171b9190a45050565b5f6107a1836001600160a01b03841661115c565b5f60ff8216601f8111156102f657604051632cd44ac360e21b815260040160405180910390fd5b5f8080610e918585610b4d565b5f81815260029690960160205260409095205494959350505050565b5f825f018281548110610ec257610ec26116d4565b905f5260205f200154905092915050565b5f81815260028301602052604081205480151580610ef65750610ef6848461123f565b6107a15760405162461bcd60e51b815260206004820152601e60248201527f456e756d657261626c654d61703a206e6f6e6578697374656e74206b657900006044820152606401610391565b5f6102f682610ba0565b5f610f6184846001600160a01b03851661124a565b949350505050565b60606102f66001600160a01b03831660145b60605f610f898360026118b9565b610f949060026118d0565b6001600160401b03811115610fab57610fab6116c0565b6040519080825280601f01601f191660200182016040528015610fd5576020820181803683370190505b509050600360fc1b815f81518110610fef57610fef6116d4565b60200101906001600160f81b03191690815f1a905350600f60fb1b8160018151811061101d5761101d6116d4565b60200101906001600160f81b03191690815f1a9053505f61103f8460026118b9565b61104a9060016118d0565b90505b60018111156110c1576f181899199a1a9b1b9c1cb0b131b232b360811b85600f166010811061107e5761107e6116d4565b1a60f81b828281518110611094576110946116d4565b60200101906001600160f81b03191690815f1a90535060049490941c936110ba816118e3565b905061104d565b5083156107a15760405162461bcd60e51b815260206004820181905260248201527f537472696e67733a20686578206c656e67746820696e73756666696369656e746044820152606401610391565b5f81815260018301602052604081205461115557508154600181810184555f8481526020808220909301849055845484825282860190935260409020919091556102f6565b505f6102f6565b5f8181526001830160205260408120548015611236575f61117e6001836118f8565b85549091505f90611191906001906118f8565b90508181146111f0575f865f0182815481106111af576111af6116d4565b905f5260205f200154905080875f0184815481106111cf576111cf6116d4565b5f918252602080832090910192909255918252600188019052604090208390555b85548690806112015761120161190b565b600190038181905f5260205f20015f90559055856001015f8681526020019081526020015f205f9055600193505050506102f6565b5f9150506102f6565b5f6107a18383611266565b5f8281526002840160205260408120829055610f61848461127d565b5f81815260018301602052604081205415156107a1565b5f6107a18383611110565b5f60208284031215611298575f5ffd5b81356001600160e01b0319811681146107a1575f5ffd5b5f602082840312156112bf575f5ffd5b5035919050565b80356001600160a01b03811681146112dc575f5ffd5b919050565b5f5f604083850312156112f2575f5ffd5b82359150611302602084016112c6565b90509250929050565b5f5f6040838503121561131c575f5ffd5b611325836112c6565b9150611302602084016112c6565b5f81518084528060208401602086015e5f602082860101526020601f19601f83011685010191505092915050565b602081525f6107a16020830184611333565b5f8151808452602084019350602083015f5b828110156113bc576113a68683518051151582526020908101511515910152565b6040959095019460209190910190600101611385565b5093949350505050565b5f606082016060835280865180835260808501915060808160051b8601019250602088015f5b8281101561141d57607f19878603018452611408858351611333565b945060209384019391909101906001016113ec565b5050505082810360208401528085518083526020830191506020870192505f5b818110156114645783516001600160a01b031683526020938401939092019160010161143d565b505083810360408501526114788186611373565b979650505050505050565b5f5f60408385031215611494575f5ffd5b50508035926020909101359150565b5f5f83601f8401126114b3575f5ffd5b5081356001600160401b038111156114c9575f5ffd5b602083019150836020828501011115610877575f5ffd5b5f5f602083850312156114f1575f5ffd5b82356001600160401b03811115611506575f5ffd5b611512858286016114a3565b90969095509350505050565b6001600160a01b0383168152606081016107a160208301848051151582526020908101511515910152565b5f5f828403606081121561155b575f5ffd5b611564846112c6565b92506040601f1982011215611577575f5ffd5b506020830190509250929050565b5f5f83601f840112611595575f5ffd5b5081356001600160401b038111156115ab575f5ffd5b6020830191508360208260051b8501011115610877575f5ffd5b5f5f5f5f5f5f5f5f6080898b0312156115dc575f5ffd5b88356001600160401b038111156115f1575f5ffd5b6115fd8b828c01611585565b90995097505060208901356001600160401b0381111561161b575f5ffd5b8901601f81018b1361162b575f5ffd5b80356001600160401b03811115611640575f5ffd5b8b60208260061b8401011115611654575f5ffd5b6020919091019650945060408901356001600160401b03811115611676575f5ffd5b6116828b828c01611585565b90955093505060608901356001600160401b038111156116a0575f5ffd5b6116ac8b828c016114a3565b999c989b5096995094979396929594505050565b634e487b7160e01b5f52604160045260245ffd5b634e487b7160e01b5f52603260045260245ffd5b8015158114610ab0575f5ffd5b8135611700816116e8565b815460ff19811691151560ff1691821783556020840135611720816116e8565b61ffff199190911690911790151560081b61ff001617905550565b60408101823561174a816116e8565b15158252602083013561175c816116e8565b80151560208401525092915050565b5f6020828403121561177b575f5ffd5b6107a1826112c6565b5f5f8335601e19843603018112611799575f5ffd5b8301803591506001600160401b038211156117b2575f5ffd5b602001915036819003821315610877575f5ffd5b805160208083015191908110156117e6575f198160200360031b1b821691505b50919050565b604081525f6117fe6040830186611333565b8281036020840152838152838560208301375f602085830101526020601f19601f860116820101915050949350505050565b5f81518060208401855e5f93019283525090919050565b7f416363657373436f6e74726f6c3a206163636f756e742000000000000000000081525f6118786017830185611830565b7001034b99036b4b9b9b4b733903937b6329607d1b815261189c6011820185611830565b95945050505050565b634e487b7160e01b5f52601160045260245ffd5b80820281158282048414176102f6576102f66118a5565b808201808211156102f6576102f66118a5565b5f816118f1576118f16118a5565b505f190190565b818103818111156102f6576102f66118a5565b634e487b7160e01b5f52603160045260245ffdfea2646970667358221220bcec6fdfd4541a1cd8d81da1305f9fab792d49075b5ea5b88e6f5c48c681459964736f6c634300081e0033",
    "linkReferences": {}
  },
  "methodIdentifiers": {
    "DEFAULT_ADMIN_ROLE()": "a217fddf",
    "PAUSER_ROLE()": "e63ab1e9",
    "configure(address,(bool,bool))": "d3466389",
    "getAddress(string)": "bf40fac1",
    "getAllDeployments()": "8eec00b8",
    "getDeployment(string)": "a8091d97",
    "getRoleAdmin(bytes32)": "248a9ca3",
    "getRoleMember(bytes32,uint256)": "9010d07c",
    "getRoleMemberCount(bytes32)": "ca15c873",
    "grantRole(bytes32,address)": "2f2ff15d",
    "hasRole(bytes32,address)": "91d14854",
    "initialize(address,address)": "485cc955",
    "majorVersion()": "af05a5c5",
    "pauseAll()": "595c6a67",
    "renounceRole(bytes32,address)": "36568abe",
    "revokeRole(bytes32,address)": "d547741f",
    "ship(address[],(bool,bool)[],string[],string)": "fc434a8a",
    "supportsInterface(bytes4)": "01ffc9a7",
    "totalDeployments()": "fb35b4e4",
    "version()": "54fd4d50"
  },
  "id": 146
}