{
  "abi": [
    {
      "type": "constructor",
      "inputs": [
        {
          "name": "_allocationManager",
          "type": "address",
          "internalType": "contract IAllocationManager"
        },
        {
          "name": "_keyRegistrar",
          "type": "address",
          "internalType": "contract IKeyRegistrar"
        },
        {
          "name": "_permissionController",
          "type": "address",
          "internalType": "contract IPermissionController"
        },
        {
          "name": "_pauserRegistry",
          "type": "address",
          "internalType": "contract IPauserRegistry"
        },
        {
          "name": "_version",
          "type": "string",
          "internalType": "string"
        }
      ],
      "stateMutability": "nonpayable"
    },
    {
      "type": "function",
      "name": "addChainIDsToWhitelist",
      "inputs": [
        {
          "name": "chainIDs",
          "type": "uint256[]",
          "internalType": "uint256[]"
        },
        {
          "name": "operatorTableUpdaters",
          "type": "address[]",
          "internalType": "address[]"
        }
      ],
      "outputs": [],
      "stateMutability": "nonpayable"
    },
    {
      "type": "function",
      "name": "allocationManager",
      "inputs": [],
      "outputs": [
        {
          "name": "",
          "type": "address",
          "internalType": "contract IAllocationManager"
        }
      ],
      "stateMutability": "view"
    },
    {
      "type": "function",
      "name": "calculateOperatorTableBytes",
      "inputs": [
        {
          "name": "operatorSet",
          "type": "tuple",
          "internalType": "struct OperatorSet",
          "components": [
            {
              "name": "avs",
              "type": "address",
              "internalType": "address"
            },
            {
              "name": "id",
              "type": "uint32",
              "internalType": "uint32"
            }
          ]
        }
      ],
      "outputs": [
        {
          "name": "",
          "type": "bytes",
          "internalType": "bytes"
        }
      ],
      "stateMutability": "view"
    },
    {
      "type": "function",
      "name": "createGenerationReservation",
      "inputs": [
        {
          "name": "operatorSet",
          "type": "tuple",
          "internalType": "struct OperatorSet",
          "components": [
            {
              "name": "avs",
              "type": "address",
              "internalType": "address"
            },
            {
              "name": "id",
              "type": "uint32",
              "internalType": "uint32"
            }
          ]
        },
        {
          "name": "operatorTableCalculator",
          "type": "address",
          "internalType": "contract IOperatorTableCalculator"
        },
        {
          "name": "config",
          "type": "tuple",
          "internalType": "struct ICrossChainRegistryTypes.OperatorSetConfig",
          "components": [
            {
              "name": "owner",
              "type": "address",
              "internalType": "address"
            },
            {
              "name": "maxStalenessPeriod",
              "type": "uint32",
              "internalType": "uint32"
            }
          ]
        }
      ],
      "outputs": [],
      "stateMutability": "nonpayable"
    },
    {
      "type": "function",
      "name": "getActiveGenerationReservations",
      "inputs": [],
      "outputs": [
        {
          "name": "",
          "type": "tuple[]",
          "internalType": "struct OperatorSet[]",
          "components": [
            {
              "name": "avs",
              "type": "address",
              "internalType": "address"
            },
            {
              "name": "id",
              "type": "uint32",
              "internalType": "uint32"
            }
          ]
        }
      ],
      "stateMutability": "view"
    },
    {
      "type": "function",
      "name": "getOperatorSetConfig",
      "inputs": [
        {
          "name": "operatorSet",
          "type": "tuple",
          "internalType": "struct OperatorSet",
          "components": [
            {
              "name": "avs",
              "type": "address",
              "internalType": "address"
            },
            {
              "name": "id",
              "type": "uint32",
              "internalType": "uint32"
            }
          ]
        }
      ],
      "outputs": [
        {
          "name": "",
          "type": "tuple",
          "internalType": "struct ICrossChainRegistryTypes.OperatorSetConfig",
          "components": [
            {
              "name": "owner",
              "type": "address",
              "internalType": "address"
            },
            {
              "name": "maxStalenessPeriod",
              "type": "uint32",
              "internalType": "uint32"
            }
          ]
        }
      ],
      "stateMutability": "view"
    },
    {
      "type": "function",
      "name": "getOperatorTableCalculator",
      "inputs": [
        {
          "name": "operatorSet",
          "type": "tuple",
          "internalType": "struct OperatorSet",
          "components": [
            {
              "name": "avs",
              "type": "address",
              "internalType": "address"
            },
            {
              "name": "id",
              "type": "uint32",
              "internalType": "uint32"
            }
          ]
        }
      ],
      "outputs": [
        {
          "name": "",
          "type": "address",
          "internalType": "contract IOperatorTableCalculator"
        }
      ],
      "stateMutability": "view"
    },
    {
      "type": "function",
      "name": "getSupportedChains",
      "inputs": [],
      "outputs": [
        {
          "name": "",
          "type": "uint256[]",
          "internalType": "uint256[]"
        },
        {
          "name": "",
          "type": "address[]",
          "internalType": "address[]"
        }
      ],
      "stateMutability": "view"
    },
    {
      "type": "function",
      "name": "getTableUpdateCadence",
      "inputs": [],
      "outputs": [
        {
          "name": "",
          "type": "uint32",
          "internalType": "uint32"
        }
      ],
      "stateMutability": "view"
    },
    {
      "type": "function",
      "name": "initialize",
      "inputs": [
        {
          "name": "initialOwner",
          "type": "address",
          "internalType": "address"
        },
        {
          "name": "initialTableUpdateCadence",
          "type": "uint32",
          "internalType": "uint32"
        },
        {
          "name": "initialPausedStatus",
          "type": "uint256",
          "internalType": "uint256"
        }
      ],
      "outputs": [],
      "stateMutability": "nonpayable"
    },
    {
      "type": "function",
      "name": "keyRegistrar",
      "inputs": [],
      "outputs": [
        {
          "name": "",
          "type": "address",
          "internalType": "contract IKeyRegistrar"
        }
      ],
      "stateMutability": "view"
    },
    {
      "type": "function",
      "name": "owner",
      "inputs": [],
      "outputs": [
        {
          "name": "",
          "type": "address",
          "internalType": "address"
        }
      ],
      "stateMutability": "view"
    },
    {
      "type": "function",
      "name": "pause",
      "inputs": [
        {
          "name": "newPausedStatus",
          "type": "uint256",
          "internalType": "uint256"
        }
      ],
      "outputs": [],
      "stateMutability": "nonpayable"
    },
    {
      "type": "function",
      "name": "pauseAll",
      "inputs": [],
      "outputs": [],
      "stateMutability": "nonpayable"
    },
    {
      "type": "function",
      "name": "paused",
      "inputs": [
        {
          "name": "index",
          "type": "uint8",
          "internalType": "uint8"
        }
      ],
      "outputs": [
        {
          "name": "",
          "type": "bool",
          "internalType": "bool"
        }
      ],
      "stateMutability": "view"
    },
    {
      "type": "function",
      "name": "paused",
      "inputs": [],
      "outputs": [
        {
          "name": "",
          "type": "uint256",
          "internalType": "uint256"
        }
      ],
      "stateMutability": "view"
    },
    {
      "type": "function",
      "name": "pauserRegistry",
      "inputs": [],
      "outputs": [
        {
          "name": "",
          "type": "address",
          "internalType": "contract IPauserRegistry"
        }
      ],
      "stateMutability": "view"
    },
    {
      "type": "function",
      "name": "permissionController",
      "inputs": [],
      "outputs": [
        {
          "name": "",
          "type": "address",
          "internalType": "contract IPermissionController"
        }
      ],
      "stateMutability": "view"
    },
    {
      "type": "function",
      "name": "removeChainIDsFromWhitelist",
      "inputs": [
        {
          "name": "chainIDs",
          "type": "uint256[]",
          "internalType": "uint256[]"
        }
      ],
      "outputs": [],
      "stateMutability": "nonpayable"
    },
    {
      "type": "function",
      "name": "removeGenerationReservation",
      "inputs": [
        {
          "name": "operatorSet",
          "type": "tuple",
          "internalType": "struct OperatorSet",
          "components": [
            {
              "name": "avs",
              "type": "address",
              "internalType": "address"
            },
            {
              "name": "id",
              "type": "uint32",
              "internalType": "uint32"
            }
          ]
        }
      ],
      "outputs": [],
      "stateMutability": "nonpayable"
    },
    {
      "type": "function",
      "name": "renounceOwnership",
      "inputs": [],
      "outputs": [],
      "stateMutability": "nonpayable"
    },
    {
      "type": "function",
      "name": "setOperatorSetConfig",
      "inputs": [
        {
          "name": "operatorSet",
          "type": "tuple",
          "internalType": "struct OperatorSet",
          "components": [
            {
              "name": "avs",
              "type": "address",
              "internalType": "address"
            },
            {
              "name": "id",
              "type": "uint32",
              "internalType": "uint32"
            }
          ]
        },
        {
          "name": "config",
          "type": "tuple",
          "internalType": "struct ICrossChainRegistryTypes.OperatorSetConfig",
          "components": [
            {
              "name": "owner",
              "type": "address",
              "internalType": "address"
            },
            {
              "name": "maxStalenessPeriod",
              "type": "uint32",
              "internalType": "uint32"
            }
          ]
        }
      ],
      "outputs": [],
      "stateMutability": "nonpayable"
    },
    {
      "type": "function",
      "name": "setOperatorTableCalculator",
      "inputs": [
        {
          "name": "operatorSet",
          "type": "tuple",
          "internalType": "struct OperatorSet",
          "components": [
            {
              "name": "avs",
              "type": "address",
              "internalType": "address"
            },
            {
              "name": "id",
              "type": "uint32",
              "internalType": "uint32"
            }
          ]
        },
        {
          "name": "operatorTableCalculator",
          "type": "address",
          "internalType": "contract IOperatorTableCalculator"
        }
      ],
      "outputs": [],
      "stateMutability": "nonpayable"
    },
    {
      "type": "function",
      "name": "setTableUpdateCadence",
      "inputs": [
        {
          "name": "tableUpdateCadence",
          "type": "uint32",
          "internalType": "uint32"
        }
      ],
      "outputs": [],
      "stateMutability": "nonpayable"
    },
    {
      "type": "function",
      "name": "transferOwnership",
      "inputs": [
        {
          "name": "newOwner",
          "type": "address",
          "internalType": "address"
        }
      ],
      "outputs": [],
      "stateMutability": "nonpayable"
    },
    {
      "type": "function",
      "name": "unpause",
      "inputs": [
        {
          "name": "newPausedStatus",
          "type": "uint256",
          "internalType": "uint256"
        }
      ],
      "outputs": [],
      "stateMutability": "nonpayable"
    },
    {
      "type": "function",
      "name": "version",
      "inputs": [],
      "outputs": [
        {
          "name": "",
          "type": "string",
          "internalType": "string"
        }
      ],
      "stateMutability": "view"
    },
    {
      "type": "event",
      "name": "ChainIDAddedToWhitelist",
      "inputs": [
        {
          "name": "chainID",
          "type": "uint256",
          "indexed": false,
          "internalType": "uint256"
        },
        {
          "name": "operatorTableUpdater",
          "type": "address",
          "indexed": false,
          "internalType": "address"
        }
      ],
      "anonymous": false
    },
    {
      "type": "event",
      "name": "ChainIDRemovedFromWhitelist",
      "inputs": [
        {
          "name": "chainID",
          "type": "uint256",
          "indexed": false,
          "internalType": "uint256"
        }
      ],
      "anonymous": false
    },
    {
      "type": "event",
      "name": "GenerationReservationCreated",
      "inputs": [
        {
          "name": "operatorSet",
          "type": "tuple",
          "indexed": false,
          "internalType": "struct OperatorSet",
          "components": [
            {
              "name": "avs",
              "type": "address",
              "internalType": "address"
            },
            {
              "name": "id",
              "type": "uint32",
              "internalType": "uint32"
            }
          ]
        }
      ],
      "anonymous": false
    },
    {
      "type": "event",
      "name": "GenerationReservationRemoved",
      "inputs": [
        {
          "name": "operatorSet",
          "type": "tuple",
          "indexed": false,
          "internalType": "struct OperatorSet",
          "components": [
            {
              "name": "avs",
              "type": "address",
              "internalType": "address"
            },
            {
              "name": "id",
              "type": "uint32",
              "internalType": "uint32"
            }
          ]
        }
      ],
      "anonymous": false
    },
    {
      "type": "event",
      "name": "Initialized",
      "inputs": [
        {
          "name": "version",
          "type": "uint8",
          "indexed": false,
          "internalType": "uint8"
        }
      ],
      "anonymous": false
    },
    {
      "type": "event",
      "name": "OperatorSetConfigRemoved",
      "inputs": [
        {
          "name": "operatorSet",
          "type": "tuple",
          "indexed": false,
          "internalType": "struct OperatorSet",
          "components": [
            {
              "name": "avs",
              "type": "address",
              "internalType": "address"
            },
            {
              "name": "id",
              "type": "uint32",
              "internalType": "uint32"
            }
          ]
        }
      ],
      "anonymous": false
    },
    {
      "type": "event",
      "name": "OperatorSetConfigSet",
      "inputs": [
        {
          "name": "operatorSet",
          "type": "tuple",
          "indexed": false,
          "internalType": "struct OperatorSet",
          "components": [
            {
              "name": "avs",
              "type": "address",
              "internalType": "address"
            },
            {
              "name": "id",
              "type": "uint32",
              "internalType": "uint32"
            }
          ]
        },
        {
          "name": "config",
          "type": "tuple",
          "indexed": false,
          "internalType": "struct ICrossChainRegistryTypes.OperatorSetConfig",
          "components": [
            {
              "name": "owner",
              "type": "address",
              "internalType": "address"
            },
            {
              "name": "maxStalenessPeriod",
              "type": "uint32",
              "internalType": "uint32"
            }
          ]
        }
      ],
      "anonymous": false
    },
    {
      "type": "event",
      "name": "OperatorTableCalculatorRemoved",
      "inputs": [
        {
          "name": "operatorSet",
          "type": "tuple",
          "indexed": false,
          "internalType": "struct OperatorSet",
          "components": [
            {
              "name": "avs",
              "type": "address",
              "internalType": "address"
            },
            {
              "name": "id",
              "type": "uint32",
              "internalType": "uint32"
            }
          ]
        }
      ],
      "anonymous": false
    },
    {
      "type": "event",
      "name": "OperatorTableCalculatorSet",
      "inputs": [
        {
          "name": "operatorSet",
          "type": "tuple",
          "indexed": false,
          "internalType": "struct OperatorSet",
          "components": [
            {
              "name": "avs",
              "type": "address",
              "internalType": "address"
            },
            {
              "name": "id",
              "type": "uint32",
              "internalType": "uint32"
            }
          ]
        },
        {
          "name": "operatorTableCalculator",
          "type": "address",
          "indexed": false,
          "internalType": "contract IOperatorTableCalculator"
        }
      ],
      "anonymous": false
    },
    {
      "type": "event",
      "name": "OwnershipTransferred",
      "inputs": [
        {
          "name": "previousOwner",
          "type": "address",
          "indexed": true,
          "internalType": "address"
        },
        {
          "name": "newOwner",
          "type": "address",
          "indexed": true,
          "internalType": "address"
        }
      ],
      "anonymous": false
    },
    {
      "type": "event",
      "name": "Paused",
      "inputs": [
        {
          "name": "account",
          "type": "address",
          "indexed": true,
          "internalType": "address"
        },
        {
          "name": "newPausedStatus",
          "type": "uint256",
          "indexed": false,
          "internalType": "uint256"
        }
      ],
      "anonymous": false
    },
    {
      "type": "event",
      "name": "TableUpdateCadenceSet",
      "inputs": [
        {
          "name": "tableUpdateCadence",
          "type": "uint32",
          "indexed": false,
          "internalType": "uint32"
        }
      ],
      "anonymous": false
    },
    {
      "type": "event",
      "name": "Unpaused",
      "inputs": [
        {
          "name": "account",
          "type": "address",
          "indexed": true,
          "internalType": "address"
        },
        {
          "name": "newPausedStatus",
          "type": "uint256",
          "indexed": false,
          "internalType": "uint256"
        }
      ],
      "anonymous": false
    },
    {
      "type": "error",
      "name": "ArrayLengthMismatch",
      "inputs": []
    },
    {
      "type": "error",
      "name": "ChainIDAlreadyWhitelisted",
      "inputs": []
    },
    {
      "type": "error",
      "name": "ChainIDNotWhitelisted",
      "inputs": []
    },
    {
      "type": "error",
      "name": "CurrentlyPaused",
      "inputs": []
    },
    {
      "type": "error",
      "name": "EmptyChainIDsArray",
      "inputs": []
    },
    {
      "type": "error",
      "name": "GenerationReservationAlreadyExists",
      "inputs": []
    },
    {
      "type": "error",
      "name": "GenerationReservationDoesNotExist",
      "inputs": []
    },
    {
      "type": "error",
      "name": "InputAddressZero",
      "inputs": []
    },
    {
      "type": "error",
      "name": "InvalidChainId",
      "inputs": []
    },
    {
      "type": "error",
      "name": "InvalidNewPausedStatus",
      "inputs": []
    },
    {
      "type": "error",
      "name": "InvalidOperatorSet",
      "inputs": []
    },
    {
      "type": "error",
      "name": "InvalidPermissions",
      "inputs": []
    },
    {
      "type": "error",
      "name": "InvalidShortString",
      "inputs": []
    },
    {
      "type": "error",
      "name": "InvalidStalenessPeriod",
      "inputs": []
    },
    {
      "type": "error",
      "name": "InvalidTableUpdateCadence",
      "inputs": []
    },
    {
      "type": "error",
      "name": "OnlyPauser",
      "inputs": []
    },
    {
      "type": "error",
      "name": "OnlyUnpauser",
      "inputs": []
    },
    {
      "type": "error",
      "name": "StringTooLong",
      "inputs": [
        {
          "name": "str",
          "type": "string",
          "internalType": "string"
        }
      ]
    }
  ],
  "bytecode": {
    "object": "0x610120604052348015610010575f5ffd5b5060405161253f38038061253f83398101604081905261002f916101c1565b80838686856001600160a01b03811661005b576040516339b190bb60e11b815260040160405180910390fd5b6001600160a01b0390811660805291821660a052811660c0521660e05261008181610098565b610100525061008e6100de565b5050505050610319565b5f5f829050601f815111156100cb578260405163305a27a960e01b81526004016100c291906102be565b60405180910390fd5b80516100d6826102f3565b179392505050565b5f54610100900460ff16156101455760405162461bcd60e51b815260206004820152602760248201527f496e697469616c697a61626c653a20636f6e747261637420697320696e697469604482015266616c697a696e6760c81b60648201526084016100c2565b5f5460ff90811614610194575f805460ff191660ff9081179091556040519081527f7f26b83ff96e1f2b6a682f133852f6798a09c465da95921460cefb38474024989060200160405180910390a15b565b6001600160a01b03811681146101aa575f5ffd5b50565b634e487b7160e01b5f52604160045260245ffd5b5f5f5f5f5f60a086880312156101d5575f5ffd5b85516101e081610196565b60208701519095506101f181610196565b604087015190945061020281610196565b606087015190935061021381610196565b60808701519092506001600160401b0381111561022e575f5ffd5b8601601f8101881361023e575f5ffd5b80516001600160401b03811115610257576102576101ad565b604051601f8201601f19908116603f011681016001600160401b0381118282101715610285576102856101ad565b6040528181528282016020018a101561029c575f5ffd5b8160208401602083015e5f602083830101528093505050509295509295909350565b602081525f82518060208401528060208501604085015e5f604082850101526040601f19601f83011684010191505092915050565b80516020808301519190811015610313575f198160200360031b1b821691505b50919050565b60805160a05160c05160e051610100516121b161038e5f395f610b1601525f8181610293015261156901525f818161023401526109cd01525f81816103a201528181610733015281816108de01528181610ba9015261101001525f818161033c0152818161149d015261181c01526121b15ff3fe608060405234801561000f575f5ffd5b50600436106101a1575f3560e01c80636c55a37f116100f3578063ca8aa7c711610093578063d6db9e251161006e578063d6db9e25146103ec578063dfbd9dfd146103ff578063f2fde38b14610412578063fabc1cbc14610425575f5ffd5b8063ca8aa7c71461039d578063d09b978b146103c4578063d5044911146103d9575f5ffd5b8063886f1195116100ce578063886f1195146103375780638da5cb5b1461035e578063ac505f4b1461036f578063c4bffe2b14610387575f5ffd5b80636c55a37f14610309578063715018a61461031c57806375e4b53914610324575f5ffd5b80633ec45c7e1161015e57806354fd4d501161013957806354fd4d50146102b5578063595c6a67146102bd5780635ac86ab7146102c55780635c975abb146102f8575f5ffd5b80633ec45c7e1461022f57806341ee6d0e1461026e5780634657e26a1461028e575f5ffd5b806304e98be3146101a55780630f19aaef146101ba578063136439dd146101cd5780631ca9142a146101e057806321fa7fdc146101f3578063277e1e621461021c575b5f5ffd5b6101b86101b3366004611af3565b610438565b005b6101b86101c8366004611b8b565b61057c565b6101b86101db366004611bc7565b6106a2565b6101b86101ee366004611bf4565b6106dc565b610206610201366004611ccd565b610827565b6040516102139190611d05565b60405180910390f35b6101b861022a366004611d13565b610887565b6102567f000000000000000000000000000000000000000000000000000000000000000081565b6040516001600160a01b039091168152602001610213565b61028161027c366004611d46565b6109c8565b6040516102139190611d8e565b6102567f000000000000000000000000000000000000000000000000000000000000000081565b610281610b0f565b6101b8610b3f565b6102e86102d3366004611da0565b606654600160ff9092169190911b9081161490565b6040519015158152602001610213565b606654604051908152602001610213565b6101b8610317366004611d46565b610b53565b6101b8610d74565b610256610332366004611ccd565b610d85565b6102567f000000000000000000000000000000000000000000000000000000000000000081565b6033546001600160a01b0316610256565b609e5460405163ffffffff9091168152602001610213565b61038f610db1565b604051610213929190611dc0565b6102567f000000000000000000000000000000000000000000000000000000000000000081565b6103cc610ec7565b6040516102139190611e49565b6101b86103e7366004611e96565b610fba565b6101b86103fa366004611eda565b611145565b6101b861040d366004611ef3565b611159565b6101b8610420366004611f32565b6111ff565b6101b8610433366004611bc7565b611275565b6104406112e2565b600361044b8161133c565b83821461046b5760405163512509d360e11b815260040160405180910390fd5b5f5b84811015610574575f86868381811061048857610488611f4d565b905060200201359050805f036104b157604051633d23e4d160e11b815260040160405180910390fd5b6104e5818686858181106104c7576104c7611f4d565b90506020020160208101906104dc9190611f32565b609b9190611367565b610502576040516324bf631b60e11b815260040160405180910390fd5b7f7a0a76d85b582b17996dd7371a407aa7a79b870db8539247fba315c7b6beff628186868581811061053657610536611f4d565b905060200201602081019061054b9190611f32565b604080519283526001600160a01b0390911660208301520160405180910390a15060010161046d565b505050505050565b5f54610100900460ff161580801561059a57505f54600160ff909116105b806105b35750303b1580156105b357505f5460ff166001145b61061b5760405162461bcd60e51b815260206004820152602e60248201527f496e697469616c697a61626c653a20636f6e747261637420697320616c72656160448201526d191e481a5b9a5d1a585b1a5e995960921b60648201526084015b60405180910390fd5b5f805460ff19166001179055801561063c575f805461ff0019166101001790555b61064584611386565b61064e836113d7565b6106578261144b565b801561069c575f805461ff0019169055604051600181527f7f26b83ff96e1f2b6a682f133852f6798a09c465da95921460cefb38474024989060200160405180910390a15b50505050565b6106aa611488565b60665481811681146106cf5760405163c61dca5d60e01b815260040160405180910390fd5b6106d88261144b565b5050565b60016106e78161133c565b6106f46020840184611f32565b6106fd8161152b565b61071a5760405163932d94f760e01b815260040160405180910390fd5b6040516304c1b8eb60e31b815284906001600160a01b037f0000000000000000000000000000000000000000000000000000000000000000169063260dc75890610768908490600401611f92565b602060405180830381865afa158015610783573d5f5f3e3d5ffd5b505050506040513d601f19601f820116820180604052508101906107a79190611fa0565b6107c457604051631fb1705560e21b815260040160405180910390fd5b846107f26107df6107da36849003840184611ccd565b6115db565b5f90815260986020526040902054151590565b61080f57604051634d2baea960e11b815260040160405180910390fd5b61057461082136889003880188611ccd565b8661163e565b604080518082019091525f8082526020820152609a5f610846846115db565b815260208082019290925260409081015f208151808301909252546001600160a01b0381168252600160a01b900463ffffffff169181019190915292915050565b60026108928161133c565b61089f6020840184611f32565b6108a88161152b565b6108c55760405163932d94f760e01b815260040160405180910390fd5b6040516304c1b8eb60e31b815284906001600160a01b037f0000000000000000000000000000000000000000000000000000000000000000169063260dc75890610913908490600401611f92565b602060405180830381865afa15801561092e573d5f5f3e3d5ffd5b505050506040513d601f19601f820116820180604052508101906109529190611fa0565b61096f57604051631fb1705560e21b815260040160405180910390fd5b846109856107df6107da36849003840184611ccd565b6109a257604051634d2baea960e11b815260040160405180910390fd5b6105746109b436889003880188611ccd565b6109c336889003880188611ccd565b6116b8565b6060817f00000000000000000000000000000000000000000000000000000000000000006001600160a01b0316637cffe48c846040518263ffffffff1660e01b8152600401610a179190611f92565b602060405180830381865afa158015610a32573d5f5f3e3d5ffd5b505050506040513d601f19601f82011682018060405250810190610a569190611fbf565b610a6861020136869003860186611ccd565b610a7a61033236879003870187611ccd565b6001600160a01b03166341ee6d0e866040518263ffffffff1660e01b8152600401610aa59190611f92565b5f60405180830381865afa158015610abf573d5f5f3e3d5ffd5b505050506040513d5f823e601f3d908101601f19168201604052610ae69190810190611fdd565b604051602001610af99493929190612071565b6040516020818303038152906040529050919050565b6060610b3a7f0000000000000000000000000000000000000000000000000000000000000000611781565b905090565b610b47611488565b610b515f1961144b565b565b5f610b5d8161133c565b610b6a6020830183611f32565b610b738161152b565b610b905760405163932d94f760e01b815260040160405180910390fd5b6040516304c1b8eb60e31b815283906001600160a01b037f0000000000000000000000000000000000000000000000000000000000000000169063260dc75890610bde908490600401611f92565b602060405180830381865afa158015610bf9573d5f5f3e3d5ffd5b505050506040513d601f19601f82011682018060405250810190610c1d9190611fa0565b610c3a57604051631fb1705560e21b815260040160405180910390fd5b83610c506107df6107da36849003840184611ccd565b610c6d57604051634d2baea960e11b815260040160405180910390fd5b5f610c806107da36889003880188611ccd565b5f818152609960205260409081902080546001600160a01b0319169055519091507fd7811913efd5d98fc7ea0d1fdd022b3d31987815360842d05b1d1cf55578d16a90610cce908890611f92565b60405180910390a15f818152609a60205260409081902080546001600160c01b0319169055517f210a1118a869246162804e2a7f21ef808ebd93f4be7ed512014fe29a7a8be02e90610d21908890611f92565b60405180910390a1610d346097826117be565b507f4ffdfdd59e9e1e3c301608788f78dd458e61cb8c045ca92b62a7b484c80824fb86604051610d649190611f92565b60405180910390a1505050505050565b610d7c6112e2565b610b515f611386565b5f60995f610d92846115db565b815260208101919091526040015f20546001600160a01b031692915050565b6060805f610dbf609b6117c9565b90505f8167ffffffffffffffff811115610ddb57610ddb611c2a565b604051908082528060200260200182016040528015610e04578160200160208202803683370190505b5090505f8267ffffffffffffffff811115610e2157610e21611c2a565b604051908082528060200260200182016040528015610e4a578160200160208202803683370190505b5090505f5b83811015610ebc575f80610e64609b846117d3565b9150915081858481518110610e7b57610e7b611f4d565b60200260200101818152505080848481518110610e9a57610e9a611f4d565b6001600160a01b03909216602092830291909101909101525050600101610e4f565b509094909350915050565b60605f610ed460976117f0565b90505f8167ffffffffffffffff811115610ef057610ef0611c2a565b604051908082528060200260200182016040528015610f3457816020015b604080518082019091525f8082526020820152815260200190600190039081610f0e5790505b5090505f5b82811015610fb3575f610f4d6097836117f9565b90505f610f8982604080518082019091525f80825260208201525060408051808201909152606082901c815263ffffffff909116602082015290565b905080848481518110610f9e57610f9e611f4d565b60209081029190910101525050600101610f39565b5092915050565b5f610fc48161133c565b610fd16020850185611f32565b610fda8161152b565b610ff75760405163932d94f760e01b815260040160405180910390fd5b6040516304c1b8eb60e31b815285906001600160a01b037f0000000000000000000000000000000000000000000000000000000000000000169063260dc75890611045908490600401611f92565b602060405180830381865afa158015611060573d5f5f3e3d5ffd5b505050506040513d601f19601f820116820180604052508101906110849190611fa0565b6110a157604051631fb1705560e21b815260040160405180910390fd5b6110be6110b66107da36899003890189611ccd565b609790611804565b6110db57604051631883461560e01b815260040160405180910390fd5b7f4fb6efec7dd60036ce3a7af8d5c48425019daa0fb61eb471a966a7ac2c6fa6a68660405161110a9190611f92565b60405180910390a161112461082136889003880188611ccd565b61057461113636889003880188611ccd565b6109c336879003870187611ccd565b61114d6112e2565b611156816113d7565b50565b6111616112e2565b600361116c8161133c565b5f5b8281101561069c575f84848381811061118957611189611f4d565b9050602002013590506111a681609b61180f90919063ffffffff16565b6111c35760405163b3f92ba160e01b815260040160405180910390fd5b6040518181527f6824d36084ecf2cd819b137cb5d837cc6e73afce1e0e348c9fdecaa81d0341e59060200160405180910390a15060010161116e565b6112076112e2565b6001600160a01b03811661126c5760405162461bcd60e51b815260206004820152602660248201527f4f776e61626c653a206e6577206f776e657220697320746865207a65726f206160448201526564647265737360d01b6064820152608401610612565b61115681611386565b61127d61181a565b606654801982198116146112a45760405163c61dca5d60e01b815260040160405180910390fd5b606682905560405182815233907f3582d1828e26bf56bd801502bc021ac0bc8afb57c826e4986b45593c8fad389c9060200160405180910390a25050565b6033546001600160a01b03163314610b515760405162461bcd60e51b815260206004820181905260248201527f4f776e61626c653a2063616c6c6572206973206e6f7420746865206f776e65726044820152606401610612565b606654600160ff83161b908116036111565760405163840a48d560e01b815260040160405180910390fd5b5f61137c84846001600160a01b0385166118cb565b90505b9392505050565b603380546001600160a01b038381166001600160a01b0319831681179093556040519116919082907f8be0079c531659141344cd1fd0a4f28419497f9722a3daafe3b4186f6b6457e0905f90a35050565b5f8163ffffffff16116113fd576040516316d98e1b60e31b815260040160405180910390fd5b609e805463ffffffff191663ffffffff83169081179091556040519081527f4fbcd0cca70015b33db8af4aa4f2bd6fd6c1efa9460b8e2333f252c1467a63279060200160405180910390a150565b606681905560405181815233907fab40a374bc51de372200a8bc981af8c9ecdc08dfdaef0bb6e09f88f3c616ef3d9060200160405180910390a250565b60405163237dfb4760e11b81523360048201527f00000000000000000000000000000000000000000000000000000000000000006001600160a01b0316906346fbf68e90602401602060405180830381865afa1580156114ea573d5f5f3e3d5ffd5b505050506040513d601f19601f8201168201806040525081019061150e9190611fa0565b610b5157604051631d77d47760e21b815260040160405180910390fd5b604051631beb2b9760e31b81526001600160a01b0382811660048301523360248301523060448301525f80356001600160e01b0319166064840152917f00000000000000000000000000000000000000000000000000000000000000009091169063df595cb8906084016020604051808303815f875af11580156115b1573d5f5f3e3d5ffd5b505050506040513d601f19601f820116820180604052508101906115d59190611fa0565b92915050565b5f815f0151826020015163ffffffff1660405160200161162692919060609290921b6bffffffffffffffffffffffff1916825260a01b6001600160a01b031916601482015260200190565b6040516020818303038152906040526115d5906120c9565b8060995f61164b856115db565b81526020019081526020015f205f6101000a8154816001600160a01b0302191690836001600160a01b031602179055507f7f7ccafd92d20fdb39dee184a0dce002a9da420ed0def461f2a027abc9b3f6df82826040516116ac9291906120ec565b60405180910390a15050565b602081015163ffffffff1615806116df5750609e54602082015163ffffffff918216911610155b6116fc57604051632e46483160e11b815260040160405180910390fd5b80609a5f611709856115db565b815260208082019290925260409081015f2083518154949093015163ffffffff16600160a01b026001600160c01b03199094166001600160a01b0390931692909217929092179055517f3147846ee526009000671c20380b856a633345691300f82585f90034715cf0e2906116ac9084908490612112565b60605f61178d836118e7565b6040805160208082528183019092529192505f91906020820181803683375050509182525060208101929092525090565b5f61137f838361190e565b5f6115d5826119f1565b5f8080806117e186866119fb565b909450925050505b9250929050565b5f6115d5825490565b5f61137f8383611a24565b5f61137f8383611a4a565b5f61137f8383611a96565b7f00000000000000000000000000000000000000000000000000000000000000006001600160a01b031663eab66d7a6040518163ffffffff1660e01b8152600401602060405180830381865afa158015611876573d5f5f3e3d5ffd5b505050506040513d601f19601f8201168201806040525081019061189a919061212d565b6001600160a01b0316336001600160a01b031614610b515760405163794821ff60e01b815260040160405180910390fd5b5f828152600284016020526040812082905561137c8484611804565b5f60ff8216601f8111156115d557604051632cd44ac360e21b815260040160405180910390fd5b5f81815260018301602052604081205480156119e8575f611930600183612148565b85549091505f9061194390600190612148565b90508181146119a2575f865f01828154811061196157611961611f4d565b905f5260205f200154905080875f01848154811061198157611981611f4d565b5f918252602080832090910192909255918252600188019052604090208390555b85548690806119b3576119b3612167565b600190038181905f5260205f20015f90559055856001015f8681526020019081526020015f205f9055600193505050506115d5565b5f9150506115d5565b5f6115d5826117f0565b5f8080611a0885856117f9565b5f81815260029690960160205260409095205494959350505050565b5f825f018281548110611a3957611a39611f4d565b905f5260205f200154905092915050565b5f818152600183016020526040812054611a8f57508154600181810184555f8481526020808220909301849055845484825282860190935260409020919091556115d5565b505f6115d5565b5f818152600283016020526040812081905561137f83836117be565b5f5f83601f840112611ac2575f5ffd5b50813567ffffffffffffffff811115611ad9575f5ffd5b6020830191508360208260051b85010111156117e9575f5ffd5b5f5f5f5f60408587031215611b06575f5ffd5b843567ffffffffffffffff811115611b1c575f5ffd5b611b2887828801611ab2565b909550935050602085013567ffffffffffffffff811115611b47575f5ffd5b611b5387828801611ab2565b95989497509550505050565b6001600160a01b0381168114611156575f5ffd5b803563ffffffff81168114611b86575f5ffd5b919050565b5f5f5f60608486031215611b9d575f5ffd5b8335611ba881611b5f565b9250611bb660208501611b73565b929592945050506040919091013590565b5f60208284031215611bd7575f5ffd5b5035919050565b5f60408284031215611bee575f5ffd5b50919050565b5f5f60608385031215611c05575f5ffd5b611c0f8484611bde565b91506040830135611c1f81611b5f565b809150509250929050565b634e487b7160e01b5f52604160045260245ffd5b604051601f8201601f1916810167ffffffffffffffff81118282101715611c6757611c67611c2a565b604052919050565b5f60408284031215611c7f575f5ffd5b6040805190810167ffffffffffffffff81118282101715611ca257611ca2611c2a565b6040529050808235611cb381611b5f565b8152611cc160208401611b73565b60208201525092915050565b5f60408284031215611cdd575f5ffd5b61137f8383611c6f565b80516001600160a01b0316825260209081015163ffffffff16910152565b604081016115d58284611ce7565b5f5f60808385031215611d24575f5ffd5b611d2e8484611bde565b9150611d3d8460408501611bde565b90509250929050565b5f60408284031215611d56575f5ffd5b61137f8383611bde565b5f81518084528060208401602086015e5f602082860101526020601f19601f83011685010191505092915050565b602081525f61137f6020830184611d60565b5f60208284031215611db0575f5ffd5b813560ff8116811461137f575f5ffd5b604080825283519082018190525f9060208501906060840190835b81811015611df9578351835260209384019390920191600101611ddb565b5050838103602080860191909152855180835291810192508501905f5b81811015611e3d5782516001600160a01b0316845260209384019390920191600101611e16565b50919695505050505050565b602080825282518282018190525f918401906040840190835b81811015611e8b57611e75838551611ce7565b6020939093019260409290920191600101611e62565b509095945050505050565b5f5f5f60a08486031215611ea8575f5ffd5b611eb28585611bde565b92506040840135611ec281611b5f565b9150611ed18560608601611bde565b90509250925092565b5f60208284031215611eea575f5ffd5b61137f82611b73565b5f5f60208385031215611f04575f5ffd5b823567ffffffffffffffff811115611f1a575f5ffd5b611f2685828601611ab2565b90969095509350505050565b5f60208284031215611f42575f5ffd5b813561137f81611b5f565b634e487b7160e01b5f52603260045260245ffd5b8035611f6c81611b5f565b6001600160a01b0316825263ffffffff611f8860208301611b73565b1660208301525050565b604081016115d58284611f61565b5f60208284031215611fb0575f5ffd5b8151801515811461137f575f5ffd5b5f60208284031215611fcf575f5ffd5b81516003811061137f575f5ffd5b5f60208284031215611fed575f5ffd5b815167ffffffffffffffff811115612003575f5ffd5b8201601f81018413612013575f5ffd5b805167ffffffffffffffff81111561202d5761202d611c2a565b612040601f8201601f1916602001611c3e565b818152856020838501011115612054575f5ffd5b8160208401602083015e5f91810160200191909152949350505050565b61207b8186611f61565b5f6003851061209857634e487b7160e01b5f52602160045260245ffd5b8460408301526120ab6060830185611ce7565b60c060a08301526120bf60c0830184611d60565b9695505050505050565b80516020808301519190811015611bee575f1960209190910360031b1b16919050565b606081016120fa8285611ce7565b6001600160a01b039290921660409190910152919050565b608081016121208285611ce7565b61137f6040830184611ce7565b5f6020828403121561213d575f5ffd5b815161137f81611b5f565b818103818111156115d557634e487b7160e01b5f52601160045260245ffd5b634e487b7160e01b5f52603160045260245ffdfea2646970667358221220532b4c78e063e9261ea3bf204eb7263cc0e69f06dd18fb85ec5ba1485658584a64736f6c634300081b0033",
    "linkReferences": {}
  },
  "methodIdentifiers": {
    "addChainIDsToWhitelist(uint256[],address[])": "04e98be3",
    "allocationManager()": "ca8aa7c7",
    "calculateOperatorTableBytes((address,uint32))": "41ee6d0e",
    "createGenerationReservation((address,uint32),address,(address,uint32))": "d5044911",
    "getActiveGenerationReservations()": "d09b978b",
    "getOperatorSetConfig((address,uint32))": "21fa7fdc",
    "getOperatorTableCalculator((address,uint32))": "75e4b539",
    "getSupportedChains()": "c4bffe2b",
    "getTableUpdateCadence()": "ac505f4b",
    "initialize(address,uint32,uint256)": "0f19aaef",
    "keyRegistrar()": "3ec45c7e",
    "owner()": "8da5cb5b",
    "pause(uint256)": "136439dd",
    "pauseAll()": "595c6a67",
    "paused()": "5c975abb",
    "paused(uint8)": "5ac86ab7",
    "pauserRegistry()": "886f1195",
    "permissionController()": "4657e26a",
    "removeChainIDsFromWhitelist(uint256[])": "dfbd9dfd",
    "removeGenerationReservation((address,uint32))": "6c55a37f",
    "renounceOwnership()": "715018a6",
    "setOperatorSetConfig((address,uint32),(address,uint32))": "277e1e62",
    "setOperatorTableCalculator((address,uint32),address)": "1ca9142a",
    "setTableUpdateCadence(uint32)": "d6db9e25",
    "transferOwnership(address)": "f2fde38b",
    "unpause(uint256)": "fabc1cbc",
    "version()": "54fd4d50"
  },
  "id": 152
}