{
  "abi": [
    {
      "type": "constructor",
      "inputs": [
        {
          "name": "params",
          "type": "tuple",
          "internalType": "struct IRewardsCoordinatorTypes.RewardsCoordinatorConstructorParams",
          "components": [
            {
              "name": "delegationManager",
              "type": "address",
              "internalType": "contract IDelegationManager"
            },
            {
              "name": "strategyManager",
              "type": "address",
              "internalType": "contract IStrategyManager"
            },
            {
              "name": "allocationManager",
              "type": "address",
              "internalType": "contract IAllocationManager"
            },
            {
              "name": "pauserRegistry",
              "type": "address",
              "internalType": "contract IPauserRegistry"
            },
            {
              "name": "permissionController",
              "type": "address",
              "internalType": "contract IPermissionController"
            },
            {
              "name": "CALCULATION_INTERVAL_SECONDS",
              "type": "uint32",
              "internalType": "uint32"
            },
            {
              "name": "MAX_REWARDS_DURATION",
              "type": "uint32",
              "internalType": "uint32"
            },
            {
              "name": "MAX_RETROACTIVE_LENGTH",
              "type": "uint32",
              "internalType": "uint32"
            },
            {
              "name": "MAX_FUTURE_LENGTH",
              "type": "uint32",
              "internalType": "uint32"
            },
            {
              "name": "GENESIS_REWARDS_TIMESTAMP",
              "type": "uint32",
              "internalType": "uint32"
            }
          ]
        }
      ],
      "stateMutability": "nonpayable"
    },
    {
      "type": "function",
      "name": "CALCULATION_INTERVAL_SECONDS",
      "inputs": [],
      "outputs": [
        {
          "name": "",
          "type": "uint32",
          "internalType": "uint32"
        }
      ],
      "stateMutability": "view"
    },
    {
      "type": "function",
      "name": "GENESIS_REWARDS_TIMESTAMP",
      "inputs": [],
      "outputs": [
        {
          "name": "",
          "type": "uint32",
          "internalType": "uint32"
        }
      ],
      "stateMutability": "view"
    },
    {
      "type": "function",
      "name": "MAX_FUTURE_LENGTH",
      "inputs": [],
      "outputs": [
        {
          "name": "",
          "type": "uint32",
          "internalType": "uint32"
        }
      ],
      "stateMutability": "view"
    },
    {
      "type": "function",
      "name": "MAX_RETROACTIVE_LENGTH",
      "inputs": [],
      "outputs": [
        {
          "name": "",
          "type": "uint32",
          "internalType": "uint32"
        }
      ],
      "stateMutability": "view"
    },
    {
      "type": "function",
      "name": "MAX_REWARDS_DURATION",
      "inputs": [],
      "outputs": [
        {
          "name": "",
          "type": "uint32",
          "internalType": "uint32"
        }
      ],
      "stateMutability": "view"
    },
    {
      "type": "function",
      "name": "activationDelay",
      "inputs": [],
      "outputs": [
        {
          "name": "",
          "type": "uint32",
          "internalType": "uint32"
        }
      ],
      "stateMutability": "view"
    },
    {
      "type": "function",
      "name": "allocationManager",
      "inputs": [],
      "outputs": [
        {
          "name": "",
          "type": "address",
          "internalType": "contract IAllocationManager"
        }
      ],
      "stateMutability": "view"
    },
    {
      "type": "function",
      "name": "beaconChainETHStrategy",
      "inputs": [],
      "outputs": [
        {
          "name": "",
          "type": "address",
          "internalType": "contract IStrategy"
        }
      ],
      "stateMutability": "view"
    },
    {
      "type": "function",
      "name": "calculateEarnerLeafHash",
      "inputs": [
        {
          "name": "leaf",
          "type": "tuple",
          "internalType": "struct IRewardsCoordinatorTypes.EarnerTreeMerkleLeaf",
          "components": [
            {
              "name": "earner",
              "type": "address",
              "internalType": "address"
            },
            {
              "name": "earnerTokenRoot",
              "type": "bytes32",
              "internalType": "bytes32"
            }
          ]
        }
      ],
      "outputs": [
        {
          "name": "",
          "type": "bytes32",
          "internalType": "bytes32"
        }
      ],
      "stateMutability": "pure"
    },
    {
      "type": "function",
      "name": "calculateTokenLeafHash",
      "inputs": [
        {
          "name": "leaf",
          "type": "tuple",
          "internalType": "struct IRewardsCoordinatorTypes.TokenTreeMerkleLeaf",
          "components": [
            {
              "name": "token",
              "type": "address",
              "internalType": "contract IERC20"
            },
            {
              "name": "cumulativeEarnings",
              "type": "uint256",
              "internalType": "uint256"
            }
          ]
        }
      ],
      "outputs": [
        {
          "name": "",
          "type": "bytes32",
          "internalType": "bytes32"
        }
      ],
      "stateMutability": "pure"
    },
    {
      "type": "function",
      "name": "checkClaim",
      "inputs": [
        {
          "name": "claim",
          "type": "tuple",
          "internalType": "struct IRewardsCoordinatorTypes.RewardsMerkleClaim",
          "components": [
            {
              "name": "rootIndex",
              "type": "uint32",
              "internalType": "uint32"
            },
            {
              "name": "earnerIndex",
              "type": "uint32",
              "internalType": "uint32"
            },
            {
              "name": "earnerTreeProof",
              "type": "bytes",
              "internalType": "bytes"
            },
            {
              "name": "earnerLeaf",
              "type": "tuple",
              "internalType": "struct IRewardsCoordinatorTypes.EarnerTreeMerkleLeaf",
              "components": [
                {
                  "name": "earner",
                  "type": "address",
                  "internalType": "address"
                },
                {
                  "name": "earnerTokenRoot",
                  "type": "bytes32",
                  "internalType": "bytes32"
                }
              ]
            },
            {
              "name": "tokenIndices",
              "type": "uint32[]",
              "internalType": "uint32[]"
            },
            {
              "name": "tokenTreeProofs",
              "type": "bytes[]",
              "internalType": "bytes[]"
            },
            {
              "name": "tokenLeaves",
              "type": "tuple[]",
              "internalType": "struct IRewardsCoordinatorTypes.TokenTreeMerkleLeaf[]",
              "components": [
                {
                  "name": "token",
                  "type": "address",
                  "internalType": "contract IERC20"
                },
                {
                  "name": "cumulativeEarnings",
                  "type": "uint256",
                  "internalType": "uint256"
                }
              ]
            }
          ]
        }
      ],
      "outputs": [
        {
          "name": "",
          "type": "bool",
          "internalType": "bool"
        }
      ],
      "stateMutability": "view"
    },
    {
      "type": "function",
      "name": "claimerFor",
      "inputs": [
        {
          "name": "earner",
          "type": "address",
          "internalType": "address"
        }
      ],
      "outputs": [
        {
          "name": "claimer",
          "type": "address",
          "internalType": "address"
        }
      ],
      "stateMutability": "view"
    },
    {
      "type": "function",
      "name": "createAVSRewardsSubmission",
      "inputs": [
        {
          "name": "rewardsSubmissions",
          "type": "tuple[]",
          "internalType": "struct IRewardsCoordinatorTypes.RewardsSubmission[]",
          "components": [
            {
              "name": "strategiesAndMultipliers",
              "type": "tuple[]",
              "internalType": "struct IRewardsCoordinatorTypes.StrategyAndMultiplier[]",
              "components": [
                {
                  "name": "strategy",
                  "type": "address",
                  "internalType": "contract IStrategy"
                },
                {
                  "name": "multiplier",
                  "type": "uint96",
                  "internalType": "uint96"
                }
              ]
            },
            {
              "name": "token",
              "type": "address",
              "internalType": "contract IERC20"
            },
            {
              "name": "amount",
              "type": "uint256",
              "internalType": "uint256"
            },
            {
              "name": "startTimestamp",
              "type": "uint32",
              "internalType": "uint32"
            },
            {
              "name": "duration",
              "type": "uint32",
              "internalType": "uint32"
            }
          ]
        }
      ],
      "outputs": [],
      "stateMutability": "nonpayable"
    },
    {
      "type": "function",
      "name": "createOperatorDirectedAVSRewardsSubmission",
      "inputs": [
        {
          "name": "avs",
          "type": "address",
          "internalType": "address"
        },
        {
          "name": "operatorDirectedRewardsSubmissions",
          "type": "tuple[]",
          "internalType": "struct IRewardsCoordinatorTypes.OperatorDirectedRewardsSubmission[]",
          "components": [
            {
              "name": "strategiesAndMultipliers",
              "type": "tuple[]",
              "internalType": "struct IRewardsCoordinatorTypes.StrategyAndMultiplier[]",
              "components": [
                {
                  "name": "strategy",
                  "type": "address",
                  "internalType": "contract IStrategy"
                },
                {
                  "name": "multiplier",
                  "type": "uint96",
                  "internalType": "uint96"
                }
              ]
            },
            {
              "name": "token",
              "type": "address",
              "internalType": "contract IERC20"
            },
            {
              "name": "operatorRewards",
              "type": "tuple[]",
              "internalType": "struct IRewardsCoordinatorTypes.OperatorReward[]",
              "components": [
                {
                  "name": "operator",
                  "type": "address",
                  "internalType": "address"
                },
                {
                  "name": "amount",
                  "type": "uint256",
                  "internalType": "uint256"
                }
              ]
            },
            {
              "name": "startTimestamp",
              "type": "uint32",
              "internalType": "uint32"
            },
            {
              "name": "duration",
              "type": "uint32",
              "internalType": "uint32"
            },
            {
              "name": "description",
              "type": "string",
              "internalType": "string"
            }
          ]
        }
      ],
      "outputs": [],
      "stateMutability": "nonpayable"
    },
    {
      "type": "function",
      "name": "createOperatorDirectedOperatorSetRewardsSubmission",
      "inputs": [
        {
          "name": "operatorSet",
          "type": "tuple",
          "internalType": "struct OperatorSet",
          "components": [
            {
              "name": "avs",
              "type": "address",
              "internalType": "address"
            },
            {
              "name": "id",
              "type": "uint32",
              "internalType": "uint32"
            }
          ]
        },
        {
          "name": "operatorDirectedRewardsSubmissions",
          "type": "tuple[]",
          "internalType": "struct IRewardsCoordinatorTypes.OperatorDirectedRewardsSubmission[]",
          "components": [
            {
              "name": "strategiesAndMultipliers",
              "type": "tuple[]",
              "internalType": "struct IRewardsCoordinatorTypes.StrategyAndMultiplier[]",
              "components": [
                {
                  "name": "strategy",
                  "type": "address",
                  "internalType": "contract IStrategy"
                },
                {
                  "name": "multiplier",
                  "type": "uint96",
                  "internalType": "uint96"
                }
              ]
            },
            {
              "name": "token",
              "type": "address",
              "internalType": "contract IERC20"
            },
            {
              "name": "operatorRewards",
              "type": "tuple[]",
              "internalType": "struct IRewardsCoordinatorTypes.OperatorReward[]",
              "components": [
                {
                  "name": "operator",
                  "type": "address",
                  "internalType": "address"
                },
                {
                  "name": "amount",
                  "type": "uint256",
                  "internalType": "uint256"
                }
              ]
            },
            {
              "name": "startTimestamp",
              "type": "uint32",
              "internalType": "uint32"
            },
            {
              "name": "duration",
              "type": "uint32",
              "internalType": "uint32"
            },
            {
              "name": "description",
              "type": "string",
              "internalType": "string"
            }
          ]
        }
      ],
      "outputs": [],
      "stateMutability": "nonpayable"
    },
    {
      "type": "function",
      "name": "createRewardsForAllEarners",
      "inputs": [
        {
          "name": "rewardsSubmissions",
          "type": "tuple[]",
          "internalType": "struct IRewardsCoordinatorTypes.RewardsSubmission[]",
          "components": [
            {
              "name": "strategiesAndMultipliers",
              "type": "tuple[]",
              "internalType": "struct IRewardsCoordinatorTypes.StrategyAndMultiplier[]",
              "components": [
                {
                  "name": "strategy",
                  "type": "address",
                  "internalType": "contract IStrategy"
                },
                {
                  "name": "multiplier",
                  "type": "uint96",
                  "internalType": "uint96"
                }
              ]
            },
            {
              "name": "token",
              "type": "address",
              "internalType": "contract IERC20"
            },
            {
              "name": "amount",
              "type": "uint256",
              "internalType": "uint256"
            },
            {
              "name": "startTimestamp",
              "type": "uint32",
              "internalType": "uint32"
            },
            {
              "name": "duration",
              "type": "uint32",
              "internalType": "uint32"
            }
          ]
        }
      ],
      "outputs": [],
      "stateMutability": "nonpayable"
    },
    {
      "type": "function",
      "name": "createRewardsForAllSubmission",
      "inputs": [
        {
          "name": "rewardsSubmissions",
          "type": "tuple[]",
          "internalType": "struct IRewardsCoordinatorTypes.RewardsSubmission[]",
          "components": [
            {
              "name": "strategiesAndMultipliers",
              "type": "tuple[]",
              "internalType": "struct IRewardsCoordinatorTypes.StrategyAndMultiplier[]",
              "components": [
                {
                  "name": "strategy",
                  "type": "address",
                  "internalType": "contract IStrategy"
                },
                {
                  "name": "multiplier",
                  "type": "uint96",
                  "internalType": "uint96"
                }
              ]
            },
            {
              "name": "token",
              "type": "address",
              "internalType": "contract IERC20"
            },
            {
              "name": "amount",
              "type": "uint256",
              "internalType": "uint256"
            },
            {
              "name": "startTimestamp",
              "type": "uint32",
              "internalType": "uint32"
            },
            {
              "name": "duration",
              "type": "uint32",
              "internalType": "uint32"
            }
          ]
        }
      ],
      "outputs": [],
      "stateMutability": "nonpayable"
    },
    {
      "type": "function",
      "name": "createTotalStakeRewardsSubmission",
      "inputs": [
        {
          "name": "operatorSet",
          "type": "tuple",
          "internalType": "struct OperatorSet",
          "components": [
            {
              "name": "avs",
              "type": "address",
              "internalType": "address"
            },
            {
              "name": "id",
              "type": "uint32",
              "internalType": "uint32"
            }
          ]
        },
        {
          "name": "rewardsSubmissions",
          "type": "tuple[]",
          "internalType": "struct IRewardsCoordinatorTypes.RewardsSubmission[]",
          "components": [
            {
              "name": "strategiesAndMultipliers",
              "type": "tuple[]",
              "internalType": "struct IRewardsCoordinatorTypes.StrategyAndMultiplier[]",
              "components": [
                {
                  "name": "strategy",
                  "type": "address",
                  "internalType": "contract IStrategy"
                },
                {
                  "name": "multiplier",
                  "type": "uint96",
                  "internalType": "uint96"
                }
              ]
            },
            {
              "name": "token",
              "type": "address",
              "internalType": "contract IERC20"
            },
            {
              "name": "amount",
              "type": "uint256",
              "internalType": "uint256"
            },
            {
              "name": "startTimestamp",
              "type": "uint32",
              "internalType": "uint32"
            },
            {
              "name": "duration",
              "type": "uint32",
              "internalType": "uint32"
            }
          ]
        }
      ],
      "outputs": [],
      "stateMutability": "nonpayable"
    },
    {
      "type": "function",
      "name": "createUniqueStakeRewardsSubmission",
      "inputs": [
        {
          "name": "operatorSet",
          "type": "tuple",
          "internalType": "struct OperatorSet",
          "components": [
            {
              "name": "avs",
              "type": "address",
              "internalType": "address"
            },
            {
              "name": "id",
              "type": "uint32",
              "internalType": "uint32"
            }
          ]
        },
        {
          "name": "rewardsSubmissions",
          "type": "tuple[]",
          "internalType": "struct IRewardsCoordinatorTypes.RewardsSubmission[]",
          "components": [
            {
              "name": "strategiesAndMultipliers",
              "type": "tuple[]",
              "internalType": "struct IRewardsCoordinatorTypes.StrategyAndMultiplier[]",
              "components": [
                {
                  "name": "strategy",
                  "type": "address",
                  "internalType": "contract IStrategy"
                },
                {
                  "name": "multiplier",
                  "type": "uint96",
                  "internalType": "uint96"
                }
              ]
            },
            {
              "name": "token",
              "type": "address",
              "internalType": "contract IERC20"
            },
            {
              "name": "amount",
              "type": "uint256",
              "internalType": "uint256"
            },
            {
              "name": "startTimestamp",
              "type": "uint32",
              "internalType": "uint32"
            },
            {
              "name": "duration",
              "type": "uint32",
              "internalType": "uint32"
            }
          ]
        }
      ],
      "outputs": [],
      "stateMutability": "nonpayable"
    },
    {
      "type": "function",
      "name": "cumulativeClaimed",
      "inputs": [
        {
          "name": "earner",
          "type": "address",
          "internalType": "address"
        },
        {
          "name": "token",
          "type": "address",
          "internalType": "contract IERC20"
        }
      ],
      "outputs": [
        {
          "name": "totalClaimed",
          "type": "uint256",
          "internalType": "uint256"
        }
      ],
      "stateMutability": "view"
    },
    {
      "type": "function",
      "name": "currRewardsCalculationEndTimestamp",
      "inputs": [],
      "outputs": [
        {
          "name": "",
          "type": "uint32",
          "internalType": "uint32"
        }
      ],
      "stateMutability": "view"
    },
    {
      "type": "function",
      "name": "defaultOperatorSplitBips",
      "inputs": [],
      "outputs": [
        {
          "name": "",
          "type": "uint16",
          "internalType": "uint16"
        }
      ],
      "stateMutability": "view"
    },
    {
      "type": "function",
      "name": "delegationManager",
      "inputs": [],
      "outputs": [
        {
          "name": "",
          "type": "address",
          "internalType": "contract IDelegationManager"
        }
      ],
      "stateMutability": "view"
    },
    {
      "type": "function",
      "name": "disableRoot",
      "inputs": [
        {
          "name": "rootIndex",
          "type": "uint32",
          "internalType": "uint32"
        }
      ],
      "outputs": [],
      "stateMutability": "nonpayable"
    },
    {
      "type": "function",
      "name": "getCurrentClaimableDistributionRoot",
      "inputs": [],
      "outputs": [
        {
          "name": "",
          "type": "tuple",
          "internalType": "struct IRewardsCoordinatorTypes.DistributionRoot",
          "components": [
            {
              "name": "root",
              "type": "bytes32",
              "internalType": "bytes32"
            },
            {
              "name": "rewardsCalculationEndTimestamp",
              "type": "uint32",
              "internalType": "uint32"
            },
            {
              "name": "activatedAt",
              "type": "uint32",
              "internalType": "uint32"
            },
            {
              "name": "disabled",
              "type": "bool",
              "internalType": "bool"
            }
          ]
        }
      ],
      "stateMutability": "view"
    },
    {
      "type": "function",
      "name": "getCurrentDistributionRoot",
      "inputs": [],
      "outputs": [
        {
          "name": "",
          "type": "tuple",
          "internalType": "struct IRewardsCoordinatorTypes.DistributionRoot",
          "components": [
            {
              "name": "root",
              "type": "bytes32",
              "internalType": "bytes32"
            },
            {
              "name": "rewardsCalculationEndTimestamp",
              "type": "uint32",
              "internalType": "uint32"
            },
            {
              "name": "activatedAt",
              "type": "uint32",
              "internalType": "uint32"
            },
            {
              "name": "disabled",
              "type": "bool",
              "internalType": "bool"
            }
          ]
        }
      ],
      "stateMutability": "view"
    },
    {
      "type": "function",
      "name": "getDistributionRootAtIndex",
      "inputs": [
        {
          "name": "index",
          "type": "uint256",
          "internalType": "uint256"
        }
      ],
      "outputs": [
        {
          "name": "",
          "type": "tuple",
          "internalType": "struct IRewardsCoordinatorTypes.DistributionRoot",
          "components": [
            {
              "name": "root",
              "type": "bytes32",
              "internalType": "bytes32"
            },
            {
              "name": "rewardsCalculationEndTimestamp",
              "type": "uint32",
              "internalType": "uint32"
            },
            {
              "name": "activatedAt",
              "type": "uint32",
              "internalType": "uint32"
            },
            {
              "name": "disabled",
              "type": "bool",
              "internalType": "bool"
            }
          ]
        }
      ],
      "stateMutability": "view"
    },
    {
      "type": "function",
      "name": "getDistributionRootsLength",
      "inputs": [],
      "outputs": [
        {
          "name": "",
          "type": "uint256",
          "internalType": "uint256"
        }
      ],
      "stateMutability": "view"
    },
    {
      "type": "function",
      "name": "getOperatorAVSSplit",
      "inputs": [
        {
          "name": "operator",
          "type": "address",
          "internalType": "address"
        },
        {
          "name": "avs",
          "type": "address",
          "internalType": "address"
        }
      ],
      "outputs": [
        {
          "name": "",
          "type": "uint16",
          "internalType": "uint16"
        }
      ],
      "stateMutability": "view"
    },
    {
      "type": "function",
      "name": "getOperatorPISplit",
      "inputs": [
        {
          "name": "operator",
          "type": "address",
          "internalType": "address"
        }
      ],
      "outputs": [
        {
          "name": "",
          "type": "uint16",
          "internalType": "uint16"
        }
      ],
      "stateMutability": "view"
    },
    {
      "type": "function",
      "name": "getOperatorSetSplit",
      "inputs": [
        {
          "name": "operator",
          "type": "address",
          "internalType": "address"
        },
        {
          "name": "operatorSet",
          "type": "tuple",
          "internalType": "struct OperatorSet",
          "components": [
            {
              "name": "avs",
              "type": "address",
              "internalType": "address"
            },
            {
              "name": "id",
              "type": "uint32",
              "internalType": "uint32"
            }
          ]
        }
      ],
      "outputs": [
        {
          "name": "",
          "type": "uint16",
          "internalType": "uint16"
        }
      ],
      "stateMutability": "view"
    },
    {
      "type": "function",
      "name": "getRootIndexFromHash",
      "inputs": [
        {
          "name": "rootHash",
          "type": "bytes32",
          "internalType": "bytes32"
        }
      ],
      "outputs": [
        {
          "name": "",
          "type": "uint32",
          "internalType": "uint32"
        }
      ],
      "stateMutability": "view"
    },
    {
      "type": "function",
      "name": "initialize",
      "inputs": [
        {
          "name": "initialOwner",
          "type": "address",
          "internalType": "address"
        },
        {
          "name": "initialPausedStatus",
          "type": "uint256",
          "internalType": "uint256"
        },
        {
          "name": "_rewardsUpdater",
          "type": "address",
          "internalType": "address"
        },
        {
          "name": "_activationDelay",
          "type": "uint32",
          "internalType": "uint32"
        },
        {
          "name": "_defaultSplitBips",
          "type": "uint16",
          "internalType": "uint16"
        }
      ],
      "outputs": [],
      "stateMutability": "nonpayable"
    },
    {
      "type": "function",
      "name": "isAVSRewardsSubmissionHash",
      "inputs": [
        {
          "name": "avs",
          "type": "address",
          "internalType": "address"
        },
        {
          "name": "hash",
          "type": "bytes32",
          "internalType": "bytes32"
        }
      ],
      "outputs": [
        {
          "name": "valid",
          "type": "bool",
          "internalType": "bool"
        }
      ],
      "stateMutability": "view"
    },
    {
      "type": "function",
      "name": "isOperatorDirectedAVSRewardsSubmissionHash",
      "inputs": [
        {
          "name": "avs",
          "type": "address",
          "internalType": "address"
        },
        {
          "name": "hash",
          "type": "bytes32",
          "internalType": "bytes32"
        }
      ],
      "outputs": [
        {
          "name": "valid",
          "type": "bool",
          "internalType": "bool"
        }
      ],
      "stateMutability": "view"
    },
    {
      "type": "function",
      "name": "isOperatorDirectedOperatorSetRewardsSubmissionHash",
      "inputs": [
        {
          "name": "avs",
          "type": "address",
          "internalType": "address"
        },
        {
          "name": "hash",
          "type": "bytes32",
          "internalType": "bytes32"
        }
      ],
      "outputs": [
        {
          "name": "valid",
          "type": "bool",
          "internalType": "bool"
        }
      ],
      "stateMutability": "view"
    },
    {
      "type": "function",
      "name": "isRewardsForAllSubmitter",
      "inputs": [
        {
          "name": "submitter",
          "type": "address",
          "internalType": "address"
        }
      ],
      "outputs": [
        {
          "name": "valid",
          "type": "bool",
          "internalType": "bool"
        }
      ],
      "stateMutability": "view"
    },
    {
      "type": "function",
      "name": "isRewardsSubmissionForAllEarnersHash",
      "inputs": [
        {
          "name": "avs",
          "type": "address",
          "internalType": "address"
        },
        {
          "name": "hash",
          "type": "bytes32",
          "internalType": "bytes32"
        }
      ],
      "outputs": [
        {
          "name": "valid",
          "type": "bool",
          "internalType": "bool"
        }
      ],
      "stateMutability": "view"
    },
    {
      "type": "function",
      "name": "isRewardsSubmissionForAllHash",
      "inputs": [
        {
          "name": "avs",
          "type": "address",
          "internalType": "address"
        },
        {
          "name": "hash",
          "type": "bytes32",
          "internalType": "bytes32"
        }
      ],
      "outputs": [
        {
          "name": "valid",
          "type": "bool",
          "internalType": "bool"
        }
      ],
      "stateMutability": "view"
    },
    {
      "type": "function",
      "name": "isTotalStakeRewardsSubmissionHash",
      "inputs": [
        {
          "name": "avs",
          "type": "address",
          "internalType": "address"
        },
        {
          "name": "hash",
          "type": "bytes32",
          "internalType": "bytes32"
        }
      ],
      "outputs": [
        {
          "name": "valid",
          "type": "bool",
          "internalType": "bool"
        }
      ],
      "stateMutability": "view"
    },
    {
      "type": "function",
      "name": "isUniqueStakeRewardsSubmissionHash",
      "inputs": [
        {
          "name": "avs",
          "type": "address",
          "internalType": "address"
        },
        {
          "name": "hash",
          "type": "bytes32",
          "internalType": "bytes32"
        }
      ],
      "outputs": [
        {
          "name": "valid",
          "type": "bool",
          "internalType": "bool"
        }
      ],
      "stateMutability": "view"
    },
    {
      "type": "function",
      "name": "owner",
      "inputs": [],
      "outputs": [
        {
          "name": "",
          "type": "address",
          "internalType": "address"
        }
      ],
      "stateMutability": "view"
    },
    {
      "type": "function",
      "name": "pause",
      "inputs": [
        {
          "name": "newPausedStatus",
          "type": "uint256",
          "internalType": "uint256"
        }
      ],
      "outputs": [],
      "stateMutability": "nonpayable"
    },
    {
      "type": "function",
      "name": "pauseAll",
      "inputs": [],
      "outputs": [],
      "stateMutability": "nonpayable"
    },
    {
      "type": "function",
      "name": "paused",
      "inputs": [
        {
          "name": "index",
          "type": "uint8",
          "internalType": "uint8"
        }
      ],
      "outputs": [
        {
          "name": "",
          "type": "bool",
          "internalType": "bool"
        }
      ],
      "stateMutability": "view"
    },
    {
      "type": "function",
      "name": "paused",
      "inputs": [],
      "outputs": [
        {
          "name": "",
          "type": "uint256",
          "internalType": "uint256"
        }
      ],
      "stateMutability": "view"
    },
    {
      "type": "function",
      "name": "pauserRegistry",
      "inputs": [],
      "outputs": [
        {
          "name": "",
          "type": "address",
          "internalType": "contract IPauserRegistry"
        }
      ],
      "stateMutability": "view"
    },
    {
      "type": "function",
      "name": "permissionController",
      "inputs": [],
      "outputs": [
        {
          "name": "",
          "type": "address",
          "internalType": "contract IPermissionController"
        }
      ],
      "stateMutability": "view"
    },
    {
      "type": "function",
      "name": "processClaim",
      "inputs": [
        {
          "name": "claim",
          "type": "tuple",
          "internalType": "struct IRewardsCoordinatorTypes.RewardsMerkleClaim",
          "components": [
            {
              "name": "rootIndex",
              "type": "uint32",
              "internalType": "uint32"
            },
            {
              "name": "earnerIndex",
              "type": "uint32",
              "internalType": "uint32"
            },
            {
              "name": "earnerTreeProof",
              "type": "bytes",
              "internalType": "bytes"
            },
            {
              "name": "earnerLeaf",
              "type": "tuple",
              "internalType": "struct IRewardsCoordinatorTypes.EarnerTreeMerkleLeaf",
              "components": [
                {
                  "name": "earner",
                  "type": "address",
                  "internalType": "address"
                },
                {
                  "name": "earnerTokenRoot",
                  "type": "bytes32",
                  "internalType": "bytes32"
                }
              ]
            },
            {
              "name": "tokenIndices",
              "type": "uint32[]",
              "internalType": "uint32[]"
            },
            {
              "name": "tokenTreeProofs",
              "type": "bytes[]",
              "internalType": "bytes[]"
            },
            {
              "name": "tokenLeaves",
              "type": "tuple[]",
              "internalType": "struct IRewardsCoordinatorTypes.TokenTreeMerkleLeaf[]",
              "components": [
                {
                  "name": "token",
                  "type": "address",
                  "internalType": "contract IERC20"
                },
                {
                  "name": "cumulativeEarnings",
                  "type": "uint256",
                  "internalType": "uint256"
                }
              ]
            }
          ]
        },
        {
          "name": "recipient",
          "type": "address",
          "internalType": "address"
        }
      ],
      "outputs": [],
      "stateMutability": "nonpayable"
    },
    {
      "type": "function",
      "name": "processClaims",
      "inputs": [
        {
          "name": "claims",
          "type": "tuple[]",
          "internalType": "struct IRewardsCoordinatorTypes.RewardsMerkleClaim[]",
          "components": [
            {
              "name": "rootIndex",
              "type": "uint32",
              "internalType": "uint32"
            },
            {
              "name": "earnerIndex",
              "type": "uint32",
              "internalType": "uint32"
            },
            {
              "name": "earnerTreeProof",
              "type": "bytes",
              "internalType": "bytes"
            },
            {
              "name": "earnerLeaf",
              "type": "tuple",
              "internalType": "struct IRewardsCoordinatorTypes.EarnerTreeMerkleLeaf",
              "components": [
                {
                  "name": "earner",
                  "type": "address",
                  "internalType": "address"
                },
                {
                  "name": "earnerTokenRoot",
                  "type": "bytes32",
                  "internalType": "bytes32"
                }
              ]
            },
            {
              "name": "tokenIndices",
              "type": "uint32[]",
              "internalType": "uint32[]"
            },
            {
              "name": "tokenTreeProofs",
              "type": "bytes[]",
              "internalType": "bytes[]"
            },
            {
              "name": "tokenLeaves",
              "type": "tuple[]",
              "internalType": "struct IRewardsCoordinatorTypes.TokenTreeMerkleLeaf[]",
              "components": [
                {
                  "name": "token",
                  "type": "address",
                  "internalType": "contract IERC20"
                },
                {
                  "name": "cumulativeEarnings",
                  "type": "uint256",
                  "internalType": "uint256"
                }
              ]
            }
          ]
        },
        {
          "name": "recipient",
          "type": "address",
          "internalType": "address"
        }
      ],
      "outputs": [],
      "stateMutability": "nonpayable"
    },
    {
      "type": "function",
      "name": "renounceOwnership",
      "inputs": [],
      "outputs": [],
      "stateMutability": "nonpayable"
    },
    {
      "type": "function",
      "name": "rewardsUpdater",
      "inputs": [],
      "outputs": [
        {
          "name": "",
          "type": "address",
          "internalType": "address"
        }
      ],
      "stateMutability": "view"
    },
    {
      "type": "function",
      "name": "setActivationDelay",
      "inputs": [
        {
          "name": "_activationDelay",
          "type": "uint32",
          "internalType": "uint32"
        }
      ],
      "outputs": [],
      "stateMutability": "nonpayable"
    },
    {
      "type": "function",
      "name": "setClaimerFor",
      "inputs": [
        {
          "name": "claimer",
          "type": "address",
          "internalType": "address"
        }
      ],
      "outputs": [],
      "stateMutability": "nonpayable"
    },
    {
      "type": "function",
      "name": "setClaimerFor",
      "inputs": [
        {
          "name": "earner",
          "type": "address",
          "internalType": "address"
        },
        {
          "name": "claimer",
          "type": "address",
          "internalType": "address"
        }
      ],
      "outputs": [],
      "stateMutability": "nonpayable"
    },
    {
      "type": "function",
      "name": "setDefaultOperatorSplit",
      "inputs": [
        {
          "name": "split",
          "type": "uint16",
          "internalType": "uint16"
        }
      ],
      "outputs": [],
      "stateMutability": "nonpayable"
    },
    {
      "type": "function",
      "name": "setOperatorAVSSplit",
      "inputs": [
        {
          "name": "operator",
          "type": "address",
          "internalType": "address"
        },
        {
          "name": "avs",
          "type": "address",
          "internalType": "address"
        },
        {
          "name": "split",
          "type": "uint16",
          "internalType": "uint16"
        }
      ],
      "outputs": [],
      "stateMutability": "nonpayable"
    },
    {
      "type": "function",
      "name": "setOperatorPISplit",
      "inputs": [
        {
          "name": "operator",
          "type": "address",
          "internalType": "address"
        },
        {
          "name": "split",
          "type": "uint16",
          "internalType": "uint16"
        }
      ],
      "outputs": [],
      "stateMutability": "nonpayable"
    },
    {
      "type": "function",
      "name": "setOperatorSetSplit",
      "inputs": [
        {
          "name": "operator",
          "type": "address",
          "internalType": "address"
        },
        {
          "name": "operatorSet",
          "type": "tuple",
          "internalType": "struct OperatorSet",
          "components": [
            {
              "name": "avs",
              "type": "address",
              "internalType": "address"
            },
            {
              "name": "id",
              "type": "uint32",
              "internalType": "uint32"
            }
          ]
        },
        {
          "name": "split",
          "type": "uint16",
          "internalType": "uint16"
        }
      ],
      "outputs": [],
      "stateMutability": "nonpayable"
    },
    {
      "type": "function",
      "name": "setRewardsForAllSubmitter",
      "inputs": [
        {
          "name": "_submitter",
          "type": "address",
          "internalType": "address"
        },
        {
          "name": "_newValue",
          "type": "bool",
          "internalType": "bool"
        }
      ],
      "outputs": [],
      "stateMutability": "nonpayable"
    },
    {
      "type": "function",
      "name": "setRewardsUpdater",
      "inputs": [
        {
          "name": "_rewardsUpdater",
          "type": "address",
          "internalType": "address"
        }
      ],
      "outputs": [],
      "stateMutability": "nonpayable"
    },
    {
      "type": "function",
      "name": "strategyManager",
      "inputs": [],
      "outputs": [
        {
          "name": "",
          "type": "address",
          "internalType": "contract IStrategyManager"
        }
      ],
      "stateMutability": "view"
    },
    {
      "type": "function",
      "name": "submissionNonce",
      "inputs": [
        {
          "name": "avs",
          "type": "address",
          "internalType": "address"
        }
      ],
      "outputs": [
        {
          "name": "nonce",
          "type": "uint256",
          "internalType": "uint256"
        }
      ],
      "stateMutability": "view"
    },
    {
      "type": "function",
      "name": "submitRoot",
      "inputs": [
        {
          "name": "root",
          "type": "bytes32",
          "internalType": "bytes32"
        },
        {
          "name": "rewardsCalculationEndTimestamp",
          "type": "uint32",
          "internalType": "uint32"
        }
      ],
      "outputs": [],
      "stateMutability": "nonpayable"
    },
    {
      "type": "function",
      "name": "transferOwnership",
      "inputs": [
        {
          "name": "newOwner",
          "type": "address",
          "internalType": "address"
        }
      ],
      "outputs": [],
      "stateMutability": "nonpayable"
    },
    {
      "type": "function",
      "name": "unpause",
      "inputs": [
        {
          "name": "newPausedStatus",
          "type": "uint256",
          "internalType": "uint256"
        }
      ],
      "outputs": [],
      "stateMutability": "nonpayable"
    },
    {
      "type": "event",
      "name": "AVSRewardsSubmissionCreated",
      "inputs": [
        {
          "name": "avs",
          "type": "address",
          "indexed": true,
          "internalType": "address"
        },
        {
          "name": "submissionNonce",
          "type": "uint256",
          "indexed": true,
          "internalType": "uint256"
        },
        {
          "name": "rewardsSubmissionHash",
          "type": "bytes32",
          "indexed": true,
          "internalType": "bytes32"
        },
        {
          "name": "rewardsSubmission",
          "type": "tuple",
          "indexed": false,
          "internalType": "struct IRewardsCoordinatorTypes.RewardsSubmission",
          "components": [
            {
              "name": "strategiesAndMultipliers",
              "type": "tuple[]",
              "internalType": "struct IRewardsCoordinatorTypes.StrategyAndMultiplier[]",
              "components": [
                {
                  "name": "strategy",
                  "type": "address",
                  "internalType": "contract IStrategy"
                },
                {
                  "name": "multiplier",
                  "type": "uint96",
                  "internalType": "uint96"
                }
              ]
            },
            {
              "name": "token",
              "type": "address",
              "internalType": "contract IERC20"
            },
            {
              "name": "amount",
              "type": "uint256",
              "internalType": "uint256"
            },
            {
              "name": "startTimestamp",
              "type": "uint32",
              "internalType": "uint32"
            },
            {
              "name": "duration",
              "type": "uint32",
              "internalType": "uint32"
            }
          ]
        }
      ],
      "anonymous": false
    },
    {
      "type": "event",
      "name": "ActivationDelaySet",
      "inputs": [
        {
          "name": "oldActivationDelay",
          "type": "uint32",
          "indexed": false,
          "internalType": "uint32"
        },
        {
          "name": "newActivationDelay",
          "type": "uint32",
          "indexed": false,
          "internalType": "uint32"
        }
      ],
      "anonymous": false
    },
    {
      "type": "event",
      "name": "ClaimerForSet",
      "inputs": [
        {
          "name": "earner",
          "type": "address",
          "indexed": true,
          "internalType": "address"
        },
        {
          "name": "oldClaimer",
          "type": "address",
          "indexed": true,
          "internalType": "address"
        },
        {
          "name": "claimer",
          "type": "address",
          "indexed": true,
          "internalType": "address"
        }
      ],
      "anonymous": false
    },
    {
      "type": "event",
      "name": "DefaultOperatorSplitBipsSet",
      "inputs": [
        {
          "name": "oldDefaultOperatorSplitBips",
          "type": "uint16",
          "indexed": false,
          "internalType": "uint16"
        },
        {
          "name": "newDefaultOperatorSplitBips",
          "type": "uint16",
          "indexed": false,
          "internalType": "uint16"
        }
      ],
      "anonymous": false
    },
    {
      "type": "event",
      "name": "DistributionRootDisabled",
      "inputs": [
        {
          "name": "rootIndex",
          "type": "uint32",
          "indexed": true,
          "internalType": "uint32"
        }
      ],
      "anonymous": false
    },
    {
      "type": "event",
      "name": "DistributionRootSubmitted",
      "inputs": [
        {
          "name": "rootIndex",
          "type": "uint32",
          "indexed": true,
          "internalType": "uint32"
        },
        {
          "name": "root",
          "type": "bytes32",
          "indexed": true,
          "internalType": "bytes32"
        },
        {
          "name": "rewardsCalculationEndTimestamp",
          "type": "uint32",
          "indexed": true,
          "internalType": "uint32"
        },
        {
          "name": "activatedAt",
          "type": "uint32",
          "indexed": false,
          "internalType": "uint32"
        }
      ],
      "anonymous": false
    },
    {
      "type": "event",
      "name": "Initialized",
      "inputs": [
        {
          "name": "version",
          "type": "uint8",
          "indexed": false,
          "internalType": "uint8"
        }
      ],
      "anonymous": false
    },
    {
      "type": "event",
      "name": "OperatorAVSSplitBipsSet",
      "inputs": [
        {
          "name": "caller",
          "type": "address",
          "indexed": true,
          "internalType": "address"
        },
        {
          "name": "operator",
          "type": "address",
          "indexed": true,
          "internalType": "address"
        },
        {
          "name": "avs",
          "type": "address",
          "indexed": true,
          "internalType": "address"
        },
        {
          "name": "activatedAt",
          "type": "uint32",
          "indexed": false,
          "internalType": "uint32"
        },
        {
          "name": "oldOperatorAVSSplitBips",
          "type": "uint16",
          "indexed": false,
          "internalType": "uint16"
        },
        {
          "name": "newOperatorAVSSplitBips",
          "type": "uint16",
          "indexed": false,
          "internalType": "uint16"
        }
      ],
      "anonymous": false
    },
    {
      "type": "event",
      "name": "OperatorDirectedAVSRewardsSubmissionCreated",
      "inputs": [
        {
          "name": "caller",
          "type": "address",
          "indexed": true,
          "internalType": "address"
        },
        {
          "name": "avs",
          "type": "address",
          "indexed": true,
          "internalType": "address"
        },
        {
          "name": "operatorDirectedRewardsSubmissionHash",
          "type": "bytes32",
          "indexed": true,
          "internalType": "bytes32"
        },
        {
          "name": "submissionNonce",
          "type": "uint256",
          "indexed": false,
          "internalType": "uint256"
        },
        {
          "name": "operatorDirectedRewardsSubmission",
          "type": "tuple",
          "indexed": false,
          "internalType": "struct IRewardsCoordinatorTypes.OperatorDirectedRewardsSubmission",
          "components": [
            {
              "name": "strategiesAndMultipliers",
              "type": "tuple[]",
              "internalType": "struct IRewardsCoordinatorTypes.StrategyAndMultiplier[]",
              "components": [
                {
                  "name": "strategy",
                  "type": "address",
                  "internalType": "contract IStrategy"
                },
                {
                  "name": "multiplier",
                  "type": "uint96",
                  "internalType": "uint96"
                }
              ]
            },
            {
              "name": "token",
              "type": "address",
              "internalType": "contract IERC20"
            },
            {
              "name": "operatorRewards",
              "type": "tuple[]",
              "internalType": "struct IRewardsCoordinatorTypes.OperatorReward[]",
              "components": [
                {
                  "name": "operator",
                  "type": "address",
                  "internalType": "address"
                },
                {
                  "name": "amount",
                  "type": "uint256",
                  "internalType": "uint256"
                }
              ]
            },
            {
              "name": "startTimestamp",
              "type": "uint32",
              "internalType": "uint32"
            },
            {
              "name": "duration",
              "type": "uint32",
              "internalType": "uint32"
            },
            {
              "name": "description",
              "type": "string",
              "internalType": "string"
            }
          ]
        }
      ],
      "anonymous": false
    },
    {
      "type": "event",
      "name": "OperatorDirectedOperatorSetRewardsSubmissionCreated",
      "inputs": [
        {
          "name": "caller",
          "type": "address",
          "indexed": true,
          "internalType": "address"
        },
        {
          "name": "operatorDirectedRewardsSubmissionHash",
          "type": "bytes32",
          "indexed": true,
          "internalType": "bytes32"
        },
        {
          "name": "operatorSet",
          "type": "tuple",
          "indexed": false,
          "internalType": "struct OperatorSet",
          "components": [
            {
              "name": "avs",
              "type": "address",
              "internalType": "address"
            },
            {
              "name": "id",
              "type": "uint32",
              "internalType": "uint32"
            }
          ]
        },
        {
          "name": "submissionNonce",
          "type": "uint256",
          "indexed": false,
          "internalType": "uint256"
        },
        {
          "name": "operatorDirectedRewardsSubmission",
          "type": "tuple",
          "indexed": false,
          "internalType": "struct IRewardsCoordinatorTypes.OperatorDirectedRewardsSubmission",
          "components": [
            {
              "name": "strategiesAndMultipliers",
              "type": "tuple[]",
              "internalType": "struct IRewardsCoordinatorTypes.StrategyAndMultiplier[]",
              "components": [
                {
                  "name": "strategy",
                  "type": "address",
                  "internalType": "contract IStrategy"
                },
                {
                  "name": "multiplier",
                  "type": "uint96",
                  "internalType": "uint96"
                }
              ]
            },
            {
              "name": "token",
              "type": "address",
              "internalType": "contract IERC20"
            },
            {
              "name": "operatorRewards",
              "type": "tuple[]",
              "internalType": "struct IRewardsCoordinatorTypes.OperatorReward[]",
              "components": [
                {
                  "name": "operator",
                  "type": "address",
                  "internalType": "address"
                },
                {
                  "name": "amount",
                  "type": "uint256",
                  "internalType": "uint256"
                }
              ]
            },
            {
              "name": "startTimestamp",
              "type": "uint32",
              "internalType": "uint32"
            },
            {
              "name": "duration",
              "type": "uint32",
              "internalType": "uint32"
            },
            {
              "name": "description",
              "type": "string",
              "internalType": "string"
            }
          ]
        }
      ],
      "anonymous": false
    },
    {
      "type": "event",
      "name": "OperatorPISplitBipsSet",
      "inputs": [
        {
          "name": "caller",
          "type": "address",
          "indexed": true,
          "internalType": "address"
        },
        {
          "name": "operator",
          "type": "address",
          "indexed": true,
          "internalType": "address"
        },
        {
          "name": "activatedAt",
          "type": "uint32",
          "indexed": false,
          "internalType": "uint32"
        },
        {
          "name": "oldOperatorPISplitBips",
          "type": "uint16",
          "indexed": false,
          "internalType": "uint16"
        },
        {
          "name": "newOperatorPISplitBips",
          "type": "uint16",
          "indexed": false,
          "internalType": "uint16"
        }
      ],
      "anonymous": false
    },
    {
      "type": "event",
      "name": "OperatorSetSplitBipsSet",
      "inputs": [
        {
          "name": "caller",
          "type": "address",
          "indexed": true,
          "internalType": "address"
        },
        {
          "name": "operator",
          "type": "address",
          "indexed": true,
          "internalType": "address"
        },
        {
          "name": "operatorSet",
          "type": "tuple",
          "indexed": false,
          "internalType": "struct OperatorSet",
          "components": [
            {
              "name": "avs",
              "type": "address",
              "internalType": "address"
            },
            {
              "name": "id",
              "type": "uint32",
              "internalType": "uint32"
            }
          ]
        },
        {
          "name": "activatedAt",
          "type": "uint32",
          "indexed": false,
          "internalType": "uint32"
        },
        {
          "name": "oldOperatorSetSplitBips",
          "type": "uint16",
          "indexed": false,
          "internalType": "uint16"
        },
        {
          "name": "newOperatorSetSplitBips",
          "type": "uint16",
          "indexed": false,
          "internalType": "uint16"
        }
      ],
      "anonymous": false
    },
    {
      "type": "event",
      "name": "OwnershipTransferred",
      "inputs": [
        {
          "name": "previousOwner",
          "type": "address",
          "indexed": true,
          "internalType": "address"
        },
        {
          "name": "newOwner",
          "type": "address",
          "indexed": true,
          "internalType": "address"
        }
      ],
      "anonymous": false
    },
    {
      "type": "event",
      "name": "Paused",
      "inputs": [
        {
          "name": "account",
          "type": "address",
          "indexed": true,
          "internalType": "address"
        },
        {
          "name": "newPausedStatus",
          "type": "uint256",
          "indexed": false,
          "internalType": "uint256"
        }
      ],
      "anonymous": false
    },
    {
      "type": "event",
      "name": "RewardsClaimed",
      "inputs": [
        {
          "name": "root",
          "type": "bytes32",
          "indexed": false,
          "internalType": "bytes32"
        },
        {
          "name": "earner",
          "type": "address",
          "indexed": true,
          "internalType": "address"
        },
        {
          "name": "claimer",
          "type": "address",
          "indexed": true,
          "internalType": "address"
        },
        {
          "name": "recipient",
          "type": "address",
          "indexed": true,
          "internalType": "address"
        },
        {
          "name": "token",
          "type": "address",
          "indexed": false,
          "internalType": "contract IERC20"
        },
        {
          "name": "claimedAmount",
          "type": "uint256",
          "indexed": false,
          "internalType": "uint256"
        }
      ],
      "anonymous": false
    },
    {
      "type": "event",
      "name": "RewardsForAllSubmitterSet",
      "inputs": [
        {
          "name": "rewardsForAllSubmitter",
          "type": "address",
          "indexed": true,
          "internalType": "address"
        },
        {
          "name": "oldValue",
          "type": "bool",
          "indexed": true,
          "internalType": "bool"
        },
        {
          "name": "newValue",
          "type": "bool",
          "indexed": true,
          "internalType": "bool"
        }
      ],
      "anonymous": false
    },
    {
      "type": "event",
      "name": "RewardsSubmissionForAllCreated",
      "inputs": [
        {
          "name": "submitter",
          "type": "address",
          "indexed": true,
          "internalType": "address"
        },
        {
          "name": "submissionNonce",
          "type": "uint256",
          "indexed": true,
          "internalType": "uint256"
        },
        {
          "name": "rewardsSubmissionHash",
          "type": "bytes32",
          "indexed": true,
          "internalType": "bytes32"
        },
        {
          "name": "rewardsSubmission",
          "type": "tuple",
          "indexed": false,
          "internalType": "struct IRewardsCoordinatorTypes.RewardsSubmission",
          "components": [
            {
              "name": "strategiesAndMultipliers",
              "type": "tuple[]",
              "internalType": "struct IRewardsCoordinatorTypes.StrategyAndMultiplier[]",
              "components": [
                {
                  "name": "strategy",
                  "type": "address",
                  "internalType": "contract IStrategy"
                },
                {
                  "name": "multiplier",
                  "type": "uint96",
                  "internalType": "uint96"
                }
              ]
            },
            {
              "name": "token",
              "type": "address",
              "internalType": "contract IERC20"
            },
            {
              "name": "amount",
              "type": "uint256",
              "internalType": "uint256"
            },
            {
              "name": "startTimestamp",
              "type": "uint32",
              "internalType": "uint32"
            },
            {
              "name": "duration",
              "type": "uint32",
              "internalType": "uint32"
            }
          ]
        }
      ],
      "anonymous": false
    },
    {
      "type": "event",
      "name": "RewardsSubmissionForAllEarnersCreated",
      "inputs": [
        {
          "name": "tokenHopper",
          "type": "address",
          "indexed": true,
          "internalType": "address"
        },
        {
          "name": "submissionNonce",
          "type": "uint256",
          "indexed": true,
          "internalType": "uint256"
        },
        {
          "name": "rewardsSubmissionHash",
          "type": "bytes32",
          "indexed": true,
          "internalType": "bytes32"
        },
        {
          "name": "rewardsSubmission",
          "type": "tuple",
          "indexed": false,
          "internalType": "struct IRewardsCoordinatorTypes.RewardsSubmission",
          "components": [
            {
              "name": "strategiesAndMultipliers",
              "type": "tuple[]",
              "internalType": "struct IRewardsCoordinatorTypes.StrategyAndMultiplier[]",
              "components": [
                {
                  "name": "strategy",
                  "type": "address",
                  "internalType": "contract IStrategy"
                },
                {
                  "name": "multiplier",
                  "type": "uint96",
                  "internalType": "uint96"
                }
              ]
            },
            {
              "name": "token",
              "type": "address",
              "internalType": "contract IERC20"
            },
            {
              "name": "amount",
              "type": "uint256",
              "internalType": "uint256"
            },
            {
              "name": "startTimestamp",
              "type": "uint32",
              "internalType": "uint32"
            },
            {
              "name": "duration",
              "type": "uint32",
              "internalType": "uint32"
            }
          ]
        }
      ],
      "anonymous": false
    },
    {
      "type": "event",
      "name": "RewardsUpdaterSet",
      "inputs": [
        {
          "name": "oldRewardsUpdater",
          "type": "address",
          "indexed": true,
          "internalType": "address"
        },
        {
          "name": "newRewardsUpdater",
          "type": "address",
          "indexed": true,
          "internalType": "address"
        }
      ],
      "anonymous": false
    },
    {
      "type": "event",
      "name": "TotalStakeRewardsSubmissionCreated",
      "inputs": [
        {
          "name": "caller",
          "type": "address",
          "indexed": true,
          "internalType": "address"
        },
        {
          "name": "rewardsSubmissionHash",
          "type": "bytes32",
          "indexed": true,
          "internalType": "bytes32"
        },
        {
          "name": "operatorSet",
          "type": "tuple",
          "indexed": false,
          "internalType": "struct OperatorSet",
          "components": [
            {
              "name": "avs",
              "type": "address",
              "internalType": "address"
            },
            {
              "name": "id",
              "type": "uint32",
              "internalType": "uint32"
            }
          ]
        },
        {
          "name": "submissionNonce",
          "type": "uint256",
          "indexed": false,
          "internalType": "uint256"
        },
        {
          "name": "rewardsSubmission",
          "type": "tuple",
          "indexed": false,
          "internalType": "struct IRewardsCoordinatorTypes.RewardsSubmission",
          "components": [
            {
              "name": "strategiesAndMultipliers",
              "type": "tuple[]",
              "internalType": "struct IRewardsCoordinatorTypes.StrategyAndMultiplier[]",
              "components": [
                {
                  "name": "strategy",
                  "type": "address",
                  "internalType": "contract IStrategy"
                },
                {
                  "name": "multiplier",
                  "type": "uint96",
                  "internalType": "uint96"
                }
              ]
            },
            {
              "name": "token",
              "type": "address",
              "internalType": "contract IERC20"
            },
            {
              "name": "amount",
              "type": "uint256",
              "internalType": "uint256"
            },
            {
              "name": "startTimestamp",
              "type": "uint32",
              "internalType": "uint32"
            },
            {
              "name": "duration",
              "type": "uint32",
              "internalType": "uint32"
            }
          ]
        }
      ],
      "anonymous": false
    },
    {
      "type": "event",
      "name": "UniqueStakeRewardsSubmissionCreated",
      "inputs": [
        {
          "name": "caller",
          "type": "address",
          "indexed": true,
          "internalType": "address"
        },
        {
          "name": "rewardsSubmissionHash",
          "type": "bytes32",
          "indexed": true,
          "internalType": "bytes32"
        },
        {
          "name": "operatorSet",
          "type": "tuple",
          "indexed": false,
          "internalType": "struct OperatorSet",
          "components": [
            {
              "name": "avs",
              "type": "address",
              "internalType": "address"
            },
            {
              "name": "id",
              "type": "uint32",
              "internalType": "uint32"
            }
          ]
        },
        {
          "name": "submissionNonce",
          "type": "uint256",
          "indexed": false,
          "internalType": "uint256"
        },
        {
          "name": "rewardsSubmission",
          "type": "tuple",
          "indexed": false,
          "internalType": "struct IRewardsCoordinatorTypes.RewardsSubmission",
          "components": [
            {
              "name": "strategiesAndMultipliers",
              "type": "tuple[]",
              "internalType": "struct IRewardsCoordinatorTypes.StrategyAndMultiplier[]",
              "components": [
                {
                  "name": "strategy",
                  "type": "address",
                  "internalType": "contract IStrategy"
                },
                {
                  "name": "multiplier",
                  "type": "uint96",
                  "internalType": "uint96"
                }
              ]
            },
            {
              "name": "token",
              "type": "address",
              "internalType": "contract IERC20"
            },
            {
              "name": "amount",
              "type": "uint256",
              "internalType": "uint256"
            },
            {
              "name": "startTimestamp",
              "type": "uint32",
              "internalType": "uint32"
            },
            {
              "name": "duration",
              "type": "uint32",
              "internalType": "uint32"
            }
          ]
        }
      ],
      "anonymous": false
    },
    {
      "type": "event",
      "name": "Unpaused",
      "inputs": [
        {
          "name": "account",
          "type": "address",
          "indexed": true,
          "internalType": "address"
        },
        {
          "name": "newPausedStatus",
          "type": "uint256",
          "indexed": false,
          "internalType": "uint256"
        }
      ],
      "anonymous": false
    },
    {
      "type": "error",
      "name": "AmountExceedsMax",
      "inputs": []
    },
    {
      "type": "error",
      "name": "AmountIsZero",
      "inputs": []
    },
    {
      "type": "error",
      "name": "CurrentlyPaused",
      "inputs": []
    },
    {
      "type": "error",
      "name": "DurationExceedsMax",
      "inputs": []
    },
    {
      "type": "error",
      "name": "DurationIsZero",
      "inputs": []
    },
    {
      "type": "error",
      "name": "EarningsNotGreaterThanClaimed",
      "inputs": []
    },
    {
      "type": "error",
      "name": "EmptyRoot",
      "inputs": []
    },
    {
      "type": "error",
      "name": "InputAddressZero",
      "inputs": []
    },
    {
      "type": "error",
      "name": "InputArrayLengthMismatch",
      "inputs": []
    },
    {
      "type": "error",
      "name": "InputArrayLengthZero",
      "inputs": []
    },
    {
      "type": "error",
      "name": "InvalidAddressZero",
      "inputs": []
    },
    {
      "type": "error",
      "name": "InvalidCalculationIntervalSecondsRemainder",
      "inputs": []
    },
    {
      "type": "error",
      "name": "InvalidClaimProof",
      "inputs": []
    },
    {
      "type": "error",
      "name": "InvalidDurationRemainder",
      "inputs": []
    },
    {
      "type": "error",
      "name": "InvalidEarner",
      "inputs": []
    },
    {
      "type": "error",
      "name": "InvalidEarnerLeafIndex",
      "inputs": []
    },
    {
      "type": "error",
      "name": "InvalidGenesisRewardsTimestampRemainder",
      "inputs": []
    },
    {
      "type": "error",
      "name": "InvalidIndex",
      "inputs": []
    },
    {
      "type": "error",
      "name": "InvalidNewPausedStatus",
      "inputs": []
    },
    {
      "type": "error",
      "name": "InvalidOperatorSet",
      "inputs": []
    },
    {
      "type": "error",
      "name": "InvalidPermissions",
      "inputs": []
    },
    {
      "type": "error",
      "name": "InvalidProofLength",
      "inputs": []
    },
    {
      "type": "error",
      "name": "InvalidRoot",
      "inputs": []
    },
    {
      "type": "error",
      "name": "InvalidRootIndex",
      "inputs": []
    },
    {
      "type": "error",
      "name": "InvalidStartTimestampRemainder",
      "inputs": []
    },
    {
      "type": "error",
      "name": "InvalidTokenLeafIndex",
      "inputs": []
    },
    {
      "type": "error",
      "name": "NewRootMustBeForNewCalculatedPeriod",
      "inputs": []
    },
    {
      "type": "error",
      "name": "OnlyPauser",
      "inputs": []
    },
    {
      "type": "error",
      "name": "OnlyUnpauser",
      "inputs": []
    },
    {
      "type": "error",
      "name": "OperatorsNotInAscendingOrder",
      "inputs": []
    },
    {
      "type": "error",
      "name": "PreviousSplitPending",
      "inputs": []
    },
    {
      "type": "error",
      "name": "RewardsEndTimestampNotElapsed",
      "inputs": []
    },
    {
      "type": "error",
      "name": "RootAlreadyActivated",
      "inputs": []
    },
    {
      "type": "error",
      "name": "RootDisabled",
      "inputs": []
    },
    {
      "type": "error",
      "name": "RootNotActivated",
      "inputs": []
    },
    {
      "type": "error",
      "name": "SplitExceedsMax",
      "inputs": []
    },
    {
      "type": "error",
      "name": "StartTimestampTooFarInFuture",
      "inputs": []
    },
    {
      "type": "error",
      "name": "StartTimestampTooFarInPast",
      "inputs": []
    },
    {
      "type": "error",
      "name": "StrategiesNotInAscendingOrder",
      "inputs": []
    },
    {
      "type": "error",
      "name": "StrategyNotWhitelisted",
      "inputs": []
    },
    {
      "type": "error",
      "name": "SubmissionNotRetroactive",
      "inputs": []
    },
    {
      "type": "error",
      "name": "UnauthorizedCaller",
      "inputs": []
    }
  ],
  "bytecode": {
    "object": "0x6101c0604052348015610010575f5ffd5b50604051614ea1380380614ea183398101604081905261002f91610263565b608081015181516020830151604084015160a085015160c086015160e087015161010088015161012089015160608a01516001600160a01b038116610087576040516339b190bb60e11b815260040160405180910390fd5b6001600160a01b031660805261009d858261032d565b63ffffffff16156100c157604051630e06bd3160e01b815260040160405180910390fd5b6100ce620151808661032d565b63ffffffff16156100f25760405163223c7b3960e11b815260040160405180910390fd5b6001600160a01b0397881660a05295871660c05293861660e05263ffffffff9283166101005290821661012052811661014052908116610160521661018052166101a05261013e610144565b50610360565b5f54610100900460ff16156101af5760405162461bcd60e51b815260206004820152602760248201527f496e697469616c697a61626c653a20636f6e747261637420697320696e697469604482015266616c697a696e6760c81b606482015260840160405180910390fd5b5f5460ff908116146101fe575f805460ff191660ff9081179091556040519081527f7f26b83ff96e1f2b6a682f133852f6798a09c465da95921460cefb38474024989060200160405180910390a15b565b60405161014081016001600160401b038111828210171561022f57634e487b7160e01b5f52604160045260245ffd5b60405290565b80516001600160a01b038116811461024b575f5ffd5b919050565b805163ffffffff8116811461024b575f5ffd5b5f610140828403128015610275575f5ffd5b5061027e610200565b61028783610235565b815261029560208401610235565b60208201526102a660408401610235565b60408201526102b760608401610235565b60608201526102c860808401610235565b60808201526102d960a08401610250565b60a08201526102ea60c08401610250565b60c08201526102fb60e08401610250565b60e082015261030d6101008401610250565b6101008201526103206101208401610250565b6101208201529392505050565b5f63ffffffff83168061034e57634e487b7160e01b5f52601260045260245ffd5b8063ffffffff84160691505092915050565b60805160a05160c05160e05161010051610120516101405161016051610180516101a051614a6261043f5f395f818161063e015261368c01525f81816104c5015261386f01525f81816104140152612d8a01525f81816105a0015261382d01525f818161090a015261371701525f818161081e0152818161376701526137db01525f818161095e01528181610b4b015281816114f30152818161176801528181612092015261230201525f81816105c7015261390a01525f81816109d1015261200201525f818161079d01528181612c2f015261359f0152614a625ff3fe608060405234801561000f575f5ffd5b50600436106103d4575f3560e01c80638cb0ae1b11610200578063dcbb03b31161011f578063f2fde38b116100b4578063f96abf2e11610084578063f96abf2e14610aac578063fabc1cbc14610abf578063fbf1e2c114610ad2578063fce36c7d14610ae5578063ff9f6cce14610af8575f5ffd5b8063f2fde38b14610a60578063f6efbb5914610a73578063f74e8eac14610a86578063f8cd844814610a99575f5ffd5b8063ea4d3c9b116100ef578063ea4d3c9b146109cc578063ed71e6a2146109f3578063f22cef8514610a20578063f2f07ab414610a33575f5ffd5b8063dcbb03b314610980578063de02e50314610993578063e063f81f146109a6578063e810ce21146109b9575f5ffd5b8063a50a1d9c11610195578063bb7e451f11610165578063bb7e451f146108e6578063bf21a8aa14610905578063c46db6061461092c578063ca8aa7c714610959575f5ffd5b8063a50a1d9c14610866578063aebd8bae14610879578063b3dbb0e0146108a6578063b73c1b92146108b9575f5ffd5b80639cb9a5fa116101d05780639cb9a5fa146108065780639d45c281146108195780639de4b35f14610840578063a0169ddd14610853575f5ffd5b80638cb0ae1b146107bf5780638da5cb5b146107d25780639104c319146107e35780639be3d4e4146107fe575f5ffd5b80634596021c116102f75780635e9d83481161028c5780637ae305831161025c5780637ae30583146107405780637b8f8b0514610753578063863cb9a91461075b578063865c69531461076e578063886f119514610798575f5ffd5b80635e9d8348146106e357806363f6a798146106f65780636d21117e1461070b578063715018a614610738575f5ffd5b806358baaa3e116102c757806358baaa3e1461069d578063595c6a67146106b05780635ac86ab7146106b85780635c975abb146106db575f5ffd5b80634596021c146106265780634657e26a146106395780634b943960146106605780634d18cc3514610686575f5ffd5b80632943e3ff1161036d57806339b70e381161033d57806339b70e38146105c25780633a8c0786146105e95780633ccc861d146106005780633efe1db614610613575f5ffd5b80632943e3ff1461051b5780632b9f64a41461054857806336af41fa1461058857806337838ed01461059b575f5ffd5b80630eb38345116103a85780630eb38345146104ad578063131433b4146104c0578063136439dd146104e7578063149bc872146104fa575f5ffd5b806218572c146103d857806304a0c5021461040f5780630ca298991461044b5780630e9a53cf14610460575b5f5ffd5b6103fa6103e6366004613e6a565b60d16020525f908152604090205460ff1681565b60405190151581526020015b60405180910390f35b6104367f000000000000000000000000000000000000000000000000000000000000000081565b60405163ffffffff9091168152602001610406565b61045e610459366004613ee2565b610b0b565b005b610468610d94565b60405161040691905f6080820190508251825263ffffffff602084015116602083015263ffffffff604084015116604083015260608301511515606083015292915050565b61045e6104bb366004613f3e565b610e94565b6104367f000000000000000000000000000000000000000000000000000000000000000081565b61045e6104f5366004613f75565b610f14565b61050d610508366004613f8c565b610f4e565b604051908152602001610406565b6103fa610529366004613fa6565b60d860209081525f928352604080842090915290825290205460ff1681565b610570610556366004613e6a565b60cc6020525f90815260409020546001600160a01b031681565b6040516001600160a01b039091168152602001610406565b61045e610596366004613fd0565b610fc3565b6104367f000000000000000000000000000000000000000000000000000000000000000081565b6105707f000000000000000000000000000000000000000000000000000000000000000081565b60cb5461043690600160a01b900463ffffffff1681565b61045e61060e36600461401f565b611134565b61045e610621366004614075565b61115b565b61045e61063436600461409f565b611331565b6105707f000000000000000000000000000000000000000000000000000000000000000081565b61067361066e366004613e6a565b611394565b60405161ffff9091168152602001610406565b60cb5461043690600160c01b900463ffffffff1681565b61045e6106ab3660046140f1565b6113ef565b61045e611403565b6103fa6106c636600461410a565b606654600160ff9092169190911b9081161490565b60665461050d565b6103fa6106f136600461412a565b611417565b60cb5461067390600160e01b900461ffff1681565b6103fa610719366004613fa6565b60cf60209081525f928352604080842090915290825290205460ff1681565b61045e6114a2565b61045e61074e366004613ee2565b6114b3565b60ca5461050d565b61045e610769366004613e6a565b611717565b61050d61077c36600461415b565b60cd60209081525f928352604080842090915290825290205481565b6105707f000000000000000000000000000000000000000000000000000000000000000081565b61045e6107cd366004613ee2565b611728565b6033546001600160a01b0316610570565b61057073beac0eeeeeeeeeeeeeeeeeeeeeeeeeeeeeebeac081565b61046861198c565b61045e610814366004614187565b611a28565b6104367f000000000000000000000000000000000000000000000000000000000000000081565b61067361084e3660046141be565b611b86565b61045e610861366004613e6a565b611c09565b61045e6108743660046141fa565b611c14565b6103fa610887366004613fa6565b60d260209081525f928352604080842090915290825290205460ff1681565b61045e6108b4366004614213565b611c25565b6103fa6108c7366004613fa6565b60d960209081525f928352604080842090915290825290205460ff1681565b61050d6108f4366004613e6a565b60ce6020525f908152604090205481565b6104367f000000000000000000000000000000000000000000000000000000000000000081565b6103fa61093a366004613fa6565b60d060209081525f928352604080842090915290825290205460ff1681565b6105707f000000000000000000000000000000000000000000000000000000000000000081565b61045e61098e36600461423d565b611d33565b6104686109a1366004613f75565b611e63565b6106736109b436600461415b565b611ef3565b6104366109c7366004613f75565b611f58565b6105707f000000000000000000000000000000000000000000000000000000000000000081565b6103fa610a01366004613fa6565b60d360209081525f928352604080842090915290825290205460ff1681565b61045e610a2e36600461415b565b611fd9565b6103fa610a41366004613fa6565b60d760209081525f928352604080842090915290825290205460ff1681565b61045e610a6e366004613e6a565b612126565b61045e610a81366004614281565b6121a1565b61045e610a943660046142df565b6122d6565b61050d610aa7366004613f8c565b612480565b61045e610aba3660046140f1565b612490565b61045e610acd366004613f75565b6125c1565b60cb54610570906001600160a01b031681565b61045e610af3366004613fd0565b61262e565b61045e610b06366004613fd0565b61275f565b6009610b16816128c0565b610b236020850185613e6a565b610b2c816128eb565b610b34612911565b6040516304c1b8eb60e31b81526001600160a01b037f0000000000000000000000000000000000000000000000000000000000000000169063260dc75890610b8090889060040161434a565b602060405180830381865afa158015610b9b573d5f5f3e3d5ffd5b505050506040513d601f19601f82011682018060405250810190610bbf9190614358565b610bdc57604051631fb1705560e21b815260040160405180910390fd5b5f5b83811015610d825736858583818110610bf957610bf9614373565b9050602002810190610c0b9190614387565b90505f60ce81610c1e60208b018b613e6a565b6001600160a01b031681526020808201929092526040015f90812054925090610c49908a018a613e6a565b8284604051602001610c5d939291906145af565b6040516020818303038152906040528051906020012090505f610c7f8461296a565b9050600160d75f610c9360208e018e613e6a565b6001600160a01b0316815260208082019290925260409081015f9081208682529092529020805460ff1916911515919091179055610cd28360016145f2565b60ce5f610ce260208e018e613e6a565b6001600160a01b03166001600160a01b031681526020019081526020015f208190555081336001600160a01b03167ffff0759ccb371dfb5691798724e70b4fa61cb3bfe730a33ac19fb86a48efc7568c8688604051610d4393929190614605565b60405180910390a3610d72333083610d616040890160208a01613e6a565b6001600160a01b0316929190612b55565b505060019092019150610bde9050565b50610d8d6001609755565b5050505050565b604080516080810182525f80825260208201819052918101829052606081019190915260ca545b8015610e6c575f60ca610dcf60018461462a565b81548110610ddf57610ddf614373565b5f91825260209182902060408051608081018252600293909302909101805483526001015463ffffffff80821694840194909452600160201b810490931690820152600160401b90910460ff161580156060830181905291925090610e4e5750806040015163ffffffff164210155b15610e595792915050565b5080610e648161463d565b915050610dbb565b5050604080516080810182525f80825260208201819052918101829052606081019190915290565b610e9c612bc0565b6001600160a01b0382165f81815260d1602052604080822054905160ff9091169284151592841515927f4de6293e668df1398422e1def12118052c1539a03cbfedc145895d48d7685f1c9190a4506001600160a01b03919091165f90815260d160205260409020805460ff1916911515919091179055565b610f1c612c1a565b6066548181168114610f415760405163c61dca5d60e01b815260040160405180910390fd5b610f4a82612cbd565b5050565b5f80610f5d6020840184613e6a565b8360200135604051602001610fa69392919060f89390931b6001600160f81b031916835260609190911b6bffffffffffffffffffffffff19166001830152601582015260350190565b604051602081830303815290604052805190602001209050919050565b6001610fce816128c0565b335f90815260d1602052604090205460ff16610ffd57604051635c427cd960e01b815260040160405180910390fd5b611005612911565b5f5b82811015611124573684848381811061102257611022614373565b90506020028101906110349190614652565b335f81815260ce6020908152604080832054905194955093919261105e92909185918791016146e4565b60405160208183030381529060405280519060200120905061107f83612cfa565b335f90815260d0602090815260408083208484529091529020805460ff191660019081179091556110b19083906145f2565b335f81815260ce602052604090819020929092559051829184917f51088b8c89628df3a8174002c2a034d0152fce6af8415d651b2a4734bf270482906110f890889061470a565b60405180910390a4611119333060408601803590610d619060208901613e6a565b505050600101611007565b5061112f6001609755565b505050565b600261113f816128c0565b611147612911565b6111518383612de5565b61112f6001609755565b6003611166816128c0565b60cb546001600160a01b0316331461119157604051635c427cd960e01b815260040160405180910390fd5b60cb5463ffffffff600160c01b9091048116908316116111c457604051631ca7e50b60e21b815260040160405180910390fd5b428263ffffffff16106111ea576040516306957c9160e11b815260040160405180910390fd5b60ca5460cb545f9061120990600160a01b900463ffffffff164261471c565b6040805160808101825287815263ffffffff87811660208084018281528684168587018181525f6060880181815260ca8054600181018255925297517f42d72674974f694b5f5159593243114d38a5c39c89d6b62fee061ff523240ee160029092029182015592517f42d72674974f694b5f5159593243114d38a5c39c89d6b62fee061ff523240ee290930180549151975193871667ffffffffffffffff1990921691909117600160201b978716979097029690961760ff60401b1916600160401b921515929092029190911790945560cb805463ffffffff60c01b1916600160c01b840217905593519283529394508892908616917fecd866c3c158fa00bf34d803d5f6023000b57080bcb48af004c2b4b46b3afd08910160405180910390a45050505050565b600261133c816128c0565b611344612911565b5f5b838110156113835761137b85858381811061136357611363614373565b90506020028101906113759190614738565b84612de5565b600101611346565b5061138e6001609755565b50505050565b6001600160a01b0381165f90815260d5602090815260408083208151606081018352905461ffff80821683526201000082041693820193909352600160201b90920463ffffffff16908201526113e99061306d565b92915050565b6113f7612bc0565b611400816130dd565b50565b61140b612c1a565b6114155f19612cbd565b565b5f61149a8260ca61142b60208301836140f1565b63ffffffff168154811061144157611441614373565b5f91825260209182902060408051608081018252600293909302909101805483526001015463ffffffff80821694840194909452600160201b810490931690820152600160401b90910460ff161515606082015261314e565b506001919050565b6114aa612bc0565b6114155f6132f1565b600a6114be816128c0565b6114cb6020850185613e6a565b6114d4816128eb565b6114dc612911565b6040516304c1b8eb60e31b81526001600160a01b037f0000000000000000000000000000000000000000000000000000000000000000169063260dc7589061152890889060040161434a565b602060405180830381865afa158015611543573d5f5f3e3d5ffd5b505050506040513d601f19601f820116820180604052508101906115679190614358565b61158457604051631fb1705560e21b815260040160405180910390fd5b5f5b83811015610d8257368585838181106115a1576115a1614373565b90506020028101906115b39190614652565b90505f60ce816115c660208b018b613e6a565b6001600160a01b031681526020808201929092526040015f908120549250906115f1908a018a613e6a565b8284604051602001611605939291906146e4565b60405160208183030381529060405280519060200120905061162683612cfa565b600160d85f61163860208d018d613e6a565b6001600160a01b0316815260208082019290925260409081015f9081208582529092529020805460ff19169115159190911790556116778260016145f2565b60ce5f61168760208d018d613e6a565b6001600160a01b03166001600160a01b031681526020019081526020015f208190555080336001600160a01b03167fb3337dc034abe0f5e3694e1f115f3d6ec9fcee74e7835ea68f6e2d29bbc1b0aa8b85876040516116e89392919061474c565b60405180910390a3611709333060408601803590610d619060208901613e6a565b505050806001019050611586565b61171f612bc0565b61140081613342565b600b611733816128c0565b6117406020850185613e6a565b611749816128eb565b611751612911565b6040516304c1b8eb60e31b81526001600160a01b037f0000000000000000000000000000000000000000000000000000000000000000169063260dc7589061179d90889060040161434a565b602060405180830381865afa1580156117b8573d5f5f3e3d5ffd5b505050506040513d601f19601f820116820180604052508101906117dc9190614358565b6117f957604051631fb1705560e21b815260040160405180910390fd5b5f5b83811015610d82573685858381811061181657611816614373565b90506020028101906118289190614652565b90505f60ce8161183b60208b018b613e6a565b6001600160a01b031681526020808201929092526040015f90812054925090611866908a018a613e6a565b828460405160200161187a939291906146e4565b60405160208183030381529060405280519060200120905061189b83612cfa565b600160d95f6118ad60208d018d613e6a565b6001600160a01b0316815260208082019290925260409081015f9081208582529092529020805460ff19169115159190911790556118ec8260016145f2565b60ce5f6118fc60208d018d613e6a565b6001600160a01b03166001600160a01b031681526020019081526020015f208190555080336001600160a01b03167f71836f06ac5c96075d4c5b5699a92b18e9c6d91579a382e9e55a1adf097f64df8b858760405161195d9392919061474c565b60405180910390a361197e333060408601803590610d619060208901613e6a565b5050508060010190506117fb565b604080516080810182525f80825260208201819052918101829052606081019190915260ca80546119bf9060019061462a565b815481106119cf576119cf614373565b5f91825260209182902060408051608081018252600293909302909101805483526001015463ffffffff80821694840194909452600160201b810490931690820152600160401b90910460ff1615156060820152919050565b6005611a33816128c0565b83611a3d816128eb565b611a45612911565b5f5b83811015610d825736858583818110611a6257611a62614373565b9050602002810190611a749190614387565b6001600160a01b0388165f90815260ce6020908152604080832054905193945092611aa5918b9185918791016145af565b6040516020818303038152906040528051906020012090505f611ac78461296a565b6001600160a01b038b165f90815260d3602090815260408083208684529091529020805460ff19166001908117909155909150611b059084906145f2565b6001600160a01b038b165f81815260ce60205260409081902092909255905183919033907ffc8888bffd711da60bc5092b33f677d81896fe80ecc677b84cfab8184462b6e090611b589088908a90614771565b60405180910390a4611b76333083610d616040890160208a01613e6a565b505060019092019150611a479050565b6001600160a01b0382165f90815260d660205260408120611c029082611bb9611bb436879003870187614789565b61339d565b815260208082019290925260409081015f208151606081018352905461ffff80821683526201000082041693820193909352600160201b90920463ffffffff169082015261306d565b9392505050565b33610f4a8183613400565b611c1c612bc0565b61140081613463565b6007611c30816128c0565b82611c3a816128eb565b60cb545f90611c5690600160a01b900463ffffffff164261471c565b6001600160a01b0386165f90815260d5602090815260408083208151606081018352905461ffff80821683526201000082041693820193909352600160201b90920463ffffffff169082015291925090611caf9061306d565b6001600160a01b0387165f90815260d560205260409020909150611cd49086846134ce565b6040805163ffffffff8416815261ffff838116602083015287168183015290516001600160a01b0388169133917fd1e028bd664486a46ad26040e999cd2d22e1e9a094ee6afe19fcf64678f16f749181900360600190a3505050505050565b6006611d3e816128c0565b83611d48816128eb565b60cb545f90611d6490600160a01b900463ffffffff164261471c565b6001600160a01b038781165f90815260d460209081526040808320938a1683529281528282208351606081018552905461ffff80821683526201000082041692820192909252600160201b90910463ffffffff1692810192909252919250611dcb9061306d565b6001600160a01b038089165f90815260d460209081526040808320938b16835292905220909150611dfd9086846134ce565b6040805163ffffffff8416815261ffff838116602083015287168183015290516001600160a01b0388811692908a169133917f48e198b6ae357e529204ee53a8e514c470ff77d9cc8e4f7207f8b5d490ae6934919081900360600190a450505050505050565b604080516080810182525f80825260208201819052918101829052606081019190915260ca8281548110611e9957611e99614373565b5f91825260209182902060408051608081018252600293909302909101805483526001015463ffffffff80821694840194909452600160201b810490931690820152600160401b90910460ff161515606082015292915050565b6001600160a01b038281165f90815260d46020908152604080832093851683529281528282208351606081018552905461ffff80821683526201000082041692820192909252600160201b90910463ffffffff169281019290925290611c029061306d565b60ca545f905b63ffffffff811615611fbf578260ca611f786001846147f1565b63ffffffff1681548110611f8e57611f8e614373565b905f5260205f2090600202015f015403611fad57611c026001826147f1565b80611fb78161480d565b915050611f5e565b5060405163504570e360e01b815260040160405180910390fd5b81611fe3816128eb565b6040516336b87bd760e11b81526001600160a01b0384811660048301527f00000000000000000000000000000000000000000000000000000000000000001690636d70f7ae90602401602060405180830381865afa158015612047573d5f5f3e3d5ffd5b505050506040513d601f19601f8201168201806040525081019061206b9190614358565b806120ff575060405163ba1a84e560e01b81526001600160a01b0384811660048301525f917f00000000000000000000000000000000000000000000000000000000000000009091169063ba1a84e590602401602060405180830381865afa1580156120d9573d5f5f3e3d5ffd5b505050506040513d601f19601f820116820180604052508101906120fd919061482b565b115b61211c5760405163fb494ea160e01b815260040160405180910390fd5b61112f8383613400565b61212e612bc0565b6001600160a01b0381166121985760405162461bcd60e51b815260206004820152602660248201527f4f776e61626c653a206e6577206f776e657220697320746865207a65726f206160448201526564647265737360d01b60648201526084015b60405180910390fd5b611400816132f1565b5f54610100900460ff16158080156121bf57505f54600160ff909116105b806121d85750303b1580156121d857505f5460ff166001145b61223b5760405162461bcd60e51b815260206004820152602e60248201527f496e697469616c697a61626c653a20636f6e747261637420697320616c72656160448201526d191e481a5b9a5d1a585b1a5e995960921b606482015260840161218f565b5f805460ff19166001179055801561225c575f805461ff0019166101001790555b61226585612cbd565b61226e866132f1565b61227784613342565b612280836130dd565b61228982613463565b80156122ce575f805461ff0019169055604051600181527f7f26b83ff96e1f2b6a682f133852f6798a09c465da95921460cefb38474024989060200160405180910390a15b505050505050565b60086122e1816128c0565b836122eb816128eb565b6040516304c1b8eb60e31b81526001600160a01b037f0000000000000000000000000000000000000000000000000000000000000000169063260dc7589061233790879060040161434a565b602060405180830381865afa158015612352573d5f5f3e3d5ffd5b505050506040513d601f19601f820116820180604052508101906123769190614358565b61239357604051631fb1705560e21b815260040160405180910390fd5b60cb545f906123af90600160a01b900463ffffffff164261471c565b6001600160a01b0387165f90815260d660205260408120919250906123e19082611bb9611bb4368b90038b018b614789565b6001600160a01b0388165f90815260d6602052604081209192506124269190612412611bb4368b90038b018b614789565b81526020019081526020015f2086846134ce565b866001600160a01b0316336001600160a01b03167f14918b3834ab6752eb2e1b489b6663a67810efb5f56f3944a97ede8ecf1fd9f18885858a60405161246f9493929190614842565b60405180910390a350505050505050565b5f6001610f5d6020840184613e6a565b600361249b816128c0565b60cb546001600160a01b031633146124c657604051635c427cd960e01b815260040160405180910390fd5b60ca5463ffffffff8316106124ee576040516394a8d38960e01b815260040160405180910390fd5b5f60ca8363ffffffff168154811061250857612508614373565b905f5260205f20906002020190508060010160089054906101000a900460ff161561254657604051631b14174b60e01b815260040160405180910390fd5b6001810154600160201b900463ffffffff16421061257757604051630c36f66560e21b815260040160405180910390fd5b60018101805460ff60401b1916600160401b17905560405163ffffffff8416907fd850e6e5dfa497b72661fa73df2923464eaed9dc2ff1d3cb82bccbfeabe5c41e905f90a2505050565b6125c961359d565b606654801982198116146125f05760405163c61dca5d60e01b815260040160405180910390fd5b606682905560405182815233907f3582d1828e26bf56bd801502bc021ac0bc8afb57c826e4986b45593c8fad389c9060200160405180910390a25050565b5f612638816128c0565b612640612911565b5f5b82811015611124573684848381811061265d5761265d614373565b905060200281019061266f9190614652565b335f81815260ce6020908152604080832054905194955093919261269992909185918791016146e4565b6040516020818303038152906040528051906020012090506126ba83612cfa565b335f90815260cf602090815260408083208484529091529020805460ff191660019081179091556126ec9083906145f2565b335f81815260ce602052604090819020929092559051829184917f450a367a380c4e339e5ae7340c8464ef27af7781ad9945cfe8abd828f89e62819061273390889061470a565b60405180910390a4612754333060408601803590610d619060208901613e6a565b505050600101612642565b600461276a816128c0565b335f90815260d1602052604090205460ff1661279957604051635c427cd960e01b815260040160405180910390fd5b6127a1612911565b5f5b8281101561112457368484838181106127be576127be614373565b90506020028101906127d09190614652565b335f81815260ce602090815260408083205490519495509391926127fa92909185918791016146e4565b60405160208183030381529060405280519060200120905061281b83612cfa565b335f90815260d2602090815260408083208484529091529020805460ff1916600190811790915561284d9083906145f2565b335f81815260ce602052604090819020929092559051829184917f5251b6fdefcb5d81144e735f69ea4c695fd43b0289ca53dc075033f5fc80068b9061289490889061470a565b60405180910390a46128b5333060408601803590610d619060208901613e6a565b5050506001016127a3565b606654600160ff83161b908116036114005760405163840a48d560e01b815260040160405180910390fd5b6128f48161364e565b6114005760405163932d94f760e01b815260040160405180910390fd5b6002609754036129635760405162461bcd60e51b815260206004820152601f60248201527f5265656e7472616e637947756172643a207265656e7472616e742063616c6c00604482015260640161218f565b6002609755565b5f61299d6129788380614876565b61298860808601606087016140f1565b61299860a08701608088016140f1565b6136f7565b5f6129ab6040840184614876565b9050116129cb5760405163796cc52560e01b815260040160405180910390fd5b426129dc60a08401608085016140f1565b6129ec60808501606086016140f1565b6129f6919061471c565b63ffffffff1610612a1a5760405163150358a160e21b815260040160405180910390fd5b5f80805b612a2b6040860186614876565b9050811015612b1c5736612a426040870187614876565b83818110612a5257612a52614373565b6040029190910191505f9050612a6b6020830183613e6a565b6001600160a01b031603612a9257604051630863a45360e11b815260040160405180910390fd5b612a9f6020820182613e6a565b6001600160a01b0316836001600160a01b031610612ad0576040516310fb47f160e31b815260040160405180910390fd5b5f816020013511612af4576040516310eb483f60e21b815260040160405180910390fd5b612b016020820182613e6a565b9250612b116020820135856145f2565b935050600101612a1e565b506f4b3b4ca85a86c47a098a223fffffffff821115612b4e5760405163070b5a6f60e21b815260040160405180910390fd5b5092915050565b6040516001600160a01b038085166024830152831660448201526064810182905261138e9085906323b872dd60e01b906084015b60408051601f198184030181529190526020810180516001600160e01b03166001600160e01b0319909316929092179091526139f5565b6033546001600160a01b031633146114155760405162461bcd60e51b815260206004820181905260248201527f4f776e61626c653a2063616c6c6572206973206e6f7420746865206f776e6572604482015260640161218f565b60405163237dfb4760e11b81523360048201527f00000000000000000000000000000000000000000000000000000000000000006001600160a01b0316906346fbf68e90602401602060405180830381865afa158015612c7c573d5f5f3e3d5ffd5b505050506040513d601f19601f82011682018060405250810190612ca09190614358565b61141557604051631d77d47760e21b815260040160405180910390fd5b606681905560405181815233907fab40a374bc51de372200a8bc981af8c9ecdc08dfdaef0bb6e09f88f3c616ef3d9060200160405180910390a250565b612d27612d078280614876565b612d1760808501606086016140f1565b61299860a08601608087016140f1565b5f816040013511612d4b576040516310eb483f60e21b815260040160405180910390fd5b6f4b3b4ca85a86c47a098a223fffffffff81604001351115612d805760405163070b5a6f60e21b815260040160405180910390fd5b612db063ffffffff7f000000000000000000000000000000000000000000000000000000000000000016426145f2565b612dc060808301606084016140f1565b63ffffffff16111561140057604051637ee2b44360e01b815260040160405180910390fd5b5f60ca612df560208501856140f1565b63ffffffff1681548110612e0b57612e0b614373565b5f91825260209182902060408051608081018252600293909302909101805483526001015463ffffffff80821694840194909452600160201b810490931690820152600160401b90910460ff16151560608201529050612e6b838261314e565b5f612e7c6080850160608601613e6a565b6001600160a01b038082165f90815260cc60205260409020549192501680612ea15750805b336001600160a01b03821614612eca57604051635c427cd960e01b815260040160405180910390fd5b5f5b612ed960a08701876148bb565b90508110156122ce5736612ef060e0880188614876565b83818110612f0057612f00614373565b6001600160a01b0387165f90815260cd602090815260408083209302949094019450929091508290612f3490850185613e6a565b6001600160a01b03166001600160a01b031681526020019081526020015f2054905080826020013511612f7a5760405163aa385e8160e01b815260040160405180910390fd5b5f612f8982602085013561462a565b6001600160a01b0387165f90815260cd60209081526040822092935085018035929190612fb69087613e6a565b6001600160a01b031681526020808201929092526040015f2091909155612ff79089908390612fe790870187613e6a565b6001600160a01b03169190613ac8565b86516001600160a01b03808a1691878216918916907f9543dbd55580842586a951f0386e24d68a5df99ae29e3b216588b45fd684ce319061303b6020890189613e6a565b604080519283526001600160a01b039091166020830152810186905260600160405180910390a4505050600101612ecc565b5f816040015163ffffffff165f148061309f5750815161ffff90811614801561309f5750816040015163ffffffff1642105b156130b757505060cb54600160e01b900461ffff1690565b816040015163ffffffff164210156130d05781516113e9565b506020015190565b919050565b60cb546040805163ffffffff600160a01b9093048316815291831660208301527faf557c6c02c208794817a705609cfa935f827312a1adfdd26494b6b95dd2b4b3910160405180910390a160cb805463ffffffff909216600160a01b0263ffffffff60a01b19909216919091179055565b80606001511561317157604051631b14174b60e01b815260040160405180910390fd5b806040015163ffffffff1642101561319c57604051631437a2bb60e31b815260040160405180910390fd5b6131a960c08301836148bb565b90506131b860a08401846148bb565b9050146131d8576040516343714afd60e01b815260040160405180910390fd5b6131e560e0830183614876565b90506131f460c08401846148bb565b905014613214576040516343714afd60e01b815260040160405180910390fd5b80516132409061322a60408501602086016140f1565b6132376040860186614900565b86606001613af8565b5f5b61324f60a08401846148bb565b905081101561112f576132e9608084013561326d60a08601866148bb565b8481811061327d5761327d614373565b905060200201602081019061329291906140f1565b61329f60c08701876148bb565b858181106132af576132af614373565b90506020028101906132c19190614900565b6132ce60e0890189614876565b878181106132de576132de614373565b905060400201613b9c565b600101613242565b603380546001600160a01b038381166001600160a01b0319831681179093556040519116919082907f8be0079c531659141344cd1fd0a4f28419497f9722a3daafe3b4186f6b6457e0905f90a35050565b60cb546040516001600160a01b038084169216907f237b82f438d75fc568ebab484b75b01d9287b9e98b490b7c23221623b6705dbb905f90a360cb80546001600160a01b0319166001600160a01b0392909216919091179055565b5f815f0151826020015163ffffffff166040516020016133e892919060609290921b6bffffffffffffffffffffffff1916825260a01b6001600160a01b031916601482015260200190565b6040516020818303038152906040526113e990614942565b6001600160a01b038083165f81815260cc602052604080822080548686166001600160a01b0319821681179092559151919094169392849290917fbab947934d42e0ad206f25c9cab18b5bb6ae144acfb00f40b4e3aa59590ca3129190a4505050565b60cb546040805161ffff600160e01b9093048316815291831660208301527fe6cd4edfdcc1f6d130ab35f73d72378f3a642944fb4ee5bd84b7807a81ea1c4e910160405180910390a160cb805461ffff909216600160e01b0261ffff60e01b19909216919091179055565b61271061ffff831611156134f55760405163891c63df60e01b815260040160405180910390fd5b8254600160201b900463ffffffff16421161352357604051637b1e25c560e01b815260040160405180910390fd5b8254600160201b900463ffffffff165f0361354a57825461ffff191661ffff178355613561565b825462010000810461ffff1661ffff199091161783555b825463ffffffff909116600160201b0267ffffffff000000001961ffff90931662010000029290921667ffffffffffff00001990911617179055565b7f00000000000000000000000000000000000000000000000000000000000000006001600160a01b031663eab66d7a6040518163ffffffff1660e01b8152600401602060405180830381865afa1580156135f9573d5f5f3e3d5ffd5b505050506040513d601f19601f8201168201806040525081019061361d9190614965565b6001600160a01b0316336001600160a01b0316146114155760405163794821ff60e01b815260040160405180910390fd5b604051631beb2b9760e31b81526001600160a01b0382811660048301523360248301523060448301525f80356001600160e01b0319166064840152917f00000000000000000000000000000000000000000000000000000000000000009091169063df595cb890608401602060405180830381865afa1580156136d3573d5f5f3e3d5ffd5b505050506040513d601f19601f820116820180604052508101906113e99190614358565b826137155760405163796cc52560e01b815260040160405180910390fd5b7f000000000000000000000000000000000000000000000000000000000000000063ffffffff168163ffffffff16111561376257604051630dd0b9f560e21b815260040160405180910390fd5b61378c7f000000000000000000000000000000000000000000000000000000000000000082614994565b63ffffffff16156137b05760405163ee66470560e01b815260040160405180910390fd5b5f8163ffffffff16116137d65760405163cb3f434d60e01b815260040160405180910390fd5b6138007f000000000000000000000000000000000000000000000000000000000000000083614994565b63ffffffff161561382457604051633c1a94f160e21b815260040160405180910390fd5b8163ffffffff167f000000000000000000000000000000000000000000000000000000000000000063ffffffff164261385d919061462a565b1115801561389757508163ffffffff167f000000000000000000000000000000000000000000000000000000000000000063ffffffff1611155b6138b45760405163041aa75760e11b815260040160405180910390fd5b5f805b848110156122ce575f8686838181106138d2576138d2614373565b6138e89260206040909202019081019150613e6a565b60405163198f077960e21b81526001600160a01b0380831660048301529192507f00000000000000000000000000000000000000000000000000000000000000009091169063663c1de490602401602060405180830381865afa158015613951573d5f5f3e3d5ffd5b505050506040513d601f19601f820116820180604052508101906139759190614358565b8061399c57506001600160a01b03811673beac0eeeeeeeeeeeeeeeeeeeeeeeeeeeeeebeac0145b6139b957604051632efd965160e11b815260040160405180910390fd5b806001600160a01b0316836001600160a01b0316106139eb5760405163dfad9ca160e01b815260040160405180910390fd5b91506001016138b7565b5f613a49826040518060400160405280602081526020017f5361666545524332303a206c6f772d6c6576656c2063616c6c206661696c6564815250856001600160a01b0316613bda9092919063ffffffff16565b905080515f1480613a69575080806020019051810190613a699190614358565b61112f5760405162461bcd60e51b815260206004820152602a60248201527f5361666545524332303a204552433230206f7065726174696f6e20646964206e6044820152691bdd081cdd58d8d9595960b21b606482015260840161218f565b6040516001600160a01b03831660248201526044810182905261112f90849063a9059cbb60e01b90606401612b89565b613b036020836149bb565b6001901b8463ffffffff1610613b2b5760405162c6c39d60e71b815260040160405180910390fd5b5f613b3582610f4e565b9050613b7f84848080601f0160208091040260200160405190810160405280939291908181526020018383808284375f920191909152508a92508591505063ffffffff8916613bf0565b6122ce576040516369ca16c960e01b815260040160405180910390fd5b613ba76020836149bb565b6001901b8463ffffffff1610613bd05760405163054ff4df60e51b815260040160405180910390fd5b5f613b3582612480565b6060613be884845f85613c25565b949350505050565b5f83613c0f576040516329e7276760e11b815260040160405180910390fd5b83613c1b868585613cfc565b1495945050505050565b606082471015613c865760405162461bcd60e51b815260206004820152602660248201527f416464726573733a20696e73756666696369656e742062616c616e636520666f6044820152651c8818d85b1b60d21b606482015260840161218f565b5f5f866001600160a01b03168587604051613ca191906149ce565b5f6040518083038185875af1925050503d805f8114613cdb576040519150601f19603f3d011682016040523d82523d5f602084013e613ce0565b606091505b5091509150613cf187838387613db9565b979650505050505050565b5f83515f03613d0c575081611c02565b60208451613d1a91906149e4565b15613d38576040516313717da960e21b815260040160405180910390fd5b8260205b85518111613d9957613d4f6002856149e4565b5f03613d7057815f528086015160205260405f209150600284049350613d87565b808601515f528160205260405f2091506002840493505b613d926020826145f2565b9050613d3c565b508215613be8576040516363df817160e01b815260040160405180910390fd5b60608315613e275782515f03613e20576001600160a01b0385163b613e205760405162461bcd60e51b815260206004820152601d60248201527f416464726573733a2063616c6c20746f206e6f6e2d636f6e7472616374000000604482015260640161218f565b5081613be8565b613be88383815115613e3c5781518083602001fd5b8060405162461bcd60e51b815260040161218f91906149f7565b6001600160a01b0381168114611400575f5ffd5b5f60208284031215613e7a575f5ffd5b8135611c0281613e56565b5f60408284031215613e95575f5ffd5b50919050565b5f5f83601f840112613eab575f5ffd5b5081356001600160401b03811115613ec1575f5ffd5b6020830191508360208260051b8501011115613edb575f5ffd5b9250929050565b5f5f5f60608486031215613ef4575f5ffd5b613efe8585613e85565b925060408401356001600160401b03811115613f18575f5ffd5b613f2486828701613e9b565b9497909650939450505050565b8015158114611400575f5ffd5b5f5f60408385031215613f4f575f5ffd5b8235613f5a81613e56565b91506020830135613f6a81613f31565b809150509250929050565b5f60208284031215613f85575f5ffd5b5035919050565b5f60408284031215613f9c575f5ffd5b611c028383613e85565b5f5f60408385031215613fb7575f5ffd5b8235613fc281613e56565b946020939093013593505050565b5f5f60208385031215613fe1575f5ffd5b82356001600160401b03811115613ff6575f5ffd5b61400285828601613e9b565b90969095509350505050565b5f6101008284031215613e95575f5ffd5b5f5f60408385031215614030575f5ffd5b82356001600160401b03811115614045575f5ffd5b6140518582860161400e565b9250506020830135613f6a81613e56565b803563ffffffff811681146130d8575f5ffd5b5f5f60408385031215614086575f5ffd5b8235915061409660208401614062565b90509250929050565b5f5f5f604084860312156140b1575f5ffd5b83356001600160401b038111156140c6575f5ffd5b6140d286828701613e9b565b90945092505060208401356140e681613e56565b809150509250925092565b5f60208284031215614101575f5ffd5b611c0282614062565b5f6020828403121561411a575f5ffd5b813560ff81168114611c02575f5ffd5b5f6020828403121561413a575f5ffd5b81356001600160401b0381111561414f575f5ffd5b613be88482850161400e565b5f5f6040838503121561416c575f5ffd5b823561417781613e56565b91506020830135613f6a81613e56565b5f5f5f60408486031215614199575f5ffd5b83356141a481613e56565b925060208401356001600160401b03811115613f18575f5ffd5b5f5f606083850312156141cf575f5ffd5b82356141da81613e56565b91506140968460208501613e85565b803561ffff811681146130d8575f5ffd5b5f6020828403121561420a575f5ffd5b611c02826141e9565b5f5f60408385031215614224575f5ffd5b823561422f81613e56565b9150614096602084016141e9565b5f5f5f6060848603121561424f575f5ffd5b833561425a81613e56565b9250602084013561426a81613e56565b9150614278604085016141e9565b90509250925092565b5f5f5f5f5f60a08688031215614295575f5ffd5b85356142a081613e56565b94506020860135935060408601356142b781613e56565b92506142c560608701614062565b91506142d3608087016141e9565b90509295509295909350565b5f5f5f608084860312156142f1575f5ffd5b83356142fc81613e56565b925061430b8560208601613e85565b9150614278606085016141e9565b803561432481613e56565b6001600160a01b0316825263ffffffff61434060208301614062565b1660208301525050565b604081016113e98284614319565b5f60208284031215614368575f5ffd5b8151611c0281613f31565b634e487b7160e01b5f52603260045260245ffd5b5f823560be1983360301811261439b575f5ffd5b9190910192915050565b5f5f8335601e198436030181126143ba575f5ffd5b83016020810192503590506001600160401b038111156143d8575f5ffd5b8060061b3603821315613edb575f5ffd5b8183526020830192505f815f5b8481101561444c57813561440981613e56565b6001600160a01b0316865260208201356bffffffffffffffffffffffff8116808214614433575f5ffd5b60208801525060409586019591909101906001016143f6565b5093949350505050565b5f5f8335601e1984360301811261446b575f5ffd5b83016020810192503590506001600160401b03811115614489575f5ffd5b803603821315613edb575f5ffd5b81835281816020850137505f828201602090810191909152601f909101601f19169091010190565b5f6144ca82836143a5565b60c085526144dc60c0860182846143e9565b91505060208301356144ed81613e56565b6001600160a01b0316602085015261450860408401846143a5565b858303604087015280835290915f91906020015b8183101561455757833561452f81613e56565b6001600160a01b0316815260208481013590820152604093840193600193909301920161451c565b61456360608701614062565b63ffffffff81166060890152935061457d60808701614062565b63ffffffff81166080890152935061459860a0870187614456565b9450925086810360a0880152613cf1818585614497565b60018060a01b0384168152826020820152606060408201525f6145d560608301846144bf565b95945050505050565b634e487b7160e01b5f52601160045260245ffd5b808201808211156113e9576113e96145de565b61460f8185614319565b826040820152608060608201525f6145d560808301846144bf565b818103818111156113e9576113e96145de565b5f8161464b5761464b6145de565b505f190190565b5f8235609e1983360301811261439b575f5ffd5b5f61467182836143a5565b60a0855261468360a0860182846143e9565b915050602083013561469481613e56565b6001600160a01b031660208501526040838101359085015263ffffffff6146bd60608501614062565b16606085015263ffffffff6146d460808501614062565b1660808501528091505092915050565b60018060a01b0384168152826020820152606060408201525f6145d56060830184614666565b602081525f611c026020830184614666565b63ffffffff81811683821601908111156113e9576113e96145de565b5f823560fe1983360301811261439b575f5ffd5b6147568185614319565b826040820152608060608201525f6145d56080830184614666565b828152604060208201525f613be860408301846144bf565b5f604082840312801561479a575f5ffd5b50604080519081016001600160401b03811182821017156147c957634e487b7160e01b5f52604160045260245ffd5b60405282356147d781613e56565b81526147e560208401614062565b60208201529392505050565b63ffffffff82811682821603908111156113e9576113e96145de565b5f63ffffffff821680614822576148226145de565b5f190192915050565b5f6020828403121561483b575f5ffd5b5051919050565b60a081016148508287614319565b63ffffffff94909416604082015261ffff92831660608201529116608090910152919050565b5f5f8335601e1984360301811261488b575f5ffd5b8301803591506001600160401b038211156148a4575f5ffd5b6020019150600681901b3603821315613edb575f5ffd5b5f5f8335601e198436030181126148d0575f5ffd5b8301803591506001600160401b038211156148e9575f5ffd5b6020019150600581901b3603821315613edb575f5ffd5b5f5f8335601e19843603018112614915575f5ffd5b8301803591506001600160401b0382111561492e575f5ffd5b602001915036819003821315613edb575f5ffd5b80516020808301519190811015613e95575f1960209190910360031b1b16919050565b5f60208284031215614975575f5ffd5b8151611c0281613e56565b634e487b7160e01b5f52601260045260245ffd5b5f63ffffffff8316806149a9576149a9614980565b8063ffffffff84160691505092915050565b5f826149c9576149c9614980565b500490565b5f82518060208501845e5f920191825250919050565b5f826149f2576149f2614980565b500690565b602081525f82518060208401528060208501604085015e5f604082850101526040601f19601f8301168401019150509291505056fea264697066735822122028d6e0924d97e27beadd0d1be6d611cfd5cc6240b3bc4abe0f3f6f4cea81d5c964736f6c634300081e0033",
    "linkReferences": {}
  },
  "methodIdentifiers": {
    "CALCULATION_INTERVAL_SECONDS()": "9d45c281",
    "GENESIS_REWARDS_TIMESTAMP()": "131433b4",
    "MAX_FUTURE_LENGTH()": "04a0c502",
    "MAX_RETROACTIVE_LENGTH()": "37838ed0",
    "MAX_REWARDS_DURATION()": "bf21a8aa",
    "activationDelay()": "3a8c0786",
    "allocationManager()": "ca8aa7c7",
    "beaconChainETHStrategy()": "9104c319",
    "calculateEarnerLeafHash((address,bytes32))": "149bc872",
    "calculateTokenLeafHash((address,uint256))": "f8cd8448",
    "checkClaim((uint32,uint32,bytes,(address,bytes32),uint32[],bytes[],(address,uint256)[]))": "5e9d8348",
    "claimerFor(address)": "2b9f64a4",
    "createAVSRewardsSubmission(((address,uint96)[],address,uint256,uint32,uint32)[])": "fce36c7d",
    "createOperatorDirectedAVSRewardsSubmission(address,((address,uint96)[],address,(address,uint256)[],uint32,uint32,string)[])": "9cb9a5fa",
    "createOperatorDirectedOperatorSetRewardsSubmission((address,uint32),((address,uint96)[],address,(address,uint256)[],uint32,uint32,string)[])": "0ca29899",
    "createRewardsForAllEarners(((address,uint96)[],address,uint256,uint32,uint32)[])": "ff9f6cce",
    "createRewardsForAllSubmission(((address,uint96)[],address,uint256,uint32,uint32)[])": "36af41fa",
    "createTotalStakeRewardsSubmission((address,uint32),((address,uint96)[],address,uint256,uint32,uint32)[])": "8cb0ae1b",
    "createUniqueStakeRewardsSubmission((address,uint32),((address,uint96)[],address,uint256,uint32,uint32)[])": "7ae30583",
    "cumulativeClaimed(address,address)": "865c6953",
    "currRewardsCalculationEndTimestamp()": "4d18cc35",
    "defaultOperatorSplitBips()": "63f6a798",
    "delegationManager()": "ea4d3c9b",
    "disableRoot(uint32)": "f96abf2e",
    "getCurrentClaimableDistributionRoot()": "0e9a53cf",
    "getCurrentDistributionRoot()": "9be3d4e4",
    "getDistributionRootAtIndex(uint256)": "de02e503",
    "getDistributionRootsLength()": "7b8f8b05",
    "getOperatorAVSSplit(address,address)": "e063f81f",
    "getOperatorPISplit(address)": "4b943960",
    "getOperatorSetSplit(address,(address,uint32))": "9de4b35f",
    "getRootIndexFromHash(bytes32)": "e810ce21",
    "initialize(address,uint256,address,uint32,uint16)": "f6efbb59",
    "isAVSRewardsSubmissionHash(address,bytes32)": "6d21117e",
    "isOperatorDirectedAVSRewardsSubmissionHash(address,bytes32)": "ed71e6a2",
    "isOperatorDirectedOperatorSetRewardsSubmissionHash(address,bytes32)": "f2f07ab4",
    "isRewardsForAllSubmitter(address)": "0018572c",
    "isRewardsSubmissionForAllEarnersHash(address,bytes32)": "aebd8bae",
    "isRewardsSubmissionForAllHash(address,bytes32)": "c46db606",
    "isTotalStakeRewardsSubmissionHash(address,bytes32)": "b73c1b92",
    "isUniqueStakeRewardsSubmissionHash(address,bytes32)": "2943e3ff",
    "owner()": "8da5cb5b",
    "pause(uint256)": "136439dd",
    "pauseAll()": "595c6a67",
    "paused()": "5c975abb",
    "paused(uint8)": "5ac86ab7",
    "pauserRegistry()": "886f1195",
    "permissionController()": "4657e26a",
    "processClaim((uint32,uint32,bytes,(address,bytes32),uint32[],bytes[],(address,uint256)[]),address)": "3ccc861d",
    "processClaims((uint32,uint32,bytes,(address,bytes32),uint32[],bytes[],(address,uint256)[])[],address)": "4596021c",
    "renounceOwnership()": "715018a6",
    "rewardsUpdater()": "fbf1e2c1",
    "setActivationDelay(uint32)": "58baaa3e",
    "setClaimerFor(address)": "a0169ddd",
    "setClaimerFor(address,address)": "f22cef85",
    "setDefaultOperatorSplit(uint16)": "a50a1d9c",
    "setOperatorAVSSplit(address,address,uint16)": "dcbb03b3",
    "setOperatorPISplit(address,uint16)": "b3dbb0e0",
    "setOperatorSetSplit(address,(address,uint32),uint16)": "f74e8eac",
    "setRewardsForAllSubmitter(address,bool)": "0eb38345",
    "setRewardsUpdater(address)": "863cb9a9",
    "strategyManager()": "39b70e38",
    "submissionNonce(address)": "bb7e451f",
    "submitRoot(bytes32,uint32)": "3efe1db6",
    "transferOwnership(address)": "f2fde38b",
    "unpause(uint256)": "fabc1cbc"
  },
  "id": 148
}