{
  "abi": [
    {
      "type": "constructor",
      "inputs": [
        {
          "name": "_operatorTableUpdater",
          "type": "address",
          "internalType": "contract IOperatorTableUpdater"
        }
      ],
      "stateMutability": "nonpayable"
    },
    {
      "type": "function",
      "name": "OPERATOR_INFO_LEAF_SALT",
      "inputs": [],
      "outputs": [
        {
          "name": "",
          "type": "uint8",
          "internalType": "uint8"
        }
      ],
      "stateMutability": "view"
    },
    {
      "type": "function",
      "name": "OPERATOR_TABLE_LEAF_SALT",
      "inputs": [],
      "outputs": [
        {
          "name": "",
          "type": "uint8",
          "internalType": "uint8"
        }
      ],
      "stateMutability": "view"
    },
    {
      "type": "function",
      "name": "calculateCertificateDigest",
      "inputs": [
        {
          "name": "referenceTimestamp",
          "type": "uint32",
          "internalType": "uint32"
        },
        {
          "name": "messageHash",
          "type": "bytes32",
          "internalType": "bytes32"
        }
      ],
      "outputs": [
        {
          "name": "",
          "type": "bytes32",
          "internalType": "bytes32"
        }
      ],
      "stateMutability": "pure"
    },
    {
      "type": "function",
      "name": "calculateOperatorInfoLeaf",
      "inputs": [
        {
          "name": "operatorInfo",
          "type": "tuple",
          "internalType": "struct IOperatorTableCalculatorTypes.BN254OperatorInfo",
          "components": [
            {
              "name": "pubkey",
              "type": "tuple",
              "internalType": "struct BN254.G1Point",
              "components": [
                {
                  "name": "X",
                  "type": "uint256",
                  "internalType": "uint256"
                },
                {
                  "name": "Y",
                  "type": "uint256",
                  "internalType": "uint256"
                }
              ]
            },
            {
              "name": "weights",
              "type": "uint256[]",
              "internalType": "uint256[]"
            }
          ]
        }
      ],
      "outputs": [
        {
          "name": "",
          "type": "bytes32",
          "internalType": "bytes32"
        }
      ],
      "stateMutability": "pure"
    },
    {
      "type": "function",
      "name": "calculateOperatorTableLeaf",
      "inputs": [
        {
          "name": "operatorTableBytes",
          "type": "bytes",
          "internalType": "bytes"
        }
      ],
      "outputs": [
        {
          "name": "",
          "type": "bytes32",
          "internalType": "bytes32"
        }
      ],
      "stateMutability": "pure"
    },
    {
      "type": "function",
      "name": "getNonsignerOperatorInfo",
      "inputs": [
        {
          "name": "operatorSet",
          "type": "tuple",
          "internalType": "struct OperatorSet",
          "components": [
            {
              "name": "avs",
              "type": "address",
              "internalType": "address"
            },
            {
              "name": "id",
              "type": "uint32",
              "internalType": "uint32"
            }
          ]
        },
        {
          "name": "referenceTimestamp",
          "type": "uint32",
          "internalType": "uint32"
        },
        {
          "name": "operatorIndex",
          "type": "uint256",
          "internalType": "uint256"
        }
      ],
      "outputs": [
        {
          "name": "",
          "type": "tuple",
          "internalType": "struct IOperatorTableCalculatorTypes.BN254OperatorInfo",
          "components": [
            {
              "name": "pubkey",
              "type": "tuple",
              "internalType": "struct BN254.G1Point",
              "components": [
                {
                  "name": "X",
                  "type": "uint256",
                  "internalType": "uint256"
                },
                {
                  "name": "Y",
                  "type": "uint256",
                  "internalType": "uint256"
                }
              ]
            },
            {
              "name": "weights",
              "type": "uint256[]",
              "internalType": "uint256[]"
            }
          ]
        }
      ],
      "stateMutability": "view"
    },
    {
      "type": "function",
      "name": "getOperatorCount",
      "inputs": [
        {
          "name": "operatorSet",
          "type": "tuple",
          "internalType": "struct OperatorSet",
          "components": [
            {
              "name": "avs",
              "type": "address",
              "internalType": "address"
            },
            {
              "name": "id",
              "type": "uint32",
              "internalType": "uint32"
            }
          ]
        },
        {
          "name": "referenceTimestamp",
          "type": "uint32",
          "internalType": "uint32"
        }
      ],
      "outputs": [
        {
          "name": "",
          "type": "uint256",
          "internalType": "uint256"
        }
      ],
      "stateMutability": "view"
    },
    {
      "type": "function",
      "name": "getOperatorSetInfo",
      "inputs": [
        {
          "name": "operatorSet",
          "type": "tuple",
          "internalType": "struct OperatorSet",
          "components": [
            {
              "name": "avs",
              "type": "address",
              "internalType": "address"
            },
            {
              "name": "id",
              "type": "uint32",
              "internalType": "uint32"
            }
          ]
        },
        {
          "name": "referenceTimestamp",
          "type": "uint32",
          "internalType": "uint32"
        }
      ],
      "outputs": [
        {
          "name": "",
          "type": "tuple",
          "internalType": "struct IOperatorTableCalculatorTypes.BN254OperatorSetInfo",
          "components": [
            {
              "name": "operatorInfoTreeRoot",
              "type": "bytes32",
              "internalType": "bytes32"
            },
            {
              "name": "numOperators",
              "type": "uint256",
              "internalType": "uint256"
            },
            {
              "name": "aggregatePubkey",
              "type": "tuple",
              "internalType": "struct BN254.G1Point",
              "components": [
                {
                  "name": "X",
                  "type": "uint256",
                  "internalType": "uint256"
                },
                {
                  "name": "Y",
                  "type": "uint256",
                  "internalType": "uint256"
                }
              ]
            },
            {
              "name": "totalWeights",
              "type": "uint256[]",
              "internalType": "uint256[]"
            }
          ]
        }
      ],
      "stateMutability": "view"
    },
    {
      "type": "function",
      "name": "getOperatorSetOwner",
      "inputs": [
        {
          "name": "operatorSet",
          "type": "tuple",
          "internalType": "struct OperatorSet",
          "components": [
            {
              "name": "avs",
              "type": "address",
              "internalType": "address"
            },
            {
              "name": "id",
              "type": "uint32",
              "internalType": "uint32"
            }
          ]
        }
      ],
      "outputs": [
        {
          "name": "",
          "type": "address",
          "internalType": "address"
        }
      ],
      "stateMutability": "view"
    },
    {
      "type": "function",
      "name": "getTotalStakeWeights",
      "inputs": [
        {
          "name": "operatorSet",
          "type": "tuple",
          "internalType": "struct OperatorSet",
          "components": [
            {
              "name": "avs",
              "type": "address",
              "internalType": "address"
            },
            {
              "name": "id",
              "type": "uint32",
              "internalType": "uint32"
            }
          ]
        },
        {
          "name": "referenceTimestamp",
          "type": "uint32",
          "internalType": "uint32"
        }
      ],
      "outputs": [
        {
          "name": "",
          "type": "uint256[]",
          "internalType": "uint256[]"
        }
      ],
      "stateMutability": "view"
    },
    {
      "type": "function",
      "name": "isNonsignerCached",
      "inputs": [
        {
          "name": "operatorSet",
          "type": "tuple",
          "internalType": "struct OperatorSet",
          "components": [
            {
              "name": "avs",
              "type": "address",
              "internalType": "address"
            },
            {
              "name": "id",
              "type": "uint32",
              "internalType": "uint32"
            }
          ]
        },
        {
          "name": "referenceTimestamp",
          "type": "uint32",
          "internalType": "uint32"
        },
        {
          "name": "operatorIndex",
          "type": "uint256",
          "internalType": "uint256"
        }
      ],
      "outputs": [
        {
          "name": "",
          "type": "bool",
          "internalType": "bool"
        }
      ],
      "stateMutability": "view"
    },
    {
      "type": "function",
      "name": "isReferenceTimestampSet",
      "inputs": [
        {
          "name": "operatorSet",
          "type": "tuple",
          "internalType": "struct OperatorSet",
          "components": [
            {
              "name": "avs",
              "type": "address",
              "internalType": "address"
            },
            {
              "name": "id",
              "type": "uint32",
              "internalType": "uint32"
            }
          ]
        },
        {
          "name": "referenceTimestamp",
          "type": "uint32",
          "internalType": "uint32"
        }
      ],
      "outputs": [
        {
          "name": "",
          "type": "bool",
          "internalType": "bool"
        }
      ],
      "stateMutability": "view"
    },
    {
      "type": "function",
      "name": "latestReferenceTimestamp",
      "inputs": [
        {
          "name": "operatorSet",
          "type": "tuple",
          "internalType": "struct OperatorSet",
          "components": [
            {
              "name": "avs",
              "type": "address",
              "internalType": "address"
            },
            {
              "name": "id",
              "type": "uint32",
              "internalType": "uint32"
            }
          ]
        }
      ],
      "outputs": [
        {
          "name": "",
          "type": "uint32",
          "internalType": "uint32"
        }
      ],
      "stateMutability": "view"
    },
    {
      "type": "function",
      "name": "maxOperatorTableStaleness",
      "inputs": [
        {
          "name": "operatorSet",
          "type": "tuple",
          "internalType": "struct OperatorSet",
          "components": [
            {
              "name": "avs",
              "type": "address",
              "internalType": "address"
            },
            {
              "name": "id",
              "type": "uint32",
              "internalType": "uint32"
            }
          ]
        }
      ],
      "outputs": [
        {
          "name": "",
          "type": "uint32",
          "internalType": "uint32"
        }
      ],
      "stateMutability": "view"
    },
    {
      "type": "function",
      "name": "operatorTableUpdater",
      "inputs": [],
      "outputs": [
        {
          "name": "",
          "type": "address",
          "internalType": "contract IOperatorTableUpdater"
        }
      ],
      "stateMutability": "view"
    },
    {
      "type": "function",
      "name": "trySignatureVerification",
      "inputs": [
        {
          "name": "msgHash",
          "type": "bytes32",
          "internalType": "bytes32"
        },
        {
          "name": "aggPubkey",
          "type": "tuple",
          "internalType": "struct BN254.G1Point",
          "components": [
            {
              "name": "X",
              "type": "uint256",
              "internalType": "uint256"
            },
            {
              "name": "Y",
              "type": "uint256",
              "internalType": "uint256"
            }
          ]
        },
        {
          "name": "apkG2",
          "type": "tuple",
          "internalType": "struct BN254.G2Point",
          "components": [
            {
              "name": "X",
              "type": "uint256[2]",
              "internalType": "uint256[2]"
            },
            {
              "name": "Y",
              "type": "uint256[2]",
              "internalType": "uint256[2]"
            }
          ]
        },
        {
          "name": "signature",
          "type": "tuple",
          "internalType": "struct BN254.G1Point",
          "components": [
            {
              "name": "X",
              "type": "uint256",
              "internalType": "uint256"
            },
            {
              "name": "Y",
              "type": "uint256",
              "internalType": "uint256"
            }
          ]
        }
      ],
      "outputs": [
        {
          "name": "pairingSuccessful",
          "type": "bool",
          "internalType": "bool"
        },
        {
          "name": "signatureValid",
          "type": "bool",
          "internalType": "bool"
        }
      ],
      "stateMutability": "view"
    },
    {
      "type": "function",
      "name": "updateOperatorTable",
      "inputs": [
        {
          "name": "operatorSet",
          "type": "tuple",
          "internalType": "struct OperatorSet",
          "components": [
            {
              "name": "avs",
              "type": "address",
              "internalType": "address"
            },
            {
              "name": "id",
              "type": "uint32",
              "internalType": "uint32"
            }
          ]
        },
        {
          "name": "referenceTimestamp",
          "type": "uint32",
          "internalType": "uint32"
        },
        {
          "name": "operatorSetInfo",
          "type": "tuple",
          "internalType": "struct IOperatorTableCalculatorTypes.BN254OperatorSetInfo",
          "components": [
            {
              "name": "operatorInfoTreeRoot",
              "type": "bytes32",
              "internalType": "bytes32"
            },
            {
              "name": "numOperators",
              "type": "uint256",
              "internalType": "uint256"
            },
            {
              "name": "aggregatePubkey",
              "type": "tuple",
              "internalType": "struct BN254.G1Point",
              "components": [
                {
                  "name": "X",
                  "type": "uint256",
                  "internalType": "uint256"
                },
                {
                  "name": "Y",
                  "type": "uint256",
                  "internalType": "uint256"
                }
              ]
            },
            {
              "name": "totalWeights",
              "type": "uint256[]",
              "internalType": "uint256[]"
            }
          ]
        },
        {
          "name": "operatorSetConfig",
          "type": "tuple",
          "internalType": "struct ICrossChainRegistryTypes.OperatorSetConfig",
          "components": [
            {
              "name": "owner",
              "type": "address",
              "internalType": "address"
            },
            {
              "name": "maxStalenessPeriod",
              "type": "uint32",
              "internalType": "uint32"
            }
          ]
        }
      ],
      "outputs": [],
      "stateMutability": "nonpayable"
    },
    {
      "type": "function",
      "name": "verifyCertificate",
      "inputs": [
        {
          "name": "operatorSet",
          "type": "tuple",
          "internalType": "struct OperatorSet",
          "components": [
            {
              "name": "avs",
              "type": "address",
              "internalType": "address"
            },
            {
              "name": "id",
              "type": "uint32",
              "internalType": "uint32"
            }
          ]
        },
        {
          "name": "cert",
          "type": "tuple",
          "internalType": "struct IBN254CertificateVerifierTypes.BN254Certificate",
          "components": [
            {
              "name": "referenceTimestamp",
              "type": "uint32",
              "internalType": "uint32"
            },
            {
              "name": "messageHash",
              "type": "bytes32",
              "internalType": "bytes32"
            },
            {
              "name": "signature",
              "type": "tuple",
              "internalType": "struct BN254.G1Point",
              "components": [
                {
                  "name": "X",
                  "type": "uint256",
                  "internalType": "uint256"
                },
                {
                  "name": "Y",
                  "type": "uint256",
                  "internalType": "uint256"
                }
              ]
            },
            {
              "name": "apk",
              "type": "tuple",
              "internalType": "struct BN254.G2Point",
              "components": [
                {
                  "name": "X",
                  "type": "uint256[2]",
                  "internalType": "uint256[2]"
                },
                {
                  "name": "Y",
                  "type": "uint256[2]",
                  "internalType": "uint256[2]"
                }
              ]
            },
            {
              "name": "nonSignerWitnesses",
              "type": "tuple[]",
              "internalType": "struct IBN254CertificateVerifierTypes.BN254OperatorInfoWitness[]",
              "components": [
                {
                  "name": "operatorIndex",
                  "type": "uint32",
                  "internalType": "uint32"
                },
                {
                  "name": "operatorInfoProof",
                  "type": "bytes",
                  "internalType": "bytes"
                },
                {
                  "name": "operatorInfo",
                  "type": "tuple",
                  "internalType": "struct IOperatorTableCalculatorTypes.BN254OperatorInfo",
                  "components": [
                    {
                      "name": "pubkey",
                      "type": "tuple",
                      "internalType": "struct BN254.G1Point",
                      "components": [
                        {
                          "name": "X",
                          "type": "uint256",
                          "internalType": "uint256"
                        },
                        {
                          "name": "Y",
                          "type": "uint256",
                          "internalType": "uint256"
                        }
                      ]
                    },
                    {
                      "name": "weights",
                      "type": "uint256[]",
                      "internalType": "uint256[]"
                    }
                  ]
                }
              ]
            }
          ]
        }
      ],
      "outputs": [
        {
          "name": "totalSignedStakeWeights",
          "type": "uint256[]",
          "internalType": "uint256[]"
        }
      ],
      "stateMutability": "nonpayable"
    },
    {
      "type": "function",
      "name": "verifyCertificateNominal",
      "inputs": [
        {
          "name": "operatorSet",
          "type": "tuple",
          "internalType": "struct OperatorSet",
          "components": [
            {
              "name": "avs",
              "type": "address",
              "internalType": "address"
            },
            {
              "name": "id",
              "type": "uint32",
              "internalType": "uint32"
            }
          ]
        },
        {
          "name": "cert",
          "type": "tuple",
          "internalType": "struct IBN254CertificateVerifierTypes.BN254Certificate",
          "components": [
            {
              "name": "referenceTimestamp",
              "type": "uint32",
              "internalType": "uint32"
            },
            {
              "name": "messageHash",
              "type": "bytes32",
              "internalType": "bytes32"
            },
            {
              "name": "signature",
              "type": "tuple",
              "internalType": "struct BN254.G1Point",
              "components": [
                {
                  "name": "X",
                  "type": "uint256",
                  "internalType": "uint256"
                },
                {
                  "name": "Y",
                  "type": "uint256",
                  "internalType": "uint256"
                }
              ]
            },
            {
              "name": "apk",
              "type": "tuple",
              "internalType": "struct BN254.G2Point",
              "components": [
                {
                  "name": "X",
                  "type": "uint256[2]",
                  "internalType": "uint256[2]"
                },
                {
                  "name": "Y",
                  "type": "uint256[2]",
                  "internalType": "uint256[2]"
                }
              ]
            },
            {
              "name": "nonSignerWitnesses",
              "type": "tuple[]",
              "internalType": "struct IBN254CertificateVerifierTypes.BN254OperatorInfoWitness[]",
              "components": [
                {
                  "name": "operatorIndex",
                  "type": "uint32",
                  "internalType": "uint32"
                },
                {
                  "name": "operatorInfoProof",
                  "type": "bytes",
                  "internalType": "bytes"
                },
                {
                  "name": "operatorInfo",
                  "type": "tuple",
                  "internalType": "struct IOperatorTableCalculatorTypes.BN254OperatorInfo",
                  "components": [
                    {
                      "name": "pubkey",
                      "type": "tuple",
                      "internalType": "struct BN254.G1Point",
                      "components": [
                        {
                          "name": "X",
                          "type": "uint256",
                          "internalType": "uint256"
                        },
                        {
                          "name": "Y",
                          "type": "uint256",
                          "internalType": "uint256"
                        }
                      ]
                    },
                    {
                      "name": "weights",
                      "type": "uint256[]",
                      "internalType": "uint256[]"
                    }
                  ]
                }
              ]
            }
          ]
        },
        {
          "name": "totalStakeNominalThresholds",
          "type": "uint256[]",
          "internalType": "uint256[]"
        }
      ],
      "outputs": [
        {
          "name": "",
          "type": "bool",
          "internalType": "bool"
        }
      ],
      "stateMutability": "nonpayable"
    },
    {
      "type": "function",
      "name": "verifyCertificateProportion",
      "inputs": [
        {
          "name": "operatorSet",
          "type": "tuple",
          "internalType": "struct OperatorSet",
          "components": [
            {
              "name": "avs",
              "type": "address",
              "internalType": "address"
            },
            {
              "name": "id",
              "type": "uint32",
              "internalType": "uint32"
            }
          ]
        },
        {
          "name": "cert",
          "type": "tuple",
          "internalType": "struct IBN254CertificateVerifierTypes.BN254Certificate",
          "components": [
            {
              "name": "referenceTimestamp",
              "type": "uint32",
              "internalType": "uint32"
            },
            {
              "name": "messageHash",
              "type": "bytes32",
              "internalType": "bytes32"
            },
            {
              "name": "signature",
              "type": "tuple",
              "internalType": "struct BN254.G1Point",
              "components": [
                {
                  "name": "X",
                  "type": "uint256",
                  "internalType": "uint256"
                },
                {
                  "name": "Y",
                  "type": "uint256",
                  "internalType": "uint256"
                }
              ]
            },
            {
              "name": "apk",
              "type": "tuple",
              "internalType": "struct BN254.G2Point",
              "components": [
                {
                  "name": "X",
                  "type": "uint256[2]",
                  "internalType": "uint256[2]"
                },
                {
                  "name": "Y",
                  "type": "uint256[2]",
                  "internalType": "uint256[2]"
                }
              ]
            },
            {
              "name": "nonSignerWitnesses",
              "type": "tuple[]",
              "internalType": "struct IBN254CertificateVerifierTypes.BN254OperatorInfoWitness[]",
              "components": [
                {
                  "name": "operatorIndex",
                  "type": "uint32",
                  "internalType": "uint32"
                },
                {
                  "name": "operatorInfoProof",
                  "type": "bytes",
                  "internalType": "bytes"
                },
                {
                  "name": "operatorInfo",
                  "type": "tuple",
                  "internalType": "struct IOperatorTableCalculatorTypes.BN254OperatorInfo",
                  "components": [
                    {
                      "name": "pubkey",
                      "type": "tuple",
                      "internalType": "struct BN254.G1Point",
                      "components": [
                        {
                          "name": "X",
                          "type": "uint256",
                          "internalType": "uint256"
                        },
                        {
                          "name": "Y",
                          "type": "uint256",
                          "internalType": "uint256"
                        }
                      ]
                    },
                    {
                      "name": "weights",
                      "type": "uint256[]",
                      "internalType": "uint256[]"
                    }
                  ]
                }
              ]
            }
          ]
        },
        {
          "name": "totalStakeProportionThresholds",
          "type": "uint16[]",
          "internalType": "uint16[]"
        }
      ],
      "outputs": [
        {
          "name": "",
          "type": "bool",
          "internalType": "bool"
        }
      ],
      "stateMutability": "nonpayable"
    },
    {
      "type": "event",
      "name": "Initialized",
      "inputs": [
        {
          "name": "version",
          "type": "uint8",
          "indexed": false,
          "internalType": "uint8"
        }
      ],
      "anonymous": false
    },
    {
      "type": "event",
      "name": "MaxStalenessPeriodUpdated",
      "inputs": [
        {
          "name": "operatorSet",
          "type": "tuple",
          "indexed": false,
          "internalType": "struct OperatorSet",
          "components": [
            {
              "name": "avs",
              "type": "address",
              "internalType": "address"
            },
            {
              "name": "id",
              "type": "uint32",
              "internalType": "uint32"
            }
          ]
        },
        {
          "name": "maxStalenessPeriod",
          "type": "uint32",
          "indexed": false,
          "internalType": "uint32"
        }
      ],
      "anonymous": false
    },
    {
      "type": "event",
      "name": "OperatorSetOwnerUpdated",
      "inputs": [
        {
          "name": "operatorSet",
          "type": "tuple",
          "indexed": false,
          "internalType": "struct OperatorSet",
          "components": [
            {
              "name": "avs",
              "type": "address",
              "internalType": "address"
            },
            {
              "name": "id",
              "type": "uint32",
              "internalType": "uint32"
            }
          ]
        },
        {
          "name": "owner",
          "type": "address",
          "indexed": false,
          "internalType": "address"
        }
      ],
      "anonymous": false
    },
    {
      "type": "event",
      "name": "TableUpdated",
      "inputs": [
        {
          "name": "operatorSet",
          "type": "tuple",
          "indexed": false,
          "internalType": "struct OperatorSet",
          "components": [
            {
              "name": "avs",
              "type": "address",
              "internalType": "address"
            },
            {
              "name": "id",
              "type": "uint32",
              "internalType": "uint32"
            }
          ]
        },
        {
          "name": "referenceTimestamp",
          "type": "uint32",
          "indexed": false,
          "internalType": "uint32"
        },
        {
          "name": "operatorSetInfo",
          "type": "tuple",
          "indexed": false,
          "internalType": "struct IOperatorTableCalculatorTypes.BN254OperatorSetInfo",
          "components": [
            {
              "name": "operatorInfoTreeRoot",
              "type": "bytes32",
              "internalType": "bytes32"
            },
            {
              "name": "numOperators",
              "type": "uint256",
              "internalType": "uint256"
            },
            {
              "name": "aggregatePubkey",
              "type": "tuple",
              "internalType": "struct BN254.G1Point",
              "components": [
                {
                  "name": "X",
                  "type": "uint256",
                  "internalType": "uint256"
                },
                {
                  "name": "Y",
                  "type": "uint256",
                  "internalType": "uint256"
                }
              ]
            },
            {
              "name": "totalWeights",
              "type": "uint256[]",
              "internalType": "uint256[]"
            }
          ]
        }
      ],
      "anonymous": false
    },
    {
      "type": "error",
      "name": "ArrayLengthMismatch",
      "inputs": []
    },
    {
      "type": "error",
      "name": "CertificateStale",
      "inputs": []
    },
    {
      "type": "error",
      "name": "ECAddFailed",
      "inputs": []
    },
    {
      "type": "error",
      "name": "ECMulFailed",
      "inputs": []
    },
    {
      "type": "error",
      "name": "ECPairingFailed",
      "inputs": []
    },
    {
      "type": "error",
      "name": "EmptyRoot",
      "inputs": []
    },
    {
      "type": "error",
      "name": "ExpModFailed",
      "inputs": []
    },
    {
      "type": "error",
      "name": "InvalidIndex",
      "inputs": []
    },
    {
      "type": "error",
      "name": "InvalidOperatorIndex",
      "inputs": []
    },
    {
      "type": "error",
      "name": "InvalidProofLength",
      "inputs": []
    },
    {
      "type": "error",
      "name": "NonSignerIndicesNotSorted",
      "inputs": []
    },
    {
      "type": "error",
      "name": "OnlyTableUpdater",
      "inputs": []
    },
    {
      "type": "error",
      "name": "ReferenceTimestampDoesNotExist",
      "inputs": []
    },
    {
      "type": "error",
      "name": "RootDisabled",
      "inputs": []
    },
    {
      "type": "error",
      "name": "TableUpdateStale",
      "inputs": []
    },
    {
      "type": "error",
      "name": "VerificationFailed",
      "inputs": []
    }
  ],
  "bytecode": {
    "object": "0x60a060405234801561000f575f5ffd5b50604051612c1d380380612c1d83398101604081905261002e91610105565b6001600160a01b038116608052610043610049565b50610132565b5f54610100900460ff16156100b45760405162461bcd60e51b815260206004820152602760248201527f496e697469616c697a61626c653a20636f6e747261637420697320696e697469604482015266616c697a696e6760c81b606482015260840160405180910390fd5b5f5460ff90811614610103575f805460ff191660ff9081179091556040519081527f7f26b83ff96e1f2b6a682f133852f6798a09c465da95921460cefb38474024989060200160405180910390a15b565b5f60208284031215610115575f5ffd5b81516001600160a01b038116811461012b575f5ffd5b9392505050565b608051612ac56101585f395f8181610286015281816107d00152610f680152612ac55ff3fe608060405234801561000f575f5ffd5b5060043610610127575f3560e01c80636141879e116100a9578063a2c902f51161006e578063a2c902f5146102e6578063a2f2e24d146102ee578063cd83a72b14610301578063dd2ae1b914610314578063eb39e68f14610327575f5ffd5b80636141879e146102595780636738c40b1461026c57806368d6e081146102815780637d1d1f5b146102c057806384818920146102d3575f5ffd5b806323c2a3cb116100ef57806323c2a3cb146101d857806326af6a3c146101eb578063538a37901461020b5780635be872741461021e5780635ddb9b5b14610231575f5ffd5b8063017d79741461012b578063080b715014610153578063121409ea14610173578063184674341461018d5780631a18746c146101ae575b5f5ffd5b61013e6101393660046123ad565b610347565b60405190151581526020015b60405180910390f35b610166610161366004612488565b6104d8565b60405161014a91906124d3565b61017b608e81565b60405160ff909116815260200161014a565b6101a061019b36600461250a565b6104ed565b60405190815260200161014a565b6101c16101bc366004612532565b610550565b60408051921515835290151560208301520161014a565b6101a06101e6366004612580565b610571565b6101fe6101f93660046125b2565b6105a7565b60405161014a9190612627565b6101a0610219366004612654565b61065f565b61013e61022c3660046125b2565b6106ae565b61024461023f366004612685565b610779565b60405163ffffffff909116815260200161014a565b610244610267366004612685565b61079f565b61027f61027a3660046126b5565b6107c5565b005b6102a87f000000000000000000000000000000000000000000000000000000000000000081565b6040516001600160a01b03909116815260200161014a565b6101666102ce366004612580565b6109ab565b6102a86102e1366004612685565b610a2b565b61017b607581565b6101a06102fc36600461276e565b610a54565b61013e61030f366004612580565b610a6b565b61013e6103223660046127da565b610aa1565b61033a610335366004612580565b610b34565b60405161014a9190612892565b5f5f6103538585610bf9565b90505f61035f86610d96565b5f8181526004602081815260408084208a5163ffffffff1685528252808420815160808101835281548152600182015481850152825180840184526002830154815260038301548186015281840152938101805483518186028101860190945280845296975094959394909360608601938301828280156103fd57602002820191905f5260205f20905b8154815260200190600101908083116103e9575b50505050508152505090505f8160600151905085518451146104325760405163512509d360e11b815260040160405180910390fd5b5f5b84518110156104c7575f612710888381518110610453576104536128a4565b602002602001015161ffff16848481518110610471576104716128a4565b602002602001015161048391906128cc565b61048d91906128f7565b9050808683815181106104a2576104a26128a4565b602002602001015110156104be575f96505050505050506104d1565b50600101610434565b5060019450505050505b9392505050565b60606104e48383610bf9565b90505b92915050565b604080517fd9f77a423768f4b0526fa60a7c732334516a93f1d228dce50ad804ea74ced36e602082015263ffffffff841691810191909152606081018290525f906080015b60405160208183030381529060405280519060200120905092915050565b5f5f61056486848787600162061a80610df9565b9150915094509492505050565b5f5f61057c84610d96565b5f90815260046020908152604080832063ffffffff8716845290915290206001015491505092915050565b6105af611d46565b5f6105b985610d96565b5f81815260056020908152604080832063ffffffff89168452825280832087845282529182902082516080810184528154818501908152600183015460608301528152600282018054855181860281018601909652808652959650909491938584019390929083018282801561064c57602002820191905f5260205f20905b815481526020019060010190808311610638575b5050505050815250509150509392505050565b5f6075826040516020016106739190612627565b60408051601f1981840301815290829052610691929160200161290a565b604051602081830303815290604052805190602001209050919050565b5f5f6106b985610d96565b5f81815260056020908152604080832063ffffffff8916845282528083208784528252808320815160808101835281548184019081526001830154606083015281526002820180548451818702810187019095528085529697509495909491938581019392919083018282801561074d57602002820191905f5260205f20905b815481526020019060010190808311610739575b505050919092525050815151919250501580159061076f575080516020015115155b9695505050505050565b5f5f61078483610d96565b5f9081526003602052604090205463ffffffff169392505050565b5f5f6107aa83610d96565b5f9081526002602052604090205463ffffffff169392505050565b336001600160a01b037f0000000000000000000000000000000000000000000000000000000000000000161461080e5760405163030c1b6b60e11b815260040160405180910390fd5b5f61082661082136879003870187612685565b610d96565b5f8181526003602052604090205490915063ffffffff9081169085161161086057604051632f20889f60e01b815260040160405180910390fd5b5f81815260046020818152604080842063ffffffff891685528252928390208651815581870151600182015592860151805160028501558101516003840155606086015180518794936108b893908501920190611d70565b5050505f818152600360209081526040909120805463ffffffff191663ffffffff87161790556108ea90830183612933565b5f8281526001602090815260409182902080546001600160a01b0319166001600160a01b0394909416939093179092556109299190840190840161294c565b5f828152600260209081526040808320805463ffffffff191663ffffffff958616179055600682528083209388168352929052819020805460ff19166001179055517f93e6bea1c9b5dce4a5c07b00261e956df2a4a253d9ab6ca070ca2037d72ada9e9061099c90879087908790612965565b60405180910390a15050505050565b60605f6109b784610d96565b5f81815260046020818152604080842063ffffffff891685528252928390209091018054835181840281018401909452808452939450919290830182828015610a1d57602002820191905f5260205f20905b815481526020019060010190808311610a09575b505050505091505092915050565b5f5f610a3683610d96565b5f908152600160205260409020546001600160a01b03169392505050565b5f608e8383604051602001610532939291906129b1565b5f5f610a7684610d96565b5f90815260066020908152604080832063ffffffff8716845290915290205460ff1691505092915050565b5f5f610aad8585610bf9565b90508251815114610ad15760405163512509d360e11b815260040160405180910390fd5b5f5b8151811015610b2857838181518110610aee57610aee6128a4565b6020026020010151828281518110610b0857610b086128a4565b60200260200101511015610b20575f925050506104d1565b600101610ad3565b50600195945050505050565b610b3c611db9565b5f610b4684610d96565b5f81815260046020818152604080842063ffffffff8916855282529283902083516080810185528154815260018201548184015284518086018652600283015481526003830154818501528186015292810180548551818502810185019096528086529596509294909360608601939092909190830182828015610be757602002820191905f5260205f20905b815481526020019060010190808311610bd3575b50505050508152505091505092915050565b6060610c03611deb565b610c0c84610d96565b8082528351610c1b9190610ec1565b80515f908152600460208181526040808420875163ffffffff1685528252928390208351608081018552815481526001820154818401528451808601865260028301548152600383015481850152818601529281018054855181850281018501909652808652939491936060860193830182828015610cb757602002820191905f5260205f20905b815481526020019060010190808311610ca3575b505050919092525050506020820181905260600151516001600160401b03811115610ce457610ce4611f19565b604051908082528060200260200182016040528015610d0d578160200160208202803683370190505b5060408201525f5b81602001516060015151811015610d71578160200151606001518181518110610d4057610d406128a4565b602002602001015182604001518281518110610d5e57610d5e6128a4565b6020908102919091010152600101610d15565b50610d7c8184610ffb565b6060820152610d8b8184611158565b604001519392505050565b5f815f0151826020015163ffffffff16604051602001610de192919060609290921b6bffffffffffffffffffffffff1916825260a01b6001600160a01b031916601482015260200190565b6040516020818303038152906040526104e7906129d8565b5f5f5f610e05896111d7565b90505f610e148a89898c611261565b90505f610e2b610e248a84611315565b8b9061137d565b90505f610e6d610e6684610e606040805180820182525f80825260209182015281518083019092526001825260029082015290565b90611315565b859061137d565b90508715610e9257610e8982610e816113f1565b838c8b6114b1565b96509450610eb2565b610ea582610e9e6113f1565b838c6116c5565b95508515610eb257600194505b50505050965096945050505050565b5f8281526002602052604090205463ffffffff16801580610ef15750610ee781836129fb565b63ffffffff164211155b610f0e5760405163640fcd6b60e11b815260040160405180910390fd5b5f83815260066020908152604080832063ffffffff8616845290915290205460ff16610f4d57604051630cad17b760e31b815260040160405180910390fd5b60405163193877e160e21b815263ffffffff831660048201527f00000000000000000000000000000000000000000000000000000000000000006001600160a01b0316906364e1df8490602401602060405180830381865afa158015610fb5573d5f5f3e3d5ffd5b505050506040513d601f19601f82011682018060405250810190610fd99190612a17565b610ff657604051631b14174b60e01b815260040160405180910390fd5b505050565b6040805180820182525f80825260209182018190528251808401909352808352908201819052805b836080015151811015611150575f84608001518281518110611047576110476128a4565b602002602001015190505f82111561108357805163ffffffff80851691161161108357604051631d8c4d1760e31b815260040160405180910390fd5b6020808701510151815163ffffffff16106110b1576040516301fa53c760e11b815260040160405180910390fd5b855185515f916110c191846118fc565b80519091506110d190869061137d565b94505f5b8160200151518110156111435787604001515181101561113b5781602001518181518110611105576111056128a4565b602002602001015188604001518281518110611123576111236128a4565b602002602001018181516111379190612a36565b9052505b6001016110d5565b5050519150600101611023565b505092915050565b5f6111786111698460600151611a73565b6020850151604001519061137d565b90505f61118c835f015184602001516104ed565b90505f5f6111a4838587606001518860400151610550565b915091508180156111b25750805b6111cf5760405163439cc0cd60e01b815260040160405180910390fd5b505050505050565b604080518082019091525f80825260208201525f80806112045f516020612a705f395f51905f5286612a49565b90505b61121081611b09565b90935091505f516020612a705f395f51905f528283098303611248576040805180820190915290815260208101919091529392505050565b5f516020612a705f395f51905f52600182089050611207565b8251602080850151845180519083015186840151805190850151875188870151604080519889018e90528801989098526060870195909552608086019390935260a085019190915260c084015260e08301526101008201526101208101919091525f907f30644e72e131a029b85045b68181585d2833e84879b9709143e1f593f00000019061014001604051602081830303815290604052805190602001205f1c61130c9190612a49565b95945050505050565b604080518082019091525f8082526020820152611330611e30565b835181526020808501519082015260408082018490525f908360608460076107d05a03fa9050808061135e57fe5b508061115057604051632319df1960e11b815260040160405180910390fd5b604080518082019091525f8082526020820152611398611e4e565b835181526020808501518183015283516040808401919091529084015160608301525f908360808460066107d05a03fa905080806113d257fe5b50806111505760405163d4b68fd760e01b815260040160405180910390fd5b6113f9611e6c565b50604080516080810182527f198e9393920d483a7260bfb731fb5d25f1aa493335a9e71297e485b7aef312c28183019081527f1800deef121f1e76426a00665e5c4479674322d4f75edadd46debd5cd992f6ed6060830152815281518083019092527f275dc4a288d1afb3cbb1ac09187524c7db36395df7be3b99e673b13a075a65ec82527f1d9befcd05a5323e6da4d435f3b617cdb3af83285c2df711ef39c01571827f9d60208381019190915281019190915290565b6040805180820182528681526020808201869052825180840190935286835282018490525f918291906114e2611e8c565b5f5b6002811015611699575f6114f98260066128cc565b905084826002811061150d5761150d6128a4565b6020020151518361151e835f612a5c565b600c811061152e5761152e6128a4565b6020020152848260028110611545576115456128a4565b6020020151602001518382600161155c9190612a5c565b600c811061156c5761156c6128a4565b6020020152838260028110611583576115836128a4565b6020020151515183611596836002612a5c565b600c81106115a6576115a66128a4565b60200201528382600281106115bd576115bd6128a4565b60200201515160016020020151836115d6836003612a5c565b600c81106115e6576115e66128a4565b60200201528382600281106115fd576115fd6128a4565b6020020151602001515f60028110611617576116176128a4565b602002015183611628836004612a5c565b600c8110611638576116386128a4565b602002015283826002811061164f5761164f6128a4565b60200201516020015160016002811061166a5761166a6128a4565b60200201518361167b836005612a5c565b600c811061168b5761168b6128a4565b6020020152506001016114e4565b506116a2611eab565b5f6020826101808560088cfa9151919c9115159b50909950505050505050505050565b6040805180820182528581526020808201859052825180840190935285835282018390525f916116f3611e8c565b5f5b60028110156118aa575f61170a8260066128cc565b905084826002811061171e5761171e6128a4565b6020020151518361172f835f612a5c565b600c811061173f5761173f6128a4565b6020020152848260028110611756576117566128a4565b6020020151602001518382600161176d9190612a5c565b600c811061177d5761177d6128a4565b6020020152838260028110611794576117946128a4565b60200201515151836117a7836002612a5c565b600c81106117b7576117b76128a4565b60200201528382600281106117ce576117ce6128a4565b60200201515160016020020151836117e7836003612a5c565b600c81106117f7576117f76128a4565b602002015283826002811061180e5761180e6128a4565b6020020151602001515f60028110611828576118286128a4565b602002015183611839836004612a5c565b600c8110611849576118496128a4565b6020020152838260028110611860576118606128a4565b60200201516020015160016002811061187b5761187b6128a4565b60200201518361188c836005612a5c565b600c811061189c5761189c6128a4565b6020020152506001016116f5565b506118b3611eab565b5f6020826101808560086107d05a03fa905080806118cd57fe5b50806118ec576040516324ccc79360e21b815260040160405180910390fd5b5051151598975050505050505050565b611904611d46565b5f84815260056020908152604080832063ffffffff808816855290835281842086519091168452825280832081516080810183528154818401908152600183015460608301528152600282018054845181870281018701909552808552919492938584019390929083018282801561199957602002820191905f5260205f20905b815481526020019060010190808311611985575b5050509190925250508151519192505f9115159050806119bd575081516020015115155b905080611a66575f6119dd8787875f015188604001518960200151611b85565b9050806119fd5760405163439cc0cd60e01b815260040160405180910390fd5b6040808601515f8981526005602090815283822063ffffffff808c1684529082528483208a5190911683528152929020815180518255830151600182015582820151805192939192611a559260028501920190611d70565b509050508460400151935050611a6a565b8192505b50509392505050565b604080518082019091525f80825260208201528151158015611a9757506020820151155b15611ab4575050604080518082019091525f808252602082015290565b6040518060400160405280835f015181526020015f516020612a705f395f51905f528460200151611ae59190612a49565b611afc905f516020612a705f395f51905f52612a36565b905292915050565b919050565b5f80805f516020612a705f395f51905f5260035f516020612a705f395f51905f52865f516020612a705f395f51905f52888909090890505f611b79827f0c19139cb84c680a6e14116da060561765e05aa45a1c72a34f082305b61f3f525f516020612a705f395f51905f52611bd3565b91959194509092505050565b5f5f611b908461065f565b5f88815260046020908152604080832063ffffffff808c168552925290912054919250611bc7908590839085908a811690611c4c16565b98975050505050505050565b5f5f611bdd611eab565b611be5611ec9565b602080825281810181905260408201819052606082018890526080820187905260a082018690528260c08360056107d05a03fa92508280611c2257fe5b5082611c415760405163d51edae360e01b815260040160405180910390fd5b505195945050505050565b5f83611c6b576040516329e7276760e11b815260040160405180910390fd5b83611c77868585611c81565b1495945050505050565b5f83515f03611c915750816104d1565b60208451611c9f9190612a49565b15611cbd576040516313717da960e21b815260040160405180910390fd5b8260205b85518111611d1e57611cd4600285612a49565b5f03611cf557815f528086015160205260405f209150600284049350611d0c565b808601515f528160205260405f2091506002840493505b611d17602082612a5c565b9050611cc1565b508215611d3e576040516363df817160e01b815260040160405180910390fd5b949350505050565b604080516080810182525f91810182815260608201929092529081905b8152602001606081525090565b828054828255905f5260205f20908101928215611da9579160200282015b82811115611da9578251825591602001919060010190611d8e565b50611db5929150611ee7565b5090565b60405180608001604052805f81526020015f8152602001611d6360405180604001604052805f81526020015f81525090565b60405180608001604052805f8152602001611e04611db9565b815260200160608152602001611e2b60405180604001604052805f81526020015f81525090565b905290565b60405180606001604052806003906020820280368337509192915050565b60405180608001604052806004906020820280368337509192915050565b6040518060400160405280611e7f611efb565b8152602001611e2b611efb565b604051806101800160405280600c906020820280368337509192915050565b60405180602001604052806001906020820280368337509192915050565b6040518060c001604052806006906020820280368337509192915050565b5b80821115611db5575f8155600101611ee8565b60405180604001604052806002906020820280368337509192915050565b634e487b7160e01b5f52604160045260245ffd5b604080519081016001600160401b0381118282101715611f4f57611f4f611f19565b60405290565b60405160a081016001600160401b0381118282101715611f4f57611f4f611f19565b604051606081016001600160401b0381118282101715611f4f57611f4f611f19565b604051608081016001600160401b0381118282101715611f4f57611f4f611f19565b604051601f8201601f191681016001600160401b0381118282101715611fe357611fe3611f19565b604052919050565b80356001600160a01b0381168114611b04575f5ffd5b803563ffffffff81168114611b04575f5ffd5b5f60408284031215612024575f5ffd5b61202c611f2d565b905061203782611feb565b815261204560208301612001565b602082015292915050565b5f60408284031215612060575f5ffd5b612068611f2d565b823581526020928301359281019290925250919050565b5f82601f83011261208e575f5ffd5b612096611f2d565b8060408401858111156120a7575f5ffd5b845b818110156120c15780358452602093840193016120a9565b509095945050505050565b5f608082840312156120dc575f5ffd5b6120e4611f2d565b90506120f0838361207f565b8152612045836040840161207f565b5f6001600160401b0382111561211757612117611f19565b5060051b60200190565b5f82601f830112612130575f5ffd5b813561214361213e826120ff565b611fbb565b8082825260208201915060208360051b860101925085831115612164575f5ffd5b602085015b83811015612181578035835260209283019201612169565b5095945050505050565b5f6060828403121561219b575f5ffd5b6121a3611f2d565b90506121af8383612050565b815260408201356001600160401b038111156121c9575f5ffd5b6121d584828501612121565b60208301525092915050565b5f61012082840312156121f2575f5ffd5b6121fa611f55565b905061220582612001565b81526020828101359082015261221e8360408401612050565b604082015261223083608084016120cc565b60608201526101008201356001600160401b0381111561224e575f5ffd5b8201601f8101841361225e575f5ffd5b803561226c61213e826120ff565b8082825260208201915060208360051b85010192508683111561228d575f5ffd5b602084015b8381101561239d5780356001600160401b038111156122af575f5ffd5b85016060818a03601f190112156122c4575f5ffd5b6122cc611f77565b6122d860208301612001565b815260408201356001600160401b038111156122f2575f5ffd5b82016020810190603f018b13612306575f5ffd5b80356001600160401b0381111561231f5761231f611f19565b612332601f8201601f1916602001611fbb565b8181528c6020838501011115612346575f5ffd5b816020840160208301375f6020838301015280602085015250505060608201356001600160401b03811115612379575f5ffd5b6123888b60208386010161218b565b60408301525084525060209283019201612292565b5060808501525091949350505050565b5f5f5f608084860312156123bf575f5ffd5b6123c98585612014565b925060408401356001600160401b038111156123e3575f5ffd5b6123ef868287016121e1565b92505060608401356001600160401b0381111561240a575f5ffd5b8401601f8101861361241a575f5ffd5b803561242861213e826120ff565b8082825260208201915060208360051b850101925088831115612449575f5ffd5b6020840193505b8284101561247a57833561ffff81168114612469575f5ffd5b825260209384019390910190612450565b809450505050509250925092565b5f5f60608385031215612499575f5ffd5b6124a38484612014565b915060408301356001600160401b038111156124bd575f5ffd5b6124c9858286016121e1565b9150509250929050565b602080825282518282018190525f918401906040840190835b818110156120c15783518352602093840193909201916001016124ec565b5f5f6040838503121561251b575f5ffd5b61252483612001565b946020939093013593505050565b5f5f5f5f6101208587031215612546575f5ffd5b843593506125578660208701612050565b925061256686606087016120cc565b91506125758660e08701612050565b905092959194509250565b5f5f60608385031215612591575f5ffd5b61259b8484612014565b91506125a960408401612001565b90509250929050565b5f5f5f608084860312156125c4575f5ffd5b6125ce8585612014565b92506125dc60408501612001565b929592945050506060919091013590565b5f8151808452602084019350602083015f5b8281101561261d5781518652602095860195909101906001016125ff565b5093949350505050565b60208082528251805183830152015160408201525f6020830151606080840152611d3e60808401826125ed565b5f60208284031215612664575f5ffd5b81356001600160401b03811115612679575f5ffd5b611d3e8482850161218b565b5f60408284031215612695575f5ffd5b6104e48383612014565b5f604082840312156126af575f5ffd5b50919050565b5f5f5f5f60c085870312156126c8575f5ffd5b6126d2868661269f565b93506126e060408601612001565b925060608501356001600160401b038111156126fa575f5ffd5b850160a0818803121561270b575f5ffd5b612713611f99565b813581526020808301359082015261272e8860408401612050565b604082015260808201356001600160401b0381111561274b575f5ffd5b61275789828501612121565b60608301525092506125759050866080870161269f565b5f5f6020838503121561277f575f5ffd5b82356001600160401b03811115612794575f5ffd5b8301601f810185136127a4575f5ffd5b80356001600160401b038111156127b9575f5ffd5b8560208284010111156127ca575f5ffd5b6020919091019590945092505050565b5f5f5f608084860312156127ec575f5ffd5b6127f68585612014565b925060408401356001600160401b03811115612810575f5ffd5b61281c868287016121e1565b92505060608401356001600160401b03811115612837575f5ffd5b61284386828701612121565b9150509250925092565b80518252602081015160208301525f6040820151612878604085018280518252602090810151910152565b50606082015160a06080850152611d3e60a08501826125ed565b602081525f6104e4602083018461284d565b634e487b7160e01b5f52603260045260245ffd5b634e487b7160e01b5f52601160045260245ffd5b80820281158282048414176104e7576104e76128b8565b634e487b7160e01b5f52601260045260245ffd5b5f82612905576129056128e3565b500490565b60ff60f81b8360f81b1681525f82518060208501600185015e5f92016001019182525092915050565b5f60208284031215612943575f5ffd5b6104e482611feb565b5f6020828403121561295c575f5ffd5b6104e482612001565b6001600160a01b0361297685611feb565b16815263ffffffff61298a60208601612001565b16602082015263ffffffff83166040820152608060608201525f61130c608083018461284d565b60f884901b6001600160f81b0319168152818360018301375f910160010190815292915050565b805160208083015191908110156126af575f1960209190910360031b1b16919050565b63ffffffff81811683821601908111156104e7576104e76128b8565b5f60208284031215612a27575f5ffd5b815180151581146104d1575f5ffd5b818103818111156104e7576104e76128b8565b5f82612a5757612a576128e3565b500690565b808201808211156104e7576104e76128b856fe30644e72e131a029b85045b68181585d97816a916871ca8d3c208c16d87cfd47a264697066735822122056ea9f2b48634a572f886e8d58b2767c37a4d771c8a5d8656cc16493d5443d1b64736f6c634300081e0033",
    "linkReferences": {}
  },
  "methodIdentifiers": {
    "OPERATOR_INFO_LEAF_SALT()": "a2c902f5",
    "OPERATOR_TABLE_LEAF_SALT()": "121409ea",
    "calculateCertificateDigest(uint32,bytes32)": "18467434",
    "calculateOperatorInfoLeaf(((uint256,uint256),uint256[]))": "538a3790",
    "calculateOperatorTableLeaf(bytes)": "a2f2e24d",
    "getNonsignerOperatorInfo((address,uint32),uint32,uint256)": "26af6a3c",
    "getOperatorCount((address,uint32),uint32)": "23c2a3cb",
    "getOperatorSetInfo((address,uint32),uint32)": "eb39e68f",
    "getOperatorSetOwner((address,uint32))": "84818920",
    "getTotalStakeWeights((address,uint32),uint32)": "7d1d1f5b",
    "isNonsignerCached((address,uint32),uint32,uint256)": "5be87274",
    "isReferenceTimestampSet((address,uint32),uint32)": "cd83a72b",
    "latestReferenceTimestamp((address,uint32))": "5ddb9b5b",
    "maxOperatorTableStaleness((address,uint32))": "6141879e",
    "operatorTableUpdater()": "68d6e081",
    "trySignatureVerification(bytes32,(uint256,uint256),(uint256[2],uint256[2]),(uint256,uint256))": "1a18746c",
    "updateOperatorTable((address,uint32),uint32,(bytes32,uint256,(uint256,uint256),uint256[]),(address,uint32))": "6738c40b",
    "verifyCertificate((address,uint32),(uint32,bytes32,(uint256,uint256),(uint256[2],uint256[2]),(uint32,bytes,((uint256,uint256),uint256[]))[]))": "080b7150",
    "verifyCertificateNominal((address,uint32),(uint32,bytes32,(uint256,uint256),(uint256[2],uint256[2]),(uint32,bytes,((uint256,uint256),uint256[]))[]),uint256[])": "dd2ae1b9",
    "verifyCertificateProportion((address,uint32),(uint32,bytes32,(uint256,uint256),(uint256[2],uint256[2]),(uint32,bytes,((uint256,uint256),uint256[]))[]),uint16[])": "017d7974"
  },
  "id": 199
}