{
  "abi": [
    {
      "type": "constructor",
      "inputs": [],
      "stateMutability": "nonpayable"
    },
    {
      "type": "function",
      "name": "acceptAdmin",
      "inputs": [
        {
          "name": "account",
          "type": "address",
          "internalType": "address"
        }
      ],
      "outputs": [],
      "stateMutability": "nonpayable"
    },
    {
      "type": "function",
      "name": "addPendingAdmin",
      "inputs": [
        {
          "name": "account",
          "type": "address",
          "internalType": "address"
        },
        {
          "name": "admin",
          "type": "address",
          "internalType": "address"
        }
      ],
      "outputs": [],
      "stateMutability": "nonpayable"
    },
    {
      "type": "function",
      "name": "canCall",
      "inputs": [
        {
          "name": "account",
          "type": "address",
          "internalType": "address"
        },
        {
          "name": "caller",
          "type": "address",
          "internalType": "address"
        },
        {
          "name": "target",
          "type": "address",
          "internalType": "address"
        },
        {
          "name": "selector",
          "type": "bytes4",
          "internalType": "bytes4"
        }
      ],
      "outputs": [
        {
          "name": "",
          "type": "bool",
          "internalType": "bool"
        }
      ],
      "stateMutability": "view"
    },
    {
      "type": "function",
      "name": "getAdmins",
      "inputs": [
        {
          "name": "account",
          "type": "address",
          "internalType": "address"
        }
      ],
      "outputs": [
        {
          "name": "",
          "type": "address[]",
          "internalType": "address[]"
        }
      ],
      "stateMutability": "view"
    },
    {
      "type": "function",
      "name": "getAppointeePermissions",
      "inputs": [
        {
          "name": "account",
          "type": "address",
          "internalType": "address"
        },
        {
          "name": "appointee",
          "type": "address",
          "internalType": "address"
        }
      ],
      "outputs": [
        {
          "name": "",
          "type": "address[]",
          "internalType": "address[]"
        },
        {
          "name": "",
          "type": "bytes4[]",
          "internalType": "bytes4[]"
        }
      ],
      "stateMutability": "view"
    },
    {
      "type": "function",
      "name": "getAppointees",
      "inputs": [
        {
          "name": "account",
          "type": "address",
          "internalType": "address"
        },
        {
          "name": "target",
          "type": "address",
          "internalType": "address"
        },
        {
          "name": "selector",
          "type": "bytes4",
          "internalType": "bytes4"
        }
      ],
      "outputs": [
        {
          "name": "",
          "type": "address[]",
          "internalType": "address[]"
        }
      ],
      "stateMutability": "view"
    },
    {
      "type": "function",
      "name": "getPendingAdmins",
      "inputs": [
        {
          "name": "account",
          "type": "address",
          "internalType": "address"
        }
      ],
      "outputs": [
        {
          "name": "",
          "type": "address[]",
          "internalType": "address[]"
        }
      ],
      "stateMutability": "view"
    },
    {
      "type": "function",
      "name": "isAdmin",
      "inputs": [
        {
          "name": "account",
          "type": "address",
          "internalType": "address"
        },
        {
          "name": "caller",
          "type": "address",
          "internalType": "address"
        }
      ],
      "outputs": [
        {
          "name": "",
          "type": "bool",
          "internalType": "bool"
        }
      ],
      "stateMutability": "view"
    },
    {
      "type": "function",
      "name": "isPendingAdmin",
      "inputs": [
        {
          "name": "account",
          "type": "address",
          "internalType": "address"
        },
        {
          "name": "pendingAdmin",
          "type": "address",
          "internalType": "address"
        }
      ],
      "outputs": [
        {
          "name": "",
          "type": "bool",
          "internalType": "bool"
        }
      ],
      "stateMutability": "view"
    },
    {
      "type": "function",
      "name": "removeAdmin",
      "inputs": [
        {
          "name": "account",
          "type": "address",
          "internalType": "address"
        },
        {
          "name": "admin",
          "type": "address",
          "internalType": "address"
        }
      ],
      "outputs": [],
      "stateMutability": "nonpayable"
    },
    {
      "type": "function",
      "name": "removeAppointee",
      "inputs": [
        {
          "name": "account",
          "type": "address",
          "internalType": "address"
        },
        {
          "name": "appointee",
          "type": "address",
          "internalType": "address"
        },
        {
          "name": "target",
          "type": "address",
          "internalType": "address"
        },
        {
          "name": "selector",
          "type": "bytes4",
          "internalType": "bytes4"
        }
      ],
      "outputs": [],
      "stateMutability": "nonpayable"
    },
    {
      "type": "function",
      "name": "removePendingAdmin",
      "inputs": [
        {
          "name": "account",
          "type": "address",
          "internalType": "address"
        },
        {
          "name": "admin",
          "type": "address",
          "internalType": "address"
        }
      ],
      "outputs": [],
      "stateMutability": "nonpayable"
    },
    {
      "type": "function",
      "name": "setAppointee",
      "inputs": [
        {
          "name": "account",
          "type": "address",
          "internalType": "address"
        },
        {
          "name": "appointee",
          "type": "address",
          "internalType": "address"
        },
        {
          "name": "target",
          "type": "address",
          "internalType": "address"
        },
        {
          "name": "selector",
          "type": "bytes4",
          "internalType": "bytes4"
        }
      ],
      "outputs": [],
      "stateMutability": "nonpayable"
    },
    {
      "type": "event",
      "name": "AdminRemoved",
      "inputs": [
        {
          "name": "account",
          "type": "address",
          "indexed": true,
          "internalType": "address"
        },
        {
          "name": "admin",
          "type": "address",
          "indexed": false,
          "internalType": "address"
        }
      ],
      "anonymous": false
    },
    {
      "type": "event",
      "name": "AdminSet",
      "inputs": [
        {
          "name": "account",
          "type": "address",
          "indexed": true,
          "internalType": "address"
        },
        {
          "name": "admin",
          "type": "address",
          "indexed": false,
          "internalType": "address"
        }
      ],
      "anonymous": false
    },
    {
      "type": "event",
      "name": "AppointeeRemoved",
      "inputs": [
        {
          "name": "account",
          "type": "address",
          "indexed": true,
          "internalType": "address"
        },
        {
          "name": "appointee",
          "type": "address",
          "indexed": true,
          "internalType": "address"
        },
        {
          "name": "target",
          "type": "address",
          "indexed": false,
          "internalType": "address"
        },
        {
          "name": "selector",
          "type": "bytes4",
          "indexed": false,
          "internalType": "bytes4"
        }
      ],
      "anonymous": false
    },
    {
      "type": "event",
      "name": "AppointeeSet",
      "inputs": [
        {
          "name": "account",
          "type": "address",
          "indexed": true,
          "internalType": "address"
        },
        {
          "name": "appointee",
          "type": "address",
          "indexed": true,
          "internalType": "address"
        },
        {
          "name": "target",
          "type": "address",
          "indexed": false,
          "internalType": "address"
        },
        {
          "name": "selector",
          "type": "bytes4",
          "indexed": false,
          "internalType": "bytes4"
        }
      ],
      "anonymous": false
    },
    {
      "type": "event",
      "name": "Initialized",
      "inputs": [
        {
          "name": "version",
          "type": "uint8",
          "indexed": false,
          "internalType": "uint8"
        }
      ],
      "anonymous": false
    },
    {
      "type": "event",
      "name": "PendingAdminAdded",
      "inputs": [
        {
          "name": "account",
          "type": "address",
          "indexed": true,
          "internalType": "address"
        },
        {
          "name": "admin",
          "type": "address",
          "indexed": false,
          "internalType": "address"
        }
      ],
      "anonymous": false
    },
    {
      "type": "event",
      "name": "PendingAdminRemoved",
      "inputs": [
        {
          "name": "account",
          "type": "address",
          "indexed": true,
          "internalType": "address"
        },
        {
          "name": "admin",
          "type": "address",
          "indexed": false,
          "internalType": "address"
        }
      ],
      "anonymous": false
    },
    {
      "type": "error",
      "name": "AdminAlreadyPending",
      "inputs": []
    },
    {
      "type": "error",
      "name": "AdminAlreadySet",
      "inputs": []
    },
    {
      "type": "error",
      "name": "AdminNotPending",
      "inputs": []
    },
    {
      "type": "error",
      "name": "AdminNotSet",
      "inputs": []
    },
    {
      "type": "error",
      "name": "AppointeeAlreadySet",
      "inputs": []
    },
    {
      "type": "error",
      "name": "AppointeeNotSet",
      "inputs": []
    },
    {
      "type": "error",
      "name": "CannotHaveZeroAdmins",
      "inputs": []
    },
    {
      "type": "error",
      "name": "NotAdmin",
      "inputs": []
    }
  ],
  "bytecode": {
    "object": "0x6080604052348015600e575f5ffd5b5060156019565b60d3565b5f54610100900460ff161560835760405162461bcd60e51b815260206004820152602760248201527f496e697469616c697a61626c653a20636f6e747261637420697320696e697469604482015266616c697a696e6760c81b606482015260840160405180910390fd5b5f5460ff9081161460d1575f805460ff191660ff9081179091556040519081527f7f26b83ff96e1f2b6a682f133852f6798a09c465da95921460cefb38474024989060200160405180910390a15b565b610f40806100e05f395ff3fe608060405234801561000f575f5ffd5b50600436106100cb575f3560e01c80639100674511610088578063ad8aca7711610063578063ad8aca77146101b0578063df595cb8146101c3578063eb5a4e87146101d6578063fddbdefd146101e9575f5ffd5b80639100674514610167578063950d806e1461018a578063ad5f22101461019d575f5ffd5b806306641201146100cf578063268959e5146100e45780634f906cf9146100f7578063628806ef1461010a5780636bddfa1f1461011d578063882a3b3814610146575b5f5ffd5b6100e26100dd366004610cfa565b6101fc565b005b6100e26100f2366004610d4b565b61031d565b6100e2610105366004610d4b565b6103f8565b6100e2610118366004610d7c565b61049b565b61013061012b366004610d7c565b610529565b60405161013d9190610dd8565b60405180910390f35b610159610154366004610d4b565b610552565b60405161013d929190610dea565b61017a610175366004610d4b565b6106b3565b604051901515815260200161013d565b6100e2610198366004610cfa565b610723565b6101306101ab366004610d7c565b610834565b61017a6101be366004610d4b565b6108da565b61017a6101d1366004610cfa565b6108fb565b6100e26101e4366004610d4b565b610950565b6101306101f7366004610e4c565b610a1e565b8361020781336106b3565b61022457604051637bfa4b9f60e01b815260040160405180910390fd5b6001600160a01b0385165f908152600160205260408120906102468585610a5c565b6001600160a01b0387165f908152600484016020526040902090915061026c9082610a89565b6102895760405163262118cd60e01b815260040160405180910390fd5b6001600160a01b0386165f90815260048301602052604090206102ac9082610aa0565b505f81815260058301602052604090206102c69087610aab565b50856001600160a01b0316876001600160a01b03167f18242326b6b862126970679759169f01f646bd55ec5bfcab85ba9f337a74e0c6878760405161030c929190610e8c565b60405180910390a350505050505050565b8161032881336106b3565b61034557604051637bfa4b9f60e01b815260040160405180910390fd5b6001600160a01b0383165f9081526001602081905260409091206002019061036c82610abf565b1161038a576040516310ce892b60e31b815260040160405180910390fd5b6103948184610aab565b6103b157604051630716d81b60e51b815260040160405180910390fd5b6040516001600160a01b0384811682528516907fdb9d5d31320daf5bc7181d565b6da4d12e30f0f4d5aa324a992426c14a1d19ce906020015b60405180910390a250505050565b8161040381336106b3565b61042057604051637bfa4b9f60e01b815260040160405180910390fd5b6001600160a01b0383165f9081526001602052604090206104418184610aab565b61045e5760405163bed8295f60e01b815260040160405180910390fd5b6040516001600160a01b0384811682528516907fd706ed7ae044d795b49e54c9f519f663053951011985f663a862cd9ee72a9ac7906020016103ea565b6001600160a01b0381165f9081526001602052604090206104bc8133610aab565b6104d95760405163bed8295f60e01b815260040160405180910390fd5b6104e66002820133610ac8565b506040513381526001600160a01b038316907fbf265e8326285a2747e33e54d5945f7111f2b5edb826eb8c08d4677779b3ff979060200160405180910390a25050565b6001600160a01b0381165f90815260016020526040902060609061054c90610adc565b92915050565b6001600160a01b038083165f90815260016020908152604080832093851683526004909301905290812060609182919061058b82610abf565b90505f8167ffffffffffffffff8111156105a7576105a7610eaf565b6040519080825280602002602001820160405280156105d0578160200160208202803683370190505b5090505f8267ffffffffffffffff8111156105ed576105ed610eaf565b604051908082528060200260200182016040528015610616578160200160208202803683370190505b5090505f5b838110156106a5576106496106308683610ae8565b606081901c9160a09190911b6001600160e01b03191690565b84838151811061065b5761065b610ec3565b6020026020010184848151811061067457610674610ec3565b6001600160e01b0319909316602093840291909101909201919091526001600160a01b03909116905260010161061b565b509097909650945050505050565b6001600160a01b0382165f9081526001602052604081206106d690600201610abf565b5f036106f857816001600160a01b0316836001600160a01b031614905061054c565b6001600160a01b0383165f90815260016020526040902061071c9060020183610af3565b9392505050565b8361072e81336106b3565b61074b57604051637bfa4b9f60e01b815260040160405180910390fd5b6001600160a01b0385165f9081526001602052604081209061076d8585610a5c565b6001600160a01b0387165f90815260048401602052604090209091506107939082610a89565b156107b15760405163ad8efeb760e01b815260040160405180910390fd5b6001600160a01b0386165f90815260048301602052604090206107d49082610b14565b505f81815260058301602052604090206107ee9087610ac8565b50856001600160a01b0316876001600160a01b03167f037f03a2ad6b967df4a01779b6d2b4c85950df83925d9e31362b519422fc0169878760405161030c929190610e8c565b6001600160a01b0381165f90815260016020526040902060609061085a90600201610abf565b5f036108b2576040805160018082528183019092525f916020808301908036833701905050905082815f8151811061089457610894610ec3565b6001600160a01b039092166020928302919091019091015292915050565b6001600160a01b0382165f90815260016020526040902061054c90600201610adc565b919050565b6001600160a01b0382165f90815260016020526040812061071c9083610af3565b5f61090685856106b3565b8061094757506109476109198484610a5c565b6001600160a01b038088165f908152600160209081526040808320938a168352600490930190522090610a89565b95945050505050565b8161095b81336106b3565b61097857604051637bfa4b9f60e01b815260040160405180910390fd5b6001600160a01b0383165f90815260016020526040902061099c6002820184610af3565b156109ba5760405163130160e560e31b815260040160405180910390fd5b6109c48184610ac8565b6109e1576040516319abede360e11b815260040160405180910390fd5b6040516001600160a01b0384811682528516907fb14b9a3d448c5b04f0e5b087b6f5193390db7955482a6ffb841e7b3ba61a460c906020016103ea565b60605f610a2b8484610a5c565b6001600160a01b0386165f908152600160209081526040808320848452600501909152902090915061094790610adc565b60609190911b6bffffffffffffffffffffffff191660a09190911c6bffffffff0000000000000000161790565b5f818152600183016020526040812054151561071c565b5f61071c8383610b1f565b5f61071c836001600160a01b038416610b1f565b5f61054c825490565b5f61071c836001600160a01b038416610c02565b60605f61071c83610c4e565b5f61071c8383610ca7565b6001600160a01b0381165f908152600183016020526040812054151561071c565b5f61071c8383610c02565b5f8181526001830160205260408120548015610bf9575f610b41600183610ed7565b85549091505f90610b5490600190610ed7565b9050818114610bb3575f865f018281548110610b7257610b72610ec3565b905f5260205f200154905080875f018481548110610b9257610b92610ec3565b5f918252602080832090910192909255918252600188019052604090208390555b8554869080610bc457610bc4610ef6565b600190038181905f5260205f20015f90559055856001015f8681526020019081526020015f205f90556001935050505061054c565b5f91505061054c565b5f818152600183016020526040812054610c4757508154600181810184555f84815260208082209093018490558454848252828601909352604090209190915561054c565b505f61054c565b6060815f01805480602002602001604051908101604052809291908181526020018280548015610c9b57602002820191905f5260205f20905b815481526020019060010190808311610c87575b50505050509050919050565b5f825f018281548110610cbc57610cbc610ec3565b905f5260205f200154905092915050565b80356001600160a01b03811681146108d5575f5ffd5b80356001600160e01b0319811681146108d5575f5ffd5b5f5f5f5f60808587031215610d0d575f5ffd5b610d1685610ccd565b9350610d2460208601610ccd565b9250610d3260408601610ccd565b9150610d4060608601610ce3565b905092959194509250565b5f5f60408385031215610d5c575f5ffd5b610d6583610ccd565b9150610d7360208401610ccd565b90509250929050565b5f60208284031215610d8c575f5ffd5b61071c82610ccd565b5f8151808452602084019350602083015f5b82811015610dce5781516001600160a01b0316865260209586019590910190600101610da7565b5093949350505050565b602081525f61071c6020830184610d95565b604081525f610dfc6040830185610d95565b82810360208401528084518083526020830191506020860192505f5b81811015610e405783516001600160e01b031916835260209384019390920191600101610e18565b50909695505050505050565b5f5f5f60608486031215610e5e575f5ffd5b610e6784610ccd565b9250610e7560208501610ccd565b9150610e8360408501610ce3565b90509250925092565b6001600160a01b039290921682526001600160e01b031916602082015260400190565b634e487b7160e01b5f52604160045260245ffd5b634e487b7160e01b5f52603260045260245ffd5b8181038181111561054c57634e487b7160e01b5f52601160045260245ffd5b634e487b7160e01b5f52603160045260245ffdfea26469706673582212206e3572db81ec5d7a9054035a23c796cbd433cdb537e79424f8576d0ec7504bab64736f6c634300081e0033",
    "linkReferences": {}
  },
  "methodIdentifiers": {
    "acceptAdmin(address)": "628806ef",
    "addPendingAdmin(address,address)": "eb5a4e87",
    "canCall(address,address,address,bytes4)": "df595cb8",
    "getAdmins(address)": "ad5f2210",
    "getAppointeePermissions(address,address)": "882a3b38",
    "getAppointees(address,address,bytes4)": "fddbdefd",
    "getPendingAdmins(address)": "6bddfa1f",
    "isAdmin(address,address)": "91006745",
    "isPendingAdmin(address,address)": "ad8aca77",
    "removeAdmin(address,address)": "268959e5",
    "removeAppointee(address,address,address,bytes4)": "06641201",
    "removePendingAdmin(address,address)": "4f906cf9",
    "setAppointee(address,address,address,bytes4)": "950d806e"
  },
  "id": 211
}