{
  "abi": [
    {
      "type": "constructor",
      "inputs": [
        {
          "name": "_allocationManagerView",
          "type": "address",
          "internalType": "contract IAllocationManagerView"
        },
        {
          "name": "_delegation",
          "type": "address",
          "internalType": "contract IDelegationManager"
        },
        {
          "name": "_eigenStrategy",
          "type": "address",
          "internalType": "contract IStrategy"
        },
        {
          "name": "_pauserRegistry",
          "type": "address",
          "internalType": "contract IPauserRegistry"
        },
        {
          "name": "_permissionController",
          "type": "address",
          "internalType": "contract IPermissionController"
        },
        {
          "name": "_DEALLOCATION_DELAY",
          "type": "uint32",
          "internalType": "uint32"
        },
        {
          "name": "_ALLOCATION_CONFIGURATION_DELAY",
          "type": "uint32",
          "internalType": "uint32"
        }
      ],
      "stateMutability": "nonpayable"
    },
    {
      "type": "function",
      "name": "ALLOCATION_CONFIGURATION_DELAY",
      "inputs": [],
      "outputs": [
        {
          "name": "",
          "type": "uint32",
          "internalType": "uint32"
        }
      ],
      "stateMutability": "view"
    },
    {
      "type": "function",
      "name": "DEALLOCATION_DELAY",
      "inputs": [],
      "outputs": [
        {
          "name": "",
          "type": "uint32",
          "internalType": "uint32"
        }
      ],
      "stateMutability": "view"
    },
    {
      "type": "function",
      "name": "SLASHER_CONFIGURATION_DELAY",
      "inputs": [],
      "outputs": [
        {
          "name": "",
          "type": "uint32",
          "internalType": "uint32"
        }
      ],
      "stateMutability": "view"
    },
    {
      "type": "function",
      "name": "addStrategiesToOperatorSet",
      "inputs": [
        {
          "name": "avs",
          "type": "address",
          "internalType": "address"
        },
        {
          "name": "operatorSetId",
          "type": "uint32",
          "internalType": "uint32"
        },
        {
          "name": "strategies",
          "type": "address[]",
          "internalType": "contract IStrategy[]"
        }
      ],
      "outputs": [],
      "stateMutability": "nonpayable"
    },
    {
      "type": "function",
      "name": "clearDeallocationQueue",
      "inputs": [
        {
          "name": "operator",
          "type": "address",
          "internalType": "address"
        },
        {
          "name": "strategies",
          "type": "address[]",
          "internalType": "contract IStrategy[]"
        },
        {
          "name": "numToClear",
          "type": "uint16[]",
          "internalType": "uint16[]"
        }
      ],
      "outputs": [],
      "stateMutability": "nonpayable"
    },
    {
      "type": "function",
      "name": "createOperatorSets",
      "inputs": [
        {
          "name": "avs",
          "type": "address",
          "internalType": "address"
        },
        {
          "name": "params",
          "type": "tuple[]",
          "internalType": "struct IAllocationManagerTypes.CreateSetParams[]",
          "components": [
            {
              "name": "operatorSetId",
              "type": "uint32",
              "internalType": "uint32"
            },
            {
              "name": "strategies",
              "type": "address[]",
              "internalType": "contract IStrategy[]"
            }
          ]
        }
      ],
      "outputs": [],
      "stateMutability": "nonpayable"
    },
    {
      "type": "function",
      "name": "createOperatorSets",
      "inputs": [
        {
          "name": "avs",
          "type": "address",
          "internalType": "address"
        },
        {
          "name": "params",
          "type": "tuple[]",
          "internalType": "struct IAllocationManagerTypes.CreateSetParamsV2[]",
          "components": [
            {
              "name": "operatorSetId",
              "type": "uint32",
              "internalType": "uint32"
            },
            {
              "name": "strategies",
              "type": "address[]",
              "internalType": "contract IStrategy[]"
            },
            {
              "name": "slasher",
              "type": "address",
              "internalType": "address"
            }
          ]
        }
      ],
      "outputs": [],
      "stateMutability": "nonpayable"
    },
    {
      "type": "function",
      "name": "createRedistributingOperatorSets",
      "inputs": [
        {
          "name": "avs",
          "type": "address",
          "internalType": "address"
        },
        {
          "name": "params",
          "type": "tuple[]",
          "internalType": "struct IAllocationManagerTypes.CreateSetParams[]",
          "components": [
            {
              "name": "operatorSetId",
              "type": "uint32",
              "internalType": "uint32"
            },
            {
              "name": "strategies",
              "type": "address[]",
              "internalType": "contract IStrategy[]"
            }
          ]
        },
        {
          "name": "redistributionRecipients",
          "type": "address[]",
          "internalType": "address[]"
        }
      ],
      "outputs": [],
      "stateMutability": "nonpayable"
    },
    {
      "type": "function",
      "name": "createRedistributingOperatorSets",
      "inputs": [
        {
          "name": "avs",
          "type": "address",
          "internalType": "address"
        },
        {
          "name": "params",
          "type": "tuple[]",
          "internalType": "struct IAllocationManagerTypes.CreateSetParamsV2[]",
          "components": [
            {
              "name": "operatorSetId",
              "type": "uint32",
              "internalType": "uint32"
            },
            {
              "name": "strategies",
              "type": "address[]",
              "internalType": "contract IStrategy[]"
            },
            {
              "name": "slasher",
              "type": "address",
              "internalType": "address"
            }
          ]
        },
        {
          "name": "redistributionRecipients",
          "type": "address[]",
          "internalType": "address[]"
        }
      ],
      "outputs": [],
      "stateMutability": "nonpayable"
    },
    {
      "type": "function",
      "name": "delegation",
      "inputs": [],
      "outputs": [
        {
          "name": "",
          "type": "address",
          "internalType": "contract IDelegationManager"
        }
      ],
      "stateMutability": "view"
    },
    {
      "type": "function",
      "name": "deregisterFromOperatorSets",
      "inputs": [
        {
          "name": "params",
          "type": "tuple",
          "internalType": "struct IAllocationManagerTypes.DeregisterParams",
          "components": [
            {
              "name": "operator",
              "type": "address",
              "internalType": "address"
            },
            {
              "name": "avs",
              "type": "address",
              "internalType": "address"
            },
            {
              "name": "operatorSetIds",
              "type": "uint32[]",
              "internalType": "uint32[]"
            }
          ]
        }
      ],
      "outputs": [],
      "stateMutability": "nonpayable"
    },
    {
      "type": "function",
      "name": "eigenStrategy",
      "inputs": [],
      "outputs": [
        {
          "name": "",
          "type": "address",
          "internalType": "contract IStrategy"
        }
      ],
      "stateMutability": "view"
    },
    {
      "type": "function",
      "name": "getAVSRegistrar",
      "inputs": [
        {
          "name": "avs",
          "type": "address",
          "internalType": "address"
        }
      ],
      "outputs": [
        {
          "name": "",
          "type": "address",
          "internalType": "contract IAVSRegistrar"
        }
      ],
      "stateMutability": "view"
    },
    {
      "type": "function",
      "name": "getAllocatableMagnitude",
      "inputs": [
        {
          "name": "",
          "type": "address",
          "internalType": "address"
        },
        {
          "name": "",
          "type": "address",
          "internalType": "contract IStrategy"
        }
      ],
      "outputs": [
        {
          "name": "allocatableMagnitude",
          "type": "uint64",
          "internalType": "uint64"
        }
      ],
      "stateMutability": "view"
    },
    {
      "type": "function",
      "name": "getAllocatedSets",
      "inputs": [
        {
          "name": "",
          "type": "address",
          "internalType": "address"
        }
      ],
      "outputs": [
        {
          "name": "operatorSets",
          "type": "tuple[]",
          "internalType": "struct OperatorSet[]",
          "components": [
            {
              "name": "avs",
              "type": "address",
              "internalType": "address"
            },
            {
              "name": "id",
              "type": "uint32",
              "internalType": "uint32"
            }
          ]
        }
      ],
      "stateMutability": "view"
    },
    {
      "type": "function",
      "name": "getAllocatedStake",
      "inputs": [
        {
          "name": "",
          "type": "tuple",
          "internalType": "struct OperatorSet",
          "components": [
            {
              "name": "avs",
              "type": "address",
              "internalType": "address"
            },
            {
              "name": "id",
              "type": "uint32",
              "internalType": "uint32"
            }
          ]
        },
        {
          "name": "",
          "type": "address[]",
          "internalType": "address[]"
        },
        {
          "name": "",
          "type": "address[]",
          "internalType": "contract IStrategy[]"
        }
      ],
      "outputs": [
        {
          "name": "slashableStake",
          "type": "uint256[][]",
          "internalType": "uint256[][]"
        }
      ],
      "stateMutability": "view"
    },
    {
      "type": "function",
      "name": "getAllocatedStrategies",
      "inputs": [
        {
          "name": "",
          "type": "address",
          "internalType": "address"
        },
        {
          "name": "",
          "type": "tuple",
          "internalType": "struct OperatorSet",
          "components": [
            {
              "name": "avs",
              "type": "address",
              "internalType": "address"
            },
            {
              "name": "id",
              "type": "uint32",
              "internalType": "uint32"
            }
          ]
        }
      ],
      "outputs": [
        {
          "name": "strategies",
          "type": "address[]",
          "internalType": "contract IStrategy[]"
        }
      ],
      "stateMutability": "view"
    },
    {
      "type": "function",
      "name": "getAllocation",
      "inputs": [
        {
          "name": "",
          "type": "address",
          "internalType": "address"
        },
        {
          "name": "",
          "type": "tuple",
          "internalType": "struct OperatorSet",
          "components": [
            {
              "name": "avs",
              "type": "address",
              "internalType": "address"
            },
            {
              "name": "id",
              "type": "uint32",
              "internalType": "uint32"
            }
          ]
        },
        {
          "name": "",
          "type": "address",
          "internalType": "contract IStrategy"
        }
      ],
      "outputs": [
        {
          "name": "allocation",
          "type": "tuple",
          "internalType": "struct IAllocationManagerTypes.Allocation",
          "components": [
            {
              "name": "currentMagnitude",
              "type": "uint64",
              "internalType": "uint64"
            },
            {
              "name": "pendingDiff",
              "type": "int128",
              "internalType": "int128"
            },
            {
              "name": "effectBlock",
              "type": "uint32",
              "internalType": "uint32"
            }
          ]
        }
      ],
      "stateMutability": "view"
    },
    {
      "type": "function",
      "name": "getAllocationDelay",
      "inputs": [
        {
          "name": "operator",
          "type": "address",
          "internalType": "address"
        }
      ],
      "outputs": [
        {
          "name": "",
          "type": "bool",
          "internalType": "bool"
        },
        {
          "name": "",
          "type": "uint32",
          "internalType": "uint32"
        }
      ],
      "stateMutability": "view"
    },
    {
      "type": "function",
      "name": "getAllocations",
      "inputs": [
        {
          "name": "",
          "type": "address[]",
          "internalType": "address[]"
        },
        {
          "name": "",
          "type": "tuple",
          "internalType": "struct OperatorSet",
          "components": [
            {
              "name": "avs",
              "type": "address",
              "internalType": "address"
            },
            {
              "name": "id",
              "type": "uint32",
              "internalType": "uint32"
            }
          ]
        },
        {
          "name": "",
          "type": "address",
          "internalType": "contract IStrategy"
        }
      ],
      "outputs": [
        {
          "name": "allocations",
          "type": "tuple[]",
          "internalType": "struct IAllocationManagerTypes.Allocation[]",
          "components": [
            {
              "name": "currentMagnitude",
              "type": "uint64",
              "internalType": "uint64"
            },
            {
              "name": "pendingDiff",
              "type": "int128",
              "internalType": "int128"
            },
            {
              "name": "effectBlock",
              "type": "uint32",
              "internalType": "uint32"
            }
          ]
        }
      ],
      "stateMutability": "view"
    },
    {
      "type": "function",
      "name": "getEncumberedMagnitude",
      "inputs": [
        {
          "name": "",
          "type": "address",
          "internalType": "address"
        },
        {
          "name": "",
          "type": "address",
          "internalType": "contract IStrategy"
        }
      ],
      "outputs": [
        {
          "name": "encumberedMagnitude",
          "type": "uint64",
          "internalType": "uint64"
        }
      ],
      "stateMutability": "view"
    },
    {
      "type": "function",
      "name": "getMaxMagnitude",
      "inputs": [
        {
          "name": "",
          "type": "address",
          "internalType": "address"
        },
        {
          "name": "",
          "type": "address",
          "internalType": "contract IStrategy"
        }
      ],
      "outputs": [
        {
          "name": "maxMagnitude",
          "type": "uint64",
          "internalType": "uint64"
        }
      ],
      "stateMutability": "view"
    },
    {
      "type": "function",
      "name": "getMaxMagnitudes",
      "inputs": [
        {
          "name": "",
          "type": "address[]",
          "internalType": "address[]"
        },
        {
          "name": "",
          "type": "address",
          "internalType": "contract IStrategy"
        }
      ],
      "outputs": [
        {
          "name": "maxMagnitudes",
          "type": "uint64[]",
          "internalType": "uint64[]"
        }
      ],
      "stateMutability": "view"
    },
    {
      "type": "function",
      "name": "getMaxMagnitudes",
      "inputs": [
        {
          "name": "",
          "type": "address",
          "internalType": "address"
        },
        {
          "name": "",
          "type": "address[]",
          "internalType": "contract IStrategy[]"
        }
      ],
      "outputs": [
        {
          "name": "maxMagnitudes",
          "type": "uint64[]",
          "internalType": "uint64[]"
        }
      ],
      "stateMutability": "view"
    },
    {
      "type": "function",
      "name": "getMaxMagnitudesAtBlock",
      "inputs": [
        {
          "name": "",
          "type": "address",
          "internalType": "address"
        },
        {
          "name": "",
          "type": "address[]",
          "internalType": "contract IStrategy[]"
        },
        {
          "name": "",
          "type": "uint32",
          "internalType": "uint32"
        }
      ],
      "outputs": [
        {
          "name": "maxMagnitudes",
          "type": "uint64[]",
          "internalType": "uint64[]"
        }
      ],
      "stateMutability": "view"
    },
    {
      "type": "function",
      "name": "getMemberCount",
      "inputs": [
        {
          "name": "",
          "type": "tuple",
          "internalType": "struct OperatorSet",
          "components": [
            {
              "name": "avs",
              "type": "address",
              "internalType": "address"
            },
            {
              "name": "id",
              "type": "uint32",
              "internalType": "uint32"
            }
          ]
        }
      ],
      "outputs": [
        {
          "name": "memberCount",
          "type": "uint256",
          "internalType": "uint256"
        }
      ],
      "stateMutability": "view"
    },
    {
      "type": "function",
      "name": "getMembers",
      "inputs": [
        {
          "name": "",
          "type": "tuple",
          "internalType": "struct OperatorSet",
          "components": [
            {
              "name": "avs",
              "type": "address",
              "internalType": "address"
            },
            {
              "name": "id",
              "type": "uint32",
              "internalType": "uint32"
            }
          ]
        }
      ],
      "outputs": [
        {
          "name": "operators",
          "type": "address[]",
          "internalType": "address[]"
        }
      ],
      "stateMutability": "view"
    },
    {
      "type": "function",
      "name": "getMinimumSlashableStake",
      "inputs": [
        {
          "name": "",
          "type": "tuple",
          "internalType": "struct OperatorSet",
          "components": [
            {
              "name": "avs",
              "type": "address",
              "internalType": "address"
            },
            {
              "name": "id",
              "type": "uint32",
              "internalType": "uint32"
            }
          ]
        },
        {
          "name": "",
          "type": "address[]",
          "internalType": "address[]"
        },
        {
          "name": "",
          "type": "address[]",
          "internalType": "contract IStrategy[]"
        },
        {
          "name": "",
          "type": "uint32",
          "internalType": "uint32"
        }
      ],
      "outputs": [
        {
          "name": "slashableStake",
          "type": "uint256[][]",
          "internalType": "uint256[][]"
        }
      ],
      "stateMutability": "view"
    },
    {
      "type": "function",
      "name": "getOperatorSetCount",
      "inputs": [
        {
          "name": "",
          "type": "address",
          "internalType": "address"
        }
      ],
      "outputs": [
        {
          "name": "count",
          "type": "uint256",
          "internalType": "uint256"
        }
      ],
      "stateMutability": "view"
    },
    {
      "type": "function",
      "name": "getPendingSlasher",
      "inputs": [
        {
          "name": "",
          "type": "tuple",
          "internalType": "struct OperatorSet",
          "components": [
            {
              "name": "avs",
              "type": "address",
              "internalType": "address"
            },
            {
              "name": "id",
              "type": "uint32",
              "internalType": "uint32"
            }
          ]
        }
      ],
      "outputs": [
        {
          "name": "pendingSlasher",
          "type": "address",
          "internalType": "address"
        },
        {
          "name": "effectBlock",
          "type": "uint32",
          "internalType": "uint32"
        }
      ],
      "stateMutability": "view"
    },
    {
      "type": "function",
      "name": "getRedistributionRecipient",
      "inputs": [
        {
          "name": "operatorSet",
          "type": "tuple",
          "internalType": "struct OperatorSet",
          "components": [
            {
              "name": "avs",
              "type": "address",
              "internalType": "address"
            },
            {
              "name": "id",
              "type": "uint32",
              "internalType": "uint32"
            }
          ]
        }
      ],
      "outputs": [
        {
          "name": "",
          "type": "address",
          "internalType": "address"
        }
      ],
      "stateMutability": "view"
    },
    {
      "type": "function",
      "name": "getRegisteredSets",
      "inputs": [
        {
          "name": "",
          "type": "address",
          "internalType": "address"
        }
      ],
      "outputs": [
        {
          "name": "operatorSets",
          "type": "tuple[]",
          "internalType": "struct OperatorSet[]",
          "components": [
            {
              "name": "avs",
              "type": "address",
              "internalType": "address"
            },
            {
              "name": "id",
              "type": "uint32",
              "internalType": "uint32"
            }
          ]
        }
      ],
      "stateMutability": "view"
    },
    {
      "type": "function",
      "name": "getSlashCount",
      "inputs": [
        {
          "name": "",
          "type": "tuple",
          "internalType": "struct OperatorSet",
          "components": [
            {
              "name": "avs",
              "type": "address",
              "internalType": "address"
            },
            {
              "name": "id",
              "type": "uint32",
              "internalType": "uint32"
            }
          ]
        }
      ],
      "outputs": [
        {
          "name": "slashCount",
          "type": "uint256",
          "internalType": "uint256"
        }
      ],
      "stateMutability": "view"
    },
    {
      "type": "function",
      "name": "getSlasher",
      "inputs": [
        {
          "name": "operatorSet",
          "type": "tuple",
          "internalType": "struct OperatorSet",
          "components": [
            {
              "name": "avs",
              "type": "address",
              "internalType": "address"
            },
            {
              "name": "id",
              "type": "uint32",
              "internalType": "uint32"
            }
          ]
        }
      ],
      "outputs": [
        {
          "name": "",
          "type": "address",
          "internalType": "address"
        }
      ],
      "stateMutability": "view"
    },
    {
      "type": "function",
      "name": "getStrategiesInOperatorSet",
      "inputs": [
        {
          "name": "",
          "type": "tuple",
          "internalType": "struct OperatorSet",
          "components": [
            {
              "name": "avs",
              "type": "address",
              "internalType": "address"
            },
            {
              "name": "id",
              "type": "uint32",
              "internalType": "uint32"
            }
          ]
        }
      ],
      "outputs": [
        {
          "name": "strategies",
          "type": "address[]",
          "internalType": "contract IStrategy[]"
        }
      ],
      "stateMutability": "view"
    },
    {
      "type": "function",
      "name": "getStrategyAllocations",
      "inputs": [
        {
          "name": "",
          "type": "address",
          "internalType": "address"
        },
        {
          "name": "",
          "type": "address",
          "internalType": "contract IStrategy"
        }
      ],
      "outputs": [
        {
          "name": "operatorSets",
          "type": "tuple[]",
          "internalType": "struct OperatorSet[]",
          "components": [
            {
              "name": "avs",
              "type": "address",
              "internalType": "address"
            },
            {
              "name": "id",
              "type": "uint32",
              "internalType": "uint32"
            }
          ]
        },
        {
          "name": "allocations",
          "type": "tuple[]",
          "internalType": "struct IAllocationManagerTypes.Allocation[]",
          "components": [
            {
              "name": "currentMagnitude",
              "type": "uint64",
              "internalType": "uint64"
            },
            {
              "name": "pendingDiff",
              "type": "int128",
              "internalType": "int128"
            },
            {
              "name": "effectBlock",
              "type": "uint32",
              "internalType": "uint32"
            }
          ]
        }
      ],
      "stateMutability": "view"
    },
    {
      "type": "function",
      "name": "initialize",
      "inputs": [
        {
          "name": "initialPausedStatus",
          "type": "uint256",
          "internalType": "uint256"
        }
      ],
      "outputs": [],
      "stateMutability": "nonpayable"
    },
    {
      "type": "function",
      "name": "isMemberOfOperatorSet",
      "inputs": [
        {
          "name": "",
          "type": "address",
          "internalType": "address"
        },
        {
          "name": "",
          "type": "tuple",
          "internalType": "struct OperatorSet",
          "components": [
            {
              "name": "avs",
              "type": "address",
              "internalType": "address"
            },
            {
              "name": "id",
              "type": "uint32",
              "internalType": "uint32"
            }
          ]
        }
      ],
      "outputs": [
        {
          "name": "result",
          "type": "bool",
          "internalType": "bool"
        }
      ],
      "stateMutability": "view"
    },
    {
      "type": "function",
      "name": "isOperatorRedistributable",
      "inputs": [
        {
          "name": "",
          "type": "address",
          "internalType": "address"
        }
      ],
      "outputs": [
        {
          "name": "result",
          "type": "bool",
          "internalType": "bool"
        }
      ],
      "stateMutability": "view"
    },
    {
      "type": "function",
      "name": "isOperatorSet",
      "inputs": [
        {
          "name": "",
          "type": "tuple",
          "internalType": "struct OperatorSet",
          "components": [
            {
              "name": "avs",
              "type": "address",
              "internalType": "address"
            },
            {
              "name": "id",
              "type": "uint32",
              "internalType": "uint32"
            }
          ]
        }
      ],
      "outputs": [
        {
          "name": "result",
          "type": "bool",
          "internalType": "bool"
        }
      ],
      "stateMutability": "view"
    },
    {
      "type": "function",
      "name": "isOperatorSlashable",
      "inputs": [
        {
          "name": "operator",
          "type": "address",
          "internalType": "address"
        },
        {
          "name": "operatorSet",
          "type": "tuple",
          "internalType": "struct OperatorSet",
          "components": [
            {
              "name": "avs",
              "type": "address",
              "internalType": "address"
            },
            {
              "name": "id",
              "type": "uint32",
              "internalType": "uint32"
            }
          ]
        }
      ],
      "outputs": [
        {
          "name": "",
          "type": "bool",
          "internalType": "bool"
        }
      ],
      "stateMutability": "view"
    },
    {
      "type": "function",
      "name": "isRedistributingOperatorSet",
      "inputs": [
        {
          "name": "operatorSet",
          "type": "tuple",
          "internalType": "struct OperatorSet",
          "components": [
            {
              "name": "avs",
              "type": "address",
              "internalType": "address"
            },
            {
              "name": "id",
              "type": "uint32",
              "internalType": "uint32"
            }
          ]
        }
      ],
      "outputs": [
        {
          "name": "",
          "type": "bool",
          "internalType": "bool"
        }
      ],
      "stateMutability": "view"
    },
    {
      "type": "function",
      "name": "migrateSlashers",
      "inputs": [
        {
          "name": "operatorSets",
          "type": "tuple[]",
          "internalType": "struct OperatorSet[]",
          "components": [
            {
              "name": "avs",
              "type": "address",
              "internalType": "address"
            },
            {
              "name": "id",
              "type": "uint32",
              "internalType": "uint32"
            }
          ]
        }
      ],
      "outputs": [],
      "stateMutability": "nonpayable"
    },
    {
      "type": "function",
      "name": "modifyAllocations",
      "inputs": [
        {
          "name": "operator",
          "type": "address",
          "internalType": "address"
        },
        {
          "name": "params",
          "type": "tuple[]",
          "internalType": "struct IAllocationManagerTypes.AllocateParams[]",
          "components": [
            {
              "name": "operatorSet",
              "type": "tuple",
              "internalType": "struct OperatorSet",
              "components": [
                {
                  "name": "avs",
                  "type": "address",
                  "internalType": "address"
                },
                {
                  "name": "id",
                  "type": "uint32",
                  "internalType": "uint32"
                }
              ]
            },
            {
              "name": "strategies",
              "type": "address[]",
              "internalType": "contract IStrategy[]"
            },
            {
              "name": "newMagnitudes",
              "type": "uint64[]",
              "internalType": "uint64[]"
            }
          ]
        }
      ],
      "outputs": [],
      "stateMutability": "nonpayable"
    },
    {
      "type": "function",
      "name": "pause",
      "inputs": [
        {
          "name": "newPausedStatus",
          "type": "uint256",
          "internalType": "uint256"
        }
      ],
      "outputs": [],
      "stateMutability": "nonpayable"
    },
    {
      "type": "function",
      "name": "pauseAll",
      "inputs": [],
      "outputs": [],
      "stateMutability": "nonpayable"
    },
    {
      "type": "function",
      "name": "paused",
      "inputs": [
        {
          "name": "index",
          "type": "uint8",
          "internalType": "uint8"
        }
      ],
      "outputs": [
        {
          "name": "",
          "type": "bool",
          "internalType": "bool"
        }
      ],
      "stateMutability": "view"
    },
    {
      "type": "function",
      "name": "paused",
      "inputs": [],
      "outputs": [
        {
          "name": "",
          "type": "uint256",
          "internalType": "uint256"
        }
      ],
      "stateMutability": "view"
    },
    {
      "type": "function",
      "name": "pauserRegistry",
      "inputs": [],
      "outputs": [
        {
          "name": "",
          "type": "address",
          "internalType": "contract IPauserRegistry"
        }
      ],
      "stateMutability": "view"
    },
    {
      "type": "function",
      "name": "permissionController",
      "inputs": [],
      "outputs": [
        {
          "name": "",
          "type": "address",
          "internalType": "contract IPermissionController"
        }
      ],
      "stateMutability": "view"
    },
    {
      "type": "function",
      "name": "registerForOperatorSets",
      "inputs": [
        {
          "name": "operator",
          "type": "address",
          "internalType": "address"
        },
        {
          "name": "params",
          "type": "tuple",
          "internalType": "struct IAllocationManagerTypes.RegisterParams",
          "components": [
            {
              "name": "avs",
              "type": "address",
              "internalType": "address"
            },
            {
              "name": "operatorSetIds",
              "type": "uint32[]",
              "internalType": "uint32[]"
            },
            {
              "name": "data",
              "type": "bytes",
              "internalType": "bytes"
            }
          ]
        }
      ],
      "outputs": [],
      "stateMutability": "nonpayable"
    },
    {
      "type": "function",
      "name": "removeStrategiesFromOperatorSet",
      "inputs": [
        {
          "name": "avs",
          "type": "address",
          "internalType": "address"
        },
        {
          "name": "operatorSetId",
          "type": "uint32",
          "internalType": "uint32"
        },
        {
          "name": "strategies",
          "type": "address[]",
          "internalType": "contract IStrategy[]"
        }
      ],
      "outputs": [],
      "stateMutability": "nonpayable"
    },
    {
      "type": "function",
      "name": "setAVSRegistrar",
      "inputs": [
        {
          "name": "avs",
          "type": "address",
          "internalType": "address"
        },
        {
          "name": "registrar",
          "type": "address",
          "internalType": "contract IAVSRegistrar"
        }
      ],
      "outputs": [],
      "stateMutability": "nonpayable"
    },
    {
      "type": "function",
      "name": "setAllocationDelay",
      "inputs": [
        {
          "name": "operator",
          "type": "address",
          "internalType": "address"
        },
        {
          "name": "delay",
          "type": "uint32",
          "internalType": "uint32"
        }
      ],
      "outputs": [],
      "stateMutability": "nonpayable"
    },
    {
      "type": "function",
      "name": "slashOperator",
      "inputs": [
        {
          "name": "avs",
          "type": "address",
          "internalType": "address"
        },
        {
          "name": "params",
          "type": "tuple",
          "internalType": "struct IAllocationManagerTypes.SlashingParams",
          "components": [
            {
              "name": "operator",
              "type": "address",
              "internalType": "address"
            },
            {
              "name": "operatorSetId",
              "type": "uint32",
              "internalType": "uint32"
            },
            {
              "name": "strategies",
              "type": "address[]",
              "internalType": "contract IStrategy[]"
            },
            {
              "name": "wadsToSlash",
              "type": "uint256[]",
              "internalType": "uint256[]"
            },
            {
              "name": "description",
              "type": "string",
              "internalType": "string"
            }
          ]
        }
      ],
      "outputs": [
        {
          "name": "",
          "type": "uint256",
          "internalType": "uint256"
        },
        {
          "name": "",
          "type": "uint256[]",
          "internalType": "uint256[]"
        }
      ],
      "stateMutability": "nonpayable"
    },
    {
      "type": "function",
      "name": "unpause",
      "inputs": [
        {
          "name": "newPausedStatus",
          "type": "uint256",
          "internalType": "uint256"
        }
      ],
      "outputs": [],
      "stateMutability": "nonpayable"
    },
    {
      "type": "function",
      "name": "updateAVSMetadataURI",
      "inputs": [
        {
          "name": "avs",
          "type": "address",
          "internalType": "address"
        },
        {
          "name": "metadataURI",
          "type": "string",
          "internalType": "string"
        }
      ],
      "outputs": [],
      "stateMutability": "nonpayable"
    },
    {
      "type": "function",
      "name": "updateSlasher",
      "inputs": [
        {
          "name": "operatorSet",
          "type": "tuple",
          "internalType": "struct OperatorSet",
          "components": [
            {
              "name": "avs",
              "type": "address",
              "internalType": "address"
            },
            {
              "name": "id",
              "type": "uint32",
              "internalType": "uint32"
            }
          ]
        },
        {
          "name": "slasher",
          "type": "address",
          "internalType": "address"
        }
      ],
      "outputs": [],
      "stateMutability": "nonpayable"
    },
    {
      "type": "function",
      "name": "viewImplementation",
      "inputs": [],
      "outputs": [
        {
          "name": "",
          "type": "address",
          "internalType": "address"
        }
      ],
      "stateMutability": "view"
    },
    {
      "type": "event",
      "name": "AVSMetadataURIUpdated",
      "inputs": [
        {
          "name": "avs",
          "type": "address",
          "indexed": true,
          "internalType": "address"
        },
        {
          "name": "metadataURI",
          "type": "string",
          "indexed": false,
          "internalType": "string"
        }
      ],
      "anonymous": false
    },
    {
      "type": "event",
      "name": "AVSRegistrarSet",
      "inputs": [
        {
          "name": "avs",
          "type": "address",
          "indexed": false,
          "internalType": "address"
        },
        {
          "name": "registrar",
          "type": "address",
          "indexed": false,
          "internalType": "contract IAVSRegistrar"
        }
      ],
      "anonymous": false
    },
    {
      "type": "event",
      "name": "AllocationDelaySet",
      "inputs": [
        {
          "name": "operator",
          "type": "address",
          "indexed": false,
          "internalType": "address"
        },
        {
          "name": "delay",
          "type": "uint32",
          "indexed": false,
          "internalType": "uint32"
        },
        {
          "name": "effectBlock",
          "type": "uint32",
          "indexed": false,
          "internalType": "uint32"
        }
      ],
      "anonymous": false
    },
    {
      "type": "event",
      "name": "AllocationUpdated",
      "inputs": [
        {
          "name": "operator",
          "type": "address",
          "indexed": false,
          "internalType": "address"
        },
        {
          "name": "operatorSet",
          "type": "tuple",
          "indexed": false,
          "internalType": "struct OperatorSet",
          "components": [
            {
              "name": "avs",
              "type": "address",
              "internalType": "address"
            },
            {
              "name": "id",
              "type": "uint32",
              "internalType": "uint32"
            }
          ]
        },
        {
          "name": "strategy",
          "type": "address",
          "indexed": false,
          "internalType": "contract IStrategy"
        },
        {
          "name": "magnitude",
          "type": "uint64",
          "indexed": false,
          "internalType": "uint64"
        },
        {
          "name": "effectBlock",
          "type": "uint32",
          "indexed": false,
          "internalType": "uint32"
        }
      ],
      "anonymous": false
    },
    {
      "type": "event",
      "name": "EncumberedMagnitudeUpdated",
      "inputs": [
        {
          "name": "operator",
          "type": "address",
          "indexed": false,
          "internalType": "address"
        },
        {
          "name": "strategy",
          "type": "address",
          "indexed": false,
          "internalType": "contract IStrategy"
        },
        {
          "name": "encumberedMagnitude",
          "type": "uint64",
          "indexed": false,
          "internalType": "uint64"
        }
      ],
      "anonymous": false
    },
    {
      "type": "event",
      "name": "Initialized",
      "inputs": [
        {
          "name": "version",
          "type": "uint8",
          "indexed": false,
          "internalType": "uint8"
        }
      ],
      "anonymous": false
    },
    {
      "type": "event",
      "name": "MaxMagnitudeUpdated",
      "inputs": [
        {
          "name": "operator",
          "type": "address",
          "indexed": false,
          "internalType": "address"
        },
        {
          "name": "strategy",
          "type": "address",
          "indexed": false,
          "internalType": "contract IStrategy"
        },
        {
          "name": "maxMagnitude",
          "type": "uint64",
          "indexed": false,
          "internalType": "uint64"
        }
      ],
      "anonymous": false
    },
    {
      "type": "event",
      "name": "OperatorAddedToOperatorSet",
      "inputs": [
        {
          "name": "operator",
          "type": "address",
          "indexed": true,
          "internalType": "address"
        },
        {
          "name": "operatorSet",
          "type": "tuple",
          "indexed": false,
          "internalType": "struct OperatorSet",
          "components": [
            {
              "name": "avs",
              "type": "address",
              "internalType": "address"
            },
            {
              "name": "id",
              "type": "uint32",
              "internalType": "uint32"
            }
          ]
        }
      ],
      "anonymous": false
    },
    {
      "type": "event",
      "name": "OperatorRemovedFromOperatorSet",
      "inputs": [
        {
          "name": "operator",
          "type": "address",
          "indexed": true,
          "internalType": "address"
        },
        {
          "name": "operatorSet",
          "type": "tuple",
          "indexed": false,
          "internalType": "struct OperatorSet",
          "components": [
            {
              "name": "avs",
              "type": "address",
              "internalType": "address"
            },
            {
              "name": "id",
              "type": "uint32",
              "internalType": "uint32"
            }
          ]
        }
      ],
      "anonymous": false
    },
    {
      "type": "event",
      "name": "OperatorSetCreated",
      "inputs": [
        {
          "name": "operatorSet",
          "type": "tuple",
          "indexed": false,
          "internalType": "struct OperatorSet",
          "components": [
            {
              "name": "avs",
              "type": "address",
              "internalType": "address"
            },
            {
              "name": "id",
              "type": "uint32",
              "internalType": "uint32"
            }
          ]
        }
      ],
      "anonymous": false
    },
    {
      "type": "event",
      "name": "OperatorSlashed",
      "inputs": [
        {
          "name": "operator",
          "type": "address",
          "indexed": false,
          "internalType": "address"
        },
        {
          "name": "operatorSet",
          "type": "tuple",
          "indexed": false,
          "internalType": "struct OperatorSet",
          "components": [
            {
              "name": "avs",
              "type": "address",
              "internalType": "address"
            },
            {
              "name": "id",
              "type": "uint32",
              "internalType": "uint32"
            }
          ]
        },
        {
          "name": "strategies",
          "type": "address[]",
          "indexed": false,
          "internalType": "contract IStrategy[]"
        },
        {
          "name": "wadSlashed",
          "type": "uint256[]",
          "indexed": false,
          "internalType": "uint256[]"
        },
        {
          "name": "description",
          "type": "string",
          "indexed": false,
          "internalType": "string"
        }
      ],
      "anonymous": false
    },
    {
      "type": "event",
      "name": "Paused",
      "inputs": [
        {
          "name": "account",
          "type": "address",
          "indexed": true,
          "internalType": "address"
        },
        {
          "name": "newPausedStatus",
          "type": "uint256",
          "indexed": false,
          "internalType": "uint256"
        }
      ],
      "anonymous": false
    },
    {
      "type": "event",
      "name": "RedistributionAddressSet",
      "inputs": [
        {
          "name": "operatorSet",
          "type": "tuple",
          "indexed": false,
          "internalType": "struct OperatorSet",
          "components": [
            {
              "name": "avs",
              "type": "address",
              "internalType": "address"
            },
            {
              "name": "id",
              "type": "uint32",
              "internalType": "uint32"
            }
          ]
        },
        {
          "name": "redistributionRecipient",
          "type": "address",
          "indexed": false,
          "internalType": "address"
        }
      ],
      "anonymous": false
    },
    {
      "type": "event",
      "name": "SlasherMigrated",
      "inputs": [
        {
          "name": "operatorSet",
          "type": "tuple",
          "indexed": false,
          "internalType": "struct OperatorSet",
          "components": [
            {
              "name": "avs",
              "type": "address",
              "internalType": "address"
            },
            {
              "name": "id",
              "type": "uint32",
              "internalType": "uint32"
            }
          ]
        },
        {
          "name": "slasher",
          "type": "address",
          "indexed": false,
          "internalType": "address"
        }
      ],
      "anonymous": false
    },
    {
      "type": "event",
      "name": "SlasherUpdated",
      "inputs": [
        {
          "name": "operatorSet",
          "type": "tuple",
          "indexed": false,
          "internalType": "struct OperatorSet",
          "components": [
            {
              "name": "avs",
              "type": "address",
              "internalType": "address"
            },
            {
              "name": "id",
              "type": "uint32",
              "internalType": "uint32"
            }
          ]
        },
        {
          "name": "slasher",
          "type": "address",
          "indexed": false,
          "internalType": "address"
        },
        {
          "name": "effectBlock",
          "type": "uint32",
          "indexed": false,
          "internalType": "uint32"
        }
      ],
      "anonymous": false
    },
    {
      "type": "event",
      "name": "StrategyAddedToOperatorSet",
      "inputs": [
        {
          "name": "operatorSet",
          "type": "tuple",
          "indexed": false,
          "internalType": "struct OperatorSet",
          "components": [
            {
              "name": "avs",
              "type": "address",
              "internalType": "address"
            },
            {
              "name": "id",
              "type": "uint32",
              "internalType": "uint32"
            }
          ]
        },
        {
          "name": "strategy",
          "type": "address",
          "indexed": false,
          "internalType": "contract IStrategy"
        }
      ],
      "anonymous": false
    },
    {
      "type": "event",
      "name": "StrategyRemovedFromOperatorSet",
      "inputs": [
        {
          "name": "operatorSet",
          "type": "tuple",
          "indexed": false,
          "internalType": "struct OperatorSet",
          "components": [
            {
              "name": "avs",
              "type": "address",
              "internalType": "address"
            },
            {
              "name": "id",
              "type": "uint32",
              "internalType": "uint32"
            }
          ]
        },
        {
          "name": "strategy",
          "type": "address",
          "indexed": false,
          "internalType": "contract IStrategy"
        }
      ],
      "anonymous": false
    },
    {
      "type": "event",
      "name": "Unpaused",
      "inputs": [
        {
          "name": "account",
          "type": "address",
          "indexed": true,
          "internalType": "address"
        },
        {
          "name": "newPausedStatus",
          "type": "uint256",
          "indexed": false,
          "internalType": "uint256"
        }
      ],
      "anonymous": false
    },
    {
      "type": "error",
      "name": "AlreadyMemberOfSet",
      "inputs": []
    },
    {
      "type": "error",
      "name": "CurrentlyPaused",
      "inputs": []
    },
    {
      "type": "error",
      "name": "Empty",
      "inputs": []
    },
    {
      "type": "error",
      "name": "InputAddressZero",
      "inputs": []
    },
    {
      "type": "error",
      "name": "InputArrayLengthMismatch",
      "inputs": []
    },
    {
      "type": "error",
      "name": "InsufficientMagnitude",
      "inputs": []
    },
    {
      "type": "error",
      "name": "InvalidAVSRegistrar",
      "inputs": []
    },
    {
      "type": "error",
      "name": "InvalidCaller",
      "inputs": []
    },
    {
      "type": "error",
      "name": "InvalidNewPausedStatus",
      "inputs": []
    },
    {
      "type": "error",
      "name": "InvalidOperator",
      "inputs": []
    },
    {
      "type": "error",
      "name": "InvalidOperatorSet",
      "inputs": []
    },
    {
      "type": "error",
      "name": "InvalidPermissions",
      "inputs": []
    },
    {
      "type": "error",
      "name": "InvalidRedistributionRecipient",
      "inputs": []
    },
    {
      "type": "error",
      "name": "InvalidSnapshotOrdering",
      "inputs": []
    },
    {
      "type": "error",
      "name": "InvalidStrategy",
      "inputs": []
    },
    {
      "type": "error",
      "name": "InvalidWadToSlash",
      "inputs": []
    },
    {
      "type": "error",
      "name": "ModificationAlreadyPending",
      "inputs": []
    },
    {
      "type": "error",
      "name": "NonexistentAVSMetadata",
      "inputs": []
    },
    {
      "type": "error",
      "name": "NotMemberOfSet",
      "inputs": []
    },
    {
      "type": "error",
      "name": "OnlyPauser",
      "inputs": []
    },
    {
      "type": "error",
      "name": "OnlyUnpauser",
      "inputs": []
    },
    {
      "type": "error",
      "name": "OperatorNotSlashable",
      "inputs": []
    },
    {
      "type": "error",
      "name": "OperatorSetAlreadyMigrated",
      "inputs": []
    },
    {
      "type": "error",
      "name": "SameMagnitude",
      "inputs": []
    },
    {
      "type": "error",
      "name": "SlasherNotSet",
      "inputs": []
    },
    {
      "type": "error",
      "name": "StrategiesMustBeInAscendingOrder",
      "inputs": []
    },
    {
      "type": "error",
      "name": "StrategyAlreadyInOperatorSet",
      "inputs": []
    },
    {
      "type": "error",
      "name": "StrategyNotInOperatorSet",
      "inputs": []
    },
    {
      "type": "error",
      "name": "UninitializedAllocationDelay",
      "inputs": []
    }
  ],
  "bytecode": {
    "object": "0x610180604052348015610010575f5ffd5b50604051615a31380380615a3183398101604081905261002f91610198565b868387878585896001600160a01b03811661005d576040516339b190bb60e11b815260040160405180910390fd5b6001600160a01b0390811660805293841660a05291831660c05263ffffffff90811660e05216610100819052610120529081166101405216610160526100a16100ad565b50505050505050610227565b5f54610100900460ff16156101185760405162461bcd60e51b815260206004820152602760248201527f496e697469616c697a61626c653a20636f6e747261637420697320696e697469604482015266616c697a696e6760c81b606482015260840160405180910390fd5b5f5460ff90811614610167575f805460ff191660ff9081179091556040519081527f7f26b83ff96e1f2b6a682f133852f6798a09c465da95921460cefb38474024989060200160405180910390a15b565b6001600160a01b038116811461017d575f5ffd5b50565b805163ffffffff81168114610193575f5ffd5b919050565b5f5f5f5f5f5f5f60e0888a0312156101ae575f5ffd5b87516101b981610169565b60208901519097506101ca81610169565b60408901519096506101db81610169565b60608901519095506101ec81610169565b60808901519094506101fd81610169565b925061020b60a08901610180565b915061021960c08901610180565b905092959891949750929550565b60805160a05160c05160e0516101005161012051610140516101605161571561031c5f395f81816103910152818161097101528181610a5101528181610a8001528181610aca01528181610af501528181610d5101528181610ff501528181612125015261240001525f818161058b015281816119bc01526137c801525f818161067601526136aa01525f81816106e9015261347701525f818161048601528181611325015261174601525f818161087f01526132fd01525f81816108b401528181610ef701528181610f4501528181611c4f0152612eed01525f81816107100152818161264f0152613c8501526157155ff3fe608060405234801561000f575f5ffd5b5060043610610388575f3560e01c80636c9d7c58116101df578063b66bd98911610109578063d7794857116100a9578063f231bd0811610079578063f231bd08146108d6578063f605ce08146106ab578063fabc1cbc146108e9578063fe4b84df146108fc575f5ffd5b8063d779485714610843578063db4df7611461087a578063dc2af692146108a1578063df5cf723146108af575f5ffd5b8063c221d8ae116100e4578063c221d8ae146107f7578063d1a83f541461080a578063d3d96ff41461081d578063d4a3fcce14610830575f5ffd5b8063b66bd989146107a7578063b9fbaed1146107ba578063ba1a84e5146107e9575f5ffd5b80638ce648541161017f578063a9333ec81161014f578063a9333ec8146106ab578063a982182114610781578063adc2e3d914610794578063b2447af7146105db575f5ffd5b80638ce648541461073257806394d7d00c1461074d578063952899ee1461075b578063957dc50b1461076e575f5ffd5b80636e875dba116101ba5780636e875dba1461056b57806379ae50cd1461043b5780637bc1ef61146106e4578063886f11951461070b575f5ffd5b80636c9d7c58146106985780636cfb4481146106ab5780636e3492b5146106d1575f5ffd5b80633dff8e7d116102c057806350feea20116102605780635ac86ab7116102305780635ac86ab7146106335780635c975abb14610656578063670d3ba21461065e57806367aeaa5314610671575f5ffd5b806350feea20146105f7578063547afb871461060a57806356c483e614610618578063595c6a671461062b575f5ffd5b80634657e26a1161029b5780634657e26a146105865780634a10ffe5146105ad5780634b5046ef146105c85780634cfd2939146105db575f5ffd5b80633dff8e7d1461053757806340120dab1461054a5780634177a87c1461056b575f5ffd5b8063261f84e01161032b5780632bab2c4a116103065780632bab2c4a146104dd578063304c10cd146104f057806332a879e4146105035780633635205714610516575f5ffd5b8063261f84e01461046e5780632981eb77146104815780632b453a9a146104bd575f5ffd5b80631352c3e6116103665780631352c3e614610403578063136439dd1461042657806315fe50281461043b578063260dc7581461045b575f5ffd5b80630b156bb61461038c5780630f3df50e146103d057806310e1b9b8146103e3575b5f5ffd5b6103b37f000000000000000000000000000000000000000000000000000000000000000081565b6040516001600160a01b0390911681526020015b60405180910390f35b6103b36103de36600461442d565b61090f565b6103f66103f1366004614447565b610950565b6040516103c7919061448e565b6104166104113660046144c1565b610995565b60405190151581526020016103c7565b6104396104343660046144f5565b610a10565b005b61044e61044936600461450c565b610a4a565b6040516103c7919061458a565b61041661046936600461442d565b610a7a565b61043961047c3660046145dc565b610aa4565b6104a87f000000000000000000000000000000000000000000000000000000000000000081565b60405163ffffffff90911681526020016103c7565b6104d06104cb3660046146c1565b610ac3565b6040516103c79190614764565b6104d06104eb3660046147c7565b610aee565b6103b36104fe36600461450c565b610b21565b61043961051136600461484b565b610b50565b6105296105243660046148cb565b610b78565b6040516103c792919061491d565b610439610545366004614a13565b610ccd565b61055d610558366004614a5f565b610d49565b6040516103c7929190614aec565b61057961044936600461442d565b6040516103c79190614b10565b6103b37f000000000000000000000000000000000000000000000000000000000000000081565b6105bb6104cb366004614b5b565b6040516103c79190614ba2565b6104396105d636600461484b565b610d7c565b6105e961046936600461442d565b6040519081526020016103c7565b610439610605366004614be2565b610e18565b6105bb6104cb3660046145dc565b610439610626366004614c40565b610eec565b610439610fdb565b610416610641366004614c6a565b606654600160ff9092169190911b9081161490565b6066546105e9565b61041661066c3660046144c1565b610fef565b6104a87f000000000000000000000000000000000000000000000000000000000000000081565b6104396106a6366004614c8a565b611019565b6106b961066c366004614a5f565b6040516001600160401b0390911681526020016103c7565b6104396106df366004614ccb565b6110af565b6104a87f000000000000000000000000000000000000000000000000000000000000000081565b6103b37f000000000000000000000000000000000000000000000000000000000000000081565b6107406104cb366004614cfc565b6040516103c79190614d3f565b6105bb6104eb366004614d51565b610439610769366004614da8565b61146a565b61043961077c366004614f51565b6118fb565b61043961078f366004614fe1565b611b86565b6104396107a236600461505f565b611c1b565b6104396107b5366004614be2565b611f47565b6107cd6107c836600461450c565b612084565b60408051921515835263ffffffff9091166020830152016103c7565b6105e961046936600461450c565b6105796108053660046144c1565b61211e565b6104396108183660046150a1565b612149565b61043961082b366004614a5f565b612262565b6103b361083e36600461442d565b612372565b61085661085136600461442d565b6123f9565b604080516001600160a01b03909316835263ffffffff9091166020830152016103c7565b6103b37f000000000000000000000000000000000000000000000000000000000000000081565b61041661046936600461450c565b6103b37f000000000000000000000000000000000000000000000000000000000000000081565b6104166108e436600461442d565b612429565b6104396108f73660046144f5565b612448565b61043961090a3660046144f5565b6124b5565b5f5f60a65f61091d856125c6565b815260208101919091526040015f20546001600160a01b0316905080156109445780610949565b620e16e45b9392505050565b604080516060810182525f80825260208201819052918101919091526109497f0000000000000000000000000000000000000000000000000000000000000000612629565b6001600160a01b0382165f908152609e602052604081208190816109b8856125c6565b815260208082019290925260409081015f2081518083019092525460ff8116151580835261010090910463ffffffff1692820192909252915080610a065750806020015163ffffffff164311155b9150505b92915050565b610a1861263a565b6066548181168114610a3d5760405163c61dca5d60e01b815260040160405180910390fd5b610a46826126dd565b5050565b6060610a757f0000000000000000000000000000000000000000000000000000000000000000612629565b919050565b5f610a757f0000000000000000000000000000000000000000000000000000000000000000612629565b82610aae8161271a565b610abd84610545858588612743565b50505050565b60606109497f0000000000000000000000000000000000000000000000000000000000000000612629565b6060610b197f0000000000000000000000000000000000000000000000000000000000000000612629565b949350505050565b6001600160a01b038082165f908152609760205260408120549091168015610b495780610949565b5090919050565b84610b5a8161271a565b610b7086610b6987878a612743565b8585612149565b505050505050565b5f60606001610b86816128ba565b5f6040518060400160405280876001600160a01b03168152602001866020016020810190610bb49190615100565b63ffffffff1690529050610bcb6060860186615119565b9050610bda6040870187615119565b905014610bfa576040516343714afd60e01b815260040160405180910390fd5b60208082015182516001600160a01b03165f90815260989092526040909120610c2c9163ffffffff908116906128e516565b610c4957604051631fb1705560e21b815260040160405180910390fd5b610c5f610c59602087018761450c565b82610995565b610c7c5760405163ebbff49760e01b815260040160405180910390fd5b610c8581612372565b6001600160a01b0316336001600160a01b031614610cb6576040516348f5c3ed60e01b815260040160405180910390fd5b610cc085826128fc565b9350935050509250929050565b81610cd78161271a565b6001600160a01b0383165f90815260a4602052604090205460ff16610d0f576040516348f7dbb960e01b815260040160405180910390fd5b5f5b8251811015610abd57610d4184848381518110610d3057610d3061515e565b6020026020010151620e16e4613057565b600101610d11565b606080610d757f0000000000000000000000000000000000000000000000000000000000000000612629565b9250929050565b5f610d86816128ba565b838214610da6576040516343714afd60e01b815260040160405180910390fd5b5f5b84811015610e0f57610e0787878784818110610dc657610dc661515e565b9050602002016020810190610ddb919061450c565b868685818110610ded57610ded61515e565b9050602002016020810190610e029190615172565b6131c9565b600101610da8565b50505050505050565b83610e228161271a565b6040805180820182526001600160a01b03871680825263ffffffff80881660208085018290525f93845260989052939091209192610e6192916128e516565b610e7e57604051631fb1705560e21b815260040160405180910390fd5b5f5b83811015610e0f57610ee482868684818110610e9e57610e9e61515e565b9050602002016020810190610eb3919061450c565b610edf60405180604001604052808c6001600160a01b031681526020018b63ffffffff16815250612429565b6132cd565b600101610e80565b336001600160a01b037f0000000000000000000000000000000000000000000000000000000000000000161480610fcb57610f268361271a565b6040516336b87bd760e11b81526001600160a01b0384811660048301527f00000000000000000000000000000000000000000000000000000000000000001690636d70f7ae90602401602060405180830381865afa158015610f8a573d5f5f3e3d5ffd5b505050506040513d601f19601f82011682018060405250810190610fae9190615193565b610fcb5760405163ccea9e6f60e01b815260040160405180910390fd5b610fd68383836133ad565b505050565b610fe361263a565b610fed5f196126dd565b565b5f610a0a7f0000000000000000000000000000000000000000000000000000000000000000612629565b81516110248161271a565b60208084015184516001600160a01b03165f908152609890925260409091206110569163ffffffff908116906128e516565b61107357604051631fb1705560e21b815260040160405180910390fd5b5f61107d84612372565b6001600160a01b0316036110a45760405163255b0f4160e01b815260040160405180910390fd5b610fd683835f613589565b60026110ba816128ba565b6110cf6110ca602084018461450c565b61378a565b806110e857506110e86110ca604084016020850161450c565b611105576040516348f5c3ed60e01b815260040160405180910390fd5b5f5b6111146040840184615119565b90508110156113d6575f604051806040016040528085602001602081019061113c919061450c565b6001600160a01b031681526020016111576040870187615119565b858181106111675761116761515e565b905060200201602081019061117c9190615100565b63ffffffff1681525090506111c9816020015163ffffffff1660985f8760200160208101906111ab919061450c565b6001600160a01b0316815260208101919091526040015f20906128e5565b6111e657604051631fb1705560e21b815260040160405180910390fd5b609e5f6111f6602087018761450c565b6001600160a01b03166001600160a01b031681526020019081526020015f205f61121f836125c6565b815260208101919091526040015f205460ff1661124f576040516325131d4f60e01b815260040160405180910390fd5b61128961125b826125c6565b609c5f61126b602089018961450c565b6001600160a01b0316815260208101919091526040015f2090613833565b506112c161129a602086018661450c565b609a5f6112a6856125c6565b81526020019081526020015f2061383e90919063ffffffff16565b506112cf602085018561450c565b6001600160a01b03167fad34c3070be1dffbcaa499d000ba2b8d9848aefcac3059df245dd95c4ece14fe8260405161130791906151b2565b60405180910390a2604080518082019091525f81526020810161134a7f0000000000000000000000000000000000000000000000000000000000000000436151d4565b63ffffffff169052609e5f611362602088018861450c565b6001600160a01b03166001600160a01b031681526020019081526020015f205f61138b846125c6565b81526020808201929092526040015f2082518154939092015163ffffffff166101000264ffffffff00199215159290921664ffffffffff199093169290921717905550600101611107565b506113ea6104fe604084016020850161450c565b6001600160a01b031663303ca956611405602085018561450c565b611415604086016020870161450c565b6114226040870187615119565b6040518563ffffffff1660e01b81526004016114419493929190615229565b5f604051808303815f87803b158015611458575f5ffd5b505af1158015610b70573d5f5f3e3d5ffd5b5f611474816128ba565b61147d8361271a565b5f5f5f61148986612084565b91509150816114ab5760405163fa55fc8160e01b815260040160405180910390fd5b91505f90505b83518110156118f4578381815181106114cc576114cc61515e565b602002602001015160400151518482815181106114eb576114eb61515e565b6020026020010151602001515114611516576040516343714afd60e01b815260040160405180910390fd5b5f8482815181106115295761152961515e565b602090810291909101810151518082015181516001600160a01b03165f908152609890935260409092209092506115699163ffffffff908116906128e516565b61158657604051631fb1705560e21b815260040160405180910390fd5b5f6115918783610995565b90505f5b8684815181106115a7576115a761515e565b602002602001015160200151518110156118e9575f8785815181106115ce576115ce61515e565b60200260200101516020015182815181106115eb576115eb61515e565b60200260200101519050611602898261ffff6131c9565b5f5f6116178b611611886125c6565b85613852565b91509150806040015163ffffffff165f1461164557604051630d8fcbe360e41b815260040160405180910390fd5b5f611652878584896139be565b9050611697825f01518c8a8151811061166d5761166d61515e565b602002602001015160400151878151811061168a5761168a61515e565b60200260200101516139f6565b600f0b602083018190525f036116c057604051634606179360e11b815260040160405180910390fd5b5f8260200151600f0b1215611804578015611786576117416116e1886125c6565b6001600160a01b03808f165f90815260a360209081526040808320938a16835292905220908154600160801b90819004600f0b5f818152600180860160205260409091209390935583546001600160801b03908116939091011602179055565b61176b7f0000000000000000000000000000000000000000000000000000000000000000436151d4565b6117769060016151d4565b63ffffffff166040830152611871565b61179883602001518360200151613a0d565b6001600160401b031660208401528a518b90899081106117ba576117ba61515e565b60200260200101516040015185815181106117d7576117d761515e565b6020908102919091018101516001600160401b031683525f9083015263ffffffff43166040830152611871565b5f8260200151600f0b13156118715761182583602001518360200151613a0d565b6001600160401b03908116602085018190528451909116101561185b57604051636c9be0bf60e01b815260040160405180910390fd5b61186589436151d4565b63ffffffff1660408301525b6118868c61187e896125c6565b868686613a2c565b7f1487af5418c47ee5ea45ef4a93398668120890774a9e13487e61e9dc3baf76dd8c88866118bb865f01518760200151613a0d565b86604001516040516118d1959493929190615255565b60405180910390a15050600190920191506115959050565b5050506001016114b1565b5050505050565b5f5b8151811015610a465761197a82828151811061191b5761191b61515e565b60200260200101516020015163ffffffff1660985f8585815181106119425761194261515e565b60200260200101515f01516001600160a01b03166001600160a01b031681526020019081526020015f206128e590919063ffffffff16565b15611b7e575f6001600160a01b03166119ab83838151811061199e5761199e61515e565b6020026020010151612372565b6001600160a01b031603611b7e575f7f00000000000000000000000000000000000000000000000000000000000000006001600160a01b031663fddbdefd8484815181106119fb576119fb61515e565b6020908102919091010151516040516001600160e01b031960e084901b1681526001600160a01b039091166004820152306024820152633635205760e01b60448201526064015f60405180830381865afa158015611a5b573d5f5f3e3d5ffd5b505050506040513d5f823e601f3d908101601f19168201604052611a8291908101906152a6565b90505f81515f1480611abe57505f6001600160a01b0316825f81518110611aab57611aab61515e565b60200260200101516001600160a01b0316145b15611ae757838381518110611ad557611ad561515e565b60200260200101515f01519050611b04565b815f81518110611af957611af961515e565b602002602001015190505b611b29848481518110611b1957611b1961515e565b6020026020010151826001613589565b7ff0c8fc7d71f647bd3a88ac369112517f6a4b8038e71913f2d20f71f877dfc725848481518110611b5c57611b5c61515e565b602002602001015182604051611b73929190615335565b60405180910390a150505b6001016118fd565b82611b908161271a565b6001600160a01b0384165f90815260a4602052604090205460ff16611bd2576001600160a01b0384165f90815260a460205260409020805460ff191660011790555b836001600160a01b03167fa89c1dc243d8908a96dd84944bcc97d6bc6ac00dd78e20621576be6a3c9437138484604051611c0d929190615383565b60405180910390a250505050565b6002611c26816128ba565b82611c308161271a565b6040516336b87bd760e11b81526001600160a01b0385811660048301527f00000000000000000000000000000000000000000000000000000000000000001690636d70f7ae90602401602060405180830381865afa158015611c94573d5f5f3e3d5ffd5b505050506040513d601f19601f82011682018060405250810190611cb89190615193565b611cd55760405163ccea9e6f60e01b815260040160405180910390fd5b5f5b611ce46020850185615119565b9050811015611eac57604080518082019091525f9080611d07602088018861450c565b6001600160a01b03168152602001868060200190611d259190615119565b85818110611d3557611d3561515e565b9050602002016020810190611d4a9190615100565b63ffffffff90811690915260208083015183516001600160a01b03165f90815260989092526040909120929350611d869291908116906128e516565b611da357604051631fb1705560e21b815260040160405180910390fd5b611dad8682610995565b15611dcb57604051636c6c6e2760e11b815260040160405180910390fd5b611df4611dd7826125c6565b6001600160a01b0388165f908152609c6020526040902090613c64565b50611e2086609a5f611e05856125c6565b81526020019081526020015f20613c6f90919063ffffffff16565b50856001600160a01b03167f43232edf9071753d2321e5fa7e018363ee248e5f2142e6c08edd3265bfb4895e82604051611e5a91906151b2565b60405180910390a26001600160a01b0386165f908152609e60205260408120600191611e85846125c6565b815260208101919091526040015f20805460ff191691151591909117905550600101611cd7565b50611ebd6104fe602085018561450c565b6001600160a01b031663c63fd50285611ed9602087018761450c565b611ee66020880188615119565b611ef360408a018a615396565b6040518763ffffffff1660e01b8152600401611f14969594939291906153d8565b5f604051808303815f87803b158015611f2b575f5ffd5b505af1158015611f3d573d5f5f3e3d5ffd5b5050505050505050565b83611f518161271a565b6040805180820182526001600160a01b03871680825263ffffffff80881660208085018290525f93845260989052939091209192611f9092916128e516565b611fad57604051631fb1705560e21b815260040160405180910390fd5b5f611fb7826125c6565b90505f5b84811015611f3d57612000868683818110611fd857611fd861515e565b9050602002016020810190611fed919061450c565b5f8481526099602052604090209061383e565b61201d576040516331bc342760e11b815260040160405180910390fd5b7f7b4b073d80dcac55a11177d8459ad9f664ceeb91f71f27167bb14f8152a7eeee838787848181106120515761205161515e565b9050602002016020810190612066919061450c565b604051612074929190615335565b60405180910390a1600101611fbb565b6001600160a01b0381165f908152609b602090815260408083208151608081018352905463ffffffff80821680845260ff600160201b8404161515958401869052650100000000008304821694840194909452600160481b9091041660608201819052849391929190158015906121055750826060015163ffffffff164310155b15612114575050604081015160015b9590945092505050565b6060610a0a7f0000000000000000000000000000000000000000000000000000000000000000612629565b836121538161271a565b83518214612174576040516343714afd60e01b815260040160405180910390fd5b6001600160a01b0385165f90815260a4602052604090205460ff166121ac576040516348f7dbb960e01b815260040160405180910390fd5b5f5b8451811015610b70575f8484838181106121ca576121ca61515e565b90506020020160208101906121df919061450c565b90506001600160a01b038116612208576040516339b190bb60e11b815260040160405180910390fd5b620e16e3196001600160a01b03821601612235576040516364be1a3f60e11b815260040160405180910390fd5b6122598787848151811061224b5761224b61515e565b602002602001015183613057565b506001016121ae565b8161226c8161271a565b60405163b526578760e01b81526001600160a01b03848116600483015283169063b526578790602401602060405180830381865afa1580156122b0573d5f5f3e3d5ffd5b505050506040513d601f19601f820116820180604052508101906122d49190615193565b6122f157604051631d0b13c160e31b815260040160405180910390fd5b6001600160a01b038381165f90815260976020526040902080546001600160a01b0319169184169190911790557f2ae945c40c44dc0ec263f95609c3fdc6952e0aefa22d6374e44f2c997acedf858361234981610b21565b604080516001600160a01b039384168152929091166020830152015b60405180910390a1505050565b5f5f60a75f612380856125c6565b815260208082019290925260409081015f20815160608101835281546001600160a01b0390811680835260019093015490811694820194909452600160a01b90930463ffffffff16918301829052919250158015906123e95750816040015163ffffffff164310155b1561094957506020015192915050565b5f5f6124247f0000000000000000000000000000000000000000000000000000000000000000612629565b915091565b5f620e16e46124378361090f565b6001600160a01b0316141592915050565b612450613c83565b606654801982198116146124775760405163c61dca5d60e01b815260040160405180910390fd5b606682905560405182815233907f3582d1828e26bf56bd801502bc021ac0bc8afb57c826e4986b45593c8fad389c9060200160405180910390a25050565b5f54610100900460ff16158080156124d357505f54600160ff909116105b806124ec5750303b1580156124ec57505f5460ff166001145b6125545760405162461bcd60e51b815260206004820152602e60248201527f496e697469616c697a61626c653a20636f6e747261637420697320616c72656160448201526d191e481a5b9a5d1a585b1a5e995960921b60648201526084015b60405180910390fd5b5f805460ff191660011790558015612575575f805461ff0019166101001790555b61257e826126dd565b8015610a46575f805461ff0019169055604051600181527f7f26b83ff96e1f2b6a682f133852f6798a09c465da95921460cefb38474024989060200160405180910390a15050565b5f815f0151826020015163ffffffff1660405160200161261192919060609290921b6bffffffffffffffffffffffff1916825260a01b6001600160a01b031916601482015260200190565b604051602081830303815290604052610a0a90615424565b613d3480610fd68363ffffffff8316565b60405163237dfb4760e11b81523360048201527f00000000000000000000000000000000000000000000000000000000000000006001600160a01b0316906346fbf68e90602401602060405180830381865afa15801561269c573d5f5f3e3d5ffd5b505050506040513d601f19601f820116820180604052508101906126c09190615193565b610fed57604051631d77d47760e21b815260040160405180910390fd5b606681905560405181815233907fab40a374bc51de372200a8bc981af8c9ecdc08dfdaef0bb6e09f88f3c616ef3d9060200160405180910390a250565b6127238161378a565b6127405760405163932d94f760e01b815260040160405180910390fd5b50565b60605f836001600160401b0381111561275e5761275e61433d565b6040519080825280602002602001820160405280156127c057816020015b6127ad60405180606001604052805f63ffffffff168152602001606081526020015f6001600160a01b031681525090565b81526020019060019003908161277c5790505b5090505f5b848110156128b15760405180606001604052808787848181106127ea576127ea61515e565b90506020028101906127fc9190615447565b61280a906020810190615100565b63ffffffff1681526020018787848181106128275761282761515e565b90506020028101906128399190615447565b612847906020810190615119565b808060200260200160405190810160405280939291908181526020018383602002808284375f920191909152505050908252506001600160a01b038616602090910152825183908390811061289e5761289e61515e565b60209081029190910101526001016127c5565b50949350505050565b606654600160ff83161b908116036127405760405163840a48d560e01b815260040160405180910390fd5b5f8181526001830160205260408120541515610949565b5f60608161290d6040860186615119565b90506001600160401b038111156129265761292661433d565b60405190808252806020026020018201604052801561294f578160200160208202803683370190505b50905061295f6040860186615119565b90506001600160401b038111156129785761297861433d565b6040519080825280602002602001820160405280156129a1578160200160208202803683370190505b50915060a55f6129b0866125c6565b81526020019081526020015f205f81546129c990615465565b918290555092505f5b6129df6040870187615119565b9050811015612fe957801580612a7257506129fd6040870187615119565b612a0860018461547d565b818110612a1757612a1761515e565b9050602002016020810190612a2c919061450c565b6001600160a01b0316612a426040880188615119565b83818110612a5257612a5261515e565b9050602002016020810190612a67919061450c565b6001600160a01b0316115b612a8f57604051639f1c805360e01b815260040160405180910390fd5b612a9c6060870187615119565b82818110612aac57612aac61515e565b905060200201355f108015612aec5750670de0b6b3a7640000612ad26060880188615119565b83818110612ae257612ae261515e565b9050602002013511155b612b0957604051631353603160e01b815260040160405180910390fd5b612b65612b196040880188615119565b83818110612b2957612b2961515e565b9050602002016020810190612b3e919061450c565b60995f612b4a896125c6565b81526020019081526020015f20613d5290919063ffffffff16565b612b82576040516331bc342760e11b815260040160405180910390fd5b5f80612bd4612b9460208a018a61450c565b612b9d896125c6565b612baa60408c018c615119565b87818110612bba57612bba61515e565b9050602002016020810190612bcf919061450c565b613852565b805191935091506001600160401b03165f03612bf1575050612fe1565b5f612c2c612c0260608b018b615119565b86818110612c1257612c1261515e565b85516001600160401b031692602090910201359050613d73565b8351909150612c476001600160401b03808416908316613d89565b868681518110612c5957612c5961515e565b60200260200101818152505081835f01818151612c769190615490565b6001600160401b0316905250835182908590612c93908390615490565b6001600160401b0316905250602084018051839190612cb3908390615490565b6001600160401b031690525060208301515f600f9190910b1215612dcb575f612d16612ce260608d018d615119565b88818110612cf257612cf261515e565b905060200201358560200151612d07906154af565b6001600160801b031690613d73565b9050806001600160401b031684602001818151612d3391906154d3565b600f0b9052507f1487af5418c47ee5ea45ef4a93398668120890774a9e13487e61e9dc3baf76dd612d6760208d018d61450c565b8b612d7560408f018f615119565b8a818110612d8557612d8561515e565b9050602002016020810190612d9a919061450c565b612dab885f01518960200151613a0d565b8860400151604051612dc1959493929190615255565b60405180910390a1505b612e1d612ddb60208c018c61450c565b612de48b6125c6565b612df160408e018e615119565b89818110612e0157612e0161515e565b9050602002016020810190612e16919061450c565b8787613a2c565b7f1487af5418c47ee5ea45ef4a93398668120890774a9e13487e61e9dc3baf76dd612e4b60208c018c61450c565b8a612e5960408e018e615119565b89818110612e6957612e6961515e565b9050602002016020810190612e7e919061450c565b8651604051612e9294939291904390615255565b60405180910390a1612ee3612eaa60208c018c61450c565b612eb760408d018d615119565b88818110612ec757612ec761515e565b9050602002016020810190612edc919061450c565b8651613d9d565b6001600160a01b037f000000000000000000000000000000000000000000000000000000000000000016635ae679a7612f1f60208d018d61450c565b8b8b8e8060400190612f319190615119565b8b818110612f4157612f4161515e565b9050602002016020810190612f56919061450c565b89516040516001600160e01b031960e088901b168152612f7e95949392918991600401615500565b6020604051808303815f875af1158015612f9a573d5f5f3e3d5ffd5b505050506040513d601f19601f82011682018060405250810190612fbe9190615553565b878681518110612fd057612fd061515e565b602002602001018181525050505050505b6001016129d2565b507f80969ad29428d6797ee7aad084f9e4a42a82fc506dcd2ca3b6fb431f85ccebe5613018602087018761450c565b856130266040890189615119565b8561303460808c018c615396565b604051613047979695949392919061556a565b60405180910390a1509250929050565b6040805180820182526001600160a01b038516808252845163ffffffff90811660208085018290525f938452609890529390912091926130989291613c6416565b6130b557604051631fb1705560e21b815260040160405180910390fd5b7f31629285ead2335ae0933f86ed2ae63321f7af77b4e6eaabc42c057880977e6c816040516130e491906151b2565b60405180910390a16001600160a01b038216620e16e414801590613179578260a65f61310f856125c6565b81526020019081526020015f205f6101000a8154816001600160a01b0302191690836001600160a01b031602179055507f90a6fa2a9b79b910872ebca540cf3bd8be827f586e6420c30d8836e30012907e8284604051613170929190615335565b60405180910390a15b5f5b8460200151518110156131b8576131b083866020015183815181106131a2576131a261515e565b6020026020010151846132cd565b60010161317b565b506118f48285604001516001613589565b6001600160a01b038381165f90815260a360209081526040808320938616835292905290812054600f81810b600160801b909204900b035b5f8111801561321357508261ffff1682105b156118f4576001600160a01b038086165f90815260a360209081526040808320938816835292905290812061324790613e1f565b90505f5f613256888489613852565b91509150806040015163ffffffff16431015613274575050506118f4565b6132818884898585613a2c565b6001600160a01b038089165f90815260a360209081526040808320938b168352929052206132ae90613e71565b506132b885615465565b94506132c384615600565b9350505050613201565b801561334f576001600160a01b03821673beac0eeeeeeeeeeeeeeeeeeeeeeeeeeeeeebeac01480159061333257507f00000000000000000000000000000000000000000000000000000000000000006001600160a01b0316826001600160a01b031614155b61334f57604051632711b74d60e11b815260040160405180910390fd5b61335f8260995f611e05876125c6565b61337c5760405163585cfb2f60e01b815260040160405180910390fd5b7f7ab260fe0af193db5f4986770d831bda4ea46099dc817e8b6716dcae8af8e88b8383604051612365929190615335565b6001600160a01b0383165f908152609b60209081526040918290208251608081018452905463ffffffff808216835260ff600160201b830416151593830193909352650100000000008104831693820193909352600160481b9092041660608201819052158015906134295750806060015163ffffffff164310155b1561344357604081015163ffffffff168152600160208201525b63ffffffff8316604082015281156134725763ffffffff808416825260016020830152431660608201526134b3565b61349c7f0000000000000000000000000000000000000000000000000000000000000000436151d4565b6134a79060016151d4565b63ffffffff1660608201525b6001600160a01b0384165f818152609b60209081526040918290208451815486840151878601516060808a015163ffffffff95861664ffffffffff1990951694909417600160201b93151593909302929092176cffffffffffffffff0000000000191665010000000000918516919091026cffffffff000000000000000000191617600160481b92841692830217909355845195865290881692850192909252918301527f4e85751d6331506c6c62335f207eb31f12a61e570f34f5c17640308785c6d4db91015b60405180910390a150505050565b6001600160a01b0382166135b0576040516339b190bb60e11b815260040160405180910390fd5b5f60a75f6135bd866125c6565b815260208082019290925260409081015f20815160608101835281546001600160a01b03908116825260019092015491821693810193909352600160a01b900463ffffffff16908201819052909150158015906136245750806040015163ffffffff164310155b1561363a5760208101516001600160a01b031681525b80602001516001600160a01b0316836001600160a01b03161480156136685750806040015163ffffffff1643105b156136735750505050565b6001600160a01b038316602082015281156136a5576001600160a01b038316815263ffffffff431660408201526136e6565b6136cf7f0000000000000000000000000000000000000000000000000000000000000000436151d4565b6136da9060016151d4565b63ffffffff1660408201525b8060a75f6136f3876125c6565b815260208082019290925260409081015f20835181546001600160a01b039182166001600160a01b031990911617825592840151600190910180549483015163ffffffff16600160a01b026001600160c01b031990951691909316179290921790558181015190517f3873f29d7a65a4d75f5ba28909172f486216a1420e77c3c2720815951a6b4f579161357b9187918791615615565b604051631beb2b9760e31b81526001600160a01b0382811660048301523360248301523060448301525f80356001600160e01b0319166064840152917f00000000000000000000000000000000000000000000000000000000000000009091169063df595cb890608401602060405180830381865afa15801561380f573d5f5f3e3d5ffd5b505050506040513d601f19601f82011682018060405250810190610a0a9190615193565b5f6109498383613eee565b5f610949836001600160a01b038416613eee565b6040805180820182525f80825260208083018290528351606081018552828152808201839052808501839052845180860186526001600160a01b03898116855260a18452868520908816855290925293822092939281906138b290613fd1565b6001600160401b0390811682526001600160a01b038981165f81815260a260209081526040808320948c168084529482528083205486169682019690965291815260a082528481208b8252825284812092815291815290839020835160608101855290549283168152600160401b8304600f0b91810191909152600160c01b90910463ffffffff169181018290529192504310156139545790925090506139b6565b613965815f01518260200151613a0d565b6001600160401b0316815260208101515f600f9190910b12156139a35761399482602001518260200151613a0d565b6001600160401b031660208301525b5f60408201819052602082015290925090505b935093915050565b5f6139cf8460995f612b4a896125c6565b80156139d85750815b80156139ed575082516001600160401b031615155b95945050505050565b5f6109496001600160401b03808516908416615648565b5f610949613a24836001600160401b0386166154d3565b600f0b613fe4565b6020808301516001600160a01b038088165f90815260a284526040808220928816825291909352909120546001600160401b03908116911614613af257602082810180516001600160a01b038881165f81815260a286526040808220938a1680835293875290819020805467ffffffffffffffff19166001600160401b0395861617905593518451918252948101919091529216908201527facf9095feb3a370c9cf692421c69ef320d4db5c66e6a7d29c7694eb02364fc559060600160405180910390a15b6001600160a01b038086165f90815260a060209081526040808320888452825280832093871683529281529082902083518154928501519385015163ffffffff16600160c01b0263ffffffff60c01b196001600160801b038616600160401b026001600160c01b03199095166001600160401b03909316929092179390931716919091179055600f0b15613bd4576001600160a01b0385165f908152609f602090815260408083208784529091529020613bac9084613c6f565b506001600160a01b0385165f908152609d60205260409020613bce9085613c64565b506118f4565b80516001600160401b03165f036118f4576001600160a01b0385165f908152609f602090815260408083208784529091529020613c11908461383e565b506001600160a01b0385165f908152609f602090815260408083208784529091529020613c3d9061404f565b5f036118f4576001600160a01b0385165f908152609d60205260409020610b709085613833565b5f6109498383614058565b5f610949836001600160a01b038416614058565b7f00000000000000000000000000000000000000000000000000000000000000006001600160a01b031663eab66d7a6040518163ffffffff1660e01b8152600401602060405180830381865afa158015613cdf573d5f5f3e3d5ffd5b505050506040513d601f19601f82011682018060405250810190613d039190615675565b6001600160a01b0316336001600160a01b031614610fed5760405163794821ff60e01b815260040160405180910390fd5b365f5f375f5f365f845af43d5f5f3e808015613d4e573d5ff35b3d5ffd5b6001600160a01b0381165f9081526001830160205260408120541515610949565b5f6109498383670de0b6b3a764000060016140a4565b5f61094983670de0b6b3a7640000846140fd565b6001600160a01b038084165f90815260a160209081526040808320938616835292905220613dcc9043836141e2565b604080516001600160a01b038086168252841660208201526001600160401b038316918101919091527f1c6458079a41077d003c11faf9bf097e693bd67979e4e6500bac7b29db779b5c90606001612365565b5f613e398254600f81810b600160801b909204900b131590565b15613e5757604051631ed9509560e11b815260040160405180910390fd5b508054600f0b5f9081526001909101602052604090205490565b5f613e8b8254600f81810b600160801b909204900b131590565b15613ea957604051631ed9509560e11b815260040160405180910390fd5b508054600f0b5f818152600180840160205260408220805492905583546fffffffffffffffffffffffffffffffff191692016001600160801b03169190911790915590565b5f8181526001830160205260408120548015613fc8575f613f1060018361547d565b85549091505f90613f239060019061547d565b9050818114613f82575f865f018281548110613f4157613f4161515e565b905f5260205f200154905080875f018481548110613f6157613f6161515e565b5f918252602080832090910192909255918252600188019052604090208390555b8554869080613f9357613f93615690565b600190038181905f5260205f20015f90559055856001015f8681526020019081526020015f205f905560019350505050610a0a565b5f915050610a0a565b5f610a0a82670de0b6b3a76400006141f6565b5f6001600160401b0382111561404b5760405162461bcd60e51b815260206004820152602660248201527f53616665436173743a2076616c756520646f65736e27742066697420696e203660448201526534206269747360d01b606482015260840161254b565b5090565b5f610a0a825490565b5f81815260018301602052604081205461409d57508154600181810184555f848152602080822090930184905584548482528286019093526040902091909155610a0a565b505f610a0a565b5f5f6140b18686866140fd565b905060018360028111156140c7576140c76156a4565b1480156140e357505f84806140de576140de6156b8565b868809115b156139ed576140f36001826156cc565b9695505050505050565b5f80805f19858709858702925082811083820303915050805f036141345783828161412a5761412a6156b8565b0492505050610949565b80841161417b5760405162461bcd60e51b81526020600482015260156024820152744d6174683a206d756c446976206f766572666c6f7760581b604482015260640161254b565b5f8486880960026001871981018816978890046003810283188082028403028082028403028082028403028082028403028082028403029081029092039091025f889003889004909101858311909403939093029303949094049190911702949350505050565b610fd683836001600160401b03841661423a565b81545f9080156142325761421c8461420f60018461547d565b5f91825260209091200190565b54600160201b90046001600160e01b0316610a06565b509092915050565b825480156142f0575f6142528561420f60018561547d565b60408051808201909152905463ffffffff808216808452600160201b9092046001600160e01b0316602084015291925090851610156142a45760405163151b8e3f60e11b815260040160405180910390fd5b805163ffffffff8086169116036142ee57826142c58661420f60018661547d565b80546001600160e01b0392909216600160201b0263ffffffff9092169190911790555050505050565b505b506040805180820190915263ffffffff92831681526001600160e01b03918216602080830191825285546001810187555f968752952091519051909216600160201b029190921617910155565b634e487b7160e01b5f52604160045260245ffd5b604051606081016001600160401b03811182821017156143735761437361433d565b60405290565b604051601f8201601f191681016001600160401b03811182821017156143a1576143a161433d565b604052919050565b6001600160a01b0381168114612740575f5ffd5b803563ffffffff81168114610a75575f5ffd5b5f604082840312156143e0575f5ffd5b604080519081016001600160401b03811182821017156144025761440261433d565b6040529050808235614413816143a9565b8152614421602084016143bd565b60208201525092915050565b5f6040828403121561443d575f5ffd5b61094983836143d0565b5f5f5f60808486031215614459575f5ffd5b8335614464816143a9565b925061447385602086016143d0565b91506060840135614483816143a9565b809150509250925092565b81516001600160401b03168152602080830151600f0b9082015260408083015163ffffffff169082015260608101610a0a565b5f5f606083850312156144d2575f5ffd5b82356144dd816143a9565b91506144ec84602085016143d0565b90509250929050565b5f60208284031215614505575f5ffd5b5035919050565b5f6020828403121561451c575f5ffd5b8135610949816143a9565b80516001600160a01b0316825260209081015163ffffffff16910152565b5f8151808452602084019350602083015f5b828110156145805761456a868351614527565b6040959095019460209190910190600101614557565b5093949350505050565b602081525f6109496020830184614545565b5f5f83601f8401126145ac575f5ffd5b5081356001600160401b038111156145c2575f5ffd5b6020830191508360208260051b8501011115610d75575f5ffd5b5f5f5f604084860312156145ee575f5ffd5b83356145f9816143a9565b925060208401356001600160401b03811115614613575f5ffd5b61461f8682870161459c565b9497909650939450505050565b5f6001600160401b038211156146445761464461433d565b5060051b60200190565b5f82601f83011261465d575f5ffd5b813561467061466b8261462c565b614379565b8082825260208201915060208360051b860101925085831115614691575f5ffd5b602085015b838110156146b75780356146a9816143a9565b835260209283019201614696565b5095945050505050565b5f5f5f608084860312156146d3575f5ffd5b6146dd85856143d0565b925060408401356001600160401b038111156146f7575f5ffd5b6147038682870161464e565b92505060608401356001600160401b0381111561471e575f5ffd5b61472a8682870161464e565b9150509250925092565b5f8151808452602084019350602083015f5b82811015614580578151865260209586019590910190600101614746565b5f602082016020835280845180835260408501915060408160051b8601019250602086015f5b828110156147bb57603f198786030184526147a6858351614734565b9450602093840193919091019060010161478a565b50929695505050505050565b5f5f5f5f60a085870312156147da575f5ffd5b6147e486866143d0565b935060408501356001600160401b038111156147fe575f5ffd5b61480a8782880161464e565b93505060608501356001600160401b03811115614825575f5ffd5b6148318782880161464e565b925050614840608086016143bd565b905092959194509250565b5f5f5f5f5f6060868803121561485f575f5ffd5b853561486a816143a9565b945060208601356001600160401b03811115614884575f5ffd5b6148908882890161459c565b90955093505060408601356001600160401b038111156148ae575f5ffd5b6148ba8882890161459c565b969995985093965092949392505050565b5f5f604083850312156148dc575f5ffd5b82356148e7816143a9565b915060208301356001600160401b03811115614901575f5ffd5b830160a08186031215614912575f5ffd5b809150509250929050565b828152604060208201525f610b196040830184614734565b5f82601f830112614944575f5ffd5b813561495261466b8261462c565b8082825260208201915060208360051b860101925085831115614973575f5ffd5b602085015b838110156146b75780356001600160401b03811115614995575f5ffd5b86016060818903601f190112156149aa575f5ffd5b6149b2614351565b6149be602083016143bd565b815260408201356001600160401b038111156149d8575f5ffd5b6149e78a60208386010161464e565b602083015250606082013591506149fd826143a9565b6040810191909152835260209283019201614978565b5f5f60408385031215614a24575f5ffd5b8235614a2f816143a9565b915060208301356001600160401b03811115614a49575f5ffd5b614a5585828601614935565b9150509250929050565b5f5f60408385031215614a70575f5ffd5b8235614a7b816143a9565b91506020830135614912816143a9565b5f8151808452602084019350602083015f5b8281101561458057614ad686835180516001600160401b03168252602080820151600f0b9083015260409081015163ffffffff16910152565b6060959095019460209190910190600101614a9d565b604081525f614afe6040830185614545565b82810360208401526139ed8185614a8b565b602080825282518282018190525f918401906040840190835b81811015614b505783516001600160a01b0316835260209384019390920191600101614b29565b509095945050505050565b5f5f5f60408486031215614b6d575f5ffd5b83356001600160401b03811115614b82575f5ffd5b614b8e8682870161459c565b9094509250506020840135614483816143a9565b602080825282518282018190525f918401906040840190835b81811015614b505783516001600160401b0316835260209384019390920191600101614bbb565b5f5f5f5f60608587031215614bf5575f5ffd5b8435614c00816143a9565b9350614c0e602086016143bd565b925060408501356001600160401b03811115614c28575f5ffd5b614c348782880161459c565b95989497509550505050565b5f5f60408385031215614c51575f5ffd5b8235614c5c816143a9565b91506144ec602084016143bd565b5f60208284031215614c7a575f5ffd5b813560ff81168114610949575f5ffd5b5f5f60608385031215614c9b575f5ffd5b614ca584846143d0565b91506040830135614912816143a9565b5f60608284031215614cc5575f5ffd5b50919050565b5f60208284031215614cdb575f5ffd5b81356001600160401b03811115614cf0575f5ffd5b610a0684828501614cb5565b5f5f5f60808486031215614d0e575f5ffd5b83356001600160401b03811115614d23575f5ffd5b614d2f8682870161464e565b93505061447385602086016143d0565b602081525f6109496020830184614a8b565b5f5f5f5f60608587031215614d64575f5ffd5b8435614d6f816143a9565b935060208501356001600160401b03811115614d89575f5ffd5b614d958782880161459c565b90945092506148409050604086016143bd565b5f5f60408385031215614db9575f5ffd5b8235614dc4816143a9565b915060208301356001600160401b03811115614dde575f5ffd5b8301601f81018513614dee575f5ffd5b8035614dfc61466b8261462c565b8082825260208201915060208360051b850101925087831115614e1d575f5ffd5b602084015b83811015614f425780356001600160401b03811115614e3f575f5ffd5b85016080818b03601f19011215614e54575f5ffd5b614e5c614351565b614e698b602084016143d0565b815260608201356001600160401b03811115614e83575f5ffd5b614e928c60208386010161464e565b60208301525060808201356001600160401b03811115614eb0575f5ffd5b6020818401019250508a601f830112614ec7575f5ffd5b8135614ed561466b8261462c565b8082825260208201915060208360051b86010192508d831115614ef6575f5ffd5b6020850194505b82851015614f2c5784356001600160401b0381168114614f1b575f5ffd5b825260209485019490910190614efd565b6040840152505084525060209283019201614e22565b50809450505050509250929050565b5f60208284031215614f61575f5ffd5b81356001600160401b03811115614f76575f5ffd5b8201601f81018413614f86575f5ffd5b8035614f9461466b8261462c565b8082825260208201915060208360061b850101925086831115614fb5575f5ffd5b6020840193505b828410156140f357614fce87856143d0565b8252602082019150604084019350614fbc565b5f5f5f60408486031215614ff3575f5ffd5b8335614ffe816143a9565b925060208401356001600160401b03811115615018575f5ffd5b8401601f81018613615028575f5ffd5b80356001600160401b0381111561503d575f5ffd5b86602082840101111561504e575f5ffd5b939660209190910195509293505050565b5f5f60408385031215615070575f5ffd5b823561507b816143a9565b915060208301356001600160401b03811115615095575f5ffd5b614a5585828601614cb5565b5f5f5f5f606085870312156150b4575f5ffd5b84356150bf816143a9565b935060208501356001600160401b038111156150d9575f5ffd5b6150e587828801614935565b93505060408501356001600160401b03811115614c28575f5ffd5b5f60208284031215615110575f5ffd5b610949826143bd565b5f5f8335601e1984360301811261512e575f5ffd5b8301803591506001600160401b03821115615147575f5ffd5b6020019150600581901b3603821315610d75575f5ffd5b634e487b7160e01b5f52603260045260245ffd5b5f60208284031215615182575f5ffd5b813561ffff81168114610949575f5ffd5b5f602082840312156151a3575f5ffd5b81518015158114610949575f5ffd5b60408101610a0a8284614527565b634e487b7160e01b5f52601160045260245ffd5b63ffffffff8181168382160190811115610a0a57610a0a6151c0565b8183526020830192505f815f5b848110156145805763ffffffff615213836143bd565b16865260209586019591909101906001016151fd565b6001600160a01b038581168252841660208201526060604082018190525f906140f390830184866151f0565b6001600160a01b038616815260c081016152726020830187614527565b6001600160a01b039490941660608201526001600160401b0392909216608083015263ffffffff1660a09091015292915050565b5f602082840312156152b6575f5ffd5b81516001600160401b038111156152cb575f5ffd5b8201601f810184136152db575f5ffd5b80516152e961466b8261462c565b8082825260208201915060208360051b85010192508683111561530a575f5ffd5b6020840193505b828410156140f3578351615324816143a9565b825260209384019390910190615311565b606081016153438285614527565b6001600160a01b039290921660409190910152919050565b81835281816020850137505f828201602090810191909152601f909101601f19169091010190565b602081525f610b1960208301848661535b565b5f5f8335601e198436030181126153ab575f5ffd5b8301803591506001600160401b038211156153c4575f5ffd5b602001915036819003821315610d75575f5ffd5b6001600160a01b038781168252861660208201526080604082018190525f9061540490830186886151f0565b828103606084015261541781858761535b565b9998505050505050505050565b80516020808301519190811015614cc5575f1960209190910360031b1b16919050565b5f8235603e1983360301811261545b575f5ffd5b9190910192915050565b5f60018201615476576154766151c0565b5060010190565b81810381811115610a0a57610a0a6151c0565b6001600160401b038281168282160390811115610a0a57610a0a6151c0565b5f81600f0b60016001607f1b031981036154cb576154cb6151c0565b5f0392915050565b600f81810b9083900b0160016001607f1b03811360016001607f1b031982121715610a0a57610a0a6151c0565b6001600160a01b038716815260e0810161551d6020830188614527565b60608201959095526001600160a01b039390931660808401526001600160401b0391821660a08401521660c09091015292915050565b5f60208284031215615563575f5ffd5b5051919050565b6001600160a01b03881681525f60c08201615588602084018a614527565b60c060608401528690528660e083015f5b888110156155c95782356155ac816143a9565b6001600160a01b0316825260209283019290910190600101615599565b5083810360808501526155dc8188614734565b91505082810360a08401526155f281858761535b565b9a9950505050505050505050565b5f8161560e5761560e6151c0565b505f190190565b608081016156238286614527565b6001600160a01b0393909316604082015263ffffffff91909116606090910152919050565b600f82810b9082900b0360016001607f1b0319811260016001607f1b0382131715610a0a57610a0a6151c0565b5f60208284031215615685575f5ffd5b8151610949816143a9565b634e487b7160e01b5f52603160045260245ffd5b634e487b7160e01b5f52602160045260245ffd5b634e487b7160e01b5f52601260045260245ffd5b80820180821115610a0a57610a0a6151c056fea26469706673582212201718e832fb5ab045e193ee493fb8713607c22b0ff8d8e6ed0425a08e7eb7912d64736f6c634300081e0033",
    "linkReferences": {}
  },
  "methodIdentifiers": {
    "ALLOCATION_CONFIGURATION_DELAY()": "7bc1ef61",
    "DEALLOCATION_DELAY()": "2981eb77",
    "SLASHER_CONFIGURATION_DELAY()": "67aeaa53",
    "addStrategiesToOperatorSet(address,uint32,address[])": "50feea20",
    "clearDeallocationQueue(address,address[],uint16[])": "4b5046ef",
    "createOperatorSets(address,(uint32,address[])[])": "261f84e0",
    "createOperatorSets(address,(uint32,address[],address)[])": "3dff8e7d",
    "createRedistributingOperatorSets(address,(uint32,address[])[],address[])": "32a879e4",
    "createRedistributingOperatorSets(address,(uint32,address[],address)[],address[])": "d1a83f54",
    "delegation()": "df5cf723",
    "deregisterFromOperatorSets((address,address,uint32[]))": "6e3492b5",
    "eigenStrategy()": "db4df761",
    "getAVSRegistrar(address)": "304c10cd",
    "getAllocatableMagnitude(address,address)": "6cfb4481",
    "getAllocatedSets(address)": "15fe5028",
    "getAllocatedStake((address,uint32),address[],address[])": "2b453a9a",
    "getAllocatedStrategies(address,(address,uint32))": "c221d8ae",
    "getAllocation(address,(address,uint32),address)": "10e1b9b8",
    "getAllocationDelay(address)": "b9fbaed1",
    "getAllocations(address[],(address,uint32),address)": "8ce64854",
    "getEncumberedMagnitude(address,address)": "f605ce08",
    "getMaxMagnitude(address,address)": "a9333ec8",
    "getMaxMagnitudes(address,address[])": "547afb87",
    "getMaxMagnitudes(address[],address)": "4a10ffe5",
    "getMaxMagnitudesAtBlock(address,address[],uint32)": "94d7d00c",
    "getMemberCount((address,uint32))": "b2447af7",
    "getMembers((address,uint32))": "6e875dba",
    "getMinimumSlashableStake((address,uint32),address[],address[],uint32)": "2bab2c4a",
    "getOperatorSetCount(address)": "ba1a84e5",
    "getPendingSlasher((address,uint32))": "d7794857",
    "getRedistributionRecipient((address,uint32))": "0f3df50e",
    "getRegisteredSets(address)": "79ae50cd",
    "getSlashCount((address,uint32))": "4cfd2939",
    "getSlasher((address,uint32))": "d4a3fcce",
    "getStrategiesInOperatorSet((address,uint32))": "4177a87c",
    "getStrategyAllocations(address,address)": "40120dab",
    "initialize(uint256)": "fe4b84df",
    "isMemberOfOperatorSet(address,(address,uint32))": "670d3ba2",
    "isOperatorRedistributable(address)": "dc2af692",
    "isOperatorSet((address,uint32))": "260dc758",
    "isOperatorSlashable(address,(address,uint32))": "1352c3e6",
    "isRedistributingOperatorSet((address,uint32))": "f231bd08",
    "migrateSlashers((address,uint32)[])": "957dc50b",
    "modifyAllocations(address,((address,uint32),address[],uint64[])[])": "952899ee",
    "pause(uint256)": "136439dd",
    "pauseAll()": "595c6a67",
    "paused()": "5c975abb",
    "paused(uint8)": "5ac86ab7",
    "pauserRegistry()": "886f1195",
    "permissionController()": "4657e26a",
    "registerForOperatorSets(address,(address,uint32[],bytes))": "adc2e3d9",
    "removeStrategiesFromOperatorSet(address,uint32,address[])": "b66bd989",
    "setAVSRegistrar(address,address)": "d3d96ff4",
    "setAllocationDelay(address,uint32)": "56c483e6",
    "slashOperator(address,(address,uint32,address[],uint256[],string))": "36352057",
    "unpause(uint256)": "fabc1cbc",
    "updateAVSMetadataURI(address,string)": "a9821821",
    "updateSlasher((address,uint32),address)": "6c9d7c58",
    "viewImplementation()": "0b156bb6"
  },
  "id": 140
}