{
  "abi": [
    {
      "type": "constructor",
      "inputs": [
        {
          "name": "_allocationManager",
          "type": "address",
          "internalType": "contract IAllocationManager"
        },
        {
          "name": "_keyRegistrar",
          "type": "address",
          "internalType": "contract IKeyRegistrar"
        },
        {
          "name": "_permissionController",
          "type": "address",
          "internalType": "contract IPermissionController"
        },
        {
          "name": "_pauserRegistry",
          "type": "address",
          "internalType": "contract IPauserRegistry"
        }
      ],
      "stateMutability": "nonpayable"
    },
    {
      "type": "function",
      "name": "addChainIDsToWhitelist",
      "inputs": [
        {
          "name": "chainIDs",
          "type": "uint256[]",
          "internalType": "uint256[]"
        },
        {
          "name": "operatorTableUpdaters",
          "type": "address[]",
          "internalType": "address[]"
        }
      ],
      "outputs": [],
      "stateMutability": "nonpayable"
    },
    {
      "type": "function",
      "name": "allocationManager",
      "inputs": [],
      "outputs": [
        {
          "name": "",
          "type": "address",
          "internalType": "contract IAllocationManager"
        }
      ],
      "stateMutability": "view"
    },
    {
      "type": "function",
      "name": "calculateOperatorTableBytes",
      "inputs": [
        {
          "name": "operatorSet",
          "type": "tuple",
          "internalType": "struct OperatorSet",
          "components": [
            {
              "name": "avs",
              "type": "address",
              "internalType": "address"
            },
            {
              "name": "id",
              "type": "uint32",
              "internalType": "uint32"
            }
          ]
        }
      ],
      "outputs": [
        {
          "name": "",
          "type": "bytes",
          "internalType": "bytes"
        }
      ],
      "stateMutability": "view"
    },
    {
      "type": "function",
      "name": "createGenerationReservation",
      "inputs": [
        {
          "name": "operatorSet",
          "type": "tuple",
          "internalType": "struct OperatorSet",
          "components": [
            {
              "name": "avs",
              "type": "address",
              "internalType": "address"
            },
            {
              "name": "id",
              "type": "uint32",
              "internalType": "uint32"
            }
          ]
        },
        {
          "name": "operatorTableCalculator",
          "type": "address",
          "internalType": "contract IOperatorTableCalculator"
        },
        {
          "name": "config",
          "type": "tuple",
          "internalType": "struct ICrossChainRegistryTypes.OperatorSetConfig",
          "components": [
            {
              "name": "owner",
              "type": "address",
              "internalType": "address"
            },
            {
              "name": "maxStalenessPeriod",
              "type": "uint32",
              "internalType": "uint32"
            }
          ]
        }
      ],
      "outputs": [],
      "stateMutability": "nonpayable"
    },
    {
      "type": "function",
      "name": "getActiveGenerationReservationCount",
      "inputs": [],
      "outputs": [
        {
          "name": "",
          "type": "uint256",
          "internalType": "uint256"
        }
      ],
      "stateMutability": "view"
    },
    {
      "type": "function",
      "name": "getActiveGenerationReservations",
      "inputs": [],
      "outputs": [
        {
          "name": "",
          "type": "tuple[]",
          "internalType": "struct OperatorSet[]",
          "components": [
            {
              "name": "avs",
              "type": "address",
              "internalType": "address"
            },
            {
              "name": "id",
              "type": "uint32",
              "internalType": "uint32"
            }
          ]
        }
      ],
      "stateMutability": "view"
    },
    {
      "type": "function",
      "name": "getActiveGenerationReservationsByRange",
      "inputs": [
        {
          "name": "startIndex",
          "type": "uint256",
          "internalType": "uint256"
        },
        {
          "name": "endIndex",
          "type": "uint256",
          "internalType": "uint256"
        }
      ],
      "outputs": [
        {
          "name": "",
          "type": "tuple[]",
          "internalType": "struct OperatorSet[]",
          "components": [
            {
              "name": "avs",
              "type": "address",
              "internalType": "address"
            },
            {
              "name": "id",
              "type": "uint32",
              "internalType": "uint32"
            }
          ]
        }
      ],
      "stateMutability": "view"
    },
    {
      "type": "function",
      "name": "getOperatorSetConfig",
      "inputs": [
        {
          "name": "operatorSet",
          "type": "tuple",
          "internalType": "struct OperatorSet",
          "components": [
            {
              "name": "avs",
              "type": "address",
              "internalType": "address"
            },
            {
              "name": "id",
              "type": "uint32",
              "internalType": "uint32"
            }
          ]
        }
      ],
      "outputs": [
        {
          "name": "",
          "type": "tuple",
          "internalType": "struct ICrossChainRegistryTypes.OperatorSetConfig",
          "components": [
            {
              "name": "owner",
              "type": "address",
              "internalType": "address"
            },
            {
              "name": "maxStalenessPeriod",
              "type": "uint32",
              "internalType": "uint32"
            }
          ]
        }
      ],
      "stateMutability": "view"
    },
    {
      "type": "function",
      "name": "getOperatorTableCalculator",
      "inputs": [
        {
          "name": "operatorSet",
          "type": "tuple",
          "internalType": "struct OperatorSet",
          "components": [
            {
              "name": "avs",
              "type": "address",
              "internalType": "address"
            },
            {
              "name": "id",
              "type": "uint32",
              "internalType": "uint32"
            }
          ]
        }
      ],
      "outputs": [
        {
          "name": "",
          "type": "address",
          "internalType": "contract IOperatorTableCalculator"
        }
      ],
      "stateMutability": "view"
    },
    {
      "type": "function",
      "name": "getSupportedChains",
      "inputs": [],
      "outputs": [
        {
          "name": "",
          "type": "uint256[]",
          "internalType": "uint256[]"
        },
        {
          "name": "",
          "type": "address[]",
          "internalType": "address[]"
        }
      ],
      "stateMutability": "view"
    },
    {
      "type": "function",
      "name": "getTableUpdateCadence",
      "inputs": [],
      "outputs": [
        {
          "name": "",
          "type": "uint32",
          "internalType": "uint32"
        }
      ],
      "stateMutability": "view"
    },
    {
      "type": "function",
      "name": "hasActiveGenerationReservation",
      "inputs": [
        {
          "name": "operatorSet",
          "type": "tuple",
          "internalType": "struct OperatorSet",
          "components": [
            {
              "name": "avs",
              "type": "address",
              "internalType": "address"
            },
            {
              "name": "id",
              "type": "uint32",
              "internalType": "uint32"
            }
          ]
        }
      ],
      "outputs": [
        {
          "name": "",
          "type": "bool",
          "internalType": "bool"
        }
      ],
      "stateMutability": "view"
    },
    {
      "type": "function",
      "name": "initialize",
      "inputs": [
        {
          "name": "initialOwner",
          "type": "address",
          "internalType": "address"
        },
        {
          "name": "initialTableUpdateCadence",
          "type": "uint32",
          "internalType": "uint32"
        },
        {
          "name": "initialPausedStatus",
          "type": "uint256",
          "internalType": "uint256"
        }
      ],
      "outputs": [],
      "stateMutability": "nonpayable"
    },
    {
      "type": "function",
      "name": "keyRegistrar",
      "inputs": [],
      "outputs": [
        {
          "name": "",
          "type": "address",
          "internalType": "contract IKeyRegistrar"
        }
      ],
      "stateMutability": "view"
    },
    {
      "type": "function",
      "name": "owner",
      "inputs": [],
      "outputs": [
        {
          "name": "",
          "type": "address",
          "internalType": "address"
        }
      ],
      "stateMutability": "view"
    },
    {
      "type": "function",
      "name": "pause",
      "inputs": [
        {
          "name": "newPausedStatus",
          "type": "uint256",
          "internalType": "uint256"
        }
      ],
      "outputs": [],
      "stateMutability": "nonpayable"
    },
    {
      "type": "function",
      "name": "pauseAll",
      "inputs": [],
      "outputs": [],
      "stateMutability": "nonpayable"
    },
    {
      "type": "function",
      "name": "paused",
      "inputs": [
        {
          "name": "index",
          "type": "uint8",
          "internalType": "uint8"
        }
      ],
      "outputs": [
        {
          "name": "",
          "type": "bool",
          "internalType": "bool"
        }
      ],
      "stateMutability": "view"
    },
    {
      "type": "function",
      "name": "paused",
      "inputs": [],
      "outputs": [
        {
          "name": "",
          "type": "uint256",
          "internalType": "uint256"
        }
      ],
      "stateMutability": "view"
    },
    {
      "type": "function",
      "name": "pauserRegistry",
      "inputs": [],
      "outputs": [
        {
          "name": "",
          "type": "address",
          "internalType": "contract IPauserRegistry"
        }
      ],
      "stateMutability": "view"
    },
    {
      "type": "function",
      "name": "permissionController",
      "inputs": [],
      "outputs": [
        {
          "name": "",
          "type": "address",
          "internalType": "contract IPermissionController"
        }
      ],
      "stateMutability": "view"
    },
    {
      "type": "function",
      "name": "removeChainIDsFromWhitelist",
      "inputs": [
        {
          "name": "chainIDs",
          "type": "uint256[]",
          "internalType": "uint256[]"
        }
      ],
      "outputs": [],
      "stateMutability": "nonpayable"
    },
    {
      "type": "function",
      "name": "removeGenerationReservation",
      "inputs": [
        {
          "name": "operatorSet",
          "type": "tuple",
          "internalType": "struct OperatorSet",
          "components": [
            {
              "name": "avs",
              "type": "address",
              "internalType": "address"
            },
            {
              "name": "id",
              "type": "uint32",
              "internalType": "uint32"
            }
          ]
        }
      ],
      "outputs": [],
      "stateMutability": "nonpayable"
    },
    {
      "type": "function",
      "name": "renounceOwnership",
      "inputs": [],
      "outputs": [],
      "stateMutability": "nonpayable"
    },
    {
      "type": "function",
      "name": "setOperatorSetConfig",
      "inputs": [
        {
          "name": "operatorSet",
          "type": "tuple",
          "internalType": "struct OperatorSet",
          "components": [
            {
              "name": "avs",
              "type": "address",
              "internalType": "address"
            },
            {
              "name": "id",
              "type": "uint32",
              "internalType": "uint32"
            }
          ]
        },
        {
          "name": "config",
          "type": "tuple",
          "internalType": "struct ICrossChainRegistryTypes.OperatorSetConfig",
          "components": [
            {
              "name": "owner",
              "type": "address",
              "internalType": "address"
            },
            {
              "name": "maxStalenessPeriod",
              "type": "uint32",
              "internalType": "uint32"
            }
          ]
        }
      ],
      "outputs": [],
      "stateMutability": "nonpayable"
    },
    {
      "type": "function",
      "name": "setOperatorTableCalculator",
      "inputs": [
        {
          "name": "operatorSet",
          "type": "tuple",
          "internalType": "struct OperatorSet",
          "components": [
            {
              "name": "avs",
              "type": "address",
              "internalType": "address"
            },
            {
              "name": "id",
              "type": "uint32",
              "internalType": "uint32"
            }
          ]
        },
        {
          "name": "operatorTableCalculator",
          "type": "address",
          "internalType": "contract IOperatorTableCalculator"
        }
      ],
      "outputs": [],
      "stateMutability": "nonpayable"
    },
    {
      "type": "function",
      "name": "setTableUpdateCadence",
      "inputs": [
        {
          "name": "tableUpdateCadence",
          "type": "uint32",
          "internalType": "uint32"
        }
      ],
      "outputs": [],
      "stateMutability": "nonpayable"
    },
    {
      "type": "function",
      "name": "transferOwnership",
      "inputs": [
        {
          "name": "newOwner",
          "type": "address",
          "internalType": "address"
        }
      ],
      "outputs": [],
      "stateMutability": "nonpayable"
    },
    {
      "type": "function",
      "name": "unpause",
      "inputs": [
        {
          "name": "newPausedStatus",
          "type": "uint256",
          "internalType": "uint256"
        }
      ],
      "outputs": [],
      "stateMutability": "nonpayable"
    },
    {
      "type": "event",
      "name": "ChainIDAddedToWhitelist",
      "inputs": [
        {
          "name": "chainID",
          "type": "uint256",
          "indexed": false,
          "internalType": "uint256"
        },
        {
          "name": "operatorTableUpdater",
          "type": "address",
          "indexed": false,
          "internalType": "address"
        }
      ],
      "anonymous": false
    },
    {
      "type": "event",
      "name": "ChainIDRemovedFromWhitelist",
      "inputs": [
        {
          "name": "chainID",
          "type": "uint256",
          "indexed": false,
          "internalType": "uint256"
        }
      ],
      "anonymous": false
    },
    {
      "type": "event",
      "name": "GenerationReservationCreated",
      "inputs": [
        {
          "name": "operatorSet",
          "type": "tuple",
          "indexed": false,
          "internalType": "struct OperatorSet",
          "components": [
            {
              "name": "avs",
              "type": "address",
              "internalType": "address"
            },
            {
              "name": "id",
              "type": "uint32",
              "internalType": "uint32"
            }
          ]
        }
      ],
      "anonymous": false
    },
    {
      "type": "event",
      "name": "GenerationReservationRemoved",
      "inputs": [
        {
          "name": "operatorSet",
          "type": "tuple",
          "indexed": false,
          "internalType": "struct OperatorSet",
          "components": [
            {
              "name": "avs",
              "type": "address",
              "internalType": "address"
            },
            {
              "name": "id",
              "type": "uint32",
              "internalType": "uint32"
            }
          ]
        }
      ],
      "anonymous": false
    },
    {
      "type": "event",
      "name": "Initialized",
      "inputs": [
        {
          "name": "version",
          "type": "uint8",
          "indexed": false,
          "internalType": "uint8"
        }
      ],
      "anonymous": false
    },
    {
      "type": "event",
      "name": "OperatorSetConfigRemoved",
      "inputs": [
        {
          "name": "operatorSet",
          "type": "tuple",
          "indexed": false,
          "internalType": "struct OperatorSet",
          "components": [
            {
              "name": "avs",
              "type": "address",
              "internalType": "address"
            },
            {
              "name": "id",
              "type": "uint32",
              "internalType": "uint32"
            }
          ]
        }
      ],
      "anonymous": false
    },
    {
      "type": "event",
      "name": "OperatorSetConfigSet",
      "inputs": [
        {
          "name": "operatorSet",
          "type": "tuple",
          "indexed": false,
          "internalType": "struct OperatorSet",
          "components": [
            {
              "name": "avs",
              "type": "address",
              "internalType": "address"
            },
            {
              "name": "id",
              "type": "uint32",
              "internalType": "uint32"
            }
          ]
        },
        {
          "name": "config",
          "type": "tuple",
          "indexed": false,
          "internalType": "struct ICrossChainRegistryTypes.OperatorSetConfig",
          "components": [
            {
              "name": "owner",
              "type": "address",
              "internalType": "address"
            },
            {
              "name": "maxStalenessPeriod",
              "type": "uint32",
              "internalType": "uint32"
            }
          ]
        }
      ],
      "anonymous": false
    },
    {
      "type": "event",
      "name": "OperatorTableCalculatorRemoved",
      "inputs": [
        {
          "name": "operatorSet",
          "type": "tuple",
          "indexed": false,
          "internalType": "struct OperatorSet",
          "components": [
            {
              "name": "avs",
              "type": "address",
              "internalType": "address"
            },
            {
              "name": "id",
              "type": "uint32",
              "internalType": "uint32"
            }
          ]
        }
      ],
      "anonymous": false
    },
    {
      "type": "event",
      "name": "OperatorTableCalculatorSet",
      "inputs": [
        {
          "name": "operatorSet",
          "type": "tuple",
          "indexed": false,
          "internalType": "struct OperatorSet",
          "components": [
            {
              "name": "avs",
              "type": "address",
              "internalType": "address"
            },
            {
              "name": "id",
              "type": "uint32",
              "internalType": "uint32"
            }
          ]
        },
        {
          "name": "operatorTableCalculator",
          "type": "address",
          "indexed": false,
          "internalType": "contract IOperatorTableCalculator"
        }
      ],
      "anonymous": false
    },
    {
      "type": "event",
      "name": "OwnershipTransferred",
      "inputs": [
        {
          "name": "previousOwner",
          "type": "address",
          "indexed": true,
          "internalType": "address"
        },
        {
          "name": "newOwner",
          "type": "address",
          "indexed": true,
          "internalType": "address"
        }
      ],
      "anonymous": false
    },
    {
      "type": "event",
      "name": "Paused",
      "inputs": [
        {
          "name": "account",
          "type": "address",
          "indexed": true,
          "internalType": "address"
        },
        {
          "name": "newPausedStatus",
          "type": "uint256",
          "indexed": false,
          "internalType": "uint256"
        }
      ],
      "anonymous": false
    },
    {
      "type": "event",
      "name": "TableUpdateCadenceSet",
      "inputs": [
        {
          "name": "tableUpdateCadence",
          "type": "uint32",
          "indexed": false,
          "internalType": "uint32"
        }
      ],
      "anonymous": false
    },
    {
      "type": "event",
      "name": "Unpaused",
      "inputs": [
        {
          "name": "account",
          "type": "address",
          "indexed": true,
          "internalType": "address"
        },
        {
          "name": "newPausedStatus",
          "type": "uint256",
          "indexed": false,
          "internalType": "uint256"
        }
      ],
      "anonymous": false
    },
    {
      "type": "error",
      "name": "ArrayLengthMismatch",
      "inputs": []
    },
    {
      "type": "error",
      "name": "ChainIDAlreadyWhitelisted",
      "inputs": []
    },
    {
      "type": "error",
      "name": "ChainIDNotWhitelisted",
      "inputs": []
    },
    {
      "type": "error",
      "name": "CurrentlyPaused",
      "inputs": []
    },
    {
      "type": "error",
      "name": "EmptyChainIDsArray",
      "inputs": []
    },
    {
      "type": "error",
      "name": "GenerationReservationAlreadyExists",
      "inputs": []
    },
    {
      "type": "error",
      "name": "GenerationReservationDoesNotExist",
      "inputs": []
    },
    {
      "type": "error",
      "name": "InputAddressZero",
      "inputs": []
    },
    {
      "type": "error",
      "name": "InvalidChainId",
      "inputs": []
    },
    {
      "type": "error",
      "name": "InvalidEndIndex",
      "inputs": []
    },
    {
      "type": "error",
      "name": "InvalidNewPausedStatus",
      "inputs": []
    },
    {
      "type": "error",
      "name": "InvalidOperatorSet",
      "inputs": []
    },
    {
      "type": "error",
      "name": "InvalidPermissions",
      "inputs": []
    },
    {
      "type": "error",
      "name": "InvalidRange",
      "inputs": []
    },
    {
      "type": "error",
      "name": "InvalidStalenessPeriod",
      "inputs": []
    },
    {
      "type": "error",
      "name": "InvalidTableUpdateCadence",
      "inputs": []
    },
    {
      "type": "error",
      "name": "KeyTypeNotSet",
      "inputs": []
    },
    {
      "type": "error",
      "name": "OnlyPauser",
      "inputs": []
    },
    {
      "type": "error",
      "name": "OnlyUnpauser",
      "inputs": []
    }
  ],
  "bytecode": {
    "object": "0x610100604052348015610010575f5ffd5b506040516125b73803806125b783398101604081905261002f9161015b565b818484836001600160a01b03811661005a576040516339b190bb60e11b815260040160405180910390fd5b6001600160a01b0390811660805291821660a052811660c0521660e05261007f610088565b505050506101b7565b5f54610100900460ff16156100f35760405162461bcd60e51b815260206004820152602760248201527f496e697469616c697a61626c653a20636f6e747261637420697320696e697469604482015266616c697a696e6760c81b606482015260840160405180910390fd5b5f5460ff90811614610142575f805460ff191660ff9081179091556040519081527f7f26b83ff96e1f2b6a682f133852f6798a09c465da95921460cefb38474024989060200160405180910390a15b565b6001600160a01b0381168114610158575f5ffd5b50565b5f5f5f5f6080858703121561016e575f5ffd5b845161017981610144565b602086015190945061018a81610144565b604086015190935061019b81610144565b60608601519092506101ac81610144565b939692955090935050565b60805160a05160c05160e05161238e6102295f395f81816102db0152611a3101525f818161027c015281816109dc015261107001525f81816103db01528181610762015281816108d501528181610b6b0152610fc701525f818161036d015281816116590152611928015261238e5ff3fe608060405234801561000f575f5ffd5b50600436106101c6575f3560e01c8063715018a6116100fe578063ca8aa7c71161009e578063d9a6729e1161006e578063d9a6729e14610438578063dfbd9dfd1461044b578063f2fde38b1461045e578063fabc1cbc14610471575f5ffd5b8063ca8aa7c7146103d6578063d09b978b146103fd578063d504491114610412578063d6db9e2514610425575f5ffd5b80638da5cb5b116100d95780638da5cb5b1461038f578063ac505f4b146103a0578063b186a60e146103b8578063c4bffe2b146103c0575f5ffd5b8063715018a61461034d57806375e4b53914610355578063886f119514610368575f5ffd5b80633ec45c7e11610169578063595c6a6711610144578063595c6a67146102fd5780635ac86ab7146103055780635c975abb146103285780636c55a37f1461033a575f5ffd5b80633ec45c7e1461027757806341ee6d0e146102b65780634657e26a146102d6575f5ffd5b80631ca9142a116101a45780631ca9142a1461020557806321fa7fdc14610218578063277e1e621461024157806336b200de14610254575f5ffd5b806304e98be3146101ca5780630f19aaef146101df578063136439dd146101f2575b5f5ffd5b6101dd6101d8366004611c81565b610484565b005b6101dd6101ed366004611d19565b6105c8565b6101dd610200366004611d55565b6106ee565b6101dd610213366004611d82565b610728565b61022b610226366004611e5b565b61083b565b6040516102389190611e93565b60405180910390f35b6101dd61024f366004611ea1565b61089b565b610267610262366004611e5b565b6109bc565b6040519015158152602001610238565b61029e7f000000000000000000000000000000000000000000000000000000000000000081565b6040516001600160a01b039091168152602001610238565b6102c96102c4366004611ed4565b6109d7565b6040516102389190611f1c565b61029e7f000000000000000000000000000000000000000000000000000000000000000081565b6101dd610b1e565b610267610313366004611f2e565b606654600160ff9092169190911b9081161490565b6066545b604051908152602001610238565b6101dd610348366004611ed4565b610b32565b6101dd610d38565b61029e610363366004611e5b565b610d49565b61029e7f000000000000000000000000000000000000000000000000000000000000000081565b6033546001600160a01b031661029e565b609e5460405163ffffffff9091168152602001610238565b61032c610d75565b6103c8610d85565b604051610238929190611f4e565b61029e7f000000000000000000000000000000000000000000000000000000000000000081565b610405610e9b565b6040516102389190611fd7565b6101dd610420366004612024565b610f8e565b6101dd610433366004612068565b6111b7565b610405610446366004612081565b6111cb565b6101dd6104593660046120a1565b611315565b6101dd61046c3660046120e0565b6113bb565b6101dd61047f366004611d55565b611431565b61048c61149e565b6003610497816114f8565b8382146104b75760405163512509d360e11b815260040160405180910390fd5b5f5b848110156105c0575f8686838181106104d4576104d46120fb565b905060200201359050805f036104fd57604051633d23e4d160e11b815260040160405180910390fd5b61053181868685818110610513576105136120fb565b905060200201602081019061052891906120e0565b609b9190611523565b61054e576040516324bf631b60e11b815260040160405180910390fd5b7f7a0a76d85b582b17996dd7371a407aa7a79b870db8539247fba315c7b6beff6281868685818110610582576105826120fb565b905060200201602081019061059791906120e0565b604080519283526001600160a01b0390911660208301520160405180910390a1506001016104b9565b505050505050565b5f54610100900460ff16158080156105e657505f54600160ff909116105b806105ff5750303b1580156105ff57505f5460ff166001145b6106675760405162461bcd60e51b815260206004820152602e60248201527f496e697469616c697a61626c653a20636f6e747261637420697320616c72656160448201526d191e481a5b9a5d1a585b1a5e995960921b60648201526084015b60405180910390fd5b5f805460ff191660011790558015610688575f805461ff0019166101001790555b61069184611542565b61069a83611593565b6106a382611607565b80156106e8575f805461ff0019169055604051600181527f7f26b83ff96e1f2b6a682f133852f6798a09c465da95921460cefb38474024989060200160405180910390a15b50505050565b6106f6611644565b606654818116811461071b5760405163c61dca5d60e01b815260040160405180910390fd5b61072482611607565b5050565b6001610733816114f8565b61074060208401846120e0565b610749816116e7565b6040516304c1b8eb60e31b815284906001600160a01b037f0000000000000000000000000000000000000000000000000000000000000000169063260dc75890610797908490600401612140565b602060405180830381865afa1580156107b2573d5f5f3e3d5ffd5b505050506040513d601f19601f820116820180604052508101906107d6919061214e565b6107f357604051631fb1705560e21b815260040160405180910390fd5b8461080661026236839003830183611e5b565b61082357604051634d2baea960e11b815260040160405180910390fd5b6105c061083536889003880188611e5b565b8661170d565b604080518082019091525f8082526020820152609a5f61085a84611787565b815260208082019290925260409081015f208151808301909252546001600160a01b0381168252600160a01b900463ffffffff169181019190915292915050565b60026108a6816114f8565b6108b360208401846120e0565b6108bc816116e7565b6040516304c1b8eb60e31b815284906001600160a01b037f0000000000000000000000000000000000000000000000000000000000000000169063260dc7589061090a908490600401612140565b602060405180830381865afa158015610925573d5f5f3e3d5ffd5b505050506040513d601f19601f82011682018060405250810190610949919061214e565b61096657604051631fb1705560e21b815260040160405180910390fd5b8461097961026236839003830183611e5b565b61099657604051634d2baea960e11b815260040160405180910390fd5b6105c06109a836889003880188611e5b565b6109b736889003880188611e5b565b6117ea565b5f6109d16109c983611787565b6097906118b3565b92915050565b6060817f00000000000000000000000000000000000000000000000000000000000000006001600160a01b0316637cffe48c846040518263ffffffff1660e01b8152600401610a269190612140565b602060405180830381865afa158015610a41573d5f5f3e3d5ffd5b505050506040513d601f19601f82011682018060405250810190610a65919061216d565b610a7761022636869003860186611e5b565b610a8961036336879003870187611e5b565b6001600160a01b03166341ee6d0e866040518263ffffffff1660e01b8152600401610ab49190612140565b5f60405180830381865afa158015610ace573d5f5f3e3d5ffd5b505050506040513d5f823e601f3d908101601f19168201604052610af5919081019061218b565b604051602001610b089493929190612233565b6040516020818303038152906040529050919050565b610b26611644565b610b305f19611607565b565b5f610b3c816114f8565b610b4960208301836120e0565b610b52816116e7565b6040516304c1b8eb60e31b815283906001600160a01b037f0000000000000000000000000000000000000000000000000000000000000000169063260dc75890610ba0908490600401612140565b602060405180830381865afa158015610bbb573d5f5f3e3d5ffd5b505050506040513d601f19601f82011682018060405250810190610bdf919061214e565b610bfc57604051631fb1705560e21b815260040160405180910390fd5b83610c0f61026236839003830183611e5b565b610c2c57604051634d2baea960e11b815260040160405180910390fd5b5f610c44610c3f36889003880188611e5b565b611787565b5f818152609960205260409081902080546001600160a01b0319169055519091507fd7811913efd5d98fc7ea0d1fdd022b3d31987815360842d05b1d1cf55578d16a90610c92908890612140565b60405180910390a15f818152609a60205260409081902080546001600160c01b0319169055517f210a1118a869246162804e2a7f21ef808ebd93f4be7ed512014fe29a7a8be02e90610ce5908890612140565b60405180910390a1610cf86097826118ca565b507f4ffdfdd59e9e1e3c301608788f78dd458e61cb8c045ca92b62a7b484c80824fb86604051610d289190612140565b60405180910390a1505050505050565b610d4061149e565b610b305f611542565b5f60995f610d5684611787565b815260208101919091526040015f20546001600160a01b031692915050565b5f610d8060976118d5565b905090565b6060805f610d93609b6118de565b90505f8167ffffffffffffffff811115610daf57610daf611db8565b604051908082528060200260200182016040528015610dd8578160200160208202803683370190505b5090505f8267ffffffffffffffff811115610df557610df5611db8565b604051908082528060200260200182016040528015610e1e578160200160208202803683370190505b5090505f5b83811015610e90575f80610e38609b846118e8565b9150915081858481518110610e4f57610e4f6120fb565b60200260200101818152505080848481518110610e6e57610e6e6120fb565b6001600160a01b03909216602092830291909101909101525050600101610e23565b509094909350915050565b60605f610ea860976118d5565b90505f8167ffffffffffffffff811115610ec457610ec4611db8565b604051908082528060200260200182016040528015610f0857816020015b604080518082019091525f8082526020820152815260200190600190039081610ee25790505b5090505f5b82811015610f87575f610f21609783611905565b90505f610f5d82604080518082019091525f80825260208201525060408051808201909152606082901c815263ffffffff909116602082015290565b905080848481518110610f7257610f726120fb565b60209081029190910101525050600101610f0d565b5092915050565b5f610f98816114f8565b610fa560208501856120e0565b610fae816116e7565b6040516304c1b8eb60e31b815285906001600160a01b037f0000000000000000000000000000000000000000000000000000000000000000169063260dc75890610ffc908490600401612140565b602060405180830381865afa158015611017573d5f5f3e3d5ffd5b505050506040513d601f19601f8201168201806040525081019061103b919061214e565b61105857604051631fb1705560e21b815260040160405180910390fd5b5f604051631f3ff92360e21b81526001600160a01b037f00000000000000000000000000000000000000000000000000000000000000001690637cffe48c906110a5908a90600401612140565b602060405180830381865afa1580156110c0573d5f5f3e3d5ffd5b505050506040513d601f19601f820116820180604052508101906110e4919061216d565b60028111156110f5576110f561221f565b036111135760405163e57cacbd60e01b815260040160405180910390fd5b611130611128610c3f36899003890189611e5b565b609790611910565b61114d57604051631883461560e01b815260040160405180910390fd5b7f4fb6efec7dd60036ce3a7af8d5c48425019daa0fb61eb471a966a7ac2c6fa6a68660405161117c9190612140565b60405180910390a161119661083536889003880188611e5b565b6105c06111a836889003880188611e5b565b6109b736879003870187611e5b565b6111bf61149e565b6111c881611593565b50565b6060818311156111ee5760405163561ce9bb60e01b815260040160405180910390fd5b6111f860976118d5565b821115611218576040516302da361360e61b815260040160405180910390fd5b5f611223848461229f565b90505f8167ffffffffffffffff81111561123f5761123f611db8565b60405190808252806020026020018201604052801561128357816020015b604080518082019091525f808252602082015281526020019060019003908161125d5790505b5090505f5b8281101561130c575f6112a661129e83896122b2565b609790611905565b90505f6112e282604080518082019091525f80825260208201525060408051808201909152606082901c815263ffffffff909116602082015290565b9050808484815181106112f7576112f76120fb565b60209081029190910101525050600101611288565b50949350505050565b61131d61149e565b6003611328816114f8565b5f5b828110156106e8575f848483818110611345576113456120fb565b90506020020135905061136281609b61191b90919063ffffffff16565b61137f5760405163b3f92ba160e01b815260040160405180910390fd5b6040518181527f6824d36084ecf2cd819b137cb5d837cc6e73afce1e0e348c9fdecaa81d0341e59060200160405180910390a15060010161132a565b6113c361149e565b6001600160a01b0381166114285760405162461bcd60e51b815260206004820152602660248201527f4f776e61626c653a206e6577206f776e657220697320746865207a65726f206160448201526564647265737360d01b606482015260840161065e565b6111c881611542565b611439611926565b606654801982198116146114605760405163c61dca5d60e01b815260040160405180910390fd5b606682905560405182815233907f3582d1828e26bf56bd801502bc021ac0bc8afb57c826e4986b45593c8fad389c9060200160405180910390a25050565b6033546001600160a01b03163314610b305760405162461bcd60e51b815260206004820181905260248201527f4f776e61626c653a2063616c6c6572206973206e6f7420746865206f776e6572604482015260640161065e565b606654600160ff83161b908116036111c85760405163840a48d560e01b815260040160405180910390fd5b5f61153884846001600160a01b0385166119d7565b90505b9392505050565b603380546001600160a01b038381166001600160a01b0319831681179093556040519116919082907f8be0079c531659141344cd1fd0a4f28419497f9722a3daafe3b4186f6b6457e0905f90a35050565b5f8163ffffffff16116115b9576040516316d98e1b60e31b815260040160405180910390fd5b609e805463ffffffff191663ffffffff83169081179091556040519081527f4fbcd0cca70015b33db8af4aa4f2bd6fd6c1efa9460b8e2333f252c1467a63279060200160405180910390a150565b606681905560405181815233907fab40a374bc51de372200a8bc981af8c9ecdc08dfdaef0bb6e09f88f3c616ef3d9060200160405180910390a250565b60405163237dfb4760e11b81523360048201527f00000000000000000000000000000000000000000000000000000000000000006001600160a01b0316906346fbf68e90602401602060405180830381865afa1580156116a6573d5f5f3e3d5ffd5b505050506040513d601f19601f820116820180604052508101906116ca919061214e565b610b3057604051631d77d47760e21b815260040160405180910390fd5b6116f0816119f3565b6111c85760405163932d94f760e01b815260040160405180910390fd5b8060995f61171a85611787565b81526020019081526020015f205f6101000a8154816001600160a01b0302191690836001600160a01b031602179055507f7f7ccafd92d20fdb39dee184a0dce002a9da420ed0def461f2a027abc9b3f6df828260405161177b9291906122c5565b60405180910390a15050565b5f815f0151826020015163ffffffff166040516020016117d292919060609290921b6bffffffffffffffffffffffff1916825260a01b6001600160a01b031916601482015260200190565b6040516020818303038152906040526109d1906122eb565b602081015163ffffffff1615806118115750609e54602082015163ffffffff918216911610155b61182e57604051632e46483160e11b815260040160405180910390fd5b80609a5f61183b85611787565b815260208082019290925260409081015f2083518154949093015163ffffffff16600160a01b026001600160c01b03199094166001600160a01b0390931692909217929092179055517f3147846ee526009000671c20380b856a633345691300f82585f90034715cf0e29061177b908490849061230e565b5f818152600183016020526040812054151561153b565b5f61153b8383611a9c565b5f6109d1825490565b5f6109d182611b7f565b5f8080806118f68686611b89565b909450925050505b9250929050565b5f61153b8383611bb2565b5f61153b8383611bd8565b5f61153b8383611c24565b7f00000000000000000000000000000000000000000000000000000000000000006001600160a01b031663eab66d7a6040518163ffffffff1660e01b8152600401602060405180830381865afa158015611982573d5f5f3e3d5ffd5b505050506040513d601f19601f820116820180604052508101906119a69190612329565b6001600160a01b0316336001600160a01b031614610b305760405163794821ff60e01b815260040160405180910390fd5b5f82815260028401602052604081208290556115388484611910565b604051631beb2b9760e31b81526001600160a01b0382811660048301523360248301523060448301525f80356001600160e01b0319166064840152917f00000000000000000000000000000000000000000000000000000000000000009091169063df595cb890608401602060405180830381865afa158015611a78573d5f5f3e3d5ffd5b505050506040513d601f19601f820116820180604052508101906109d1919061214e565b5f8181526001830160205260408120548015611b76575f611abe60018361229f565b85549091505f90611ad19060019061229f565b9050818114611b30575f865f018281548110611aef57611aef6120fb565b905f5260205f200154905080875f018481548110611b0f57611b0f6120fb565b5f918252602080832090910192909255918252600188019052604090208390555b8554869080611b4157611b41612344565b600190038181905f5260205f20015f90559055856001015f8681526020019081526020015f205f9055600193505050506109d1565b5f9150506109d1565b5f6109d1826118d5565b5f8080611b968585611905565b5f81815260029690960160205260409095205494959350505050565b5f825f018281548110611bc757611bc76120fb565b905f5260205f200154905092915050565b5f818152600183016020526040812054611c1d57508154600181810184555f8481526020808220909301849055845484825282860190935260409020919091556109d1565b505f6109d1565b5f818152600283016020526040812081905561153b83836118ca565b5f5f83601f840112611c50575f5ffd5b50813567ffffffffffffffff811115611c67575f5ffd5b6020830191508360208260051b85010111156118fe575f5ffd5b5f5f5f5f60408587031215611c94575f5ffd5b843567ffffffffffffffff811115611caa575f5ffd5b611cb687828801611c40565b909550935050602085013567ffffffffffffffff811115611cd5575f5ffd5b611ce187828801611c40565b95989497509550505050565b6001600160a01b03811681146111c8575f5ffd5b803563ffffffff81168114611d14575f5ffd5b919050565b5f5f5f60608486031215611d2b575f5ffd5b8335611d3681611ced565b9250611d4460208501611d01565b929592945050506040919091013590565b5f60208284031215611d65575f5ffd5b5035919050565b5f60408284031215611d7c575f5ffd5b50919050565b5f5f60608385031215611d93575f5ffd5b611d9d8484611d6c565b91506040830135611dad81611ced565b809150509250929050565b634e487b7160e01b5f52604160045260245ffd5b604051601f8201601f1916810167ffffffffffffffff81118282101715611df557611df5611db8565b604052919050565b5f60408284031215611e0d575f5ffd5b6040805190810167ffffffffffffffff81118282101715611e3057611e30611db8565b6040529050808235611e4181611ced565b8152611e4f60208401611d01565b60208201525092915050565b5f60408284031215611e6b575f5ffd5b61153b8383611dfd565b80516001600160a01b0316825260209081015163ffffffff16910152565b604081016109d18284611e75565b5f5f60808385031215611eb2575f5ffd5b611ebc8484611d6c565b9150611ecb8460408501611d6c565b90509250929050565b5f60408284031215611ee4575f5ffd5b61153b8383611d6c565b5f81518084528060208401602086015e5f602082860101526020601f19601f83011685010191505092915050565b602081525f61153b6020830184611eee565b5f60208284031215611f3e575f5ffd5b813560ff8116811461153b575f5ffd5b604080825283519082018190525f9060208501906060840190835b81811015611f87578351835260209384019390920191600101611f69565b5050838103602080860191909152855180835291810192508501905f5b81811015611fcb5782516001600160a01b0316845260209384019390920191600101611fa4565b50919695505050505050565b602080825282518282018190525f918401906040840190835b8181101561201957612003838551611e75565b6020939093019260409290920191600101611ff0565b509095945050505050565b5f5f5f60a08486031215612036575f5ffd5b6120408585611d6c565b9250604084013561205081611ced565b915061205f8560608601611d6c565b90509250925092565b5f60208284031215612078575f5ffd5b61153b82611d01565b5f5f60408385031215612092575f5ffd5b50508035926020909101359150565b5f5f602083850312156120b2575f5ffd5b823567ffffffffffffffff8111156120c8575f5ffd5b6120d485828601611c40565b90969095509350505050565b5f602082840312156120f0575f5ffd5b813561153b81611ced565b634e487b7160e01b5f52603260045260245ffd5b803561211a81611ced565b6001600160a01b0316825263ffffffff61213660208301611d01565b1660208301525050565b604081016109d1828461210f565b5f6020828403121561215e575f5ffd5b8151801515811461153b575f5ffd5b5f6020828403121561217d575f5ffd5b81516003811061153b575f5ffd5b5f6020828403121561219b575f5ffd5b815167ffffffffffffffff8111156121b1575f5ffd5b8201601f810184136121c1575f5ffd5b805167ffffffffffffffff8111156121db576121db611db8565b6121ee601f8201601f1916602001611dcc565b818152856020838501011115612202575f5ffd5b8160208401602083015e5f91810160200191909152949350505050565b634e487b7160e01b5f52602160045260245ffd5b61223d818661210f565b5f6003851061225a57634e487b7160e01b5f52602160045260245ffd5b84604083015261226d6060830185611e75565b60c060a083015261228160c0830184611eee565b9695505050505050565b634e487b7160e01b5f52601160045260245ffd5b818103818111156109d1576109d161228b565b808201808211156109d1576109d161228b565b606081016122d38285611e75565b6001600160a01b039290921660409190910152919050565b80516020808301519190811015611d7c575f1960209190910360031b1b16919050565b6080810161231c8285611e75565b61153b6040830184611e75565b5f60208284031215612339575f5ffd5b815161153b81611ced565b634e487b7160e01b5f52603160045260245ffdfea2646970667358221220f685f7d0a4d120a72e61d79bc97180016ad68105afbc7344691535eab3af42ca64736f6c634300081e0033",
    "linkReferences": {}
  },
  "methodIdentifiers": {
    "addChainIDsToWhitelist(uint256[],address[])": "04e98be3",
    "allocationManager()": "ca8aa7c7",
    "calculateOperatorTableBytes((address,uint32))": "41ee6d0e",
    "createGenerationReservation((address,uint32),address,(address,uint32))": "d5044911",
    "getActiveGenerationReservationCount()": "b186a60e",
    "getActiveGenerationReservations()": "d09b978b",
    "getActiveGenerationReservationsByRange(uint256,uint256)": "d9a6729e",
    "getOperatorSetConfig((address,uint32))": "21fa7fdc",
    "getOperatorTableCalculator((address,uint32))": "75e4b539",
    "getSupportedChains()": "c4bffe2b",
    "getTableUpdateCadence()": "ac505f4b",
    "hasActiveGenerationReservation((address,uint32))": "36b200de",
    "initialize(address,uint32,uint256)": "0f19aaef",
    "keyRegistrar()": "3ec45c7e",
    "owner()": "8da5cb5b",
    "pause(uint256)": "136439dd",
    "pauseAll()": "595c6a67",
    "paused()": "5c975abb",
    "paused(uint8)": "5ac86ab7",
    "pauserRegistry()": "886f1195",
    "permissionController()": "4657e26a",
    "removeChainIDsFromWhitelist(uint256[])": "dfbd9dfd",
    "removeGenerationReservation((address,uint32))": "6c55a37f",
    "renounceOwnership()": "715018a6",
    "setOperatorSetConfig((address,uint32),(address,uint32))": "277e1e62",
    "setOperatorTableCalculator((address,uint32),address)": "1ca9142a",
    "setTableUpdateCadence(uint32)": "d6db9e25",
    "transferOwnership(address)": "f2fde38b",
    "unpause(uint256)": "fabc1cbc"
  },
  "id": 201
}