{
  "abi": [
    {
      "type": "constructor",
      "inputs": [
        {
          "name": "_permissionController",
          "type": "address",
          "internalType": "contract IPermissionController"
        }
      ],
      "stateMutability": "nonpayable"
    },
    {
      "type": "function",
      "name": "getLatestRelease",
      "inputs": [
        {
          "name": "operatorSet",
          "type": "tuple",
          "internalType": "struct OperatorSet",
          "components": [
            {
              "name": "avs",
              "type": "address",
              "internalType": "address"
            },
            {
              "name": "id",
              "type": "uint32",
              "internalType": "uint32"
            }
          ]
        }
      ],
      "outputs": [
        {
          "name": "",
          "type": "uint256",
          "internalType": "uint256"
        },
        {
          "name": "",
          "type": "tuple",
          "internalType": "struct IReleaseManagerTypes.Release",
          "components": [
            {
              "name": "artifacts",
              "type": "tuple[]",
              "internalType": "struct IReleaseManagerTypes.Artifact[]",
              "components": [
                {
                  "name": "digest",
                  "type": "bytes32",
                  "internalType": "bytes32"
                },
                {
                  "name": "registry",
                  "type": "string",
                  "internalType": "string"
                }
              ]
            },
            {
              "name": "upgradeByTime",
              "type": "uint32",
              "internalType": "uint32"
            }
          ]
        }
      ],
      "stateMutability": "view"
    },
    {
      "type": "function",
      "name": "getLatestUpgradeByTime",
      "inputs": [
        {
          "name": "operatorSet",
          "type": "tuple",
          "internalType": "struct OperatorSet",
          "components": [
            {
              "name": "avs",
              "type": "address",
              "internalType": "address"
            },
            {
              "name": "id",
              "type": "uint32",
              "internalType": "uint32"
            }
          ]
        }
      ],
      "outputs": [
        {
          "name": "",
          "type": "uint32",
          "internalType": "uint32"
        }
      ],
      "stateMutability": "view"
    },
    {
      "type": "function",
      "name": "getMetadataURI",
      "inputs": [
        {
          "name": "operatorSet",
          "type": "tuple",
          "internalType": "struct OperatorSet",
          "components": [
            {
              "name": "avs",
              "type": "address",
              "internalType": "address"
            },
            {
              "name": "id",
              "type": "uint32",
              "internalType": "uint32"
            }
          ]
        }
      ],
      "outputs": [
        {
          "name": "",
          "type": "string",
          "internalType": "string"
        }
      ],
      "stateMutability": "view"
    },
    {
      "type": "function",
      "name": "getRelease",
      "inputs": [
        {
          "name": "operatorSet",
          "type": "tuple",
          "internalType": "struct OperatorSet",
          "components": [
            {
              "name": "avs",
              "type": "address",
              "internalType": "address"
            },
            {
              "name": "id",
              "type": "uint32",
              "internalType": "uint32"
            }
          ]
        },
        {
          "name": "releaseId",
          "type": "uint256",
          "internalType": "uint256"
        }
      ],
      "outputs": [
        {
          "name": "",
          "type": "tuple",
          "internalType": "struct IReleaseManagerTypes.Release",
          "components": [
            {
              "name": "artifacts",
              "type": "tuple[]",
              "internalType": "struct IReleaseManagerTypes.Artifact[]",
              "components": [
                {
                  "name": "digest",
                  "type": "bytes32",
                  "internalType": "bytes32"
                },
                {
                  "name": "registry",
                  "type": "string",
                  "internalType": "string"
                }
              ]
            },
            {
              "name": "upgradeByTime",
              "type": "uint32",
              "internalType": "uint32"
            }
          ]
        }
      ],
      "stateMutability": "view"
    },
    {
      "type": "function",
      "name": "getTotalReleases",
      "inputs": [
        {
          "name": "operatorSet",
          "type": "tuple",
          "internalType": "struct OperatorSet",
          "components": [
            {
              "name": "avs",
              "type": "address",
              "internalType": "address"
            },
            {
              "name": "id",
              "type": "uint32",
              "internalType": "uint32"
            }
          ]
        }
      ],
      "outputs": [
        {
          "name": "",
          "type": "uint256",
          "internalType": "uint256"
        }
      ],
      "stateMutability": "view"
    },
    {
      "type": "function",
      "name": "isValidRelease",
      "inputs": [
        {
          "name": "operatorSet",
          "type": "tuple",
          "internalType": "struct OperatorSet",
          "components": [
            {
              "name": "avs",
              "type": "address",
              "internalType": "address"
            },
            {
              "name": "id",
              "type": "uint32",
              "internalType": "uint32"
            }
          ]
        },
        {
          "name": "releaseId",
          "type": "uint256",
          "internalType": "uint256"
        }
      ],
      "outputs": [
        {
          "name": "",
          "type": "bool",
          "internalType": "bool"
        }
      ],
      "stateMutability": "view"
    },
    {
      "type": "function",
      "name": "permissionController",
      "inputs": [],
      "outputs": [
        {
          "name": "",
          "type": "address",
          "internalType": "contract IPermissionController"
        }
      ],
      "stateMutability": "view"
    },
    {
      "type": "function",
      "name": "publishMetadataURI",
      "inputs": [
        {
          "name": "operatorSet",
          "type": "tuple",
          "internalType": "struct OperatorSet",
          "components": [
            {
              "name": "avs",
              "type": "address",
              "internalType": "address"
            },
            {
              "name": "id",
              "type": "uint32",
              "internalType": "uint32"
            }
          ]
        },
        {
          "name": "metadataURI",
          "type": "string",
          "internalType": "string"
        }
      ],
      "outputs": [],
      "stateMutability": "nonpayable"
    },
    {
      "type": "function",
      "name": "publishRelease",
      "inputs": [
        {
          "name": "operatorSet",
          "type": "tuple",
          "internalType": "struct OperatorSet",
          "components": [
            {
              "name": "avs",
              "type": "address",
              "internalType": "address"
            },
            {
              "name": "id",
              "type": "uint32",
              "internalType": "uint32"
            }
          ]
        },
        {
          "name": "release",
          "type": "tuple",
          "internalType": "struct IReleaseManagerTypes.Release",
          "components": [
            {
              "name": "artifacts",
              "type": "tuple[]",
              "internalType": "struct IReleaseManagerTypes.Artifact[]",
              "components": [
                {
                  "name": "digest",
                  "type": "bytes32",
                  "internalType": "bytes32"
                },
                {
                  "name": "registry",
                  "type": "string",
                  "internalType": "string"
                }
              ]
            },
            {
              "name": "upgradeByTime",
              "type": "uint32",
              "internalType": "uint32"
            }
          ]
        }
      ],
      "outputs": [
        {
          "name": "releaseId",
          "type": "uint256",
          "internalType": "uint256"
        }
      ],
      "stateMutability": "nonpayable"
    },
    {
      "type": "event",
      "name": "Initialized",
      "inputs": [
        {
          "name": "version",
          "type": "uint8",
          "indexed": false,
          "internalType": "uint8"
        }
      ],
      "anonymous": false
    },
    {
      "type": "event",
      "name": "MetadataURIPublished",
      "inputs": [
        {
          "name": "operatorSet",
          "type": "tuple",
          "indexed": true,
          "internalType": "struct OperatorSet",
          "components": [
            {
              "name": "avs",
              "type": "address",
              "internalType": "address"
            },
            {
              "name": "id",
              "type": "uint32",
              "internalType": "uint32"
            }
          ]
        },
        {
          "name": "metadataURI",
          "type": "string",
          "indexed": false,
          "internalType": "string"
        }
      ],
      "anonymous": false
    },
    {
      "type": "event",
      "name": "ReleasePublished",
      "inputs": [
        {
          "name": "operatorSet",
          "type": "tuple",
          "indexed": true,
          "internalType": "struct OperatorSet",
          "components": [
            {
              "name": "avs",
              "type": "address",
              "internalType": "address"
            },
            {
              "name": "id",
              "type": "uint32",
              "internalType": "uint32"
            }
          ]
        },
        {
          "name": "releaseId",
          "type": "uint256",
          "indexed": true,
          "internalType": "uint256"
        },
        {
          "name": "release",
          "type": "tuple",
          "indexed": false,
          "internalType": "struct IReleaseManagerTypes.Release",
          "components": [
            {
              "name": "artifacts",
              "type": "tuple[]",
              "internalType": "struct IReleaseManagerTypes.Artifact[]",
              "components": [
                {
                  "name": "digest",
                  "type": "bytes32",
                  "internalType": "bytes32"
                },
                {
                  "name": "registry",
                  "type": "string",
                  "internalType": "string"
                }
              ]
            },
            {
              "name": "upgradeByTime",
              "type": "uint32",
              "internalType": "uint32"
            }
          ]
        }
      ],
      "anonymous": false
    },
    {
      "type": "error",
      "name": "InvalidMetadataURI",
      "inputs": []
    },
    {
      "type": "error",
      "name": "InvalidPermissions",
      "inputs": []
    },
    {
      "type": "error",
      "name": "InvalidUpgradeByTime",
      "inputs": []
    },
    {
      "type": "error",
      "name": "MustPublishMetadataURI",
      "inputs": []
    },
    {
      "type": "error",
      "name": "NoReleases",
      "inputs": []
    }
  ],
  "bytecode": {
    "object": "0x60a060405234801561000f575f5ffd5b5060405161146238038061146283398101604081905261002e91610105565b6001600160a01b038116608052610043610049565b50610132565b5f54610100900460ff16156100b45760405162461bcd60e51b815260206004820152602760248201527f496e697469616c697a61626c653a20636f6e747261637420697320696e697469604482015266616c697a696e6760c81b606482015260840160405180910390fd5b5f5460ff90811614610103575f805460ff191660ff9081179091556040519081527f7f26b83ff96e1f2b6a682f133852f6798a09c465da95921460cefb38474024989060200160405180910390a15b565b5f60208284031215610115575f5ffd5b81516001600160a01b038116811461012b575f5ffd5b9392505050565b6080516113126101505f395f818160c2015261095a01526113125ff3fe608060405234801561000f575f5ffd5b5060043610610090575f3560e01c806366f409f71161006357806366f409f7146101345780637c09ea8214610155578063a9e0ed6814610168578063b053b56d14610190578063d30eeb88146101b0575f5ffd5b80633acab5fc146100945780634657e26a146100bd5780634840a67c146100fc578063517e406814610111575b5f5ffd5b6100a76100a2366004610a6f565b6101d1565b6040516100b49190610b5b565b60405180910390f35b6100e47f000000000000000000000000000000000000000000000000000000000000000081565b6040516001600160a01b0390911681526020016100b4565b61010f61010a366004610b8a565b610335565b005b61012461011f366004610a6f565b6103f8565b60405190151581526020016100b4565b610147610142366004610c09565b61043a565b6040519081526020016100b4565b610147610163366004610c23565b61045d565b61017b610176366004610c09565b6105b9565b60405163ffffffff90911681526020016100b4565b6101a361019e366004610c09565b61063f565b6040516100b49190610c6f565b6101c36101be366004610c09565b6106e8565b6040516100b4929190610c81565b60408051808201909152606081525f602082015260015f6101f185610890565b81526020019081526020015f20828154811061020f5761020f610ca1565b905f5260205f2090600202016040518060400160405290815f8201805480602002602001604051908101604052809291908181526020015f905b82821015610312578382905f5260205f2090600202016040518060400160405290815f820154815260200160018201805461028390610cb5565b80601f01602080910402602001604051908101604052809291908181526020018280546102af90610cb5565b80156102fa5780601f106102d1576101008083540402835291602001916102fa565b820191905f5260205f20905b8154815290600101906020018083116102dd57829003601f168201915b50505050508152505081526020019060010190610249565b505050908252506001919091015463ffffffff1660209091015290505b92915050565b6103426020840184610ce7565b61034b816108f3565b5f82900361036c57604051630eec403f60e41b815260040160405180910390fd5b828260025f610388610383368a90038a018a610c09565b610890565b81526020019081526020015f2091826103a2929190610d57565b50836040516103b19190610e11565b60405180910390207f209e95fbe8dd14c5e1fbf791ee0a83234f45f20cb85504c7068d5ca0d622458884846040516103ea929190610e70565b60405180910390a250505050565b5f5f6104038461043a565b90505f811161042557604051637a31a0a160e11b815260040160405180910390fd5b610430600182610e97565b9092149392505050565b5f60015f61044784610890565b815260208101919091526040015f205492915050565b5f61046b6020840184610ce7565b610474816108f3565b5f60018161048a61038336899003890189610c09565b81526020019081526020015f20905060025f6104b0878036038101906103839190610c09565b81526020019081526020015f2080546104c890610cb5565b90505f036104e95760405163413e6e5760e11b815260040160405180910390fd5b6104f96040850160208601610eaa565b63ffffffff1615806105205750426105176040860160208701610eaa565b63ffffffff1610155b61053d5760405163325ec75f60e01b815260040160405180910390fd5b80546001810182555f82815260209020909350849060028502016105618282610fe8565b505082856040516105729190610e11565b60405180910390207f2decd15222f7c4a8c3d4d2e14dcfdc5a0b52eb2d4b81796bfd010ee5cd972fd3866040516105a99190611173565b60405180910390a3505092915050565b5f5f60015f6105c785610890565b81526020019081526020015f2090505f8180549050116105fa57604051637a31a0a160e11b815260040160405180910390fd5b80545f9061060a90600190610e97565b905081818154811061061e5761061e610ca1565b5f91825260209091206001600290920201015463ffffffff16949350505050565b606060025f61064d84610890565b81526020019081526020015f20805461066590610cb5565b80601f016020809104026020016040519081016040528092919081815260200182805461069190610cb5565b80156106dc5780601f106106b3576101008083540402835291602001916106dc565b820191905f5260205f20905b8154815290600101906020018083116106bf57829003601f168201915b50505050509050919050565b60408051808201909152606081525f60208201819052905f60015f61070c86610890565b81526020019081526020015f2090505f81805490501161073f57604051637a31a0a160e11b815260040160405180910390fd5b80545f9061074f90600190610e97565b90508082828154811061076457610764610ca1565b905f5260205f209060020201806040518060400160405290815f8201805480602002602001604051908101604052809291908181526020015f905b82821015610868578382905f5260205f2090600202016040518060400160405290815f82015481526020016001820180546107d990610cb5565b80601f016020809104026020016040519081016040528092919081815260200182805461080590610cb5565b80156108505780601f1061082757610100808354040283529160200191610850565b820191905f5260205f20905b81548152906001019060200180831161083357829003601f168201915b5050505050815250508152602001906001019061079f565b505050908252506001919091015463ffffffff16602090910152919791965090945050505050565b5f815f0151826020015163ffffffff166040516020016108db92919060609290921b6bffffffffffffffffffffffff1916825260a01b6001600160a01b031916601482015260200190565b60405160208183030381529060405261032f9061129a565b6108fc8161091c565b6109195760405163932d94f760e01b815260040160405180910390fd5b50565b604051631beb2b9760e31b81526001600160a01b0382811660048301523360248301523060448301525f80356001600160e01b0319166064840152917f00000000000000000000000000000000000000000000000000000000000000009091169063df595cb890608401602060405180830381865afa1580156109a1573d5f5f3e3d5ffd5b505050506040513d601f19601f8201168201806040525081019061032f91906112bd565b634e487b7160e01b5f52604160045260245ffd5b80356001600160a01b03811681146109ef575f5ffd5b919050565b63ffffffff81168114610919575f5ffd5b80356109ef816109f4565b5f60408284031215610a20575f5ffd5b6040516040810181811067ffffffffffffffff82111715610a4357610a436109c5565b604052905080610a52836109d9565b81526020830135610a62816109f4565b6020919091015292915050565b5f5f60608385031215610a80575f5ffd5b610a8a8484610a10565b946040939093013593505050565b5f81518084528060208401602086015e5f602082860101526020601f19601f83011685010191505092915050565b5f6040830182516040855281815180845260608701915060608160051b88010193506020830192505f5b81811015610b3857605f198886030183528351805186526020810151905060406020870152610b226040870182610a98565b9550506020938401939290920191600101610af0565b505050506020830151610b53602086018263ffffffff169052565b509392505050565b602081525f610b6d6020830184610ac6565b9392505050565b5f60408284031215610b84575f5ffd5b50919050565b5f5f5f60608486031215610b9c575f5ffd5b610ba68585610b74565b9250604084013567ffffffffffffffff811115610bc1575f5ffd5b8401601f81018613610bd1575f5ffd5b803567ffffffffffffffff811115610be7575f5ffd5b866020828401011115610bf8575f5ffd5b939660209190910195509293505050565b5f60408284031215610c19575f5ffd5b610b6d8383610a10565b5f5f60608385031215610c34575f5ffd5b610c3e8484610b74565b9150604083013567ffffffffffffffff811115610c59575f5ffd5b610c6585828601610b74565b9150509250929050565b602081525f610b6d6020830184610a98565b828152604060208201525f610c996040830184610ac6565b949350505050565b634e487b7160e01b5f52603260045260245ffd5b600181811c90821680610cc957607f821691505b602082108103610b8457634e487b7160e01b5f52602260045260245ffd5b5f60208284031215610cf7575f5ffd5b610b6d826109d9565b5b81811015610d14575f8155600101610d01565b5050565b601f821115610d5257805f5260205f20601f840160051c81016020851015610d3d5750805b610d4f601f850160051c830182610d00565b50505b505050565b67ffffffffffffffff831115610d6f57610d6f6109c5565b610d8383610d7d8354610cb5565b83610d18565b5f601f841160018114610db4575f8515610d9d5750838201355b5f19600387901b1c1916600186901b178355610d4f565b5f83815260208120601f198716915b82811015610de35786850135825560209485019460019092019101610dc3565b5086821015610dff575f1960f88860031b161c19848701351681555b505060018560011b0183555050505050565b6001600160a01b03610e22836109d9565b1681525f6020830135610e34816109f4565b63ffffffff16602083015250604001919050565b81835281816020850137505f828201602090810191909152601f909101601f19169091010190565b602081525f610c99602083018486610e48565b634e487b7160e01b5f52601160045260245ffd5b8181038181111561032f5761032f610e83565b5f60208284031215610eba575f5ffd5b8135610b6d816109f4565b5f8235603e19833603018112610ed9575f5ffd5b9190910192915050565b81358155600181016020830135601e19843603018112610f01575f5ffd5b8301803567ffffffffffffffff81118015610f1a575f5ffd5b813603602084011315610f2b575f5ffd5b5f905050610f4381610f3d8554610cb5565b85610d18565b5f601f821160018114610f77575f8315610f605750838201602001355b5f19600385901b1c1916600184901b178555610fd3565b5f85815260208120601f198516915b82811015610fa857602085880181013583559485019460019092019101610f86565b5084821015610fc7575f1960f88660031b161c19602085880101351681555b505060018360011b0185555b50505050505050565b5f813561032f816109f4565b8135601e19833603018112610ffb575f5ffd5b8201803567ffffffffffffffff811115611013575f5ffd5b6020820191508060051b360382131561102a575f5ffd5b68010000000000000000811115611043576110436109c5565b825481845580821015611107576001600160ff1b038116811461106857611068610e83565b6001600160ff1b038216821461108057611080610e83565b835f5260205f208160011b81018360011b820191505b80821015611104575f82556001820180546110b090610cb5565b80156110f757601f8111600181146110ca575f83556110f5565b5f838152602090206110e7601f840160051c820160018301610d00565b505f83815260208120818555555b505b5050600282019150611096565b50505b505f8381526020812083915b838110156111445761112e6111288487610ec5565b83610ee3565b6020929092019160029190910190600101611113565b5050505050610d1461115860208401610fdc565b6001830163ffffffff821663ffffffff198254161781555050565b602081525f606082018335601e1985360301811261118f575f5ffd5b840180356020820167ffffffffffffffff8211156111ab575f5ffd5b8160051b8036038213156111bd575f5ffd5b604060208801529382905260809386018401935f908701605e1936869003015b8483101561127757888703607f1901825283358181126111fb575f5ffd5b860160208101358852604081013536829003603e1901811261121b575f5ffd5b0160408101906020013567ffffffffffffffff811115611239575f5ffd5b803603821315611247575f5ffd5b604060208a015261125c60408a018284610e48565b985050506020840193506020820191506001830192506111dd565b50505050505061128960208501610a05565b63ffffffff81166040850152610b53565b80516020808301519190811015610b84575f1960209190910360031b1b16919050565b5f602082840312156112cd575f5ffd5b81518015158114610b6d575f5ffdfea264697066735822122005612e05e63b4f904e703ae970fa68ac728005f1ec5704420bf10d481e10d8da64736f6c634300081e0033",
    "linkReferences": {}
  },
  "methodIdentifiers": {
    "getLatestRelease((address,uint32))": "d30eeb88",
    "getLatestUpgradeByTime((address,uint32))": "a9e0ed68",
    "getMetadataURI((address,uint32))": "b053b56d",
    "getRelease((address,uint32),uint256)": "3acab5fc",
    "getTotalReleases((address,uint32))": "66f409f7",
    "isValidRelease((address,uint32),uint256)": "517e4068",
    "permissionController()": "4657e26a",
    "publishMetadataURI((address,uint32),string)": "4840a67c",
    "publishRelease((address,uint32),((bytes32,string)[],uint32))": "7c09ea82"
  },
  "id": 144
}