{
  "abi": [
    {
      "type": "constructor",
      "inputs": [
        {
          "name": "_strategyManager",
          "type": "address",
          "internalType": "contract IStrategyManager"
        },
        {
          "name": "_pauserRegistry",
          "type": "address",
          "internalType": "contract IPauserRegistry"
        }
      ],
      "stateMutability": "nonpayable"
    },
    {
      "type": "function",
      "name": "blacklistTokens",
      "inputs": [
        {
          "name": "tokens",
          "type": "address[]",
          "internalType": "contract IERC20[]"
        }
      ],
      "outputs": [],
      "stateMutability": "nonpayable"
    },
    {
      "type": "function",
      "name": "deployNewStrategy",
      "inputs": [
        {
          "name": "token",
          "type": "address",
          "internalType": "contract IERC20"
        }
      ],
      "outputs": [
        {
          "name": "newStrategy",
          "type": "address",
          "internalType": "contract IStrategy"
        }
      ],
      "stateMutability": "nonpayable"
    },
    {
      "type": "function",
      "name": "deployedStrategies",
      "inputs": [
        {
          "name": "",
          "type": "address",
          "internalType": "contract IERC20"
        }
      ],
      "outputs": [
        {
          "name": "",
          "type": "address",
          "internalType": "contract IStrategy"
        }
      ],
      "stateMutability": "view"
    },
    {
      "type": "function",
      "name": "initialize",
      "inputs": [
        {
          "name": "_initialOwner",
          "type": "address",
          "internalType": "address"
        },
        {
          "name": "_initialPausedStatus",
          "type": "uint256",
          "internalType": "uint256"
        },
        {
          "name": "_strategyBeacon",
          "type": "address",
          "internalType": "contract IBeacon"
        }
      ],
      "outputs": [],
      "stateMutability": "nonpayable"
    },
    {
      "type": "function",
      "name": "isBlacklisted",
      "inputs": [
        {
          "name": "",
          "type": "address",
          "internalType": "contract IERC20"
        }
      ],
      "outputs": [
        {
          "name": "",
          "type": "bool",
          "internalType": "bool"
        }
      ],
      "stateMutability": "view"
    },
    {
      "type": "function",
      "name": "owner",
      "inputs": [],
      "outputs": [
        {
          "name": "",
          "type": "address",
          "internalType": "address"
        }
      ],
      "stateMutability": "view"
    },
    {
      "type": "function",
      "name": "pause",
      "inputs": [
        {
          "name": "newPausedStatus",
          "type": "uint256",
          "internalType": "uint256"
        }
      ],
      "outputs": [],
      "stateMutability": "nonpayable"
    },
    {
      "type": "function",
      "name": "pauseAll",
      "inputs": [],
      "outputs": [],
      "stateMutability": "nonpayable"
    },
    {
      "type": "function",
      "name": "paused",
      "inputs": [
        {
          "name": "index",
          "type": "uint8",
          "internalType": "uint8"
        }
      ],
      "outputs": [
        {
          "name": "",
          "type": "bool",
          "internalType": "bool"
        }
      ],
      "stateMutability": "view"
    },
    {
      "type": "function",
      "name": "paused",
      "inputs": [],
      "outputs": [
        {
          "name": "",
          "type": "uint256",
          "internalType": "uint256"
        }
      ],
      "stateMutability": "view"
    },
    {
      "type": "function",
      "name": "pauserRegistry",
      "inputs": [],
      "outputs": [
        {
          "name": "",
          "type": "address",
          "internalType": "contract IPauserRegistry"
        }
      ],
      "stateMutability": "view"
    },
    {
      "type": "function",
      "name": "removeStrategiesFromWhitelist",
      "inputs": [
        {
          "name": "strategiesToRemoveFromWhitelist",
          "type": "address[]",
          "internalType": "contract IStrategy[]"
        }
      ],
      "outputs": [],
      "stateMutability": "nonpayable"
    },
    {
      "type": "function",
      "name": "renounceOwnership",
      "inputs": [],
      "outputs": [],
      "stateMutability": "nonpayable"
    },
    {
      "type": "function",
      "name": "strategyBeacon",
      "inputs": [],
      "outputs": [
        {
          "name": "",
          "type": "address",
          "internalType": "contract IBeacon"
        }
      ],
      "stateMutability": "view"
    },
    {
      "type": "function",
      "name": "strategyManager",
      "inputs": [],
      "outputs": [
        {
          "name": "",
          "type": "address",
          "internalType": "contract IStrategyManager"
        }
      ],
      "stateMutability": "view"
    },
    {
      "type": "function",
      "name": "transferOwnership",
      "inputs": [
        {
          "name": "newOwner",
          "type": "address",
          "internalType": "address"
        }
      ],
      "outputs": [],
      "stateMutability": "nonpayable"
    },
    {
      "type": "function",
      "name": "unpause",
      "inputs": [
        {
          "name": "newPausedStatus",
          "type": "uint256",
          "internalType": "uint256"
        }
      ],
      "outputs": [],
      "stateMutability": "nonpayable"
    },
    {
      "type": "function",
      "name": "whitelistStrategies",
      "inputs": [
        {
          "name": "strategiesToWhitelist",
          "type": "address[]",
          "internalType": "contract IStrategy[]"
        }
      ],
      "outputs": [],
      "stateMutability": "nonpayable"
    },
    {
      "type": "event",
      "name": "Initialized",
      "inputs": [
        {
          "name": "version",
          "type": "uint8",
          "indexed": false,
          "internalType": "uint8"
        }
      ],
      "anonymous": false
    },
    {
      "type": "event",
      "name": "OwnershipTransferred",
      "inputs": [
        {
          "name": "previousOwner",
          "type": "address",
          "indexed": true,
          "internalType": "address"
        },
        {
          "name": "newOwner",
          "type": "address",
          "indexed": true,
          "internalType": "address"
        }
      ],
      "anonymous": false
    },
    {
      "type": "event",
      "name": "Paused",
      "inputs": [
        {
          "name": "account",
          "type": "address",
          "indexed": true,
          "internalType": "address"
        },
        {
          "name": "newPausedStatus",
          "type": "uint256",
          "indexed": false,
          "internalType": "uint256"
        }
      ],
      "anonymous": false
    },
    {
      "type": "event",
      "name": "StrategyBeaconModified",
      "inputs": [
        {
          "name": "previousBeacon",
          "type": "address",
          "indexed": false,
          "internalType": "contract IBeacon"
        },
        {
          "name": "newBeacon",
          "type": "address",
          "indexed": false,
          "internalType": "contract IBeacon"
        }
      ],
      "anonymous": false
    },
    {
      "type": "event",
      "name": "StrategySetForToken",
      "inputs": [
        {
          "name": "token",
          "type": "address",
          "indexed": false,
          "internalType": "contract IERC20"
        },
        {
          "name": "strategy",
          "type": "address",
          "indexed": false,
          "internalType": "contract IStrategy"
        }
      ],
      "anonymous": false
    },
    {
      "type": "event",
      "name": "TokenBlacklisted",
      "inputs": [
        {
          "name": "token",
          "type": "address",
          "indexed": false,
          "internalType": "contract IERC20"
        }
      ],
      "anonymous": false
    },
    {
      "type": "event",
      "name": "Unpaused",
      "inputs": [
        {
          "name": "account",
          "type": "address",
          "indexed": true,
          "internalType": "address"
        },
        {
          "name": "newPausedStatus",
          "type": "uint256",
          "indexed": false,
          "internalType": "uint256"
        }
      ],
      "anonymous": false
    },
    {
      "type": "error",
      "name": "AlreadyBlacklisted",
      "inputs": []
    },
    {
      "type": "error",
      "name": "BlacklistedToken",
      "inputs": []
    },
    {
      "type": "error",
      "name": "CurrentlyPaused",
      "inputs": []
    },
    {
      "type": "error",
      "name": "InputAddressZero",
      "inputs": []
    },
    {
      "type": "error",
      "name": "InvalidNewPausedStatus",
      "inputs": []
    },
    {
      "type": "error",
      "name": "OnlyPauser",
      "inputs": []
    },
    {
      "type": "error",
      "name": "OnlyUnpauser",
      "inputs": []
    },
    {
      "type": "error",
      "name": "StrategyAlreadyExists",
      "inputs": []
    }
  ],
  "bytecode": {
    "object": "0x60c060405234801561000f575f5ffd5b506040516118d83803806118d883398101604081905261002e9161014e565b806001600160a01b038116610056576040516339b190bb60e11b815260040160405180910390fd5b6001600160a01b03908116608052821660a052610071610078565b5050610186565b603354610100900460ff16156100e45760405162461bcd60e51b815260206004820152602760248201527f496e697469616c697a61626c653a20636f6e747261637420697320696e697469604482015266616c697a696e6760c81b606482015260840160405180910390fd5b60335460ff90811614610135576033805460ff191660ff9081179091556040519081527f7f26b83ff96e1f2b6a682f133852f6798a09c465da95921460cefb38474024989060200160405180910390a15b565b6001600160a01b038116811461014b575f5ffd5b50565b5f5f6040838503121561015f575f5ffd5b825161016a81610137565b602084015190925061017b81610137565b809150509250929050565b60805160a0516117076101d15f395f81816101420152818161053a01528181610714015281816107b10152610a4901525f818161021501528181610a950152610d0901526117075ff3fe608060405234801561000f575f5ffd5b5060043610610111575f3560e01c8063886f11951161009e578063f0062d9a1161006e578063f0062d9a1461026e578063f2fde38b14610280578063fabc1cbc14610293578063fe38b32d146102a6578063fe575a87146102b9575f5ffd5b8063886f1195146102105780638da5cb5b14610237578063b768ebc914610248578063c350a1b51461025b575f5ffd5b8063595c6a67116100e4578063595c6a67146101a95780635ac86ab7146101b15780635c975abb146101e45780636b9b6229146101f5578063715018a614610208575f5ffd5b8063136439dd1461011557806323103c411461012a57806339b70e381461013d578063581dfd6514610181575b5f5ffd5b610128610123366004610dc5565b6102db565b005b610128610138366004610e24565b610315565b6101647f000000000000000000000000000000000000000000000000000000000000000081565b6040516001600160a01b0390911681526020015b60405180910390f35b61016461018f366004610e77565b60016020525f90815260409020546001600160a01b031681565b6101286105a3565b6101d46101bf366004610e99565b609954600160ff9092169190911b9081161490565b6040519015158152602001610178565b609954604051908152602001610178565b610164610203366004610e77565b6105b7565b610128610781565b6101647f000000000000000000000000000000000000000000000000000000000000000081565b6066546001600160a01b0316610164565b610128610256366004610e24565b610792565b610128610269366004610eb9565b610819565b5f54610164906001600160a01b031681565b61012861028e366004610e77565b610944565b6101286102a1366004610dc5565b6109bd565b6101286102b4366004610e24565b610a2a565b6101d46102c7366004610e77565b60026020525f908152604090205460ff1681565b6102e3610a80565b60995481811681146103085760405163c61dca5d60e01b815260040160405180910390fd5b61031182610b23565b5050565b61031d610b60565b5f8167ffffffffffffffff81111561033757610337610ef8565b604051908082528060200260200182016040528015610360578160200160208202803683370190505b5090505f805b838110156105195760025f86868481811061038357610383610f0c565b90506020020160208101906103989190610e77565b6001600160a01b0316815260208101919091526040015f205460ff16156103d25760405163f53de75f60e01b815260040160405180910390fd5b600160025f8787858181106103e9576103e9610f0c565b90506020020160208101906103fe9190610e77565b6001600160a01b0316815260208101919091526040015f20805460ff19169115159190911790557f75519c51f39873ec0e27dd3bbc09549e4865a113f505393fb9eab5898f6418b385858381811061045857610458610f0c565b905060200201602081019061046d9190610e77565b6040516001600160a01b03909116815260200160405180910390a15f60015f87878581811061049e5761049e610f0c565b90506020020160208101906104b39190610e77565b6001600160a01b03908116825260208201929092526040015f2054169050801561051057808484815181106104ea576104ea610f0c565b6001600160a01b03909216602092830291909101909101528261050c81610f20565b9350505b50600101610366565b50808252801561059d576040516316bb16b760e31b81526001600160a01b037f0000000000000000000000000000000000000000000000000000000000000000169063b5d8b5b89061056f908590600401610f44565b5f604051808303815f87803b158015610586575f5ffd5b505af1158015610598573d5f5f3e3d5ffd5b505050505b50505050565b6105ab610a80565b6105b55f19610b23565b565b5f5f6105c281610bba565b6001600160a01b0383165f9081526002602052604090205460ff16156105fb5760405163091867bd60e11b815260040160405180910390fd5b6001600160a01b038381165f9081526001602052604090205416156106335760405163c45546f760e01b815260040160405180910390fd5b5f8054604080516001600160a01b0387811660248084019190915283518084039091018152604490920183526020820180516001600160e01b031663189acdbd60e31b179052915191909216919061068a90610db8565b610695929190610f8f565b604051809103905ff0801580156106ae573d5f5f3e3d5ffd5b5090506106bb8482610be5565b6040805160018082528183019092525f916020808301908036833701905050905081815f815181106106ef576106ef610f0c565b6001600160a01b039283166020918202929092010152604051632ef047f960e11b81527f000000000000000000000000000000000000000000000000000000000000000090911690635de08ff29061074b908490600401610f44565b5f604051808303815f87803b158015610762575f5ffd5b505af1158015610774573d5f5f3e3d5ffd5b5093979650505050505050565b610789610b60565b6105b55f610c4f565b61079a610b60565b604051632ef047f960e11b81526001600160a01b037f00000000000000000000000000000000000000000000000000000000000000001690635de08ff2906107e89085908590600401610fd3565b5f604051808303815f87803b1580156107ff575f5ffd5b505af1158015610811573d5f5f3e3d5ffd5b505050505050565b603354610100900460ff16158080156108395750603354600160ff909116105b806108535750303b158015610853575060335460ff166001145b6108bb5760405162461bcd60e51b815260206004820152602e60248201527f496e697469616c697a61626c653a20636f6e747261637420697320616c72656160448201526d191e481a5b9a5d1a585b1a5e995960921b60648201526084015b60405180910390fd5b6033805460ff1916600117905580156108de576033805461ff0019166101001790555b6108e784610c4f565b6108f083610b23565b6108f982610ca0565b801561059d576033805461ff0019169055604051600181527f7f26b83ff96e1f2b6a682f133852f6798a09c465da95921460cefb38474024989060200160405180910390a150505050565b61094c610b60565b6001600160a01b0381166109b15760405162461bcd60e51b815260206004820152602660248201527f4f776e61626c653a206e6577206f776e657220697320746865207a65726f206160448201526564647265737360d01b60648201526084016108b2565b6109ba81610c4f565b50565b6109c5610d07565b609954801982198116146109ec5760405163c61dca5d60e01b815260040160405180910390fd5b609982905560405182815233907f3582d1828e26bf56bd801502bc021ac0bc8afb57c826e4986b45593c8fad389c9060200160405180910390a25050565b610a32610b60565b6040516316bb16b760e31b81526001600160a01b037f0000000000000000000000000000000000000000000000000000000000000000169063b5d8b5b8906107e89085908590600401610fd3565b60405163237dfb4760e11b81523360048201527f00000000000000000000000000000000000000000000000000000000000000006001600160a01b0316906346fbf68e90602401602060405180830381865afa158015610ae2573d5f5f3e3d5ffd5b505050506040513d601f19601f82011682018060405250810190610b06919061101f565b6105b557604051631d77d47760e21b815260040160405180910390fd5b609981905560405181815233907fab40a374bc51de372200a8bc981af8c9ecdc08dfdaef0bb6e09f88f3c616ef3d9060200160405180910390a250565b6066546001600160a01b031633146105b55760405162461bcd60e51b815260206004820181905260248201527f4f776e61626c653a2063616c6c6572206973206e6f7420746865206f776e657260448201526064016108b2565b609954600160ff83161b908116036109ba5760405163840a48d560e01b815260040160405180910390fd5b6001600160a01b038281165f8181526001602090815260409182902080546001600160a01b031916948616948517905581519283528201929092527f6852a55230ef089d785bce7ffbf757985de34026df90a87d7b4a6e56f95d251f910160405180910390a15050565b606680546001600160a01b038381166001600160a01b0319831681179093556040519116919082907f8be0079c531659141344cd1fd0a4f28419497f9722a3daafe3b4186f6b6457e0905f90a35050565b5f54604080516001600160a01b03928316815291831660208301527fe21755962a7d7e100b59b9c3e4d4b54085b146313719955efb6a7a25c5c7feee910160405180910390a15f80546001600160a01b0319166001600160a01b0392909216919091179055565b7f00000000000000000000000000000000000000000000000000000000000000006001600160a01b031663eab66d7a6040518163ffffffff1660e01b8152600401602060405180830381865afa158015610d63573d5f5f3e3d5ffd5b505050506040513d601f19601f82011682018060405250810190610d87919061103e565b6001600160a01b0316336001600160a01b0316146105b55760405163794821ff60e01b815260040160405180910390fd5b6106788061105a83390190565b5f60208284031215610dd5575f5ffd5b5035919050565b5f5f83601f840112610dec575f5ffd5b50813567ffffffffffffffff811115610e03575f5ffd5b6020830191508360208260051b8501011115610e1d575f5ffd5b9250929050565b5f5f60208385031215610e35575f5ffd5b823567ffffffffffffffff811115610e4b575f5ffd5b610e5785828601610ddc565b90969095509350505050565b6001600160a01b03811681146109ba575f5ffd5b5f60208284031215610e87575f5ffd5b8135610e9281610e63565b9392505050565b5f60208284031215610ea9575f5ffd5b813560ff81168114610e92575f5ffd5b5f5f5f60608486031215610ecb575f5ffd5b8335610ed681610e63565b9250602084013591506040840135610eed81610e63565b809150509250925092565b634e487b7160e01b5f52604160045260245ffd5b634e487b7160e01b5f52603260045260245ffd5b5f60018201610f3d57634e487b7160e01b5f52601160045260245ffd5b5060010190565b602080825282518282018190525f918401906040840190835b81811015610f845783516001600160a01b0316835260209384019390920191600101610f5d565b509095945050505050565b60018060a01b0383168152604060208201525f82518060408401528060208501606085015e5f606082850101526060601f19601f8301168401019150509392505050565b602080825281018290525f8360408301825b85811015611015578235610ff881610e63565b6001600160a01b0316825260209283019290910190600101610fe5565b5095945050505050565b5f6020828403121561102f575f5ffd5b81518015158114610e92575f5ffd5b5f6020828403121561104e575f5ffd5b8151610e9281610e6356fe6080604052604051610678380380610678833981016040819052610022916103ed565b61002d82825f610034565b5050610513565b61003d836100f1565b6040516001600160a01b038416907f1cf3b03a6cf19fa2baba4df148e9dcabedea7f8a5c07840e207e5c089be95d3e905f90a25f8251118061007c5750805b156100ec576100ea836001600160a01b0316635c60da1b6040518163ffffffff1660e01b8152600401602060405180830381865afa1580156100c0573d5f5f3e3d5ffd5b505050506040513d601f19601f820116820180604052508101906100e491906104af565b83610273565b505b505050565b6001600160a01b0381163b61015b5760405162461bcd60e51b815260206004820152602560248201527f455243313936373a206e657720626561636f6e206973206e6f74206120636f6e6044820152641d1c9858dd60da1b60648201526084015b60405180910390fd5b6101cd816001600160a01b0316635c60da1b6040518163ffffffff1660e01b8152600401602060405180830381865afa15801561019a573d5f5f3e3d5ffd5b505050506040513d601f19601f820116820180604052508101906101be91906104af565b6001600160a01b03163b151590565b6102325760405162461bcd60e51b815260206004820152603060248201527f455243313936373a20626561636f6e20696d706c656d656e746174696f6e206960448201526f1cc81b9bdd08184818dbdb9d1c9858dd60821b6064820152608401610152565b7fa3f0ad74e5423aebfd80d3ef4346578335a9a72aeaee59ff6cb3582b35133d5080546001600160a01b0319166001600160a01b0392909216919091179055565b606061029883836040518060600160405280602781526020016106516027913961029f565b9392505050565b60605f5f856001600160a01b0316856040516102bb91906104c8565b5f60405180830381855af49150503d805f81146102f3576040519150601f19603f3d011682016040523d82523d5f602084013e6102f8565b606091505b50909250905061030a86838387610314565b9695505050505050565b606083156103825782515f0361037b576001600160a01b0385163b61037b5760405162461bcd60e51b815260206004820152601d60248201527f416464726573733a2063616c6c20746f206e6f6e2d636f6e74726163740000006044820152606401610152565b508161038c565b61038c8383610394565b949350505050565b8151156103a45781518083602001fd5b8060405162461bcd60e51b815260040161015291906104de565b80516001600160a01b03811681146103d4575f5ffd5b919050565b634e487b7160e01b5f52604160045260245ffd5b5f5f604083850312156103fe575f5ffd5b610407836103be565b60208401519092506001600160401b03811115610422575f5ffd5b8301601f81018513610432575f5ffd5b80516001600160401b0381111561044b5761044b6103d9565b604051601f8201601f19908116603f011681016001600160401b0381118282101715610479576104796103d9565b604052818152828201602001871015610490575f5ffd5b8160208401602083015e5f602083830101528093505050509250929050565b5f602082840312156104bf575f5ffd5b610298826103be565b5f82518060208501845e5f920191825250919050565b602081525f82518060208401528060208501604085015e5f604082850101526040601f19601f83011684010191505092915050565b610131806105205f395ff3fe608060405236601057600e6013565b005b600e5b601f601b6021565b60b3565b565b5f60527fa3f0ad74e5423aebfd80d3ef4346578335a9a72aeaee59ff6cb3582b35133d50546001600160a01b031690565b6001600160a01b0316635c60da1b6040518163ffffffff1660e01b8152600401602060405180830381865afa158015608c573d5f5f3e3d5ffd5b505050506040513d601f19601f8201168201806040525081019060ae919060d0565b905090565b365f5f375f5f365f845af43d5f5f3e80801560cc573d5ff35b3d5ffd5b5f6020828403121560df575f5ffd5b81516001600160a01b038116811460f4575f5ffd5b939250505056fea26469706673582212207b94aecb5f7696f142cc1acc4dea07c18e8f9d41766baf4a3c001a89adb8a8a764736f6c634300081e0033416464726573733a206c6f772d6c6576656c2064656c65676174652063616c6c206661696c6564a264697066735822122079e99ec0e4da1dd64a17d71556c45401acdb4d52d3fe3ffd913386d5e9055a8064736f6c634300081e0033",
    "linkReferences": {}
  },
  "methodIdentifiers": {
    "blacklistTokens(address[])": "23103c41",
    "deployNewStrategy(address)": "6b9b6229",
    "deployedStrategies(address)": "581dfd65",
    "initialize(address,uint256,address)": "c350a1b5",
    "isBlacklisted(address)": "fe575a87",
    "owner()": "8da5cb5b",
    "pause(uint256)": "136439dd",
    "pauseAll()": "595c6a67",
    "paused()": "5c975abb",
    "paused(uint8)": "5ac86ab7",
    "pauserRegistry()": "886f1195",
    "removeStrategiesFromWhitelist(address[])": "fe38b32d",
    "renounceOwnership()": "715018a6",
    "strategyBeacon()": "f0062d9a",
    "strategyManager()": "39b70e38",
    "transferOwnership(address)": "f2fde38b",
    "unpause(uint256)": "fabc1cbc",
    "whitelistStrategies(address[])": "b768ebc9"
  },
  "id": 221
}