{
  "abi": [
    {
      "type": "constructor",
      "inputs": [
        {
          "name": "_delegation",
          "type": "address",
          "internalType": "contract IDelegationManager"
        },
        {
          "name": "_eigenStrategy",
          "type": "address",
          "internalType": "contract IStrategy"
        },
        {
          "name": "_pauserRegistry",
          "type": "address",
          "internalType": "contract IPauserRegistry"
        },
        {
          "name": "_permissionController",
          "type": "address",
          "internalType": "contract IPermissionController"
        },
        {
          "name": "_DEALLOCATION_DELAY",
          "type": "uint32",
          "internalType": "uint32"
        },
        {
          "name": "_ALLOCATION_CONFIGURATION_DELAY",
          "type": "uint32",
          "internalType": "uint32"
        },
        {
          "name": "_version",
          "type": "string",
          "internalType": "string"
        }
      ],
      "stateMutability": "nonpayable"
    },
    {
      "type": "function",
      "name": "ALLOCATION_CONFIGURATION_DELAY",
      "inputs": [],
      "outputs": [
        {
          "name": "",
          "type": "uint32",
          "internalType": "uint32"
        }
      ],
      "stateMutability": "view"
    },
    {
      "type": "function",
      "name": "DEALLOCATION_DELAY",
      "inputs": [],
      "outputs": [
        {
          "name": "",
          "type": "uint32",
          "internalType": "uint32"
        }
      ],
      "stateMutability": "view"
    },
    {
      "type": "function",
      "name": "addStrategiesToOperatorSet",
      "inputs": [
        {
          "name": "avs",
          "type": "address",
          "internalType": "address"
        },
        {
          "name": "operatorSetId",
          "type": "uint32",
          "internalType": "uint32"
        },
        {
          "name": "strategies",
          "type": "address[]",
          "internalType": "contract IStrategy[]"
        }
      ],
      "outputs": [],
      "stateMutability": "nonpayable"
    },
    {
      "type": "function",
      "name": "clearDeallocationQueue",
      "inputs": [
        {
          "name": "operator",
          "type": "address",
          "internalType": "address"
        },
        {
          "name": "strategies",
          "type": "address[]",
          "internalType": "contract IStrategy[]"
        },
        {
          "name": "numToClear",
          "type": "uint16[]",
          "internalType": "uint16[]"
        }
      ],
      "outputs": [],
      "stateMutability": "nonpayable"
    },
    {
      "type": "function",
      "name": "createOperatorSets",
      "inputs": [
        {
          "name": "avs",
          "type": "address",
          "internalType": "address"
        },
        {
          "name": "params",
          "type": "tuple[]",
          "internalType": "struct IAllocationManagerTypes.CreateSetParams[]",
          "components": [
            {
              "name": "operatorSetId",
              "type": "uint32",
              "internalType": "uint32"
            },
            {
              "name": "strategies",
              "type": "address[]",
              "internalType": "contract IStrategy[]"
            }
          ]
        }
      ],
      "outputs": [],
      "stateMutability": "nonpayable"
    },
    {
      "type": "function",
      "name": "createRedistributingOperatorSets",
      "inputs": [
        {
          "name": "avs",
          "type": "address",
          "internalType": "address"
        },
        {
          "name": "params",
          "type": "tuple[]",
          "internalType": "struct IAllocationManagerTypes.CreateSetParams[]",
          "components": [
            {
              "name": "operatorSetId",
              "type": "uint32",
              "internalType": "uint32"
            },
            {
              "name": "strategies",
              "type": "address[]",
              "internalType": "contract IStrategy[]"
            }
          ]
        },
        {
          "name": "redistributionRecipients",
          "type": "address[]",
          "internalType": "address[]"
        }
      ],
      "outputs": [],
      "stateMutability": "nonpayable"
    },
    {
      "type": "function",
      "name": "delegation",
      "inputs": [],
      "outputs": [
        {
          "name": "",
          "type": "address",
          "internalType": "contract IDelegationManager"
        }
      ],
      "stateMutability": "view"
    },
    {
      "type": "function",
      "name": "deregisterFromOperatorSets",
      "inputs": [
        {
          "name": "params",
          "type": "tuple",
          "internalType": "struct IAllocationManagerTypes.DeregisterParams",
          "components": [
            {
              "name": "operator",
              "type": "address",
              "internalType": "address"
            },
            {
              "name": "avs",
              "type": "address",
              "internalType": "address"
            },
            {
              "name": "operatorSetIds",
              "type": "uint32[]",
              "internalType": "uint32[]"
            }
          ]
        }
      ],
      "outputs": [],
      "stateMutability": "nonpayable"
    },
    {
      "type": "function",
      "name": "eigenStrategy",
      "inputs": [],
      "outputs": [
        {
          "name": "",
          "type": "address",
          "internalType": "contract IStrategy"
        }
      ],
      "stateMutability": "view"
    },
    {
      "type": "function",
      "name": "getAVSRegistrar",
      "inputs": [
        {
          "name": "avs",
          "type": "address",
          "internalType": "address"
        }
      ],
      "outputs": [
        {
          "name": "",
          "type": "address",
          "internalType": "contract IAVSRegistrar"
        }
      ],
      "stateMutability": "view"
    },
    {
      "type": "function",
      "name": "getAllocatableMagnitude",
      "inputs": [
        {
          "name": "operator",
          "type": "address",
          "internalType": "address"
        },
        {
          "name": "strategy",
          "type": "address",
          "internalType": "contract IStrategy"
        }
      ],
      "outputs": [
        {
          "name": "",
          "type": "uint64",
          "internalType": "uint64"
        }
      ],
      "stateMutability": "view"
    },
    {
      "type": "function",
      "name": "getAllocatedSets",
      "inputs": [
        {
          "name": "operator",
          "type": "address",
          "internalType": "address"
        }
      ],
      "outputs": [
        {
          "name": "",
          "type": "tuple[]",
          "internalType": "struct OperatorSet[]",
          "components": [
            {
              "name": "avs",
              "type": "address",
              "internalType": "address"
            },
            {
              "name": "id",
              "type": "uint32",
              "internalType": "uint32"
            }
          ]
        }
      ],
      "stateMutability": "view"
    },
    {
      "type": "function",
      "name": "getAllocatedStake",
      "inputs": [
        {
          "name": "operatorSet",
          "type": "tuple",
          "internalType": "struct OperatorSet",
          "components": [
            {
              "name": "avs",
              "type": "address",
              "internalType": "address"
            },
            {
              "name": "id",
              "type": "uint32",
              "internalType": "uint32"
            }
          ]
        },
        {
          "name": "operators",
          "type": "address[]",
          "internalType": "address[]"
        },
        {
          "name": "strategies",
          "type": "address[]",
          "internalType": "contract IStrategy[]"
        }
      ],
      "outputs": [
        {
          "name": "",
          "type": "uint256[][]",
          "internalType": "uint256[][]"
        }
      ],
      "stateMutability": "view"
    },
    {
      "type": "function",
      "name": "getAllocatedStrategies",
      "inputs": [
        {
          "name": "operator",
          "type": "address",
          "internalType": "address"
        },
        {
          "name": "operatorSet",
          "type": "tuple",
          "internalType": "struct OperatorSet",
          "components": [
            {
              "name": "avs",
              "type": "address",
              "internalType": "address"
            },
            {
              "name": "id",
              "type": "uint32",
              "internalType": "uint32"
            }
          ]
        }
      ],
      "outputs": [
        {
          "name": "",
          "type": "address[]",
          "internalType": "contract IStrategy[]"
        }
      ],
      "stateMutability": "view"
    },
    {
      "type": "function",
      "name": "getAllocation",
      "inputs": [
        {
          "name": "operator",
          "type": "address",
          "internalType": "address"
        },
        {
          "name": "operatorSet",
          "type": "tuple",
          "internalType": "struct OperatorSet",
          "components": [
            {
              "name": "avs",
              "type": "address",
              "internalType": "address"
            },
            {
              "name": "id",
              "type": "uint32",
              "internalType": "uint32"
            }
          ]
        },
        {
          "name": "strategy",
          "type": "address",
          "internalType": "contract IStrategy"
        }
      ],
      "outputs": [
        {
          "name": "",
          "type": "tuple",
          "internalType": "struct IAllocationManagerTypes.Allocation",
          "components": [
            {
              "name": "currentMagnitude",
              "type": "uint64",
              "internalType": "uint64"
            },
            {
              "name": "pendingDiff",
              "type": "int128",
              "internalType": "int128"
            },
            {
              "name": "effectBlock",
              "type": "uint32",
              "internalType": "uint32"
            }
          ]
        }
      ],
      "stateMutability": "view"
    },
    {
      "type": "function",
      "name": "getAllocationDelay",
      "inputs": [
        {
          "name": "operator",
          "type": "address",
          "internalType": "address"
        }
      ],
      "outputs": [
        {
          "name": "",
          "type": "bool",
          "internalType": "bool"
        },
        {
          "name": "",
          "type": "uint32",
          "internalType": "uint32"
        }
      ],
      "stateMutability": "view"
    },
    {
      "type": "function",
      "name": "getAllocations",
      "inputs": [
        {
          "name": "operators",
          "type": "address[]",
          "internalType": "address[]"
        },
        {
          "name": "operatorSet",
          "type": "tuple",
          "internalType": "struct OperatorSet",
          "components": [
            {
              "name": "avs",
              "type": "address",
              "internalType": "address"
            },
            {
              "name": "id",
              "type": "uint32",
              "internalType": "uint32"
            }
          ]
        },
        {
          "name": "strategy",
          "type": "address",
          "internalType": "contract IStrategy"
        }
      ],
      "outputs": [
        {
          "name": "",
          "type": "tuple[]",
          "internalType": "struct IAllocationManagerTypes.Allocation[]",
          "components": [
            {
              "name": "currentMagnitude",
              "type": "uint64",
              "internalType": "uint64"
            },
            {
              "name": "pendingDiff",
              "type": "int128",
              "internalType": "int128"
            },
            {
              "name": "effectBlock",
              "type": "uint32",
              "internalType": "uint32"
            }
          ]
        }
      ],
      "stateMutability": "view"
    },
    {
      "type": "function",
      "name": "getEncumberedMagnitude",
      "inputs": [
        {
          "name": "operator",
          "type": "address",
          "internalType": "address"
        },
        {
          "name": "strategy",
          "type": "address",
          "internalType": "contract IStrategy"
        }
      ],
      "outputs": [
        {
          "name": "",
          "type": "uint64",
          "internalType": "uint64"
        }
      ],
      "stateMutability": "view"
    },
    {
      "type": "function",
      "name": "getMaxMagnitude",
      "inputs": [
        {
          "name": "operator",
          "type": "address",
          "internalType": "address"
        },
        {
          "name": "strategy",
          "type": "address",
          "internalType": "contract IStrategy"
        }
      ],
      "outputs": [
        {
          "name": "",
          "type": "uint64",
          "internalType": "uint64"
        }
      ],
      "stateMutability": "view"
    },
    {
      "type": "function",
      "name": "getMaxMagnitudes",
      "inputs": [
        {
          "name": "operators",
          "type": "address[]",
          "internalType": "address[]"
        },
        {
          "name": "strategy",
          "type": "address",
          "internalType": "contract IStrategy"
        }
      ],
      "outputs": [
        {
          "name": "",
          "type": "uint64[]",
          "internalType": "uint64[]"
        }
      ],
      "stateMutability": "view"
    },
    {
      "type": "function",
      "name": "getMaxMagnitudes",
      "inputs": [
        {
          "name": "operator",
          "type": "address",
          "internalType": "address"
        },
        {
          "name": "strategies",
          "type": "address[]",
          "internalType": "contract IStrategy[]"
        }
      ],
      "outputs": [
        {
          "name": "",
          "type": "uint64[]",
          "internalType": "uint64[]"
        }
      ],
      "stateMutability": "view"
    },
    {
      "type": "function",
      "name": "getMaxMagnitudesAtBlock",
      "inputs": [
        {
          "name": "operator",
          "type": "address",
          "internalType": "address"
        },
        {
          "name": "strategies",
          "type": "address[]",
          "internalType": "contract IStrategy[]"
        },
        {
          "name": "blockNumber",
          "type": "uint32",
          "internalType": "uint32"
        }
      ],
      "outputs": [
        {
          "name": "",
          "type": "uint64[]",
          "internalType": "uint64[]"
        }
      ],
      "stateMutability": "view"
    },
    {
      "type": "function",
      "name": "getMemberCount",
      "inputs": [
        {
          "name": "operatorSet",
          "type": "tuple",
          "internalType": "struct OperatorSet",
          "components": [
            {
              "name": "avs",
              "type": "address",
              "internalType": "address"
            },
            {
              "name": "id",
              "type": "uint32",
              "internalType": "uint32"
            }
          ]
        }
      ],
      "outputs": [
        {
          "name": "",
          "type": "uint256",
          "internalType": "uint256"
        }
      ],
      "stateMutability": "view"
    },
    {
      "type": "function",
      "name": "getMembers",
      "inputs": [
        {
          "name": "operatorSet",
          "type": "tuple",
          "internalType": "struct OperatorSet",
          "components": [
            {
              "name": "avs",
              "type": "address",
              "internalType": "address"
            },
            {
              "name": "id",
              "type": "uint32",
              "internalType": "uint32"
            }
          ]
        }
      ],
      "outputs": [
        {
          "name": "",
          "type": "address[]",
          "internalType": "address[]"
        }
      ],
      "stateMutability": "view"
    },
    {
      "type": "function",
      "name": "getMinimumSlashableStake",
      "inputs": [
        {
          "name": "operatorSet",
          "type": "tuple",
          "internalType": "struct OperatorSet",
          "components": [
            {
              "name": "avs",
              "type": "address",
              "internalType": "address"
            },
            {
              "name": "id",
              "type": "uint32",
              "internalType": "uint32"
            }
          ]
        },
        {
          "name": "operators",
          "type": "address[]",
          "internalType": "address[]"
        },
        {
          "name": "strategies",
          "type": "address[]",
          "internalType": "contract IStrategy[]"
        },
        {
          "name": "futureBlock",
          "type": "uint32",
          "internalType": "uint32"
        }
      ],
      "outputs": [
        {
          "name": "slashableStake",
          "type": "uint256[][]",
          "internalType": "uint256[][]"
        }
      ],
      "stateMutability": "view"
    },
    {
      "type": "function",
      "name": "getOperatorSetCount",
      "inputs": [
        {
          "name": "avs",
          "type": "address",
          "internalType": "address"
        }
      ],
      "outputs": [
        {
          "name": "",
          "type": "uint256",
          "internalType": "uint256"
        }
      ],
      "stateMutability": "view"
    },
    {
      "type": "function",
      "name": "getRedistributionRecipient",
      "inputs": [
        {
          "name": "operatorSet",
          "type": "tuple",
          "internalType": "struct OperatorSet",
          "components": [
            {
              "name": "avs",
              "type": "address",
              "internalType": "address"
            },
            {
              "name": "id",
              "type": "uint32",
              "internalType": "uint32"
            }
          ]
        }
      ],
      "outputs": [
        {
          "name": "",
          "type": "address",
          "internalType": "address"
        }
      ],
      "stateMutability": "view"
    },
    {
      "type": "function",
      "name": "getRegisteredSets",
      "inputs": [
        {
          "name": "operator",
          "type": "address",
          "internalType": "address"
        }
      ],
      "outputs": [
        {
          "name": "",
          "type": "tuple[]",
          "internalType": "struct OperatorSet[]",
          "components": [
            {
              "name": "avs",
              "type": "address",
              "internalType": "address"
            },
            {
              "name": "id",
              "type": "uint32",
              "internalType": "uint32"
            }
          ]
        }
      ],
      "stateMutability": "view"
    },
    {
      "type": "function",
      "name": "getSlashCount",
      "inputs": [
        {
          "name": "operatorSet",
          "type": "tuple",
          "internalType": "struct OperatorSet",
          "components": [
            {
              "name": "avs",
              "type": "address",
              "internalType": "address"
            },
            {
              "name": "id",
              "type": "uint32",
              "internalType": "uint32"
            }
          ]
        }
      ],
      "outputs": [
        {
          "name": "",
          "type": "uint256",
          "internalType": "uint256"
        }
      ],
      "stateMutability": "view"
    },
    {
      "type": "function",
      "name": "getStrategiesInOperatorSet",
      "inputs": [
        {
          "name": "operatorSet",
          "type": "tuple",
          "internalType": "struct OperatorSet",
          "components": [
            {
              "name": "avs",
              "type": "address",
              "internalType": "address"
            },
            {
              "name": "id",
              "type": "uint32",
              "internalType": "uint32"
            }
          ]
        }
      ],
      "outputs": [
        {
          "name": "",
          "type": "address[]",
          "internalType": "contract IStrategy[]"
        }
      ],
      "stateMutability": "view"
    },
    {
      "type": "function",
      "name": "getStrategyAllocations",
      "inputs": [
        {
          "name": "operator",
          "type": "address",
          "internalType": "address"
        },
        {
          "name": "strategy",
          "type": "address",
          "internalType": "contract IStrategy"
        }
      ],
      "outputs": [
        {
          "name": "",
          "type": "tuple[]",
          "internalType": "struct OperatorSet[]",
          "components": [
            {
              "name": "avs",
              "type": "address",
              "internalType": "address"
            },
            {
              "name": "id",
              "type": "uint32",
              "internalType": "uint32"
            }
          ]
        },
        {
          "name": "",
          "type": "tuple[]",
          "internalType": "struct IAllocationManagerTypes.Allocation[]",
          "components": [
            {
              "name": "currentMagnitude",
              "type": "uint64",
              "internalType": "uint64"
            },
            {
              "name": "pendingDiff",
              "type": "int128",
              "internalType": "int128"
            },
            {
              "name": "effectBlock",
              "type": "uint32",
              "internalType": "uint32"
            }
          ]
        }
      ],
      "stateMutability": "view"
    },
    {
      "type": "function",
      "name": "initialize",
      "inputs": [
        {
          "name": "initialPausedStatus",
          "type": "uint256",
          "internalType": "uint256"
        }
      ],
      "outputs": [],
      "stateMutability": "nonpayable"
    },
    {
      "type": "function",
      "name": "isMemberOfOperatorSet",
      "inputs": [
        {
          "name": "operator",
          "type": "address",
          "internalType": "address"
        },
        {
          "name": "operatorSet",
          "type": "tuple",
          "internalType": "struct OperatorSet",
          "components": [
            {
              "name": "avs",
              "type": "address",
              "internalType": "address"
            },
            {
              "name": "id",
              "type": "uint32",
              "internalType": "uint32"
            }
          ]
        }
      ],
      "outputs": [
        {
          "name": "",
          "type": "bool",
          "internalType": "bool"
        }
      ],
      "stateMutability": "view"
    },
    {
      "type": "function",
      "name": "isOperatorRedistributable",
      "inputs": [
        {
          "name": "operator",
          "type": "address",
          "internalType": "address"
        }
      ],
      "outputs": [
        {
          "name": "",
          "type": "bool",
          "internalType": "bool"
        }
      ],
      "stateMutability": "view"
    },
    {
      "type": "function",
      "name": "isOperatorSet",
      "inputs": [
        {
          "name": "operatorSet",
          "type": "tuple",
          "internalType": "struct OperatorSet",
          "components": [
            {
              "name": "avs",
              "type": "address",
              "internalType": "address"
            },
            {
              "name": "id",
              "type": "uint32",
              "internalType": "uint32"
            }
          ]
        }
      ],
      "outputs": [
        {
          "name": "",
          "type": "bool",
          "internalType": "bool"
        }
      ],
      "stateMutability": "view"
    },
    {
      "type": "function",
      "name": "isOperatorSlashable",
      "inputs": [
        {
          "name": "operator",
          "type": "address",
          "internalType": "address"
        },
        {
          "name": "operatorSet",
          "type": "tuple",
          "internalType": "struct OperatorSet",
          "components": [
            {
              "name": "avs",
              "type": "address",
              "internalType": "address"
            },
            {
              "name": "id",
              "type": "uint32",
              "internalType": "uint32"
            }
          ]
        }
      ],
      "outputs": [
        {
          "name": "",
          "type": "bool",
          "internalType": "bool"
        }
      ],
      "stateMutability": "view"
    },
    {
      "type": "function",
      "name": "isRedistributingOperatorSet",
      "inputs": [
        {
          "name": "operatorSet",
          "type": "tuple",
          "internalType": "struct OperatorSet",
          "components": [
            {
              "name": "avs",
              "type": "address",
              "internalType": "address"
            },
            {
              "name": "id",
              "type": "uint32",
              "internalType": "uint32"
            }
          ]
        }
      ],
      "outputs": [
        {
          "name": "",
          "type": "bool",
          "internalType": "bool"
        }
      ],
      "stateMutability": "view"
    },
    {
      "type": "function",
      "name": "modifyAllocations",
      "inputs": [
        {
          "name": "operator",
          "type": "address",
          "internalType": "address"
        },
        {
          "name": "params",
          "type": "tuple[]",
          "internalType": "struct IAllocationManagerTypes.AllocateParams[]",
          "components": [
            {
              "name": "operatorSet",
              "type": "tuple",
              "internalType": "struct OperatorSet",
              "components": [
                {
                  "name": "avs",
                  "type": "address",
                  "internalType": "address"
                },
                {
                  "name": "id",
                  "type": "uint32",
                  "internalType": "uint32"
                }
              ]
            },
            {
              "name": "strategies",
              "type": "address[]",
              "internalType": "contract IStrategy[]"
            },
            {
              "name": "newMagnitudes",
              "type": "uint64[]",
              "internalType": "uint64[]"
            }
          ]
        }
      ],
      "outputs": [],
      "stateMutability": "nonpayable"
    },
    {
      "type": "function",
      "name": "pause",
      "inputs": [
        {
          "name": "newPausedStatus",
          "type": "uint256",
          "internalType": "uint256"
        }
      ],
      "outputs": [],
      "stateMutability": "nonpayable"
    },
    {
      "type": "function",
      "name": "pauseAll",
      "inputs": [],
      "outputs": [],
      "stateMutability": "nonpayable"
    },
    {
      "type": "function",
      "name": "paused",
      "inputs": [
        {
          "name": "index",
          "type": "uint8",
          "internalType": "uint8"
        }
      ],
      "outputs": [
        {
          "name": "",
          "type": "bool",
          "internalType": "bool"
        }
      ],
      "stateMutability": "view"
    },
    {
      "type": "function",
      "name": "paused",
      "inputs": [],
      "outputs": [
        {
          "name": "",
          "type": "uint256",
          "internalType": "uint256"
        }
      ],
      "stateMutability": "view"
    },
    {
      "type": "function",
      "name": "pauserRegistry",
      "inputs": [],
      "outputs": [
        {
          "name": "",
          "type": "address",
          "internalType": "contract IPauserRegistry"
        }
      ],
      "stateMutability": "view"
    },
    {
      "type": "function",
      "name": "permissionController",
      "inputs": [],
      "outputs": [
        {
          "name": "",
          "type": "address",
          "internalType": "contract IPermissionController"
        }
      ],
      "stateMutability": "view"
    },
    {
      "type": "function",
      "name": "registerForOperatorSets",
      "inputs": [
        {
          "name": "operator",
          "type": "address",
          "internalType": "address"
        },
        {
          "name": "params",
          "type": "tuple",
          "internalType": "struct IAllocationManagerTypes.RegisterParams",
          "components": [
            {
              "name": "avs",
              "type": "address",
              "internalType": "address"
            },
            {
              "name": "operatorSetIds",
              "type": "uint32[]",
              "internalType": "uint32[]"
            },
            {
              "name": "data",
              "type": "bytes",
              "internalType": "bytes"
            }
          ]
        }
      ],
      "outputs": [],
      "stateMutability": "nonpayable"
    },
    {
      "type": "function",
      "name": "removeStrategiesFromOperatorSet",
      "inputs": [
        {
          "name": "avs",
          "type": "address",
          "internalType": "address"
        },
        {
          "name": "operatorSetId",
          "type": "uint32",
          "internalType": "uint32"
        },
        {
          "name": "strategies",
          "type": "address[]",
          "internalType": "contract IStrategy[]"
        }
      ],
      "outputs": [],
      "stateMutability": "nonpayable"
    },
    {
      "type": "function",
      "name": "setAVSRegistrar",
      "inputs": [
        {
          "name": "avs",
          "type": "address",
          "internalType": "address"
        },
        {
          "name": "registrar",
          "type": "address",
          "internalType": "contract IAVSRegistrar"
        }
      ],
      "outputs": [],
      "stateMutability": "nonpayable"
    },
    {
      "type": "function",
      "name": "setAllocationDelay",
      "inputs": [
        {
          "name": "operator",
          "type": "address",
          "internalType": "address"
        },
        {
          "name": "delay",
          "type": "uint32",
          "internalType": "uint32"
        }
      ],
      "outputs": [],
      "stateMutability": "nonpayable"
    },
    {
      "type": "function",
      "name": "slashOperator",
      "inputs": [
        {
          "name": "avs",
          "type": "address",
          "internalType": "address"
        },
        {
          "name": "params",
          "type": "tuple",
          "internalType": "struct IAllocationManagerTypes.SlashingParams",
          "components": [
            {
              "name": "operator",
              "type": "address",
              "internalType": "address"
            },
            {
              "name": "operatorSetId",
              "type": "uint32",
              "internalType": "uint32"
            },
            {
              "name": "strategies",
              "type": "address[]",
              "internalType": "contract IStrategy[]"
            },
            {
              "name": "wadsToSlash",
              "type": "uint256[]",
              "internalType": "uint256[]"
            },
            {
              "name": "description",
              "type": "string",
              "internalType": "string"
            }
          ]
        }
      ],
      "outputs": [
        {
          "name": "",
          "type": "uint256",
          "internalType": "uint256"
        },
        {
          "name": "",
          "type": "uint256[]",
          "internalType": "uint256[]"
        }
      ],
      "stateMutability": "nonpayable"
    },
    {
      "type": "function",
      "name": "unpause",
      "inputs": [
        {
          "name": "newPausedStatus",
          "type": "uint256",
          "internalType": "uint256"
        }
      ],
      "outputs": [],
      "stateMutability": "nonpayable"
    },
    {
      "type": "function",
      "name": "updateAVSMetadataURI",
      "inputs": [
        {
          "name": "avs",
          "type": "address",
          "internalType": "address"
        },
        {
          "name": "metadataURI",
          "type": "string",
          "internalType": "string"
        }
      ],
      "outputs": [],
      "stateMutability": "nonpayable"
    },
    {
      "type": "function",
      "name": "version",
      "inputs": [],
      "outputs": [
        {
          "name": "",
          "type": "string",
          "internalType": "string"
        }
      ],
      "stateMutability": "view"
    },
    {
      "type": "event",
      "name": "AVSMetadataURIUpdated",
      "inputs": [
        {
          "name": "avs",
          "type": "address",
          "indexed": true,
          "internalType": "address"
        },
        {
          "name": "metadataURI",
          "type": "string",
          "indexed": false,
          "internalType": "string"
        }
      ],
      "anonymous": false
    },
    {
      "type": "event",
      "name": "AVSRegistrarSet",
      "inputs": [
        {
          "name": "avs",
          "type": "address",
          "indexed": false,
          "internalType": "address"
        },
        {
          "name": "registrar",
          "type": "address",
          "indexed": false,
          "internalType": "contract IAVSRegistrar"
        }
      ],
      "anonymous": false
    },
    {
      "type": "event",
      "name": "AllocationDelaySet",
      "inputs": [
        {
          "name": "operator",
          "type": "address",
          "indexed": false,
          "internalType": "address"
        },
        {
          "name": "delay",
          "type": "uint32",
          "indexed": false,
          "internalType": "uint32"
        },
        {
          "name": "effectBlock",
          "type": "uint32",
          "indexed": false,
          "internalType": "uint32"
        }
      ],
      "anonymous": false
    },
    {
      "type": "event",
      "name": "AllocationUpdated",
      "inputs": [
        {
          "name": "operator",
          "type": "address",
          "indexed": false,
          "internalType": "address"
        },
        {
          "name": "operatorSet",
          "type": "tuple",
          "indexed": false,
          "internalType": "struct OperatorSet",
          "components": [
            {
              "name": "avs",
              "type": "address",
              "internalType": "address"
            },
            {
              "name": "id",
              "type": "uint32",
              "internalType": "uint32"
            }
          ]
        },
        {
          "name": "strategy",
          "type": "address",
          "indexed": false,
          "internalType": "contract IStrategy"
        },
        {
          "name": "magnitude",
          "type": "uint64",
          "indexed": false,
          "internalType": "uint64"
        },
        {
          "name": "effectBlock",
          "type": "uint32",
          "indexed": false,
          "internalType": "uint32"
        }
      ],
      "anonymous": false
    },
    {
      "type": "event",
      "name": "EncumberedMagnitudeUpdated",
      "inputs": [
        {
          "name": "operator",
          "type": "address",
          "indexed": false,
          "internalType": "address"
        },
        {
          "name": "strategy",
          "type": "address",
          "indexed": false,
          "internalType": "contract IStrategy"
        },
        {
          "name": "encumberedMagnitude",
          "type": "uint64",
          "indexed": false,
          "internalType": "uint64"
        }
      ],
      "anonymous": false
    },
    {
      "type": "event",
      "name": "Initialized",
      "inputs": [
        {
          "name": "version",
          "type": "uint8",
          "indexed": false,
          "internalType": "uint8"
        }
      ],
      "anonymous": false
    },
    {
      "type": "event",
      "name": "MaxMagnitudeUpdated",
      "inputs": [
        {
          "name": "operator",
          "type": "address",
          "indexed": false,
          "internalType": "address"
        },
        {
          "name": "strategy",
          "type": "address",
          "indexed": false,
          "internalType": "contract IStrategy"
        },
        {
          "name": "maxMagnitude",
          "type": "uint64",
          "indexed": false,
          "internalType": "uint64"
        }
      ],
      "anonymous": false
    },
    {
      "type": "event",
      "name": "OperatorAddedToOperatorSet",
      "inputs": [
        {
          "name": "operator",
          "type": "address",
          "indexed": true,
          "internalType": "address"
        },
        {
          "name": "operatorSet",
          "type": "tuple",
          "indexed": false,
          "internalType": "struct OperatorSet",
          "components": [
            {
              "name": "avs",
              "type": "address",
              "internalType": "address"
            },
            {
              "name": "id",
              "type": "uint32",
              "internalType": "uint32"
            }
          ]
        }
      ],
      "anonymous": false
    },
    {
      "type": "event",
      "name": "OperatorRemovedFromOperatorSet",
      "inputs": [
        {
          "name": "operator",
          "type": "address",
          "indexed": true,
          "internalType": "address"
        },
        {
          "name": "operatorSet",
          "type": "tuple",
          "indexed": false,
          "internalType": "struct OperatorSet",
          "components": [
            {
              "name": "avs",
              "type": "address",
              "internalType": "address"
            },
            {
              "name": "id",
              "type": "uint32",
              "internalType": "uint32"
            }
          ]
        }
      ],
      "anonymous": false
    },
    {
      "type": "event",
      "name": "OperatorSetCreated",
      "inputs": [
        {
          "name": "operatorSet",
          "type": "tuple",
          "indexed": false,
          "internalType": "struct OperatorSet",
          "components": [
            {
              "name": "avs",
              "type": "address",
              "internalType": "address"
            },
            {
              "name": "id",
              "type": "uint32",
              "internalType": "uint32"
            }
          ]
        }
      ],
      "anonymous": false
    },
    {
      "type": "event",
      "name": "OperatorSlashed",
      "inputs": [
        {
          "name": "operator",
          "type": "address",
          "indexed": false,
          "internalType": "address"
        },
        {
          "name": "operatorSet",
          "type": "tuple",
          "indexed": false,
          "internalType": "struct OperatorSet",
          "components": [
            {
              "name": "avs",
              "type": "address",
              "internalType": "address"
            },
            {
              "name": "id",
              "type": "uint32",
              "internalType": "uint32"
            }
          ]
        },
        {
          "name": "strategies",
          "type": "address[]",
          "indexed": false,
          "internalType": "contract IStrategy[]"
        },
        {
          "name": "wadSlashed",
          "type": "uint256[]",
          "indexed": false,
          "internalType": "uint256[]"
        },
        {
          "name": "description",
          "type": "string",
          "indexed": false,
          "internalType": "string"
        }
      ],
      "anonymous": false
    },
    {
      "type": "event",
      "name": "Paused",
      "inputs": [
        {
          "name": "account",
          "type": "address",
          "indexed": true,
          "internalType": "address"
        },
        {
          "name": "newPausedStatus",
          "type": "uint256",
          "indexed": false,
          "internalType": "uint256"
        }
      ],
      "anonymous": false
    },
    {
      "type": "event",
      "name": "RedistributionAddressSet",
      "inputs": [
        {
          "name": "operatorSet",
          "type": "tuple",
          "indexed": false,
          "internalType": "struct OperatorSet",
          "components": [
            {
              "name": "avs",
              "type": "address",
              "internalType": "address"
            },
            {
              "name": "id",
              "type": "uint32",
              "internalType": "uint32"
            }
          ]
        },
        {
          "name": "redistributionRecipient",
          "type": "address",
          "indexed": false,
          "internalType": "address"
        }
      ],
      "anonymous": false
    },
    {
      "type": "event",
      "name": "StrategyAddedToOperatorSet",
      "inputs": [
        {
          "name": "operatorSet",
          "type": "tuple",
          "indexed": false,
          "internalType": "struct OperatorSet",
          "components": [
            {
              "name": "avs",
              "type": "address",
              "internalType": "address"
            },
            {
              "name": "id",
              "type": "uint32",
              "internalType": "uint32"
            }
          ]
        },
        {
          "name": "strategy",
          "type": "address",
          "indexed": false,
          "internalType": "contract IStrategy"
        }
      ],
      "anonymous": false
    },
    {
      "type": "event",
      "name": "StrategyRemovedFromOperatorSet",
      "inputs": [
        {
          "name": "operatorSet",
          "type": "tuple",
          "indexed": false,
          "internalType": "struct OperatorSet",
          "components": [
            {
              "name": "avs",
              "type": "address",
              "internalType": "address"
            },
            {
              "name": "id",
              "type": "uint32",
              "internalType": "uint32"
            }
          ]
        },
        {
          "name": "strategy",
          "type": "address",
          "indexed": false,
          "internalType": "contract IStrategy"
        }
      ],
      "anonymous": false
    },
    {
      "type": "event",
      "name": "Unpaused",
      "inputs": [
        {
          "name": "account",
          "type": "address",
          "indexed": true,
          "internalType": "address"
        },
        {
          "name": "newPausedStatus",
          "type": "uint256",
          "indexed": false,
          "internalType": "uint256"
        }
      ],
      "anonymous": false
    },
    {
      "type": "error",
      "name": "AlreadyMemberOfSet",
      "inputs": []
    },
    {
      "type": "error",
      "name": "CurrentlyPaused",
      "inputs": []
    },
    {
      "type": "error",
      "name": "Empty",
      "inputs": []
    },
    {
      "type": "error",
      "name": "InputAddressZero",
      "inputs": []
    },
    {
      "type": "error",
      "name": "InputArrayLengthMismatch",
      "inputs": []
    },
    {
      "type": "error",
      "name": "InsufficientMagnitude",
      "inputs": []
    },
    {
      "type": "error",
      "name": "InvalidAVSRegistrar",
      "inputs": []
    },
    {
      "type": "error",
      "name": "InvalidCaller",
      "inputs": []
    },
    {
      "type": "error",
      "name": "InvalidNewPausedStatus",
      "inputs": []
    },
    {
      "type": "error",
      "name": "InvalidOperator",
      "inputs": []
    },
    {
      "type": "error",
      "name": "InvalidOperatorSet",
      "inputs": []
    },
    {
      "type": "error",
      "name": "InvalidPermissions",
      "inputs": []
    },
    {
      "type": "error",
      "name": "InvalidRedistributionRecipient",
      "inputs": []
    },
    {
      "type": "error",
      "name": "InvalidShortString",
      "inputs": []
    },
    {
      "type": "error",
      "name": "InvalidSnapshotOrdering",
      "inputs": []
    },
    {
      "type": "error",
      "name": "InvalidStrategy",
      "inputs": []
    },
    {
      "type": "error",
      "name": "InvalidWadToSlash",
      "inputs": []
    },
    {
      "type": "error",
      "name": "ModificationAlreadyPending",
      "inputs": []
    },
    {
      "type": "error",
      "name": "NonexistentAVSMetadata",
      "inputs": []
    },
    {
      "type": "error",
      "name": "NotMemberOfSet",
      "inputs": []
    },
    {
      "type": "error",
      "name": "OnlyPauser",
      "inputs": []
    },
    {
      "type": "error",
      "name": "OnlyUnpauser",
      "inputs": []
    },
    {
      "type": "error",
      "name": "OperatorNotSlashable",
      "inputs": []
    },
    {
      "type": "error",
      "name": "OutOfBounds",
      "inputs": []
    },
    {
      "type": "error",
      "name": "SameMagnitude",
      "inputs": []
    },
    {
      "type": "error",
      "name": "StrategiesMustBeInAscendingOrder",
      "inputs": []
    },
    {
      "type": "error",
      "name": "StrategyAlreadyInOperatorSet",
      "inputs": []
    },
    {
      "type": "error",
      "name": "StrategyNotInOperatorSet",
      "inputs": []
    },
    {
      "type": "error",
      "name": "StringTooLong",
      "inputs": [
        {
          "name": "str",
          "type": "string",
          "internalType": "string"
        }
      ]
    },
    {
      "type": "error",
      "name": "UninitializedAllocationDelay",
      "inputs": []
    }
  ],
  "bytecode": {
    "object": "0x610160604052348015610010575f5ffd5b506040516161d63803806161d683398101604081905261002f916101ef565b8084888886868a6001600160a01b03811661005d576040516339b190bb60e11b815260040160405180910390fd5b6001600160a01b0390811660805293841660a05291831660c05263ffffffff90811660e05216610100521661012052610095816100ae565b61014052506100a26100f4565b50505050505050610367565b5f5f829050601f815111156100e1578260405163305a27a960e01b81526004016100d8919061030c565b60405180910390fd5b80516100ec82610341565b179392505050565b5f54610100900460ff161561015b5760405162461bcd60e51b815260206004820152602760248201527f496e697469616c697a61626c653a20636f6e747261637420697320696e697469604482015266616c697a696e6760c81b60648201526084016100d8565b5f5460ff908116146101aa575f805460ff191660ff9081179091556040519081527f7f26b83ff96e1f2b6a682f133852f6798a09c465da95921460cefb38474024989060200160405180910390a15b565b6001600160a01b03811681146101c0575f5ffd5b50565b805163ffffffff811681146101d6575f5ffd5b919050565b634e487b7160e01b5f52604160045260245ffd5b5f5f5f5f5f5f5f60e0888a031215610205575f5ffd5b8751610210816101ac565b6020890151909750610221816101ac565b6040890151909650610232816101ac565b6060890151909550610243816101ac565b9350610251608089016101c3565b925061025f60a089016101c3565b60c08901519092506001600160401b0381111561027a575f5ffd5b8801601f81018a1361028a575f5ffd5b80516001600160401b038111156102a3576102a36101db565b604051601f8201601f19908116603f011681016001600160401b03811182821017156102d1576102d16101db565b6040528181528282016020018c10156102e8575f5ffd5b8160208401602083015e5f6020838301015280935050505092959891949750929550565b602081525f82518060208401528060208501604085015e5f604082850101526040601f19601f83011684010191505092915050565b80516020808301519190811015610361575f198160200360031b1b821691505b50919050565b60805160a05160c05160e051610100516101205161014051615dca61040c5f395f61136d01525f81816104cd0152612c9101525f81816106400152613be001525f81816103d6015281816117660152611e3901525f818161079b0152613a4c01525f81816107d5015281816113a10152818161140b0152818161211901528181612f0501526137a201525f818161066701528181612b5d01526141f80152615dca5ff3fe608060405234801561000f575f5ffd5b50600436106102ff575f3560e01c8063670d3ba211610195578063b2447af7116100e4578063db4df7611161009e578063f231bd0811610079578063f231bd08146107f7578063f605ce081461080a578063fabc1cbc1461081d578063fe4b84df14610830575f5ffd5b8063db4df76114610796578063dc2af692146107bd578063df5cf723146107d0575f5ffd5b8063b2447af714610708578063b66bd9891461071b578063b9fbaed11461072e578063ba1a84e51461075d578063c221d8ae14610770578063d3d96ff414610783575f5ffd5b8063886f11951161014f578063952899ee1161012a578063952899ee146106bc578063a9333ec8146106cf578063a9821821146106e2578063adc2e3d9146106f5575f5ffd5b8063886f1195146106625780638ce648541461068957806394d7d00c146106a9575f5ffd5b8063670d3ba2146105c45780636cfb4481146105d75780636e3492b5146106025780636e875dba1461061557806379ae50cd146106285780637bc1ef611461063b575f5ffd5b806340120dab1161025157806350feea201161020b57806356c483e6116101e657806356c483e61461057e578063595c6a67146105915780635ac86ab7146105995780635c975abb146105bc575f5ffd5b806350feea2014610543578063547afb871461055657806354fd4d5014610569575f5ffd5b806340120dab146104875780634177a87c146104a85780634657e26a146104c85780634a10ffe5146104ef5780634b5046ef1461050f5780634cfd293914610522575f5ffd5b8063261f84e0116102bc5780632bab2c4a116102975780632bab2c4a1461042d578063304c10cd1461044057806332a879e4146104535780633635205714610466575f5ffd5b8063261f84e0146103be5780632981eb77146103d15780632b453a9a1461040d575f5ffd5b80630f3df50e1461030357806310e1b9b8146103335780631352c3e614610353578063136439dd1461037657806315fe50281461038b578063260dc758146103ab575b5f5ffd5b610316610311366004614bf0565b610843565b6040516001600160a01b0390911681526020015b60405180910390f35b610346610341366004614c0a565b610884565b60405161032a9190614c51565b610366610361366004614c84565b6108bd565b604051901515815260200161032a565b610389610384366004614cb8565b610938565b005b61039e610399366004614ccf565b610972565b60405161032a9190614d4d565b6103666103b9366004614bf0565b610a89565b6103896103cc366004614d9f565b610aba565b6103f87f000000000000000000000000000000000000000000000000000000000000000081565b60405163ffffffff909116815260200161032a565b61042061041b366004614e84565b610b63565b60405161032a9190614f27565b61042061043b366004614f8a565b610b79565b61031661044e366004614ccf565b610c18565b61038961046136600461500e565b610c47565b61047961047436600461508e565b610d8e565b60405161032a9291906150e0565b61049a6104953660046150f8565b610ed1565b60405161032a929190615185565b6104bb6104b6366004614bf0565b61104c565b60405161032a91906151e2565b6103167f000000000000000000000000000000000000000000000000000000000000000081565b6105026104fd3660046151f4565b611070565b60405161032a9190615237565b61038961051d36600461500e565b611118565b610535610530366004614bf0565b6111ab565b60405190815260200161032a565b610389610551366004615282565b6111cd565b6105026105643660046152e0565b6112be565b610571611366565b60405161032a9190615322565b61038961058c366004615357565b611396565b61038961149b565b6103666105a7366004615381565b606654600160ff9092169190911b9081161490565b606654610535565b6103666105d2366004614c84565b6114af565b6105ea6105e53660046150f8565b6114db565b6040516001600160401b03909116815260200161032a565b6103896106103660046153b7565b6114f0565b6104bb610623366004614bf0565b6118b3565b61039e610636366004614ccf565b6118c4565b6103f87f000000000000000000000000000000000000000000000000000000000000000081565b6103167f000000000000000000000000000000000000000000000000000000000000000081565b61069c6106973660046153e8565b61199e565b60405161032a919061542b565b6105026106b736600461543d565b611a5a565b6103896106ca366004615498565b611b46565b6105ea6106dd3660046150f8565b611fe7565b6103896106f0366004615641565b612016565b6103896107033660046156bf565b6120c8565b610535610716366004614bf0565b612411565b610389610729366004615282565b612433565b61074161073c366004614ccf565b61258d565b60408051921515835263ffffffff90911660208301520161032a565b61053561076b366004614ccf565b612627565b6104bb61077e366004614c84565b612647565b6103896107913660046150f8565b612670565b6103167f000000000000000000000000000000000000000000000000000000000000000081565b6103666107cb366004614ccf565b61279d565b6103167f000000000000000000000000000000000000000000000000000000000000000081565b610366610805366004614bf0565b6127d0565b6105ea6108183660046150f8565b6127ef565b61038961082b366004614cb8565b6127fb565b61038961083e366004614cb8565b612868565b5f5f60a65f61085185612979565b815260208101919091526040015f20546001600160a01b031690508015610878578061087d565b620e16e45b9392505050565b604080516060810182525f80825260208201819052918101829052906108b3856108ad86612979565b856129dc565b9695505050505050565b6001600160a01b0382165f908152609e602052604081208190816108e085612979565b815260208082019290925260409081015f2081518083019092525460ff8116151580835261010090910463ffffffff169282019290925291508061092e5750806020015163ffffffff164311155b9150505b92915050565b610940612b48565b60665481811681146109655760405163c61dca5d60e01b815260040160405180910390fd5b61096e82612beb565b5050565b6001600160a01b0381165f908152609d602052604081206060919061099690612c28565b90505f816001600160401b038111156109b1576109b1614b00565b6040519080825280602002602001820160405280156109f557816020015b604080518082019091525f80825260208201528152602001906001900390816109cf5790505b5090505f5b82811015610a81576001600160a01b0385165f908152609d60205260409020610a5c90610a279083612c31565b604080518082019091525f80825260208201525060408051808201909152606082901c815263ffffffff909116602082015290565b828281518110610a6e57610a6e615701565b60209081029190910101526001016109fa565b509392505050565b60208082015182516001600160a01b03165f9081526098909252604082206109329163ffffffff90811690612c3c16565b82610ac481612c53565b610ae15760405163932d94f760e01b815260040160405180910390fd5b6001600160a01b0384165f90815260a4602052604090205460ff16610b19576040516348f7dbb960e01b815260040160405180910390fd5b5f5b82811015610b5c57610b5485858584818110610b3957610b39615701565b9050602002810190610b4b9190615715565b620e16e4612cfd565b600101610b1b565b5050505050565b6060610b7184848443612eb1565b949350505050565b6060610b8785858585612eb1565b90505f5b8451811015610c0f57610bb7858281518110610ba957610ba9615701565b6020026020010151876108bd565b610c07575f5b8451811015610c05575f838381518110610bd957610bd9615701565b60200260200101518281518110610bf257610bf2615701565b6020908102919091010152600101610bbd565b505b600101610b8b565b50949350505050565b6001600160a01b038082165f908152609760205260408120549091168015610c40578061087d565b5090919050565b84610c5181612c53565b610c6e5760405163932d94f760e01b815260040160405180910390fd5b838214610c8e576040516343714afd60e01b815260040160405180910390fd5b6001600160a01b0386165f90815260a4602052604090205460ff16610cc6576040516348f7dbb960e01b815260040160405180910390fd5b5f5b84811015610d85575f848483818110610ce357610ce3615701565b9050602002016020810190610cf89190614ccf565b90506001600160a01b038116610d21576040516339b190bb60e11b815260040160405180910390fd5b620e16e3196001600160a01b03821601610d4e576040516364be1a3f60e11b815260040160405180910390fd5b610d7c88888885818110610d6457610d64615701565b9050602002810190610d769190615715565b83612cfd565b50600101610cc8565b50505050505050565b5f60606001610d9c8161319e565b84610da681612c53565b610dc35760405163932d94f760e01b815260040160405180910390fd5b5f6040518060400160405280886001600160a01b03168152602001876020016020810190610df19190615733565b63ffffffff1690529050610e08606087018761574c565b9050610e17604088018861574c565b905014610e37576040516343714afd60e01b815260040160405180910390fd5b60208082015182516001600160a01b03165f90815260989092526040909120610e699163ffffffff90811690612c3c16565b610e8657604051631fb1705560e21b815260040160405180910390fd5b610e9c610e966020880188614ccf565b826108bd565b610eb95760405163ebbff49760e01b815260040160405180910390fd5b610ec386826131cc565b945094505050509250929050565b6001600160a01b0382165f908152609d602052604081206060918291610ef690612c28565b90505f816001600160401b03811115610f1157610f11614b00565b604051908082528060200260200182016040528015610f5557816020015b604080518082019091525f8082526020820152815260200190600190039081610f2f5790505b5090505f826001600160401b03811115610f7157610f71614b00565b604051908082528060200260200182016040528015610fba57816020015b604080516060810182525f80825260208083018290529282015282525f19909201910181610f8f5790505b5090505f5b8381101561103d576001600160a01b0388165f908152609d60205260408120610fec90610a279084612c31565b90508084838151811061100157611001615701565b602002602001018190525061101789828a610884565b83838151811061102957611029615701565b602090810291909101015250600101610fbf565b509093509150505b9250929050565b60605f61087d60995f61105e86612979565b81526020019081526020015f2061390c565b60605f83516001600160401b0381111561108c5761108c614b00565b6040519080825280602002602001820160405280156110b5578160200160208202803683370190505b5090505f5b8451811015610a81576110e68582815181106110d8576110d8615701565b602002602001015185611fe7565b8282815181106110f8576110f8615701565b6001600160401b03909216602092830291909101909101526001016110ba565b5f6111228161319e565b838214611142576040516343714afd60e01b815260040160405180910390fd5b5f5b84811015610d85576111a38787878481811061116257611162615701565b90506020020160208101906111779190614ccf565b86868581811061118957611189615701565b905060200201602081019061119e9190615791565b613918565b600101611144565b5f60a55f6111b884612979565b81526020019081526020015f20549050919050565b836111d781612c53565b6111f45760405163932d94f760e01b815260040160405180910390fd5b6040805180820182526001600160a01b03871680825263ffffffff80881660208085018290525f938452609890529390912091926112339291612c3c16565b61125057604051631fb1705560e21b815260040160405180910390fd5b5f5b83811015610d85576112b68286868481811061127057611270615701565b90506020020160208101906112859190614ccf565b6112b160405180604001604052808c6001600160a01b031681526020018b63ffffffff168152506127d0565b613a1c565b600101611252565b60605f82516001600160401b038111156112da576112da614b00565b604051908082528060200260200182016040528015611303578160200160208202803683370190505b5090505f5b8351811015610a81576113348585838151811061132757611327615701565b6020026020010151611fe7565b82828151811061134657611346615701565b6001600160401b0390921660209283029190910190910152600101611308565b60606113917f0000000000000000000000000000000000000000000000000000000000000000613afc565b905090565b336001600160a01b037f00000000000000000000000000000000000000000000000000000000000000001614611491576113cf82612c53565b6113ec576040516348f5c3ed60e01b815260040160405180910390fd5b6040516336b87bd760e11b81526001600160a01b0383811660048301527f00000000000000000000000000000000000000000000000000000000000000001690636d70f7ae90602401602060405180830381865afa158015611450573d5f5f3e3d5ffd5b505050506040513d601f19601f8201168201806040525081019061147491906157b2565b6114915760405163ccea9e6f60e01b815260040160405180910390fd5b61096e8282613b39565b6114a3612b48565b6114ad5f19612beb565b565b5f61087d83609a5f6114c086612979565b81526020019081526020015f20613ce590919063ffffffff16565b5f5f6114e78484613d06565b95945050505050565b60026114fb8161319e565b61151061150b6020840184614ccf565b612c53565b80611529575061152961150b6040840160208501614ccf565b611546576040516348f5c3ed60e01b815260040160405180910390fd5b5f5b611555604084018461574c565b9050811015611817575f604051806040016040528085602001602081019061157d9190614ccf565b6001600160a01b03168152602001611598604087018761574c565b858181106115a8576115a8615701565b90506020020160208101906115bd9190615733565b63ffffffff16815250905061160a816020015163ffffffff1660985f8760200160208101906115ec9190614ccf565b6001600160a01b0316815260208101919091526040015f2090612c3c565b61162757604051631fb1705560e21b815260040160405180910390fd5b609e5f6116376020870187614ccf565b6001600160a01b03166001600160a01b031681526020019081526020015f205f61166083612979565b815260208101919091526040015f205460ff16611690576040516325131d4f60e01b815260040160405180910390fd5b6116ca61169c82612979565b609c5f6116ac6020890189614ccf565b6001600160a01b0316815260208101919091526040015f2090613e75565b506117026116db6020860186614ccf565b609a5f6116e785612979565b81526020019081526020015f20613e8090919063ffffffff16565b506117106020850185614ccf565b6001600160a01b03167fad34c3070be1dffbcaa499d000ba2b8d9848aefcac3059df245dd95c4ece14fe8260405161174891906157d1565b60405180910390a2604080518082019091525f81526020810161178b7f0000000000000000000000000000000000000000000000000000000000000000436157f3565b63ffffffff169052609e5f6117a36020880188614ccf565b6001600160a01b03166001600160a01b031681526020019081526020015f205f6117cc84612979565b81526020808201929092526040015f2082518154939092015163ffffffff166101000264ffffffff00199215159290921664ffffffffff199093169290921717905550600101611548565b5061182b61044e6040840160208501614ccf565b6001600160a01b031663303ca9566118466020850185614ccf565b6118566040860160208701614ccf565b611863604087018761574c565b6040518563ffffffff1660e01b81526004016118829493929190615848565b5f604051808303815f87803b158015611899575f5ffd5b505af11580156118ab573d5f5f3e3d5ffd5b505050505050565b6060610932609a5f61105e85612979565b6001600160a01b0381165f908152609c60205260408120606091906118e890612c28565b90505f816001600160401b0381111561190357611903614b00565b60405190808252806020026020018201604052801561194757816020015b604080518082019091525f80825260208201528152602001906001900390816119215790505b5090505f5b82811015610a81576001600160a01b0385165f908152609c6020526040902061197990610a279083612c31565b82828151811061198b5761198b615701565b602090810291909101015260010161194c565b60605f84516001600160401b038111156119ba576119ba614b00565b604051908082528060200260200182016040528015611a0357816020015b604080516060810182525f80825260208083018290529282015282525f199092019101816119d85790505b5090505f5b8551811015610c0f57611a35868281518110611a2657611a26615701565b60200260200101518686610884565b828281518110611a4757611a47615701565b6020908102919091010152600101611a08565b60605f83516001600160401b03811115611a7657611a76614b00565b604051908082528060200260200182016040528015611a9f578160200160208202803683370190505b5090505f5b8451811015610c0f576001600160a01b0386165f90815260a1602052604081208651611b1492879291899086908110611adf57611adf615701565b60200260200101516001600160a01b03166001600160a01b031681526020019081526020015f20613e9490919063ffffffff16565b828281518110611b2657611b26615701565b6001600160401b0390921660209283029190910190910152600101611aa4565b5f611b508161319e565b611b5983612c53565b611b76576040516348f5c3ed60e01b815260040160405180910390fd5b5f5f5f611b828661258d565b9150915081611ba45760405163fa55fc8160e01b815260040160405180910390fd5b91505f90505b8351811015610b5c57838181518110611bc557611bc5615701565b60200260200101516040015151848281518110611be457611be4615701565b6020026020010151602001515114611c0f576040516343714afd60e01b815260040160405180910390fd5b5f848281518110611c2257611c22615701565b602090810291909101810151518082015181516001600160a01b03165f90815260989093526040909220909250611c629163ffffffff90811690612c3c16565b611c7f57604051631fb1705560e21b815260040160405180910390fd5b5f611c8a87836108bd565b90505f5b868481518110611ca057611ca0615701565b60200260200101516020015151811015611fdc575f878581518110611cc757611cc7615701565b6020026020010151602001518281518110611ce457611ce4615701565b60200260200101519050611cfb898261ffff613918565b5f5f611d0a8b6108ad88612979565b91509150806040015163ffffffff165f14611d3857604051630d8fcbe360e41b815260040160405180910390fd5b5f611d4587858489613ea8565b9050611d8a825f01518c8a81518110611d6057611d60615701565b6020026020010151604001518781518110611d7d57611d7d615701565b6020026020010151613ede565b600f0b602083018190525f03611db357604051634606179360e11b815260040160405180910390fd5b5f8260200151600f0b1215611ef7578015611e7957611e34611dd488612979565b6001600160a01b03808f165f90815260a360209081526040808320938a16835292905220908154600160801b90819004600f0b5f818152600180860160205260409091209390935583546001600160801b03908116939091011602179055565b611e5e7f0000000000000000000000000000000000000000000000000000000000000000436157f3565b611e699060016157f3565b63ffffffff166040830152611f64565b611e8b83602001518360200151613ef5565b6001600160401b031660208401528a518b9089908110611ead57611ead615701565b6020026020010151604001518581518110611eca57611eca615701565b6020908102919091018101516001600160401b031683525f9083015263ffffffff43166040830152611f64565b5f8260200151600f0b1315611f6457611f1883602001518360200151613ef5565b6001600160401b039081166020850181905284519091161015611f4e57604051636c9be0bf60e01b815260040160405180910390fd5b611f5889436157f3565b63ffffffff1660408301525b611f798c611f7189612979565b868686613f14565b7f1487af5418c47ee5ea45ef4a93398668120890774a9e13487e61e9dc3baf76dd8c8886611fae865f01518760200151613ef5565b8660400151604051611fc4959493929190615874565b60405180910390a1505060019092019150611c8e9050565b505050600101611baa565b6001600160a01b038083165f90815260a160209081526040808320938516835292905290812061087d9061414c565b8261202081612c53565b61203d5760405163932d94f760e01b815260040160405180910390fd5b6001600160a01b0384165f90815260a4602052604090205460ff1661207f576001600160a01b0384165f90815260a460205260409020805460ff191660011790555b836001600160a01b03167fa89c1dc243d8908a96dd84944bcc97d6bc6ac00dd78e20621576be6a3c94371384846040516120ba9291906158ed565b60405180910390a250505050565b60026120d38161319e565b826120dd81612c53565b6120fa5760405163932d94f760e01b815260040160405180910390fd5b6040516336b87bd760e11b81526001600160a01b0385811660048301527f00000000000000000000000000000000000000000000000000000000000000001690636d70f7ae90602401602060405180830381865afa15801561215e573d5f5f3e3d5ffd5b505050506040513d601f19601f8201168201806040525081019061218291906157b2565b61219f5760405163ccea9e6f60e01b815260040160405180910390fd5b5f5b6121ae602085018561574c565b905081101561237657604080518082019091525f90806121d16020880188614ccf565b6001600160a01b031681526020018680602001906121ef919061574c565b858181106121ff576121ff615701565b90506020020160208101906122149190615733565b63ffffffff90811690915260208083015183516001600160a01b03165f90815260989092526040909120929350612250929190811690612c3c16565b61226d57604051631fb1705560e21b815260040160405180910390fd5b61227786826108bd565b1561229557604051636c6c6e2760e11b815260040160405180910390fd5b6122be6122a182612979565b6001600160a01b0388165f908152609c602052604090209061415f565b506122ea86609a5f6122cf85612979565b81526020019081526020015f2061416a90919063ffffffff16565b50856001600160a01b03167f43232edf9071753d2321e5fa7e018363ee248e5f2142e6c08edd3265bfb4895e8260405161232491906157d1565b60405180910390a26001600160a01b0386165f908152609e6020526040812060019161234f84612979565b815260208101919091526040015f20805460ff1916911515919091179055506001016121a1565b5061238761044e6020850185614ccf565b6001600160a01b031663c63fd502856123a36020870187614ccf565b6123b0602088018861574c565b6123bd60408a018a615900565b6040518763ffffffff1660e01b81526004016123de96959493929190615942565b5f604051808303815f87803b1580156123f5575f5ffd5b505af1158015612407573d5f5f3e3d5ffd5b5050505050505050565b5f610932609a5f61242185612979565b81526020019081526020015f20612c28565b8361243d81612c53565b61245a5760405163932d94f760e01b815260040160405180910390fd5b6040805180820182526001600160a01b03871680825263ffffffff80881660208085018290525f938452609890529390912091926124999291612c3c16565b6124b657604051631fb1705560e21b815260040160405180910390fd5b5f6124c082612979565b90505f5b84811015612407576125098686838181106124e1576124e1615701565b90506020020160208101906124f69190614ccf565b5f84815260996020526040902090613e80565b612526576040516331bc342760e11b815260040160405180910390fd5b7f7b4b073d80dcac55a11177d8459ad9f664ceeb91f71f27167bb14f8152a7eeee8387878481811061255a5761255a615701565b905060200201602081019061256f9190614ccf565b60405161257d92919061598e565b60405180910390a16001016124c4565b6001600160a01b0381165f908152609b602090815260408083208151608081018352905463ffffffff80821680845260ff600160201b8404161515958401869052650100000000008304821694840194909452600160481b90910416606082018190528493919291901580159061260e5750826060015163ffffffff164310155b1561261d575050604081015160015b9590945092505050565b6001600160a01b0381165f90815260986020526040812061093290612c28565b6001600160a01b0382165f908152609f602052604081206060919061092e908261105e86612979565b8161267a81612c53565b6126975760405163932d94f760e01b815260040160405180910390fd5b60405163b526578760e01b81526001600160a01b03848116600483015283169063b526578790602401602060405180830381865afa1580156126db573d5f5f3e3d5ffd5b505050506040513d601f19601f820116820180604052508101906126ff91906157b2565b61271c57604051631d0b13c160e31b815260040160405180910390fd5b6001600160a01b038381165f90815260976020526040902080546001600160a01b0319169184169190911790557f2ae945c40c44dc0ec263f95609c3fdc6952e0aefa22d6374e44f2c997acedf858361277481610c18565b604080516001600160a01b039384168152929091166020830152015b60405180910390a1505050565b5f5f6127a8836118c4565b90505f6127b484610972565b90506127c0848361417e565b80610b715750610b71848261417e565b5f620e16e46127de83610843565b6001600160a01b0316141592915050565b5f5f610c0f8484613d06565b6128036141f6565b6066548019821981161461282a5760405163c61dca5d60e01b815260040160405180910390fd5b606682905560405182815233907f3582d1828e26bf56bd801502bc021ac0bc8afb57c826e4986b45593c8fad389c9060200160405180910390a25050565b5f54610100900460ff161580801561288657505f54600160ff909116105b8061289f5750303b15801561289f57505f5460ff166001145b6129075760405162461bcd60e51b815260206004820152602e60248201527f496e697469616c697a61626c653a20636f6e747261637420697320616c72656160448201526d191e481a5b9a5d1a585b1a5e995960921b60648201526084015b60405180910390fd5b5f805460ff191660011790558015612928575f805461ff0019166101001790555b61293182612beb565b801561096e575f805461ff0019169055604051600181527f7f26b83ff96e1f2b6a682f133852f6798a09c465da95921460cefb38474024989060200160405180910390a15050565b5f815f0151826020015163ffffffff166040516020016129c492919060609290921b6bffffffffffffffffffffffff1916825260a01b6001600160a01b031916601482015260200190565b604051602081830303815290604052610932906159b4565b6040805180820182525f80825260208083018290528351606081018552828152808201839052808501839052845180860186526001600160a01b03898116855260a1845286852090881685529092529382209293928190612a3c9061414c565b6001600160401b0390811682526001600160a01b038981165f81815260a260209081526040808320948c168084529482528083205486169682019690965291815260a082528481208b8252825284812092815291815290839020835160608101855290549283168152600160401b8304600f0b91810191909152600160c01b90910463ffffffff16918101829052919250431015612ade579092509050612b40565b612aef815f01518260200151613ef5565b6001600160401b0316815260208101515f600f9190910b1215612b2d57612b1e82602001518260200151613ef5565b6001600160401b031660208301525b5f60408201819052602082015290925090505b935093915050565b60405163237dfb4760e11b81523360048201527f00000000000000000000000000000000000000000000000000000000000000006001600160a01b0316906346fbf68e90602401602060405180830381865afa158015612baa573d5f5f3e3d5ffd5b505050506040513d601f19601f82011682018060405250810190612bce91906157b2565b6114ad57604051631d77d47760e21b815260040160405180910390fd5b606681905560405181815233907fab40a374bc51de372200a8bc981af8c9ecdc08dfdaef0bb6e09f88f3c616ef3d9060200160405180910390a250565b5f610932825490565b5f61087d83836142a7565b5f818152600183016020526040812054151561087d565b604051631beb2b9760e31b81526001600160a01b0382811660048301523360248301523060448301525f80356001600160e01b0319166064840152917f00000000000000000000000000000000000000000000000000000000000000009091169063df595cb8906084016020604051808303815f875af1158015612cd9573d5f5f3e3d5ffd5b505050506040513d601f19601f8201168201806040525081019061093291906157b2565b5f6040518060400160405280856001600160a01b03168152602001845f016020810190612d2a9190615733565b63ffffffff168152509050612d74816020015163ffffffff1660985f876001600160a01b03166001600160a01b031681526020019081526020015f2061415f90919063ffffffff16565b612d9157604051631fb1705560e21b815260040160405180910390fd5b7f31629285ead2335ae0933f86ed2ae63321f7af77b4e6eaabc42c057880977e6c81604051612dc091906157d1565b60405180910390a16001600160a01b038216620e16e414801590612e55578260a65f612deb85612979565b81526020019081526020015f205f6101000a8154816001600160a01b0302191690836001600160a01b031602179055507f90a6fa2a9b79b910872ebca540cf3bd8be827f586e6420c30d8836e30012907e8284604051612e4c92919061598e565b60405180910390a15b5f5b612e64602086018661574c565b90508110156118ab57612ea983612e7e602088018861574c565b84818110612e8e57612e8e615701565b9050602002016020810190612ea39190614ccf565b84613a1c565b600101612e57565b606083516001600160401b03811115612ecc57612ecc614b00565b604051908082528060200260200182016040528015612eff57816020015b6060815260200190600190039081612eea5790505b5090505f7f00000000000000000000000000000000000000000000000000000000000000006001600160a01b031663f0e0e67686866040518363ffffffff1660e01b8152600401612f519291906159d7565b5f60405180830381865afa158015612f6b573d5f5f3e3d5ffd5b505050506040513d5f823e601f3d908101601f19168201604052612f9291908101906159fb565b90505f5b8551811015613194575f868281518110612fb257612fb2615701565b6020026020010151905085516001600160401b03811115612fd557612fd5614b00565b604051908082528060200260200182016040528015612ffe578160200160208202803683370190505b5084838151811061301157613011615701565b60209081029190910101525f5b865181101561318a575f87828151811061303a5761303a615701565b6020908102919091018101516001600160a01b038086165f90815260a18452604080822092841682529190935282209092506130759061414c565b9050806001600160401b03165f0361308e575050613182565b5f61309a858d85610884565b90508863ffffffff16816040015163ffffffff16111580156130c257505f8160200151600f0b125b156130e4576130d8815f01518260200151613ef5565b6001600160401b031681525b80515f906130ff906001600160401b039081169085166142cd565b90506131468189898151811061311757613117615701565b6020026020010151878151811061313057613130615701565b60200260200101516142e190919063ffffffff16565b89888151811061315857613158615701565b6020026020010151868151811061317157613171615701565b602002602001018181525050505050505b60010161301e565b5050600101612f96565b5050949350505050565b606654600160ff83161b908116036131c95760405163840a48d560e01b815260040160405180910390fd5b50565b5f6060816131dd604086018661574c565b90506001600160401b038111156131f6576131f6614b00565b60405190808252806020026020018201604052801561321f578160200160208202803683370190505b50905061322f604086018661574c565b90506001600160401b0381111561324857613248614b00565b604051908082528060200260200182016040528015613271578160200160208202803683370190505b50915060a55f61328086612979565b81526020019081526020015f205f815461329990615b07565b918290555092505f5b6132af604087018761574c565b905081101561389e5780158061334257506132cd604087018761574c565b6132d8600184615b1f565b8181106132e7576132e7615701565b90506020020160208101906132fc9190614ccf565b6001600160a01b0316613312604088018861574c565b8381811061332257613322615701565b90506020020160208101906133379190614ccf565b6001600160a01b0316115b61335f57604051639f1c805360e01b815260040160405180910390fd5b61336c606087018761574c565b8281811061337c5761337c615701565b905060200201355f1080156133bc5750670de0b6b3a76400006133a2606088018861574c565b838181106133b2576133b2615701565b9050602002013511155b6133d957604051631353603160e01b815260040160405180910390fd5b61341a6133e9604088018861574c565b838181106133f9576133f9615701565b905060200201602081019061340e9190614ccf565b60995f6114c089612979565b613437576040516331bc342760e11b815260040160405180910390fd5b5f8061348961344960208a018a614ccf565b61345289612979565b61345f60408c018c61574c565b8781811061346f5761346f615701565b90506020020160208101906134849190614ccf565b6129dc565b805191935091506001600160401b03165f036134a6575050613896565b5f6134e16134b760608b018b61574c565b868181106134c7576134c7615701565b85516001600160401b0316926020909102013590506142f5565b83519091506134fc6001600160401b038084169083166142cd565b86868151811061350e5761350e615701565b60200260200101818152505081835f0181815161352b9190615b32565b6001600160401b0316905250835182908590613548908390615b32565b6001600160401b0316905250602084018051839190613568908390615b32565b6001600160401b031690525060208301515f600f9190910b1215613680575f6135cb61359760608d018d61574c565b888181106135a7576135a7615701565b9050602002013585602001516135bc90615b51565b6001600160801b0316906142f5565b9050806001600160401b0316846020018181516135e89190615b75565b600f0b9052507f1487af5418c47ee5ea45ef4a93398668120890774a9e13487e61e9dc3baf76dd61361c60208d018d614ccf565b8b61362a60408f018f61574c565b8a81811061363a5761363a615701565b905060200201602081019061364f9190614ccf565b613660885f01518960200151613ef5565b8860400151604051613676959493929190615874565b60405180910390a1505b6136d261369060208c018c614ccf565b6136998b612979565b6136a660408e018e61574c565b898181106136b6576136b6615701565b90506020020160208101906136cb9190614ccf565b8787613f14565b7f1487af5418c47ee5ea45ef4a93398668120890774a9e13487e61e9dc3baf76dd61370060208c018c614ccf565b8a61370e60408e018e61574c565b8981811061371e5761371e615701565b90506020020160208101906137339190614ccf565b865160405161374794939291904390615874565b60405180910390a161379861375f60208c018c614ccf565b61376c60408d018d61574c565b8881811061377c5761377c615701565b90506020020160208101906137919190614ccf565b865161430b565b6001600160a01b037f000000000000000000000000000000000000000000000000000000000000000016635ae679a76137d460208d018d614ccf565b8b8b8e80604001906137e6919061574c565b8b8181106137f6576137f6615701565b905060200201602081019061380b9190614ccf565b89516040516001600160e01b031960e088901b16815261383395949392918991600401615ba2565b6020604051808303815f875af115801561384f573d5f5f3e3d5ffd5b505050506040513d601f19601f820116820180604052508101906138739190615bf5565b87868151811061388557613885615701565b602002602001018181525050505050505b6001016132a2565b507f80969ad29428d6797ee7aad084f9e4a42a82fc506dcd2ca3b6fb431f85ccebe56138cd6020870187614ccf565b856138db604089018961574c565b856138e960808c018c615900565b6040516138fc9796959493929190615c0c565b60405180910390a1509250929050565b60605f61087d8361438d565b6001600160a01b038381165f90815260a360209081526040808320938616835292905290812054600f81810b600160801b909204900b035b5f8111801561396257508261ffff1682105b15610b5c576001600160a01b038086165f90815260a3602090815260408083209388168352929052908120613996906143e6565b90505f5f6139a58884896129dc565b91509150806040015163ffffffff164310156139c357505050610b5c565b6139d08884898585613f14565b6001600160a01b038089165f90815260a360209081526040808320938b168352929052206139fd90614438565b50613a0785615b07565b9450613a1284615ca2565b9350505050613950565b8015613a9e576001600160a01b03821673beac0eeeeeeeeeeeeeeeeeeeeeeeeeeeeeebeac014801590613a8157507f00000000000000000000000000000000000000000000000000000000000000006001600160a01b0316826001600160a01b031614155b613a9e57604051632711b74d60e11b815260040160405180910390fd5b613aae8260995f6122cf87612979565b613acb5760405163585cfb2f60e01b815260040160405180910390fd5b7f7ab260fe0af193db5f4986770d831bda4ea46099dc817e8b6716dcae8af8e88b838360405161279092919061598e565b60605f613b08836144b5565b6040805160208082528183019092529192505f91906020820181803683375050509182525060208101929092525090565b6001600160a01b0382165f908152609b60209081526040918290208251608081018452905463ffffffff808216835260ff600160201b830416151593830193909352650100000000008104831693820193909352600160481b909204166060820181905215801590613bb55750806060015163ffffffff164310155b15613bcf57604081015163ffffffff168152600160208201525b63ffffffff82166040820152613c057f0000000000000000000000000000000000000000000000000000000000000000436157f3565b613c109060016157f3565b63ffffffff90811660608381019182526001600160a01b0386165f818152609b602090815260409182902087518154838a0151858b01519851928a1664ffffffffff1990921691909117600160201b91151591909102176cffffffffffffffff0000000000191665010000000000978916979097026cffffffff000000000000000000191696909617600160481b968816968702179055815192835294871694820194909452928301919091527f4e85751d6331506c6c62335f207eb31f12a61e570f34f5c17640308785c6d4db9101612790565b6001600160a01b0381165f908152600183016020526040812054151561087d565b6001600160a01b038281165f81815260a2602090815260408083209486168084529482528083205493835260a38252808320948352939052918220546001600160401b039091169190600f81810b600160801b909204900b03815b81811015613e31576001600160a01b038087165f90815260a3602090815260408083209389168352929052908120613d9990836144dc565b6001600160a01b038881165f90815260a0602090815260408083208584528252808320938b16835292815290829020825160608101845290546001600160401b0381168252600160401b8104600f0b92820192909252600160c01b90910463ffffffff16918101829052919250431015613e14575050613e31565b613e22868260200151613ef5565b95505050806001019050613d61565b506001600160a01b038086165f90815260a1602090815260408083209388168352929052208390613e619061414c565b613e6b9190615b32565b9150509250929050565b5f61087d838361454b565b5f61087d836001600160a01b03841661454b565b5f61087d8383670de0b6b3a764000061462e565b5f613eb98460995f6114c089612979565b8015613ec25750815b80156114e757505090516001600160401b031615159392505050565b5f61087d6001600160401b03808516908416615cb7565b5f61087d613f0c836001600160401b038616615b75565b600f0b614683565b6020808301516001600160a01b038088165f90815260a284526040808220928816825291909352909120546001600160401b03908116911614613fda57602082810180516001600160a01b038881165f81815260a286526040808220938a1680835293875290819020805467ffffffffffffffff19166001600160401b0395861617905593518451918252948101919091529216908201527facf9095feb3a370c9cf692421c69ef320d4db5c66e6a7d29c7694eb02364fc559060600160405180910390a15b6001600160a01b038086165f90815260a060209081526040808320888452825280832093871683529281529082902083518154928501519385015163ffffffff16600160c01b0263ffffffff60c01b196001600160801b038616600160401b026001600160c01b03199095166001600160401b03909316929092179390931716919091179055600f0b156140bc576001600160a01b0385165f908152609f602090815260408083208784529091529020614094908461416a565b506001600160a01b0385165f908152609d602052604090206140b6908561415f565b50610b5c565b80516001600160401b03165f03610b5c576001600160a01b0385165f908152609f6020908152604080832087845290915290206140f99084613e80565b506001600160a01b0385165f908152609f60209081526040808320878452909152902061412590612c28565b5f03610b5c576001600160a01b0385165f908152609d602052604090206118ab9085613e75565b5f61093282670de0b6b3a76400006146ee565b5f61087d8383614725565b5f61087d836001600160a01b038416614725565b5f805b82518110156141ed576141ad848483815181106141a0576141a0615701565b60200260200101516108bd565b80156141d657506141d68382815181106141c9576141c9615701565b60200260200101516127d0565b156141e5576001915050610932565b600101614181565b505f9392505050565b7f00000000000000000000000000000000000000000000000000000000000000006001600160a01b031663eab66d7a6040518163ffffffff1660e01b8152600401602060405180830381865afa158015614252573d5f5f3e3d5ffd5b505050506040513d601f19601f820116820180604052508101906142769190615ce4565b6001600160a01b0316336001600160a01b0316146114ad5760405163794821ff60e01b815260040160405180910390fd5b5f825f0182815481106142bc576142bc615701565b905f5260205f200154905092915050565b5f61087d83670de0b6b3a764000084614771565b5f61087d8383670de0b6b3a7640000614771565b5f61087d8383670de0b6b3a76400006001614856565b6001600160a01b038084165f90815260a16020908152604080832093861683529290522061433a9043836148a5565b604080516001600160a01b038086168252841660208201526001600160401b038316918101919091527f1c6458079a41077d003c11faf9bf097e693bd67979e4e6500bac7b29db779b5c90606001612790565b6060815f018054806020026020016040519081016040528092919081815260200182805480156143da57602002820191905f5260205f20905b8154815260200190600101908083116143c6575b50505050509050919050565b5f6144008254600f81810b600160801b909204900b131590565b1561441e57604051631ed9509560e11b815260040160405180910390fd5b508054600f0b5f9081526001909101602052604090205490565b5f6144528254600f81810b600160801b909204900b131590565b1561447057604051631ed9509560e11b815260040160405180910390fd5b508054600f0b5f818152600180840160205260408220805492905583546fffffffffffffffffffffffffffffffff191692016001600160801b03169190911790915590565b5f60ff8216601f81111561093257604051632cd44ac360e21b815260040160405180910390fd5b5f5f6144fe6144ea846148be565b85546144f99190600f0b615cff565b614927565b8454909150600160801b9004600f90810b9082900b1261453157604051632d0483c560e21b815260040160405180910390fd5b600f0b5f9081526001939093016020525050604090205490565b5f8181526001830160205260408120548015614625575f61456d600183615b1f565b85549091505f9061458090600190615b1f565b90508181146145df575f865f01828154811061459e5761459e615701565b905f5260205f200154905080875f0184815481106145be576145be615701565b5f918252602080832090910192909255918252600188019052604090208390555b85548690806145f0576145f0615d26565b600190038181905f5260205f20015f90559055856001015f8681526020019081526020015f205f905560019350505050610932565b5f915050610932565b82545f908161463f86868385614990565b905080156146795761466386614656600184615b1f565b5f91825260209091200190565b54600160201b90046001600160e01b03166108b3565b5091949350505050565b5f6001600160401b038211156146ea5760405162461bcd60e51b815260206004820152602660248201527f53616665436173743a2076616c756520646f65736e27742066697420696e203660448201526534206269747360d01b60648201526084016128fe565b5090565b81545f90801561471d5761470784614656600184615b1f565b54600160201b90046001600160e01b031661092e565b509092915050565b5f81815260018301602052604081205461476a57508154600181810184555f848152602080822090930184905584548482528286019093526040902091909155610932565b505f610932565b5f80805f19858709858702925082811083820303915050805f036147a85783828161479e5761479e615d3a565b049250505061087d565b8084116147ef5760405162461bcd60e51b81526020600482015260156024820152744d6174683a206d756c446976206f766572666c6f7760581b60448201526064016128fe565b5f8486880960026001871981018816978890046003810283188082028403028082028403028082028403028082028403028082028403029081029092039091025f889003889004909101858311909403939093029303949094049190911702949350505050565b5f5f614863868686614771565b9050600183600281111561487957614879615d4e565b14801561489557505f848061489057614890615d3a565b868809115b156114e7576108b3600182615d62565b6148b983836001600160401b0384166149e3565b505050565b5f6001600160ff1b038211156146ea5760405162461bcd60e51b815260206004820152602860248201527f53616665436173743a2076616c756520646f65736e27742066697420696e2061604482015267371034b73a191a9b60c11b60648201526084016128fe565b80600f81900b811461498b5760405162461bcd60e51b815260206004820152602760248201527f53616665436173743a2076616c756520646f65736e27742066697420696e20316044820152663238206269747360c81b60648201526084016128fe565b919050565b5f5b81831015610a81575f6149a58484614ae6565b5f8781526020902090915063ffffffff86169082015463ffffffff1611156149cf578092506149dd565b6149da816001615d62565b93505b50614992565b82548015614a99575f6149fb85614656600185615b1f565b60408051808201909152905463ffffffff808216808452600160201b9092046001600160e01b031660208401529192509085161015614a4d5760405163151b8e3f60e11b815260040160405180910390fd5b805163ffffffff808616911603614a975782614a6e86614656600186615b1f565b80546001600160e01b0392909216600160201b0263ffffffff9092169190911790555050505050565b505b506040805180820190915263ffffffff92831681526001600160e01b03918216602080830191825285546001810187555f968752952091519051909216600160201b029190921617910155565b5f614af46002848418615d75565b61087d90848416615d62565b634e487b7160e01b5f52604160045260245ffd5b604051606081016001600160401b0381118282101715614b3657614b36614b00565b60405290565b604051601f8201601f191681016001600160401b0381118282101715614b6457614b64614b00565b604052919050565b6001600160a01b03811681146131c9575f5ffd5b803563ffffffff8116811461498b575f5ffd5b5f60408284031215614ba3575f5ffd5b604080519081016001600160401b0381118282101715614bc557614bc5614b00565b6040529050808235614bd681614b6c565b8152614be460208401614b80565b60208201525092915050565b5f60408284031215614c00575f5ffd5b61087d8383614b93565b5f5f5f60808486031215614c1c575f5ffd5b8335614c2781614b6c565b9250614c368560208601614b93565b91506060840135614c4681614b6c565b809150509250925092565b81516001600160401b03168152602080830151600f0b9082015260408083015163ffffffff169082015260608101610932565b5f5f60608385031215614c95575f5ffd5b8235614ca081614b6c565b9150614caf8460208501614b93565b90509250929050565b5f60208284031215614cc8575f5ffd5b5035919050565b5f60208284031215614cdf575f5ffd5b813561087d81614b6c565b80516001600160a01b0316825260209081015163ffffffff16910152565b5f8151808452602084019350602083015f5b82811015614d4357614d2d868351614cea565b6040959095019460209190910190600101614d1a565b5093949350505050565b602081525f61087d6020830184614d08565b5f5f83601f840112614d6f575f5ffd5b5081356001600160401b03811115614d85575f5ffd5b6020830191508360208260051b8501011115611045575f5ffd5b5f5f5f60408486031215614db1575f5ffd5b8335614dbc81614b6c565b925060208401356001600160401b03811115614dd6575f5ffd5b614de286828701614d5f565b9497909650939450505050565b5f6001600160401b03821115614e0757614e07614b00565b5060051b60200190565b5f82601f830112614e20575f5ffd5b8135614e33614e2e82614def565b614b3c565b8082825260208201915060208360051b860101925085831115614e54575f5ffd5b602085015b83811015614e7a578035614e6c81614b6c565b835260209283019201614e59565b5095945050505050565b5f5f5f60808486031215614e96575f5ffd5b614ea08585614b93565b925060408401356001600160401b03811115614eba575f5ffd5b614ec686828701614e11565b92505060608401356001600160401b03811115614ee1575f5ffd5b614eed86828701614e11565b9150509250925092565b5f8151808452602084019350602083015f5b82811015614d43578151865260209586019590910190600101614f09565b5f602082016020835280845180835260408501915060408160051b8601019250602086015f5b82811015614f7e57603f19878603018452614f69858351614ef7565b94506020938401939190910190600101614f4d565b50929695505050505050565b5f5f5f5f60a08587031215614f9d575f5ffd5b614fa78686614b93565b935060408501356001600160401b03811115614fc1575f5ffd5b614fcd87828801614e11565b93505060608501356001600160401b03811115614fe8575f5ffd5b614ff487828801614e11565b92505061500360808601614b80565b905092959194509250565b5f5f5f5f5f60608688031215615022575f5ffd5b853561502d81614b6c565b945060208601356001600160401b03811115615047575f5ffd5b61505388828901614d5f565b90955093505060408601356001600160401b03811115615071575f5ffd5b61507d88828901614d5f565b969995985093965092949392505050565b5f5f6040838503121561509f575f5ffd5b82356150aa81614b6c565b915060208301356001600160401b038111156150c4575f5ffd5b830160a081860312156150d5575f5ffd5b809150509250929050565b828152604060208201525f610b716040830184614ef7565b5f5f60408385031215615109575f5ffd5b823561511481614b6c565b915060208301356150d581614b6c565b5f8151808452602084019350602083015f5b82811015614d435761516f86835180516001600160401b03168252602080820151600f0b9083015260409081015163ffffffff16910152565b6060959095019460209190910190600101615136565b604081525f6151976040830185614d08565b82810360208401526114e78185615124565b5f8151808452602084019350602083015f5b82811015614d435781516001600160a01b03168652602095860195909101906001016151bb565b602081525f61087d60208301846151a9565b5f5f60408385031215615205575f5ffd5b82356001600160401b0381111561521a575f5ffd5b61522685828601614e11565b92505060208301356150d581614b6c565b602080825282518282018190525f918401906040840190835b818110156152775783516001600160401b0316835260209384019390920191600101615250565b509095945050505050565b5f5f5f5f60608587031215615295575f5ffd5b84356152a081614b6c565b93506152ae60208601614b80565b925060408501356001600160401b038111156152c8575f5ffd5b6152d487828801614d5f565b95989497509550505050565b5f5f604083850312156152f1575f5ffd5b82356152fc81614b6c565b915060208301356001600160401b03811115615316575f5ffd5b613e6b85828601614e11565b602081525f82518060208401528060208501604085015e5f604082850101526040601f19601f83011684010191505092915050565b5f5f60408385031215615368575f5ffd5b823561537381614b6c565b9150614caf60208401614b80565b5f60208284031215615391575f5ffd5b813560ff8116811461087d575f5ffd5b5f606082840312156153b1575f5ffd5b50919050565b5f602082840312156153c7575f5ffd5b81356001600160401b038111156153dc575f5ffd5b61092e848285016153a1565b5f5f5f608084860312156153fa575f5ffd5b83356001600160401b0381111561540f575f5ffd5b61541b86828701614e11565b935050614c368560208601614b93565b602081525f61087d6020830184615124565b5f5f5f6060848603121561544f575f5ffd5b833561545a81614b6c565b925060208401356001600160401b03811115615474575f5ffd5b61548086828701614e11565b92505061548f60408501614b80565b90509250925092565b5f5f604083850312156154a9575f5ffd5b82356154b481614b6c565b915060208301356001600160401b038111156154ce575f5ffd5b8301601f810185136154de575f5ffd5b80356154ec614e2e82614def565b8082825260208201915060208360051b85010192508783111561550d575f5ffd5b602084015b838110156156325780356001600160401b0381111561552f575f5ffd5b85016080818b03601f19011215615544575f5ffd5b61554c614b14565b6155598b60208401614b93565b815260608201356001600160401b03811115615573575f5ffd5b6155828c602083860101614e11565b60208301525060808201356001600160401b038111156155a0575f5ffd5b6020818401019250508a601f8301126155b7575f5ffd5b81356155c5614e2e82614def565b8082825260208201915060208360051b86010192508d8311156155e6575f5ffd5b6020850194505b8285101561561c5784356001600160401b038116811461560b575f5ffd5b8252602094850194909101906155ed565b6040840152505084525060209283019201615512565b50809450505050509250929050565b5f5f5f60408486031215615653575f5ffd5b833561565e81614b6c565b925060208401356001600160401b03811115615678575f5ffd5b8401601f81018613615688575f5ffd5b80356001600160401b0381111561569d575f5ffd5b8660208284010111156156ae575f5ffd5b939660209190910195509293505050565b5f5f604083850312156156d0575f5ffd5b82356156db81614b6c565b915060208301356001600160401b038111156156f5575f5ffd5b613e6b858286016153a1565b634e487b7160e01b5f52603260045260245ffd5b5f8235603e19833603018112615729575f5ffd5b9190910192915050565b5f60208284031215615743575f5ffd5b61087d82614b80565b5f5f8335601e19843603018112615761575f5ffd5b8301803591506001600160401b0382111561577a575f5ffd5b6020019150600581901b3603821315611045575f5ffd5b5f602082840312156157a1575f5ffd5b813561ffff8116811461087d575f5ffd5b5f602082840312156157c2575f5ffd5b8151801515811461087d575f5ffd5b604081016109328284614cea565b634e487b7160e01b5f52601160045260245ffd5b63ffffffff8181168382160190811115610932576109326157df565b8183526020830192505f815f5b84811015614d435763ffffffff61583283614b80565b168652602095860195919091019060010161581c565b6001600160a01b038581168252841660208201526060604082018190525f906108b3908301848661580f565b6001600160a01b038616815260c081016158916020830187614cea565b6001600160a01b039490941660608201526001600160401b0392909216608083015263ffffffff1660a09091015292915050565b81835281816020850137505f828201602090810191909152601f909101601f19169091010190565b602081525f610b716020830184866158c5565b5f5f8335601e19843603018112615915575f5ffd5b8301803591506001600160401b0382111561592e575f5ffd5b602001915036819003821315611045575f5ffd5b6001600160a01b038781168252861660208201526080604082018190525f9061596e908301868861580f565b82810360608401526159818185876158c5565b9998505050505050505050565b6060810161599c8285614cea565b6001600160a01b039290921660409190910152919050565b805160208083015191908110156153b1575f1960209190910360031b1b16919050565b604081525f6159e960408301856151a9565b82810360208401526114e781856151a9565b5f60208284031215615a0b575f5ffd5b81516001600160401b03811115615a20575f5ffd5b8201601f81018413615a30575f5ffd5b8051615a3e614e2e82614def565b8082825260208201915060208360051b850101925086831115615a5f575f5ffd5b602084015b83811015615afc5780516001600160401b03811115615a81575f5ffd5b8501603f81018913615a91575f5ffd5b6020810151615aa2614e2e82614def565b808282526020820191506020808460051b8601010192508b831115615ac5575f5ffd5b6040840193505b82841015615ae7578351825260209384019390910190615acc565b86525050602093840193919091019050615a64565b509695505050505050565b5f60018201615b1857615b186157df565b5060010190565b81810381811115610932576109326157df565b6001600160401b038281168282160390811115610932576109326157df565b5f81600f0b60016001607f1b03198103615b6d57615b6d6157df565b5f0392915050565b600f81810b9083900b0160016001607f1b03811360016001607f1b031982121715610932576109326157df565b6001600160a01b038716815260e08101615bbf6020830188614cea565b60608201959095526001600160a01b039390931660808401526001600160401b0391821660a08401521660c09091015292915050565b5f60208284031215615c05575f5ffd5b5051919050565b6001600160a01b03881681525f60c08201615c2a602084018a614cea565b60c060608401528690528660e083015f5b88811015615c6b578235615c4e81614b6c565b6001600160a01b0316825260209283019290910190600101615c3b565b508381036080850152615c7e8188614ef7565b91505082810360a0840152615c948185876158c5565b9a9950505050505050505050565b5f81615cb057615cb06157df565b505f190190565b600f82810b9082900b0360016001607f1b0319811260016001607f1b0382131715610932576109326157df565b5f60208284031215615cf4575f5ffd5b815161087d81614b6c565b8082018281125f831280158216821582161715615d1e57615d1e6157df565b505092915050565b634e487b7160e01b5f52603160045260245ffd5b634e487b7160e01b5f52601260045260245ffd5b634e487b7160e01b5f52602160045260245ffd5b80820180821115610932576109326157df565b5f82615d8f57634e487b7160e01b5f52601260045260245ffd5b50049056fea2646970667358221220b98600b0e7b1bc01b94cca63b70ea7277460740c85043ebacb392abecb1a571764736f6c634300081b0033",
    "linkReferences": {}
  },
  "methodIdentifiers": {
    "ALLOCATION_CONFIGURATION_DELAY()": "7bc1ef61",
    "DEALLOCATION_DELAY()": "2981eb77",
    "addStrategiesToOperatorSet(address,uint32,address[])": "50feea20",
    "clearDeallocationQueue(address,address[],uint16[])": "4b5046ef",
    "createOperatorSets(address,(uint32,address[])[])": "261f84e0",
    "createRedistributingOperatorSets(address,(uint32,address[])[],address[])": "32a879e4",
    "delegation()": "df5cf723",
    "deregisterFromOperatorSets((address,address,uint32[]))": "6e3492b5",
    "eigenStrategy()": "db4df761",
    "getAVSRegistrar(address)": "304c10cd",
    "getAllocatableMagnitude(address,address)": "6cfb4481",
    "getAllocatedSets(address)": "15fe5028",
    "getAllocatedStake((address,uint32),address[],address[])": "2b453a9a",
    "getAllocatedStrategies(address,(address,uint32))": "c221d8ae",
    "getAllocation(address,(address,uint32),address)": "10e1b9b8",
    "getAllocationDelay(address)": "b9fbaed1",
    "getAllocations(address[],(address,uint32),address)": "8ce64854",
    "getEncumberedMagnitude(address,address)": "f605ce08",
    "getMaxMagnitude(address,address)": "a9333ec8",
    "getMaxMagnitudes(address,address[])": "547afb87",
    "getMaxMagnitudes(address[],address)": "4a10ffe5",
    "getMaxMagnitudesAtBlock(address,address[],uint32)": "94d7d00c",
    "getMemberCount((address,uint32))": "b2447af7",
    "getMembers((address,uint32))": "6e875dba",
    "getMinimumSlashableStake((address,uint32),address[],address[],uint32)": "2bab2c4a",
    "getOperatorSetCount(address)": "ba1a84e5",
    "getRedistributionRecipient((address,uint32))": "0f3df50e",
    "getRegisteredSets(address)": "79ae50cd",
    "getSlashCount((address,uint32))": "4cfd2939",
    "getStrategiesInOperatorSet((address,uint32))": "4177a87c",
    "getStrategyAllocations(address,address)": "40120dab",
    "initialize(uint256)": "fe4b84df",
    "isMemberOfOperatorSet(address,(address,uint32))": "670d3ba2",
    "isOperatorRedistributable(address)": "dc2af692",
    "isOperatorSet((address,uint32))": "260dc758",
    "isOperatorSlashable(address,(address,uint32))": "1352c3e6",
    "isRedistributingOperatorSet((address,uint32))": "f231bd08",
    "modifyAllocations(address,((address,uint32),address[],uint64[])[])": "952899ee",
    "pause(uint256)": "136439dd",
    "pauseAll()": "595c6a67",
    "paused()": "5c975abb",
    "paused(uint8)": "5ac86ab7",
    "pauserRegistry()": "886f1195",
    "permissionController()": "4657e26a",
    "registerForOperatorSets(address,(address,uint32[],bytes))": "adc2e3d9",
    "removeStrategiesFromOperatorSet(address,uint32,address[])": "b66bd989",
    "setAVSRegistrar(address,address)": "d3d96ff4",
    "setAllocationDelay(address,uint32)": "56c483e6",
    "slashOperator(address,(address,uint32,address[],uint256[],string))": "36352057",
    "unpause(uint256)": "fabc1cbc",
    "updateAVSMetadataURI(address,string)": "a9821821",
    "version()": "54fd4d50"
  },
  "id": 117
}