{
  "abi": [
    {
      "type": "constructor",
      "inputs": [
        {
          "name": "_ethPOS",
          "type": "address",
          "internalType": "contract IETHPOSDeposit"
        },
        {
          "name": "_eigenPodManager",
          "type": "address",
          "internalType": "contract IEigenPodManager"
        },
        {
          "name": "_version",
          "type": "string",
          "internalType": "string"
        }
      ],
      "stateMutability": "nonpayable"
    },
    {
      "type": "receive",
      "stateMutability": "payable"
    },
    {
      "type": "function",
      "name": "activeValidatorCount",
      "inputs": [],
      "outputs": [
        {
          "name": "",
          "type": "uint256",
          "internalType": "uint256"
        }
      ],
      "stateMutability": "view"
    },
    {
      "type": "function",
      "name": "checkpointBalanceExitedGwei",
      "inputs": [
        {
          "name": "",
          "type": "uint64",
          "internalType": "uint64"
        }
      ],
      "outputs": [
        {
          "name": "",
          "type": "uint64",
          "internalType": "uint64"
        }
      ],
      "stateMutability": "view"
    },
    {
      "type": "function",
      "name": "currentCheckpoint",
      "inputs": [],
      "outputs": [
        {
          "name": "",
          "type": "tuple",
          "internalType": "struct IEigenPodTypes.Checkpoint",
          "components": [
            {
              "name": "beaconBlockRoot",
              "type": "bytes32",
              "internalType": "bytes32"
            },
            {
              "name": "proofsRemaining",
              "type": "uint24",
              "internalType": "uint24"
            },
            {
              "name": "podBalanceGwei",
              "type": "uint64",
              "internalType": "uint64"
            },
            {
              "name": "balanceDeltasGwei",
              "type": "int64",
              "internalType": "int64"
            },
            {
              "name": "prevBeaconBalanceGwei",
              "type": "uint64",
              "internalType": "uint64"
            }
          ]
        }
      ],
      "stateMutability": "view"
    },
    {
      "type": "function",
      "name": "currentCheckpointTimestamp",
      "inputs": [],
      "outputs": [
        {
          "name": "",
          "type": "uint64",
          "internalType": "uint64"
        }
      ],
      "stateMutability": "view"
    },
    {
      "type": "function",
      "name": "eigenPodManager",
      "inputs": [],
      "outputs": [
        {
          "name": "",
          "type": "address",
          "internalType": "contract IEigenPodManager"
        }
      ],
      "stateMutability": "view"
    },
    {
      "type": "function",
      "name": "ethPOS",
      "inputs": [],
      "outputs": [
        {
          "name": "",
          "type": "address",
          "internalType": "contract IETHPOSDeposit"
        }
      ],
      "stateMutability": "view"
    },
    {
      "type": "function",
      "name": "getConsolidationRequestFee",
      "inputs": [],
      "outputs": [
        {
          "name": "",
          "type": "uint256",
          "internalType": "uint256"
        }
      ],
      "stateMutability": "view"
    },
    {
      "type": "function",
      "name": "getParentBlockRoot",
      "inputs": [
        {
          "name": "timestamp",
          "type": "uint64",
          "internalType": "uint64"
        }
      ],
      "outputs": [
        {
          "name": "",
          "type": "bytes32",
          "internalType": "bytes32"
        }
      ],
      "stateMutability": "view"
    },
    {
      "type": "function",
      "name": "getWithdrawalRequestFee",
      "inputs": [],
      "outputs": [
        {
          "name": "",
          "type": "uint256",
          "internalType": "uint256"
        }
      ],
      "stateMutability": "view"
    },
    {
      "type": "function",
      "name": "initialize",
      "inputs": [
        {
          "name": "_podOwner",
          "type": "address",
          "internalType": "address"
        }
      ],
      "outputs": [],
      "stateMutability": "nonpayable"
    },
    {
      "type": "function",
      "name": "lastCheckpointTimestamp",
      "inputs": [],
      "outputs": [
        {
          "name": "",
          "type": "uint64",
          "internalType": "uint64"
        }
      ],
      "stateMutability": "view"
    },
    {
      "type": "function",
      "name": "podOwner",
      "inputs": [],
      "outputs": [
        {
          "name": "",
          "type": "address",
          "internalType": "address"
        }
      ],
      "stateMutability": "view"
    },
    {
      "type": "function",
      "name": "proofSubmitter",
      "inputs": [],
      "outputs": [
        {
          "name": "",
          "type": "address",
          "internalType": "address"
        }
      ],
      "stateMutability": "view"
    },
    {
      "type": "function",
      "name": "recoverTokens",
      "inputs": [
        {
          "name": "tokenList",
          "type": "address[]",
          "internalType": "contract IERC20[]"
        },
        {
          "name": "amountsToWithdraw",
          "type": "uint256[]",
          "internalType": "uint256[]"
        },
        {
          "name": "recipient",
          "type": "address",
          "internalType": "address"
        }
      ],
      "outputs": [],
      "stateMutability": "nonpayable"
    },
    {
      "type": "function",
      "name": "requestConsolidation",
      "inputs": [
        {
          "name": "requests",
          "type": "tuple[]",
          "internalType": "struct IEigenPodTypes.ConsolidationRequest[]",
          "components": [
            {
              "name": "srcPubkey",
              "type": "bytes",
              "internalType": "bytes"
            },
            {
              "name": "targetPubkey",
              "type": "bytes",
              "internalType": "bytes"
            }
          ]
        }
      ],
      "outputs": [],
      "stateMutability": "payable"
    },
    {
      "type": "function",
      "name": "requestWithdrawal",
      "inputs": [
        {
          "name": "requests",
          "type": "tuple[]",
          "internalType": "struct IEigenPodTypes.WithdrawalRequest[]",
          "components": [
            {
              "name": "pubkey",
              "type": "bytes",
              "internalType": "bytes"
            },
            {
              "name": "amountGwei",
              "type": "uint64",
              "internalType": "uint64"
            }
          ]
        }
      ],
      "outputs": [],
      "stateMutability": "payable"
    },
    {
      "type": "function",
      "name": "setProofSubmitter",
      "inputs": [
        {
          "name": "newProofSubmitter",
          "type": "address",
          "internalType": "address"
        }
      ],
      "outputs": [],
      "stateMutability": "nonpayable"
    },
    {
      "type": "function",
      "name": "stake",
      "inputs": [
        {
          "name": "pubkey",
          "type": "bytes",
          "internalType": "bytes"
        },
        {
          "name": "signature",
          "type": "bytes",
          "internalType": "bytes"
        },
        {
          "name": "depositDataRoot",
          "type": "bytes32",
          "internalType": "bytes32"
        }
      ],
      "outputs": [],
      "stateMutability": "payable"
    },
    {
      "type": "function",
      "name": "startCheckpoint",
      "inputs": [
        {
          "name": "revertIfNoBalance",
          "type": "bool",
          "internalType": "bool"
        }
      ],
      "outputs": [],
      "stateMutability": "nonpayable"
    },
    {
      "type": "function",
      "name": "validatorPubkeyHashToInfo",
      "inputs": [
        {
          "name": "validatorPubkeyHash",
          "type": "bytes32",
          "internalType": "bytes32"
        }
      ],
      "outputs": [
        {
          "name": "",
          "type": "tuple",
          "internalType": "struct IEigenPodTypes.ValidatorInfo",
          "components": [
            {
              "name": "validatorIndex",
              "type": "uint64",
              "internalType": "uint64"
            },
            {
              "name": "restakedBalanceGwei",
              "type": "uint64",
              "internalType": "uint64"
            },
            {
              "name": "lastCheckpointedAt",
              "type": "uint64",
              "internalType": "uint64"
            },
            {
              "name": "status",
              "type": "uint8",
              "internalType": "enum IEigenPodTypes.VALIDATOR_STATUS"
            }
          ]
        }
      ],
      "stateMutability": "view"
    },
    {
      "type": "function",
      "name": "validatorPubkeyToInfo",
      "inputs": [
        {
          "name": "validatorPubkey",
          "type": "bytes",
          "internalType": "bytes"
        }
      ],
      "outputs": [
        {
          "name": "",
          "type": "tuple",
          "internalType": "struct IEigenPodTypes.ValidatorInfo",
          "components": [
            {
              "name": "validatorIndex",
              "type": "uint64",
              "internalType": "uint64"
            },
            {
              "name": "restakedBalanceGwei",
              "type": "uint64",
              "internalType": "uint64"
            },
            {
              "name": "lastCheckpointedAt",
              "type": "uint64",
              "internalType": "uint64"
            },
            {
              "name": "status",
              "type": "uint8",
              "internalType": "enum IEigenPodTypes.VALIDATOR_STATUS"
            }
          ]
        }
      ],
      "stateMutability": "view"
    },
    {
      "type": "function",
      "name": "validatorStatus",
      "inputs": [
        {
          "name": "validatorPubkey",
          "type": "bytes",
          "internalType": "bytes"
        }
      ],
      "outputs": [
        {
          "name": "",
          "type": "uint8",
          "internalType": "enum IEigenPodTypes.VALIDATOR_STATUS"
        }
      ],
      "stateMutability": "view"
    },
    {
      "type": "function",
      "name": "validatorStatus",
      "inputs": [
        {
          "name": "pubkeyHash",
          "type": "bytes32",
          "internalType": "bytes32"
        }
      ],
      "outputs": [
        {
          "name": "",
          "type": "uint8",
          "internalType": "enum IEigenPodTypes.VALIDATOR_STATUS"
        }
      ],
      "stateMutability": "view"
    },
    {
      "type": "function",
      "name": "verifyCheckpointProofs",
      "inputs": [
        {
          "name": "balanceContainerProof",
          "type": "tuple",
          "internalType": "struct BeaconChainProofs.BalanceContainerProof",
          "components": [
            {
              "name": "balanceContainerRoot",
              "type": "bytes32",
              "internalType": "bytes32"
            },
            {
              "name": "proof",
              "type": "bytes",
              "internalType": "bytes"
            }
          ]
        },
        {
          "name": "proofs",
          "type": "tuple[]",
          "internalType": "struct BeaconChainProofs.BalanceProof[]",
          "components": [
            {
              "name": "pubkeyHash",
              "type": "bytes32",
              "internalType": "bytes32"
            },
            {
              "name": "balanceRoot",
              "type": "bytes32",
              "internalType": "bytes32"
            },
            {
              "name": "proof",
              "type": "bytes",
              "internalType": "bytes"
            }
          ]
        }
      ],
      "outputs": [],
      "stateMutability": "nonpayable"
    },
    {
      "type": "function",
      "name": "verifyStaleBalance",
      "inputs": [
        {
          "name": "beaconTimestamp",
          "type": "uint64",
          "internalType": "uint64"
        },
        {
          "name": "stateRootProof",
          "type": "tuple",
          "internalType": "struct BeaconChainProofs.StateRootProof",
          "components": [
            {
              "name": "beaconStateRoot",
              "type": "bytes32",
              "internalType": "bytes32"
            },
            {
              "name": "proof",
              "type": "bytes",
              "internalType": "bytes"
            }
          ]
        },
        {
          "name": "proof",
          "type": "tuple",
          "internalType": "struct BeaconChainProofs.ValidatorProof",
          "components": [
            {
              "name": "validatorFields",
              "type": "bytes32[]",
              "internalType": "bytes32[]"
            },
            {
              "name": "proof",
              "type": "bytes",
              "internalType": "bytes"
            }
          ]
        }
      ],
      "outputs": [],
      "stateMutability": "nonpayable"
    },
    {
      "type": "function",
      "name": "verifyWithdrawalCredentials",
      "inputs": [
        {
          "name": "beaconTimestamp",
          "type": "uint64",
          "internalType": "uint64"
        },
        {
          "name": "stateRootProof",
          "type": "tuple",
          "internalType": "struct BeaconChainProofs.StateRootProof",
          "components": [
            {
              "name": "beaconStateRoot",
              "type": "bytes32",
              "internalType": "bytes32"
            },
            {
              "name": "proof",
              "type": "bytes",
              "internalType": "bytes"
            }
          ]
        },
        {
          "name": "validatorIndices",
          "type": "uint40[]",
          "internalType": "uint40[]"
        },
        {
          "name": "validatorFieldsProofs",
          "type": "bytes[]",
          "internalType": "bytes[]"
        },
        {
          "name": "validatorFields",
          "type": "bytes32[][]",
          "internalType": "bytes32[][]"
        }
      ],
      "outputs": [],
      "stateMutability": "nonpayable"
    },
    {
      "type": "function",
      "name": "version",
      "inputs": [],
      "outputs": [
        {
          "name": "",
          "type": "string",
          "internalType": "string"
        }
      ],
      "stateMutability": "view"
    },
    {
      "type": "function",
      "name": "withdrawRestakedBeaconChainETH",
      "inputs": [
        {
          "name": "recipient",
          "type": "address",
          "internalType": "address"
        },
        {
          "name": "amountWei",
          "type": "uint256",
          "internalType": "uint256"
        }
      ],
      "outputs": [],
      "stateMutability": "nonpayable"
    },
    {
      "type": "function",
      "name": "withdrawableRestakedExecutionLayerGwei",
      "inputs": [],
      "outputs": [
        {
          "name": "",
          "type": "uint64",
          "internalType": "uint64"
        }
      ],
      "stateMutability": "view"
    },
    {
      "type": "event",
      "name": "CheckpointCreated",
      "inputs": [
        {
          "name": "checkpointTimestamp",
          "type": "uint64",
          "indexed": true,
          "internalType": "uint64"
        },
        {
          "name": "beaconBlockRoot",
          "type": "bytes32",
          "indexed": true,
          "internalType": "bytes32"
        },
        {
          "name": "validatorCount",
          "type": "uint256",
          "indexed": false,
          "internalType": "uint256"
        }
      ],
      "anonymous": false
    },
    {
      "type": "event",
      "name": "CheckpointFinalized",
      "inputs": [
        {
          "name": "checkpointTimestamp",
          "type": "uint64",
          "indexed": true,
          "internalType": "uint64"
        },
        {
          "name": "totalShareDeltaWei",
          "type": "int256",
          "indexed": false,
          "internalType": "int256"
        }
      ],
      "anonymous": false
    },
    {
      "type": "event",
      "name": "ConsolidationRequested",
      "inputs": [
        {
          "name": "sourcePubkeyHash",
          "type": "bytes32",
          "indexed": true,
          "internalType": "bytes32"
        },
        {
          "name": "targetPubkeyHash",
          "type": "bytes32",
          "indexed": true,
          "internalType": "bytes32"
        }
      ],
      "anonymous": false
    },
    {
      "type": "event",
      "name": "EigenPodStaked",
      "inputs": [
        {
          "name": "pubkeyHash",
          "type": "bytes32",
          "indexed": false,
          "internalType": "bytes32"
        }
      ],
      "anonymous": false
    },
    {
      "type": "event",
      "name": "ExitRequested",
      "inputs": [
        {
          "name": "validatorPubkeyHash",
          "type": "bytes32",
          "indexed": true,
          "internalType": "bytes32"
        }
      ],
      "anonymous": false
    },
    {
      "type": "event",
      "name": "Initialized",
      "inputs": [
        {
          "name": "version",
          "type": "uint8",
          "indexed": false,
          "internalType": "uint8"
        }
      ],
      "anonymous": false
    },
    {
      "type": "event",
      "name": "NonBeaconChainETHReceived",
      "inputs": [
        {
          "name": "amountReceived",
          "type": "uint256",
          "indexed": false,
          "internalType": "uint256"
        }
      ],
      "anonymous": false
    },
    {
      "type": "event",
      "name": "ProofSubmitterUpdated",
      "inputs": [
        {
          "name": "prevProofSubmitter",
          "type": "address",
          "indexed": false,
          "internalType": "address"
        },
        {
          "name": "newProofSubmitter",
          "type": "address",
          "indexed": false,
          "internalType": "address"
        }
      ],
      "anonymous": false
    },
    {
      "type": "event",
      "name": "RestakedBeaconChainETHWithdrawn",
      "inputs": [
        {
          "name": "recipient",
          "type": "address",
          "indexed": true,
          "internalType": "address"
        },
        {
          "name": "amount",
          "type": "uint256",
          "indexed": false,
          "internalType": "uint256"
        }
      ],
      "anonymous": false
    },
    {
      "type": "event",
      "name": "SwitchToCompoundingRequested",
      "inputs": [
        {
          "name": "validatorPubkeyHash",
          "type": "bytes32",
          "indexed": true,
          "internalType": "bytes32"
        }
      ],
      "anonymous": false
    },
    {
      "type": "event",
      "name": "ValidatorBalanceUpdated",
      "inputs": [
        {
          "name": "pubkeyHash",
          "type": "bytes32",
          "indexed": false,
          "internalType": "bytes32"
        },
        {
          "name": "balanceTimestamp",
          "type": "uint64",
          "indexed": false,
          "internalType": "uint64"
        },
        {
          "name": "newValidatorBalanceGwei",
          "type": "uint64",
          "indexed": false,
          "internalType": "uint64"
        }
      ],
      "anonymous": false
    },
    {
      "type": "event",
      "name": "ValidatorCheckpointed",
      "inputs": [
        {
          "name": "checkpointTimestamp",
          "type": "uint64",
          "indexed": true,
          "internalType": "uint64"
        },
        {
          "name": "pubkeyHash",
          "type": "bytes32",
          "indexed": true,
          "internalType": "bytes32"
        }
      ],
      "anonymous": false
    },
    {
      "type": "event",
      "name": "ValidatorRestaked",
      "inputs": [
        {
          "name": "pubkeyHash",
          "type": "bytes32",
          "indexed": false,
          "internalType": "bytes32"
        }
      ],
      "anonymous": false
    },
    {
      "type": "event",
      "name": "ValidatorWithdrawn",
      "inputs": [
        {
          "name": "checkpointTimestamp",
          "type": "uint64",
          "indexed": true,
          "internalType": "uint64"
        },
        {
          "name": "pubkeyHash",
          "type": "bytes32",
          "indexed": true,
          "internalType": "bytes32"
        }
      ],
      "anonymous": false
    },
    {
      "type": "event",
      "name": "WithdrawalRequested",
      "inputs": [
        {
          "name": "validatorPubkeyHash",
          "type": "bytes32",
          "indexed": true,
          "internalType": "bytes32"
        },
        {
          "name": "withdrawalAmountGwei",
          "type": "uint64",
          "indexed": false,
          "internalType": "uint64"
        }
      ],
      "anonymous": false
    },
    {
      "type": "error",
      "name": "BeaconTimestampBeforeLatestCheckpoint",
      "inputs": []
    },
    {
      "type": "error",
      "name": "BeaconTimestampTooFarInPast",
      "inputs": []
    },
    {
      "type": "error",
      "name": "CannotCheckpointTwiceInSingleBlock",
      "inputs": []
    },
    {
      "type": "error",
      "name": "CheckpointAlreadyActive",
      "inputs": []
    },
    {
      "type": "error",
      "name": "CredentialsAlreadyVerified",
      "inputs": []
    },
    {
      "type": "error",
      "name": "CurrentlyPaused",
      "inputs": []
    },
    {
      "type": "error",
      "name": "EmptyRoot",
      "inputs": []
    },
    {
      "type": "error",
      "name": "FeeQueryFailed",
      "inputs": []
    },
    {
      "type": "error",
      "name": "ForkTimestampZero",
      "inputs": []
    },
    {
      "type": "error",
      "name": "InputAddressZero",
      "inputs": []
    },
    {
      "type": "error",
      "name": "InputArrayLengthMismatch",
      "inputs": []
    },
    {
      "type": "error",
      "name": "InsufficientFunds",
      "inputs": []
    },
    {
      "type": "error",
      "name": "InsufficientWithdrawableBalance",
      "inputs": []
    },
    {
      "type": "error",
      "name": "InvalidEIP4788Response",
      "inputs": []
    },
    {
      "type": "error",
      "name": "InvalidIndex",
      "inputs": []
    },
    {
      "type": "error",
      "name": "InvalidProof",
      "inputs": []
    },
    {
      "type": "error",
      "name": "InvalidProofLength",
      "inputs": []
    },
    {
      "type": "error",
      "name": "InvalidProofLength",
      "inputs": []
    },
    {
      "type": "error",
      "name": "InvalidPubKeyLength",
      "inputs": []
    },
    {
      "type": "error",
      "name": "InvalidShortString",
      "inputs": []
    },
    {
      "type": "error",
      "name": "InvalidValidatorFieldsLength",
      "inputs": []
    },
    {
      "type": "error",
      "name": "LeavesNotPowerOfTwo",
      "inputs": []
    },
    {
      "type": "error",
      "name": "MsgValueNot32ETH",
      "inputs": []
    },
    {
      "type": "error",
      "name": "NoActiveCheckpoint",
      "inputs": []
    },
    {
      "type": "error",
      "name": "NoBalanceToCheckpoint",
      "inputs": []
    },
    {
      "type": "error",
      "name": "NotEnoughLeaves",
      "inputs": []
    },
    {
      "type": "error",
      "name": "OnlyEigenPodManager",
      "inputs": []
    },
    {
      "type": "error",
      "name": "OnlyEigenPodOwner",
      "inputs": []
    },
    {
      "type": "error",
      "name": "OnlyEigenPodOwnerOrProofSubmitter",
      "inputs": []
    },
    {
      "type": "error",
      "name": "PredeployFailed",
      "inputs": []
    },
    {
      "type": "error",
      "name": "StringTooLong",
      "inputs": [
        {
          "name": "str",
          "type": "string",
          "internalType": "string"
        }
      ]
    },
    {
      "type": "error",
      "name": "TimestampOutOfRange",
      "inputs": []
    },
    {
      "type": "error",
      "name": "ValidatorInactiveOnBeaconChain",
      "inputs": []
    },
    {
      "type": "error",
      "name": "ValidatorIsExitingBeaconChain",
      "inputs": []
    },
    {
      "type": "error",
      "name": "ValidatorNotActiveInPod",
      "inputs": []
    },
    {
      "type": "error",
      "name": "ValidatorNotSlashedOnBeaconChain",
      "inputs": []
    },
    {
      "type": "error",
      "name": "WithdrawalCredentialsNotForEigenPod",
      "inputs": []
    }
  ],
  "bytecode": {
    "object": "0x60e060405234801561000f575f5ffd5b5060405161495a38038061495a83398101604081905261002e91610188565b806100388161005f565b608052506001600160a01b0380841660a052821660c0526100576100a5565b5050506102b9565b5f5f829050601f81511115610092578260405163305a27a960e01b8152600401610089919061025e565b60405180910390fd5b805161009d82610293565b179392505050565b5f54610100900460ff161561010c5760405162461bcd60e51b815260206004820152602760248201527f496e697469616c697a61626c653a20636f6e747261637420697320696e697469604482015266616c697a696e6760c81b6064820152608401610089565b5f5460ff9081161461015b575f805460ff191660ff9081179091556040519081527f7f26b83ff96e1f2b6a682f133852f6798a09c465da95921460cefb38474024989060200160405180910390a15b565b6001600160a01b0381168114610171575f5ffd5b50565b634e487b7160e01b5f52604160045260245ffd5b5f5f5f6060848603121561019a575f5ffd5b83516101a58161015d565b60208501519093506101b68161015d565b60408501519092506001600160401b038111156101d1575f5ffd5b8401601f810186136101e1575f5ffd5b80516001600160401b038111156101fa576101fa610174565b604051601f8201601f19908116603f011681016001600160401b038111828210171561022857610228610174565b60405281815282820160200188101561023f575f5ffd5b8160208401602083015e5f602083830101528093505050509250925092565b602081525f82518060208401528060208501604085015e5f604082850101526040601f19601f83011684010191505092915050565b805160208083015191908110156102b3575f198160200360031b1b821691505b50919050565b60805160a05160c0516146156103455f395f8181610329015281816106d40152818161077c01528181610a2a01528181610deb01528181610fe5015281816110f0015281816115f1015281816116980152818161192101528181611c6f01528181611da301528181612279015261318301525f818161057a015261170101525f61105101526146155ff3fe6080604052600436106101bd575f3560e01c80636691954e116100f2578063b522538a11610092578063d06d558711610062578063d06d55871461063f578063dda3346c1461065e578063ee94d67c1461067d578063f074ba621461069c575f5ffd5b8063b522538a146105ce578063c44e30dc146105ed578063c490744214610601578063c4d66de814610620575f5ffd5b80637439841f116100cd5780637439841f1461053457806374cdd7981461056957806388676cad1461059c5780639b4e4634146105bb575f5ffd5b80636691954e146104d65780636c0d2d5a146104e95780636fcd0e5314610508575f5ffd5b806342ecff2a1161015d57806352396a591161013857806352396a591461043657806354fd4d501461046a578063587533571461048b57806358eaee79146104aa575f5ffd5b806342ecff2a146102f25780634665bcda1461031857806347d283721461034b575f5ffd5b80632340e8d3116101985780632340e8d31461027a5780633474aa161461028f5780633f5fa57a146102c05780633f65cf19146102d3575f5ffd5b8063039157d2146101fb5780630b18ff661461021c5780631e51553314610258575f5ffd5b366101f7576040513481527f6fdd3dbdb173299608c0aa9f368735857c8842b581f8389238bf05bd04b3bf499060200160405180910390a1005b5f5ffd5b348015610206575f5ffd5b5061021a610215366004613abc565b6106bb565b005b348015610227575f5ffd5b5060335461023b906001600160a01b031681565b6040516001600160a01b0390911681526020015b60405180910390f35b348015610263575f5ffd5b5061026c6109f0565b60405190815260200161024f565b348015610285575f5ffd5b5061026c60395481565b34801561029a575f5ffd5b506034546001600160401b03165b6040516001600160401b03909116815260200161024f565b61021a6102ce366004613b77565b610a11565b3480156102de575f5ffd5b5061021a6102ed366004613bb5565b610d92565b3480156102fd575f5ffd5b50603a546102a890600160401b90046001600160401b031681565b348015610323575f5ffd5b5061023b7f000000000000000000000000000000000000000000000000000000000000000081565b348015610356575f5ffd5b506103db6040805160a0810182525f80825260208201819052918101829052606081018290526080810191909152506040805160a081018252603c548152603d5462ffffff811660208301526001600160401b0363010000008204811693830193909352600160581b810460070b6060830152600160981b9004909116608082015290565b60405161024f91905f60a0820190508251825262ffffff60208401511660208301526001600160401b036040840151166040830152606083015160070b60608301526001600160401b03608084015116608083015292915050565b348015610441575f5ffd5b506102a8610450366004613c8c565b603b6020525f90815260409020546001600160401b031681565b348015610475575f5ffd5b5061047e61104a565b60405161024f9190613cd5565b348015610496575f5ffd5b50603e5461023b906001600160a01b031681565b3480156104b5575f5ffd5b506104c96104c4366004613d24565b611075565b60405161024f9190613d8a565b61021a6104e4366004613b77565b6110d7565b3480156104f4575f5ffd5b5061026c610503366004613c8c565b6113df565b348015610513575f5ffd5b50610527610522366004613d98565b6114ed565b60405161024f9190613daf565b34801561053f575f5ffd5b506104c961054e366004613d98565b5f90815260366020526040902054600160c01b900460ff1690565b348015610574575f5ffd5b5061023b7f000000000000000000000000000000000000000000000000000000000000000081565b3480156105a7575f5ffd5b5061021a6105b6366004613e0f565b611598565b61021a6105c9366004613e2a565b61168d565b3480156105d9575f5ffd5b506105276105e8366004613d24565b61180b565b3480156105f8575f5ffd5b5061026c6118fa565b34801561060c575f5ffd5b5061021a61061b366004613ebf565b611916565b34801561062b575f5ffd5b5061021a61063a366004613ee9565b611a4d565b34801561064a575f5ffd5b5061021a610659366004613ee9565b611b97565b348015610669575f5ffd5b5061021a610678366004613fd4565b611c2b565b348015610688575f5ffd5b50603a546102a8906001600160401b031681565b3480156106a7575f5ffd5b5061021a6106b63660046140a6565b611d8a565b604051635ac86ab760e01b8152600660048201819052907f00000000000000000000000000000000000000000000000000000000000000006001600160a01b031690635ac86ab790602401602060405180830381865afa158015610721573d5f5f3e3d5ffd5b505050506040513d601f19601f82011682018060405250810190610745919061410d565b156107635760405163840a48d560e01b815260040160405180910390fd5b604051635ac86ab760e01b8152600860048201819052907f00000000000000000000000000000000000000000000000000000000000000006001600160a01b031690635ac86ab790602401602060405180830381865afa1580156107c9573d5f5f3e3d5ffd5b505050506040513d601f19601f820116820180604052508101906107ed919061410d565b1561080b5760405163840a48d560e01b815260040160405180910390fd5b5f61084f6108198580614128565b808060200260200160405190810160405280939291908181526020018383602002808284375f9201919091525061218692505050565b5f818152603660209081526040808320815160808101835281546001600160401b038082168352600160401b8204811695830195909552600160801b8104909416928101929092529394509192906060830190600160c01b900460ff1660028111156108bd576108bd613d56565b60028111156108ce576108ce613d56565b81525050905080604001516001600160401b0316876001600160401b03161161090a576040516337e07ffd60e01b815260040160405180910390fd5b60018160600151600281111561092257610922613d56565b146109405760405163d49e19a760e01b815260040160405180910390fd5b61098361094d8680614128565b808060200260200160405190810160405280939291908181526020018383602002808284375f920191909152506121a892505050565b6109a05760405163161ce5ed60e31b815260040160405180910390fd5b6109b26109ac886113df565b876121d0565b6109de6109be88612275565b87356109ca8880614128565b6109d760208b018b61416d565b875161234c565b6109e75f612480565b50505050505050565b5f610a0c71bbddc7ce488642fb579f8b00f3a590007251612600565b905090565b604051635ac86ab760e01b8152600a60048201819052907f00000000000000000000000000000000000000000000000000000000000000006001600160a01b031690635ac86ab790602401602060405180830381865afa158015610a77573d5f5f3e3d5ffd5b505050506040513d601f19601f82011682018060405250810190610a9b919061410d565b15610ab95760405163840a48d560e01b815260040160405180910390fd5b6033546001600160a01b0316331480610adc5750603e546001600160a01b031633145b610af95760405163427a777960e01b815260040160405180910390fd5b5f610b026118fa565b90505f610b0f84836141c3565b905080341015610b325760405163356680b760e01b815260040160405180910390fd5b5f610b3d82346141da565b90505f5b85811015610d795736878783818110610b5c57610b5c6141ed565b9050602002810190610b6e9190614201565b90505f610bb7610b7e838061416d565b8080601f0160208091040260200160405190810160405280939291908181526020018383808284375f9201919091525061268692505050565b905060015f82815260366020526040902054600160c01b900460ff166002811115610be457610be4613d56565b14610c025760405163d49e19a760e01b815260040160405180910390fd5b5f610c0d838061416d565b610c1d6040860160208701613c8c565b604051602001610c2f9392919061421f565b60405160208183030381529060405290505f710961ef480eb55e80d19ad83579a64c0070026001600160a01b03168883604051610c6c9190614257565b5f6040518083038185875af1925050503d805f8114610ca6576040519150601f19603f3d011682016040523d82523d5f602084013e610cab565b606091505b5050905080610ccd5760405163fc52d48360e01b815260040160405180910390fd5b610cdd6040850160208601613c8c565b6001600160401b03165f03610d1b5760405183907f60d8ca014d4765a2b8b389e25714cb1cef83b574222911a01d90c1bd69d2d320905f90a2610d69565b827f8b2737bb64ab2f2dc09552dfa1c250399e6a42c7ea9f0e1c658f5d65d708ec05610d4d6040870160208801613c8c565b6040516001600160401b03909116815260200160405180910390a25b505060019092019150610b419050565b508015610d8a57610d8a3382612717565b505050505050565b6033546001600160a01b0316331480610db55750603e546001600160a01b031633145b610dd25760405163427a777960e01b815260040160405180910390fd5b604051635ac86ab760e01b8152600260048201819052907f00000000000000000000000000000000000000000000000000000000000000006001600160a01b031690635ac86ab790602401602060405180830381865afa158015610e38573d5f5f3e3d5ffd5b505050506040513d601f19601f82011682018060405250810190610e5c919061410d565b15610e7a5760405163840a48d560e01b815260040160405180910390fd5b8584148015610e8857508382145b610ea5576040516343714afd60e01b815260040160405180910390fd5b603a546001600160401b03600160401b9091048116908a1611610edb576040516337e07ffd60e01b815260040160405180910390fd5b603a546001600160401b03908116908a1611610f0a576040516335e7f6b760e01b815260040160405180910390fd5b610f1c610f168a6113df565b896121d0565b5f805b87811015610fb557610fa18b8b358b8b85818110610f3f57610f3f6141ed565b9050602002016020810190610f549190614262565b8a8a86818110610f6657610f666141ed565b9050602002810190610f78919061416d565b8a8a88818110610f8a57610f8a6141ed565b9050602002810190610f9c9190614128565b61282c565b610fab9083614286565b9150600101610f1f565b5060335460405163a1ca780b60e01b81526001600160a01b0391821660048201525f6024820152604481018390527f00000000000000000000000000000000000000000000000000000000000000009091169063a1ca780b906064015f604051808303815f87803b158015611028575f5ffd5b505af115801561103a573d5f5f3e3d5ffd5b5050505050505050505050505050565b6060610a0c7f0000000000000000000000000000000000000000000000000000000000000000612d2d565b5f5f6110b584848080601f0160208091040260200160405190810160405280939291908181526020018383808284375f9201919091525061268692505050565b5f90815260366020526040902054600160c01b900460ff169150505b92915050565b604051635ac86ab760e01b8152600960048201819052907f00000000000000000000000000000000000000000000000000000000000000006001600160a01b031690635ac86ab790602401602060405180830381865afa15801561113d573d5f5f3e3d5ffd5b505050506040513d601f19601f82011682018060405250810190611161919061410d565b1561117f5760405163840a48d560e01b815260040160405180910390fd5b6033546001600160a01b03163314806111a25750603e546001600160a01b031633145b6111bf5760405163427a777960e01b815260040160405180910390fd5b5f6111c86109f0565b90505f6111d584836141c3565b9050803410156111f85760405163356680b760e01b815260040160405180910390fd5b5f61120382346141da565b90505f5b85811015610d795736878783818110611222576112226141ed565b90506020028101906112349190614201565b90505f611244610b7e838061416d565b90505f611257610b7e602085018561416d565b905060015f82815260366020526040902054600160c01b900460ff16600281111561128457611284613d56565b146112a25760405163d49e19a760e01b815260040160405180910390fd5b5f6112ad848061416d565b6112ba602087018761416d565b6040516020016112cd9493929190614299565b60405160208183030381529060405290505f71bbddc7ce488642fb579f8b00f3a5900072516001600160a01b0316898360405161130a9190614257565b5f6040518083038185875af1925050503d805f8114611344576040519150601f19603f3d011682016040523d82523d5f602084013e611349565b606091505b505090508061136b5760405163fc52d48360e01b815260040160405180910390fd5b8284036113a15760405184907fc97b965b92ae7fd20095fe8eb7b99f81f95f8c4adffb22a19116d8eb2846b016905f90a26113ce565b604051839085907f42f9c9db2ca443e9ec62f4588bd0c9b241065c02c2a8001ac164ae1282dc7b94905f90a35b505060019093019250611207915050565b5f6113ed611fff600c6141c3565b6114006001600160401b038416426141da565b1061141e57604051637944e66d60e11b815260040160405180910390fd5b604080516001600160401b03841660208201525f918291720f3df6d732807ef1319fb7b8bb8522d0beac02910160408051601f198184030181529082905261146591614257565b5f60405180830381855afa9150503d805f811461149d576040519150601f19603f3d011682016040523d82523d5f602084013e6114a2565b606091505b50915091508180156114b457505f8151115b6114d15760405163558ad0a360e01b815260040160405180910390fd5b808060200190518101906114e591906142b8565b949350505050565b611514604080516080810182525f8082526020820181905291810182905290606082015290565b5f82815260366020908152604091829020825160808101845281546001600160401b038082168352600160401b8204811694830194909452600160801b810490931693810193909352906060830190600160c01b900460ff16600281111561157e5761157e613d56565b600281111561158f5761158f613d56565b90525092915050565b6033546001600160a01b03163314806115bb5750603e546001600160a01b031633145b6115d85760405163427a777960e01b815260040160405180910390fd5b604051635ac86ab760e01b8152600660048201819052907f00000000000000000000000000000000000000000000000000000000000000006001600160a01b031690635ac86ab790602401602060405180830381865afa15801561163e573d5f5f3e3d5ffd5b505050506040513d601f19601f82011682018060405250810190611662919061410d565b156116805760405163840a48d560e01b815260040160405180910390fd5b61168982612480565b5050565b336001600160a01b037f000000000000000000000000000000000000000000000000000000000000000016146116d657604051633213a66160e21b815260040160405180910390fd5b346801bc16d674ec800000146116ff5760405163049696b360e31b815260040160405180910390fd5b7f00000000000000000000000000000000000000000000000000000000000000006001600160a01b031663228951186801bc16d674ec8000008787611742612d6a565b8888886040518863ffffffff1660e01b8152600401611766969594939291906142f7565b5f604051808303818588803b15801561177d575f5ffd5b505af115801561178f573d5f5f3e3d5ffd5b50505050507fa01003766d3cd97cf2ade5429690bf5d206be7fb01ef9d3a0089ecf67bc112196117f386868080601f0160208091040260200160405190810160405280939291908181526020018383808284375f9201919091525061268692505050565b60405190815260200160405180910390a15050505050565b611832604080516080810182525f8082526020820181905291810182905290606082015290565b60365f61187385858080601f0160208091040260200160405190810160405280939291908181526020018383808284375f9201919091525061268692505050565b815260208082019290925260409081015f20815160808101835281546001600160401b038082168352600160401b8204811695830195909552600160801b81049094169281019290925290916060830190600160c01b900460ff1660028111156118df576118df613d56565b60028111156118f0576118f0613d56565b9052509392505050565b5f610a0c710961ef480eb55e80d19ad83579a64c007002612600565b336001600160a01b037f0000000000000000000000000000000000000000000000000000000000000000161461195f57604051633213a66160e21b815260040160405180910390fd5b5f61196e633b9aca0083614359565b9050611987633b9aca006001600160401b0383166141c3565b6034549092506001600160401b0390811690821611156119ba576040516302c6f54760e21b815260040160405180910390fd5b603480548291905f906119d79084906001600160401b031661436c565b92506101000a8154816001600160401b0302191690836001600160401b03160217905550826001600160a01b03167f8947fd2ce07ef9cc302c4e8f0461015615d91ce851564839e91cc804c2f49d8e83604051611a3691815260200190565b60405180910390a2611a488383612717565b505050565b5f54610100900460ff1615808015611a6b57505f54600160ff909116105b80611a845750303b158015611a8457505f5460ff166001145b611aec5760405162461bcd60e51b815260206004820152602e60248201527f496e697469616c697a61626c653a20636f6e747261637420697320616c72656160448201526d191e481a5b9a5d1a585b1a5e995960921b60648201526084015b60405180910390fd5b5f805460ff191660011790558015611b0d575f805461ff0019166101001790555b6001600160a01b038216611b34576040516339b190bb60e11b815260040160405180910390fd5b603380546001600160a01b0319166001600160a01b0384161790558015611689575f805461ff0019169055604051600181527f7f26b83ff96e1f2b6a682f133852f6798a09c465da95921460cefb38474024989060200160405180910390a15050565b6033546001600160a01b03163314611bc25760405163719f370360e11b815260040160405180910390fd5b603e54604080516001600160a01b03928316815291831660208301527ffb8129080a19d34dceac04ba253fc50304dc86c729bd63cdca4a969ad19a5eac910160405180910390a1603e80546001600160a01b0319166001600160a01b0392909216919091179055565b6033546001600160a01b03163314611c565760405163719f370360e11b815260040160405180910390fd5b604051635ac86ab760e01b8152600560048201819052907f00000000000000000000000000000000000000000000000000000000000000006001600160a01b031690635ac86ab790602401602060405180830381865afa158015611cbc573d5f5f3e3d5ffd5b505050506040513d601f19601f82011682018060405250810190611ce0919061410d565b15611cfe5760405163840a48d560e01b815260040160405180910390fd5b8251845114611d20576040516343714afd60e01b815260040160405180910390fd5b5f5b8451811015611d8357611d7b83858381518110611d4157611d416141ed565b6020026020010151878481518110611d5b57611d5b6141ed565b60200260200101516001600160a01b0316612d9a9092919063ffffffff16565b600101611d22565b5050505050565b604051635ac86ab760e01b8152600760048201819052907f00000000000000000000000000000000000000000000000000000000000000006001600160a01b031690635ac86ab790602401602060405180830381865afa158015611df0573d5f5f3e3d5ffd5b505050506040513d601f19601f82011682018060405250810190611e14919061410d565b15611e325760405163840a48d560e01b815260040160405180910390fd5b603a54600160401b90046001600160401b03165f819003611e6657604051631a544f4960e01b815260040160405180910390fd5b6040805160a081018252603c548152603d5462ffffff811660208301526001600160401b0363010000008204811693830193909352600160581b810460070b6060830152600160981b90049091166080820152611ecd611ec583612275565b825188612dec565b5f805b8581101561212d5736878783818110611eeb57611eeb6141ed565b9050602002810190611efd919061438b565b80355f908152603660209081526040808320815160808101835281546001600160401b038082168352600160401b8204811695830195909552600160801b8104909416928101929092529394509192906060830190600160c01b900460ff166002811115611f6d57611f6d613d56565b6002811115611f7e57611f7e613d56565b9052509050600181606001516002811115611f9b57611f9b613d56565b14611fa7575050612125565b856001600160401b031681604001516001600160401b031610611fcb575050612125565b5f8080611fdb848a8f3588612ead565b60208b0180519396509194509250611ff28261439f565b62ffffff1690525060808801805184919061200e9083906143bc565b6001600160401b031690525060608801805183919061202e9083906143db565b60070b90525061203e81886143bc565b85355f908152603660209081526040918290208751815492890151938901516001600160401b03908116600160801b0267ffffffffffffffff60801b19958216600160401b026001600160801b0319909516919092161792909217928316821781556060880151939a50879390929091839160ff60c01b1990911668ffffffffffffffffff60801b1990911617600160c01b8360028111156120e2576120e2613d56565b021790555050604051863591506001600160401b038b16907fe4866335761a51dcaff766448ab0af6064291ee5dc94e68492bb9cd757c1e350905f90a350505050505b600101611ed0565b506001600160401b038084165f908152603b6020526040812080548493919291612159918591166143bc565b92506101000a8154816001600160401b0302191690836001600160401b031602179055506109e782612fc3565b5f815f81518110612199576121996141ed565b60200260200101519050919050565b5f816003815181106121bc576121bc6141ed565b60200260200101515f5f1b14159050919050565b6121dc600360206141c3565b6121e9602083018361416d565b905014612209576040516313717da960e21b815260040160405180910390fd5b612258612219602083018361416d565b8080601f0160208091040260200160405190810160405280939291908181526020018383808284375f92019190915250869250508435905060036131e3565b611689576040516309bde33960e01b815260040160405180910390fd5b5f5f7f00000000000000000000000000000000000000000000000000000000000000006001600160a01b0316632704351a6040518163ffffffff1660e01b8152600401602060405180830381865afa1580156122d3573d5f5f3e3d5ffd5b505050506040513d601f19601f820116820180604052508101906122f7919061440a565b9050806001600160401b03165f03612322576040516341a02cc960e01b815260040160405180910390fd5b806001600160401b0316836001600160401b03161115612343576001612345565b5f5b9392505050565b6008841461236d5760405163200591bd60e01b815260040160405180910390fd5b5f61237788613218565b90508061238660286001614286565b6123909190614286565b61239b9060206141c3565b83146123ba576040516313717da960e21b815260040160405180910390fd5b5f6123f68787808060200260200160405190810160405280939291908181526020018383602002808284375f9201919091525061324092505050565b90505f64ffffffffff841661240d60286001614286565b600b901b17905061245786868080601f0160208091040260200160405190810160405280939291908181526020018383808284375f920191909152508d92508691508590506131e3565b612474576040516309bde33960e01b815260040160405180910390fd5b50505050505050505050565b603a54600160401b90046001600160401b0316156124b05760405162be9bc360e81b815260040160405180910390fd5b603a546001600160401b034281169116036124de576040516367db5b8b60e01b815260040160405180910390fd5b6034545f906001600160401b03166124fa633b9aca0047614359565b612504919061436c565b905081801561251a57506001600160401b038116155b15612538576040516332dea95960e21b815260040160405180910390fd5b5f6040518060a0016040528061254d426113df565b815260395462ffffff1660208201526001600160401b0380851660408301525f60608301819052608090920191909152603a805442909216600160401b026fffffffffffffffff00000000000000001990921691909117905590506125b181612fc3565b805160208083015160405162ffffff90911681526001600160401b034216917f575796133bbed337e5b39aa49a30dc2556a91e0c6c2af4b7b886ae77ebef1076910160405180910390a3505050565b5f5f5f836001600160a01b03166040515f60405180830381855afa9150503d805f8114612648576040519150601f19603f3d011682016040523d82523d5f602084013e61264d565b606091505b5091509150818015612660575080516020145b61267d5760405163c90158af60e01b815260040160405180910390fd5b6114e581614425565b5f81516030146126a957604051634f88323960e11b815260040160405180910390fd5b6040516002906126bf9084905f90602001614448565b60408051601f19818403018152908290526126d991614257565b602060405180830381855afa1580156126f4573d5f5f3e3d5ffd5b5050506040513d601f19601f820116820180604052508101906110d191906142b8565b804710156127675760405162461bcd60e51b815260206004820152601d60248201527f416464726573733a20696e73756666696369656e742062616c616e63650000006044820152606401611ae3565b5f826001600160a01b0316826040515f6040518083038185875af1925050503d805f81146127b0576040519150601f19603f3d011682016040523d82523d5f602084013e6127b5565b606091505b5050905080611a485760405162461bcd60e51b815260206004820152603a60248201527f416464726573733a20756e61626c6520746f2073656e642076616c75652c207260448201527f6563697069656e74206d617920686176652072657665727465640000000000006064820152608401611ae3565b5f5f6128698484808060200260200160405190810160405280939291908181526020018383602002808284375f9201919091525061218692505050565b5f818152603660209081526040808320815160808101835281546001600160401b038082168352600160401b8204811695830195909552600160801b8104909416928101929092529394509192906060830190600160c01b900460ff1660028111156128d7576128d7613d56565b60028111156128e8576128e8613d56565b90525090505f8160600151600281111561290457612904613d56565b14612922576040516335e09e9d60e01b815260040160405180910390fd5b6001600160401b0380166129678686808060200260200160405190810160405280939291908181526020018383602002808284375f9201919091525061350e92505050565b6001600160401b03160361298e57604051631958236d60e21b815260040160405180910390fd5b6001600160401b0380166129d38686808060200260200160405190810160405280939291908181526020018383602002808284375f9201919091525061353292505050565b6001600160401b0316146129fa57604051632eade63760e01b815260040160405180910390fd5b612a02612d6a565b612a0b90614425565b612a468686808060200260200160405190810160405280939291908181526020018383602002808284375f9201919091525061354992505050565b1480612a9b5750612a5561355d565b612a5e90614425565b612a998686808060200260200160405190810160405280939291908181526020018383602002808284375f9201919091525061354992505050565b145b612ab857604051633772dd5360e11b815260040160405180910390fd5b5f612af48686808060200260200160405190810160405280939291908181526020018383602002808284375f9201919091525061357992505050565b9050612b0d612b028c612275565b8b88888c8c8f61234c565b60398054905f612b1c8361446c565b9091555050603a545f90600160401b90046001600160401b031615612b5357603a54600160401b90046001600160401b0316612b60565b603a546001600160401b03165b6040805160808101825264ffffffffff8d1681526001600160401b03858116602083015283169181019190915290915060608101600190525f858152603660209081526040918290208351815492850151938501516001600160401b03908116600160801b0267ffffffffffffffff60801b19958216600160401b026001600160801b031990951691909216179290921792831682178155606084015190929091839160ff60c01b1990911668ffffffffffffffffff60801b1990911617600160c01b836002811115612c3557612c35613d56565b021790555050603d8054849250601390612c60908490600160981b90046001600160401b03166143bc565b92506101000a8154816001600160401b0302191690836001600160401b031602179055507f101790c2993f6a4d962bd17c786126823ba1c4cf04ff4cccb2659d50fb20aee884604051612cb591815260200190565b60405180910390a1604080518581526001600160401b03838116602083015284168183015290517fcdae700d7241bc027168c53cf6f889763b0a2c88a65d77fc13a8a9fef0d8605f9181900360600190a1612d1d633b9aca006001600160401b0384166141c3565b9c9b505050505050505050505050565b60605f612d3983613590565b6040805160208082528183019092529192505f91906020820181803683375050509182525060208101929092525090565b604051606090612d8690600160f81b905f903090602001614484565b604051602081830303815290604052905090565b604080516001600160a01b038416602482015260448082018490528251808303909101815260649091019091526020810180516001600160e01b031663a9059cbb60e01b179052611a489084906135b7565b5f612df684613218565b9050612e03816003614286565b612e0e9060206141c3565b612e1b602084018461416d565b905014612e3b576040516313717da960e21b815260040160405180910390fd5b6003811b600c17612e90612e52602085018561416d565b8080601f0160208091040260200160405190810160405280939291908181526020018383808284375f920191909152508892505086359050846131e3565b611d83576040516309bde33960e01b815260040160405180910390fd5b5f5f5f866020015192505f612ec686895f01518761368a565b9050836001600160401b0316816001600160401b031614612f3a57612eeb84826144c2565b60408051873581526001600160401b038a8116602083015284168183015290519194507fcdae700d7241bc027168c53cf6f889763b0a2c88a65d77fc13a8a9fef0d8605f919081900360600190a15b6001600160401b0380821660208a0181905290881660408a01525f03612fb85760398054905f612f69836144f1565b909155505060026060890152612f7e83614506565b6040519092508535906001600160401b038916907f5ce0aa04ae51d52da6e680fbe0336d2e2432f7c3dc2d4f3193204c57b9072107905f90a35b509450945094915050565b8051603c556020810151603d805460408401516060850151608086015162ffffff9095166affffffffffffffffffffff19909316831763010000006001600160401b0393841602176fffffffffffffffffffffffffffffffff60581b1916600160581b9183169190910267ffffffffffffffff60981b191617600160981b9190941602929092179055156130545750565b60808101516034545f91613070916001600160401b03166143bc565b90505f8260600151836040015161308791906143db565b60408401516034805492935090915f906130ab9084906001600160401b03166143bc565b82546101009290920a6001600160401b03818102199093169183160217909155603a8054600160401b810483166001600160801b03199091161790555f91506130fb90633b9aca009085166141c3565b90505f613110633b9aca00600785900b61452b565b603a546040518281529192506001600160401b0316907f525408c201bc1576eb44116f6478f1c2a54775b19a043bcfdc708364f74f8e449060200160405180910390a260335460405163a1ca780b60e01b81526001600160a01b03918216600482015260248101849052604481018390527f00000000000000000000000000000000000000000000000000000000000000009091169063a1ca780b906064015f604051808303815f87803b1580156131c6575f5ffd5b505af11580156131d8573d5f5f3e3d5ffd5b505050505050505050565b5f83613202576040516329e7276760e11b815260040160405180910390fd5b8361320e868585613768565b1495945050505050565b5f8082600181111561322c5761322c613d56565b146132385760066110d1565b600592915050565b5f60018251116132635760405163f8ef036760e01b815260040160405180910390fd5b61326d825161385b565b61328a5760405163f6558f5160e01b815260040160405180910390fd5b5f600283516132999190614359565b90505f816001600160401b038111156132b4576132b4613f04565b6040519080825280602002602001820160405280156132dd578160200160208202803683370190505b5090505f5b828110156133d7576002856132f783836141c3565b81518110613307576133076141ed565b60200260200101518683600261331d91906141c3565b613328906001614286565b81518110613338576133386141ed565b602002602001015160405160200161335a929190918252602082015260400190565b60408051601f198184030181529082905261337491614257565b602060405180830381855afa15801561338f573d5f5f3e3d5ffd5b5050506040513d601f19601f820116820180604052508101906133b291906142b8565b8282815181106133c4576133c46141ed565b60209081029190910101526001016132e2565b505b816001146134eb576133ec600283614359565b91505f5b828110156134e55760028261340583836141c3565b81518110613415576134156141ed565b60200260200101518383600261342b91906141c3565b613436906001614286565b81518110613446576134466141ed565b6020026020010151604051602001613468929190918252602082015260400190565b60408051601f198184030181529082905261348291614257565b602060405180830381855afa15801561349d573d5f5f3e3d5ffd5b5050506040513d601f19601f820116820180604052508101906134c091906142b8565b8282815181106134d2576134d26141ed565b60209081029190910101526001016133f0565b506133d9565b805f815181106134fd576134fd6141ed565b602002602001015192505050919050565b5f6110d182600581518110613525576135256141ed565b602002602001015161387a565b5f6110d182600681518110613525576135256141ed565b5f81600181518110612199576121996141ed565b604051606090612d8690600160f91b905f903090602001614484565b5f6110d182600281518110613525576135256141ed565b5f60ff8216601f8111156110d157604051632cd44ac360e21b815260040160405180910390fd5b5f61360b826040518060400160405280602081526020017f5361666545524332303a206c6f772d6c6576656c2063616c6c206661696c6564815250856001600160a01b03166138e19092919063ffffffff16565b905080515f148061362b57508080602001905181019061362b919061410d565b611a485760405162461bcd60e51b815260206004820152602a60248201527f5361666545524332303a204552433230206f7065726174696f6e20646964206e6044820152691bdd081cdd58d8d9595960b21b6064820152608401611ae3565b5f61369760266001614286565b6136a29060206141c3565b6136af604084018461416d565b9050146136cf576040516313717da960e21b815260040160405180910390fd5b5f6136db60048561455a565b64ffffffffff1690506137346136f4604085018561416d565b8080601f0160208091040260200160405190810160405280939291908181526020018383808284375f9201919091525089925050506020860135846131e3565b613751576040516309bde33960e01b815260040160405180910390fd5b61375f8360200135856138ef565b95945050505050565b5f83515f141580156137855750602084516137839190614583565b155b6137a2576040516313717da960e21b815260040160405180910390fd5b604080516020808201909252848152905b85518111613832576137c6600285614583565b5f036137f85781515f528086015160205260208260405f60026107d05a03fa6137ed575f5ffd5b600284049350613820565b808601515f52815160205260208260405f60026107d05a03fa613819575f5ffd5b6002840493505b61382b602082614286565b90506137b3565b508215613852576040516363df817160e01b815260040160405180910390fd5b51949350505050565b5f81158015906110d157506138716001836141da565b82161592915050565b60f881901c60e882901c61ff00161760d882901c62ff0000161760c882901c63ff000000161764ff0000000060b883901c161765ff000000000060a883901c161766ff000000000000609883901c161767ff0000000000000060889290921c919091161790565b60606114e584845f8561391b565b5f806138fc600484614596565b6139079060406145bf565b64ffffffffff1690506114e584821b61387a565b60608247101561397c5760405162461bcd60e51b815260206004820152602660248201527f416464726573733a20696e73756666696369656e742062616c616e636520666f6044820152651c8818d85b1b60d21b6064820152608401611ae3565b5f5f866001600160a01b031685876040516139979190614257565b5f6040518083038185875af1925050503d805f81146139d1576040519150601f19603f3d011682016040523d82523d5f602084013e6139d6565b606091505b50915091506139e7878383876139f2565b979650505050505050565b60608315613a605782515f03613a59576001600160a01b0385163b613a595760405162461bcd60e51b815260206004820152601d60248201527f416464726573733a2063616c6c20746f206e6f6e2d636f6e74726163740000006044820152606401611ae3565b50816114e5565b6114e58383815115613a755781518083602001fd5b8060405162461bcd60e51b8152600401611ae39190613cd5565b6001600160401b0381168114613aa3575f5ffd5b50565b5f60408284031215613ab6575f5ffd5b50919050565b5f5f5f60608486031215613ace575f5ffd5b8335613ad981613a8f565b925060208401356001600160401b03811115613af3575f5ffd5b613aff86828701613aa6565b92505060408401356001600160401b03811115613b1a575f5ffd5b613b2686828701613aa6565b9150509250925092565b5f5f83601f840112613b40575f5ffd5b5081356001600160401b03811115613b56575f5ffd5b6020830191508360208260051b8501011115613b70575f5ffd5b9250929050565b5f5f60208385031215613b88575f5ffd5b82356001600160401b03811115613b9d575f5ffd5b613ba985828601613b30565b90969095509350505050565b5f5f5f5f5f5f5f5f60a0898b031215613bcc575f5ffd5b8835613bd781613a8f565b975060208901356001600160401b03811115613bf1575f5ffd5b613bfd8b828c01613aa6565b97505060408901356001600160401b03811115613c18575f5ffd5b613c248b828c01613b30565b90975095505060608901356001600160401b03811115613c42575f5ffd5b613c4e8b828c01613b30565b90955093505060808901356001600160401b03811115613c6c575f5ffd5b613c788b828c01613b30565b999c989b5096995094979396929594505050565b5f60208284031215613c9c575f5ffd5b813561234581613a8f565b5f81518084528060208401602086015e5f602082860101526020601f19601f83011685010191505092915050565b602081525f6123456020830184613ca7565b5f5f83601f840112613cf7575f5ffd5b5081356001600160401b03811115613d0d575f5ffd5b602083019150836020828501011115613b70575f5ffd5b5f5f60208385031215613d35575f5ffd5b82356001600160401b03811115613d4a575f5ffd5b613ba985828601613ce7565b634e487b7160e01b5f52602160045260245ffd5b60038110613d8657634e487b7160e01b5f52602160045260245ffd5b9052565b602081016110d18284613d6a565b5f60208284031215613da8575f5ffd5b5035919050565b5f6080820190506001600160401b0383511682526001600160401b0360208401511660208301526001600160401b0360408401511660408301526060830151613dfb6060840182613d6a565b5092915050565b8015158114613aa3575f5ffd5b5f60208284031215613e1f575f5ffd5b813561234581613e02565b5f5f5f5f5f60608688031215613e3e575f5ffd5b85356001600160401b03811115613e53575f5ffd5b613e5f88828901613ce7565b90965094505060208601356001600160401b03811115613e7d575f5ffd5b613e8988828901613ce7565b96999598509660400135949350505050565b6001600160a01b0381168114613aa3575f5ffd5b8035613eba81613e9b565b919050565b5f5f60408385031215613ed0575f5ffd5b8235613edb81613e9b565b946020939093013593505050565b5f60208284031215613ef9575f5ffd5b813561234581613e9b565b634e487b7160e01b5f52604160045260245ffd5b604051601f8201601f191681016001600160401b0381118282101715613f4057613f40613f04565b604052919050565b5f6001600160401b03821115613f6057613f60613f04565b5060051b60200190565b5f82601f830112613f79575f5ffd5b8135613f8c613f8782613f48565b613f18565b8082825260208201915060208360051b860101925085831115613fad575f5ffd5b602085015b83811015613fca578035835260209283019201613fb2565b5095945050505050565b5f5f5f60608486031215613fe6575f5ffd5b83356001600160401b03811115613ffb575f5ffd5b8401601f8101861361400b575f5ffd5b8035614019613f8782613f48565b8082825260208201915060208360051b85010192508883111561403a575f5ffd5b6020840193505b8284101561406557833561405481613e9b565b825260209384019390910190614041565b955050505060208401356001600160401b03811115614082575f5ffd5b61408e86828701613f6a565b92505061409d60408501613eaf565b90509250925092565b5f5f5f604084860312156140b8575f5ffd5b83356001600160401b038111156140cd575f5ffd5b6140d986828701613aa6565b93505060208401356001600160401b038111156140f4575f5ffd5b61410086828701613b30565b9497909650939450505050565b5f6020828403121561411d575f5ffd5b815161234581613e02565b5f5f8335601e1984360301811261413d575f5ffd5b8301803591506001600160401b03821115614156575f5ffd5b6020019150600581901b3603821315613b70575f5ffd5b5f5f8335601e19843603018112614182575f5ffd5b8301803591506001600160401b0382111561419b575f5ffd5b602001915036819003821315613b70575f5ffd5b634e487b7160e01b5f52601160045260245ffd5b80820281158282048414176110d1576110d16141af565b818103818111156110d1576110d16141af565b634e487b7160e01b5f52603260045260245ffd5b5f8235603e19833603018112614215575f5ffd5b9190910192915050565b8284823760c09190911b6001600160c01b0319169101908152600801919050565b5f81518060208401855e5f93019283525090919050565b5f6123458284614240565b5f60208284031215614272575f5ffd5b813564ffffffffff81168114612345575f5ffd5b808201808211156110d1576110d16141af565b838582375f8482015f8152838582375f93019283525090949350505050565b5f602082840312156142c8575f5ffd5b5051919050565b81835281816020850137505f828201602090810191909152601f909101601f19169091010190565b608081525f61430a60808301888a6142cf565b828103602084015261431c8188613ca7565b905082810360408401526143318186886142cf565b915050826060830152979650505050505050565b634e487b7160e01b5f52601260045260245ffd5b5f8261436757614367614345565b500490565b6001600160401b0382811682821603908111156110d1576110d16141af565b5f8235605e19833603018112614215575f5ffd5b5f62ffffff8216806143b3576143b36141af565b5f190192915050565b6001600160401b0381811683821601908111156110d1576110d16141af565b600781810b9083900b01677fffffffffffffff8113677fffffffffffffff19821217156110d1576110d16141af565b5f6020828403121561441a575f5ffd5b815161234581613a8f565b80516020808301519190811015613ab6575f1960209190910360031b1b16919050565b5f6144538285614240565b6001600160801b03199390931683525050601001919050565b5f6001820161447d5761447d6141af565b5060010190565b6001600160f81b03199390931683526001600160a81b031991909116600183015260601b6bffffffffffffffffffffffff1916600c82015260200190565b600782810b9082900b03677fffffffffffffff198112677fffffffffffffff821317156110d1576110d16141af565b5f816144ff576144ff6141af565b505f190190565b5f8160070b677fffffffffffffff198103614523576145236141af565b5f0392915050565b8082025f8212600160ff1b84141615614546576145466141af565b81810583148215176110d1576110d16141af565b5f64ffffffffff83168061457057614570614345565b8064ffffffffff84160491505092915050565b5f8261459157614591614345565b500690565b5f64ffffffffff8316806145ac576145ac614345565b8064ffffffffff84160691505092915050565b64ffffffffff8181168382160290811690818114613dfb57613dfb6141af56fea2646970667358221220905476a9bc91953440c84d770e9b89fddd5a8856c845405968955c8c2a0995e264736f6c634300081b0033",
    "linkReferences": {}
  },
  "methodIdentifiers": {
    "activeValidatorCount()": "2340e8d3",
    "checkpointBalanceExitedGwei(uint64)": "52396a59",
    "currentCheckpoint()": "47d28372",
    "currentCheckpointTimestamp()": "42ecff2a",
    "eigenPodManager()": "4665bcda",
    "ethPOS()": "74cdd798",
    "getConsolidationRequestFee()": "1e515533",
    "getParentBlockRoot(uint64)": "6c0d2d5a",
    "getWithdrawalRequestFee()": "c44e30dc",
    "initialize(address)": "c4d66de8",
    "lastCheckpointTimestamp()": "ee94d67c",
    "podOwner()": "0b18ff66",
    "proofSubmitter()": "58753357",
    "recoverTokens(address[],uint256[],address)": "dda3346c",
    "requestConsolidation((bytes,bytes)[])": "6691954e",
    "requestWithdrawal((bytes,uint64)[])": "3f5fa57a",
    "setProofSubmitter(address)": "d06d5587",
    "stake(bytes,bytes,bytes32)": "9b4e4634",
    "startCheckpoint(bool)": "88676cad",
    "validatorPubkeyHashToInfo(bytes32)": "6fcd0e53",
    "validatorPubkeyToInfo(bytes)": "b522538a",
    "validatorStatus(bytes)": "58eaee79",
    "validatorStatus(bytes32)": "7439841f",
    "verifyCheckpointProofs((bytes32,bytes),(bytes32,bytes32,bytes)[])": "f074ba62",
    "verifyStaleBalance(uint64,(bytes32,bytes),(bytes32[],bytes))": "039157d2",
    "verifyWithdrawalCredentials(uint64,(bytes32,bytes),uint40[],bytes[],bytes32[][])": "3f65cf19",
    "version()": "54fd4d50",
    "withdrawRestakedBeaconChainETH(address,uint256)": "c4907442",
    "withdrawableRestakedExecutionLayerGwei()": "3474aa16"
  },
  "id": 206
}