{
  "abi": [
    {
      "type": "constructor",
      "inputs": [
        {
          "name": "_ethPOS",
          "type": "address",
          "internalType": "contract IETHPOSDeposit"
        },
        {
          "name": "_eigenPodBeacon",
          "type": "address",
          "internalType": "contract IBeacon"
        },
        {
          "name": "_delegationManager",
          "type": "address",
          "internalType": "contract IDelegationManager"
        },
        {
          "name": "_pauserRegistry",
          "type": "address",
          "internalType": "contract IPauserRegistry"
        },
        {
          "name": "_version",
          "type": "string",
          "internalType": "string"
        }
      ],
      "stateMutability": "nonpayable"
    },
    {
      "type": "function",
      "name": "addShares",
      "inputs": [
        {
          "name": "staker",
          "type": "address",
          "internalType": "address"
        },
        {
          "name": "strategy",
          "type": "address",
          "internalType": "contract IStrategy"
        },
        {
          "name": "shares",
          "type": "uint256",
          "internalType": "uint256"
        }
      ],
      "outputs": [
        {
          "name": "",
          "type": "uint256",
          "internalType": "uint256"
        },
        {
          "name": "",
          "type": "uint256",
          "internalType": "uint256"
        }
      ],
      "stateMutability": "nonpayable"
    },
    {
      "type": "function",
      "name": "beaconChainETHStrategy",
      "inputs": [],
      "outputs": [
        {
          "name": "",
          "type": "address",
          "internalType": "contract IStrategy"
        }
      ],
      "stateMutability": "view"
    },
    {
      "type": "function",
      "name": "beaconChainSlashingFactor",
      "inputs": [
        {
          "name": "podOwner",
          "type": "address",
          "internalType": "address"
        }
      ],
      "outputs": [
        {
          "name": "",
          "type": "uint64",
          "internalType": "uint64"
        }
      ],
      "stateMutability": "view"
    },
    {
      "type": "function",
      "name": "burnableETHShares",
      "inputs": [],
      "outputs": [
        {
          "name": "",
          "type": "uint256",
          "internalType": "uint256"
        }
      ],
      "stateMutability": "view"
    },
    {
      "type": "function",
      "name": "createPod",
      "inputs": [],
      "outputs": [
        {
          "name": "",
          "type": "address",
          "internalType": "address"
        }
      ],
      "stateMutability": "nonpayable"
    },
    {
      "type": "function",
      "name": "delegationManager",
      "inputs": [],
      "outputs": [
        {
          "name": "",
          "type": "address",
          "internalType": "contract IDelegationManager"
        }
      ],
      "stateMutability": "view"
    },
    {
      "type": "function",
      "name": "eigenPodBeacon",
      "inputs": [],
      "outputs": [
        {
          "name": "",
          "type": "address",
          "internalType": "contract IBeacon"
        }
      ],
      "stateMutability": "view"
    },
    {
      "type": "function",
      "name": "ethPOS",
      "inputs": [],
      "outputs": [
        {
          "name": "",
          "type": "address",
          "internalType": "contract IETHPOSDeposit"
        }
      ],
      "stateMutability": "view"
    },
    {
      "type": "function",
      "name": "getPod",
      "inputs": [
        {
          "name": "podOwner",
          "type": "address",
          "internalType": "address"
        }
      ],
      "outputs": [
        {
          "name": "",
          "type": "address",
          "internalType": "contract IEigenPod"
        }
      ],
      "stateMutability": "view"
    },
    {
      "type": "function",
      "name": "hasPod",
      "inputs": [
        {
          "name": "podOwner",
          "type": "address",
          "internalType": "address"
        }
      ],
      "outputs": [
        {
          "name": "",
          "type": "bool",
          "internalType": "bool"
        }
      ],
      "stateMutability": "view"
    },
    {
      "type": "function",
      "name": "increaseBurnOrRedistributableShares",
      "inputs": [
        {
          "name": "",
          "type": "tuple",
          "internalType": "struct OperatorSet",
          "components": [
            {
              "name": "avs",
              "type": "address",
              "internalType": "address"
            },
            {
              "name": "id",
              "type": "uint32",
              "internalType": "uint32"
            }
          ]
        },
        {
          "name": "",
          "type": "uint256",
          "internalType": "uint256"
        },
        {
          "name": "",
          "type": "address",
          "internalType": "contract IStrategy"
        },
        {
          "name": "addedSharesToBurn",
          "type": "uint256",
          "internalType": "uint256"
        }
      ],
      "outputs": [],
      "stateMutability": "nonpayable"
    },
    {
      "type": "function",
      "name": "initialize",
      "inputs": [
        {
          "name": "initialOwner",
          "type": "address",
          "internalType": "address"
        },
        {
          "name": "_initPausedStatus",
          "type": "uint256",
          "internalType": "uint256"
        }
      ],
      "outputs": [],
      "stateMutability": "nonpayable"
    },
    {
      "type": "function",
      "name": "numPods",
      "inputs": [],
      "outputs": [
        {
          "name": "",
          "type": "uint256",
          "internalType": "uint256"
        }
      ],
      "stateMutability": "view"
    },
    {
      "type": "function",
      "name": "owner",
      "inputs": [],
      "outputs": [
        {
          "name": "",
          "type": "address",
          "internalType": "address"
        }
      ],
      "stateMutability": "view"
    },
    {
      "type": "function",
      "name": "ownerToPod",
      "inputs": [
        {
          "name": "podOwner",
          "type": "address",
          "internalType": "address"
        }
      ],
      "outputs": [
        {
          "name": "",
          "type": "address",
          "internalType": "contract IEigenPod"
        }
      ],
      "stateMutability": "view"
    },
    {
      "type": "function",
      "name": "pause",
      "inputs": [
        {
          "name": "newPausedStatus",
          "type": "uint256",
          "internalType": "uint256"
        }
      ],
      "outputs": [],
      "stateMutability": "nonpayable"
    },
    {
      "type": "function",
      "name": "pauseAll",
      "inputs": [],
      "outputs": [],
      "stateMutability": "nonpayable"
    },
    {
      "type": "function",
      "name": "paused",
      "inputs": [
        {
          "name": "index",
          "type": "uint8",
          "internalType": "uint8"
        }
      ],
      "outputs": [
        {
          "name": "",
          "type": "bool",
          "internalType": "bool"
        }
      ],
      "stateMutability": "view"
    },
    {
      "type": "function",
      "name": "paused",
      "inputs": [],
      "outputs": [
        {
          "name": "",
          "type": "uint256",
          "internalType": "uint256"
        }
      ],
      "stateMutability": "view"
    },
    {
      "type": "function",
      "name": "pauserRegistry",
      "inputs": [],
      "outputs": [
        {
          "name": "",
          "type": "address",
          "internalType": "contract IPauserRegistry"
        }
      ],
      "stateMutability": "view"
    },
    {
      "type": "function",
      "name": "pectraForkTimestamp",
      "inputs": [],
      "outputs": [
        {
          "name": "",
          "type": "uint64",
          "internalType": "uint64"
        }
      ],
      "stateMutability": "view"
    },
    {
      "type": "function",
      "name": "podOwnerDepositShares",
      "inputs": [
        {
          "name": "podOwner",
          "type": "address",
          "internalType": "address"
        }
      ],
      "outputs": [
        {
          "name": "shares",
          "type": "int256",
          "internalType": "int256"
        }
      ],
      "stateMutability": "view"
    },
    {
      "type": "function",
      "name": "proofTimestampSetter",
      "inputs": [],
      "outputs": [
        {
          "name": "",
          "type": "address",
          "internalType": "address"
        }
      ],
      "stateMutability": "view"
    },
    {
      "type": "function",
      "name": "recordBeaconChainETHBalanceUpdate",
      "inputs": [
        {
          "name": "podOwner",
          "type": "address",
          "internalType": "address"
        },
        {
          "name": "prevRestakedBalanceWei",
          "type": "uint256",
          "internalType": "uint256"
        },
        {
          "name": "balanceDeltaWei",
          "type": "int256",
          "internalType": "int256"
        }
      ],
      "outputs": [],
      "stateMutability": "nonpayable"
    },
    {
      "type": "function",
      "name": "removeDepositShares",
      "inputs": [
        {
          "name": "staker",
          "type": "address",
          "internalType": "address"
        },
        {
          "name": "strategy",
          "type": "address",
          "internalType": "contract IStrategy"
        },
        {
          "name": "depositSharesToRemove",
          "type": "uint256",
          "internalType": "uint256"
        }
      ],
      "outputs": [
        {
          "name": "",
          "type": "uint256",
          "internalType": "uint256"
        }
      ],
      "stateMutability": "nonpayable"
    },
    {
      "type": "function",
      "name": "renounceOwnership",
      "inputs": [],
      "outputs": [],
      "stateMutability": "nonpayable"
    },
    {
      "type": "function",
      "name": "setPectraForkTimestamp",
      "inputs": [
        {
          "name": "timestamp",
          "type": "uint64",
          "internalType": "uint64"
        }
      ],
      "outputs": [],
      "stateMutability": "nonpayable"
    },
    {
      "type": "function",
      "name": "setProofTimestampSetter",
      "inputs": [
        {
          "name": "newProofTimestampSetter",
          "type": "address",
          "internalType": "address"
        }
      ],
      "outputs": [],
      "stateMutability": "nonpayable"
    },
    {
      "type": "function",
      "name": "stake",
      "inputs": [
        {
          "name": "pubkey",
          "type": "bytes",
          "internalType": "bytes"
        },
        {
          "name": "signature",
          "type": "bytes",
          "internalType": "bytes"
        },
        {
          "name": "depositDataRoot",
          "type": "bytes32",
          "internalType": "bytes32"
        }
      ],
      "outputs": [],
      "stateMutability": "payable"
    },
    {
      "type": "function",
      "name": "stakerDepositShares",
      "inputs": [
        {
          "name": "user",
          "type": "address",
          "internalType": "address"
        },
        {
          "name": "strategy",
          "type": "address",
          "internalType": "contract IStrategy"
        }
      ],
      "outputs": [
        {
          "name": "depositShares",
          "type": "uint256",
          "internalType": "uint256"
        }
      ],
      "stateMutability": "view"
    },
    {
      "type": "function",
      "name": "transferOwnership",
      "inputs": [
        {
          "name": "newOwner",
          "type": "address",
          "internalType": "address"
        }
      ],
      "outputs": [],
      "stateMutability": "nonpayable"
    },
    {
      "type": "function",
      "name": "unpause",
      "inputs": [
        {
          "name": "newPausedStatus",
          "type": "uint256",
          "internalType": "uint256"
        }
      ],
      "outputs": [],
      "stateMutability": "nonpayable"
    },
    {
      "type": "function",
      "name": "version",
      "inputs": [],
      "outputs": [
        {
          "name": "",
          "type": "string",
          "internalType": "string"
        }
      ],
      "stateMutability": "view"
    },
    {
      "type": "function",
      "name": "withdrawSharesAsTokens",
      "inputs": [
        {
          "name": "staker",
          "type": "address",
          "internalType": "address"
        },
        {
          "name": "strategy",
          "type": "address",
          "internalType": "contract IStrategy"
        },
        {
          "name": "",
          "type": "address",
          "internalType": "contract IERC20"
        },
        {
          "name": "shares",
          "type": "uint256",
          "internalType": "uint256"
        }
      ],
      "outputs": [],
      "stateMutability": "nonpayable"
    },
    {
      "type": "event",
      "name": "BeaconChainETHDeposited",
      "inputs": [
        {
          "name": "podOwner",
          "type": "address",
          "indexed": true,
          "internalType": "address"
        },
        {
          "name": "amount",
          "type": "uint256",
          "indexed": false,
          "internalType": "uint256"
        }
      ],
      "anonymous": false
    },
    {
      "type": "event",
      "name": "BeaconChainETHWithdrawalCompleted",
      "inputs": [
        {
          "name": "podOwner",
          "type": "address",
          "indexed": true,
          "internalType": "address"
        },
        {
          "name": "shares",
          "type": "uint256",
          "indexed": false,
          "internalType": "uint256"
        },
        {
          "name": "nonce",
          "type": "uint96",
          "indexed": false,
          "internalType": "uint96"
        },
        {
          "name": "delegatedAddress",
          "type": "address",
          "indexed": false,
          "internalType": "address"
        },
        {
          "name": "withdrawer",
          "type": "address",
          "indexed": false,
          "internalType": "address"
        },
        {
          "name": "withdrawalRoot",
          "type": "bytes32",
          "indexed": false,
          "internalType": "bytes32"
        }
      ],
      "anonymous": false
    },
    {
      "type": "event",
      "name": "BeaconChainSlashingFactorDecreased",
      "inputs": [
        {
          "name": "staker",
          "type": "address",
          "indexed": false,
          "internalType": "address"
        },
        {
          "name": "prevBeaconChainSlashingFactor",
          "type": "uint64",
          "indexed": false,
          "internalType": "uint64"
        },
        {
          "name": "newBeaconChainSlashingFactor",
          "type": "uint64",
          "indexed": false,
          "internalType": "uint64"
        }
      ],
      "anonymous": false
    },
    {
      "type": "event",
      "name": "BurnableETHSharesIncreased",
      "inputs": [
        {
          "name": "shares",
          "type": "uint256",
          "indexed": false,
          "internalType": "uint256"
        }
      ],
      "anonymous": false
    },
    {
      "type": "event",
      "name": "Initialized",
      "inputs": [
        {
          "name": "version",
          "type": "uint8",
          "indexed": false,
          "internalType": "uint8"
        }
      ],
      "anonymous": false
    },
    {
      "type": "event",
      "name": "NewTotalShares",
      "inputs": [
        {
          "name": "podOwner",
          "type": "address",
          "indexed": true,
          "internalType": "address"
        },
        {
          "name": "newTotalShares",
          "type": "int256",
          "indexed": false,
          "internalType": "int256"
        }
      ],
      "anonymous": false
    },
    {
      "type": "event",
      "name": "OwnershipTransferred",
      "inputs": [
        {
          "name": "previousOwner",
          "type": "address",
          "indexed": true,
          "internalType": "address"
        },
        {
          "name": "newOwner",
          "type": "address",
          "indexed": true,
          "internalType": "address"
        }
      ],
      "anonymous": false
    },
    {
      "type": "event",
      "name": "Paused",
      "inputs": [
        {
          "name": "account",
          "type": "address",
          "indexed": true,
          "internalType": "address"
        },
        {
          "name": "newPausedStatus",
          "type": "uint256",
          "indexed": false,
          "internalType": "uint256"
        }
      ],
      "anonymous": false
    },
    {
      "type": "event",
      "name": "PectraForkTimestampSet",
      "inputs": [
        {
          "name": "newPectraForkTimestamp",
          "type": "uint64",
          "indexed": false,
          "internalType": "uint64"
        }
      ],
      "anonymous": false
    },
    {
      "type": "event",
      "name": "PodDeployed",
      "inputs": [
        {
          "name": "eigenPod",
          "type": "address",
          "indexed": true,
          "internalType": "address"
        },
        {
          "name": "podOwner",
          "type": "address",
          "indexed": true,
          "internalType": "address"
        }
      ],
      "anonymous": false
    },
    {
      "type": "event",
      "name": "PodSharesUpdated",
      "inputs": [
        {
          "name": "podOwner",
          "type": "address",
          "indexed": true,
          "internalType": "address"
        },
        {
          "name": "sharesDelta",
          "type": "int256",
          "indexed": false,
          "internalType": "int256"
        }
      ],
      "anonymous": false
    },
    {
      "type": "event",
      "name": "ProofTimestampSetterSet",
      "inputs": [
        {
          "name": "newProofTimestampSetter",
          "type": "address",
          "indexed": false,
          "internalType": "address"
        }
      ],
      "anonymous": false
    },
    {
      "type": "event",
      "name": "Unpaused",
      "inputs": [
        {
          "name": "account",
          "type": "address",
          "indexed": true,
          "internalType": "address"
        },
        {
          "name": "newPausedStatus",
          "type": "uint256",
          "indexed": false,
          "internalType": "uint256"
        }
      ],
      "anonymous": false
    },
    {
      "type": "error",
      "name": "CurrentlyPaused",
      "inputs": []
    },
    {
      "type": "error",
      "name": "EigenPodAlreadyExists",
      "inputs": []
    },
    {
      "type": "error",
      "name": "InputAddressZero",
      "inputs": []
    },
    {
      "type": "error",
      "name": "InvalidNewPausedStatus",
      "inputs": []
    },
    {
      "type": "error",
      "name": "InvalidShortString",
      "inputs": []
    },
    {
      "type": "error",
      "name": "InvalidStrategy",
      "inputs": []
    },
    {
      "type": "error",
      "name": "LegacyWithdrawalsNotCompleted",
      "inputs": []
    },
    {
      "type": "error",
      "name": "OnlyDelegationManager",
      "inputs": []
    },
    {
      "type": "error",
      "name": "OnlyEigenPod",
      "inputs": []
    },
    {
      "type": "error",
      "name": "OnlyPauser",
      "inputs": []
    },
    {
      "type": "error",
      "name": "OnlyProofTimestampSetter",
      "inputs": []
    },
    {
      "type": "error",
      "name": "OnlyUnpauser",
      "inputs": []
    },
    {
      "type": "error",
      "name": "SharesNegative",
      "inputs": []
    },
    {
      "type": "error",
      "name": "SharesNotMultipleOfGwei",
      "inputs": []
    },
    {
      "type": "error",
      "name": "StringTooLong",
      "inputs": [
        {
          "name": "str",
          "type": "string",
          "internalType": "string"
        }
      ]
    }
  ],
  "bytecode": {
    "object": "0x610120604052348015610010575f5ffd5b50604051612f01380380612f0183398101604081905261002f916101c2565b80858585856001600160a01b03811661005b576040516339b190bb60e11b815260040160405180910390fd5b6001600160a01b0390811660805292831660a05290821660c0521660e05261008281610099565b610100525061008f6100df565b505050505061031a565b5f5f829050601f815111156100cc578260405163305a27a960e01b81526004016100c391906102bf565b60405180910390fd5b80516100d7826102f4565b179392505050565b5f54610100900460ff16156101465760405162461bcd60e51b815260206004820152602760248201527f496e697469616c697a61626c653a20636f6e747261637420697320696e697469604482015266616c697a696e6760c81b60648201526084016100c3565b5f5460ff90811614610195575f805460ff191660ff9081179091556040519081527f7f26b83ff96e1f2b6a682f133852f6798a09c465da95921460cefb38474024989060200160405180910390a15b565b6001600160a01b03811681146101ab575f5ffd5b50565b634e487b7160e01b5f52604160045260245ffd5b5f5f5f5f5f60a086880312156101d6575f5ffd5b85516101e181610197565b60208701519095506101f281610197565b604087015190945061020381610197565b606087015190935061021481610197565b60808701519092506001600160401b0381111561022f575f5ffd5b8601601f8101881361023f575f5ffd5b80516001600160401b03811115610258576102586101ae565b604051601f8201601f19908116603f011681016001600160401b0381118282101715610286576102866101ae565b6040528181528282016020018a101561029d575f5ffd5b8160208401602083015e5f602083830101528093505050509295509295909350565b602081525f82518060208401528060208501604085015e5f604082850101526040601f19601f83011684010191505092915050565b80516020808301519190811015610314575f198160200360031b1b821691505b50919050565b60805160a05160c05160e05161010051612b6461039d5f395f610b2401525f818161060c0152818161077b015281816109d401528181610a7a01528181610c0501528181610f82015261103701525f818161028b015281816110cd015261186701525f61044b01525f8181610492015281816114950152611a840152612b645ff3fe6080604052600436106101f1575f3560e01c8063886f119511610108578063a6a509be1161009d578063f2fde38b1161006d578063f2fde38b1461062e578063f5d4fed31461064d578063f6848d2414610662578063fabc1cbc1461069b578063fe243a17146106ba575f5ffd5b8063a6a509be1461059c578063cd6dc687146105b1578063d48e8894146105d0578063ea4d3c9b146105fb575f5ffd5b80639ba06275116100d85780639ba062751461050b578063a1ca780b1461053f578063a38406a31461055e578063a3d75e091461057d575f5ffd5b8063886f1195146104815780638da5cb5b146104b45780639104c319146104d15780639b4e4634146104f8575f5ffd5b8063595c6a67116101895780635c975abb116101595780635c975abb146103e9578063715018a614610407578063724af4231461041b57806374cdd7981461043a57806384d810621461046d575f5ffd5b8063595c6a6714610358578063595edbcb1461036c5780635a26fbf41461038b5780635ac86ab7146103aa575f5ffd5b80632eae418c116101c45780632eae418c146102c55780633fb99ca5146102e457806350ff72251461030357806354fd4d5014610337575f5ffd5b80630d1e9de1146101f5578063136439dd146102165780632704351a14610235578063292b7b2b1461027a575b5f5ffd5b348015610200575f5ffd5b5061021461020f366004611d7e565b6106d9565b005b348015610221575f5ffd5b50610214610230366004611d99565b610736565b348015610240575f5ffd5b50609f5461025c90600160a01b900467ffffffffffffffff1681565b60405167ffffffffffffffff90911681526020015b60405180910390f35b348015610285575f5ffd5b506102ad7f000000000000000000000000000000000000000000000000000000000000000081565b6040516001600160a01b039091168152602001610271565b3480156102d0575f5ffd5b506102146102df366004611db0565b610770565b3480156102ef575f5ffd5b506102146102fe366004611dfe565b6109c9565b34801561030e575f5ffd5b5061032261031d366004611e48565b610a6d565b60408051928352602083019190915201610271565b348015610342575f5ffd5b5061034b610b1d565b6040516102719190611e86565b348015610363575f5ffd5b50610214610b4d565b348015610377575f5ffd5b50609f546102ad906001600160a01b031681565b348015610396575f5ffd5b506102146103a5366004611ebb565b610b61565b3480156103b5575f5ffd5b506103d96103c4366004611ee2565b606654600160ff9092169190911b9081161490565b6040519015158152602001610271565b3480156103f4575f5ffd5b506066545b604051908152602001610271565b348015610412575f5ffd5b50610214610be8565b348015610426575f5ffd5b506103f9610435366004611e48565b610bf9565b348015610445575f5ffd5b506102ad7f000000000000000000000000000000000000000000000000000000000000000081565b348015610478575f5ffd5b506102ad610d3e565b34801561048c575f5ffd5b506102ad7f000000000000000000000000000000000000000000000000000000000000000081565b3480156104bf575f5ffd5b506033546001600160a01b03166102ad565b3480156104dc575f5ffd5b506102ad73beac0eeeeeeeeeeeeeeeeeeeeeeeeeeeeeebeac081565b610214610506366004611f40565b610da1565b348015610516575f5ffd5b506102ad610525366004611d7e565b60986020525f90815260409020546001600160a01b031681565b34801561054a575f5ffd5b50610214610559366004611fb3565b610e52565b348015610569575f5ffd5b506102ad610578366004611d7e565b611073565b348015610588575f5ffd5b5061025c610597366004611d7e565b611144565b3480156105a7575f5ffd5b506103f960995481565b3480156105bc575f5ffd5b506102146105cb366004611fe5565b6111a4565b3480156105db575f5ffd5b506103f96105ea366004611d7e565b609b6020525f908152604090205481565b348015610606575f5ffd5b506102ad7f000000000000000000000000000000000000000000000000000000000000000081565b348015610639575f5ffd5b50610214610648366004611d7e565b6112c0565b348015610658575f5ffd5b506103f9609e5481565b34801561066d575f5ffd5b506103d961067c366004611d7e565b6001600160a01b039081165f9081526098602052604090205416151590565b3480156106a6575f5ffd5b506102146106b5366004611d99565b611339565b3480156106c5575f5ffd5b506103f96106d436600461200f565b6113a6565b6106e1611426565b609f80546001600160a01b0319166001600160a01b0383169081179091556040519081527f7025c71a9fe60d709e71b377dc5f7c72c3e1d8539f8022574254e736ceca01e5906020015b60405180910390a150565b61073e611480565b60665481811681146107635760405163c61dca5d60e01b815260040160405180910390fd5b61076c82611523565b5050565b336001600160a01b037f000000000000000000000000000000000000000000000000000000000000000016146107b95760405163f739589b60e01b815260040160405180910390fd5b6107c1611560565b6001600160a01b03831673beac0eeeeeeeeeeeeeeeeeeeeeeeeeeeeeebeac0146107fe57604051632711b74d60e11b815260040160405180910390fd5b6001600160a01b038416610825576040516339b190bb60e11b815260040160405180910390fd5b5f81136108455760405163ef147de160e01b815260040160405180910390fd5b6001600160a01b0384165f908152609b602052604081205490829082121561093f575f6108718361205a565b90505f8185111561088f5750806108888186612074565b9250610895565b505f9150835b5f6108a08286612087565b6001600160a01b038a165f818152609b60205260409081902083905551919250907f4e2b791dedccd9fb30141b088cabf5c14a8912b52f59375c95c010700b8c6193906108f09085815260200190565b60405180910390a2886001600160a01b03167fd4def76d6d2bed6f14d5cd9af73cc2913d618d00edde42432e81c09bfe0770988260405161093391815260200190565b60405180910390a25050505b80156109b7576001600160a01b038681165f81815260986020526040908190205490516362483a2160e11b81526004810192909252602482018490529091169063c4907442906044015b5f604051808303815f87803b1580156109a0575f5ffd5b505af11580156109b2573d5f5f3e3d5ffd5b505050505b50506109c3600160c955565b50505050565b336001600160a01b037f00000000000000000000000000000000000000000000000000000000000000001614610a125760405163f739589b60e01b815260040160405180910390fd5b610a1a611560565b80609e5f828254610a2b91906120ae565b90915550506040518181527f1ed04b7fd262c0d9e50fa02957f32a81a151f03baaa367faeedc7521b001c4a49060200160405180910390a16109c3600160c955565b5f80336001600160a01b037f00000000000000000000000000000000000000000000000000000000000000001614610ab85760405163f739589b60e01b815260040160405180910390fd5b610ac0611560565b6001600160a01b03841673beac0eeeeeeeeeeeeeeeeeeeeeeeeeeeeeebeac014610afd57604051632711b74d60e11b815260040160405180910390fd5b610b0785846115b9565b91509150610b15600160c955565b935093915050565b6060610b487f0000000000000000000000000000000000000000000000000000000000000000611700565b905090565b610b55611480565b610b5f5f19611523565b565b609f546001600160a01b03163314610b8c57604051630986113760e41b815260040160405180910390fd5b609f805467ffffffffffffffff60a01b1916600160a01b67ffffffffffffffff8416908102919091179091556040519081527f1bc8f042a52db3a437620dea4548f2031fb2a16dd8d3b0b854295528dd2cdd339060200161072b565b610bf0611426565b610b5f5f61173d565b5f336001600160a01b037f00000000000000000000000000000000000000000000000000000000000000001614610c435760405163f739589b60e01b815260040160405180910390fd5b610c4b611560565b6001600160a01b03831673beac0eeeeeeeeeeeeeeeeeeeeeeeeeeeeeebeac014610c8857604051632711b74d60e11b815260040160405180910390fd5b5f610c928361178e565b6001600160a01b0386165f908152609b6020526040902054610cb491906120c1565b90505f811215610cd75760405163ef147de160e01b815260040160405180910390fd5b6001600160a01b0385165f818152609b602052604090819020839055517fd4def76d6d2bed6f14d5cd9af73cc2913d618d00edde42432e81c09bfe07709890610d239084815260200190565b60405180910390a29050610d37600160c955565b9392505050565b5f5f610d49816117f7565b610d51611560565b335f908152609860205260409020546001600160a01b031615610d875760405163031a852160e21b815260040160405180910390fd5b5f610d90611822565b925050610d9d600160c955565b5090565b5f610dab816117f7565b610db3611560565b335f908152609860205260409020546001600160a01b031680610ddb57610dd8611822565b90505b6040516326d3918d60e21b81526001600160a01b03821690639b4e4634903490610e11908b908b908b908b908b9060040161210f565b5f604051808303818588803b158015610e28575f5ffd5b505af1158015610e3a573d5f5f3e3d5ffd5b505050505050610e4a600160c955565b505050505050565b6001600160a01b038084165f908152609860205260409020548491163314610e8d576040516312e16d7160e11b815260040160405180910390fd5b610e95611560565b6001600160a01b038416610ebc576040516339b190bb60e11b815260040160405180910390fd5b610eca633b9aca008361215c565b15610ee8576040516347d072bb60e11b815260040160405180910390fd5b6001600160a01b0384165f908152609b602052604081205490811215610f2157604051634b692bcf60e01b815260040160405180910390fd5b5f831315610fe2575f5f610f3587866115b9565b604051631e328e7960e11b81526001600160a01b038a8116600483015273beac0eeeeeeeeeeeeeeeeeeeeeeeeeeeeeebeac0602483015260448201849052606482018390529294509092507f000000000000000000000000000000000000000000000000000000000000000090911690633c651cf2906084015f604051808303815f87803b158015610fc5575f5ffd5b505af1158015610fd7573d5f5f3e3d5ffd5b505050505050611068565b5f831215611068575f610ffe8686610ff98761205a565b61197d565b60405163305068e760e11b81526001600160a01b0388811660048301526024820185905267ffffffffffffffff831660448301529192507f0000000000000000000000000000000000000000000000000000000000000000909116906360a0d1ce90606401610989565b506109c3600160c955565b6001600160a01b038082165f908152609860205260408120549091168061113e5761113b836001600160a01b03165f1b60405180610940016040528061090e815260200161222161090e9139604080516001600160a01b037f0000000000000000000000000000000000000000000000000000000000000000166020820152808201919091525f606082015260800160408051601f19818403018152908290526111209291602001612192565b60405160208183030381529060405280519060200120611a76565b90505b92915050565b6001600160a01b0381165f908152609d6020908152604080832081518083019092525460ff8116151580835261010090910467ffffffffffffffff16928201929092529061119a57670de0b6b3a7640000610d37565b6020015192915050565b5f54610100900460ff16158080156111c257505f54600160ff909116105b806111db5750303b1580156111db57505f5460ff166001145b6112435760405162461bcd60e51b815260206004820152602e60248201527f496e697469616c697a61626c653a20636f6e747261637420697320616c72656160448201526d191e481a5b9a5d1a585b1a5e995960921b60648201526084015b60405180910390fd5b5f805460ff191660011790558015611264575f805461ff0019166101001790555b61126d8361173d565b61127682611523565b80156112bb575f805461ff0019169055604051600181527f7f26b83ff96e1f2b6a682f133852f6798a09c465da95921460cefb38474024989060200160405180910390a15b505050565b6112c8611426565b6001600160a01b03811661132d5760405162461bcd60e51b815260206004820152602660248201527f4f776e61626c653a206e6577206f776e657220697320746865207a65726f206160448201526564647265737360d01b606482015260840161123a565b6113368161173d565b50565b611341611a82565b606654801982198116146113685760405163c61dca5d60e01b815260040160405180910390fd5b606682905560405182815233907f3582d1828e26bf56bd801502bc021ac0bc8afb57c826e4986b45593c8fad389c9060200160405180910390a25050565b5f6001600160a01b03821673beac0eeeeeeeeeeeeeeeeeeeeeeeeeeeeeebeac0146113e457604051632711b74d60e11b815260040160405180910390fd5b6001600160a01b0383165f908152609b60205260408120541261141e576001600160a01b0383165f908152609b602052604090205461113b565b505f92915050565b6033546001600160a01b03163314610b5f5760405162461bcd60e51b815260206004820181905260248201527f4f776e61626c653a2063616c6c6572206973206e6f7420746865206f776e6572604482015260640161123a565b60405163237dfb4760e11b81523360048201527f00000000000000000000000000000000000000000000000000000000000000006001600160a01b0316906346fbf68e90602401602060405180830381865afa1580156114e2573d5f5f3e3d5ffd5b505050506040513d601f19601f8201168201806040525081019061150691906121ae565b610b5f57604051631d77d47760e21b815260040160405180910390fd5b606681905560405181815233907fab40a374bc51de372200a8bc981af8c9ecdc08dfdaef0bb6e09f88f3c616ef3d9060200160405180910390a250565b600260c954036115b25760405162461bcd60e51b815260206004820152601f60248201527f5265656e7472616e637947756172643a207265656e7472616e742063616c6c00604482015260640161123a565b600260c955565b5f806001600160a01b0384166115e2576040516339b190bb60e11b815260040160405180910390fd5b5f8312156116035760405163ef147de160e01b815260040160405180910390fd5b6001600160a01b0384165f908152609b602052604081205484916116278383612087565b6001600160a01b0388165f818152609b60205260409081902083905551919250907f4e2b791dedccd9fb30141b088cabf5c14a8912b52f59375c95c010700b8c6193906116779086815260200190565b60405180910390a2866001600160a01b03167fd4def76d6d2bed6f14d5cd9af73cc2913d618d00edde42432e81c09bfe077098826040516116ba91815260200190565b60405180910390a25f81136116d7575f5f945094505050506116f9565b5f8212156116ec575f945092506116f9915050565b5092508391506116f99050565b9250929050565b60605f61170c83611b33565b6040805160208082528183019092529192505f91906020820181803683375050509182525060208101929092525090565b603380546001600160a01b038381166001600160a01b0319831681179093556040519116919082907f8be0079c531659141344cd1fd0a4f28419497f9722a3daafe3b4186f6b6457e0905f90a35050565b5f6001600160ff1b03821115610d9d5760405162461bcd60e51b815260206004820152602860248201527f53616665436173743a2076616c756520646f65736e27742066697420696e2061604482015267371034b73a191a9b60c11b606482015260840161123a565b606654600160ff83161b908116036113365760405163840a48d560e01b815260040160405180910390fd5b5f60995f8154611831906121cd565b9091555060408051610940810190915261090e8082525f916118ce91839133916122216020830139604080516001600160a01b037f0000000000000000000000000000000000000000000000000000000000000000166020820152808201919091525f606082015260800160408051601f19818403018152908290526118ba9291602001612192565b604051602081830303815290604052611b5a565b60405163189acdbd60e31b81523360048201529091506001600160a01b0382169063c4d66de8906024015f604051808303815f87803b15801561190f575f5ffd5b505af1158015611921573d5f5f3e3d5ffd5b5050335f8181526098602052604080822080546001600160a01b0319166001600160a01b038816908117909155905192945092507f21c99d0db02213c32fff5b05cf0a718ab5f858802b91498f80d82270289d856a91a3919050565b5f806119898385612074565b90505f61199586611144565b90505f6119ad67ffffffffffffffff83168488611c5c565b90505f6119ba82846121e5565b6040805180820182526001815267ffffffffffffffff85811660208084018281526001600160a01b038f165f818152609d845287902095518654925168ffffffffffffffffff1990931690151568ffffffffffffffff001916176101009286169290920291909117909455845193845291881691830191909152918101919091529091507fb160ab8589bf47dc04ea11b50d46678d21590cea2ed3e454e7bd3e41510f98cf9060600160405180910390a1979650505050505050565b5f61113b838330611d41565b7f00000000000000000000000000000000000000000000000000000000000000006001600160a01b031663eab66d7a6040518163ffffffff1660e01b8152600401602060405180830381865afa158015611ade573d5f5f3e3d5ffd5b505050506040513d601f19601f82011682018060405250810190611b029190612205565b6001600160a01b0316336001600160a01b031614610b5f5760405163794821ff60e01b815260040160405180910390fd5b5f60ff8216601f81111561113e57604051632cd44ac360e21b815260040160405180910390fd5b5f83471015611bab5760405162461bcd60e51b815260206004820152601d60248201527f437265617465323a20696e73756666696369656e742062616c616e6365000000604482015260640161123a565b81515f03611bfb5760405162461bcd60e51b815260206004820181905260248201527f437265617465323a2062797465636f6465206c656e677468206973207a65726f604482015260640161123a565b8282516020840186f590506001600160a01b038116610d375760405162461bcd60e51b815260206004820152601960248201527f437265617465323a204661696c6564206f6e206465706c6f7900000000000000604482015260640161123a565b5f80805f19858709858702925082811083820303915050805f03611c9357838281611c8957611c89612148565b0492505050610d37565b808411611cda5760405162461bcd60e51b81526020600482015260156024820152744d6174683a206d756c446976206f766572666c6f7760581b604482015260640161123a565b5f8486880960026001871981018816978890046003810283188082028403028082028403028082028403028082028403028082028403029081029092039091025f889003889004909101858311909403939093029303949094049190911702949350505050565b5f604051836040820152846020820152828152600b8101905060ff815360559020949350505050565b6001600160a01b0381168114611336575f5ffd5b5f60208284031215611d8e575f5ffd5b8135610d3781611d6a565b5f60208284031215611da9575f5ffd5b5035919050565b5f5f5f5f60808587031215611dc3575f5ffd5b8435611dce81611d6a565b93506020850135611dde81611d6a565b92506040850135611dee81611d6a565b9396929550929360600135925050565b5f5f5f5f84860360a0811215611e12575f5ffd5b6040811215611e1f575f5ffd5b50849350604084013592506060840135611e3881611d6a565b9396929550929360800135925050565b5f5f5f60608486031215611e5a575f5ffd5b8335611e6581611d6a565b92506020840135611e7581611d6a565b929592945050506040919091013590565b602081525f82518060208401528060208501604085015e5f604082850101526040601f19601f83011684010191505092915050565b5f60208284031215611ecb575f5ffd5b813567ffffffffffffffff81168114610d37575f5ffd5b5f60208284031215611ef2575f5ffd5b813560ff81168114610d37575f5ffd5b5f5f83601f840112611f12575f5ffd5b50813567ffffffffffffffff811115611f29575f5ffd5b6020830191508360208285010111156116f9575f5ffd5b5f5f5f5f5f60608688031215611f54575f5ffd5b853567ffffffffffffffff811115611f6a575f5ffd5b611f7688828901611f02565b909650945050602086013567ffffffffffffffff811115611f95575f5ffd5b611fa188828901611f02565b96999598509660400135949350505050565b5f5f5f60608486031215611fc5575f5ffd5b8335611fd081611d6a565b95602085013595506040909401359392505050565b5f5f60408385031215611ff6575f5ffd5b823561200181611d6a565b946020939093013593505050565b5f5f60408385031215612020575f5ffd5b823561202b81611d6a565b9150602083013561203b81611d6a565b809150509250929050565b634e487b7160e01b5f52601160045260245ffd5b5f600160ff1b820161206e5761206e612046565b505f0390565b8181038181111561113e5761113e612046565b8082018281125f8312801582168215821617156120a6576120a6612046565b505092915050565b8082018082111561113e5761113e612046565b8181035f8312801583831316838312821617156120e0576120e0612046565b5092915050565b81835281816020850137505f828201602090810191909152601f909101601f19169091010190565b606081525f6121226060830187896120e7565b82810360208401526121358186886120e7565b9150508260408301529695505050505050565b634e487b7160e01b5f52601260045260245ffd5b5f8261217657634e487b7160e01b5f52601260045260245ffd5b500790565b5f81518060208401855e5f93019283525090919050565b5f6121a66121a0838661217b565b8461217b565b949350505050565b5f602082840312156121be575f5ffd5b81518015158114610d37575f5ffd5b5f600182016121de576121de612046565b5060010190565b67ffffffffffffffff828116828216039081111561113e5761113e612046565b5f60208284031215612215575f5ffd5b8151610d3781611d6a56fe608060405260405161090e38038061090e83398101604081905261002291610460565b61002e82826000610035565b505061058a565b61003e83610100565b6040516001600160a01b038416907f1cf3b03a6cf19fa2baba4df148e9dcabedea7f8a5c07840e207e5c089be95d3e90600090a260008251118061007f5750805b156100fb576100f9836001600160a01b0316635c60da1b6040518163ffffffff1660e01b8152600401602060405180830381865afa1580156100c5573d6000803e3d6000fd5b505050506040513d601f19601f820116820180604052508101906100e99190610520565b836102a360201b6100291760201c565b505b505050565b610113816102cf60201b6100551760201c565b6101725760405162461bcd60e51b815260206004820152602560248201527f455243313936373a206e657720626561636f6e206973206e6f74206120636f6e6044820152641d1c9858dd60da1b60648201526084015b60405180910390fd5b6101e6816001600160a01b0316635c60da1b6040518163ffffffff1660e01b8152600401602060405180830381865afa1580156101b3573d6000803e3d6000fd5b505050506040513d601f19601f820116820180604052508101906101d79190610520565b6102cf60201b6100551760201c565b61024b5760405162461bcd60e51b815260206004820152603060248201527f455243313936373a20626561636f6e20696d706c656d656e746174696f6e206960448201526f1cc81b9bdd08184818dbdb9d1c9858dd60821b6064820152608401610169565b806102827fa3f0ad74e5423aebfd80d3ef4346578335a9a72aeaee59ff6cb3582b35133d5060001b6102de60201b6100641760201c565b80546001600160a01b0319166001600160a01b039290921691909117905550565b60606102c883836040518060600160405280602781526020016108e7602791396102e1565b9392505050565b6001600160a01b03163b151590565b90565b6060600080856001600160a01b0316856040516102fe919061053b565b600060405180830381855af49150503d8060008114610339576040519150601f19603f3d011682016040523d82523d6000602084013e61033e565b606091505b5090925090506103508683838761035a565b9695505050505050565b606083156103c65782516103bf576001600160a01b0385163b6103bf5760405162461bcd60e51b815260206004820152601d60248201527f416464726573733a2063616c6c20746f206e6f6e2d636f6e74726163740000006044820152606401610169565b50816103d0565b6103d083836103d8565b949350505050565b8151156103e85781518083602001fd5b8060405162461bcd60e51b81526004016101699190610557565b80516001600160a01b038116811461041957600080fd5b919050565b634e487b7160e01b600052604160045260246000fd5b60005b8381101561044f578181015183820152602001610437565b838111156100f95750506000910152565b6000806040838503121561047357600080fd5b61047c83610402565b60208401519092506001600160401b038082111561049957600080fd5b818501915085601f8301126104ad57600080fd5b8151818111156104bf576104bf61041e565b604051601f8201601f19908116603f011681019083821181831017156104e7576104e761041e565b8160405282815288602084870101111561050057600080fd5b610511836020830160208801610434565b80955050505050509250929050565b60006020828403121561053257600080fd5b6102c882610402565b6000825161054d818460208701610434565b9190910192915050565b6020815260008251806020840152610576816040850160208701610434565b601f01601f19169190910160400192915050565b61034e806105996000396000f3fe60806040523661001357610011610017565b005b6100115b610027610022610067565b610100565b565b606061004e83836040518060600160405280602781526020016102f260279139610124565b9392505050565b6001600160a01b03163b151590565b90565b600061009a7fa3f0ad74e5423aebfd80d3ef4346578335a9a72aeaee59ff6cb3582b35133d50546001600160a01b031690565b6001600160a01b0316635c60da1b6040518163ffffffff1660e01b8152600401602060405180830381865afa1580156100d7573d6000803e3d6000fd5b505050506040513d601f19601f820116820180604052508101906100fb9190610249565b905090565b3660008037600080366000845af43d6000803e80801561011f573d6000f35b3d6000fd5b6060600080856001600160a01b03168560405161014191906102a2565b600060405180830381855af49150503d806000811461017c576040519150601f19603f3d011682016040523d82523d6000602084013e610181565b606091505b50915091506101928683838761019c565b9695505050505050565b6060831561020d578251610206576001600160a01b0385163b6102065760405162461bcd60e51b815260206004820152601d60248201527f416464726573733a2063616c6c20746f206e6f6e2d636f6e747261637400000060448201526064015b60405180910390fd5b5081610217565b610217838361021f565b949350505050565b81511561022f5781518083602001fd5b8060405162461bcd60e51b81526004016101fd91906102be565b60006020828403121561025b57600080fd5b81516001600160a01b038116811461004e57600080fd5b60005b8381101561028d578181015183820152602001610275565b8381111561029c576000848401525b50505050565b600082516102b4818460208701610272565b9190910192915050565b60208152600082518060208401526102dd816040850160208701610272565b601f01601f1916919091016040019291505056fe416464726573733a206c6f772d6c6576656c2064656c65676174652063616c6c206661696c6564a2646970667358221220d51e81d3bc5ed20a26aeb05dce7e825c503b2061aa78628027300c8d65b9d89a64736f6c634300080c0033416464726573733a206c6f772d6c6576656c2064656c65676174652063616c6c206661696c6564a26469706673582212200fdd61faaceeb328ec0077dd560195e8ab3b7f96c33b1a12a23d282e72308e9264736f6c634300081b0033",
    "linkReferences": {}
  },
  "methodIdentifiers": {
    "addShares(address,address,uint256)": "50ff7225",
    "beaconChainETHStrategy()": "9104c319",
    "beaconChainSlashingFactor(address)": "a3d75e09",
    "burnableETHShares()": "f5d4fed3",
    "createPod()": "84d81062",
    "delegationManager()": "ea4d3c9b",
    "eigenPodBeacon()": "292b7b2b",
    "ethPOS()": "74cdd798",
    "getPod(address)": "a38406a3",
    "hasPod(address)": "f6848d24",
    "increaseBurnOrRedistributableShares((address,uint32),uint256,address,uint256)": "3fb99ca5",
    "initialize(address,uint256)": "cd6dc687",
    "numPods()": "a6a509be",
    "owner()": "8da5cb5b",
    "ownerToPod(address)": "9ba06275",
    "pause(uint256)": "136439dd",
    "pauseAll()": "595c6a67",
    "paused()": "5c975abb",
    "paused(uint8)": "5ac86ab7",
    "pauserRegistry()": "886f1195",
    "pectraForkTimestamp()": "2704351a",
    "podOwnerDepositShares(address)": "d48e8894",
    "proofTimestampSetter()": "595edbcb",
    "recordBeaconChainETHBalanceUpdate(address,uint256,int256)": "a1ca780b",
    "removeDepositShares(address,address,uint256)": "724af423",
    "renounceOwnership()": "715018a6",
    "setPectraForkTimestamp(uint64)": "5a26fbf4",
    "setProofTimestampSetter(address)": "0d1e9de1",
    "stake(bytes,bytes,bytes32)": "9b4e4634",
    "stakerDepositShares(address,address)": "fe243a17",
    "transferOwnership(address)": "f2fde38b",
    "unpause(uint256)": "fabc1cbc",
    "version()": "54fd4d50",
    "withdrawSharesAsTokens(address,address,address,uint256)": "2eae418c"
  },
  "id": 207
}