{
  "abi": [
    {
      "type": "constructor",
      "inputs": [
        {
          "name": "_strategyManager",
          "type": "address",
          "internalType": "contract IStrategyManager"
        },
        {
          "name": "_pauserRegistry",
          "type": "address",
          "internalType": "contract IPauserRegistry"
        },
        {
          "name": "_delegationManager",
          "type": "address",
          "internalType": "contract IDelegationManager"
        },
        {
          "name": "_allocationManager",
          "type": "address",
          "internalType": "contract IAllocationManager"
        },
        {
          "name": "_rewardsCoordinator",
          "type": "address",
          "internalType": "contract IRewardsCoordinator"
        },
        {
          "name": "_strategyFactory",
          "type": "address",
          "internalType": "contract IStrategyFactory"
        }
      ],
      "stateMutability": "nonpayable"
    },
    {
      "type": "function",
      "name": "advanceToWithdrawals",
      "inputs": [],
      "outputs": [],
      "stateMutability": "nonpayable"
    },
    {
      "type": "function",
      "name": "allocationManager",
      "inputs": [],
      "outputs": [
        {
          "name": "",
          "type": "address",
          "internalType": "contract IAllocationManager"
        }
      ],
      "stateMutability": "view"
    },
    {
      "type": "function",
      "name": "allocationsActive",
      "inputs": [],
      "outputs": [
        {
          "name": "",
          "type": "bool",
          "internalType": "bool"
        }
      ],
      "stateMutability": "view"
    },
    {
      "type": "function",
      "name": "arbitrator",
      "inputs": [],
      "outputs": [
        {
          "name": "",
          "type": "address",
          "internalType": "address"
        }
      ],
      "stateMutability": "view"
    },
    {
      "type": "function",
      "name": "beforeAddShares",
      "inputs": [
        {
          "name": "staker",
          "type": "address",
          "internalType": "address"
        },
        {
          "name": "shares",
          "type": "uint256",
          "internalType": "uint256"
        }
      ],
      "outputs": [],
      "stateMutability": "view"
    },
    {
      "type": "function",
      "name": "beforeRemoveShares",
      "inputs": [
        {
          "name": "",
          "type": "address",
          "internalType": "address"
        },
        {
          "name": "",
          "type": "uint256",
          "internalType": "uint256"
        }
      ],
      "outputs": [],
      "stateMutability": "view"
    },
    {
      "type": "function",
      "name": "delegationManager",
      "inputs": [],
      "outputs": [
        {
          "name": "",
          "type": "address",
          "internalType": "contract IDelegationManager"
        }
      ],
      "stateMutability": "view"
    },
    {
      "type": "function",
      "name": "deposit",
      "inputs": [
        {
          "name": "token",
          "type": "address",
          "internalType": "contract IERC20"
        },
        {
          "name": "amount",
          "type": "uint256",
          "internalType": "uint256"
        }
      ],
      "outputs": [
        {
          "name": "newShares",
          "type": "uint256",
          "internalType": "uint256"
        }
      ],
      "stateMutability": "nonpayable"
    },
    {
      "type": "function",
      "name": "depositsOpen",
      "inputs": [],
      "outputs": [
        {
          "name": "",
          "type": "bool",
          "internalType": "bool"
        }
      ],
      "stateMutability": "view"
    },
    {
      "type": "function",
      "name": "duration",
      "inputs": [],
      "outputs": [
        {
          "name": "",
          "type": "uint32",
          "internalType": "uint32"
        }
      ],
      "stateMutability": "view"
    },
    {
      "type": "function",
      "name": "explanation",
      "inputs": [],
      "outputs": [
        {
          "name": "",
          "type": "string",
          "internalType": "string"
        }
      ],
      "stateMutability": "pure"
    },
    {
      "type": "function",
      "name": "getTVLLimits",
      "inputs": [],
      "outputs": [
        {
          "name": "",
          "type": "uint256",
          "internalType": "uint256"
        },
        {
          "name": "",
          "type": "uint256",
          "internalType": "uint256"
        }
      ],
      "stateMutability": "view"
    },
    {
      "type": "function",
      "name": "initialize",
      "inputs": [
        {
          "name": "config",
          "type": "tuple",
          "internalType": "struct IDurationVaultStrategyTypes.VaultConfig",
          "components": [
            {
              "name": "underlyingToken",
              "type": "address",
              "internalType": "contract IERC20"
            },
            {
              "name": "vaultAdmin",
              "type": "address",
              "internalType": "address"
            },
            {
              "name": "arbitrator",
              "type": "address",
              "internalType": "address"
            },
            {
              "name": "duration",
              "type": "uint32",
              "internalType": "uint32"
            },
            {
              "name": "maxPerDeposit",
              "type": "uint256",
              "internalType": "uint256"
            },
            {
              "name": "stakeCap",
              "type": "uint256",
              "internalType": "uint256"
            },
            {
              "name": "metadataURI",
              "type": "string",
              "internalType": "string"
            },
            {
              "name": "operatorSet",
              "type": "tuple",
              "internalType": "struct OperatorSet",
              "components": [
                {
                  "name": "avs",
                  "type": "address",
                  "internalType": "address"
                },
                {
                  "name": "id",
                  "type": "uint32",
                  "internalType": "uint32"
                }
              ]
            },
            {
              "name": "operatorSetRegistrationData",
              "type": "bytes",
              "internalType": "bytes"
            },
            {
              "name": "delegationApprover",
              "type": "address",
              "internalType": "address"
            },
            {
              "name": "operatorMetadataURI",
              "type": "string",
              "internalType": "string"
            }
          ]
        }
      ],
      "outputs": [],
      "stateMutability": "nonpayable"
    },
    {
      "type": "function",
      "name": "initialize",
      "inputs": [
        {
          "name": "_underlyingToken",
          "type": "address",
          "internalType": "contract IERC20"
        }
      ],
      "outputs": [],
      "stateMutability": "nonpayable"
    },
    {
      "type": "function",
      "name": "isLocked",
      "inputs": [],
      "outputs": [
        {
          "name": "",
          "type": "bool",
          "internalType": "bool"
        }
      ],
      "stateMutability": "view"
    },
    {
      "type": "function",
      "name": "isMatured",
      "inputs": [],
      "outputs": [
        {
          "name": "",
          "type": "bool",
          "internalType": "bool"
        }
      ],
      "stateMutability": "view"
    },
    {
      "type": "function",
      "name": "lock",
      "inputs": [],
      "outputs": [],
      "stateMutability": "nonpayable"
    },
    {
      "type": "function",
      "name": "lockedAt",
      "inputs": [],
      "outputs": [
        {
          "name": "",
          "type": "uint32",
          "internalType": "uint32"
        }
      ],
      "stateMutability": "view"
    },
    {
      "type": "function",
      "name": "markMatured",
      "inputs": [],
      "outputs": [],
      "stateMutability": "nonpayable"
    },
    {
      "type": "function",
      "name": "maturedAt",
      "inputs": [],
      "outputs": [
        {
          "name": "",
          "type": "uint32",
          "internalType": "uint32"
        }
      ],
      "stateMutability": "view"
    },
    {
      "type": "function",
      "name": "maxPerDeposit",
      "inputs": [],
      "outputs": [
        {
          "name": "",
          "type": "uint256",
          "internalType": "uint256"
        }
      ],
      "stateMutability": "view"
    },
    {
      "type": "function",
      "name": "maxTotalDeposits",
      "inputs": [],
      "outputs": [
        {
          "name": "",
          "type": "uint256",
          "internalType": "uint256"
        }
      ],
      "stateMutability": "view"
    },
    {
      "type": "function",
      "name": "metadataURI",
      "inputs": [],
      "outputs": [
        {
          "name": "",
          "type": "string",
          "internalType": "string"
        }
      ],
      "stateMutability": "view"
    },
    {
      "type": "function",
      "name": "operatorIntegrationConfigured",
      "inputs": [],
      "outputs": [
        {
          "name": "",
          "type": "bool",
          "internalType": "bool"
        }
      ],
      "stateMutability": "pure"
    },
    {
      "type": "function",
      "name": "operatorSetInfo",
      "inputs": [],
      "outputs": [
        {
          "name": "avs",
          "type": "address",
          "internalType": "address"
        },
        {
          "name": "operatorSetId",
          "type": "uint32",
          "internalType": "uint32"
        }
      ],
      "stateMutability": "view"
    },
    {
      "type": "function",
      "name": "operatorSetRegistered",
      "inputs": [],
      "outputs": [
        {
          "name": "",
          "type": "bool",
          "internalType": "bool"
        }
      ],
      "stateMutability": "view"
    },
    {
      "type": "function",
      "name": "pause",
      "inputs": [
        {
          "name": "newPausedStatus",
          "type": "uint256",
          "internalType": "uint256"
        }
      ],
      "outputs": [],
      "stateMutability": "nonpayable"
    },
    {
      "type": "function",
      "name": "pauseAll",
      "inputs": [],
      "outputs": [],
      "stateMutability": "nonpayable"
    },
    {
      "type": "function",
      "name": "paused",
      "inputs": [
        {
          "name": "index",
          "type": "uint8",
          "internalType": "uint8"
        }
      ],
      "outputs": [
        {
          "name": "",
          "type": "bool",
          "internalType": "bool"
        }
      ],
      "stateMutability": "view"
    },
    {
      "type": "function",
      "name": "paused",
      "inputs": [],
      "outputs": [
        {
          "name": "",
          "type": "uint256",
          "internalType": "uint256"
        }
      ],
      "stateMutability": "view"
    },
    {
      "type": "function",
      "name": "pauserRegistry",
      "inputs": [],
      "outputs": [
        {
          "name": "",
          "type": "address",
          "internalType": "contract IPauserRegistry"
        }
      ],
      "stateMutability": "view"
    },
    {
      "type": "function",
      "name": "rewardsCoordinator",
      "inputs": [],
      "outputs": [
        {
          "name": "",
          "type": "address",
          "internalType": "contract IRewardsCoordinator"
        }
      ],
      "stateMutability": "view"
    },
    {
      "type": "function",
      "name": "setRewardsClaimer",
      "inputs": [
        {
          "name": "claimer",
          "type": "address",
          "internalType": "address"
        }
      ],
      "outputs": [],
      "stateMutability": "nonpayable"
    },
    {
      "type": "function",
      "name": "setTVLLimits",
      "inputs": [
        {
          "name": "newMaxPerDeposit",
          "type": "uint256",
          "internalType": "uint256"
        },
        {
          "name": "newMaxTotalDeposits",
          "type": "uint256",
          "internalType": "uint256"
        }
      ],
      "outputs": [],
      "stateMutability": "nonpayable"
    },
    {
      "type": "function",
      "name": "shares",
      "inputs": [
        {
          "name": "user",
          "type": "address",
          "internalType": "address"
        }
      ],
      "outputs": [
        {
          "name": "",
          "type": "uint256",
          "internalType": "uint256"
        }
      ],
      "stateMutability": "view"
    },
    {
      "type": "function",
      "name": "sharesToUnderlying",
      "inputs": [
        {
          "name": "amountShares",
          "type": "uint256",
          "internalType": "uint256"
        }
      ],
      "outputs": [
        {
          "name": "",
          "type": "uint256",
          "internalType": "uint256"
        }
      ],
      "stateMutability": "view"
    },
    {
      "type": "function",
      "name": "sharesToUnderlyingView",
      "inputs": [
        {
          "name": "amountShares",
          "type": "uint256",
          "internalType": "uint256"
        }
      ],
      "outputs": [
        {
          "name": "",
          "type": "uint256",
          "internalType": "uint256"
        }
      ],
      "stateMutability": "view"
    },
    {
      "type": "function",
      "name": "stakeCap",
      "inputs": [],
      "outputs": [
        {
          "name": "",
          "type": "uint256",
          "internalType": "uint256"
        }
      ],
      "stateMutability": "view"
    },
    {
      "type": "function",
      "name": "state",
      "inputs": [],
      "outputs": [
        {
          "name": "",
          "type": "uint8",
          "internalType": "enum IDurationVaultStrategyTypes.VaultState"
        }
      ],
      "stateMutability": "view"
    },
    {
      "type": "function",
      "name": "strategyFactory",
      "inputs": [],
      "outputs": [
        {
          "name": "",
          "type": "address",
          "internalType": "contract IStrategyFactory"
        }
      ],
      "stateMutability": "view"
    },
    {
      "type": "function",
      "name": "strategyManager",
      "inputs": [],
      "outputs": [
        {
          "name": "",
          "type": "address",
          "internalType": "contract IStrategyManager"
        }
      ],
      "stateMutability": "view"
    },
    {
      "type": "function",
      "name": "totalShares",
      "inputs": [],
      "outputs": [
        {
          "name": "",
          "type": "uint256",
          "internalType": "uint256"
        }
      ],
      "stateMutability": "view"
    },
    {
      "type": "function",
      "name": "underlyingToShares",
      "inputs": [
        {
          "name": "amountUnderlying",
          "type": "uint256",
          "internalType": "uint256"
        }
      ],
      "outputs": [
        {
          "name": "",
          "type": "uint256",
          "internalType": "uint256"
        }
      ],
      "stateMutability": "view"
    },
    {
      "type": "function",
      "name": "underlyingToSharesView",
      "inputs": [
        {
          "name": "amountUnderlying",
          "type": "uint256",
          "internalType": "uint256"
        }
      ],
      "outputs": [
        {
          "name": "",
          "type": "uint256",
          "internalType": "uint256"
        }
      ],
      "stateMutability": "view"
    },
    {
      "type": "function",
      "name": "underlyingToken",
      "inputs": [],
      "outputs": [
        {
          "name": "",
          "type": "address",
          "internalType": "contract IERC20"
        }
      ],
      "stateMutability": "view"
    },
    {
      "type": "function",
      "name": "unlockAt",
      "inputs": [],
      "outputs": [
        {
          "name": "",
          "type": "uint32",
          "internalType": "uint32"
        }
      ],
      "stateMutability": "view"
    },
    {
      "type": "function",
      "name": "unlockTimestamp",
      "inputs": [],
      "outputs": [
        {
          "name": "",
          "type": "uint32",
          "internalType": "uint32"
        }
      ],
      "stateMutability": "view"
    },
    {
      "type": "function",
      "name": "unpause",
      "inputs": [
        {
          "name": "newPausedStatus",
          "type": "uint256",
          "internalType": "uint256"
        }
      ],
      "outputs": [],
      "stateMutability": "nonpayable"
    },
    {
      "type": "function",
      "name": "updateDelegationApprover",
      "inputs": [
        {
          "name": "newDelegationApprover",
          "type": "address",
          "internalType": "address"
        }
      ],
      "outputs": [],
      "stateMutability": "nonpayable"
    },
    {
      "type": "function",
      "name": "updateMetadataURI",
      "inputs": [
        {
          "name": "newMetadataURI",
          "type": "string",
          "internalType": "string"
        }
      ],
      "outputs": [],
      "stateMutability": "nonpayable"
    },
    {
      "type": "function",
      "name": "updateOperatorMetadataURI",
      "inputs": [
        {
          "name": "newOperatorMetadataURI",
          "type": "string",
          "internalType": "string"
        }
      ],
      "outputs": [],
      "stateMutability": "nonpayable"
    },
    {
      "type": "function",
      "name": "updateTVLLimits",
      "inputs": [
        {
          "name": "newMaxPerDeposit",
          "type": "uint256",
          "internalType": "uint256"
        },
        {
          "name": "newStakeCap",
          "type": "uint256",
          "internalType": "uint256"
        }
      ],
      "outputs": [],
      "stateMutability": "nonpayable"
    },
    {
      "type": "function",
      "name": "userUnderlying",
      "inputs": [
        {
          "name": "user",
          "type": "address",
          "internalType": "address"
        }
      ],
      "outputs": [
        {
          "name": "",
          "type": "uint256",
          "internalType": "uint256"
        }
      ],
      "stateMutability": "nonpayable"
    },
    {
      "type": "function",
      "name": "userUnderlyingView",
      "inputs": [
        {
          "name": "user",
          "type": "address",
          "internalType": "address"
        }
      ],
      "outputs": [
        {
          "name": "",
          "type": "uint256",
          "internalType": "uint256"
        }
      ],
      "stateMutability": "view"
    },
    {
      "type": "function",
      "name": "vaultAdmin",
      "inputs": [],
      "outputs": [
        {
          "name": "",
          "type": "address",
          "internalType": "address"
        }
      ],
      "stateMutability": "view"
    },
    {
      "type": "function",
      "name": "withdraw",
      "inputs": [
        {
          "name": "recipient",
          "type": "address",
          "internalType": "address"
        },
        {
          "name": "token",
          "type": "address",
          "internalType": "contract IERC20"
        },
        {
          "name": "amountShares",
          "type": "uint256",
          "internalType": "uint256"
        }
      ],
      "outputs": [
        {
          "name": "amountOut",
          "type": "uint256",
          "internalType": "uint256"
        }
      ],
      "stateMutability": "nonpayable"
    },
    {
      "type": "function",
      "name": "withdrawalsOpen",
      "inputs": [],
      "outputs": [
        {
          "name": "",
          "type": "bool",
          "internalType": "bool"
        }
      ],
      "stateMutability": "view"
    },
    {
      "type": "event",
      "name": "DeallocateAttempted",
      "inputs": [
        {
          "name": "success",
          "type": "bool",
          "indexed": false,
          "internalType": "bool"
        }
      ],
      "anonymous": false
    },
    {
      "type": "event",
      "name": "DeregisterAttempted",
      "inputs": [
        {
          "name": "success",
          "type": "bool",
          "indexed": false,
          "internalType": "bool"
        }
      ],
      "anonymous": false
    },
    {
      "type": "event",
      "name": "ExchangeRateEmitted",
      "inputs": [
        {
          "name": "rate",
          "type": "uint256",
          "indexed": false,
          "internalType": "uint256"
        }
      ],
      "anonymous": false
    },
    {
      "type": "event",
      "name": "Initialized",
      "inputs": [
        {
          "name": "version",
          "type": "uint8",
          "indexed": false,
          "internalType": "uint8"
        }
      ],
      "anonymous": false
    },
    {
      "type": "event",
      "name": "MaxPerDepositUpdated",
      "inputs": [
        {
          "name": "previousValue",
          "type": "uint256",
          "indexed": false,
          "internalType": "uint256"
        },
        {
          "name": "newValue",
          "type": "uint256",
          "indexed": false,
          "internalType": "uint256"
        }
      ],
      "anonymous": false
    },
    {
      "type": "event",
      "name": "MaxTotalDepositsUpdated",
      "inputs": [
        {
          "name": "previousValue",
          "type": "uint256",
          "indexed": false,
          "internalType": "uint256"
        },
        {
          "name": "newValue",
          "type": "uint256",
          "indexed": false,
          "internalType": "uint256"
        }
      ],
      "anonymous": false
    },
    {
      "type": "event",
      "name": "MetadataURIUpdated",
      "inputs": [
        {
          "name": "newMetadataURI",
          "type": "string",
          "indexed": false,
          "internalType": "string"
        }
      ],
      "anonymous": false
    },
    {
      "type": "event",
      "name": "Paused",
      "inputs": [
        {
          "name": "account",
          "type": "address",
          "indexed": true,
          "internalType": "address"
        },
        {
          "name": "newPausedStatus",
          "type": "uint256",
          "indexed": false,
          "internalType": "uint256"
        }
      ],
      "anonymous": false
    },
    {
      "type": "event",
      "name": "StrategyTokenSet",
      "inputs": [
        {
          "name": "token",
          "type": "address",
          "indexed": false,
          "internalType": "contract IERC20"
        },
        {
          "name": "decimals",
          "type": "uint8",
          "indexed": false,
          "internalType": "uint8"
        }
      ],
      "anonymous": false
    },
    {
      "type": "event",
      "name": "Unpaused",
      "inputs": [
        {
          "name": "account",
          "type": "address",
          "indexed": true,
          "internalType": "address"
        },
        {
          "name": "newPausedStatus",
          "type": "uint256",
          "indexed": false,
          "internalType": "uint256"
        }
      ],
      "anonymous": false
    },
    {
      "type": "event",
      "name": "VaultAdvancedToWithdrawals",
      "inputs": [
        {
          "name": "arbitrator",
          "type": "address",
          "indexed": true,
          "internalType": "address"
        },
        {
          "name": "maturedAt",
          "type": "uint32",
          "indexed": false,
          "internalType": "uint32"
        }
      ],
      "anonymous": false
    },
    {
      "type": "event",
      "name": "VaultInitialized",
      "inputs": [
        {
          "name": "vaultAdmin",
          "type": "address",
          "indexed": true,
          "internalType": "address"
        },
        {
          "name": "arbitrator",
          "type": "address",
          "indexed": true,
          "internalType": "address"
        },
        {
          "name": "underlyingToken",
          "type": "address",
          "indexed": true,
          "internalType": "contract IERC20"
        },
        {
          "name": "duration",
          "type": "uint32",
          "indexed": false,
          "internalType": "uint32"
        },
        {
          "name": "maxPerDeposit",
          "type": "uint256",
          "indexed": false,
          "internalType": "uint256"
        },
        {
          "name": "stakeCap",
          "type": "uint256",
          "indexed": false,
          "internalType": "uint256"
        },
        {
          "name": "metadataURI",
          "type": "string",
          "indexed": false,
          "internalType": "string"
        }
      ],
      "anonymous": false
    },
    {
      "type": "event",
      "name": "VaultLocked",
      "inputs": [
        {
          "name": "lockedAt",
          "type": "uint32",
          "indexed": false,
          "internalType": "uint32"
        },
        {
          "name": "unlockAt",
          "type": "uint32",
          "indexed": false,
          "internalType": "uint32"
        }
      ],
      "anonymous": false
    },
    {
      "type": "event",
      "name": "VaultMatured",
      "inputs": [
        {
          "name": "maturedAt",
          "type": "uint32",
          "indexed": false,
          "internalType": "uint32"
        }
      ],
      "anonymous": false
    },
    {
      "type": "error",
      "name": "BalanceExceedsMaxTotalDeposits",
      "inputs": []
    },
    {
      "type": "error",
      "name": "CurrentlyPaused",
      "inputs": []
    },
    {
      "type": "error",
      "name": "DepositExceedsMaxPerDeposit",
      "inputs": []
    },
    {
      "type": "error",
      "name": "DepositsLocked",
      "inputs": []
    },
    {
      "type": "error",
      "name": "DurationAlreadyElapsed",
      "inputs": []
    },
    {
      "type": "error",
      "name": "DurationNotElapsed",
      "inputs": []
    },
    {
      "type": "error",
      "name": "InputAddressZero",
      "inputs": []
    },
    {
      "type": "error",
      "name": "InvalidArbitrator",
      "inputs": []
    },
    {
      "type": "error",
      "name": "InvalidDuration",
      "inputs": []
    },
    {
      "type": "error",
      "name": "InvalidNewPausedStatus",
      "inputs": []
    },
    {
      "type": "error",
      "name": "InvalidVaultAdmin",
      "inputs": []
    },
    {
      "type": "error",
      "name": "MaxPerDepositExceedsMax",
      "inputs": []
    },
    {
      "type": "error",
      "name": "MustBeDelegatedToVaultOperator",
      "inputs": []
    },
    {
      "type": "error",
      "name": "NewSharesZero",
      "inputs": []
    },
    {
      "type": "error",
      "name": "OnlyArbitrator",
      "inputs": []
    },
    {
      "type": "error",
      "name": "OnlyPauser",
      "inputs": []
    },
    {
      "type": "error",
      "name": "OnlyStrategyManager",
      "inputs": []
    },
    {
      "type": "error",
      "name": "OnlyUnderlyingToken",
      "inputs": []
    },
    {
      "type": "error",
      "name": "OnlyUnpauser",
      "inputs": []
    },
    {
      "type": "error",
      "name": "OnlyVaultAdmin",
      "inputs": []
    },
    {
      "type": "error",
      "name": "OperatorIntegrationInvalid",
      "inputs": []
    },
    {
      "type": "error",
      "name": "PendingAllocation",
      "inputs": []
    },
    {
      "type": "error",
      "name": "StrategyNotSupportedByOperatorSet",
      "inputs": []
    },
    {
      "type": "error",
      "name": "TotalSharesExceedsMax",
      "inputs": []
    },
    {
      "type": "error",
      "name": "VaultAlreadyLocked",
      "inputs": []
    },
    {
      "type": "error",
      "name": "VaultNotLocked",
      "inputs": []
    },
    {
      "type": "error",
      "name": "WithdrawalAmountExceedsTotalDeposits",
      "inputs": []
    },
    {
      "type": "error",
      "name": "WithdrawalsLockedDuringAllocations",
      "inputs": []
    }
  ],
  "bytecode": {
    "object": "0x610140604052348015610010575f5ffd5b5060405161415238038061415283398101604081905261002f916101e2565b8585806001600160a01b038116610059576040516339b190bb60e11b815260040160405180910390fd5b6001600160a01b03908116608052821660a05261007461010f565b50506001600160a01b0384161580159061009657506001600160a01b03831615155b80156100aa57506001600160a01b03821615155b80156100be57506001600160a01b03811615155b6100db57604051635881876760e01b815260040160405180910390fd5b6001600160a01b0380851660c05283811660e0528281166101005281166101205261010461010f565b505050505050610265565b5f54610100900460ff161561017a5760405162461bcd60e51b815260206004820152602760248201527f496e697469616c697a61626c653a20636f6e747261637420697320696e697469604482015266616c697a696e6760c81b606482015260840160405180910390fd5b5f5460ff908116146101c9575f805460ff191660ff9081179091556040519081527f7f26b83ff96e1f2b6a682f133852f6798a09c465da95921460cefb38474024989060200160405180910390a15b565b6001600160a01b03811681146101df575f5ffd5b50565b5f5f5f5f5f5f60c087890312156101f7575f5ffd5b8651610202816101cb565b6020880151909650610213816101cb565b6040880151909550610224816101cb565b6060880151909450610235816101cb565b6080880151909350610246816101cb565b60a0880151909250610257816101cb565b809150509295509295509295565b60805160a05160c05160e0516101005161012051613df06103625f395f6105f601525f818161058e01528181611365015281816123090152818161237601526123fb01525f81816106f101528181610b940152818161190101528181612274015281816124bd015281816127390152818161277401528181612a0901528181612aec0152612bf601525f81816107ab01528181610ef601528181611012015281816111b5015281816112ba015281816120bd015261213a01525f818161043b0152818161080e0152818161099d01528181610e72015281816116ea015261176c01525f818161056701528181611b290152611c910152613df05ff3fe608060405234801561000f575f5ffd5b5060043610610372575f3560e01c80638c871019116101d4578063c19d93fb11610109578063df6fadc1116100a9578063f3e7387511610079578063f3e73875146107cd578063f83d08ba146107e0578063fabc1cbc146107e8578063fb4d86b4146107fb575f5ffd5b8063df6fadc114610765578063e3dae51c14610780578063e7f6f22514610793578063ea4d3c9b146107a6575f5ffd5b8063ca8aa7c7116100e4578063ca8aa7c7146106ec578063ce7c2ac214610713578063d4deae8114610726578063d9caed1214610752575f5ffd5b8063c19d93fb146106ac578063c2cca26d146106c6578063c4d66de8146106d9575f5ffd5b8063aa5dec6f11610174578063b21634821161014f578063b216348214610667578063b4e20f131461067e578063b501d66014610691578063ba28fd2e146106a4575f5ffd5b8063aa5dec6f14610635578063ab5921e11461064c578063af6eb2be14610654575f5ffd5b806399be81c8116101af57806399be81c8146105de5780639ef35710146105f1578063a4e2d63414610618578063aa082a9d14610620575f5ffd5b80638c871019146105b05780638f6a6240146105c357806394aad677146105d6575f5ffd5b8063553ca5f8116102aa5780636cc6cde11161024a5780637a8b2637116102255780637a8b2637146105475780637f2b6a0d1461055a578063886f1195146105625780638a2fc4e314610589575f5ffd5b80636cc6cde1146105195780636d8690a91461052c57806373e3c28014610534575f5ffd5b80635ac86ab7116102855780635ac86ab7146104e15780635c975abb1461050057806361b01b5d146105085780636325f65514610511575f5ffd5b8063553ca5f8146104be578063595c6a67146104d157806359d915ff146104d9575f5ffd5b806339b70e381161031557806347e7ef24116102f057806347e7ef241461047d57806353fd3e81146104905780635438a8c7146104a3578063549c4627146104b6575f5ffd5b806339b70e38146104365780633a98ef391461045d57806343fe08b014610474575f5ffd5b806311c70c9d1161035057806311c70c9d146103d5578063136439dd146103e85780631f1cc9a3146103fb5780632495a5991461040b575f5ffd5b806303e3e6eb1461037657806303ee438c1461038b5780630fb5a6b4146103a9575b5f5ffd5b610389610384366004612f7b565b610803565b005b61039361088e565b6040516103a09190612fd3565b60405180910390f35b6033546103c090600160a01b900463ffffffff1681565b60405163ffffffff90911681526020016103a0565b6103896103e3366004612fe5565b61091a565b6103896103f6366004613005565b610951565b6034546103c09063ffffffff1681565b60645461041e906001600160a01b031681565b6040516001600160a01b0390911681526020016103a0565b61041e7f000000000000000000000000000000000000000000000000000000000000000081565b61046660655481565b6040519081526020016103a0565b61046660375481565b61046661048b366004612f7b565b610987565b61038961049e36600461301c565b610ab6565b60015b60405190151581526020016103a0565b6104a6610b2c565b6104666104cc366004613088565b610b54565b610389610b67565b6104a6610b7b565b6104a66104ef3660046130b1565b6001805460ff9092161b9081161490565b600154610466565b61046660385481565b610389610c10565b60335461041e906001600160a01b031681565b610389610d70565b610389610542366004612f7b565b610e67565b610466610555366004613005565b6110e2565b6104a661112b565b61041e7f000000000000000000000000000000000000000000000000000000000000000081565b61041e7f000000000000000000000000000000000000000000000000000000000000000081565b6104666105be366004613005565b611133565b6104666105d1366004613088565b61113d565b6104a661114a565b6103896105ec36600461301c565b611173565b61041e7f000000000000000000000000000000000000000000000000000000000000000081565b6104a6611217565b603354600160e01b900463ffffffff166103c0565b6033546103c090600160e01b900463ffffffff1681565b61039361121f565b610389610662366004612fe5565b61123f565b6033546103c090600160c01b900463ffffffff1681565b61038961068c366004613088565b61126a565b61038961069f366004613088565b611315565b603854610466565b603454600160201b900460ff166040516103a091906130e0565b6103896106d4366004613260565b611394565b6103896106e7366004613088565b611605565b61041e7f000000000000000000000000000000000000000000000000000000000000000081565b610466610721366004613088565b6116c3565b603654604080516001600160a01b0383168152600160a01b90920463ffffffff166020830152016103a0565b6104666107603660046133a0565b611755565b603754603854604080519283526020830191909152016103a0565b61046661078e366004613005565b611857565b60325461041e906001600160a01b031681565b61041e7f000000000000000000000000000000000000000000000000000000000000000081565b6104666107db366004613005565b61188e565b610389611898565b6103896107f6366004613005565b611ab2565b6104a6611b1f565b336001600160a01b037f0000000000000000000000000000000000000000000000000000000000000000161461084c576040516348da714f60e01b815260040160405180910390fd5b6002603454600160201b900460ff16600381111561086c5761086c6130cc565b0361088a576040516324d94d6960e11b815260040160405180910390fd5b5050565b6035805461089b906133de565b80601f01602080910402602001604051908101604052809291908181526020018280546108c7906133de565b80156109125780601f106108e957610100808354040283529160200191610912565b820191905f5260205f20905b8154815290600101906020018083116108f557829003601f168201915b505050505081565b610922611b27565b61092a610b2c565b6109475760405163faa4be9f60e01b815260040160405180910390fd5b61088a8282611bd8565b610959611c7c565b600154818116811461097e5760405163c61dca5d60e01b815260040160405180910390fd5b61088a82611d1f565b5f5f61099281611d5c565b336001600160a01b037f000000000000000000000000000000000000000000000000000000000000000016146109db576040516348da714f60e01b815260040160405180910390fd5b6109e58484611d92565b6065545f6109f56103e88361342a565b90505f6103e8610a03611dc0565b610a0d919061342a565b90505f610a1a878361343d565b905080610a278489613450565b610a319190613467565b9550855f03610a5357604051630c392ed360e11b815260040160405180910390fd5b610a5d868561342a565b60658190556f4b3b4ca85a86c47a098a223fffffffff1015610a9257604051632f14e8a360e11b815260040160405180910390fd5b610aab826103e8606554610aa6919061342a565b611e2a565b505050505092915050565b6032546001600160a01b03163314610ae157604051635b26872160e11b815260040160405180910390fd5b6035610aee8284836134ca565b507fefafb90526da1636e1335eac0151301742fb755d986954c613b90e891778ba398282604051610b209291906135ab565b60405180910390a15050565b5f60015b603454600160201b900460ff166003811115610b4e57610b4e6130cc565b14905090565b5f610b61610555836116c3565b92915050565b610b6f611c7c565b610b795f19611d1f565b565b6040516333869dd160e11b81525f906001600160a01b037f0000000000000000000000000000000000000000000000000000000000000000169063670d3ba290610bcc9030906036906004016135be565b602060405180830381865afa158015610be7573d5f5f3e3d5ffd5b505050506040513d601f19601f82011682018060405250810190610c0b91906135f4565b905090565b6033546001600160a01b03163314610c3b57604051631777988560e11b815260040160405180910390fd5b6003603454600160201b900460ff166003811115610c5b57610c5b6130cc565b03610c6857610b79611e76565b6002603454600160201b900460ff166003811115610c8857610c886130cc565b14610ca6576040516329d0828960e01b815260040160405180910390fd5b603354600160e01b900463ffffffff164210610cd557604051632825c17f60e11b815260040160405180910390fd5b6034805463ffffffff421664ffffffffff199091168117640300000000179091556040519081527fff979382d3040b1602e0a02f0f2a454b2250aa36e891d2da0ceb95d70d11a8f29060200160405180910390a160345460405163ffffffff909116815233907f96c49d03ef64591194500229a104cd087b2d45c68234c96444c3a2a6abb0bb979060200160405180910390a2610b79611e76565b6003603454600160201b900460ff166003811115610d9057610d906130cc565b03610d9d57610b79611e76565b6002603454600160201b900460ff166003811115610dbd57610dbd6130cc565b14610ddb576040516306560dcd60e41b815260040160405180910390fd5b603354600160e01b900463ffffffff16421015610e0b576040516306560dcd60e41b815260040160405180910390fd5b6034805463ffffffff421664ffffffffff199091168117640300000000179091556040519081527fff979382d3040b1602e0a02f0f2a454b2250aa36e891d2da0ceb95d70d11a8f29060200160405180910390a1610b79611e76565b336001600160a01b037f00000000000000000000000000000000000000000000000000000000000000001614610eb0576040516348da714f60e01b815260040160405180910390fd5b610eb8610b2c565b610ed55760405163faa4be9f60e01b815260040160405180910390fd5b604051631976849960e21b81526001600160a01b03838116600483015230917f0000000000000000000000000000000000000000000000000000000000000000909116906365da126490602401602060405180830381865afa158015610f3d573d5f5f3e3d5ffd5b505050506040513d601f19601f82011682018060405250810190610f619190613613565b6001600160a01b031614610f88576040516315192e1d60e11b815260040160405180910390fd5b5f610f92826110e2565b9050603754811115610fb7576040516334e2c93760e21b815260040160405180910390fd5b6040805160018082528183019092525f916020808301908036833701905050905030815f81518110610feb57610feb61362e565b6001600160a01b039283166020918202929092010152604051639004134760e01b81525f917f000000000000000000000000000000000000000000000000000000000000000016906390041347906110499030908690600401613685565b5f60405180830381865afa158015611063573d5f5f3e3d5ffd5b505050506040513d5f823e601f3d908101601f1916820160405261108a91908101906136ca565b5f8151811061109b5761109b61362e565b602002602001015190505f6110b58583610555919061342a565b90506038548111156110da5760405163d86bae6760e01b815260040160405180910390fd5b505050505050565b5f5f6103e86065546110f4919061342a565b90505f6103e8611102611dc0565b61110c919061342a565b9050816111198583613450565b6111239190613467565b949350505050565b5f6003610b30565b5f610b6182611857565b5f610b616107db836116c3565b5f60025b603454600160201b900460ff16600381111561116c5761116c6130cc565b1415905090565b6032546001600160a01b0316331461119e57604051635b26872160e11b815260040160405180910390fd5b6040516378296ec560e01b81526001600160a01b037f000000000000000000000000000000000000000000000000000000000000000016906378296ec5906111ee9030908690869060040161375f565b5f604051808303815f87803b158015611205575f5ffd5b505af11580156110da573d5f5f3e3d5ffd5b5f600161114e565b60606040518060800160405280604d8152602001613d6e604d9139905090565b6032546001600160a01b0316331461092257604051635b26872160e11b815260040160405180910390fd5b6032546001600160a01b0316331461129557604051635b26872160e11b815260040160405180910390fd5b60405163152df25b60e21b81523060048201526001600160a01b0382811660248301527f000000000000000000000000000000000000000000000000000000000000000016906354b7c96c906044015b5f604051808303815f87803b1580156112fc575f5ffd5b505af115801561130e573d5f5f3e3d5ffd5b5050505050565b6032546001600160a01b0316331461134057604051635b26872160e11b815260040160405180910390fd5b60405163f22cef8560e01b81523060048201526001600160a01b0382811660248301527f0000000000000000000000000000000000000000000000000000000000000000169063f22cef85906044016112e5565b5f54610100900460ff16158080156113b257505f54600160ff909116105b806113cb5750303b1580156113cb57505f5460ff166001145b6113f05760405162461bcd60e51b81526004016113e79061378c565b60405180910390fd5b5f805460ff191660011790558015611411575f805461ff0019166101001790555b60208201516001600160a01b031661143c57604051633b7dc71360e01b815260040160405180910390fd5b60408201516001600160a01b031661146657604051627528a560e41b815260040160405180910390fd5b606082015163ffffffff161580159061149357506303c2670063ffffffff16826060015163ffffffff1611155b6114b057604051637616640160e01b815260040160405180910390fd5b6114c282608001518360a00151611bd8565b81516114cd90611efa565b6020820151603280546001600160a01b039283166001600160a01b0319909116179055604083015160338054606086015163ffffffff16600160a01b026001600160c01b0319909116929093169190911791909117905560c082015160359061153690826137da565b5061154082612045565b6034805464ff000000001916600160201b1790558151603354603254608085015160a08601516040516001600160a01b0395861695808616959416937fbdbff63632f473bb2a7c6a4aafbc096b71fbda12e22c6b51643bfd64f13d2b9e936115bc93600160a01b90920463ffffffff1692909190603590613894565b60405180910390a4801561088a575f805461ff0019169055604051600181527f7f26b83ff96e1f2b6a682f133852f6798a09c465da95921460cefb384740249890602001610b20565b5f54610100900460ff161580801561162357505f54600160ff909116105b8061163c5750303b15801561163c57505f5460ff166001145b6116585760405162461bcd60e51b81526004016113e79061378c565b5f805460ff191660011790558015611679575f805461ff0019166101001790555b61168282611efa565b801561088a575f805461ff0019169055604051600181527f7f26b83ff96e1f2b6a682f133852f6798a09c465da95921460cefb384740249890602001610b20565b60405163fe243a1760e01b81526001600160a01b0382811660048301523060248301525f917f00000000000000000000000000000000000000000000000000000000000000009091169063fe243a1790604401602060405180830381865afa158015611731573d5f5f3e3d5ffd5b505050506040513d601f19601f82011682018060405250810190610b619190613936565b5f600161176181611d5c565b336001600160a01b037f000000000000000000000000000000000000000000000000000000000000000016146117aa576040516348da714f60e01b815260040160405180910390fd5b6117b5858585612462565b606554808411156117d957604051630b469df360e41b815260040160405180910390fd5b5f6117e66103e88361342a565b90505f6103e86117f4611dc0565b6117fe919061342a565b90508161180b8783613450565b6118159190613467565b9450611821868461343d565b606555611841611831868361343d565b6103e8606554610aa6919061342a565b61184c888887612490565b505050509392505050565b5f5f6103e8606554611869919061342a565b90505f6103e8611877611dc0565b611881919061342a565b9050806111198386613450565b5f610b61826110e2565b6032546001600160a01b031633146118c357604051635b26872160e11b815260040160405180910390fd5b6118cb610b2c565b6118e857604051630a6c62fd60e41b815260040160405180910390fd5b60405163105dea1f60e21b81525f906001600160a01b037f00000000000000000000000000000000000000000000000000000000000000001690634177a87c906119379060369060040161394d565b5f60405180830381865afa158015611951573d5f5f3e3d5ffd5b505050506040513d5f823e601f3d908101601f191682016040526119789190810190613974565b90505f805b82518110156119c957306001600160a01b03168382815181106119a2576119a261362e565b60200260200101516001600160a01b0316036119c157600191506119c9565b60010161197d565b50806119e8576040516329e0527160e11b815260040160405180910390fd5b6033805463ffffffff42818116600160c01b0263ffffffff60c01b1990931692909217928390559091611a2491600160a01b9091041682613a03565b603380546001600160e01b0316600160e01b63ffffffff938416810291909117918290556034805464020000000064ff000000001990911617905560408051600160c01b8404851681529190920490921660208301527f42cd6d7338516695d9c9ff8969dbdcf89ce22e3f2f76fda2fc11e973fe4860e4910160405180910390a1611aad6124a4565b505050565b611aba611b27565b60015480198219811614611ae15760405163c61dca5d60e01b815260040160405180910390fd5b600182905560405182815233907f3582d1828e26bf56bd801502bc021ac0bc8afb57c826e4986b45593c8fad389c9060200160405180910390a25050565b5f6002610b30565b7f00000000000000000000000000000000000000000000000000000000000000006001600160a01b031663eab66d7a6040518163ffffffff1660e01b8152600401602060405180830381865afa158015611b83573d5f5f3e3d5ffd5b505050506040513d601f19601f82011682018060405250810190611ba79190613613565b6001600160a01b0316336001600160a01b031614610b795760405163794821ff60e01b815260040160405180910390fd5b60375460408051918252602082018490527ff97ed4e083acac67830025ecbc756d8fe847cdbdca4cee3fe1e128e98b54ecb5910160405180910390a160385460408051918252602082018390527f6ab181e0440bfbf4bacdf2e99674735ce6638005490688c5f994f5399353e452910160405180910390a180821115611c715760405163052b07b760e21b815260040160405180910390fd5b603791909155603855565b60405163237dfb4760e11b81523360048201527f00000000000000000000000000000000000000000000000000000000000000006001600160a01b0316906346fbf68e90602401602060405180830381865afa158015611cde573d5f5f3e3d5ffd5b505050506040513d601f19601f82011682018060405250810190611d0291906135f4565b610b7957604051631d77d47760e21b815260040160405180910390fd5b600181905560405181815233907fab40a374bc51de372200a8bc981af8c9ecdc08dfdaef0bb6e09f88f3c616ef3d9060200160405180910390a250565b611d71816001805460ff9092161b9081161490565b15611d8f5760405163840a48d560e01b815260040160405180910390fd5b50565b6064546001600160a01b0383811691161461088a57604051630312abdd60e61b815260040160405180910390fd5b6064546040516370a0823160e01b81523060048201525f916001600160a01b0316906370a0823190602401602060405180830381865afa158015611e06573d5f5f3e3d5ffd5b505050506040513d601f19601f82011682018060405250810190610c0b9190613936565b7fd2494f3479e5da49d386657c292c610b5b01df313d07c62eb0cfa49924a31be881611e5e84670de0b6b3a7640000613450565b611e689190613467565b604051908152602001610b20565b5f611e7f612770565b90507f72f957da7daaea6b52e4ff7820cb464206fd51e9f502f3027f45b5017caf4c8b81604051611eb4911515815260200190565b60405180910390a15f611ec5612ad3565b90507fd0791dbc9180cb64588d7eb7658a1022dcf734b8825eb7eec68bd9516872d16881604051610b20911515815260200190565b5f54610100900460ff16611f645760405162461bcd60e51b815260206004820152602b60248201527f496e697469616c697a61626c653a20636f6e7472616374206973206e6f74206960448201526a6e697469616c697a696e6760a81b60648201526084016113e7565b606480546001600160a01b0319166001600160a01b038316179055611f885f611d1f565b7f1c540707b00eb5427b6b774fc799d756516a54aee108b64b327acc55af55750760645f9054906101000a90046001600160a01b0316826001600160a01b031663313ce5676040518163ffffffff1660e01b8152600401602060405180830381865afa158015611ffa573d5f5f3e3d5ffd5b505050506040513d601f19601f8201168201806040525081019061201e9190613a1f565b604080516001600160a01b03909316835260ff90911660208301520160405180910390a150565b60e0810151516001600160a01b031661207157604051635881876760e01b815260040160405180910390fd5b60e081015180516036805460209384015163ffffffff16600160a01b026001600160c01b03199091166001600160a01b0393841617179055604080516318891fd760e31b815290515f937f00000000000000000000000000000000000000000000000000000000000000009093169263c448feb892600480820193918290030181865afa158015612104573d5f5f3e3d5ffd5b505050506040513d601f19601f820116820180604052508101906121289190613a3a565b90505f612136826001613a03565b90507f00000000000000000000000000000000000000000000000000000000000000006001600160a01b0316632aa6d888846101200151838661014001516040518463ffffffff1660e01b815260040161219293929190613a55565b5f604051808303815f87803b1580156121a9575f5ffd5b505af11580156121bb573d5f5f3e3d5ffd5b505050506121eb60405180606001604052805f6001600160a01b0316815260200160608152602001606081525090565b60e0840151516001600160a01b031681526040805160018082528183019092529060208083019080368337505050602082810182905260e0860151015181519091905f9061223b5761223b61362e565b63ffffffff909216602092830291909101909101526101008401516040808301919091525163adc2e3d960e01b81526001600160a01b037f0000000000000000000000000000000000000000000000000000000000000000169063adc2e3d9906122ab9030908590600401613aba565b5f604051808303815f87803b1580156122c2575f5ffd5b505af11580156122d4573d5f5f3e3d5ffd5b5050505060e08401515160405163dcbb03b360e01b81523060048201526001600160a01b0391821660248201525f60448201527f00000000000000000000000000000000000000000000000000000000000000009091169063dcbb03b3906064015f604051808303815f87803b15801561234c575f5ffd5b505af115801561235e573d5f5f3e3d5ffd5b5050505060e0840151604051633dd3a3ab60e21b81527f00000000000000000000000000000000000000000000000000000000000000006001600160a01b03169163f74e8eac916123b59130915f90600401613b0f565b5f604051808303815f87803b1580156123cc575f5ffd5b505af11580156123de573d5f5f3e3d5ffd5b505060405163059edd8760e51b81523060048201525f60248201527f00000000000000000000000000000000000000000000000000000000000000006001600160a01b0316925063b3dbb0e091506044015f604051808303815f87803b158015612446575f5ffd5b505af1158015612458573d5f5f3e3d5ffd5b5050505050505050565b6064546001600160a01b03838116911614611aad57604051630312abdd60e61b815260040160405180910390fd5b611aad6001600160a01b0383168483612cbd565b60405163021c373760e31b81525f906001600160a01b037f000000000000000000000000000000000000000000000000000000000000000016906310e1b9b8906124f79030906036908290600401613b57565b606060405180830381865afa158015612512573d5f5f3e3d5ffd5b505050506040513d601f19601f820116820180604052508101906125369190613ba6565b9050806040015163ffffffff165f146125625760405163024b01ff60e11b815260040160405180910390fd5b6040805160018082528183019092525f91816020015b6125ac6040805160a081019091525f6060820181815260808301919091528190815260200160608152602001606081525090565b81526020019060019003908161257857905050604080518082019091526036546001600160a01b0381168252600160a01b900463ffffffff16602082015281519192509082905f906126005761260061362e565b6020908102919091010151526040805160018082528183019092529081602001602082028036833701905050815f8151811061263e5761263e61362e565b60200260200101516020018190525030815f815181106126605761266061362e565b6020026020010151602001515f8151811061267d5761267d61362e565b6001600160a01b039290921660209283029190910182015260408051600180825281830190925291828101908036833701905050815f815181106126c3576126c361362e565b602002602001015160400181905250670de0b6b3a7640000815f815181106126ed576126ed61362e565b6020026020010151604001515f8151811061270a5761270a61362e565b6001600160401b0390921660209283029190910190910152604051634a944cf760e11b81526001600160a01b037f0000000000000000000000000000000000000000000000000000000000000000169063952899ee906111ee9030908590600401613c28565b5f5f7f00000000000000000000000000000000000000000000000000000000000000006001600160a01b03166310e1b9b8306036306040518463ffffffff1660e01b81526004016127c393929190613b57565b606060405180830381865afa1580156127de573d5f5f3e3d5ffd5b505050506040513d601f19601f820116820180604052508101906128029190613ba6565b80519091506001600160401b031615801561282257506020810151600f0b155b1561282f57600191505090565b604081015163ffffffff1615612846575f91505090565b6040805160018082528183019092525f91816020015b6128906040805160a081019091525f6060820181815260808301919091528190815260200160608152602001606081525090565b81526020019060019003908161285c57905050604080518082019091526036546001600160a01b0381168252600160a01b900463ffffffff16602082015281519192509082905f906128e4576128e461362e565b6020908102919091010151526040805160018082528183019092529081602001602082028036833701905050815f815181106129225761292261362e565b60200260200101516020018190525030815f815181106129445761294461362e565b6020026020010151602001515f815181106129615761296161362e565b6001600160a01b039290921660209283029190910182015260408051600180825281830190925291828101908036833701905050815f815181106129a7576129a761362e565b6020026020010151604001819052505f815f815181106129c9576129c961362e565b6020026020010151604001515f815181106129e6576129e661362e565b60200260200101906001600160401b031690816001600160401b0316815250505f7f00000000000000000000000000000000000000000000000000000000000000006001600160a01b031663952899ee60e01b3084604051602401612a4c929190613c28565b60408051601f198184030181529181526020820180516001600160e01b03166001600160e01b0319909416939093179092529051612a8a9190613d1b565b5f604051808303815f865af19150503d805f8114612ac3576040519150601f19603f3d011682016040523d82523d5f602084013e612ac8565b606091505b509095945050505050565b6040516333869dd160e11b81525f906001600160a01b037f0000000000000000000000000000000000000000000000000000000000000000169063670d3ba290612b249030906036906004016135be565b602060405180830381865afa158015612b3f573d5f5f3e3d5ffd5b505050506040513d601f19601f82011682018060405250810190612b6391906135f4565b612b6d5750600190565b6040805160608082018352818301523081526036546001600160a01b0316602082015281516001808252818401909352909181602001602082028036833701905050604082018190526036548151600160a01b90910463ffffffff1691905f90612bd957612bd961362e565b602002602001019063ffffffff16908163ffffffff16815250505f7f00000000000000000000000000000000000000000000000000000000000000006001600160a01b0316636e3492b560e01b83604051602401612c379190613d31565b60408051601f198184030181529181526020820180516001600160e01b03166001600160e01b0319909416939093179092529051612c759190613d1b565b5f604051808303815f865af19150503d805f8114612cae576040519150601f19603f3d011682016040523d82523d5f602084013e612cb3565b606091505b5090949350505050565b604080516001600160a01b03848116602483015260448083018590528351808403909101815260649092018352602080830180516001600160e01b031663a9059cbb60e01b17905283518085019094528084527f5361666545524332303a206c6f772d6c6576656c2063616c6c206661696c656490840152611aad928692915f91612d4c918516908490612dcb565b905080515f1480612d6c575080806020019051810190612d6c91906135f4565b611aad5760405162461bcd60e51b815260206004820152602a60248201527f5361666545524332303a204552433230206f7065726174696f6e20646964206e6044820152691bdd081cdd58d8d9595960b21b60648201526084016113e7565b6060612dd984845f85612de3565b90505b9392505050565b606082471015612e445760405162461bcd60e51b815260206004820152602660248201527f416464726573733a20696e73756666696369656e742062616c616e636520666f6044820152651c8818d85b1b60d21b60648201526084016113e7565b5f5f866001600160a01b03168587604051612e5f9190613d1b565b5f6040518083038185875af1925050503d805f8114612e99576040519150601f19603f3d011682016040523d82523d5f602084013e612e9e565b606091505b5091509150612eaf87838387612eba565b979650505050505050565b60608315612f285782515f03612f21576001600160a01b0385163b612f215760405162461bcd60e51b815260206004820152601d60248201527f416464726573733a2063616c6c20746f206e6f6e2d636f6e747261637400000060448201526064016113e7565b5081611123565b6111238383815115612f3d5781518083602001fd5b8060405162461bcd60e51b81526004016113e79190612fd3565b6001600160a01b0381168114611d8f575f5ffd5b8035612f7681612f57565b919050565b5f5f60408385031215612f8c575f5ffd5b8235612f9781612f57565b946020939093013593505050565b5f81518084528060208401602086015e5f602082860101526020601f19601f83011685010191505092915050565b602081525f612ddc6020830184612fa5565b5f5f60408385031215612ff6575f5ffd5b50508035926020909101359150565b5f60208284031215613015575f5ffd5b5035919050565b5f5f6020838503121561302d575f5ffd5b82356001600160401b03811115613042575f5ffd5b8301601f81018513613052575f5ffd5b80356001600160401b03811115613067575f5ffd5b856020828401011115613078575f5ffd5b6020919091019590945092505050565b5f60208284031215613098575f5ffd5b8135612ddc81612f57565b60ff81168114611d8f575f5ffd5b5f602082840312156130c1575f5ffd5b8135612ddc816130a3565b634e487b7160e01b5f52602160045260245ffd5b602081016004831061310057634e487b7160e01b5f52602160045260245ffd5b91905290565b634e487b7160e01b5f52604160045260245ffd5b60405161016081016001600160401b038111828210171561313d5761313d613106565b60405290565b604051601f8201601f191681016001600160401b038111828210171561316b5761316b613106565b604052919050565b63ffffffff81168114611d8f575f5ffd5b8035612f7681613173565b5f82601f83011261319e575f5ffd5b8135602083015f5f6001600160401b038411156131bd576131bd613106565b50601f8301601f19166020016131d281613143565b9150508281528583830111156131e6575f5ffd5b828260208301375f92810160200192909252509392505050565b5f60408284031215613210575f5ffd5b604080519081016001600160401b038111828210171561323257613232613106565b604052905080823561324381612f57565b8152602083013561325381613173565b6020919091015292915050565b5f60208284031215613270575f5ffd5b81356001600160401b03811115613285575f5ffd5b82016101808185031215613297575f5ffd5b61329f61311a565b6132a882612f6b565b81526132b660208301612f6b565b60208201526132c760408301612f6b565b60408201526132d860608301613184565b60608201526080828101359082015260a0808301359082015260c08201356001600160401b03811115613309575f5ffd5b6133158682850161318f565b60c0830152506133288560e08401613200565b60e08201526101208201356001600160401b03811115613346575f5ffd5b6133528682850161318f565b610100830152506133666101408301612f6b565b6101208201526101608201356001600160401b03811115613385575f5ffd5b6133918682850161318f565b61014083015250949350505050565b5f5f5f606084860312156133b2575f5ffd5b83356133bd81612f57565b925060208401356133cd81612f57565b929592945050506040919091013590565b600181811c908216806133f257607f821691505b60208210810361341057634e487b7160e01b5f52602260045260245ffd5b50919050565b634e487b7160e01b5f52601160045260245ffd5b80820180821115610b6157610b61613416565b81810381811115610b6157610b61613416565b8082028115828204841417610b6157610b61613416565b5f8261348157634e487b7160e01b5f52601260045260245ffd5b500490565b601f821115611aad57805f5260205f20601f840160051c810160208510156134ab5750805b601f840160051c820191505b8181101561130e575f81556001016134b7565b6001600160401b038311156134e1576134e1613106565b6134f5836134ef83546133de565b83613486565b5f601f841160018114613526575f851561350f5750838201355b5f19600387901b1c1916600186901b17835561130e565b5f83815260208120601f198716915b828110156135555786850135825560209485019460019092019101613535565b5086821015613571575f1960f88860031b161c19848701351681555b505060018560011b0183555050505050565b81835281816020850137505f828201602090810191909152601f909101601f19169091010190565b602081525f612dd9602083018486613583565b6001600160a01b038316815260608101612ddc6020830184546001600160a01b038116825260a01c63ffffffff16602090910152565b5f60208284031215613604575f5ffd5b81518015158114612ddc575f5ffd5b5f60208284031215613623575f5ffd5b8151612ddc81612f57565b634e487b7160e01b5f52603260045260245ffd5b5f8151808452602084019350602083015f5b8281101561367b5781516001600160a01b0316865260209586019590910190600101613654565b5093949350505050565b6001600160a01b03831681526040602082018190525f90612dd990830184613642565b5f6001600160401b038211156136c0576136c0613106565b5060051b60200190565b5f602082840312156136da575f5ffd5b81516001600160401b038111156136ef575f5ffd5b8201601f810184136136ff575f5ffd5b805161371261370d826136a8565b613143565b8082825260208201915060208360051b850101925086831115613733575f5ffd5b6020840193505b8284101561375557835182526020938401939091019061373a565b9695505050505050565b6001600160a01b03841681526040602082018190525f906137839083018486613583565b95945050505050565b6020808252602e908201527f496e697469616c697a61626c653a20636f6e747261637420697320616c72656160408201526d191e481a5b9a5d1a585b1a5e995960921b606082015260800190565b81516001600160401b038111156137f3576137f3613106565b6138078161380184546133de565b84613486565b6020601f821160018114613839575f83156138225750848201515b5f19600385901b1c1916600184901b17845561130e565b5f84815260208120601f198516915b828110156138685787850151825560209485019460019092019101613848565b508482101561388557868401515f19600387901b60f8161c191681555b50505050600190811b01905550565b63ffffffff85168152836020820152826040820152608060608201525f5f83546138bd816133de565b806080860152600182165f81146138db57600181146138f757613928565b60ff19831660a087015260a082151560051b8701019350613928565b865f5260205f205f5b8381101561391f57815488820160a00152600190910190602001613900565b870160a0019450505b509198975050505050505050565b5f60208284031215613946575f5ffd5b5051919050565b60408101610b618284546001600160a01b038116825260a01c63ffffffff16602090910152565b5f60208284031215613984575f5ffd5b81516001600160401b03811115613999575f5ffd5b8201601f810184136139a9575f5ffd5b80516139b761370d826136a8565b8082825260208201915060208360051b8501019250868311156139d8575f5ffd5b6020840193505b828410156137555783516139f281612f57565b8252602093840193909101906139df565b63ffffffff8181168382160190811115610b6157610b61613416565b5f60208284031215613a2f575f5ffd5b8151612ddc816130a3565b5f60208284031215613a4a575f5ffd5b8151612ddc81613173565b6001600160a01b038416815263ffffffff831660208201526060604082018190525f9061378390830184612fa5565b5f8151808452602084019350602083015f5b8281101561367b57815163ffffffff16865260209586019590910190600101613a96565b6001600160a01b038381168252604060208084018290528451909216908301528201516060808301525f90613af260a0840182613a84565b90506040840151603f198483030160808501526137558282612fa5565b6001600160a01b038416815260808101613b45602083018580516001600160a01b0316825260209081015163ffffffff16910152565b61ffff83166060830152949350505050565b6001600160a01b038416815260808101613b8d6020830185546001600160a01b038116825260a01c63ffffffff16602090910152565b6001600160a01b03929092166060919091015292915050565b5f6060828403128015613bb7575f5ffd5b50604051606081016001600160401b0381118282101715613bda57613bda613106565b60405282516001600160401b0381168114613bf3575f5ffd5b81526020830151600f81900b8114613c09575f5ffd5b60208201526040830151613c1c81613173565b60408201529392505050565b5f6040820160018060a01b03851683526040602084015280845180835260608501915060608160051b8601019250602086015f5b82811015613d0e57868503605f190184528151805180516001600160a01b0316875260209081015163ffffffff1690870152602081015160806040880152613ca76080880182613642565b60409290920151878303606089015280518084526020918201935f935091909101905b80831015613cf6576001600160401b038451168252602082019150602084019350600183019250613cca565b50965050506020938401939190910190600101613c5c565b5092979650505050505050565b5f82518060208501845e5f920191825250919050565b602080825282516001600160a01b039081168383015290830151166040808301919091528201516060808301525f906111236080840182613a8456fe4475726174696f6e2d626f756e64207661756c74207374726174656779207769746820636f6e666967757261626c65206465706f736974206361707320616e64206c6f636b20706572696f6473a26469706673582212203e5c01263dc961d5a5436c15c11e4205b6e03931d62f482b97d317389357d94164736f6c634300081e0033",
    "linkReferences": {}
  },
  "methodIdentifiers": {
    "advanceToWithdrawals()": "6325f655",
    "allocationManager()": "ca8aa7c7",
    "allocationsActive()": "fb4d86b4",
    "arbitrator()": "6cc6cde1",
    "beforeAddShares(address,uint256)": "73e3c280",
    "beforeRemoveShares(address,uint256)": "03e3e6eb",
    "delegationManager()": "ea4d3c9b",
    "deposit(address,uint256)": "47e7ef24",
    "depositsOpen()": "549c4627",
    "duration()": "0fb5a6b4",
    "explanation()": "ab5921e1",
    "getTVLLimits()": "df6fadc1",
    "initialize((address,address,address,uint32,uint256,uint256,string,(address,uint32),bytes,address,string))": "c2cca26d",
    "initialize(address)": "c4d66de8",
    "isLocked()": "a4e2d634",
    "isMatured()": "7f2b6a0d",
    "lock()": "f83d08ba",
    "lockedAt()": "b2163482",
    "markMatured()": "6d8690a9",
    "maturedAt()": "1f1cc9a3",
    "maxPerDeposit()": "43fe08b0",
    "maxTotalDeposits()": "61b01b5d",
    "metadataURI()": "03ee438c",
    "operatorIntegrationConfigured()": "5438a8c7",
    "operatorSetInfo()": "d4deae81",
    "operatorSetRegistered()": "59d915ff",
    "pause(uint256)": "136439dd",
    "pauseAll()": "595c6a67",
    "paused()": "5c975abb",
    "paused(uint8)": "5ac86ab7",
    "pauserRegistry()": "886f1195",
    "rewardsCoordinator()": "8a2fc4e3",
    "setRewardsClaimer(address)": "b501d660",
    "setTVLLimits(uint256,uint256)": "11c70c9d",
    "shares(address)": "ce7c2ac2",
    "sharesToUnderlying(uint256)": "f3e73875",
    "sharesToUnderlyingView(uint256)": "7a8b2637",
    "stakeCap()": "ba28fd2e",
    "state()": "c19d93fb",
    "strategyFactory()": "9ef35710",
    "strategyManager()": "39b70e38",
    "totalShares()": "3a98ef39",
    "underlyingToShares(uint256)": "8c871019",
    "underlyingToSharesView(uint256)": "e3dae51c",
    "underlyingToken()": "2495a599",
    "unlockAt()": "aa5dec6f",
    "unlockTimestamp()": "aa082a9d",
    "unpause(uint256)": "fabc1cbc",
    "updateDelegationApprover(address)": "b4e20f13",
    "updateMetadataURI(string)": "53fd3e81",
    "updateOperatorMetadataURI(string)": "99be81c8",
    "updateTVLLimits(uint256,uint256)": "af6eb2be",
    "userUnderlying(address)": "8f6a6240",
    "userUnderlyingView(address)": "553ca5f8",
    "vaultAdmin()": "e7f6f225",
    "withdraw(address,address,uint256)": "d9caed12",
    "withdrawalsOpen()": "94aad677"
  },
  "id": 216
}