{
  "abi": [
    {
      "type": "constructor",
      "inputs": [
        {
          "name": "_allocationManager",
          "type": "address",
          "internalType": "contract IAllocationManager"
        },
        {
          "name": "_delegation",
          "type": "address",
          "internalType": "contract IDelegationManager"
        },
        {
          "name": "_pauserRegistry",
          "type": "address",
          "internalType": "contract IPauserRegistry"
        },
        {
          "name": "_version",
          "type": "string",
          "internalType": "string"
        }
      ],
      "stateMutability": "nonpayable"
    },
    {
      "type": "function",
      "name": "DEFAULT_BURN_ADDRESS",
      "inputs": [],
      "outputs": [
        {
          "name": "",
          "type": "address",
          "internalType": "address"
        }
      ],
      "stateMutability": "view"
    },
    {
      "type": "function",
      "name": "DEPOSIT_TYPEHASH",
      "inputs": [],
      "outputs": [
        {
          "name": "",
          "type": "bytes32",
          "internalType": "bytes32"
        }
      ],
      "stateMutability": "view"
    },
    {
      "type": "function",
      "name": "SLASH_RESOLUTION_DELAY_BLOCKS",
      "inputs": [],
      "outputs": [
        {
          "name": "",
          "type": "uint32",
          "internalType": "uint32"
        }
      ],
      "stateMutability": "view"
    },
    {
      "type": "function",
      "name": "addShares",
      "inputs": [
        {
          "name": "staker",
          "type": "address",
          "internalType": "address"
        },
        {
          "name": "strategy",
          "type": "address",
          "internalType": "contract IStrategy"
        },
        {
          "name": "shares",
          "type": "uint256",
          "internalType": "uint256"
        }
      ],
      "outputs": [
        {
          "name": "",
          "type": "uint256",
          "internalType": "uint256"
        },
        {
          "name": "",
          "type": "uint256",
          "internalType": "uint256"
        }
      ],
      "stateMutability": "nonpayable"
    },
    {
      "type": "function",
      "name": "addStrategiesToDepositWhitelist",
      "inputs": [
        {
          "name": "strategiesToWhitelist",
          "type": "address[]",
          "internalType": "contract IStrategy[]"
        }
      ],
      "outputs": [],
      "stateMutability": "nonpayable"
    },
    {
      "type": "function",
      "name": "allocationManager",
      "inputs": [],
      "outputs": [
        {
          "name": "",
          "type": "address",
          "internalType": "contract IAllocationManager"
        }
      ],
      "stateMutability": "view"
    },
    {
      "type": "function",
      "name": "burnShares",
      "inputs": [
        {
          "name": "strategy",
          "type": "address",
          "internalType": "contract IStrategy"
        }
      ],
      "outputs": [],
      "stateMutability": "nonpayable"
    },
    {
      "type": "function",
      "name": "calculateStrategyDepositDigestHash",
      "inputs": [
        {
          "name": "staker",
          "type": "address",
          "internalType": "address"
        },
        {
          "name": "strategy",
          "type": "address",
          "internalType": "contract IStrategy"
        },
        {
          "name": "token",
          "type": "address",
          "internalType": "contract IERC20"
        },
        {
          "name": "amount",
          "type": "uint256",
          "internalType": "uint256"
        },
        {
          "name": "nonce",
          "type": "uint256",
          "internalType": "uint256"
        },
        {
          "name": "expiry",
          "type": "uint256",
          "internalType": "uint256"
        }
      ],
      "outputs": [
        {
          "name": "",
          "type": "bytes32",
          "internalType": "bytes32"
        }
      ],
      "stateMutability": "view"
    },
    {
      "type": "function",
      "name": "clearBurnOrRedistributableShares",
      "inputs": [
        {
          "name": "operatorSet",
          "type": "tuple",
          "internalType": "struct OperatorSet",
          "components": [
            {
              "name": "avs",
              "type": "address",
              "internalType": "address"
            },
            {
              "name": "id",
              "type": "uint32",
              "internalType": "uint32"
            }
          ]
        },
        {
          "name": "slashId",
          "type": "uint256",
          "internalType": "uint256"
        }
      ],
      "outputs": [
        {
          "name": "",
          "type": "uint256[]",
          "internalType": "uint256[]"
        }
      ],
      "stateMutability": "nonpayable"
    },
    {
      "type": "function",
      "name": "clearBurnOrRedistributableSharesByStrategy",
      "inputs": [
        {
          "name": "operatorSet",
          "type": "tuple",
          "internalType": "struct OperatorSet",
          "components": [
            {
              "name": "avs",
              "type": "address",
              "internalType": "address"
            },
            {
              "name": "id",
              "type": "uint32",
              "internalType": "uint32"
            }
          ]
        },
        {
          "name": "slashId",
          "type": "uint256",
          "internalType": "uint256"
        },
        {
          "name": "strategy",
          "type": "address",
          "internalType": "contract IStrategy"
        }
      ],
      "outputs": [
        {
          "name": "",
          "type": "uint256",
          "internalType": "uint256"
        }
      ],
      "stateMutability": "nonpayable"
    },
    {
      "type": "function",
      "name": "delegation",
      "inputs": [],
      "outputs": [
        {
          "name": "",
          "type": "address",
          "internalType": "contract IDelegationManager"
        }
      ],
      "stateMutability": "view"
    },
    {
      "type": "function",
      "name": "depositIntoStrategy",
      "inputs": [
        {
          "name": "strategy",
          "type": "address",
          "internalType": "contract IStrategy"
        },
        {
          "name": "token",
          "type": "address",
          "internalType": "contract IERC20"
        },
        {
          "name": "amount",
          "type": "uint256",
          "internalType": "uint256"
        }
      ],
      "outputs": [
        {
          "name": "depositShares",
          "type": "uint256",
          "internalType": "uint256"
        }
      ],
      "stateMutability": "nonpayable"
    },
    {
      "type": "function",
      "name": "depositIntoStrategyWithSignature",
      "inputs": [
        {
          "name": "strategy",
          "type": "address",
          "internalType": "contract IStrategy"
        },
        {
          "name": "token",
          "type": "address",
          "internalType": "contract IERC20"
        },
        {
          "name": "amount",
          "type": "uint256",
          "internalType": "uint256"
        },
        {
          "name": "staker",
          "type": "address",
          "internalType": "address"
        },
        {
          "name": "expiry",
          "type": "uint256",
          "internalType": "uint256"
        },
        {
          "name": "signature",
          "type": "bytes",
          "internalType": "bytes"
        }
      ],
      "outputs": [
        {
          "name": "depositShares",
          "type": "uint256",
          "internalType": "uint256"
        }
      ],
      "stateMutability": "nonpayable"
    },
    {
      "type": "function",
      "name": "domainSeparator",
      "inputs": [],
      "outputs": [
        {
          "name": "",
          "type": "bytes32",
          "internalType": "bytes32"
        }
      ],
      "stateMutability": "view"
    },
    {
      "type": "function",
      "name": "getBurnOrRedistributableCount",
      "inputs": [
        {
          "name": "operatorSet",
          "type": "tuple",
          "internalType": "struct OperatorSet",
          "components": [
            {
              "name": "avs",
              "type": "address",
              "internalType": "address"
            },
            {
              "name": "id",
              "type": "uint32",
              "internalType": "uint32"
            }
          ]
        },
        {
          "name": "slashId",
          "type": "uint256",
          "internalType": "uint256"
        }
      ],
      "outputs": [
        {
          "name": "",
          "type": "uint256",
          "internalType": "uint256"
        }
      ],
      "stateMutability": "view"
    },
    {
      "type": "function",
      "name": "getBurnOrRedistributableShares",
      "inputs": [
        {
          "name": "operatorSet",
          "type": "tuple",
          "internalType": "struct OperatorSet",
          "components": [
            {
              "name": "avs",
              "type": "address",
              "internalType": "address"
            },
            {
              "name": "id",
              "type": "uint32",
              "internalType": "uint32"
            }
          ]
        },
        {
          "name": "slashId",
          "type": "uint256",
          "internalType": "uint256"
        }
      ],
      "outputs": [
        {
          "name": "",
          "type": "address[]",
          "internalType": "contract IStrategy[]"
        },
        {
          "name": "",
          "type": "uint256[]",
          "internalType": "uint256[]"
        }
      ],
      "stateMutability": "view"
    },
    {
      "type": "function",
      "name": "getBurnOrRedistributableShares",
      "inputs": [
        {
          "name": "operatorSet",
          "type": "tuple",
          "internalType": "struct OperatorSet",
          "components": [
            {
              "name": "avs",
              "type": "address",
              "internalType": "address"
            },
            {
              "name": "id",
              "type": "uint32",
              "internalType": "uint32"
            }
          ]
        },
        {
          "name": "slashId",
          "type": "uint256",
          "internalType": "uint256"
        },
        {
          "name": "strategy",
          "type": "address",
          "internalType": "contract IStrategy"
        }
      ],
      "outputs": [
        {
          "name": "",
          "type": "uint256",
          "internalType": "uint256"
        }
      ],
      "stateMutability": "view"
    },
    {
      "type": "function",
      "name": "getBurnableShares",
      "inputs": [
        {
          "name": "strategy",
          "type": "address",
          "internalType": "contract IStrategy"
        }
      ],
      "outputs": [
        {
          "name": "",
          "type": "uint256",
          "internalType": "uint256"
        }
      ],
      "stateMutability": "view"
    },
    {
      "type": "function",
      "name": "getDeposits",
      "inputs": [
        {
          "name": "staker",
          "type": "address",
          "internalType": "address"
        }
      ],
      "outputs": [
        {
          "name": "",
          "type": "address[]",
          "internalType": "contract IStrategy[]"
        },
        {
          "name": "",
          "type": "uint256[]",
          "internalType": "uint256[]"
        }
      ],
      "stateMutability": "view"
    },
    {
      "type": "function",
      "name": "getPendingOperatorSets",
      "inputs": [],
      "outputs": [
        {
          "name": "",
          "type": "tuple[]",
          "internalType": "struct OperatorSet[]",
          "components": [
            {
              "name": "avs",
              "type": "address",
              "internalType": "address"
            },
            {
              "name": "id",
              "type": "uint32",
              "internalType": "uint32"
            }
          ]
        }
      ],
      "stateMutability": "view"
    },
    {
      "type": "function",
      "name": "getPendingSlashIds",
      "inputs": [
        {
          "name": "operatorSet",
          "type": "tuple",
          "internalType": "struct OperatorSet",
          "components": [
            {
              "name": "avs",
              "type": "address",
              "internalType": "address"
            },
            {
              "name": "id",
              "type": "uint32",
              "internalType": "uint32"
            }
          ]
        }
      ],
      "outputs": [
        {
          "name": "",
          "type": "uint256[]",
          "internalType": "uint256[]"
        }
      ],
      "stateMutability": "view"
    },
    {
      "type": "function",
      "name": "getSlashResolutionBlock",
      "inputs": [
        {
          "name": "operatorSet",
          "type": "tuple",
          "internalType": "struct OperatorSet",
          "components": [
            {
              "name": "avs",
              "type": "address",
              "internalType": "address"
            },
            {
              "name": "id",
              "type": "uint32",
              "internalType": "uint32"
            }
          ]
        },
        {
          "name": "slashId",
          "type": "uint256",
          "internalType": "uint256"
        }
      ],
      "outputs": [
        {
          "name": "",
          "type": "uint32",
          "internalType": "uint32"
        }
      ],
      "stateMutability": "view"
    },
    {
      "type": "function",
      "name": "getStakerStrategyList",
      "inputs": [
        {
          "name": "staker",
          "type": "address",
          "internalType": "address"
        }
      ],
      "outputs": [
        {
          "name": "",
          "type": "address[]",
          "internalType": "contract IStrategy[]"
        }
      ],
      "stateMutability": "view"
    },
    {
      "type": "function",
      "name": "getStrategiesWithBurnableShares",
      "inputs": [],
      "outputs": [
        {
          "name": "",
          "type": "address[]",
          "internalType": "address[]"
        },
        {
          "name": "",
          "type": "uint256[]",
          "internalType": "uint256[]"
        }
      ],
      "stateMutability": "view"
    },
    {
      "type": "function",
      "name": "increaseBurnOrRedistributableShares",
      "inputs": [
        {
          "name": "operatorSet",
          "type": "tuple",
          "internalType": "struct OperatorSet",
          "components": [
            {
              "name": "avs",
              "type": "address",
              "internalType": "address"
            },
            {
              "name": "id",
              "type": "uint32",
              "internalType": "uint32"
            }
          ]
        },
        {
          "name": "slashId",
          "type": "uint256",
          "internalType": "uint256"
        },
        {
          "name": "strategy",
          "type": "address",
          "internalType": "contract IStrategy"
        },
        {
          "name": "sharesToBurn",
          "type": "uint256",
          "internalType": "uint256"
        }
      ],
      "outputs": [],
      "stateMutability": "nonpayable"
    },
    {
      "type": "function",
      "name": "initialize",
      "inputs": [
        {
          "name": "initialOwner",
          "type": "address",
          "internalType": "address"
        },
        {
          "name": "initialStrategyWhitelister",
          "type": "address",
          "internalType": "address"
        },
        {
          "name": "initialPausedStatus",
          "type": "uint256",
          "internalType": "uint256"
        }
      ],
      "outputs": [],
      "stateMutability": "nonpayable"
    },
    {
      "type": "function",
      "name": "nonces",
      "inputs": [
        {
          "name": "signer",
          "type": "address",
          "internalType": "address"
        }
      ],
      "outputs": [
        {
          "name": "nonce",
          "type": "uint256",
          "internalType": "uint256"
        }
      ],
      "stateMutability": "view"
    },
    {
      "type": "function",
      "name": "owner",
      "inputs": [],
      "outputs": [
        {
          "name": "",
          "type": "address",
          "internalType": "address"
        }
      ],
      "stateMutability": "view"
    },
    {
      "type": "function",
      "name": "pause",
      "inputs": [
        {
          "name": "newPausedStatus",
          "type": "uint256",
          "internalType": "uint256"
        }
      ],
      "outputs": [],
      "stateMutability": "nonpayable"
    },
    {
      "type": "function",
      "name": "pauseAll",
      "inputs": [],
      "outputs": [],
      "stateMutability": "nonpayable"
    },
    {
      "type": "function",
      "name": "paused",
      "inputs": [
        {
          "name": "index",
          "type": "uint8",
          "internalType": "uint8"
        }
      ],
      "outputs": [
        {
          "name": "",
          "type": "bool",
          "internalType": "bool"
        }
      ],
      "stateMutability": "view"
    },
    {
      "type": "function",
      "name": "paused",
      "inputs": [],
      "outputs": [
        {
          "name": "",
          "type": "uint256",
          "internalType": "uint256"
        }
      ],
      "stateMutability": "view"
    },
    {
      "type": "function",
      "name": "pauserRegistry",
      "inputs": [],
      "outputs": [
        {
          "name": "",
          "type": "address",
          "internalType": "contract IPauserRegistry"
        }
      ],
      "stateMutability": "view"
    },
    {
      "type": "function",
      "name": "removeDepositShares",
      "inputs": [
        {
          "name": "staker",
          "type": "address",
          "internalType": "address"
        },
        {
          "name": "strategy",
          "type": "address",
          "internalType": "contract IStrategy"
        },
        {
          "name": "depositSharesToRemove",
          "type": "uint256",
          "internalType": "uint256"
        }
      ],
      "outputs": [
        {
          "name": "",
          "type": "uint256",
          "internalType": "uint256"
        }
      ],
      "stateMutability": "nonpayable"
    },
    {
      "type": "function",
      "name": "removeStrategiesFromDepositWhitelist",
      "inputs": [
        {
          "name": "strategiesToRemoveFromWhitelist",
          "type": "address[]",
          "internalType": "contract IStrategy[]"
        }
      ],
      "outputs": [],
      "stateMutability": "nonpayable"
    },
    {
      "type": "function",
      "name": "renounceOwnership",
      "inputs": [],
      "outputs": [],
      "stateMutability": "nonpayable"
    },
    {
      "type": "function",
      "name": "setStrategyWhitelister",
      "inputs": [
        {
          "name": "newStrategyWhitelister",
          "type": "address",
          "internalType": "address"
        }
      ],
      "outputs": [],
      "stateMutability": "nonpayable"
    },
    {
      "type": "function",
      "name": "stakerDepositShares",
      "inputs": [
        {
          "name": "staker",
          "type": "address",
          "internalType": "address"
        },
        {
          "name": "strategy",
          "type": "address",
          "internalType": "contract IStrategy"
        }
      ],
      "outputs": [
        {
          "name": "shares",
          "type": "uint256",
          "internalType": "uint256"
        }
      ],
      "stateMutability": "view"
    },
    {
      "type": "function",
      "name": "stakerStrategyList",
      "inputs": [
        {
          "name": "staker",
          "type": "address",
          "internalType": "address"
        },
        {
          "name": "",
          "type": "uint256",
          "internalType": "uint256"
        }
      ],
      "outputs": [
        {
          "name": "strategies",
          "type": "address",
          "internalType": "contract IStrategy"
        }
      ],
      "stateMutability": "view"
    },
    {
      "type": "function",
      "name": "stakerStrategyListLength",
      "inputs": [
        {
          "name": "staker",
          "type": "address",
          "internalType": "address"
        }
      ],
      "outputs": [
        {
          "name": "",
          "type": "uint256",
          "internalType": "uint256"
        }
      ],
      "stateMutability": "view"
    },
    {
      "type": "function",
      "name": "strategyIsWhitelistedForDeposit",
      "inputs": [
        {
          "name": "strategy",
          "type": "address",
          "internalType": "contract IStrategy"
        }
      ],
      "outputs": [
        {
          "name": "whitelisted",
          "type": "bool",
          "internalType": "bool"
        }
      ],
      "stateMutability": "view"
    },
    {
      "type": "function",
      "name": "strategyWhitelister",
      "inputs": [],
      "outputs": [
        {
          "name": "",
          "type": "address",
          "internalType": "address"
        }
      ],
      "stateMutability": "view"
    },
    {
      "type": "function",
      "name": "transferOwnership",
      "inputs": [
        {
          "name": "newOwner",
          "type": "address",
          "internalType": "address"
        }
      ],
      "outputs": [],
      "stateMutability": "nonpayable"
    },
    {
      "type": "function",
      "name": "unpause",
      "inputs": [
        {
          "name": "newPausedStatus",
          "type": "uint256",
          "internalType": "uint256"
        }
      ],
      "outputs": [],
      "stateMutability": "nonpayable"
    },
    {
      "type": "function",
      "name": "version",
      "inputs": [],
      "outputs": [
        {
          "name": "",
          "type": "string",
          "internalType": "string"
        }
      ],
      "stateMutability": "view"
    },
    {
      "type": "function",
      "name": "withdrawSharesAsTokens",
      "inputs": [
        {
          "name": "staker",
          "type": "address",
          "internalType": "address"
        },
        {
          "name": "strategy",
          "type": "address",
          "internalType": "contract IStrategy"
        },
        {
          "name": "token",
          "type": "address",
          "internalType": "contract IERC20"
        },
        {
          "name": "shares",
          "type": "uint256",
          "internalType": "uint256"
        }
      ],
      "outputs": [],
      "stateMutability": "nonpayable"
    },
    {
      "type": "event",
      "name": "BurnOrRedistributableSharesDecreased",
      "inputs": [
        {
          "name": "operatorSet",
          "type": "tuple",
          "indexed": false,
          "internalType": "struct OperatorSet",
          "components": [
            {
              "name": "avs",
              "type": "address",
              "internalType": "address"
            },
            {
              "name": "id",
              "type": "uint32",
              "internalType": "uint32"
            }
          ]
        },
        {
          "name": "slashId",
          "type": "uint256",
          "indexed": false,
          "internalType": "uint256"
        },
        {
          "name": "strategy",
          "type": "address",
          "indexed": false,
          "internalType": "contract IStrategy"
        },
        {
          "name": "shares",
          "type": "uint256",
          "indexed": false,
          "internalType": "uint256"
        }
      ],
      "anonymous": false
    },
    {
      "type": "event",
      "name": "BurnOrRedistributableSharesIncreased",
      "inputs": [
        {
          "name": "operatorSet",
          "type": "tuple",
          "indexed": false,
          "internalType": "struct OperatorSet",
          "components": [
            {
              "name": "avs",
              "type": "address",
              "internalType": "address"
            },
            {
              "name": "id",
              "type": "uint32",
              "internalType": "uint32"
            }
          ]
        },
        {
          "name": "slashId",
          "type": "uint256",
          "indexed": false,
          "internalType": "uint256"
        },
        {
          "name": "strategy",
          "type": "address",
          "indexed": false,
          "internalType": "contract IStrategy"
        },
        {
          "name": "shares",
          "type": "uint256",
          "indexed": false,
          "internalType": "uint256"
        }
      ],
      "anonymous": false
    },
    {
      "type": "event",
      "name": "BurnableSharesDecreased",
      "inputs": [
        {
          "name": "strategy",
          "type": "address",
          "indexed": false,
          "internalType": "contract IStrategy"
        },
        {
          "name": "shares",
          "type": "uint256",
          "indexed": false,
          "internalType": "uint256"
        }
      ],
      "anonymous": false
    },
    {
      "type": "event",
      "name": "Deposit",
      "inputs": [
        {
          "name": "staker",
          "type": "address",
          "indexed": false,
          "internalType": "address"
        },
        {
          "name": "strategy",
          "type": "address",
          "indexed": false,
          "internalType": "contract IStrategy"
        },
        {
          "name": "shares",
          "type": "uint256",
          "indexed": false,
          "internalType": "uint256"
        }
      ],
      "anonymous": false
    },
    {
      "type": "event",
      "name": "Initialized",
      "inputs": [
        {
          "name": "version",
          "type": "uint8",
          "indexed": false,
          "internalType": "uint8"
        }
      ],
      "anonymous": false
    },
    {
      "type": "event",
      "name": "OwnershipTransferred",
      "inputs": [
        {
          "name": "previousOwner",
          "type": "address",
          "indexed": true,
          "internalType": "address"
        },
        {
          "name": "newOwner",
          "type": "address",
          "indexed": true,
          "internalType": "address"
        }
      ],
      "anonymous": false
    },
    {
      "type": "event",
      "name": "Paused",
      "inputs": [
        {
          "name": "account",
          "type": "address",
          "indexed": true,
          "internalType": "address"
        },
        {
          "name": "newPausedStatus",
          "type": "uint256",
          "indexed": false,
          "internalType": "uint256"
        }
      ],
      "anonymous": false
    },
    {
      "type": "event",
      "name": "SlashResolutionBlockSet",
      "inputs": [
        {
          "name": "operatorSet",
          "type": "tuple",
          "indexed": false,
          "internalType": "struct OperatorSet",
          "components": [
            {
              "name": "avs",
              "type": "address",
              "internalType": "address"
            },
            {
              "name": "id",
              "type": "uint32",
              "internalType": "uint32"
            }
          ]
        },
        {
          "name": "slashId",
          "type": "uint256",
          "indexed": false,
          "internalType": "uint256"
        },
        {
          "name": "resolutionBlock",
          "type": "uint32",
          "indexed": false,
          "internalType": "uint32"
        }
      ],
      "anonymous": false
    },
    {
      "type": "event",
      "name": "StrategyAddedToDepositWhitelist",
      "inputs": [
        {
          "name": "strategy",
          "type": "address",
          "indexed": false,
          "internalType": "contract IStrategy"
        }
      ],
      "anonymous": false
    },
    {
      "type": "event",
      "name": "StrategyRemovedFromDepositWhitelist",
      "inputs": [
        {
          "name": "strategy",
          "type": "address",
          "indexed": false,
          "internalType": "contract IStrategy"
        }
      ],
      "anonymous": false
    },
    {
      "type": "event",
      "name": "StrategyWhitelisterChanged",
      "inputs": [
        {
          "name": "previousAddress",
          "type": "address",
          "indexed": false,
          "internalType": "address"
        },
        {
          "name": "newAddress",
          "type": "address",
          "indexed": false,
          "internalType": "address"
        }
      ],
      "anonymous": false
    },
    {
      "type": "event",
      "name": "Unpaused",
      "inputs": [
        {
          "name": "account",
          "type": "address",
          "indexed": true,
          "internalType": "address"
        },
        {
          "name": "newPausedStatus",
          "type": "uint256",
          "indexed": false,
          "internalType": "uint256"
        }
      ],
      "anonymous": false
    },
    {
      "type": "error",
      "name": "CurrentlyPaused",
      "inputs": []
    },
    {
      "type": "error",
      "name": "InputAddressZero",
      "inputs": []
    },
    {
      "type": "error",
      "name": "InvalidNewPausedStatus",
      "inputs": []
    },
    {
      "type": "error",
      "name": "InvalidShortString",
      "inputs": []
    },
    {
      "type": "error",
      "name": "InvalidSignature",
      "inputs": []
    },
    {
      "type": "error",
      "name": "MaxStrategiesExceeded",
      "inputs": []
    },
    {
      "type": "error",
      "name": "OnlyDelegationManager",
      "inputs": []
    },
    {
      "type": "error",
      "name": "OnlyPauser",
      "inputs": []
    },
    {
      "type": "error",
      "name": "OnlyStrategyWhitelister",
      "inputs": []
    },
    {
      "type": "error",
      "name": "OnlyUnpauser",
      "inputs": []
    },
    {
      "type": "error",
      "name": "SharesAmountTooHigh",
      "inputs": []
    },
    {
      "type": "error",
      "name": "SharesAmountZero",
      "inputs": []
    },
    {
      "type": "error",
      "name": "SignatureExpired",
      "inputs": []
    },
    {
      "type": "error",
      "name": "SlashResolutionDelayNotElapsed",
      "inputs": []
    },
    {
      "type": "error",
      "name": "StakerAddressZero",
      "inputs": []
    },
    {
      "type": "error",
      "name": "StrategyAlreadyInSlash",
      "inputs": []
    },
    {
      "type": "error",
      "name": "StrategyNotFound",
      "inputs": []
    },
    {
      "type": "error",
      "name": "StrategyNotWhitelisted",
      "inputs": []
    },
    {
      "type": "error",
      "name": "StringTooLong",
      "inputs": [
        {
          "name": "str",
          "type": "string",
          "internalType": "string"
        }
      ]
    }
  ],
  "bytecode": {
    "object": "0x610100604052348015610010575f5ffd5b50604051613cf5380380613cf583398101604081905261002f916101bc565b80808585856001600160a01b03811661005b576040516339b190bb60e11b815260040160405180910390fd5b6001600160a01b0390811660805291821660a0521660c05261007c81610093565b60e0525061008a90506100d9565b50505050610301565b5f5f829050601f815111156100c6578260405163305a27a960e01b81526004016100bd91906102a6565b60405180910390fd5b80516100d1826102db565b179392505050565b5f54610100900460ff16156101405760405162461bcd60e51b815260206004820152602760248201527f496e697469616c697a61626c653a20636f6e747261637420697320696e697469604482015266616c697a696e6760c81b60648201526084016100bd565b5f5460ff9081161461018f575f805460ff191660ff9081179091556040519081527f7f26b83ff96e1f2b6a682f133852f6798a09c465da95921460cefb38474024989060200160405180910390a15b565b6001600160a01b03811681146101a5575f5ffd5b50565b634e487b7160e01b5f52604160045260245ffd5b5f5f5f5f608085870312156101cf575f5ffd5b84516101da81610191565b60208601519094506101eb81610191565b60408601519093506101fc81610191565b60608601519092506001600160401b03811115610217575f5ffd5b8501601f81018713610227575f5ffd5b80516001600160401b03811115610240576102406101a8565b604051601f8201601f19908116603f011681016001600160401b038111828210171561026e5761026e6101a8565b604052818152828201602001891015610285575f5ffd5b8160208401602083015e5f6020838301015280935050505092959194509250565b602081525f82518060208401528060208501604085015e5f604082850101526040601f19601f83011684010191505092915050565b805160208083015191908110156102fb575f198160200360031b1b821691505b50919050565b60805160a05160c05160e05161397b61037a5f395f818161123a015261274e01525f81816106410152818161096f01528181610e4c015281816111cc015281816113db01526122c801525f81816105e7015281816108c2015261160e01525f81816104fd01528181611c8d01526127bd015261397b5ff3fe608060405234801561000f575f5ffd5b5060043610610281575f3560e01c80637def156411610156578063c6656702116100ca578063f2fde38b11610084578063f2fde38b14610676578063f3b4a00014610689578063f698da2514610693578063fabc1cbc1461069b578063fd980423146106ae578063fe243a17146106c1575f5ffd5b8063c6656702146105cf578063ca8aa7c7146105e2578063cbc2bd6214610609578063de44acb61461061c578063df5cf7231461063c578063e7a050aa14610663575f5ffd5b80638b8aac3c1161011b5780638b8aac3c1461054a5780638da5cb5b1461057257806394f649dd14610583578063967fc0d2146105965780639ac01d61146105a9578063b5d8b5b8146105bc575f5ffd5b80637def1564146104a65780637ecebe00146104c6578063829fca73146104e5578063886f1195146104f857806388c1029914610537575f5ffd5b80634b3262f7116101f85780635c975abb116101b25780635c975abb1461043b5780635de08ff214610443578063663c1de414610456578063715018a614610478578063724af4231461048057806376fb162b14610493575f5ffd5b80634b3262f71461039d5780634b6d5d6e146103b057806350ff7225146103c357806354fd4d50146103eb578063595c6a67146104005780635ac86ab714610408575f5ffd5b806331f8fb4c1161024957806331f8fb4c1461030457806332e89ace1461032557806336a8c500146103385780633f292b081461034e5780633fb99ca51461036357806348825e9414610376575f5ffd5b806307a7935514610285578063136439dd146102a85780631794bb3c146102bd5780632d44def6146102d05780632eae418c146102f1575b5f5ffd5b61028e61c4e081565b60405163ffffffff90911681526020015b60405180910390f35b6102bb6102b636600461310d565b6106eb565b005b6102bb6102cb366004613138565b610725565b6102e36102de36600461318c565b61084b565b60405190815260200161029f565b6102bb6102ff3660046131ca565b610964565b610317610312366004613218565b610a30565b60405161029f9291906132b4565b6102e3610333366004613325565b610bb9565b610340610c3e565b60405161029f9291906133ff565b610356610d59565b60405161029f9190613455565b6102bb6103713660046134b2565b610e41565b6102e37f4337f82d142e41f2a8c10547cd8c859bddb92262a61058e77842e24d9dea922481565b61028e6103ab366004613218565b611028565b6102bb6103be3660046134f6565b61106a565b6103d66103d1366004613138565b6111bf565b6040805192835260208301919091520161029f565b6103f3611233565b60405161029f919061353f565b6102bb611263565b61042b610416366004613551565b609854600160ff9092169190911b9081161490565b604051901515815260200161029f565b6098546102e3565b6102bb610451366004613571565b611277565b61042b6104643660046134f6565b60d16020525f908152604090205460ff1681565b6102bb6113be565b6102e361048e366004613138565b6113cf565b6102e36104a136600461318c565b61143f565b6104b96104b43660046135e0565b61148e565b60405161029f91906135fa565b6102e36104d43660046134f6565b60ca6020525f908152604090205481565b6102e36104f3366004613218565b6114ba565b61051f7f000000000000000000000000000000000000000000000000000000000000000081565b6040516001600160a01b03909116815260200161029f565b6104b9610545366004613218565b6114f4565b6102e36105583660046134f6565b6001600160a01b03165f90815260ce602052604090205490565b6033546001600160a01b031661051f565b6103176105913660046134f6565b61168c565b60cb5461051f906001600160a01b031681565b6102e36105b736600461360c565b611803565b6102bb6105ca366004613571565b611894565b6102bb6105dd3660046134f6565b6119db565b61051f7f000000000000000000000000000000000000000000000000000000000000000081565b61051f61061736600461366d565b611a01565b61062f61062a3660046134f6565b611a35565b60405161029f9190613697565b61051f7f000000000000000000000000000000000000000000000000000000000000000081565b6102e3610671366004613138565b611aa8565b6102bb6106843660046134f6565b611ac7565b61051f620e16e481565b6102e3611b3d565b6102bb6106a936600461310d565b611bf6565b6102e36106bc3660046134f6565b611c63565b6102e36106cf3660046136a9565b60cd60209081525f928352604080842090915290825290205481565b6106f3611c78565b60985481811681146107185760405163c61dca5d60e01b815260040160405180910390fd5b61072182611d1b565b5050565b5f54610100900460ff161580801561074357505f54600160ff909116105b8061075c5750303b15801561075c57505f5460ff166001145b6107c45760405162461bcd60e51b815260206004820152602e60248201527f496e697469616c697a61626c653a20636f6e747261637420697320616c72656160448201526d191e481a5b9a5d1a585b1a5e995960921b60648201526084015b60405180910390fd5b5f805460ff1916600117905580156107e5575f805461ff0019166101001790555b6107ee82611d1b565b6107f784611d58565b61080083611da9565b8015610845575f805461ff0019169055604051600181527f7f26b83ff96e1f2b6a682f133852f6798a09c465da95921460cefb38474024989060200160405180910390a15b50505050565b5f600161085781611e12565b61085f611e3d565b60db5f610879610874368990038901896136f8565b611e96565b815260208082019290925260409081015f90812087825290925290205463ffffffff1643116108ba57604051626f6f0760e41b815260040160405180910390fd5b6109508585857f00000000000000000000000000000000000000000000000000000000000000006001600160a01b0316630f3df50e8a6040518263ffffffff1660e01b815260040161090c9190613785565b602060405180830381865afa158015610927573d5f5f3e3d5ffd5b505050506040513d601f19601f8201168201806040525081019061094b9190613793565b611ef9565b915061095c6001606555565b509392505050565b336001600160a01b037f000000000000000000000000000000000000000000000000000000000000000016146109ad5760405163f739589b60e01b815260040160405180910390fd5b6109b5611e3d565b604051636ce5768960e11b81526001600160a01b0384169063d9caed12906109e5908790869086906004016137ae565b6020604051808303815f875af1158015610a01573d5f5f3e3d5ffd5b505050506040513d601f19601f82011682018060405250810190610a2591906137d2565b506108456001606555565b6060805f60d781610a49610874368990038901896136f8565b81526020019081526020015f205f8581526020019081526020015f2090505f610a718261213d565b90505f81516001600160401b03811115610a8d57610a8d6132e1565b604051908082528060200260200182016040528015610ab6578160200160208202803683370190505b5090505f82516001600160401b03811115610ad357610ad36132e1565b604051908082528060200260200182016040528015610afc578160200160208202803683370190505b5090505f5b8351811015610ba957838181518110610b1c57610b1c6137e9565b6020026020010151838281518110610b3657610b366137e9565b60200260200101906001600160a01b031690816001600160a01b031681525050610b82848281518110610b6b57610b6b6137e9565b60200260200101518661214990919063ffffffff16565b9050828281518110610b9657610b966137e9565b6020908102919091010152600101610b01565b50909450925050505b9250929050565b5f5f610bc481611e12565b610bcc611e3d565b6001600160a01b0385165f90815260ca6020526040902054610bfd86610bf6818c8c8c878c611803565b868861216d565b6001600160a01b0386165f90815260ca60205260409020600182019055610c26868a8a8a6121bf565b925050610c336001606555565b509695505050505050565b6060805f610c4c60d461232c565b90505f816001600160401b03811115610c6757610c676132e1565b604051908082528060200260200182016040528015610c90578160200160208202803683370190505b5090505f826001600160401b03811115610cac57610cac6132e1565b604051908082528060200260200182016040528015610cd5578160200160208202803683370190505b5090505f5b83811015610d4e575f5f610cef60d484612336565b9150915081858481518110610d0657610d066137e9565b60200260200101906001600160a01b031690816001600160a01b03168152505080848481518110610d3957610d396137e9565b60209081029190910101525050600101610cda565b509094909350915050565b60605f610d6660d8612344565b90505f816001600160401b03811115610d8157610d816132e1565b604051908082528060200260200182016040528015610dc557816020015b604080518082019091525f8082526020820152815260200190600190039081610d9f5790505b5090505f5b82811015610e3a57610e15610de060d88361234d565b604080518082019091525f80825260208201525060408051808201909152606082901c815263ffffffff909116602082015290565b828281518110610e2757610e276137e9565b6020908102919091010152600101610dca565b5092915050565b336001600160a01b037f00000000000000000000000000000000000000000000000000000000000000001614610e8a5760405163f739589b60e01b815260040160405180910390fd5b610e92611e3d565b5f60d781610ea8610874368990038901896136f8565b815260208082019290925260409081015f90812087825290925290209050610ed1818484612358565b610eee5760405163ca354fa360e01b815260040160405180910390fd5b610f0b610f03610874368890038801886136f8565b60d89061236d565b50610f408460da5f610f25610874368b90038b018b6136f8565b81526020019081526020015f2061236d90919063ffffffff16565b15610fe0575f610f5261c4e043613811565b90508060db5f610f6a610874368b90038b018b6136f8565b81526020019081526020015f205f8781526020019081526020015f205f6101000a81548163ffffffff021916908363ffffffff1602179055507fa8fd1473d1b9b7b4c9033ecb92a0f6e43f107aec7720ede3709521d122f89fa5868683604051610fd69392919061382d565b60405180910390a1505b7f5f5209798bbac45a16d2dc3bc67319fab26ee00153916d6f07b69f8a134a1e8b858585856040516110159493929190613855565b60405180910390a1506108456001606555565b5f60db8161103e610874368790038701876136f8565b815260208082019290925260409081015f90812085825290925290205463ffffffff1690505b92915050565b600161107581611e12565b61107d611e3d565b5f61108960d484612149565b91505061109760d484612378565b50604080516001600160a01b0385168152602081018390527fd9d082c3ec4f3a3ffa55c324939a06407f5fbcb87d5e0ce3b9508c92c84ed839910160405180910390a180156111b457826001600160a01b031663d9caed12620e16e4856001600160a01b0316632495a5996040518163ffffffff1660e01b8152600401602060405180830381865afa15801561112f573d5f5f3e3d5ffd5b505050506040513d601f19601f820116820180604052508101906111539190613793565b846040518463ffffffff1660e01b8152600401611172939291906137ae565b6020604051808303815f875af115801561118e573d5f5f3e3d5ffd5b505050506040513d601f19601f820116820180604052508101906111b291906137d2565b505b506107216001606555565b5f80336001600160a01b037f0000000000000000000000000000000000000000000000000000000000000000161461120a5760405163f739589b60e01b815260040160405180910390fd5b611212611e3d565b61121d85858561238c565b9150915061122b6001606555565b935093915050565b606061125e7f0000000000000000000000000000000000000000000000000000000000000000612550565b905090565b61126b611c78565b6112755f19611d1b565b565b60cb546001600160a01b031633146112a2576040516320ba3ff960e21b815260040160405180910390fd5b6112aa611e3d565b805f5b818110156111b25760d15f8585848181106112ca576112ca6137e9565b90506020020160208101906112df91906134f6565b6001600160a01b0316815260208101919091526040015f205460ff166113b657600160d15f868685818110611316576113166137e9565b905060200201602081019061132b91906134f6565b6001600160a01b0316815260208101919091526040015f20805460ff19169115159190911790557f0c35b17d91c96eb2751cd456e1252f42a386e524ef9ff26ecc9950859fdc04fe848483818110611385576113856137e9565b905060200201602081019061139a91906134f6565b6040516001600160a01b03909116815260200160405180910390a15b6001016112ad565b6113c661258d565b6112755f611d58565b5f336001600160a01b037f000000000000000000000000000000000000000000000000000000000000000016146114195760405163f739589b60e01b815260040160405180910390fd5b611421611e3d565b61142c8484846125e7565b90506114386001606555565b9392505050565b5f806114848360d78361145a610874368b90038b018b6136f8565b81526020019081526020015f205f8781526020019081526020015f2061214990919063ffffffff16565b9695505050505050565b606061106460da5f6114a8610874368790038701876136f8565b81526020019081526020015f206126f4565b5f61143860d7826114d3610874368890038801886136f8565b81526020019081526020015f205f8481526020019081526020015f2061232c565b6060600161150181611e12565b611509611e3d565b60db5f61151e610874368890038801886136f8565b815260208082019290925260409081015f90812086825290925290205463ffffffff16431161155f57604051626f6f0760e41b815260040160405180910390fd5b5f61159960d782611578610874368a90038a018a6136f8565b81526020019081526020015f205f8681526020019081526020015f2061213d565b80519091505f816001600160401b038111156115b7576115b76132e1565b6040519080825280602002602001820160405280156115e0578160200160208202803683370190505b5090505f5b8281101561167d576116588888868481518110611604576116046137e9565b60200260200101517f00000000000000000000000000000000000000000000000000000000000000006001600160a01b0316630f3df50e8d6040518263ffffffff1660e01b815260040161090c9190613785565b82828151811061166a5761166a6137e9565b60209081029190910101526001016115e5565b5093505050610e3a6001606555565b6001600160a01b0381165f90815260ce6020526040812054606091829190816001600160401b038111156116c2576116c26132e1565b6040519080825280602002602001820160405280156116eb578160200160208202803683370190505b5090505f5b82811015611779576001600160a01b0386165f90815260cd6020908152604080832060ce909252822080549192918490811061172e5761172e6137e9565b5f9182526020808320909101546001600160a01b031683528201929092526040019020548251839083908110611766576117666137e9565b60209081029190910101526001016116f0565b5060ce5f866001600160a01b03166001600160a01b031681526020019081526020015f2081818054806020026020016040519081016040528092919081815260200182805480156117f157602002820191905f5260205f20905b81546001600160a01b031681526001909101906020018083116117d3575b50505050509150935093505050915091565b604080517f4337f82d142e41f2a8c10547cd8c859bddb92262a61058e77842e24d9dea922460208201526001600160a01b03808916928201929092528187166060820152908516608082015260a0810184905260c0810183905260e081018290525f90611889906101000160405160208183030381529060405280519060200120612700565b979650505050505050565b60cb546001600160a01b031633146118bf576040516320ba3ff960e21b815260040160405180910390fd5b6118c7611e3d565b805f5b818110156111b25760d15f8585848181106118e7576118e76137e9565b90506020020160208101906118fc91906134f6565b6001600160a01b0316815260208101919091526040015f205460ff16156119d3575f60d15f868685818110611933576119336137e9565b905060200201602081019061194891906134f6565b6001600160a01b0316815260208101919091526040015f20805460ff19169115159190911790557f4074413b4b443e4e58019f2855a8765113358c7c72e39509c6af45fc0f5ba0308484838181106119a2576119a26137e9565b90506020020160208101906119b791906134f6565b6040516001600160a01b03909116815260200160405180910390a15b6001016118ca565b6119e361258d565b6119eb611e3d565b6119f481611da9565b6119fe6001606555565b50565b60ce602052815f5260405f208181548110611a1a575f80fd5b5f918252602090912001546001600160a01b03169150829050565b6001600160a01b0381165f90815260ce6020908152604091829020805483518184028101840190945280845260609392830182828015611a9c57602002820191905f5260205f20905b81546001600160a01b03168152600190910190602001808311611a7e575b50505050509050919050565b5f5f611ab381611e12565b611abb611e3d565b610950338686866121bf565b611acf61258d565b6001600160a01b038116611b345760405162461bcd60e51b815260206004820152602660248201527f4f776e61626c653a206e6577206f776e657220697320746865207a65726f206160448201526564647265737360d01b60648201526084016107bb565b6119fe81611d58565b60408051808201909152600a81526922b4b3b2b72630bcb2b960b11b6020909101525f7f8b73c3c69bb8fe3d512ecc4cf759cc79239f7b179b0ffacaa9a75d522b39400f7f71b625cfad44bac63b13dba07f2e1d6084ee04b6f8752101ece6126d584ee6ea611baa612746565b805160209182012060408051928301949094529281019190915260608101919091524660808201523060a082015260c00160405160208183030381529060405280519060200120905090565b611bfe6127bb565b60985480198219811614611c255760405163c61dca5d60e01b815260040160405180910390fd5b609882905560405182815233907f3582d1828e26bf56bd801502bc021ac0bc8afb57c826e4986b45593c8fad389c9060200160405180910390a25050565b5f5f611c7060d484612149565b949350505050565b60405163237dfb4760e11b81523360048201527f00000000000000000000000000000000000000000000000000000000000000006001600160a01b0316906346fbf68e90602401602060405180830381865afa158015611cda573d5f5f3e3d5ffd5b505050506040513d601f19601f82011682018060405250810190611cfe9190613887565b61127557604051631d77d47760e21b815260040160405180910390fd5b609881905560405181815233907fab40a374bc51de372200a8bc981af8c9ecdc08dfdaef0bb6e09f88f3c616ef3d9060200160405180910390a250565b603380546001600160a01b038381166001600160a01b0319831681179093556040519116919082907f8be0079c531659141344cd1fd0a4f28419497f9722a3daafe3b4186f6b6457e0905f90a35050565b60cb54604080516001600160a01b03928316815291831660208301527f4264275e593955ff9d6146a51a4525f6ddace2e81db9391abcc9d1ca48047d29910160405180910390a160cb80546001600160a01b0319166001600160a01b0392909216919091179055565b609854600160ff83161b908116036119fe5760405163840a48d560e01b815260040160405180910390fd5b600260655403611e8f5760405162461bcd60e51b815260206004820152601f60248201527f5265656e7472616e637947756172643a207265656e7472616e742063616c6c0060448201526064016107bb565b6002606555565b5f815f0151826020015163ffffffff16604051602001611ee192919060609290921b6bffffffffffffffffffffffff1916825260a01b6001600160a01b031916601482015260200190565b604051602081830303815290604052611064906138a6565b5f8060d781611f10610874368a90038a018a6136f8565b815260208082019290925260409081015f90812088825290925281209150611f388286612149565b9150611f4690508286612378565b505f811561205d57856001600160a01b031663d9caed1286886001600160a01b0316632495a5996040518163ffffffff1660e01b8152600401602060405180830381865afa158015611f9a573d5f5f3e3d5ffd5b505050506040513d601f19601f82011682018060405250810190611fbe9190613793565b856040518463ffffffff1660e01b8152600401611fdd939291906137ae565b6020604051808303815f875af1158015611ff9573d5f5f3e3d5ffd5b505050506040513d601f19601f8201168201806040525081019061201d91906137d2565b90507fe6413aa0c789e437b0a06bf64b20926584f066c79a2d8b80a759c85472f7b0af888888856040516120549493929190613855565b60405180910390a15b5f6120678461232c565b9050805f03612131576120a48860da5f612089610874368f90038f018f6136f8565b81526020019081526020015f2061286c90919063ffffffff16565b5060db5f6120ba610874368d90038d018d6136f8565b815260208082019290925260409081015f9081208b82529092528120805463ffffffff1916905561210c9060da906120fa610874368e90038e018e6136f8565b81526020019081526020015f20612344565b5f036121315761212f612127610874368c90038c018c6136f8565b60d89061286c565b505b50979650505050505050565b60605f61143883612877565b5f808080612160866001600160a01b038716612882565b9097909650945050505050565b4281101561218e57604051630819bdcd60e01b815260040160405180910390fd5b6121a26001600160a01b03851684846128ba565b61084557604051638baa579f60e01b815260040160405180910390fd5b6001600160a01b0383165f90815260d16020526040812054849060ff166121f957604051632efd965160e11b815260040160405180910390fd5b61220e6001600160a01b03851633878661290e565b6040516311f9fbc960e21b81526001600160a01b038581166004830152602482018590528616906347e7ef24906044016020604051808303815f875af115801561225a573d5f5f3e3d5ffd5b505050506040513d601f19601f8201168201806040525081019061227e91906137d2565b91505f5f61228d88888661238c565b604051631e328e7960e11b81526001600160a01b038b811660048301528a8116602483015260448201849052606482018390529294509092507f000000000000000000000000000000000000000000000000000000000000000090911690633c651cf2906084015f604051808303815f87803b15801561230b575f5ffd5b505af115801561231d573d5f5f3e3d5ffd5b50505050505050949350505050565b5f61106482612966565b5f8080806121608686612970565b5f611064825490565b5f6114388383612999565b5f611c70846001600160a01b038516846129bf565b5f61143883836129db565b5f611438836001600160a01b038416612a27565b5f806001600160a01b0385166123b5576040516316f2ccc960e01b815260040160405180910390fd5b825f036123d5576040516342061b2560e11b815260040160405180910390fd5b60405162e7c78560e71b81526001600160a01b038681166004830152602482018590528516906373e3c280906044015f604051808303815f87803b15801561241b575f5ffd5b505af115801561242d573d5f5f3e3d5ffd5b5050506001600160a01b038087165f90815260cd6020908152604080832093891683529290529081205491508190036124d7576001600160a01b0386165f90815260ce602090815260409091205410612499576040516301a1443960e31b815260040160405180910390fd5b6001600160a01b038681165f90815260ce602090815260408220805460018101825590835291200180546001600160a01b0319169187169190911790555b6124e184826138c9565b6001600160a01b038088165f90815260cd60209081526040808320938a16835292905281902091909155517f5548c837ab068cf56a2c2479df0882a4922fd203edb7517321831d95078c5f629061253d908890889088906137ae565b60405180910390a1959294509192505050565b60605f61255c83612a43565b6040805160208082528183019092529192505f91906020820181803683375050509182525060208101929092525090565b6033546001600160a01b031633146112755760405162461bcd60e51b815260206004820181905260248201527f4f776e61626c653a2063616c6c6572206973206e6f7420746865206f776e657260448201526064016107bb565b5f815f03612608576040516342061b2560e11b815260040160405180910390fd5b6001600160a01b038085165f90815260cd60209081526040808320938716835292905220548083111561264e57604051634b18b19360e01b815260040160405180910390fd5b6040516303e3e6eb60e01b81526001600160a01b038681166004830152602482018590528516906303e3e6eb906044015f604051808303815f87803b158015612695575f5ffd5b505af11580156126a7573d5f5f3e3d5ffd5b5050505082816126b791906138dc565b6001600160a01b038087165f90815260cd602090815260408083209389168352929052908120829055909150819003611c7057611c708585612a6a565b60605f61143883612be8565b5f612709611b3d565b60405161190160f01b6020820152602281019190915260428101839052606201604051602081830303815290604052805190602001209050919050565b60605f6127727f0000000000000000000000000000000000000000000000000000000000000000612550565b9050805f81518110612786576127866137e9565b016020908101516040516001600160f81b03199091169181019190915260210160405160208183030381529060405291505090565b7f00000000000000000000000000000000000000000000000000000000000000006001600160a01b031663eab66d7a6040518163ffffffff1660e01b8152600401602060405180830381865afa158015612817573d5f5f3e3d5ffd5b505050506040513d601f19601f8201168201806040525081019061283b9190613793565b6001600160a01b0316336001600160a01b0316146112755760405163794821ff60e01b815260040160405180910390fd5b5f6114388383612c40565b6060611064826126f4565b5f8181526002830160205260408120548190806128af576128a38585612d23565b92505f9150610bb29050565b600192509050610bb2565b5f5f5f6128c78585612d2e565b90925090505f8160048111156128df576128df6138ef565b1480156128fd5750856001600160a01b0316826001600160a01b0316145b806114845750611484868686612d6d565b610845846323b872dd60e01b85858560405160240161292f939291906137ae565b60408051601f198184030181529190526020810180516001600160e01b03166001600160e01b031990931692909217909152612e54565b5f61106482612344565b5f808061297d858561234d565b5f81815260029690960160205260409095205494959350505050565b5f825f0182815481106129ae576129ae6137e9565b905f5260205f200154905092915050565b5f8281526002840160205260408120829055611c70848461236d565b5f818152600183016020526040812054612a2057508154600181810184555f848152602080822090930184905584548482528286019093526040902091909155611064565b505f611064565b5f8181526002830160205260408120819055611438838361286c565b5f60ff8216601f81111561106457604051632cd44ac360e21b815260040160405180910390fd5b6001600160a01b0382165f90815260ce6020526040812054905b81811015612b7c576001600160a01b038481165f90815260ce6020526040902080549185169183908110612aba57612aba6137e9565b5f918252602090912001546001600160a01b031603612b74576001600160a01b0384165f90815260ce602052604090208054612af8906001906138dc565b81548110612b0857612b086137e9565b5f9182526020808320909101546001600160a01b03878116845260ce9092526040909220805491909216919083908110612b4457612b446137e9565b905f5260205f20015f6101000a8154816001600160a01b0302191690836001600160a01b03160217905550612b7c565b600101612a84565b818103612b9c57604051632df15a4160e11b815260040160405180910390fd5b6001600160a01b0384165f90815260ce60205260409020805480612bc257612bc2613903565b5f8281526020902081015f1990810180546001600160a01b031916905501905550505050565b6060815f01805480602002602001604051908101604052809291908181526020018280548015611a9c57602002820191905f5260205f20905b815481526020019060010190808311612c215750505050509050919050565b5f8181526001830160205260408120548015612d1a575f612c626001836138dc565b85549091505f90612c75906001906138dc565b9050818114612cd4575f865f018281548110612c9357612c936137e9565b905f5260205f200154905080875f018481548110612cb357612cb36137e9565b5f918252602080832090910192909255918252600188019052604090208390555b8554869080612ce557612ce5613903565b600190038181905f5260205f20015f90559055856001015f8681526020019081526020015f205f905560019350505050611064565b5f915050611064565b5f6114388383612f2c565b5f5f8251604103612d62576020830151604084015160608501515f1a612d5687828585612f43565b94509450505050610bb2565b505f90506002610bb2565b5f5f5f856001600160a01b0316631626ba7e60e01b8686604051602401612d95929190613917565b60408051601f198184030181529181526020820180516001600160e01b03166001600160e01b0319909416939093179092529051612dd3919061392f565b5f60405180830381855afa9150503d805f8114612e0b576040519150601f19603f3d011682016040523d82523d5f602084013e612e10565b606091505b5091509150818015612e2457506020815110155b801561148457508051630b135d3f60e11b90612e4990830160209081019084016137d2565b149695505050505050565b5f612ea8826040518060400160405280602081526020017f5361666545524332303a206c6f772d6c6576656c2063616c6c206661696c6564815250856001600160a01b03166130009092919063ffffffff16565b905080515f1480612ec8575080806020019051810190612ec89190613887565b612f275760405162461bcd60e51b815260206004820152602a60248201527f5361666545524332303a204552433230206f7065726174696f6e20646964206e6044820152691bdd081cdd58d8d9595960b21b60648201526084016107bb565b505050565b5f8181526001830160205260408120541515611438565b5f807f7fffffffffffffffffffffffffffffff5d576e7357a4501ddfe92f46681b20a0831115612f7857505f90506003612ff7565b604080515f8082526020820180845289905260ff881692820192909252606081018690526080810185905260019060a0016020604051602081039080840390855afa158015612fc9573d5f5f3e3d5ffd5b5050604051601f1901519150506001600160a01b038116612ff1575f60019250925050612ff7565b91505f90505b94509492505050565b6060611c7084845f85855f5f866001600160a01b03168587604051613025919061392f565b5f6040518083038185875af1925050503d805f811461305f576040519150601f19603f3d011682016040523d82523d5f602084013e613064565b606091505b509150915061188987838387606083156130de5782515f036130d7576001600160a01b0385163b6130d75760405162461bcd60e51b815260206004820152601d60248201527f416464726573733a2063616c6c20746f206e6f6e2d636f6e747261637400000060448201526064016107bb565b5081611c70565b611c7083838151156130f35781518083602001fd5b8060405162461bcd60e51b81526004016107bb919061353f565b5f6020828403121561311d575f5ffd5b5035919050565b6001600160a01b03811681146119fe575f5ffd5b5f5f5f6060848603121561314a575f5ffd5b833561315581613124565b9250602084013561316581613124565b929592945050506040919091013590565b5f60408284031215613186575f5ffd5b50919050565b5f5f5f6080848603121561319e575f5ffd5b6131a88585613176565b92506040840135915060608401356131bf81613124565b809150509250925092565b5f5f5f5f608085870312156131dd575f5ffd5b84356131e881613124565b935060208501356131f881613124565b9250604085013561320881613124565b9396929550929360600135925050565b5f5f60608385031215613229575f5ffd5b6132338484613176565b946040939093013593505050565b5f8151808452602084019350602083015f5b8281101561327a5781516001600160a01b0316865260209586019590910190600101613253565b5093949350505050565b5f8151808452602084019350602083015f5b8281101561327a578151865260209586019590910190600101613296565b604081525f6132c66040830185613241565b82810360208401526132d88185613284565b95945050505050565b634e487b7160e01b5f52604160045260245ffd5b604051601f8201601f191681016001600160401b038111828210171561331d5761331d6132e1565b604052919050565b5f5f5f5f5f5f60c0878903121561333a575f5ffd5b863561334581613124565b9550602087013561335581613124565b945060408701359350606087013561336c81613124565b92506080870135915060a08701356001600160401b0381111561338d575f5ffd5b8701601f8101891361339d575f5ffd5b80356001600160401b038111156133b6576133b66132e1565b6133c9601f8201601f19166020016132f5565b8181528a60208385010111156133dd575f5ffd5b816020840160208301375f602083830101528093505050509295509295509295565b604080825283519082018190525f9060208501906060840190835b818110156134415783516001600160a01b031683526020938401939092019160010161341a565b505083810360208501526114848186613284565b602080825282518282018190525f918401906040840190835b818110156134a757835180516001600160a01b0316845260209081015163ffffffff16818501529093019260409092019160010161346e565b509095945050505050565b5f5f5f5f60a085870312156134c5575f5ffd5b6134cf8686613176565b93506040850135925060608501356134e681613124565b9396929550929360800135925050565b5f60208284031215613506575f5ffd5b813561143881613124565b5f81518084528060208401602086015e5f602082860101526020601f19601f83011685010191505092915050565b602081525f6114386020830184613511565b5f60208284031215613561575f5ffd5b813560ff81168114611438575f5ffd5b5f5f60208385031215613582575f5ffd5b82356001600160401b03811115613597575f5ffd5b8301601f810185136135a7575f5ffd5b80356001600160401b038111156135bc575f5ffd5b8560208260051b84010111156135d0575f5ffd5b6020919091019590945092505050565b5f604082840312156135f0575f5ffd5b6114388383613176565b602081525f6114386020830184613284565b5f5f5f5f5f5f60c08789031215613621575f5ffd5b863561362c81613124565b9550602087013561363c81613124565b9450604087013561364c81613124565b959894975094956060810135955060808101359460a0909101359350915050565b5f5f6040838503121561367e575f5ffd5b823561368981613124565b946020939093013593505050565b602081525f6114386020830184613241565b5f5f604083850312156136ba575f5ffd5b82356136c581613124565b915060208301356136d581613124565b809150509250929050565b803563ffffffff811681146136f3575f5ffd5b919050565b5f6040828403128015613709575f5ffd5b50604080519081016001600160401b038111828210171561372c5761372c6132e1565b604052823561373a81613124565b8152613748602084016136e0565b60208201529392505050565b803561375f81613124565b6001600160a01b0316825263ffffffff61377b602083016136e0565b1660208301525050565b604081016110648284613754565b5f602082840312156137a3575f5ffd5b815161143881613124565b6001600160a01b039384168152919092166020820152604081019190915260600190565b5f602082840312156137e2575f5ffd5b5051919050565b634e487b7160e01b5f52603260045260245ffd5b634e487b7160e01b5f52601160045260245ffd5b63ffffffff8181168382160190811115611064576110646137fd565b6080810161383b8286613754565b83604083015263ffffffff83166060830152949350505050565b60a081016138638287613754565b60408201949094526001600160a01b03929092166060830152608090910152919050565b5f60208284031215613897575f5ffd5b81518015158114611438575f5ffd5b80516020808301519190811015613186575f1960209190910360031b1b16919050565b80820180821115611064576110646137fd565b81810381811115611064576110646137fd565b634e487b7160e01b5f52602160045260245ffd5b634e487b7160e01b5f52603160045260245ffd5b828152604060208201525f611c706040830184613511565b5f82518060208501845e5f92019182525091905056fea264697066735822122041b1ef28d79666fb3d9afa8d5eef351e12e2c892ebb8f30c8979c42ca4cd7ef964736f6c634300081e0033",
    "linkReferences": {}
  },
  "methodIdentifiers": {
    "DEFAULT_BURN_ADDRESS()": "f3b4a000",
    "DEPOSIT_TYPEHASH()": "48825e94",
    "SLASH_RESOLUTION_DELAY_BLOCKS()": "07a79355",
    "addShares(address,address,uint256)": "50ff7225",
    "addStrategiesToDepositWhitelist(address[])": "5de08ff2",
    "allocationManager()": "ca8aa7c7",
    "burnShares(address)": "4b6d5d6e",
    "calculateStrategyDepositDigestHash(address,address,address,uint256,uint256,uint256)": "9ac01d61",
    "clearBurnOrRedistributableShares((address,uint32),uint256)": "88c10299",
    "clearBurnOrRedistributableSharesByStrategy((address,uint32),uint256,address)": "2d44def6",
    "delegation()": "df5cf723",
    "depositIntoStrategy(address,address,uint256)": "e7a050aa",
    "depositIntoStrategyWithSignature(address,address,uint256,address,uint256,bytes)": "32e89ace",
    "domainSeparator()": "f698da25",
    "getBurnOrRedistributableCount((address,uint32),uint256)": "829fca73",
    "getBurnOrRedistributableShares((address,uint32),uint256)": "31f8fb4c",
    "getBurnOrRedistributableShares((address,uint32),uint256,address)": "76fb162b",
    "getBurnableShares(address)": "fd980423",
    "getDeposits(address)": "94f649dd",
    "getPendingOperatorSets()": "3f292b08",
    "getPendingSlashIds((address,uint32))": "7def1564",
    "getSlashResolutionBlock((address,uint32),uint256)": "4b3262f7",
    "getStakerStrategyList(address)": "de44acb6",
    "getStrategiesWithBurnableShares()": "36a8c500",
    "increaseBurnOrRedistributableShares((address,uint32),uint256,address,uint256)": "3fb99ca5",
    "initialize(address,address,uint256)": "1794bb3c",
    "nonces(address)": "7ecebe00",
    "owner()": "8da5cb5b",
    "pause(uint256)": "136439dd",
    "pauseAll()": "595c6a67",
    "paused()": "5c975abb",
    "paused(uint8)": "5ac86ab7",
    "pauserRegistry()": "886f1195",
    "removeDepositShares(address,address,uint256)": "724af423",
    "removeStrategiesFromDepositWhitelist(address[])": "b5d8b5b8",
    "renounceOwnership()": "715018a6",
    "setStrategyWhitelister(address)": "c6656702",
    "stakerDepositShares(address,address)": "fe243a17",
    "stakerStrategyList(address,uint256)": "cbc2bd62",
    "stakerStrategyListLength(address)": "8b8aac3c",
    "strategyIsWhitelistedForDeposit(address)": "663c1de4",
    "strategyWhitelister()": "967fc0d2",
    "transferOwnership(address)": "f2fde38b",
    "unpause(uint256)": "fabc1cbc",
    "version()": "54fd4d50",
    "withdrawSharesAsTokens(address,address,address,uint256)": "2eae418c"
  },
  "id": 141
}