{
  "abi": [
    {
      "type": "constructor",
      "inputs": [
        {
          "name": "_allocationManager",
          "type": "address",
          "internalType": "contract IAllocationManager"
        },
        {
          "name": "_keyRegistrar",
          "type": "address",
          "internalType": "contract IKeyRegistrar"
        },
        {
          "name": "_permissionController",
          "type": "address",
          "internalType": "contract IPermissionController"
        },
        {
          "name": "_pauserRegistry",
          "type": "address",
          "internalType": "contract IPauserRegistry"
        },
        {
          "name": "_version",
          "type": "string",
          "internalType": "string"
        }
      ],
      "stateMutability": "nonpayable"
    },
    {
      "type": "function",
      "name": "addChainIDsToWhitelist",
      "inputs": [
        {
          "name": "chainIDs",
          "type": "uint256[]",
          "internalType": "uint256[]"
        },
        {
          "name": "operatorTableUpdaters",
          "type": "address[]",
          "internalType": "address[]"
        }
      ],
      "outputs": [],
      "stateMutability": "nonpayable"
    },
    {
      "type": "function",
      "name": "addTransportDestinations",
      "inputs": [
        {
          "name": "operatorSet",
          "type": "tuple",
          "internalType": "struct OperatorSet",
          "components": [
            {
              "name": "avs",
              "type": "address",
              "internalType": "address"
            },
            {
              "name": "id",
              "type": "uint32",
              "internalType": "uint32"
            }
          ]
        },
        {
          "name": "chainIDs",
          "type": "uint256[]",
          "internalType": "uint256[]"
        }
      ],
      "outputs": [],
      "stateMutability": "nonpayable"
    },
    {
      "type": "function",
      "name": "allocationManager",
      "inputs": [],
      "outputs": [
        {
          "name": "",
          "type": "address",
          "internalType": "contract IAllocationManager"
        }
      ],
      "stateMutability": "view"
    },
    {
      "type": "function",
      "name": "calculateOperatorTableBytes",
      "inputs": [
        {
          "name": "operatorSet",
          "type": "tuple",
          "internalType": "struct OperatorSet",
          "components": [
            {
              "name": "avs",
              "type": "address",
              "internalType": "address"
            },
            {
              "name": "id",
              "type": "uint32",
              "internalType": "uint32"
            }
          ]
        }
      ],
      "outputs": [
        {
          "name": "",
          "type": "bytes",
          "internalType": "bytes"
        }
      ],
      "stateMutability": "view"
    },
    {
      "type": "function",
      "name": "createGenerationReservation",
      "inputs": [
        {
          "name": "operatorSet",
          "type": "tuple",
          "internalType": "struct OperatorSet",
          "components": [
            {
              "name": "avs",
              "type": "address",
              "internalType": "address"
            },
            {
              "name": "id",
              "type": "uint32",
              "internalType": "uint32"
            }
          ]
        },
        {
          "name": "operatorTableCalculator",
          "type": "address",
          "internalType": "contract IOperatorTableCalculator"
        },
        {
          "name": "config",
          "type": "tuple",
          "internalType": "struct ICrossChainRegistryTypes.OperatorSetConfig",
          "components": [
            {
              "name": "owner",
              "type": "address",
              "internalType": "address"
            },
            {
              "name": "maxStalenessPeriod",
              "type": "uint32",
              "internalType": "uint32"
            }
          ]
        },
        {
          "name": "chainIDs",
          "type": "uint256[]",
          "internalType": "uint256[]"
        }
      ],
      "outputs": [],
      "stateMutability": "nonpayable"
    },
    {
      "type": "function",
      "name": "getActiveGenerationReservations",
      "inputs": [],
      "outputs": [
        {
          "name": "",
          "type": "tuple[]",
          "internalType": "struct OperatorSet[]",
          "components": [
            {
              "name": "avs",
              "type": "address",
              "internalType": "address"
            },
            {
              "name": "id",
              "type": "uint32",
              "internalType": "uint32"
            }
          ]
        }
      ],
      "stateMutability": "view"
    },
    {
      "type": "function",
      "name": "getActiveTransportReservations",
      "inputs": [],
      "outputs": [
        {
          "name": "",
          "type": "tuple[]",
          "internalType": "struct OperatorSet[]",
          "components": [
            {
              "name": "avs",
              "type": "address",
              "internalType": "address"
            },
            {
              "name": "id",
              "type": "uint32",
              "internalType": "uint32"
            }
          ]
        },
        {
          "name": "",
          "type": "uint256[][]",
          "internalType": "uint256[][]"
        }
      ],
      "stateMutability": "view"
    },
    {
      "type": "function",
      "name": "getOperatorSetConfig",
      "inputs": [
        {
          "name": "operatorSet",
          "type": "tuple",
          "internalType": "struct OperatorSet",
          "components": [
            {
              "name": "avs",
              "type": "address",
              "internalType": "address"
            },
            {
              "name": "id",
              "type": "uint32",
              "internalType": "uint32"
            }
          ]
        }
      ],
      "outputs": [
        {
          "name": "",
          "type": "tuple",
          "internalType": "struct ICrossChainRegistryTypes.OperatorSetConfig",
          "components": [
            {
              "name": "owner",
              "type": "address",
              "internalType": "address"
            },
            {
              "name": "maxStalenessPeriod",
              "type": "uint32",
              "internalType": "uint32"
            }
          ]
        }
      ],
      "stateMutability": "view"
    },
    {
      "type": "function",
      "name": "getOperatorTableCalculator",
      "inputs": [
        {
          "name": "operatorSet",
          "type": "tuple",
          "internalType": "struct OperatorSet",
          "components": [
            {
              "name": "avs",
              "type": "address",
              "internalType": "address"
            },
            {
              "name": "id",
              "type": "uint32",
              "internalType": "uint32"
            }
          ]
        }
      ],
      "outputs": [
        {
          "name": "",
          "type": "address",
          "internalType": "contract IOperatorTableCalculator"
        }
      ],
      "stateMutability": "view"
    },
    {
      "type": "function",
      "name": "getSupportedChains",
      "inputs": [],
      "outputs": [
        {
          "name": "",
          "type": "uint256[]",
          "internalType": "uint256[]"
        },
        {
          "name": "",
          "type": "address[]",
          "internalType": "address[]"
        }
      ],
      "stateMutability": "view"
    },
    {
      "type": "function",
      "name": "getTransportDestinations",
      "inputs": [
        {
          "name": "operatorSet",
          "type": "tuple",
          "internalType": "struct OperatorSet",
          "components": [
            {
              "name": "avs",
              "type": "address",
              "internalType": "address"
            },
            {
              "name": "id",
              "type": "uint32",
              "internalType": "uint32"
            }
          ]
        }
      ],
      "outputs": [
        {
          "name": "",
          "type": "uint256[]",
          "internalType": "uint256[]"
        }
      ],
      "stateMutability": "view"
    },
    {
      "type": "function",
      "name": "initialize",
      "inputs": [
        {
          "name": "initialOwner",
          "type": "address",
          "internalType": "address"
        },
        {
          "name": "initialPausedStatus",
          "type": "uint256",
          "internalType": "uint256"
        }
      ],
      "outputs": [],
      "stateMutability": "nonpayable"
    },
    {
      "type": "function",
      "name": "keyRegistrar",
      "inputs": [],
      "outputs": [
        {
          "name": "",
          "type": "address",
          "internalType": "contract IKeyRegistrar"
        }
      ],
      "stateMutability": "view"
    },
    {
      "type": "function",
      "name": "owner",
      "inputs": [],
      "outputs": [
        {
          "name": "",
          "type": "address",
          "internalType": "address"
        }
      ],
      "stateMutability": "view"
    },
    {
      "type": "function",
      "name": "pause",
      "inputs": [
        {
          "name": "newPausedStatus",
          "type": "uint256",
          "internalType": "uint256"
        }
      ],
      "outputs": [],
      "stateMutability": "nonpayable"
    },
    {
      "type": "function",
      "name": "pauseAll",
      "inputs": [],
      "outputs": [],
      "stateMutability": "nonpayable"
    },
    {
      "type": "function",
      "name": "paused",
      "inputs": [
        {
          "name": "index",
          "type": "uint8",
          "internalType": "uint8"
        }
      ],
      "outputs": [
        {
          "name": "",
          "type": "bool",
          "internalType": "bool"
        }
      ],
      "stateMutability": "view"
    },
    {
      "type": "function",
      "name": "paused",
      "inputs": [],
      "outputs": [
        {
          "name": "",
          "type": "uint256",
          "internalType": "uint256"
        }
      ],
      "stateMutability": "view"
    },
    {
      "type": "function",
      "name": "pauserRegistry",
      "inputs": [],
      "outputs": [
        {
          "name": "",
          "type": "address",
          "internalType": "contract IPauserRegistry"
        }
      ],
      "stateMutability": "view"
    },
    {
      "type": "function",
      "name": "permissionController",
      "inputs": [],
      "outputs": [
        {
          "name": "",
          "type": "address",
          "internalType": "contract IPermissionController"
        }
      ],
      "stateMutability": "view"
    },
    {
      "type": "function",
      "name": "removeChainIDsFromWhitelist",
      "inputs": [
        {
          "name": "chainIDs",
          "type": "uint256[]",
          "internalType": "uint256[]"
        }
      ],
      "outputs": [],
      "stateMutability": "nonpayable"
    },
    {
      "type": "function",
      "name": "removeGenerationReservation",
      "inputs": [
        {
          "name": "operatorSet",
          "type": "tuple",
          "internalType": "struct OperatorSet",
          "components": [
            {
              "name": "avs",
              "type": "address",
              "internalType": "address"
            },
            {
              "name": "id",
              "type": "uint32",
              "internalType": "uint32"
            }
          ]
        }
      ],
      "outputs": [],
      "stateMutability": "nonpayable"
    },
    {
      "type": "function",
      "name": "removeTransportDestinations",
      "inputs": [
        {
          "name": "operatorSet",
          "type": "tuple",
          "internalType": "struct OperatorSet",
          "components": [
            {
              "name": "avs",
              "type": "address",
              "internalType": "address"
            },
            {
              "name": "id",
              "type": "uint32",
              "internalType": "uint32"
            }
          ]
        },
        {
          "name": "chainIDs",
          "type": "uint256[]",
          "internalType": "uint256[]"
        }
      ],
      "outputs": [],
      "stateMutability": "nonpayable"
    },
    {
      "type": "function",
      "name": "renounceOwnership",
      "inputs": [],
      "outputs": [],
      "stateMutability": "nonpayable"
    },
    {
      "type": "function",
      "name": "setOperatorSetConfig",
      "inputs": [
        {
          "name": "operatorSet",
          "type": "tuple",
          "internalType": "struct OperatorSet",
          "components": [
            {
              "name": "avs",
              "type": "address",
              "internalType": "address"
            },
            {
              "name": "id",
              "type": "uint32",
              "internalType": "uint32"
            }
          ]
        },
        {
          "name": "config",
          "type": "tuple",
          "internalType": "struct ICrossChainRegistryTypes.OperatorSetConfig",
          "components": [
            {
              "name": "owner",
              "type": "address",
              "internalType": "address"
            },
            {
              "name": "maxStalenessPeriod",
              "type": "uint32",
              "internalType": "uint32"
            }
          ]
        }
      ],
      "outputs": [],
      "stateMutability": "nonpayable"
    },
    {
      "type": "function",
      "name": "setOperatorTableCalculator",
      "inputs": [
        {
          "name": "operatorSet",
          "type": "tuple",
          "internalType": "struct OperatorSet",
          "components": [
            {
              "name": "avs",
              "type": "address",
              "internalType": "address"
            },
            {
              "name": "id",
              "type": "uint32",
              "internalType": "uint32"
            }
          ]
        },
        {
          "name": "operatorTableCalculator",
          "type": "address",
          "internalType": "contract IOperatorTableCalculator"
        }
      ],
      "outputs": [],
      "stateMutability": "nonpayable"
    },
    {
      "type": "function",
      "name": "transferOwnership",
      "inputs": [
        {
          "name": "newOwner",
          "type": "address",
          "internalType": "address"
        }
      ],
      "outputs": [],
      "stateMutability": "nonpayable"
    },
    {
      "type": "function",
      "name": "unpause",
      "inputs": [
        {
          "name": "newPausedStatus",
          "type": "uint256",
          "internalType": "uint256"
        }
      ],
      "outputs": [],
      "stateMutability": "nonpayable"
    },
    {
      "type": "function",
      "name": "version",
      "inputs": [],
      "outputs": [
        {
          "name": "",
          "type": "string",
          "internalType": "string"
        }
      ],
      "stateMutability": "view"
    },
    {
      "type": "event",
      "name": "ChainIDAddedToWhitelist",
      "inputs": [
        {
          "name": "chainID",
          "type": "uint256",
          "indexed": false,
          "internalType": "uint256"
        },
        {
          "name": "operatorTableUpdater",
          "type": "address",
          "indexed": false,
          "internalType": "address"
        }
      ],
      "anonymous": false
    },
    {
      "type": "event",
      "name": "ChainIDRemovedFromWhitelist",
      "inputs": [
        {
          "name": "chainID",
          "type": "uint256",
          "indexed": false,
          "internalType": "uint256"
        }
      ],
      "anonymous": false
    },
    {
      "type": "event",
      "name": "GenerationReservationCreated",
      "inputs": [
        {
          "name": "operatorSet",
          "type": "tuple",
          "indexed": false,
          "internalType": "struct OperatorSet",
          "components": [
            {
              "name": "avs",
              "type": "address",
              "internalType": "address"
            },
            {
              "name": "id",
              "type": "uint32",
              "internalType": "uint32"
            }
          ]
        }
      ],
      "anonymous": false
    },
    {
      "type": "event",
      "name": "GenerationReservationRemoved",
      "inputs": [
        {
          "name": "operatorSet",
          "type": "tuple",
          "indexed": false,
          "internalType": "struct OperatorSet",
          "components": [
            {
              "name": "avs",
              "type": "address",
              "internalType": "address"
            },
            {
              "name": "id",
              "type": "uint32",
              "internalType": "uint32"
            }
          ]
        }
      ],
      "anonymous": false
    },
    {
      "type": "event",
      "name": "Initialized",
      "inputs": [
        {
          "name": "version",
          "type": "uint8",
          "indexed": false,
          "internalType": "uint8"
        }
      ],
      "anonymous": false
    },
    {
      "type": "event",
      "name": "OperatorSetConfigRemoved",
      "inputs": [
        {
          "name": "operatorSet",
          "type": "tuple",
          "indexed": false,
          "internalType": "struct OperatorSet",
          "components": [
            {
              "name": "avs",
              "type": "address",
              "internalType": "address"
            },
            {
              "name": "id",
              "type": "uint32",
              "internalType": "uint32"
            }
          ]
        }
      ],
      "anonymous": false
    },
    {
      "type": "event",
      "name": "OperatorSetConfigSet",
      "inputs": [
        {
          "name": "operatorSet",
          "type": "tuple",
          "indexed": false,
          "internalType": "struct OperatorSet",
          "components": [
            {
              "name": "avs",
              "type": "address",
              "internalType": "address"
            },
            {
              "name": "id",
              "type": "uint32",
              "internalType": "uint32"
            }
          ]
        },
        {
          "name": "config",
          "type": "tuple",
          "indexed": false,
          "internalType": "struct ICrossChainRegistryTypes.OperatorSetConfig",
          "components": [
            {
              "name": "owner",
              "type": "address",
              "internalType": "address"
            },
            {
              "name": "maxStalenessPeriod",
              "type": "uint32",
              "internalType": "uint32"
            }
          ]
        }
      ],
      "anonymous": false
    },
    {
      "type": "event",
      "name": "OperatorTableCalculatorRemoved",
      "inputs": [
        {
          "name": "operatorSet",
          "type": "tuple",
          "indexed": false,
          "internalType": "struct OperatorSet",
          "components": [
            {
              "name": "avs",
              "type": "address",
              "internalType": "address"
            },
            {
              "name": "id",
              "type": "uint32",
              "internalType": "uint32"
            }
          ]
        }
      ],
      "anonymous": false
    },
    {
      "type": "event",
      "name": "OperatorTableCalculatorSet",
      "inputs": [
        {
          "name": "operatorSet",
          "type": "tuple",
          "indexed": false,
          "internalType": "struct OperatorSet",
          "components": [
            {
              "name": "avs",
              "type": "address",
              "internalType": "address"
            },
            {
              "name": "id",
              "type": "uint32",
              "internalType": "uint32"
            }
          ]
        },
        {
          "name": "operatorTableCalculator",
          "type": "address",
          "indexed": false,
          "internalType": "contract IOperatorTableCalculator"
        }
      ],
      "anonymous": false
    },
    {
      "type": "event",
      "name": "OwnershipTransferred",
      "inputs": [
        {
          "name": "previousOwner",
          "type": "address",
          "indexed": true,
          "internalType": "address"
        },
        {
          "name": "newOwner",
          "type": "address",
          "indexed": true,
          "internalType": "address"
        }
      ],
      "anonymous": false
    },
    {
      "type": "event",
      "name": "Paused",
      "inputs": [
        {
          "name": "account",
          "type": "address",
          "indexed": true,
          "internalType": "address"
        },
        {
          "name": "newPausedStatus",
          "type": "uint256",
          "indexed": false,
          "internalType": "uint256"
        }
      ],
      "anonymous": false
    },
    {
      "type": "event",
      "name": "TransportDestinationChainAdded",
      "inputs": [
        {
          "name": "operatorSet",
          "type": "tuple",
          "indexed": false,
          "internalType": "struct OperatorSet",
          "components": [
            {
              "name": "avs",
              "type": "address",
              "internalType": "address"
            },
            {
              "name": "id",
              "type": "uint32",
              "internalType": "uint32"
            }
          ]
        },
        {
          "name": "chainID",
          "type": "uint256",
          "indexed": false,
          "internalType": "uint256"
        }
      ],
      "anonymous": false
    },
    {
      "type": "event",
      "name": "TransportDestinationChainRemoved",
      "inputs": [
        {
          "name": "operatorSet",
          "type": "tuple",
          "indexed": false,
          "internalType": "struct OperatorSet",
          "components": [
            {
              "name": "avs",
              "type": "address",
              "internalType": "address"
            },
            {
              "name": "id",
              "type": "uint32",
              "internalType": "uint32"
            }
          ]
        },
        {
          "name": "chainID",
          "type": "uint256",
          "indexed": false,
          "internalType": "uint256"
        }
      ],
      "anonymous": false
    },
    {
      "type": "event",
      "name": "TransportDestinationsRemoved",
      "inputs": [
        {
          "name": "operatorSet",
          "type": "tuple",
          "indexed": false,
          "internalType": "struct OperatorSet",
          "components": [
            {
              "name": "avs",
              "type": "address",
              "internalType": "address"
            },
            {
              "name": "id",
              "type": "uint32",
              "internalType": "uint32"
            }
          ]
        }
      ],
      "anonymous": false
    },
    {
      "type": "event",
      "name": "Unpaused",
      "inputs": [
        {
          "name": "account",
          "type": "address",
          "indexed": true,
          "internalType": "address"
        },
        {
          "name": "newPausedStatus",
          "type": "uint256",
          "indexed": false,
          "internalType": "uint256"
        }
      ],
      "anonymous": false
    },
    {
      "type": "error",
      "name": "ArrayLengthMismatch",
      "inputs": []
    },
    {
      "type": "error",
      "name": "ChainIDAlreadyWhitelisted",
      "inputs": []
    },
    {
      "type": "error",
      "name": "ChainIDNotWhitelisted",
      "inputs": []
    },
    {
      "type": "error",
      "name": "CurrentlyPaused",
      "inputs": []
    },
    {
      "type": "error",
      "name": "EmptyChainIDsArray",
      "inputs": []
    },
    {
      "type": "error",
      "name": "GenerationReservationAlreadyExists",
      "inputs": []
    },
    {
      "type": "error",
      "name": "GenerationReservationDoesNotExist",
      "inputs": []
    },
    {
      "type": "error",
      "name": "InputAddressZero",
      "inputs": []
    },
    {
      "type": "error",
      "name": "InvalidChainId",
      "inputs": []
    },
    {
      "type": "error",
      "name": "InvalidNewPausedStatus",
      "inputs": []
    },
    {
      "type": "error",
      "name": "InvalidOperatorSet",
      "inputs": []
    },
    {
      "type": "error",
      "name": "InvalidPermissions",
      "inputs": []
    },
    {
      "type": "error",
      "name": "InvalidShortString",
      "inputs": []
    },
    {
      "type": "error",
      "name": "OnlyPauser",
      "inputs": []
    },
    {
      "type": "error",
      "name": "OnlyUnpauser",
      "inputs": []
    },
    {
      "type": "error",
      "name": "RequireAtLeastOneTransportDestination",
      "inputs": []
    },
    {
      "type": "error",
      "name": "StringTooLong",
      "inputs": [
        {
          "name": "str",
          "type": "string",
          "internalType": "string"
        }
      ]
    },
    {
      "type": "error",
      "name": "TransportDestinationAlreadyAdded",
      "inputs": []
    },
    {
      "type": "error",
      "name": "TransportDestinationNotFound",
      "inputs": []
    }
  ],
  "bytecode": {
    "object": "0x610120604052348015610010575f5ffd5b50604051612e0c380380612e0c83398101604081905261002f916101c1565b80838686856001600160a01b03811661005b576040516339b190bb60e11b815260040160405180910390fd5b6001600160a01b0390811660805291821660a052811660c0521660e05261008181610098565b610100525061008e6100de565b5050505050610319565b5f5f829050601f815111156100cb578260405163305a27a960e01b81526004016100c291906102be565b60405180910390fd5b80516100d6826102f3565b179392505050565b5f54610100900460ff16156101455760405162461bcd60e51b815260206004820152602760248201527f496e697469616c697a61626c653a20636f6e747261637420697320696e697469604482015266616c697a696e6760c81b60648201526084016100c2565b5f5460ff90811614610194575f805460ff191660ff9081179091556040519081527f7f26b83ff96e1f2b6a682f133852f6798a09c465da95921460cefb38474024989060200160405180910390a15b565b6001600160a01b03811681146101aa575f5ffd5b50565b634e487b7160e01b5f52604160045260245ffd5b5f5f5f5f5f60a086880312156101d5575f5ffd5b85516101e081610196565b60208701519095506101f181610196565b604087015190945061020281610196565b606087015190935061021381610196565b60808701519092506001600160401b0381111561022e575f5ffd5b8601601f8101881361023e575f5ffd5b80516001600160401b03811115610257576102576101ad565b604051601f8201601f19908116603f011681016001600160401b0381118282101715610285576102856101ad565b6040528181528282016020018a101561029c575f5ffd5b8160208401602083015e5f602083830101528093505050509295509295909350565b602081525f82518060208401528060208501604085015e5f604082850101526040601f19601f83011684010191505092915050565b80516020808301519190811015610313575f198160200360031b1b821691505b50919050565b60805160a05160c05160e05161010051612a7061039c5f395f610c8b01525f81816102c50152611a9c01525f818161026601526109d401525f81816103e5015281816106630152818161080e01528181610b6d01528181610d1e0152818161157a015261174b01525f8181610381015281816119930152611f430152612a705ff3fe608060405234801561000f575f5ffd5b50600436106101c6575f3560e01c80636c55a37f116100fe578063ca8aa7c71161009e578063f2fde38b1161006e578063f2fde38b14610442578063f3e9f5d414610455578063fabc1cbc14610468578063fe596dee1461047b575f5ffd5b8063ca8aa7c7146103e0578063cd6dc68714610407578063d09b978b1461041a578063dfbd9dfd1461042f575f5ffd5b8063886f1195116100d9578063886f11951461037c5780638da5cb5b146103a3578063bfda3b3d146103b4578063c4bffe2b146103ca575f5ffd5b80636c55a37f1461034e578063715018a61461036157806375e4b53914610369575f5ffd5b806341ee6d0e1161016957806354fd4d501161014457806354fd4d50146102fa578063595c6a67146103025780635ac86ab71461030a5780635c975abb1461033d575f5ffd5b806341ee6d0e146102a05780634657e26a146102c057806349be7d6f146102e7575f5ffd5b806321fa7fdc116101a457806321fa7fdc14610205578063277e1e621461022e5780633c75fddf146102415780633ec45c7e14610261575f5ffd5b806304e98be3146101ca578063136439dd146101df5780631ca9142a146101f2575b5f5ffd5b6101dd6101d8366004612269565b61048e565b005b6101dd6101ed3660046122d3565b6105d2565b6101dd610200366004612314565b61060c565b610218610213366004612403565b610757565b604051610225919061243b565b60405180910390f35b6101dd61023c366004612449565b6107b7565b61025461024f366004612403565b6108f8565b60405161022591906124b6565b6102887f000000000000000000000000000000000000000000000000000000000000000081565b6040516001600160a01b039091168152602001610225565b6102b36102ae3660046124c8565b6109cf565b6040516102259190612510565b6102887f000000000000000000000000000000000000000000000000000000000000000081565b6101dd6102f5366004612522565b610b16565b6102b3610c84565b6101dd610cb4565b61032d610318366004612571565b606654600160ff9092169190911b9081161490565b6040519015158152602001610225565b606654604051908152602001610225565b6101dd61035c3660046124c8565b610cc8565b6101dd610f3e565b610288610377366004612403565b610f4f565b6102887f000000000000000000000000000000000000000000000000000000000000000081565b6033546001600160a01b0316610288565b6103bc610f7b565b6040516102259291906125cc565b6103d26110e7565b604051610225929190612669565b6102887f000000000000000000000000000000000000000000000000000000000000000081565b6101dd6104153660046126ca565b6111f0565b61042261130c565b60405161022591906126f4565b6101dd61043d366004612706565b6113fe565b6101dd610450366004612744565b6114aa565b6101dd610463366004612522565b611523565b6101dd6104763660046122d3565b611688565b6101dd61048936600461275f565b6116f5565b6104966118da565b60046104a181611934565b8382146104c15760405163512509d360e11b815260040160405180910390fd5b5f5b848110156105ca575f8686838181106104de576104de6127d3565b905060200201359050805f0361050757604051633d23e4d160e11b815260040160405180910390fd5b61053b8186868581811061051d5761051d6127d3565b90506020020160208101906105329190612744565b609c919061195f565b610558576040516324bf631b60e11b815260040160405180910390fd5b7f7a0a76d85b582b17996dd7371a407aa7a79b870db8539247fba315c7b6beff628186868581811061058c5761058c6127d3565b90506020020160208101906105a19190612744565b604080519283526001600160a01b0390911660208301520160405180910390a1506001016104c3565b505050505050565b6105da61197e565b60665481811681146105ff5760405163c61dca5d60e01b815260040160405180910390fd5b61060882611a21565b5050565b600161061781611934565b6106246020840184612744565b61062d81611a5e565b61064a5760405163932d94f760e01b815260040160405180910390fd5b6040516304c1b8eb60e31b815284906001600160a01b037f0000000000000000000000000000000000000000000000000000000000000000169063260dc75890610698908490600401612818565b602060405180830381865afa1580156106b3573d5f5f3e3d5ffd5b505050506040513d601f19601f820116820180604052508101906106d79190612826565b6106f457604051631fb1705560e21b815260040160405180910390fd5b8461072261070f61070a36849003840184612403565b611b0e565b5f90815260986020526040902054151590565b61073f57604051634d2baea960e11b815260040160405180910390fd5b6105ca61075136889003880188612403565b86611b71565b604080518082019091525f8082526020820152609a5f61077684611b0e565b815260208082019290925260409081015f208151808301909252546001600160a01b0381168252600160a01b900463ffffffff169181019190915292915050565b60026107c281611934565b6107cf6020840184612744565b6107d881611a5e565b6107f55760405163932d94f760e01b815260040160405180910390fd5b6040516304c1b8eb60e31b815284906001600160a01b037f0000000000000000000000000000000000000000000000000000000000000000169063260dc75890610843908490600401612818565b602060405180830381865afa15801561085e573d5f5f3e3d5ffd5b505050506040513d601f19601f820116820180604052508101906108829190612826565b61089f57604051631fb1705560e21b815260040160405180910390fd5b846108b561070f61070a36849003840184612403565b6108d257604051634d2baea960e11b815260040160405180910390fd5b6105ca6108e436889003880188612403565b6108f336889003880188612403565b611beb565b60605f609b5f61090785611b0e565b81526020019081526020015f2090505f61092082611c70565b90505f816001600160401b0381111561093b5761093b61234a565b604051908082528060200260200182016040528015610964578160200160208202803683370190505b5090505f805b838110156109c4575f61097d8683611c79565b905061098a609c82611c84565b156109bb57808484815181106109a2576109a26127d3565b6020908102919091010152826109b781612859565b9350505b5060010161096a565b508152949350505050565b6060817f00000000000000000000000000000000000000000000000000000000000000006001600160a01b0316637cffe48c846040518263ffffffff1660e01b8152600401610a1e9190612818565b602060405180830381865afa158015610a39573d5f5f3e3d5ffd5b505050506040513d601f19601f82011682018060405250810190610a5d9190612871565b610a6f61021336869003860186612403565b610a8161037736879003870187612403565b6001600160a01b03166341ee6d0e866040518263ffffffff1660e01b8152600401610aac9190612818565b5f60405180830381865afa158015610ac6573d5f5f3e3d5ffd5b505050506040513d5f823e601f3d908101601f19168201604052610aed919081019061288f565b604051602001610b009493929190612921565b6040516020818303038152906040529050919050565b6003610b2181611934565b610b2e6020850185612744565b610b3781611a5e565b610b545760405163932d94f760e01b815260040160405180910390fd5b6040516304c1b8eb60e31b815285906001600160a01b037f0000000000000000000000000000000000000000000000000000000000000000169063260dc75890610ba2908490600401612818565b602060405180830381865afa158015610bbd573d5f5f3e3d5ffd5b505050506040513d601f19601f82011682018060405250810190610be19190612826565b610bfe57604051631fb1705560e21b815260040160405180910390fd5b85610c1461070f61070a36849003840184612403565b610c3157604051634d2baea960e11b815260040160405180910390fd5b610c7b610c4336899003890189612403565b8787808060200260200160405190810160405280939291908181526020018383602002808284375f92019190915250611c8f92505050565b50505050505050565b6060610caf7f0000000000000000000000000000000000000000000000000000000000000000611d8b565b905090565b610cbc61197e565b610cc65f19611a21565b565b5f610cd281611934565b610cdf6020830183612744565b610ce881611a5e565b610d055760405163932d94f760e01b815260040160405180910390fd5b6040516304c1b8eb60e31b815283906001600160a01b037f0000000000000000000000000000000000000000000000000000000000000000169063260dc75890610d53908490600401612818565b602060405180830381865afa158015610d6e573d5f5f3e3d5ffd5b505050506040513d601f19601f82011682018060405250810190610d929190612826565b610daf57604051631fb1705560e21b815260040160405180910390fd5b83610dc561070f61070a36849003840184612403565b610de257604051634d2baea960e11b815260040160405180910390fd5b5f610df561070a36889003880188612403565b5f818152609960205260409081902080546001600160a01b0319169055519091507fd7811913efd5d98fc7ea0d1fdd022b3d31987815360842d05b1d1cf55578d16a90610e43908890612818565b60405180910390a15f818152609a60205260409081902080546001600160c01b0319169055517f210a1118a869246162804e2a7f21ef808ebd93f4be7ed512014fe29a7a8be02e90610e96908890612818565b60405180910390a15f818152609b60205260408120908181610eb882826121fb565b505050507faf209f19ac00e8ccb4539e96d4141cdc96fea479d258d99910307c7365e6875986604051610eeb9190612818565b60405180910390a1610efe609782611dc8565b507f4ffdfdd59e9e1e3c301608788f78dd458e61cb8c045ca92b62a7b484c80824fb86604051610f2e9190612818565b60405180910390a1505050505050565b610f466118da565b610cc65f611dd3565b5f60995f610f5c84611b0e565b815260208101919091526040015f20546001600160a01b031692915050565b6060805f610f896097611c70565b90505f816001600160401b03811115610fa457610fa461234a565b604051908082528060200260200182016040528015610fe857816020015b604080518082019091525f8082526020820152815260200190600190039081610fc25790505b5090505f826001600160401b038111156110045761100461234a565b60405190808252806020026020018201604052801561103757816020015b60608152602001906001900390816110225790505b5090505f5b838110156110dc575f611050609783611c79565b90505f61108c82604080518082019091525f80825260208201525060408051808201909152606082901c815263ffffffff909116602082015290565b9050808584815181106110a1576110a16127d3565b60200260200101819052506110b5816108f8565b8484815181106110c7576110c76127d3565b6020908102919091010152505060010161103c565b509094909350915050565b6060805f6110f5609c611e24565b90505f816001600160401b038111156111105761111061234a565b604051908082528060200260200182016040528015611139578160200160208202803683370190505b5090505f826001600160401b038111156111555761115561234a565b60405190808252806020026020018201604052801561117e578160200160208202803683370190505b5090505f5b838110156110dc575f80611198609c84611e2e565b91509150818584815181106111af576111af6127d3565b602002602001018181525050808484815181106111ce576111ce6127d3565b6001600160a01b03909216602092830291909101909101525050600101611183565b5f54610100900460ff161580801561120e57505f54600160ff909116105b806112275750303b15801561122757505f5460ff166001145b61128f5760405162461bcd60e51b815260206004820152602e60248201527f496e697469616c697a61626c653a20636f6e747261637420697320616c72656160448201526d191e481a5b9a5d1a585b1a5e995960921b60648201526084015b60405180910390fd5b5f805460ff1916600117905580156112b0575f805461ff0019166101001790555b6112b983611dd3565b6112c282611a21565b8015611307575f805461ff0019169055604051600181527f7f26b83ff96e1f2b6a682f133852f6798a09c465da95921460cefb38474024989060200160405180910390a15b505050565b60605f6113196097611c70565b90505f816001600160401b038111156113345761133461234a565b60405190808252806020026020018201604052801561137857816020015b604080518082019091525f80825260208201528152602001906001900390816113525790505b5090505f5b828110156113f7575f611391609783611c79565b90505f6113cd82604080518082019091525f80825260208201525060408051808201909152606082901c815263ffffffff909116602082015290565b9050808484815181106113e2576113e26127d3565b6020908102919091010152505060010161137d565b5092915050565b6114066118da565b600461141181611934565b5f5b828110156114a4575f84848381811061142e5761142e6127d3565b90506020020135905061144b81609c611e4b90919063ffffffff16565b6114685760405163b3f92ba160e01b815260040160405180910390fd5b6040518181527f6824d36084ecf2cd819b137cb5d837cc6e73afce1e0e348c9fdecaa81d0341e59060200160405180910390a150600101611413565b50505050565b6114b26118da565b6001600160a01b0381166115175760405162461bcd60e51b815260206004820152602660248201527f4f776e61626c653a206e6577206f776e657220697320746865207a65726f206160448201526564647265737360d01b6064820152608401611286565b61152081611dd3565b50565b600361152e81611934565b61153b6020850185612744565b61154481611a5e565b6115615760405163932d94f760e01b815260040160405180910390fd5b6040516304c1b8eb60e31b815285906001600160a01b037f0000000000000000000000000000000000000000000000000000000000000000169063260dc758906115af908490600401612818565b602060405180830381865afa1580156115ca573d5f5f3e3d5ffd5b505050506040513d601f19601f820116820180604052508101906115ee9190612826565b61160b57604051631fb1705560e21b815260040160405180910390fd5b8561162161070f61070a36849003840184612403565b61163e57604051634d2baea960e11b815260040160405180910390fd5b610c7b61165036899003890189612403565b8787808060200260200160405190810160405280939291908181526020018383602002808284375f92019190915250611e5692505050565b611690611f41565b606654801982198116146116b75760405163c61dca5d60e01b815260040160405180910390fd5b606682905560405182815233907f3582d1828e26bf56bd801502bc021ac0bc8afb57c826e4986b45593c8fad389c9060200160405180910390a25050565b5f6116ff81611934565b61170c6020870187612744565b61171581611a5e565b6117325760405163932d94f760e01b815260040160405180910390fd5b6040516304c1b8eb60e31b815287906001600160a01b037f0000000000000000000000000000000000000000000000000000000000000000169063260dc75890611780908490600401612818565b602060405180830381865afa15801561179b573d5f5f3e3d5ffd5b505050506040513d601f19601f820116820180604052508101906117bf9190612826565b6117dc57604051631fb1705560e21b815260040160405180910390fd5b6117f96117f161070a368b90038b018b612403565b609790611ff2565b61181657604051631883461560e01b815260040160405180910390fd5b7f4fb6efec7dd60036ce3a7af8d5c48425019daa0fb61eb471a966a7ac2c6fa6a6886040516118459190612818565b60405180910390a161186561185f368a90038a018a612403565b88611b71565b611886611877368a90038a018a612403565b6108f336899003890189612403565b6118d0611898368a90038a018a612403565b8686808060200260200160405190810160405280939291908181526020018383602002808284375f92019190915250611c8f92505050565b5050505050505050565b6033546001600160a01b03163314610cc65760405162461bcd60e51b815260206004820181905260248201527f4f776e61626c653a2063616c6c6572206973206e6f7420746865206f776e65726044820152606401611286565b606654600160ff83161b908116036115205760405163840a48d560e01b815260040160405180910390fd5b5f61197484846001600160a01b038516611ffd565b90505b9392505050565b60405163237dfb4760e11b81523360048201527f00000000000000000000000000000000000000000000000000000000000000006001600160a01b0316906346fbf68e90602401602060405180830381865afa1580156119e0573d5f5f3e3d5ffd5b505050506040513d601f19601f82011682018060405250810190611a049190612826565b610cc657604051631d77d47760e21b815260040160405180910390fd5b606681905560405181815233907fab40a374bc51de372200a8bc981af8c9ecdc08dfdaef0bb6e09f88f3c616ef3d9060200160405180910390a250565b604051631beb2b9760e31b81526001600160a01b0382811660048301523360248301523060448301525f80356001600160e01b0319166064840152917f00000000000000000000000000000000000000000000000000000000000000009091169063df595cb8906084016020604051808303815f875af1158015611ae4573d5f5f3e3d5ffd5b505050506040513d601f19601f82011682018060405250810190611b089190612826565b92915050565b5f815f0151826020015163ffffffff16604051602001611b5992919060609290921b6bffffffffffffffffffffffff1916825260a01b6001600160a01b031916601482015260200190565b604051602081830303815290604052611b0890612979565b8060995f611b7e85611b0e565b81526020019081526020015f205f6101000a8154816001600160a01b0302191690836001600160a01b031602179055507f7f7ccafd92d20fdb39dee184a0dce002a9da420ed0def461f2a027abc9b3f6df8282604051611bdf92919061299c565b60405180910390a15050565b80609a5f611bf885611b0e565b815260208082019290925260409081015f2083518154949093015163ffffffff16600160a01b026001600160c01b03199094166001600160a01b0390931692909217929092179055517f3147846ee526009000671c20380b856a633345691300f82585f90034715cf0e290611bdf90849084906129c2565b5f611b08825490565b5f6119778383612019565b5f611977838361203f565b5f815111611cb057604051638631a07560e01b815260040160405180910390fd5b5f611cba83611b0e565b90505f5b82518110156114a4575f838281518110611cda57611cda6127d3565b60200260200101519050611cf881609c611c8490919063ffffffff16565b611d155760405163b3f92ba160e01b815260040160405180910390fd5b5f838152609b60205260409020611d2c9082611ff2565b611d49576040516396d81ac960e01b815260040160405180910390fd5b7f57a1fcb3d9cd447695c46f20944ba562d9547989dcddea0afb119115060c7f0b8582604051611d7a9291906129dd565b60405180910390a150600101611cbe565b60605f611d9783612056565b6040805160208082528183019092529192505f91906020820181803683375050509182525060208101929092525090565b5f611977838361207d565b603380546001600160a01b038381166001600160a01b0319831681179093556040519116919082907f8be0079c531659141344cd1fd0a4f28419497f9722a3daafe3b4186f6b6457e0905f90a35050565b5f611b0882612160565b5f808080611e3c868661216a565b909450925050505b9250929050565b5f6119778383612193565b5f611e6083611b0e565b90505f5b8251811015611f0c575f838281518110611e8057611e806127d3565b60200260200101519050611ead81609b5f8681526020019081526020015f20611dc890919063ffffffff16565b611eca5760405163ab6cce0760e01b815260040160405180910390fd5b7f499955d838e6f0ca31e83adf81d191cfe6cd8fe252bf826c75c9a80ba077e25e8582604051611efb9291906129dd565b60405180910390a150600101611e64565b505f818152609b60205260408120611f2390611c70565b11611307576040516343629f7b60e01b815260040160405180910390fd5b7f00000000000000000000000000000000000000000000000000000000000000006001600160a01b031663eab66d7a6040518163ffffffff1660e01b8152600401602060405180830381865afa158015611f9d573d5f5f3e3d5ffd5b505050506040513d601f19601f82011682018060405250810190611fc191906129f8565b6001600160a01b0316336001600160a01b031614610cc65760405163794821ff60e01b815260040160405180910390fd5b5f61197783836121af565b5f82815260028401602052604081208290556119748484611ff2565b5f825f01828154811061202e5761202e6127d3565b905f5260205f200154905092915050565b5f8181526001830160205260408120541515611977565b5f60ff8216601f811115611b0857604051632cd44ac360e21b815260040160405180910390fd5b5f8181526001830160205260408120548015612157575f61209f600183612a13565b85549091505f906120b290600190612a13565b9050818114612111575f865f0182815481106120d0576120d06127d3565b905f5260205f200154905080875f0184815481106120f0576120f06127d3565b5f918252602080832090910192909255918252600188019052604090208390555b855486908061212257612122612a26565b600190038181905f5260205f20015f90559055856001015f8681526020019081526020015f205f905560019350505050611b08565b5f915050611b08565b5f611b0882611c70565b5f80806121778585611c79565b5f81815260029690960160205260409095205494959350505050565b5f81815260028301602052604081208190556119778383611dc8565b5f8181526001830160205260408120546121f457508154600181810184555f848152602080822090930184905584548482528286019093526040902091909155611b08565b505f611b08565b5080545f8255905f5260205f209081019061152091905b80821115612225575f8155600101612212565b5090565b5f5f83601f840112612239575f5ffd5b5081356001600160401b0381111561224f575f5ffd5b6020830191508360208260051b8501011115611e44575f5ffd5b5f5f5f5f6040858703121561227c575f5ffd5b84356001600160401b03811115612291575f5ffd5b61229d87828801612229565b90955093505060208501356001600160401b038111156122bb575f5ffd5b6122c787828801612229565b95989497509550505050565b5f602082840312156122e3575f5ffd5b5035919050565b5f604082840312156122fa575f5ffd5b50919050565b6001600160a01b0381168114611520575f5ffd5b5f5f60608385031215612325575f5ffd5b61232f84846122ea565b9150604083013561233f81612300565b809150509250929050565b634e487b7160e01b5f52604160045260245ffd5b604051601f8201601f191681016001600160401b03811182821017156123865761238661234a565b604052919050565b803563ffffffff811681146123a1575f5ffd5b919050565b5f604082840312156123b6575f5ffd5b604080519081016001600160401b03811182821017156123d8576123d861234a565b60405290508082356123e981612300565b81526123f76020840161238e565b60208201525092915050565b5f60408284031215612413575f5ffd5b61197783836123a6565b80516001600160a01b0316825260209081015163ffffffff16910152565b60408101611b08828461241d565b5f5f6080838503121561245a575f5ffd5b61246484846122ea565b915061247384604085016122ea565b90509250929050565b5f8151808452602084019350602083015f5b828110156124ac57815186526020958601959091019060010161248e565b5093949350505050565b602081525f611977602083018461247c565b5f604082840312156124d8575f5ffd5b61197783836122ea565b5f81518084528060208401602086015e5f602082860101526020601f19601f83011685010191505092915050565b602081525f61197760208301846124e2565b5f5f5f60608486031215612534575f5ffd5b61253e85856122ea565b925060408401356001600160401b03811115612558575f5ffd5b61256486828701612229565b9497909650939450505050565b5f60208284031215612581575f5ffd5b813560ff81168114611977575f5ffd5b5f8151808452602084019350602083015f5b828110156124ac576125b686835161241d565b60409590950194602091909101906001016125a3565b604081525f6125de6040830185612591565b828103602084015280845180835260208301915060208160051b840101602087015f5b8381101561265b57858303601f19018552815180518085526020918201918501905f5b81811015612642578351835260209384019390920191600101612624565b5050602096870196909450929092019150600101612601565b509098975050505050505050565b604081525f61267b604083018561247c565b82810360208401528084518083526020830191506020860192505f5b818110156126be5783516001600160a01b0316835260209384019390920191600101612697565b50909695505050505050565b5f5f604083850312156126db575f5ffd5b82356126e681612300565b946020939093013593505050565b602081525f6119776020830184612591565b5f5f60208385031215612717575f5ffd5b82356001600160401b0381111561272c575f5ffd5b61273885828601612229565b90969095509350505050565b5f60208284031215612754575f5ffd5b813561197781612300565b5f5f5f5f5f60c08688031215612773575f5ffd5b61277d87876122ea565b9450604086013561278d81612300565b935061279c87606088016122ea565b925060a08601356001600160401b038111156127b6575f5ffd5b6127c288828901612229565b969995985093965092949392505050565b634e487b7160e01b5f52603260045260245ffd5b80356127f281612300565b6001600160a01b0316825263ffffffff61280e6020830161238e565b1660208301525050565b60408101611b0882846127e7565b5f60208284031215612836575f5ffd5b81518015158114611977575f5ffd5b634e487b7160e01b5f52601160045260245ffd5b5f6001820161286a5761286a612845565b5060010190565b5f60208284031215612881575f5ffd5b815160038110611977575f5ffd5b5f6020828403121561289f575f5ffd5b81516001600160401b038111156128b4575f5ffd5b8201601f810184136128c4575f5ffd5b80516001600160401b038111156128dd576128dd61234a565b6128f0601f8201601f191660200161235e565b818152856020838501011115612904575f5ffd5b8160208401602083015e5f91810160200191909152949350505050565b61292b81866127e7565b5f6003851061294857634e487b7160e01b5f52602160045260245ffd5b84604083015261295b606083018561241d565b60c060a083015261296f60c08301846124e2565b9695505050505050565b805160208083015191908110156122fa575f1960209190910360031b1b16919050565b606081016129aa828561241d565b6001600160a01b039290921660409190910152919050565b608081016129d0828561241d565b611977604083018461241d565b606081016129eb828561241d565b8260408301529392505050565b5f60208284031215612a08575f5ffd5b815161197781612300565b81810381811115611b0857611b08612845565b634e487b7160e01b5f52603160045260245ffdfea2646970667358221220a9894e743107c53f5ad5a9029c18a5e1ae09fdc18096b68b45ee0a5fb25dc2f964736f6c634300081b0033",
    "linkReferences": {}
  },
  "methodIdentifiers": {
    "addChainIDsToWhitelist(uint256[],address[])": "04e98be3",
    "addTransportDestinations((address,uint32),uint256[])": "49be7d6f",
    "allocationManager()": "ca8aa7c7",
    "calculateOperatorTableBytes((address,uint32))": "41ee6d0e",
    "createGenerationReservation((address,uint32),address,(address,uint32),uint256[])": "fe596dee",
    "getActiveGenerationReservations()": "d09b978b",
    "getActiveTransportReservations()": "bfda3b3d",
    "getOperatorSetConfig((address,uint32))": "21fa7fdc",
    "getOperatorTableCalculator((address,uint32))": "75e4b539",
    "getSupportedChains()": "c4bffe2b",
    "getTransportDestinations((address,uint32))": "3c75fddf",
    "initialize(address,uint256)": "cd6dc687",
    "keyRegistrar()": "3ec45c7e",
    "owner()": "8da5cb5b",
    "pause(uint256)": "136439dd",
    "pauseAll()": "595c6a67",
    "paused()": "5c975abb",
    "paused(uint8)": "5ac86ab7",
    "pauserRegistry()": "886f1195",
    "permissionController()": "4657e26a",
    "removeChainIDsFromWhitelist(uint256[])": "dfbd9dfd",
    "removeGenerationReservation((address,uint32))": "6c55a37f",
    "removeTransportDestinations((address,uint32),uint256[])": "f3e9f5d4",
    "renounceOwnership()": "715018a6",
    "setOperatorSetConfig((address,uint32),(address,uint32))": "277e1e62",
    "setOperatorTableCalculator((address,uint32),address)": "1ca9142a",
    "transferOwnership(address)": "f2fde38b",
    "unpause(uint256)": "fabc1cbc",
    "version()": "54fd4d50"
  },
  "id": 177
}