{
  "abi": [
    {
      "type": "constructor",
      "inputs": [
        {
          "name": "eigen",
          "type": "address",
          "internalType": "contract IEigen"
        },
        {
          "name": "backingEigen",
          "type": "address",
          "internalType": "contract IBackingEigen"
        },
        {
          "name": "allocationManager",
          "type": "address",
          "internalType": "contract IAllocationManager"
        },
        {
          "name": "rewardsCoordinator",
          "type": "address",
          "internalType": "contract IRewardsCoordinator"
        },
        {
          "name": "pauserRegistry",
          "type": "address",
          "internalType": "contract IPauserRegistry"
        },
        {
          "name": "inflationRate",
          "type": "uint256",
          "internalType": "uint256"
        },
        {
          "name": "startTime",
          "type": "uint256",
          "internalType": "uint256"
        },
        {
          "name": "cooldownSeconds",
          "type": "uint256",
          "internalType": "uint256"
        },
        {
          "name": "calculationIntervalSeconds",
          "type": "uint256",
          "internalType": "uint256"
        }
      ],
      "stateMutability": "nonpayable"
    },
    {
      "type": "function",
      "name": "ALLOCATION_MANAGER",
      "inputs": [],
      "outputs": [
        {
          "name": "",
          "type": "address",
          "internalType": "contract IAllocationManager"
        }
      ],
      "stateMutability": "view"
    },
    {
      "type": "function",
      "name": "BACKING_EIGEN",
      "inputs": [],
      "outputs": [
        {
          "name": "",
          "type": "address",
          "internalType": "contract IBackingEigen"
        }
      ],
      "stateMutability": "view"
    },
    {
      "type": "function",
      "name": "EIGEN",
      "inputs": [],
      "outputs": [
        {
          "name": "",
          "type": "address",
          "internalType": "contract IEigen"
        }
      ],
      "stateMutability": "view"
    },
    {
      "type": "function",
      "name": "EMISSIONS_EPOCH_LENGTH",
      "inputs": [],
      "outputs": [
        {
          "name": "",
          "type": "uint256",
          "internalType": "uint256"
        }
      ],
      "stateMutability": "view"
    },
    {
      "type": "function",
      "name": "EMISSIONS_INFLATION_RATE",
      "inputs": [],
      "outputs": [
        {
          "name": "",
          "type": "uint256",
          "internalType": "uint256"
        }
      ],
      "stateMutability": "view"
    },
    {
      "type": "function",
      "name": "EMISSIONS_START_TIME",
      "inputs": [],
      "outputs": [
        {
          "name": "",
          "type": "uint256",
          "internalType": "uint256"
        }
      ],
      "stateMutability": "view"
    },
    {
      "type": "function",
      "name": "MAX_TOTAL_WEIGHT",
      "inputs": [],
      "outputs": [
        {
          "name": "",
          "type": "uint256",
          "internalType": "uint256"
        }
      ],
      "stateMutability": "view"
    },
    {
      "type": "function",
      "name": "REWARDS_COORDINATOR",
      "inputs": [],
      "outputs": [
        {
          "name": "",
          "type": "address",
          "internalType": "contract IRewardsCoordinator"
        }
      ],
      "stateMutability": "view"
    },
    {
      "type": "function",
      "name": "addDistribution",
      "inputs": [
        {
          "name": "distribution",
          "type": "tuple",
          "internalType": "struct IEmissionsControllerTypes.Distribution",
          "components": [
            {
              "name": "weight",
              "type": "uint64",
              "internalType": "uint64"
            },
            {
              "name": "startEpoch",
              "type": "uint64",
              "internalType": "uint64"
            },
            {
              "name": "totalEpochs",
              "type": "uint64",
              "internalType": "uint64"
            },
            {
              "name": "distributionType",
              "type": "uint8",
              "internalType": "enum IEmissionsControllerTypes.DistributionType"
            },
            {
              "name": "operatorSet",
              "type": "tuple",
              "internalType": "struct OperatorSet",
              "components": [
                {
                  "name": "avs",
                  "type": "address",
                  "internalType": "address"
                },
                {
                  "name": "id",
                  "type": "uint32",
                  "internalType": "uint32"
                }
              ]
            },
            {
              "name": "strategiesAndMultipliers",
              "type": "tuple[][]",
              "internalType": "struct IRewardsCoordinatorTypes.StrategyAndMultiplier[][]",
              "components": [
                {
                  "name": "strategy",
                  "type": "address",
                  "internalType": "contract IStrategy"
                },
                {
                  "name": "multiplier",
                  "type": "uint96",
                  "internalType": "uint96"
                }
              ]
            }
          ]
        }
      ],
      "outputs": [
        {
          "name": "distributionId",
          "type": "uint256",
          "internalType": "uint256"
        }
      ],
      "stateMutability": "nonpayable"
    },
    {
      "type": "function",
      "name": "getCurrentEpoch",
      "inputs": [],
      "outputs": [
        {
          "name": "",
          "type": "uint256",
          "internalType": "uint256"
        }
      ],
      "stateMutability": "view"
    },
    {
      "type": "function",
      "name": "getDistribution",
      "inputs": [
        {
          "name": "distributionId",
          "type": "uint256",
          "internalType": "uint256"
        }
      ],
      "outputs": [
        {
          "name": "",
          "type": "tuple",
          "internalType": "struct IEmissionsControllerTypes.Distribution",
          "components": [
            {
              "name": "weight",
              "type": "uint64",
              "internalType": "uint64"
            },
            {
              "name": "startEpoch",
              "type": "uint64",
              "internalType": "uint64"
            },
            {
              "name": "totalEpochs",
              "type": "uint64",
              "internalType": "uint64"
            },
            {
              "name": "distributionType",
              "type": "uint8",
              "internalType": "enum IEmissionsControllerTypes.DistributionType"
            },
            {
              "name": "operatorSet",
              "type": "tuple",
              "internalType": "struct OperatorSet",
              "components": [
                {
                  "name": "avs",
                  "type": "address",
                  "internalType": "address"
                },
                {
                  "name": "id",
                  "type": "uint32",
                  "internalType": "uint32"
                }
              ]
            },
            {
              "name": "strategiesAndMultipliers",
              "type": "tuple[][]",
              "internalType": "struct IRewardsCoordinatorTypes.StrategyAndMultiplier[][]",
              "components": [
                {
                  "name": "strategy",
                  "type": "address",
                  "internalType": "contract IStrategy"
                },
                {
                  "name": "multiplier",
                  "type": "uint96",
                  "internalType": "uint96"
                }
              ]
            }
          ]
        }
      ],
      "stateMutability": "view"
    },
    {
      "type": "function",
      "name": "getDistributions",
      "inputs": [
        {
          "name": "start",
          "type": "uint256",
          "internalType": "uint256"
        },
        {
          "name": "length",
          "type": "uint256",
          "internalType": "uint256"
        }
      ],
      "outputs": [
        {
          "name": "distributions",
          "type": "tuple[]",
          "internalType": "struct IEmissionsControllerTypes.Distribution[]",
          "components": [
            {
              "name": "weight",
              "type": "uint64",
              "internalType": "uint64"
            },
            {
              "name": "startEpoch",
              "type": "uint64",
              "internalType": "uint64"
            },
            {
              "name": "totalEpochs",
              "type": "uint64",
              "internalType": "uint64"
            },
            {
              "name": "distributionType",
              "type": "uint8",
              "internalType": "enum IEmissionsControllerTypes.DistributionType"
            },
            {
              "name": "operatorSet",
              "type": "tuple",
              "internalType": "struct OperatorSet",
              "components": [
                {
                  "name": "avs",
                  "type": "address",
                  "internalType": "address"
                },
                {
                  "name": "id",
                  "type": "uint32",
                  "internalType": "uint32"
                }
              ]
            },
            {
              "name": "strategiesAndMultipliers",
              "type": "tuple[][]",
              "internalType": "struct IRewardsCoordinatorTypes.StrategyAndMultiplier[][]",
              "components": [
                {
                  "name": "strategy",
                  "type": "address",
                  "internalType": "contract IStrategy"
                },
                {
                  "name": "multiplier",
                  "type": "uint96",
                  "internalType": "uint96"
                }
              ]
            }
          ]
        }
      ],
      "stateMutability": "view"
    },
    {
      "type": "function",
      "name": "getTotalProcessableDistributions",
      "inputs": [],
      "outputs": [
        {
          "name": "",
          "type": "uint256",
          "internalType": "uint256"
        }
      ],
      "stateMutability": "view"
    },
    {
      "type": "function",
      "name": "incentiveCouncil",
      "inputs": [],
      "outputs": [
        {
          "name": "",
          "type": "address",
          "internalType": "address"
        }
      ],
      "stateMutability": "view"
    },
    {
      "type": "function",
      "name": "initialize",
      "inputs": [
        {
          "name": "initialOwner",
          "type": "address",
          "internalType": "address"
        },
        {
          "name": "initialIncentiveCouncil",
          "type": "address",
          "internalType": "address"
        },
        {
          "name": "initialPausedStatus",
          "type": "uint256",
          "internalType": "uint256"
        }
      ],
      "outputs": [],
      "stateMutability": "nonpayable"
    },
    {
      "type": "function",
      "name": "isButtonPressable",
      "inputs": [],
      "outputs": [
        {
          "name": "",
          "type": "bool",
          "internalType": "bool"
        }
      ],
      "stateMutability": "view"
    },
    {
      "type": "function",
      "name": "lastTimeButtonPressable",
      "inputs": [],
      "outputs": [
        {
          "name": "",
          "type": "uint256",
          "internalType": "uint256"
        }
      ],
      "stateMutability": "view"
    },
    {
      "type": "function",
      "name": "nextTimeButtonPressable",
      "inputs": [],
      "outputs": [
        {
          "name": "",
          "type": "uint256",
          "internalType": "uint256"
        }
      ],
      "stateMutability": "view"
    },
    {
      "type": "function",
      "name": "owner",
      "inputs": [],
      "outputs": [
        {
          "name": "",
          "type": "address",
          "internalType": "address"
        }
      ],
      "stateMutability": "view"
    },
    {
      "type": "function",
      "name": "pause",
      "inputs": [
        {
          "name": "newPausedStatus",
          "type": "uint256",
          "internalType": "uint256"
        }
      ],
      "outputs": [],
      "stateMutability": "nonpayable"
    },
    {
      "type": "function",
      "name": "pauseAll",
      "inputs": [],
      "outputs": [],
      "stateMutability": "nonpayable"
    },
    {
      "type": "function",
      "name": "paused",
      "inputs": [
        {
          "name": "index",
          "type": "uint8",
          "internalType": "uint8"
        }
      ],
      "outputs": [
        {
          "name": "",
          "type": "bool",
          "internalType": "bool"
        }
      ],
      "stateMutability": "view"
    },
    {
      "type": "function",
      "name": "paused",
      "inputs": [],
      "outputs": [
        {
          "name": "",
          "type": "uint256",
          "internalType": "uint256"
        }
      ],
      "stateMutability": "view"
    },
    {
      "type": "function",
      "name": "pauserRegistry",
      "inputs": [],
      "outputs": [
        {
          "name": "",
          "type": "address",
          "internalType": "contract IPauserRegistry"
        }
      ],
      "stateMutability": "view"
    },
    {
      "type": "function",
      "name": "pressButton",
      "inputs": [
        {
          "name": "length",
          "type": "uint256",
          "internalType": "uint256"
        }
      ],
      "outputs": [],
      "stateMutability": "nonpayable"
    },
    {
      "type": "function",
      "name": "renounceOwnership",
      "inputs": [],
      "outputs": [],
      "stateMutability": "nonpayable"
    },
    {
      "type": "function",
      "name": "setIncentiveCouncil",
      "inputs": [
        {
          "name": "newIncentiveCouncil",
          "type": "address",
          "internalType": "address"
        }
      ],
      "outputs": [],
      "stateMutability": "nonpayable"
    },
    {
      "type": "function",
      "name": "sweep",
      "inputs": [],
      "outputs": [],
      "stateMutability": "nonpayable"
    },
    {
      "type": "function",
      "name": "totalWeight",
      "inputs": [],
      "outputs": [
        {
          "name": "",
          "type": "uint16",
          "internalType": "uint16"
        }
      ],
      "stateMutability": "view"
    },
    {
      "type": "function",
      "name": "transferOwnership",
      "inputs": [
        {
          "name": "newOwner",
          "type": "address",
          "internalType": "address"
        }
      ],
      "outputs": [],
      "stateMutability": "nonpayable"
    },
    {
      "type": "function",
      "name": "unpause",
      "inputs": [
        {
          "name": "newPausedStatus",
          "type": "uint256",
          "internalType": "uint256"
        }
      ],
      "outputs": [],
      "stateMutability": "nonpayable"
    },
    {
      "type": "function",
      "name": "updateDistribution",
      "inputs": [
        {
          "name": "distributionId",
          "type": "uint256",
          "internalType": "uint256"
        },
        {
          "name": "distribution",
          "type": "tuple",
          "internalType": "struct IEmissionsControllerTypes.Distribution",
          "components": [
            {
              "name": "weight",
              "type": "uint64",
              "internalType": "uint64"
            },
            {
              "name": "startEpoch",
              "type": "uint64",
              "internalType": "uint64"
            },
            {
              "name": "totalEpochs",
              "type": "uint64",
              "internalType": "uint64"
            },
            {
              "name": "distributionType",
              "type": "uint8",
              "internalType": "enum IEmissionsControllerTypes.DistributionType"
            },
            {
              "name": "operatorSet",
              "type": "tuple",
              "internalType": "struct OperatorSet",
              "components": [
                {
                  "name": "avs",
                  "type": "address",
                  "internalType": "address"
                },
                {
                  "name": "id",
                  "type": "uint32",
                  "internalType": "uint32"
                }
              ]
            },
            {
              "name": "strategiesAndMultipliers",
              "type": "tuple[][]",
              "internalType": "struct IRewardsCoordinatorTypes.StrategyAndMultiplier[][]",
              "components": [
                {
                  "name": "strategy",
                  "type": "address",
                  "internalType": "contract IStrategy"
                },
                {
                  "name": "multiplier",
                  "type": "uint96",
                  "internalType": "uint96"
                }
              ]
            }
          ]
        }
      ],
      "outputs": [],
      "stateMutability": "nonpayable"
    },
    {
      "type": "event",
      "name": "DistributionAdded",
      "inputs": [
        {
          "name": "distributionId",
          "type": "uint256",
          "indexed": true,
          "internalType": "uint256"
        },
        {
          "name": "epoch",
          "type": "uint256",
          "indexed": true,
          "internalType": "uint256"
        },
        {
          "name": "distribution",
          "type": "tuple",
          "indexed": false,
          "internalType": "struct IEmissionsControllerTypes.Distribution",
          "components": [
            {
              "name": "weight",
              "type": "uint64",
              "internalType": "uint64"
            },
            {
              "name": "startEpoch",
              "type": "uint64",
              "internalType": "uint64"
            },
            {
              "name": "totalEpochs",
              "type": "uint64",
              "internalType": "uint64"
            },
            {
              "name": "distributionType",
              "type": "uint8",
              "internalType": "enum IEmissionsControllerTypes.DistributionType"
            },
            {
              "name": "operatorSet",
              "type": "tuple",
              "internalType": "struct OperatorSet",
              "components": [
                {
                  "name": "avs",
                  "type": "address",
                  "internalType": "address"
                },
                {
                  "name": "id",
                  "type": "uint32",
                  "internalType": "uint32"
                }
              ]
            },
            {
              "name": "strategiesAndMultipliers",
              "type": "tuple[][]",
              "internalType": "struct IRewardsCoordinatorTypes.StrategyAndMultiplier[][]",
              "components": [
                {
                  "name": "strategy",
                  "type": "address",
                  "internalType": "contract IStrategy"
                },
                {
                  "name": "multiplier",
                  "type": "uint96",
                  "internalType": "uint96"
                }
              ]
            }
          ]
        }
      ],
      "anonymous": false
    },
    {
      "type": "event",
      "name": "DistributionProcessed",
      "inputs": [
        {
          "name": "distributionId",
          "type": "uint256",
          "indexed": true,
          "internalType": "uint256"
        },
        {
          "name": "epoch",
          "type": "uint256",
          "indexed": true,
          "internalType": "uint256"
        },
        {
          "name": "distribution",
          "type": "tuple",
          "indexed": false,
          "internalType": "struct IEmissionsControllerTypes.Distribution",
          "components": [
            {
              "name": "weight",
              "type": "uint64",
              "internalType": "uint64"
            },
            {
              "name": "startEpoch",
              "type": "uint64",
              "internalType": "uint64"
            },
            {
              "name": "totalEpochs",
              "type": "uint64",
              "internalType": "uint64"
            },
            {
              "name": "distributionType",
              "type": "uint8",
              "internalType": "enum IEmissionsControllerTypes.DistributionType"
            },
            {
              "name": "operatorSet",
              "type": "tuple",
              "internalType": "struct OperatorSet",
              "components": [
                {
                  "name": "avs",
                  "type": "address",
                  "internalType": "address"
                },
                {
                  "name": "id",
                  "type": "uint32",
                  "internalType": "uint32"
                }
              ]
            },
            {
              "name": "strategiesAndMultipliers",
              "type": "tuple[][]",
              "internalType": "struct IRewardsCoordinatorTypes.StrategyAndMultiplier[][]",
              "components": [
                {
                  "name": "strategy",
                  "type": "address",
                  "internalType": "contract IStrategy"
                },
                {
                  "name": "multiplier",
                  "type": "uint96",
                  "internalType": "uint96"
                }
              ]
            }
          ]
        },
        {
          "name": "success",
          "type": "bool",
          "indexed": false,
          "internalType": "bool"
        }
      ],
      "anonymous": false
    },
    {
      "type": "event",
      "name": "DistributionUpdated",
      "inputs": [
        {
          "name": "distributionId",
          "type": "uint256",
          "indexed": true,
          "internalType": "uint256"
        },
        {
          "name": "epoch",
          "type": "uint256",
          "indexed": true,
          "internalType": "uint256"
        },
        {
          "name": "distribution",
          "type": "tuple",
          "indexed": false,
          "internalType": "struct IEmissionsControllerTypes.Distribution",
          "components": [
            {
              "name": "weight",
              "type": "uint64",
              "internalType": "uint64"
            },
            {
              "name": "startEpoch",
              "type": "uint64",
              "internalType": "uint64"
            },
            {
              "name": "totalEpochs",
              "type": "uint64",
              "internalType": "uint64"
            },
            {
              "name": "distributionType",
              "type": "uint8",
              "internalType": "enum IEmissionsControllerTypes.DistributionType"
            },
            {
              "name": "operatorSet",
              "type": "tuple",
              "internalType": "struct OperatorSet",
              "components": [
                {
                  "name": "avs",
                  "type": "address",
                  "internalType": "address"
                },
                {
                  "name": "id",
                  "type": "uint32",
                  "internalType": "uint32"
                }
              ]
            },
            {
              "name": "strategiesAndMultipliers",
              "type": "tuple[][]",
              "internalType": "struct IRewardsCoordinatorTypes.StrategyAndMultiplier[][]",
              "components": [
                {
                  "name": "strategy",
                  "type": "address",
                  "internalType": "contract IStrategy"
                },
                {
                  "name": "multiplier",
                  "type": "uint96",
                  "internalType": "uint96"
                }
              ]
            }
          ]
        }
      ],
      "anonymous": false
    },
    {
      "type": "event",
      "name": "IncentiveCouncilUpdated",
      "inputs": [
        {
          "name": "incentiveCouncil",
          "type": "address",
          "indexed": true,
          "internalType": "address"
        }
      ],
      "anonymous": false
    },
    {
      "type": "event",
      "name": "Initialized",
      "inputs": [
        {
          "name": "version",
          "type": "uint8",
          "indexed": false,
          "internalType": "uint8"
        }
      ],
      "anonymous": false
    },
    {
      "type": "event",
      "name": "OwnershipTransferred",
      "inputs": [
        {
          "name": "previousOwner",
          "type": "address",
          "indexed": true,
          "internalType": "address"
        },
        {
          "name": "newOwner",
          "type": "address",
          "indexed": true,
          "internalType": "address"
        }
      ],
      "anonymous": false
    },
    {
      "type": "event",
      "name": "Paused",
      "inputs": [
        {
          "name": "account",
          "type": "address",
          "indexed": true,
          "internalType": "address"
        },
        {
          "name": "newPausedStatus",
          "type": "uint256",
          "indexed": false,
          "internalType": "uint256"
        }
      ],
      "anonymous": false
    },
    {
      "type": "event",
      "name": "Swept",
      "inputs": [
        {
          "name": "incentiveCouncil",
          "type": "address",
          "indexed": true,
          "internalType": "address"
        },
        {
          "name": "amount",
          "type": "uint256",
          "indexed": false,
          "internalType": "uint256"
        }
      ],
      "anonymous": false
    },
    {
      "type": "event",
      "name": "Unpaused",
      "inputs": [
        {
          "name": "account",
          "type": "address",
          "indexed": true,
          "internalType": "address"
        },
        {
          "name": "newPausedStatus",
          "type": "uint256",
          "indexed": false,
          "internalType": "uint256"
        }
      ],
      "anonymous": false
    },
    {
      "type": "error",
      "name": "AllDistributionsMustBeProcessed",
      "inputs": []
    },
    {
      "type": "error",
      "name": "AllDistributionsProcessed",
      "inputs": []
    },
    {
      "type": "error",
      "name": "CallerIsNotIncentiveCouncil",
      "inputs": []
    },
    {
      "type": "error",
      "name": "CannotAddDisabledDistribution",
      "inputs": []
    },
    {
      "type": "error",
      "name": "CurrentlyPaused",
      "inputs": []
    },
    {
      "type": "error",
      "name": "EmissionsNotStarted",
      "inputs": []
    },
    {
      "type": "error",
      "name": "EpochLengthNotAlignedWithCalculationInterval",
      "inputs": []
    },
    {
      "type": "error",
      "name": "InputAddressZero",
      "inputs": []
    },
    {
      "type": "error",
      "name": "InvalidDistributionType",
      "inputs": []
    },
    {
      "type": "error",
      "name": "InvalidNewPausedStatus",
      "inputs": []
    },
    {
      "type": "error",
      "name": "MaliciousCallDetected",
      "inputs": []
    },
    {
      "type": "error",
      "name": "OnlyPauser",
      "inputs": []
    },
    {
      "type": "error",
      "name": "OnlyUnpauser",
      "inputs": []
    },
    {
      "type": "error",
      "name": "OperatorSetNotRegistered",
      "inputs": []
    },
    {
      "type": "error",
      "name": "RewardsSubmissionsCannotBeEmpty",
      "inputs": []
    },
    {
      "type": "error",
      "name": "StartEpochMustBeInTheFuture",
      "inputs": []
    },
    {
      "type": "error",
      "name": "StartTimeNotAlignedWithCalculationInterval",
      "inputs": []
    },
    {
      "type": "error",
      "name": "TotalWeightExceedsMax",
      "inputs": []
    }
  ],
  "bytecode": {
    "object": "0x610180604052348015610010575f5ffd5b506040516135a83803806135a883398101604081905261002f916101d7565b88888888878787878c6001600160a01b03811661005f576040516339b190bb60e11b815260040160405180910390fd5b6001600160a01b0316608052610075818361026e565b1561009357604051630cb091bf60e01b815260040160405180910390fd5b61009d818461026e565b156100bb57604051632f545d3f60e01b815260040160405180910390fd5b506001600160a01b0396871660a05294861660c05292851660e0529316610100526101209290925261014091909152610160526100f6610104565b50505050505050505061028d565b5f54610100900460ff161561016f5760405162461bcd60e51b815260206004820152602760248201527f496e697469616c697a61626c653a20636f6e747261637420697320696e697469604482015266616c697a696e6760c81b606482015260840160405180910390fd5b5f5460ff908116146101be575f805460ff191660ff9081179091556040519081527f7f26b83ff96e1f2b6a682f133852f6798a09c465da95921460cefb38474024989060200160405180910390a15b565b6001600160a01b03811681146101d4575f5ffd5b50565b5f5f5f5f5f5f5f5f5f6101208a8c0312156101f0575f5ffd5b89516101fb816101c0565b60208b015190995061020c816101c0565b60408b015190985061021d816101c0565b60608b015190975061022e816101c0565b60808b015190965061023f816101c0565b60a08b015160c08c015160e08d0151610100909d01519b9e9a9d50989b979a9199909897965090945092505050565b5f8261028857634e487b7160e01b5f52601260045260245ffd5b500690565b60805160a05160c05160e051610100516101205161014051610160516131f56103b35f395f81816103ea01528181610ef301528181611344015281816115a6015281816116c70152611b6101525f818161043701528181610f1d0152818161131601528181611368015281816115d0015261169101525f81816102e101528181610c4401528181610d1401528181610dba01528181610e4c01526119f201525f818161035301528181610cec01526122a601525f81816102540152611f1601525f818161047901528181610c6a0152610de001525f81816104d6015281816108bf0152818161095c01528181610c1c01528181610d3a01528181610e7201528181611b200152611da501525f818161037a0152818161176d015261211f01526131f55ff3fe608060405234801561000f575f5ffd5b50600436106101e7575f3560e01c80638da5cb5b11610109578063cd1e341b1161009e578063f2fde38b1161006e578063f2fde38b146104a3578063f769479f146104b6578063fabc1cbc146104be578063fdc371ce146104d1575f5ffd5b8063cd1e341b14610459578063d44b1c9e1461046c578063d455724e14610474578063d83931501461049b575f5ffd5b8063c2f208e4116100d9578063c2f208e4146103e5578063c44cb7271461040c578063c695acdb1461041f578063c9d3eff914610432575f5ffd5b80638da5cb5b1461039c57806396c82e57146103ad578063b97dd9e2146103d5578063be851337146103dd575f5ffd5b806344a320281161017f5780635c975abb1161014f5780635c975abb1461033e578063715018a61461034657806371e2c2641461034e578063886f119514610375575f5ffd5b806344a32028146102c957806347a28ea2146102dc578063595c6a67146103035780635ac86ab71461030b575f5ffd5b806331232bc9116101ba57806331232bc91461024f57806335faa4161461028e5780633b345a8714610296578063400efa85146102b6575f5ffd5b806309a3bbe4146101eb578063136439dd14610207578063147a7a5b1461021c5780631794bb3c1461023c575b5f5ffd5b6101f461271081565b6040519081526020015b60405180910390f35b61021a6102153660046125b8565b6104f8565b005b61022f61022a3660046125cf565b610532565b6040516101fe919061275c565b61021a61024a3660046127c7565b610770565b6102767f000000000000000000000000000000000000000000000000000000000000000081565b6040516001600160a01b0390911681526020016101fe565b61021a610896565b6102a96102a43660046125b8565b6109d6565b6040516101fe9190612805565b61021a6102c43660046125b8565b610b6a565b61021a6102d736600461282e565b6111c4565b6101f47f000000000000000000000000000000000000000000000000000000000000000081565b61021a6112f0565b61032e610319366004612871565b606654600160ff9092169190911b9081161490565b60405190151581526020016101fe565b6066546101f4565b61021a611302565b6102767f000000000000000000000000000000000000000000000000000000000000000081565b6102767f000000000000000000000000000000000000000000000000000000000000000081565b6033546001600160a01b0316610276565b60c9546103c290600160a01b900461ffff1681565b60405161ffff90911681526020016101fe565b6101f4611313565b6101f461139c565b6101f47f000000000000000000000000000000000000000000000000000000000000000081565b60c954610276906001600160a01b031681565b61021a61042d366004612891565b6113e9565b6101f47f000000000000000000000000000000000000000000000000000000000000000081565b6101f46104673660046128ac565b6113fa565b6101f4611584565b6102767f000000000000000000000000000000000000000000000000000000000000000081565b61032e6115f4565b61021a6104b1366004612891565b611605565b6101f461167b565b61021a6104cc3660046125b8565b6116eb565b6102767f000000000000000000000000000000000000000000000000000000000000000081565b610500611758565b60665481811681146105255760405163c61dca5d60e01b815260040160405180910390fd5b61052e826117fb565b5050565b60ca546060908061054384866128f1565b111561055657610553848261290a565b92505b826001600160401b0381111561056e5761056e61291d565b6040519080825280602002602001820160405280156105a757816020015b610594612574565b81526020019060019003908161058c5790505b5091505f5b838110156107685760ca6105c082876128f1565b815481106105d0576105d0612931565b5f9182526020918290206040805160c081018252600390930290910180546001600160401b038082168552600160401b8204811695850195909552600160801b8104909416918301919091529091606083019060ff600160c01b90910416600581111561063f5761063f6125ef565b6005811115610650576106506125ef565b815260408051808201825260018401546001600160a01b0381168252600160a01b900463ffffffff16602080830191909152808401919091526002840180548351818402810184018552818152939094019390915f9084015b8282101561073b578382905f5260205f2001805480602002602001604051908101604052809291908181526020015f905b82821015610728575f84815260209081902060408051808201909152908401546001600160a01b0381168252600160a01b90046001600160601b0316818301528252600190920191016106da565b50505050815260200190600101906106a9565b505050508152505083828151811061075557610755612931565b60209081029190910101526001016105ac565b505092915050565b5f54610100900460ff161580801561078e57505f54600160ff909116105b806107a75750303b1580156107a757505f5460ff166001145b61080f5760405162461bcd60e51b815260206004820152602e60248201527f496e697469616c697a61626c653a20636f6e747261637420697320616c72656160448201526d191e481a5b9a5d1a585b1a5e995960921b60648201526084015b60405180910390fd5b5f805460ff191660011790558015610830575f805461ff0019166101001790555b61083984611838565b61084283611889565b61084b826117fb565b8015610890575f805461ff0019169055604051600181527f7f26b83ff96e1f2b6a682f133852f6798a09c465da95921460cefb38474024989060200160405180910390a15b50505050565b61089e6118f9565b5f6108a881611952565b6040516370a0823160e01b81523060048201525f907f00000000000000000000000000000000000000000000000000000000000000006001600160a01b0316906370a0823190602401602060405180830381865afa15801561090c573d5f5f3e3d5ffd5b505050506040513d601f19601f820116820180604052508101906109309190612945565b905061093a6115f4565b15801561094657508015155b156109c85760c954610985906001600160a01b037f0000000000000000000000000000000000000000000000000000000000000000811691168361197d565b60c9546040518281526001600160a01b03909116907fc36b5179cb9c303b200074996eab2b3473eac370fdd7eba3bec636fe351096969060200160405180910390a25b50506109d46001609755565b565b6109de612574565b60ca82815481106109f1576109f1612931565b5f9182526020918290206040805160c081018252600390930290910180546001600160401b038082168552600160401b8204811695850195909552600160801b8104909416918301919091529091606083019060ff600160c01b909104166005811115610a6057610a606125ef565b6005811115610a7157610a716125ef565b815260408051808201825260018401546001600160a01b0381168252600160a01b900463ffffffff16602080830191909152808401919091526002840180548351818402810184018552818152939094019390915f9084015b82821015610b5c578382905f5260205f2001805480602002602001604051908101604052809291908181526020015f905b82821015610b49575f84815260209081902060408051808201909152908401546001600160a01b0381168252600160a01b90046001600160601b031681830152825260019092019101610afb565b5050505081526020019060010190610aca565b505050915250909392505050565b610b726118f9565b5f610b7c81611952565b5f610b85611313565b90505f198103610ba857604051638f98404160e01b815260040160405180910390fd5b5f610bb161139c565b5f83815260cb602052604090205490915061010090046001600160401b0316818110610bf0576040516314568a0960e11b815260040160405180910390fd5b5f83815260cb602052604090205460ff16610eec5760405163095ea7b360e01b81526001600160a01b037f0000000000000000000000000000000000000000000000000000000000000000811660048301527f000000000000000000000000000000000000000000000000000000000000000060248301527f0000000000000000000000000000000000000000000000000000000000000000169063095ea7b3906044016020604051808303815f875af1158015610cb0573d5f5f3e3d5ffd5b505050506040513d601f19601f82011682018060405250810190610cd4919061295c565b5060405163095ea7b360e01b81526001600160a01b037f0000000000000000000000000000000000000000000000000000000000000000811660048301527f000000000000000000000000000000000000000000000000000000000000000060248301527f0000000000000000000000000000000000000000000000000000000000000000169063095ea7b3906044016020604051808303815f875af1158015610d80573d5f5f3e3d5ffd5b505050506040513d601f19601f82011682018060405250810190610da4919061295c565b506040516340c10f1960e01b81523060048201527f000000000000000000000000000000000000000000000000000000000000000060248201527f00000000000000000000000000000000000000000000000000000000000000006001600160a01b0316906340c10f19906044015f604051808303815f87803b158015610e29575f5ffd5b505af1158015610e3b573d5f5f3e3d5ffd5b5050604051630ea598cb60e41b81527f000000000000000000000000000000000000000000000000000000000000000060048201527f00000000000000000000000000000000000000000000000000000000000000006001600160a01b0316925063ea598cb091506024015f604051808303815f87803b158015610ebd575f5ffd5b505af1158015610ecf573d5f5f3e3d5ffd5b5050505f84815260cb60205260409020805460ff19166001179055505b5f610f17847f000000000000000000000000000000000000000000000000000000000000000061297b565b610f41907f00000000000000000000000000000000000000000000000000000000000000006128f1565b90505f610f4e87846128f1565b905083811115610f5b5750825b825b8181101561117e575f60ca8281548110610f7957610f79612931565b5f9182526020918290206040805160c081018252600390930290910180546001600160401b038082168552600160401b8204811695850195909552600160801b8104909416918301919091529091606083019060ff600160c01b909104166005811115610fe857610fe86125ef565b6005811115610ff957610ff96125ef565b815260408051808201825260018401546001600160a01b0381168252600160a01b900463ffffffff16602080830191909152808401919091526002840180548351818402810184018552818152939094019390915f9084015b828210156110e4578382905f5260205f2001805480602002602001604051908101604052809291908181526020015f905b828210156110d1575f84815260209081902060408051808201909152908401546001600160a01b0381168252600160a01b90046001600160601b031681830152825260019092019101611083565b5050505081526020019060010190611052565b5050509152509091505f905081606001516005811115611106576111066125ef565b036111115750611176565b8681602001516001600160401b0316111561112c5750611176565b60408101516001600160401b03161561116857806040015181602001516111539190612992565b6001600160401b031687106111685750611176565b611174818389876119db565b505b600101610f5d565b505f94855260cb602052604090942080546001600160401b039095166101000268ffffffffffffffff001990951694909417909355506111c192506119d4915050565b50565b6111cc611e59565b5f6111d5611313565b90505f60c960149054906101000a900461ffff1661ffff1690505f60ca858154811061120357611203612931565b5f9182526020909120600390910201546001600160401b0316905061122783611e84565b61123b8484611236848661290a565b611eab565b61124860208501856129c5565b6001600160401b031661125b828461290a565b61126591906128f1565b60c960146101000a81548161ffff021916908361ffff1602179055508360ca868154811061129557611295612931565b905f5260205f20906003020181816112ad9190612cbe565b90505082857f548fb50d6be978df2bacbf48c6840e4a4743672408921282117f3f00555b2b4c866040516112e19190612f16565b60405180910390a35050505050565b6112f8611758565b6109d45f196117fb565b61130a612085565b6109d45f611838565b5f7f000000000000000000000000000000000000000000000000000000000000000042101561134257505f1990565b7f000000000000000000000000000000000000000000000000000000000000000061138d7f00000000000000000000000000000000000000000000000000000000000000004261290a565b6113979190612fc7565b905090565b5f5f6113a6611313565b90505f1981036113b857505060ca5490565b5f81815260cb602052604090205460ca546113e391600160481b90046001600160401b03169061290a565b91505090565b6113f1612085565b6111c181611889565b5f611403611e59565b5f61140c611313565b90505f61141f6080850160608601612fe6565b6005811115611430576114306125ef565b0361144e57604051637051feff60e01b815260040160405180910390fd5b61145781611e84565b60c954600160a01b900461ffff16611470848383611eab565b5f82815260cb60205260409020805460099061149b90600160481b90046001600160401b0316613001565b82546001600160401b039182166101009390930a928302919092021990911617905560ca5492506114cf60208501856129c5565b6114e2906001600160401b0316826128f1565b60c9805461ffff92909216600160a01b0261ffff60a01b1990921691909117905560ca80546001810182555f9190915284906003027f42d72674974f694b5f5159593243114d38a5c39c89d6b62fee061ff523240ee1016115438282612cbe565b505081837e6f7ba35643ecf5852cfe01b66220b1fe04a4cd4866923d5f3e66c7fcb390ef866040516115759190612f16565b60405180910390a35050919050565b5f5f61158e611313565b90505f1981036115a0575f1991505090565b6115ca817f000000000000000000000000000000000000000000000000000000000000000061297b565b6113e3907f00000000000000000000000000000000000000000000000000000000000000006128f1565b5f611397611600611313565b6120df565b61160d612085565b6001600160a01b0381166116725760405162461bcd60e51b815260206004820152602660248201527f4f776e61626c653a206e6577206f776e657220697320746865207a65726f206160448201526564647265737360d01b6064820152608401610806565b6111c181611838565b5f5f611685611313565b90505f1981036116b6577f000000000000000000000000000000000000000000000000000000000000000091505090565b6116c18160016128f1565b6115ca907f000000000000000000000000000000000000000000000000000000000000000061297b565b6116f361211d565b6066548019821981161461171a5760405163c61dca5d60e01b815260040160405180910390fd5b606682905560405182815233907f3582d1828e26bf56bd801502bc021ac0bc8afb57c826e4986b45593c8fad389c9060200160405180910390a25050565b60405163237dfb4760e11b81523360048201527f00000000000000000000000000000000000000000000000000000000000000006001600160a01b0316906346fbf68e90602401602060405180830381865afa1580156117ba573d5f5f3e3d5ffd5b505050506040513d601f19601f820116820180604052508101906117de919061295c565b6109d457604051631d77d47760e21b815260040160405180910390fd5b606681905560405181815233907fab40a374bc51de372200a8bc981af8c9ecdc08dfdaef0bb6e09f88f3c616ef3d9060200160405180910390a250565b603380546001600160a01b038381166001600160a01b0319831681179093556040519116919082907f8be0079c531659141344cd1fd0a4f28419497f9722a3daafe3b4186f6b6457e0905f90a35050565b6001600160a01b0381166118b0576040516339b190bb60e11b815260040160405180910390fd5b60c980546001600160a01b0319166001600160a01b0383169081179091556040517f8befac6896b786e67b23cefc473bfabd36e7fc013125c883dfeec8e3a9636216905f90a250565b60026097540361194b5760405162461bcd60e51b815260206004820152601f60248201527f5265656e7472616e637947756172643a207265656e7472616e742063616c6c006044820152606401610806565b6002609755565b606654600160ff83161b908116036111c15760405163840a48d560e01b815260040160405180910390fd5b604080516001600160a01b038416602482015260448082018490528251808303909101815260649091019091526020810180516001600160e01b031663a9059cbb60e01b1790526119cf9084906121ce565b505050565b6001609755565b83515f9061271090611a16906001600160401b03167f000000000000000000000000000000000000000000000000000000000000000061297b565b611a209190612fc7565b90505f815f03611a31575050610890565b600586606001516005811115611a4957611a496125ef565b14611d575760a08601515182811115611a6457505050610890565b5f611a6f8285612fc7565b90505f826001600160401b03811115611a8a57611a8a61291d565b604051908082528060200260200182016040528015611ae257816020015b6040805160a08101825260608082525f6020808401829052938301819052908201819052608082015282525f19909201910181611aa85790505b5090505f5b8151811015611bae576040518060a001604052808b60a001518381518110611b1157611b11612931565b602002602001015181526020017f00000000000000000000000000000000000000000000000000000000000000006001600160a01b031681526020018481526020018863ffffffff1681526020017f000000000000000000000000000000000000000000000000000000000000000063ffffffff16815250828281518110611b9b57611b9b612931565b6020908102919091010152600101611ae7565b50600189606001516005811115611bc757611bc76125ef565b03611c1957611c1281604051602401611be091906130c1565b60408051601f198184030181529190526020810180516001600160e01b031660016230499960e11b03191790526122a1565b9350611d4f565b600389606001516005811115611c3157611c316125ef565b03611c7f57611c12896080015182604051602401611c509291906130d3565b60408051601f198184030181529190526020810180516001600160e01b0316637ae3058360e01b1790526122a1565b600289606001516005811115611c9757611c976125ef565b03611ce557611c12896080015182604051602401611cb69291906130d3565b60408051601f198184030181529190526020810180516001600160e01b0316638cb0ae1b60e01b1790526122a1565b600489606001516005811115611cfd57611cfd6125ef565b03611d4f57608089015151604051611d4c91611d1d918490602401613105565b60408051601f198184030181529190526020810180516001600160e01b031663394151a960e11b1790526122a1565b93505b505050611e16565b60c954604080516001600160a01b039283166024820152604480820186905282518083039091018152606490910182526020810180516001600160e01b031663a9059cbb60e01b17905290517f000000000000000000000000000000000000000000000000000000000000000090921691611dd29190613128565b5f604051808303815f865af19150503d805f8114611e0b576040519150601f19603f3d011682016040523d82523d5f602084013e611e10565b606091505b50909150505b83857fba5d66336bc9a4f8459242151a4da4d5020ac581243d98403bb55f7f348e071b8884604051611e4992919061313e565b60405180910390a3505050505050565b60c9546001600160a01b031633146109d45760405163235e4b5160e11b815260040160405180910390fd5b611e8d816120df565b156111c157604051631179354b60e11b815260040160405180910390fd5b6002611ebd6080850160608601612fe6565b6005811115611ece57611ece6125ef565b1480611efa57506003611ee76080850160608601612fe6565b6005811115611ef857611ef86125ef565b145b15611faa576040516304c1b8eb60e31b81526001600160a01b037f0000000000000000000000000000000000000000000000000000000000000000169063260dc75890611f4e906080870190600401613161565b602060405180830381865afa158015611f69573d5f5f3e3d5ffd5b505050506040513d601f19601f82011682018060405250810190611f8d919061295c565b611faa57604051631d171d6360e11b815260040160405180910390fd5b5f198214611fe95781611fc360408501602086016129c5565b6001600160401b031611611fe9576040516285be8b60e21b815260040160405180910390fd5b61271081611ffa60208601866129c5565b6001600160401b031661200d91906128f1565b111561202c57604051630d1418e160e01b815260040160405180910390fd5b600561203e6080850160608601612fe6565b600581111561204f5761204f6125ef565b148061206857505f61206460c0850185612aa7565b9050115b6119cf5760405163ef1a114f60e01b815260040160405180910390fd5b6033546001600160a01b031633146109d45760405162461bcd60e51b815260206004820181905260248201527f4f776e61626c653a2063616c6c6572206973206e6f7420746865206f776e65726044820152606401610806565b5f5f1982036120ef57505f919050565b6120f761139c565b5f92835260cb60205260409092205461010090046001600160401b031691909110919050565b7f00000000000000000000000000000000000000000000000000000000000000006001600160a01b031663eab66d7a6040518163ffffffff1660e01b8152600401602060405180830381865afa158015612179573d5f5f3e3d5ffd5b505050506040513d601f19601f8201168201806040525081019061219d919061316f565b6001600160a01b0316336001600160a01b0316146109d45760405163794821ff60e01b815260040160405180910390fd5b5f612222826040518060400160405280602081526020017f5361666545524332303a206c6f772d6c6576656c2063616c6c206661696c6564815250856001600160a01b03166123529092919063ffffffff16565b905080515f1480612242575080806020019051810190612242919061295c565b6119cf5760405162461bcd60e51b815260206004820152602a60248201527f5361666545524332303a204552433230206f7065726174696f6e20646964206e6044820152691bdd081cdd58d8d9595960b21b6064820152608401610806565b5f60607f00000000000000000000000000000000000000000000000000000000000000006001600160a01b0316836040516122dc9190613128565b5f604051808303815f865af19150503d805f8114612315576040519150601f19603f3d011682016040523d82523d5f602084013e61231a565b606091505b5090925090508161234c5761232e81612368565b1561234c576040516331e4566760e01b815260040160405180910390fd5b50919050565b606061236084845f85612400565b949350505050565b60405160206024820152601f60448201527f5265656e7472616e637947756172643a207265656e7472616e742063616c6c0060648201525f9060840160408051601f19818403018152919052602080820180516001600160e01b031662461bcd60e51b1781529151909120835191840191909120036123e957506001919050565b81515f036123f957506001919050565b505f919050565b6060824710156124615760405162461bcd60e51b815260206004820152602660248201527f416464726573733a20696e73756666696369656e742062616c616e636520666f6044820152651c8818d85b1b60d21b6064820152608401610806565b5f5f866001600160a01b0316858760405161247c9190613128565b5f6040518083038185875af1925050503d805f81146124b6576040519150601f19603f3d011682016040523d82523d5f602084013e6124bb565b606091505b50915091506124cc878383876124d7565b979650505050505050565b606083156125455782515f0361253e576001600160a01b0385163b61253e5760405162461bcd60e51b815260206004820152601d60248201527f416464726573733a2063616c6c20746f206e6f6e2d636f6e74726163740000006044820152606401610806565b5081612360565b612360838381511561255a5781518083602001fd5b8060405162461bcd60e51b8152600401610806919061318a565b6040805160c0810182525f80825260208083018290528284018290526060830182905283518085019094528184528301529060808201908152602001606081525090565b5f602082840312156125c8575f5ffd5b5035919050565b5f5f604083850312156125e0575f5ffd5b50508035926020909101359150565b634e487b7160e01b5f52602160045260245ffd5b6006811061261f57634e487b7160e01b5f52602160045260245ffd5b9052565b5f8151808452602084019350602083015f5b8281101561267157815180516001600160a01b031687526020908101516001600160601b03168188015260409096019590910190600101612635565b5093949350505050565b5f60e083016001600160401b0383511684526001600160401b0360208401511660208501526001600160401b03604084015116604085015260608301516126c56060860182612603565b5060808301516126f1608086018280516001600160a01b0316825260209081015163ffffffff16910152565b5060a083015160e060c0860152818151808452610100870191506101008160051b88010193506020830192505f5b818110156127505760ff1988860301835261273b858551612623565b9450602093840193929092019160010161271f565b50929695505050505050565b5f602082016020835280845180835260408501915060408160051b8601019250602086015f5b8281101561275057603f1987860301845261279e85835161267b565b94506020938401939190910190600101612782565b6001600160a01b03811681146111c1575f5ffd5b5f5f5f606084860312156127d9575f5ffd5b83356127e4816127b3565b925060208401356127f4816127b3565b929592945050506040919091013590565b602081525f612817602083018461267b565b9392505050565b5f60e0828403121561234c575f5ffd5b5f5f6040838503121561283f575f5ffd5b8235915060208301356001600160401b0381111561285b575f5ffd5b6128678582860161281e565b9150509250929050565b5f60208284031215612881575f5ffd5b813560ff81168114612817575f5ffd5b5f602082840312156128a1575f5ffd5b8135612817816127b3565b5f602082840312156128bc575f5ffd5b81356001600160401b038111156128d1575f5ffd5b6123608482850161281e565b634e487b7160e01b5f52601160045260245ffd5b80820180821115612904576129046128dd565b92915050565b81810381811115612904576129046128dd565b634e487b7160e01b5f52604160045260245ffd5b634e487b7160e01b5f52603260045260245ffd5b5f60208284031215612955575f5ffd5b5051919050565b5f6020828403121561296c575f5ffd5b81518015158114612817575f5ffd5b8082028115828204841417612904576129046128dd565b6001600160401b038181168382160190811115612904576129046128dd565b6001600160401b03811681146111c1575f5ffd5b5f602082840312156129d5575f5ffd5b8135612817816129b1565b600681106111c1575f5ffd5b5f8135612904816129e0565b60068210612a1457634e487b7160e01b5f52602160045260245ffd5b805460ff60c01b191660c09290921b60ff60c01b16919091179055565b80546001600160a01b0319166001600160a01b0392909216919091179055565b63ffffffff811681146111c1575f5ffd5b8135612a6d816127b3565b612a778183612a31565b506020820135612a8681612a51565b815463ffffffff60a01b191660a09190911b63ffffffff60a01b1617905550565b5f5f8335601e19843603018112612abc575f5ffd5b8301803591506001600160401b03821115612ad5575f5ffd5b6020019150600581901b3603821315612aec575f5ffd5b9250929050565b5f5f8335601e19843603018112612b08575f5ffd5b8301803591506001600160401b03821115612b21575f5ffd5b6020019150600681901b3603821315612aec575f5ffd5b80545f8255801561052e57815f5260205f208181015b80821015610890575f8255600182019150612b4e565b6001600160601b03811681146111c1575f5ffd5b600160401b831115612b8c57612b8c61291d565b805483825580841015612bc1575f828152602090208481019082015b80821015612bbe575f8255600182019150612ba8565b50505b5081815f5260205f205f5b85811015612c29578235612bdf816127b3565b612be98184612a31565b506020830135612bf881612b64565b82546001600160a01b031660a09190911b6001600160a01b0319161782556040929092019160019182019101612bcc565b505050505050565b600160401b831115612c4557612c4561291d565b805483825580841015612c80575f828152602090208481019082015b80821015612c7d57612c7282612b38565b600182019150612c61565b50505b505f8181526020812083915b85811015612c2957612c9e8386612af3565b612ca9818386612b78565b50506020929092019160019182019101612c8c565b8135612cc9816129b1565b6001600160401b03811690508154816001600160401b031982161783556020840135612cf4816129b1565b6fffffffffffffffff00000000000000008160401b16836fffffffffffffffffffffffffffffffff198416171784555050505f6040830135612d35816129b1565b825467ffffffffffffffff60801b191660809190911b67ffffffffffffffff60801b1617825550612d71612d6b606084016129ec565b826129f8565b612d816080830160018301612a62565b612d8e60c0830183612aa7565b610890818360028601612c31565b8035612da7816129e0565b919050565b8035612db7816127b3565b6001600160a01b031682526020810135612dd081612a51565b63ffffffff81166020840152505050565b5f5f8335601e19843603018112612df6575f5ffd5b83016020810192503590506001600160401b03811115612e14575f5ffd5b8060051b3603821315612aec575f5ffd5b8183526020830192505f815f5b84811015612671578135612e45816127b3565b6001600160a01b031686526020820135612e5e81612b64565b6001600160601b031660208701526040958601959190910190600101612e32565b5f8383855260208501945060208460051b820101835f5b86811015612f0a57838303601f19018852813536879003601e19018112612ebb575f5ffd5b86016020810190356001600160401b03811115612ed6575f5ffd5b8060061b3603821315612ee7575f5ffd5b612ef2858284612e25565b60209a8b019a90955093909301925050600101612e96565b50909695505050505050565b602081525f8235612f26816129b1565b6001600160401b0381166020840152506020830135612f44816129b1565b6001600160401b0381166040840152506040830135612f62816129b1565b6001600160401b038116606084015250612f7e60608401612d9c565b612f8b6080840182612603565b50612f9c60a0830160808501612dac565b612fa960c0840184612de1565b60e080850152612fbe61010085018284612e7f565b95945050505050565b5f82612fe157634e487b7160e01b5f52601260045260245ffd5b500490565b5f60208284031215612ff6575f5ffd5b8135612817816129e0565b5f6001600160401b0382166001600160401b038103613022576130226128dd565b60010192915050565b5f82825180855260208501945060208160051b830101602085015f5b83811015612f0a57601f198584030188528151805160a0855261306d60a0860182612623565b6020838101516001600160a01b0316878201526040808501519088015260608085015163ffffffff908116918901919091526080948501511693909601929092525097830197929190910190600101613047565b602081525f612817602083018461302b565b82516001600160a01b0316815260208084015163ffffffff1690820152606060408201525f612360606083018461302b565b6001600160a01b03831681526040602082018190525f906123609083018461302b565b5f82518060208501845e5f920191825250919050565b604081525f613150604083018561267b565b905082151560208301529392505050565b604081016129048284612dac565b5f6020828403121561317f575f5ffd5b8151612817816127b3565b602081525f82518060208401528060208501604085015e5f604082850101526040601f19601f8301168401019150509291505056fea264697066735822122039c4050f2d0e80ef613c3bf0cdee0af94fa51edacfeb07c518322b852bb42e5c64736f6c634300081e0033",
    "linkReferences": {}
  },
  "methodIdentifiers": {
    "ALLOCATION_MANAGER()": "31232bc9",
    "BACKING_EIGEN()": "d455724e",
    "EIGEN()": "fdc371ce",
    "EMISSIONS_EPOCH_LENGTH()": "c2f208e4",
    "EMISSIONS_INFLATION_RATE()": "47a28ea2",
    "EMISSIONS_START_TIME()": "c9d3eff9",
    "MAX_TOTAL_WEIGHT()": "09a3bbe4",
    "REWARDS_COORDINATOR()": "71e2c264",
    "addDistribution((uint64,uint64,uint64,uint8,(address,uint32),(address,uint96)[][]))": "cd1e341b",
    "getCurrentEpoch()": "b97dd9e2",
    "getDistribution(uint256)": "3b345a87",
    "getDistributions(uint256,uint256)": "147a7a5b",
    "getTotalProcessableDistributions()": "be851337",
    "incentiveCouncil()": "c44cb727",
    "initialize(address,address,uint256)": "1794bb3c",
    "isButtonPressable()": "d8393150",
    "lastTimeButtonPressable()": "d44b1c9e",
    "nextTimeButtonPressable()": "f769479f",
    "owner()": "8da5cb5b",
    "pause(uint256)": "136439dd",
    "pauseAll()": "595c6a67",
    "paused()": "5c975abb",
    "paused(uint8)": "5ac86ab7",
    "pauserRegistry()": "886f1195",
    "pressButton(uint256)": "400efa85",
    "renounceOwnership()": "715018a6",
    "setIncentiveCouncil(address)": "c695acdb",
    "sweep()": "35faa416",
    "totalWeight()": "96c82e57",
    "transferOwnership(address)": "f2fde38b",
    "unpause(uint256)": "fabc1cbc",
    "updateDistribution(uint256,(uint64,uint64,uint64,uint8,(address,uint32),(address,uint96)[][]))": "44a32028"
  },
  "id": 134
}