{
  "abi": [
    {
      "type": "constructor",
      "inputs": [
        {
          "name": "params",
          "type": "tuple",
          "internalType": "struct IRewardsCoordinatorTypes.RewardsCoordinatorConstructorParams",
          "components": [
            {
              "name": "delegationManager",
              "type": "address",
              "internalType": "contract IDelegationManager"
            },
            {
              "name": "strategyManager",
              "type": "address",
              "internalType": "contract IStrategyManager"
            },
            {
              "name": "allocationManager",
              "type": "address",
              "internalType": "contract IAllocationManager"
            },
            {
              "name": "emissionsController",
              "type": "address",
              "internalType": "contract IEmissionsController"
            },
            {
              "name": "pauserRegistry",
              "type": "address",
              "internalType": "contract IPauserRegistry"
            },
            {
              "name": "permissionController",
              "type": "address",
              "internalType": "contract IPermissionController"
            },
            {
              "name": "CALCULATION_INTERVAL_SECONDS",
              "type": "uint32",
              "internalType": "uint32"
            },
            {
              "name": "MAX_REWARDS_DURATION",
              "type": "uint32",
              "internalType": "uint32"
            },
            {
              "name": "MAX_RETROACTIVE_LENGTH",
              "type": "uint32",
              "internalType": "uint32"
            },
            {
              "name": "MAX_FUTURE_LENGTH",
              "type": "uint32",
              "internalType": "uint32"
            },
            {
              "name": "GENESIS_REWARDS_TIMESTAMP",
              "type": "uint32",
              "internalType": "uint32"
            }
          ]
        }
      ],
      "stateMutability": "nonpayable"
    },
    {
      "type": "function",
      "name": "CALCULATION_INTERVAL_SECONDS",
      "inputs": [],
      "outputs": [
        {
          "name": "",
          "type": "uint32",
          "internalType": "uint32"
        }
      ],
      "stateMutability": "view"
    },
    {
      "type": "function",
      "name": "GENESIS_REWARDS_TIMESTAMP",
      "inputs": [],
      "outputs": [
        {
          "name": "",
          "type": "uint32",
          "internalType": "uint32"
        }
      ],
      "stateMutability": "view"
    },
    {
      "type": "function",
      "name": "MAX_FUTURE_LENGTH",
      "inputs": [],
      "outputs": [
        {
          "name": "",
          "type": "uint32",
          "internalType": "uint32"
        }
      ],
      "stateMutability": "view"
    },
    {
      "type": "function",
      "name": "MAX_RETROACTIVE_LENGTH",
      "inputs": [],
      "outputs": [
        {
          "name": "",
          "type": "uint32",
          "internalType": "uint32"
        }
      ],
      "stateMutability": "view"
    },
    {
      "type": "function",
      "name": "MAX_REWARDS_DURATION",
      "inputs": [],
      "outputs": [
        {
          "name": "",
          "type": "uint32",
          "internalType": "uint32"
        }
      ],
      "stateMutability": "view"
    },
    {
      "type": "function",
      "name": "activationDelay",
      "inputs": [],
      "outputs": [
        {
          "name": "",
          "type": "uint32",
          "internalType": "uint32"
        }
      ],
      "stateMutability": "view"
    },
    {
      "type": "function",
      "name": "allocationManager",
      "inputs": [],
      "outputs": [
        {
          "name": "",
          "type": "address",
          "internalType": "contract IAllocationManager"
        }
      ],
      "stateMutability": "view"
    },
    {
      "type": "function",
      "name": "beaconChainETHStrategy",
      "inputs": [],
      "outputs": [
        {
          "name": "",
          "type": "address",
          "internalType": "contract IStrategy"
        }
      ],
      "stateMutability": "view"
    },
    {
      "type": "function",
      "name": "calculateEarnerLeafHash",
      "inputs": [
        {
          "name": "leaf",
          "type": "tuple",
          "internalType": "struct IRewardsCoordinatorTypes.EarnerTreeMerkleLeaf",
          "components": [
            {
              "name": "earner",
              "type": "address",
              "internalType": "address"
            },
            {
              "name": "earnerTokenRoot",
              "type": "bytes32",
              "internalType": "bytes32"
            }
          ]
        }
      ],
      "outputs": [
        {
          "name": "",
          "type": "bytes32",
          "internalType": "bytes32"
        }
      ],
      "stateMutability": "pure"
    },
    {
      "type": "function",
      "name": "calculateTokenLeafHash",
      "inputs": [
        {
          "name": "leaf",
          "type": "tuple",
          "internalType": "struct IRewardsCoordinatorTypes.TokenTreeMerkleLeaf",
          "components": [
            {
              "name": "token",
              "type": "address",
              "internalType": "contract IERC20"
            },
            {
              "name": "cumulativeEarnings",
              "type": "uint256",
              "internalType": "uint256"
            }
          ]
        }
      ],
      "outputs": [
        {
          "name": "",
          "type": "bytes32",
          "internalType": "bytes32"
        }
      ],
      "stateMutability": "pure"
    },
    {
      "type": "function",
      "name": "checkClaim",
      "inputs": [
        {
          "name": "claim",
          "type": "tuple",
          "internalType": "struct IRewardsCoordinatorTypes.RewardsMerkleClaim",
          "components": [
            {
              "name": "rootIndex",
              "type": "uint32",
              "internalType": "uint32"
            },
            {
              "name": "earnerIndex",
              "type": "uint32",
              "internalType": "uint32"
            },
            {
              "name": "earnerTreeProof",
              "type": "bytes",
              "internalType": "bytes"
            },
            {
              "name": "earnerLeaf",
              "type": "tuple",
              "internalType": "struct IRewardsCoordinatorTypes.EarnerTreeMerkleLeaf",
              "components": [
                {
                  "name": "earner",
                  "type": "address",
                  "internalType": "address"
                },
                {
                  "name": "earnerTokenRoot",
                  "type": "bytes32",
                  "internalType": "bytes32"
                }
              ]
            },
            {
              "name": "tokenIndices",
              "type": "uint32[]",
              "internalType": "uint32[]"
            },
            {
              "name": "tokenTreeProofs",
              "type": "bytes[]",
              "internalType": "bytes[]"
            },
            {
              "name": "tokenLeaves",
              "type": "tuple[]",
              "internalType": "struct IRewardsCoordinatorTypes.TokenTreeMerkleLeaf[]",
              "components": [
                {
                  "name": "token",
                  "type": "address",
                  "internalType": "contract IERC20"
                },
                {
                  "name": "cumulativeEarnings",
                  "type": "uint256",
                  "internalType": "uint256"
                }
              ]
            }
          ]
        }
      ],
      "outputs": [
        {
          "name": "",
          "type": "bool",
          "internalType": "bool"
        }
      ],
      "stateMutability": "view"
    },
    {
      "type": "function",
      "name": "claimerFor",
      "inputs": [
        {
          "name": "earner",
          "type": "address",
          "internalType": "address"
        }
      ],
      "outputs": [
        {
          "name": "claimer",
          "type": "address",
          "internalType": "address"
        }
      ],
      "stateMutability": "view"
    },
    {
      "type": "function",
      "name": "createAVSRewardsSubmission",
      "inputs": [
        {
          "name": "rewardsSubmissions",
          "type": "tuple[]",
          "internalType": "struct IRewardsCoordinatorTypes.RewardsSubmission[]",
          "components": [
            {
              "name": "strategiesAndMultipliers",
              "type": "tuple[]",
              "internalType": "struct IRewardsCoordinatorTypes.StrategyAndMultiplier[]",
              "components": [
                {
                  "name": "strategy",
                  "type": "address",
                  "internalType": "contract IStrategy"
                },
                {
                  "name": "multiplier",
                  "type": "uint96",
                  "internalType": "uint96"
                }
              ]
            },
            {
              "name": "token",
              "type": "address",
              "internalType": "contract IERC20"
            },
            {
              "name": "amount",
              "type": "uint256",
              "internalType": "uint256"
            },
            {
              "name": "startTimestamp",
              "type": "uint32",
              "internalType": "uint32"
            },
            {
              "name": "duration",
              "type": "uint32",
              "internalType": "uint32"
            }
          ]
        }
      ],
      "outputs": [],
      "stateMutability": "nonpayable"
    },
    {
      "type": "function",
      "name": "createEigenDARewardsSubmission",
      "inputs": [
        {
          "name": "avs",
          "type": "address",
          "internalType": "address"
        },
        {
          "name": "rewardsSubmissions",
          "type": "tuple[]",
          "internalType": "struct IRewardsCoordinatorTypes.RewardsSubmission[]",
          "components": [
            {
              "name": "strategiesAndMultipliers",
              "type": "tuple[]",
              "internalType": "struct IRewardsCoordinatorTypes.StrategyAndMultiplier[]",
              "components": [
                {
                  "name": "strategy",
                  "type": "address",
                  "internalType": "contract IStrategy"
                },
                {
                  "name": "multiplier",
                  "type": "uint96",
                  "internalType": "uint96"
                }
              ]
            },
            {
              "name": "token",
              "type": "address",
              "internalType": "contract IERC20"
            },
            {
              "name": "amount",
              "type": "uint256",
              "internalType": "uint256"
            },
            {
              "name": "startTimestamp",
              "type": "uint32",
              "internalType": "uint32"
            },
            {
              "name": "duration",
              "type": "uint32",
              "internalType": "uint32"
            }
          ]
        }
      ],
      "outputs": [],
      "stateMutability": "nonpayable"
    },
    {
      "type": "function",
      "name": "createOperatorDirectedAVSRewardsSubmission",
      "inputs": [
        {
          "name": "avs",
          "type": "address",
          "internalType": "address"
        },
        {
          "name": "operatorDirectedRewardsSubmissions",
          "type": "tuple[]",
          "internalType": "struct IRewardsCoordinatorTypes.OperatorDirectedRewardsSubmission[]",
          "components": [
            {
              "name": "strategiesAndMultipliers",
              "type": "tuple[]",
              "internalType": "struct IRewardsCoordinatorTypes.StrategyAndMultiplier[]",
              "components": [
                {
                  "name": "strategy",
                  "type": "address",
                  "internalType": "contract IStrategy"
                },
                {
                  "name": "multiplier",
                  "type": "uint96",
                  "internalType": "uint96"
                }
              ]
            },
            {
              "name": "token",
              "type": "address",
              "internalType": "contract IERC20"
            },
            {
              "name": "operatorRewards",
              "type": "tuple[]",
              "internalType": "struct IRewardsCoordinatorTypes.OperatorReward[]",
              "components": [
                {
                  "name": "operator",
                  "type": "address",
                  "internalType": "address"
                },
                {
                  "name": "amount",
                  "type": "uint256",
                  "internalType": "uint256"
                }
              ]
            },
            {
              "name": "startTimestamp",
              "type": "uint32",
              "internalType": "uint32"
            },
            {
              "name": "duration",
              "type": "uint32",
              "internalType": "uint32"
            },
            {
              "name": "description",
              "type": "string",
              "internalType": "string"
            }
          ]
        }
      ],
      "outputs": [],
      "stateMutability": "nonpayable"
    },
    {
      "type": "function",
      "name": "createOperatorDirectedOperatorSetRewardsSubmission",
      "inputs": [
        {
          "name": "operatorSet",
          "type": "tuple",
          "internalType": "struct OperatorSet",
          "components": [
            {
              "name": "avs",
              "type": "address",
              "internalType": "address"
            },
            {
              "name": "id",
              "type": "uint32",
              "internalType": "uint32"
            }
          ]
        },
        {
          "name": "operatorDirectedRewardsSubmissions",
          "type": "tuple[]",
          "internalType": "struct IRewardsCoordinatorTypes.OperatorDirectedRewardsSubmission[]",
          "components": [
            {
              "name": "strategiesAndMultipliers",
              "type": "tuple[]",
              "internalType": "struct IRewardsCoordinatorTypes.StrategyAndMultiplier[]",
              "components": [
                {
                  "name": "strategy",
                  "type": "address",
                  "internalType": "contract IStrategy"
                },
                {
                  "name": "multiplier",
                  "type": "uint96",
                  "internalType": "uint96"
                }
              ]
            },
            {
              "name": "token",
              "type": "address",
              "internalType": "contract IERC20"
            },
            {
              "name": "operatorRewards",
              "type": "tuple[]",
              "internalType": "struct IRewardsCoordinatorTypes.OperatorReward[]",
              "components": [
                {
                  "name": "operator",
                  "type": "address",
                  "internalType": "address"
                },
                {
                  "name": "amount",
                  "type": "uint256",
                  "internalType": "uint256"
                }
              ]
            },
            {
              "name": "startTimestamp",
              "type": "uint32",
              "internalType": "uint32"
            },
            {
              "name": "duration",
              "type": "uint32",
              "internalType": "uint32"
            },
            {
              "name": "description",
              "type": "string",
              "internalType": "string"
            }
          ]
        }
      ],
      "outputs": [],
      "stateMutability": "nonpayable"
    },
    {
      "type": "function",
      "name": "createRewardsForAllEarners",
      "inputs": [
        {
          "name": "rewardsSubmissions",
          "type": "tuple[]",
          "internalType": "struct IRewardsCoordinatorTypes.RewardsSubmission[]",
          "components": [
            {
              "name": "strategiesAndMultipliers",
              "type": "tuple[]",
              "internalType": "struct IRewardsCoordinatorTypes.StrategyAndMultiplier[]",
              "components": [
                {
                  "name": "strategy",
                  "type": "address",
                  "internalType": "contract IStrategy"
                },
                {
                  "name": "multiplier",
                  "type": "uint96",
                  "internalType": "uint96"
                }
              ]
            },
            {
              "name": "token",
              "type": "address",
              "internalType": "contract IERC20"
            },
            {
              "name": "amount",
              "type": "uint256",
              "internalType": "uint256"
            },
            {
              "name": "startTimestamp",
              "type": "uint32",
              "internalType": "uint32"
            },
            {
              "name": "duration",
              "type": "uint32",
              "internalType": "uint32"
            }
          ]
        }
      ],
      "outputs": [],
      "stateMutability": "nonpayable"
    },
    {
      "type": "function",
      "name": "createRewardsForAllSubmission",
      "inputs": [
        {
          "name": "rewardsSubmissions",
          "type": "tuple[]",
          "internalType": "struct IRewardsCoordinatorTypes.RewardsSubmission[]",
          "components": [
            {
              "name": "strategiesAndMultipliers",
              "type": "tuple[]",
              "internalType": "struct IRewardsCoordinatorTypes.StrategyAndMultiplier[]",
              "components": [
                {
                  "name": "strategy",
                  "type": "address",
                  "internalType": "contract IStrategy"
                },
                {
                  "name": "multiplier",
                  "type": "uint96",
                  "internalType": "uint96"
                }
              ]
            },
            {
              "name": "token",
              "type": "address",
              "internalType": "contract IERC20"
            },
            {
              "name": "amount",
              "type": "uint256",
              "internalType": "uint256"
            },
            {
              "name": "startTimestamp",
              "type": "uint32",
              "internalType": "uint32"
            },
            {
              "name": "duration",
              "type": "uint32",
              "internalType": "uint32"
            }
          ]
        }
      ],
      "outputs": [],
      "stateMutability": "nonpayable"
    },
    {
      "type": "function",
      "name": "createTotalStakeRewardsSubmission",
      "inputs": [
        {
          "name": "operatorSet",
          "type": "tuple",
          "internalType": "struct OperatorSet",
          "components": [
            {
              "name": "avs",
              "type": "address",
              "internalType": "address"
            },
            {
              "name": "id",
              "type": "uint32",
              "internalType": "uint32"
            }
          ]
        },
        {
          "name": "rewardsSubmissions",
          "type": "tuple[]",
          "internalType": "struct IRewardsCoordinatorTypes.RewardsSubmission[]",
          "components": [
            {
              "name": "strategiesAndMultipliers",
              "type": "tuple[]",
              "internalType": "struct IRewardsCoordinatorTypes.StrategyAndMultiplier[]",
              "components": [
                {
                  "name": "strategy",
                  "type": "address",
                  "internalType": "contract IStrategy"
                },
                {
                  "name": "multiplier",
                  "type": "uint96",
                  "internalType": "uint96"
                }
              ]
            },
            {
              "name": "token",
              "type": "address",
              "internalType": "contract IERC20"
            },
            {
              "name": "amount",
              "type": "uint256",
              "internalType": "uint256"
            },
            {
              "name": "startTimestamp",
              "type": "uint32",
              "internalType": "uint32"
            },
            {
              "name": "duration",
              "type": "uint32",
              "internalType": "uint32"
            }
          ]
        }
      ],
      "outputs": [],
      "stateMutability": "nonpayable"
    },
    {
      "type": "function",
      "name": "createUniqueStakeRewardsSubmission",
      "inputs": [
        {
          "name": "operatorSet",
          "type": "tuple",
          "internalType": "struct OperatorSet",
          "components": [
            {
              "name": "avs",
              "type": "address",
              "internalType": "address"
            },
            {
              "name": "id",
              "type": "uint32",
              "internalType": "uint32"
            }
          ]
        },
        {
          "name": "rewardsSubmissions",
          "type": "tuple[]",
          "internalType": "struct IRewardsCoordinatorTypes.RewardsSubmission[]",
          "components": [
            {
              "name": "strategiesAndMultipliers",
              "type": "tuple[]",
              "internalType": "struct IRewardsCoordinatorTypes.StrategyAndMultiplier[]",
              "components": [
                {
                  "name": "strategy",
                  "type": "address",
                  "internalType": "contract IStrategy"
                },
                {
                  "name": "multiplier",
                  "type": "uint96",
                  "internalType": "uint96"
                }
              ]
            },
            {
              "name": "token",
              "type": "address",
              "internalType": "contract IERC20"
            },
            {
              "name": "amount",
              "type": "uint256",
              "internalType": "uint256"
            },
            {
              "name": "startTimestamp",
              "type": "uint32",
              "internalType": "uint32"
            },
            {
              "name": "duration",
              "type": "uint32",
              "internalType": "uint32"
            }
          ]
        }
      ],
      "outputs": [],
      "stateMutability": "nonpayable"
    },
    {
      "type": "function",
      "name": "cumulativeClaimed",
      "inputs": [
        {
          "name": "earner",
          "type": "address",
          "internalType": "address"
        },
        {
          "name": "token",
          "type": "address",
          "internalType": "contract IERC20"
        }
      ],
      "outputs": [
        {
          "name": "totalClaimed",
          "type": "uint256",
          "internalType": "uint256"
        }
      ],
      "stateMutability": "view"
    },
    {
      "type": "function",
      "name": "currRewardsCalculationEndTimestamp",
      "inputs": [],
      "outputs": [
        {
          "name": "",
          "type": "uint32",
          "internalType": "uint32"
        }
      ],
      "stateMutability": "view"
    },
    {
      "type": "function",
      "name": "defaultOperatorSplitBips",
      "inputs": [],
      "outputs": [
        {
          "name": "",
          "type": "uint16",
          "internalType": "uint16"
        }
      ],
      "stateMutability": "view"
    },
    {
      "type": "function",
      "name": "delegationManager",
      "inputs": [],
      "outputs": [
        {
          "name": "",
          "type": "address",
          "internalType": "contract IDelegationManager"
        }
      ],
      "stateMutability": "view"
    },
    {
      "type": "function",
      "name": "disableRoot",
      "inputs": [
        {
          "name": "rootIndex",
          "type": "uint32",
          "internalType": "uint32"
        }
      ],
      "outputs": [],
      "stateMutability": "nonpayable"
    },
    {
      "type": "function",
      "name": "emissionsController",
      "inputs": [],
      "outputs": [
        {
          "name": "",
          "type": "address",
          "internalType": "contract IEmissionsController"
        }
      ],
      "stateMutability": "view"
    },
    {
      "type": "function",
      "name": "feeRecipient",
      "inputs": [],
      "outputs": [
        {
          "name": "",
          "type": "address",
          "internalType": "address"
        }
      ],
      "stateMutability": "view"
    },
    {
      "type": "function",
      "name": "getCurrentClaimableDistributionRoot",
      "inputs": [],
      "outputs": [
        {
          "name": "",
          "type": "tuple",
          "internalType": "struct IRewardsCoordinatorTypes.DistributionRoot",
          "components": [
            {
              "name": "root",
              "type": "bytes32",
              "internalType": "bytes32"
            },
            {
              "name": "rewardsCalculationEndTimestamp",
              "type": "uint32",
              "internalType": "uint32"
            },
            {
              "name": "activatedAt",
              "type": "uint32",
              "internalType": "uint32"
            },
            {
              "name": "disabled",
              "type": "bool",
              "internalType": "bool"
            }
          ]
        }
      ],
      "stateMutability": "view"
    },
    {
      "type": "function",
      "name": "getCurrentDistributionRoot",
      "inputs": [],
      "outputs": [
        {
          "name": "",
          "type": "tuple",
          "internalType": "struct IRewardsCoordinatorTypes.DistributionRoot",
          "components": [
            {
              "name": "root",
              "type": "bytes32",
              "internalType": "bytes32"
            },
            {
              "name": "rewardsCalculationEndTimestamp",
              "type": "uint32",
              "internalType": "uint32"
            },
            {
              "name": "activatedAt",
              "type": "uint32",
              "internalType": "uint32"
            },
            {
              "name": "disabled",
              "type": "bool",
              "internalType": "bool"
            }
          ]
        }
      ],
      "stateMutability": "view"
    },
    {
      "type": "function",
      "name": "getDistributionRootAtIndex",
      "inputs": [
        {
          "name": "index",
          "type": "uint256",
          "internalType": "uint256"
        }
      ],
      "outputs": [
        {
          "name": "",
          "type": "tuple",
          "internalType": "struct IRewardsCoordinatorTypes.DistributionRoot",
          "components": [
            {
              "name": "root",
              "type": "bytes32",
              "internalType": "bytes32"
            },
            {
              "name": "rewardsCalculationEndTimestamp",
              "type": "uint32",
              "internalType": "uint32"
            },
            {
              "name": "activatedAt",
              "type": "uint32",
              "internalType": "uint32"
            },
            {
              "name": "disabled",
              "type": "bool",
              "internalType": "bool"
            }
          ]
        }
      ],
      "stateMutability": "view"
    },
    {
      "type": "function",
      "name": "getDistributionRootsLength",
      "inputs": [],
      "outputs": [
        {
          "name": "",
          "type": "uint256",
          "internalType": "uint256"
        }
      ],
      "stateMutability": "view"
    },
    {
      "type": "function",
      "name": "getOperatorAVSSplit",
      "inputs": [
        {
          "name": "operator",
          "type": "address",
          "internalType": "address"
        },
        {
          "name": "avs",
          "type": "address",
          "internalType": "address"
        }
      ],
      "outputs": [
        {
          "name": "",
          "type": "uint16",
          "internalType": "uint16"
        }
      ],
      "stateMutability": "view"
    },
    {
      "type": "function",
      "name": "getOperatorPISplit",
      "inputs": [
        {
          "name": "operator",
          "type": "address",
          "internalType": "address"
        }
      ],
      "outputs": [
        {
          "name": "",
          "type": "uint16",
          "internalType": "uint16"
        }
      ],
      "stateMutability": "view"
    },
    {
      "type": "function",
      "name": "getOperatorSetSplit",
      "inputs": [
        {
          "name": "operator",
          "type": "address",
          "internalType": "address"
        },
        {
          "name": "operatorSet",
          "type": "tuple",
          "internalType": "struct OperatorSet",
          "components": [
            {
              "name": "avs",
              "type": "address",
              "internalType": "address"
            },
            {
              "name": "id",
              "type": "uint32",
              "internalType": "uint32"
            }
          ]
        }
      ],
      "outputs": [
        {
          "name": "",
          "type": "uint16",
          "internalType": "uint16"
        }
      ],
      "stateMutability": "view"
    },
    {
      "type": "function",
      "name": "getRootIndexFromHash",
      "inputs": [
        {
          "name": "rootHash",
          "type": "bytes32",
          "internalType": "bytes32"
        }
      ],
      "outputs": [
        {
          "name": "",
          "type": "uint32",
          "internalType": "uint32"
        }
      ],
      "stateMutability": "view"
    },
    {
      "type": "function",
      "name": "initialize",
      "inputs": [
        {
          "name": "initialOwner",
          "type": "address",
          "internalType": "address"
        },
        {
          "name": "initialPausedStatus",
          "type": "uint256",
          "internalType": "uint256"
        },
        {
          "name": "_rewardsUpdater",
          "type": "address",
          "internalType": "address"
        },
        {
          "name": "_activationDelay",
          "type": "uint32",
          "internalType": "uint32"
        },
        {
          "name": "_defaultSplitBips",
          "type": "uint16",
          "internalType": "uint16"
        },
        {
          "name": "_feeRecipient",
          "type": "address",
          "internalType": "address"
        }
      ],
      "outputs": [],
      "stateMutability": "nonpayable"
    },
    {
      "type": "function",
      "name": "isAVSRewardsSubmissionHash",
      "inputs": [
        {
          "name": "avs",
          "type": "address",
          "internalType": "address"
        },
        {
          "name": "hash",
          "type": "bytes32",
          "internalType": "bytes32"
        }
      ],
      "outputs": [
        {
          "name": "valid",
          "type": "bool",
          "internalType": "bool"
        }
      ],
      "stateMutability": "view"
    },
    {
      "type": "function",
      "name": "isOperatorDirectedAVSRewardsSubmissionHash",
      "inputs": [
        {
          "name": "avs",
          "type": "address",
          "internalType": "address"
        },
        {
          "name": "hash",
          "type": "bytes32",
          "internalType": "bytes32"
        }
      ],
      "outputs": [
        {
          "name": "valid",
          "type": "bool",
          "internalType": "bool"
        }
      ],
      "stateMutability": "view"
    },
    {
      "type": "function",
      "name": "isOperatorDirectedOperatorSetRewardsSubmissionHash",
      "inputs": [
        {
          "name": "avs",
          "type": "address",
          "internalType": "address"
        },
        {
          "name": "hash",
          "type": "bytes32",
          "internalType": "bytes32"
        }
      ],
      "outputs": [
        {
          "name": "valid",
          "type": "bool",
          "internalType": "bool"
        }
      ],
      "stateMutability": "view"
    },
    {
      "type": "function",
      "name": "isOptedInForProtocolFee",
      "inputs": [
        {
          "name": "submitter",
          "type": "address",
          "internalType": "address"
        }
      ],
      "outputs": [
        {
          "name": "isOptedIn",
          "type": "bool",
          "internalType": "bool"
        }
      ],
      "stateMutability": "view"
    },
    {
      "type": "function",
      "name": "isRewardsForAllSubmitter",
      "inputs": [
        {
          "name": "submitter",
          "type": "address",
          "internalType": "address"
        }
      ],
      "outputs": [
        {
          "name": "valid",
          "type": "bool",
          "internalType": "bool"
        }
      ],
      "stateMutability": "view"
    },
    {
      "type": "function",
      "name": "isRewardsSubmissionForAllEarnersHash",
      "inputs": [
        {
          "name": "avs",
          "type": "address",
          "internalType": "address"
        },
        {
          "name": "hash",
          "type": "bytes32",
          "internalType": "bytes32"
        }
      ],
      "outputs": [
        {
          "name": "valid",
          "type": "bool",
          "internalType": "bool"
        }
      ],
      "stateMutability": "view"
    },
    {
      "type": "function",
      "name": "isRewardsSubmissionForAllHash",
      "inputs": [
        {
          "name": "avs",
          "type": "address",
          "internalType": "address"
        },
        {
          "name": "hash",
          "type": "bytes32",
          "internalType": "bytes32"
        }
      ],
      "outputs": [
        {
          "name": "valid",
          "type": "bool",
          "internalType": "bool"
        }
      ],
      "stateMutability": "view"
    },
    {
      "type": "function",
      "name": "isTotalStakeRewardsSubmissionHash",
      "inputs": [
        {
          "name": "avs",
          "type": "address",
          "internalType": "address"
        },
        {
          "name": "hash",
          "type": "bytes32",
          "internalType": "bytes32"
        }
      ],
      "outputs": [
        {
          "name": "valid",
          "type": "bool",
          "internalType": "bool"
        }
      ],
      "stateMutability": "view"
    },
    {
      "type": "function",
      "name": "isUniqueStakeRewardsSubmissionHash",
      "inputs": [
        {
          "name": "avs",
          "type": "address",
          "internalType": "address"
        },
        {
          "name": "hash",
          "type": "bytes32",
          "internalType": "bytes32"
        }
      ],
      "outputs": [
        {
          "name": "valid",
          "type": "bool",
          "internalType": "bool"
        }
      ],
      "stateMutability": "view"
    },
    {
      "type": "function",
      "name": "owner",
      "inputs": [],
      "outputs": [
        {
          "name": "",
          "type": "address",
          "internalType": "address"
        }
      ],
      "stateMutability": "view"
    },
    {
      "type": "function",
      "name": "pause",
      "inputs": [
        {
          "name": "newPausedStatus",
          "type": "uint256",
          "internalType": "uint256"
        }
      ],
      "outputs": [],
      "stateMutability": "nonpayable"
    },
    {
      "type": "function",
      "name": "pauseAll",
      "inputs": [],
      "outputs": [],
      "stateMutability": "nonpayable"
    },
    {
      "type": "function",
      "name": "paused",
      "inputs": [
        {
          "name": "index",
          "type": "uint8",
          "internalType": "uint8"
        }
      ],
      "outputs": [
        {
          "name": "",
          "type": "bool",
          "internalType": "bool"
        }
      ],
      "stateMutability": "view"
    },
    {
      "type": "function",
      "name": "paused",
      "inputs": [],
      "outputs": [
        {
          "name": "",
          "type": "uint256",
          "internalType": "uint256"
        }
      ],
      "stateMutability": "view"
    },
    {
      "type": "function",
      "name": "pauserRegistry",
      "inputs": [],
      "outputs": [
        {
          "name": "",
          "type": "address",
          "internalType": "contract IPauserRegistry"
        }
      ],
      "stateMutability": "view"
    },
    {
      "type": "function",
      "name": "permissionController",
      "inputs": [],
      "outputs": [
        {
          "name": "",
          "type": "address",
          "internalType": "contract IPermissionController"
        }
      ],
      "stateMutability": "view"
    },
    {
      "type": "function",
      "name": "processClaim",
      "inputs": [
        {
          "name": "claim",
          "type": "tuple",
          "internalType": "struct IRewardsCoordinatorTypes.RewardsMerkleClaim",
          "components": [
            {
              "name": "rootIndex",
              "type": "uint32",
              "internalType": "uint32"
            },
            {
              "name": "earnerIndex",
              "type": "uint32",
              "internalType": "uint32"
            },
            {
              "name": "earnerTreeProof",
              "type": "bytes",
              "internalType": "bytes"
            },
            {
              "name": "earnerLeaf",
              "type": "tuple",
              "internalType": "struct IRewardsCoordinatorTypes.EarnerTreeMerkleLeaf",
              "components": [
                {
                  "name": "earner",
                  "type": "address",
                  "internalType": "address"
                },
                {
                  "name": "earnerTokenRoot",
                  "type": "bytes32",
                  "internalType": "bytes32"
                }
              ]
            },
            {
              "name": "tokenIndices",
              "type": "uint32[]",
              "internalType": "uint32[]"
            },
            {
              "name": "tokenTreeProofs",
              "type": "bytes[]",
              "internalType": "bytes[]"
            },
            {
              "name": "tokenLeaves",
              "type": "tuple[]",
              "internalType": "struct IRewardsCoordinatorTypes.TokenTreeMerkleLeaf[]",
              "components": [
                {
                  "name": "token",
                  "type": "address",
                  "internalType": "contract IERC20"
                },
                {
                  "name": "cumulativeEarnings",
                  "type": "uint256",
                  "internalType": "uint256"
                }
              ]
            }
          ]
        },
        {
          "name": "recipient",
          "type": "address",
          "internalType": "address"
        }
      ],
      "outputs": [],
      "stateMutability": "nonpayable"
    },
    {
      "type": "function",
      "name": "processClaims",
      "inputs": [
        {
          "name": "claims",
          "type": "tuple[]",
          "internalType": "struct IRewardsCoordinatorTypes.RewardsMerkleClaim[]",
          "components": [
            {
              "name": "rootIndex",
              "type": "uint32",
              "internalType": "uint32"
            },
            {
              "name": "earnerIndex",
              "type": "uint32",
              "internalType": "uint32"
            },
            {
              "name": "earnerTreeProof",
              "type": "bytes",
              "internalType": "bytes"
            },
            {
              "name": "earnerLeaf",
              "type": "tuple",
              "internalType": "struct IRewardsCoordinatorTypes.EarnerTreeMerkleLeaf",
              "components": [
                {
                  "name": "earner",
                  "type": "address",
                  "internalType": "address"
                },
                {
                  "name": "earnerTokenRoot",
                  "type": "bytes32",
                  "internalType": "bytes32"
                }
              ]
            },
            {
              "name": "tokenIndices",
              "type": "uint32[]",
              "internalType": "uint32[]"
            },
            {
              "name": "tokenTreeProofs",
              "type": "bytes[]",
              "internalType": "bytes[]"
            },
            {
              "name": "tokenLeaves",
              "type": "tuple[]",
              "internalType": "struct IRewardsCoordinatorTypes.TokenTreeMerkleLeaf[]",
              "components": [
                {
                  "name": "token",
                  "type": "address",
                  "internalType": "contract IERC20"
                },
                {
                  "name": "cumulativeEarnings",
                  "type": "uint256",
                  "internalType": "uint256"
                }
              ]
            }
          ]
        },
        {
          "name": "recipient",
          "type": "address",
          "internalType": "address"
        }
      ],
      "outputs": [],
      "stateMutability": "nonpayable"
    },
    {
      "type": "function",
      "name": "renounceOwnership",
      "inputs": [],
      "outputs": [],
      "stateMutability": "nonpayable"
    },
    {
      "type": "function",
      "name": "rewardsUpdater",
      "inputs": [],
      "outputs": [
        {
          "name": "",
          "type": "address",
          "internalType": "address"
        }
      ],
      "stateMutability": "view"
    },
    {
      "type": "function",
      "name": "setActivationDelay",
      "inputs": [
        {
          "name": "_activationDelay",
          "type": "uint32",
          "internalType": "uint32"
        }
      ],
      "outputs": [],
      "stateMutability": "nonpayable"
    },
    {
      "type": "function",
      "name": "setClaimerFor",
      "inputs": [
        {
          "name": "claimer",
          "type": "address",
          "internalType": "address"
        }
      ],
      "outputs": [],
      "stateMutability": "nonpayable"
    },
    {
      "type": "function",
      "name": "setClaimerFor",
      "inputs": [
        {
          "name": "earner",
          "type": "address",
          "internalType": "address"
        },
        {
          "name": "claimer",
          "type": "address",
          "internalType": "address"
        }
      ],
      "outputs": [],
      "stateMutability": "nonpayable"
    },
    {
      "type": "function",
      "name": "setDefaultOperatorSplit",
      "inputs": [
        {
          "name": "split",
          "type": "uint16",
          "internalType": "uint16"
        }
      ],
      "outputs": [],
      "stateMutability": "nonpayable"
    },
    {
      "type": "function",
      "name": "setFeeRecipient",
      "inputs": [
        {
          "name": "_feeRecipient",
          "type": "address",
          "internalType": "address"
        }
      ],
      "outputs": [],
      "stateMutability": "nonpayable"
    },
    {
      "type": "function",
      "name": "setOperatorAVSSplit",
      "inputs": [
        {
          "name": "operator",
          "type": "address",
          "internalType": "address"
        },
        {
          "name": "avs",
          "type": "address",
          "internalType": "address"
        },
        {
          "name": "split",
          "type": "uint16",
          "internalType": "uint16"
        }
      ],
      "outputs": [],
      "stateMutability": "nonpayable"
    },
    {
      "type": "function",
      "name": "setOperatorPISplit",
      "inputs": [
        {
          "name": "operator",
          "type": "address",
          "internalType": "address"
        },
        {
          "name": "split",
          "type": "uint16",
          "internalType": "uint16"
        }
      ],
      "outputs": [],
      "stateMutability": "nonpayable"
    },
    {
      "type": "function",
      "name": "setOperatorSetSplit",
      "inputs": [
        {
          "name": "operator",
          "type": "address",
          "internalType": "address"
        },
        {
          "name": "operatorSet",
          "type": "tuple",
          "internalType": "struct OperatorSet",
          "components": [
            {
              "name": "avs",
              "type": "address",
              "internalType": "address"
            },
            {
              "name": "id",
              "type": "uint32",
              "internalType": "uint32"
            }
          ]
        },
        {
          "name": "split",
          "type": "uint16",
          "internalType": "uint16"
        }
      ],
      "outputs": [],
      "stateMutability": "nonpayable"
    },
    {
      "type": "function",
      "name": "setOptInForProtocolFee",
      "inputs": [
        {
          "name": "submitter",
          "type": "address",
          "internalType": "address"
        },
        {
          "name": "optInForProtocolFee",
          "type": "bool",
          "internalType": "bool"
        }
      ],
      "outputs": [],
      "stateMutability": "nonpayable"
    },
    {
      "type": "function",
      "name": "setRewardsForAllSubmitter",
      "inputs": [
        {
          "name": "_submitter",
          "type": "address",
          "internalType": "address"
        },
        {
          "name": "_newValue",
          "type": "bool",
          "internalType": "bool"
        }
      ],
      "outputs": [],
      "stateMutability": "nonpayable"
    },
    {
      "type": "function",
      "name": "setRewardsUpdater",
      "inputs": [
        {
          "name": "_rewardsUpdater",
          "type": "address",
          "internalType": "address"
        }
      ],
      "outputs": [],
      "stateMutability": "nonpayable"
    },
    {
      "type": "function",
      "name": "strategyManager",
      "inputs": [],
      "outputs": [
        {
          "name": "",
          "type": "address",
          "internalType": "contract IStrategyManager"
        }
      ],
      "stateMutability": "view"
    },
    {
      "type": "function",
      "name": "submissionNonce",
      "inputs": [
        {
          "name": "avs",
          "type": "address",
          "internalType": "address"
        }
      ],
      "outputs": [
        {
          "name": "nonce",
          "type": "uint256",
          "internalType": "uint256"
        }
      ],
      "stateMutability": "view"
    },
    {
      "type": "function",
      "name": "submitRoot",
      "inputs": [
        {
          "name": "root",
          "type": "bytes32",
          "internalType": "bytes32"
        },
        {
          "name": "rewardsCalculationEndTimestamp",
          "type": "uint32",
          "internalType": "uint32"
        }
      ],
      "outputs": [],
      "stateMutability": "nonpayable"
    },
    {
      "type": "function",
      "name": "transferOwnership",
      "inputs": [
        {
          "name": "newOwner",
          "type": "address",
          "internalType": "address"
        }
      ],
      "outputs": [],
      "stateMutability": "nonpayable"
    },
    {
      "type": "function",
      "name": "unpause",
      "inputs": [
        {
          "name": "newPausedStatus",
          "type": "uint256",
          "internalType": "uint256"
        }
      ],
      "outputs": [],
      "stateMutability": "nonpayable"
    },
    {
      "type": "event",
      "name": "AVSRewardsSubmissionCreated",
      "inputs": [
        {
          "name": "avs",
          "type": "address",
          "indexed": true,
          "internalType": "address"
        },
        {
          "name": "submissionNonce",
          "type": "uint256",
          "indexed": true,
          "internalType": "uint256"
        },
        {
          "name": "rewardsSubmissionHash",
          "type": "bytes32",
          "indexed": true,
          "internalType": "bytes32"
        },
        {
          "name": "rewardsSubmission",
          "type": "tuple",
          "indexed": false,
          "internalType": "struct IRewardsCoordinatorTypes.RewardsSubmission",
          "components": [
            {
              "name": "strategiesAndMultipliers",
              "type": "tuple[]",
              "internalType": "struct IRewardsCoordinatorTypes.StrategyAndMultiplier[]",
              "components": [
                {
                  "name": "strategy",
                  "type": "address",
                  "internalType": "contract IStrategy"
                },
                {
                  "name": "multiplier",
                  "type": "uint96",
                  "internalType": "uint96"
                }
              ]
            },
            {
              "name": "token",
              "type": "address",
              "internalType": "contract IERC20"
            },
            {
              "name": "amount",
              "type": "uint256",
              "internalType": "uint256"
            },
            {
              "name": "startTimestamp",
              "type": "uint32",
              "internalType": "uint32"
            },
            {
              "name": "duration",
              "type": "uint32",
              "internalType": "uint32"
            }
          ]
        }
      ],
      "anonymous": false
    },
    {
      "type": "event",
      "name": "ActivationDelaySet",
      "inputs": [
        {
          "name": "oldActivationDelay",
          "type": "uint32",
          "indexed": false,
          "internalType": "uint32"
        },
        {
          "name": "newActivationDelay",
          "type": "uint32",
          "indexed": false,
          "internalType": "uint32"
        }
      ],
      "anonymous": false
    },
    {
      "type": "event",
      "name": "ClaimerForSet",
      "inputs": [
        {
          "name": "earner",
          "type": "address",
          "indexed": true,
          "internalType": "address"
        },
        {
          "name": "oldClaimer",
          "type": "address",
          "indexed": true,
          "internalType": "address"
        },
        {
          "name": "claimer",
          "type": "address",
          "indexed": true,
          "internalType": "address"
        }
      ],
      "anonymous": false
    },
    {
      "type": "event",
      "name": "DefaultOperatorSplitBipsSet",
      "inputs": [
        {
          "name": "oldDefaultOperatorSplitBips",
          "type": "uint16",
          "indexed": false,
          "internalType": "uint16"
        },
        {
          "name": "newDefaultOperatorSplitBips",
          "type": "uint16",
          "indexed": false,
          "internalType": "uint16"
        }
      ],
      "anonymous": false
    },
    {
      "type": "event",
      "name": "DistributionRootDisabled",
      "inputs": [
        {
          "name": "rootIndex",
          "type": "uint32",
          "indexed": true,
          "internalType": "uint32"
        }
      ],
      "anonymous": false
    },
    {
      "type": "event",
      "name": "DistributionRootSubmitted",
      "inputs": [
        {
          "name": "rootIndex",
          "type": "uint32",
          "indexed": true,
          "internalType": "uint32"
        },
        {
          "name": "root",
          "type": "bytes32",
          "indexed": true,
          "internalType": "bytes32"
        },
        {
          "name": "rewardsCalculationEndTimestamp",
          "type": "uint32",
          "indexed": true,
          "internalType": "uint32"
        },
        {
          "name": "activatedAt",
          "type": "uint32",
          "indexed": false,
          "internalType": "uint32"
        }
      ],
      "anonymous": false
    },
    {
      "type": "event",
      "name": "FeeRecipientSet",
      "inputs": [
        {
          "name": "oldFeeRecipient",
          "type": "address",
          "indexed": true,
          "internalType": "address"
        },
        {
          "name": "newFeeRecipient",
          "type": "address",
          "indexed": true,
          "internalType": "address"
        }
      ],
      "anonymous": false
    },
    {
      "type": "event",
      "name": "Initialized",
      "inputs": [
        {
          "name": "version",
          "type": "uint8",
          "indexed": false,
          "internalType": "uint8"
        }
      ],
      "anonymous": false
    },
    {
      "type": "event",
      "name": "OperatorAVSSplitBipsSet",
      "inputs": [
        {
          "name": "caller",
          "type": "address",
          "indexed": true,
          "internalType": "address"
        },
        {
          "name": "operator",
          "type": "address",
          "indexed": true,
          "internalType": "address"
        },
        {
          "name": "avs",
          "type": "address",
          "indexed": true,
          "internalType": "address"
        },
        {
          "name": "activatedAt",
          "type": "uint32",
          "indexed": false,
          "internalType": "uint32"
        },
        {
          "name": "oldOperatorAVSSplitBips",
          "type": "uint16",
          "indexed": false,
          "internalType": "uint16"
        },
        {
          "name": "newOperatorAVSSplitBips",
          "type": "uint16",
          "indexed": false,
          "internalType": "uint16"
        }
      ],
      "anonymous": false
    },
    {
      "type": "event",
      "name": "OperatorDirectedAVSRewardsSubmissionCreated",
      "inputs": [
        {
          "name": "caller",
          "type": "address",
          "indexed": true,
          "internalType": "address"
        },
        {
          "name": "avs",
          "type": "address",
          "indexed": true,
          "internalType": "address"
        },
        {
          "name": "operatorDirectedRewardsSubmissionHash",
          "type": "bytes32",
          "indexed": true,
          "internalType": "bytes32"
        },
        {
          "name": "submissionNonce",
          "type": "uint256",
          "indexed": false,
          "internalType": "uint256"
        },
        {
          "name": "operatorDirectedRewardsSubmission",
          "type": "tuple",
          "indexed": false,
          "internalType": "struct IRewardsCoordinatorTypes.OperatorDirectedRewardsSubmission",
          "components": [
            {
              "name": "strategiesAndMultipliers",
              "type": "tuple[]",
              "internalType": "struct IRewardsCoordinatorTypes.StrategyAndMultiplier[]",
              "components": [
                {
                  "name": "strategy",
                  "type": "address",
                  "internalType": "contract IStrategy"
                },
                {
                  "name": "multiplier",
                  "type": "uint96",
                  "internalType": "uint96"
                }
              ]
            },
            {
              "name": "token",
              "type": "address",
              "internalType": "contract IERC20"
            },
            {
              "name": "operatorRewards",
              "type": "tuple[]",
              "internalType": "struct IRewardsCoordinatorTypes.OperatorReward[]",
              "components": [
                {
                  "name": "operator",
                  "type": "address",
                  "internalType": "address"
                },
                {
                  "name": "amount",
                  "type": "uint256",
                  "internalType": "uint256"
                }
              ]
            },
            {
              "name": "startTimestamp",
              "type": "uint32",
              "internalType": "uint32"
            },
            {
              "name": "duration",
              "type": "uint32",
              "internalType": "uint32"
            },
            {
              "name": "description",
              "type": "string",
              "internalType": "string"
            }
          ]
        }
      ],
      "anonymous": false
    },
    {
      "type": "event",
      "name": "OperatorDirectedOperatorSetRewardsSubmissionCreated",
      "inputs": [
        {
          "name": "caller",
          "type": "address",
          "indexed": true,
          "internalType": "address"
        },
        {
          "name": "operatorDirectedRewardsSubmissionHash",
          "type": "bytes32",
          "indexed": true,
          "internalType": "bytes32"
        },
        {
          "name": "operatorSet",
          "type": "tuple",
          "indexed": false,
          "internalType": "struct OperatorSet",
          "components": [
            {
              "name": "avs",
              "type": "address",
              "internalType": "address"
            },
            {
              "name": "id",
              "type": "uint32",
              "internalType": "uint32"
            }
          ]
        },
        {
          "name": "submissionNonce",
          "type": "uint256",
          "indexed": false,
          "internalType": "uint256"
        },
        {
          "name": "operatorDirectedRewardsSubmission",
          "type": "tuple",
          "indexed": false,
          "internalType": "struct IRewardsCoordinatorTypes.OperatorDirectedRewardsSubmission",
          "components": [
            {
              "name": "strategiesAndMultipliers",
              "type": "tuple[]",
              "internalType": "struct IRewardsCoordinatorTypes.StrategyAndMultiplier[]",
              "components": [
                {
                  "name": "strategy",
                  "type": "address",
                  "internalType": "contract IStrategy"
                },
                {
                  "name": "multiplier",
                  "type": "uint96",
                  "internalType": "uint96"
                }
              ]
            },
            {
              "name": "token",
              "type": "address",
              "internalType": "contract IERC20"
            },
            {
              "name": "operatorRewards",
              "type": "tuple[]",
              "internalType": "struct IRewardsCoordinatorTypes.OperatorReward[]",
              "components": [
                {
                  "name": "operator",
                  "type": "address",
                  "internalType": "address"
                },
                {
                  "name": "amount",
                  "type": "uint256",
                  "internalType": "uint256"
                }
              ]
            },
            {
              "name": "startTimestamp",
              "type": "uint32",
              "internalType": "uint32"
            },
            {
              "name": "duration",
              "type": "uint32",
              "internalType": "uint32"
            },
            {
              "name": "description",
              "type": "string",
              "internalType": "string"
            }
          ]
        }
      ],
      "anonymous": false
    },
    {
      "type": "event",
      "name": "OperatorPISplitBipsSet",
      "inputs": [
        {
          "name": "caller",
          "type": "address",
          "indexed": true,
          "internalType": "address"
        },
        {
          "name": "operator",
          "type": "address",
          "indexed": true,
          "internalType": "address"
        },
        {
          "name": "activatedAt",
          "type": "uint32",
          "indexed": false,
          "internalType": "uint32"
        },
        {
          "name": "oldOperatorPISplitBips",
          "type": "uint16",
          "indexed": false,
          "internalType": "uint16"
        },
        {
          "name": "newOperatorPISplitBips",
          "type": "uint16",
          "indexed": false,
          "internalType": "uint16"
        }
      ],
      "anonymous": false
    },
    {
      "type": "event",
      "name": "OperatorSetSplitBipsSet",
      "inputs": [
        {
          "name": "caller",
          "type": "address",
          "indexed": true,
          "internalType": "address"
        },
        {
          "name": "operator",
          "type": "address",
          "indexed": true,
          "internalType": "address"
        },
        {
          "name": "operatorSet",
          "type": "tuple",
          "indexed": false,
          "internalType": "struct OperatorSet",
          "components": [
            {
              "name": "avs",
              "type": "address",
              "internalType": "address"
            },
            {
              "name": "id",
              "type": "uint32",
              "internalType": "uint32"
            }
          ]
        },
        {
          "name": "activatedAt",
          "type": "uint32",
          "indexed": false,
          "internalType": "uint32"
        },
        {
          "name": "oldOperatorSetSplitBips",
          "type": "uint16",
          "indexed": false,
          "internalType": "uint16"
        },
        {
          "name": "newOperatorSetSplitBips",
          "type": "uint16",
          "indexed": false,
          "internalType": "uint16"
        }
      ],
      "anonymous": false
    },
    {
      "type": "event",
      "name": "OptInForProtocolFeeSet",
      "inputs": [
        {
          "name": "submitter",
          "type": "address",
          "indexed": true,
          "internalType": "address"
        },
        {
          "name": "oldValue",
          "type": "bool",
          "indexed": true,
          "internalType": "bool"
        },
        {
          "name": "newValue",
          "type": "bool",
          "indexed": true,
          "internalType": "bool"
        }
      ],
      "anonymous": false
    },
    {
      "type": "event",
      "name": "OwnershipTransferred",
      "inputs": [
        {
          "name": "previousOwner",
          "type": "address",
          "indexed": true,
          "internalType": "address"
        },
        {
          "name": "newOwner",
          "type": "address",
          "indexed": true,
          "internalType": "address"
        }
      ],
      "anonymous": false
    },
    {
      "type": "event",
      "name": "Paused",
      "inputs": [
        {
          "name": "account",
          "type": "address",
          "indexed": true,
          "internalType": "address"
        },
        {
          "name": "newPausedStatus",
          "type": "uint256",
          "indexed": false,
          "internalType": "uint256"
        }
      ],
      "anonymous": false
    },
    {
      "type": "event",
      "name": "RewardsClaimed",
      "inputs": [
        {
          "name": "root",
          "type": "bytes32",
          "indexed": false,
          "internalType": "bytes32"
        },
        {
          "name": "earner",
          "type": "address",
          "indexed": true,
          "internalType": "address"
        },
        {
          "name": "claimer",
          "type": "address",
          "indexed": true,
          "internalType": "address"
        },
        {
          "name": "recipient",
          "type": "address",
          "indexed": true,
          "internalType": "address"
        },
        {
          "name": "token",
          "type": "address",
          "indexed": false,
          "internalType": "contract IERC20"
        },
        {
          "name": "claimedAmount",
          "type": "uint256",
          "indexed": false,
          "internalType": "uint256"
        }
      ],
      "anonymous": false
    },
    {
      "type": "event",
      "name": "RewardsForAllSubmitterSet",
      "inputs": [
        {
          "name": "rewardsForAllSubmitter",
          "type": "address",
          "indexed": true,
          "internalType": "address"
        },
        {
          "name": "oldValue",
          "type": "bool",
          "indexed": true,
          "internalType": "bool"
        },
        {
          "name": "newValue",
          "type": "bool",
          "indexed": true,
          "internalType": "bool"
        }
      ],
      "anonymous": false
    },
    {
      "type": "event",
      "name": "RewardsSubmissionForAllCreated",
      "inputs": [
        {
          "name": "submitter",
          "type": "address",
          "indexed": true,
          "internalType": "address"
        },
        {
          "name": "submissionNonce",
          "type": "uint256",
          "indexed": true,
          "internalType": "uint256"
        },
        {
          "name": "rewardsSubmissionHash",
          "type": "bytes32",
          "indexed": true,
          "internalType": "bytes32"
        },
        {
          "name": "rewardsSubmission",
          "type": "tuple",
          "indexed": false,
          "internalType": "struct IRewardsCoordinatorTypes.RewardsSubmission",
          "components": [
            {
              "name": "strategiesAndMultipliers",
              "type": "tuple[]",
              "internalType": "struct IRewardsCoordinatorTypes.StrategyAndMultiplier[]",
              "components": [
                {
                  "name": "strategy",
                  "type": "address",
                  "internalType": "contract IStrategy"
                },
                {
                  "name": "multiplier",
                  "type": "uint96",
                  "internalType": "uint96"
                }
              ]
            },
            {
              "name": "token",
              "type": "address",
              "internalType": "contract IERC20"
            },
            {
              "name": "amount",
              "type": "uint256",
              "internalType": "uint256"
            },
            {
              "name": "startTimestamp",
              "type": "uint32",
              "internalType": "uint32"
            },
            {
              "name": "duration",
              "type": "uint32",
              "internalType": "uint32"
            }
          ]
        }
      ],
      "anonymous": false
    },
    {
      "type": "event",
      "name": "RewardsSubmissionForAllEarnersCreated",
      "inputs": [
        {
          "name": "tokenHopper",
          "type": "address",
          "indexed": true,
          "internalType": "address"
        },
        {
          "name": "submissionNonce",
          "type": "uint256",
          "indexed": true,
          "internalType": "uint256"
        },
        {
          "name": "rewardsSubmissionHash",
          "type": "bytes32",
          "indexed": true,
          "internalType": "bytes32"
        },
        {
          "name": "rewardsSubmission",
          "type": "tuple",
          "indexed": false,
          "internalType": "struct IRewardsCoordinatorTypes.RewardsSubmission",
          "components": [
            {
              "name": "strategiesAndMultipliers",
              "type": "tuple[]",
              "internalType": "struct IRewardsCoordinatorTypes.StrategyAndMultiplier[]",
              "components": [
                {
                  "name": "strategy",
                  "type": "address",
                  "internalType": "contract IStrategy"
                },
                {
                  "name": "multiplier",
                  "type": "uint96",
                  "internalType": "uint96"
                }
              ]
            },
            {
              "name": "token",
              "type": "address",
              "internalType": "contract IERC20"
            },
            {
              "name": "amount",
              "type": "uint256",
              "internalType": "uint256"
            },
            {
              "name": "startTimestamp",
              "type": "uint32",
              "internalType": "uint32"
            },
            {
              "name": "duration",
              "type": "uint32",
              "internalType": "uint32"
            }
          ]
        }
      ],
      "anonymous": false
    },
    {
      "type": "event",
      "name": "RewardsUpdaterSet",
      "inputs": [
        {
          "name": "oldRewardsUpdater",
          "type": "address",
          "indexed": true,
          "internalType": "address"
        },
        {
          "name": "newRewardsUpdater",
          "type": "address",
          "indexed": true,
          "internalType": "address"
        }
      ],
      "anonymous": false
    },
    {
      "type": "event",
      "name": "TotalStakeRewardsSubmissionCreated",
      "inputs": [
        {
          "name": "caller",
          "type": "address",
          "indexed": true,
          "internalType": "address"
        },
        {
          "name": "rewardsSubmissionHash",
          "type": "bytes32",
          "indexed": true,
          "internalType": "bytes32"
        },
        {
          "name": "operatorSet",
          "type": "tuple",
          "indexed": false,
          "internalType": "struct OperatorSet",
          "components": [
            {
              "name": "avs",
              "type": "address",
              "internalType": "address"
            },
            {
              "name": "id",
              "type": "uint32",
              "internalType": "uint32"
            }
          ]
        },
        {
          "name": "submissionNonce",
          "type": "uint256",
          "indexed": false,
          "internalType": "uint256"
        },
        {
          "name": "rewardsSubmission",
          "type": "tuple",
          "indexed": false,
          "internalType": "struct IRewardsCoordinatorTypes.RewardsSubmission",
          "components": [
            {
              "name": "strategiesAndMultipliers",
              "type": "tuple[]",
              "internalType": "struct IRewardsCoordinatorTypes.StrategyAndMultiplier[]",
              "components": [
                {
                  "name": "strategy",
                  "type": "address",
                  "internalType": "contract IStrategy"
                },
                {
                  "name": "multiplier",
                  "type": "uint96",
                  "internalType": "uint96"
                }
              ]
            },
            {
              "name": "token",
              "type": "address",
              "internalType": "contract IERC20"
            },
            {
              "name": "amount",
              "type": "uint256",
              "internalType": "uint256"
            },
            {
              "name": "startTimestamp",
              "type": "uint32",
              "internalType": "uint32"
            },
            {
              "name": "duration",
              "type": "uint32",
              "internalType": "uint32"
            }
          ]
        }
      ],
      "anonymous": false
    },
    {
      "type": "event",
      "name": "UniqueStakeRewardsSubmissionCreated",
      "inputs": [
        {
          "name": "caller",
          "type": "address",
          "indexed": true,
          "internalType": "address"
        },
        {
          "name": "rewardsSubmissionHash",
          "type": "bytes32",
          "indexed": true,
          "internalType": "bytes32"
        },
        {
          "name": "operatorSet",
          "type": "tuple",
          "indexed": false,
          "internalType": "struct OperatorSet",
          "components": [
            {
              "name": "avs",
              "type": "address",
              "internalType": "address"
            },
            {
              "name": "id",
              "type": "uint32",
              "internalType": "uint32"
            }
          ]
        },
        {
          "name": "submissionNonce",
          "type": "uint256",
          "indexed": false,
          "internalType": "uint256"
        },
        {
          "name": "rewardsSubmission",
          "type": "tuple",
          "indexed": false,
          "internalType": "struct IRewardsCoordinatorTypes.RewardsSubmission",
          "components": [
            {
              "name": "strategiesAndMultipliers",
              "type": "tuple[]",
              "internalType": "struct IRewardsCoordinatorTypes.StrategyAndMultiplier[]",
              "components": [
                {
                  "name": "strategy",
                  "type": "address",
                  "internalType": "contract IStrategy"
                },
                {
                  "name": "multiplier",
                  "type": "uint96",
                  "internalType": "uint96"
                }
              ]
            },
            {
              "name": "token",
              "type": "address",
              "internalType": "contract IERC20"
            },
            {
              "name": "amount",
              "type": "uint256",
              "internalType": "uint256"
            },
            {
              "name": "startTimestamp",
              "type": "uint32",
              "internalType": "uint32"
            },
            {
              "name": "duration",
              "type": "uint32",
              "internalType": "uint32"
            }
          ]
        }
      ],
      "anonymous": false
    },
    {
      "type": "event",
      "name": "Unpaused",
      "inputs": [
        {
          "name": "account",
          "type": "address",
          "indexed": true,
          "internalType": "address"
        },
        {
          "name": "newPausedStatus",
          "type": "uint256",
          "indexed": false,
          "internalType": "uint256"
        }
      ],
      "anonymous": false
    },
    {
      "type": "error",
      "name": "AmountExceedsMax",
      "inputs": []
    },
    {
      "type": "error",
      "name": "AmountIsZero",
      "inputs": []
    },
    {
      "type": "error",
      "name": "CurrentlyPaused",
      "inputs": []
    },
    {
      "type": "error",
      "name": "DurationExceedsMax",
      "inputs": []
    },
    {
      "type": "error",
      "name": "DurationIsZero",
      "inputs": []
    },
    {
      "type": "error",
      "name": "EarningsNotGreaterThanClaimed",
      "inputs": []
    },
    {
      "type": "error",
      "name": "EmptyRoot",
      "inputs": []
    },
    {
      "type": "error",
      "name": "InputAddressZero",
      "inputs": []
    },
    {
      "type": "error",
      "name": "InputArrayLengthMismatch",
      "inputs": []
    },
    {
      "type": "error",
      "name": "InputArrayLengthZero",
      "inputs": []
    },
    {
      "type": "error",
      "name": "InvalidAddressZero",
      "inputs": []
    },
    {
      "type": "error",
      "name": "InvalidCalculationIntervalSecondsRemainder",
      "inputs": []
    },
    {
      "type": "error",
      "name": "InvalidClaimProof",
      "inputs": []
    },
    {
      "type": "error",
      "name": "InvalidDurationRemainder",
      "inputs": []
    },
    {
      "type": "error",
      "name": "InvalidEarner",
      "inputs": []
    },
    {
      "type": "error",
      "name": "InvalidEarnerLeafIndex",
      "inputs": []
    },
    {
      "type": "error",
      "name": "InvalidGenesisRewardsTimestampRemainder",
      "inputs": []
    },
    {
      "type": "error",
      "name": "InvalidIndex",
      "inputs": []
    },
    {
      "type": "error",
      "name": "InvalidNewPausedStatus",
      "inputs": []
    },
    {
      "type": "error",
      "name": "InvalidOperatorSet",
      "inputs": []
    },
    {
      "type": "error",
      "name": "InvalidPermissions",
      "inputs": []
    },
    {
      "type": "error",
      "name": "InvalidProofLength",
      "inputs": []
    },
    {
      "type": "error",
      "name": "InvalidRoot",
      "inputs": []
    },
    {
      "type": "error",
      "name": "InvalidRootIndex",
      "inputs": []
    },
    {
      "type": "error",
      "name": "InvalidStartTimestampRemainder",
      "inputs": []
    },
    {
      "type": "error",
      "name": "InvalidTokenLeafIndex",
      "inputs": []
    },
    {
      "type": "error",
      "name": "NewRootMustBeForNewCalculatedPeriod",
      "inputs": []
    },
    {
      "type": "error",
      "name": "OnlyPauser",
      "inputs": []
    },
    {
      "type": "error",
      "name": "OnlyUnpauser",
      "inputs": []
    },
    {
      "type": "error",
      "name": "OperatorsNotInAscendingOrder",
      "inputs": []
    },
    {
      "type": "error",
      "name": "PreviousSplitPending",
      "inputs": []
    },
    {
      "type": "error",
      "name": "RewardsEndTimestampNotElapsed",
      "inputs": []
    },
    {
      "type": "error",
      "name": "RootAlreadyActivated",
      "inputs": []
    },
    {
      "type": "error",
      "name": "RootDisabled",
      "inputs": []
    },
    {
      "type": "error",
      "name": "RootNotActivated",
      "inputs": []
    },
    {
      "type": "error",
      "name": "SplitExceedsMax",
      "inputs": []
    },
    {
      "type": "error",
      "name": "StartTimestampTooFarInFuture",
      "inputs": []
    },
    {
      "type": "error",
      "name": "StartTimestampTooFarInPast",
      "inputs": []
    },
    {
      "type": "error",
      "name": "StrategiesNotInAscendingOrder",
      "inputs": []
    },
    {
      "type": "error",
      "name": "StrategyNotWhitelisted",
      "inputs": []
    },
    {
      "type": "error",
      "name": "SubmissionNotRetroactive",
      "inputs": []
    },
    {
      "type": "error",
      "name": "UnauthorizedCaller",
      "inputs": []
    }
  ],
  "bytecode": {
    "object": "0x6101e0604052348015610010575f5ffd5b5060405161578e38038061578e83398101604081905261002f91610270565b60a0810151815160208301516040840151606085015160c086015160e08701516101008801516101208901516101408a015160808b01516001600160a01b03811661008d576040516339b190bb60e11b815260040160405180910390fd5b6001600160a01b03166080526100a3858261034d565b63ffffffff16156100c757604051630e06bd3160e01b815260040160405180910390fd5b6100d4620151808661034d565b63ffffffff16156100f85760405163223c7b3960e11b815260040160405180910390fd5b6001600160a01b0398891660a05296881660c05294871660e0529286166101005263ffffffff918216610120528116610140529081166101605290811661018052166101a052166101c05261014b610151565b50610380565b5f54610100900460ff16156101bc5760405162461bcd60e51b815260206004820152602760248201527f496e697469616c697a61626c653a20636f6e747261637420697320696e697469604482015266616c697a696e6760c81b606482015260840160405180910390fd5b5f5460ff9081161461020b575f805460ff191660ff9081179091556040519081527f7f26b83ff96e1f2b6a682f133852f6798a09c465da95921460cefb38474024989060200160405180910390a15b565b60405161016081016001600160401b038111828210171561023c57634e487b7160e01b5f52604160045260245ffd5b60405290565b80516001600160a01b0381168114610258575f5ffd5b919050565b805163ffffffff81168114610258575f5ffd5b5f610160828403128015610282575f5ffd5b5061028b61020d565b61029483610242565b81526102a260208401610242565b60208201526102b360408401610242565b60408201526102c460608401610242565b60608201526102d560808401610242565b60808201526102e660a08401610242565b60a08201526102f760c0840161025d565b60c082015261030860e0840161025d565b60e082015261031a610100840161025d565b61010082015261032d610120840161025d565b610120820152610340610140840161025d565b6101408201529392505050565b5f63ffffffff83168061036e57634e487b7160e01b5f52601260045260245ffd5b8063ffffffff84160691505092915050565b60805160a05160c05160e05161010051610120516101405161016051610180516101a0516101c05161531e6104705f395f81816106800152613b3101525f81816105070152613d1701525f81816104560152612f6401525f81816105e20152613cd501525f81816109e10152613bbf01525f81816108c001528181613c0f0152613c8301525f818161076501526115b301525f8181610a3501528181610c2201528181611646015281816118ef0152818161238301526124b901525f81816106090152613da901525f8181610abb01526122f301525f818161082c01528181612e200152613a44015261531e5ff3fe608060405234801561000f575f5ffd5b5060043610610416575f3560e01c80638cb0ae1b11610221578063ca8aa7c71161012a578063f2f07ab4116100b4578063f96abf2e11610084578063f96abf2e14610b83578063fabc1cbc14610b96578063fbf1e2c114610ba9578063fce36c7d14610bbc578063ff9f6cce14610bcf575f5ffd5b8063f2f07ab414610b1d578063f2fde38b14610b4a578063f74e8eac14610b5d578063f8cd844814610b70575f5ffd5b8063e74b981b116100fa578063e74b981b14610a90578063e810ce2114610aa3578063ea4d3c9b14610ab6578063ed71e6a214610add578063f22cef8514610b0a575f5ffd5b8063ca8aa7c714610a30578063dcbb03b314610a57578063de02e50314610a6a578063e063f81f14610a7d575f5ffd5b8063a50a1d9c116101ab578063b3dbb0e01161017b578063b3dbb0e01461097d578063b73c1b9214610990578063bb7e451f146109bd578063bf21a8aa146109dc578063c46db60614610a03575f5ffd5b8063a50a1d9c14610908578063a89c29301461091b578063acad72991461093d578063aebd8bae14610950575f5ffd5b80639be3d4e4116101f15780639be3d4e4146108a05780639cb9a5fa146108a85780639d45c281146108bb5780639de4b35f146108e2578063a0169ddd146108f5575f5ffd5b80638cb0ae1b1461084e5780638d424f49146108615780638da5cb5b146108745780639104c31914610885575f5ffd5b8063469048401161032357806367eab2be116102ad5780637ae305831161027d5780637ae30583146107cf5780637b8f8b05146107e2578063863cb9a9146107ea578063865c6953146107fd578063886f119514610827575f5ffd5b806367eab2be146107605780636d21117e14610787578063715018a6146107b45780637282a352146107bc575f5ffd5b8063595c6a67116102f3578063595c6a67146107055780635ac86ab71461070d5780635c975abb146107305780635e9d83481461073857806363f6a7981461074b575f5ffd5b806346904840146106a25780634b943960146106b55780634d18cc35146106db57806358baaa3e146106f2575f5ffd5b80632b9f64a4116103a45780633a8c0786116103745780633a8c07861461062b5780633ccc861d146106425780633efe1db6146106555780634596021c146106685780634657e26a1461067b575f5ffd5b80632b9f64a41461058a57806336af41fa146105ca57806337838ed0146105dd57806339b70e3814610604575f5ffd5b80630eb38345116103ea5780630eb38345146104ef578063131433b414610502578063136439dd14610529578063149bc8721461053c5780632943e3ff1461055d575f5ffd5b806218572c1461041a57806304a0c502146104515780630ca298991461048d5780630e9a53cf146104a2575b5f5ffd5b61043c610428366004614309565b60d16020525f908152604090205460ff1681565b60405190151581526020015b60405180910390f35b6104787f000000000000000000000000000000000000000000000000000000000000000081565b60405163ffffffff9091168152602001610448565b6104a061049b366004614381565b610be2565b005b6104aa610e5d565b60405161044891905f6080820190508251825263ffffffff602084015116602083015263ffffffff604084015116604083015260608301511515606083015292915050565b6104a06104fd3660046143dd565b610f5d565b6104787f000000000000000000000000000000000000000000000000000000000000000081565b6104a0610537366004614414565b610fdd565b61054f61054a36600461442b565b611017565b604051908152602001610448565b61043c61056b366004614445565b60d860209081525f928352604080842090915290825290205460ff1681565b6105b2610598366004614309565b60cc6020525f90815260409020546001600160a01b031681565b6040516001600160a01b039091168152602001610448565b6104a06105d836600461446f565b61108c565b6104787f000000000000000000000000000000000000000000000000000000000000000081565b6105b27f000000000000000000000000000000000000000000000000000000000000000081565b60cb5461047890600160a01b900463ffffffff1681565b6104a06106503660046144be565b611217565b6104a0610663366004614514565b61123e565b6104a061067636600461453e565b611414565b6105b27f000000000000000000000000000000000000000000000000000000000000000081565b60db546105b2906001600160a01b031681565b6106c86106c3366004614309565b611477565b60405161ffff9091168152602001610448565b60cb5461047890600160c01b900463ffffffff1681565b6104a0610700366004614590565b6114d2565b6104a06114e6565b61043c61071b3660046145a9565b606654600160ff9092169190911b9081161490565b60665461054f565b61043c6107463660046145c9565b6114fa565b60cb546106c890600160e01b900461ffff1681565b6105b27f000000000000000000000000000000000000000000000000000000000000000081565b61043c610795366004614445565b60cf60209081525f928352604080842090915290825290205460ff1681565b6104a0611585565b6104a06107ca3660046145fa565b611596565b6104a06107dd366004614381565b611606565b60ca5461054f565b6104a06107f8366004614309565b61189e565b61054f61080b36600461463c565b60cd60209081525f928352604080842090915290825290205481565b6105b27f000000000000000000000000000000000000000000000000000000000000000081565b6104a061085c366004614381565b6118af565b6104a061086f3660046143dd565b611b47565b6033546001600160a01b03166105b2565b6105b273beac0eeeeeeeeeeeeeeeeeeeeeeeeeeeeeebeac081565b6104aa611b5b565b6104a06108b63660046145fa565b611bf7565b6104787f000000000000000000000000000000000000000000000000000000000000000081565b6106c86108f0366004614668565b611d4c565b6104a0610903366004614309565b611dcf565b6104a06109163660046146a4565b611dda565b61043c610929366004614309565b60da6020525f908152604090205460ff1681565b6104a061094b3660046146bd565b611deb565b61043c61095e366004614445565b60d260209081525f928352604080842090915290825290205460ff1681565b6104a061098b36600461472e565b611f05565b61043c61099e366004614445565b60d960209081525f928352604080842090915290825290205460ff1681565b61054f6109cb366004614309565b60ce6020525f908152604090205481565b6104787f000000000000000000000000000000000000000000000000000000000000000081565b61043c610a11366004614445565b60d060209081525f928352604080842090915290825290205460ff1681565b6105b27f000000000000000000000000000000000000000000000000000000000000000081565b6104a0610a65366004614758565b612013565b6104aa610a78366004614414565b612143565b6106c8610a8b36600461463c565b6121d3565b6104a0610a9e366004614309565b612238565b610478610ab1366004614414565b612249565b6105b27f000000000000000000000000000000000000000000000000000000000000000081565b61043c610aeb366004614445565b60d360209081525f928352604080842090915290825290205460ff1681565b6104a0610b1836600461463c565b6122ca565b61043c610b2b366004614445565b60d760209081525f928352604080842090915290825290205460ff1681565b6104a0610b58366004614309565b612417565b6104a0610b6b36600461479c565b61248d565b61054f610b7e36600461442b565b612637565b6104a0610b91366004614590565b612647565b6104a0610ba4366004614414565b612778565b60cb546105b2906001600160a01b031681565b6104a0610bca36600461446f565b6127e5565b6104a0610bdd36600461446f565b612802565b6009610bed81612967565b610bfa6020850185614309565b610c0381612992565b610c0b6129b8565b6040516304c1b8eb60e31b81526001600160a01b037f0000000000000000000000000000000000000000000000000000000000000000169063260dc75890610c57908890600401614807565b602060405180830381865afa158015610c72573d5f5f3e3d5ffd5b505050506040513d601f19601f82011682018060405250810190610c969190614815565b610cb357604051631fb1705560e21b815260040160405180910390fd5b5f5b83811015610e4b575f858583818110610cd057610cd0614830565b9050602002810190610ce29190614844565b610ceb90614ac0565b90505f60ce81610cfe60208b018b614309565b6001600160a01b03166001600160a01b031681526020019081526020015f205490505f5f5f610d3f8b5f016020810190610d389190614309565b8587612a11565b60208801519295509093509150610d61906001600160a01b0316333085612d14565b610d7085602001518383612d7f565b600160d75f610d8260208f018f614309565b6001600160a01b0316815260208082019290925260409081015f9081208782529092529020805460ff1916911515919091179055610dc1846001614b9d565b60ce5f610dd160208f018f614309565b6001600160a01b03166001600160a01b031681526020019081526020015f208190555082336001600160a01b03167ffff0759ccb371dfb5691798724e70b4fa61cb3bfe730a33ac19fb86a48efc7568d8789604051610e3293929190614d0b565b60405180910390a3505060019093019250610cb5915050565b50610e566001609755565b5050505050565b604080516080810182525f80825260208201819052918101829052606081019190915260ca545b8015610f35575f60ca610e98600184614d39565b81548110610ea857610ea8614830565b5f91825260209182902060408051608081018252600293909302909101805483526001015463ffffffff80821694840194909452600160201b810490931690820152600160401b90910460ff161580156060830181905291925090610f175750806040015163ffffffff164210155b15610f225792915050565b5080610f2d81614d4c565b915050610e84565b5050604080516080810182525f80825260208201819052918101829052606081019190915290565b610f65612db1565b6001600160a01b0382165f81815260d1602052604080822054905160ff9091169284151592841515927f4de6293e668df1398422e1def12118052c1539a03cbfedc145895d48d7685f1c9190a4506001600160a01b03919091165f90815260d160205260409020805460ff1916911515919091179055565b610fe5612e0b565b606654818116811461100a5760405163c61dca5d60e01b815260040160405180910390fd5b61101382612eae565b5050565b5f806110266020840184614309565b836020013560405160200161106f9392919060f89390931b6001600160f81b031916835260609190911b6bffffffffffffffffffffffff19166001830152601582015260350190565b604051602081830303815290604052805190602001209050919050565b600161109781612967565b335f90815260d1602052604090205460ff166110c657604051635c427cd960e01b815260040160405180910390fd5b6110ce6129b8565b5f5b8281101561120757368484838181106110eb576110eb614830565b90506020028101906110fd9190614d61565b335f81815260ce602090815260408083205490519495509391926111279290918591879101614e7d565b6040516020818303038152906040528051906020012090506111518361114c90614ea3565b612eeb565b335f90815260d0602090815260408083208484529091529020805460ff19166001908117909155611183908390614b9d565b335f81815260ce602052604090819020929092559051829184917f51088b8c89628df3a8174002c2a034d0152fce6af8415d651b2a4734bf270482906111ca908890614f41565b60405180910390a46111fc3330604086018035906111eb9060208901614309565b6001600160a01b0316929190612d14565b5050506001016110d0565b506112126001609755565b505050565b600261122281612967565b61122a6129b8565b6112348383612fb4565b6112126001609755565b600361124981612967565b60cb546001600160a01b0316331461127457604051635c427cd960e01b815260040160405180910390fd5b60cb5463ffffffff600160c01b9091048116908316116112a757604051631ca7e50b60e21b815260040160405180910390fd5b428263ffffffff16106112cd576040516306957c9160e11b815260040160405180910390fd5b60ca5460cb545f906112ec90600160a01b900463ffffffff1642614f53565b6040805160808101825287815263ffffffff87811660208084018281528684168587018181525f6060880181815260ca8054600181018255925297517f42d72674974f694b5f5159593243114d38a5c39c89d6b62fee061ff523240ee160029092029182015592517f42d72674974f694b5f5159593243114d38a5c39c89d6b62fee061ff523240ee290930180549151975193871667ffffffffffffffff1990921691909117600160201b978716979097029690961760ff60401b1916600160401b921515929092029190911790945560cb805463ffffffff60c01b1916600160c01b840217905593519283529394508892908616917fecd866c3c158fa00bf34d803d5f6023000b57080bcb48af004c2b4b46b3afd08910160405180910390a45050505050565b600261141f81612967565b6114276129b8565b5f5b838110156114665761145e85858381811061144657611446614830565b90506020028101906114589190614f6f565b84612fb4565b600101611429565b506114716001609755565b50505050565b6001600160a01b0381165f90815260d5602090815260408083208151606081018352905461ffff80821683526201000082041693820193909352600160201b90920463ffffffff16908201526114cc90613244565b92915050565b6114da612db1565b6114e3816132b4565b50565b6114ee612e0b565b6114f85f19612eae565b565b5f61157d8260ca61150e6020830183614590565b63ffffffff168154811061152457611524614830565b5f91825260209182902060408051608081018252600293909302909101805483526001015463ffffffff80821694840194909452600160201b810490931690820152600160401b90910460ff1615156060820152613325565b506001919050565b61158d612db1565b6114f85f6134c8565b5f6115a081612967565b6115a86129b8565b336001600160a01b037f000000000000000000000000000000000000000000000000000000000000000016146115f157604051635c427cd960e01b815260040160405180910390fd5b6115fc848484613519565b6114716001609755565b600a61161181612967565b61161e6020850185614309565b61162781612992565b61162f6129b8565b6040516304c1b8eb60e31b81526001600160a01b037f0000000000000000000000000000000000000000000000000000000000000000169063260dc7589061167b908890600401614807565b602060405180830381865afa158015611696573d5f5f3e3d5ffd5b505050506040513d601f19601f820116820180604052508101906116ba9190614815565b6116d757604051631fb1705560e21b815260040160405180910390fd5b5f5b83811015610e4b575f8585838181106116f4576116f4614830565b90506020028101906117069190614d61565b61170f90614ea3565b905061171a81612eeb565b6117423330836040015184602001516001600160a01b0316612d14909392919063ffffffff16565b6117548160200151826040015161367e565b60408201525f60ce8161176a60208b018b614309565b6001600160a01b031681526020808201929092526040015f90812054925090611795908a018a614309565b82846040516020016117a993929190614fdf565b604051602081830303815290604052805190602001209050600160d85f8b5f0160208101906117d89190614309565b6001600160a01b0316815260208082019290925260409081015f9081208582529092529020805460ff1916911515919091179055611817826001614b9d565b60ce5f61182760208d018d614309565b6001600160a01b03166001600160a01b031681526020019081526020015f208190555080336001600160a01b03167fb3337dc034abe0f5e3694e1f115f3d6ec9fcee74e7835ea68f6e2d29bbc1b0aa8b858760405161188893929190615005565b60405180910390a35050508060010190506116d9565b6118a6612db1565b6114e3816136ed565b600b6118ba81612967565b6118c76020850185614309565b6118d081612992565b6118d86129b8565b6040516304c1b8eb60e31b81526001600160a01b037f0000000000000000000000000000000000000000000000000000000000000000169063260dc75890611924908890600401614807565b602060405180830381865afa15801561193f573d5f5f3e3d5ffd5b505050506040513d601f19601f820116820180604052508101906119639190614815565b61198057604051631fb1705560e21b815260040160405180910390fd5b5f5b83811015610e4b575f85858381811061199d5761199d614830565b90506020028101906119af9190614d61565b6119b890614ea3565b90506119c381612eeb565b6119eb3330836040015184602001516001600160a01b0316612d14909392919063ffffffff16565b6119fd8160200151826040015161367e565b60408201525f60ce81611a1360208b018b614309565b6001600160a01b031681526020808201929092526040015f90812054925090611a3e908a018a614309565b8284604051602001611a5293929190614fdf565b604051602081830303815290604052805190602001209050600160d95f8b5f016020810190611a819190614309565b6001600160a01b0316815260208082019290925260409081015f9081208582529092529020805460ff1916911515919091179055611ac0826001614b9d565b60ce5f611ad060208d018d614309565b6001600160a01b03166001600160a01b031681526020019081526020015f208190555080336001600160a01b03167f71836f06ac5c96075d4c5b5699a92b18e9c6d91579a382e9e55a1adf097f64df8b8587604051611b3193929190615005565b60405180910390a3505050806001019050611982565b81611b5181612992565b6112128383613748565b604080516080810182525f80825260208201819052918101829052606081019190915260ca8054611b8e90600190614d39565b81548110611b9e57611b9e614830565b5f91825260209182902060408051608081018252600293909302909101805483526001015463ffffffff80821694840194909452600160201b810490931690820152600160401b90910460ff1615156060820152919050565b6005611c0281612967565b83611c0c81612992565b611c146129b8565b5f5b83811015610e4b575f858583818110611c3157611c31614830565b9050602002810190611c439190614844565b611c4c90614ac0565b6001600160a01b0388165f90815260ce60205260408120549192508080611c748b8587612a11565b60208801519295509093509150611c96906001600160a01b0316333085612d14565b611ca585602001518383612d7f565b6001600160a01b038b165f90815260d3602090815260408083208684529091529020805460ff19166001908117909155611ce0908590614b9d565b6001600160a01b038c165f81815260ce60205260409081902092909255905184919033907ffc8888bffd711da60bc5092b33f677d81896fe80ecc677b84cfab8184462b6e090611d339089908b9061502a565b60405180910390a4505060019093019250611c16915050565b6001600160a01b0382165f90815260d660205260408120611dc89082611d7f611d7a36879003870187615042565b6137c0565b815260208082019290925260409081015f208151606081018352905461ffff80821683526201000082041693820193909352600160201b90920463ffffffff1690820152613244565b9392505050565b336110138183613823565b611de2612db1565b6114e381613886565b5f54600290610100900460ff16158015611e0b57505f5460ff8083169116105b611e735760405162461bcd60e51b815260206004820152602e60248201527f496e697469616c697a61626c653a20636f6e747261637420697320616c72656160448201526d191e481a5b9a5d1a585b1a5e995960921b60648201526084015b60405180910390fd5b5f805461ffff191660ff831617610100179055611e8f86612eae565b611e98876134c8565b611ea1856136ed565b611eaa846132b4565b611eb383613886565b611ebc826138f1565b5f805461ff001916905560405160ff821681527f7f26b83ff96e1f2b6a682f133852f6798a09c465da95921460cefb38474024989060200160405180910390a150505050505050565b6007611f1081612967565b82611f1a81612992565b60cb545f90611f3690600160a01b900463ffffffff1642614f53565b6001600160a01b0386165f90815260d5602090815260408083208151606081018352905461ffff80821683526201000082041693820193909352600160201b90920463ffffffff169082015291925090611f8f90613244565b6001600160a01b0387165f90815260d560205260409020909150611fb4908684613973565b6040805163ffffffff8416815261ffff838116602083015287168183015290516001600160a01b0388169133917fd1e028bd664486a46ad26040e999cd2d22e1e9a094ee6afe19fcf64678f16f749181900360600190a3505050505050565b600661201e81612967565b8361202881612992565b60cb545f9061204490600160a01b900463ffffffff1642614f53565b6001600160a01b038781165f90815260d460209081526040808320938a1683529281528282208351606081018552905461ffff80821683526201000082041692820192909252600160201b90910463ffffffff16928101929092529192506120ab90613244565b6001600160a01b038089165f90815260d460209081526040808320938b168352929052209091506120dd908684613973565b6040805163ffffffff8416815261ffff838116602083015287168183015290516001600160a01b0388811692908a169133917f48e198b6ae357e529204ee53a8e514c470ff77d9cc8e4f7207f8b5d490ae6934919081900360600190a450505050505050565b604080516080810182525f80825260208201819052918101829052606081019190915260ca828154811061217957612179614830565b5f91825260209182902060408051608081018252600293909302909101805483526001015463ffffffff80821694840194909452600160201b810490931690820152600160401b90910460ff161515606082015292915050565b6001600160a01b038281165f90815260d46020908152604080832093851683529281528282208351606081018552905461ffff80821683526201000082041692820192909252600160201b90910463ffffffff169281019290925290611dc890613244565b612240612db1565b6114e3816138f1565b60ca545f905b63ffffffff8116156122b0578260ca612269600184615081565b63ffffffff168154811061227f5761227f614830565b905f5260205f2090600202015f01540361229e57611dc8600182615081565b806122a88161509d565b91505061224f565b5060405163504570e360e01b815260040160405180910390fd5b816122d481612992565b6040516336b87bd760e11b81526001600160a01b0384811660048301527f00000000000000000000000000000000000000000000000000000000000000001690636d70f7ae90602401602060405180830381865afa158015612338573d5f5f3e3d5ffd5b505050506040513d601f19601f8201168201806040525081019061235c9190614815565b806123f0575060405163ba1a84e560e01b81526001600160a01b0384811660048301525f917f00000000000000000000000000000000000000000000000000000000000000009091169063ba1a84e590602401602060405180830381865afa1580156123ca573d5f5f3e3d5ffd5b505050506040513d601f19601f820116820180604052508101906123ee91906150bb565b115b61240d5760405163fb494ea160e01b815260040160405180910390fd5b6112128383613823565b61241f612db1565b6001600160a01b0381166124845760405162461bcd60e51b815260206004820152602660248201527f4f776e61626c653a206e6577206f776e657220697320746865207a65726f206160448201526564647265737360d01b6064820152608401611e6a565b6114e3816134c8565b600861249881612967565b836124a281612992565b6040516304c1b8eb60e31b81526001600160a01b037f0000000000000000000000000000000000000000000000000000000000000000169063260dc758906124ee908790600401614807565b602060405180830381865afa158015612509573d5f5f3e3d5ffd5b505050506040513d601f19601f8201168201806040525081019061252d9190614815565b61254a57604051631fb1705560e21b815260040160405180910390fd5b60cb545f9061256690600160a01b900463ffffffff1642614f53565b6001600160a01b0387165f90815260d660205260408120919250906125989082611d7f611d7a368b90038b018b615042565b6001600160a01b0388165f90815260d6602052604081209192506125dd91906125c9611d7a368b90038b018b615042565b81526020019081526020015f208684613973565b866001600160a01b0316336001600160a01b03167f14918b3834ab6752eb2e1b489b6663a67810efb5f56f3944a97ede8ecf1fd9f18885858a60405161262694939291906150d2565b60405180910390a350505050505050565b5f60016110266020840184614309565b600361265281612967565b60cb546001600160a01b0316331461267d57604051635c427cd960e01b815260040160405180910390fd5b60ca5463ffffffff8316106126a5576040516394a8d38960e01b815260040160405180910390fd5b5f60ca8363ffffffff16815481106126bf576126bf614830565b905f5260205f20906002020190508060010160089054906101000a900460ff16156126fd57604051631b14174b60e01b815260040160405180910390fd5b6001810154600160201b900463ffffffff16421061272e57604051630c36f66560e21b815260040160405180910390fd5b60018101805460ff60401b1916600160401b17905560405163ffffffff8416907fd850e6e5dfa497b72661fa73df2923464eaed9dc2ff1d3cb82bccbfeabe5c41e905f90a2505050565b612780613a42565b606654801982198116146127a75760405163c61dca5d60e01b815260040160405180910390fd5b606682905560405182815233907f3582d1828e26bf56bd801502bc021ac0bc8afb57c826e4986b45593c8fad389c9060200160405180910390a25050565b5f6127ef81612967565b6127f76129b8565b611234338484613519565b600461280d81612967565b335f90815260d1602052604090205460ff1661283c57604051635c427cd960e01b815260040160405180910390fd5b6128446129b8565b5f5b82811015611207573684848381811061286157612861614830565b90506020028101906128739190614d61565b335f81815260ce6020908152604080832054905194955093919261289d9290918591879101614e7d565b6040516020818303038152906040528051906020012090506128c28361114c90614ea3565b335f90815260d2602090815260408083208484529091529020805460ff191660019081179091556128f4908390614b9d565b335f81815260ce602052604090819020929092559051829184917f5251b6fdefcb5d81144e735f69ea4c695fd43b0289ca53dc075033f5fc80068b9061293b908890614f41565b60405180910390a461295c3330604086018035906111eb9060208901614309565b505050600101612846565b606654600160ff83161b908116036114e35760405163840a48d560e01b815260040160405180910390fd5b61299b81613af3565b6114e35760405163932d94f760e01b815260040160405180910390fd5b600260975403612a0a5760405162461bcd60e51b815260206004820152601f60248201527f5265656e7472616e637947756172643a207265656e7472616e742063616c6c006044820152606401611e6a565b6002609755565b5f5f5f612a2a845f015185606001518660800151613b9c565b5f84604001515111612a4f5760405163796cc52560e01b815260040160405180910390fd5b4284608001518560600151612a649190614f53565b63ffffffff1610612a885760405163150358a160e21b815260040160405180910390fd5b335f90815260da602052604080822054908601515160ff9091169190815b81811015612ca9575f6001600160a01b031688604001518281518110612ace57612ace614830565b60200260200101515f01516001600160a01b031603612b0057604051630863a45360e11b815260040160405180910390fd5b87604001518181518110612b1657612b16614830565b60200260200101515f01516001600160a01b0316836001600160a01b031610612b52576040516310fb47f160e31b815260040160405180910390fd5b5f88604001518281518110612b6957612b69614830565b60200260200101516020015111612b93576040516310eb483f60e21b815260040160405180910390fd5b87604001518181518110612ba957612ba9614830565b60200260200101516020015186612bc09190614b9d565b95505f61271061ffff166107d061ffff168a604001518481518110612be757612be7614830565b602002602001015160200151612bfd9190615106565b612c079190615131565b9050848015612c1557508015155b15612c4d578089604001518381518110612c3157612c31614830565b6020026020010151602001818151612c499190614d39565b9052505b88604001518281518110612c6357612c63614830565b60200260200101516020015186612c7a9190614b9d565b955088604001518281518110612c9257612c92614830565b602090810291909101015151935050600101612aa6565b506f4b3b4ca85a86c47a098a223fffffffff851115612cdb5760405163070b5a6f60e21b815260040160405180910390fd5b888888604051602001612cf093929190615144565b60405160208183030381529060405280519060200120955050505093509350939050565b6040516001600160a01b03808516602483015283166044820152606481018290526114719085906323b872dd60e01b906084015b60408051601f198184030181529190526020810180516001600160e01b03166001600160e01b031990931692909217909152613e94565b8181146112125760db54611212906001600160a01b0316612da08385614d39565b6001600160a01b0386169190613f67565b6033546001600160a01b031633146114f85760405162461bcd60e51b815260206004820181905260248201527f4f776e61626c653a2063616c6c6572206973206e6f7420746865206f776e65726044820152606401611e6a565b60405163237dfb4760e11b81523360048201527f00000000000000000000000000000000000000000000000000000000000000006001600160a01b0316906346fbf68e90602401602060405180830381865afa158015612e6d573d5f5f3e3d5ffd5b505050506040513d601f19601f82011682018060405250810190612e919190614815565b6114f857604051631d77d47760e21b815260040160405180910390fd5b606681905560405181815233907fab40a374bc51de372200a8bc981af8c9ecdc08dfdaef0bb6e09f88f3c616ef3d9060200160405180910390a250565b612f01815f015182606001518360800151613b9c565b5f816040015111612f25576040516310eb483f60e21b815260040160405180910390fd5b6f4b3b4ca85a86c47a098a223fffffffff81604001511115612f5a5760405163070b5a6f60e21b815260040160405180910390fd5b612f8a63ffffffff7f00000000000000000000000000000000000000000000000000000000000000001642614b9d565b816060015163ffffffff1611156114e357604051637ee2b44360e01b815260040160405180910390fd5b5f60ca612fc46020850185614590565b63ffffffff1681548110612fda57612fda614830565b5f91825260209182902060408051608081018252600293909302909101805483526001015463ffffffff80821694840194909452600160201b810490931690820152600160401b90910460ff1615156060820152905061303a8382613325565b5f61304b6080850160608601614309565b6001600160a01b038082165f90815260cc602052604090205491925016806130705750805b336001600160a01b0382161461309957604051635c427cd960e01b815260040160405180910390fd5b5f5b6130a860a087018761516a565b905081101561323c57366130bf60e08801886151af565b838181106130cf576130cf614830565b6001600160a01b0387165f90815260cd60209081526040808320930294909401945092909150829061310390850185614309565b6001600160a01b03166001600160a01b031681526020019081526020015f20549050808260200135116131495760405163aa385e8160e01b815260040160405180910390fd5b5f613158826020850135614d39565b6001600160a01b0387165f90815260cd602090815260408220929350850180359291906131859087614309565b6001600160a01b031681526020808201929092526040015f20919091556131c690899083906131b690870187614309565b6001600160a01b03169190613f67565b86516001600160a01b03808a1691878216918916907f9543dbd55580842586a951f0386e24d68a5df99ae29e3b216588b45fd684ce319061320a6020890189614309565b604080519283526001600160a01b039091166020830152810186905260600160405180910390a450505060010161309b565b505050505050565b5f816040015163ffffffff165f14806132765750815161ffff9081161480156132765750816040015163ffffffff1642105b1561328e57505060cb54600160e01b900461ffff1690565b816040015163ffffffff164210156132a75781516114cc565b506020015190565b919050565b60cb546040805163ffffffff600160a01b9093048316815291831660208301527faf557c6c02c208794817a705609cfa935f827312a1adfdd26494b6b95dd2b4b3910160405180910390a160cb805463ffffffff909216600160a01b0263ffffffff60a01b19909216919091179055565b80606001511561334857604051631b14174b60e01b815260040160405180910390fd5b806040015163ffffffff1642101561337357604051631437a2bb60e31b815260040160405180910390fd5b61338060c083018361516a565b905061338f60a084018461516a565b9050146133af576040516343714afd60e01b815260040160405180910390fd5b6133bc60e08301836151af565b90506133cb60c084018461516a565b9050146133eb576040516343714afd60e01b815260040160405180910390fd5b8051613417906134016040850160208601614590565b61340e60408601866151f4565b86606001613f97565b5f5b61342660a084018461516a565b9050811015611212576134c0608084013561344460a086018661516a565b8481811061345457613454614830565b90506020020160208101906134699190614590565b61347660c087018761516a565b8581811061348657613486614830565b905060200281019061349891906151f4565b6134a560e08901896151af565b878181106134b5576134b5614830565b90506040020161403b565b600101613419565b603380546001600160a01b038381166001600160a01b0319831681179093556040519116919082907f8be0079c531659141344cd1fd0a4f28419497f9722a3daafe3b4186f6b6457e0905f90a35050565b5f5b81811015611471575f83838381811061353657613536614830565b90506020028101906135489190614d61565b61355190614ea3565b905061355c81612eeb565b6135843330836040015184602001516001600160a01b0316612d14909392919063ffffffff16565b6135968160200151826040015161367e565b6040808301919091526001600160a01b0386165f90815260ce60209081528282205492516135ca9189918591879101614fdf565b60408051601f1981840301815291815281516020928301206001600160a01b038a165f90815260cf84528281208282529093529120805460ff1916600190811790915590915061361b908390614b9d565b6001600160a01b0388165f81815260ce602052604090819020929092559051829184917f450a367a380c4e339e5ae7340c8464ef27af7781ad9945cfe8abd828f89e62819061366b908890615236565b60405180910390a450505060010161351b565b5f8061271061368f6107d085615106565b6136999190615131565b335f90815260da602052604090205490915060ff16156136e55780156136e55760db546136d3906001600160a01b03868116911683613f67565b6136dd8184614d39565b9150506114cc565b509092915050565b60cb546040516001600160a01b038084169216907f237b82f438d75fc568ebab484b75b01d9287b9e98b490b7c23221623b6705dbb905f90a360cb80546001600160a01b0319166001600160a01b0392909216919091179055565b6001600160a01b0382165f81815260da602052604080822054905160ff9091169284151592841515927fbb020e17dc9a72ff25958029a3ddf0c05cebaac105769b31b6238aaca3910cd29190a4506001600160a01b03919091165f90815260da60205260409020805460ff1916911515919091179055565b5f815f0151826020015163ffffffff1660405160200161380b92919060609290921b6bffffffffffffffffffffffff1916825260a01b6001600160a01b031916601482015260200190565b6040516020818303038152906040526114cc90615248565b6001600160a01b038083165f81815260cc602052604080822080548686166001600160a01b0319821681179092559151919094169392849290917fbab947934d42e0ad206f25c9cab18b5bb6ae144acfb00f40b4e3aa59590ca3129190a4505050565b60cb546040805161ffff600160e01b9093048316815291831660208301527fe6cd4edfdcc1f6d130ab35f73d72378f3a642944fb4ee5bd84b7807a81ea1c4e910160405180910390a160cb805461ffff909216600160e01b0261ffff60e01b19909216919091179055565b6001600160a01b03811661391857604051630863a45360e11b815260040160405180910390fd5b60db546040516001600160a01b038084169216907f15d80a013f22151bc7246e3bc132e12828cde19de98870475e3fa70840152721905f90a360db80546001600160a01b0319166001600160a01b0392909216919091179055565b61271061ffff8316111561399a5760405163891c63df60e01b815260040160405180910390fd5b8254600160201b900463ffffffff1642116139c857604051637b1e25c560e01b815260040160405180910390fd5b8254600160201b900463ffffffff165f036139ef57825461ffff191661ffff178355613a06565b825462010000810461ffff1661ffff199091161783555b825463ffffffff909116600160201b0267ffffffff000000001961ffff90931662010000029290921667ffffffffffff00001990911617179055565b7f00000000000000000000000000000000000000000000000000000000000000006001600160a01b031663eab66d7a6040518163ffffffff1660e01b8152600401602060405180830381865afa158015613a9e573d5f5f3e3d5ffd5b505050506040513d601f19601f82011682018060405250810190613ac2919061526b565b6001600160a01b0316336001600160a01b0316146114f85760405163794821ff60e01b815260040160405180910390fd5b604051631beb2b9760e31b81526001600160a01b0382811660048301523360248301523060448301525f80356001600160e01b0319166064840152917f00000000000000000000000000000000000000000000000000000000000000009091169063df595cb890608401602060405180830381865afa158015613b78573d5f5f3e3d5ffd5b505050506040513d601f19601f820116820180604052508101906114cc9190614815565b5f835111613bbd5760405163796cc52560e01b815260040160405180910390fd5b7f000000000000000000000000000000000000000000000000000000000000000063ffffffff168163ffffffff161115613c0a57604051630dd0b9f560e21b815260040160405180910390fd5b613c347f000000000000000000000000000000000000000000000000000000000000000082615286565b63ffffffff1615613c585760405163ee66470560e01b815260040160405180910390fd5b5f8163ffffffff1611613c7e5760405163cb3f434d60e01b815260040160405180910390fd5b613ca87f000000000000000000000000000000000000000000000000000000000000000083615286565b63ffffffff1615613ccc57604051633c1a94f160e21b815260040160405180910390fd5b8163ffffffff167f000000000000000000000000000000000000000000000000000000000000000063ffffffff1642613d059190614d39565b11158015613d3f57508163ffffffff167f000000000000000000000000000000000000000000000000000000000000000063ffffffff1611155b613d5c5760405163041aa75760e11b815260040160405180910390fd5b5f805b8451811015610e56575f858281518110613d7b57613d7b614830565b60209081029190910101515160405163198f077960e21b81526001600160a01b0380831660048301529192507f00000000000000000000000000000000000000000000000000000000000000009091169063663c1de490602401602060405180830381865afa158015613df0573d5f5f3e3d5ffd5b505050506040513d601f19601f82011682018060405250810190613e149190614815565b80613e3b57506001600160a01b03811673beac0eeeeeeeeeeeeeeeeeeeeeeeeeeeeeebeac0145b613e5857604051632efd965160e11b815260040160405180910390fd5b806001600160a01b0316836001600160a01b031610613e8a5760405163dfad9ca160e01b815260040160405180910390fd5b9150600101613d5f565b5f613ee8826040518060400160405280602081526020017f5361666545524332303a206c6f772d6c6576656c2063616c6c206661696c6564815250856001600160a01b03166140799092919063ffffffff16565b905080515f1480613f08575080806020019051810190613f089190614815565b6112125760405162461bcd60e51b815260206004820152602a60248201527f5361666545524332303a204552433230206f7065726174696f6e20646964206e6044820152691bdd081cdd58d8d9595960b21b6064820152608401611e6a565b6040516001600160a01b03831660248201526044810182905261121290849063a9059cbb60e01b90606401612d48565b613fa2602083615131565b6001901b8463ffffffff1610613fca5760405162c6c39d60e71b815260040160405180910390fd5b5f613fd482611017565b905061401e84848080601f0160208091040260200160405190810160405280939291908181526020018383808284375f920191909152508a92508591505063ffffffff891661408f565b61323c576040516369ca16c960e01b815260040160405180910390fd5b614046602083615131565b6001901b8463ffffffff161061406f5760405163054ff4df60e51b815260040160405180910390fd5b5f613fd482612637565b606061408784845f856140c4565b949350505050565b5f836140ae576040516329e7276760e11b815260040160405180910390fd5b836140ba86858561419b565b1495945050505050565b6060824710156141255760405162461bcd60e51b815260206004820152602660248201527f416464726573733a20696e73756666696369656e742062616c616e636520666f6044820152651c8818d85b1b60d21b6064820152608401611e6a565b5f5f866001600160a01b0316858760405161414091906152ad565b5f6040518083038185875af1925050503d805f811461417a576040519150601f19603f3d011682016040523d82523d5f602084013e61417f565b606091505b509150915061419087838387614258565b979650505050505050565b5f83515f036141ab575081611dc8565b602084516141b991906152c3565b156141d7576040516313717da960e21b815260040160405180910390fd5b8260205b85518111614238576141ee6002856152c3565b5f0361420f57815f528086015160205260405f209150600284049350614226565b808601515f528160205260405f2091506002840493505b614231602082614b9d565b90506141db565b508215614087576040516363df817160e01b815260040160405180910390fd5b606083156142c65782515f036142bf576001600160a01b0385163b6142bf5760405162461bcd60e51b815260206004820152601d60248201527f416464726573733a2063616c6c20746f206e6f6e2d636f6e74726163740000006044820152606401611e6a565b5081614087565b61408783838151156142db5781518083602001fd5b8060405162461bcd60e51b8152600401611e6a91906152d6565b6001600160a01b03811681146114e3575f5ffd5b5f60208284031215614319575f5ffd5b8135611dc8816142f5565b5f60408284031215614334575f5ffd5b50919050565b5f5f83601f84011261434a575f5ffd5b5081356001600160401b03811115614360575f5ffd5b6020830191508360208260051b850101111561437a575f5ffd5b9250929050565b5f5f5f60608486031215614393575f5ffd5b61439d8585614324565b925060408401356001600160401b038111156143b7575f5ffd5b6143c38682870161433a565b9497909650939450505050565b80151581146114e3575f5ffd5b5f5f604083850312156143ee575f5ffd5b82356143f9816142f5565b91506020830135614409816143d0565b809150509250929050565b5f60208284031215614424575f5ffd5b5035919050565b5f6040828403121561443b575f5ffd5b611dc88383614324565b5f5f60408385031215614456575f5ffd5b8235614461816142f5565b946020939093013593505050565b5f5f60208385031215614480575f5ffd5b82356001600160401b03811115614495575f5ffd5b6144a18582860161433a565b90969095509350505050565b5f6101008284031215614334575f5ffd5b5f5f604083850312156144cf575f5ffd5b82356001600160401b038111156144e4575f5ffd5b6144f0858286016144ad565b9250506020830135614409816142f5565b803563ffffffff811681146132af575f5ffd5b5f5f60408385031215614525575f5ffd5b8235915061453560208401614501565b90509250929050565b5f5f5f60408486031215614550575f5ffd5b83356001600160401b03811115614565575f5ffd5b6145718682870161433a565b9094509250506020840135614585816142f5565b809150509250925092565b5f602082840312156145a0575f5ffd5b611dc882614501565b5f602082840312156145b9575f5ffd5b813560ff81168114611dc8575f5ffd5b5f602082840312156145d9575f5ffd5b81356001600160401b038111156145ee575f5ffd5b614087848285016144ad565b5f5f5f6040848603121561460c575f5ffd5b8335614617816142f5565b925060208401356001600160401b038111156143b7575f5ffd5b80356132af816142f5565b5f5f6040838503121561464d575f5ffd5b8235614658816142f5565b91506020830135614409816142f5565b5f5f60608385031215614679575f5ffd5b8235614684816142f5565b91506145358460208501614324565b803561ffff811681146132af575f5ffd5b5f602082840312156146b4575f5ffd5b611dc882614693565b5f5f5f5f5f5f60c087890312156146d2575f5ffd5b86356146dd816142f5565b95506020870135945060408701356146f4816142f5565b935061470260608801614501565b925061471060808801614693565b915060a0870135614720816142f5565b809150509295509295509295565b5f5f6040838503121561473f575f5ffd5b823561474a816142f5565b915061453560208401614693565b5f5f5f6060848603121561476a575f5ffd5b8335614775816142f5565b92506020840135614785816142f5565b915061479360408501614693565b90509250925092565b5f5f5f608084860312156147ae575f5ffd5b83356147b9816142f5565b92506147c88560208601614324565b915061479360608501614693565b80356147e1816142f5565b6001600160a01b0316825263ffffffff6147fd60208301614501565b1660208301525050565b604081016114cc82846147d6565b5f60208284031215614825575f5ffd5b8151611dc8816143d0565b634e487b7160e01b5f52603260045260245ffd5b5f823560be19833603018112614858575f5ffd5b9190910192915050565b634e487b7160e01b5f52604160045260245ffd5b604080519081016001600160401b038111828210171561489857614898614862565b60405290565b60405160c081016001600160401b038111828210171561489857614898614862565b604051601f8201601f191681016001600160401b03811182821017156148e8576148e8614862565b604052919050565b5f6001600160401b0382111561490857614908614862565b5060051b60200190565b80356001600160601b03811681146132af575f5ffd5b5f82601f830112614937575f5ffd5b813561494a614945826148f0565b6148c0565b8082825260208201915060208360061b86010192508583111561496b575f5ffd5b602085015b838110156149c25760408188031215614987575f5ffd5b61498f614876565b813561499a816142f5565b81526149a860208301614912565b602082015280845250602083019250604081019050614970565b5095945050505050565b5f82601f8301126149db575f5ffd5b81356149e9614945826148f0565b8082825260208201915060208360061b860101925085831115614a0a575f5ffd5b602085015b838110156149c25760408188031215614a26575f5ffd5b614a2e614876565b8135614a39816142f5565b8152602082810135818301529084529290920191604001614a0f565b5f82601f830112614a64575f5ffd5b81356001600160401b03811115614a7d57614a7d614862565b614a90601f8201601f19166020016148c0565b818152846020838601011115614aa4575f5ffd5b816020850160208301375f918101602001919091529392505050565b5f60c08236031215614ad0575f5ffd5b614ad861489e565b82356001600160401b03811115614aed575f5ffd5b614af936828601614928565b825250614b0860208401614631565b602082015260408301356001600160401b03811115614b25575f5ffd5b614b31368286016149cc565b604083015250614b4360608401614501565b6060820152614b5460808401614501565b608082015260a08301356001600160401b03811115614b71575f5ffd5b614b7d36828601614a55565b60a08301525092915050565b634e487b7160e01b5f52601160045260245ffd5b808201808211156114cc576114cc614b89565b5f8151808452602084019350602083015f5b82811015614bfe57815180516001600160a01b031687526020908101516001600160601b03168188015260409096019590910190600101614bc2565b5093949350505050565b5f81518084528060208401602086015e5f602082860101526020601f19601f83011685010191505092915050565b5f815160c08452614c4a60c0850182614bb0565b6020848101516001600160a01b03168682015260408086015187840391880191909152805180845290820193505f92909101905b80831015614cb557835180516001600160a01b03168352602090810151818401529093019260019290920191604090910190614c7e565b5060608501519250614ccf606087018463ffffffff169052565b60808501519250614ce8608087018463ffffffff169052565b60a0850151925085810360a0870152614d018184614c08565b9695505050505050565b614d1581856147d6565b826040820152608060608201525f614d306080830184614c36565b95945050505050565b818103818111156114cc576114cc614b89565b5f81614d5a57614d5a614b89565b505f190190565b5f8235609e19833603018112614858575f5ffd5b8183526020830192505f815f5b84811015614bfe578135614d95816142f5565b6001600160a01b031686526001600160601b03614db460208401614912565b1660208701526040958601959190910190600101614d82565b5f8135601e19833603018112614de1575f5ffd5b82016020810190356001600160401b03811115614dfc575f5ffd5b8060061b3603821315614e0d575f5ffd5b60a08552614e1f60a086018284614d75565b915050614e2e60208401614631565b6001600160a01b0316602085015260408381013590850152614e5260608401614501565b63ffffffff166060850152614e6960808401614501565b63ffffffff81166080860152509392505050565b60018060a01b0384168152826020820152606060408201525f614d306060830184614dcd565b5f60a08236031215614eb3575f5ffd5b60405160a081016001600160401b0381118282101715614ed557614ed5614862565b60405282356001600160401b03811115614eed575f5ffd5b614ef936828601614928565b8252506020830135614f0a816142f5565b602082015260408381013590820152614f2560608401614501565b6060820152614f3660808401614501565b608082015292915050565b602081525f611dc86020830184614dcd565b63ffffffff81811683821601908111156114cc576114cc614b89565b5f823560fe19833603018112614858575f5ffd5b5f815160a08452614f9760a0850182614bb0565b905060018060a01b0360208401511660208501526040830151604085015263ffffffff606084015116606085015263ffffffff60808401511660808501528091505092915050565b60018060a01b0384168152826020820152606060408201525f614d306060830184614f83565b61500f81856147d6565b826040820152608060608201525f614d306080830184614f83565b828152604060208201525f6140876040830184614c36565b5f6040828403128015615053575f5ffd5b5061505c614876565b8235615067816142f5565b815261507560208401614501565b60208201529392505050565b63ffffffff82811682821603908111156114cc576114cc614b89565b5f63ffffffff8216806150b2576150b2614b89565b5f190192915050565b5f602082840312156150cb575f5ffd5b5051919050565b60a081016150e082876147d6565b63ffffffff94909416604082015261ffff92831660608201529116608090910152919050565b80820281158282048414176114cc576114cc614b89565b634e487b7160e01b5f52601260045260245ffd5b5f8261513f5761513f61511d565b500490565b60018060a01b0384168152826020820152606060408201525f614d306060830184614c36565b5f5f8335601e1984360301811261517f575f5ffd5b8301803591506001600160401b03821115615198575f5ffd5b6020019150600581901b360382131561437a575f5ffd5b5f5f8335601e198436030181126151c4575f5ffd5b8301803591506001600160401b038211156151dd575f5ffd5b6020019150600681901b360382131561437a575f5ffd5b5f5f8335601e19843603018112615209575f5ffd5b8301803591506001600160401b03821115615222575f5ffd5b60200191503681900382131561437a575f5ffd5b602081525f611dc86020830184614f83565b80516020808301519190811015614334575f1960209190910360031b1b16919050565b5f6020828403121561527b575f5ffd5b8151611dc8816142f5565b5f63ffffffff83168061529b5761529b61511d565b8063ffffffff84160691505092915050565b5f82518060208501845e5f920191825250919050565b5f826152d1576152d161511d565b500690565b602081525f611dc86020830184614c0856fea26469706673582212206312e7ad6a3461fdbd31e46e55fd1cec6a75d752b3571c7c74b337bc3c7b6ad664736f6c634300081e0033",
    "linkReferences": {}
  },
  "methodIdentifiers": {
    "CALCULATION_INTERVAL_SECONDS()": "9d45c281",
    "GENESIS_REWARDS_TIMESTAMP()": "131433b4",
    "MAX_FUTURE_LENGTH()": "04a0c502",
    "MAX_RETROACTIVE_LENGTH()": "37838ed0",
    "MAX_REWARDS_DURATION()": "bf21a8aa",
    "activationDelay()": "3a8c0786",
    "allocationManager()": "ca8aa7c7",
    "beaconChainETHStrategy()": "9104c319",
    "calculateEarnerLeafHash((address,bytes32))": "149bc872",
    "calculateTokenLeafHash((address,uint256))": "f8cd8448",
    "checkClaim((uint32,uint32,bytes,(address,bytes32),uint32[],bytes[],(address,uint256)[]))": "5e9d8348",
    "claimerFor(address)": "2b9f64a4",
    "createAVSRewardsSubmission(((address,uint96)[],address,uint256,uint32,uint32)[])": "fce36c7d",
    "createEigenDARewardsSubmission(address,((address,uint96)[],address,uint256,uint32,uint32)[])": "7282a352",
    "createOperatorDirectedAVSRewardsSubmission(address,((address,uint96)[],address,(address,uint256)[],uint32,uint32,string)[])": "9cb9a5fa",
    "createOperatorDirectedOperatorSetRewardsSubmission((address,uint32),((address,uint96)[],address,(address,uint256)[],uint32,uint32,string)[])": "0ca29899",
    "createRewardsForAllEarners(((address,uint96)[],address,uint256,uint32,uint32)[])": "ff9f6cce",
    "createRewardsForAllSubmission(((address,uint96)[],address,uint256,uint32,uint32)[])": "36af41fa",
    "createTotalStakeRewardsSubmission((address,uint32),((address,uint96)[],address,uint256,uint32,uint32)[])": "8cb0ae1b",
    "createUniqueStakeRewardsSubmission((address,uint32),((address,uint96)[],address,uint256,uint32,uint32)[])": "7ae30583",
    "cumulativeClaimed(address,address)": "865c6953",
    "currRewardsCalculationEndTimestamp()": "4d18cc35",
    "defaultOperatorSplitBips()": "63f6a798",
    "delegationManager()": "ea4d3c9b",
    "disableRoot(uint32)": "f96abf2e",
    "emissionsController()": "67eab2be",
    "feeRecipient()": "46904840",
    "getCurrentClaimableDistributionRoot()": "0e9a53cf",
    "getCurrentDistributionRoot()": "9be3d4e4",
    "getDistributionRootAtIndex(uint256)": "de02e503",
    "getDistributionRootsLength()": "7b8f8b05",
    "getOperatorAVSSplit(address,address)": "e063f81f",
    "getOperatorPISplit(address)": "4b943960",
    "getOperatorSetSplit(address,(address,uint32))": "9de4b35f",
    "getRootIndexFromHash(bytes32)": "e810ce21",
    "initialize(address,uint256,address,uint32,uint16,address)": "acad7299",
    "isAVSRewardsSubmissionHash(address,bytes32)": "6d21117e",
    "isOperatorDirectedAVSRewardsSubmissionHash(address,bytes32)": "ed71e6a2",
    "isOperatorDirectedOperatorSetRewardsSubmissionHash(address,bytes32)": "f2f07ab4",
    "isOptedInForProtocolFee(address)": "a89c2930",
    "isRewardsForAllSubmitter(address)": "0018572c",
    "isRewardsSubmissionForAllEarnersHash(address,bytes32)": "aebd8bae",
    "isRewardsSubmissionForAllHash(address,bytes32)": "c46db606",
    "isTotalStakeRewardsSubmissionHash(address,bytes32)": "b73c1b92",
    "isUniqueStakeRewardsSubmissionHash(address,bytes32)": "2943e3ff",
    "owner()": "8da5cb5b",
    "pause(uint256)": "136439dd",
    "pauseAll()": "595c6a67",
    "paused()": "5c975abb",
    "paused(uint8)": "5ac86ab7",
    "pauserRegistry()": "886f1195",
    "permissionController()": "4657e26a",
    "processClaim((uint32,uint32,bytes,(address,bytes32),uint32[],bytes[],(address,uint256)[]),address)": "3ccc861d",
    "processClaims((uint32,uint32,bytes,(address,bytes32),uint32[],bytes[],(address,uint256)[])[],address)": "4596021c",
    "renounceOwnership()": "715018a6",
    "rewardsUpdater()": "fbf1e2c1",
    "setActivationDelay(uint32)": "58baaa3e",
    "setClaimerFor(address)": "a0169ddd",
    "setClaimerFor(address,address)": "f22cef85",
    "setDefaultOperatorSplit(uint16)": "a50a1d9c",
    "setFeeRecipient(address)": "e74b981b",
    "setOperatorAVSSplit(address,address,uint16)": "dcbb03b3",
    "setOperatorPISplit(address,uint16)": "b3dbb0e0",
    "setOperatorSetSplit(address,(address,uint32),uint16)": "f74e8eac",
    "setOptInForProtocolFee(address,bool)": "8d424f49",
    "setRewardsForAllSubmitter(address,bool)": "0eb38345",
    "setRewardsUpdater(address)": "863cb9a9",
    "strategyManager()": "39b70e38",
    "submissionNonce(address)": "bb7e451f",
    "submitRoot(bytes32,uint32)": "3efe1db6",
    "transferOwnership(address)": "f2fde38b",
    "unpause(uint256)": "fabc1cbc"
  },
  "id": 137
}