{
  "abi": [
    {
      "type": "constructor",
      "inputs": [
        {
          "name": "_delegation",
          "type": "address",
          "internalType": "contract IDelegationManager"
        },
        {
          "name": "_pauserRegistry",
          "type": "address",
          "internalType": "contract IPauserRegistry"
        },
        {
          "name": "_permissionController",
          "type": "address",
          "internalType": "contract IPermissionController"
        },
        {
          "name": "_DEALLOCATION_DELAY",
          "type": "uint32",
          "internalType": "uint32"
        },
        {
          "name": "_ALLOCATION_CONFIGURATION_DELAY",
          "type": "uint32",
          "internalType": "uint32"
        },
        {
          "name": "_version",
          "type": "string",
          "internalType": "string"
        }
      ],
      "stateMutability": "nonpayable"
    },
    {
      "type": "function",
      "name": "ALLOCATION_CONFIGURATION_DELAY",
      "inputs": [],
      "outputs": [
        {
          "name": "",
          "type": "uint32",
          "internalType": "uint32"
        }
      ],
      "stateMutability": "view"
    },
    {
      "type": "function",
      "name": "DEALLOCATION_DELAY",
      "inputs": [],
      "outputs": [
        {
          "name": "",
          "type": "uint32",
          "internalType": "uint32"
        }
      ],
      "stateMutability": "view"
    },
    {
      "type": "function",
      "name": "addStrategiesToOperatorSet",
      "inputs": [
        {
          "name": "avs",
          "type": "address",
          "internalType": "address"
        },
        {
          "name": "operatorSetId",
          "type": "uint32",
          "internalType": "uint32"
        },
        {
          "name": "strategies",
          "type": "address[]",
          "internalType": "contract IStrategy[]"
        }
      ],
      "outputs": [],
      "stateMutability": "nonpayable"
    },
    {
      "type": "function",
      "name": "clearDeallocationQueue",
      "inputs": [
        {
          "name": "operator",
          "type": "address",
          "internalType": "address"
        },
        {
          "name": "strategies",
          "type": "address[]",
          "internalType": "contract IStrategy[]"
        },
        {
          "name": "numToClear",
          "type": "uint16[]",
          "internalType": "uint16[]"
        }
      ],
      "outputs": [],
      "stateMutability": "nonpayable"
    },
    {
      "type": "function",
      "name": "createOperatorSets",
      "inputs": [
        {
          "name": "avs",
          "type": "address",
          "internalType": "address"
        },
        {
          "name": "params",
          "type": "tuple[]",
          "internalType": "struct IAllocationManagerTypes.CreateSetParams[]",
          "components": [
            {
              "name": "operatorSetId",
              "type": "uint32",
              "internalType": "uint32"
            },
            {
              "name": "strategies",
              "type": "address[]",
              "internalType": "contract IStrategy[]"
            }
          ]
        }
      ],
      "outputs": [],
      "stateMutability": "nonpayable"
    },
    {
      "type": "function",
      "name": "createRedistributingOperatorSets",
      "inputs": [
        {
          "name": "avs",
          "type": "address",
          "internalType": "address"
        },
        {
          "name": "params",
          "type": "tuple[]",
          "internalType": "struct IAllocationManagerTypes.CreateSetParams[]",
          "components": [
            {
              "name": "operatorSetId",
              "type": "uint32",
              "internalType": "uint32"
            },
            {
              "name": "strategies",
              "type": "address[]",
              "internalType": "contract IStrategy[]"
            }
          ]
        },
        {
          "name": "redistributionRecipients",
          "type": "address[]",
          "internalType": "address[]"
        }
      ],
      "outputs": [],
      "stateMutability": "nonpayable"
    },
    {
      "type": "function",
      "name": "delegation",
      "inputs": [],
      "outputs": [
        {
          "name": "",
          "type": "address",
          "internalType": "contract IDelegationManager"
        }
      ],
      "stateMutability": "view"
    },
    {
      "type": "function",
      "name": "deregisterFromOperatorSets",
      "inputs": [
        {
          "name": "params",
          "type": "tuple",
          "internalType": "struct IAllocationManagerTypes.DeregisterParams",
          "components": [
            {
              "name": "operator",
              "type": "address",
              "internalType": "address"
            },
            {
              "name": "avs",
              "type": "address",
              "internalType": "address"
            },
            {
              "name": "operatorSetIds",
              "type": "uint32[]",
              "internalType": "uint32[]"
            }
          ]
        }
      ],
      "outputs": [],
      "stateMutability": "nonpayable"
    },
    {
      "type": "function",
      "name": "getAVSRegistrar",
      "inputs": [
        {
          "name": "avs",
          "type": "address",
          "internalType": "address"
        }
      ],
      "outputs": [
        {
          "name": "",
          "type": "address",
          "internalType": "contract IAVSRegistrar"
        }
      ],
      "stateMutability": "view"
    },
    {
      "type": "function",
      "name": "getAllocatableMagnitude",
      "inputs": [
        {
          "name": "operator",
          "type": "address",
          "internalType": "address"
        },
        {
          "name": "strategy",
          "type": "address",
          "internalType": "contract IStrategy"
        }
      ],
      "outputs": [
        {
          "name": "",
          "type": "uint64",
          "internalType": "uint64"
        }
      ],
      "stateMutability": "view"
    },
    {
      "type": "function",
      "name": "getAllocatedSets",
      "inputs": [
        {
          "name": "operator",
          "type": "address",
          "internalType": "address"
        }
      ],
      "outputs": [
        {
          "name": "",
          "type": "tuple[]",
          "internalType": "struct OperatorSet[]",
          "components": [
            {
              "name": "avs",
              "type": "address",
              "internalType": "address"
            },
            {
              "name": "id",
              "type": "uint32",
              "internalType": "uint32"
            }
          ]
        }
      ],
      "stateMutability": "view"
    },
    {
      "type": "function",
      "name": "getAllocatedStake",
      "inputs": [
        {
          "name": "operatorSet",
          "type": "tuple",
          "internalType": "struct OperatorSet",
          "components": [
            {
              "name": "avs",
              "type": "address",
              "internalType": "address"
            },
            {
              "name": "id",
              "type": "uint32",
              "internalType": "uint32"
            }
          ]
        },
        {
          "name": "operators",
          "type": "address[]",
          "internalType": "address[]"
        },
        {
          "name": "strategies",
          "type": "address[]",
          "internalType": "contract IStrategy[]"
        }
      ],
      "outputs": [
        {
          "name": "",
          "type": "uint256[][]",
          "internalType": "uint256[][]"
        }
      ],
      "stateMutability": "view"
    },
    {
      "type": "function",
      "name": "getAllocatedStrategies",
      "inputs": [
        {
          "name": "operator",
          "type": "address",
          "internalType": "address"
        },
        {
          "name": "operatorSet",
          "type": "tuple",
          "internalType": "struct OperatorSet",
          "components": [
            {
              "name": "avs",
              "type": "address",
              "internalType": "address"
            },
            {
              "name": "id",
              "type": "uint32",
              "internalType": "uint32"
            }
          ]
        }
      ],
      "outputs": [
        {
          "name": "",
          "type": "address[]",
          "internalType": "contract IStrategy[]"
        }
      ],
      "stateMutability": "view"
    },
    {
      "type": "function",
      "name": "getAllocation",
      "inputs": [
        {
          "name": "operator",
          "type": "address",
          "internalType": "address"
        },
        {
          "name": "operatorSet",
          "type": "tuple",
          "internalType": "struct OperatorSet",
          "components": [
            {
              "name": "avs",
              "type": "address",
              "internalType": "address"
            },
            {
              "name": "id",
              "type": "uint32",
              "internalType": "uint32"
            }
          ]
        },
        {
          "name": "strategy",
          "type": "address",
          "internalType": "contract IStrategy"
        }
      ],
      "outputs": [
        {
          "name": "",
          "type": "tuple",
          "internalType": "struct IAllocationManagerTypes.Allocation",
          "components": [
            {
              "name": "currentMagnitude",
              "type": "uint64",
              "internalType": "uint64"
            },
            {
              "name": "pendingDiff",
              "type": "int128",
              "internalType": "int128"
            },
            {
              "name": "effectBlock",
              "type": "uint32",
              "internalType": "uint32"
            }
          ]
        }
      ],
      "stateMutability": "view"
    },
    {
      "type": "function",
      "name": "getAllocationDelay",
      "inputs": [
        {
          "name": "operator",
          "type": "address",
          "internalType": "address"
        }
      ],
      "outputs": [
        {
          "name": "",
          "type": "bool",
          "internalType": "bool"
        },
        {
          "name": "",
          "type": "uint32",
          "internalType": "uint32"
        }
      ],
      "stateMutability": "view"
    },
    {
      "type": "function",
      "name": "getAllocations",
      "inputs": [
        {
          "name": "operators",
          "type": "address[]",
          "internalType": "address[]"
        },
        {
          "name": "operatorSet",
          "type": "tuple",
          "internalType": "struct OperatorSet",
          "components": [
            {
              "name": "avs",
              "type": "address",
              "internalType": "address"
            },
            {
              "name": "id",
              "type": "uint32",
              "internalType": "uint32"
            }
          ]
        },
        {
          "name": "strategy",
          "type": "address",
          "internalType": "contract IStrategy"
        }
      ],
      "outputs": [
        {
          "name": "",
          "type": "tuple[]",
          "internalType": "struct IAllocationManagerTypes.Allocation[]",
          "components": [
            {
              "name": "currentMagnitude",
              "type": "uint64",
              "internalType": "uint64"
            },
            {
              "name": "pendingDiff",
              "type": "int128",
              "internalType": "int128"
            },
            {
              "name": "effectBlock",
              "type": "uint32",
              "internalType": "uint32"
            }
          ]
        }
      ],
      "stateMutability": "view"
    },
    {
      "type": "function",
      "name": "getEncumberedMagnitude",
      "inputs": [
        {
          "name": "operator",
          "type": "address",
          "internalType": "address"
        },
        {
          "name": "strategy",
          "type": "address",
          "internalType": "contract IStrategy"
        }
      ],
      "outputs": [
        {
          "name": "",
          "type": "uint64",
          "internalType": "uint64"
        }
      ],
      "stateMutability": "view"
    },
    {
      "type": "function",
      "name": "getMaxMagnitude",
      "inputs": [
        {
          "name": "operator",
          "type": "address",
          "internalType": "address"
        },
        {
          "name": "strategy",
          "type": "address",
          "internalType": "contract IStrategy"
        }
      ],
      "outputs": [
        {
          "name": "",
          "type": "uint64",
          "internalType": "uint64"
        }
      ],
      "stateMutability": "view"
    },
    {
      "type": "function",
      "name": "getMaxMagnitudes",
      "inputs": [
        {
          "name": "operators",
          "type": "address[]",
          "internalType": "address[]"
        },
        {
          "name": "strategy",
          "type": "address",
          "internalType": "contract IStrategy"
        }
      ],
      "outputs": [
        {
          "name": "",
          "type": "uint64[]",
          "internalType": "uint64[]"
        }
      ],
      "stateMutability": "view"
    },
    {
      "type": "function",
      "name": "getMaxMagnitudes",
      "inputs": [
        {
          "name": "operator",
          "type": "address",
          "internalType": "address"
        },
        {
          "name": "strategies",
          "type": "address[]",
          "internalType": "contract IStrategy[]"
        }
      ],
      "outputs": [
        {
          "name": "",
          "type": "uint64[]",
          "internalType": "uint64[]"
        }
      ],
      "stateMutability": "view"
    },
    {
      "type": "function",
      "name": "getMaxMagnitudesAtBlock",
      "inputs": [
        {
          "name": "operator",
          "type": "address",
          "internalType": "address"
        },
        {
          "name": "strategies",
          "type": "address[]",
          "internalType": "contract IStrategy[]"
        },
        {
          "name": "blockNumber",
          "type": "uint32",
          "internalType": "uint32"
        }
      ],
      "outputs": [
        {
          "name": "",
          "type": "uint64[]",
          "internalType": "uint64[]"
        }
      ],
      "stateMutability": "view"
    },
    {
      "type": "function",
      "name": "getMemberCount",
      "inputs": [
        {
          "name": "operatorSet",
          "type": "tuple",
          "internalType": "struct OperatorSet",
          "components": [
            {
              "name": "avs",
              "type": "address",
              "internalType": "address"
            },
            {
              "name": "id",
              "type": "uint32",
              "internalType": "uint32"
            }
          ]
        }
      ],
      "outputs": [
        {
          "name": "",
          "type": "uint256",
          "internalType": "uint256"
        }
      ],
      "stateMutability": "view"
    },
    {
      "type": "function",
      "name": "getMembers",
      "inputs": [
        {
          "name": "operatorSet",
          "type": "tuple",
          "internalType": "struct OperatorSet",
          "components": [
            {
              "name": "avs",
              "type": "address",
              "internalType": "address"
            },
            {
              "name": "id",
              "type": "uint32",
              "internalType": "uint32"
            }
          ]
        }
      ],
      "outputs": [
        {
          "name": "",
          "type": "address[]",
          "internalType": "address[]"
        }
      ],
      "stateMutability": "view"
    },
    {
      "type": "function",
      "name": "getMinimumSlashableStake",
      "inputs": [
        {
          "name": "operatorSet",
          "type": "tuple",
          "internalType": "struct OperatorSet",
          "components": [
            {
              "name": "avs",
              "type": "address",
              "internalType": "address"
            },
            {
              "name": "id",
              "type": "uint32",
              "internalType": "uint32"
            }
          ]
        },
        {
          "name": "operators",
          "type": "address[]",
          "internalType": "address[]"
        },
        {
          "name": "strategies",
          "type": "address[]",
          "internalType": "contract IStrategy[]"
        },
        {
          "name": "futureBlock",
          "type": "uint32",
          "internalType": "uint32"
        }
      ],
      "outputs": [
        {
          "name": "slashableStake",
          "type": "uint256[][]",
          "internalType": "uint256[][]"
        }
      ],
      "stateMutability": "view"
    },
    {
      "type": "function",
      "name": "getOperatorSetCount",
      "inputs": [
        {
          "name": "avs",
          "type": "address",
          "internalType": "address"
        }
      ],
      "outputs": [
        {
          "name": "",
          "type": "uint256",
          "internalType": "uint256"
        }
      ],
      "stateMutability": "view"
    },
    {
      "type": "function",
      "name": "getRedistributionRecipient",
      "inputs": [
        {
          "name": "operatorSet",
          "type": "tuple",
          "internalType": "struct OperatorSet",
          "components": [
            {
              "name": "avs",
              "type": "address",
              "internalType": "address"
            },
            {
              "name": "id",
              "type": "uint32",
              "internalType": "uint32"
            }
          ]
        }
      ],
      "outputs": [
        {
          "name": "",
          "type": "address",
          "internalType": "address"
        }
      ],
      "stateMutability": "view"
    },
    {
      "type": "function",
      "name": "getRegisteredSets",
      "inputs": [
        {
          "name": "operator",
          "type": "address",
          "internalType": "address"
        }
      ],
      "outputs": [
        {
          "name": "",
          "type": "tuple[]",
          "internalType": "struct OperatorSet[]",
          "components": [
            {
              "name": "avs",
              "type": "address",
              "internalType": "address"
            },
            {
              "name": "id",
              "type": "uint32",
              "internalType": "uint32"
            }
          ]
        }
      ],
      "stateMutability": "view"
    },
    {
      "type": "function",
      "name": "getSlashCount",
      "inputs": [
        {
          "name": "operatorSet",
          "type": "tuple",
          "internalType": "struct OperatorSet",
          "components": [
            {
              "name": "avs",
              "type": "address",
              "internalType": "address"
            },
            {
              "name": "id",
              "type": "uint32",
              "internalType": "uint32"
            }
          ]
        }
      ],
      "outputs": [
        {
          "name": "",
          "type": "uint256",
          "internalType": "uint256"
        }
      ],
      "stateMutability": "view"
    },
    {
      "type": "function",
      "name": "getStrategiesInOperatorSet",
      "inputs": [
        {
          "name": "operatorSet",
          "type": "tuple",
          "internalType": "struct OperatorSet",
          "components": [
            {
              "name": "avs",
              "type": "address",
              "internalType": "address"
            },
            {
              "name": "id",
              "type": "uint32",
              "internalType": "uint32"
            }
          ]
        }
      ],
      "outputs": [
        {
          "name": "",
          "type": "address[]",
          "internalType": "contract IStrategy[]"
        }
      ],
      "stateMutability": "view"
    },
    {
      "type": "function",
      "name": "getStrategyAllocations",
      "inputs": [
        {
          "name": "operator",
          "type": "address",
          "internalType": "address"
        },
        {
          "name": "strategy",
          "type": "address",
          "internalType": "contract IStrategy"
        }
      ],
      "outputs": [
        {
          "name": "",
          "type": "tuple[]",
          "internalType": "struct OperatorSet[]",
          "components": [
            {
              "name": "avs",
              "type": "address",
              "internalType": "address"
            },
            {
              "name": "id",
              "type": "uint32",
              "internalType": "uint32"
            }
          ]
        },
        {
          "name": "",
          "type": "tuple[]",
          "internalType": "struct IAllocationManagerTypes.Allocation[]",
          "components": [
            {
              "name": "currentMagnitude",
              "type": "uint64",
              "internalType": "uint64"
            },
            {
              "name": "pendingDiff",
              "type": "int128",
              "internalType": "int128"
            },
            {
              "name": "effectBlock",
              "type": "uint32",
              "internalType": "uint32"
            }
          ]
        }
      ],
      "stateMutability": "view"
    },
    {
      "type": "function",
      "name": "initialize",
      "inputs": [
        {
          "name": "initialPausedStatus",
          "type": "uint256",
          "internalType": "uint256"
        }
      ],
      "outputs": [],
      "stateMutability": "nonpayable"
    },
    {
      "type": "function",
      "name": "isMemberOfOperatorSet",
      "inputs": [
        {
          "name": "operator",
          "type": "address",
          "internalType": "address"
        },
        {
          "name": "operatorSet",
          "type": "tuple",
          "internalType": "struct OperatorSet",
          "components": [
            {
              "name": "avs",
              "type": "address",
              "internalType": "address"
            },
            {
              "name": "id",
              "type": "uint32",
              "internalType": "uint32"
            }
          ]
        }
      ],
      "outputs": [
        {
          "name": "",
          "type": "bool",
          "internalType": "bool"
        }
      ],
      "stateMutability": "view"
    },
    {
      "type": "function",
      "name": "isOperatorRedistributable",
      "inputs": [
        {
          "name": "operator",
          "type": "address",
          "internalType": "address"
        }
      ],
      "outputs": [
        {
          "name": "",
          "type": "bool",
          "internalType": "bool"
        }
      ],
      "stateMutability": "view"
    },
    {
      "type": "function",
      "name": "isOperatorSet",
      "inputs": [
        {
          "name": "operatorSet",
          "type": "tuple",
          "internalType": "struct OperatorSet",
          "components": [
            {
              "name": "avs",
              "type": "address",
              "internalType": "address"
            },
            {
              "name": "id",
              "type": "uint32",
              "internalType": "uint32"
            }
          ]
        }
      ],
      "outputs": [
        {
          "name": "",
          "type": "bool",
          "internalType": "bool"
        }
      ],
      "stateMutability": "view"
    },
    {
      "type": "function",
      "name": "isOperatorSlashable",
      "inputs": [
        {
          "name": "operator",
          "type": "address",
          "internalType": "address"
        },
        {
          "name": "operatorSet",
          "type": "tuple",
          "internalType": "struct OperatorSet",
          "components": [
            {
              "name": "avs",
              "type": "address",
              "internalType": "address"
            },
            {
              "name": "id",
              "type": "uint32",
              "internalType": "uint32"
            }
          ]
        }
      ],
      "outputs": [
        {
          "name": "",
          "type": "bool",
          "internalType": "bool"
        }
      ],
      "stateMutability": "view"
    },
    {
      "type": "function",
      "name": "isRedistributingOperatorSet",
      "inputs": [
        {
          "name": "operatorSet",
          "type": "tuple",
          "internalType": "struct OperatorSet",
          "components": [
            {
              "name": "avs",
              "type": "address",
              "internalType": "address"
            },
            {
              "name": "id",
              "type": "uint32",
              "internalType": "uint32"
            }
          ]
        }
      ],
      "outputs": [
        {
          "name": "",
          "type": "bool",
          "internalType": "bool"
        }
      ],
      "stateMutability": "view"
    },
    {
      "type": "function",
      "name": "modifyAllocations",
      "inputs": [
        {
          "name": "operator",
          "type": "address",
          "internalType": "address"
        },
        {
          "name": "params",
          "type": "tuple[]",
          "internalType": "struct IAllocationManagerTypes.AllocateParams[]",
          "components": [
            {
              "name": "operatorSet",
              "type": "tuple",
              "internalType": "struct OperatorSet",
              "components": [
                {
                  "name": "avs",
                  "type": "address",
                  "internalType": "address"
                },
                {
                  "name": "id",
                  "type": "uint32",
                  "internalType": "uint32"
                }
              ]
            },
            {
              "name": "strategies",
              "type": "address[]",
              "internalType": "contract IStrategy[]"
            },
            {
              "name": "newMagnitudes",
              "type": "uint64[]",
              "internalType": "uint64[]"
            }
          ]
        }
      ],
      "outputs": [],
      "stateMutability": "nonpayable"
    },
    {
      "type": "function",
      "name": "pause",
      "inputs": [
        {
          "name": "newPausedStatus",
          "type": "uint256",
          "internalType": "uint256"
        }
      ],
      "outputs": [],
      "stateMutability": "nonpayable"
    },
    {
      "type": "function",
      "name": "pauseAll",
      "inputs": [],
      "outputs": [],
      "stateMutability": "nonpayable"
    },
    {
      "type": "function",
      "name": "paused",
      "inputs": [
        {
          "name": "index",
          "type": "uint8",
          "internalType": "uint8"
        }
      ],
      "outputs": [
        {
          "name": "",
          "type": "bool",
          "internalType": "bool"
        }
      ],
      "stateMutability": "view"
    },
    {
      "type": "function",
      "name": "paused",
      "inputs": [],
      "outputs": [
        {
          "name": "",
          "type": "uint256",
          "internalType": "uint256"
        }
      ],
      "stateMutability": "view"
    },
    {
      "type": "function",
      "name": "pauserRegistry",
      "inputs": [],
      "outputs": [
        {
          "name": "",
          "type": "address",
          "internalType": "contract IPauserRegistry"
        }
      ],
      "stateMutability": "view"
    },
    {
      "type": "function",
      "name": "permissionController",
      "inputs": [],
      "outputs": [
        {
          "name": "",
          "type": "address",
          "internalType": "contract IPermissionController"
        }
      ],
      "stateMutability": "view"
    },
    {
      "type": "function",
      "name": "registerForOperatorSets",
      "inputs": [
        {
          "name": "operator",
          "type": "address",
          "internalType": "address"
        },
        {
          "name": "params",
          "type": "tuple",
          "internalType": "struct IAllocationManagerTypes.RegisterParams",
          "components": [
            {
              "name": "avs",
              "type": "address",
              "internalType": "address"
            },
            {
              "name": "operatorSetIds",
              "type": "uint32[]",
              "internalType": "uint32[]"
            },
            {
              "name": "data",
              "type": "bytes",
              "internalType": "bytes"
            }
          ]
        }
      ],
      "outputs": [],
      "stateMutability": "nonpayable"
    },
    {
      "type": "function",
      "name": "removeStrategiesFromOperatorSet",
      "inputs": [
        {
          "name": "avs",
          "type": "address",
          "internalType": "address"
        },
        {
          "name": "operatorSetId",
          "type": "uint32",
          "internalType": "uint32"
        },
        {
          "name": "strategies",
          "type": "address[]",
          "internalType": "contract IStrategy[]"
        }
      ],
      "outputs": [],
      "stateMutability": "nonpayable"
    },
    {
      "type": "function",
      "name": "setAVSRegistrar",
      "inputs": [
        {
          "name": "avs",
          "type": "address",
          "internalType": "address"
        },
        {
          "name": "registrar",
          "type": "address",
          "internalType": "contract IAVSRegistrar"
        }
      ],
      "outputs": [],
      "stateMutability": "nonpayable"
    },
    {
      "type": "function",
      "name": "setAllocationDelay",
      "inputs": [
        {
          "name": "operator",
          "type": "address",
          "internalType": "address"
        },
        {
          "name": "delay",
          "type": "uint32",
          "internalType": "uint32"
        }
      ],
      "outputs": [],
      "stateMutability": "nonpayable"
    },
    {
      "type": "function",
      "name": "slashOperator",
      "inputs": [
        {
          "name": "avs",
          "type": "address",
          "internalType": "address"
        },
        {
          "name": "params",
          "type": "tuple",
          "internalType": "struct IAllocationManagerTypes.SlashingParams",
          "components": [
            {
              "name": "operator",
              "type": "address",
              "internalType": "address"
            },
            {
              "name": "operatorSetId",
              "type": "uint32",
              "internalType": "uint32"
            },
            {
              "name": "strategies",
              "type": "address[]",
              "internalType": "contract IStrategy[]"
            },
            {
              "name": "wadsToSlash",
              "type": "uint256[]",
              "internalType": "uint256[]"
            },
            {
              "name": "description",
              "type": "string",
              "internalType": "string"
            }
          ]
        }
      ],
      "outputs": [
        {
          "name": "",
          "type": "uint256",
          "internalType": "uint256"
        },
        {
          "name": "",
          "type": "uint256[]",
          "internalType": "uint256[]"
        }
      ],
      "stateMutability": "nonpayable"
    },
    {
      "type": "function",
      "name": "unpause",
      "inputs": [
        {
          "name": "newPausedStatus",
          "type": "uint256",
          "internalType": "uint256"
        }
      ],
      "outputs": [],
      "stateMutability": "nonpayable"
    },
    {
      "type": "function",
      "name": "updateAVSMetadataURI",
      "inputs": [
        {
          "name": "avs",
          "type": "address",
          "internalType": "address"
        },
        {
          "name": "metadataURI",
          "type": "string",
          "internalType": "string"
        }
      ],
      "outputs": [],
      "stateMutability": "nonpayable"
    },
    {
      "type": "function",
      "name": "version",
      "inputs": [],
      "outputs": [
        {
          "name": "",
          "type": "string",
          "internalType": "string"
        }
      ],
      "stateMutability": "view"
    },
    {
      "type": "event",
      "name": "AVSMetadataURIUpdated",
      "inputs": [
        {
          "name": "avs",
          "type": "address",
          "indexed": true,
          "internalType": "address"
        },
        {
          "name": "metadataURI",
          "type": "string",
          "indexed": false,
          "internalType": "string"
        }
      ],
      "anonymous": false
    },
    {
      "type": "event",
      "name": "AVSRegistrarSet",
      "inputs": [
        {
          "name": "avs",
          "type": "address",
          "indexed": false,
          "internalType": "address"
        },
        {
          "name": "registrar",
          "type": "address",
          "indexed": false,
          "internalType": "contract IAVSRegistrar"
        }
      ],
      "anonymous": false
    },
    {
      "type": "event",
      "name": "AllocationDelaySet",
      "inputs": [
        {
          "name": "operator",
          "type": "address",
          "indexed": false,
          "internalType": "address"
        },
        {
          "name": "delay",
          "type": "uint32",
          "indexed": false,
          "internalType": "uint32"
        },
        {
          "name": "effectBlock",
          "type": "uint32",
          "indexed": false,
          "internalType": "uint32"
        }
      ],
      "anonymous": false
    },
    {
      "type": "event",
      "name": "AllocationUpdated",
      "inputs": [
        {
          "name": "operator",
          "type": "address",
          "indexed": false,
          "internalType": "address"
        },
        {
          "name": "operatorSet",
          "type": "tuple",
          "indexed": false,
          "internalType": "struct OperatorSet",
          "components": [
            {
              "name": "avs",
              "type": "address",
              "internalType": "address"
            },
            {
              "name": "id",
              "type": "uint32",
              "internalType": "uint32"
            }
          ]
        },
        {
          "name": "strategy",
          "type": "address",
          "indexed": false,
          "internalType": "contract IStrategy"
        },
        {
          "name": "magnitude",
          "type": "uint64",
          "indexed": false,
          "internalType": "uint64"
        },
        {
          "name": "effectBlock",
          "type": "uint32",
          "indexed": false,
          "internalType": "uint32"
        }
      ],
      "anonymous": false
    },
    {
      "type": "event",
      "name": "EncumberedMagnitudeUpdated",
      "inputs": [
        {
          "name": "operator",
          "type": "address",
          "indexed": false,
          "internalType": "address"
        },
        {
          "name": "strategy",
          "type": "address",
          "indexed": false,
          "internalType": "contract IStrategy"
        },
        {
          "name": "encumberedMagnitude",
          "type": "uint64",
          "indexed": false,
          "internalType": "uint64"
        }
      ],
      "anonymous": false
    },
    {
      "type": "event",
      "name": "Initialized",
      "inputs": [
        {
          "name": "version",
          "type": "uint8",
          "indexed": false,
          "internalType": "uint8"
        }
      ],
      "anonymous": false
    },
    {
      "type": "event",
      "name": "MaxMagnitudeUpdated",
      "inputs": [
        {
          "name": "operator",
          "type": "address",
          "indexed": false,
          "internalType": "address"
        },
        {
          "name": "strategy",
          "type": "address",
          "indexed": false,
          "internalType": "contract IStrategy"
        },
        {
          "name": "maxMagnitude",
          "type": "uint64",
          "indexed": false,
          "internalType": "uint64"
        }
      ],
      "anonymous": false
    },
    {
      "type": "event",
      "name": "OperatorAddedToOperatorSet",
      "inputs": [
        {
          "name": "operator",
          "type": "address",
          "indexed": true,
          "internalType": "address"
        },
        {
          "name": "operatorSet",
          "type": "tuple",
          "indexed": false,
          "internalType": "struct OperatorSet",
          "components": [
            {
              "name": "avs",
              "type": "address",
              "internalType": "address"
            },
            {
              "name": "id",
              "type": "uint32",
              "internalType": "uint32"
            }
          ]
        }
      ],
      "anonymous": false
    },
    {
      "type": "event",
      "name": "OperatorRemovedFromOperatorSet",
      "inputs": [
        {
          "name": "operator",
          "type": "address",
          "indexed": true,
          "internalType": "address"
        },
        {
          "name": "operatorSet",
          "type": "tuple",
          "indexed": false,
          "internalType": "struct OperatorSet",
          "components": [
            {
              "name": "avs",
              "type": "address",
              "internalType": "address"
            },
            {
              "name": "id",
              "type": "uint32",
              "internalType": "uint32"
            }
          ]
        }
      ],
      "anonymous": false
    },
    {
      "type": "event",
      "name": "OperatorSetCreated",
      "inputs": [
        {
          "name": "operatorSet",
          "type": "tuple",
          "indexed": false,
          "internalType": "struct OperatorSet",
          "components": [
            {
              "name": "avs",
              "type": "address",
              "internalType": "address"
            },
            {
              "name": "id",
              "type": "uint32",
              "internalType": "uint32"
            }
          ]
        }
      ],
      "anonymous": false
    },
    {
      "type": "event",
      "name": "OperatorSlashed",
      "inputs": [
        {
          "name": "operator",
          "type": "address",
          "indexed": false,
          "internalType": "address"
        },
        {
          "name": "operatorSet",
          "type": "tuple",
          "indexed": false,
          "internalType": "struct OperatorSet",
          "components": [
            {
              "name": "avs",
              "type": "address",
              "internalType": "address"
            },
            {
              "name": "id",
              "type": "uint32",
              "internalType": "uint32"
            }
          ]
        },
        {
          "name": "strategies",
          "type": "address[]",
          "indexed": false,
          "internalType": "contract IStrategy[]"
        },
        {
          "name": "wadSlashed",
          "type": "uint256[]",
          "indexed": false,
          "internalType": "uint256[]"
        },
        {
          "name": "description",
          "type": "string",
          "indexed": false,
          "internalType": "string"
        }
      ],
      "anonymous": false
    },
    {
      "type": "event",
      "name": "Paused",
      "inputs": [
        {
          "name": "account",
          "type": "address",
          "indexed": true,
          "internalType": "address"
        },
        {
          "name": "newPausedStatus",
          "type": "uint256",
          "indexed": false,
          "internalType": "uint256"
        }
      ],
      "anonymous": false
    },
    {
      "type": "event",
      "name": "RedistributionAddressSet",
      "inputs": [
        {
          "name": "operatorSet",
          "type": "tuple",
          "indexed": false,
          "internalType": "struct OperatorSet",
          "components": [
            {
              "name": "avs",
              "type": "address",
              "internalType": "address"
            },
            {
              "name": "id",
              "type": "uint32",
              "internalType": "uint32"
            }
          ]
        },
        {
          "name": "redistributionRecipient",
          "type": "address",
          "indexed": false,
          "internalType": "address"
        }
      ],
      "anonymous": false
    },
    {
      "type": "event",
      "name": "StrategyAddedToOperatorSet",
      "inputs": [
        {
          "name": "operatorSet",
          "type": "tuple",
          "indexed": false,
          "internalType": "struct OperatorSet",
          "components": [
            {
              "name": "avs",
              "type": "address",
              "internalType": "address"
            },
            {
              "name": "id",
              "type": "uint32",
              "internalType": "uint32"
            }
          ]
        },
        {
          "name": "strategy",
          "type": "address",
          "indexed": false,
          "internalType": "contract IStrategy"
        }
      ],
      "anonymous": false
    },
    {
      "type": "event",
      "name": "StrategyRemovedFromOperatorSet",
      "inputs": [
        {
          "name": "operatorSet",
          "type": "tuple",
          "indexed": false,
          "internalType": "struct OperatorSet",
          "components": [
            {
              "name": "avs",
              "type": "address",
              "internalType": "address"
            },
            {
              "name": "id",
              "type": "uint32",
              "internalType": "uint32"
            }
          ]
        },
        {
          "name": "strategy",
          "type": "address",
          "indexed": false,
          "internalType": "contract IStrategy"
        }
      ],
      "anonymous": false
    },
    {
      "type": "event",
      "name": "Unpaused",
      "inputs": [
        {
          "name": "account",
          "type": "address",
          "indexed": true,
          "internalType": "address"
        },
        {
          "name": "newPausedStatus",
          "type": "uint256",
          "indexed": false,
          "internalType": "uint256"
        }
      ],
      "anonymous": false
    },
    {
      "type": "error",
      "name": "AlreadyMemberOfSet",
      "inputs": []
    },
    {
      "type": "error",
      "name": "CurrentlyPaused",
      "inputs": []
    },
    {
      "type": "error",
      "name": "Empty",
      "inputs": []
    },
    {
      "type": "error",
      "name": "InputAddressZero",
      "inputs": []
    },
    {
      "type": "error",
      "name": "InputArrayLengthMismatch",
      "inputs": []
    },
    {
      "type": "error",
      "name": "InsufficientMagnitude",
      "inputs": []
    },
    {
      "type": "error",
      "name": "InvalidAVSRegistrar",
      "inputs": []
    },
    {
      "type": "error",
      "name": "InvalidCaller",
      "inputs": []
    },
    {
      "type": "error",
      "name": "InvalidNewPausedStatus",
      "inputs": []
    },
    {
      "type": "error",
      "name": "InvalidOperator",
      "inputs": []
    },
    {
      "type": "error",
      "name": "InvalidOperatorSet",
      "inputs": []
    },
    {
      "type": "error",
      "name": "InvalidPermissions",
      "inputs": []
    },
    {
      "type": "error",
      "name": "InvalidShortString",
      "inputs": []
    },
    {
      "type": "error",
      "name": "InvalidSnapshotOrdering",
      "inputs": []
    },
    {
      "type": "error",
      "name": "InvalidStrategy",
      "inputs": []
    },
    {
      "type": "error",
      "name": "InvalidWadToSlash",
      "inputs": []
    },
    {
      "type": "error",
      "name": "ModificationAlreadyPending",
      "inputs": []
    },
    {
      "type": "error",
      "name": "NonexistentAVSMetadata",
      "inputs": []
    },
    {
      "type": "error",
      "name": "NotMemberOfSet",
      "inputs": []
    },
    {
      "type": "error",
      "name": "OnlyPauser",
      "inputs": []
    },
    {
      "type": "error",
      "name": "OnlyUnpauser",
      "inputs": []
    },
    {
      "type": "error",
      "name": "OperatorNotSlashable",
      "inputs": []
    },
    {
      "type": "error",
      "name": "OutOfBounds",
      "inputs": []
    },
    {
      "type": "error",
      "name": "SameMagnitude",
      "inputs": []
    },
    {
      "type": "error",
      "name": "StrategiesMustBeInAscendingOrder",
      "inputs": []
    },
    {
      "type": "error",
      "name": "StrategyAlreadyInOperatorSet",
      "inputs": []
    },
    {
      "type": "error",
      "name": "StrategyNotInOperatorSet",
      "inputs": []
    },
    {
      "type": "error",
      "name": "StringTooLong",
      "inputs": [
        {
          "name": "str",
          "type": "string",
          "internalType": "string"
        }
      ]
    },
    {
      "type": "error",
      "name": "UninitializedAllocationDelay",
      "inputs": []
    }
  ],
  "bytecode": {
    "object": "0x610140604052348015610010575f5ffd5b5060405161611f38038061611f83398101604081905261002f916101e6565b8084878585896001600160a01b03811661005c576040516339b190bb60e11b815260040160405180910390fd5b6001600160a01b0390811660805292831660a05263ffffffff91821660c0521660e052166101005261008d816100a5565b610120525061009a6100eb565b50505050505061034a565b5f5f829050601f815111156100d8578260405163305a27a960e01b81526004016100cf91906102ef565b60405180910390fd5b80516100e382610324565b179392505050565b5f54610100900460ff16156101525760405162461bcd60e51b815260206004820152602760248201527f496e697469616c697a61626c653a20636f6e747261637420697320696e697469604482015266616c697a696e6760c81b60648201526084016100cf565b5f5460ff908116146101a1575f805460ff191660ff9081179091556040519081527f7f26b83ff96e1f2b6a682f133852f6798a09c465da95921460cefb38474024989060200160405180910390a15b565b6001600160a01b03811681146101b7575f5ffd5b50565b805163ffffffff811681146101cd575f5ffd5b919050565b634e487b7160e01b5f52604160045260245ffd5b5f5f5f5f5f5f60c087890312156101fb575f5ffd5b8651610206816101a3565b6020880151909650610217816101a3565b6040880151909550610228816101a3565b9350610236606088016101ba565b9250610244608088016101ba565b60a08801519092506001600160401b0381111561025f575f5ffd5b8701601f8101891361026f575f5ffd5b80516001600160401b03811115610288576102886101d2565b604051601f8201601f19908116603f011681016001600160401b03811182821017156102b6576102b66101d2565b6040528181528282016020018b10156102cd575f5ffd5b8160208401602083015e5f602083830101528093505050509295509295509295565b602081525f82518060208401528060208501604085015e5f604082850101526040601f19601f83011684010191505092915050565b80516020808301519190811015610344575f198160200360031b1b821691505b50919050565b60805160a05160c05160e0516101005161012051615d416103de5f395f61132201525f81816104b30152612c4601525f81816106260152613b5701525f81816103bc0152818161171b0152611dee01525f818161079401528181611356015281816113c0015281816120ce01528181612eba015261375701525f818161064d01528181612b12015261416f0152615d415ff3fe608060405234801561000f575f5ffd5b50600436106102e5575f3560e01c80635c975abb11610195578063adc2e3d9116100e4578063d3d96ff41161009e578063f231bd0811610079578063f231bd08146107b6578063f605ce08146107c9578063fabc1cbc146107dc578063fe4b84df146107ef575f5ffd5b8063d3d96ff414610769578063dc2af6921461077c578063df5cf7231461078f575f5ffd5b8063adc2e3d9146106db578063b2447af7146106ee578063b66bd98914610701578063b9fbaed114610714578063ba1a84e514610743578063c221d8ae14610756575f5ffd5b80637bc1ef611161014f57806394d7d00c1161012a57806394d7d00c1461068f578063952899ee146106a2578063a9333ec8146106b5578063a9821821146106c8575f5ffd5b80637bc1ef6114610621578063886f1195146106485780638ce648541461066f575f5ffd5b80635c975abb146105a2578063670d3ba2146105aa5780636cfb4481146105bd5780636e3492b5146105e85780636e875dba146105fb57806379ae50cd1461060e575f5ffd5b806336352057116102515780634cfd29391161020b57806354fd4d50116101e657806354fd4d501461054f57806356c483e614610564578063595c6a67146105775780635ac86ab71461057f575f5ffd5b80634cfd29391461050857806350feea2014610529578063547afb871461053c575f5ffd5b8063363520571461044c57806340120dab1461046d5780634177a87c1461048e5780634657e26a146104ae5780634a10ffe5146104d55780634b5046ef146104f5575f5ffd5b8063261f84e0116102a2578063261f84e0146103a45780632981eb77146103b75780632b453a9a146103f35780632bab2c4a14610413578063304c10cd1461042657806332a879e414610439575f5ffd5b80630f3df50e146102e957806310e1b9b8146103195780631352c3e614610339578063136439dd1461035c57806315fe502814610371578063260dc75814610391575b5f5ffd5b6102fc6102f7366004614b67565b610802565b6040516001600160a01b0390911681526020015b60405180910390f35b61032c610327366004614b81565b610843565b6040516103109190614bc8565b61034c610347366004614bfb565b61087c565b6040519015158152602001610310565b61036f61036a366004614c2f565b6108f7565b005b61038461037f366004614c46565b610931565b6040516103109190614cc4565b61034c61039f366004614b67565b610a48565b61036f6103b2366004614d16565b610a79565b6103de7f000000000000000000000000000000000000000000000000000000000000000081565b60405163ffffffff9091168152602001610310565b610406610401366004614dfb565b610b22565b6040516103109190614e9e565b610406610421366004614f01565b610b38565b6102fc610434366004614c46565b610bd7565b61036f610447366004614f85565b610c06565b61045f61045a366004615005565b610d43565b604051610310929190615057565b61048061047b36600461506f565b610e86565b6040516103109291906150fc565b6104a161049c366004614b67565b611001565b6040516103109190615159565b6102fc7f000000000000000000000000000000000000000000000000000000000000000081565b6104e86104e336600461516b565b611025565b60405161031091906151ae565b61036f610503366004614f85565b6110cd565b61051b610516366004614b67565b611160565b604051908152602001610310565b61036f6105373660046151f9565b611182565b6104e861054a366004615257565b611273565b61055761131b565b6040516103109190615299565b61036f6105723660046152ce565b61134b565b61036f611450565b61034c61058d3660046152f8565b606654600160ff9092169190911b9081161490565b60665461051b565b61034c6105b8366004614bfb565b611464565b6105d06105cb36600461506f565b611490565b6040516001600160401b039091168152602001610310565b61036f6105f636600461532e565b6114a5565b6104a1610609366004614b67565b611868565b61038461061c366004614c46565b611879565b6103de7f000000000000000000000000000000000000000000000000000000000000000081565b6102fc7f000000000000000000000000000000000000000000000000000000000000000081565b61068261067d36600461535f565b611953565b60405161031091906153a2565b6104e861069d3660046153b4565b611a0f565b61036f6106b036600461540f565b611afb565b6105d06106c336600461506f565b611f9c565b61036f6106d63660046155b8565b611fcb565b61036f6106e9366004615636565b61207d565b61051b6106fc366004614b67565b6123c6565b61036f61070f3660046151f9565b6123e8565b610727610722366004614c46565b612542565b60408051921515835263ffffffff909116602083015201610310565b61051b610751366004614c46565b6125dc565b6104a1610764366004614bfb565b6125fc565b61036f61077736600461506f565b612625565b61034c61078a366004614c46565b612752565b6102fc7f000000000000000000000000000000000000000000000000000000000000000081565b61034c6107c4366004614b67565b612785565b6105d06107d736600461506f565b6127a4565b61036f6107ea366004614c2f565b6127b0565b61036f6107fd366004614c2f565b61281d565b5f5f60a65f6108108561292e565b815260208101919091526040015f20546001600160a01b031690508015610837578061083c565b620e16e45b9392505050565b604080516060810182525f80825260208201819052918101829052906108728561086c8661292e565b85612991565b9695505050505050565b6001600160a01b0382165f908152609e6020526040812081908161089f8561292e565b815260208082019290925260409081015f2081518083019092525460ff8116151580835261010090910463ffffffff16928201929092529150806108ed5750806020015163ffffffff164311155b9150505b92915050565b6108ff612afd565b60665481811681146109245760405163c61dca5d60e01b815260040160405180910390fd5b61092d82612ba0565b5050565b6001600160a01b0381165f908152609d602052604081206060919061095590612bdd565b90505f816001600160401b0381111561097057610970614a77565b6040519080825280602002602001820160405280156109b457816020015b604080518082019091525f808252602082015281526020019060019003908161098e5790505b5090505f5b82811015610a40576001600160a01b0385165f908152609d60205260409020610a1b906109e69083612be6565b604080518082019091525f80825260208201525060408051808201909152606082901c815263ffffffff909116602082015290565b828281518110610a2d57610a2d615678565b60209081029190910101526001016109b9565b509392505050565b60208082015182516001600160a01b03165f9081526098909252604082206108f19163ffffffff90811690612bf116565b82610a8381612c08565b610aa05760405163932d94f760e01b815260040160405180910390fd5b6001600160a01b0384165f90815260a4602052604090205460ff16610ad8576040516348f7dbb960e01b815260040160405180910390fd5b5f5b82811015610b1b57610b1385858584818110610af857610af8615678565b9050602002810190610b0a919061568c565b620e16e4612cb2565b600101610ada565b5050505050565b6060610b3084848443612e66565b949350505050565b6060610b4685858585612e66565b90505f5b8451811015610bce57610b76858281518110610b6857610b68615678565b60200260200101518761087c565b610bc6575f5b8451811015610bc4575f838381518110610b9857610b98615678565b60200260200101518281518110610bb157610bb1615678565b6020908102919091010152600101610b7c565b505b600101610b4a565b50949350505050565b6001600160a01b038082165f908152609760205260408120549091168015610bff578061083c565b5090919050565b84610c1081612c08565b610c2d5760405163932d94f760e01b815260040160405180910390fd5b838214610c4d576040516343714afd60e01b815260040160405180910390fd5b6001600160a01b0386165f90815260a4602052604090205460ff16610c85576040516348f7dbb960e01b815260040160405180910390fd5b5f5b84811015610d3a575f848483818110610ca257610ca2615678565b9050602002016020810190610cb79190614c46565b6001600160a01b031603610cde576040516339b190bb60e11b815260040160405180910390fd5b610d3287878784818110610cf457610cf4615678565b9050602002810190610d06919061568c565b868685818110610d1857610d18615678565b9050602002016020810190610d2d9190614c46565b612cb2565b600101610c87565b50505050505050565b5f60606001610d5181613153565b84610d5b81612c08565b610d785760405163932d94f760e01b815260040160405180910390fd5b5f6040518060400160405280886001600160a01b03168152602001876020016020810190610da691906156aa565b63ffffffff1690529050610dbd60608701876156c3565b9050610dcc60408801886156c3565b905014610dec576040516343714afd60e01b815260040160405180910390fd5b60208082015182516001600160a01b03165f90815260989092526040909120610e1e9163ffffffff90811690612bf116565b610e3b57604051631fb1705560e21b815260040160405180910390fd5b610e51610e4b6020880188614c46565b8261087c565b610e6e5760405163ebbff49760e01b815260040160405180910390fd5b610e788682613181565b945094505050509250929050565b6001600160a01b0382165f908152609d602052604081206060918291610eab90612bdd565b90505f816001600160401b03811115610ec657610ec6614a77565b604051908082528060200260200182016040528015610f0a57816020015b604080518082019091525f8082526020820152815260200190600190039081610ee45790505b5090505f826001600160401b03811115610f2657610f26614a77565b604051908082528060200260200182016040528015610f6f57816020015b604080516060810182525f80825260208083018290529282015282525f19909201910181610f445790505b5090505f5b83811015610ff2576001600160a01b0388165f908152609d60205260408120610fa1906109e69084612be6565b905080848381518110610fb657610fb6615678565b6020026020010181905250610fcc89828a610843565b838381518110610fde57610fde615678565b602090810291909101015250600101610f74565b509093509150505b9250929050565b60605f61083c60995f6110138661292e565b81526020019081526020015f206138c1565b60605f83516001600160401b0381111561104157611041614a77565b60405190808252806020026020018201604052801561106a578160200160208202803683370190505b5090505f5b8451811015610a405761109b85828151811061108d5761108d615678565b602002602001015185611f9c565b8282815181106110ad576110ad615678565b6001600160401b039092166020928302919091019091015260010161106f565b5f6110d781613153565b8382146110f7576040516343714afd60e01b815260040160405180910390fd5b5f5b84811015610d3a576111588787878481811061111757611117615678565b905060200201602081019061112c9190614c46565b86868581811061113e5761113e615678565b90506020020160208101906111539190615708565b6138cd565b6001016110f9565b5f60a55f61116d8461292e565b81526020019081526020015f20549050919050565b8361118c81612c08565b6111a95760405163932d94f760e01b815260040160405180910390fd5b6040805180820182526001600160a01b03871680825263ffffffff80881660208085018290525f938452609890529390912091926111e89291612bf116565b61120557604051631fb1705560e21b815260040160405180910390fd5b5f5b83811015610d3a5761126b8286868481811061122557611225615678565b905060200201602081019061123a9190614c46565b61126660405180604001604052808c6001600160a01b031681526020018b63ffffffff16815250612785565b6139d1565b600101611207565b60605f82516001600160401b0381111561128f5761128f614a77565b6040519080825280602002602001820160405280156112b8578160200160208202803683370190505b5090505f5b8351811015610a40576112e9858583815181106112dc576112dc615678565b6020026020010151611f9c565b8282815181106112fb576112fb615678565b6001600160401b03909216602092830291909101909101526001016112bd565b60606113467f0000000000000000000000000000000000000000000000000000000000000000613a73565b905090565b336001600160a01b037f000000000000000000000000000000000000000000000000000000000000000016146114465761138482612c08565b6113a1576040516348f5c3ed60e01b815260040160405180910390fd5b6040516336b87bd760e11b81526001600160a01b0383811660048301527f00000000000000000000000000000000000000000000000000000000000000001690636d70f7ae90602401602060405180830381865afa158015611405573d5f5f3e3d5ffd5b505050506040513d601f19601f820116820180604052508101906114299190615729565b6114465760405163ccea9e6f60e01b815260040160405180910390fd5b61092d8282613ab0565b611458612afd565b6114625f19612ba0565b565b5f61083c83609a5f6114758661292e565b81526020019081526020015f20613c5c90919063ffffffff16565b5f5f61149c8484613c7d565b95945050505050565b60026114b081613153565b6114c56114c06020840184614c46565b612c08565b806114de57506114de6114c06040840160208501614c46565b6114fb576040516348f5c3ed60e01b815260040160405180910390fd5b5f5b61150a60408401846156c3565b90508110156117cc575f60405180604001604052808560200160208101906115329190614c46565b6001600160a01b0316815260200161154d60408701876156c3565b8581811061155d5761155d615678565b905060200201602081019061157291906156aa565b63ffffffff1681525090506115bf816020015163ffffffff1660985f8760200160208101906115a19190614c46565b6001600160a01b0316815260208101919091526040015f2090612bf1565b6115dc57604051631fb1705560e21b815260040160405180910390fd5b609e5f6115ec6020870187614c46565b6001600160a01b03166001600160a01b031681526020019081526020015f205f6116158361292e565b815260208101919091526040015f205460ff16611645576040516325131d4f60e01b815260040160405180910390fd5b61167f6116518261292e565b609c5f6116616020890189614c46565b6001600160a01b0316815260208101919091526040015f2090613dec565b506116b76116906020860186614c46565b609a5f61169c8561292e565b81526020019081526020015f20613df790919063ffffffff16565b506116c56020850185614c46565b6001600160a01b03167fad34c3070be1dffbcaa499d000ba2b8d9848aefcac3059df245dd95c4ece14fe826040516116fd9190615748565b60405180910390a2604080518082019091525f8152602081016117407f00000000000000000000000000000000000000000000000000000000000000004361576a565b63ffffffff169052609e5f6117586020880188614c46565b6001600160a01b03166001600160a01b031681526020019081526020015f205f6117818461292e565b81526020808201929092526040015f2082518154939092015163ffffffff166101000264ffffffff00199215159290921664ffffffffff1990931692909217179055506001016114fd565b506117e06104346040840160208501614c46565b6001600160a01b031663303ca9566117fb6020850185614c46565b61180b6040860160208701614c46565b61181860408701876156c3565b6040518563ffffffff1660e01b815260040161183794939291906157bf565b5f604051808303815f87803b15801561184e575f5ffd5b505af1158015611860573d5f5f3e3d5ffd5b505050505050565b60606108f1609a5f6110138561292e565b6001600160a01b0381165f908152609c602052604081206060919061189d90612bdd565b90505f816001600160401b038111156118b8576118b8614a77565b6040519080825280602002602001820160405280156118fc57816020015b604080518082019091525f80825260208201528152602001906001900390816118d65790505b5090505f5b82811015610a40576001600160a01b0385165f908152609c6020526040902061192e906109e69083612be6565b82828151811061194057611940615678565b6020908102919091010152600101611901565b60605f84516001600160401b0381111561196f5761196f614a77565b6040519080825280602002602001820160405280156119b857816020015b604080516060810182525f80825260208083018290529282015282525f1990920191018161198d5790505b5090505f5b8551811015610bce576119ea8682815181106119db576119db615678565b60200260200101518686610843565b8282815181106119fc576119fc615678565b60209081029190910101526001016119bd565b60605f83516001600160401b03811115611a2b57611a2b614a77565b604051908082528060200260200182016040528015611a54578160200160208202803683370190505b5090505f5b8451811015610bce576001600160a01b0386165f90815260a1602052604081208651611ac992879291899086908110611a9457611a94615678565b60200260200101516001600160a01b03166001600160a01b031681526020019081526020015f20613e0b90919063ffffffff16565b828281518110611adb57611adb615678565b6001600160401b0390921660209283029190910190910152600101611a59565b5f611b0581613153565b611b0e83612c08565b611b2b576040516348f5c3ed60e01b815260040160405180910390fd5b5f5f5f611b3786612542565b9150915081611b595760405163fa55fc8160e01b815260040160405180910390fd5b91505f90505b8351811015610b1b57838181518110611b7a57611b7a615678565b60200260200101516040015151848281518110611b9957611b99615678565b6020026020010151602001515114611bc4576040516343714afd60e01b815260040160405180910390fd5b5f848281518110611bd757611bd7615678565b602090810291909101810151518082015181516001600160a01b03165f90815260989093526040909220909250611c179163ffffffff90811690612bf116565b611c3457604051631fb1705560e21b815260040160405180910390fd5b5f611c3f878361087c565b90505f5b868481518110611c5557611c55615678565b60200260200101516020015151811015611f91575f878581518110611c7c57611c7c615678565b6020026020010151602001518281518110611c9957611c99615678565b60200260200101519050611cb0898261ffff6138cd565b5f5f611cbf8b61086c8861292e565b91509150806040015163ffffffff165f14611ced57604051630d8fcbe360e41b815260040160405180910390fd5b5f611cfa87858489613e1f565b9050611d3f825f01518c8a81518110611d1557611d15615678565b6020026020010151604001518781518110611d3257611d32615678565b6020026020010151613e55565b600f0b602083018190525f03611d6857604051634606179360e11b815260040160405180910390fd5b5f8260200151600f0b1215611eac578015611e2e57611de9611d898861292e565b6001600160a01b03808f165f90815260a360209081526040808320938a16835292905220908154600160801b90819004600f0b5f818152600180860160205260409091209390935583546001600160801b03908116939091011602179055565b611e137f00000000000000000000000000000000000000000000000000000000000000004361576a565b611e1e90600161576a565b63ffffffff166040830152611f19565b611e4083602001518360200151613e6c565b6001600160401b031660208401528a518b9089908110611e6257611e62615678565b6020026020010151604001518581518110611e7f57611e7f615678565b6020908102919091018101516001600160401b031683525f9083015263ffffffff43166040830152611f19565b5f8260200151600f0b1315611f1957611ecd83602001518360200151613e6c565b6001600160401b039081166020850181905284519091161015611f0357604051636c9be0bf60e01b815260040160405180910390fd5b611f0d894361576a565b63ffffffff1660408301525b611f2e8c611f268961292e565b868686613e8b565b7f1487af5418c47ee5ea45ef4a93398668120890774a9e13487e61e9dc3baf76dd8c8886611f63865f01518760200151613e6c565b8660400151604051611f799594939291906157eb565b60405180910390a1505060019092019150611c439050565b505050600101611b5f565b6001600160a01b038083165f90815260a160209081526040808320938516835292905290812061083c906140c3565b82611fd581612c08565b611ff25760405163932d94f760e01b815260040160405180910390fd5b6001600160a01b0384165f90815260a4602052604090205460ff16612034576001600160a01b0384165f90815260a460205260409020805460ff191660011790555b836001600160a01b03167fa89c1dc243d8908a96dd84944bcc97d6bc6ac00dd78e20621576be6a3c943713848460405161206f929190615864565b60405180910390a250505050565b600261208881613153565b8261209281612c08565b6120af5760405163932d94f760e01b815260040160405180910390fd5b6040516336b87bd760e11b81526001600160a01b0385811660048301527f00000000000000000000000000000000000000000000000000000000000000001690636d70f7ae90602401602060405180830381865afa158015612113573d5f5f3e3d5ffd5b505050506040513d601f19601f820116820180604052508101906121379190615729565b6121545760405163ccea9e6f60e01b815260040160405180910390fd5b5f5b61216360208501856156c3565b905081101561232b57604080518082019091525f90806121866020880188614c46565b6001600160a01b031681526020018680602001906121a491906156c3565b858181106121b4576121b4615678565b90506020020160208101906121c991906156aa565b63ffffffff90811690915260208083015183516001600160a01b03165f90815260989092526040909120929350612205929190811690612bf116565b61222257604051631fb1705560e21b815260040160405180910390fd5b61222c868261087c565b1561224a57604051636c6c6e2760e11b815260040160405180910390fd5b6122736122568261292e565b6001600160a01b0388165f908152609c60205260409020906140d6565b5061229f86609a5f6122848561292e565b81526020019081526020015f206140e190919063ffffffff16565b50856001600160a01b03167f43232edf9071753d2321e5fa7e018363ee248e5f2142e6c08edd3265bfb4895e826040516122d99190615748565b60405180910390a26001600160a01b0386165f908152609e602052604081206001916123048461292e565b815260208101919091526040015f20805460ff191691151591909117905550600101612156565b5061233c6104346020850185614c46565b6001600160a01b031663c63fd502856123586020870187614c46565b61236560208801886156c3565b61237260408a018a615877565b6040518763ffffffff1660e01b8152600401612393969594939291906158b9565b5f604051808303815f87803b1580156123aa575f5ffd5b505af11580156123bc573d5f5f3e3d5ffd5b5050505050505050565b5f6108f1609a5f6123d68561292e565b81526020019081526020015f20612bdd565b836123f281612c08565b61240f5760405163932d94f760e01b815260040160405180910390fd5b6040805180820182526001600160a01b03871680825263ffffffff80881660208085018290525f9384526098905293909120919261244e9291612bf116565b61246b57604051631fb1705560e21b815260040160405180910390fd5b5f6124758261292e565b90505f5b848110156123bc576124be86868381811061249657612496615678565b90506020020160208101906124ab9190614c46565b5f84815260996020526040902090613df7565b6124db576040516331bc342760e11b815260040160405180910390fd5b7f7b4b073d80dcac55a11177d8459ad9f664ceeb91f71f27167bb14f8152a7eeee8387878481811061250f5761250f615678565b90506020020160208101906125249190614c46565b604051612532929190615905565b60405180910390a1600101612479565b6001600160a01b0381165f908152609b602090815260408083208151608081018352905463ffffffff80821680845260ff600160201b8404161515958401869052650100000000008304821694840194909452600160481b9091041660608201819052849391929190158015906125c35750826060015163ffffffff164310155b156125d2575050604081015160015b9590945092505050565b6001600160a01b0381165f9081526098602052604081206108f190612bdd565b6001600160a01b0382165f908152609f60205260408120606091906108ed90826110138661292e565b8161262f81612c08565b61264c5760405163932d94f760e01b815260040160405180910390fd5b60405163b526578760e01b81526001600160a01b03848116600483015283169063b526578790602401602060405180830381865afa158015612690573d5f5f3e3d5ffd5b505050506040513d601f19601f820116820180604052508101906126b49190615729565b6126d157604051631d0b13c160e31b815260040160405180910390fd5b6001600160a01b038381165f90815260976020526040902080546001600160a01b0319169184169190911790557f2ae945c40c44dc0ec263f95609c3fdc6952e0aefa22d6374e44f2c997acedf858361272981610bd7565b604080516001600160a01b039384168152929091166020830152015b60405180910390a1505050565b5f5f61275d83611879565b90505f61276984610931565b905061277584836140f5565b80610b305750610b3084826140f5565b5f620e16e461279383610802565b6001600160a01b0316141592915050565b5f5f610bce8484613c7d565b6127b861416d565b606654801982198116146127df5760405163c61dca5d60e01b815260040160405180910390fd5b606682905560405182815233907f3582d1828e26bf56bd801502bc021ac0bc8afb57c826e4986b45593c8fad389c9060200160405180910390a25050565b5f54610100900460ff161580801561283b57505f54600160ff909116105b806128545750303b15801561285457505f5460ff166001145b6128bc5760405162461bcd60e51b815260206004820152602e60248201527f496e697469616c697a61626c653a20636f6e747261637420697320616c72656160448201526d191e481a5b9a5d1a585b1a5e995960921b60648201526084015b60405180910390fd5b5f805460ff1916600117905580156128dd575f805461ff0019166101001790555b6128e682612ba0565b801561092d575f805461ff0019169055604051600181527f7f26b83ff96e1f2b6a682f133852f6798a09c465da95921460cefb38474024989060200160405180910390a15050565b5f815f0151826020015163ffffffff1660405160200161297992919060609290921b6bffffffffffffffffffffffff1916825260a01b6001600160a01b031916601482015260200190565b6040516020818303038152906040526108f19061592b565b6040805180820182525f80825260208083018290528351606081018552828152808201839052808501839052845180860186526001600160a01b03898116855260a18452868520908816855290925293822092939281906129f1906140c3565b6001600160401b0390811682526001600160a01b038981165f81815260a260209081526040808320948c168084529482528083205486169682019690965291815260a082528481208b8252825284812092815291815290839020835160608101855290549283168152600160401b8304600f0b91810191909152600160c01b90910463ffffffff16918101829052919250431015612a93579092509050612af5565b612aa4815f01518260200151613e6c565b6001600160401b0316815260208101515f600f9190910b1215612ae257612ad382602001518260200151613e6c565b6001600160401b031660208301525b5f60408201819052602082015290925090505b935093915050565b60405163237dfb4760e11b81523360048201527f00000000000000000000000000000000000000000000000000000000000000006001600160a01b0316906346fbf68e90602401602060405180830381865afa158015612b5f573d5f5f3e3d5ffd5b505050506040513d601f19601f82011682018060405250810190612b839190615729565b61146257604051631d77d47760e21b815260040160405180910390fd5b606681905560405181815233907fab40a374bc51de372200a8bc981af8c9ecdc08dfdaef0bb6e09f88f3c616ef3d9060200160405180910390a250565b5f6108f1825490565b5f61083c838361421e565b5f818152600183016020526040812054151561083c565b604051631beb2b9760e31b81526001600160a01b0382811660048301523360248301523060448301525f80356001600160e01b0319166064840152917f00000000000000000000000000000000000000000000000000000000000000009091169063df595cb8906084016020604051808303815f875af1158015612c8e573d5f5f3e3d5ffd5b505050506040513d601f19601f820116820180604052508101906108f19190615729565b5f6040518060400160405280856001600160a01b03168152602001845f016020810190612cdf91906156aa565b63ffffffff168152509050612d29816020015163ffffffff1660985f876001600160a01b03166001600160a01b031681526020019081526020015f206140d690919063ffffffff16565b612d4657604051631fb1705560e21b815260040160405180910390fd5b7f31629285ead2335ae0933f86ed2ae63321f7af77b4e6eaabc42c057880977e6c81604051612d759190615748565b60405180910390a16001600160a01b038216620e16e414801590612e0a578260a65f612da08561292e565b81526020019081526020015f205f6101000a8154816001600160a01b0302191690836001600160a01b031602179055507f90a6fa2a9b79b910872ebca540cf3bd8be827f586e6420c30d8836e30012907e8284604051612e01929190615905565b60405180910390a15b5f5b612e1960208601866156c3565b905081101561186057612e5e83612e3360208801886156c3565b84818110612e4357612e43615678565b9050602002016020810190612e589190614c46565b846139d1565b600101612e0c565b606083516001600160401b03811115612e8157612e81614a77565b604051908082528060200260200182016040528015612eb457816020015b6060815260200190600190039081612e9f5790505b5090505f7f00000000000000000000000000000000000000000000000000000000000000006001600160a01b031663f0e0e67686866040518363ffffffff1660e01b8152600401612f0692919061594e565b5f60405180830381865afa158015612f20573d5f5f3e3d5ffd5b505050506040513d5f823e601f3d908101601f19168201604052612f479190810190615972565b90505f5b8551811015613149575f868281518110612f6757612f67615678565b6020026020010151905085516001600160401b03811115612f8a57612f8a614a77565b604051908082528060200260200182016040528015612fb3578160200160208202803683370190505b50848381518110612fc657612fc6615678565b60209081029190910101525f5b865181101561313f575f878281518110612fef57612fef615678565b6020908102919091018101516001600160a01b038086165f90815260a184526040808220928416825291909352822090925061302a906140c3565b9050806001600160401b03165f03613043575050613137565b5f61304f858d85610843565b90508863ffffffff16816040015163ffffffff161115801561307757505f8160200151600f0b125b156130995761308d815f01518260200151613e6c565b6001600160401b031681525b80515f906130b4906001600160401b03908116908516614244565b90506130fb818989815181106130cc576130cc615678565b602002602001015187815181106130e5576130e5615678565b602002602001015161425890919063ffffffff16565b89888151811061310d5761310d615678565b6020026020010151868151811061312657613126615678565b602002602001018181525050505050505b600101612fd3565b5050600101612f4b565b5050949350505050565b606654600160ff83161b9081160361317e5760405163840a48d560e01b815260040160405180910390fd5b50565b5f60608161319260408601866156c3565b90506001600160401b038111156131ab576131ab614a77565b6040519080825280602002602001820160405280156131d4578160200160208202803683370190505b5090506131e460408601866156c3565b90506001600160401b038111156131fd576131fd614a77565b604051908082528060200260200182016040528015613226578160200160208202803683370190505b50915060a55f6132358661292e565b81526020019081526020015f205f815461324e90615a7e565b918290555092505f5b61326460408701876156c3565b9050811015613853578015806132f7575061328260408701876156c3565b61328d600184615a96565b81811061329c5761329c615678565b90506020020160208101906132b19190614c46565b6001600160a01b03166132c760408801886156c3565b838181106132d7576132d7615678565b90506020020160208101906132ec9190614c46565b6001600160a01b0316115b61331457604051639f1c805360e01b815260040160405180910390fd5b61332160608701876156c3565b8281811061333157613331615678565b905060200201355f1080156133715750670de0b6b3a764000061335760608801886156c3565b8381811061336757613367615678565b9050602002013511155b61338e57604051631353603160e01b815260040160405180910390fd5b6133cf61339e60408801886156c3565b838181106133ae576133ae615678565b90506020020160208101906133c39190614c46565b60995f6114758961292e565b6133ec576040516331bc342760e11b815260040160405180910390fd5b5f8061343e6133fe60208a018a614c46565b6134078961292e565b61341460408c018c6156c3565b8781811061342457613424615678565b90506020020160208101906134399190614c46565b612991565b805191935091506001600160401b03165f0361345b57505061384b565b5f61349661346c60608b018b6156c3565b8681811061347c5761347c615678565b85516001600160401b03169260209091020135905061426c565b83519091506134b16001600160401b03808416908316614244565b8686815181106134c3576134c3615678565b60200260200101818152505081835f018181516134e09190615aa9565b6001600160401b03169052508351829085906134fd908390615aa9565b6001600160401b031690525060208401805183919061351d908390615aa9565b6001600160401b031690525060208301515f600f9190910b1215613635575f61358061354c60608d018d6156c3565b8881811061355c5761355c615678565b90506020020135856020015161357190615ac8565b6001600160801b03169061426c565b9050806001600160401b03168460200181815161359d9190615aec565b600f0b9052507f1487af5418c47ee5ea45ef4a93398668120890774a9e13487e61e9dc3baf76dd6135d160208d018d614c46565b8b6135df60408f018f6156c3565b8a8181106135ef576135ef615678565b90506020020160208101906136049190614c46565b613615885f01518960200151613e6c565b886040015160405161362b9594939291906157eb565b60405180910390a1505b61368761364560208c018c614c46565b61364e8b61292e565b61365b60408e018e6156c3565b8981811061366b5761366b615678565b90506020020160208101906136809190614c46565b8787613e8b565b7f1487af5418c47ee5ea45ef4a93398668120890774a9e13487e61e9dc3baf76dd6136b560208c018c614c46565b8a6136c360408e018e6156c3565b898181106136d3576136d3615678565b90506020020160208101906136e89190614c46565b86516040516136fc949392919043906157eb565b60405180910390a161374d61371460208c018c614c46565b61372160408d018d6156c3565b8881811061373157613731615678565b90506020020160208101906137469190614c46565b8651614282565b6001600160a01b037f000000000000000000000000000000000000000000000000000000000000000016635ae679a761378960208d018d614c46565b8b8b8e806040019061379b91906156c3565b8b8181106137ab576137ab615678565b90506020020160208101906137c09190614c46565b89516040516001600160e01b031960e088901b1681526137e895949392918991600401615b19565b6020604051808303815f875af1158015613804573d5f5f3e3d5ffd5b505050506040513d601f19601f820116820180604052508101906138289190615b6c565b87868151811061383a5761383a615678565b602002602001018181525050505050505b600101613257565b507f80969ad29428d6797ee7aad084f9e4a42a82fc506dcd2ca3b6fb431f85ccebe56138826020870187614c46565b8561389060408901896156c3565b8561389e60808c018c615877565b6040516138b19796959493929190615b83565b60405180910390a1509250929050565b60605f61083c83614304565b6001600160a01b038381165f90815260a360209081526040808320938616835292905290812054600f81810b600160801b909204900b035b5f8111801561391757508261ffff1682105b15610b1b576001600160a01b038086165f90815260a360209081526040808320938816835292905290812061394b9061435d565b90505f5f61395a888489612991565b91509150806040015163ffffffff1643101561397857505050610b1b565b6139858884898585613e8b565b6001600160a01b038089165f90815260a360209081526040808320938b168352929052206139b2906143af565b506139bc85615a7e565b94506139c784615c19565b9350505050613905565b8015613a155773beac0eeeeeeeeeeeeeeeeeeeeeeeeeeeeeebeabf196001600160a01b03831601613a1557604051632711b74d60e11b815260040160405180910390fd5b613a258260995f6122848761292e565b613a425760405163585cfb2f60e01b815260040160405180910390fd5b7f7ab260fe0af193db5f4986770d831bda4ea46099dc817e8b6716dcae8af8e88b8383604051612745929190615905565b60605f613a7f8361442c565b6040805160208082528183019092529192505f91906020820181803683375050509182525060208101929092525090565b6001600160a01b0382165f908152609b60209081526040918290208251608081018452905463ffffffff808216835260ff600160201b830416151593830193909352650100000000008104831693820193909352600160481b909204166060820181905215801590613b2c5750806060015163ffffffff164310155b15613b4657604081015163ffffffff168152600160208201525b63ffffffff82166040820152613b7c7f00000000000000000000000000000000000000000000000000000000000000004361576a565b613b8790600161576a565b63ffffffff90811660608381019182526001600160a01b0386165f818152609b602090815260409182902087518154838a0151858b01519851928a1664ffffffffff1990921691909117600160201b91151591909102176cffffffffffffffff0000000000191665010000000000978916979097026cffffffff000000000000000000191696909617600160481b968816968702179055815192835294871694820194909452928301919091527f4e85751d6331506c6c62335f207eb31f12a61e570f34f5c17640308785c6d4db9101612745565b6001600160a01b0381165f908152600183016020526040812054151561083c565b6001600160a01b038281165f81815260a2602090815260408083209486168084529482528083205493835260a38252808320948352939052918220546001600160401b039091169190600f81810b600160801b909204900b03815b81811015613da8576001600160a01b038087165f90815260a3602090815260408083209389168352929052908120613d109083614453565b6001600160a01b038881165f90815260a0602090815260408083208584528252808320938b16835292815290829020825160608101845290546001600160401b0381168252600160401b8104600f0b92820192909252600160c01b90910463ffffffff16918101829052919250431015613d8b575050613da8565b613d99868260200151613e6c565b95505050806001019050613cd8565b506001600160a01b038086165f90815260a1602090815260408083209388168352929052208390613dd8906140c3565b613de29190615aa9565b9150509250929050565b5f61083c83836144c2565b5f61083c836001600160a01b0384166144c2565b5f61083c8383670de0b6b3a76400006145a5565b5f613e308460995f6114758961292e565b8015613e395750815b801561149c57505090516001600160401b031615159392505050565b5f61083c6001600160401b03808516908416615c2e565b5f61083c613e83836001600160401b038616615aec565b600f0b6145fa565b6020808301516001600160a01b038088165f90815260a284526040808220928816825291909352909120546001600160401b03908116911614613f5157602082810180516001600160a01b038881165f81815260a286526040808220938a1680835293875290819020805467ffffffffffffffff19166001600160401b0395861617905593518451918252948101919091529216908201527facf9095feb3a370c9cf692421c69ef320d4db5c66e6a7d29c7694eb02364fc559060600160405180910390a15b6001600160a01b038086165f90815260a060209081526040808320888452825280832093871683529281529082902083518154928501519385015163ffffffff16600160c01b0263ffffffff60c01b196001600160801b038616600160401b026001600160c01b03199095166001600160401b03909316929092179390931716919091179055600f0b15614033576001600160a01b0385165f908152609f60209081526040808320878452909152902061400b90846140e1565b506001600160a01b0385165f908152609d6020526040902061402d90856140d6565b50610b1b565b80516001600160401b03165f03610b1b576001600160a01b0385165f908152609f6020908152604080832087845290915290206140709084613df7565b506001600160a01b0385165f908152609f60209081526040808320878452909152902061409c90612bdd565b5f03610b1b576001600160a01b0385165f908152609d602052604090206118609085613dec565b5f6108f182670de0b6b3a7640000614665565b5f61083c838361469c565b5f61083c836001600160a01b03841661469c565b5f805b8251811015614164576141248484838151811061411757614117615678565b602002602001015161087c565b801561414d575061414d83828151811061414057614140615678565b6020026020010151612785565b1561415c5760019150506108f1565b6001016140f8565b505f9392505050565b7f00000000000000000000000000000000000000000000000000000000000000006001600160a01b031663eab66d7a6040518163ffffffff1660e01b8152600401602060405180830381865afa1580156141c9573d5f5f3e3d5ffd5b505050506040513d601f19601f820116820180604052508101906141ed9190615c5b565b6001600160a01b0316336001600160a01b0316146114625760405163794821ff60e01b815260040160405180910390fd5b5f825f01828154811061423357614233615678565b905f5260205f200154905092915050565b5f61083c83670de0b6b3a7640000846146e8565b5f61083c8383670de0b6b3a76400006146e8565b5f61083c8383670de0b6b3a764000060016147cd565b6001600160a01b038084165f90815260a1602090815260408083209386168352929052206142b190438361481c565b604080516001600160a01b038086168252841660208201526001600160401b038316918101919091527f1c6458079a41077d003c11faf9bf097e693bd67979e4e6500bac7b29db779b5c90606001612745565b6060815f0180548060200260200160405190810160405280929190818152602001828054801561435157602002820191905f5260205f20905b81548152602001906001019080831161433d575b50505050509050919050565b5f6143778254600f81810b600160801b909204900b131590565b1561439557604051631ed9509560e11b815260040160405180910390fd5b508054600f0b5f9081526001909101602052604090205490565b5f6143c98254600f81810b600160801b909204900b131590565b156143e757604051631ed9509560e11b815260040160405180910390fd5b508054600f0b5f818152600180840160205260408220805492905583546fffffffffffffffffffffffffffffffff191692016001600160801b03169190911790915590565b5f60ff8216601f8111156108f157604051632cd44ac360e21b815260040160405180910390fd5b5f5f61447561446184614835565b85546144709190600f0b615c76565b61489e565b8454909150600160801b9004600f90810b9082900b126144a857604051632d0483c560e21b815260040160405180910390fd5b600f0b5f9081526001939093016020525050604090205490565b5f818152600183016020526040812054801561459c575f6144e4600183615a96565b85549091505f906144f790600190615a96565b9050818114614556575f865f01828154811061451557614515615678565b905f5260205f200154905080875f01848154811061453557614535615678565b5f918252602080832090910192909255918252600188019052604090208390555b855486908061456757614567615c9d565b600190038181905f5260205f20015f90559055856001015f8681526020019081526020015f205f9055600193505050506108f1565b5f9150506108f1565b82545f90816145b686868385614907565b905080156145f0576145da866145cd600184615a96565b5f91825260209091200190565b54600160201b90046001600160e01b0316610872565b5091949350505050565b5f6001600160401b038211156146615760405162461bcd60e51b815260206004820152602660248201527f53616665436173743a2076616c756520646f65736e27742066697420696e203660448201526534206269747360d01b60648201526084016128b3565b5090565b81545f9080156146945761467e846145cd600184615a96565b54600160201b90046001600160e01b03166108ed565b509092915050565b5f8181526001830160205260408120546146e157508154600181810184555f8481526020808220909301849055845484825282860190935260409020919091556108f1565b505f6108f1565b5f80805f19858709858702925082811083820303915050805f0361471f5783828161471557614715615cb1565b049250505061083c565b8084116147665760405162461bcd60e51b81526020600482015260156024820152744d6174683a206d756c446976206f766572666c6f7760581b60448201526064016128b3565b5f8486880960026001871981018816978890046003810283188082028403028082028403028082028403028082028403028082028403029081029092039091025f889003889004909101858311909403939093029303949094049190911702949350505050565b5f5f6147da8686866146e8565b905060018360028111156147f0576147f0615cc5565b14801561480c57505f848061480757614807615cb1565b868809115b1561149c57610872600182615cd9565b61483083836001600160401b03841661495a565b505050565b5f6001600160ff1b038211156146615760405162461bcd60e51b815260206004820152602860248201527f53616665436173743a2076616c756520646f65736e27742066697420696e2061604482015267371034b73a191a9b60c11b60648201526084016128b3565b80600f81900b81146149025760405162461bcd60e51b815260206004820152602760248201527f53616665436173743a2076616c756520646f65736e27742066697420696e20316044820152663238206269747360c81b60648201526084016128b3565b919050565b5f5b81831015610a40575f61491c8484614a5d565b5f8781526020902090915063ffffffff86169082015463ffffffff16111561494657809250614954565b614951816001615cd9565b93505b50614909565b82548015614a10575f614972856145cd600185615a96565b60408051808201909152905463ffffffff808216808452600160201b9092046001600160e01b0316602084015291925090851610156149c45760405163151b8e3f60e11b815260040160405180910390fd5b805163ffffffff808616911603614a0e57826149e5866145cd600186615a96565b80546001600160e01b0392909216600160201b0263ffffffff9092169190911790555050505050565b505b506040805180820190915263ffffffff92831681526001600160e01b03918216602080830191825285546001810187555f968752952091519051909216600160201b029190921617910155565b5f614a6b6002848418615cec565b61083c90848416615cd9565b634e487b7160e01b5f52604160045260245ffd5b604051606081016001600160401b0381118282101715614aad57614aad614a77565b60405290565b604051601f8201601f191681016001600160401b0381118282101715614adb57614adb614a77565b604052919050565b6001600160a01b038116811461317e575f5ffd5b803563ffffffff81168114614902575f5ffd5b5f60408284031215614b1a575f5ffd5b604080519081016001600160401b0381118282101715614b3c57614b3c614a77565b6040529050808235614b4d81614ae3565b8152614b5b60208401614af7565b60208201525092915050565b5f60408284031215614b77575f5ffd5b61083c8383614b0a565b5f5f5f60808486031215614b93575f5ffd5b8335614b9e81614ae3565b9250614bad8560208601614b0a565b91506060840135614bbd81614ae3565b809150509250925092565b81516001600160401b03168152602080830151600f0b9082015260408083015163ffffffff1690820152606081016108f1565b5f5f60608385031215614c0c575f5ffd5b8235614c1781614ae3565b9150614c268460208501614b0a565b90509250929050565b5f60208284031215614c3f575f5ffd5b5035919050565b5f60208284031215614c56575f5ffd5b813561083c81614ae3565b80516001600160a01b0316825260209081015163ffffffff16910152565b5f8151808452602084019350602083015f5b82811015614cba57614ca4868351614c61565b6040959095019460209190910190600101614c91565b5093949350505050565b602081525f61083c6020830184614c7f565b5f5f83601f840112614ce6575f5ffd5b5081356001600160401b03811115614cfc575f5ffd5b6020830191508360208260051b8501011115610ffa575f5ffd5b5f5f5f60408486031215614d28575f5ffd5b8335614d3381614ae3565b925060208401356001600160401b03811115614d4d575f5ffd5b614d5986828701614cd6565b9497909650939450505050565b5f6001600160401b03821115614d7e57614d7e614a77565b5060051b60200190565b5f82601f830112614d97575f5ffd5b8135614daa614da582614d66565b614ab3565b8082825260208201915060208360051b860101925085831115614dcb575f5ffd5b602085015b83811015614df1578035614de381614ae3565b835260209283019201614dd0565b5095945050505050565b5f5f5f60808486031215614e0d575f5ffd5b614e178585614b0a565b925060408401356001600160401b03811115614e31575f5ffd5b614e3d86828701614d88565b92505060608401356001600160401b03811115614e58575f5ffd5b614e6486828701614d88565b9150509250925092565b5f8151808452602084019350602083015f5b82811015614cba578151865260209586019590910190600101614e80565b5f602082016020835280845180835260408501915060408160051b8601019250602086015f5b82811015614ef557603f19878603018452614ee0858351614e6e565b94506020938401939190910190600101614ec4565b50929695505050505050565b5f5f5f5f60a08587031215614f14575f5ffd5b614f1e8686614b0a565b935060408501356001600160401b03811115614f38575f5ffd5b614f4487828801614d88565b93505060608501356001600160401b03811115614f5f575f5ffd5b614f6b87828801614d88565b925050614f7a60808601614af7565b905092959194509250565b5f5f5f5f5f60608688031215614f99575f5ffd5b8535614fa481614ae3565b945060208601356001600160401b03811115614fbe575f5ffd5b614fca88828901614cd6565b90955093505060408601356001600160401b03811115614fe8575f5ffd5b614ff488828901614cd6565b969995985093965092949392505050565b5f5f60408385031215615016575f5ffd5b823561502181614ae3565b915060208301356001600160401b0381111561503b575f5ffd5b830160a0818603121561504c575f5ffd5b809150509250929050565b828152604060208201525f610b306040830184614e6e565b5f5f60408385031215615080575f5ffd5b823561508b81614ae3565b9150602083013561504c81614ae3565b5f8151808452602084019350602083015f5b82811015614cba576150e686835180516001600160401b03168252602080820151600f0b9083015260409081015163ffffffff16910152565b60609590950194602091909101906001016150ad565b604081525f61510e6040830185614c7f565b828103602084015261149c818561509b565b5f8151808452602084019350602083015f5b82811015614cba5781516001600160a01b0316865260209586019590910190600101615132565b602081525f61083c6020830184615120565b5f5f6040838503121561517c575f5ffd5b82356001600160401b03811115615191575f5ffd5b61519d85828601614d88565b925050602083013561504c81614ae3565b602080825282518282018190525f918401906040840190835b818110156151ee5783516001600160401b03168352602093840193909201916001016151c7565b509095945050505050565b5f5f5f5f6060858703121561520c575f5ffd5b843561521781614ae3565b935061522560208601614af7565b925060408501356001600160401b0381111561523f575f5ffd5b61524b87828801614cd6565b95989497509550505050565b5f5f60408385031215615268575f5ffd5b823561527381614ae3565b915060208301356001600160401b0381111561528d575f5ffd5b613de285828601614d88565b602081525f82518060208401528060208501604085015e5f604082850101526040601f19601f83011684010191505092915050565b5f5f604083850312156152df575f5ffd5b82356152ea81614ae3565b9150614c2660208401614af7565b5f60208284031215615308575f5ffd5b813560ff8116811461083c575f5ffd5b5f60608284031215615328575f5ffd5b50919050565b5f6020828403121561533e575f5ffd5b81356001600160401b03811115615353575f5ffd5b6108ed84828501615318565b5f5f5f60808486031215615371575f5ffd5b83356001600160401b03811115615386575f5ffd5b61539286828701614d88565b935050614bad8560208601614b0a565b602081525f61083c602083018461509b565b5f5f5f606084860312156153c6575f5ffd5b83356153d181614ae3565b925060208401356001600160401b038111156153eb575f5ffd5b6153f786828701614d88565b92505061540660408501614af7565b90509250925092565b5f5f60408385031215615420575f5ffd5b823561542b81614ae3565b915060208301356001600160401b03811115615445575f5ffd5b8301601f81018513615455575f5ffd5b8035615463614da582614d66565b8082825260208201915060208360051b850101925087831115615484575f5ffd5b602084015b838110156155a95780356001600160401b038111156154a6575f5ffd5b85016080818b03601f190112156154bb575f5ffd5b6154c3614a8b565b6154d08b60208401614b0a565b815260608201356001600160401b038111156154ea575f5ffd5b6154f98c602083860101614d88565b60208301525060808201356001600160401b03811115615517575f5ffd5b6020818401019250508a601f83011261552e575f5ffd5b813561553c614da582614d66565b8082825260208201915060208360051b86010192508d83111561555d575f5ffd5b6020850194505b828510156155935784356001600160401b0381168114615582575f5ffd5b825260209485019490910190615564565b6040840152505084525060209283019201615489565b50809450505050509250929050565b5f5f5f604084860312156155ca575f5ffd5b83356155d581614ae3565b925060208401356001600160401b038111156155ef575f5ffd5b8401601f810186136155ff575f5ffd5b80356001600160401b03811115615614575f5ffd5b866020828401011115615625575f5ffd5b939660209190910195509293505050565b5f5f60408385031215615647575f5ffd5b823561565281614ae3565b915060208301356001600160401b0381111561566c575f5ffd5b613de285828601615318565b634e487b7160e01b5f52603260045260245ffd5b5f8235603e198336030181126156a0575f5ffd5b9190910192915050565b5f602082840312156156ba575f5ffd5b61083c82614af7565b5f5f8335601e198436030181126156d8575f5ffd5b8301803591506001600160401b038211156156f1575f5ffd5b6020019150600581901b3603821315610ffa575f5ffd5b5f60208284031215615718575f5ffd5b813561ffff8116811461083c575f5ffd5b5f60208284031215615739575f5ffd5b8151801515811461083c575f5ffd5b604081016108f18284614c61565b634e487b7160e01b5f52601160045260245ffd5b63ffffffff81811683821601908111156108f1576108f1615756565b8183526020830192505f815f5b84811015614cba5763ffffffff6157a983614af7565b1686526020958601959190910190600101615793565b6001600160a01b038581168252841660208201526060604082018190525f906108729083018486615786565b6001600160a01b038616815260c081016158086020830187614c61565b6001600160a01b039490941660608201526001600160401b0392909216608083015263ffffffff1660a09091015292915050565b81835281816020850137505f828201602090810191909152601f909101601f19169091010190565b602081525f610b3060208301848661583c565b5f5f8335601e1984360301811261588c575f5ffd5b8301803591506001600160401b038211156158a5575f5ffd5b602001915036819003821315610ffa575f5ffd5b6001600160a01b038781168252861660208201526080604082018190525f906158e59083018688615786565b82810360608401526158f881858761583c565b9998505050505050505050565b606081016159138285614c61565b6001600160a01b039290921660409190910152919050565b80516020808301519190811015615328575f1960209190910360031b1b16919050565b604081525f6159606040830185615120565b828103602084015261149c8185615120565b5f60208284031215615982575f5ffd5b81516001600160401b03811115615997575f5ffd5b8201601f810184136159a7575f5ffd5b80516159b5614da582614d66565b8082825260208201915060208360051b8501019250868311156159d6575f5ffd5b602084015b83811015615a735780516001600160401b038111156159f8575f5ffd5b8501603f81018913615a08575f5ffd5b6020810151615a19614da582614d66565b808282526020820191506020808460051b8601010192508b831115615a3c575f5ffd5b6040840193505b82841015615a5e578351825260209384019390910190615a43565b865250506020938401939190910190506159db565b509695505050505050565b5f60018201615a8f57615a8f615756565b5060010190565b818103818111156108f1576108f1615756565b6001600160401b0382811682821603908111156108f1576108f1615756565b5f81600f0b60016001607f1b03198103615ae457615ae4615756565b5f0392915050565b600f81810b9083900b0160016001607f1b03811360016001607f1b0319821217156108f1576108f1615756565b6001600160a01b038716815260e08101615b366020830188614c61565b60608201959095526001600160a01b039390931660808401526001600160401b0391821660a08401521660c09091015292915050565b5f60208284031215615b7c575f5ffd5b5051919050565b6001600160a01b03881681525f60c08201615ba1602084018a614c61565b60c060608401528690528660e083015f5b88811015615be2578235615bc581614ae3565b6001600160a01b0316825260209283019290910190600101615bb2565b508381036080850152615bf58188614e6e565b91505082810360a0840152615c0b81858761583c565b9a9950505050505050505050565b5f81615c2757615c27615756565b505f190190565b600f82810b9082900b0360016001607f1b0319811260016001607f1b03821317156108f1576108f1615756565b5f60208284031215615c6b575f5ffd5b815161083c81614ae3565b8082018281125f831280158216821582161715615c9557615c95615756565b505092915050565b634e487b7160e01b5f52603160045260245ffd5b634e487b7160e01b5f52601260045260245ffd5b634e487b7160e01b5f52602160045260245ffd5b808201808211156108f1576108f1615756565b5f82615d0657634e487b7160e01b5f52601260045260245ffd5b50049056fea26469706673582212207ffcd99f9165c1567b83e60ff543a1e3202c0fabec9debb5f8adec22b57d410364736f6c634300081b0033",
    "linkReferences": {}
  },
  "methodIdentifiers": {
    "ALLOCATION_CONFIGURATION_DELAY()": "7bc1ef61",
    "DEALLOCATION_DELAY()": "2981eb77",
    "addStrategiesToOperatorSet(address,uint32,address[])": "50feea20",
    "clearDeallocationQueue(address,address[],uint16[])": "4b5046ef",
    "createOperatorSets(address,(uint32,address[])[])": "261f84e0",
    "createRedistributingOperatorSets(address,(uint32,address[])[],address[])": "32a879e4",
    "delegation()": "df5cf723",
    "deregisterFromOperatorSets((address,address,uint32[]))": "6e3492b5",
    "getAVSRegistrar(address)": "304c10cd",
    "getAllocatableMagnitude(address,address)": "6cfb4481",
    "getAllocatedSets(address)": "15fe5028",
    "getAllocatedStake((address,uint32),address[],address[])": "2b453a9a",
    "getAllocatedStrategies(address,(address,uint32))": "c221d8ae",
    "getAllocation(address,(address,uint32),address)": "10e1b9b8",
    "getAllocationDelay(address)": "b9fbaed1",
    "getAllocations(address[],(address,uint32),address)": "8ce64854",
    "getEncumberedMagnitude(address,address)": "f605ce08",
    "getMaxMagnitude(address,address)": "a9333ec8",
    "getMaxMagnitudes(address,address[])": "547afb87",
    "getMaxMagnitudes(address[],address)": "4a10ffe5",
    "getMaxMagnitudesAtBlock(address,address[],uint32)": "94d7d00c",
    "getMemberCount((address,uint32))": "b2447af7",
    "getMembers((address,uint32))": "6e875dba",
    "getMinimumSlashableStake((address,uint32),address[],address[],uint32)": "2bab2c4a",
    "getOperatorSetCount(address)": "ba1a84e5",
    "getRedistributionRecipient((address,uint32))": "0f3df50e",
    "getRegisteredSets(address)": "79ae50cd",
    "getSlashCount((address,uint32))": "4cfd2939",
    "getStrategiesInOperatorSet((address,uint32))": "4177a87c",
    "getStrategyAllocations(address,address)": "40120dab",
    "initialize(uint256)": "fe4b84df",
    "isMemberOfOperatorSet(address,(address,uint32))": "670d3ba2",
    "isOperatorRedistributable(address)": "dc2af692",
    "isOperatorSet((address,uint32))": "260dc758",
    "isOperatorSlashable(address,(address,uint32))": "1352c3e6",
    "isRedistributingOperatorSet((address,uint32))": "f231bd08",
    "modifyAllocations(address,((address,uint32),address[],uint64[])[])": "952899ee",
    "pause(uint256)": "136439dd",
    "pauseAll()": "595c6a67",
    "paused()": "5c975abb",
    "paused(uint8)": "5ac86ab7",
    "pauserRegistry()": "886f1195",
    "permissionController()": "4657e26a",
    "registerForOperatorSets(address,(address,uint32[],bytes))": "adc2e3d9",
    "removeStrategiesFromOperatorSet(address,uint32,address[])": "b66bd989",
    "setAVSRegistrar(address,address)": "d3d96ff4",
    "setAllocationDelay(address,uint32)": "56c483e6",
    "slashOperator(address,(address,uint32,address[],uint256[],string))": "36352057",
    "unpause(uint256)": "fabc1cbc",
    "updateAVSMetadataURI(address,string)": "a9821821",
    "version()": "54fd4d50"
  },
  "id": 117
}