{
  "abi": [
    {
      "type": "constructor",
      "inputs": [
        {
          "name": "_operatorTableUpdater",
          "type": "address",
          "internalType": "contract IOperatorTableUpdater"
        },
        {
          "name": "_version",
          "type": "string",
          "internalType": "string"
        }
      ],
      "stateMutability": "nonpayable"
    },
    {
      "type": "function",
      "name": "getNonsignerOperatorInfo",
      "inputs": [
        {
          "name": "operatorSet",
          "type": "tuple",
          "internalType": "struct OperatorSet",
          "components": [
            {
              "name": "avs",
              "type": "address",
              "internalType": "address"
            },
            {
              "name": "id",
              "type": "uint32",
              "internalType": "uint32"
            }
          ]
        },
        {
          "name": "referenceTimestamp",
          "type": "uint32",
          "internalType": "uint32"
        },
        {
          "name": "operatorIndex",
          "type": "uint256",
          "internalType": "uint256"
        }
      ],
      "outputs": [
        {
          "name": "",
          "type": "tuple",
          "internalType": "struct IOperatorTableCalculatorTypes.BN254OperatorInfo",
          "components": [
            {
              "name": "pubkey",
              "type": "tuple",
              "internalType": "struct BN254.G1Point",
              "components": [
                {
                  "name": "X",
                  "type": "uint256",
                  "internalType": "uint256"
                },
                {
                  "name": "Y",
                  "type": "uint256",
                  "internalType": "uint256"
                }
              ]
            },
            {
              "name": "weights",
              "type": "uint256[]",
              "internalType": "uint256[]"
            }
          ]
        }
      ],
      "stateMutability": "view"
    },
    {
      "type": "function",
      "name": "getOperatorCount",
      "inputs": [
        {
          "name": "operatorSet",
          "type": "tuple",
          "internalType": "struct OperatorSet",
          "components": [
            {
              "name": "avs",
              "type": "address",
              "internalType": "address"
            },
            {
              "name": "id",
              "type": "uint32",
              "internalType": "uint32"
            }
          ]
        },
        {
          "name": "referenceTimestamp",
          "type": "uint32",
          "internalType": "uint32"
        }
      ],
      "outputs": [
        {
          "name": "",
          "type": "uint256",
          "internalType": "uint256"
        }
      ],
      "stateMutability": "view"
    },
    {
      "type": "function",
      "name": "getOperatorSetInfo",
      "inputs": [
        {
          "name": "operatorSet",
          "type": "tuple",
          "internalType": "struct OperatorSet",
          "components": [
            {
              "name": "avs",
              "type": "address",
              "internalType": "address"
            },
            {
              "name": "id",
              "type": "uint32",
              "internalType": "uint32"
            }
          ]
        },
        {
          "name": "referenceTimestamp",
          "type": "uint32",
          "internalType": "uint32"
        }
      ],
      "outputs": [
        {
          "name": "",
          "type": "tuple",
          "internalType": "struct IOperatorTableCalculatorTypes.BN254OperatorSetInfo",
          "components": [
            {
              "name": "operatorInfoTreeRoot",
              "type": "bytes32",
              "internalType": "bytes32"
            },
            {
              "name": "numOperators",
              "type": "uint256",
              "internalType": "uint256"
            },
            {
              "name": "aggregatePubkey",
              "type": "tuple",
              "internalType": "struct BN254.G1Point",
              "components": [
                {
                  "name": "X",
                  "type": "uint256",
                  "internalType": "uint256"
                },
                {
                  "name": "Y",
                  "type": "uint256",
                  "internalType": "uint256"
                }
              ]
            },
            {
              "name": "totalWeights",
              "type": "uint256[]",
              "internalType": "uint256[]"
            }
          ]
        }
      ],
      "stateMutability": "view"
    },
    {
      "type": "function",
      "name": "getOperatorSetOwner",
      "inputs": [
        {
          "name": "operatorSet",
          "type": "tuple",
          "internalType": "struct OperatorSet",
          "components": [
            {
              "name": "avs",
              "type": "address",
              "internalType": "address"
            },
            {
              "name": "id",
              "type": "uint32",
              "internalType": "uint32"
            }
          ]
        }
      ],
      "outputs": [
        {
          "name": "",
          "type": "address",
          "internalType": "address"
        }
      ],
      "stateMutability": "view"
    },
    {
      "type": "function",
      "name": "getTotalStakeWeights",
      "inputs": [
        {
          "name": "operatorSet",
          "type": "tuple",
          "internalType": "struct OperatorSet",
          "components": [
            {
              "name": "avs",
              "type": "address",
              "internalType": "address"
            },
            {
              "name": "id",
              "type": "uint32",
              "internalType": "uint32"
            }
          ]
        },
        {
          "name": "referenceTimestamp",
          "type": "uint32",
          "internalType": "uint32"
        }
      ],
      "outputs": [
        {
          "name": "",
          "type": "uint256[]",
          "internalType": "uint256[]"
        }
      ],
      "stateMutability": "view"
    },
    {
      "type": "function",
      "name": "isNonsignerCached",
      "inputs": [
        {
          "name": "operatorSet",
          "type": "tuple",
          "internalType": "struct OperatorSet",
          "components": [
            {
              "name": "avs",
              "type": "address",
              "internalType": "address"
            },
            {
              "name": "id",
              "type": "uint32",
              "internalType": "uint32"
            }
          ]
        },
        {
          "name": "referenceTimestamp",
          "type": "uint32",
          "internalType": "uint32"
        },
        {
          "name": "operatorIndex",
          "type": "uint256",
          "internalType": "uint256"
        }
      ],
      "outputs": [
        {
          "name": "",
          "type": "bool",
          "internalType": "bool"
        }
      ],
      "stateMutability": "view"
    },
    {
      "type": "function",
      "name": "isReferenceTimestampSet",
      "inputs": [
        {
          "name": "operatorSet",
          "type": "tuple",
          "internalType": "struct OperatorSet",
          "components": [
            {
              "name": "avs",
              "type": "address",
              "internalType": "address"
            },
            {
              "name": "id",
              "type": "uint32",
              "internalType": "uint32"
            }
          ]
        },
        {
          "name": "referenceTimestamp",
          "type": "uint32",
          "internalType": "uint32"
        }
      ],
      "outputs": [
        {
          "name": "",
          "type": "bool",
          "internalType": "bool"
        }
      ],
      "stateMutability": "view"
    },
    {
      "type": "function",
      "name": "latestReferenceTimestamp",
      "inputs": [
        {
          "name": "operatorSet",
          "type": "tuple",
          "internalType": "struct OperatorSet",
          "components": [
            {
              "name": "avs",
              "type": "address",
              "internalType": "address"
            },
            {
              "name": "id",
              "type": "uint32",
              "internalType": "uint32"
            }
          ]
        }
      ],
      "outputs": [
        {
          "name": "",
          "type": "uint32",
          "internalType": "uint32"
        }
      ],
      "stateMutability": "view"
    },
    {
      "type": "function",
      "name": "maxOperatorTableStaleness",
      "inputs": [
        {
          "name": "operatorSet",
          "type": "tuple",
          "internalType": "struct OperatorSet",
          "components": [
            {
              "name": "avs",
              "type": "address",
              "internalType": "address"
            },
            {
              "name": "id",
              "type": "uint32",
              "internalType": "uint32"
            }
          ]
        }
      ],
      "outputs": [
        {
          "name": "",
          "type": "uint32",
          "internalType": "uint32"
        }
      ],
      "stateMutability": "view"
    },
    {
      "type": "function",
      "name": "operatorTableUpdater",
      "inputs": [],
      "outputs": [
        {
          "name": "",
          "type": "address",
          "internalType": "contract IOperatorTableUpdater"
        }
      ],
      "stateMutability": "view"
    },
    {
      "type": "function",
      "name": "trySignatureVerification",
      "inputs": [
        {
          "name": "msgHash",
          "type": "bytes32",
          "internalType": "bytes32"
        },
        {
          "name": "aggPubkey",
          "type": "tuple",
          "internalType": "struct BN254.G1Point",
          "components": [
            {
              "name": "X",
              "type": "uint256",
              "internalType": "uint256"
            },
            {
              "name": "Y",
              "type": "uint256",
              "internalType": "uint256"
            }
          ]
        },
        {
          "name": "apkG2",
          "type": "tuple",
          "internalType": "struct BN254.G2Point",
          "components": [
            {
              "name": "X",
              "type": "uint256[2]",
              "internalType": "uint256[2]"
            },
            {
              "name": "Y",
              "type": "uint256[2]",
              "internalType": "uint256[2]"
            }
          ]
        },
        {
          "name": "signature",
          "type": "tuple",
          "internalType": "struct BN254.G1Point",
          "components": [
            {
              "name": "X",
              "type": "uint256",
              "internalType": "uint256"
            },
            {
              "name": "Y",
              "type": "uint256",
              "internalType": "uint256"
            }
          ]
        }
      ],
      "outputs": [
        {
          "name": "pairingSuccessful",
          "type": "bool",
          "internalType": "bool"
        },
        {
          "name": "signatureValid",
          "type": "bool",
          "internalType": "bool"
        }
      ],
      "stateMutability": "view"
    },
    {
      "type": "function",
      "name": "updateOperatorTable",
      "inputs": [
        {
          "name": "operatorSet",
          "type": "tuple",
          "internalType": "struct OperatorSet",
          "components": [
            {
              "name": "avs",
              "type": "address",
              "internalType": "address"
            },
            {
              "name": "id",
              "type": "uint32",
              "internalType": "uint32"
            }
          ]
        },
        {
          "name": "referenceTimestamp",
          "type": "uint32",
          "internalType": "uint32"
        },
        {
          "name": "operatorSetInfo",
          "type": "tuple",
          "internalType": "struct IOperatorTableCalculatorTypes.BN254OperatorSetInfo",
          "components": [
            {
              "name": "operatorInfoTreeRoot",
              "type": "bytes32",
              "internalType": "bytes32"
            },
            {
              "name": "numOperators",
              "type": "uint256",
              "internalType": "uint256"
            },
            {
              "name": "aggregatePubkey",
              "type": "tuple",
              "internalType": "struct BN254.G1Point",
              "components": [
                {
                  "name": "X",
                  "type": "uint256",
                  "internalType": "uint256"
                },
                {
                  "name": "Y",
                  "type": "uint256",
                  "internalType": "uint256"
                }
              ]
            },
            {
              "name": "totalWeights",
              "type": "uint256[]",
              "internalType": "uint256[]"
            }
          ]
        },
        {
          "name": "operatorSetConfig",
          "type": "tuple",
          "internalType": "struct ICrossChainRegistryTypes.OperatorSetConfig",
          "components": [
            {
              "name": "owner",
              "type": "address",
              "internalType": "address"
            },
            {
              "name": "maxStalenessPeriod",
              "type": "uint32",
              "internalType": "uint32"
            }
          ]
        }
      ],
      "outputs": [],
      "stateMutability": "nonpayable"
    },
    {
      "type": "function",
      "name": "verifyCertificate",
      "inputs": [
        {
          "name": "operatorSet",
          "type": "tuple",
          "internalType": "struct OperatorSet",
          "components": [
            {
              "name": "avs",
              "type": "address",
              "internalType": "address"
            },
            {
              "name": "id",
              "type": "uint32",
              "internalType": "uint32"
            }
          ]
        },
        {
          "name": "cert",
          "type": "tuple",
          "internalType": "struct IBN254CertificateVerifierTypes.BN254Certificate",
          "components": [
            {
              "name": "referenceTimestamp",
              "type": "uint32",
              "internalType": "uint32"
            },
            {
              "name": "messageHash",
              "type": "bytes32",
              "internalType": "bytes32"
            },
            {
              "name": "signature",
              "type": "tuple",
              "internalType": "struct BN254.G1Point",
              "components": [
                {
                  "name": "X",
                  "type": "uint256",
                  "internalType": "uint256"
                },
                {
                  "name": "Y",
                  "type": "uint256",
                  "internalType": "uint256"
                }
              ]
            },
            {
              "name": "apk",
              "type": "tuple",
              "internalType": "struct BN254.G2Point",
              "components": [
                {
                  "name": "X",
                  "type": "uint256[2]",
                  "internalType": "uint256[2]"
                },
                {
                  "name": "Y",
                  "type": "uint256[2]",
                  "internalType": "uint256[2]"
                }
              ]
            },
            {
              "name": "nonSignerWitnesses",
              "type": "tuple[]",
              "internalType": "struct IBN254CertificateVerifierTypes.BN254OperatorInfoWitness[]",
              "components": [
                {
                  "name": "operatorIndex",
                  "type": "uint32",
                  "internalType": "uint32"
                },
                {
                  "name": "operatorInfoProof",
                  "type": "bytes",
                  "internalType": "bytes"
                },
                {
                  "name": "operatorInfo",
                  "type": "tuple",
                  "internalType": "struct IOperatorTableCalculatorTypes.BN254OperatorInfo",
                  "components": [
                    {
                      "name": "pubkey",
                      "type": "tuple",
                      "internalType": "struct BN254.G1Point",
                      "components": [
                        {
                          "name": "X",
                          "type": "uint256",
                          "internalType": "uint256"
                        },
                        {
                          "name": "Y",
                          "type": "uint256",
                          "internalType": "uint256"
                        }
                      ]
                    },
                    {
                      "name": "weights",
                      "type": "uint256[]",
                      "internalType": "uint256[]"
                    }
                  ]
                }
              ]
            }
          ]
        }
      ],
      "outputs": [
        {
          "name": "signedStakes",
          "type": "uint256[]",
          "internalType": "uint256[]"
        }
      ],
      "stateMutability": "nonpayable"
    },
    {
      "type": "function",
      "name": "verifyCertificateNominal",
      "inputs": [
        {
          "name": "operatorSet",
          "type": "tuple",
          "internalType": "struct OperatorSet",
          "components": [
            {
              "name": "avs",
              "type": "address",
              "internalType": "address"
            },
            {
              "name": "id",
              "type": "uint32",
              "internalType": "uint32"
            }
          ]
        },
        {
          "name": "cert",
          "type": "tuple",
          "internalType": "struct IBN254CertificateVerifierTypes.BN254Certificate",
          "components": [
            {
              "name": "referenceTimestamp",
              "type": "uint32",
              "internalType": "uint32"
            },
            {
              "name": "messageHash",
              "type": "bytes32",
              "internalType": "bytes32"
            },
            {
              "name": "signature",
              "type": "tuple",
              "internalType": "struct BN254.G1Point",
              "components": [
                {
                  "name": "X",
                  "type": "uint256",
                  "internalType": "uint256"
                },
                {
                  "name": "Y",
                  "type": "uint256",
                  "internalType": "uint256"
                }
              ]
            },
            {
              "name": "apk",
              "type": "tuple",
              "internalType": "struct BN254.G2Point",
              "components": [
                {
                  "name": "X",
                  "type": "uint256[2]",
                  "internalType": "uint256[2]"
                },
                {
                  "name": "Y",
                  "type": "uint256[2]",
                  "internalType": "uint256[2]"
                }
              ]
            },
            {
              "name": "nonSignerWitnesses",
              "type": "tuple[]",
              "internalType": "struct IBN254CertificateVerifierTypes.BN254OperatorInfoWitness[]",
              "components": [
                {
                  "name": "operatorIndex",
                  "type": "uint32",
                  "internalType": "uint32"
                },
                {
                  "name": "operatorInfoProof",
                  "type": "bytes",
                  "internalType": "bytes"
                },
                {
                  "name": "operatorInfo",
                  "type": "tuple",
                  "internalType": "struct IOperatorTableCalculatorTypes.BN254OperatorInfo",
                  "components": [
                    {
                      "name": "pubkey",
                      "type": "tuple",
                      "internalType": "struct BN254.G1Point",
                      "components": [
                        {
                          "name": "X",
                          "type": "uint256",
                          "internalType": "uint256"
                        },
                        {
                          "name": "Y",
                          "type": "uint256",
                          "internalType": "uint256"
                        }
                      ]
                    },
                    {
                      "name": "weights",
                      "type": "uint256[]",
                      "internalType": "uint256[]"
                    }
                  ]
                }
              ]
            }
          ]
        },
        {
          "name": "totalStakeNominalThresholds",
          "type": "uint256[]",
          "internalType": "uint256[]"
        }
      ],
      "outputs": [
        {
          "name": "",
          "type": "bool",
          "internalType": "bool"
        }
      ],
      "stateMutability": "nonpayable"
    },
    {
      "type": "function",
      "name": "verifyCertificateProportion",
      "inputs": [
        {
          "name": "operatorSet",
          "type": "tuple",
          "internalType": "struct OperatorSet",
          "components": [
            {
              "name": "avs",
              "type": "address",
              "internalType": "address"
            },
            {
              "name": "id",
              "type": "uint32",
              "internalType": "uint32"
            }
          ]
        },
        {
          "name": "cert",
          "type": "tuple",
          "internalType": "struct IBN254CertificateVerifierTypes.BN254Certificate",
          "components": [
            {
              "name": "referenceTimestamp",
              "type": "uint32",
              "internalType": "uint32"
            },
            {
              "name": "messageHash",
              "type": "bytes32",
              "internalType": "bytes32"
            },
            {
              "name": "signature",
              "type": "tuple",
              "internalType": "struct BN254.G1Point",
              "components": [
                {
                  "name": "X",
                  "type": "uint256",
                  "internalType": "uint256"
                },
                {
                  "name": "Y",
                  "type": "uint256",
                  "internalType": "uint256"
                }
              ]
            },
            {
              "name": "apk",
              "type": "tuple",
              "internalType": "struct BN254.G2Point",
              "components": [
                {
                  "name": "X",
                  "type": "uint256[2]",
                  "internalType": "uint256[2]"
                },
                {
                  "name": "Y",
                  "type": "uint256[2]",
                  "internalType": "uint256[2]"
                }
              ]
            },
            {
              "name": "nonSignerWitnesses",
              "type": "tuple[]",
              "internalType": "struct IBN254CertificateVerifierTypes.BN254OperatorInfoWitness[]",
              "components": [
                {
                  "name": "operatorIndex",
                  "type": "uint32",
                  "internalType": "uint32"
                },
                {
                  "name": "operatorInfoProof",
                  "type": "bytes",
                  "internalType": "bytes"
                },
                {
                  "name": "operatorInfo",
                  "type": "tuple",
                  "internalType": "struct IOperatorTableCalculatorTypes.BN254OperatorInfo",
                  "components": [
                    {
                      "name": "pubkey",
                      "type": "tuple",
                      "internalType": "struct BN254.G1Point",
                      "components": [
                        {
                          "name": "X",
                          "type": "uint256",
                          "internalType": "uint256"
                        },
                        {
                          "name": "Y",
                          "type": "uint256",
                          "internalType": "uint256"
                        }
                      ]
                    },
                    {
                      "name": "weights",
                      "type": "uint256[]",
                      "internalType": "uint256[]"
                    }
                  ]
                }
              ]
            }
          ]
        },
        {
          "name": "totalStakeProportionThresholds",
          "type": "uint16[]",
          "internalType": "uint16[]"
        }
      ],
      "outputs": [
        {
          "name": "",
          "type": "bool",
          "internalType": "bool"
        }
      ],
      "stateMutability": "nonpayable"
    },
    {
      "type": "function",
      "name": "version",
      "inputs": [],
      "outputs": [
        {
          "name": "",
          "type": "string",
          "internalType": "string"
        }
      ],
      "stateMutability": "view"
    },
    {
      "type": "event",
      "name": "Initialized",
      "inputs": [
        {
          "name": "version",
          "type": "uint8",
          "indexed": false,
          "internalType": "uint8"
        }
      ],
      "anonymous": false
    },
    {
      "type": "event",
      "name": "MaxStalenessPeriodUpdated",
      "inputs": [
        {
          "name": "operatorSet",
          "type": "tuple",
          "indexed": false,
          "internalType": "struct OperatorSet",
          "components": [
            {
              "name": "avs",
              "type": "address",
              "internalType": "address"
            },
            {
              "name": "id",
              "type": "uint32",
              "internalType": "uint32"
            }
          ]
        },
        {
          "name": "maxStalenessPeriod",
          "type": "uint32",
          "indexed": false,
          "internalType": "uint32"
        }
      ],
      "anonymous": false
    },
    {
      "type": "event",
      "name": "OperatorSetOwnerUpdated",
      "inputs": [
        {
          "name": "operatorSet",
          "type": "tuple",
          "indexed": false,
          "internalType": "struct OperatorSet",
          "components": [
            {
              "name": "avs",
              "type": "address",
              "internalType": "address"
            },
            {
              "name": "id",
              "type": "uint32",
              "internalType": "uint32"
            }
          ]
        },
        {
          "name": "owner",
          "type": "address",
          "indexed": false,
          "internalType": "address"
        }
      ],
      "anonymous": false
    },
    {
      "type": "event",
      "name": "TableUpdated",
      "inputs": [
        {
          "name": "operatorSet",
          "type": "tuple",
          "indexed": false,
          "internalType": "struct OperatorSet",
          "components": [
            {
              "name": "avs",
              "type": "address",
              "internalType": "address"
            },
            {
              "name": "id",
              "type": "uint32",
              "internalType": "uint32"
            }
          ]
        },
        {
          "name": "referenceTimestamp",
          "type": "uint32",
          "indexed": false,
          "internalType": "uint32"
        },
        {
          "name": "operatorSetInfo",
          "type": "tuple",
          "indexed": false,
          "internalType": "struct IOperatorTableCalculatorTypes.BN254OperatorSetInfo",
          "components": [
            {
              "name": "operatorInfoTreeRoot",
              "type": "bytes32",
              "internalType": "bytes32"
            },
            {
              "name": "numOperators",
              "type": "uint256",
              "internalType": "uint256"
            },
            {
              "name": "aggregatePubkey",
              "type": "tuple",
              "internalType": "struct BN254.G1Point",
              "components": [
                {
                  "name": "X",
                  "type": "uint256",
                  "internalType": "uint256"
                },
                {
                  "name": "Y",
                  "type": "uint256",
                  "internalType": "uint256"
                }
              ]
            },
            {
              "name": "totalWeights",
              "type": "uint256[]",
              "internalType": "uint256[]"
            }
          ]
        }
      ],
      "anonymous": false
    },
    {
      "type": "error",
      "name": "ArrayLengthMismatch",
      "inputs": []
    },
    {
      "type": "error",
      "name": "CertificateStale",
      "inputs": []
    },
    {
      "type": "error",
      "name": "ECAddFailed",
      "inputs": []
    },
    {
      "type": "error",
      "name": "ECMulFailed",
      "inputs": []
    },
    {
      "type": "error",
      "name": "ECPairingFailed",
      "inputs": []
    },
    {
      "type": "error",
      "name": "ExpModFailed",
      "inputs": []
    },
    {
      "type": "error",
      "name": "InvalidOperatorIndex",
      "inputs": []
    },
    {
      "type": "error",
      "name": "InvalidProofLength",
      "inputs": []
    },
    {
      "type": "error",
      "name": "InvalidShortString",
      "inputs": []
    },
    {
      "type": "error",
      "name": "OnlyTableUpdater",
      "inputs": []
    },
    {
      "type": "error",
      "name": "ReferenceTimestampDoesNotExist",
      "inputs": []
    },
    {
      "type": "error",
      "name": "RootDisabled",
      "inputs": []
    },
    {
      "type": "error",
      "name": "StringTooLong",
      "inputs": [
        {
          "name": "str",
          "type": "string",
          "internalType": "string"
        }
      ]
    },
    {
      "type": "error",
      "name": "TableUpdateStale",
      "inputs": []
    },
    {
      "type": "error",
      "name": "VerificationFailed",
      "inputs": []
    }
  ],
  "bytecode": {
    "object": "0x60c060405234801561000f575f5ffd5b50604051612b9e380380612b9e83398101604081905261002e9161016a565b6001600160a01b0382166080528061004581610058565b60a0525061005161009e565b5050610294565b5f5f829050601f8151111561008b578260405163305a27a960e01b81526004016100829190610239565b60405180910390fd5b80516100968261026e565b179392505050565b5f54610100900460ff16156101055760405162461bcd60e51b815260206004820152602760248201527f496e697469616c697a61626c653a20636f6e747261637420697320696e697469604482015266616c697a696e6760c81b6064820152608401610082565b5f5460ff90811614610154575f805460ff191660ff9081179091556040519081527f7f26b83ff96e1f2b6a682f133852f6798a09c465da95921460cefb38474024989060200160405180910390a15b565b634e487b7160e01b5f52604160045260245ffd5b5f5f6040838503121561017b575f5ffd5b82516001600160a01b0381168114610191575f5ffd5b60208401519092506001600160401b038111156101ac575f5ffd5b8301601f810185136101bc575f5ffd5b80516001600160401b038111156101d5576101d5610156565b604051601f8201601f19908116603f011681016001600160401b038111828210171561020357610203610156565b60405281815282820160200187101561021a575f5ffd5b8160208401602083015e5f602083830101528093505050509250929050565b602081525f82518060208401528060208501604085015e5f604082850101526040601f19601f83011684010191505092915050565b8051602080830151919081101561028e575f198160200360031b1b821691505b50919050565b60805160a0516128db6102c35f395f61059101525f818161022f015281816106dc0152610e9a01526128db5ff3fe608060405234801561000f575f5ffd5b50600436106100fb575f3560e01c80636141879e116100935780638481892011610063578063848189201461027c578063cd83a72b1461028f578063dd2ae1b9146102a2578063eb39e68f146102b5575f5ffd5b80636141879e146102025780636738c40b1461021557806368d6e0811461022a5780637d1d1f5b14610269575f5ffd5b806326af6a3c116100ce57806326af6a3c1461019257806354fd4d50146101b25780635be87274146101c75780635ddb9b5b146101da575f5ffd5b8063017d7974146100ff578063080b7150146101275780631a18746c1461014757806323c2a3cb14610171575b5f5ffd5b61011261010d36600461229b565b6102d5565b60405190151581526020015b60405180910390f35b61013a610135366004612376565b610466565b60405161011e91906123c1565b61015a6101553660046123f8565b61047b565b60408051921515835290151560208301520161011e565b61018461017f366004612446565b61049c565b60405190815260200161011e565b6101a56101a0366004612478565b6104d2565b60405161011e91906124ed565b6101ba61058a565b60405161011e9190612522565b6101126101d5366004612478565b6105ba565b6101ed6101e8366004612557565b610685565b60405163ffffffff909116815260200161011e565b6101ed610210366004612557565b6106ab565b610228610223366004612587565b6106d1565b005b6102517f000000000000000000000000000000000000000000000000000000000000000081565b6040516001600160a01b03909116815260200161011e565b61013a610277366004612446565b6108b7565b61025161028a366004612557565b610937565b61011261029d366004612446565b610960565b6101126102b0366004612640565b610996565b6102c86102c3366004612446565b610a29565b60405161011e91906126f8565b5f5f6102e18585610aee565b90505f6102ed86610c8b565b5f8181526004602081815260408084208a5163ffffffff16855282528084208151608081018352815481526001820154818501528251808401845260028301548152600383015481860152818401529381018054835181860281018601909452808452969750949593949093606086019383018282801561038b57602002820191905f5260205f20905b815481526020019060010190808311610377575b50505050508152505090505f8160600151905085518451146103c05760405163512509d360e11b815260040160405180910390fd5b5f5b8451811015610455575f6127108883815181106103e1576103e161270a565b602002602001015161ffff168484815181106103ff576103ff61270a565b60200260200101516104119190612732565b61041b919061275d565b9050808683815181106104305761043061270a565b6020026020010151101561044c575f965050505050505061045f565b506001016103c2565b5060019450505050505b9392505050565b60606104728383610aee565b90505b92915050565b5f5f61048f86848787600162061a80610cee565b9150915094509492505050565b5f5f6104a784610c8b565b5f90815260046020908152604080832063ffffffff8716845290915290206001015491505092915050565b6104da611c34565b5f6104e485610c8b565b5f81815260056020908152604080832063ffffffff89168452825280832087845282529182902082516080810184528154818501908152600183015460608301528152600282018054855181860281018601909652808652959650909491938584019390929083018282801561057757602002820191905f5260205f20905b815481526020019060010190808311610563575b5050505050815250509150509392505050565b60606105b57f0000000000000000000000000000000000000000000000000000000000000000610db6565b905090565b5f5f6105c585610c8b565b5f81815260056020908152604080832063ffffffff8916845282528083208784528252808320815160808101835281548184019081526001830154606083015281526002820180548451818702810187019095528085529697509495909491938581019392919083018282801561065957602002820191905f5260205f20905b815481526020019060010190808311610645575b505050919092525050815151919250501580159061067b575080516020015115155b9695505050505050565b5f5f61069083610c8b565b5f9081526003602052604090205463ffffffff169392505050565b5f5f6106b683610c8b565b5f9081526002602052604090205463ffffffff169392505050565b336001600160a01b037f0000000000000000000000000000000000000000000000000000000000000000161461071a5760405163030c1b6b60e11b815260040160405180910390fd5b5f61073261072d36879003870187612557565b610c8b565b5f8181526003602052604090205490915063ffffffff9081169085161161076c57604051632f20889f60e01b815260040160405180910390fd5b5f81815260046020818152604080842063ffffffff891685528252928390208651815581870151600182015592860151805160028501558101516003840155606086015180518794936107c493908501920190611c5e565b5050505f818152600360209081526040909120805463ffffffff191663ffffffff87161790556107f690830183612770565b5f8281526001602090815260409182902080546001600160a01b0319166001600160a01b03949094169390931790925561083591908401908401612789565b5f828152600260209081526040808320805463ffffffff191663ffffffff958616179055600682528083209388168352929052819020805460ff19166001179055517f93e6bea1c9b5dce4a5c07b00261e956df2a4a253d9ab6ca070ca2037d72ada9e906108a8908790879087906127a2565b60405180910390a15050505050565b60605f6108c384610c8b565b5f81815260046020818152604080842063ffffffff89168552825292839020909101805483518184028101840190945280845293945091929083018282801561092957602002820191905f5260205f20905b815481526020019060010190808311610915575b505050505091505092915050565b5f5f61094283610c8b565b5f908152600160205260409020546001600160a01b03169392505050565b5f5f61096b84610c8b565b5f90815260066020908152604080832063ffffffff8716845290915290205460ff1691505092915050565b5f5f6109a28585610aee565b905082518151146109c65760405163512509d360e11b815260040160405180910390fd5b5f5b8151811015610a1d578381815181106109e3576109e361270a565b60200260200101518282815181106109fd576109fd61270a565b60200260200101511015610a15575f9250505061045f565b6001016109c8565b50600195945050505050565b610a31611ca7565b5f610a3b84610c8b565b5f81815260046020818152604080842063ffffffff8916855282529283902083516080810185528154815260018201548184015284518086018652600283015481526003830154818501528186015292810180548551818502810185019096528086529596509294909360608601939092909190830182828015610adc57602002820191905f5260205f20905b815481526020019060010190808311610ac8575b50505050508152505091505092915050565b6060610af8611cd9565b610b0184610c8b565b8082528351610b109190610df3565b80515f908152600460208181526040808420875163ffffffff1685528252928390208351608081018552815481526001820154818401528451808601865260028301548152600383015481850152818601529281018054855181850281018501909652808652939491936060860193830182828015610bac57602002820191905f5260205f20905b815481526020019060010190808311610b98575b505050919092525050506020820181905260600151516001600160401b03811115610bd957610bd9611e07565b604051908082528060200260200182016040528015610c02578160200160208202803683370190505b5060408201525f5b81602001516060015151811015610c66578160200151606001518181518110610c3557610c3561270a565b602002602001015182604001518281518110610c5357610c5361270a565b6020908102919091010152600101610c0a565b50610c718184610f2d565b6060820152610c808184611057565b604001519392505050565b5f815f0151826020015163ffffffff16604051602001610cd692919060609290921b6bffffffffffffffffffffffff1916825260a01b6001600160a01b031916601482015260200190565b604051602081830303815290604052610475906127ee565b5f5f5f610cfa896110c5565b90505f610d098a89898c61114f565b90505f610d20610d198a84611203565b8b90611273565b90505f610d62610d5b84610d556040805180820182525f80825260209182015281518083019092526001825260029082015290565b90611203565b8590611273565b90508715610d8757610d7e82610d766112e7565b838c8b6113a7565b96509450610da7565b610d9a82610d936112e7565b838c6115bb565b95508515610da757600194505b50505050965096945050505050565b60605f610dc2836117f2565b6040805160208082528183019092529192505f91906020820181803683375050509182525060208101929092525090565b5f8281526002602052604090205463ffffffff16801580610e235750610e198183612811565b63ffffffff164211155b610e405760405163640fcd6b60e11b815260040160405180910390fd5b5f83815260066020908152604080832063ffffffff8616845290915290205460ff16610e7f57604051630cad17b760e31b815260040160405180910390fd5b60405163193877e160e21b815263ffffffff831660048201527f00000000000000000000000000000000000000000000000000000000000000006001600160a01b0316906364e1df8490602401602060405180830381865afa158015610ee7573d5f5f3e3d5ffd5b505050506040513d601f19601f82011682018060405250810190610f0b919061282d565b610f2857604051631b14174b60e01b815260040160405180910390fd5b505050565b6040805180820182525f808252602091820181905282518084019093528083529082018190525b826080015151811015611050575f83608001518281518110610f7857610f7861270a565b60200260200101519050846020015160200151815f015163ffffffff1610610fb3576040516301fa53c760e11b815260040160405180910390fd5b845184515f91610fc39184611819565b8051909150610fd3908590611273565b93505f5b8160200151518110156110455786604001515181101561103d57816020015181815181106110075761100761270a565b6020026020010151876040015182815181106110255761102561270a565b60200260200101818151611039919061284c565b9052505b600101610fd7565b505050600101610f54565b5092915050565b5f6110776110688460600151611990565b60208501516040015190611273565b90505f5f6110938460200151848660600151876040015161047b565b915091508180156110a15750805b6110be5760405163439cc0cd60e01b815260040160405180910390fd5b5050505050565b604080518082019091525f80825260208201525f80806110f25f5160206128865f395f51905f528661285f565b90505b6110fe81611a26565b90935091505f5160206128865f395f51905f528283098303611136576040805180820190915290815260208101919091529392505050565b5f5160206128865f395f51905f526001820890506110f5565b8251602080850151845180519083015186840151805190850151875188870151604080519889018e90528801989098526060870195909552608086019390935260a085019190915260c084015260e08301526101008201526101208101919091525f907f30644e72e131a029b85045b68181585d2833e84879b9709143e1f593f00000019061014001604051602081830303815290604052805190602001205f1c6111fa919061285f565b95945050505050565b604080518082019091525f808252602082015261121e611d1e565b835181526020808501519082015260408082018490525f908360608460076107d05a03fa9050808061124c57fe5b508061126b57604051632319df1960e11b815260040160405180910390fd5b505092915050565b604080518082019091525f808252602082015261128e611d3c565b835181526020808501518183015283516040808401919091529084015160608301525f908360808460066107d05a03fa905080806112c857fe5b508061126b5760405163d4b68fd760e01b815260040160405180910390fd5b6112ef611d5a565b50604080516080810182527f198e9393920d483a7260bfb731fb5d25f1aa493335a9e71297e485b7aef312c28183019081527f1800deef121f1e76426a00665e5c4479674322d4f75edadd46debd5cd992f6ed6060830152815281518083019092527f275dc4a288d1afb3cbb1ac09187524c7db36395df7be3b99e673b13a075a65ec82527f1d9befcd05a5323e6da4d435f3b617cdb3af83285c2df711ef39c01571827f9d60208381019190915281019190915290565b6040805180820182528681526020808201869052825180840190935286835282018490525f918291906113d8611d7a565b5f5b600281101561158f575f6113ef826006612732565b90508482600281106114035761140361270a565b60200201515183611414835f612872565b600c81106114245761142461270a565b602002015284826002811061143b5761143b61270a565b602002015160200151838260016114529190612872565b600c81106114625761146261270a565b60200201528382600281106114795761147961270a565b602002015151518361148c836002612872565b600c811061149c5761149c61270a565b60200201528382600281106114b3576114b361270a565b60200201515160016020020151836114cc836003612872565b600c81106114dc576114dc61270a565b60200201528382600281106114f3576114f361270a565b6020020151602001515f6002811061150d5761150d61270a565b60200201518361151e836004612872565b600c811061152e5761152e61270a565b60200201528382600281106115455761154561270a565b6020020151602001516001600281106115605761156061270a565b602002015183611571836005612872565b600c81106115815761158161270a565b6020020152506001016113da565b50611598611d99565b5f6020826101808560088cfa9151919c9115159b50909950505050505050505050565b6040805180820182528581526020808201859052825180840190935285835282018390525f916115e9611d7a565b5f5b60028110156117a0575f611600826006612732565b90508482600281106116145761161461270a565b60200201515183611625835f612872565b600c81106116355761163561270a565b602002015284826002811061164c5761164c61270a565b602002015160200151838260016116639190612872565b600c81106116735761167361270a565b602002015283826002811061168a5761168a61270a565b602002015151518361169d836002612872565b600c81106116ad576116ad61270a565b60200201528382600281106116c4576116c461270a565b60200201515160016020020151836116dd836003612872565b600c81106116ed576116ed61270a565b60200201528382600281106117045761170461270a565b6020020151602001515f6002811061171e5761171e61270a565b60200201518361172f836004612872565b600c811061173f5761173f61270a565b60200201528382600281106117565761175661270a565b6020020151602001516001600281106117715761177161270a565b602002015183611782836005612872565b600c81106117925761179261270a565b6020020152506001016115eb565b506117a9611d99565b5f6020826101808560086107d05a03fa905080806117c357fe5b50806117e2576040516324ccc79360e21b815260040160405180910390fd5b5051151598975050505050505050565b5f60ff8216601f81111561047557604051632cd44ac360e21b815260040160405180910390fd5b611821611c34565b5f84815260056020908152604080832063ffffffff80881685529083528184208651909116845282528083208151608081018352815481840190815260018301546060830152815260028201805484518187028101870190955280855291949293858401939092908301828280156118b657602002820191905f5260205f20905b8154815260200190600101908083116118a2575b5050509190925250508151519192505f9115159050806118da575081516020015115155b905080611983575f6118fa8787875f015188604001518960200151611aa2565b90508061191a5760405163439cc0cd60e01b815260040160405180910390fd5b6040808601515f8981526005602090815283822063ffffffff808c1684529082528483208a51909116835281529290208151805182558301516001820155828201518051929391926119729260028501920190611c5e565b509050508460400151935050611987565b8192505b50509392505050565b604080518082019091525f808252602082015281511580156119b457506020820151155b156119d1575050604080518082019091525f808252602082015290565b6040518060400160405280835f015181526020015f5160206128865f395f51905f528460200151611a02919061285f565b611a19905f5160206128865f395f51905f5261284c565b905292915050565b919050565b5f80805f5160206128865f395f51905f5260035f5160206128865f395f51905f52865f5160206128865f395f51905f52888909090890505f611a96827f0c19139cb84c680a6e14116da060561765e05aa45a1c72a34f082305b61f3f525f5160206128865f395f51905f52611b0d565b91959194509092505050565b5f5f83604051602001611ab591906124ed565b60408051601f1981840301815291815281516020928301205f8a81526004845282812063ffffffff808c1683529452919091205490925090611b01908590839085908a811690611b8616565b98975050505050505050565b5f5f611b17611d99565b611b1f611db7565b602080825281810181905260408201819052606082018890526080820187905260a082018690528260c08360056107d05a03fa92508280611b5c57fe5b5082611b7b5760405163d51edae360e01b815260040160405180910390fd5b505195945050505050565b5f83611b93868585611b9d565b1495945050505050565b5f60208451611bac919061285f565b15611bca576040516313717da960e21b815260040160405180910390fd5b8260205b85518111611c2b57611be160028561285f565b5f03611c0257815f528086015160205260405f209150600284049350611c19565b808601515f528160205260405f2091506002840493505b611c24602082612872565b9050611bce565b50949350505050565b604080516080810182525f91810182815260608201929092529081905b8152602001606081525090565b828054828255905f5260205f20908101928215611c97579160200282015b82811115611c97578251825591602001919060010190611c7c565b50611ca3929150611dd5565b5090565b60405180608001604052805f81526020015f8152602001611c5160405180604001604052805f81526020015f81525090565b60405180608001604052805f8152602001611cf2611ca7565b815260200160608152602001611d1960405180604001604052805f81526020015f81525090565b905290565b60405180606001604052806003906020820280368337509192915050565b60405180608001604052806004906020820280368337509192915050565b6040518060400160405280611d6d611de9565b8152602001611d19611de9565b604051806101800160405280600c906020820280368337509192915050565b60405180602001604052806001906020820280368337509192915050565b6040518060c001604052806006906020820280368337509192915050565b5b80821115611ca3575f8155600101611dd6565b60405180604001604052806002906020820280368337509192915050565b634e487b7160e01b5f52604160045260245ffd5b604080519081016001600160401b0381118282101715611e3d57611e3d611e07565b60405290565b60405160a081016001600160401b0381118282101715611e3d57611e3d611e07565b604051606081016001600160401b0381118282101715611e3d57611e3d611e07565b604051608081016001600160401b0381118282101715611e3d57611e3d611e07565b604051601f8201601f191681016001600160401b0381118282101715611ed157611ed1611e07565b604052919050565b80356001600160a01b0381168114611a21575f5ffd5b803563ffffffff81168114611a21575f5ffd5b5f60408284031215611f12575f5ffd5b611f1a611e1b565b9050611f2582611ed9565b8152611f3360208301611eef565b602082015292915050565b5f60408284031215611f4e575f5ffd5b611f56611e1b565b823581526020928301359281019290925250919050565b5f82601f830112611f7c575f5ffd5b611f84611e1b565b806040840185811115611f95575f5ffd5b845b81811015611faf578035845260209384019301611f97565b509095945050505050565b5f60808284031215611fca575f5ffd5b611fd2611e1b565b9050611fde8383611f6d565b8152611f338360408401611f6d565b5f6001600160401b0382111561200557612005611e07565b5060051b60200190565b5f82601f83011261201e575f5ffd5b813561203161202c82611fed565b611ea9565b8082825260208201915060208360051b860101925085831115612052575f5ffd5b602085015b8381101561206f578035835260209283019201612057565b5095945050505050565b5f60608284031215612089575f5ffd5b612091611e1b565b905061209d8383611f3e565b815260408201356001600160401b038111156120b7575f5ffd5b6120c38482850161200f565b60208301525092915050565b5f61012082840312156120e0575f5ffd5b6120e8611e43565b90506120f382611eef565b81526020828101359082015261210c8360408401611f3e565b604082015261211e8360808401611fba565b60608201526101008201356001600160401b0381111561213c575f5ffd5b8201601f8101841361214c575f5ffd5b803561215a61202c82611fed565b8082825260208201915060208360051b85010192508683111561217b575f5ffd5b602084015b8381101561228b5780356001600160401b0381111561219d575f5ffd5b85016060818a03601f190112156121b2575f5ffd5b6121ba611e65565b6121c660208301611eef565b815260408201356001600160401b038111156121e0575f5ffd5b82016020810190603f018b136121f4575f5ffd5b80356001600160401b0381111561220d5761220d611e07565b612220601f8201601f1916602001611ea9565b8181528c6020838501011115612234575f5ffd5b816020840160208301375f6020838301015280602085015250505060608201356001600160401b03811115612267575f5ffd5b6122768b602083860101612079565b60408301525084525060209283019201612180565b5060808501525091949350505050565b5f5f5f608084860312156122ad575f5ffd5b6122b78585611f02565b925060408401356001600160401b038111156122d1575f5ffd5b6122dd868287016120cf565b92505060608401356001600160401b038111156122f8575f5ffd5b8401601f81018613612308575f5ffd5b803561231661202c82611fed565b8082825260208201915060208360051b850101925088831115612337575f5ffd5b6020840193505b8284101561236857833561ffff81168114612357575f5ffd5b82526020938401939091019061233e565b809450505050509250925092565b5f5f60608385031215612387575f5ffd5b6123918484611f02565b915060408301356001600160401b038111156123ab575f5ffd5b6123b7858286016120cf565b9150509250929050565b602080825282518282018190525f918401906040840190835b81811015611faf5783518352602093840193909201916001016123da565b5f5f5f5f610120858703121561240c575f5ffd5b8435935061241d8660208701611f3e565b925061242c8660608701611fba565b915061243b8660e08701611f3e565b905092959194509250565b5f5f60608385031215612457575f5ffd5b6124618484611f02565b915061246f60408401611eef565b90509250929050565b5f5f5f6080848603121561248a575f5ffd5b6124948585611f02565b92506124a260408501611eef565b929592945050506060919091013590565b5f8151808452602084019350602083015f5b828110156124e35781518652602095860195909101906001016124c5565b5093949350505050565b60208082528251805183830152015160408201525f602083015160608084015261251a60808401826124b3565b949350505050565b602081525f82518060208401528060208501604085015e5f604082850101526040601f19601f83011684010191505092915050565b5f60408284031215612567575f5ffd5b6104728383611f02565b5f60408284031215612581575f5ffd5b50919050565b5f5f5f5f60c0858703121561259a575f5ffd5b6125a48686612571565b93506125b260408601611eef565b925060608501356001600160401b038111156125cc575f5ffd5b850160a081880312156125dd575f5ffd5b6125e5611e87565b81358152602080830135908201526126008860408401611f3e565b604082015260808201356001600160401b0381111561261d575f5ffd5b6126298982850161200f565b606083015250925061243b90508660808701612571565b5f5f5f60808486031215612652575f5ffd5b61265c8585611f02565b925060408401356001600160401b03811115612676575f5ffd5b612682868287016120cf565b92505060608401356001600160401b0381111561269d575f5ffd5b6126a98682870161200f565b9150509250925092565b80518252602081015160208301525f60408201516126de604085018280518252602090810151910152565b50606082015160a0608085015261251a60a08501826124b3565b602081525f61047260208301846126b3565b634e487b7160e01b5f52603260045260245ffd5b634e487b7160e01b5f52601160045260245ffd5b80820281158282048414176104755761047561271e565b634e487b7160e01b5f52601260045260245ffd5b5f8261276b5761276b612749565b500490565b5f60208284031215612780575f5ffd5b61047282611ed9565b5f60208284031215612799575f5ffd5b61047282611eef565b6001600160a01b036127b385611ed9565b16815263ffffffff6127c760208601611eef565b16602082015263ffffffff83166040820152608060608201525f6111fa60808301846126b3565b80516020808301519190811015612581575f1960209190910360031b1b16919050565b63ffffffff81811683821601908111156104755761047561271e565b5f6020828403121561283d575f5ffd5b8151801515811461045f575f5ffd5b818103818111156104755761047561271e565b5f8261286d5761286d612749565b500690565b808201808211156104755761047561271e56fe30644e72e131a029b85045b68181585d97816a916871ca8d3c208c16d87cfd47a26469706673582212203d2215cbed0070c17d3a64ae4df403d618fea31e750250314ef2f308eb81174164736f6c634300081b0033",
    "linkReferences": {}
  },
  "methodIdentifiers": {
    "getNonsignerOperatorInfo((address,uint32),uint32,uint256)": "26af6a3c",
    "getOperatorCount((address,uint32),uint32)": "23c2a3cb",
    "getOperatorSetInfo((address,uint32),uint32)": "eb39e68f",
    "getOperatorSetOwner((address,uint32))": "84818920",
    "getTotalStakeWeights((address,uint32),uint32)": "7d1d1f5b",
    "isNonsignerCached((address,uint32),uint32,uint256)": "5be87274",
    "isReferenceTimestampSet((address,uint32),uint32)": "cd83a72b",
    "latestReferenceTimestamp((address,uint32))": "5ddb9b5b",
    "maxOperatorTableStaleness((address,uint32))": "6141879e",
    "operatorTableUpdater()": "68d6e081",
    "trySignatureVerification(bytes32,(uint256,uint256),(uint256[2],uint256[2]),(uint256,uint256))": "1a18746c",
    "updateOperatorTable((address,uint32),uint32,(bytes32,uint256,(uint256,uint256),uint256[]),(address,uint32))": "6738c40b",
    "verifyCertificate((address,uint32),(uint32,bytes32,(uint256,uint256),(uint256[2],uint256[2]),(uint32,bytes,((uint256,uint256),uint256[]))[]))": "080b7150",
    "verifyCertificateNominal((address,uint32),(uint32,bytes32,(uint256,uint256),(uint256[2],uint256[2]),(uint32,bytes,((uint256,uint256),uint256[]))[]),uint256[])": "dd2ae1b9",
    "verifyCertificateProportion((address,uint32),(uint32,bytes32,(uint256,uint256),(uint256[2],uint256[2]),(uint32,bytes,((uint256,uint256),uint256[]))[]),uint16[])": "017d7974",
    "version()": "54fd4d50"
  },
  "id": 150
}