{
  "abi": [
    {
      "type": "constructor",
      "inputs": [
        {
          "name": "_bn254CertificateVerifier",
          "type": "address",
          "internalType": "contract IBN254CertificateVerifier"
        },
        {
          "name": "_ecdsaCertificateVerifier",
          "type": "address",
          "internalType": "contract IECDSACertificateVerifier"
        },
        {
          "name": "_pauserRegistry",
          "type": "address",
          "internalType": "contract IPauserRegistry"
        },
        {
          "name": "_version",
          "type": "string",
          "internalType": "string"
        }
      ],
      "stateMutability": "nonpayable"
    },
    {
      "type": "function",
      "name": "GLOBAL_TABLE_ROOT_CERT_TYPEHASH",
      "inputs": [],
      "outputs": [
        {
          "name": "",
          "type": "bytes32",
          "internalType": "bytes32"
        }
      ],
      "stateMutability": "view"
    },
    {
      "type": "function",
      "name": "INITIAL_GLOBAL_TABLE_ROOT",
      "inputs": [],
      "outputs": [
        {
          "name": "",
          "type": "bytes32",
          "internalType": "bytes32"
        }
      ],
      "stateMutability": "view"
    },
    {
      "type": "function",
      "name": "MAX_BPS",
      "inputs": [],
      "outputs": [
        {
          "name": "",
          "type": "uint16",
          "internalType": "uint16"
        }
      ],
      "stateMutability": "view"
    },
    {
      "type": "function",
      "name": "bn254CertificateVerifier",
      "inputs": [],
      "outputs": [
        {
          "name": "",
          "type": "address",
          "internalType": "contract IBN254CertificateVerifier"
        }
      ],
      "stateMutability": "view"
    },
    {
      "type": "function",
      "name": "confirmGlobalTableRoot",
      "inputs": [
        {
          "name": "globalTableRootCert",
          "type": "tuple",
          "internalType": "struct IBN254CertificateVerifierTypes.BN254Certificate",
          "components": [
            {
              "name": "referenceTimestamp",
              "type": "uint32",
              "internalType": "uint32"
            },
            {
              "name": "messageHash",
              "type": "bytes32",
              "internalType": "bytes32"
            },
            {
              "name": "signature",
              "type": "tuple",
              "internalType": "struct BN254.G1Point",
              "components": [
                {
                  "name": "X",
                  "type": "uint256",
                  "internalType": "uint256"
                },
                {
                  "name": "Y",
                  "type": "uint256",
                  "internalType": "uint256"
                }
              ]
            },
            {
              "name": "apk",
              "type": "tuple",
              "internalType": "struct BN254.G2Point",
              "components": [
                {
                  "name": "X",
                  "type": "uint256[2]",
                  "internalType": "uint256[2]"
                },
                {
                  "name": "Y",
                  "type": "uint256[2]",
                  "internalType": "uint256[2]"
                }
              ]
            },
            {
              "name": "nonSignerWitnesses",
              "type": "tuple[]",
              "internalType": "struct IBN254CertificateVerifierTypes.BN254OperatorInfoWitness[]",
              "components": [
                {
                  "name": "operatorIndex",
                  "type": "uint32",
                  "internalType": "uint32"
                },
                {
                  "name": "operatorInfoProof",
                  "type": "bytes",
                  "internalType": "bytes"
                },
                {
                  "name": "operatorInfo",
                  "type": "tuple",
                  "internalType": "struct IOperatorTableCalculatorTypes.BN254OperatorInfo",
                  "components": [
                    {
                      "name": "pubkey",
                      "type": "tuple",
                      "internalType": "struct BN254.G1Point",
                      "components": [
                        {
                          "name": "X",
                          "type": "uint256",
                          "internalType": "uint256"
                        },
                        {
                          "name": "Y",
                          "type": "uint256",
                          "internalType": "uint256"
                        }
                      ]
                    },
                    {
                      "name": "weights",
                      "type": "uint256[]",
                      "internalType": "uint256[]"
                    }
                  ]
                }
              ]
            }
          ]
        },
        {
          "name": "globalTableRoot",
          "type": "bytes32",
          "internalType": "bytes32"
        },
        {
          "name": "referenceTimestamp",
          "type": "uint32",
          "internalType": "uint32"
        },
        {
          "name": "referenceBlockNumber",
          "type": "uint32",
          "internalType": "uint32"
        }
      ],
      "outputs": [],
      "stateMutability": "nonpayable"
    },
    {
      "type": "function",
      "name": "disableRoot",
      "inputs": [
        {
          "name": "globalTableRoot",
          "type": "bytes32",
          "internalType": "bytes32"
        }
      ],
      "outputs": [],
      "stateMutability": "nonpayable"
    },
    {
      "type": "function",
      "name": "ecdsaCertificateVerifier",
      "inputs": [],
      "outputs": [
        {
          "name": "",
          "type": "address",
          "internalType": "contract IECDSACertificateVerifier"
        }
      ],
      "stateMutability": "view"
    },
    {
      "type": "function",
      "name": "getCertificateVerifier",
      "inputs": [
        {
          "name": "curveType",
          "type": "uint8",
          "internalType": "enum IKeyRegistrarTypes.CurveType"
        }
      ],
      "outputs": [
        {
          "name": "",
          "type": "address",
          "internalType": "address"
        }
      ],
      "stateMutability": "view"
    },
    {
      "type": "function",
      "name": "getCurrentGlobalTableRoot",
      "inputs": [],
      "outputs": [
        {
          "name": "",
          "type": "bytes32",
          "internalType": "bytes32"
        }
      ],
      "stateMutability": "view"
    },
    {
      "type": "function",
      "name": "getGenerator",
      "inputs": [],
      "outputs": [
        {
          "name": "",
          "type": "tuple",
          "internalType": "struct OperatorSet",
          "components": [
            {
              "name": "avs",
              "type": "address",
              "internalType": "address"
            },
            {
              "name": "id",
              "type": "uint32",
              "internalType": "uint32"
            }
          ]
        }
      ],
      "stateMutability": "view"
    },
    {
      "type": "function",
      "name": "getGeneratorReferenceTimestamp",
      "inputs": [],
      "outputs": [
        {
          "name": "",
          "type": "uint32",
          "internalType": "uint32"
        }
      ],
      "stateMutability": "view"
    },
    {
      "type": "function",
      "name": "getGlobalTableRootByTimestamp",
      "inputs": [
        {
          "name": "referenceTimestamp",
          "type": "uint32",
          "internalType": "uint32"
        }
      ],
      "outputs": [
        {
          "name": "",
          "type": "bytes32",
          "internalType": "bytes32"
        }
      ],
      "stateMutability": "view"
    },
    {
      "type": "function",
      "name": "getGlobalTableUpdateMessageHash",
      "inputs": [
        {
          "name": "globalTableRoot",
          "type": "bytes32",
          "internalType": "bytes32"
        },
        {
          "name": "referenceTimestamp",
          "type": "uint32",
          "internalType": "uint32"
        },
        {
          "name": "referenceBlockNumber",
          "type": "uint32",
          "internalType": "uint32"
        }
      ],
      "outputs": [
        {
          "name": "",
          "type": "bytes32",
          "internalType": "bytes32"
        }
      ],
      "stateMutability": "pure"
    },
    {
      "type": "function",
      "name": "getLatestReferenceBlockNumber",
      "inputs": [],
      "outputs": [
        {
          "name": "",
          "type": "uint32",
          "internalType": "uint32"
        }
      ],
      "stateMutability": "view"
    },
    {
      "type": "function",
      "name": "getLatestReferenceTimestamp",
      "inputs": [],
      "outputs": [
        {
          "name": "",
          "type": "uint32",
          "internalType": "uint32"
        }
      ],
      "stateMutability": "view"
    },
    {
      "type": "function",
      "name": "getReferenceBlockNumberByTimestamp",
      "inputs": [
        {
          "name": "referenceTimestamp",
          "type": "uint32",
          "internalType": "uint32"
        }
      ],
      "outputs": [
        {
          "name": "",
          "type": "uint32",
          "internalType": "uint32"
        }
      ],
      "stateMutability": "view"
    },
    {
      "type": "function",
      "name": "getReferenceTimestampByBlockNumber",
      "inputs": [
        {
          "name": "referenceBlockNumber",
          "type": "uint32",
          "internalType": "uint32"
        }
      ],
      "outputs": [
        {
          "name": "",
          "type": "uint32",
          "internalType": "uint32"
        }
      ],
      "stateMutability": "view"
    },
    {
      "type": "function",
      "name": "globalRootConfirmationThreshold",
      "inputs": [],
      "outputs": [
        {
          "name": "",
          "type": "uint16",
          "internalType": "uint16"
        }
      ],
      "stateMutability": "view"
    },
    {
      "type": "function",
      "name": "initialize",
      "inputs": [
        {
          "name": "owner",
          "type": "address",
          "internalType": "address"
        },
        {
          "name": "initialPausedStatus",
          "type": "uint256",
          "internalType": "uint256"
        },
        {
          "name": "_generator",
          "type": "tuple",
          "internalType": "struct OperatorSet",
          "components": [
            {
              "name": "avs",
              "type": "address",
              "internalType": "address"
            },
            {
              "name": "id",
              "type": "uint32",
              "internalType": "uint32"
            }
          ]
        },
        {
          "name": "_globalRootConfirmationThreshold",
          "type": "uint16",
          "internalType": "uint16"
        },
        {
          "name": "referenceTimestamp",
          "type": "uint32",
          "internalType": "uint32"
        },
        {
          "name": "generatorInfo",
          "type": "tuple",
          "internalType": "struct IOperatorTableCalculatorTypes.BN254OperatorSetInfo",
          "components": [
            {
              "name": "operatorInfoTreeRoot",
              "type": "bytes32",
              "internalType": "bytes32"
            },
            {
              "name": "numOperators",
              "type": "uint256",
              "internalType": "uint256"
            },
            {
              "name": "aggregatePubkey",
              "type": "tuple",
              "internalType": "struct BN254.G1Point",
              "components": [
                {
                  "name": "X",
                  "type": "uint256",
                  "internalType": "uint256"
                },
                {
                  "name": "Y",
                  "type": "uint256",
                  "internalType": "uint256"
                }
              ]
            },
            {
              "name": "totalWeights",
              "type": "uint256[]",
              "internalType": "uint256[]"
            }
          ]
        },
        {
          "name": "generatorConfig",
          "type": "tuple",
          "internalType": "struct ICrossChainRegistryTypes.OperatorSetConfig",
          "components": [
            {
              "name": "owner",
              "type": "address",
              "internalType": "address"
            },
            {
              "name": "maxStalenessPeriod",
              "type": "uint32",
              "internalType": "uint32"
            }
          ]
        }
      ],
      "outputs": [],
      "stateMutability": "nonpayable"
    },
    {
      "type": "function",
      "name": "isRootValid",
      "inputs": [
        {
          "name": "globalTableRoot",
          "type": "bytes32",
          "internalType": "bytes32"
        }
      ],
      "outputs": [
        {
          "name": "",
          "type": "bool",
          "internalType": "bool"
        }
      ],
      "stateMutability": "view"
    },
    {
      "type": "function",
      "name": "isRootValidByTimestamp",
      "inputs": [
        {
          "name": "referenceTimestamp",
          "type": "uint32",
          "internalType": "uint32"
        }
      ],
      "outputs": [
        {
          "name": "",
          "type": "bool",
          "internalType": "bool"
        }
      ],
      "stateMutability": "view"
    },
    {
      "type": "function",
      "name": "owner",
      "inputs": [],
      "outputs": [
        {
          "name": "",
          "type": "address",
          "internalType": "address"
        }
      ],
      "stateMutability": "view"
    },
    {
      "type": "function",
      "name": "pause",
      "inputs": [
        {
          "name": "newPausedStatus",
          "type": "uint256",
          "internalType": "uint256"
        }
      ],
      "outputs": [],
      "stateMutability": "nonpayable"
    },
    {
      "type": "function",
      "name": "pauseAll",
      "inputs": [],
      "outputs": [],
      "stateMutability": "nonpayable"
    },
    {
      "type": "function",
      "name": "paused",
      "inputs": [
        {
          "name": "index",
          "type": "uint8",
          "internalType": "uint8"
        }
      ],
      "outputs": [
        {
          "name": "",
          "type": "bool",
          "internalType": "bool"
        }
      ],
      "stateMutability": "view"
    },
    {
      "type": "function",
      "name": "paused",
      "inputs": [],
      "outputs": [
        {
          "name": "",
          "type": "uint256",
          "internalType": "uint256"
        }
      ],
      "stateMutability": "view"
    },
    {
      "type": "function",
      "name": "pauserRegistry",
      "inputs": [],
      "outputs": [
        {
          "name": "",
          "type": "address",
          "internalType": "contract IPauserRegistry"
        }
      ],
      "stateMutability": "view"
    },
    {
      "type": "function",
      "name": "renounceOwnership",
      "inputs": [],
      "outputs": [],
      "stateMutability": "nonpayable"
    },
    {
      "type": "function",
      "name": "setGenerator",
      "inputs": [
        {
          "name": "operatorSet",
          "type": "tuple",
          "internalType": "struct OperatorSet",
          "components": [
            {
              "name": "avs",
              "type": "address",
              "internalType": "address"
            },
            {
              "name": "id",
              "type": "uint32",
              "internalType": "uint32"
            }
          ]
        }
      ],
      "outputs": [],
      "stateMutability": "nonpayable"
    },
    {
      "type": "function",
      "name": "setGlobalRootConfirmationThreshold",
      "inputs": [
        {
          "name": "bps",
          "type": "uint16",
          "internalType": "uint16"
        }
      ],
      "outputs": [],
      "stateMutability": "nonpayable"
    },
    {
      "type": "function",
      "name": "transferOwnership",
      "inputs": [
        {
          "name": "newOwner",
          "type": "address",
          "internalType": "address"
        }
      ],
      "outputs": [],
      "stateMutability": "nonpayable"
    },
    {
      "type": "function",
      "name": "unpause",
      "inputs": [
        {
          "name": "newPausedStatus",
          "type": "uint256",
          "internalType": "uint256"
        }
      ],
      "outputs": [],
      "stateMutability": "nonpayable"
    },
    {
      "type": "function",
      "name": "updateGenerator",
      "inputs": [
        {
          "name": "referenceTimestamp",
          "type": "uint32",
          "internalType": "uint32"
        },
        {
          "name": "generatorInfo",
          "type": "tuple",
          "internalType": "struct IOperatorTableCalculatorTypes.BN254OperatorSetInfo",
          "components": [
            {
              "name": "operatorInfoTreeRoot",
              "type": "bytes32",
              "internalType": "bytes32"
            },
            {
              "name": "numOperators",
              "type": "uint256",
              "internalType": "uint256"
            },
            {
              "name": "aggregatePubkey",
              "type": "tuple",
              "internalType": "struct BN254.G1Point",
              "components": [
                {
                  "name": "X",
                  "type": "uint256",
                  "internalType": "uint256"
                },
                {
                  "name": "Y",
                  "type": "uint256",
                  "internalType": "uint256"
                }
              ]
            },
            {
              "name": "totalWeights",
              "type": "uint256[]",
              "internalType": "uint256[]"
            }
          ]
        },
        {
          "name": "generatorConfig",
          "type": "tuple",
          "internalType": "struct ICrossChainRegistryTypes.OperatorSetConfig",
          "components": [
            {
              "name": "owner",
              "type": "address",
              "internalType": "address"
            },
            {
              "name": "maxStalenessPeriod",
              "type": "uint32",
              "internalType": "uint32"
            }
          ]
        }
      ],
      "outputs": [],
      "stateMutability": "nonpayable"
    },
    {
      "type": "function",
      "name": "updateOperatorTable",
      "inputs": [
        {
          "name": "referenceTimestamp",
          "type": "uint32",
          "internalType": "uint32"
        },
        {
          "name": "globalTableRoot",
          "type": "bytes32",
          "internalType": "bytes32"
        },
        {
          "name": "operatorSetIndex",
          "type": "uint32",
          "internalType": "uint32"
        },
        {
          "name": "proof",
          "type": "bytes",
          "internalType": "bytes"
        },
        {
          "name": "operatorTableBytes",
          "type": "bytes",
          "internalType": "bytes"
        }
      ],
      "outputs": [],
      "stateMutability": "nonpayable"
    },
    {
      "type": "function",
      "name": "version",
      "inputs": [],
      "outputs": [
        {
          "name": "",
          "type": "string",
          "internalType": "string"
        }
      ],
      "stateMutability": "view"
    },
    {
      "type": "event",
      "name": "GeneratorUpdated",
      "inputs": [
        {
          "name": "operatorSet",
          "type": "tuple",
          "indexed": false,
          "internalType": "struct OperatorSet",
          "components": [
            {
              "name": "avs",
              "type": "address",
              "internalType": "address"
            },
            {
              "name": "id",
              "type": "uint32",
              "internalType": "uint32"
            }
          ]
        }
      ],
      "anonymous": false
    },
    {
      "type": "event",
      "name": "GlobalRootConfirmationThresholdUpdated",
      "inputs": [
        {
          "name": "bps",
          "type": "uint16",
          "indexed": false,
          "internalType": "uint16"
        }
      ],
      "anonymous": false
    },
    {
      "type": "event",
      "name": "GlobalRootDisabled",
      "inputs": [
        {
          "name": "globalTableRoot",
          "type": "bytes32",
          "indexed": true,
          "internalType": "bytes32"
        }
      ],
      "anonymous": false
    },
    {
      "type": "event",
      "name": "Initialized",
      "inputs": [
        {
          "name": "version",
          "type": "uint8",
          "indexed": false,
          "internalType": "uint8"
        }
      ],
      "anonymous": false
    },
    {
      "type": "event",
      "name": "NewGlobalTableRoot",
      "inputs": [
        {
          "name": "referenceTimestamp",
          "type": "uint32",
          "indexed": true,
          "internalType": "uint32"
        },
        {
          "name": "globalTableRoot",
          "type": "bytes32",
          "indexed": true,
          "internalType": "bytes32"
        }
      ],
      "anonymous": false
    },
    {
      "type": "event",
      "name": "OwnershipTransferred",
      "inputs": [
        {
          "name": "previousOwner",
          "type": "address",
          "indexed": true,
          "internalType": "address"
        },
        {
          "name": "newOwner",
          "type": "address",
          "indexed": true,
          "internalType": "address"
        }
      ],
      "anonymous": false
    },
    {
      "type": "event",
      "name": "Paused",
      "inputs": [
        {
          "name": "account",
          "type": "address",
          "indexed": true,
          "internalType": "address"
        },
        {
          "name": "newPausedStatus",
          "type": "uint256",
          "indexed": false,
          "internalType": "uint256"
        }
      ],
      "anonymous": false
    },
    {
      "type": "event",
      "name": "Unpaused",
      "inputs": [
        {
          "name": "account",
          "type": "address",
          "indexed": true,
          "internalType": "address"
        },
        {
          "name": "newPausedStatus",
          "type": "uint256",
          "indexed": false,
          "internalType": "uint256"
        }
      ],
      "anonymous": false
    },
    {
      "type": "error",
      "name": "CertificateInvalid",
      "inputs": []
    },
    {
      "type": "error",
      "name": "CurrentlyPaused",
      "inputs": []
    },
    {
      "type": "error",
      "name": "GlobalTableRootInFuture",
      "inputs": []
    },
    {
      "type": "error",
      "name": "GlobalTableRootStale",
      "inputs": []
    },
    {
      "type": "error",
      "name": "InputAddressZero",
      "inputs": []
    },
    {
      "type": "error",
      "name": "InvalidConfirmationThreshold",
      "inputs": []
    },
    {
      "type": "error",
      "name": "InvalidCurveType",
      "inputs": []
    },
    {
      "type": "error",
      "name": "InvalidGlobalTableRoot",
      "inputs": []
    },
    {
      "type": "error",
      "name": "InvalidMessageHash",
      "inputs": []
    },
    {
      "type": "error",
      "name": "InvalidNewPausedStatus",
      "inputs": []
    },
    {
      "type": "error",
      "name": "InvalidOperatorSetProof",
      "inputs": []
    },
    {
      "type": "error",
      "name": "InvalidProofLength",
      "inputs": []
    },
    {
      "type": "error",
      "name": "InvalidRoot",
      "inputs": []
    },
    {
      "type": "error",
      "name": "InvalidShortString",
      "inputs": []
    },
    {
      "type": "error",
      "name": "InvalidSignatureLength",
      "inputs": []
    },
    {
      "type": "error",
      "name": "OnlyPauser",
      "inputs": []
    },
    {
      "type": "error",
      "name": "OnlyUnpauser",
      "inputs": []
    },
    {
      "type": "error",
      "name": "StringTooLong",
      "inputs": [
        {
          "name": "str",
          "type": "string",
          "internalType": "string"
        }
      ]
    },
    {
      "type": "error",
      "name": "TableUpdateForPastTimestamp",
      "inputs": []
    }
  ],
  "bytecode": {
    "object": "0x610100604052348015610010575f5ffd5b5060405161280438038061280483398101604081905261002f916101b9565b808484846001600160a01b03811661005a576040516339b190bb60e11b815260040160405180910390fd5b6001600160a01b0390811660805291821660a0521660c05261007b81610090565b60e052506100876100d6565b505050506102fe565b5f5f829050601f815111156100c3578260405163305a27a960e01b81526004016100ba91906102a3565b60405180910390fd5b80516100ce826102d8565b179392505050565b5f54610100900460ff161561013d5760405162461bcd60e51b815260206004820152602760248201527f496e697469616c697a61626c653a20636f6e747261637420697320696e697469604482015266616c697a696e6760c81b60648201526084016100ba565b5f5460ff9081161461018c575f805460ff191660ff9081179091556040519081527f7f26b83ff96e1f2b6a682f133852f6798a09c465da95921460cefb38474024989060200160405180910390a15b565b6001600160a01b03811681146101a2575f5ffd5b50565b634e487b7160e01b5f52604160045260245ffd5b5f5f5f5f608085870312156101cc575f5ffd5b84516101d78161018e565b60208601519094506101e88161018e565b60408601519093506101f98161018e565b60608601519092506001600160401b03811115610214575f5ffd5b8501601f81018713610224575f5ffd5b80516001600160401b0381111561023d5761023d6101a5565b604051601f8201601f19908116603f011681016001600160401b038111828210171561026b5761026b6101a5565b604052818152828201602001891015610282575f5ffd5b8160208401602083015e5f6020838301015280935050505092959194509250565b602081525f82518060208401528060208501604085015e5f604082850101526040601f19601f83011684010191505092915050565b805160208083015191908110156102f8575f198160200360031b1b821691505b50919050565b60805160a05160c05160e0516124946103705f395f61065801525f81816104e6015281816106f201526109b801525f818161050d015281816106b20152818161075e0152818161091301528181610c0a015261142201525f818161049b0152818161105c015261149201526124945ff3fe608060405234801561000f575f5ffd5b5060043610610208575f3560e01c8063715018a61161011f578063c3621f0a116100a9578063eaaed9d511610079578063eaaed9d5146105ae578063ed90dc60146105c1578063f2fde38b146105d4578063fabc1cbc146105e7578063fd967f47146105fa575f5ffd5b8063c3621f0a14610550578063c3be1e3314610563578063c5916a3914610576578063e944e0a81461059b575f5ffd5b80638da5cb5b116100ef5780638da5cb5b146104bd5780639ea94778146104ce578063ad0f9582146104e1578063b8c1430614610508578063c252aa221461052f575f5ffd5b8063715018a6146104735780637551ba341461047b57806377d90e9414610483578063886f119514610496575f5ffd5b80633ef6cd7a116101a0578063595c6a6711610170578063595c6a67146103e05780635ac86ab7146103e85780635c975abb1461040b57806364e1df84146104135780636f728c5014610448575f5ffd5b80633ef6cd7a146103695780634624e6a3146103905780634af81d7a146103a457806354fd4d50146103cb575f5ffd5b806323b7b5b2116101db57806323b7b5b2146102be57806328522d79146102e657806330ef41b41461031257806331a599d214610344575f5ffd5b8063136439dd1461020c578063193b79f3146102215780631e2ca260146102635780632370356c146102ab575b5f5ffd5b61021f61021a366004611655565b610603565b005b61024961022f36600461167d565b63ffffffff9081165f908152609b60205260409020541690565b60405163ffffffff90911681526020015b60405180910390f35b6040805180820182525f80825260209182015281518083019092526098546001600160a01b0381168352600160a01b900463ffffffff169082015260405161025a91906116bd565b61021f6102b93660046116dc565b61063d565b6102496102cc36600461167d565b63ffffffff9081165f908152609a60205260409020541690565b60975462010000900463ffffffff165f908152609960205260409020545b60405190815260200161025a565b610334610320366004611655565b5f908152609c602052604090205460ff1690565b604051901515815260200161025a565b60975462010000900463ffffffff9081165f908152609a602052604090205416610249565b6103047f4491f5ee91595f938885ef73c9a1fa8a6d14ff9b9dab4aa24b8802bbb9bfc1cc81565b60975462010000900463ffffffff16610249565b6103047f2eddfa6e51c2e0ba986436883fbc224e895ba21e8fc61421f6b10d11e25d008e81565b6103d3610651565b60405161025a91906116f5565b61021f610681565b6103346103f636600461172a565b606654600160ff9092169190911b9081161490565b606654610304565b61033461042136600461167d565b63ffffffff165f908152609960209081526040808320548352609c90915290205460ff1690565b61045b610456366004611758565b610695565b6040516001600160a01b03909116815260200161025a565b61021f610734565b610249610745565b61021f610491366004611787565b6107d3565b61045b7f000000000000000000000000000000000000000000000000000000000000000081565b6033546001600160a01b031661045b565b61021f6104dc3660046117e5565b6107e4565b61045b7f000000000000000000000000000000000000000000000000000000000000000081565b61045b7f000000000000000000000000000000000000000000000000000000000000000081565b60975461053d9061ffff1681565b60405161ffff909116815260200161025a565b61021f61055e366004611655565b610a1e565b610304610571366004611880565b610a93565b61030461058436600461167d565b63ffffffff165f9081526099602052604090205490565b61021f6105a93660046118cf565b610afb565b61021f6105bc36600461192b565b610b13565b61021f6105cf3660046119ab565b610d50565b61021f6105e2366004611a45565b610f64565b61021f6105f5366004611655565b610fda565b61053d61271081565b61060b611047565b60665481811681146106305760405163c61dca5d60e01b815260040160405180910390fd5b610639826110ea565b5050565b610645611127565b61064e81611181565b50565b606061067c7f00000000000000000000000000000000000000000000000000000000000000006111f3565b905090565b610689611047565b6106935f196110ea565b565b5f60028260028111156106aa576106aa611a60565b036106d657507f0000000000000000000000000000000000000000000000000000000000000000919050565b60018260028111156106ea576106ea611a60565b0361071657507f0000000000000000000000000000000000000000000000000000000000000000919050565b60405163fdea7c0960e01b815260040160405180910390fd5b919050565b61073c611127565b6106935f611230565b604051635ddb9b5b60e01b81525f906001600160a01b037f00000000000000000000000000000000000000000000000000000000000000001690635ddb9b5b9061079490609890600401611a74565b602060405180830381865afa1580156107af573d5f5f3e3d5ffd5b505050506040513d601f19601f8201168201806040525081019061067c9190611a9b565b6107db611127565b61064e81611281565b60016107ef816112c0565b5f5f5f5f6107fd87876112eb565b5f8f8152609c60205260409020549397509195509350915060ff166108355760405163504570e360e01b815260040160405180910390fd5b61083e83610695565b6001600160a01b0316635ddb9b5b856040518263ffffffff1660e01b815260040161086991906116bd565b602060405180830381865afa158015610884573d5f5f3e3d5ffd5b505050506040513d601f19601f820116820180604052508101906108a89190611a9b565b63ffffffff168c63ffffffff16116108d35760405163207617df60e01b815260040160405180910390fd5b6108f88c8c8c8c8c8c8c6040516108eb929190611ab6565b6040518091039020611332565b600283600281111561090c5761090c611a60565b0361099d577f00000000000000000000000000000000000000000000000000000000000000006001600160a01b0316636738c40b858e61094b856113d3565b866040518563ffffffff1660e01b815260040161096b9493929190611aff565b5f604051808303815f87803b158015610982575f5ffd5b505af1158015610994573d5f5f3e3d5ffd5b50505050610a10565b60018360028111156109b1576109b1611a60565b03610716577f00000000000000000000000000000000000000000000000000000000000000006001600160a01b03166356d482f5858e6109f0856113f5565b866040518563ffffffff1660e01b815260040161096b9493929190611b7b565b505050505050505050505050565b610a26611047565b5f818152609c602052604090205460ff16610a545760405163504570e360e01b815260040160405180910390fd5b5f818152609c6020526040808220805460ff191690555182917f8bd43de1250f58fe6ec9a78671a8b78dba70f0018656d157a3aeaabec389df3491a250565b604080517f4491f5ee91595f938885ef73c9a1fa8a6d14ff9b9dab4aa24b8802bbb9bfc1cc602082015290810184905263ffffffff8084166060830152821660808201525f9060a0016040516020818303038152906040528051906020012090509392505050565b610b03611127565b610b0e83838361140b565b505050565b5f610b1d816112c0565b428363ffffffff161115610b4457604051635a119db560e11b815260040160405180910390fd5b60975463ffffffff62010000909104811690841611610b765760405163037fa86b60e31b815260040160405180910390fd5b610b81848484610a93565b856020013514610ba457604051638b56642d60e01b815260040160405180910390fd5b6040805160018082528183019092525f91602080830190803683375050609754825192935061ffff16918391505f90610bdf57610bdf611c34565b61ffff90921660209283029190910190910152604051625f5e5d60e21b81525f906001600160a01b037f0000000000000000000000000000000000000000000000000000000000000000169063017d797490610c44906098908b908790600401611d66565b6020604051808303815f875af1158015610c60573d5f5f3e3d5ffd5b505050506040513d601f19601f82011682018060405250810190610c849190611ef3565b905080610ca457604051633042041f60e21b815260040160405180910390fd5b6097805463ffffffff80881662010000810265ffffffff000019909316929092179092555f818152609a602090815260408083208054958a1663ffffffff1996871681179091558352609b825280832080549095168417909455828252609981528382208a9055898252609c9052828120805460ff19166001179055915188927f010dcbe0d1e019c93357711f7bb6287d543b7ff7de74f29df3fb5ecceec8d36991a350505050505050565b5f54610100900460ff1615808015610d6e57505f54600160ff909116105b80610d875750303b158015610d8757505f5460ff166001145b610def5760405162461bcd60e51b815260206004820152602e60248201527f496e697469616c697a61626c653a20636f6e747261637420697320616c72656160448201526d191e481a5b9a5d1a585b1a5e995960921b60648201526084015b60405180910390fd5b5f805460ff191660011790558015610e10575f805461ff0019166101001790555b610e1988611230565b610e22876110ea565b610e2b86611281565b610e3485611181565b610e3f84848461140b565b63ffffffff8481165f8181526099602090815260408083207f2eddfa6e51c2e0ba986436883fbc224e895ba21e8fc61421f6b10d11e25d008e908190557fd6e1a24cb7e68b47373042d0900dfd69bffcfc2c807e706164b25b408655b71f805460ff19166001179055609a835281842080544390971663ffffffff1997881681179091558452609b909252808320805490951684179094556097805462010000850265ffffffff00001990911617905592517f010dcbe0d1e019c93357711f7bb6287d543b7ff7de74f29df3fb5ecceec8d3699190a38015610f5a575f805461ff0019169055604051600181527f7f26b83ff96e1f2b6a682f133852f6798a09c465da95921460cefb38474024989060200160405180910390a15b5050505050505050565b610f6c611127565b6001600160a01b038116610fd15760405162461bcd60e51b815260206004820152602660248201527f4f776e61626c653a206e6577206f776e657220697320746865207a65726f206160448201526564647265737360d01b6064820152608401610de6565b61064e81611230565b610fe2611490565b606654801982198116146110095760405163c61dca5d60e01b815260040160405180910390fd5b606682905560405182815233907f3582d1828e26bf56bd801502bc021ac0bc8afb57c826e4986b45593c8fad389c9060200160405180910390a25050565b60405163237dfb4760e11b81523360048201527f00000000000000000000000000000000000000000000000000000000000000006001600160a01b0316906346fbf68e90602401602060405180830381865afa1580156110a9573d5f5f3e3d5ffd5b505050506040513d601f19601f820116820180604052508101906110cd9190611ef3565b61069357604051631d77d47760e21b815260040160405180910390fd5b606681905560405181815233907fab40a374bc51de372200a8bc981af8c9ecdc08dfdaef0bb6e09f88f3c616ef3d9060200160405180910390a250565b6033546001600160a01b031633146106935760405162461bcd60e51b815260206004820181905260248201527f4f776e61626c653a2063616c6c6572206973206e6f7420746865206f776e65726044820152606401610de6565b61271061ffff821611156111a8576040516307336f0360e11b815260040160405180910390fd5b6097805461ffff191661ffff83169081179091556040519081527ff5d1836df8fcd7c1e54047e94ac8773d2855395603e2ef9ba5f5f16905f22592906020015b60405180910390a150565b60605f6111ff83611541565b6040805160208082528183019092529192505f91906020820181803683375050509182525060208101929092525090565b603380546001600160a01b038381166001600160a01b0319831681179093556040519116919082907f8be0079c531659141344cd1fd0a4f28419497f9722a3daafe3b4186f6b6457e0905f90a35050565b80609861128e8282611f12565b9050507f3463431b09dfd43dec7349f8f24acfa753fe4cf40a26235402d213373df15856816040516111e89190611fa3565b606654600160ff83161b9081160361064e5760405163840a48d560e01b815260040160405180910390fd5b604080518082019091525f8082526020820152604080518082019091525f808252602082018190529060606113228587018761206b565b9299919850965090945092505050565b63ffffffff86165f9081526099602052604090205485146113665760405163639d09b560e11b815260040160405180910390fd5b6113ae83838080601f0160208091040260200160405190810160405280939291908181526020018383808284375f920191909152508992508591505063ffffffff8816611568565b6113cb5760405163afa42ca760e01b815260040160405180910390fd5b505050505050565b6113db611616565b818060200190518101906113ef91906121bc565b92915050565b6060818060200190518101906113ef919061226b565b604051636738c40b60e01b81526001600160a01b037f00000000000000000000000000000000000000000000000000000000000000001690636738c40b9061145e9060989087908790879060040161236c565b5f604051808303815f87803b158015611475575f5ffd5b505af1158015611487573d5f5f3e3d5ffd5b50505050505050565b7f00000000000000000000000000000000000000000000000000000000000000006001600160a01b031663eab66d7a6040518163ffffffff1660e01b8152600401602060405180830381865afa1580156114ec573d5f5f3e3d5ffd5b505050506040513d601f19601f820116820180604052508101906115109190612405565b6001600160a01b0316336001600160a01b0316146106935760405163794821ff60e01b815260040160405180910390fd5b5f60ff8216601f8111156113ef57604051632cd44ac360e21b815260040160405180910390fd5b5f8361157586858561157f565b1495945050505050565b5f6020845161158e9190612420565b156115ac576040516313717da960e21b815260040160405180910390fd5b8260205b8551811161160d576115c3600285612420565b5f036115e457815f528086015160205260405f2091506002840493506115fb565b808601515f528160205260405f2091506002840493505b61160660208261243f565b90506115b0565b50949350505050565b60405180608001604052805f81526020015f815260200161164860405180604001604052805f81526020015f81525090565b8152602001606081525090565b5f60208284031215611665575f5ffd5b5035919050565b63ffffffff8116811461064e575f5ffd5b5f6020828403121561168d575f5ffd5b81356116988161166c565b9392505050565b80516001600160a01b0316825260209081015163ffffffff16910152565b604081016113ef828461169f565b803561ffff8116811461072f575f5ffd5b5f602082840312156116ec575f5ffd5b611698826116cb565b602081525f82518060208401528060208501604085015e5f604082850101526040601f19601f83011684010191505092915050565b5f6020828403121561173a575f5ffd5b813560ff81168114611698575f5ffd5b80356003811061072f575f5ffd5b5f60208284031215611768575f5ffd5b6116988261174a565b5f60408284031215611781575f5ffd5b50919050565b5f60408284031215611797575f5ffd5b6116988383611771565b5f5f83601f8401126117b1575f5ffd5b5081356001600160401b038111156117c7575f5ffd5b6020830191508360208285010111156117de575f5ffd5b9250929050565b5f5f5f5f5f5f5f60a0888a0312156117fb575f5ffd5b87356118068161166c565b965060208801359550604088013561181d8161166c565b945060608801356001600160401b03811115611837575f5ffd5b6118438a828b016117a1565b90955093505060808801356001600160401b03811115611861575f5ffd5b61186d8a828b016117a1565b989b979a50959850939692959293505050565b5f5f5f60608486031215611892575f5ffd5b8335925060208401356118a48161166c565b915060408401356118b48161166c565b809150509250925092565b5f60a08284031215611781575f5ffd5b5f5f5f608084860312156118e1575f5ffd5b83356118ec8161166c565b925060208401356001600160401b03811115611906575f5ffd5b611912868287016118bf565b9250506119228560408601611771565b90509250925092565b5f5f5f5f6080858703121561193e575f5ffd5b84356001600160401b03811115611953575f5ffd5b85016101208188031215611965575f5ffd5b935060208501359250604085013561197c8161166c565b9150606085013561198c8161166c565b939692955090935050565b6001600160a01b038116811461064e575f5ffd5b5f5f5f5f5f5f5f610120888a0312156119c2575f5ffd5b87356119cd81611997565b9650602088013595506119e38960408a01611771565b94506119f1608089016116cb565b935060a0880135611a018161166c565b925060c08801356001600160401b03811115611a1b575f5ffd5b611a278a828b016118bf565b925050611a378960e08a01611771565b905092959891949750929550565b5f60208284031215611a55575f5ffd5b813561169881611997565b634e487b7160e01b5f52602160045260245ffd5b604081016113ef8284546001600160a01b038116825260a01c63ffffffff16602090910152565b5f60208284031215611aab575f5ffd5b81516116988161166c565b818382375f9101908152919050565b5f8151808452602084019350602083015f5b82811015611af5578151865260209586019590910190600101611ad7565b5093949350505050565b611b09818661169f565b63ffffffff8416604082015260c06060820152825160c0820152602083015160e08201525f60408401518051610100840152602081015161012084015250606084015160a0610140840152611b62610160840182611ac5565b915050611b72608083018461169f565b95945050505050565b5f60c08201611b8a838861169f565b63ffffffff8616604084015260c0606084015280855180835260e08501915060e08160051b8601019250602087015f5b82811015611c0b5786850360df19018452815180516001600160a01b03168652602090810151604091870182905290611bf590870182611ac5565b9550506020938401939190910190600101611bba565b5050505080915050611b72608083018461169f565b634e487b7160e01b5f52604160045260245ffd5b634e487b7160e01b5f52603260045260245ffd5b5f5f8335601e19843603018112611c5d575f5ffd5b83016020810192503590506001600160401b03811115611c7b575f5ffd5b8060051b36038213156117de575f5ffd5b81835281816020850137505f828201602090810191909152601f909101601f19169091010190565b5f8235605e19833603018112611cc8575f5ffd5b90910192915050565b8183525f6001600160fb1b03831115611ce8575f5ffd5b8260051b80836020870137939093016020019392505050565b80358252602080820135908301525f611d1d6040830183611c48565b60606040860152611b72606086018284611cd1565b5f8151808452602084019350602083015f5b82811015611af557815161ffff16865260209586019590910190600101611d44565b611d898185546001600160a01b038116825260a01c63ffffffff16602090910152565b608060408201525f6101a082018435611da18161166c565b63ffffffff166080840152602085013560a0840152604085013560c0840152606085013560e0840152604060808601610100850137604060c08601610140850137611df0610100860186611c48565b610120610180860152828184526101c0860190506101c08260051b8701019350825f5b83811015611ed2578786036101bf19018352611e2f8286611cb4565b8035611e3a8161166c565b63ffffffff168752602081013536829003601e19018112611e59575f5ffd5b81016020810190356001600160401b03811115611e74575f5ffd5b803603821315611e82575f5ffd5b606060208a0152611e9760608a018284611c8c565b915050611ea76040830183611cb4565b91508781036040890152611ebb8183611d01565b975050506020928301929190910190600101611e13565b50505050508281036060840152611ee98185611d32565b9695505050505050565b5f60208284031215611f03575f5ffd5b81518015158114611698575f5ffd5b8135611f1d81611997565b81546001600160a01b031981166001600160a01b039290921691821783556020840135611f498161166c565b6001600160c01b03199190911690911760a09190911b63ffffffff60a01b1617905550565b8035611f7981611997565b6001600160a01b031682526020810135611f928161166c565b63ffffffff81166020840152505050565b604081016113ef8284611f6e565b604080519081016001600160401b0381118282101715611fd357611fd3611c20565b60405290565b604051608081016001600160401b0381118282101715611fd357611fd3611c20565b604051601f8201601f191681016001600160401b038111828210171561202357612023611c20565b604052919050565b5f6040828403121561203b575f5ffd5b612043611fb1565b9050813561205081611997565b815260208201356120608161166c565b602082015292915050565b5f5f5f5f60c0858703121561207e575f5ffd5b612088868661202b565b93506120966040860161174a565b92506120a5866060870161202b565b915060a08501356001600160401b038111156120bf575f5ffd5b8501601f810187136120cf575f5ffd5b80356001600160401b038111156120e8576120e8611c20565b6120fb601f8201601f1916602001611ffb565b81815288602083850101111561210f575f5ffd5b816020840160208301375f6020838301015280935050505092959194509250565b5f6001600160401b0382111561214857612148611c20565b5060051b60200190565b5f82601f830112612161575f5ffd5b815161217461216f82612130565b611ffb565b8082825260208201915060208360051b860101925085831115612195575f5ffd5b602085015b838110156121b257805183526020928301920161219a565b5095945050505050565b5f602082840312156121cc575f5ffd5b81516001600160401b038111156121e1575f5ffd5b820180840360a08112156121f3575f5ffd5b6121fb611fd9565b82518152602080840151908201526040603f198301121561221a575f5ffd5b612222611fb1565b604084810151825260608501516020830152820152608083015191506001600160401b03821115612251575f5ffd5b61225d86838501612152565b606082015295945050505050565b5f6020828403121561227b575f5ffd5b81516001600160401b03811115612290575f5ffd5b8201601f810184136122a0575f5ffd5b80516122ae61216f82612130565b8082825260208201915060208360051b8501019250868311156122cf575f5ffd5b602084015b838110156123615780516001600160401b038111156122f1575f5ffd5b85016040818a03601f19011215612306575f5ffd5b61230e611fb1565b602082015161231c81611997565b815260408201516001600160401b03811115612336575f5ffd5b6123458b602083860101612152565b60208301525080855250506020830192506020810190506122d4565b509695505050505050565b61238f8186546001600160a01b038116825260a01c63ffffffff16602090910152565b63ffffffff841660408281019190915260c06060808401829052853591840191909152602085013560e0840152908401356101008301528301356101208201525f6123dd6080850185611c48565b60a06101408501526123f461016085018284611cd1565b92505050611b726080830184611f6e565b5f60208284031215612415575f5ffd5b815161169881611997565b5f8261243a57634e487b7160e01b5f52601260045260245ffd5b500690565b808201808211156113ef57634e487b7160e01b5f52601160045260245ffdfea26469706673582212201fe17c0ed71f9239aa45686929b837dd6e3ee278cc220260aa328faef8efbfee64736f6c634300081b0033",
    "linkReferences": {}
  },
  "methodIdentifiers": {
    "GLOBAL_TABLE_ROOT_CERT_TYPEHASH()": "3ef6cd7a",
    "INITIAL_GLOBAL_TABLE_ROOT()": "4af81d7a",
    "MAX_BPS()": "fd967f47",
    "bn254CertificateVerifier()": "b8c14306",
    "confirmGlobalTableRoot((uint32,bytes32,(uint256,uint256),(uint256[2],uint256[2]),(uint32,bytes,((uint256,uint256),uint256[]))[]),bytes32,uint32,uint32)": "eaaed9d5",
    "disableRoot(bytes32)": "c3621f0a",
    "ecdsaCertificateVerifier()": "ad0f9582",
    "getCertificateVerifier(uint8)": "6f728c50",
    "getCurrentGlobalTableRoot()": "28522d79",
    "getGenerator()": "1e2ca260",
    "getGeneratorReferenceTimestamp()": "7551ba34",
    "getGlobalTableRootByTimestamp(uint32)": "c5916a39",
    "getGlobalTableUpdateMessageHash(bytes32,uint32,uint32)": "c3be1e33",
    "getLatestReferenceBlockNumber()": "31a599d2",
    "getLatestReferenceTimestamp()": "4624e6a3",
    "getReferenceBlockNumberByTimestamp(uint32)": "23b7b5b2",
    "getReferenceTimestampByBlockNumber(uint32)": "193b79f3",
    "globalRootConfirmationThreshold()": "c252aa22",
    "initialize(address,uint256,(address,uint32),uint16,uint32,(bytes32,uint256,(uint256,uint256),uint256[]),(address,uint32))": "ed90dc60",
    "isRootValid(bytes32)": "30ef41b4",
    "isRootValidByTimestamp(uint32)": "64e1df84",
    "owner()": "8da5cb5b",
    "pause(uint256)": "136439dd",
    "pauseAll()": "595c6a67",
    "paused()": "5c975abb",
    "paused(uint8)": "5ac86ab7",
    "pauserRegistry()": "886f1195",
    "renounceOwnership()": "715018a6",
    "setGenerator((address,uint32))": "77d90e94",
    "setGlobalRootConfirmationThreshold(uint16)": "2370356c",
    "transferOwnership(address)": "f2fde38b",
    "unpause(uint256)": "fabc1cbc",
    "updateGenerator(uint32,(bytes32,uint256,(uint256,uint256),uint256[]),(address,uint32))": "e944e0a8",
    "updateOperatorTable(uint32,bytes32,uint32,bytes,bytes)": "9ea94778",
    "version()": "54fd4d50"
  },
  "id": 181
}