{
  "abi": [
    {
      "type": "constructor",
      "inputs": [
        {
          "name": "eigen",
          "type": "address",
          "internalType": "contract IEigen"
        },
        {
          "name": "backingEigen",
          "type": "address",
          "internalType": "contract IBackingEigen"
        },
        {
          "name": "allocationManager",
          "type": "address",
          "internalType": "contract IAllocationManager"
        },
        {
          "name": "rewardsCoordinator",
          "type": "address",
          "internalType": "contract IRewardsCoordinator"
        },
        {
          "name": "pauserRegistry",
          "type": "address",
          "internalType": "contract IPauserRegistry"
        },
        {
          "name": "inflationRate",
          "type": "uint256",
          "internalType": "uint256"
        },
        {
          "name": "startTime",
          "type": "uint256",
          "internalType": "uint256"
        },
        {
          "name": "cooldownSeconds",
          "type": "uint256",
          "internalType": "uint256"
        }
      ],
      "stateMutability": "nonpayable"
    },
    {
      "type": "function",
      "name": "ALLOCATION_MANAGER",
      "inputs": [],
      "outputs": [
        {
          "name": "",
          "type": "address",
          "internalType": "contract IAllocationManager"
        }
      ],
      "stateMutability": "view"
    },
    {
      "type": "function",
      "name": "BACKING_EIGEN",
      "inputs": [],
      "outputs": [
        {
          "name": "",
          "type": "address",
          "internalType": "contract IBackingEigen"
        }
      ],
      "stateMutability": "view"
    },
    {
      "type": "function",
      "name": "EIGEN",
      "inputs": [],
      "outputs": [
        {
          "name": "",
          "type": "address",
          "internalType": "contract IEigen"
        }
      ],
      "stateMutability": "view"
    },
    {
      "type": "function",
      "name": "EMISSIONS_EPOCH_LENGTH",
      "inputs": [],
      "outputs": [
        {
          "name": "",
          "type": "uint256",
          "internalType": "uint256"
        }
      ],
      "stateMutability": "view"
    },
    {
      "type": "function",
      "name": "EMISSIONS_INFLATION_RATE",
      "inputs": [],
      "outputs": [
        {
          "name": "",
          "type": "uint256",
          "internalType": "uint256"
        }
      ],
      "stateMutability": "view"
    },
    {
      "type": "function",
      "name": "EMISSIONS_START_TIME",
      "inputs": [],
      "outputs": [
        {
          "name": "",
          "type": "uint256",
          "internalType": "uint256"
        }
      ],
      "stateMutability": "view"
    },
    {
      "type": "function",
      "name": "MAX_TOTAL_WEIGHT",
      "inputs": [],
      "outputs": [
        {
          "name": "",
          "type": "uint256",
          "internalType": "uint256"
        }
      ],
      "stateMutability": "view"
    },
    {
      "type": "function",
      "name": "REWARDS_COORDINATOR",
      "inputs": [],
      "outputs": [
        {
          "name": "",
          "type": "address",
          "internalType": "contract IRewardsCoordinator"
        }
      ],
      "stateMutability": "view"
    },
    {
      "type": "function",
      "name": "addDistribution",
      "inputs": [
        {
          "name": "distribution",
          "type": "tuple",
          "internalType": "struct IEmissionsControllerTypes.Distribution",
          "components": [
            {
              "name": "weight",
              "type": "uint64",
              "internalType": "uint64"
            },
            {
              "name": "startEpoch",
              "type": "uint64",
              "internalType": "uint64"
            },
            {
              "name": "totalEpochs",
              "type": "uint64",
              "internalType": "uint64"
            },
            {
              "name": "distributionType",
              "type": "uint8",
              "internalType": "enum IEmissionsControllerTypes.DistributionType"
            },
            {
              "name": "operatorSet",
              "type": "tuple",
              "internalType": "struct OperatorSet",
              "components": [
                {
                  "name": "avs",
                  "type": "address",
                  "internalType": "address"
                },
                {
                  "name": "id",
                  "type": "uint32",
                  "internalType": "uint32"
                }
              ]
            },
            {
              "name": "strategiesAndMultipliers",
              "type": "tuple[][]",
              "internalType": "struct IRewardsCoordinatorTypes.StrategyAndMultiplier[][]",
              "components": [
                {
                  "name": "strategy",
                  "type": "address",
                  "internalType": "contract IStrategy"
                },
                {
                  "name": "multiplier",
                  "type": "uint96",
                  "internalType": "uint96"
                }
              ]
            }
          ]
        }
      ],
      "outputs": [
        {
          "name": "distributionId",
          "type": "uint256",
          "internalType": "uint256"
        }
      ],
      "stateMutability": "nonpayable"
    },
    {
      "type": "function",
      "name": "getCurrentEpoch",
      "inputs": [],
      "outputs": [
        {
          "name": "",
          "type": "uint256",
          "internalType": "uint256"
        }
      ],
      "stateMutability": "view"
    },
    {
      "type": "function",
      "name": "getDistribution",
      "inputs": [
        {
          "name": "distributionId",
          "type": "uint256",
          "internalType": "uint256"
        }
      ],
      "outputs": [
        {
          "name": "",
          "type": "tuple",
          "internalType": "struct IEmissionsControllerTypes.Distribution",
          "components": [
            {
              "name": "weight",
              "type": "uint64",
              "internalType": "uint64"
            },
            {
              "name": "startEpoch",
              "type": "uint64",
              "internalType": "uint64"
            },
            {
              "name": "totalEpochs",
              "type": "uint64",
              "internalType": "uint64"
            },
            {
              "name": "distributionType",
              "type": "uint8",
              "internalType": "enum IEmissionsControllerTypes.DistributionType"
            },
            {
              "name": "operatorSet",
              "type": "tuple",
              "internalType": "struct OperatorSet",
              "components": [
                {
                  "name": "avs",
                  "type": "address",
                  "internalType": "address"
                },
                {
                  "name": "id",
                  "type": "uint32",
                  "internalType": "uint32"
                }
              ]
            },
            {
              "name": "strategiesAndMultipliers",
              "type": "tuple[][]",
              "internalType": "struct IRewardsCoordinatorTypes.StrategyAndMultiplier[][]",
              "components": [
                {
                  "name": "strategy",
                  "type": "address",
                  "internalType": "contract IStrategy"
                },
                {
                  "name": "multiplier",
                  "type": "uint96",
                  "internalType": "uint96"
                }
              ]
            }
          ]
        }
      ],
      "stateMutability": "view"
    },
    {
      "type": "function",
      "name": "getDistributions",
      "inputs": [
        {
          "name": "start",
          "type": "uint256",
          "internalType": "uint256"
        },
        {
          "name": "length",
          "type": "uint256",
          "internalType": "uint256"
        }
      ],
      "outputs": [
        {
          "name": "distributions",
          "type": "tuple[]",
          "internalType": "struct IEmissionsControllerTypes.Distribution[]",
          "components": [
            {
              "name": "weight",
              "type": "uint64",
              "internalType": "uint64"
            },
            {
              "name": "startEpoch",
              "type": "uint64",
              "internalType": "uint64"
            },
            {
              "name": "totalEpochs",
              "type": "uint64",
              "internalType": "uint64"
            },
            {
              "name": "distributionType",
              "type": "uint8",
              "internalType": "enum IEmissionsControllerTypes.DistributionType"
            },
            {
              "name": "operatorSet",
              "type": "tuple",
              "internalType": "struct OperatorSet",
              "components": [
                {
                  "name": "avs",
                  "type": "address",
                  "internalType": "address"
                },
                {
                  "name": "id",
                  "type": "uint32",
                  "internalType": "uint32"
                }
              ]
            },
            {
              "name": "strategiesAndMultipliers",
              "type": "tuple[][]",
              "internalType": "struct IRewardsCoordinatorTypes.StrategyAndMultiplier[][]",
              "components": [
                {
                  "name": "strategy",
                  "type": "address",
                  "internalType": "contract IStrategy"
                },
                {
                  "name": "multiplier",
                  "type": "uint96",
                  "internalType": "uint96"
                }
              ]
            }
          ]
        }
      ],
      "stateMutability": "view"
    },
    {
      "type": "function",
      "name": "getTotalDistributions",
      "inputs": [],
      "outputs": [
        {
          "name": "",
          "type": "uint256",
          "internalType": "uint256"
        }
      ],
      "stateMutability": "view"
    },
    {
      "type": "function",
      "name": "incentiveCouncil",
      "inputs": [],
      "outputs": [
        {
          "name": "",
          "type": "address",
          "internalType": "address"
        }
      ],
      "stateMutability": "view"
    },
    {
      "type": "function",
      "name": "initialize",
      "inputs": [
        {
          "name": "initialOwner",
          "type": "address",
          "internalType": "address"
        },
        {
          "name": "initialIncentiveCouncil",
          "type": "address",
          "internalType": "address"
        },
        {
          "name": "initialPausedStatus",
          "type": "uint256",
          "internalType": "uint256"
        }
      ],
      "outputs": [],
      "stateMutability": "nonpayable"
    },
    {
      "type": "function",
      "name": "isButtonPressable",
      "inputs": [],
      "outputs": [
        {
          "name": "",
          "type": "bool",
          "internalType": "bool"
        }
      ],
      "stateMutability": "view"
    },
    {
      "type": "function",
      "name": "lastTimeButtonPressable",
      "inputs": [],
      "outputs": [
        {
          "name": "",
          "type": "uint256",
          "internalType": "uint256"
        }
      ],
      "stateMutability": "view"
    },
    {
      "type": "function",
      "name": "nextTimeButtonPressable",
      "inputs": [],
      "outputs": [
        {
          "name": "",
          "type": "uint256",
          "internalType": "uint256"
        }
      ],
      "stateMutability": "view"
    },
    {
      "type": "function",
      "name": "owner",
      "inputs": [],
      "outputs": [
        {
          "name": "",
          "type": "address",
          "internalType": "address"
        }
      ],
      "stateMutability": "view"
    },
    {
      "type": "function",
      "name": "pause",
      "inputs": [
        {
          "name": "newPausedStatus",
          "type": "uint256",
          "internalType": "uint256"
        }
      ],
      "outputs": [],
      "stateMutability": "nonpayable"
    },
    {
      "type": "function",
      "name": "pauseAll",
      "inputs": [],
      "outputs": [],
      "stateMutability": "nonpayable"
    },
    {
      "type": "function",
      "name": "paused",
      "inputs": [
        {
          "name": "index",
          "type": "uint8",
          "internalType": "uint8"
        }
      ],
      "outputs": [
        {
          "name": "",
          "type": "bool",
          "internalType": "bool"
        }
      ],
      "stateMutability": "view"
    },
    {
      "type": "function",
      "name": "paused",
      "inputs": [],
      "outputs": [
        {
          "name": "",
          "type": "uint256",
          "internalType": "uint256"
        }
      ],
      "stateMutability": "view"
    },
    {
      "type": "function",
      "name": "pauserRegistry",
      "inputs": [],
      "outputs": [
        {
          "name": "",
          "type": "address",
          "internalType": "contract IPauserRegistry"
        }
      ],
      "stateMutability": "view"
    },
    {
      "type": "function",
      "name": "pressButton",
      "inputs": [
        {
          "name": "length",
          "type": "uint256",
          "internalType": "uint256"
        }
      ],
      "outputs": [],
      "stateMutability": "nonpayable"
    },
    {
      "type": "function",
      "name": "renounceOwnership",
      "inputs": [],
      "outputs": [],
      "stateMutability": "nonpayable"
    },
    {
      "type": "function",
      "name": "setIncentiveCouncil",
      "inputs": [
        {
          "name": "newIncentiveCouncil",
          "type": "address",
          "internalType": "address"
        }
      ],
      "outputs": [],
      "stateMutability": "nonpayable"
    },
    {
      "type": "function",
      "name": "sweep",
      "inputs": [],
      "outputs": [],
      "stateMutability": "nonpayable"
    },
    {
      "type": "function",
      "name": "totalWeight",
      "inputs": [],
      "outputs": [
        {
          "name": "",
          "type": "uint16",
          "internalType": "uint16"
        }
      ],
      "stateMutability": "view"
    },
    {
      "type": "function",
      "name": "transferOwnership",
      "inputs": [
        {
          "name": "newOwner",
          "type": "address",
          "internalType": "address"
        }
      ],
      "outputs": [],
      "stateMutability": "nonpayable"
    },
    {
      "type": "function",
      "name": "unpause",
      "inputs": [
        {
          "name": "newPausedStatus",
          "type": "uint256",
          "internalType": "uint256"
        }
      ],
      "outputs": [],
      "stateMutability": "nonpayable"
    },
    {
      "type": "function",
      "name": "updateDistribution",
      "inputs": [
        {
          "name": "distributionId",
          "type": "uint256",
          "internalType": "uint256"
        },
        {
          "name": "distribution",
          "type": "tuple",
          "internalType": "struct IEmissionsControllerTypes.Distribution",
          "components": [
            {
              "name": "weight",
              "type": "uint64",
              "internalType": "uint64"
            },
            {
              "name": "startEpoch",
              "type": "uint64",
              "internalType": "uint64"
            },
            {
              "name": "totalEpochs",
              "type": "uint64",
              "internalType": "uint64"
            },
            {
              "name": "distributionType",
              "type": "uint8",
              "internalType": "enum IEmissionsControllerTypes.DistributionType"
            },
            {
              "name": "operatorSet",
              "type": "tuple",
              "internalType": "struct OperatorSet",
              "components": [
                {
                  "name": "avs",
                  "type": "address",
                  "internalType": "address"
                },
                {
                  "name": "id",
                  "type": "uint32",
                  "internalType": "uint32"
                }
              ]
            },
            {
              "name": "strategiesAndMultipliers",
              "type": "tuple[][]",
              "internalType": "struct IRewardsCoordinatorTypes.StrategyAndMultiplier[][]",
              "components": [
                {
                  "name": "strategy",
                  "type": "address",
                  "internalType": "contract IStrategy"
                },
                {
                  "name": "multiplier",
                  "type": "uint96",
                  "internalType": "uint96"
                }
              ]
            }
          ]
        }
      ],
      "outputs": [],
      "stateMutability": "nonpayable"
    },
    {
      "type": "event",
      "name": "DistributionAdded",
      "inputs": [
        {
          "name": "distributionId",
          "type": "uint256",
          "indexed": true,
          "internalType": "uint256"
        },
        {
          "name": "epoch",
          "type": "uint256",
          "indexed": true,
          "internalType": "uint256"
        },
        {
          "name": "distribution",
          "type": "tuple",
          "indexed": false,
          "internalType": "struct IEmissionsControllerTypes.Distribution",
          "components": [
            {
              "name": "weight",
              "type": "uint64",
              "internalType": "uint64"
            },
            {
              "name": "startEpoch",
              "type": "uint64",
              "internalType": "uint64"
            },
            {
              "name": "totalEpochs",
              "type": "uint64",
              "internalType": "uint64"
            },
            {
              "name": "distributionType",
              "type": "uint8",
              "internalType": "enum IEmissionsControllerTypes.DistributionType"
            },
            {
              "name": "operatorSet",
              "type": "tuple",
              "internalType": "struct OperatorSet",
              "components": [
                {
                  "name": "avs",
                  "type": "address",
                  "internalType": "address"
                },
                {
                  "name": "id",
                  "type": "uint32",
                  "internalType": "uint32"
                }
              ]
            },
            {
              "name": "strategiesAndMultipliers",
              "type": "tuple[][]",
              "internalType": "struct IRewardsCoordinatorTypes.StrategyAndMultiplier[][]",
              "components": [
                {
                  "name": "strategy",
                  "type": "address",
                  "internalType": "contract IStrategy"
                },
                {
                  "name": "multiplier",
                  "type": "uint96",
                  "internalType": "uint96"
                }
              ]
            }
          ]
        }
      ],
      "anonymous": false
    },
    {
      "type": "event",
      "name": "DistributionProcessed",
      "inputs": [
        {
          "name": "distributionId",
          "type": "uint256",
          "indexed": true,
          "internalType": "uint256"
        },
        {
          "name": "epoch",
          "type": "uint256",
          "indexed": true,
          "internalType": "uint256"
        },
        {
          "name": "distribution",
          "type": "tuple",
          "indexed": false,
          "internalType": "struct IEmissionsControllerTypes.Distribution",
          "components": [
            {
              "name": "weight",
              "type": "uint64",
              "internalType": "uint64"
            },
            {
              "name": "startEpoch",
              "type": "uint64",
              "internalType": "uint64"
            },
            {
              "name": "totalEpochs",
              "type": "uint64",
              "internalType": "uint64"
            },
            {
              "name": "distributionType",
              "type": "uint8",
              "internalType": "enum IEmissionsControllerTypes.DistributionType"
            },
            {
              "name": "operatorSet",
              "type": "tuple",
              "internalType": "struct OperatorSet",
              "components": [
                {
                  "name": "avs",
                  "type": "address",
                  "internalType": "address"
                },
                {
                  "name": "id",
                  "type": "uint32",
                  "internalType": "uint32"
                }
              ]
            },
            {
              "name": "strategiesAndMultipliers",
              "type": "tuple[][]",
              "internalType": "struct IRewardsCoordinatorTypes.StrategyAndMultiplier[][]",
              "components": [
                {
                  "name": "strategy",
                  "type": "address",
                  "internalType": "contract IStrategy"
                },
                {
                  "name": "multiplier",
                  "type": "uint96",
                  "internalType": "uint96"
                }
              ]
            }
          ]
        },
        {
          "name": "success",
          "type": "bool",
          "indexed": false,
          "internalType": "bool"
        }
      ],
      "anonymous": false
    },
    {
      "type": "event",
      "name": "DistributionUpdated",
      "inputs": [
        {
          "name": "distributionId",
          "type": "uint256",
          "indexed": true,
          "internalType": "uint256"
        },
        {
          "name": "epoch",
          "type": "uint256",
          "indexed": true,
          "internalType": "uint256"
        },
        {
          "name": "distribution",
          "type": "tuple",
          "indexed": false,
          "internalType": "struct IEmissionsControllerTypes.Distribution",
          "components": [
            {
              "name": "weight",
              "type": "uint64",
              "internalType": "uint64"
            },
            {
              "name": "startEpoch",
              "type": "uint64",
              "internalType": "uint64"
            },
            {
              "name": "totalEpochs",
              "type": "uint64",
              "internalType": "uint64"
            },
            {
              "name": "distributionType",
              "type": "uint8",
              "internalType": "enum IEmissionsControllerTypes.DistributionType"
            },
            {
              "name": "operatorSet",
              "type": "tuple",
              "internalType": "struct OperatorSet",
              "components": [
                {
                  "name": "avs",
                  "type": "address",
                  "internalType": "address"
                },
                {
                  "name": "id",
                  "type": "uint32",
                  "internalType": "uint32"
                }
              ]
            },
            {
              "name": "strategiesAndMultipliers",
              "type": "tuple[][]",
              "internalType": "struct IRewardsCoordinatorTypes.StrategyAndMultiplier[][]",
              "components": [
                {
                  "name": "strategy",
                  "type": "address",
                  "internalType": "contract IStrategy"
                },
                {
                  "name": "multiplier",
                  "type": "uint96",
                  "internalType": "uint96"
                }
              ]
            }
          ]
        }
      ],
      "anonymous": false
    },
    {
      "type": "event",
      "name": "IncentiveCouncilUpdated",
      "inputs": [
        {
          "name": "incentiveCouncil",
          "type": "address",
          "indexed": true,
          "internalType": "address"
        }
      ],
      "anonymous": false
    },
    {
      "type": "event",
      "name": "Initialized",
      "inputs": [
        {
          "name": "version",
          "type": "uint8",
          "indexed": false,
          "internalType": "uint8"
        }
      ],
      "anonymous": false
    },
    {
      "type": "event",
      "name": "OwnershipTransferred",
      "inputs": [
        {
          "name": "previousOwner",
          "type": "address",
          "indexed": true,
          "internalType": "address"
        },
        {
          "name": "newOwner",
          "type": "address",
          "indexed": true,
          "internalType": "address"
        }
      ],
      "anonymous": false
    },
    {
      "type": "event",
      "name": "Paused",
      "inputs": [
        {
          "name": "account",
          "type": "address",
          "indexed": true,
          "internalType": "address"
        },
        {
          "name": "newPausedStatus",
          "type": "uint256",
          "indexed": false,
          "internalType": "uint256"
        }
      ],
      "anonymous": false
    },
    {
      "type": "event",
      "name": "Swept",
      "inputs": [
        {
          "name": "incentiveCouncil",
          "type": "address",
          "indexed": true,
          "internalType": "address"
        },
        {
          "name": "amount",
          "type": "uint256",
          "indexed": false,
          "internalType": "uint256"
        }
      ],
      "anonymous": false
    },
    {
      "type": "event",
      "name": "Unpaused",
      "inputs": [
        {
          "name": "account",
          "type": "address",
          "indexed": true,
          "internalType": "address"
        },
        {
          "name": "newPausedStatus",
          "type": "uint256",
          "indexed": false,
          "internalType": "uint256"
        }
      ],
      "anonymous": false
    },
    {
      "type": "error",
      "name": "AllDistributionsProcessed",
      "inputs": []
    },
    {
      "type": "error",
      "name": "CallerIsNotIncentiveCouncil",
      "inputs": []
    },
    {
      "type": "error",
      "name": "CannotAddDisabledDistribution",
      "inputs": []
    },
    {
      "type": "error",
      "name": "CurrentlyPaused",
      "inputs": []
    },
    {
      "type": "error",
      "name": "EmissionsNotStarted",
      "inputs": []
    },
    {
      "type": "error",
      "name": "EpochLengthNotAlignedWithCalculationInterval",
      "inputs": []
    },
    {
      "type": "error",
      "name": "InputAddressZero",
      "inputs": []
    },
    {
      "type": "error",
      "name": "InvalidDistributionType",
      "inputs": []
    },
    {
      "type": "error",
      "name": "InvalidNewPausedStatus",
      "inputs": []
    },
    {
      "type": "error",
      "name": "NotAllDistributionsProcessed",
      "inputs": []
    },
    {
      "type": "error",
      "name": "OnlyPauser",
      "inputs": []
    },
    {
      "type": "error",
      "name": "OnlyUnpauser",
      "inputs": []
    },
    {
      "type": "error",
      "name": "OperatorSetNotRegistered",
      "inputs": []
    },
    {
      "type": "error",
      "name": "RewardsSubmissionsCannotBeEmpty",
      "inputs": []
    },
    {
      "type": "error",
      "name": "StartEpochMustBeInTheFuture",
      "inputs": []
    },
    {
      "type": "error",
      "name": "StartTimeNotAlignedWithCalculationInterval",
      "inputs": []
    },
    {
      "type": "error",
      "name": "TotalWeightExceedsMax",
      "inputs": []
    }
  ],
  "bytecode": {
    "object": "0x610180604052348015610010575f5ffd5b5060405161349938038061349983398101604081905261002f9161024d565b878787878686868a6001600160a01b03811661005e576040516339b190bb60e11b815260040160405180910390fd5b806001600160a01b03166080816001600160a01b031681525050505f846001600160a01b0316639d45c2816040518163ffffffff1660e01b8152600401602060405180830381865afa1580156100b6573d5f5f3e3d5ffd5b505050506040513d601f19601f820116820180604052508101906100da91906102d8565b63ffffffff1690506100ec8183610302565b1561010a57604051630cb091bf60e01b815260040160405180910390fd5b6101148184610302565b1561013257604051632f545d3f60e01b815260040160405180910390fd5b506001600160a01b0396871660a05294861660c05292851660e05293166101005261012092909252610140919091526101605261016d61017a565b5050505050505050610321565b5f54610100900460ff16156101e55760405162461bcd60e51b815260206004820152602760248201527f496e697469616c697a61626c653a20636f6e747261637420697320696e697469604482015266616c697a696e6760c81b606482015260840160405180910390fd5b5f5460ff90811614610234575f805460ff191660ff9081179091556040519081527f7f26b83ff96e1f2b6a682f133852f6798a09c465da95921460cefb38474024989060200160405180910390a15b565b6001600160a01b038116811461024a575f5ffd5b50565b5f5f5f5f5f5f5f5f610100898b031215610265575f5ffd5b885161027081610236565b60208a015190985061028181610236565b60408a015190975061029281610236565b60608a01519096506102a381610236565b60808a01519095506102b481610236565b60a08a015160c08b015160e0909b0151999c989b5096999598909790945092505050565b5f602082840312156102e8575f5ffd5b815163ffffffff811681146102fb575f5ffd5b9392505050565b5f8261031c57634e487b7160e01b5f52601260045260245ffd5b500690565b60805160a05160c05160e051610100516101205161014051610160516130606104395f395f81816103ea01528181610ed00152818161136f015281816115710152611ad001525f818161043701528181610efa0152818161134101528181611393015261159b01525f81816102e101528181610c2101528181610cf101528181610d9701528181610e29015261196101525f818161035b01528181610cc901526121f501525f81816102540152611ea501525f818161047901528181610c470152610dbd01525f81816104d60152818161089c0152818161093901528181610bf901528181610d1701528181610e4f01528181611a8f0152611d0d01525f818161038201528181611703015261207001526130605ff3fe608060405234801561000f575f5ffd5b50600436106101e7575f3560e01c8063886f119511610109578063cd1e341b1161009e578063f2fde38b1161006e578063f2fde38b146104a3578063f769479f146104b6578063fabc1cbc146104be578063fdc371ce146104d1575f5ffd5b8063cd1e341b14610459578063d44b1c9e1461046c578063d455724e14610474578063d83931501461049b575f5ffd5b8063c2f208e4116100d9578063c2f208e4146103e5578063c44cb7271461040c578063c695acdb1461041f578063c9d3eff914610432575f5ffd5b8063886f11951461037d5780638da5cb5b146103a457806396c82e57146103b5578063b97dd9e2146103dd575f5ffd5b806344a320281161017f5780635c975abb1161014f5780635c975abb1461033e5780635e6d4a6414610346578063715018a61461034e57806371e2c26414610356575f5ffd5b806344a32028146102c957806347a28ea2146102dc578063595c6a67146103035780635ac86ab71461030b575f5ffd5b806331232bc9116101ba57806331232bc91461024f57806335faa4161461028e5780633b345a8714610296578063400efa85146102b6575f5ffd5b806309a3bbe4146101eb578063136439dd14610207578063147a7a5b1461021c5780631794bb3c1461023c575b5f5ffd5b6101f461271081565b6040519081526020015b60405180910390f35b61021a610215366004612440565b6104f8565b005b61022f61022a366004612457565b610532565b6040516101fe91906125e4565b61021a61024a36600461264f565b61074d565b6102767f000000000000000000000000000000000000000000000000000000000000000081565b6040516001600160a01b0390911681526020016101fe565b61021a610873565b6102a96102a4366004612440565b6109b3565b6040516101fe919061268d565b61021a6102c4366004612440565b610b47565b61021a6102d73660046126bc565b6111a2565b6101f47f000000000000000000000000000000000000000000000000000000000000000081565b61021a6112ce565b61032e6103193660046126ff565b606654600160ff9092169190911b9081161490565b60405190151581526020016101fe565b6066546101f4565b6101f46112e0565b61021a61132d565b6102767f000000000000000000000000000000000000000000000000000000000000000081565b6102767f000000000000000000000000000000000000000000000000000000000000000081565b6033546001600160a01b0316610276565b60c9546103ca90600160a01b900461ffff1681565b60405161ffff90911681526020016101fe565b6101f461133e565b6101f47f000000000000000000000000000000000000000000000000000000000000000081565b60c954610276906001600160a01b031681565b61021a61042d36600461271f565b6113c7565b6101f47f000000000000000000000000000000000000000000000000000000000000000081565b6101f461046736600461273a565b6113d8565b6101f4611562565b6102767f000000000000000000000000000000000000000000000000000000000000000081565b61032e6115bf565b61021a6104b136600461271f565b6115f7565b6101f461166d565b61021a6104cc366004612440565b611681565b6102767f000000000000000000000000000000000000000000000000000000000000000081565b6105006116ee565b60665481811681146105255760405163c61dca5d60e01b815260040160405180910390fd5b61052e82611791565b5050565b6060816001600160401b0381111561054c5761054c61276b565b60405190808252806020026020018201604052801561058557816020015b6105726123fc565b81526020019060019003908161056a5790505b5090505f5b828110156107465760ca61059e8286612793565b815481106105ae576105ae6127ac565b5f9182526020918290206040805160c081018252600390930290910180546001600160401b038082168552600160401b8204811695850195909552600160801b8104909416918301919091529091606083019060ff600160c01b90910416600581111561061d5761061d612477565b600581111561062e5761062e612477565b815260408051808201825260018401546001600160a01b0381168252600160a01b900463ffffffff16602080830191909152808401919091526002840180548351818402810184018552818152939094019390915f9084015b82821015610719578382905f5260205f2001805480602002602001604051908101604052809291908181526020015f905b82821015610706575f84815260209081902060408051808201909152908401546001600160a01b0381168252600160a01b90046001600160601b0316818301528252600190920191016106b8565b5050505081526020019060010190610687565b5050505081525050828281518110610733576107336127ac565b602090810291909101015260010161058a565b5092915050565b5f54610100900460ff161580801561076b57505f54600160ff909116105b806107845750303b15801561078457505f5460ff166001145b6107ec5760405162461bcd60e51b815260206004820152602e60248201527f496e697469616c697a61626c653a20636f6e747261637420697320616c72656160448201526d191e481a5b9a5d1a585b1a5e995960921b60648201526084015b60405180910390fd5b5f805460ff19166001179055801561080d575f805461ff0019166101001790555b610816846117ce565b61081f8361181f565b61082882611791565b801561086d575f805461ff0019169055604051600181527f7f26b83ff96e1f2b6a682f133852f6798a09c465da95921460cefb38474024989060200160405180910390a15b50505050565b61087b611868565b5f610885816118c1565b6040516370a0823160e01b81523060048201525f907f00000000000000000000000000000000000000000000000000000000000000006001600160a01b0316906370a0823190602401602060405180830381865afa1580156108e9573d5f5f3e3d5ffd5b505050506040513d601f19601f8201168201806040525081019061090d91906127c0565b90506109176115bf565b15801561092357508015155b156109a55760c954610962906001600160a01b037f000000000000000000000000000000000000000000000000000000000000000081169116836118ec565b60c9546040518281526001600160a01b03909116907fc36b5179cb9c303b200074996eab2b3473eac370fdd7eba3bec636fe351096969060200160405180910390a25b50506109b16001609755565b565b6109bb6123fc565b60ca82815481106109ce576109ce6127ac565b5f9182526020918290206040805160c081018252600390930290910180546001600160401b038082168552600160401b8204811695850195909552600160801b8104909416918301919091529091606083019060ff600160c01b909104166005811115610a3d57610a3d612477565b6005811115610a4e57610a4e612477565b815260408051808201825260018401546001600160a01b0381168252600160a01b900463ffffffff16602080830191909152808401919091526002840180548351818402810184018552818152939094019390915f9084015b82821015610b39578382905f5260205f2001805480602002602001604051908101604052809291908181526020015f905b82821015610b26575f84815260209081902060408051808201909152908401546001600160a01b0381168252600160a01b90046001600160601b031681830152825260019092019101610ad8565b5050505081526020019060010190610aa7565b505050915250909392505050565b610b4f611868565b5f610b59816118c1565b5f610b6261133e565b90505f198103610b8557604051638f98404160e01b815260040160405180910390fd5b5f610b8e6112e0565b5f83815260cb602052604090205490915061010090046001600160401b0316818110610bcd576040516314568a0960e11b815260040160405180910390fd5b5f83815260cb602052604090205460ff16610ec95760405163095ea7b360e01b81526001600160a01b037f0000000000000000000000000000000000000000000000000000000000000000811660048301527f000000000000000000000000000000000000000000000000000000000000000060248301527f0000000000000000000000000000000000000000000000000000000000000000169063095ea7b3906044016020604051808303815f875af1158015610c8d573d5f5f3e3d5ffd5b505050506040513d601f19601f82011682018060405250810190610cb191906127d7565b5060405163095ea7b360e01b81526001600160a01b037f0000000000000000000000000000000000000000000000000000000000000000811660048301527f000000000000000000000000000000000000000000000000000000000000000060248301527f0000000000000000000000000000000000000000000000000000000000000000169063095ea7b3906044016020604051808303815f875af1158015610d5d573d5f5f3e3d5ffd5b505050506040513d601f19601f82011682018060405250810190610d8191906127d7565b506040516340c10f1960e01b81523060048201527f000000000000000000000000000000000000000000000000000000000000000060248201527f00000000000000000000000000000000000000000000000000000000000000006001600160a01b0316906340c10f19906044015f604051808303815f87803b158015610e06575f5ffd5b505af1158015610e18573d5f5f3e3d5ffd5b5050604051630ea598cb60e41b81527f000000000000000000000000000000000000000000000000000000000000000060048201527f00000000000000000000000000000000000000000000000000000000000000006001600160a01b0316925063ea598cb091506024015f604051808303815f87803b158015610e9a575f5ffd5b505af1158015610eac573d5f5f3e3d5ffd5b5050505f84815260cb60205260409020805460ff19166001179055505b5f610ef4847f00000000000000000000000000000000000000000000000000000000000000006127f6565b610f1e907f0000000000000000000000000000000000000000000000000000000000000000612793565b90505f610f2b8784612793565b905083811115610f385750825b825b8181101561115c575f60ca8281548110610f5657610f566127ac565b5f9182526020918290206040805160c081018252600390930290910180546001600160401b038082168552600160401b8204811695850195909552600160801b8104909416918301919091529091606083019060ff600160c01b909104166005811115610fc557610fc5612477565b6005811115610fd657610fd6612477565b815260408051808201825260018401546001600160a01b0381168252600160a01b900463ffffffff16602080830191909152808401919091526002840180548351818402810184018552818152939094019390915f9084015b828210156110c1578382905f5260205f2001805480602002602001604051908101604052809291908181526020015f905b828210156110ae575f84815260209081902060408051808201909152908401546001600160a01b0381168252600160a01b90046001600160601b031681830152825260019092019101611060565b505050508152602001906001019061102f565b5050509152509091505f9050816060015160058111156110e3576110e3612477565b036110ee5750611154565b8681602001516001600160401b031611156111095750611154565b60408101516001600160401b0316156111465780604001518160200151611130919061280d565b6001600160401b03168711156111465750611154565b6111528183898761194a565b505b600101610f3a565b505f94855260cb602052604090942080546001600160401b039095166101000268ffffffffffffffff0019909516949094179093555061119f9250611943915050565b50565b6111aa611dc1565b5f6111b361133e565b90505f60c960149054906101000a900461ffff1661ffff1690505f60ca85815481106111e1576111e16127ac565b5f9182526020909120600390910201546001600160401b0316905061120583611dec565b6112198484611214848661282c565b611e3a565b6112266020850185612853565b6001600160401b0316611239828461282c565b6112439190612793565b60c960146101000a81548161ffff021916908361ffff1602179055508360ca8681548110611273576112736127ac565b905f5260205f209060030201818161128b9190612b4c565b90505082857f548fb50d6be978df2bacbf48c6840e4a4743672408921282117f3f00555b2b4c866040516112bf9190612da4565b60405180910390a35050505050565b6112d66116ee565b6109b15f19611791565b5f5f6112ea61133e565b90505f1981036112fc57505060ca5490565b5f81815260cb602052604090205460ca5461132791600160481b90046001600160401b03169061282c565b91505090565b611335612014565b6109b15f6117ce565b5f7f000000000000000000000000000000000000000000000000000000000000000042101561136d57505f1990565b7f00000000000000000000000000000000000000000000000000000000000000006113b87f00000000000000000000000000000000000000000000000000000000000000004261282c565b6113c29190612e55565b905090565b6113cf612014565b61119f8161181f565b5f6113e1611dc1565b5f6113ea61133e565b90505f6113fd6080850160608601612e74565b600581111561140e5761140e612477565b0361142c57604051637051feff60e01b815260040160405180910390fd5b61143581611dec565b60c954600160a01b900461ffff1661144e848383611e3a565b5f82815260cb60205260409020805460099061147990600160481b90046001600160401b0316612e8f565b82546001600160401b039182166101009390930a928302919092021990911617905560ca5492506114ad6020850185612853565b6114c0906001600160401b031682612793565b60c9805461ffff92909216600160a01b0261ffff60a01b1990921691909117905560ca80546001810182555f9190915284906003027f42d72674974f694b5f5159593243114d38a5c39c89d6b62fee061ff523240ee1016115218282612b4c565b505081837e6f7ba35643ecf5852cfe01b66220b1fe04a4cd4866923d5f3e66c7fcb390ef866040516115539190612da4565b60405180910390a35050919050565b5f61156b61133e565b611595907f00000000000000000000000000000000000000000000000000000000000000006127f6565b6113c2907f0000000000000000000000000000000000000000000000000000000000000000612793565b5f6115c86112e0565b60cb5f6115d361133e565b815260208101919091526040015f205461010090046001600160401b031610919050565b6115ff612014565b6001600160a01b0381166116645760405162461bcd60e51b815260206004820152602660248201527f4f776e61626c653a206e6577206f776e657220697320746865207a65726f206160448201526564647265737360d01b60648201526084016107e3565b61119f816117ce565b5f61167661133e565b61156b906001612793565b61168961206e565b606654801982198116146116b05760405163c61dca5d60e01b815260040160405180910390fd5b606682905560405182815233907f3582d1828e26bf56bd801502bc021ac0bc8afb57c826e4986b45593c8fad389c9060200160405180910390a25050565b60405163237dfb4760e11b81523360048201527f00000000000000000000000000000000000000000000000000000000000000006001600160a01b0316906346fbf68e90602401602060405180830381865afa158015611750573d5f5f3e3d5ffd5b505050506040513d601f19601f8201168201806040525081019061177491906127d7565b6109b157604051631d77d47760e21b815260040160405180910390fd5b606681905560405181815233907fab40a374bc51de372200a8bc981af8c9ecdc08dfdaef0bb6e09f88f3c616ef3d9060200160405180910390a250565b603380546001600160a01b038381166001600160a01b0319831681179093556040519116919082907f8be0079c531659141344cd1fd0a4f28419497f9722a3daafe3b4186f6b6457e0905f90a35050565b60c980546001600160a01b0319166001600160a01b0383169081179091556040517f8befac6896b786e67b23cefc473bfabd36e7fc013125c883dfeec8e3a9636216905f90a250565b6002609754036118ba5760405162461bcd60e51b815260206004820152601f60248201527f5265656e7472616e637947756172643a207265656e7472616e742063616c6c0060448201526064016107e3565b6002609755565b606654600160ff83161b9081160361119f5760405163840a48d560e01b815260040160405180910390fd5b604080516001600160a01b038416602482015260448082018490528251808303909101815260649091019091526020810180516001600160e01b031663a9059cbb60e01b17905261193e90849061211f565b505050565b6001609755565b83515f9061271090611985906001600160401b03167f00000000000000000000000000000000000000000000000000000000000000006127f6565b61198f9190612e55565b90505f815f036119a057505061086d565b6005866060015160058111156119b8576119b8612477565b14611cbf5760a086015151828111156119d35750505061086d565b5f6119de8285612e55565b90505f826001600160401b038111156119f9576119f961276b565b604051908082528060200260200182016040528015611a5157816020015b6040805160a08101825260608082525f6020808401829052938301819052908201819052608082015282525f19909201910181611a175790505b5090505f5b8151811015611b1d576040518060a001604052808b60a001518381518110611a8057611a806127ac565b602002602001015181526020017f00000000000000000000000000000000000000000000000000000000000000006001600160a01b031681526020018481526020018863ffffffff1681526020017f000000000000000000000000000000000000000000000000000000000000000063ffffffff16815250828281518110611b0a57611b0a6127ac565b6020908102919091010152600101611a56565b50600189606001516005811115611b3657611b36612477565b03611b8857611b8181604051602401611b4f9190612f4f565b60408051601f198184030181529190526020810180516001600160e01b031660016230499960e11b03191790526121f2565b9350611cb7565b600389606001516005811115611ba057611ba0612477565b03611bee57611b81896080015182604051602401611bbf929190612f61565b60408051601f198184030181529190526020810180516001600160e01b0316637ae3058360e01b1790526121f2565b600289606001516005811115611c0657611c06612477565b03611c5457611b81896080015182604051602401611c25929190612f61565b60408051601f198184030181529190526020810180516001600160e01b0316638cb0ae1b60e01b1790526121f2565b600489606001516005811115611c6c57611c6c612477565b03611cb757611cb481604051602401611c859190612f4f565b60408051601f198184030181529190526020810180516001600160e01b031663fce36c7d60e01b1790526121f2565b93505b505050611d7e565b60c954604080516001600160a01b039283166024820152604480820186905282518083039091018152606490910182526020810180516001600160e01b031663a9059cbb60e01b17905290517f000000000000000000000000000000000000000000000000000000000000000090921691611d3a9190612f93565b5f604051808303815f865af19150503d805f8114611d73576040519150601f19603f3d011682016040523d82523d5f602084013e611d78565b606091505b50909150505b83857fba5d66336bc9a4f8459242151a4da4d5020ac581243d98403bb55f7f348e071b8884604051611db1929190612fa9565b60405180910390a3505050505050565b60c9546001600160a01b031633146109b15760405163235e4b5160e11b815260040160405180910390fd5b5f19811480611e1d5750611dfe6112e0565b5f82815260cb602052604090205461010090046001600160401b031610155b61119f5760405163236d174360e01b815260040160405180910390fd5b6002611e4c6080850160608601612e74565b6005811115611e5d57611e5d612477565b1480611e8957506003611e766080850160608601612e74565b6005811115611e8757611e87612477565b145b15611f39576040516304c1b8eb60e31b81526001600160a01b037f0000000000000000000000000000000000000000000000000000000000000000169063260dc75890611edd906080870190600401612fcc565b602060405180830381865afa158015611ef8573d5f5f3e3d5ffd5b505050506040513d601f19601f82011682018060405250810190611f1c91906127d7565b611f3957604051631d171d6360e11b815260040160405180910390fd5b5f198214611f785781611f526040850160208601612853565b6001600160401b031611611f78576040516285be8b60e21b815260040160405180910390fd5b61271081611f896020860186612853565b6001600160401b0316611f9c9190612793565b1115611fbb57604051630d1418e160e01b815260040160405180910390fd5b6005611fcd6080850160608601612e74565b6005811115611fde57611fde612477565b1480611ff757505f611ff360c0850185612935565b9050115b61193e5760405163ef1a114f60e01b815260040160405180910390fd5b6033546001600160a01b031633146109b15760405162461bcd60e51b815260206004820181905260248201527f4f776e61626c653a2063616c6c6572206973206e6f7420746865206f776e657260448201526064016107e3565b7f00000000000000000000000000000000000000000000000000000000000000006001600160a01b031663eab66d7a6040518163ffffffff1660e01b8152600401602060405180830381865afa1580156120ca573d5f5f3e3d5ffd5b505050506040513d601f19601f820116820180604052508101906120ee9190612fda565b6001600160a01b0316336001600160a01b0316146109b15760405163794821ff60e01b815260040160405180910390fd5b5f612173826040518060400160405280602081526020017f5361666545524332303a206c6f772d6c6576656c2063616c6c206661696c6564815250856001600160a01b03166122729092919063ffffffff16565b905080515f148061219357508080602001905181019061219391906127d7565b61193e5760405162461bcd60e51b815260206004820152602a60248201527f5361666545524332303a204552433230206f7065726174696f6e20646964206e6044820152691bdd081cdd58d8d9595960b21b60648201526084016107e3565b5f7f00000000000000000000000000000000000000000000000000000000000000006001600160a01b03168260405161222b9190612f93565b5f604051808303815f865af19150503d805f8114612264576040519150601f19603f3d011682016040523d82523d5f602084013e612269565b606091505b50909392505050565b606061228084845f85612288565b949350505050565b6060824710156122e95760405162461bcd60e51b815260206004820152602660248201527f416464726573733a20696e73756666696369656e742062616c616e636520666f6044820152651c8818d85b1b60d21b60648201526084016107e3565b5f5f866001600160a01b031685876040516123049190612f93565b5f6040518083038185875af1925050503d805f811461233e576040519150601f19603f3d011682016040523d82523d5f602084013e612343565b606091505b50915091506123548783838761235f565b979650505050505050565b606083156123cd5782515f036123c6576001600160a01b0385163b6123c65760405162461bcd60e51b815260206004820152601d60248201527f416464726573733a2063616c6c20746f206e6f6e2d636f6e747261637400000060448201526064016107e3565b5081612280565b61228083838151156123e25781518083602001fd5b8060405162461bcd60e51b81526004016107e39190612ff5565b6040805160c0810182525f80825260208083018290528284018290526060830182905283518085019094528184528301529060808201908152602001606081525090565b5f60208284031215612450575f5ffd5b5035919050565b5f5f60408385031215612468575f5ffd5b50508035926020909101359150565b634e487b7160e01b5f52602160045260245ffd5b600681106124a757634e487b7160e01b5f52602160045260245ffd5b9052565b5f8151808452602084019350602083015f5b828110156124f957815180516001600160a01b031687526020908101516001600160601b031681880152604090960195909101906001016124bd565b5093949350505050565b5f60e083016001600160401b0383511684526001600160401b0360208401511660208501526001600160401b036040840151166040850152606083015161254d606086018261248b565b506080830151612579608086018280516001600160a01b0316825260209081015163ffffffff16910152565b5060a083015160e060c0860152818151808452610100870191506101008160051b88010193506020830192505f5b818110156125d85760ff198886030183526125c38585516124ab565b945060209384019392909201916001016125a7565b50929695505050505050565b5f602082016020835280845180835260408501915060408160051b8601019250602086015f5b828110156125d857603f19878603018452612626858351612503565b9450602093840193919091019060010161260a565b6001600160a01b038116811461119f575f5ffd5b5f5f5f60608486031215612661575f5ffd5b833561266c8161263b565b9250602084013561267c8161263b565b929592945050506040919091013590565b602081525f61269f6020830184612503565b9392505050565b5f60e082840312156126b6575f5ffd5b50919050565b5f5f604083850312156126cd575f5ffd5b8235915060208301356001600160401b038111156126e9575f5ffd5b6126f5858286016126a6565b9150509250929050565b5f6020828403121561270f575f5ffd5b813560ff8116811461269f575f5ffd5b5f6020828403121561272f575f5ffd5b813561269f8161263b565b5f6020828403121561274a575f5ffd5b81356001600160401b0381111561275f575f5ffd5b612280848285016126a6565b634e487b7160e01b5f52604160045260245ffd5b634e487b7160e01b5f52601160045260245ffd5b808201808211156127a6576127a661277f565b92915050565b634e487b7160e01b5f52603260045260245ffd5b5f602082840312156127d0575f5ffd5b5051919050565b5f602082840312156127e7575f5ffd5b8151801515811461269f575f5ffd5b80820281158282048414176127a6576127a661277f565b6001600160401b0381811683821601908111156127a6576127a661277f565b818103818111156127a6576127a661277f565b6001600160401b038116811461119f575f5ffd5b5f60208284031215612863575f5ffd5b813561269f8161283f565b6006811061119f575f5ffd5b5f81356127a68161286e565b600682106128a257634e487b7160e01b5f52602160045260245ffd5b805460ff60c01b191660c09290921b60ff60c01b16919091179055565b80546001600160a01b0319166001600160a01b0392909216919091179055565b63ffffffff8116811461119f575f5ffd5b81356128fb8161263b565b61290581836128bf565b506020820135612914816128df565b815463ffffffff60a01b191660a09190911b63ffffffff60a01b1617905550565b5f5f8335601e1984360301811261294a575f5ffd5b8301803591506001600160401b03821115612963575f5ffd5b6020019150600581901b360382131561297a575f5ffd5b9250929050565b5f5f8335601e19843603018112612996575f5ffd5b8301803591506001600160401b038211156129af575f5ffd5b6020019150600681901b360382131561297a575f5ffd5b80545f8255801561052e57815f5260205f208181015b8082101561086d575f82556001820191506129dc565b6001600160601b038116811461119f575f5ffd5b600160401b831115612a1a57612a1a61276b565b805483825580841015612a4f575f828152602090208481019082015b80821015612a4c575f8255600182019150612a36565b50505b5081815f5260205f205f5b85811015612ab7578235612a6d8161263b565b612a7781846128bf565b506020830135612a86816129f2565b82546001600160a01b031660a09190911b6001600160a01b0319161782556040929092019160019182019101612a5a565b505050505050565b600160401b831115612ad357612ad361276b565b805483825580841015612b0e575f828152602090208481019082015b80821015612b0b57612b00826129c6565b600182019150612aef565b50505b505f8181526020812083915b85811015612ab757612b2c8386612981565b612b37818386612a06565b50506020929092019160019182019101612b1a565b8135612b578161283f565b6001600160401b03811690508154816001600160401b031982161783556020840135612b828161283f565b6fffffffffffffffff00000000000000008160401b16836fffffffffffffffffffffffffffffffff198416171784555050505f6040830135612bc38161283f565b825467ffffffffffffffff60801b191660809190911b67ffffffffffffffff60801b1617825550612bff612bf96060840161287a565b82612886565b612c0f60808301600183016128f0565b612c1c60c0830183612935565b61086d818360028601612abf565b8035612c358161286e565b919050565b8035612c458161263b565b6001600160a01b031682526020810135612c5e816128df565b63ffffffff81166020840152505050565b5f5f8335601e19843603018112612c84575f5ffd5b83016020810192503590506001600160401b03811115612ca2575f5ffd5b8060051b360382131561297a575f5ffd5b8183526020830192505f815f5b848110156124f9578135612cd38161263b565b6001600160a01b031686526020820135612cec816129f2565b6001600160601b031660208701526040958601959190910190600101612cc0565b5f8383855260208501945060208460051b820101835f5b86811015612d9857838303601f19018852813536879003601e19018112612d49575f5ffd5b86016020810190356001600160401b03811115612d64575f5ffd5b8060061b3603821315612d75575f5ffd5b612d80858284612cb3565b60209a8b019a90955093909301925050600101612d24565b50909695505050505050565b602081525f8235612db48161283f565b6001600160401b0381166020840152506020830135612dd28161283f565b6001600160401b0381166040840152506040830135612df08161283f565b6001600160401b038116606084015250612e0c60608401612c2a565b612e19608084018261248b565b50612e2a60a0830160808501612c3a565b612e3760c0840184612c6f565b60e080850152612e4c61010085018284612d0d565b95945050505050565b5f82612e6f57634e487b7160e01b5f52601260045260245ffd5b500490565b5f60208284031215612e84575f5ffd5b813561269f8161286e565b5f6001600160401b0382166001600160401b038103612eb057612eb061277f565b60010192915050565b5f82825180855260208501945060208160051b830101602085015f5b83811015612d9857601f198584030188528151805160a08552612efb60a08601826124ab565b6020838101516001600160a01b0316878201526040808501519088015260608085015163ffffffff908116918901919091526080948501511693909601929092525097830197929190910190600101612ed5565b602081525f61269f6020830184612eb9565b82516001600160a01b0316815260208084015163ffffffff1690820152606060408201525f6122806060830184612eb9565b5f82518060208501845e5f920191825250919050565b604081525f612fbb6040830185612503565b905082151560208301529392505050565b604081016127a68284612c3a565b5f60208284031215612fea575f5ffd5b815161269f8161263b565b602081525f82518060208401528060208501604085015e5f604082850101526040601f19601f8301168401019150509291505056fea2646970667358221220d129e834b0ec2ef171727ee645dde213230f5cac543ab2b4c4f2021b79a5485564736f6c634300081e0033",
    "linkReferences": {}
  },
  "methodIdentifiers": {
    "ALLOCATION_MANAGER()": "31232bc9",
    "BACKING_EIGEN()": "d455724e",
    "EIGEN()": "fdc371ce",
    "EMISSIONS_EPOCH_LENGTH()": "c2f208e4",
    "EMISSIONS_INFLATION_RATE()": "47a28ea2",
    "EMISSIONS_START_TIME()": "c9d3eff9",
    "MAX_TOTAL_WEIGHT()": "09a3bbe4",
    "REWARDS_COORDINATOR()": "71e2c264",
    "addDistribution((uint64,uint64,uint64,uint8,(address,uint32),(address,uint96)[][]))": "cd1e341b",
    "getCurrentEpoch()": "b97dd9e2",
    "getDistribution(uint256)": "3b345a87",
    "getDistributions(uint256,uint256)": "147a7a5b",
    "getTotalDistributions()": "5e6d4a64",
    "incentiveCouncil()": "c44cb727",
    "initialize(address,address,uint256)": "1794bb3c",
    "isButtonPressable()": "d8393150",
    "lastTimeButtonPressable()": "d44b1c9e",
    "nextTimeButtonPressable()": "f769479f",
    "owner()": "8da5cb5b",
    "pause(uint256)": "136439dd",
    "pauseAll()": "595c6a67",
    "paused()": "5c975abb",
    "paused(uint8)": "5ac86ab7",
    "pauserRegistry()": "886f1195",
    "pressButton(uint256)": "400efa85",
    "renounceOwnership()": "715018a6",
    "setIncentiveCouncil(address)": "c695acdb",
    "sweep()": "35faa416",
    "totalWeight()": "96c82e57",
    "transferOwnership(address)": "f2fde38b",
    "unpause(uint256)": "fabc1cbc",
    "updateDistribution(uint256,(uint64,uint64,uint64,uint8,(address,uint32),(address,uint96)[][]))": "44a32028"
  },
  "id": 146
}