{
  "abi": [
    {
      "type": "constructor",
      "inputs": [
        {
          "name": "params",
          "type": "tuple",
          "internalType": "struct IRewardsCoordinatorTypes.RewardsCoordinatorConstructorParams",
          "components": [
            {
              "name": "delegationManager",
              "type": "address",
              "internalType": "contract IDelegationManager"
            },
            {
              "name": "strategyManager",
              "type": "address",
              "internalType": "contract IStrategyManager"
            },
            {
              "name": "allocationManager",
              "type": "address",
              "internalType": "contract IAllocationManager"
            },
            {
              "name": "pauserRegistry",
              "type": "address",
              "internalType": "contract IPauserRegistry"
            },
            {
              "name": "permissionController",
              "type": "address",
              "internalType": "contract IPermissionController"
            },
            {
              "name": "CALCULATION_INTERVAL_SECONDS",
              "type": "uint32",
              "internalType": "uint32"
            },
            {
              "name": "MAX_REWARDS_DURATION",
              "type": "uint32",
              "internalType": "uint32"
            },
            {
              "name": "MAX_RETROACTIVE_LENGTH",
              "type": "uint32",
              "internalType": "uint32"
            },
            {
              "name": "MAX_FUTURE_LENGTH",
              "type": "uint32",
              "internalType": "uint32"
            },
            {
              "name": "GENESIS_REWARDS_TIMESTAMP",
              "type": "uint32",
              "internalType": "uint32"
            }
          ]
        }
      ],
      "stateMutability": "nonpayable"
    },
    {
      "type": "function",
      "name": "CALCULATION_INTERVAL_SECONDS",
      "inputs": [],
      "outputs": [
        {
          "name": "",
          "type": "uint32",
          "internalType": "uint32"
        }
      ],
      "stateMutability": "view"
    },
    {
      "type": "function",
      "name": "GENESIS_REWARDS_TIMESTAMP",
      "inputs": [],
      "outputs": [
        {
          "name": "",
          "type": "uint32",
          "internalType": "uint32"
        }
      ],
      "stateMutability": "view"
    },
    {
      "type": "function",
      "name": "MAX_FUTURE_LENGTH",
      "inputs": [],
      "outputs": [
        {
          "name": "",
          "type": "uint32",
          "internalType": "uint32"
        }
      ],
      "stateMutability": "view"
    },
    {
      "type": "function",
      "name": "MAX_RETROACTIVE_LENGTH",
      "inputs": [],
      "outputs": [
        {
          "name": "",
          "type": "uint32",
          "internalType": "uint32"
        }
      ],
      "stateMutability": "view"
    },
    {
      "type": "function",
      "name": "MAX_REWARDS_DURATION",
      "inputs": [],
      "outputs": [
        {
          "name": "",
          "type": "uint32",
          "internalType": "uint32"
        }
      ],
      "stateMutability": "view"
    },
    {
      "type": "function",
      "name": "activationDelay",
      "inputs": [],
      "outputs": [
        {
          "name": "",
          "type": "uint32",
          "internalType": "uint32"
        }
      ],
      "stateMutability": "view"
    },
    {
      "type": "function",
      "name": "allocationManager",
      "inputs": [],
      "outputs": [
        {
          "name": "",
          "type": "address",
          "internalType": "contract IAllocationManager"
        }
      ],
      "stateMutability": "view"
    },
    {
      "type": "function",
      "name": "beaconChainETHStrategy",
      "inputs": [],
      "outputs": [
        {
          "name": "",
          "type": "address",
          "internalType": "contract IStrategy"
        }
      ],
      "stateMutability": "view"
    },
    {
      "type": "function",
      "name": "calculateEarnerLeafHash",
      "inputs": [
        {
          "name": "leaf",
          "type": "tuple",
          "internalType": "struct IRewardsCoordinatorTypes.EarnerTreeMerkleLeaf",
          "components": [
            {
              "name": "earner",
              "type": "address",
              "internalType": "address"
            },
            {
              "name": "earnerTokenRoot",
              "type": "bytes32",
              "internalType": "bytes32"
            }
          ]
        }
      ],
      "outputs": [
        {
          "name": "",
          "type": "bytes32",
          "internalType": "bytes32"
        }
      ],
      "stateMutability": "pure"
    },
    {
      "type": "function",
      "name": "calculateTokenLeafHash",
      "inputs": [
        {
          "name": "leaf",
          "type": "tuple",
          "internalType": "struct IRewardsCoordinatorTypes.TokenTreeMerkleLeaf",
          "components": [
            {
              "name": "token",
              "type": "address",
              "internalType": "contract IERC20"
            },
            {
              "name": "cumulativeEarnings",
              "type": "uint256",
              "internalType": "uint256"
            }
          ]
        }
      ],
      "outputs": [
        {
          "name": "",
          "type": "bytes32",
          "internalType": "bytes32"
        }
      ],
      "stateMutability": "pure"
    },
    {
      "type": "function",
      "name": "checkClaim",
      "inputs": [
        {
          "name": "claim",
          "type": "tuple",
          "internalType": "struct IRewardsCoordinatorTypes.RewardsMerkleClaim",
          "components": [
            {
              "name": "rootIndex",
              "type": "uint32",
              "internalType": "uint32"
            },
            {
              "name": "earnerIndex",
              "type": "uint32",
              "internalType": "uint32"
            },
            {
              "name": "earnerTreeProof",
              "type": "bytes",
              "internalType": "bytes"
            },
            {
              "name": "earnerLeaf",
              "type": "tuple",
              "internalType": "struct IRewardsCoordinatorTypes.EarnerTreeMerkleLeaf",
              "components": [
                {
                  "name": "earner",
                  "type": "address",
                  "internalType": "address"
                },
                {
                  "name": "earnerTokenRoot",
                  "type": "bytes32",
                  "internalType": "bytes32"
                }
              ]
            },
            {
              "name": "tokenIndices",
              "type": "uint32[]",
              "internalType": "uint32[]"
            },
            {
              "name": "tokenTreeProofs",
              "type": "bytes[]",
              "internalType": "bytes[]"
            },
            {
              "name": "tokenLeaves",
              "type": "tuple[]",
              "internalType": "struct IRewardsCoordinatorTypes.TokenTreeMerkleLeaf[]",
              "components": [
                {
                  "name": "token",
                  "type": "address",
                  "internalType": "contract IERC20"
                },
                {
                  "name": "cumulativeEarnings",
                  "type": "uint256",
                  "internalType": "uint256"
                }
              ]
            }
          ]
        }
      ],
      "outputs": [
        {
          "name": "",
          "type": "bool",
          "internalType": "bool"
        }
      ],
      "stateMutability": "view"
    },
    {
      "type": "function",
      "name": "claimerFor",
      "inputs": [
        {
          "name": "earner",
          "type": "address",
          "internalType": "address"
        }
      ],
      "outputs": [
        {
          "name": "claimer",
          "type": "address",
          "internalType": "address"
        }
      ],
      "stateMutability": "view"
    },
    {
      "type": "function",
      "name": "createAVSRewardsSubmission",
      "inputs": [
        {
          "name": "rewardsSubmissions",
          "type": "tuple[]",
          "internalType": "struct IRewardsCoordinatorTypes.RewardsSubmission[]",
          "components": [
            {
              "name": "strategiesAndMultipliers",
              "type": "tuple[]",
              "internalType": "struct IRewardsCoordinatorTypes.StrategyAndMultiplier[]",
              "components": [
                {
                  "name": "strategy",
                  "type": "address",
                  "internalType": "contract IStrategy"
                },
                {
                  "name": "multiplier",
                  "type": "uint96",
                  "internalType": "uint96"
                }
              ]
            },
            {
              "name": "token",
              "type": "address",
              "internalType": "contract IERC20"
            },
            {
              "name": "amount",
              "type": "uint256",
              "internalType": "uint256"
            },
            {
              "name": "startTimestamp",
              "type": "uint32",
              "internalType": "uint32"
            },
            {
              "name": "duration",
              "type": "uint32",
              "internalType": "uint32"
            }
          ]
        }
      ],
      "outputs": [],
      "stateMutability": "nonpayable"
    },
    {
      "type": "function",
      "name": "createOperatorDirectedAVSRewardsSubmission",
      "inputs": [
        {
          "name": "avs",
          "type": "address",
          "internalType": "address"
        },
        {
          "name": "operatorDirectedRewardsSubmissions",
          "type": "tuple[]",
          "internalType": "struct IRewardsCoordinatorTypes.OperatorDirectedRewardsSubmission[]",
          "components": [
            {
              "name": "strategiesAndMultipliers",
              "type": "tuple[]",
              "internalType": "struct IRewardsCoordinatorTypes.StrategyAndMultiplier[]",
              "components": [
                {
                  "name": "strategy",
                  "type": "address",
                  "internalType": "contract IStrategy"
                },
                {
                  "name": "multiplier",
                  "type": "uint96",
                  "internalType": "uint96"
                }
              ]
            },
            {
              "name": "token",
              "type": "address",
              "internalType": "contract IERC20"
            },
            {
              "name": "operatorRewards",
              "type": "tuple[]",
              "internalType": "struct IRewardsCoordinatorTypes.OperatorReward[]",
              "components": [
                {
                  "name": "operator",
                  "type": "address",
                  "internalType": "address"
                },
                {
                  "name": "amount",
                  "type": "uint256",
                  "internalType": "uint256"
                }
              ]
            },
            {
              "name": "startTimestamp",
              "type": "uint32",
              "internalType": "uint32"
            },
            {
              "name": "duration",
              "type": "uint32",
              "internalType": "uint32"
            },
            {
              "name": "description",
              "type": "string",
              "internalType": "string"
            }
          ]
        }
      ],
      "outputs": [],
      "stateMutability": "nonpayable"
    },
    {
      "type": "function",
      "name": "createOperatorDirectedOperatorSetRewardsSubmission",
      "inputs": [
        {
          "name": "operatorSet",
          "type": "tuple",
          "internalType": "struct OperatorSet",
          "components": [
            {
              "name": "avs",
              "type": "address",
              "internalType": "address"
            },
            {
              "name": "id",
              "type": "uint32",
              "internalType": "uint32"
            }
          ]
        },
        {
          "name": "operatorDirectedRewardsSubmissions",
          "type": "tuple[]",
          "internalType": "struct IRewardsCoordinatorTypes.OperatorDirectedRewardsSubmission[]",
          "components": [
            {
              "name": "strategiesAndMultipliers",
              "type": "tuple[]",
              "internalType": "struct IRewardsCoordinatorTypes.StrategyAndMultiplier[]",
              "components": [
                {
                  "name": "strategy",
                  "type": "address",
                  "internalType": "contract IStrategy"
                },
                {
                  "name": "multiplier",
                  "type": "uint96",
                  "internalType": "uint96"
                }
              ]
            },
            {
              "name": "token",
              "type": "address",
              "internalType": "contract IERC20"
            },
            {
              "name": "operatorRewards",
              "type": "tuple[]",
              "internalType": "struct IRewardsCoordinatorTypes.OperatorReward[]",
              "components": [
                {
                  "name": "operator",
                  "type": "address",
                  "internalType": "address"
                },
                {
                  "name": "amount",
                  "type": "uint256",
                  "internalType": "uint256"
                }
              ]
            },
            {
              "name": "startTimestamp",
              "type": "uint32",
              "internalType": "uint32"
            },
            {
              "name": "duration",
              "type": "uint32",
              "internalType": "uint32"
            },
            {
              "name": "description",
              "type": "string",
              "internalType": "string"
            }
          ]
        }
      ],
      "outputs": [],
      "stateMutability": "nonpayable"
    },
    {
      "type": "function",
      "name": "createRewardsForAllEarners",
      "inputs": [
        {
          "name": "rewardsSubmissions",
          "type": "tuple[]",
          "internalType": "struct IRewardsCoordinatorTypes.RewardsSubmission[]",
          "components": [
            {
              "name": "strategiesAndMultipliers",
              "type": "tuple[]",
              "internalType": "struct IRewardsCoordinatorTypes.StrategyAndMultiplier[]",
              "components": [
                {
                  "name": "strategy",
                  "type": "address",
                  "internalType": "contract IStrategy"
                },
                {
                  "name": "multiplier",
                  "type": "uint96",
                  "internalType": "uint96"
                }
              ]
            },
            {
              "name": "token",
              "type": "address",
              "internalType": "contract IERC20"
            },
            {
              "name": "amount",
              "type": "uint256",
              "internalType": "uint256"
            },
            {
              "name": "startTimestamp",
              "type": "uint32",
              "internalType": "uint32"
            },
            {
              "name": "duration",
              "type": "uint32",
              "internalType": "uint32"
            }
          ]
        }
      ],
      "outputs": [],
      "stateMutability": "nonpayable"
    },
    {
      "type": "function",
      "name": "createRewardsForAllSubmission",
      "inputs": [
        {
          "name": "rewardsSubmissions",
          "type": "tuple[]",
          "internalType": "struct IRewardsCoordinatorTypes.RewardsSubmission[]",
          "components": [
            {
              "name": "strategiesAndMultipliers",
              "type": "tuple[]",
              "internalType": "struct IRewardsCoordinatorTypes.StrategyAndMultiplier[]",
              "components": [
                {
                  "name": "strategy",
                  "type": "address",
                  "internalType": "contract IStrategy"
                },
                {
                  "name": "multiplier",
                  "type": "uint96",
                  "internalType": "uint96"
                }
              ]
            },
            {
              "name": "token",
              "type": "address",
              "internalType": "contract IERC20"
            },
            {
              "name": "amount",
              "type": "uint256",
              "internalType": "uint256"
            },
            {
              "name": "startTimestamp",
              "type": "uint32",
              "internalType": "uint32"
            },
            {
              "name": "duration",
              "type": "uint32",
              "internalType": "uint32"
            }
          ]
        }
      ],
      "outputs": [],
      "stateMutability": "nonpayable"
    },
    {
      "type": "function",
      "name": "createTotalStakeRewardsSubmission",
      "inputs": [
        {
          "name": "operatorSet",
          "type": "tuple",
          "internalType": "struct OperatorSet",
          "components": [
            {
              "name": "avs",
              "type": "address",
              "internalType": "address"
            },
            {
              "name": "id",
              "type": "uint32",
              "internalType": "uint32"
            }
          ]
        },
        {
          "name": "rewardsSubmissions",
          "type": "tuple[]",
          "internalType": "struct IRewardsCoordinatorTypes.RewardsSubmission[]",
          "components": [
            {
              "name": "strategiesAndMultipliers",
              "type": "tuple[]",
              "internalType": "struct IRewardsCoordinatorTypes.StrategyAndMultiplier[]",
              "components": [
                {
                  "name": "strategy",
                  "type": "address",
                  "internalType": "contract IStrategy"
                },
                {
                  "name": "multiplier",
                  "type": "uint96",
                  "internalType": "uint96"
                }
              ]
            },
            {
              "name": "token",
              "type": "address",
              "internalType": "contract IERC20"
            },
            {
              "name": "amount",
              "type": "uint256",
              "internalType": "uint256"
            },
            {
              "name": "startTimestamp",
              "type": "uint32",
              "internalType": "uint32"
            },
            {
              "name": "duration",
              "type": "uint32",
              "internalType": "uint32"
            }
          ]
        }
      ],
      "outputs": [],
      "stateMutability": "nonpayable"
    },
    {
      "type": "function",
      "name": "createUniqueStakeRewardsSubmission",
      "inputs": [
        {
          "name": "operatorSet",
          "type": "tuple",
          "internalType": "struct OperatorSet",
          "components": [
            {
              "name": "avs",
              "type": "address",
              "internalType": "address"
            },
            {
              "name": "id",
              "type": "uint32",
              "internalType": "uint32"
            }
          ]
        },
        {
          "name": "rewardsSubmissions",
          "type": "tuple[]",
          "internalType": "struct IRewardsCoordinatorTypes.RewardsSubmission[]",
          "components": [
            {
              "name": "strategiesAndMultipliers",
              "type": "tuple[]",
              "internalType": "struct IRewardsCoordinatorTypes.StrategyAndMultiplier[]",
              "components": [
                {
                  "name": "strategy",
                  "type": "address",
                  "internalType": "contract IStrategy"
                },
                {
                  "name": "multiplier",
                  "type": "uint96",
                  "internalType": "uint96"
                }
              ]
            },
            {
              "name": "token",
              "type": "address",
              "internalType": "contract IERC20"
            },
            {
              "name": "amount",
              "type": "uint256",
              "internalType": "uint256"
            },
            {
              "name": "startTimestamp",
              "type": "uint32",
              "internalType": "uint32"
            },
            {
              "name": "duration",
              "type": "uint32",
              "internalType": "uint32"
            }
          ]
        }
      ],
      "outputs": [],
      "stateMutability": "nonpayable"
    },
    {
      "type": "function",
      "name": "cumulativeClaimed",
      "inputs": [
        {
          "name": "earner",
          "type": "address",
          "internalType": "address"
        },
        {
          "name": "token",
          "type": "address",
          "internalType": "contract IERC20"
        }
      ],
      "outputs": [
        {
          "name": "totalClaimed",
          "type": "uint256",
          "internalType": "uint256"
        }
      ],
      "stateMutability": "view"
    },
    {
      "type": "function",
      "name": "currRewardsCalculationEndTimestamp",
      "inputs": [],
      "outputs": [
        {
          "name": "",
          "type": "uint32",
          "internalType": "uint32"
        }
      ],
      "stateMutability": "view"
    },
    {
      "type": "function",
      "name": "defaultOperatorSplitBips",
      "inputs": [],
      "outputs": [
        {
          "name": "",
          "type": "uint16",
          "internalType": "uint16"
        }
      ],
      "stateMutability": "view"
    },
    {
      "type": "function",
      "name": "delegationManager",
      "inputs": [],
      "outputs": [
        {
          "name": "",
          "type": "address",
          "internalType": "contract IDelegationManager"
        }
      ],
      "stateMutability": "view"
    },
    {
      "type": "function",
      "name": "disableRoot",
      "inputs": [
        {
          "name": "rootIndex",
          "type": "uint32",
          "internalType": "uint32"
        }
      ],
      "outputs": [],
      "stateMutability": "nonpayable"
    },
    {
      "type": "function",
      "name": "feeRecipient",
      "inputs": [],
      "outputs": [
        {
          "name": "",
          "type": "address",
          "internalType": "address"
        }
      ],
      "stateMutability": "view"
    },
    {
      "type": "function",
      "name": "getCurrentClaimableDistributionRoot",
      "inputs": [],
      "outputs": [
        {
          "name": "",
          "type": "tuple",
          "internalType": "struct IRewardsCoordinatorTypes.DistributionRoot",
          "components": [
            {
              "name": "root",
              "type": "bytes32",
              "internalType": "bytes32"
            },
            {
              "name": "rewardsCalculationEndTimestamp",
              "type": "uint32",
              "internalType": "uint32"
            },
            {
              "name": "activatedAt",
              "type": "uint32",
              "internalType": "uint32"
            },
            {
              "name": "disabled",
              "type": "bool",
              "internalType": "bool"
            }
          ]
        }
      ],
      "stateMutability": "view"
    },
    {
      "type": "function",
      "name": "getCurrentDistributionRoot",
      "inputs": [],
      "outputs": [
        {
          "name": "",
          "type": "tuple",
          "internalType": "struct IRewardsCoordinatorTypes.DistributionRoot",
          "components": [
            {
              "name": "root",
              "type": "bytes32",
              "internalType": "bytes32"
            },
            {
              "name": "rewardsCalculationEndTimestamp",
              "type": "uint32",
              "internalType": "uint32"
            },
            {
              "name": "activatedAt",
              "type": "uint32",
              "internalType": "uint32"
            },
            {
              "name": "disabled",
              "type": "bool",
              "internalType": "bool"
            }
          ]
        }
      ],
      "stateMutability": "view"
    },
    {
      "type": "function",
      "name": "getDistributionRootAtIndex",
      "inputs": [
        {
          "name": "index",
          "type": "uint256",
          "internalType": "uint256"
        }
      ],
      "outputs": [
        {
          "name": "",
          "type": "tuple",
          "internalType": "struct IRewardsCoordinatorTypes.DistributionRoot",
          "components": [
            {
              "name": "root",
              "type": "bytes32",
              "internalType": "bytes32"
            },
            {
              "name": "rewardsCalculationEndTimestamp",
              "type": "uint32",
              "internalType": "uint32"
            },
            {
              "name": "activatedAt",
              "type": "uint32",
              "internalType": "uint32"
            },
            {
              "name": "disabled",
              "type": "bool",
              "internalType": "bool"
            }
          ]
        }
      ],
      "stateMutability": "view"
    },
    {
      "type": "function",
      "name": "getDistributionRootsLength",
      "inputs": [],
      "outputs": [
        {
          "name": "",
          "type": "uint256",
          "internalType": "uint256"
        }
      ],
      "stateMutability": "view"
    },
    {
      "type": "function",
      "name": "getOperatorAVSSplit",
      "inputs": [
        {
          "name": "operator",
          "type": "address",
          "internalType": "address"
        },
        {
          "name": "avs",
          "type": "address",
          "internalType": "address"
        }
      ],
      "outputs": [
        {
          "name": "",
          "type": "uint16",
          "internalType": "uint16"
        }
      ],
      "stateMutability": "view"
    },
    {
      "type": "function",
      "name": "getOperatorPISplit",
      "inputs": [
        {
          "name": "operator",
          "type": "address",
          "internalType": "address"
        }
      ],
      "outputs": [
        {
          "name": "",
          "type": "uint16",
          "internalType": "uint16"
        }
      ],
      "stateMutability": "view"
    },
    {
      "type": "function",
      "name": "getOperatorSetSplit",
      "inputs": [
        {
          "name": "operator",
          "type": "address",
          "internalType": "address"
        },
        {
          "name": "operatorSet",
          "type": "tuple",
          "internalType": "struct OperatorSet",
          "components": [
            {
              "name": "avs",
              "type": "address",
              "internalType": "address"
            },
            {
              "name": "id",
              "type": "uint32",
              "internalType": "uint32"
            }
          ]
        }
      ],
      "outputs": [
        {
          "name": "",
          "type": "uint16",
          "internalType": "uint16"
        }
      ],
      "stateMutability": "view"
    },
    {
      "type": "function",
      "name": "getRootIndexFromHash",
      "inputs": [
        {
          "name": "rootHash",
          "type": "bytes32",
          "internalType": "bytes32"
        }
      ],
      "outputs": [
        {
          "name": "",
          "type": "uint32",
          "internalType": "uint32"
        }
      ],
      "stateMutability": "view"
    },
    {
      "type": "function",
      "name": "initialize",
      "inputs": [
        {
          "name": "initialOwner",
          "type": "address",
          "internalType": "address"
        },
        {
          "name": "initialPausedStatus",
          "type": "uint256",
          "internalType": "uint256"
        },
        {
          "name": "_rewardsUpdater",
          "type": "address",
          "internalType": "address"
        },
        {
          "name": "_activationDelay",
          "type": "uint32",
          "internalType": "uint32"
        },
        {
          "name": "_defaultSplitBips",
          "type": "uint16",
          "internalType": "uint16"
        },
        {
          "name": "_feeRecipient",
          "type": "address",
          "internalType": "address"
        }
      ],
      "outputs": [],
      "stateMutability": "nonpayable"
    },
    {
      "type": "function",
      "name": "isAVSRewardsSubmissionHash",
      "inputs": [
        {
          "name": "avs",
          "type": "address",
          "internalType": "address"
        },
        {
          "name": "hash",
          "type": "bytes32",
          "internalType": "bytes32"
        }
      ],
      "outputs": [
        {
          "name": "valid",
          "type": "bool",
          "internalType": "bool"
        }
      ],
      "stateMutability": "view"
    },
    {
      "type": "function",
      "name": "isOperatorDirectedAVSRewardsSubmissionHash",
      "inputs": [
        {
          "name": "avs",
          "type": "address",
          "internalType": "address"
        },
        {
          "name": "hash",
          "type": "bytes32",
          "internalType": "bytes32"
        }
      ],
      "outputs": [
        {
          "name": "valid",
          "type": "bool",
          "internalType": "bool"
        }
      ],
      "stateMutability": "view"
    },
    {
      "type": "function",
      "name": "isOperatorDirectedOperatorSetRewardsSubmissionHash",
      "inputs": [
        {
          "name": "avs",
          "type": "address",
          "internalType": "address"
        },
        {
          "name": "hash",
          "type": "bytes32",
          "internalType": "bytes32"
        }
      ],
      "outputs": [
        {
          "name": "valid",
          "type": "bool",
          "internalType": "bool"
        }
      ],
      "stateMutability": "view"
    },
    {
      "type": "function",
      "name": "isOptedInForProtocolFee",
      "inputs": [
        {
          "name": "submitter",
          "type": "address",
          "internalType": "address"
        }
      ],
      "outputs": [
        {
          "name": "isOptedIn",
          "type": "bool",
          "internalType": "bool"
        }
      ],
      "stateMutability": "view"
    },
    {
      "type": "function",
      "name": "isRewardsForAllSubmitter",
      "inputs": [
        {
          "name": "submitter",
          "type": "address",
          "internalType": "address"
        }
      ],
      "outputs": [
        {
          "name": "valid",
          "type": "bool",
          "internalType": "bool"
        }
      ],
      "stateMutability": "view"
    },
    {
      "type": "function",
      "name": "isRewardsSubmissionForAllEarnersHash",
      "inputs": [
        {
          "name": "avs",
          "type": "address",
          "internalType": "address"
        },
        {
          "name": "hash",
          "type": "bytes32",
          "internalType": "bytes32"
        }
      ],
      "outputs": [
        {
          "name": "valid",
          "type": "bool",
          "internalType": "bool"
        }
      ],
      "stateMutability": "view"
    },
    {
      "type": "function",
      "name": "isRewardsSubmissionForAllHash",
      "inputs": [
        {
          "name": "avs",
          "type": "address",
          "internalType": "address"
        },
        {
          "name": "hash",
          "type": "bytes32",
          "internalType": "bytes32"
        }
      ],
      "outputs": [
        {
          "name": "valid",
          "type": "bool",
          "internalType": "bool"
        }
      ],
      "stateMutability": "view"
    },
    {
      "type": "function",
      "name": "isTotalStakeRewardsSubmissionHash",
      "inputs": [
        {
          "name": "avs",
          "type": "address",
          "internalType": "address"
        },
        {
          "name": "hash",
          "type": "bytes32",
          "internalType": "bytes32"
        }
      ],
      "outputs": [
        {
          "name": "valid",
          "type": "bool",
          "internalType": "bool"
        }
      ],
      "stateMutability": "view"
    },
    {
      "type": "function",
      "name": "isUniqueStakeRewardsSubmissionHash",
      "inputs": [
        {
          "name": "avs",
          "type": "address",
          "internalType": "address"
        },
        {
          "name": "hash",
          "type": "bytes32",
          "internalType": "bytes32"
        }
      ],
      "outputs": [
        {
          "name": "valid",
          "type": "bool",
          "internalType": "bool"
        }
      ],
      "stateMutability": "view"
    },
    {
      "type": "function",
      "name": "owner",
      "inputs": [],
      "outputs": [
        {
          "name": "",
          "type": "address",
          "internalType": "address"
        }
      ],
      "stateMutability": "view"
    },
    {
      "type": "function",
      "name": "pause",
      "inputs": [
        {
          "name": "newPausedStatus",
          "type": "uint256",
          "internalType": "uint256"
        }
      ],
      "outputs": [],
      "stateMutability": "nonpayable"
    },
    {
      "type": "function",
      "name": "pauseAll",
      "inputs": [],
      "outputs": [],
      "stateMutability": "nonpayable"
    },
    {
      "type": "function",
      "name": "paused",
      "inputs": [
        {
          "name": "index",
          "type": "uint8",
          "internalType": "uint8"
        }
      ],
      "outputs": [
        {
          "name": "",
          "type": "bool",
          "internalType": "bool"
        }
      ],
      "stateMutability": "view"
    },
    {
      "type": "function",
      "name": "paused",
      "inputs": [],
      "outputs": [
        {
          "name": "",
          "type": "uint256",
          "internalType": "uint256"
        }
      ],
      "stateMutability": "view"
    },
    {
      "type": "function",
      "name": "pauserRegistry",
      "inputs": [],
      "outputs": [
        {
          "name": "",
          "type": "address",
          "internalType": "contract IPauserRegistry"
        }
      ],
      "stateMutability": "view"
    },
    {
      "type": "function",
      "name": "permissionController",
      "inputs": [],
      "outputs": [
        {
          "name": "",
          "type": "address",
          "internalType": "contract IPermissionController"
        }
      ],
      "stateMutability": "view"
    },
    {
      "type": "function",
      "name": "processClaim",
      "inputs": [
        {
          "name": "claim",
          "type": "tuple",
          "internalType": "struct IRewardsCoordinatorTypes.RewardsMerkleClaim",
          "components": [
            {
              "name": "rootIndex",
              "type": "uint32",
              "internalType": "uint32"
            },
            {
              "name": "earnerIndex",
              "type": "uint32",
              "internalType": "uint32"
            },
            {
              "name": "earnerTreeProof",
              "type": "bytes",
              "internalType": "bytes"
            },
            {
              "name": "earnerLeaf",
              "type": "tuple",
              "internalType": "struct IRewardsCoordinatorTypes.EarnerTreeMerkleLeaf",
              "components": [
                {
                  "name": "earner",
                  "type": "address",
                  "internalType": "address"
                },
                {
                  "name": "earnerTokenRoot",
                  "type": "bytes32",
                  "internalType": "bytes32"
                }
              ]
            },
            {
              "name": "tokenIndices",
              "type": "uint32[]",
              "internalType": "uint32[]"
            },
            {
              "name": "tokenTreeProofs",
              "type": "bytes[]",
              "internalType": "bytes[]"
            },
            {
              "name": "tokenLeaves",
              "type": "tuple[]",
              "internalType": "struct IRewardsCoordinatorTypes.TokenTreeMerkleLeaf[]",
              "components": [
                {
                  "name": "token",
                  "type": "address",
                  "internalType": "contract IERC20"
                },
                {
                  "name": "cumulativeEarnings",
                  "type": "uint256",
                  "internalType": "uint256"
                }
              ]
            }
          ]
        },
        {
          "name": "recipient",
          "type": "address",
          "internalType": "address"
        }
      ],
      "outputs": [],
      "stateMutability": "nonpayable"
    },
    {
      "type": "function",
      "name": "processClaims",
      "inputs": [
        {
          "name": "claims",
          "type": "tuple[]",
          "internalType": "struct IRewardsCoordinatorTypes.RewardsMerkleClaim[]",
          "components": [
            {
              "name": "rootIndex",
              "type": "uint32",
              "internalType": "uint32"
            },
            {
              "name": "earnerIndex",
              "type": "uint32",
              "internalType": "uint32"
            },
            {
              "name": "earnerTreeProof",
              "type": "bytes",
              "internalType": "bytes"
            },
            {
              "name": "earnerLeaf",
              "type": "tuple",
              "internalType": "struct IRewardsCoordinatorTypes.EarnerTreeMerkleLeaf",
              "components": [
                {
                  "name": "earner",
                  "type": "address",
                  "internalType": "address"
                },
                {
                  "name": "earnerTokenRoot",
                  "type": "bytes32",
                  "internalType": "bytes32"
                }
              ]
            },
            {
              "name": "tokenIndices",
              "type": "uint32[]",
              "internalType": "uint32[]"
            },
            {
              "name": "tokenTreeProofs",
              "type": "bytes[]",
              "internalType": "bytes[]"
            },
            {
              "name": "tokenLeaves",
              "type": "tuple[]",
              "internalType": "struct IRewardsCoordinatorTypes.TokenTreeMerkleLeaf[]",
              "components": [
                {
                  "name": "token",
                  "type": "address",
                  "internalType": "contract IERC20"
                },
                {
                  "name": "cumulativeEarnings",
                  "type": "uint256",
                  "internalType": "uint256"
                }
              ]
            }
          ]
        },
        {
          "name": "recipient",
          "type": "address",
          "internalType": "address"
        }
      ],
      "outputs": [],
      "stateMutability": "nonpayable"
    },
    {
      "type": "function",
      "name": "renounceOwnership",
      "inputs": [],
      "outputs": [],
      "stateMutability": "nonpayable"
    },
    {
      "type": "function",
      "name": "rewardsUpdater",
      "inputs": [],
      "outputs": [
        {
          "name": "",
          "type": "address",
          "internalType": "address"
        }
      ],
      "stateMutability": "view"
    },
    {
      "type": "function",
      "name": "setActivationDelay",
      "inputs": [
        {
          "name": "_activationDelay",
          "type": "uint32",
          "internalType": "uint32"
        }
      ],
      "outputs": [],
      "stateMutability": "nonpayable"
    },
    {
      "type": "function",
      "name": "setClaimerFor",
      "inputs": [
        {
          "name": "claimer",
          "type": "address",
          "internalType": "address"
        }
      ],
      "outputs": [],
      "stateMutability": "nonpayable"
    },
    {
      "type": "function",
      "name": "setClaimerFor",
      "inputs": [
        {
          "name": "earner",
          "type": "address",
          "internalType": "address"
        },
        {
          "name": "claimer",
          "type": "address",
          "internalType": "address"
        }
      ],
      "outputs": [],
      "stateMutability": "nonpayable"
    },
    {
      "type": "function",
      "name": "setDefaultOperatorSplit",
      "inputs": [
        {
          "name": "split",
          "type": "uint16",
          "internalType": "uint16"
        }
      ],
      "outputs": [],
      "stateMutability": "nonpayable"
    },
    {
      "type": "function",
      "name": "setFeeRecipient",
      "inputs": [
        {
          "name": "_feeRecipient",
          "type": "address",
          "internalType": "address"
        }
      ],
      "outputs": [],
      "stateMutability": "nonpayable"
    },
    {
      "type": "function",
      "name": "setOperatorAVSSplit",
      "inputs": [
        {
          "name": "operator",
          "type": "address",
          "internalType": "address"
        },
        {
          "name": "avs",
          "type": "address",
          "internalType": "address"
        },
        {
          "name": "split",
          "type": "uint16",
          "internalType": "uint16"
        }
      ],
      "outputs": [],
      "stateMutability": "nonpayable"
    },
    {
      "type": "function",
      "name": "setOperatorPISplit",
      "inputs": [
        {
          "name": "operator",
          "type": "address",
          "internalType": "address"
        },
        {
          "name": "split",
          "type": "uint16",
          "internalType": "uint16"
        }
      ],
      "outputs": [],
      "stateMutability": "nonpayable"
    },
    {
      "type": "function",
      "name": "setOperatorSetSplit",
      "inputs": [
        {
          "name": "operator",
          "type": "address",
          "internalType": "address"
        },
        {
          "name": "operatorSet",
          "type": "tuple",
          "internalType": "struct OperatorSet",
          "components": [
            {
              "name": "avs",
              "type": "address",
              "internalType": "address"
            },
            {
              "name": "id",
              "type": "uint32",
              "internalType": "uint32"
            }
          ]
        },
        {
          "name": "split",
          "type": "uint16",
          "internalType": "uint16"
        }
      ],
      "outputs": [],
      "stateMutability": "nonpayable"
    },
    {
      "type": "function",
      "name": "setOptInForProtocolFee",
      "inputs": [
        {
          "name": "submitter",
          "type": "address",
          "internalType": "address"
        },
        {
          "name": "optInForProtocolFee",
          "type": "bool",
          "internalType": "bool"
        }
      ],
      "outputs": [],
      "stateMutability": "nonpayable"
    },
    {
      "type": "function",
      "name": "setRewardsForAllSubmitter",
      "inputs": [
        {
          "name": "_submitter",
          "type": "address",
          "internalType": "address"
        },
        {
          "name": "_newValue",
          "type": "bool",
          "internalType": "bool"
        }
      ],
      "outputs": [],
      "stateMutability": "nonpayable"
    },
    {
      "type": "function",
      "name": "setRewardsUpdater",
      "inputs": [
        {
          "name": "_rewardsUpdater",
          "type": "address",
          "internalType": "address"
        }
      ],
      "outputs": [],
      "stateMutability": "nonpayable"
    },
    {
      "type": "function",
      "name": "strategyManager",
      "inputs": [],
      "outputs": [
        {
          "name": "",
          "type": "address",
          "internalType": "contract IStrategyManager"
        }
      ],
      "stateMutability": "view"
    },
    {
      "type": "function",
      "name": "submissionNonce",
      "inputs": [
        {
          "name": "avs",
          "type": "address",
          "internalType": "address"
        }
      ],
      "outputs": [
        {
          "name": "nonce",
          "type": "uint256",
          "internalType": "uint256"
        }
      ],
      "stateMutability": "view"
    },
    {
      "type": "function",
      "name": "submitRoot",
      "inputs": [
        {
          "name": "root",
          "type": "bytes32",
          "internalType": "bytes32"
        },
        {
          "name": "rewardsCalculationEndTimestamp",
          "type": "uint32",
          "internalType": "uint32"
        }
      ],
      "outputs": [],
      "stateMutability": "nonpayable"
    },
    {
      "type": "function",
      "name": "transferOwnership",
      "inputs": [
        {
          "name": "newOwner",
          "type": "address",
          "internalType": "address"
        }
      ],
      "outputs": [],
      "stateMutability": "nonpayable"
    },
    {
      "type": "function",
      "name": "unpause",
      "inputs": [
        {
          "name": "newPausedStatus",
          "type": "uint256",
          "internalType": "uint256"
        }
      ],
      "outputs": [],
      "stateMutability": "nonpayable"
    },
    {
      "type": "event",
      "name": "AVSRewardsSubmissionCreated",
      "inputs": [
        {
          "name": "avs",
          "type": "address",
          "indexed": true,
          "internalType": "address"
        },
        {
          "name": "submissionNonce",
          "type": "uint256",
          "indexed": true,
          "internalType": "uint256"
        },
        {
          "name": "rewardsSubmissionHash",
          "type": "bytes32",
          "indexed": true,
          "internalType": "bytes32"
        },
        {
          "name": "rewardsSubmission",
          "type": "tuple",
          "indexed": false,
          "internalType": "struct IRewardsCoordinatorTypes.RewardsSubmission",
          "components": [
            {
              "name": "strategiesAndMultipliers",
              "type": "tuple[]",
              "internalType": "struct IRewardsCoordinatorTypes.StrategyAndMultiplier[]",
              "components": [
                {
                  "name": "strategy",
                  "type": "address",
                  "internalType": "contract IStrategy"
                },
                {
                  "name": "multiplier",
                  "type": "uint96",
                  "internalType": "uint96"
                }
              ]
            },
            {
              "name": "token",
              "type": "address",
              "internalType": "contract IERC20"
            },
            {
              "name": "amount",
              "type": "uint256",
              "internalType": "uint256"
            },
            {
              "name": "startTimestamp",
              "type": "uint32",
              "internalType": "uint32"
            },
            {
              "name": "duration",
              "type": "uint32",
              "internalType": "uint32"
            }
          ]
        }
      ],
      "anonymous": false
    },
    {
      "type": "event",
      "name": "ActivationDelaySet",
      "inputs": [
        {
          "name": "oldActivationDelay",
          "type": "uint32",
          "indexed": false,
          "internalType": "uint32"
        },
        {
          "name": "newActivationDelay",
          "type": "uint32",
          "indexed": false,
          "internalType": "uint32"
        }
      ],
      "anonymous": false
    },
    {
      "type": "event",
      "name": "ClaimerForSet",
      "inputs": [
        {
          "name": "earner",
          "type": "address",
          "indexed": true,
          "internalType": "address"
        },
        {
          "name": "oldClaimer",
          "type": "address",
          "indexed": true,
          "internalType": "address"
        },
        {
          "name": "claimer",
          "type": "address",
          "indexed": true,
          "internalType": "address"
        }
      ],
      "anonymous": false
    },
    {
      "type": "event",
      "name": "DefaultOperatorSplitBipsSet",
      "inputs": [
        {
          "name": "oldDefaultOperatorSplitBips",
          "type": "uint16",
          "indexed": false,
          "internalType": "uint16"
        },
        {
          "name": "newDefaultOperatorSplitBips",
          "type": "uint16",
          "indexed": false,
          "internalType": "uint16"
        }
      ],
      "anonymous": false
    },
    {
      "type": "event",
      "name": "DistributionRootDisabled",
      "inputs": [
        {
          "name": "rootIndex",
          "type": "uint32",
          "indexed": true,
          "internalType": "uint32"
        }
      ],
      "anonymous": false
    },
    {
      "type": "event",
      "name": "DistributionRootSubmitted",
      "inputs": [
        {
          "name": "rootIndex",
          "type": "uint32",
          "indexed": true,
          "internalType": "uint32"
        },
        {
          "name": "root",
          "type": "bytes32",
          "indexed": true,
          "internalType": "bytes32"
        },
        {
          "name": "rewardsCalculationEndTimestamp",
          "type": "uint32",
          "indexed": true,
          "internalType": "uint32"
        },
        {
          "name": "activatedAt",
          "type": "uint32",
          "indexed": false,
          "internalType": "uint32"
        }
      ],
      "anonymous": false
    },
    {
      "type": "event",
      "name": "FeeRecipientSet",
      "inputs": [
        {
          "name": "oldFeeRecipient",
          "type": "address",
          "indexed": true,
          "internalType": "address"
        },
        {
          "name": "newFeeRecipient",
          "type": "address",
          "indexed": true,
          "internalType": "address"
        }
      ],
      "anonymous": false
    },
    {
      "type": "event",
      "name": "Initialized",
      "inputs": [
        {
          "name": "version",
          "type": "uint8",
          "indexed": false,
          "internalType": "uint8"
        }
      ],
      "anonymous": false
    },
    {
      "type": "event",
      "name": "OperatorAVSSplitBipsSet",
      "inputs": [
        {
          "name": "caller",
          "type": "address",
          "indexed": true,
          "internalType": "address"
        },
        {
          "name": "operator",
          "type": "address",
          "indexed": true,
          "internalType": "address"
        },
        {
          "name": "avs",
          "type": "address",
          "indexed": true,
          "internalType": "address"
        },
        {
          "name": "activatedAt",
          "type": "uint32",
          "indexed": false,
          "internalType": "uint32"
        },
        {
          "name": "oldOperatorAVSSplitBips",
          "type": "uint16",
          "indexed": false,
          "internalType": "uint16"
        },
        {
          "name": "newOperatorAVSSplitBips",
          "type": "uint16",
          "indexed": false,
          "internalType": "uint16"
        }
      ],
      "anonymous": false
    },
    {
      "type": "event",
      "name": "OperatorDirectedAVSRewardsSubmissionCreated",
      "inputs": [
        {
          "name": "caller",
          "type": "address",
          "indexed": true,
          "internalType": "address"
        },
        {
          "name": "avs",
          "type": "address",
          "indexed": true,
          "internalType": "address"
        },
        {
          "name": "operatorDirectedRewardsSubmissionHash",
          "type": "bytes32",
          "indexed": true,
          "internalType": "bytes32"
        },
        {
          "name": "submissionNonce",
          "type": "uint256",
          "indexed": false,
          "internalType": "uint256"
        },
        {
          "name": "operatorDirectedRewardsSubmission",
          "type": "tuple",
          "indexed": false,
          "internalType": "struct IRewardsCoordinatorTypes.OperatorDirectedRewardsSubmission",
          "components": [
            {
              "name": "strategiesAndMultipliers",
              "type": "tuple[]",
              "internalType": "struct IRewardsCoordinatorTypes.StrategyAndMultiplier[]",
              "components": [
                {
                  "name": "strategy",
                  "type": "address",
                  "internalType": "contract IStrategy"
                },
                {
                  "name": "multiplier",
                  "type": "uint96",
                  "internalType": "uint96"
                }
              ]
            },
            {
              "name": "token",
              "type": "address",
              "internalType": "contract IERC20"
            },
            {
              "name": "operatorRewards",
              "type": "tuple[]",
              "internalType": "struct IRewardsCoordinatorTypes.OperatorReward[]",
              "components": [
                {
                  "name": "operator",
                  "type": "address",
                  "internalType": "address"
                },
                {
                  "name": "amount",
                  "type": "uint256",
                  "internalType": "uint256"
                }
              ]
            },
            {
              "name": "startTimestamp",
              "type": "uint32",
              "internalType": "uint32"
            },
            {
              "name": "duration",
              "type": "uint32",
              "internalType": "uint32"
            },
            {
              "name": "description",
              "type": "string",
              "internalType": "string"
            }
          ]
        }
      ],
      "anonymous": false
    },
    {
      "type": "event",
      "name": "OperatorDirectedOperatorSetRewardsSubmissionCreated",
      "inputs": [
        {
          "name": "caller",
          "type": "address",
          "indexed": true,
          "internalType": "address"
        },
        {
          "name": "operatorDirectedRewardsSubmissionHash",
          "type": "bytes32",
          "indexed": true,
          "internalType": "bytes32"
        },
        {
          "name": "operatorSet",
          "type": "tuple",
          "indexed": false,
          "internalType": "struct OperatorSet",
          "components": [
            {
              "name": "avs",
              "type": "address",
              "internalType": "address"
            },
            {
              "name": "id",
              "type": "uint32",
              "internalType": "uint32"
            }
          ]
        },
        {
          "name": "submissionNonce",
          "type": "uint256",
          "indexed": false,
          "internalType": "uint256"
        },
        {
          "name": "operatorDirectedRewardsSubmission",
          "type": "tuple",
          "indexed": false,
          "internalType": "struct IRewardsCoordinatorTypes.OperatorDirectedRewardsSubmission",
          "components": [
            {
              "name": "strategiesAndMultipliers",
              "type": "tuple[]",
              "internalType": "struct IRewardsCoordinatorTypes.StrategyAndMultiplier[]",
              "components": [
                {
                  "name": "strategy",
                  "type": "address",
                  "internalType": "contract IStrategy"
                },
                {
                  "name": "multiplier",
                  "type": "uint96",
                  "internalType": "uint96"
                }
              ]
            },
            {
              "name": "token",
              "type": "address",
              "internalType": "contract IERC20"
            },
            {
              "name": "operatorRewards",
              "type": "tuple[]",
              "internalType": "struct IRewardsCoordinatorTypes.OperatorReward[]",
              "components": [
                {
                  "name": "operator",
                  "type": "address",
                  "internalType": "address"
                },
                {
                  "name": "amount",
                  "type": "uint256",
                  "internalType": "uint256"
                }
              ]
            },
            {
              "name": "startTimestamp",
              "type": "uint32",
              "internalType": "uint32"
            },
            {
              "name": "duration",
              "type": "uint32",
              "internalType": "uint32"
            },
            {
              "name": "description",
              "type": "string",
              "internalType": "string"
            }
          ]
        }
      ],
      "anonymous": false
    },
    {
      "type": "event",
      "name": "OperatorPISplitBipsSet",
      "inputs": [
        {
          "name": "caller",
          "type": "address",
          "indexed": true,
          "internalType": "address"
        },
        {
          "name": "operator",
          "type": "address",
          "indexed": true,
          "internalType": "address"
        },
        {
          "name": "activatedAt",
          "type": "uint32",
          "indexed": false,
          "internalType": "uint32"
        },
        {
          "name": "oldOperatorPISplitBips",
          "type": "uint16",
          "indexed": false,
          "internalType": "uint16"
        },
        {
          "name": "newOperatorPISplitBips",
          "type": "uint16",
          "indexed": false,
          "internalType": "uint16"
        }
      ],
      "anonymous": false
    },
    {
      "type": "event",
      "name": "OperatorSetSplitBipsSet",
      "inputs": [
        {
          "name": "caller",
          "type": "address",
          "indexed": true,
          "internalType": "address"
        },
        {
          "name": "operator",
          "type": "address",
          "indexed": true,
          "internalType": "address"
        },
        {
          "name": "operatorSet",
          "type": "tuple",
          "indexed": false,
          "internalType": "struct OperatorSet",
          "components": [
            {
              "name": "avs",
              "type": "address",
              "internalType": "address"
            },
            {
              "name": "id",
              "type": "uint32",
              "internalType": "uint32"
            }
          ]
        },
        {
          "name": "activatedAt",
          "type": "uint32",
          "indexed": false,
          "internalType": "uint32"
        },
        {
          "name": "oldOperatorSetSplitBips",
          "type": "uint16",
          "indexed": false,
          "internalType": "uint16"
        },
        {
          "name": "newOperatorSetSplitBips",
          "type": "uint16",
          "indexed": false,
          "internalType": "uint16"
        }
      ],
      "anonymous": false
    },
    {
      "type": "event",
      "name": "OptInForProtocolFeeSet",
      "inputs": [
        {
          "name": "submitter",
          "type": "address",
          "indexed": true,
          "internalType": "address"
        },
        {
          "name": "oldValue",
          "type": "bool",
          "indexed": true,
          "internalType": "bool"
        },
        {
          "name": "newValue",
          "type": "bool",
          "indexed": true,
          "internalType": "bool"
        }
      ],
      "anonymous": false
    },
    {
      "type": "event",
      "name": "OwnershipTransferred",
      "inputs": [
        {
          "name": "previousOwner",
          "type": "address",
          "indexed": true,
          "internalType": "address"
        },
        {
          "name": "newOwner",
          "type": "address",
          "indexed": true,
          "internalType": "address"
        }
      ],
      "anonymous": false
    },
    {
      "type": "event",
      "name": "Paused",
      "inputs": [
        {
          "name": "account",
          "type": "address",
          "indexed": true,
          "internalType": "address"
        },
        {
          "name": "newPausedStatus",
          "type": "uint256",
          "indexed": false,
          "internalType": "uint256"
        }
      ],
      "anonymous": false
    },
    {
      "type": "event",
      "name": "RewardsClaimed",
      "inputs": [
        {
          "name": "root",
          "type": "bytes32",
          "indexed": false,
          "internalType": "bytes32"
        },
        {
          "name": "earner",
          "type": "address",
          "indexed": true,
          "internalType": "address"
        },
        {
          "name": "claimer",
          "type": "address",
          "indexed": true,
          "internalType": "address"
        },
        {
          "name": "recipient",
          "type": "address",
          "indexed": true,
          "internalType": "address"
        },
        {
          "name": "token",
          "type": "address",
          "indexed": false,
          "internalType": "contract IERC20"
        },
        {
          "name": "claimedAmount",
          "type": "uint256",
          "indexed": false,
          "internalType": "uint256"
        }
      ],
      "anonymous": false
    },
    {
      "type": "event",
      "name": "RewardsForAllSubmitterSet",
      "inputs": [
        {
          "name": "rewardsForAllSubmitter",
          "type": "address",
          "indexed": true,
          "internalType": "address"
        },
        {
          "name": "oldValue",
          "type": "bool",
          "indexed": true,
          "internalType": "bool"
        },
        {
          "name": "newValue",
          "type": "bool",
          "indexed": true,
          "internalType": "bool"
        }
      ],
      "anonymous": false
    },
    {
      "type": "event",
      "name": "RewardsSubmissionForAllCreated",
      "inputs": [
        {
          "name": "submitter",
          "type": "address",
          "indexed": true,
          "internalType": "address"
        },
        {
          "name": "submissionNonce",
          "type": "uint256",
          "indexed": true,
          "internalType": "uint256"
        },
        {
          "name": "rewardsSubmissionHash",
          "type": "bytes32",
          "indexed": true,
          "internalType": "bytes32"
        },
        {
          "name": "rewardsSubmission",
          "type": "tuple",
          "indexed": false,
          "internalType": "struct IRewardsCoordinatorTypes.RewardsSubmission",
          "components": [
            {
              "name": "strategiesAndMultipliers",
              "type": "tuple[]",
              "internalType": "struct IRewardsCoordinatorTypes.StrategyAndMultiplier[]",
              "components": [
                {
                  "name": "strategy",
                  "type": "address",
                  "internalType": "contract IStrategy"
                },
                {
                  "name": "multiplier",
                  "type": "uint96",
                  "internalType": "uint96"
                }
              ]
            },
            {
              "name": "token",
              "type": "address",
              "internalType": "contract IERC20"
            },
            {
              "name": "amount",
              "type": "uint256",
              "internalType": "uint256"
            },
            {
              "name": "startTimestamp",
              "type": "uint32",
              "internalType": "uint32"
            },
            {
              "name": "duration",
              "type": "uint32",
              "internalType": "uint32"
            }
          ]
        }
      ],
      "anonymous": false
    },
    {
      "type": "event",
      "name": "RewardsSubmissionForAllEarnersCreated",
      "inputs": [
        {
          "name": "tokenHopper",
          "type": "address",
          "indexed": true,
          "internalType": "address"
        },
        {
          "name": "submissionNonce",
          "type": "uint256",
          "indexed": true,
          "internalType": "uint256"
        },
        {
          "name": "rewardsSubmissionHash",
          "type": "bytes32",
          "indexed": true,
          "internalType": "bytes32"
        },
        {
          "name": "rewardsSubmission",
          "type": "tuple",
          "indexed": false,
          "internalType": "struct IRewardsCoordinatorTypes.RewardsSubmission",
          "components": [
            {
              "name": "strategiesAndMultipliers",
              "type": "tuple[]",
              "internalType": "struct IRewardsCoordinatorTypes.StrategyAndMultiplier[]",
              "components": [
                {
                  "name": "strategy",
                  "type": "address",
                  "internalType": "contract IStrategy"
                },
                {
                  "name": "multiplier",
                  "type": "uint96",
                  "internalType": "uint96"
                }
              ]
            },
            {
              "name": "token",
              "type": "address",
              "internalType": "contract IERC20"
            },
            {
              "name": "amount",
              "type": "uint256",
              "internalType": "uint256"
            },
            {
              "name": "startTimestamp",
              "type": "uint32",
              "internalType": "uint32"
            },
            {
              "name": "duration",
              "type": "uint32",
              "internalType": "uint32"
            }
          ]
        }
      ],
      "anonymous": false
    },
    {
      "type": "event",
      "name": "RewardsUpdaterSet",
      "inputs": [
        {
          "name": "oldRewardsUpdater",
          "type": "address",
          "indexed": true,
          "internalType": "address"
        },
        {
          "name": "newRewardsUpdater",
          "type": "address",
          "indexed": true,
          "internalType": "address"
        }
      ],
      "anonymous": false
    },
    {
      "type": "event",
      "name": "TotalStakeRewardsSubmissionCreated",
      "inputs": [
        {
          "name": "caller",
          "type": "address",
          "indexed": true,
          "internalType": "address"
        },
        {
          "name": "rewardsSubmissionHash",
          "type": "bytes32",
          "indexed": true,
          "internalType": "bytes32"
        },
        {
          "name": "operatorSet",
          "type": "tuple",
          "indexed": false,
          "internalType": "struct OperatorSet",
          "components": [
            {
              "name": "avs",
              "type": "address",
              "internalType": "address"
            },
            {
              "name": "id",
              "type": "uint32",
              "internalType": "uint32"
            }
          ]
        },
        {
          "name": "submissionNonce",
          "type": "uint256",
          "indexed": false,
          "internalType": "uint256"
        },
        {
          "name": "rewardsSubmission",
          "type": "tuple",
          "indexed": false,
          "internalType": "struct IRewardsCoordinatorTypes.RewardsSubmission",
          "components": [
            {
              "name": "strategiesAndMultipliers",
              "type": "tuple[]",
              "internalType": "struct IRewardsCoordinatorTypes.StrategyAndMultiplier[]",
              "components": [
                {
                  "name": "strategy",
                  "type": "address",
                  "internalType": "contract IStrategy"
                },
                {
                  "name": "multiplier",
                  "type": "uint96",
                  "internalType": "uint96"
                }
              ]
            },
            {
              "name": "token",
              "type": "address",
              "internalType": "contract IERC20"
            },
            {
              "name": "amount",
              "type": "uint256",
              "internalType": "uint256"
            },
            {
              "name": "startTimestamp",
              "type": "uint32",
              "internalType": "uint32"
            },
            {
              "name": "duration",
              "type": "uint32",
              "internalType": "uint32"
            }
          ]
        }
      ],
      "anonymous": false
    },
    {
      "type": "event",
      "name": "UniqueStakeRewardsSubmissionCreated",
      "inputs": [
        {
          "name": "caller",
          "type": "address",
          "indexed": true,
          "internalType": "address"
        },
        {
          "name": "rewardsSubmissionHash",
          "type": "bytes32",
          "indexed": true,
          "internalType": "bytes32"
        },
        {
          "name": "operatorSet",
          "type": "tuple",
          "indexed": false,
          "internalType": "struct OperatorSet",
          "components": [
            {
              "name": "avs",
              "type": "address",
              "internalType": "address"
            },
            {
              "name": "id",
              "type": "uint32",
              "internalType": "uint32"
            }
          ]
        },
        {
          "name": "submissionNonce",
          "type": "uint256",
          "indexed": false,
          "internalType": "uint256"
        },
        {
          "name": "rewardsSubmission",
          "type": "tuple",
          "indexed": false,
          "internalType": "struct IRewardsCoordinatorTypes.RewardsSubmission",
          "components": [
            {
              "name": "strategiesAndMultipliers",
              "type": "tuple[]",
              "internalType": "struct IRewardsCoordinatorTypes.StrategyAndMultiplier[]",
              "components": [
                {
                  "name": "strategy",
                  "type": "address",
                  "internalType": "contract IStrategy"
                },
                {
                  "name": "multiplier",
                  "type": "uint96",
                  "internalType": "uint96"
                }
              ]
            },
            {
              "name": "token",
              "type": "address",
              "internalType": "contract IERC20"
            },
            {
              "name": "amount",
              "type": "uint256",
              "internalType": "uint256"
            },
            {
              "name": "startTimestamp",
              "type": "uint32",
              "internalType": "uint32"
            },
            {
              "name": "duration",
              "type": "uint32",
              "internalType": "uint32"
            }
          ]
        }
      ],
      "anonymous": false
    },
    {
      "type": "event",
      "name": "Unpaused",
      "inputs": [
        {
          "name": "account",
          "type": "address",
          "indexed": true,
          "internalType": "address"
        },
        {
          "name": "newPausedStatus",
          "type": "uint256",
          "indexed": false,
          "internalType": "uint256"
        }
      ],
      "anonymous": false
    },
    {
      "type": "error",
      "name": "AmountExceedsMax",
      "inputs": []
    },
    {
      "type": "error",
      "name": "AmountIsZero",
      "inputs": []
    },
    {
      "type": "error",
      "name": "CurrentlyPaused",
      "inputs": []
    },
    {
      "type": "error",
      "name": "DurationExceedsMax",
      "inputs": []
    },
    {
      "type": "error",
      "name": "DurationIsZero",
      "inputs": []
    },
    {
      "type": "error",
      "name": "EarningsNotGreaterThanClaimed",
      "inputs": []
    },
    {
      "type": "error",
      "name": "EmptyRoot",
      "inputs": []
    },
    {
      "type": "error",
      "name": "InputAddressZero",
      "inputs": []
    },
    {
      "type": "error",
      "name": "InputArrayLengthMismatch",
      "inputs": []
    },
    {
      "type": "error",
      "name": "InputArrayLengthZero",
      "inputs": []
    },
    {
      "type": "error",
      "name": "InvalidAddressZero",
      "inputs": []
    },
    {
      "type": "error",
      "name": "InvalidCalculationIntervalSecondsRemainder",
      "inputs": []
    },
    {
      "type": "error",
      "name": "InvalidClaimProof",
      "inputs": []
    },
    {
      "type": "error",
      "name": "InvalidDurationRemainder",
      "inputs": []
    },
    {
      "type": "error",
      "name": "InvalidEarner",
      "inputs": []
    },
    {
      "type": "error",
      "name": "InvalidEarnerLeafIndex",
      "inputs": []
    },
    {
      "type": "error",
      "name": "InvalidGenesisRewardsTimestampRemainder",
      "inputs": []
    },
    {
      "type": "error",
      "name": "InvalidIndex",
      "inputs": []
    },
    {
      "type": "error",
      "name": "InvalidNewPausedStatus",
      "inputs": []
    },
    {
      "type": "error",
      "name": "InvalidOperatorSet",
      "inputs": []
    },
    {
      "type": "error",
      "name": "InvalidPermissions",
      "inputs": []
    },
    {
      "type": "error",
      "name": "InvalidProofLength",
      "inputs": []
    },
    {
      "type": "error",
      "name": "InvalidRoot",
      "inputs": []
    },
    {
      "type": "error",
      "name": "InvalidRootIndex",
      "inputs": []
    },
    {
      "type": "error",
      "name": "InvalidStartTimestampRemainder",
      "inputs": []
    },
    {
      "type": "error",
      "name": "InvalidTokenLeafIndex",
      "inputs": []
    },
    {
      "type": "error",
      "name": "NewRootMustBeForNewCalculatedPeriod",
      "inputs": []
    },
    {
      "type": "error",
      "name": "OnlyPauser",
      "inputs": []
    },
    {
      "type": "error",
      "name": "OnlyUnpauser",
      "inputs": []
    },
    {
      "type": "error",
      "name": "OperatorsNotInAscendingOrder",
      "inputs": []
    },
    {
      "type": "error",
      "name": "PreviousSplitPending",
      "inputs": []
    },
    {
      "type": "error",
      "name": "RewardsEndTimestampNotElapsed",
      "inputs": []
    },
    {
      "type": "error",
      "name": "RootAlreadyActivated",
      "inputs": []
    },
    {
      "type": "error",
      "name": "RootDisabled",
      "inputs": []
    },
    {
      "type": "error",
      "name": "RootNotActivated",
      "inputs": []
    },
    {
      "type": "error",
      "name": "SplitExceedsMax",
      "inputs": []
    },
    {
      "type": "error",
      "name": "StartTimestampTooFarInFuture",
      "inputs": []
    },
    {
      "type": "error",
      "name": "StartTimestampTooFarInPast",
      "inputs": []
    },
    {
      "type": "error",
      "name": "StrategiesNotInAscendingOrder",
      "inputs": []
    },
    {
      "type": "error",
      "name": "StrategyNotWhitelisted",
      "inputs": []
    },
    {
      "type": "error",
      "name": "SubmissionNotRetroactive",
      "inputs": []
    },
    {
      "type": "error",
      "name": "UnauthorizedCaller",
      "inputs": []
    }
  ],
  "bytecode": {
    "object": "0x6101c0604052348015610010575f5ffd5b5060405161568f38038061568f83398101604081905261002f91610263565b608081015181516020830151604084015160a085015160c086015160e087015161010088015161012089015160608a01516001600160a01b038116610087576040516339b190bb60e11b815260040160405180910390fd5b6001600160a01b031660805261009d858261032d565b63ffffffff16156100c157604051630e06bd3160e01b815260040160405180910390fd5b6100ce620151808661032d565b63ffffffff16156100f25760405163223c7b3960e11b815260040160405180910390fd5b6001600160a01b0397881660a05295871660c05293861660e05263ffffffff9283166101005290821661012052811661014052908116610160521661018052166101a05261013e610144565b50610360565b5f54610100900460ff16156101af5760405162461bcd60e51b815260206004820152602760248201527f496e697469616c697a61626c653a20636f6e747261637420697320696e697469604482015266616c697a696e6760c81b606482015260840160405180910390fd5b5f5460ff908116146101fe575f805460ff191660ff9081179091556040519081527f7f26b83ff96e1f2b6a682f133852f6798a09c465da95921460cefb38474024989060200160405180910390a15b565b60405161014081016001600160401b038111828210171561022f57634e487b7160e01b5f52604160045260245ffd5b60405290565b80516001600160a01b038116811461024b575f5ffd5b919050565b805163ffffffff8116811461024b575f5ffd5b5f610140828403128015610275575f5ffd5b5061027e610200565b61028783610235565b815261029560208401610235565b60208201526102a660408401610235565b60408201526102b760608401610235565b60608201526102c860808401610235565b60808201526102d960a08401610250565b60a08201526102ea60c08401610250565b60c08201526102fb60e08401610250565b60e082015261030d6101008401610250565b6101008201526103206101208401610250565b6101208201529392505050565b5f63ffffffff83168061034e57634e487b7160e01b5f52601260045260245ffd5b8063ffffffff84160691505092915050565b60805160a05160c05160e05161010051610120516101405161016051610180516101a05161525061043f5f395f818161066a0152613a6301525f81816104f10152613c4901525f81816104400152612ff101525f81816105cc0152613c0701525f81816109910152613af101525f818161087001528181613b410152613bb501525f81816109e501528181610bd20152818161158601528181611830015281816122c501526123fb01525f81816105f30152613cdb01525f8181610a6b015261223501525f81816107dc01528181612ead015261397601526152505ff3fe608060405234801561000f575f5ffd5b5060043610610400575f3560e01c80638d424f4911610216578063ca8aa7c71161012a578063f2f07ab4116100b4578063f96abf2e11610084578063f96abf2e14610b33578063fabc1cbc14610b46578063fbf1e2c114610b59578063fce36c7d14610b6c578063ff9f6cce14610b7f575f5ffd5b8063f2f07ab414610acd578063f2fde38b14610afa578063f74e8eac14610b0d578063f8cd844814610b20575f5ffd5b8063e74b981b116100fa578063e74b981b14610a40578063e810ce2114610a53578063ea4d3c9b14610a66578063ed71e6a214610a8d578063f22cef8514610aba575f5ffd5b8063ca8aa7c7146109e0578063dcbb03b314610a07578063de02e50314610a1a578063e063f81f14610a2d575f5ffd5b8063a50a1d9c116101ab578063b3dbb0e01161017b578063b3dbb0e01461092d578063b73c1b9214610940578063bb7e451f1461096d578063bf21a8aa1461098c578063c46db606146109b3575f5ffd5b8063a50a1d9c146108b8578063a89c2930146108cb578063acad7299146108ed578063aebd8bae14610900575f5ffd5b80639cb9a5fa116101e65780639cb9a5fa146108585780639d45c2811461086b5780639de4b35f14610892578063a0169ddd146108a5575f5ffd5b80638d424f49146108115780638da5cb5b146108245780639104c319146108355780639be3d4e414610850575f5ffd5b80634657e26a1161031857806363f6a798116102a25780637b8f8b05116102725780637b8f8b0514610792578063863cb9a91461079a578063865c6953146107ad578063886f1195146107d75780638cb0ae1b146107fe575f5ffd5b806363f6a798146107355780636d21117e1461074a578063715018a6146107775780637ae305831461077f575f5ffd5b806358baaa3e116102e857806358baaa3e146106dc578063595c6a67146106ef5780635ac86ab7146106f75780635c975abb1461071a5780635e9d834814610722575f5ffd5b80634657e26a14610665578063469048401461068c5780634b9439601461069f5780634d18cc35146106c5575f5ffd5b80632943e3ff1161039957806339b70e381161036957806339b70e38146105ee5780633a8c0786146106155780633ccc861d1461062c5780633efe1db61461063f5780634596021c14610652575f5ffd5b80632943e3ff146105475780632b9f64a41461057457806336af41fa146105b457806337838ed0146105c7575f5ffd5b80630eb38345116103d45780630eb38345146104d9578063131433b4146104ec578063136439dd14610513578063149bc87214610526575f5ffd5b806218572c1461040457806304a0c5021461043b5780630ca29899146104775780630e9a53cf1461048c575b5f5ffd5b61042661041236600461423b565b60d16020525f908152604090205460ff1681565b60405190151581526020015b60405180910390f35b6104627f000000000000000000000000000000000000000000000000000000000000000081565b60405163ffffffff9091168152602001610432565b61048a6104853660046142b3565b610b92565b005b610494610e0d565b60405161043291905f6080820190508251825263ffffffff602084015116602083015263ffffffff604084015116604083015260608301511515606083015292915050565b61048a6104e736600461430f565b610f0d565b6104627f000000000000000000000000000000000000000000000000000000000000000081565b61048a610521366004614346565b610f8d565b61053961053436600461435d565b610fc7565b604051908152602001610432565b610426610555366004614377565b60d860209081525f928352604080842090915290825290205460ff1681565b61059c61058236600461423b565b60cc6020525f90815260409020546001600160a01b031681565b6040516001600160a01b039091168152602001610432565b61048a6105c23660046143a1565b61103c565b6104627f000000000000000000000000000000000000000000000000000000000000000081565b61059c7f000000000000000000000000000000000000000000000000000000000000000081565b60cb5461046290600160a01b900463ffffffff1681565b61048a61063a3660046143f0565b6111c7565b61048a61064d366004614446565b6111ee565b61048a610660366004614470565b6113c4565b61059c7f000000000000000000000000000000000000000000000000000000000000000081565b60db5461059c906001600160a01b031681565b6106b26106ad36600461423b565b611427565b60405161ffff9091168152602001610432565b60cb5461046290600160c01b900463ffffffff1681565b61048a6106ea3660046144c2565b611482565b61048a611496565b6104266107053660046144db565b606654600160ff9092169190911b9081161490565b606654610539565b6104266107303660046144fb565b6114aa565b60cb546106b290600160e01b900461ffff1681565b610426610758366004614377565b60cf60209081525f928352604080842090915290825290205460ff1681565b61048a611535565b61048a61078d3660046142b3565b611546565b60ca54610539565b61048a6107a836600461423b565b6117df565b6105396107bb366004614537565b60cd60209081525f928352604080842090915290825290205481565b61059c7f000000000000000000000000000000000000000000000000000000000000000081565b61048a61080c3660046142b3565b6117f0565b61048a61081f36600461430f565b611a89565b6033546001600160a01b031661059c565b61059c73beac0eeeeeeeeeeeeeeeeeeeeeeeeeeeeeebeac081565b610494611a9d565b61048a610866366004614563565b611b39565b6104627f000000000000000000000000000000000000000000000000000000000000000081565b6106b26108a036600461459a565b611c8e565b61048a6108b336600461423b565b611d11565b61048a6108c63660046145d6565b611d1c565b6104266108d936600461423b565b60da6020525f908152604090205460ff1681565b61048a6108fb3660046145ef565b611d2d565b61042661090e366004614377565b60d260209081525f928352604080842090915290825290205460ff1681565b61048a61093b366004614660565b611e47565b61042661094e366004614377565b60d960209081525f928352604080842090915290825290205460ff1681565b61053961097b36600461423b565b60ce6020525f908152604090205481565b6104627f000000000000000000000000000000000000000000000000000000000000000081565b6104266109c1366004614377565b60d060209081525f928352604080842090915290825290205460ff1681565b61059c7f000000000000000000000000000000000000000000000000000000000000000081565b61048a610a1536600461468a565b611f55565b610494610a28366004614346565b612085565b6106b2610a3b366004614537565b612115565b61048a610a4e36600461423b565b61217a565b610462610a61366004614346565b61218b565b61059c7f000000000000000000000000000000000000000000000000000000000000000081565b610426610a9b366004614377565b60d360209081525f928352604080842090915290825290205460ff1681565b61048a610ac8366004614537565b61220c565b610426610adb366004614377565b60d760209081525f928352604080842090915290825290205460ff1681565b61048a610b0836600461423b565b612359565b61048a610b1b3660046146ce565b6123cf565b610539610b2e36600461435d565b612579565b61048a610b413660046144c2565b612589565b61048a610b54366004614346565b6126ba565b60cb5461059c906001600160a01b031681565b61048a610b7a3660046143a1565b612727565b61048a610b8d3660046143a1565b612886565b6009610b9d816129eb565b610baa602085018561423b565b610bb381612a16565b610bbb612a3c565b6040516304c1b8eb60e31b81526001600160a01b037f0000000000000000000000000000000000000000000000000000000000000000169063260dc75890610c07908890600401614739565b602060405180830381865afa158015610c22573d5f5f3e3d5ffd5b505050506040513d601f19601f82011682018060405250810190610c469190614747565b610c6357604051631fb1705560e21b815260040160405180910390fd5b5f5b83811015610dfb575f858583818110610c8057610c80614762565b9050602002810190610c929190614776565b610c9b906149f2565b90505f60ce81610cae60208b018b61423b565b6001600160a01b03166001600160a01b031681526020019081526020015f205490505f5f5f610cef8b5f016020810190610ce8919061423b565b8587612a95565b60208801519295509093509150610d11906001600160a01b0316333085612da1565b610d2085602001518383612e0c565b600160d75f610d3260208f018f61423b565b6001600160a01b0316815260208082019290925260409081015f9081208782529092529020805460ff1916911515919091179055610d71846001614acf565b60ce5f610d8160208f018f61423b565b6001600160a01b03166001600160a01b031681526020019081526020015f208190555082336001600160a01b03167ffff0759ccb371dfb5691798724e70b4fa61cb3bfe730a33ac19fb86a48efc7568d8789604051610de293929190614c3d565b60405180910390a3505060019093019250610c65915050565b50610e066001609755565b5050505050565b604080516080810182525f80825260208201819052918101829052606081019190915260ca545b8015610ee5575f60ca610e48600184614c6b565b81548110610e5857610e58614762565b5f91825260209182902060408051608081018252600293909302909101805483526001015463ffffffff80821694840194909452600160201b810490931690820152600160401b90910460ff161580156060830181905291925090610ec75750806040015163ffffffff164210155b15610ed25792915050565b5080610edd81614c7e565b915050610e34565b5050604080516080810182525f80825260208201819052918101829052606081019190915290565b610f15612e3e565b6001600160a01b0382165f81815260d1602052604080822054905160ff9091169284151592841515927f4de6293e668df1398422e1def12118052c1539a03cbfedc145895d48d7685f1c9190a4506001600160a01b03919091165f90815260d160205260409020805460ff1916911515919091179055565b610f95612e98565b6066548181168114610fba5760405163c61dca5d60e01b815260040160405180910390fd5b610fc382612f3b565b5050565b5f80610fd6602084018461423b565b836020013560405160200161101f9392919060f89390931b6001600160f81b031916835260609190911b6bffffffffffffffffffffffff19166001830152601582015260350190565b604051602081830303815290604052805190602001209050919050565b6001611047816129eb565b335f90815260d1602052604090205460ff1661107657604051635c427cd960e01b815260040160405180910390fd5b61107e612a3c565b5f5b828110156111b7573684848381811061109b5761109b614762565b90506020028101906110ad9190614c93565b335f81815260ce602090815260408083205490519495509391926110d79290918591879101614daf565b604051602081830303815290604052805190602001209050611101836110fc90614dd5565b612f78565b335f90815260d0602090815260408083208484529091529020805460ff19166001908117909155611133908390614acf565b335f81815260ce602052604090819020929092559051829184917f51088b8c89628df3a8174002c2a034d0152fce6af8415d651b2a4734bf2704829061117a908890614e73565b60405180910390a46111ac33306040860180359061119b906020890161423b565b6001600160a01b0316929190612da1565b505050600101611080565b506111c26001609755565b505050565b60026111d2816129eb565b6111da612a3c565b6111e48383613041565b6111c26001609755565b60036111f9816129eb565b60cb546001600160a01b0316331461122457604051635c427cd960e01b815260040160405180910390fd5b60cb5463ffffffff600160c01b90910481169083161161125757604051631ca7e50b60e21b815260040160405180910390fd5b428263ffffffff161061127d576040516306957c9160e11b815260040160405180910390fd5b60ca5460cb545f9061129c90600160a01b900463ffffffff1642614e85565b6040805160808101825287815263ffffffff87811660208084018281528684168587018181525f6060880181815260ca8054600181018255925297517f42d72674974f694b5f5159593243114d38a5c39c89d6b62fee061ff523240ee160029092029182015592517f42d72674974f694b5f5159593243114d38a5c39c89d6b62fee061ff523240ee290930180549151975193871667ffffffffffffffff1990921691909117600160201b978716979097029690961760ff60401b1916600160401b921515929092029190911790945560cb805463ffffffff60c01b1916600160c01b840217905593519283529394508892908616917fecd866c3c158fa00bf34d803d5f6023000b57080bcb48af004c2b4b46b3afd08910160405180910390a45050505050565b60026113cf816129eb565b6113d7612a3c565b5f5b838110156114165761140e8585838181106113f6576113f6614762565b90506020028101906114089190614ea1565b84613041565b6001016113d9565b506114216001609755565b50505050565b6001600160a01b0381165f90815260d5602090815260408083208151606081018352905461ffff80821683526201000082041693820193909352600160201b90920463ffffffff169082015261147c906132d1565b92915050565b61148a612e3e565b61149381613341565b50565b61149e612e98565b6114a85f19612f3b565b565b5f61152d8260ca6114be60208301836144c2565b63ffffffff16815481106114d4576114d4614762565b5f91825260209182902060408051608081018252600293909302909101805483526001015463ffffffff80821694840194909452600160201b810490931690820152600160401b90910460ff16151560608201526133b2565b506001919050565b61153d612e3e565b6114a85f613555565b600a611551816129eb565b61155e602085018561423b565b61156781612a16565b61156f612a3c565b6040516304c1b8eb60e31b81526001600160a01b037f0000000000000000000000000000000000000000000000000000000000000000169063260dc758906115bb908890600401614739565b602060405180830381865afa1580156115d6573d5f5f3e3d5ffd5b505050506040513d601f19601f820116820180604052508101906115fa9190614747565b61161757604051631fb1705560e21b815260040160405180910390fd5b5f5b83811015610dfb575f85858381811061163457611634614762565b90506020028101906116469190614c93565b61164f90614dd5565b905061165a81612f78565b6116823330836040015184602001516001600160a01b0316612da1909392919063ffffffff16565b61169533826020015183604001516135a6565b60408201525f60ce816116ab60208b018b61423b565b6001600160a01b031681526020808201929092526040015f908120549250906116d6908a018a61423b565b82846040516020016116ea93929190614f11565b604051602081830303815290604052805190602001209050600160d85f8b5f016020810190611719919061423b565b6001600160a01b0316815260208082019290925260409081015f9081208582529092529020805460ff1916911515919091179055611758826001614acf565b60ce5f61176860208d018d61423b565b6001600160a01b03166001600160a01b031681526020019081526020015f208190555080336001600160a01b03167fb3337dc034abe0f5e3694e1f115f3d6ec9fcee74e7835ea68f6e2d29bbc1b0aa8b85876040516117c993929190614f37565b60405180910390a3505050806001019050611619565b6117e7612e3e565b6114938161361f565b600b6117fb816129eb565b611808602085018561423b565b61181181612a16565b611819612a3c565b6040516304c1b8eb60e31b81526001600160a01b037f0000000000000000000000000000000000000000000000000000000000000000169063260dc75890611865908890600401614739565b602060405180830381865afa158015611880573d5f5f3e3d5ffd5b505050506040513d601f19601f820116820180604052508101906118a49190614747565b6118c157604051631fb1705560e21b815260040160405180910390fd5b5f5b83811015610dfb575f8585838181106118de576118de614762565b90506020028101906118f09190614c93565b6118f990614dd5565b905061190481612f78565b61192c3330836040015184602001516001600160a01b0316612da1909392919063ffffffff16565b61193f33826020015183604001516135a6565b60408201525f60ce8161195560208b018b61423b565b6001600160a01b031681526020808201929092526040015f90812054925090611980908a018a61423b565b828460405160200161199493929190614f11565b604051602081830303815290604052805190602001209050600160d95f8b5f0160208101906119c3919061423b565b6001600160a01b0316815260208082019290925260409081015f9081208582529092529020805460ff1916911515919091179055611a02826001614acf565b60ce5f611a1260208d018d61423b565b6001600160a01b03166001600160a01b031681526020019081526020015f208190555080336001600160a01b03167f71836f06ac5c96075d4c5b5699a92b18e9c6d91579a382e9e55a1adf097f64df8b8587604051611a7393929190614f37565b60405180910390a35050508060010190506118c3565b81611a9381612a16565b6111c2838361367a565b604080516080810182525f80825260208201819052918101829052606081019190915260ca8054611ad090600190614c6b565b81548110611ae057611ae0614762565b5f91825260209182902060408051608081018252600293909302909101805483526001015463ffffffff80821694840194909452600160201b810490931690820152600160401b90910460ff1615156060820152919050565b6005611b44816129eb565b83611b4e81612a16565b611b56612a3c565b5f5b83811015610dfb575f858583818110611b7357611b73614762565b9050602002810190611b859190614776565b611b8e906149f2565b6001600160a01b0388165f90815260ce60205260408120549192508080611bb68b8587612a95565b60208801519295509093509150611bd8906001600160a01b0316333085612da1565b611be785602001518383612e0c565b6001600160a01b038b165f90815260d3602090815260408083208684529091529020805460ff19166001908117909155611c22908590614acf565b6001600160a01b038c165f81815260ce60205260409081902092909255905184919033907ffc8888bffd711da60bc5092b33f677d81896fe80ecc677b84cfab8184462b6e090611c759089908b90614f5c565b60405180910390a4505060019093019250611b58915050565b6001600160a01b0382165f90815260d660205260408120611d0a9082611cc1611cbc36879003870187614f74565b6136f2565b815260208082019290925260409081015f208151606081018352905461ffff80821683526201000082041693820193909352600160201b90920463ffffffff16908201526132d1565b9392505050565b33610fc38183613755565b611d24612e3e565b611493816137b8565b5f54600290610100900460ff16158015611d4d57505f5460ff8083169116105b611db55760405162461bcd60e51b815260206004820152602e60248201527f496e697469616c697a61626c653a20636f6e747261637420697320616c72656160448201526d191e481a5b9a5d1a585b1a5e995960921b60648201526084015b60405180910390fd5b5f805461ffff191660ff831617610100179055611dd186612f3b565b611dda87613555565b611de38561361f565b611dec84613341565b611df5836137b8565b611dfe82613823565b5f805461ff001916905560405160ff821681527f7f26b83ff96e1f2b6a682f133852f6798a09c465da95921460cefb38474024989060200160405180910390a150505050505050565b6007611e52816129eb565b82611e5c81612a16565b60cb545f90611e7890600160a01b900463ffffffff1642614e85565b6001600160a01b0386165f90815260d5602090815260408083208151606081018352905461ffff80821683526201000082041693820193909352600160201b90920463ffffffff169082015291925090611ed1906132d1565b6001600160a01b0387165f90815260d560205260409020909150611ef69086846138a5565b6040805163ffffffff8416815261ffff838116602083015287168183015290516001600160a01b0388169133917fd1e028bd664486a46ad26040e999cd2d22e1e9a094ee6afe19fcf64678f16f749181900360600190a3505050505050565b6006611f60816129eb565b83611f6a81612a16565b60cb545f90611f8690600160a01b900463ffffffff1642614e85565b6001600160a01b038781165f90815260d460209081526040808320938a1683529281528282208351606081018552905461ffff80821683526201000082041692820192909252600160201b90910463ffffffff1692810192909252919250611fed906132d1565b6001600160a01b038089165f90815260d460209081526040808320938b1683529290522090915061201f9086846138a5565b6040805163ffffffff8416815261ffff838116602083015287168183015290516001600160a01b0388811692908a169133917f48e198b6ae357e529204ee53a8e514c470ff77d9cc8e4f7207f8b5d490ae6934919081900360600190a450505050505050565b604080516080810182525f80825260208201819052918101829052606081019190915260ca82815481106120bb576120bb614762565b5f91825260209182902060408051608081018252600293909302909101805483526001015463ffffffff80821694840194909452600160201b810490931690820152600160401b90910460ff161515606082015292915050565b6001600160a01b038281165f90815260d46020908152604080832093851683529281528282208351606081018552905461ffff80821683526201000082041692820192909252600160201b90910463ffffffff169281019290925290611d0a906132d1565b612182612e3e565b61149381613823565b60ca545f905b63ffffffff8116156121f2578260ca6121ab600184614fb3565b63ffffffff16815481106121c1576121c1614762565b905f5260205f2090600202015f0154036121e057611d0a600182614fb3565b806121ea81614fcf565b915050612191565b5060405163504570e360e01b815260040160405180910390fd5b8161221681612a16565b6040516336b87bd760e11b81526001600160a01b0384811660048301527f00000000000000000000000000000000000000000000000000000000000000001690636d70f7ae90602401602060405180830381865afa15801561227a573d5f5f3e3d5ffd5b505050506040513d601f19601f8201168201806040525081019061229e9190614747565b80612332575060405163ba1a84e560e01b81526001600160a01b0384811660048301525f917f00000000000000000000000000000000000000000000000000000000000000009091169063ba1a84e590602401602060405180830381865afa15801561230c573d5f5f3e3d5ffd5b505050506040513d601f19601f820116820180604052508101906123309190614fed565b115b61234f5760405163fb494ea160e01b815260040160405180910390fd5b6111c28383613755565b612361612e3e565b6001600160a01b0381166123c65760405162461bcd60e51b815260206004820152602660248201527f4f776e61626c653a206e6577206f776e657220697320746865207a65726f206160448201526564647265737360d01b6064820152608401611dac565b61149381613555565b60086123da816129eb565b836123e481612a16565b6040516304c1b8eb60e31b81526001600160a01b037f0000000000000000000000000000000000000000000000000000000000000000169063260dc75890612430908790600401614739565b602060405180830381865afa15801561244b573d5f5f3e3d5ffd5b505050506040513d601f19601f8201168201806040525081019061246f9190614747565b61248c57604051631fb1705560e21b815260040160405180910390fd5b60cb545f906124a890600160a01b900463ffffffff1642614e85565b6001600160a01b0387165f90815260d660205260408120919250906124da9082611cc1611cbc368b90038b018b614f74565b6001600160a01b0388165f90815260d66020526040812091925061251f919061250b611cbc368b90038b018b614f74565b81526020019081526020015f2086846138a5565b866001600160a01b0316336001600160a01b03167f14918b3834ab6752eb2e1b489b6663a67810efb5f56f3944a97ede8ecf1fd9f18885858a6040516125689493929190615004565b60405180910390a350505050505050565b5f6001610fd6602084018461423b565b6003612594816129eb565b60cb546001600160a01b031633146125bf57604051635c427cd960e01b815260040160405180910390fd5b60ca5463ffffffff8316106125e7576040516394a8d38960e01b815260040160405180910390fd5b5f60ca8363ffffffff168154811061260157612601614762565b905f5260205f20906002020190508060010160089054906101000a900460ff161561263f57604051631b14174b60e01b815260040160405180910390fd5b6001810154600160201b900463ffffffff16421061267057604051630c36f66560e21b815260040160405180910390fd5b60018101805460ff60401b1916600160401b17905560405163ffffffff8416907fd850e6e5dfa497b72661fa73df2923464eaed9dc2ff1d3cb82bccbfeabe5c41e905f90a2505050565b6126c2613974565b606654801982198116146126e95760405163c61dca5d60e01b815260040160405180910390fd5b606682905560405182815233907f3582d1828e26bf56bd801502bc021ac0bc8afb57c826e4986b45593c8fad389c9060200160405180910390a25050565b5f612731816129eb565b612739612a3c565b5f5b828110156111b7575f84848381811061275657612756614762565b90506020028101906127689190614c93565b61277190614dd5565b905061277c81612f78565b6127a43330836040015184602001516001600160a01b0316612da1909392919063ffffffff16565b6127b733826020015183604001516135a6565b604080830191909152335f81815260ce602090815283822054935191926127e49290918591879101614f11565b60408051601f198184030181529181528151602092830120335f90815260cf84528281208282529093529120805460ff1916600190811790915590915061282c908390614acf565b335f81815260ce602052604090819020929092559051829184917f450a367a380c4e339e5ae7340c8464ef27af7781ad9945cfe8abd828f89e628190612873908890615038565b60405180910390a450505060010161273b565b6004612891816129eb565b335f90815260d1602052604090205460ff166128c057604051635c427cd960e01b815260040160405180910390fd5b6128c8612a3c565b5f5b828110156111b757368484838181106128e5576128e5614762565b90506020028101906128f79190614c93565b335f81815260ce602090815260408083205490519495509391926129219290918591879101614daf565b604051602081830303815290604052805190602001209050612946836110fc90614dd5565b335f90815260d2602090815260408083208484529091529020805460ff19166001908117909155612978908390614acf565b335f81815260ce602052604090819020929092559051829184917f5251b6fdefcb5d81144e735f69ea4c695fd43b0289ca53dc075033f5fc80068b906129bf908890614e73565b60405180910390a46129e033306040860180359061119b906020890161423b565b5050506001016128ca565b606654600160ff83161b908116036114935760405163840a48d560e01b815260040160405180910390fd5b612a1f81613a25565b6114935760405163932d94f760e01b815260040160405180910390fd5b600260975403612a8e5760405162461bcd60e51b815260206004820152601f60248201527f5265656e7472616e637947756172643a207265656e7472616e742063616c6c006044820152606401611dac565b6002609755565b5f5f5f612aae845f015185606001518660800151613ace565b5f84604001515111612ad35760405163796cc52560e01b815260040160405180910390fd5b4284608001518560600151612ae89190614e85565b63ffffffff1610612b0c5760405163150358a160e21b815260040160405180910390fd5b6001600160a01b0386165f90815260da602052604080822054908601515160ff9091169190815b81811015612d36575f6001600160a01b031688604001518281518110612b5b57612b5b614762565b60200260200101515f01516001600160a01b031603612b8d57604051630863a45360e11b815260040160405180910390fd5b87604001518181518110612ba357612ba3614762565b60200260200101515f01516001600160a01b0316836001600160a01b031610612bdf576040516310fb47f160e31b815260040160405180910390fd5b5f88604001518281518110612bf657612bf6614762565b60200260200101516020015111612c20576040516310eb483f60e21b815260040160405180910390fd5b87604001518181518110612c3657612c36614762565b60200260200101516020015186612c4d9190614acf565b95505f61271061ffff166107d061ffff168a604001518481518110612c7457612c74614762565b602002602001015160200151612c8a919061504a565b612c949190615075565b9050848015612ca257508015155b15612cda578089604001518381518110612cbe57612cbe614762565b6020026020010151602001818151612cd69190614c6b565b9052505b88604001518281518110612cf057612cf0614762565b60200260200101516020015186612d079190614acf565b955088604001518281518110612d1f57612d1f614762565b602090810291909101015151935050600101612b33565b506f4b3b4ca85a86c47a098a223fffffffff841115612d685760405163070b5a6f60e21b815260040160405180910390fd5b888888604051602001612d7d93929190615088565b60405160208183030381529060405280519060200120955050505093509350939050565b6040516001600160a01b03808516602483015283166044820152606481018290526114219085906323b872dd60e01b906084015b60408051601f198184030181529190526020810180516001600160e01b03166001600160e01b031990931692909217909152613dc6565b8181146111c25760db546111c2906001600160a01b0316612e2d8385614c6b565b6001600160a01b0386169190613e99565b6033546001600160a01b031633146114a85760405162461bcd60e51b815260206004820181905260248201527f4f776e61626c653a2063616c6c6572206973206e6f7420746865206f776e65726044820152606401611dac565b60405163237dfb4760e11b81523360048201527f00000000000000000000000000000000000000000000000000000000000000006001600160a01b0316906346fbf68e90602401602060405180830381865afa158015612efa573d5f5f3e3d5ffd5b505050506040513d601f19601f82011682018060405250810190612f1e9190614747565b6114a857604051631d77d47760e21b815260040160405180910390fd5b606681905560405181815233907fab40a374bc51de372200a8bc981af8c9ecdc08dfdaef0bb6e09f88f3c616ef3d9060200160405180910390a250565b612f8e815f015182606001518360800151613ace565b5f816040015111612fb2576040516310eb483f60e21b815260040160405180910390fd5b6f4b3b4ca85a86c47a098a223fffffffff81604001511115612fe75760405163070b5a6f60e21b815260040160405180910390fd5b61301763ffffffff7f00000000000000000000000000000000000000000000000000000000000000001642614acf565b816060015163ffffffff16111561149357604051637ee2b44360e01b815260040160405180910390fd5b5f60ca61305160208501856144c2565b63ffffffff168154811061306757613067614762565b5f91825260209182902060408051608081018252600293909302909101805483526001015463ffffffff80821694840194909452600160201b810490931690820152600160401b90910460ff161515606082015290506130c783826133b2565b5f6130d8608085016060860161423b565b6001600160a01b038082165f90815260cc602052604090205491925016806130fd5750805b336001600160a01b0382161461312657604051635c427cd960e01b815260040160405180910390fd5b5f5b61313560a08701876150ae565b90508110156132c9573661314c60e08801886150f3565b8381811061315c5761315c614762565b6001600160a01b0387165f90815260cd6020908152604080832093029490940194509290915082906131909085018561423b565b6001600160a01b03166001600160a01b031681526020019081526020015f20549050808260200135116131d65760405163aa385e8160e01b815260040160405180910390fd5b5f6131e5826020850135614c6b565b6001600160a01b0387165f90815260cd60209081526040822092935085018035929190613212908761423b565b6001600160a01b031681526020808201929092526040015f209190915561325390899083906132439087018761423b565b6001600160a01b03169190613e99565b86516001600160a01b03808a1691878216918916907f9543dbd55580842586a951f0386e24d68a5df99ae29e3b216588b45fd684ce3190613297602089018961423b565b604080519283526001600160a01b039091166020830152810186905260600160405180910390a4505050600101613128565b505050505050565b5f816040015163ffffffff165f14806133035750815161ffff9081161480156133035750816040015163ffffffff1642105b1561331b57505060cb54600160e01b900461ffff1690565b816040015163ffffffff1642101561333457815161147c565b506020015190565b919050565b60cb546040805163ffffffff600160a01b9093048316815291831660208301527faf557c6c02c208794817a705609cfa935f827312a1adfdd26494b6b95dd2b4b3910160405180910390a160cb805463ffffffff909216600160a01b0263ffffffff60a01b19909216919091179055565b8060600151156133d557604051631b14174b60e01b815260040160405180910390fd5b806040015163ffffffff1642101561340057604051631437a2bb60e31b815260040160405180910390fd5b61340d60c08301836150ae565b905061341c60a08401846150ae565b90501461343c576040516343714afd60e01b815260040160405180910390fd5b61344960e08301836150f3565b905061345860c08401846150ae565b905014613478576040516343714afd60e01b815260040160405180910390fd5b80516134a49061348e60408501602086016144c2565b61349b6040860186615138565b86606001613ec9565b5f5b6134b360a08401846150ae565b90508110156111c25761354d60808401356134d160a08601866150ae565b848181106134e1576134e1614762565b90506020020160208101906134f691906144c2565b61350360c08701876150ae565b8581811061351357613513614762565b90506020028101906135259190615138565b61353260e08901896150f3565b8781811061354257613542614762565b905060400201613f6d565b6001016134a6565b603380546001600160a01b038381166001600160a01b0319831681179093556040519116919082907f8be0079c531659141344cd1fd0a4f28419497f9722a3daafe3b4186f6b6457e0905f90a35050565b5f806127106135b76107d08561504a565b6135c19190615075565b6001600160a01b0386165f90815260da602052604090205490915060ff16156136165780156136165760db54613604906001600160a01b03868116911683613e99565b61360e8184614c6b565b915050611d0a565b50909392505050565b60cb546040516001600160a01b038084169216907f237b82f438d75fc568ebab484b75b01d9287b9e98b490b7c23221623b6705dbb905f90a360cb80546001600160a01b0319166001600160a01b0392909216919091179055565b6001600160a01b0382165f81815260da602052604080822054905160ff9091169284151592841515927fbb020e17dc9a72ff25958029a3ddf0c05cebaac105769b31b6238aaca3910cd29190a4506001600160a01b03919091165f90815260da60205260409020805460ff1916911515919091179055565b5f815f0151826020015163ffffffff1660405160200161373d92919060609290921b6bffffffffffffffffffffffff1916825260a01b6001600160a01b031916601482015260200190565b60405160208183030381529060405261147c9061517a565b6001600160a01b038083165f81815260cc602052604080822080548686166001600160a01b0319821681179092559151919094169392849290917fbab947934d42e0ad206f25c9cab18b5bb6ae144acfb00f40b4e3aa59590ca3129190a4505050565b60cb546040805161ffff600160e01b9093048316815291831660208301527fe6cd4edfdcc1f6d130ab35f73d72378f3a642944fb4ee5bd84b7807a81ea1c4e910160405180910390a160cb805461ffff909216600160e01b0261ffff60e01b19909216919091179055565b6001600160a01b03811661384a57604051630863a45360e11b815260040160405180910390fd5b60db546040516001600160a01b038084169216907f15d80a013f22151bc7246e3bc132e12828cde19de98870475e3fa70840152721905f90a360db80546001600160a01b0319166001600160a01b0392909216919091179055565b61271061ffff831611156138cc5760405163891c63df60e01b815260040160405180910390fd5b8254600160201b900463ffffffff1642116138fa57604051637b1e25c560e01b815260040160405180910390fd5b8254600160201b900463ffffffff165f0361392157825461ffff191661ffff178355613938565b825462010000810461ffff1661ffff199091161783555b825463ffffffff909116600160201b0267ffffffff000000001961ffff90931662010000029290921667ffffffffffff00001990911617179055565b7f00000000000000000000000000000000000000000000000000000000000000006001600160a01b031663eab66d7a6040518163ffffffff1660e01b8152600401602060405180830381865afa1580156139d0573d5f5f3e3d5ffd5b505050506040513d601f19601f820116820180604052508101906139f4919061519d565b6001600160a01b0316336001600160a01b0316146114a85760405163794821ff60e01b815260040160405180910390fd5b604051631beb2b9760e31b81526001600160a01b0382811660048301523360248301523060448301525f80356001600160e01b0319166064840152917f00000000000000000000000000000000000000000000000000000000000000009091169063df595cb890608401602060405180830381865afa158015613aaa573d5f5f3e3d5ffd5b505050506040513d601f19601f8201168201806040525081019061147c9190614747565b5f835111613aef5760405163796cc52560e01b815260040160405180910390fd5b7f000000000000000000000000000000000000000000000000000000000000000063ffffffff168163ffffffff161115613b3c57604051630dd0b9f560e21b815260040160405180910390fd5b613b667f0000000000000000000000000000000000000000000000000000000000000000826151b8565b63ffffffff1615613b8a5760405163ee66470560e01b815260040160405180910390fd5b5f8163ffffffff1611613bb05760405163cb3f434d60e01b815260040160405180910390fd5b613bda7f0000000000000000000000000000000000000000000000000000000000000000836151b8565b63ffffffff1615613bfe57604051633c1a94f160e21b815260040160405180910390fd5b8163ffffffff167f000000000000000000000000000000000000000000000000000000000000000063ffffffff1642613c379190614c6b565b11158015613c7157508163ffffffff167f000000000000000000000000000000000000000000000000000000000000000063ffffffff1611155b613c8e5760405163041aa75760e11b815260040160405180910390fd5b5f805b8451811015610e06575f858281518110613cad57613cad614762565b60209081029190910101515160405163198f077960e21b81526001600160a01b0380831660048301529192507f00000000000000000000000000000000000000000000000000000000000000009091169063663c1de490602401602060405180830381865afa158015613d22573d5f5f3e3d5ffd5b505050506040513d601f19601f82011682018060405250810190613d469190614747565b80613d6d57506001600160a01b03811673beac0eeeeeeeeeeeeeeeeeeeeeeeeeeeeeebeac0145b613d8a57604051632efd965160e11b815260040160405180910390fd5b806001600160a01b0316836001600160a01b031610613dbc5760405163dfad9ca160e01b815260040160405180910390fd5b9150600101613c91565b5f613e1a826040518060400160405280602081526020017f5361666545524332303a206c6f772d6c6576656c2063616c6c206661696c6564815250856001600160a01b0316613fab9092919063ffffffff16565b905080515f1480613e3a575080806020019051810190613e3a9190614747565b6111c25760405162461bcd60e51b815260206004820152602a60248201527f5361666545524332303a204552433230206f7065726174696f6e20646964206e6044820152691bdd081cdd58d8d9595960b21b6064820152608401611dac565b6040516001600160a01b0383166024820152604481018290526111c290849063a9059cbb60e01b90606401612dd5565b613ed4602083615075565b6001901b8463ffffffff1610613efc5760405162c6c39d60e71b815260040160405180910390fd5b5f613f0682610fc7565b9050613f5084848080601f0160208091040260200160405190810160405280939291908181526020018383808284375f920191909152508a92508591505063ffffffff8916613fc1565b6132c9576040516369ca16c960e01b815260040160405180910390fd5b613f78602083615075565b6001901b8463ffffffff1610613fa15760405163054ff4df60e51b815260040160405180910390fd5b5f613f0682612579565b6060613fb984845f85613ff6565b949350505050565b5f83613fe0576040516329e7276760e11b815260040160405180910390fd5b83613fec8685856140cd565b1495945050505050565b6060824710156140575760405162461bcd60e51b815260206004820152602660248201527f416464726573733a20696e73756666696369656e742062616c616e636520666f6044820152651c8818d85b1b60d21b6064820152608401611dac565b5f5f866001600160a01b0316858760405161407291906151df565b5f6040518083038185875af1925050503d805f81146140ac576040519150601f19603f3d011682016040523d82523d5f602084013e6140b1565b606091505b50915091506140c28783838761418a565b979650505050505050565b5f83515f036140dd575081611d0a565b602084516140eb91906151f5565b15614109576040516313717da960e21b815260040160405180910390fd5b8260205b8551811161416a576141206002856151f5565b5f0361414157815f528086015160205260405f209150600284049350614158565b808601515f528160205260405f2091506002840493505b614163602082614acf565b905061410d565b508215613fb9576040516363df817160e01b815260040160405180910390fd5b606083156141f85782515f036141f1576001600160a01b0385163b6141f15760405162461bcd60e51b815260206004820152601d60248201527f416464726573733a2063616c6c20746f206e6f6e2d636f6e74726163740000006044820152606401611dac565b5081613fb9565b613fb9838381511561420d5781518083602001fd5b8060405162461bcd60e51b8152600401611dac9190615208565b6001600160a01b0381168114611493575f5ffd5b5f6020828403121561424b575f5ffd5b8135611d0a81614227565b5f60408284031215614266575f5ffd5b50919050565b5f5f83601f84011261427c575f5ffd5b5081356001600160401b03811115614292575f5ffd5b6020830191508360208260051b85010111156142ac575f5ffd5b9250929050565b5f5f5f606084860312156142c5575f5ffd5b6142cf8585614256565b925060408401356001600160401b038111156142e9575f5ffd5b6142f58682870161426c565b9497909650939450505050565b8015158114611493575f5ffd5b5f5f60408385031215614320575f5ffd5b823561432b81614227565b9150602083013561433b81614302565b809150509250929050565b5f60208284031215614356575f5ffd5b5035919050565b5f6040828403121561436d575f5ffd5b611d0a8383614256565b5f5f60408385031215614388575f5ffd5b823561439381614227565b946020939093013593505050565b5f5f602083850312156143b2575f5ffd5b82356001600160401b038111156143c7575f5ffd5b6143d38582860161426c565b90969095509350505050565b5f6101008284031215614266575f5ffd5b5f5f60408385031215614401575f5ffd5b82356001600160401b03811115614416575f5ffd5b614422858286016143df565b925050602083013561433b81614227565b803563ffffffff8116811461333c575f5ffd5b5f5f60408385031215614457575f5ffd5b8235915061446760208401614433565b90509250929050565b5f5f5f60408486031215614482575f5ffd5b83356001600160401b03811115614497575f5ffd5b6144a38682870161426c565b90945092505060208401356144b781614227565b809150509250925092565b5f602082840312156144d2575f5ffd5b611d0a82614433565b5f602082840312156144eb575f5ffd5b813560ff81168114611d0a575f5ffd5b5f6020828403121561450b575f5ffd5b81356001600160401b03811115614520575f5ffd5b613fb9848285016143df565b803561333c81614227565b5f5f60408385031215614548575f5ffd5b823561455381614227565b9150602083013561433b81614227565b5f5f5f60408486031215614575575f5ffd5b833561458081614227565b925060208401356001600160401b038111156142e9575f5ffd5b5f5f606083850312156145ab575f5ffd5b82356145b681614227565b91506144678460208501614256565b803561ffff8116811461333c575f5ffd5b5f602082840312156145e6575f5ffd5b611d0a826145c5565b5f5f5f5f5f5f60c08789031215614604575f5ffd5b863561460f81614227565b955060208701359450604087013561462681614227565b935061463460608801614433565b9250614642608088016145c5565b915060a087013561465281614227565b809150509295509295509295565b5f5f60408385031215614671575f5ffd5b823561467c81614227565b9150614467602084016145c5565b5f5f5f6060848603121561469c575f5ffd5b83356146a781614227565b925060208401356146b781614227565b91506146c5604085016145c5565b90509250925092565b5f5f5f608084860312156146e0575f5ffd5b83356146eb81614227565b92506146fa8560208601614256565b91506146c5606085016145c5565b803561471381614227565b6001600160a01b0316825263ffffffff61472f60208301614433565b1660208301525050565b6040810161147c8284614708565b5f60208284031215614757575f5ffd5b8151611d0a81614302565b634e487b7160e01b5f52603260045260245ffd5b5f823560be1983360301811261478a575f5ffd5b9190910192915050565b634e487b7160e01b5f52604160045260245ffd5b604080519081016001600160401b03811182821017156147ca576147ca614794565b60405290565b60405160c081016001600160401b03811182821017156147ca576147ca614794565b604051601f8201601f191681016001600160401b038111828210171561481a5761481a614794565b604052919050565b5f6001600160401b0382111561483a5761483a614794565b5060051b60200190565b80356001600160601b038116811461333c575f5ffd5b5f82601f830112614869575f5ffd5b813561487c61487782614822565b6147f2565b8082825260208201915060208360061b86010192508583111561489d575f5ffd5b602085015b838110156148f457604081880312156148b9575f5ffd5b6148c16147a8565b81356148cc81614227565b81526148da60208301614844565b6020820152808452506020830192506040810190506148a2565b5095945050505050565b5f82601f83011261490d575f5ffd5b813561491b61487782614822565b8082825260208201915060208360061b86010192508583111561493c575f5ffd5b602085015b838110156148f45760408188031215614958575f5ffd5b6149606147a8565b813561496b81614227565b8152602082810135818301529084529290920191604001614941565b5f82601f830112614996575f5ffd5b81356001600160401b038111156149af576149af614794565b6149c2601f8201601f19166020016147f2565b8181528460208386010111156149d6575f5ffd5b816020850160208301375f918101602001919091529392505050565b5f60c08236031215614a02575f5ffd5b614a0a6147d0565b82356001600160401b03811115614a1f575f5ffd5b614a2b3682860161485a565b825250614a3a6020840161452c565b602082015260408301356001600160401b03811115614a57575f5ffd5b614a63368286016148fe565b604083015250614a7560608401614433565b6060820152614a8660808401614433565b608082015260a08301356001600160401b03811115614aa3575f5ffd5b614aaf36828601614987565b60a08301525092915050565b634e487b7160e01b5f52601160045260245ffd5b8082018082111561147c5761147c614abb565b5f8151808452602084019350602083015f5b82811015614b3057815180516001600160a01b031687526020908101516001600160601b03168188015260409096019590910190600101614af4565b5093949350505050565b5f81518084528060208401602086015e5f602082860101526020601f19601f83011685010191505092915050565b5f815160c08452614b7c60c0850182614ae2565b6020848101516001600160a01b03168682015260408086015187840391880191909152805180845290820193505f92909101905b80831015614be757835180516001600160a01b03168352602090810151818401529093019260019290920191604090910190614bb0565b5060608501519250614c01606087018463ffffffff169052565b60808501519250614c1a608087018463ffffffff169052565b60a0850151925085810360a0870152614c338184614b3a565b9695505050505050565b614c478185614708565b826040820152608060608201525f614c626080830184614b68565b95945050505050565b8181038181111561147c5761147c614abb565b5f81614c8c57614c8c614abb565b505f190190565b5f8235609e1983360301811261478a575f5ffd5b8183526020830192505f815f5b84811015614b30578135614cc781614227565b6001600160a01b031686526001600160601b03614ce660208401614844565b1660208701526040958601959190910190600101614cb4565b5f8135601e19833603018112614d13575f5ffd5b82016020810190356001600160401b03811115614d2e575f5ffd5b8060061b3603821315614d3f575f5ffd5b60a08552614d5160a086018284614ca7565b915050614d606020840161452c565b6001600160a01b0316602085015260408381013590850152614d8460608401614433565b63ffffffff166060850152614d9b60808401614433565b63ffffffff81166080860152509392505050565b60018060a01b0384168152826020820152606060408201525f614c626060830184614cff565b5f60a08236031215614de5575f5ffd5b60405160a081016001600160401b0381118282101715614e0757614e07614794565b60405282356001600160401b03811115614e1f575f5ffd5b614e2b3682860161485a565b8252506020830135614e3c81614227565b602082015260408381013590820152614e5760608401614433565b6060820152614e6860808401614433565b608082015292915050565b602081525f611d0a6020830184614cff565b63ffffffff818116838216019081111561147c5761147c614abb565b5f823560fe1983360301811261478a575f5ffd5b5f815160a08452614ec960a0850182614ae2565b905060018060a01b0360208401511660208501526040830151604085015263ffffffff606084015116606085015263ffffffff60808401511660808501528091505092915050565b60018060a01b0384168152826020820152606060408201525f614c626060830184614eb5565b614f418185614708565b826040820152608060608201525f614c626080830184614eb5565b828152604060208201525f613fb96040830184614b68565b5f6040828403128015614f85575f5ffd5b50614f8e6147a8565b8235614f9981614227565b8152614fa760208401614433565b60208201529392505050565b63ffffffff828116828216039081111561147c5761147c614abb565b5f63ffffffff821680614fe457614fe4614abb565b5f190192915050565b5f60208284031215614ffd575f5ffd5b5051919050565b60a081016150128287614708565b63ffffffff94909416604082015261ffff92831660608201529116608090910152919050565b602081525f611d0a6020830184614eb5565b808202811582820484141761147c5761147c614abb565b634e487b7160e01b5f52601260045260245ffd5b5f8261508357615083615061565b500490565b60018060a01b0384168152826020820152606060408201525f614c626060830184614b68565b5f5f8335601e198436030181126150c3575f5ffd5b8301803591506001600160401b038211156150dc575f5ffd5b6020019150600581901b36038213156142ac575f5ffd5b5f5f8335601e19843603018112615108575f5ffd5b8301803591506001600160401b03821115615121575f5ffd5b6020019150600681901b36038213156142ac575f5ffd5b5f5f8335601e1984360301811261514d575f5ffd5b8301803591506001600160401b03821115615166575f5ffd5b6020019150368190038213156142ac575f5ffd5b80516020808301519190811015614266575f1960209190910360031b1b16919050565b5f602082840312156151ad575f5ffd5b8151611d0a81614227565b5f63ffffffff8316806151cd576151cd615061565b8063ffffffff84160691505092915050565b5f82518060208501845e5f920191825250919050565b5f8261520357615203615061565b500690565b602081525f611d0a6020830184614b3a56fea2646970667358221220a2f94272e2004479051dd00b717a66cf2b2f7cf2f2b3da370dfb4dd81cf6e60d64736f6c634300081e0033",
    "linkReferences": {}
  },
  "methodIdentifiers": {
    "CALCULATION_INTERVAL_SECONDS()": "9d45c281",
    "GENESIS_REWARDS_TIMESTAMP()": "131433b4",
    "MAX_FUTURE_LENGTH()": "04a0c502",
    "MAX_RETROACTIVE_LENGTH()": "37838ed0",
    "MAX_REWARDS_DURATION()": "bf21a8aa",
    "activationDelay()": "3a8c0786",
    "allocationManager()": "ca8aa7c7",
    "beaconChainETHStrategy()": "9104c319",
    "calculateEarnerLeafHash((address,bytes32))": "149bc872",
    "calculateTokenLeafHash((address,uint256))": "f8cd8448",
    "checkClaim((uint32,uint32,bytes,(address,bytes32),uint32[],bytes[],(address,uint256)[]))": "5e9d8348",
    "claimerFor(address)": "2b9f64a4",
    "createAVSRewardsSubmission(((address,uint96)[],address,uint256,uint32,uint32)[])": "fce36c7d",
    "createOperatorDirectedAVSRewardsSubmission(address,((address,uint96)[],address,(address,uint256)[],uint32,uint32,string)[])": "9cb9a5fa",
    "createOperatorDirectedOperatorSetRewardsSubmission((address,uint32),((address,uint96)[],address,(address,uint256)[],uint32,uint32,string)[])": "0ca29899",
    "createRewardsForAllEarners(((address,uint96)[],address,uint256,uint32,uint32)[])": "ff9f6cce",
    "createRewardsForAllSubmission(((address,uint96)[],address,uint256,uint32,uint32)[])": "36af41fa",
    "createTotalStakeRewardsSubmission((address,uint32),((address,uint96)[],address,uint256,uint32,uint32)[])": "8cb0ae1b",
    "createUniqueStakeRewardsSubmission((address,uint32),((address,uint96)[],address,uint256,uint32,uint32)[])": "7ae30583",
    "cumulativeClaimed(address,address)": "865c6953",
    "currRewardsCalculationEndTimestamp()": "4d18cc35",
    "defaultOperatorSplitBips()": "63f6a798",
    "delegationManager()": "ea4d3c9b",
    "disableRoot(uint32)": "f96abf2e",
    "feeRecipient()": "46904840",
    "getCurrentClaimableDistributionRoot()": "0e9a53cf",
    "getCurrentDistributionRoot()": "9be3d4e4",
    "getDistributionRootAtIndex(uint256)": "de02e503",
    "getDistributionRootsLength()": "7b8f8b05",
    "getOperatorAVSSplit(address,address)": "e063f81f",
    "getOperatorPISplit(address)": "4b943960",
    "getOperatorSetSplit(address,(address,uint32))": "9de4b35f",
    "getRootIndexFromHash(bytes32)": "e810ce21",
    "initialize(address,uint256,address,uint32,uint16,address)": "acad7299",
    "isAVSRewardsSubmissionHash(address,bytes32)": "6d21117e",
    "isOperatorDirectedAVSRewardsSubmissionHash(address,bytes32)": "ed71e6a2",
    "isOperatorDirectedOperatorSetRewardsSubmissionHash(address,bytes32)": "f2f07ab4",
    "isOptedInForProtocolFee(address)": "a89c2930",
    "isRewardsForAllSubmitter(address)": "0018572c",
    "isRewardsSubmissionForAllEarnersHash(address,bytes32)": "aebd8bae",
    "isRewardsSubmissionForAllHash(address,bytes32)": "c46db606",
    "isTotalStakeRewardsSubmissionHash(address,bytes32)": "b73c1b92",
    "isUniqueStakeRewardsSubmissionHash(address,bytes32)": "2943e3ff",
    "owner()": "8da5cb5b",
    "pause(uint256)": "136439dd",
    "pauseAll()": "595c6a67",
    "paused()": "5c975abb",
    "paused(uint8)": "5ac86ab7",
    "pauserRegistry()": "886f1195",
    "permissionController()": "4657e26a",
    "processClaim((uint32,uint32,bytes,(address,bytes32),uint32[],bytes[],(address,uint256)[]),address)": "3ccc861d",
    "processClaims((uint32,uint32,bytes,(address,bytes32),uint32[],bytes[],(address,uint256)[])[],address)": "4596021c",
    "renounceOwnership()": "715018a6",
    "rewardsUpdater()": "fbf1e2c1",
    "setActivationDelay(uint32)": "58baaa3e",
    "setClaimerFor(address)": "a0169ddd",
    "setClaimerFor(address,address)": "f22cef85",
    "setDefaultOperatorSplit(uint16)": "a50a1d9c",
    "setFeeRecipient(address)": "e74b981b",
    "setOperatorAVSSplit(address,address,uint16)": "dcbb03b3",
    "setOperatorPISplit(address,uint16)": "b3dbb0e0",
    "setOperatorSetSplit(address,(address,uint32),uint16)": "f74e8eac",
    "setOptInForProtocolFee(address,bool)": "8d424f49",
    "setRewardsForAllSubmitter(address,bool)": "0eb38345",
    "setRewardsUpdater(address)": "863cb9a9",
    "strategyManager()": "39b70e38",
    "submissionNonce(address)": "bb7e451f",
    "submitRoot(bytes32,uint32)": "3efe1db6",
    "transferOwnership(address)": "f2fde38b",
    "unpause(uint256)": "fabc1cbc"
  },
  "id": 149
}