{
  "abi": [
    {
      "type": "constructor",
      "inputs": [
        {
          "name": "_delegation",
          "type": "address",
          "internalType": "contract IDelegationManager"
        },
        {
          "name": "_eigenStrategy",
          "type": "address",
          "internalType": "contract IStrategy"
        },
        {
          "name": "_DEALLOCATION_DELAY",
          "type": "uint32",
          "internalType": "uint32"
        },
        {
          "name": "_ALLOCATION_CONFIGURATION_DELAY",
          "type": "uint32",
          "internalType": "uint32"
        }
      ],
      "stateMutability": "nonpayable"
    },
    {
      "type": "function",
      "name": "ALLOCATION_CONFIGURATION_DELAY",
      "inputs": [],
      "outputs": [
        {
          "name": "",
          "type": "uint32",
          "internalType": "uint32"
        }
      ],
      "stateMutability": "view"
    },
    {
      "type": "function",
      "name": "DEALLOCATION_DELAY",
      "inputs": [],
      "outputs": [
        {
          "name": "",
          "type": "uint32",
          "internalType": "uint32"
        }
      ],
      "stateMutability": "view"
    },
    {
      "type": "function",
      "name": "delegation",
      "inputs": [],
      "outputs": [
        {
          "name": "",
          "type": "address",
          "internalType": "contract IDelegationManager"
        }
      ],
      "stateMutability": "view"
    },
    {
      "type": "function",
      "name": "eigenStrategy",
      "inputs": [],
      "outputs": [
        {
          "name": "",
          "type": "address",
          "internalType": "contract IStrategy"
        }
      ],
      "stateMutability": "view"
    },
    {
      "type": "function",
      "name": "getAVSRegistrar",
      "inputs": [
        {
          "name": "avs",
          "type": "address",
          "internalType": "address"
        }
      ],
      "outputs": [
        {
          "name": "",
          "type": "address",
          "internalType": "contract IAVSRegistrar"
        }
      ],
      "stateMutability": "view"
    },
    {
      "type": "function",
      "name": "getAllocatableMagnitude",
      "inputs": [
        {
          "name": "operator",
          "type": "address",
          "internalType": "address"
        },
        {
          "name": "strategy",
          "type": "address",
          "internalType": "contract IStrategy"
        }
      ],
      "outputs": [
        {
          "name": "",
          "type": "uint64",
          "internalType": "uint64"
        }
      ],
      "stateMutability": "view"
    },
    {
      "type": "function",
      "name": "getAllocatedSets",
      "inputs": [
        {
          "name": "operator",
          "type": "address",
          "internalType": "address"
        }
      ],
      "outputs": [
        {
          "name": "",
          "type": "tuple[]",
          "internalType": "struct OperatorSet[]",
          "components": [
            {
              "name": "avs",
              "type": "address",
              "internalType": "address"
            },
            {
              "name": "id",
              "type": "uint32",
              "internalType": "uint32"
            }
          ]
        }
      ],
      "stateMutability": "view"
    },
    {
      "type": "function",
      "name": "getAllocatedStake",
      "inputs": [
        {
          "name": "operatorSet",
          "type": "tuple",
          "internalType": "struct OperatorSet",
          "components": [
            {
              "name": "avs",
              "type": "address",
              "internalType": "address"
            },
            {
              "name": "id",
              "type": "uint32",
              "internalType": "uint32"
            }
          ]
        },
        {
          "name": "operators",
          "type": "address[]",
          "internalType": "address[]"
        },
        {
          "name": "strategies",
          "type": "address[]",
          "internalType": "contract IStrategy[]"
        }
      ],
      "outputs": [
        {
          "name": "",
          "type": "uint256[][]",
          "internalType": "uint256[][]"
        }
      ],
      "stateMutability": "view"
    },
    {
      "type": "function",
      "name": "getAllocatedStrategies",
      "inputs": [
        {
          "name": "operator",
          "type": "address",
          "internalType": "address"
        },
        {
          "name": "operatorSet",
          "type": "tuple",
          "internalType": "struct OperatorSet",
          "components": [
            {
              "name": "avs",
              "type": "address",
              "internalType": "address"
            },
            {
              "name": "id",
              "type": "uint32",
              "internalType": "uint32"
            }
          ]
        }
      ],
      "outputs": [
        {
          "name": "",
          "type": "address[]",
          "internalType": "contract IStrategy[]"
        }
      ],
      "stateMutability": "view"
    },
    {
      "type": "function",
      "name": "getAllocation",
      "inputs": [
        {
          "name": "operator",
          "type": "address",
          "internalType": "address"
        },
        {
          "name": "operatorSet",
          "type": "tuple",
          "internalType": "struct OperatorSet",
          "components": [
            {
              "name": "avs",
              "type": "address",
              "internalType": "address"
            },
            {
              "name": "id",
              "type": "uint32",
              "internalType": "uint32"
            }
          ]
        },
        {
          "name": "strategy",
          "type": "address",
          "internalType": "contract IStrategy"
        }
      ],
      "outputs": [
        {
          "name": "",
          "type": "tuple",
          "internalType": "struct IAllocationManagerTypes.Allocation",
          "components": [
            {
              "name": "currentMagnitude",
              "type": "uint64",
              "internalType": "uint64"
            },
            {
              "name": "pendingDiff",
              "type": "int128",
              "internalType": "int128"
            },
            {
              "name": "effectBlock",
              "type": "uint32",
              "internalType": "uint32"
            }
          ]
        }
      ],
      "stateMutability": "view"
    },
    {
      "type": "function",
      "name": "getAllocationDelay",
      "inputs": [
        {
          "name": "operator",
          "type": "address",
          "internalType": "address"
        }
      ],
      "outputs": [
        {
          "name": "",
          "type": "bool",
          "internalType": "bool"
        },
        {
          "name": "",
          "type": "uint32",
          "internalType": "uint32"
        }
      ],
      "stateMutability": "view"
    },
    {
      "type": "function",
      "name": "getAllocations",
      "inputs": [
        {
          "name": "operators",
          "type": "address[]",
          "internalType": "address[]"
        },
        {
          "name": "operatorSet",
          "type": "tuple",
          "internalType": "struct OperatorSet",
          "components": [
            {
              "name": "avs",
              "type": "address",
              "internalType": "address"
            },
            {
              "name": "id",
              "type": "uint32",
              "internalType": "uint32"
            }
          ]
        },
        {
          "name": "strategy",
          "type": "address",
          "internalType": "contract IStrategy"
        }
      ],
      "outputs": [
        {
          "name": "",
          "type": "tuple[]",
          "internalType": "struct IAllocationManagerTypes.Allocation[]",
          "components": [
            {
              "name": "currentMagnitude",
              "type": "uint64",
              "internalType": "uint64"
            },
            {
              "name": "pendingDiff",
              "type": "int128",
              "internalType": "int128"
            },
            {
              "name": "effectBlock",
              "type": "uint32",
              "internalType": "uint32"
            }
          ]
        }
      ],
      "stateMutability": "view"
    },
    {
      "type": "function",
      "name": "getEncumberedMagnitude",
      "inputs": [
        {
          "name": "operator",
          "type": "address",
          "internalType": "address"
        },
        {
          "name": "strategy",
          "type": "address",
          "internalType": "contract IStrategy"
        }
      ],
      "outputs": [
        {
          "name": "",
          "type": "uint64",
          "internalType": "uint64"
        }
      ],
      "stateMutability": "view"
    },
    {
      "type": "function",
      "name": "getMaxMagnitude",
      "inputs": [
        {
          "name": "operator",
          "type": "address",
          "internalType": "address"
        },
        {
          "name": "strategy",
          "type": "address",
          "internalType": "contract IStrategy"
        }
      ],
      "outputs": [
        {
          "name": "",
          "type": "uint64",
          "internalType": "uint64"
        }
      ],
      "stateMutability": "view"
    },
    {
      "type": "function",
      "name": "getMaxMagnitudes",
      "inputs": [
        {
          "name": "operators",
          "type": "address[]",
          "internalType": "address[]"
        },
        {
          "name": "strategy",
          "type": "address",
          "internalType": "contract IStrategy"
        }
      ],
      "outputs": [
        {
          "name": "",
          "type": "uint64[]",
          "internalType": "uint64[]"
        }
      ],
      "stateMutability": "view"
    },
    {
      "type": "function",
      "name": "getMaxMagnitudes",
      "inputs": [
        {
          "name": "operator",
          "type": "address",
          "internalType": "address"
        },
        {
          "name": "strategies",
          "type": "address[]",
          "internalType": "contract IStrategy[]"
        }
      ],
      "outputs": [
        {
          "name": "",
          "type": "uint64[]",
          "internalType": "uint64[]"
        }
      ],
      "stateMutability": "view"
    },
    {
      "type": "function",
      "name": "getMaxMagnitudesAtBlock",
      "inputs": [
        {
          "name": "operator",
          "type": "address",
          "internalType": "address"
        },
        {
          "name": "strategies",
          "type": "address[]",
          "internalType": "contract IStrategy[]"
        },
        {
          "name": "blockNumber",
          "type": "uint32",
          "internalType": "uint32"
        }
      ],
      "outputs": [
        {
          "name": "",
          "type": "uint64[]",
          "internalType": "uint64[]"
        }
      ],
      "stateMutability": "view"
    },
    {
      "type": "function",
      "name": "getMemberCount",
      "inputs": [
        {
          "name": "operatorSet",
          "type": "tuple",
          "internalType": "struct OperatorSet",
          "components": [
            {
              "name": "avs",
              "type": "address",
              "internalType": "address"
            },
            {
              "name": "id",
              "type": "uint32",
              "internalType": "uint32"
            }
          ]
        }
      ],
      "outputs": [
        {
          "name": "",
          "type": "uint256",
          "internalType": "uint256"
        }
      ],
      "stateMutability": "view"
    },
    {
      "type": "function",
      "name": "getMembers",
      "inputs": [
        {
          "name": "operatorSet",
          "type": "tuple",
          "internalType": "struct OperatorSet",
          "components": [
            {
              "name": "avs",
              "type": "address",
              "internalType": "address"
            },
            {
              "name": "id",
              "type": "uint32",
              "internalType": "uint32"
            }
          ]
        }
      ],
      "outputs": [
        {
          "name": "",
          "type": "address[]",
          "internalType": "address[]"
        }
      ],
      "stateMutability": "view"
    },
    {
      "type": "function",
      "name": "getMinimumSlashableStake",
      "inputs": [
        {
          "name": "operatorSet",
          "type": "tuple",
          "internalType": "struct OperatorSet",
          "components": [
            {
              "name": "avs",
              "type": "address",
              "internalType": "address"
            },
            {
              "name": "id",
              "type": "uint32",
              "internalType": "uint32"
            }
          ]
        },
        {
          "name": "operators",
          "type": "address[]",
          "internalType": "address[]"
        },
        {
          "name": "strategies",
          "type": "address[]",
          "internalType": "contract IStrategy[]"
        },
        {
          "name": "futureBlock",
          "type": "uint32",
          "internalType": "uint32"
        }
      ],
      "outputs": [
        {
          "name": "slashableStake",
          "type": "uint256[][]",
          "internalType": "uint256[][]"
        }
      ],
      "stateMutability": "view"
    },
    {
      "type": "function",
      "name": "getOperatorSetCount",
      "inputs": [
        {
          "name": "avs",
          "type": "address",
          "internalType": "address"
        }
      ],
      "outputs": [
        {
          "name": "",
          "type": "uint256",
          "internalType": "uint256"
        }
      ],
      "stateMutability": "view"
    },
    {
      "type": "function",
      "name": "getPendingSlasher",
      "inputs": [
        {
          "name": "operatorSet",
          "type": "tuple",
          "internalType": "struct OperatorSet",
          "components": [
            {
              "name": "avs",
              "type": "address",
              "internalType": "address"
            },
            {
              "name": "id",
              "type": "uint32",
              "internalType": "uint32"
            }
          ]
        }
      ],
      "outputs": [
        {
          "name": "",
          "type": "address",
          "internalType": "address"
        },
        {
          "name": "",
          "type": "uint32",
          "internalType": "uint32"
        }
      ],
      "stateMutability": "view"
    },
    {
      "type": "function",
      "name": "getRedistributionRecipient",
      "inputs": [
        {
          "name": "operatorSet",
          "type": "tuple",
          "internalType": "struct OperatorSet",
          "components": [
            {
              "name": "avs",
              "type": "address",
              "internalType": "address"
            },
            {
              "name": "id",
              "type": "uint32",
              "internalType": "uint32"
            }
          ]
        }
      ],
      "outputs": [
        {
          "name": "",
          "type": "address",
          "internalType": "address"
        }
      ],
      "stateMutability": "view"
    },
    {
      "type": "function",
      "name": "getRegisteredSets",
      "inputs": [
        {
          "name": "operator",
          "type": "address",
          "internalType": "address"
        }
      ],
      "outputs": [
        {
          "name": "",
          "type": "tuple[]",
          "internalType": "struct OperatorSet[]",
          "components": [
            {
              "name": "avs",
              "type": "address",
              "internalType": "address"
            },
            {
              "name": "id",
              "type": "uint32",
              "internalType": "uint32"
            }
          ]
        }
      ],
      "stateMutability": "view"
    },
    {
      "type": "function",
      "name": "getSlashCount",
      "inputs": [
        {
          "name": "operatorSet",
          "type": "tuple",
          "internalType": "struct OperatorSet",
          "components": [
            {
              "name": "avs",
              "type": "address",
              "internalType": "address"
            },
            {
              "name": "id",
              "type": "uint32",
              "internalType": "uint32"
            }
          ]
        }
      ],
      "outputs": [
        {
          "name": "",
          "type": "uint256",
          "internalType": "uint256"
        }
      ],
      "stateMutability": "view"
    },
    {
      "type": "function",
      "name": "getSlasher",
      "inputs": [
        {
          "name": "operatorSet",
          "type": "tuple",
          "internalType": "struct OperatorSet",
          "components": [
            {
              "name": "avs",
              "type": "address",
              "internalType": "address"
            },
            {
              "name": "id",
              "type": "uint32",
              "internalType": "uint32"
            }
          ]
        }
      ],
      "outputs": [
        {
          "name": "",
          "type": "address",
          "internalType": "address"
        }
      ],
      "stateMutability": "view"
    },
    {
      "type": "function",
      "name": "getStrategiesInOperatorSet",
      "inputs": [
        {
          "name": "operatorSet",
          "type": "tuple",
          "internalType": "struct OperatorSet",
          "components": [
            {
              "name": "avs",
              "type": "address",
              "internalType": "address"
            },
            {
              "name": "id",
              "type": "uint32",
              "internalType": "uint32"
            }
          ]
        }
      ],
      "outputs": [
        {
          "name": "",
          "type": "address[]",
          "internalType": "contract IStrategy[]"
        }
      ],
      "stateMutability": "view"
    },
    {
      "type": "function",
      "name": "getStrategyAllocations",
      "inputs": [
        {
          "name": "operator",
          "type": "address",
          "internalType": "address"
        },
        {
          "name": "strategy",
          "type": "address",
          "internalType": "contract IStrategy"
        }
      ],
      "outputs": [
        {
          "name": "",
          "type": "tuple[]",
          "internalType": "struct OperatorSet[]",
          "components": [
            {
              "name": "avs",
              "type": "address",
              "internalType": "address"
            },
            {
              "name": "id",
              "type": "uint32",
              "internalType": "uint32"
            }
          ]
        },
        {
          "name": "",
          "type": "tuple[]",
          "internalType": "struct IAllocationManagerTypes.Allocation[]",
          "components": [
            {
              "name": "currentMagnitude",
              "type": "uint64",
              "internalType": "uint64"
            },
            {
              "name": "pendingDiff",
              "type": "int128",
              "internalType": "int128"
            },
            {
              "name": "effectBlock",
              "type": "uint32",
              "internalType": "uint32"
            }
          ]
        }
      ],
      "stateMutability": "view"
    },
    {
      "type": "function",
      "name": "isMemberOfOperatorSet",
      "inputs": [
        {
          "name": "operator",
          "type": "address",
          "internalType": "address"
        },
        {
          "name": "operatorSet",
          "type": "tuple",
          "internalType": "struct OperatorSet",
          "components": [
            {
              "name": "avs",
              "type": "address",
              "internalType": "address"
            },
            {
              "name": "id",
              "type": "uint32",
              "internalType": "uint32"
            }
          ]
        }
      ],
      "outputs": [
        {
          "name": "",
          "type": "bool",
          "internalType": "bool"
        }
      ],
      "stateMutability": "view"
    },
    {
      "type": "function",
      "name": "isOperatorRedistributable",
      "inputs": [
        {
          "name": "operator",
          "type": "address",
          "internalType": "address"
        }
      ],
      "outputs": [
        {
          "name": "",
          "type": "bool",
          "internalType": "bool"
        }
      ],
      "stateMutability": "view"
    },
    {
      "type": "function",
      "name": "isOperatorSet",
      "inputs": [
        {
          "name": "operatorSet",
          "type": "tuple",
          "internalType": "struct OperatorSet",
          "components": [
            {
              "name": "avs",
              "type": "address",
              "internalType": "address"
            },
            {
              "name": "id",
              "type": "uint32",
              "internalType": "uint32"
            }
          ]
        }
      ],
      "outputs": [
        {
          "name": "",
          "type": "bool",
          "internalType": "bool"
        }
      ],
      "stateMutability": "view"
    },
    {
      "type": "function",
      "name": "isOperatorSlashable",
      "inputs": [
        {
          "name": "operator",
          "type": "address",
          "internalType": "address"
        },
        {
          "name": "operatorSet",
          "type": "tuple",
          "internalType": "struct OperatorSet",
          "components": [
            {
              "name": "avs",
              "type": "address",
              "internalType": "address"
            },
            {
              "name": "id",
              "type": "uint32",
              "internalType": "uint32"
            }
          ]
        }
      ],
      "outputs": [
        {
          "name": "",
          "type": "bool",
          "internalType": "bool"
        }
      ],
      "stateMutability": "view"
    },
    {
      "type": "function",
      "name": "isRedistributingOperatorSet",
      "inputs": [
        {
          "name": "operatorSet",
          "type": "tuple",
          "internalType": "struct OperatorSet",
          "components": [
            {
              "name": "avs",
              "type": "address",
              "internalType": "address"
            },
            {
              "name": "id",
              "type": "uint32",
              "internalType": "uint32"
            }
          ]
        }
      ],
      "outputs": [
        {
          "name": "",
          "type": "bool",
          "internalType": "bool"
        }
      ],
      "stateMutability": "view"
    },
    {
      "type": "event",
      "name": "AVSMetadataURIUpdated",
      "inputs": [
        {
          "name": "avs",
          "type": "address",
          "indexed": true,
          "internalType": "address"
        },
        {
          "name": "metadataURI",
          "type": "string",
          "indexed": false,
          "internalType": "string"
        }
      ],
      "anonymous": false
    },
    {
      "type": "event",
      "name": "AVSRegistrarSet",
      "inputs": [
        {
          "name": "avs",
          "type": "address",
          "indexed": false,
          "internalType": "address"
        },
        {
          "name": "registrar",
          "type": "address",
          "indexed": false,
          "internalType": "contract IAVSRegistrar"
        }
      ],
      "anonymous": false
    },
    {
      "type": "event",
      "name": "AllocationDelaySet",
      "inputs": [
        {
          "name": "operator",
          "type": "address",
          "indexed": false,
          "internalType": "address"
        },
        {
          "name": "delay",
          "type": "uint32",
          "indexed": false,
          "internalType": "uint32"
        },
        {
          "name": "effectBlock",
          "type": "uint32",
          "indexed": false,
          "internalType": "uint32"
        }
      ],
      "anonymous": false
    },
    {
      "type": "event",
      "name": "AllocationUpdated",
      "inputs": [
        {
          "name": "operator",
          "type": "address",
          "indexed": false,
          "internalType": "address"
        },
        {
          "name": "operatorSet",
          "type": "tuple",
          "indexed": false,
          "internalType": "struct OperatorSet",
          "components": [
            {
              "name": "avs",
              "type": "address",
              "internalType": "address"
            },
            {
              "name": "id",
              "type": "uint32",
              "internalType": "uint32"
            }
          ]
        },
        {
          "name": "strategy",
          "type": "address",
          "indexed": false,
          "internalType": "contract IStrategy"
        },
        {
          "name": "magnitude",
          "type": "uint64",
          "indexed": false,
          "internalType": "uint64"
        },
        {
          "name": "effectBlock",
          "type": "uint32",
          "indexed": false,
          "internalType": "uint32"
        }
      ],
      "anonymous": false
    },
    {
      "type": "event",
      "name": "EncumberedMagnitudeUpdated",
      "inputs": [
        {
          "name": "operator",
          "type": "address",
          "indexed": false,
          "internalType": "address"
        },
        {
          "name": "strategy",
          "type": "address",
          "indexed": false,
          "internalType": "contract IStrategy"
        },
        {
          "name": "encumberedMagnitude",
          "type": "uint64",
          "indexed": false,
          "internalType": "uint64"
        }
      ],
      "anonymous": false
    },
    {
      "type": "event",
      "name": "MaxMagnitudeUpdated",
      "inputs": [
        {
          "name": "operator",
          "type": "address",
          "indexed": false,
          "internalType": "address"
        },
        {
          "name": "strategy",
          "type": "address",
          "indexed": false,
          "internalType": "contract IStrategy"
        },
        {
          "name": "maxMagnitude",
          "type": "uint64",
          "indexed": false,
          "internalType": "uint64"
        }
      ],
      "anonymous": false
    },
    {
      "type": "event",
      "name": "OperatorAddedToOperatorSet",
      "inputs": [
        {
          "name": "operator",
          "type": "address",
          "indexed": true,
          "internalType": "address"
        },
        {
          "name": "operatorSet",
          "type": "tuple",
          "indexed": false,
          "internalType": "struct OperatorSet",
          "components": [
            {
              "name": "avs",
              "type": "address",
              "internalType": "address"
            },
            {
              "name": "id",
              "type": "uint32",
              "internalType": "uint32"
            }
          ]
        }
      ],
      "anonymous": false
    },
    {
      "type": "event",
      "name": "OperatorRemovedFromOperatorSet",
      "inputs": [
        {
          "name": "operator",
          "type": "address",
          "indexed": true,
          "internalType": "address"
        },
        {
          "name": "operatorSet",
          "type": "tuple",
          "indexed": false,
          "internalType": "struct OperatorSet",
          "components": [
            {
              "name": "avs",
              "type": "address",
              "internalType": "address"
            },
            {
              "name": "id",
              "type": "uint32",
              "internalType": "uint32"
            }
          ]
        }
      ],
      "anonymous": false
    },
    {
      "type": "event",
      "name": "OperatorSetCreated",
      "inputs": [
        {
          "name": "operatorSet",
          "type": "tuple",
          "indexed": false,
          "internalType": "struct OperatorSet",
          "components": [
            {
              "name": "avs",
              "type": "address",
              "internalType": "address"
            },
            {
              "name": "id",
              "type": "uint32",
              "internalType": "uint32"
            }
          ]
        }
      ],
      "anonymous": false
    },
    {
      "type": "event",
      "name": "OperatorSlashed",
      "inputs": [
        {
          "name": "operator",
          "type": "address",
          "indexed": false,
          "internalType": "address"
        },
        {
          "name": "operatorSet",
          "type": "tuple",
          "indexed": false,
          "internalType": "struct OperatorSet",
          "components": [
            {
              "name": "avs",
              "type": "address",
              "internalType": "address"
            },
            {
              "name": "id",
              "type": "uint32",
              "internalType": "uint32"
            }
          ]
        },
        {
          "name": "strategies",
          "type": "address[]",
          "indexed": false,
          "internalType": "contract IStrategy[]"
        },
        {
          "name": "wadSlashed",
          "type": "uint256[]",
          "indexed": false,
          "internalType": "uint256[]"
        },
        {
          "name": "description",
          "type": "string",
          "indexed": false,
          "internalType": "string"
        }
      ],
      "anonymous": false
    },
    {
      "type": "event",
      "name": "RedistributionAddressSet",
      "inputs": [
        {
          "name": "operatorSet",
          "type": "tuple",
          "indexed": false,
          "internalType": "struct OperatorSet",
          "components": [
            {
              "name": "avs",
              "type": "address",
              "internalType": "address"
            },
            {
              "name": "id",
              "type": "uint32",
              "internalType": "uint32"
            }
          ]
        },
        {
          "name": "redistributionRecipient",
          "type": "address",
          "indexed": false,
          "internalType": "address"
        }
      ],
      "anonymous": false
    },
    {
      "type": "event",
      "name": "SlasherMigrated",
      "inputs": [
        {
          "name": "operatorSet",
          "type": "tuple",
          "indexed": false,
          "internalType": "struct OperatorSet",
          "components": [
            {
              "name": "avs",
              "type": "address",
              "internalType": "address"
            },
            {
              "name": "id",
              "type": "uint32",
              "internalType": "uint32"
            }
          ]
        },
        {
          "name": "slasher",
          "type": "address",
          "indexed": false,
          "internalType": "address"
        }
      ],
      "anonymous": false
    },
    {
      "type": "event",
      "name": "SlasherUpdated",
      "inputs": [
        {
          "name": "operatorSet",
          "type": "tuple",
          "indexed": false,
          "internalType": "struct OperatorSet",
          "components": [
            {
              "name": "avs",
              "type": "address",
              "internalType": "address"
            },
            {
              "name": "id",
              "type": "uint32",
              "internalType": "uint32"
            }
          ]
        },
        {
          "name": "slasher",
          "type": "address",
          "indexed": false,
          "internalType": "address"
        },
        {
          "name": "effectBlock",
          "type": "uint32",
          "indexed": false,
          "internalType": "uint32"
        }
      ],
      "anonymous": false
    },
    {
      "type": "event",
      "name": "StrategyAddedToOperatorSet",
      "inputs": [
        {
          "name": "operatorSet",
          "type": "tuple",
          "indexed": false,
          "internalType": "struct OperatorSet",
          "components": [
            {
              "name": "avs",
              "type": "address",
              "internalType": "address"
            },
            {
              "name": "id",
              "type": "uint32",
              "internalType": "uint32"
            }
          ]
        },
        {
          "name": "strategy",
          "type": "address",
          "indexed": false,
          "internalType": "contract IStrategy"
        }
      ],
      "anonymous": false
    },
    {
      "type": "event",
      "name": "StrategyRemovedFromOperatorSet",
      "inputs": [
        {
          "name": "operatorSet",
          "type": "tuple",
          "indexed": false,
          "internalType": "struct OperatorSet",
          "components": [
            {
              "name": "avs",
              "type": "address",
              "internalType": "address"
            },
            {
              "name": "id",
              "type": "uint32",
              "internalType": "uint32"
            }
          ]
        },
        {
          "name": "strategy",
          "type": "address",
          "indexed": false,
          "internalType": "contract IStrategy"
        }
      ],
      "anonymous": false
    },
    {
      "type": "error",
      "name": "AlreadyMemberOfSet",
      "inputs": []
    },
    {
      "type": "error",
      "name": "InputArrayLengthMismatch",
      "inputs": []
    },
    {
      "type": "error",
      "name": "InsufficientMagnitude",
      "inputs": []
    },
    {
      "type": "error",
      "name": "InvalidAVSRegistrar",
      "inputs": []
    },
    {
      "type": "error",
      "name": "InvalidCaller",
      "inputs": []
    },
    {
      "type": "error",
      "name": "InvalidOperator",
      "inputs": []
    },
    {
      "type": "error",
      "name": "InvalidOperatorSet",
      "inputs": []
    },
    {
      "type": "error",
      "name": "InvalidRedistributionRecipient",
      "inputs": []
    },
    {
      "type": "error",
      "name": "InvalidStrategy",
      "inputs": []
    },
    {
      "type": "error",
      "name": "InvalidWadToSlash",
      "inputs": []
    },
    {
      "type": "error",
      "name": "ModificationAlreadyPending",
      "inputs": []
    },
    {
      "type": "error",
      "name": "NonexistentAVSMetadata",
      "inputs": []
    },
    {
      "type": "error",
      "name": "NotMemberOfSet",
      "inputs": []
    },
    {
      "type": "error",
      "name": "OperatorNotSlashable",
      "inputs": []
    },
    {
      "type": "error",
      "name": "OperatorSetAlreadyMigrated",
      "inputs": []
    },
    {
      "type": "error",
      "name": "OutOfBounds",
      "inputs": []
    },
    {
      "type": "error",
      "name": "SameMagnitude",
      "inputs": []
    },
    {
      "type": "error",
      "name": "SlasherNotSet",
      "inputs": []
    },
    {
      "type": "error",
      "name": "StrategiesMustBeInAscendingOrder",
      "inputs": []
    },
    {
      "type": "error",
      "name": "StrategyAlreadyInOperatorSet",
      "inputs": []
    },
    {
      "type": "error",
      "name": "StrategyNotInOperatorSet",
      "inputs": []
    },
    {
      "type": "error",
      "name": "UninitializedAllocationDelay",
      "inputs": []
    }
  ],
  "bytecode": {
    "object": "0x610100604052348015610010575f5ffd5b5060405161273838038061273883398101604081905261002f91610087565b6001600160a01b039384166080529290911660a05263ffffffff90811660c0521660e0526100dd565b6001600160a01b038116811461006c575f5ffd5b50565b805163ffffffff81168114610082575f5ffd5b919050565b5f5f5f5f6080858703121561009a575f5ffd5b84516100a581610058565b60208601519094506100b681610058565b92506100c46040860161006f565b91506100d26060860161006f565b905092959194509250565b60805160a05160c05160e0516126216101175f395f61041c01525f6102a101525f61053b01525f818161057501526113b001526126215ff3fe608060405234801561000f575f5ffd5b50600436106101f2575f3560e01c80636e875dba11610114578063ba1a84e5116100a9578063db4df76111610079578063db4df76114610536578063dc2af6921461055d578063df5cf72314610570578063f231bd0814610597578063f605ce08146105aa575f5ffd5b8063ba1a84e5146104c6578063c221d8ae146104d9578063d4a3fcce146104ec578063d7794857146104ff575f5ffd5b806394d7d00c116100e457806394d7d00c1461045e578063a9333ec814610471578063b2447af714610484578063b9fbaed114610497575f5ffd5b80636e875dba146103f157806379ae50cd146104045780637bc1ef61146104175780638ce648541461043e575f5ffd5b8063304c10cd1161018a5780634cfd29391161015a5780634cfd29391461037f578063547afb87146103a0578063670d3ba2146103b35780636cfb4481146103c6575f5ffd5b8063304c10cd1461030b57806340120dab1461031e5780634177a87c1461033f5780634a10ffe51461035f575f5ffd5b8063260dc758116101c5578063260dc758146102895780632981eb771461029c5780632b453a9a146102d85780632bab2c4a146102f8575f5ffd5b80630f3df50e146101f657806310e1b9b8146102265780631352c3e61461024657806315fe502814610269575b5f5ffd5b610209610204366004611da6565b6105bd565b6040516001600160a01b0390911681526020015b60405180910390f35b610239610234366004611dc0565b6105fe565b60405161021d9190611e07565b610259610254366004611e3a565b610637565b604051901515815260200161021d565b61027c610277366004611e6e565b6106b2565b60405161021d9190611ede565b610259610297366004611da6565b6107c9565b6102c37f000000000000000000000000000000000000000000000000000000000000000081565b60405163ffffffff909116815260200161021d565b6102eb6102e6366004611f85565b6107fa565b60405161021d9190611ff8565b6102eb610306366004612084565b610810565b610209610319366004611e6e565b6108af565b61033161032c366004612108565b6108de565b60405161021d9291906121a0565b61035261034d366004611da6565b610a57565b60405161021d91906121fd565b61037261036d36600461220f565b610a7b565b60405161021d9190612252565b61039261038d366004611da6565b610b23565b60405190815260200161021d565b6103726103ae36600461229d565b610b45565b6102596103c1366004611e3a565b610bed565b6103d96103d4366004612108565b610c19565b6040516001600160401b03909116815260200161021d565b6103526103ff366004611da6565b610c2e565b61027c610412366004611e6e565b610c3f565b6102c37f000000000000000000000000000000000000000000000000000000000000000081565b61045161044c3660046122df565b610d19565b60405161021d9190612322565b61037261046c366004612334565b610dd5565b6103d961047f366004612108565b610ec1565b610392610492366004611da6565b610ef0565b6104aa6104a5366004611e6e565b610f12565b60408051921515835263ffffffff90911660208301520161021d565b6103926104d4366004611e6e565b610fb3565b6103526104e7366004611e3a565b610fd3565b6102096104fa366004611da6565b610ffc565b61051261050d366004611da6565b611083565b604080516001600160a01b03909316835263ffffffff90911660208301520161021d565b6102097f000000000000000000000000000000000000000000000000000000000000000081565b61025961056b366004611e6e565b611104565b6102097f000000000000000000000000000000000000000000000000000000000000000081565b6102596105a5366004611da6565b611137565b6103d96105b8366004612108565b611156565b5f5f60a65f6105cb85611162565b815260208101919091526040015f20546001600160a01b0316905080156105f257806105f7565b620e16e45b9392505050565b604080516060810182525f808252602082018190529181018290529061062d8561062786611162565b856111c5565b9695505050505050565b6001600160a01b0382165f908152609e6020526040812081908161065a85611162565b815260208082019290925260409081015f2081518083019092525460ff8116151580835261010090910463ffffffff16928201929092529150806106a85750806020015163ffffffff164311155b9150505b92915050565b6001600160a01b0381165f908152609d60205260408120606091906106d690611331565b90505f816001600160401b038111156106f1576106f1611cdb565b60405190808252806020026020018201604052801561073557816020015b604080518082019091525f808252602082015281526020019060019003908161070f5790505b5090505f5b828110156107c1576001600160a01b0385165f908152609d6020526040902061079c90610767908361133a565b604080518082019091525f80825260208201525060408051808201909152606082901c815263ffffffff909116602082015290565b8282815181106107ae576107ae61238f565b602090810291909101015260010161073a565b509392505050565b60208082015182516001600160a01b03165f9081526098909252604082206106ac9163ffffffff9081169061134516565b60606108088484844361135c565b949350505050565b606061081e8585858561135c565b90505f5b84518110156108a65761084e8582815181106108405761084061238f565b602002602001015187610637565b61089e575f5b845181101561089c575f8383815181106108705761087061238f565b602002602001015182815181106108895761088961238f565b6020908102919091010152600101610854565b505b600101610822565b50949350505050565b6001600160a01b038082165f9081526097602052604081205490911680156108d757806105f7565b5090919050565b6001600160a01b0382165f908152609d60205260408120606091829161090390611331565b90505f816001600160401b0381111561091e5761091e611cdb565b60405190808252806020026020018201604052801561096257816020015b604080518082019091525f808252602082015281526020019060019003908161093c5790505b5090505f826001600160401b0381111561097e5761097e611cdb565b6040519080825280602002602001820160405280156109c757816020015b604080516060810182525f80825260208083018290529282015282525f1990920191018161099c5790505b5090505f5b83811015610a4a576001600160a01b0388165f908152609d602052604081206109f990610767908461133a565b905080848381518110610a0e57610a0e61238f565b6020026020010181905250610a2489828a6105fe565b838381518110610a3657610a3661238f565b6020908102919091010152506001016109cc565b5090969095509350505050565b60605f6105f760995f610a6986611162565b81526020019081526020015f20611649565b60605f83516001600160401b03811115610a9757610a97611cdb565b604051908082528060200260200182016040528015610ac0578160200160208202803683370190505b5090505f5b84518110156107c157610af1858281518110610ae357610ae361238f565b602002602001015185610ec1565b828281518110610b0357610b0361238f565b6001600160401b0390921660209283029190910190910152600101610ac5565b5f60a55f610b3084611162565b81526020019081526020015f20549050919050565b60605f82516001600160401b03811115610b6157610b61611cdb565b604051908082528060200260200182016040528015610b8a578160200160208202803683370190505b5090505f5b83518110156107c157610bbb85858381518110610bae57610bae61238f565b6020026020010151610ec1565b828281518110610bcd57610bcd61238f565b6001600160401b0390921660209283029190910190910152600101610b8f565b5f6105f783609a5f610bfe86611162565b81526020019081526020015f2061165590919063ffffffff16565b5f5f610c258484611676565b95945050505050565b60606106ac609a5f610a6985611162565b6001600160a01b0381165f908152609c6020526040812060609190610c6390611331565b90505f816001600160401b03811115610c7e57610c7e611cdb565b604051908082528060200260200182016040528015610cc257816020015b604080518082019091525f8082526020820152815260200190600190039081610c9c5790505b5090505f5b828110156107c1576001600160a01b0385165f908152609c60205260409020610cf490610767908361133a565b828281518110610d0657610d0661238f565b6020908102919091010152600101610cc7565b60605f84516001600160401b03811115610d3557610d35611cdb565b604051908082528060200260200182016040528015610d7e57816020015b604080516060810182525f80825260208083018290529282015282525f19909201910181610d535790505b5090505f5b85518110156108a657610db0868281518110610da157610da161238f565b602002602001015186866105fe565b828281518110610dc257610dc261238f565b6020908102919091010152600101610d83565b60605f83516001600160401b03811115610df157610df1611cdb565b604051908082528060200260200182016040528015610e1a578160200160208202803683370190505b5090505f5b84518110156108a6576001600160a01b0386165f90815260a1602052604081208651610e8f92879291899086908110610e5a57610e5a61238f565b60200260200101516001600160a01b03166001600160a01b031681526020019081526020015f206117e590919063ffffffff16565b828281518110610ea157610ea161238f565b6001600160401b0390921660209283029190910190910152600101610e1f565b6001600160a01b038083165f90815260a16020908152604080832093851683529290529081206105f7906117f9565b5f6106ac609a5f610f0085611162565b81526020019081526020015f20611331565b6001600160a01b0381165f908152609b602090815260408083208151608081018352905463ffffffff80821680845260ff64010000000084041615159584018690526501000000000083048216948401949094526901000000000000000000909104166060820181905284939192919015801590610f9a5750826060015163ffffffff164310155b15610fa9575050604081015160015b9590945092505050565b6001600160a01b0381165f9081526098602052604081206106ac90611331565b6001600160a01b0382165f908152609f60205260408120606091906106a89082610a6986611162565b5f5f60a75f61100a85611162565b815260208082019290925260409081015f20815160608101835281546001600160a01b0390811680835260019093015490811694820194909452600160a01b90930463ffffffff16918301829052919250158015906110735750816040015163ffffffff164310155b156105f757506020015192915050565b5f5f5f5f5f60a75f61109488611162565b815260208082019290925260409081015f20815160608101835281546001600160a01b03908116825260019092015491821693810193909352600160a01b900463ffffffff169082018190529091504310156110f95780602001519250806040015191505b509094909350915050565b5f5f61110f83610c3f565b90505f61111b846106b2565b9050611127848361180c565b806108085750610808848261180c565b5f620e16e4611145836105bd565b6001600160a01b0316141592915050565b5f5f6108a68484611676565b5f815f0151826020015163ffffffff166040516020016111ad92919060609290921b6bffffffffffffffffffffffff1916825260a01b6001600160a01b031916601482015260200190565b6040516020818303038152906040526106ac906123a3565b6040805180820182525f80825260208083018290528351606081018552828152808201839052808501839052845180860186526001600160a01b03898116855260a1845286852090881685529092529382209293928190611225906117f9565b6001600160401b0390811682526001600160a01b038981165f81815260a260209081526040808320948c168084529482528083205486169682019690965291815260a082528481208b8252825284812092815291815290839020835160608101855290549283168152600160401b8304600f0b91810191909152600160c01b90910463ffffffff169181018290529192504310156112c7579092509050611329565b6112d8815f01518260200151611884565b6001600160401b0316815260208101515f600f9190910b12156113165761130782602001518260200151611884565b6001600160401b031660208301525b5f60408201819052602082015290925090505b935093915050565b5f6106ac825490565b5f6105f783836118a3565b5f81815260018301602052604081205415156105f7565b606083516001600160401b0381111561137757611377611cdb565b6040519080825280602002602001820160405280156113aa57816020015b60608152602001906001900390816113955790505b5090505f7f00000000000000000000000000000000000000000000000000000000000000006001600160a01b031663f0e0e67686866040518363ffffffff1660e01b81526004016113fc9291906123c9565b5f60405180830381865afa158015611416573d5f5f3e3d5ffd5b505050506040513d5f823e601f3d908101601f1916820160405261143d91908101906123ed565b90505f5b855181101561163f575f86828151811061145d5761145d61238f565b6020026020010151905085516001600160401b0381111561148057611480611cdb565b6040519080825280602002602001820160405280156114a9578160200160208202803683370190505b508483815181106114bc576114bc61238f565b60209081029190910101525f5b8651811015611635575f8782815181106114e5576114e561238f565b6020908102919091018101516001600160a01b038086165f90815260a1845260408082209284168252919093528220909250611520906117f9565b9050806001600160401b03165f0361153957505061162d565b5f611545858d856105fe565b90508863ffffffff16816040015163ffffffff161115801561156d57505f8160200151600f0b125b1561158f57611583815f01518260200151611884565b6001600160401b031681525b80515f906115aa906001600160401b039081169085166118c9565b90506115f1818989815181106115c2576115c261238f565b602002602001015187815181106115db576115db61238f565b60200260200101516118dd90919063ffffffff16565b8988815181106116035761160361238f565b6020026020010151868151811061161c5761161c61238f565b602002602001018181525050505050505b6001016114c9565b5050600101611441565b5050949350505050565b60605f6105f7836118f1565b6001600160a01b0381165f90815260018301602052604081205415156105f7565b6001600160a01b038281165f81815260a2602090815260408083209486168084529482528083205493835260a38252808320948352939052918220546001600160401b039091169190600f81810b600160801b909204900b03815b818110156117a1576001600160a01b038087165f90815260a3602090815260408083209389168352929052908120611709908361194a565b6001600160a01b038881165f90815260a0602090815260408083208584528252808320938b16835292815290829020825160608101845290546001600160401b0381168252600160401b8104600f0b92820192909252600160c01b90910463ffffffff169181018290529192504310156117845750506117a1565b611792868260200151611884565b955050508060010190506116d1565b506001600160a01b038086165f90815260a16020908152604080832093881683529290522083906117d1906117f9565b6117db919061250d565b9150509250929050565b5f6105f78383670de0b6b3a76400006119b9565b5f6106ac82670de0b6b3a7640000611a0f565b5f805b825181101561187b5761183b8484838151811061182e5761182e61238f565b6020026020010151610637565b801561186457506118648382815181106118575761185761238f565b6020026020010151611137565b156118735760019150506106ac565b60010161180f565b505f9392505050565b5f6105f761189b836001600160401b03861661252c565b600f0b611a47565b5f825f0182815481106118b8576118b861238f565b905f5260205f200154905092915050565b5f6105f783670de0b6b3a764000084611ab7565b5f6105f78383670de0b6b3a7640000611ab7565b6060815f0180548060200260200160405190810160405280929190818152602001828054801561193e57602002820191905f5260205f20905b81548152602001906001019080831161192a575b50505050509050919050565b5f5f61196c61195884611b9c565b85546119679190600f0b61256b565b611c05565b8454909150600160801b9004600f90810b9082900b1261199f57604051632d0483c560e21b815260040160405180910390fd5b600f0b5f9081526001939093016020525050604090205490565b82545f90816119ca86868385611c6e565b90508015611a05576119ee866119e1600184612592565b5f91825260209091200190565b5464010000000090046001600160e01b031661062d565b5091949350505050565b81545f908015611a3f57611a28846119e1600184612592565b5464010000000090046001600160e01b03166106a8565b509092915050565b5f6001600160401b03821115611ab35760405162461bcd60e51b815260206004820152602660248201527f53616665436173743a2076616c756520646f65736e27742066697420696e203660448201526534206269747360d01b60648201526084015b60405180910390fd5b5090565b5f80805f19858709858702925082811083820303915050805f03611aee57838281611ae457611ae46125a5565b04925050506105f7565b808411611b355760405162461bcd60e51b81526020600482015260156024820152744d6174683a206d756c446976206f766572666c6f7760581b6044820152606401611aaa565b5f8486880960026001871981018816978890046003810283188082028403028082028403028082028403028082028403028082028403029081029092039091025f889003889004909101858311909403939093029303949094049190911702949350505050565b5f6001600160ff1b03821115611ab35760405162461bcd60e51b815260206004820152602860248201527f53616665436173743a2076616c756520646f65736e27742066697420696e2061604482015267371034b73a191a9b60c11b6064820152608401611aaa565b80600f81900b8114611c695760405162461bcd60e51b815260206004820152602760248201527f53616665436173743a2076616c756520646f65736e27742066697420696e20316044820152663238206269747360c81b6064820152608401611aaa565b919050565b5f5b818310156107c1575f611c838484611cc1565b5f8781526020902090915063ffffffff86169082015463ffffffff161115611cad57809250611cbb565b611cb88160016125b9565b93505b50611c70565b5f611ccf60028484186125cc565b6105f7908484166125b9565b634e487b7160e01b5f52604160045260245ffd5b604051601f8201601f191681016001600160401b0381118282101715611d1757611d17611cdb565b604052919050565b6001600160a01b0381168114611d33575f5ffd5b50565b803563ffffffff81168114611c69575f5ffd5b5f60408284031215611d59575f5ffd5b604080519081016001600160401b0381118282101715611d7b57611d7b611cdb565b6040529050808235611d8c81611d1f565b8152611d9a60208401611d36565b60208201525092915050565b5f60408284031215611db6575f5ffd5b6105f78383611d49565b5f5f5f60808486031215611dd2575f5ffd5b8335611ddd81611d1f565b9250611dec8560208601611d49565b91506060840135611dfc81611d1f565b809150509250925092565b81516001600160401b03168152602080830151600f0b9082015260408083015163ffffffff1690820152606081016106ac565b5f5f60608385031215611e4b575f5ffd5b8235611e5681611d1f565b9150611e658460208501611d49565b90509250929050565b5f60208284031215611e7e575f5ffd5b81356105f781611d1f565b5f8151808452602084019350602083015f5b82811015611ed457815180516001600160a01b0316875260209081015163ffffffff168188015260409096019590910190600101611e9b565b5093949350505050565b602081525f6105f76020830184611e89565b5f6001600160401b03821115611f0857611f08611cdb565b5060051b60200190565b5f82601f830112611f21575f5ffd5b8135611f34611f2f82611ef0565b611cef565b8082825260208201915060208360051b860101925085831115611f55575f5ffd5b602085015b83811015611f7b578035611f6d81611d1f565b835260209283019201611f5a565b5095945050505050565b5f5f5f60808486031215611f97575f5ffd5b611fa18585611d49565b925060408401356001600160401b03811115611fbb575f5ffd5b611fc786828701611f12565b92505060608401356001600160401b03811115611fe2575f5ffd5b611fee86828701611f12565b9150509250925092565b5f602082016020835280845180835260408501915060408160051b8601019250602086015f5b8281101561207857868503603f19018452815180518087526020918201918701905f5b8181101561205f578351835260209384019390920191600101612041565b509096505050602093840193919091019060010161201e565b50929695505050505050565b5f5f5f5f60a08587031215612097575f5ffd5b6120a18686611d49565b935060408501356001600160401b038111156120bb575f5ffd5b6120c787828801611f12565b93505060608501356001600160401b038111156120e2575f5ffd5b6120ee87828801611f12565b9250506120fd60808601611d36565b905092959194509250565b5f5f60408385031215612119575f5ffd5b823561212481611d1f565b9150602083013561213481611d1f565b809150509250929050565b5f8151808452602084019350602083015f5b82811015611ed45761218a86835180516001600160401b03168252602080820151600f0b9083015260409081015163ffffffff16910152565b6060959095019460209190910190600101612151565b604081525f6121b26040830185611e89565b8281036020840152610c25818561213f565b5f8151808452602084019350602083015f5b82811015611ed45781516001600160a01b03168652602095860195909101906001016121d6565b602081525f6105f760208301846121c4565b5f5f60408385031215612220575f5ffd5b82356001600160401b03811115612235575f5ffd5b61224185828601611f12565b925050602083013561213481611d1f565b602080825282518282018190525f918401906040840190835b818110156122925783516001600160401b031683526020938401939092019160010161226b565b509095945050505050565b5f5f604083850312156122ae575f5ffd5b82356122b981611d1f565b915060208301356001600160401b038111156122d3575f5ffd5b6117db85828601611f12565b5f5f5f608084860312156122f1575f5ffd5b83356001600160401b03811115612306575f5ffd5b61231286828701611f12565b935050611dec8560208601611d49565b602081525f6105f7602083018461213f565b5f5f5f60608486031215612346575f5ffd5b833561235181611d1f565b925060208401356001600160401b0381111561236b575f5ffd5b61237786828701611f12565b92505061238660408501611d36565b90509250925092565b634e487b7160e01b5f52603260045260245ffd5b805160208083015191908110156123c3575f198160200360031b1b821691505b50919050565b604081525f6123db60408301856121c4565b8281036020840152610c2581856121c4565b5f602082840312156123fd575f5ffd5b81516001600160401b03811115612412575f5ffd5b8201601f81018413612422575f5ffd5b8051612430611f2f82611ef0565b8082825260208201915060208360051b850101925086831115612451575f5ffd5b602084015b838110156124ee5780516001600160401b03811115612473575f5ffd5b8501603f81018913612483575f5ffd5b6020810151612494611f2f82611ef0565b808282526020820191506020808460051b8601010192508b8311156124b7575f5ffd5b6040840193505b828410156124d95783518252602093840193909101906124be565b86525050602093840193919091019050612456565b509695505050505050565b634e487b7160e01b5f52601160045260245ffd5b6001600160401b0382811682821603908111156106ac576106ac6124f9565b600f81810b9083900b016f7fffffffffffffffffffffffffffffff81136f7fffffffffffffffffffffffffffffff19821217156106ac576106ac6124f9565b8082018281125f83128015821682158216171561258a5761258a6124f9565b505092915050565b818103818111156106ac576106ac6124f9565b634e487b7160e01b5f52601260045260245ffd5b808201808211156106ac576106ac6124f9565b5f826125e657634e487b7160e01b5f52601260045260245ffd5b50049056fea2646970667358221220a04078e60a2daa60eb4fbf5c07848fe21fd17d41118a01119bd700464e5f763b64736f6c634300081e0033",
    "linkReferences": {}
  },
  "methodIdentifiers": {
    "ALLOCATION_CONFIGURATION_DELAY()": "7bc1ef61",
    "DEALLOCATION_DELAY()": "2981eb77",
    "delegation()": "df5cf723",
    "eigenStrategy()": "db4df761",
    "getAVSRegistrar(address)": "304c10cd",
    "getAllocatableMagnitude(address,address)": "6cfb4481",
    "getAllocatedSets(address)": "15fe5028",
    "getAllocatedStake((address,uint32),address[],address[])": "2b453a9a",
    "getAllocatedStrategies(address,(address,uint32))": "c221d8ae",
    "getAllocation(address,(address,uint32),address)": "10e1b9b8",
    "getAllocationDelay(address)": "b9fbaed1",
    "getAllocations(address[],(address,uint32),address)": "8ce64854",
    "getEncumberedMagnitude(address,address)": "f605ce08",
    "getMaxMagnitude(address,address)": "a9333ec8",
    "getMaxMagnitudes(address,address[])": "547afb87",
    "getMaxMagnitudes(address[],address)": "4a10ffe5",
    "getMaxMagnitudesAtBlock(address,address[],uint32)": "94d7d00c",
    "getMemberCount((address,uint32))": "b2447af7",
    "getMembers((address,uint32))": "6e875dba",
    "getMinimumSlashableStake((address,uint32),address[],address[],uint32)": "2bab2c4a",
    "getOperatorSetCount(address)": "ba1a84e5",
    "getPendingSlasher((address,uint32))": "d7794857",
    "getRedistributionRecipient((address,uint32))": "0f3df50e",
    "getRegisteredSets(address)": "79ae50cd",
    "getSlashCount((address,uint32))": "4cfd2939",
    "getSlasher((address,uint32))": "d4a3fcce",
    "getStrategiesInOperatorSet((address,uint32))": "4177a87c",
    "getStrategyAllocations(address,address)": "40120dab",
    "isMemberOfOperatorSet(address,(address,uint32))": "670d3ba2",
    "isOperatorRedistributable(address)": "dc2af692",
    "isOperatorSet((address,uint32))": "260dc758",
    "isOperatorSlashable(address,(address,uint32))": "1352c3e6",
    "isRedistributingOperatorSet((address,uint32))": "f231bd08"
  },
  "id": 114
}