{
  "abi": [
    {
      "type": "constructor",
      "inputs": [
        {
          "name": "_ethPOS",
          "type": "address",
          "internalType": "contract IETHPOSDeposit"
        },
        {
          "name": "_eigenPodManager",
          "type": "address",
          "internalType": "contract IEigenPodManager"
        }
      ],
      "stateMutability": "nonpayable"
    },
    {
      "type": "receive",
      "stateMutability": "payable"
    },
    {
      "type": "function",
      "name": "activeValidatorCount",
      "inputs": [],
      "outputs": [
        {
          "name": "",
          "type": "uint256",
          "internalType": "uint256"
        }
      ],
      "stateMutability": "view"
    },
    {
      "type": "function",
      "name": "checkpointBalanceExitedGwei",
      "inputs": [
        {
          "name": "",
          "type": "uint64",
          "internalType": "uint64"
        }
      ],
      "outputs": [
        {
          "name": "",
          "type": "uint64",
          "internalType": "uint64"
        }
      ],
      "stateMutability": "view"
    },
    {
      "type": "function",
      "name": "currentCheckpoint",
      "inputs": [],
      "outputs": [
        {
          "name": "",
          "type": "tuple",
          "internalType": "struct IEigenPodTypes.Checkpoint",
          "components": [
            {
              "name": "beaconBlockRoot",
              "type": "bytes32",
              "internalType": "bytes32"
            },
            {
              "name": "proofsRemaining",
              "type": "uint24",
              "internalType": "uint24"
            },
            {
              "name": "podBalanceGwei",
              "type": "uint64",
              "internalType": "uint64"
            },
            {
              "name": "balanceDeltasGwei",
              "type": "int64",
              "internalType": "int64"
            },
            {
              "name": "prevBeaconBalanceGwei",
              "type": "uint64",
              "internalType": "uint64"
            }
          ]
        }
      ],
      "stateMutability": "view"
    },
    {
      "type": "function",
      "name": "currentCheckpointTimestamp",
      "inputs": [],
      "outputs": [
        {
          "name": "",
          "type": "uint64",
          "internalType": "uint64"
        }
      ],
      "stateMutability": "view"
    },
    {
      "type": "function",
      "name": "eigenPodManager",
      "inputs": [],
      "outputs": [
        {
          "name": "",
          "type": "address",
          "internalType": "contract IEigenPodManager"
        }
      ],
      "stateMutability": "view"
    },
    {
      "type": "function",
      "name": "ethPOS",
      "inputs": [],
      "outputs": [
        {
          "name": "",
          "type": "address",
          "internalType": "contract IETHPOSDeposit"
        }
      ],
      "stateMutability": "view"
    },
    {
      "type": "function",
      "name": "getConsolidationRequestFee",
      "inputs": [],
      "outputs": [
        {
          "name": "",
          "type": "uint256",
          "internalType": "uint256"
        }
      ],
      "stateMutability": "view"
    },
    {
      "type": "function",
      "name": "getParentBlockRoot",
      "inputs": [
        {
          "name": "timestamp",
          "type": "uint64",
          "internalType": "uint64"
        }
      ],
      "outputs": [
        {
          "name": "",
          "type": "bytes32",
          "internalType": "bytes32"
        }
      ],
      "stateMutability": "view"
    },
    {
      "type": "function",
      "name": "getWithdrawalRequestFee",
      "inputs": [],
      "outputs": [
        {
          "name": "",
          "type": "uint256",
          "internalType": "uint256"
        }
      ],
      "stateMutability": "view"
    },
    {
      "type": "function",
      "name": "initialize",
      "inputs": [
        {
          "name": "_podOwner",
          "type": "address",
          "internalType": "address"
        }
      ],
      "outputs": [],
      "stateMutability": "nonpayable"
    },
    {
      "type": "function",
      "name": "lastCheckpointTimestamp",
      "inputs": [],
      "outputs": [
        {
          "name": "",
          "type": "uint64",
          "internalType": "uint64"
        }
      ],
      "stateMutability": "view"
    },
    {
      "type": "function",
      "name": "podOwner",
      "inputs": [],
      "outputs": [
        {
          "name": "",
          "type": "address",
          "internalType": "address"
        }
      ],
      "stateMutability": "view"
    },
    {
      "type": "function",
      "name": "proofSubmitter",
      "inputs": [],
      "outputs": [
        {
          "name": "",
          "type": "address",
          "internalType": "address"
        }
      ],
      "stateMutability": "view"
    },
    {
      "type": "function",
      "name": "recoverTokens",
      "inputs": [
        {
          "name": "tokenList",
          "type": "address[]",
          "internalType": "contract IERC20[]"
        },
        {
          "name": "amountsToWithdraw",
          "type": "uint256[]",
          "internalType": "uint256[]"
        },
        {
          "name": "recipient",
          "type": "address",
          "internalType": "address"
        }
      ],
      "outputs": [],
      "stateMutability": "nonpayable"
    },
    {
      "type": "function",
      "name": "requestConsolidation",
      "inputs": [
        {
          "name": "requests",
          "type": "tuple[]",
          "internalType": "struct IEigenPodTypes.ConsolidationRequest[]",
          "components": [
            {
              "name": "srcPubkey",
              "type": "bytes",
              "internalType": "bytes"
            },
            {
              "name": "targetPubkey",
              "type": "bytes",
              "internalType": "bytes"
            }
          ]
        }
      ],
      "outputs": [],
      "stateMutability": "payable"
    },
    {
      "type": "function",
      "name": "requestWithdrawal",
      "inputs": [
        {
          "name": "requests",
          "type": "tuple[]",
          "internalType": "struct IEigenPodTypes.WithdrawalRequest[]",
          "components": [
            {
              "name": "pubkey",
              "type": "bytes",
              "internalType": "bytes"
            },
            {
              "name": "amountGwei",
              "type": "uint64",
              "internalType": "uint64"
            }
          ]
        }
      ],
      "outputs": [],
      "stateMutability": "payable"
    },
    {
      "type": "function",
      "name": "setProofSubmitter",
      "inputs": [
        {
          "name": "newProofSubmitter",
          "type": "address",
          "internalType": "address"
        }
      ],
      "outputs": [],
      "stateMutability": "nonpayable"
    },
    {
      "type": "function",
      "name": "stake",
      "inputs": [
        {
          "name": "pubkey",
          "type": "bytes",
          "internalType": "bytes"
        },
        {
          "name": "signature",
          "type": "bytes",
          "internalType": "bytes"
        },
        {
          "name": "depositDataRoot",
          "type": "bytes32",
          "internalType": "bytes32"
        }
      ],
      "outputs": [],
      "stateMutability": "payable"
    },
    {
      "type": "function",
      "name": "startCheckpoint",
      "inputs": [
        {
          "name": "revertIfNoBalance",
          "type": "bool",
          "internalType": "bool"
        }
      ],
      "outputs": [],
      "stateMutability": "nonpayable"
    },
    {
      "type": "function",
      "name": "validatorPubkeyHashToInfo",
      "inputs": [
        {
          "name": "validatorPubkeyHash",
          "type": "bytes32",
          "internalType": "bytes32"
        }
      ],
      "outputs": [
        {
          "name": "",
          "type": "tuple",
          "internalType": "struct IEigenPodTypes.ValidatorInfo",
          "components": [
            {
              "name": "validatorIndex",
              "type": "uint64",
              "internalType": "uint64"
            },
            {
              "name": "restakedBalanceGwei",
              "type": "uint64",
              "internalType": "uint64"
            },
            {
              "name": "lastCheckpointedAt",
              "type": "uint64",
              "internalType": "uint64"
            },
            {
              "name": "status",
              "type": "uint8",
              "internalType": "enum IEigenPodTypes.VALIDATOR_STATUS"
            }
          ]
        }
      ],
      "stateMutability": "view"
    },
    {
      "type": "function",
      "name": "validatorPubkeyToInfo",
      "inputs": [
        {
          "name": "validatorPubkey",
          "type": "bytes",
          "internalType": "bytes"
        }
      ],
      "outputs": [
        {
          "name": "",
          "type": "tuple",
          "internalType": "struct IEigenPodTypes.ValidatorInfo",
          "components": [
            {
              "name": "validatorIndex",
              "type": "uint64",
              "internalType": "uint64"
            },
            {
              "name": "restakedBalanceGwei",
              "type": "uint64",
              "internalType": "uint64"
            },
            {
              "name": "lastCheckpointedAt",
              "type": "uint64",
              "internalType": "uint64"
            },
            {
              "name": "status",
              "type": "uint8",
              "internalType": "enum IEigenPodTypes.VALIDATOR_STATUS"
            }
          ]
        }
      ],
      "stateMutability": "view"
    },
    {
      "type": "function",
      "name": "validatorStatus",
      "inputs": [
        {
          "name": "validatorPubkey",
          "type": "bytes",
          "internalType": "bytes"
        }
      ],
      "outputs": [
        {
          "name": "",
          "type": "uint8",
          "internalType": "enum IEigenPodTypes.VALIDATOR_STATUS"
        }
      ],
      "stateMutability": "view"
    },
    {
      "type": "function",
      "name": "validatorStatus",
      "inputs": [
        {
          "name": "pubkeyHash",
          "type": "bytes32",
          "internalType": "bytes32"
        }
      ],
      "outputs": [
        {
          "name": "",
          "type": "uint8",
          "internalType": "enum IEigenPodTypes.VALIDATOR_STATUS"
        }
      ],
      "stateMutability": "view"
    },
    {
      "type": "function",
      "name": "verifyCheckpointProofs",
      "inputs": [
        {
          "name": "balanceContainerProof",
          "type": "tuple",
          "internalType": "struct BeaconChainProofs.BalanceContainerProof",
          "components": [
            {
              "name": "balanceContainerRoot",
              "type": "bytes32",
              "internalType": "bytes32"
            },
            {
              "name": "proof",
              "type": "bytes",
              "internalType": "bytes"
            }
          ]
        },
        {
          "name": "proofs",
          "type": "tuple[]",
          "internalType": "struct BeaconChainProofs.BalanceProof[]",
          "components": [
            {
              "name": "pubkeyHash",
              "type": "bytes32",
              "internalType": "bytes32"
            },
            {
              "name": "balanceRoot",
              "type": "bytes32",
              "internalType": "bytes32"
            },
            {
              "name": "proof",
              "type": "bytes",
              "internalType": "bytes"
            }
          ]
        }
      ],
      "outputs": [],
      "stateMutability": "nonpayable"
    },
    {
      "type": "function",
      "name": "verifyStaleBalance",
      "inputs": [
        {
          "name": "beaconTimestamp",
          "type": "uint64",
          "internalType": "uint64"
        },
        {
          "name": "stateRootProof",
          "type": "tuple",
          "internalType": "struct BeaconChainProofs.StateRootProof",
          "components": [
            {
              "name": "beaconStateRoot",
              "type": "bytes32",
              "internalType": "bytes32"
            },
            {
              "name": "proof",
              "type": "bytes",
              "internalType": "bytes"
            }
          ]
        },
        {
          "name": "proof",
          "type": "tuple",
          "internalType": "struct BeaconChainProofs.ValidatorProof",
          "components": [
            {
              "name": "validatorFields",
              "type": "bytes32[]",
              "internalType": "bytes32[]"
            },
            {
              "name": "proof",
              "type": "bytes",
              "internalType": "bytes"
            }
          ]
        }
      ],
      "outputs": [],
      "stateMutability": "nonpayable"
    },
    {
      "type": "function",
      "name": "verifyWithdrawalCredentials",
      "inputs": [
        {
          "name": "beaconTimestamp",
          "type": "uint64",
          "internalType": "uint64"
        },
        {
          "name": "stateRootProof",
          "type": "tuple",
          "internalType": "struct BeaconChainProofs.StateRootProof",
          "components": [
            {
              "name": "beaconStateRoot",
              "type": "bytes32",
              "internalType": "bytes32"
            },
            {
              "name": "proof",
              "type": "bytes",
              "internalType": "bytes"
            }
          ]
        },
        {
          "name": "validatorIndices",
          "type": "uint40[]",
          "internalType": "uint40[]"
        },
        {
          "name": "validatorFieldsProofs",
          "type": "bytes[]",
          "internalType": "bytes[]"
        },
        {
          "name": "validatorFields",
          "type": "bytes32[][]",
          "internalType": "bytes32[][]"
        }
      ],
      "outputs": [],
      "stateMutability": "nonpayable"
    },
    {
      "type": "function",
      "name": "withdrawRestakedBeaconChainETH",
      "inputs": [
        {
          "name": "recipient",
          "type": "address",
          "internalType": "address"
        },
        {
          "name": "amountWei",
          "type": "uint256",
          "internalType": "uint256"
        }
      ],
      "outputs": [],
      "stateMutability": "nonpayable"
    },
    {
      "type": "function",
      "name": "withdrawableRestakedExecutionLayerGwei",
      "inputs": [],
      "outputs": [
        {
          "name": "",
          "type": "uint64",
          "internalType": "uint64"
        }
      ],
      "stateMutability": "view"
    },
    {
      "type": "event",
      "name": "CheckpointCreated",
      "inputs": [
        {
          "name": "checkpointTimestamp",
          "type": "uint64",
          "indexed": true,
          "internalType": "uint64"
        },
        {
          "name": "beaconBlockRoot",
          "type": "bytes32",
          "indexed": true,
          "internalType": "bytes32"
        },
        {
          "name": "validatorCount",
          "type": "uint256",
          "indexed": false,
          "internalType": "uint256"
        }
      ],
      "anonymous": false
    },
    {
      "type": "event",
      "name": "CheckpointFinalized",
      "inputs": [
        {
          "name": "checkpointTimestamp",
          "type": "uint64",
          "indexed": true,
          "internalType": "uint64"
        },
        {
          "name": "totalShareDeltaWei",
          "type": "int256",
          "indexed": false,
          "internalType": "int256"
        }
      ],
      "anonymous": false
    },
    {
      "type": "event",
      "name": "ConsolidationRequested",
      "inputs": [
        {
          "name": "sourcePubkeyHash",
          "type": "bytes32",
          "indexed": true,
          "internalType": "bytes32"
        },
        {
          "name": "targetPubkeyHash",
          "type": "bytes32",
          "indexed": true,
          "internalType": "bytes32"
        }
      ],
      "anonymous": false
    },
    {
      "type": "event",
      "name": "EigenPodStaked",
      "inputs": [
        {
          "name": "pubkeyHash",
          "type": "bytes32",
          "indexed": false,
          "internalType": "bytes32"
        }
      ],
      "anonymous": false
    },
    {
      "type": "event",
      "name": "ExitRequested",
      "inputs": [
        {
          "name": "validatorPubkeyHash",
          "type": "bytes32",
          "indexed": true,
          "internalType": "bytes32"
        }
      ],
      "anonymous": false
    },
    {
      "type": "event",
      "name": "Initialized",
      "inputs": [
        {
          "name": "version",
          "type": "uint8",
          "indexed": false,
          "internalType": "uint8"
        }
      ],
      "anonymous": false
    },
    {
      "type": "event",
      "name": "NonBeaconChainETHReceived",
      "inputs": [
        {
          "name": "amountReceived",
          "type": "uint256",
          "indexed": false,
          "internalType": "uint256"
        }
      ],
      "anonymous": false
    },
    {
      "type": "event",
      "name": "ProofSubmitterUpdated",
      "inputs": [
        {
          "name": "prevProofSubmitter",
          "type": "address",
          "indexed": false,
          "internalType": "address"
        },
        {
          "name": "newProofSubmitter",
          "type": "address",
          "indexed": false,
          "internalType": "address"
        }
      ],
      "anonymous": false
    },
    {
      "type": "event",
      "name": "RestakedBeaconChainETHWithdrawn",
      "inputs": [
        {
          "name": "recipient",
          "type": "address",
          "indexed": true,
          "internalType": "address"
        },
        {
          "name": "amount",
          "type": "uint256",
          "indexed": false,
          "internalType": "uint256"
        }
      ],
      "anonymous": false
    },
    {
      "type": "event",
      "name": "SwitchToCompoundingRequested",
      "inputs": [
        {
          "name": "validatorPubkeyHash",
          "type": "bytes32",
          "indexed": true,
          "internalType": "bytes32"
        }
      ],
      "anonymous": false
    },
    {
      "type": "event",
      "name": "ValidatorBalanceUpdated",
      "inputs": [
        {
          "name": "pubkeyHash",
          "type": "bytes32",
          "indexed": false,
          "internalType": "bytes32"
        },
        {
          "name": "balanceTimestamp",
          "type": "uint64",
          "indexed": false,
          "internalType": "uint64"
        },
        {
          "name": "newValidatorBalanceGwei",
          "type": "uint64",
          "indexed": false,
          "internalType": "uint64"
        }
      ],
      "anonymous": false
    },
    {
      "type": "event",
      "name": "ValidatorCheckpointed",
      "inputs": [
        {
          "name": "checkpointTimestamp",
          "type": "uint64",
          "indexed": true,
          "internalType": "uint64"
        },
        {
          "name": "pubkeyHash",
          "type": "bytes32",
          "indexed": true,
          "internalType": "bytes32"
        }
      ],
      "anonymous": false
    },
    {
      "type": "event",
      "name": "ValidatorRestaked",
      "inputs": [
        {
          "name": "pubkeyHash",
          "type": "bytes32",
          "indexed": false,
          "internalType": "bytes32"
        }
      ],
      "anonymous": false
    },
    {
      "type": "event",
      "name": "ValidatorWithdrawn",
      "inputs": [
        {
          "name": "checkpointTimestamp",
          "type": "uint64",
          "indexed": true,
          "internalType": "uint64"
        },
        {
          "name": "pubkeyHash",
          "type": "bytes32",
          "indexed": true,
          "internalType": "bytes32"
        }
      ],
      "anonymous": false
    },
    {
      "type": "event",
      "name": "WithdrawalRequested",
      "inputs": [
        {
          "name": "validatorPubkeyHash",
          "type": "bytes32",
          "indexed": true,
          "internalType": "bytes32"
        },
        {
          "name": "withdrawalAmountGwei",
          "type": "uint64",
          "indexed": false,
          "internalType": "uint64"
        }
      ],
      "anonymous": false
    },
    {
      "type": "error",
      "name": "BeaconTimestampBeforeLatestCheckpoint",
      "inputs": []
    },
    {
      "type": "error",
      "name": "BeaconTimestampTooFarInPast",
      "inputs": []
    },
    {
      "type": "error",
      "name": "CannotCheckpointTwiceInSingleBlock",
      "inputs": []
    },
    {
      "type": "error",
      "name": "CheckpointAlreadyActive",
      "inputs": []
    },
    {
      "type": "error",
      "name": "CredentialsAlreadyVerified",
      "inputs": []
    },
    {
      "type": "error",
      "name": "CurrentlyPaused",
      "inputs": []
    },
    {
      "type": "error",
      "name": "EmptyRoot",
      "inputs": []
    },
    {
      "type": "error",
      "name": "FeeQueryFailed",
      "inputs": []
    },
    {
      "type": "error",
      "name": "ForkTimestampZero",
      "inputs": []
    },
    {
      "type": "error",
      "name": "InputAddressZero",
      "inputs": []
    },
    {
      "type": "error",
      "name": "InputArrayLengthMismatch",
      "inputs": []
    },
    {
      "type": "error",
      "name": "InsufficientFunds",
      "inputs": []
    },
    {
      "type": "error",
      "name": "InsufficientWithdrawableBalance",
      "inputs": []
    },
    {
      "type": "error",
      "name": "InvalidEIP4788Response",
      "inputs": []
    },
    {
      "type": "error",
      "name": "InvalidIndex",
      "inputs": []
    },
    {
      "type": "error",
      "name": "InvalidProof",
      "inputs": []
    },
    {
      "type": "error",
      "name": "InvalidProofLength",
      "inputs": []
    },
    {
      "type": "error",
      "name": "InvalidProofLength",
      "inputs": []
    },
    {
      "type": "error",
      "name": "InvalidPubKeyLength",
      "inputs": []
    },
    {
      "type": "error",
      "name": "InvalidValidatorFieldsLength",
      "inputs": []
    },
    {
      "type": "error",
      "name": "LeavesNotPowerOfTwo",
      "inputs": []
    },
    {
      "type": "error",
      "name": "MsgValueNot32ETH",
      "inputs": []
    },
    {
      "type": "error",
      "name": "NoActiveCheckpoint",
      "inputs": []
    },
    {
      "type": "error",
      "name": "NoBalanceToCheckpoint",
      "inputs": []
    },
    {
      "type": "error",
      "name": "NotEnoughLeaves",
      "inputs": []
    },
    {
      "type": "error",
      "name": "OnlyEigenPodManager",
      "inputs": []
    },
    {
      "type": "error",
      "name": "OnlyEigenPodOwner",
      "inputs": []
    },
    {
      "type": "error",
      "name": "OnlyEigenPodOwnerOrProofSubmitter",
      "inputs": []
    },
    {
      "type": "error",
      "name": "PredeployFailed",
      "inputs": []
    },
    {
      "type": "error",
      "name": "TimestampOutOfRange",
      "inputs": []
    },
    {
      "type": "error",
      "name": "ValidatorInactiveOnBeaconChain",
      "inputs": []
    },
    {
      "type": "error",
      "name": "ValidatorIsExitingBeaconChain",
      "inputs": []
    },
    {
      "type": "error",
      "name": "ValidatorNotActiveInPod",
      "inputs": []
    },
    {
      "type": "error",
      "name": "ValidatorNotSlashedOnBeaconChain",
      "inputs": []
    },
    {
      "type": "error",
      "name": "WithdrawalCredentialsNotForEigenPod",
      "inputs": []
    }
  ],
  "bytecode": {
    "object": "0x60c060405234801561000f575f5ffd5b5060405161473838038061473883398101604081905261002e91610123565b6001600160a01b03808316608052811660a052610049610050565b505061015b565b5f54610100900460ff16156100bb5760405162461bcd60e51b815260206004820152602760248201527f496e697469616c697a61626c653a20636f6e747261637420697320696e697469604482015266616c697a696e6760c81b606482015260840160405180910390fd5b5f5460ff9081161461010a575f805460ff191660ff9081179091556040519081527f7f26b83ff96e1f2b6a682f133852f6798a09c465da95921460cefb38474024989060200160405180910390a15b565b6001600160a01b0381168114610120575f5ffd5b50565b5f5f60408385031215610134575f5ffd5b825161013f8161010c565b60208401519092506101508161010c565b809150509250929050565b60805160a05161455a6101de5f395f818161031e015281816106a801528181610750015281816109fe01528181610dbf01528181610fb9015281816110990152818161159a01528181611641015281816118ca01528181611c1801528181611d4c0152818161222201526130ef01525f818161054e01526116aa015261455a5ff3fe6080604052600436106101b2575f3560e01c80636c0d2d5a116100e7578063c44e30dc11610087578063d06d558711610062578063d06d558714610613578063dda3346c14610632578063ee94d67c14610651578063f074ba6214610670575f5ffd5b8063c44e30dc146105c1578063c4907442146105d5578063c4d66de8146105f4575f5ffd5b806374cdd798116100c257806374cdd7981461053d57806388676cad146105705780639b4e46341461058f578063b522538a146105a2575f5ffd5b80636c0d2d5a146104bd5780636fcd0e53146104dc5780637439841f14610508575f5ffd5b806342ecff2a1161015257806352396a591161012d57806352396a591461042b578063587533571461045f57806358eaee791461047e5780636691954e146104aa575f5ffd5b806342ecff2a146102e75780634665bcda1461030d57806347d2837214610340575f5ffd5b80632340e8d31161018d5780632340e8d31461026f5780633474aa16146102845780633f5fa57a146102b55780633f65cf19146102c8575f5ffd5b8063039157d2146101f05780630b18ff66146102115780631e5155331461024d575f5ffd5b366101ec576040513481527f6fdd3dbdb173299608c0aa9f368735857c8842b581f8389238bf05bd04b3bf499060200160405180910390a1005b5f5ffd5b3480156101fb575f5ffd5b5061020f61020a366004613a01565b61068f565b005b34801561021c575f5ffd5b50603354610230906001600160a01b031681565b6040516001600160a01b0390911681526020015b60405180910390f35b348015610258575f5ffd5b506102616109c4565b604051908152602001610244565b34801561027a575f5ffd5b5061026160395481565b34801561028f575f5ffd5b506034546001600160401b03165b6040516001600160401b039091168152602001610244565b61020f6102c3366004613abc565b6109e5565b3480156102d3575f5ffd5b5061020f6102e2366004613afa565b610d66565b3480156102f2575f5ffd5b50603a5461029d90600160401b90046001600160401b031681565b348015610318575f5ffd5b506102307f000000000000000000000000000000000000000000000000000000000000000081565b34801561034b575f5ffd5b506103d06040805160a0810182525f80825260208201819052918101829052606081018290526080810191909152506040805160a081018252603c548152603d5462ffffff811660208301526001600160401b0363010000008204811693830193909352600160581b810460070b6060830152600160981b9004909116608082015290565b60405161024491905f60a0820190508251825262ffffff60208401511660208301526001600160401b036040840151166040830152606083015160070b60608301526001600160401b03608084015116608083015292915050565b348015610436575f5ffd5b5061029d610445366004613bd1565b603b6020525f90815260409020546001600160401b031681565b34801561046a575f5ffd5b50603e54610230906001600160a01b031681565b348015610489575f5ffd5b5061049d610498366004613c29565b61101e565b6040516102449190613c8f565b61020f6104b8366004613abc565b611080565b3480156104c8575f5ffd5b506102616104d7366004613bd1565b611388565b3480156104e7575f5ffd5b506104fb6104f6366004613c9d565b611496565b6040516102449190613cb4565b348015610513575f5ffd5b5061049d610522366004613c9d565b5f90815260366020526040902054600160c01b900460ff1690565b348015610548575f5ffd5b506102307f000000000000000000000000000000000000000000000000000000000000000081565b34801561057b575f5ffd5b5061020f61058a366004613d14565b611541565b61020f61059d366004613d2f565b611636565b3480156105ad575f5ffd5b506104fb6105bc366004613c29565b6117b4565b3480156105cc575f5ffd5b506102616118a3565b3480156105e0575f5ffd5b5061020f6105ef366004613dc4565b6118bf565b3480156105ff575f5ffd5b5061020f61060e366004613dee565b6119f6565b34801561061e575f5ffd5b5061020f61062d366004613dee565b611b40565b34801561063d575f5ffd5b5061020f61064c366004613ed9565b611bd4565b34801561065c575f5ffd5b50603a5461029d906001600160401b031681565b34801561067b575f5ffd5b5061020f61068a366004613fab565b611d33565b604051635ac86ab760e01b8152600660048201819052907f00000000000000000000000000000000000000000000000000000000000000006001600160a01b031690635ac86ab790602401602060405180830381865afa1580156106f5573d5f5f3e3d5ffd5b505050506040513d601f19601f820116820180604052508101906107199190614012565b156107375760405163840a48d560e01b815260040160405180910390fd5b604051635ac86ab760e01b8152600860048201819052907f00000000000000000000000000000000000000000000000000000000000000006001600160a01b031690635ac86ab790602401602060405180830381865afa15801561079d573d5f5f3e3d5ffd5b505050506040513d601f19601f820116820180604052508101906107c19190614012565b156107df5760405163840a48d560e01b815260040160405180910390fd5b5f6108236107ed858061402d565b808060200260200160405190810160405280939291908181526020018383602002808284375f9201919091525061212f92505050565b5f818152603660209081526040808320815160808101835281546001600160401b038082168352600160401b8204811695830195909552600160801b8104909416928101929092529394509192906060830190600160c01b900460ff16600281111561089157610891613c5b565b60028111156108a2576108a2613c5b565b81525050905080604001516001600160401b0316876001600160401b0316116108de576040516337e07ffd60e01b815260040160405180910390fd5b6001816060015160028111156108f6576108f6613c5b565b146109145760405163d49e19a760e01b815260040160405180910390fd5b610957610921868061402d565b808060200260200160405190810160405280939291908181526020018383602002808284375f9201919091525061215192505050565b6109745760405163161ce5ed60e31b815260040160405180910390fd5b61098661098088611388565b87612179565b6109b26109928861221e565b873561099e888061402d565b6109ab60208b018b614072565b87516122f5565b6109bb5f612429565b50505050505050565b5f6109e071bbddc7ce488642fb579f8b00f3a5900072516125a9565b905090565b604051635ac86ab760e01b8152600a60048201819052907f00000000000000000000000000000000000000000000000000000000000000006001600160a01b031690635ac86ab790602401602060405180830381865afa158015610a4b573d5f5f3e3d5ffd5b505050506040513d601f19601f82011682018060405250810190610a6f9190614012565b15610a8d5760405163840a48d560e01b815260040160405180910390fd5b6033546001600160a01b0316331480610ab05750603e546001600160a01b031633145b610acd5760405163427a777960e01b815260040160405180910390fd5b5f610ad66118a3565b90505f610ae384836140c8565b905080341015610b065760405163356680b760e01b815260040160405180910390fd5b5f610b1182346140df565b90505f5b85811015610d4d5736878783818110610b3057610b306140f2565b9050602002810190610b429190614106565b90505f610b8b610b528380614072565b8080601f0160208091040260200160405190810160405280939291908181526020018383808284375f9201919091525061262f92505050565b905060015f82815260366020526040902054600160c01b900460ff166002811115610bb857610bb8613c5b565b14610bd65760405163d49e19a760e01b815260040160405180910390fd5b5f610be18380614072565b610bf16040860160208701613bd1565b604051602001610c0393929190614124565b60405160208183030381529060405290505f710961ef480eb55e80d19ad83579a64c0070026001600160a01b03168883604051610c40919061415c565b5f6040518083038185875af1925050503d805f8114610c7a576040519150601f19603f3d011682016040523d82523d5f602084013e610c7f565b606091505b5050905080610ca15760405163fc52d48360e01b815260040160405180910390fd5b610cb16040850160208601613bd1565b6001600160401b03165f03610cef5760405183907f60d8ca014d4765a2b8b389e25714cb1cef83b574222911a01d90c1bd69d2d320905f90a2610d3d565b827f8b2737bb64ab2f2dc09552dfa1c250399e6a42c7ea9f0e1c658f5d65d708ec05610d216040870160208801613bd1565b6040516001600160401b03909116815260200160405180910390a25b505060019092019150610b159050565b508015610d5e57610d5e33826126c0565b505050505050565b6033546001600160a01b0316331480610d895750603e546001600160a01b031633145b610da65760405163427a777960e01b815260040160405180910390fd5b604051635ac86ab760e01b8152600260048201819052907f00000000000000000000000000000000000000000000000000000000000000006001600160a01b031690635ac86ab790602401602060405180830381865afa158015610e0c573d5f5f3e3d5ffd5b505050506040513d601f19601f82011682018060405250810190610e309190614012565b15610e4e5760405163840a48d560e01b815260040160405180910390fd5b8584148015610e5c57508382145b610e79576040516343714afd60e01b815260040160405180910390fd5b603a546001600160401b03600160401b9091048116908a1611610eaf576040516337e07ffd60e01b815260040160405180910390fd5b603a546001600160401b03908116908a1611610ede576040516335e7f6b760e01b815260040160405180910390fd5b610ef0610eea8a611388565b89612179565b5f805b87811015610f8957610f758b8b358b8b85818110610f1357610f136140f2565b9050602002016020810190610f289190614167565b8a8a86818110610f3a57610f3a6140f2565b9050602002810190610f4c9190614072565b8a8a88818110610f5e57610f5e6140f2565b9050602002810190610f70919061402d565b6127d5565b610f7f908361418b565b9150600101610ef3565b5060335460405163a1ca780b60e01b81526001600160a01b0391821660048201525f6024820152604481018390527f00000000000000000000000000000000000000000000000000000000000000009091169063a1ca780b906064015f604051808303815f87803b158015610ffc575f5ffd5b505af115801561100e573d5f5f3e3d5ffd5b5050505050505050505050505050565b5f5f61105e84848080601f0160208091040260200160405190810160405280939291908181526020018383808284375f9201919091525061262f92505050565b5f90815260366020526040902054600160c01b900460ff169150505b92915050565b604051635ac86ab760e01b8152600960048201819052907f00000000000000000000000000000000000000000000000000000000000000006001600160a01b031690635ac86ab790602401602060405180830381865afa1580156110e6573d5f5f3e3d5ffd5b505050506040513d601f19601f8201168201806040525081019061110a9190614012565b156111285760405163840a48d560e01b815260040160405180910390fd5b6033546001600160a01b031633148061114b5750603e546001600160a01b031633145b6111685760405163427a777960e01b815260040160405180910390fd5b5f6111716109c4565b90505f61117e84836140c8565b9050803410156111a15760405163356680b760e01b815260040160405180910390fd5b5f6111ac82346140df565b90505f5b85811015610d4d57368787838181106111cb576111cb6140f2565b90506020028101906111dd9190614106565b90505f6111ed610b528380614072565b90505f611200610b526020850185614072565b905060015f82815260366020526040902054600160c01b900460ff16600281111561122d5761122d613c5b565b1461124b5760405163d49e19a760e01b815260040160405180910390fd5b5f6112568480614072565b6112636020870187614072565b604051602001611276949392919061419e565b60405160208183030381529060405290505f71bbddc7ce488642fb579f8b00f3a5900072516001600160a01b031689836040516112b3919061415c565b5f6040518083038185875af1925050503d805f81146112ed576040519150601f19603f3d011682016040523d82523d5f602084013e6112f2565b606091505b50509050806113145760405163fc52d48360e01b815260040160405180910390fd5b82840361134a5760405184907fc97b965b92ae7fd20095fe8eb7b99f81f95f8c4adffb22a19116d8eb2846b016905f90a2611377565b604051839085907f42f9c9db2ca443e9ec62f4588bd0c9b241065c02c2a8001ac164ae1282dc7b94905f90a35b5050600190930192506111b0915050565b5f611396611fff600c6140c8565b6113a96001600160401b038416426140df565b106113c757604051637944e66d60e11b815260040160405180910390fd5b604080516001600160401b03841660208201525f918291720f3df6d732807ef1319fb7b8bb8522d0beac02910160408051601f198184030181529082905261140e9161415c565b5f60405180830381855afa9150503d805f8114611446576040519150601f19603f3d011682016040523d82523d5f602084013e61144b565b606091505b509150915081801561145d57505f8151115b61147a5760405163558ad0a360e01b815260040160405180910390fd5b8080602001905181019061148e91906141bd565b949350505050565b6114bd604080516080810182525f8082526020820181905291810182905290606082015290565b5f82815260366020908152604091829020825160808101845281546001600160401b038082168352600160401b8204811694830194909452600160801b810490931693810193909352906060830190600160c01b900460ff16600281111561152757611527613c5b565b600281111561153857611538613c5b565b90525092915050565b6033546001600160a01b03163314806115645750603e546001600160a01b031633145b6115815760405163427a777960e01b815260040160405180910390fd5b604051635ac86ab760e01b8152600660048201819052907f00000000000000000000000000000000000000000000000000000000000000006001600160a01b031690635ac86ab790602401602060405180830381865afa1580156115e7573d5f5f3e3d5ffd5b505050506040513d601f19601f8201168201806040525081019061160b9190614012565b156116295760405163840a48d560e01b815260040160405180910390fd5b61163282612429565b5050565b336001600160a01b037f0000000000000000000000000000000000000000000000000000000000000000161461167f57604051633213a66160e21b815260040160405180910390fd5b346801bc16d674ec800000146116a85760405163049696b360e31b815260040160405180910390fd5b7f00000000000000000000000000000000000000000000000000000000000000006001600160a01b031663228951186801bc16d674ec80000087876116eb612cd6565b8888886040518863ffffffff1660e01b815260040161170f9695949392919061422a565b5f604051808303818588803b158015611726575f5ffd5b505af1158015611738573d5f5f3e3d5ffd5b50505050507fa01003766d3cd97cf2ade5429690bf5d206be7fb01ef9d3a0089ecf67bc1121961179c86868080601f0160208091040260200160405190810160405280939291908181526020018383808284375f9201919091525061262f92505050565b60405190815260200160405180910390a15050505050565b6117db604080516080810182525f8082526020820181905291810182905290606082015290565b60365f61181c85858080601f0160208091040260200160405190810160405280939291908181526020018383808284375f9201919091525061262f92505050565b815260208082019290925260409081015f20815160808101835281546001600160401b038082168352600160401b8204811695830195909552600160801b81049094169281019290925290916060830190600160c01b900460ff16600281111561188857611888613c5b565b600281111561189957611899613c5b565b9052509392505050565b5f6109e0710961ef480eb55e80d19ad83579a64c0070026125a9565b336001600160a01b037f0000000000000000000000000000000000000000000000000000000000000000161461190857604051633213a66160e21b815260040160405180910390fd5b5f611917633b9aca008361428c565b9050611930633b9aca006001600160401b0383166140c8565b6034549092506001600160401b039081169082161115611963576040516302c6f54760e21b815260040160405180910390fd5b603480548291905f906119809084906001600160401b031661429f565b92506101000a8154816001600160401b0302191690836001600160401b03160217905550826001600160a01b03167f8947fd2ce07ef9cc302c4e8f0461015615d91ce851564839e91cc804c2f49d8e836040516119df91815260200190565b60405180910390a26119f183836126c0565b505050565b5f54610100900460ff1615808015611a1457505f54600160ff909116105b80611a2d5750303b158015611a2d57505f5460ff166001145b611a955760405162461bcd60e51b815260206004820152602e60248201527f496e697469616c697a61626c653a20636f6e747261637420697320616c72656160448201526d191e481a5b9a5d1a585b1a5e995960921b60648201526084015b60405180910390fd5b5f805460ff191660011790558015611ab6575f805461ff0019166101001790555b6001600160a01b038216611add576040516339b190bb60e11b815260040160405180910390fd5b603380546001600160a01b0319166001600160a01b0384161790558015611632575f805461ff0019169055604051600181527f7f26b83ff96e1f2b6a682f133852f6798a09c465da95921460cefb38474024989060200160405180910390a15050565b6033546001600160a01b03163314611b6b5760405163719f370360e11b815260040160405180910390fd5b603e54604080516001600160a01b03928316815291831660208301527ffb8129080a19d34dceac04ba253fc50304dc86c729bd63cdca4a969ad19a5eac910160405180910390a1603e80546001600160a01b0319166001600160a01b0392909216919091179055565b6033546001600160a01b03163314611bff5760405163719f370360e11b815260040160405180910390fd5b604051635ac86ab760e01b8152600560048201819052907f00000000000000000000000000000000000000000000000000000000000000006001600160a01b031690635ac86ab790602401602060405180830381865afa158015611c65573d5f5f3e3d5ffd5b505050506040513d601f19601f82011682018060405250810190611c899190614012565b15611ca75760405163840a48d560e01b815260040160405180910390fd5b8251845114611cc9576040516343714afd60e01b815260040160405180910390fd5b5f5b8451811015611d2c57611d2483858381518110611cea57611cea6140f2565b6020026020010151878481518110611d0457611d046140f2565b60200260200101516001600160a01b0316612d069092919063ffffffff16565b600101611ccb565b5050505050565b604051635ac86ab760e01b8152600760048201819052907f00000000000000000000000000000000000000000000000000000000000000006001600160a01b031690635ac86ab790602401602060405180830381865afa158015611d99573d5f5f3e3d5ffd5b505050506040513d601f19601f82011682018060405250810190611dbd9190614012565b15611ddb5760405163840a48d560e01b815260040160405180910390fd5b603a54600160401b90046001600160401b03165f819003611e0f57604051631a544f4960e01b815260040160405180910390fd5b6040805160a081018252603c548152603d5462ffffff811660208301526001600160401b0363010000008204811693830193909352600160581b810460070b6060830152600160981b90049091166080820152611e76611e6e8361221e565b825188612d58565b5f805b858110156120d65736878783818110611e9457611e946140f2565b9050602002810190611ea691906142be565b80355f908152603660209081526040808320815160808101835281546001600160401b038082168352600160401b8204811695830195909552600160801b8104909416928101929092529394509192906060830190600160c01b900460ff166002811115611f1657611f16613c5b565b6002811115611f2757611f27613c5b565b9052509050600181606001516002811115611f4457611f44613c5b565b14611f505750506120ce565b856001600160401b031681604001516001600160401b031610611f745750506120ce565b5f8080611f84848a8f3588612e19565b60208b0180519396509194509250611f9b826142d2565b62ffffff16905250608088018051849190611fb79083906142ef565b6001600160401b0316905250606088018051839190611fd790839061430e565b60070b905250611fe781886142ef565b85355f908152603660209081526040918290208751815492890151938901516001600160401b03908116600160801b0267ffffffffffffffff60801b19958216600160401b026001600160801b0319909516919092161792909217928316821781556060880151939a50879390929091839160ff60c01b1990911668ffffffffffffffffff60801b1990911617600160c01b83600281111561208b5761208b613c5b565b021790555050604051863591506001600160401b038b16907fe4866335761a51dcaff766448ab0af6064291ee5dc94e68492bb9cd757c1e350905f90a350505050505b600101611e79565b506001600160401b038084165f908152603b6020526040812080548493919291612102918591166142ef565b92506101000a8154816001600160401b0302191690836001600160401b031602179055506109bb82612f2f565b5f815f81518110612142576121426140f2565b60200260200101519050919050565b5f81600381518110612165576121656140f2565b60200260200101515f5f1b14159050919050565b612185600360206140c8565b6121926020830183614072565b9050146121b2576040516313717da960e21b815260040160405180910390fd5b6122016121c26020830183614072565b8080601f0160208091040260200160405190810160405280939291908181526020018383808284375f920191909152508692505084359050600361314f565b611632576040516309bde33960e01b815260040160405180910390fd5b5f5f7f00000000000000000000000000000000000000000000000000000000000000006001600160a01b0316632704351a6040518163ffffffff1660e01b8152600401602060405180830381865afa15801561227c573d5f5f3e3d5ffd5b505050506040513d601f19601f820116820180604052508101906122a0919061433d565b9050806001600160401b03165f036122cb576040516341a02cc960e01b815260040160405180910390fd5b806001600160401b0316836001600160401b031611156122ec5760016122ee565b5f5b9392505050565b600884146123165760405163200591bd60e01b815260040160405180910390fd5b5f61232088613184565b90508061232f6028600161418b565b612339919061418b565b6123449060206140c8565b8314612363576040516313717da960e21b815260040160405180910390fd5b5f61239f8787808060200260200160405190810160405280939291908181526020018383602002808284375f920191909152506131ac92505050565b90505f64ffffffffff84166123b66028600161418b565b600b901b17905061240086868080601f0160208091040260200160405190810160405280939291908181526020018383808284375f920191909152508d925086915085905061314f565b61241d576040516309bde33960e01b815260040160405180910390fd5b50505050505050505050565b603a54600160401b90046001600160401b0316156124595760405162be9bc360e81b815260040160405180910390fd5b603a546001600160401b03428116911603612487576040516367db5b8b60e01b815260040160405180910390fd5b6034545f906001600160401b03166124a3633b9aca004761428c565b6124ad919061429f565b90508180156124c357506001600160401b038116155b156124e1576040516332dea95960e21b815260040160405180910390fd5b5f6040518060a001604052806124f642611388565b815260395462ffffff1660208201526001600160401b0380851660408301525f60608301819052608090920191909152603a805442909216600160401b026fffffffffffffffff000000000000000019909216919091179055905061255a81612f2f565b805160208083015160405162ffffff90911681526001600160401b034216917f575796133bbed337e5b39aa49a30dc2556a91e0c6c2af4b7b886ae77ebef1076910160405180910390a3505050565b5f5f5f836001600160a01b03166040515f60405180830381855afa9150503d805f81146125f1576040519150601f19603f3d011682016040523d82523d5f602084013e6125f6565b606091505b5091509150818015612609575080516020145b6126265760405163c90158af60e01b815260040160405180910390fd5b61148e81614358565b5f815160301461265257604051634f88323960e11b815260040160405180910390fd5b6040516002906126689084905f9060200161437b565b60408051601f19818403018152908290526126829161415c565b602060405180830381855afa15801561269d573d5f5f3e3d5ffd5b5050506040513d601f19601f8201168201806040525081019061107a91906141bd565b804710156127105760405162461bcd60e51b815260206004820152601d60248201527f416464726573733a20696e73756666696369656e742062616c616e63650000006044820152606401611a8c565b5f826001600160a01b0316826040515f6040518083038185875af1925050503d805f8114612759576040519150601f19603f3d011682016040523d82523d5f602084013e61275e565b606091505b50509050806119f15760405162461bcd60e51b815260206004820152603a60248201527f416464726573733a20756e61626c6520746f2073656e642076616c75652c207260448201527f6563697069656e74206d617920686176652072657665727465640000000000006064820152608401611a8c565b5f5f6128128484808060200260200160405190810160405280939291908181526020018383602002808284375f9201919091525061212f92505050565b5f818152603660209081526040808320815160808101835281546001600160401b038082168352600160401b8204811695830195909552600160801b8104909416928101929092529394509192906060830190600160c01b900460ff16600281111561288057612880613c5b565b600281111561289157612891613c5b565b90525090505f816060015160028111156128ad576128ad613c5b565b146128cb576040516335e09e9d60e01b815260040160405180910390fd5b6001600160401b0380166129108686808060200260200160405190810160405280939291908181526020018383602002808284375f9201919091525061347a92505050565b6001600160401b03160361293757604051631958236d60e21b815260040160405180910390fd5b6001600160401b03801661297c8686808060200260200160405190810160405280939291908181526020018383602002808284375f9201919091525061349e92505050565b6001600160401b0316146129a357604051632eade63760e01b815260040160405180910390fd5b6129ab612cd6565b6129b490614358565b6129ef8686808060200260200160405190810160405280939291908181526020018383602002808284375f920191909152506134b592505050565b1480612a4457506129fe6134c9565b612a0790614358565b612a428686808060200260200160405190810160405280939291908181526020018383602002808284375f920191909152506134b592505050565b145b612a6157604051633772dd5360e11b815260040160405180910390fd5b5f612a9d8686808060200260200160405190810160405280939291908181526020018383602002808284375f920191909152506134e592505050565b9050612ab6612aab8c61221e565b8b88888c8c8f6122f5565b60398054905f612ac58361439f565b9091555050603a545f90600160401b90046001600160401b031615612afc57603a54600160401b90046001600160401b0316612b09565b603a546001600160401b03165b6040805160808101825264ffffffffff8d1681526001600160401b03858116602083015283169181019190915290915060608101600190525f858152603660209081526040918290208351815492850151938501516001600160401b03908116600160801b0267ffffffffffffffff60801b19958216600160401b026001600160801b031990951691909216179290921792831682178155606084015190929091839160ff60c01b1990911668ffffffffffffffffff60801b1990911617600160c01b836002811115612bde57612bde613c5b565b021790555050603d8054849250601390612c09908490600160981b90046001600160401b03166142ef565b92506101000a8154816001600160401b0302191690836001600160401b031602179055507f101790c2993f6a4d962bd17c786126823ba1c4cf04ff4cccb2659d50fb20aee884604051612c5e91815260200190565b60405180910390a1604080518581526001600160401b03838116602083015284168183015290517fcdae700d7241bc027168c53cf6f889763b0a2c88a65d77fc13a8a9fef0d8605f9181900360600190a1612cc6633b9aca006001600160401b0384166140c8565b9c9b505050505050505050505050565b604051606090612cf290600160f81b905f9030906020016143b7565b604051602081830303815290604052905090565b604080516001600160a01b038416602482015260448082018490528251808303909101815260649091019091526020810180516001600160e01b031663a9059cbb60e01b1790526119f19084906134fc565b5f612d6284613184565b9050612d6f81600361418b565b612d7a9060206140c8565b612d876020840184614072565b905014612da7576040516313717da960e21b815260040160405180910390fd5b6003811b600c17612dfc612dbe6020850185614072565b8080601f0160208091040260200160405190810160405280939291908181526020018383808284375f9201919091525088925050863590508461314f565b611d2c576040516309bde33960e01b815260040160405180910390fd5b5f5f5f866020015192505f612e3286895f0151876135cf565b9050836001600160401b0316816001600160401b031614612ea657612e5784826143f5565b60408051873581526001600160401b038a8116602083015284168183015290519194507fcdae700d7241bc027168c53cf6f889763b0a2c88a65d77fc13a8a9fef0d8605f919081900360600190a15b6001600160401b0380821660208a0181905290881660408a01525f03612f245760398054905f612ed583614424565b909155505060026060890152612eea83614439565b6040519092508535906001600160401b038916907f5ce0aa04ae51d52da6e680fbe0336d2e2432f7c3dc2d4f3193204c57b9072107905f90a35b509450945094915050565b8051603c556020810151603d805460408401516060850151608086015162ffffff9095166affffffffffffffffffffff19909316831763010000006001600160401b0393841602176fffffffffffffffffffffffffffffffff60581b1916600160581b9183169190910267ffffffffffffffff60981b191617600160981b919094160292909217905515612fc05750565b60808101516034545f91612fdc916001600160401b03166142ef565b90505f82606001518360400151612ff3919061430e565b60408401516034805492935090915f906130179084906001600160401b03166142ef565b82546101009290920a6001600160401b03818102199093169183160217909155603a8054600160401b810483166001600160801b03199091161790555f915061306790633b9aca009085166140c8565b90505f61307c633b9aca00600785900b61445e565b603a546040518281529192506001600160401b0316907f525408c201bc1576eb44116f6478f1c2a54775b19a043bcfdc708364f74f8e449060200160405180910390a260335460405163a1ca780b60e01b81526001600160a01b03918216600482015260248101849052604481018390527f00000000000000000000000000000000000000000000000000000000000000009091169063a1ca780b906064015f604051808303815f87803b158015613132575f5ffd5b505af1158015613144573d5f5f3e3d5ffd5b505050505050505050565b5f8361316e576040516329e7276760e11b815260040160405180910390fd5b8361317a8685856136ad565b1495945050505050565b5f8082600181111561319857613198613c5b565b146131a457600661107a565b600592915050565b5f60018251116131cf5760405163f8ef036760e01b815260040160405180910390fd5b6131d982516137a0565b6131f65760405163f6558f5160e01b815260040160405180910390fd5b5f60028351613205919061428c565b90505f816001600160401b0381111561322057613220613e09565b604051908082528060200260200182016040528015613249578160200160208202803683370190505b5090505f5b828110156133435760028561326383836140c8565b81518110613273576132736140f2565b60200260200101518683600261328991906140c8565b61329490600161418b565b815181106132a4576132a46140f2565b60200260200101516040516020016132c6929190918252602082015260400190565b60408051601f19818403018152908290526132e09161415c565b602060405180830381855afa1580156132fb573d5f5f3e3d5ffd5b5050506040513d601f19601f8201168201806040525081019061331e91906141bd565b828281518110613330576133306140f2565b602090810291909101015260010161324e565b505b816001146134575761335860028361428c565b91505f5b828110156134515760028261337183836140c8565b81518110613381576133816140f2565b60200260200101518383600261339791906140c8565b6133a290600161418b565b815181106133b2576133b26140f2565b60200260200101516040516020016133d4929190918252602082015260400190565b60408051601f19818403018152908290526133ee9161415c565b602060405180830381855afa158015613409573d5f5f3e3d5ffd5b5050506040513d601f19601f8201168201806040525081019061342c91906141bd565b82828151811061343e5761343e6140f2565b602090810291909101015260010161335c565b50613345565b805f81518110613469576134696140f2565b602002602001015192505050919050565b5f61107a82600581518110613491576134916140f2565b60200260200101516137bf565b5f61107a82600681518110613491576134916140f2565b5f81600181518110612142576121426140f2565b604051606090612cf290600160f91b905f9030906020016143b7565b5f61107a82600281518110613491576134916140f2565b5f613550826040518060400160405280602081526020017f5361666545524332303a206c6f772d6c6576656c2063616c6c206661696c6564815250856001600160a01b03166138269092919063ffffffff16565b905080515f14806135705750808060200190518101906135709190614012565b6119f15760405162461bcd60e51b815260206004820152602a60248201527f5361666545524332303a204552433230206f7065726174696f6e20646964206e6044820152691bdd081cdd58d8d9595960b21b6064820152608401611a8c565b5f6135dc6026600161418b565b6135e79060206140c8565b6135f46040840184614072565b905014613614576040516313717da960e21b815260040160405180910390fd5b5f61362060048561448d565b64ffffffffff1690506136796136396040850185614072565b8080601f0160208091040260200160405190810160405280939291908181526020018383808284375f92019190915250899250505060208601358461314f565b613696576040516309bde33960e01b815260040160405180910390fd5b6136a4836020013585613834565b95945050505050565b5f83515f141580156136ca5750602084516136c891906144b6565b155b6136e7576040516313717da960e21b815260040160405180910390fd5b604080516020808201909252848152905b855181116137775761370b6002856144b6565b5f0361373d5781515f528086015160205260208260405f60026107d05a03fa613732575f5ffd5b600284049350613765565b808601515f52815160205260208260405f60026107d05a03fa61375e575f5ffd5b6002840493505b61377060208261418b565b90506136f8565b508215613797576040516363df817160e01b815260040160405180910390fd5b51949350505050565b5f811580159061107a57506137b66001836140df565b82161592915050565b60f881901c60e882901c61ff00161760d882901c62ff0000161760c882901c63ff000000161764ff0000000060b883901c161765ff000000000060a883901c161766ff000000000000609883901c161767ff0000000000000060889290921c919091161790565b606061148e84845f85613860565b5f806138416004846144c9565b61384c9060406144f2565b64ffffffffff16905061148e84821b6137bf565b6060824710156138c15760405162461bcd60e51b815260206004820152602660248201527f416464726573733a20696e73756666696369656e742062616c616e636520666f6044820152651c8818d85b1b60d21b6064820152608401611a8c565b5f5f866001600160a01b031685876040516138dc919061415c565b5f6040518083038185875af1925050503d805f8114613916576040519150601f19603f3d011682016040523d82523d5f602084013e61391b565b606091505b509150915061392c87838387613937565b979650505050505050565b606083156139a55782515f0361399e576001600160a01b0385163b61399e5760405162461bcd60e51b815260206004820152601d60248201527f416464726573733a2063616c6c20746f206e6f6e2d636f6e74726163740000006044820152606401611a8c565b508161148e565b61148e83838151156139ba5781518083602001fd5b8060405162461bcd60e51b8152600401611a8c9190614512565b6001600160401b03811681146139e8575f5ffd5b50565b5f604082840312156139fb575f5ffd5b50919050565b5f5f5f60608486031215613a13575f5ffd5b8335613a1e816139d4565b925060208401356001600160401b03811115613a38575f5ffd5b613a44868287016139eb565b92505060408401356001600160401b03811115613a5f575f5ffd5b613a6b868287016139eb565b9150509250925092565b5f5f83601f840112613a85575f5ffd5b5081356001600160401b03811115613a9b575f5ffd5b6020830191508360208260051b8501011115613ab5575f5ffd5b9250929050565b5f5f60208385031215613acd575f5ffd5b82356001600160401b03811115613ae2575f5ffd5b613aee85828601613a75565b90969095509350505050565b5f5f5f5f5f5f5f5f60a0898b031215613b11575f5ffd5b8835613b1c816139d4565b975060208901356001600160401b03811115613b36575f5ffd5b613b428b828c016139eb565b97505060408901356001600160401b03811115613b5d575f5ffd5b613b698b828c01613a75565b90975095505060608901356001600160401b03811115613b87575f5ffd5b613b938b828c01613a75565b90955093505060808901356001600160401b03811115613bb1575f5ffd5b613bbd8b828c01613a75565b999c989b5096995094979396929594505050565b5f60208284031215613be1575f5ffd5b81356122ee816139d4565b5f5f83601f840112613bfc575f5ffd5b5081356001600160401b03811115613c12575f5ffd5b602083019150836020828501011115613ab5575f5ffd5b5f5f60208385031215613c3a575f5ffd5b82356001600160401b03811115613c4f575f5ffd5b613aee85828601613bec565b634e487b7160e01b5f52602160045260245ffd5b60038110613c8b57634e487b7160e01b5f52602160045260245ffd5b9052565b6020810161107a8284613c6f565b5f60208284031215613cad575f5ffd5b5035919050565b5f6080820190506001600160401b0383511682526001600160401b0360208401511660208301526001600160401b0360408401511660408301526060830151613d006060840182613c6f565b5092915050565b80151581146139e8575f5ffd5b5f60208284031215613d24575f5ffd5b81356122ee81613d07565b5f5f5f5f5f60608688031215613d43575f5ffd5b85356001600160401b03811115613d58575f5ffd5b613d6488828901613bec565b90965094505060208601356001600160401b03811115613d82575f5ffd5b613d8e88828901613bec565b96999598509660400135949350505050565b6001600160a01b03811681146139e8575f5ffd5b8035613dbf81613da0565b919050565b5f5f60408385031215613dd5575f5ffd5b8235613de081613da0565b946020939093013593505050565b5f60208284031215613dfe575f5ffd5b81356122ee81613da0565b634e487b7160e01b5f52604160045260245ffd5b604051601f8201601f191681016001600160401b0381118282101715613e4557613e45613e09565b604052919050565b5f6001600160401b03821115613e6557613e65613e09565b5060051b60200190565b5f82601f830112613e7e575f5ffd5b8135613e91613e8c82613e4d565b613e1d565b8082825260208201915060208360051b860101925085831115613eb2575f5ffd5b602085015b83811015613ecf578035835260209283019201613eb7565b5095945050505050565b5f5f5f60608486031215613eeb575f5ffd5b83356001600160401b03811115613f00575f5ffd5b8401601f81018613613f10575f5ffd5b8035613f1e613e8c82613e4d565b8082825260208201915060208360051b850101925088831115613f3f575f5ffd5b6020840193505b82841015613f6a578335613f5981613da0565b825260209384019390910190613f46565b955050505060208401356001600160401b03811115613f87575f5ffd5b613f9386828701613e6f565b925050613fa260408501613db4565b90509250925092565b5f5f5f60408486031215613fbd575f5ffd5b83356001600160401b03811115613fd2575f5ffd5b613fde868287016139eb565b93505060208401356001600160401b03811115613ff9575f5ffd5b61400586828701613a75565b9497909650939450505050565b5f60208284031215614022575f5ffd5b81516122ee81613d07565b5f5f8335601e19843603018112614042575f5ffd5b8301803591506001600160401b0382111561405b575f5ffd5b6020019150600581901b3603821315613ab5575f5ffd5b5f5f8335601e19843603018112614087575f5ffd5b8301803591506001600160401b038211156140a0575f5ffd5b602001915036819003821315613ab5575f5ffd5b634e487b7160e01b5f52601160045260245ffd5b808202811582820484141761107a5761107a6140b4565b8181038181111561107a5761107a6140b4565b634e487b7160e01b5f52603260045260245ffd5b5f8235603e1983360301811261411a575f5ffd5b9190910192915050565b8284823760c09190911b6001600160c01b0319169101908152600801919050565b5f81518060208401855e5f93019283525090919050565b5f6122ee8284614145565b5f60208284031215614177575f5ffd5b813564ffffffffff811681146122ee575f5ffd5b8082018082111561107a5761107a6140b4565b838582375f8482015f8152838582375f93019283525090949350505050565b5f602082840312156141cd575f5ffd5b5051919050565b81835281816020850137505f828201602090810191909152601f909101601f19169091010190565b5f81518084528060208401602086015e5f602082860101526020601f19601f83011685010191505092915050565b608081525f61423d60808301888a6141d4565b828103602084015261424f81886141fc565b905082810360408401526142648186886141d4565b915050826060830152979650505050505050565b634e487b7160e01b5f52601260045260245ffd5b5f8261429a5761429a614278565b500490565b6001600160401b03828116828216039081111561107a5761107a6140b4565b5f8235605e1983360301811261411a575f5ffd5b5f62ffffff8216806142e6576142e66140b4565b5f190192915050565b6001600160401b03818116838216019081111561107a5761107a6140b4565b600781810b9083900b01677fffffffffffffff8113677fffffffffffffff198212171561107a5761107a6140b4565b5f6020828403121561434d575f5ffd5b81516122ee816139d4565b805160208083015191908110156139fb575f1960209190910360031b1b16919050565b5f6143868285614145565b6001600160801b03199390931683525050601001919050565b5f600182016143b0576143b06140b4565b5060010190565b6001600160f81b03199390931683526001600160a81b031991909116600183015260601b6bffffffffffffffffffffffff1916600c82015260200190565b600782810b9082900b03677fffffffffffffff198112677fffffffffffffff8213171561107a5761107a6140b4565b5f81614432576144326140b4565b505f190190565b5f8160070b677fffffffffffffff198103614456576144566140b4565b5f0392915050565b8082025f8212600160ff1b84141615614479576144796140b4565b818105831482151761107a5761107a6140b4565b5f64ffffffffff8316806144a3576144a3614278565b8064ffffffffff84160491505092915050565b5f826144c4576144c4614278565b500690565b5f64ffffffffff8316806144df576144df614278565b8064ffffffffff84160691505092915050565b64ffffffffff8181168382160290811690818114613d0057613d006140b4565b602081525f6122ee60208301846141fc56fea264697066735822122005bc138fd7b195ef4b6d015737dc97c649c6394644aa38322695570f39cb1d8a64736f6c634300081e0033",
    "linkReferences": {}
  },
  "methodIdentifiers": {
    "activeValidatorCount()": "2340e8d3",
    "checkpointBalanceExitedGwei(uint64)": "52396a59",
    "currentCheckpoint()": "47d28372",
    "currentCheckpointTimestamp()": "42ecff2a",
    "eigenPodManager()": "4665bcda",
    "ethPOS()": "74cdd798",
    "getConsolidationRequestFee()": "1e515533",
    "getParentBlockRoot(uint64)": "6c0d2d5a",
    "getWithdrawalRequestFee()": "c44e30dc",
    "initialize(address)": "c4d66de8",
    "lastCheckpointTimestamp()": "ee94d67c",
    "podOwner()": "0b18ff66",
    "proofSubmitter()": "58753357",
    "recoverTokens(address[],uint256[],address)": "dda3346c",
    "requestConsolidation((bytes,bytes)[])": "6691954e",
    "requestWithdrawal((bytes,uint64)[])": "3f5fa57a",
    "setProofSubmitter(address)": "d06d5587",
    "stake(bytes,bytes,bytes32)": "9b4e4634",
    "startCheckpoint(bool)": "88676cad",
    "validatorPubkeyHashToInfo(bytes32)": "6fcd0e53",
    "validatorPubkeyToInfo(bytes)": "b522538a",
    "validatorStatus(bytes)": "58eaee79",
    "validatorStatus(bytes32)": "7439841f",
    "verifyCheckpointProofs((bytes32,bytes),(bytes32,bytes32,bytes)[])": "f074ba62",
    "verifyStaleBalance(uint64,(bytes32,bytes),(bytes32[],bytes))": "039157d2",
    "verifyWithdrawalCredentials(uint64,(bytes32,bytes),uint40[],bytes[],bytes32[][])": "3f65cf19",
    "withdrawRestakedBeaconChainETH(address,uint256)": "c4907442",
    "withdrawableRestakedExecutionLayerGwei()": "3474aa16"
  },
  "id": 186
}