{
  "abi": [
    {
      "type": "constructor",
      "inputs": [
        {
          "name": "_permissionController",
          "type": "address",
          "internalType": "contract IPermissionController"
        },
        {
          "name": "_allocationManager",
          "type": "address",
          "internalType": "contract IAllocationManager"
        },
        {
          "name": "_version",
          "type": "string",
          "internalType": "string"
        }
      ],
      "stateMutability": "nonpayable"
    },
    {
      "type": "function",
      "name": "BN254_KEY_REGISTRATION_TYPEHASH",
      "inputs": [],
      "outputs": [
        {
          "name": "",
          "type": "bytes32",
          "internalType": "bytes32"
        }
      ],
      "stateMutability": "view"
    },
    {
      "type": "function",
      "name": "ECDSA_KEY_REGISTRATION_TYPEHASH",
      "inputs": [],
      "outputs": [
        {
          "name": "",
          "type": "bytes32",
          "internalType": "bytes32"
        }
      ],
      "stateMutability": "view"
    },
    {
      "type": "function",
      "name": "allocationManager",
      "inputs": [],
      "outputs": [
        {
          "name": "",
          "type": "address",
          "internalType": "contract IAllocationManager"
        }
      ],
      "stateMutability": "view"
    },
    {
      "type": "function",
      "name": "configureOperatorSet",
      "inputs": [
        {
          "name": "operatorSet",
          "type": "tuple",
          "internalType": "struct OperatorSet",
          "components": [
            {
              "name": "avs",
              "type": "address",
              "internalType": "address"
            },
            {
              "name": "id",
              "type": "uint32",
              "internalType": "uint32"
            }
          ]
        },
        {
          "name": "curveType",
          "type": "uint8",
          "internalType": "enum IKeyRegistrarTypes.CurveType"
        }
      ],
      "outputs": [],
      "stateMutability": "nonpayable"
    },
    {
      "type": "function",
      "name": "configureOperatorSetWithMinDelay",
      "inputs": [
        {
          "name": "operatorSet",
          "type": "tuple",
          "internalType": "struct OperatorSet",
          "components": [
            {
              "name": "avs",
              "type": "address",
              "internalType": "address"
            },
            {
              "name": "id",
              "type": "uint32",
              "internalType": "uint32"
            }
          ]
        },
        {
          "name": "curveType",
          "type": "uint8",
          "internalType": "enum IKeyRegistrarTypes.CurveType"
        },
        {
          "name": "minDelaySeconds",
          "type": "uint64",
          "internalType": "uint64"
        }
      ],
      "outputs": [],
      "stateMutability": "nonpayable"
    },
    {
      "type": "function",
      "name": "deregisterKey",
      "inputs": [
        {
          "name": "operator",
          "type": "address",
          "internalType": "address"
        },
        {
          "name": "operatorSet",
          "type": "tuple",
          "internalType": "struct OperatorSet",
          "components": [
            {
              "name": "avs",
              "type": "address",
              "internalType": "address"
            },
            {
              "name": "id",
              "type": "uint32",
              "internalType": "uint32"
            }
          ]
        }
      ],
      "outputs": [],
      "stateMutability": "nonpayable"
    },
    {
      "type": "function",
      "name": "domainSeparator",
      "inputs": [],
      "outputs": [
        {
          "name": "",
          "type": "bytes32",
          "internalType": "bytes32"
        }
      ],
      "stateMutability": "view"
    },
    {
      "type": "function",
      "name": "encodeBN254KeyData",
      "inputs": [
        {
          "name": "g1Point",
          "type": "tuple",
          "internalType": "struct BN254.G1Point",
          "components": [
            {
              "name": "X",
              "type": "uint256",
              "internalType": "uint256"
            },
            {
              "name": "Y",
              "type": "uint256",
              "internalType": "uint256"
            }
          ]
        },
        {
          "name": "g2Point",
          "type": "tuple",
          "internalType": "struct BN254.G2Point",
          "components": [
            {
              "name": "X",
              "type": "uint256[2]",
              "internalType": "uint256[2]"
            },
            {
              "name": "Y",
              "type": "uint256[2]",
              "internalType": "uint256[2]"
            }
          ]
        }
      ],
      "outputs": [
        {
          "name": "",
          "type": "bytes",
          "internalType": "bytes"
        }
      ],
      "stateMutability": "pure"
    },
    {
      "type": "function",
      "name": "finalizeScheduledRotation",
      "inputs": [
        {
          "name": "operator",
          "type": "address",
          "internalType": "address"
        },
        {
          "name": "operatorSet",
          "type": "tuple",
          "internalType": "struct OperatorSet",
          "components": [
            {
              "name": "avs",
              "type": "address",
              "internalType": "address"
            },
            {
              "name": "id",
              "type": "uint32",
              "internalType": "uint32"
            }
          ]
        }
      ],
      "outputs": [
        {
          "name": "success",
          "type": "bool",
          "internalType": "bool"
        }
      ],
      "stateMutability": "nonpayable"
    },
    {
      "type": "function",
      "name": "getBN254Key",
      "inputs": [
        {
          "name": "operatorSet",
          "type": "tuple",
          "internalType": "struct OperatorSet",
          "components": [
            {
              "name": "avs",
              "type": "address",
              "internalType": "address"
            },
            {
              "name": "id",
              "type": "uint32",
              "internalType": "uint32"
            }
          ]
        },
        {
          "name": "operator",
          "type": "address",
          "internalType": "address"
        }
      ],
      "outputs": [
        {
          "name": "g1Point",
          "type": "tuple",
          "internalType": "struct BN254.G1Point",
          "components": [
            {
              "name": "X",
              "type": "uint256",
              "internalType": "uint256"
            },
            {
              "name": "Y",
              "type": "uint256",
              "internalType": "uint256"
            }
          ]
        },
        {
          "name": "g2Point",
          "type": "tuple",
          "internalType": "struct BN254.G2Point",
          "components": [
            {
              "name": "X",
              "type": "uint256[2]",
              "internalType": "uint256[2]"
            },
            {
              "name": "Y",
              "type": "uint256[2]",
              "internalType": "uint256[2]"
            }
          ]
        }
      ],
      "stateMutability": "view"
    },
    {
      "type": "function",
      "name": "getBN254KeyRegistrationMessageHash",
      "inputs": [
        {
          "name": "operator",
          "type": "address",
          "internalType": "address"
        },
        {
          "name": "operatorSet",
          "type": "tuple",
          "internalType": "struct OperatorSet",
          "components": [
            {
              "name": "avs",
              "type": "address",
              "internalType": "address"
            },
            {
              "name": "id",
              "type": "uint32",
              "internalType": "uint32"
            }
          ]
        },
        {
          "name": "keyData",
          "type": "bytes",
          "internalType": "bytes"
        }
      ],
      "outputs": [
        {
          "name": "",
          "type": "bytes32",
          "internalType": "bytes32"
        }
      ],
      "stateMutability": "view"
    },
    {
      "type": "function",
      "name": "getECDSAAddress",
      "inputs": [
        {
          "name": "operatorSet",
          "type": "tuple",
          "internalType": "struct OperatorSet",
          "components": [
            {
              "name": "avs",
              "type": "address",
              "internalType": "address"
            },
            {
              "name": "id",
              "type": "uint32",
              "internalType": "uint32"
            }
          ]
        },
        {
          "name": "operator",
          "type": "address",
          "internalType": "address"
        }
      ],
      "outputs": [
        {
          "name": "",
          "type": "address",
          "internalType": "address"
        }
      ],
      "stateMutability": "view"
    },
    {
      "type": "function",
      "name": "getECDSAKey",
      "inputs": [
        {
          "name": "operatorSet",
          "type": "tuple",
          "internalType": "struct OperatorSet",
          "components": [
            {
              "name": "avs",
              "type": "address",
              "internalType": "address"
            },
            {
              "name": "id",
              "type": "uint32",
              "internalType": "uint32"
            }
          ]
        },
        {
          "name": "operator",
          "type": "address",
          "internalType": "address"
        }
      ],
      "outputs": [
        {
          "name": "",
          "type": "bytes",
          "internalType": "bytes"
        }
      ],
      "stateMutability": "view"
    },
    {
      "type": "function",
      "name": "getECDSAKeyRegistrationMessageHash",
      "inputs": [
        {
          "name": "operator",
          "type": "address",
          "internalType": "address"
        },
        {
          "name": "operatorSet",
          "type": "tuple",
          "internalType": "struct OperatorSet",
          "components": [
            {
              "name": "avs",
              "type": "address",
              "internalType": "address"
            },
            {
              "name": "id",
              "type": "uint32",
              "internalType": "uint32"
            }
          ]
        },
        {
          "name": "keyAddress",
          "type": "address",
          "internalType": "address"
        }
      ],
      "outputs": [
        {
          "name": "",
          "type": "bytes32",
          "internalType": "bytes32"
        }
      ],
      "stateMutability": "view"
    },
    {
      "type": "function",
      "name": "getKeyHash",
      "inputs": [
        {
          "name": "operatorSet",
          "type": "tuple",
          "internalType": "struct OperatorSet",
          "components": [
            {
              "name": "avs",
              "type": "address",
              "internalType": "address"
            },
            {
              "name": "id",
              "type": "uint32",
              "internalType": "uint32"
            }
          ]
        },
        {
          "name": "operator",
          "type": "address",
          "internalType": "address"
        }
      ],
      "outputs": [
        {
          "name": "",
          "type": "bytes32",
          "internalType": "bytes32"
        }
      ],
      "stateMutability": "view"
    },
    {
      "type": "function",
      "name": "getOperatorFromSigningKey",
      "inputs": [
        {
          "name": "operatorSet",
          "type": "tuple",
          "internalType": "struct OperatorSet",
          "components": [
            {
              "name": "avs",
              "type": "address",
              "internalType": "address"
            },
            {
              "name": "id",
              "type": "uint32",
              "internalType": "uint32"
            }
          ]
        },
        {
          "name": "keyData",
          "type": "bytes",
          "internalType": "bytes"
        }
      ],
      "outputs": [
        {
          "name": "",
          "type": "address",
          "internalType": "address"
        },
        {
          "name": "",
          "type": "bool",
          "internalType": "bool"
        }
      ],
      "stateMutability": "view"
    },
    {
      "type": "function",
      "name": "getOperatorSetCurveType",
      "inputs": [
        {
          "name": "operatorSet",
          "type": "tuple",
          "internalType": "struct OperatorSet",
          "components": [
            {
              "name": "avs",
              "type": "address",
              "internalType": "address"
            },
            {
              "name": "id",
              "type": "uint32",
              "internalType": "uint32"
            }
          ]
        }
      ],
      "outputs": [
        {
          "name": "",
          "type": "uint8",
          "internalType": "enum IKeyRegistrarTypes.CurveType"
        }
      ],
      "stateMutability": "view"
    },
    {
      "type": "function",
      "name": "isKeyGloballyRegistered",
      "inputs": [
        {
          "name": "keyHash",
          "type": "bytes32",
          "internalType": "bytes32"
        }
      ],
      "outputs": [
        {
          "name": "",
          "type": "bool",
          "internalType": "bool"
        }
      ],
      "stateMutability": "view"
    },
    {
      "type": "function",
      "name": "isRegistered",
      "inputs": [
        {
          "name": "operatorSet",
          "type": "tuple",
          "internalType": "struct OperatorSet",
          "components": [
            {
              "name": "avs",
              "type": "address",
              "internalType": "address"
            },
            {
              "name": "id",
              "type": "uint32",
              "internalType": "uint32"
            }
          ]
        },
        {
          "name": "operator",
          "type": "address",
          "internalType": "address"
        }
      ],
      "outputs": [
        {
          "name": "",
          "type": "bool",
          "internalType": "bool"
        }
      ],
      "stateMutability": "view"
    },
    {
      "type": "function",
      "name": "permissionController",
      "inputs": [],
      "outputs": [
        {
          "name": "",
          "type": "address",
          "internalType": "contract IPermissionController"
        }
      ],
      "stateMutability": "view"
    },
    {
      "type": "function",
      "name": "registerKey",
      "inputs": [
        {
          "name": "operator",
          "type": "address",
          "internalType": "address"
        },
        {
          "name": "operatorSet",
          "type": "tuple",
          "internalType": "struct OperatorSet",
          "components": [
            {
              "name": "avs",
              "type": "address",
              "internalType": "address"
            },
            {
              "name": "id",
              "type": "uint32",
              "internalType": "uint32"
            }
          ]
        },
        {
          "name": "keyData",
          "type": "bytes",
          "internalType": "bytes"
        },
        {
          "name": "signature",
          "type": "bytes",
          "internalType": "bytes"
        }
      ],
      "outputs": [],
      "stateMutability": "nonpayable"
    },
    {
      "type": "function",
      "name": "rotateKey",
      "inputs": [
        {
          "name": "operator",
          "type": "address",
          "internalType": "address"
        },
        {
          "name": "operatorSet",
          "type": "tuple",
          "internalType": "struct OperatorSet",
          "components": [
            {
              "name": "avs",
              "type": "address",
              "internalType": "address"
            },
            {
              "name": "id",
              "type": "uint32",
              "internalType": "uint32"
            }
          ]
        },
        {
          "name": "newPubkey",
          "type": "bytes",
          "internalType": "bytes"
        },
        {
          "name": "signature",
          "type": "bytes",
          "internalType": "bytes"
        }
      ],
      "outputs": [],
      "stateMutability": "nonpayable"
    },
    {
      "type": "function",
      "name": "setMinKeyRotationDelay",
      "inputs": [
        {
          "name": "operatorSet",
          "type": "tuple",
          "internalType": "struct OperatorSet",
          "components": [
            {
              "name": "avs",
              "type": "address",
              "internalType": "address"
            },
            {
              "name": "id",
              "type": "uint32",
              "internalType": "uint32"
            }
          ]
        },
        {
          "name": "minDelaySeconds",
          "type": "uint64",
          "internalType": "uint64"
        }
      ],
      "outputs": [],
      "stateMutability": "nonpayable"
    },
    {
      "type": "function",
      "name": "version",
      "inputs": [],
      "outputs": [
        {
          "name": "",
          "type": "string",
          "internalType": "string"
        }
      ],
      "stateMutability": "view"
    },
    {
      "type": "event",
      "name": "AggregateBN254KeyUpdated",
      "inputs": [
        {
          "name": "operatorSet",
          "type": "tuple",
          "indexed": false,
          "internalType": "struct OperatorSet",
          "components": [
            {
              "name": "avs",
              "type": "address",
              "internalType": "address"
            },
            {
              "name": "id",
              "type": "uint32",
              "internalType": "uint32"
            }
          ]
        },
        {
          "name": "newAggregateKey",
          "type": "tuple",
          "indexed": false,
          "internalType": "struct BN254.G1Point",
          "components": [
            {
              "name": "X",
              "type": "uint256",
              "internalType": "uint256"
            },
            {
              "name": "Y",
              "type": "uint256",
              "internalType": "uint256"
            }
          ]
        }
      ],
      "anonymous": false
    },
    {
      "type": "event",
      "name": "KeyDeregistered",
      "inputs": [
        {
          "name": "operatorSet",
          "type": "tuple",
          "indexed": false,
          "internalType": "struct OperatorSet",
          "components": [
            {
              "name": "avs",
              "type": "address",
              "internalType": "address"
            },
            {
              "name": "id",
              "type": "uint32",
              "internalType": "uint32"
            }
          ]
        },
        {
          "name": "operator",
          "type": "address",
          "indexed": true,
          "internalType": "address"
        },
        {
          "name": "curveType",
          "type": "uint8",
          "indexed": false,
          "internalType": "enum IKeyRegistrarTypes.CurveType"
        }
      ],
      "anonymous": false
    },
    {
      "type": "event",
      "name": "KeyRegistered",
      "inputs": [
        {
          "name": "operatorSet",
          "type": "tuple",
          "indexed": false,
          "internalType": "struct OperatorSet",
          "components": [
            {
              "name": "avs",
              "type": "address",
              "internalType": "address"
            },
            {
              "name": "id",
              "type": "uint32",
              "internalType": "uint32"
            }
          ]
        },
        {
          "name": "operator",
          "type": "address",
          "indexed": true,
          "internalType": "address"
        },
        {
          "name": "curveType",
          "type": "uint8",
          "indexed": false,
          "internalType": "enum IKeyRegistrarTypes.CurveType"
        },
        {
          "name": "pubkey",
          "type": "bytes",
          "indexed": false,
          "internalType": "bytes"
        }
      ],
      "anonymous": false
    },
    {
      "type": "event",
      "name": "KeyRotationScheduled",
      "inputs": [
        {
          "name": "operatorSet",
          "type": "tuple",
          "indexed": false,
          "internalType": "struct OperatorSet",
          "components": [
            {
              "name": "avs",
              "type": "address",
              "internalType": "address"
            },
            {
              "name": "id",
              "type": "uint32",
              "internalType": "uint32"
            }
          ]
        },
        {
          "name": "operator",
          "type": "address",
          "indexed": true,
          "internalType": "address"
        },
        {
          "name": "curveType",
          "type": "uint8",
          "indexed": false,
          "internalType": "enum IKeyRegistrarTypes.CurveType"
        },
        {
          "name": "oldPubkey",
          "type": "bytes",
          "indexed": false,
          "internalType": "bytes"
        },
        {
          "name": "newPubkey",
          "type": "bytes",
          "indexed": false,
          "internalType": "bytes"
        },
        {
          "name": "activateAt",
          "type": "uint64",
          "indexed": false,
          "internalType": "uint64"
        }
      ],
      "anonymous": false
    },
    {
      "type": "event",
      "name": "MinKeyRotationDelaySet",
      "inputs": [
        {
          "name": "operatorSet",
          "type": "tuple",
          "indexed": false,
          "internalType": "struct OperatorSet",
          "components": [
            {
              "name": "avs",
              "type": "address",
              "internalType": "address"
            },
            {
              "name": "id",
              "type": "uint32",
              "internalType": "uint32"
            }
          ]
        },
        {
          "name": "minDelay",
          "type": "uint64",
          "indexed": false,
          "internalType": "uint64"
        }
      ],
      "anonymous": false
    },
    {
      "type": "event",
      "name": "OperatorSetConfigured",
      "inputs": [
        {
          "name": "operatorSet",
          "type": "tuple",
          "indexed": false,
          "internalType": "struct OperatorSet",
          "components": [
            {
              "name": "avs",
              "type": "address",
              "internalType": "address"
            },
            {
              "name": "id",
              "type": "uint32",
              "internalType": "uint32"
            }
          ]
        },
        {
          "name": "curveType",
          "type": "uint8",
          "indexed": false,
          "internalType": "enum IKeyRegistrarTypes.CurveType"
        }
      ],
      "anonymous": false
    },
    {
      "type": "error",
      "name": "ConfigurationAlreadySet",
      "inputs": []
    },
    {
      "type": "error",
      "name": "ECAddFailed",
      "inputs": []
    },
    {
      "type": "error",
      "name": "ECMulFailed",
      "inputs": []
    },
    {
      "type": "error",
      "name": "ECPairingFailed",
      "inputs": []
    },
    {
      "type": "error",
      "name": "ExpModFailed",
      "inputs": []
    },
    {
      "type": "error",
      "name": "InvalidCurveType",
      "inputs": []
    },
    {
      "type": "error",
      "name": "InvalidKeyFormat",
      "inputs": []
    },
    {
      "type": "error",
      "name": "InvalidKeypair",
      "inputs": []
    },
    {
      "type": "error",
      "name": "InvalidPermissions",
      "inputs": []
    },
    {
      "type": "error",
      "name": "InvalidShortString",
      "inputs": []
    },
    {
      "type": "error",
      "name": "InvalidSignature",
      "inputs": []
    },
    {
      "type": "error",
      "name": "KeyAlreadyRegistered",
      "inputs": []
    },
    {
      "type": "error",
      "name": "KeyNotFound",
      "inputs": [
        {
          "name": "operatorSet",
          "type": "tuple",
          "internalType": "struct OperatorSet",
          "components": [
            {
              "name": "avs",
              "type": "address",
              "internalType": "address"
            },
            {
              "name": "id",
              "type": "uint32",
              "internalType": "uint32"
            }
          ]
        },
        {
          "name": "operator",
          "type": "address",
          "internalType": "address"
        }
      ]
    },
    {
      "type": "error",
      "name": "OperatorAlreadyRegistered",
      "inputs": []
    },
    {
      "type": "error",
      "name": "OperatorSetNotConfigured",
      "inputs": []
    },
    {
      "type": "error",
      "name": "OperatorStillSlashable",
      "inputs": [
        {
          "name": "operatorSet",
          "type": "tuple",
          "internalType": "struct OperatorSet",
          "components": [
            {
              "name": "avs",
              "type": "address",
              "internalType": "address"
            },
            {
              "name": "id",
              "type": "uint32",
              "internalType": "uint32"
            }
          ]
        },
        {
          "name": "operator",
          "type": "address",
          "internalType": "address"
        }
      ]
    },
    {
      "type": "error",
      "name": "PendingRotationExists",
      "inputs": []
    },
    {
      "type": "error",
      "name": "RotationDisabled",
      "inputs": []
    },
    {
      "type": "error",
      "name": "SignatureExpired",
      "inputs": []
    },
    {
      "type": "error",
      "name": "StringTooLong",
      "inputs": [
        {
          "name": "str",
          "type": "string",
          "internalType": "string"
        }
      ]
    },
    {
      "type": "error",
      "name": "ZeroAddress",
      "inputs": []
    },
    {
      "type": "error",
      "name": "ZeroPubkey",
      "inputs": []
    }
  ],
  "bytecode": {
    "object": "0x60e060405234801561000f575f5ffd5b50604051613bd7380380613bd783398101604081905261002e916100cb565b6001600160a01b03808316608052831660a052808061004c8161005a565b60c052506101fc9350505050565b5f5f829050601f8151111561008d578260405163305a27a960e01b815260040161008491906101a1565b60405180910390fd5b8051610098826101d6565b179392505050565b6001600160a01b03811681146100b4575f5ffd5b50565b634e487b7160e01b5f52604160045260245ffd5b5f5f5f606084860312156100dd575f5ffd5b83516100e8816100a0565b60208501519093506100f9816100a0565b60408501519092506001600160401b03811115610114575f5ffd5b8401601f81018613610124575f5ffd5b80516001600160401b0381111561013d5761013d6100b7565b604051601f8201601f19908116603f011681016001600160401b038111828210171561016b5761016b6100b7565b604052818152828201602001881015610182575f5ffd5b8160208401602083015e5f602083830101528093505050509250925092565b602081525f82518060208401528060208501604085015e5f604082850101526040601f19601f83011684010191505092915050565b805160208083015191908110156101f6575f198160200360031b1b821691505b50919050565b60805160a05160c05161399c61023b5f395f818161049e0152611c2701525f81816101f90152611cd201525f81816103b30152610899015261399c5ff3fe608060405234801561000f575f5ffd5b5060043610610153575f3560e01c80639a43e3fb116100bf578063d40cda1611610079578063d40cda16146103d5578063d9f12db2146103e8578063dab42d7e146103fb578063ea0d81491461041d578063ea194e2e14610430578063f698da2514610443575f5ffd5b80639a43e3fb1461032d578063a2d701f61461034e578063aa165c3014610361578063b05c8f6d14610374578063bd30a0b91461039b578063ca8aa7c7146103ae575f5ffd5b806354fd4d501161011057806354fd4d501461029a5780637690e395146102a25780637cffe48c146102b557806381b2796c146102d55780638256909c146102e857806387ab86f41461031a575f5ffd5b80630934d59714610157578063110304021461017f578063166aa127146101945780633b32a7bd146101c95780634657e26a146101f457806350435add1461021b575b5f5ffd5b61016a610165366004612d29565b61044b565b60405190151581526020015b60405180910390f35b61019261018d366004612d71565b61045f565b005b6101bb7f991b0a3376ce87f8ecc5d70962279ac09cdce934e8b5b9683e73c8ff087c7f8181565b604051908152602001610176565b6101dc6101d7366004612d9a565b610479565b6040516001600160a01b039091168152602001610176565b6101dc7f000000000000000000000000000000000000000000000000000000000000000081565b61028d610229366004612e12565b8151602080840151835180519083015185840151805190850151604080519687019790975295850193909352606084810192909252608084015260a083019190915260c082019290925260e001604051602081830303815290604052905092915050565b6040516101769190612ebd565b61028d610497565b6101bb6102b0366004612f0c565b6104c7565b6102c86102c3366004612f69565b61056f565b6040516101769190612fb7565b6101926102e3366004612fc5565b610595565b6102fb6102f6366004613054565b61078a565b604080516001600160a01b039093168352901515602083015201610176565b610192610328366004612d29565b610878565b61034061033b366004612d9a565b610be4565b60405161017692919061311a565b61019261035c366004613165565b610e7a565b61028d61036f366004612d9a565b610fab565b6101bb7fda86e76deaed01641f80ff5f72c372a038fa5182697aeb967e8b1f9819d58d8181565b61016a6103a9366004612d9a565b6111ab565b6101dc7f000000000000000000000000000000000000000000000000000000000000000081565b6101926103e3366004612fc5565b6111e8565b6101bb6103f63660046131a6565b6113ec565b61016a6104093660046131de565b5f9081526002602052604090205460ff1690565b61019261042b3660046131f5565b611485565b6101bb61043e366004612d9a565b6115bc565b6101bb611789565b5f6104568284611842565b90505b92915050565b815161046a8161190a565b6104748383611933565b505050565b5f6104848383610fab565b61048d9061321e565b60601c9392505050565b60606104c27f00000000000000000000000000000000000000000000000000000000000000006119ad565b905090565b5f5f7fda86e76deaed01641f80ff5f72c372a038fa5182697aeb967e8b1f9819d58d8186865f015187602001518787604051610504929190613276565b6040805191829003822060208301969096526001600160a01b039485169082015292909116606083015263ffffffff16608082015260a081019190915260c001604051602081830303815290604052805190602001209050610565816119ea565b9695505050505050565b5f60015f61057c84611a30565b815260208101919091526040015f205460ff1692915050565b8561059f8161190a565b5f60015f6105ac89611a30565b815260208101919091526040015f9081205460ff1691508160028111156105d5576105d5612f83565b036105f357604051635cd3106d60e11b815260040160405180910390fd5b6105fd8789611842565b505f5f5f61060a8a611a30565b815260208082019290925260409081015f9081206001600160a01b038d1682529092529020805490915088908a9060ff1661066357604051632e40e18760e01b815260040161065a9291906132a3565b60405180910390fd5b505060038101546001600160401b0316156106915760405163a54aa36960e01b815260040160405180910390fd5b5f60045f61069e8b611a30565b815260208101919091526040015f20546001600160401b0316905067fffffffffffffffe1981016106e2576040516310297f8760e11b815260040160405180910390fd5b5f6106ed82426132dd565b90506106fe8a8c8b8b8b8b8a611a8e565b506002830161070e898b8361338c565b5060038301805467ffffffffffffffff19166001600160401b0383161790556040516001600160a01b038c16907f600c8ea5356df2fad359d32cf64544f00ad31ccf4133a70b4da8630b1e3658d190610775908d90889060018901908f908f908990613468565b60405180910390a25050505050505050505050565b5f5f5f60015f61079987611a30565b815260208101919091526040015f9081205460ff16915060018260028111156107c4576107c4612f83565b036107d6575083516020850120610847565b60028260028111156107ea576107ea612f83565b0361082e575f5f86806020019051810190610805919061352c565b60408051808201825283815260209081019283525f938452915190915290209250610847915050565b60405163fdea7c0960e01b815260040160405180910390fd5b5f818152600360205260409020546001600160a01b03168061086988826111ab565b945094505050505b9250929050565b816108828161190a565b6040516309a961f360e11b81526001600160a01b037f00000000000000000000000000000000000000000000000000000000000000001690631352c3e6906108d0908690869060040161354e565b602060405180830381865afa1580156108eb573d5f5f3e3d5ffd5b505050506040513d601f19601f8201168201806040525081019061090f919061356b565b158284909161093357604051631070287960e01b815260040161065a9291906132a3565b50505f60015f61094285611a30565b815260208101919091526040015f9081205460ff16915081600281111561096b5761096b612f83565b0361098957604051635cd3106d60e11b815260040160405180910390fd5b5f5f5f61099586611a30565b815260208082019290925260409081015f9081206001600160a01b03891682528352819020815160808101909252805460ff161515825260018101805492939192918401916109e3906132fc565b80601f0160208091040260200160405190810160405280929190818152602001828054610a0f906132fc565b8015610a5a5780601f10610a3157610100808354040283529160200191610a5a565b820191905f5260205f20905b815481529060010190602001808311610a3d57829003601f168201915b50505050508152602001600282018054610a73906132fc565b80601f0160208091040260200160405190810160405280929190818152602001828054610a9f906132fc565b8015610aea5780601f10610ac157610100808354040283529160200191610aea565b820191905f5260205f20905b815481529060010190602001808311610acd57829003601f168201915b5050509183525050600391909101546001600160401b0316602090910152805190915084908690610b3057604051632e40e18760e01b815260040161065a9291906132a3565b50505f5f610b3d86611a30565b815260208082019290925260409081015f9081206001600160a01b03891682529092528120805460ff1916815590610b786001830182612b33565b610b85600283015f612b33565b50600301805467ffffffffffffffff191690556040516001600160a01b038616907f28d3c3cee49478ec6fd219cfd685cd15cd01d95cabf69b4b7b57f9eaa3eb644290610bd5908790869061358a565b60405180910390a25050505050565b604080518082019091525f8082526020820152610bff612b6a565b5f60015f610c0c87611a30565b815260208101919091526040015f205460ff1690506002816002811115610c3557610c35612f83565b14610c535760405163fdea7c0960e01b815260040160405180910390fd5b5f5f5f610c5f88611a30565b815260208082019290925260409081015f9081206001600160a01b03891682528352819020815160808101909252805460ff16151582526001810180549293919291840191610cad906132fc565b80601f0160208091040260200160405190810160405280929190818152602001828054610cd9906132fc565b8015610d245780601f10610cfb57610100808354040283529160200191610d24565b820191905f5260205f20905b815481529060010190602001808311610d0757829003601f168201915b50505050508152602001600282018054610d3d906132fc565b80601f0160208091040260200160405190810160405280929190818152602001828054610d69906132fc565b8015610db45780601f10610d8b57610100808354040283529160200191610db4565b820191905f5260205f20905b815481529060010190602001808311610d9757829003601f168201915b5050509183525050600391909101546001600160401b03166020909101528051909150610e1d5750506040805180820182525f80825260208083018290528351808501855282815280820192909252835180850190945282845283019190915292509050610871565b5f610e2782611b5f565b90505f5f5f5f84806020019051810190610e4191906135e9565b604080518082018252948552602080860194909452805180820190915291825291810191909152909c909b509950505050505050505050565b8251610e858161190a565b6001836002811115610e9957610e99612f83565b1480610eb657506002836002811115610eb457610eb4612f83565b145b610ed35760405163fdea7c0960e01b815260040160405180910390fd5b5f60015f610ee087611a30565b815260208101919091526040015f9081205460ff169150816002811115610f0957610f09612f83565b14610f26576040516281f09f60e01b815260040160405180910390fd5b8360015f610f3388611a30565b815260208101919091526040015f20805460ff19166001836002811115610f5c57610f5c612f83565b02179055507fb2266cb118e57095fcdbedb24dabd9fc9f5127e2dbedf62ce6ee71696fb8b6e78585604051610f9292919061358a565b60405180910390a1610fa48584611933565b5050505050565b60605f60015f610fba86611a30565b815260208101919091526040015f205460ff1690506001816002811115610fe357610fe3612f83565b146110015760405163fdea7c0960e01b815260040160405180910390fd5b5f5f5f61100d87611a30565b815260208082019290925260409081015f9081206001600160a01b03881682528352819020815160808101909252805460ff1615158252600181018054929391929184019161105b906132fc565b80601f0160208091040260200160405190810160405280929190818152602001828054611087906132fc565b80156110d25780601f106110a9576101008083540402835291602001916110d2565b820191905f5260205f20905b8154815290600101906020018083116110b557829003601f168201915b505050505081526020016002820180546110eb906132fc565b80601f0160208091040260200160405190810160405280929190818152602001828054611117906132fc565b80156111625780601f1061113957610100808354040283529160200191611162565b820191905f5260205f20905b81548152906001019060200180831161114557829003601f168201915b5050509183525050600391909101546001600160401b031660209091015280519091506111a15760405180602001604052805f81525092505050610459565b5f61056582611b5f565b5f5f5f6111b785611a30565b815260208082019290925260409081015f9081206001600160a01b038616825290925290205460ff16905092915050565b856111f28161190a565b5f60015f6111ff89611a30565b815260208101919091526040015f9081205460ff16915081600281111561122857611228612f83565b0361124657604051635cd3106d60e11b815260040160405180910390fd5b5f5f61125189611a30565b815260208082019290925260409081015f9081206001600160a01b038c16825290925290205460ff1615611298576040516342ee68b560e01b815260040160405180910390fd5b6112a787898888888887611a8e565b50604051806080016040528060011515815260200187878080601f0160208091040260200160405190810160405280939291908181526020018383808284375f920182905250938552505060408051602081810183528482528501529092018190529050806113158a611a30565b815260208082019290925260409081015f9081206001600160a01b038d1682528352208251815460ff1916901515178155908201516001820190611359908261362f565b506040820151600282019061136e908261362f565b50606091909101516003909101805467ffffffffffffffff19166001600160401b039092169190911790556040516001600160a01b038916907f1201ce0c5e577111bce91e907fd99cb183da5edc1e3fb650ca40769e4e9176dd906113da908a9085908b908b906136e4565b60405180910390a25050505050505050565b81516020808401516040515f938493611459937f991b0a3376ce87f8ecc5d70962279ac09cdce934e8b5b9683e73c8ff087c7f81938a93928991019485526001600160a01b039384166020860152918316604085015263ffffffff16606084015216608082015260a00190565b60405160208183030381529060405280519060200120905061147a816119ea565b9150505b9392505050565b81516114908161190a565b60018260028111156114a4576114a4612f83565b14806114c1575060028260028111156114bf576114bf612f83565b145b6114de5760405163fdea7c0960e01b815260040160405180910390fd5b5f60015f6114eb86611a30565b815260208101919091526040015f9081205460ff16915081600281111561151457611514612f83565b14611531576040516281f09f60e01b815260040160405180910390fd5b8260015f61153e87611a30565b815260208101919091526040015f20805460ff1916600183600281111561156757611567612f83565b02179055507fb2266cb118e57095fcdbedb24dabd9fc9f5127e2dbedf62ce6ee71696fb8b6e7848460405161159d92919061358a565b60405180910390a16115b6846001600160401b03611933565b50505050565b5f5f5f5f6115c986611a30565b815260208082019290925260409081015f9081206001600160a01b03871682528352819020815160808101909252805460ff16151582526001810180549293919291840191611617906132fc565b80601f0160208091040260200160405190810160405280929190818152602001828054611643906132fc565b801561168e5780601f106116655761010080835404028352916020019161168e565b820191905f5260205f20905b81548152906001019060200180831161167157829003601f168201915b505050505081526020016002820180546116a7906132fc565b80601f01602080910402602001604051908101604052809291908181526020018280546116d3906132fc565b801561171e5780601f106116f55761010080835404028352916020019161171e565b820191905f5260205f20905b81548152906001019060200180831161170157829003601f168201915b5050509183525050600391909101546001600160401b031660209091015290505f60018161174b87611a30565b815260208101919091526040015f2054825160ff909116915061177357505f91506104599050565b5f61177d83611b5f565b90506105658183611b9e565b60408051808201909152600a81526922b4b3b2b72630bcb2b960b11b6020909101525f7f8b73c3c69bb8fe3d512ecc4cf759cc79239f7b179b0ffacaa9a75d522b39400f7f71b625cfad44bac63b13dba07f2e1d6084ee04b6f8752101ece6126d584ee6ea6117f6611c1f565b805160209182012060408051928301949094529281019190915260608101919091524660808201523060a082015260c00160405160208183030381529060405280519060200120905090565b5f5f5f5f61184f86611a30565b815260208082019290925260409081015f9081206001600160a01b03871682529092529020805490915060ff16611889575f915050610459565b60038101546001600160401b0316158015906118b2575060038101546001600160401b03164210155b1561190157600181016118c86002830182613711565b5060408051602081019091525f815260028201906118e6908261362f565b50600301805467ffffffffffffffff19169055506001610459565b505f9392505050565b61191381611c94565b6119305760405163932d94f760e01b815260040160405180910390fd5b50565b8060045f61194085611a30565b81526020019081526020015f205f6101000a8154816001600160401b0302191690836001600160401b031602179055507f22b2b63b5820f9d933565468845820b939bf5ad654ea6ab5bdd3728f19e4580f82826040516119a19291906137d1565b60405180910390a15050565b60605f6119b983611d3d565b6040805160208082528183019092529192505f91906020820181803683375050509182525060208101929092525090565b5f6119f3611789565b60405161190160f01b6020820152602281019190915260428101839052606201604051602081830303815290604052805190602001209050919050565b5f815f0151826020015163ffffffff16604051602001611a7692919060609290921b6001600160601b031916825260a01b6001600160a01b031916601482015260200190565b604051602081830303815290604052610459906137f5565b5f806001836002811115611aa457611aa4612f83565b03611abe57611ab7898989898989611d64565b9050611ae5565b6002836002811115611ad257611ad2612f83565b0361082e57611ab7898989898989611e56565b5f8181526002602052604090205460ff1615611b1457604051630c7bc20160e11b815260040160405180910390fd5b5f818152600260209081526040808320805460ff191660011790556003909152902080546001600160a01b038a166001600160a01b031990911617905590505b979650505050505050565b6060818101516001600160401b031615801590611b89575081606001516001600160401b03164210155b15611b9657506040015190565b506020015190565b5f6001826002811115611bb357611bb3612f83565b03611bc5575081516020830120610459565b6002826002811115611bd957611bd9612f83565b0361082e575f5f84806020019051810190611bf491906135e9565b505060408051808201825283815260209081019283525f938452915190915290209250610459915050565b60605f611c4b7f00000000000000000000000000000000000000000000000000000000000000006119ad565b9050805f81518110611c5f57611c5f613262565b016020908101516040516001600160f81b03199091169181019190915260210160405160208183030381529060405291505090565b604051631beb2b9760e31b81526001600160a01b0382811660048301523360248301523060448301525f80356001600160e01b0319166064840152917f00000000000000000000000000000000000000000000000000000000000000009091169063df595cb890608401602060405180830381865afa158015611d19573d5f5f3e3d5ffd5b505050506040513d601f19601f82011682018060405250810190610459919061356b565b5f60ff8216601f81111561045957604051632cd44ac360e21b815260040160405180910390fd5b5f60148414611d865760405163d109118160e01b815260040160405180910390fd5b5f611d918587613818565b60601c905080611db457604051634935505f60e01b815260040160405180910390fd5b5f611df687878080601f0160208091040260200160405190810160405280939291908181526020018383808284375f9201919091525060019250611b9e915050565b90505f611e04898b856113ec565b9050611e49838288888080601f0160208091040260200160405190810160405280939291908181526020018383808284375f920191909152505f199250611fc0915050565b5098975050505050505050565b5f60c08414611e785760405163d109118160e01b815260040160405180910390fd5b60408214611e9957604051638baa579f60e01b815260040160405180910390fd5b5f611ea6878988886104c7565b90505f80808080611eb98a8c018c613856565b9350935093509350835f148015611ece575082155b15611eec57604051634935505f60e01b815260040160405180910390fd5b5f80611efa8a8c018c613890565b6040805180820182528381526020808201849052825180840184528b81528082018b90528351808501909452898452908301889052939550919350909190611f468b8484845f80612012565b9a508a9950611f729850505050505050505057604051638baa579f60e01b815260040160405180910390fd5b611fb387878080601f0160208091040260200160405190810160405280939291908181526020018383808284375f9201919091525060029250611b9e915050565b9998505050505050505050565b42811015611fe157604051630819bdcd60e01b815260040160405180910390fd5b611ff56001600160a01b03851684846120da565b6115b657604051638baa579f60e01b815260040160405180910390fd5b5f5f5f61201e8961212e565b90505f61202d8a89898c6121b8565b90505f61204461203d8a8461226c565b8b906122dc565b90505f61208661207f846120796040805180820182525f80825260209182015281518083019092526001825260029082015290565b9061226c565b85906122dc565b905087156120ab576120a28261209a612350565b838c8b612410565b965094506120cb565b6120be826120b7612350565b838c612624565b955085156120cb57600194505b50505050965096945050505050565b5f5f5f6120e7858561285b565b90925090505f8160048111156120ff576120ff612f83565b14801561211d5750856001600160a01b0316826001600160a01b0316145b80610565575061056586868661289a565b604080518082019091525f80825260208201525f808061215b5f5160206139475f395f51905f52866138b0565b90505b61216781612981565b90935091505f5160206139475f395f51905f52828309830361219f576040805180820190915290815260208101919091529392505050565b5f5160206139475f395f51905f5260018208905061215e565b8251602080850151845180519083015186840151805190850151875188870151604080519889018e90528801989098526060870195909552608086019390935260a085019190915260c084015260e08301526101008201526101208101919091525f907f30644e72e131a029b85045b68181585d2833e84879b9709143e1f593f00000019061014001604051602081830303815290604052805190602001205f1c61226391906138b0565b95945050505050565b604080518082019091525f8082526020820152612287612b8f565b835181526020808501519082015260408082018490525f908360608460076107d05a03fa905080806122b557fe5b50806122d457604051632319df1960e11b815260040160405180910390fd5b505092915050565b604080518082019091525f80825260208201526122f7612bad565b835181526020808501518183015283516040808401919091529084015160608301525f908360808460066107d05a03fa9050808061233157fe5b50806122d45760405163d4b68fd760e01b815260040160405180910390fd5b612358612b6a565b50604080516080810182527f198e9393920d483a7260bfb731fb5d25f1aa493335a9e71297e485b7aef312c28183019081527f1800deef121f1e76426a00665e5c4479674322d4f75edadd46debd5cd992f6ed6060830152815281518083019092527f275dc4a288d1afb3cbb1ac09187524c7db36395df7be3b99e673b13a075a65ec82527f1d9befcd05a5323e6da4d435f3b617cdb3af83285c2df711ef39c01571827f9d60208381019190915281019190915290565b6040805180820182528681526020808201869052825180840190935286835282018490525f91829190612441612bcb565b5f5b60028110156125f8575f6124588260066138cf565b905084826002811061246c5761246c613262565b6020020151518361247d835f6138e6565b600c811061248d5761248d613262565b60200201528482600281106124a4576124a4613262565b602002015160200151838260016124bb91906138e6565b600c81106124cb576124cb613262565b60200201528382600281106124e2576124e2613262565b60200201515151836124f58360026138e6565b600c811061250557612505613262565b602002015283826002811061251c5761251c613262565b60200201515160016020020151836125358360036138e6565b600c811061254557612545613262565b602002015283826002811061255c5761255c613262565b6020020151602001515f6002811061257657612576613262565b6020020151836125878360046138e6565b600c811061259757612597613262565b60200201528382600281106125ae576125ae613262565b6020020151602001516001600281106125c9576125c9613262565b6020020151836125da8360056138e6565b600c81106125ea576125ea613262565b602002015250600101612443565b50612601612bea565b5f6020826101808560088cfa9151919c9115159b50909950505050505050505050565b6040805180820182528581526020808201859052825180840190935285835282018390525f91612652612bcb565b5f5b6002811015612809575f6126698260066138cf565b905084826002811061267d5761267d613262565b6020020151518361268e835f6138e6565b600c811061269e5761269e613262565b60200201528482600281106126b5576126b5613262565b602002015160200151838260016126cc91906138e6565b600c81106126dc576126dc613262565b60200201528382600281106126f3576126f3613262565b60200201515151836127068360026138e6565b600c811061271657612716613262565b602002015283826002811061272d5761272d613262565b60200201515160016020020151836127468360036138e6565b600c811061275657612756613262565b602002015283826002811061276d5761276d613262565b6020020151602001515f6002811061278757612787613262565b6020020151836127988360046138e6565b600c81106127a8576127a8613262565b60200201528382600281106127bf576127bf613262565b6020020151602001516001600281106127da576127da613262565b6020020151836127eb8360056138e6565b600c81106127fb576127fb613262565b602002015250600101612654565b50612812612bea565b5f6020826101808560086107d05a03fa9050808061282c57fe5b508061284b576040516324ccc79360e21b815260040160405180910390fd5b5051151598975050505050505050565b5f5f825160410361288f576020830151604084015160608501515f1a612883878285856129fd565b94509450505050610871565b505f90506002610871565b5f5f5f856001600160a01b0316631626ba7e60e01b86866040516024016128c29291906138f9565b60408051601f198184030181529181526020820180516001600160e01b03166001600160e01b03199094169390931790925290516129009190613919565b5f60405180830381855afa9150503d805f8114612938576040519150601f19603f3d011682016040523d82523d5f602084013e61293d565b606091505b509150915081801561295157506020815110155b801561056557508051630b135d3f60e11b90612976908301602090810190840161392f565b149695505050505050565b5f80805f5160206139475f395f51905f5260035f5160206139475f395f51905f52865f5160206139475f395f51905f52888909090890505f6129f1827f0c19139cb84c680a6e14116da060561765e05aa45a1c72a34f082305b61f3f525f5160206139475f395f51905f52612aba565b91959194509092505050565b5f807f7fffffffffffffffffffffffffffffff5d576e7357a4501ddfe92f46681b20a0831115612a3257505f90506003612ab1565b604080515f8082526020820180845289905260ff881692820192909252606081018690526080810185905260019060a0016020604051602081039080840390855afa158015612a83573d5f5f3e3d5ffd5b5050604051601f1901519150506001600160a01b038116612aab575f60019250925050612ab1565b91505f90505b94509492505050565b5f5f612ac4612bea565b612acc612c08565b602080825281810181905260408201819052606082018890526080820187905260a082018690528260c08360056107d05a03fa92508280612b0957fe5b5082612b285760405163d51edae360e01b815260040160405180910390fd5b505195945050505050565b508054612b3f906132fc565b5f825580601f10612b4e575050565b601f0160209004905f5260205f20908101906119309190612c26565b6040518060400160405280612b7d612c3e565b8152602001612b8a612c3e565b905290565b60405180606001604052806003906020820280368337509192915050565b60405180608001604052806004906020820280368337509192915050565b604051806101800160405280600c906020820280368337509192915050565b60405180602001604052806001906020820280368337509192915050565b6040518060c001604052806006906020820280368337509192915050565b5b80821115612c3a575f8155600101612c27565b5090565b60405180604001604052806002906020820280368337509192915050565b80356001600160a01b0381168114612c72575f5ffd5b919050565b634e487b7160e01b5f52604160045260245ffd5b604080519081016001600160401b0381118282101715612cad57612cad612c77565b60405290565b604051601f8201601f191681016001600160401b0381118282101715612cdb57612cdb612c77565b604052919050565b5f60408284031215612cf3575f5ffd5b612cfb612c8b565b9050612d0682612c5c565b8152602082013563ffffffff81168114612d1e575f5ffd5b602082015292915050565b5f5f60608385031215612d3a575f5ffd5b612d4383612c5c565b9150612d528460208501612ce3565b90509250929050565b80356001600160401b0381168114612c72575f5ffd5b5f5f60608385031215612d82575f5ffd5b612d8c8484612ce3565b9150612d5260408401612d5b565b5f5f60608385031215612dab575f5ffd5b612db58484612ce3565b9150612d5260408401612c5c565b5f82601f830112612dd2575f5ffd5b612ddc6040612cb3565b806040840185811115612ded575f5ffd5b845b81811015612e07578035845260209384019301612def565b509095945050505050565b5f5f82840360c0811215612e24575f5ffd5b6040811215612e31575f5ffd5b612e39612c8b565b843581526020808601359082015292506080603f1982011215612e5a575f5ffd5b50612e63612c8b565b612e708560408601612dc3565b8152612e7f8560808601612dc3565b6020820152809150509250929050565b5f81518084528060208401602086015e5f602082860101526020601f19601f83011685010191505092915050565b602081525f6104566020830184612e8f565b5f5f83601f840112612edf575f5ffd5b5081356001600160401b03811115612ef5575f5ffd5b602083019150836020828501011115610871575f5ffd5b5f5f5f5f60808587031215612f1f575f5ffd5b612f2885612c5c565b9350612f378660208701612ce3565b925060608501356001600160401b03811115612f51575f5ffd5b612f5d87828801612ecf565b95989497509550505050565b5f60408284031215612f79575f5ffd5b6104568383612ce3565b634e487b7160e01b5f52602160045260245ffd5b60038110612fb357634e487b7160e01b5f52602160045260245ffd5b9052565b602081016104598284612f97565b5f5f5f5f5f5f60a08789031215612fda575f5ffd5b612fe387612c5c565b9550612ff28860208901612ce3565b945060608701356001600160401b0381111561300c575f5ffd5b61301889828a01612ecf565b90955093505060808701356001600160401b03811115613036575f5ffd5b61304289828a01612ecf565b979a9699509497509295939492505050565b5f5f60608385031215613065575f5ffd5b61306f8484612ce3565b915060408301356001600160401b03811115613089575f5ffd5b8301601f81018513613099575f5ffd5b80356001600160401b038111156130b2576130b2612c77565b6130c5601f8201601f1916602001612cb3565b8181528660208385010111156130d9575f5ffd5b816020840160208301375f602083830101528093505050509250929050565b805f5b60028110156115b65781518452602093840193909101906001016130fb565b5f60c082019050835182526020840151602083015261313d6040830184516130f8565b602083015161314f60808401826130f8565b509392505050565b803560038110612c72575f5ffd5b5f5f5f60808486031215613177575f5ffd5b6131818585612ce3565b925061318f60408501613157565b915061319d60608501612d5b565b90509250925092565b5f5f5f608084860312156131b8575f5ffd5b6131c184612c5c565b92506131d08560208601612ce3565b915061319d60608501612c5c565b5f602082840312156131ee575f5ffd5b5035919050565b5f5f60608385031215613206575f5ffd5b6132108484612ce3565b9150612d5260408401613157565b805160208201516001600160601b031981169190601482101561325b576001600160601b03196001600160601b03198360140360031b1b82161692505b5050919050565b634e487b7160e01b5f52603260045260245ffd5b818382375f9101908152919050565b80516001600160a01b0316825260209081015163ffffffff16910152565b606081016132b18285613285565b6001600160a01b039290921660409190910152919050565b634e487b7160e01b5f52601160045260245ffd5b6001600160401b038181168382160190811115610459576104596132c9565b600181811c9082168061331057607f821691505b60208210810361332e57634e487b7160e01b5f52602260045260245ffd5b50919050565b601f82111561047457805f5260205f20601f840160051c810160208510156133595750805b601f840160051c820191505b81811015610fa4575f8155600101613365565b5f19600383901b1c191660019190911b1790565b6001600160401b038311156133a3576133a3612c77565b6133b7836133b183546132fc565b83613334565b5f601f8411600181146133e3575f85156133d15750838201355b6133db8682613378565b845550610fa4565b5f83815260208120601f198716915b8281101561341257868501358255602094850194600190920191016133f2565b508682101561342e575f1960f88860031b161c19848701351681555b505060018560011b0183555050505050565b81835281816020850137505f828201602090810191909152601f909101601f19169091010190565b6134728188613285565b61347f6040820187612f97565b60c060608201525f5f8654613493816132fc565b8060c0860152600182165f81146134b157600181146134cd576134fe565b60ff19831660e087015260e082151560051b87010193506134fe565b895f5260205f205f5b838110156134f557815488820160e001526001909101906020016134d6565b870160e0019450505b5050508281036080840152613514818688613440565b915050611b5460a08301846001600160401b03169052565b5f5f6040838503121561353d575f5ffd5b505080516020909101519092909150565b6001600160a01b03831681526060810161147e6020830184613285565b5f6020828403121561357b575f5ffd5b8151801515811461147e575f5ffd5b606081016135988285613285565b61147e6040830184612f97565b5f82601f8301126135b4575f5ffd5b6135be6040612cb3565b8060408401858111156135cf575f5ffd5b845b81811015612e075780518452602093840193016135d1565b5f5f5f5f60c085870312156135fc575f5ffd5b84516020860151909450925061361586604087016135a5565b915061362486608087016135a5565b905092959194509250565b81516001600160401b0381111561364857613648612c77565b61365c8161365684546132fc565b84613334565b6020601f821160018114613689575f83156136775750848201515b6136818482613378565b855550610fa4565b5f84815260208120601f198516915b828110156136b85787850151825560209485019460019092019101613698565b50848210156136d557868401515f19600387901b60f8161c191681555b50505050600190811b01905550565b6136ee8186613285565b6136fb6040820185612f97565b608060608201525f610565608083018486613440565b81810361371c575050565b61372682546132fc565b6001600160401b0381111561373d5761373d612c77565b61374b8161365684546132fc565b5f601f82116001811461376e575f83156136775750848201546136818482613378565b5f8581526020808220868352908220601f198616925b838110156137a45782860154825560019586019590910190602001613784565b50858310156137c157818501545f19600388901b60f8161c191681555b5050505050600190811b01905550565b606081016137df8285613285565b6001600160401b03831660408301529392505050565b8051602080830151919081101561332e575f1960209190910360031b1b16919050565b80356001600160601b0319811690601484101561384f576001600160601b03196001600160601b03198560140360031b1b82161691505b5092915050565b5f5f5f5f60c08587031215613869575f5ffd5b84359350602085013592506138818660408701612dc3565b91506136248660808701612dc3565b5f5f604083850312156138a1575f5ffd5b50508035926020909101359150565b5f826138ca57634e487b7160e01b5f52601260045260245ffd5b500690565b8082028115828204841417610459576104596132c9565b80820180821115610459576104596132c9565b828152604060208201525f6139116040830184612e8f565b949350505050565b5f82518060208501845e5f920191825250919050565b5f6020828403121561393f575f5ffd5b505191905056fe30644e72e131a029b85045b68181585d97816a916871ca8d3c208c16d87cfd47a26469706673582212208123c398e4e7ccd11d0081a6ab13a3c6599f46b4a29086d6a13bdd3a70a22a9664736f6c634300081e0033",
    "linkReferences": {}
  },
  "methodIdentifiers": {
    "BN254_KEY_REGISTRATION_TYPEHASH()": "b05c8f6d",
    "ECDSA_KEY_REGISTRATION_TYPEHASH()": "166aa127",
    "allocationManager()": "ca8aa7c7",
    "configureOperatorSet((address,uint32),uint8)": "ea0d8149",
    "configureOperatorSetWithMinDelay((address,uint32),uint8,uint64)": "a2d701f6",
    "deregisterKey(address,(address,uint32))": "87ab86f4",
    "domainSeparator()": "f698da25",
    "encodeBN254KeyData((uint256,uint256),(uint256[2],uint256[2]))": "50435add",
    "finalizeScheduledRotation(address,(address,uint32))": "0934d597",
    "getBN254Key((address,uint32),address)": "9a43e3fb",
    "getBN254KeyRegistrationMessageHash(address,(address,uint32),bytes)": "7690e395",
    "getECDSAAddress((address,uint32),address)": "3b32a7bd",
    "getECDSAKey((address,uint32),address)": "aa165c30",
    "getECDSAKeyRegistrationMessageHash(address,(address,uint32),address)": "d9f12db2",
    "getKeyHash((address,uint32),address)": "ea194e2e",
    "getOperatorFromSigningKey((address,uint32),bytes)": "8256909c",
    "getOperatorSetCurveType((address,uint32))": "7cffe48c",
    "isKeyGloballyRegistered(bytes32)": "dab42d7e",
    "isRegistered((address,uint32),address)": "bd30a0b9",
    "permissionController()": "4657e26a",
    "registerKey(address,(address,uint32),bytes,bytes)": "d40cda16",
    "rotateKey(address,(address,uint32),bytes,bytes)": "81b2796c",
    "setMinKeyRotationDelay((address,uint32),uint64)": "11030402",
    "version()": "54fd4d50"
  },
  "id": 180
}