{
  "abi": [
    {
      "type": "constructor",
      "inputs": [
        {
          "name": "_bn254CertificateVerifier",
          "type": "address",
          "internalType": "contract IBN254CertificateVerifier"
        },
        {
          "name": "_ecdsaCertificateVerifier",
          "type": "address",
          "internalType": "contract IECDSACertificateVerifier"
        },
        {
          "name": "_pauserRegistry",
          "type": "address",
          "internalType": "contract IPauserRegistry"
        }
      ],
      "stateMutability": "nonpayable"
    },
    {
      "type": "function",
      "name": "GENERATOR_GLOBAL_TABLE_ROOT",
      "inputs": [],
      "outputs": [
        {
          "name": "",
          "type": "bytes32",
          "internalType": "bytes32"
        }
      ],
      "stateMutability": "view"
    },
    {
      "type": "function",
      "name": "GENERATOR_MAX_STALENESS_PERIOD",
      "inputs": [],
      "outputs": [
        {
          "name": "",
          "type": "uint32",
          "internalType": "uint32"
        }
      ],
      "stateMutability": "view"
    },
    {
      "type": "function",
      "name": "GENERATOR_REFERENCE_TIMESTAMP",
      "inputs": [],
      "outputs": [
        {
          "name": "",
          "type": "uint32",
          "internalType": "uint32"
        }
      ],
      "stateMutability": "view"
    },
    {
      "type": "function",
      "name": "GLOBAL_TABLE_ROOT_CERT_TYPEHASH",
      "inputs": [],
      "outputs": [
        {
          "name": "",
          "type": "bytes32",
          "internalType": "bytes32"
        }
      ],
      "stateMutability": "view"
    },
    {
      "type": "function",
      "name": "MAX_BPS",
      "inputs": [],
      "outputs": [
        {
          "name": "",
          "type": "uint16",
          "internalType": "uint16"
        }
      ],
      "stateMutability": "view"
    },
    {
      "type": "function",
      "name": "OPERATOR_INFO_LEAF_SALT",
      "inputs": [],
      "outputs": [
        {
          "name": "",
          "type": "uint8",
          "internalType": "uint8"
        }
      ],
      "stateMutability": "view"
    },
    {
      "type": "function",
      "name": "OPERATOR_TABLE_LEAF_SALT",
      "inputs": [],
      "outputs": [
        {
          "name": "",
          "type": "uint8",
          "internalType": "uint8"
        }
      ],
      "stateMutability": "view"
    },
    {
      "type": "function",
      "name": "bn254CertificateVerifier",
      "inputs": [],
      "outputs": [
        {
          "name": "",
          "type": "address",
          "internalType": "contract IBN254CertificateVerifier"
        }
      ],
      "stateMutability": "view"
    },
    {
      "type": "function",
      "name": "calculateOperatorInfoLeaf",
      "inputs": [
        {
          "name": "operatorInfo",
          "type": "tuple",
          "internalType": "struct IOperatorTableCalculatorTypes.BN254OperatorInfo",
          "components": [
            {
              "name": "pubkey",
              "type": "tuple",
              "internalType": "struct BN254.G1Point",
              "components": [
                {
                  "name": "X",
                  "type": "uint256",
                  "internalType": "uint256"
                },
                {
                  "name": "Y",
                  "type": "uint256",
                  "internalType": "uint256"
                }
              ]
            },
            {
              "name": "weights",
              "type": "uint256[]",
              "internalType": "uint256[]"
            }
          ]
        }
      ],
      "outputs": [
        {
          "name": "",
          "type": "bytes32",
          "internalType": "bytes32"
        }
      ],
      "stateMutability": "pure"
    },
    {
      "type": "function",
      "name": "calculateOperatorTableLeaf",
      "inputs": [
        {
          "name": "operatorTableBytes",
          "type": "bytes",
          "internalType": "bytes"
        }
      ],
      "outputs": [
        {
          "name": "",
          "type": "bytes32",
          "internalType": "bytes32"
        }
      ],
      "stateMutability": "pure"
    },
    {
      "type": "function",
      "name": "confirmGlobalTableRoot",
      "inputs": [
        {
          "name": "globalTableRootCert",
          "type": "tuple",
          "internalType": "struct IBN254CertificateVerifierTypes.BN254Certificate",
          "components": [
            {
              "name": "referenceTimestamp",
              "type": "uint32",
              "internalType": "uint32"
            },
            {
              "name": "messageHash",
              "type": "bytes32",
              "internalType": "bytes32"
            },
            {
              "name": "signature",
              "type": "tuple",
              "internalType": "struct BN254.G1Point",
              "components": [
                {
                  "name": "X",
                  "type": "uint256",
                  "internalType": "uint256"
                },
                {
                  "name": "Y",
                  "type": "uint256",
                  "internalType": "uint256"
                }
              ]
            },
            {
              "name": "apk",
              "type": "tuple",
              "internalType": "struct BN254.G2Point",
              "components": [
                {
                  "name": "X",
                  "type": "uint256[2]",
                  "internalType": "uint256[2]"
                },
                {
                  "name": "Y",
                  "type": "uint256[2]",
                  "internalType": "uint256[2]"
                }
              ]
            },
            {
              "name": "nonSignerWitnesses",
              "type": "tuple[]",
              "internalType": "struct IBN254CertificateVerifierTypes.BN254OperatorInfoWitness[]",
              "components": [
                {
                  "name": "operatorIndex",
                  "type": "uint32",
                  "internalType": "uint32"
                },
                {
                  "name": "operatorInfoProof",
                  "type": "bytes",
                  "internalType": "bytes"
                },
                {
                  "name": "operatorInfo",
                  "type": "tuple",
                  "internalType": "struct IOperatorTableCalculatorTypes.BN254OperatorInfo",
                  "components": [
                    {
                      "name": "pubkey",
                      "type": "tuple",
                      "internalType": "struct BN254.G1Point",
                      "components": [
                        {
                          "name": "X",
                          "type": "uint256",
                          "internalType": "uint256"
                        },
                        {
                          "name": "Y",
                          "type": "uint256",
                          "internalType": "uint256"
                        }
                      ]
                    },
                    {
                      "name": "weights",
                      "type": "uint256[]",
                      "internalType": "uint256[]"
                    }
                  ]
                }
              ]
            }
          ]
        },
        {
          "name": "globalTableRoot",
          "type": "bytes32",
          "internalType": "bytes32"
        },
        {
          "name": "referenceTimestamp",
          "type": "uint32",
          "internalType": "uint32"
        },
        {
          "name": "referenceBlockNumber",
          "type": "uint32",
          "internalType": "uint32"
        }
      ],
      "outputs": [],
      "stateMutability": "nonpayable"
    },
    {
      "type": "function",
      "name": "disableRoot",
      "inputs": [
        {
          "name": "globalTableRoot",
          "type": "bytes32",
          "internalType": "bytes32"
        }
      ],
      "outputs": [],
      "stateMutability": "nonpayable"
    },
    {
      "type": "function",
      "name": "ecdsaCertificateVerifier",
      "inputs": [],
      "outputs": [
        {
          "name": "",
          "type": "address",
          "internalType": "contract IECDSACertificateVerifier"
        }
      ],
      "stateMutability": "view"
    },
    {
      "type": "function",
      "name": "getCertificateVerifier",
      "inputs": [
        {
          "name": "curveType",
          "type": "uint8",
          "internalType": "enum IKeyRegistrarTypes.CurveType"
        }
      ],
      "outputs": [
        {
          "name": "",
          "type": "address",
          "internalType": "address"
        }
      ],
      "stateMutability": "view"
    },
    {
      "type": "function",
      "name": "getCurrentGlobalTableRoot",
      "inputs": [],
      "outputs": [
        {
          "name": "",
          "type": "bytes32",
          "internalType": "bytes32"
        }
      ],
      "stateMutability": "view"
    },
    {
      "type": "function",
      "name": "getGenerator",
      "inputs": [],
      "outputs": [
        {
          "name": "",
          "type": "tuple",
          "internalType": "struct OperatorSet",
          "components": [
            {
              "name": "avs",
              "type": "address",
              "internalType": "address"
            },
            {
              "name": "id",
              "type": "uint32",
              "internalType": "uint32"
            }
          ]
        }
      ],
      "stateMutability": "view"
    },
    {
      "type": "function",
      "name": "getGeneratorConfig",
      "inputs": [],
      "outputs": [
        {
          "name": "",
          "type": "tuple",
          "internalType": "struct ICrossChainRegistryTypes.OperatorSetConfig",
          "components": [
            {
              "name": "owner",
              "type": "address",
              "internalType": "address"
            },
            {
              "name": "maxStalenessPeriod",
              "type": "uint32",
              "internalType": "uint32"
            }
          ]
        }
      ],
      "stateMutability": "view"
    },
    {
      "type": "function",
      "name": "getGeneratorReferenceTimestamp",
      "inputs": [],
      "outputs": [
        {
          "name": "",
          "type": "uint32",
          "internalType": "uint32"
        }
      ],
      "stateMutability": "view"
    },
    {
      "type": "function",
      "name": "getGlobalTableRootByTimestamp",
      "inputs": [
        {
          "name": "referenceTimestamp",
          "type": "uint32",
          "internalType": "uint32"
        }
      ],
      "outputs": [
        {
          "name": "",
          "type": "bytes32",
          "internalType": "bytes32"
        }
      ],
      "stateMutability": "view"
    },
    {
      "type": "function",
      "name": "getGlobalTableUpdateMessageHash",
      "inputs": [
        {
          "name": "globalTableRoot",
          "type": "bytes32",
          "internalType": "bytes32"
        },
        {
          "name": "referenceTimestamp",
          "type": "uint32",
          "internalType": "uint32"
        },
        {
          "name": "referenceBlockNumber",
          "type": "uint32",
          "internalType": "uint32"
        }
      ],
      "outputs": [
        {
          "name": "",
          "type": "bytes32",
          "internalType": "bytes32"
        }
      ],
      "stateMutability": "pure"
    },
    {
      "type": "function",
      "name": "getGlobalTableUpdateSignableDigest",
      "inputs": [
        {
          "name": "globalTableRoot",
          "type": "bytes32",
          "internalType": "bytes32"
        },
        {
          "name": "referenceTimestamp",
          "type": "uint32",
          "internalType": "uint32"
        },
        {
          "name": "referenceBlockNumber",
          "type": "uint32",
          "internalType": "uint32"
        }
      ],
      "outputs": [
        {
          "name": "",
          "type": "bytes32",
          "internalType": "bytes32"
        }
      ],
      "stateMutability": "view"
    },
    {
      "type": "function",
      "name": "getLatestReferenceBlockNumber",
      "inputs": [],
      "outputs": [
        {
          "name": "",
          "type": "uint32",
          "internalType": "uint32"
        }
      ],
      "stateMutability": "view"
    },
    {
      "type": "function",
      "name": "getLatestReferenceTimestamp",
      "inputs": [],
      "outputs": [
        {
          "name": "",
          "type": "uint32",
          "internalType": "uint32"
        }
      ],
      "stateMutability": "view"
    },
    {
      "type": "function",
      "name": "getReferenceBlockNumberByTimestamp",
      "inputs": [
        {
          "name": "referenceTimestamp",
          "type": "uint32",
          "internalType": "uint32"
        }
      ],
      "outputs": [
        {
          "name": "",
          "type": "uint32",
          "internalType": "uint32"
        }
      ],
      "stateMutability": "view"
    },
    {
      "type": "function",
      "name": "getReferenceTimestampByBlockNumber",
      "inputs": [
        {
          "name": "referenceBlockNumber",
          "type": "uint32",
          "internalType": "uint32"
        }
      ],
      "outputs": [
        {
          "name": "",
          "type": "uint32",
          "internalType": "uint32"
        }
      ],
      "stateMutability": "view"
    },
    {
      "type": "function",
      "name": "globalRootConfirmationThreshold",
      "inputs": [],
      "outputs": [
        {
          "name": "",
          "type": "uint16",
          "internalType": "uint16"
        }
      ],
      "stateMutability": "view"
    },
    {
      "type": "function",
      "name": "initialize",
      "inputs": [
        {
          "name": "_owner",
          "type": "address",
          "internalType": "address"
        },
        {
          "name": "initialPausedStatus",
          "type": "uint256",
          "internalType": "uint256"
        },
        {
          "name": "_initialGenerator",
          "type": "tuple",
          "internalType": "struct OperatorSet",
          "components": [
            {
              "name": "avs",
              "type": "address",
              "internalType": "address"
            },
            {
              "name": "id",
              "type": "uint32",
              "internalType": "uint32"
            }
          ]
        },
        {
          "name": "_globalRootConfirmationThreshold",
          "type": "uint16",
          "internalType": "uint16"
        },
        {
          "name": "generatorInfo",
          "type": "tuple",
          "internalType": "struct IOperatorTableCalculatorTypes.BN254OperatorSetInfo",
          "components": [
            {
              "name": "operatorInfoTreeRoot",
              "type": "bytes32",
              "internalType": "bytes32"
            },
            {
              "name": "numOperators",
              "type": "uint256",
              "internalType": "uint256"
            },
            {
              "name": "aggregatePubkey",
              "type": "tuple",
              "internalType": "struct BN254.G1Point",
              "components": [
                {
                  "name": "X",
                  "type": "uint256",
                  "internalType": "uint256"
                },
                {
                  "name": "Y",
                  "type": "uint256",
                  "internalType": "uint256"
                }
              ]
            },
            {
              "name": "totalWeights",
              "type": "uint256[]",
              "internalType": "uint256[]"
            }
          ]
        }
      ],
      "outputs": [],
      "stateMutability": "nonpayable"
    },
    {
      "type": "function",
      "name": "isRootValid",
      "inputs": [
        {
          "name": "globalTableRoot",
          "type": "bytes32",
          "internalType": "bytes32"
        }
      ],
      "outputs": [
        {
          "name": "",
          "type": "bool",
          "internalType": "bool"
        }
      ],
      "stateMutability": "view"
    },
    {
      "type": "function",
      "name": "isRootValidByTimestamp",
      "inputs": [
        {
          "name": "referenceTimestamp",
          "type": "uint32",
          "internalType": "uint32"
        }
      ],
      "outputs": [
        {
          "name": "",
          "type": "bool",
          "internalType": "bool"
        }
      ],
      "stateMutability": "view"
    },
    {
      "type": "function",
      "name": "owner",
      "inputs": [],
      "outputs": [
        {
          "name": "",
          "type": "address",
          "internalType": "address"
        }
      ],
      "stateMutability": "view"
    },
    {
      "type": "function",
      "name": "pause",
      "inputs": [
        {
          "name": "newPausedStatus",
          "type": "uint256",
          "internalType": "uint256"
        }
      ],
      "outputs": [],
      "stateMutability": "nonpayable"
    },
    {
      "type": "function",
      "name": "pauseAll",
      "inputs": [],
      "outputs": [],
      "stateMutability": "nonpayable"
    },
    {
      "type": "function",
      "name": "paused",
      "inputs": [
        {
          "name": "index",
          "type": "uint8",
          "internalType": "uint8"
        }
      ],
      "outputs": [
        {
          "name": "",
          "type": "bool",
          "internalType": "bool"
        }
      ],
      "stateMutability": "view"
    },
    {
      "type": "function",
      "name": "paused",
      "inputs": [],
      "outputs": [
        {
          "name": "",
          "type": "uint256",
          "internalType": "uint256"
        }
      ],
      "stateMutability": "view"
    },
    {
      "type": "function",
      "name": "pauserRegistry",
      "inputs": [],
      "outputs": [
        {
          "name": "",
          "type": "address",
          "internalType": "contract IPauserRegistry"
        }
      ],
      "stateMutability": "view"
    },
    {
      "type": "function",
      "name": "renounceOwnership",
      "inputs": [],
      "outputs": [],
      "stateMutability": "nonpayable"
    },
    {
      "type": "function",
      "name": "setGlobalRootConfirmationThreshold",
      "inputs": [
        {
          "name": "bps",
          "type": "uint16",
          "internalType": "uint16"
        }
      ],
      "outputs": [],
      "stateMutability": "nonpayable"
    },
    {
      "type": "function",
      "name": "transferOwnership",
      "inputs": [
        {
          "name": "newOwner",
          "type": "address",
          "internalType": "address"
        }
      ],
      "outputs": [],
      "stateMutability": "nonpayable"
    },
    {
      "type": "function",
      "name": "unpause",
      "inputs": [
        {
          "name": "newPausedStatus",
          "type": "uint256",
          "internalType": "uint256"
        }
      ],
      "outputs": [],
      "stateMutability": "nonpayable"
    },
    {
      "type": "function",
      "name": "updateGenerator",
      "inputs": [
        {
          "name": "generator",
          "type": "tuple",
          "internalType": "struct OperatorSet",
          "components": [
            {
              "name": "avs",
              "type": "address",
              "internalType": "address"
            },
            {
              "name": "id",
              "type": "uint32",
              "internalType": "uint32"
            }
          ]
        },
        {
          "name": "generatorInfo",
          "type": "tuple",
          "internalType": "struct IOperatorTableCalculatorTypes.BN254OperatorSetInfo",
          "components": [
            {
              "name": "operatorInfoTreeRoot",
              "type": "bytes32",
              "internalType": "bytes32"
            },
            {
              "name": "numOperators",
              "type": "uint256",
              "internalType": "uint256"
            },
            {
              "name": "aggregatePubkey",
              "type": "tuple",
              "internalType": "struct BN254.G1Point",
              "components": [
                {
                  "name": "X",
                  "type": "uint256",
                  "internalType": "uint256"
                },
                {
                  "name": "Y",
                  "type": "uint256",
                  "internalType": "uint256"
                }
              ]
            },
            {
              "name": "totalWeights",
              "type": "uint256[]",
              "internalType": "uint256[]"
            }
          ]
        }
      ],
      "outputs": [],
      "stateMutability": "nonpayable"
    },
    {
      "type": "function",
      "name": "updateOperatorTable",
      "inputs": [
        {
          "name": "referenceTimestamp",
          "type": "uint32",
          "internalType": "uint32"
        },
        {
          "name": "globalTableRoot",
          "type": "bytes32",
          "internalType": "bytes32"
        },
        {
          "name": "operatorSetIndex",
          "type": "uint32",
          "internalType": "uint32"
        },
        {
          "name": "proof",
          "type": "bytes",
          "internalType": "bytes"
        },
        {
          "name": "operatorTableBytes",
          "type": "bytes",
          "internalType": "bytes"
        }
      ],
      "outputs": [],
      "stateMutability": "nonpayable"
    },
    {
      "type": "event",
      "name": "GeneratorUpdated",
      "inputs": [
        {
          "name": "operatorSet",
          "type": "tuple",
          "indexed": false,
          "internalType": "struct OperatorSet",
          "components": [
            {
              "name": "avs",
              "type": "address",
              "internalType": "address"
            },
            {
              "name": "id",
              "type": "uint32",
              "internalType": "uint32"
            }
          ]
        }
      ],
      "anonymous": false
    },
    {
      "type": "event",
      "name": "GlobalRootConfirmationThresholdUpdated",
      "inputs": [
        {
          "name": "bps",
          "type": "uint16",
          "indexed": false,
          "internalType": "uint16"
        }
      ],
      "anonymous": false
    },
    {
      "type": "event",
      "name": "GlobalRootDisabled",
      "inputs": [
        {
          "name": "globalTableRoot",
          "type": "bytes32",
          "indexed": true,
          "internalType": "bytes32"
        }
      ],
      "anonymous": false
    },
    {
      "type": "event",
      "name": "Initialized",
      "inputs": [
        {
          "name": "version",
          "type": "uint8",
          "indexed": false,
          "internalType": "uint8"
        }
      ],
      "anonymous": false
    },
    {
      "type": "event",
      "name": "NewGlobalTableRoot",
      "inputs": [
        {
          "name": "referenceTimestamp",
          "type": "uint32",
          "indexed": true,
          "internalType": "uint32"
        },
        {
          "name": "globalTableRoot",
          "type": "bytes32",
          "indexed": true,
          "internalType": "bytes32"
        }
      ],
      "anonymous": false
    },
    {
      "type": "event",
      "name": "OwnershipTransferred",
      "inputs": [
        {
          "name": "previousOwner",
          "type": "address",
          "indexed": true,
          "internalType": "address"
        },
        {
          "name": "newOwner",
          "type": "address",
          "indexed": true,
          "internalType": "address"
        }
      ],
      "anonymous": false
    },
    {
      "type": "event",
      "name": "Paused",
      "inputs": [
        {
          "name": "account",
          "type": "address",
          "indexed": true,
          "internalType": "address"
        },
        {
          "name": "newPausedStatus",
          "type": "uint256",
          "indexed": false,
          "internalType": "uint256"
        }
      ],
      "anonymous": false
    },
    {
      "type": "event",
      "name": "Unpaused",
      "inputs": [
        {
          "name": "account",
          "type": "address",
          "indexed": true,
          "internalType": "address"
        },
        {
          "name": "newPausedStatus",
          "type": "uint256",
          "indexed": false,
          "internalType": "uint256"
        }
      ],
      "anonymous": false
    },
    {
      "type": "error",
      "name": "CannotDisableGeneratorRoot",
      "inputs": []
    },
    {
      "type": "error",
      "name": "CertificateInvalid",
      "inputs": []
    },
    {
      "type": "error",
      "name": "CurrentlyPaused",
      "inputs": []
    },
    {
      "type": "error",
      "name": "EmptyRoot",
      "inputs": []
    },
    {
      "type": "error",
      "name": "GlobalTableRootInFuture",
      "inputs": []
    },
    {
      "type": "error",
      "name": "GlobalTableRootStale",
      "inputs": []
    },
    {
      "type": "error",
      "name": "InputAddressZero",
      "inputs": []
    },
    {
      "type": "error",
      "name": "InvalidConfirmationThreshold",
      "inputs": []
    },
    {
      "type": "error",
      "name": "InvalidCurveType",
      "inputs": []
    },
    {
      "type": "error",
      "name": "InvalidGenerator",
      "inputs": []
    },
    {
      "type": "error",
      "name": "InvalidGlobalTableRoot",
      "inputs": []
    },
    {
      "type": "error",
      "name": "InvalidIndex",
      "inputs": []
    },
    {
      "type": "error",
      "name": "InvalidMessageHash",
      "inputs": []
    },
    {
      "type": "error",
      "name": "InvalidNewPausedStatus",
      "inputs": []
    },
    {
      "type": "error",
      "name": "InvalidOperatorSet",
      "inputs": []
    },
    {
      "type": "error",
      "name": "InvalidOperatorSetProof",
      "inputs": []
    },
    {
      "type": "error",
      "name": "InvalidProofLength",
      "inputs": []
    },
    {
      "type": "error",
      "name": "InvalidRoot",
      "inputs": []
    },
    {
      "type": "error",
      "name": "OnlyPauser",
      "inputs": []
    },
    {
      "type": "error",
      "name": "OnlyUnpauser",
      "inputs": []
    },
    {
      "type": "error",
      "name": "TableUpdateForPastTimestamp",
      "inputs": []
    }
  ],
  "bytecode": {
    "object": "0x60e060405234801561000f575f5ffd5b50604051612c1c380380612c1c83398101604081905261002e91610153565b8282826001600160a01b038116610058576040516339b190bb60e11b815260040160405180910390fd5b6001600160a01b0390811660805291821660a0521660c052610078610080565b50505061019d565b5f54610100900460ff16156100eb5760405162461bcd60e51b815260206004820152602760248201527f496e697469616c697a61626c653a20636f6e747261637420697320696e697469604482015266616c697a696e6760c81b606482015260840160405180910390fd5b5f5460ff9081161461013a575f805460ff191660ff9081179091556040519081527f7f26b83ff96e1f2b6a682f133852f6798a09c465da95921460cefb38474024989060200160405180910390a15b565b6001600160a01b0381168114610150575f5ffd5b50565b5f5f5f60608486031215610165575f5ffd5b83516101708161013c565b60208501519093506101818161013c565b60408501519092506101928161013c565b809150509250925092565b60805160a05160c051612a086102145f395f818161059501528181610a5d0152610e2201525f81816105fc0152818161092101528181610a1d01528181610ac901528181610d7d015281816110f7015281816113e0015261149201525f818161051c015281816115be015261186d0152612a085ff3fe608060405234801561000f575f5ffd5b506004361061024a575f3560e01c80636f728c5011610140578063ad0f9582116100bf578063c3be1e3311610084578063c3be1e3314610652578063c5916a3914610665578063eaaed9d51461068a578063f2fde38b1461069d578063fabc1cbc146106b0578063fd967f47146106c3575f5ffd5b8063ad0f958214610590578063b0cb3a24146105b7578063b8c14306146105f7578063c252aa221461061e578063c3621f0a1461063f575f5ffd5b80638da5cb5b116101055780638da5cb5b1461053e5780639ea947781461054f5780639f7e206f14610562578063a2c902f514610575578063a2f2e24d1461057d575f5ffd5b80636f728c50146104d5578063715018a6146105005780637551ba3414610508578063790961ea14610510578063886f119514610517575f5ffd5b806331a599d2116101cc578063595c6a6711610191578063595c6a67146104655780635ac86ab71461046d5780635c975abb14610490578063612abcb01461049857806364e1df84146104a0575f5ffd5b806331a599d2146103df5780633ef6cd7a14610404578063401c370f1461042b5780634624e6a31461043e578063538a379014610452575f5ffd5b80631e2ca260116102125780631e2ca260146103075780632370356c1461035057806323b7b5b21461036357806328522d791461038b57806330ef41b4146103ad575f5ffd5b806306f518751461024e578063121409ea14610263578063136439dd14610282578063193b79f3146102955780631bdc0deb146102d2575b5f5ffd5b61026161025c366004611aa0565b6106cc565b005b61026b608e81565b60405160ff90911681526020015b60405180910390f35b610261610290366004611b16565b6108a6565b6102bd6102a3366004611b3e565b63ffffffff9081165f908152609b60205260409020541690565b60405163ffffffff9091168152602001610279565b6102f97fcefe99cb2e240b5f07de5cd472a75fc6e345370b73588ab161cb25c4a259a86981565b604051908152602001610279565b6040805180820182525f80825260209182015281518083019092526098546001600160a01b0381168352600160a01b900463ffffffff16908201525b6040516102799190611b77565b61026161035e366004611b85565b6108e0565b6102bd610371366004611b3e565b63ffffffff9081165f908152609a60205260409020541690565b60975462010000900463ffffffff165f908152609960205260409020546102f9565b6103cf6103bb366004611b16565b5f908152609c602052604090205460ff1690565b6040519015158152602001610279565b60975462010000900463ffffffff9081165f908152609a6020526040902054166102bd565b6102f97f4491f5ee91595f938885ef73c9a1fa8a6d14ff9b9dab4aa24b8802bbb9bfc1cc81565b6102f9610439366004611b9e565b6108f4565b60975462010000900463ffffffff166102bd565b6102f9610460366004611c8d565b61099d565b6102616109ec565b6103cf61047b366004611d85565b606654600160ff9092169190911b9081161490565b6066546102f9565b6102bd600181565b6103cf6104ae366004611b3e565b63ffffffff165f908152609960209081526040808320548352609c90915290205460ff1690565b6104e86104e3366004611db3565b610a00565b6040516001600160a01b039091168152602001610279565b610261610a9f565b6102bd610ab0565b6102bd5f81565b6104e87f000000000000000000000000000000000000000000000000000000000000000081565b6033546001600160a01b03166104e8565b61026161055d366004611e10565b610b43565b610261610570366004611eab565b610e93565b61026b607581565b6102f961058b366004611ef6565b610ea5565b6104e87f000000000000000000000000000000000000000000000000000000000000000081565b6040805180820182525f8082526020918201528151808301909252609d546001600160a01b0381168352600160a01b900463ffffffff1690820152610343565b6104e87f000000000000000000000000000000000000000000000000000000000000000081565b60975461062c9061ffff1681565b60405161ffff9091168152602001610279565b61026161064d366004611b16565b610edb565b6102f9610660366004611b9e565b610f90565b6102f9610673366004611b3e565b63ffffffff165f9081526099602052604090205490565b610261610698366004611f34565b610ff8565b6102616106ab366004611fa0565b611247565b6102616106be366004611b16565b6112bd565b61062c61271081565b5f54610100900460ff16158080156106ea57505f54600160ff909116105b806107035750303b15801561070357505f5460ff166001145b61076b5760405162461bcd60e51b815260206004820152602e60248201527f496e697469616c697a61626c653a20636f6e747261637420697320616c72656160448201526d191e481a5b9a5d1a585b1a5e995960921b60648201526084015b60405180910390fd5b5f805460ff19166001179055801561078c575f805461ff0019166101001790555b6107958661132a565b61079e8561137b565b609d80546001600160c01b031916301790556107ba84836113b8565b6107c383611538565b7fcefe99cb2e240b5f07de5cd472a75fc6e345370b73588ab161cb25c4a259a8697fbb86fbc034f4e382929974bcd8419ed626b0ea647f962d89ba2fb6bd28785ab98190555f52609c6020527f38353ab40115e4013d688e07cff5857dde443bd05e72c49fcb5e684a9bb9efc4805460ff19166001179055609780544263ffffffff16620100000265ffffffff000019909116179055801561089e575f805461ff0019169055604051600181527f7f26b83ff96e1f2b6a682f133852f6798a09c465da95921460cefb38474024989060200160405180910390a15b505050505050565b6108ae6115a9565b60665481811681146108d35760405163c61dca5d60e01b815260040160405180910390fd5b6108dc8261137b565b5050565b6108e861164c565b6108f181611538565b50565b5f5f610901858585610f90565b6040516306119d0d60e21b815260016004820152602481018290529091507f00000000000000000000000000000000000000000000000000000000000000006001600160a01b031690631846743490604401602060405180830381865afa15801561096e573d5f5f3e3d5ffd5b505050506040513d601f19601f820116820180604052508101906109929190611fbb565b9150505b9392505050565b5f6075826040516020016109b1919061200c565b60408051601f19818403018152908290526109cf9291602001612039565b604051602081830303815290604052805190602001209050919050565b6109f46115a9565b6109fe5f1961137b565b565b5f6002826002811115610a1557610a15612062565b03610a4157507f0000000000000000000000000000000000000000000000000000000000000000919050565b6001826002811115610a5557610a55612062565b03610a8157507f0000000000000000000000000000000000000000000000000000000000000000919050565b60405163fdea7c0960e01b815260040160405180910390fd5b919050565b610aa761164c565b6109fe5f61132a565b604051635ddb9b5b60e01b81525f906001600160a01b037f00000000000000000000000000000000000000000000000000000000000000001690635ddb9b5b90610aff90609890600401612076565b602060405180830381865afa158015610b1a573d5f5f3e3d5ffd5b505050506040513d601f19601f82011682018060405250810190610b3e919061209d565b905090565b6001610b4e816116a6565b610b566116d1565b5f5f5f5f610b64878761172a565b5f8f8152609c60205260409020549397509195509350915060ff16610b9c5760405163504570e360e01b815260040160405180910390fd5b604080518082019091526098546001600160a01b0381168252600160a01b900463ffffffff166020820152610bd090611771565b610bd985611771565b03610bf757604051631fb1705560e21b815260040160405180910390fd5b610c0083610a00565b6001600160a01b031663cd83a72b858e6040518363ffffffff1660e01b8152600401610c2d9291906120b8565b602060405180830381865afa158015610c48573d5f5f3e3d5ffd5b505050506040513d601f19601f82011682018060405250810190610c6c91906120d9565b15610c7a5750505050610e7f565b610c8383610a00565b6001600160a01b0316635ddb9b5b856040518263ffffffff1660e01b8152600401610cae9190611b77565b602060405180830381865afa158015610cc9573d5f5f3e3d5ffd5b505050506040513d601f19601f82011682018060405250810190610ced919061209d565b63ffffffff168c63ffffffff1611610d185760405163207617df60e01b815260040160405180910390fd5b63ffffffff8c165f908152609960205260409020548b14610d4c5760405163639d09b560e11b815260040160405180910390fd5b610d628b8b8b8b610d5d8c8c610ea5565b6117d4565b6002836002811115610d7657610d76612062565b03610e07577f00000000000000000000000000000000000000000000000000000000000000006001600160a01b0316636738c40b858e610db585611839565b866040518563ffffffff1660e01b8152600401610dd594939291906120f8565b5f604051808303815f87803b158015610dec575f5ffd5b505af1158015610dfe573d5f5f3e3d5ffd5b50505050610e7a565b6001836002811115610e1b57610e1b612062565b03610a81577f00000000000000000000000000000000000000000000000000000000000000006001600160a01b03166356d482f5858e610e5a85611855565b866040518563ffffffff1660e01b8152600401610dd59493929190612179565b505050505b610e89600160c955565b5050505050505050565b610e9b61164c565b6108dc82826113b8565b5f608e8383604051602001610ebc9392919061221e565b6040516020818303038152906040528051906020012090505b92915050565b610ee36115a9565b5f818152609c602052604090205460ff16610f115760405163504570e360e01b815260040160405180910390fd5b7fcefe99cb2e240b5f07de5cd472a75fc6e345370b73588ab161cb25c4a259a8698103610f51576040516319920afd60e11b815260040160405180910390fd5b5f818152609c6020526040808220805460ff191690555182917f8bd43de1250f58fe6ec9a78671a8b78dba70f0018656d157a3aeaabec389df3491a250565b604080517f4491f5ee91595f938885ef73c9a1fa8a6d14ff9b9dab4aa24b8802bbb9bfc1cc602082015290810184905263ffffffff8084166060830152821660808201525f9060a0016040516020818303038152906040528051906020012090509392505050565b5f611002816116a6565b61100a6116d1565b428363ffffffff16111561103157604051635a119db560e11b815260040160405180910390fd5b60975463ffffffff620100009091048116908416116110635760405163037fa86b60e31b815260040160405180910390fd5b61106e848484610f90565b85602001351461109157604051638b56642d60e01b815260040160405180910390fd5b6040805160018082528183019092525f91602080830190803683375050609754825192935061ffff16918391505f906110cc576110cc612245565b61ffff90921660209283029190910190910152604051625f5e5d60e21b81525f906001600160a01b037f0000000000000000000000000000000000000000000000000000000000000000169063017d797490611131906098908b908790600401612377565b6020604051808303815f875af115801561114d573d5f5f3e3d5ffd5b505050506040513d601f19601f8201168201806040525081019061117191906120d9565b90508061119157604051633042041f60e21b815260040160405180910390fd5b6097805463ffffffff80881662010000810265ffffffff000019909316929092179092555f818152609a602090815260408083208054958a1663ffffffff1996871681179091558352609b825280832080549095168417909455828252609981528382208a9055898252609c9052828120805460ff19166001179055915188927f010dcbe0d1e019c93357711f7bb6287d543b7ff7de74f29df3fb5ecceec8d36991a35050611240600160c955565b5050505050565b61124f61164c565b6001600160a01b0381166112b45760405162461bcd60e51b815260206004820152602660248201527f4f776e61626c653a206e6577206f776e657220697320746865207a65726f206160448201526564647265737360d01b6064820152608401610762565b6108f18161132a565b6112c561186b565b606654801982198116146112ec5760405163c61dca5d60e01b815260040160405180910390fd5b606682905560405182815233907f3582d1828e26bf56bd801502bc021ac0bc8afb57c826e4986b45593c8fad389c9060200160405180910390a25050565b603380546001600160a01b038381166001600160a01b0319831681179093556040519116919082907f8be0079c531659141344cd1fd0a4f28419497f9722a3daafe3b4186f6b6457e0905f90a35050565b606681905560405181815233907fab40a374bc51de372200a8bc981af8c9ecdc08dfdaef0bb6e09f88f3c616ef3d9060200160405180910390a250565b8160986113c58282612504565b5050604051635ddb9b5b60e01b81525f906001600160a01b037f00000000000000000000000000000000000000000000000000000000000000001690635ddb9b5b90611415908690600401612595565b602060405180830381865afa158015611430573d5f5f3e3d5ffd5b505050506040513d601f19601f82011682018060405250810190611454919061209d565b905063ffffffff81161561147b57604051636446f91760e01b815260040160405180910390fd5b604051636738c40b60e01b81526001600160a01b037f00000000000000000000000000000000000000000000000000000000000000001690636738c40b906114cf9086906001908790609d906004016125a3565b5f604051808303815f87803b1580156114e6575f5ffd5b505af11580156114f8573d5f5f3e3d5ffd5b505050507f3463431b09dfd43dec7349f8f24acfa753fe4cf40a26235402d213373df158568360405161152b9190612595565b60405180910390a1505050565b61271061ffff8216111561155f576040516307336f0360e11b815260040160405180910390fd5b6097805461ffff191661ffff83169081179091556040519081527ff5d1836df8fcd7c1e54047e94ac8773d2855395603e2ef9ba5f5f16905f225929060200160405180910390a150565b60405163237dfb4760e11b81523360048201527f00000000000000000000000000000000000000000000000000000000000000006001600160a01b0316906346fbf68e90602401602060405180830381865afa15801561160b573d5f5f3e3d5ffd5b505050506040513d601f19601f8201168201806040525081019061162f91906120d9565b6109fe57604051631d77d47760e21b815260040160405180910390fd5b6033546001600160a01b031633146109fe5760405162461bcd60e51b815260206004820181905260248201527f4f776e61626c653a2063616c6c6572206973206e6f7420746865206f776e65726044820152606401610762565b606654600160ff83161b908116036108f15760405163840a48d560e01b815260040160405180910390fd5b600260c954036117235760405162461bcd60e51b815260206004820152601f60248201527f5265656e7472616e637947756172643a207265656e7472616e742063616c6c006044820152606401610762565b600260c955565b604080518082019091525f8082526020820152604080518082019091525f808252602082018190529060606117618587018761267c565b9299919850965090945092505050565b5f815f0151826020015163ffffffff166040516020016117bc92919060609290921b6bffffffffffffffffffffffff1916825260a01b6001600160a01b031916601482015260200190565b604051602081830303815290604052610ed590612741565b61181c83838080601f0160208091040260200160405190810160405280939291908181526020018383808284375f920191909152508992508591505063ffffffff881661191c565b6112405760405163afa42ca760e01b815260040160405180910390fd5b611841611a16565b81806020019051810190610ed591906127c9565b606081806020019051810190610ed59190612878565b7f00000000000000000000000000000000000000000000000000000000000000006001600160a01b031663eab66d7a6040518163ffffffff1660e01b8152600401602060405180830381865afa1580156118c7573d5f5f3e3d5ffd5b505050506040513d601f19601f820116820180604052508101906118eb9190612979565b6001600160a01b0316336001600160a01b0316146109fe5760405163794821ff60e01b815260040160405180910390fd5b5f8361193b576040516329e7276760e11b815260040160405180910390fd5b83611947868585611951565b1495945050505050565b5f83515f03611961575081610996565b6020845161196f9190612994565b1561198d576040516313717da960e21b815260040160405180910390fd5b8260205b855181116119ee576119a4600285612994565b5f036119c557815f528086015160205260405f2091506002840493506119dc565b808601515f528160205260405f2091506002840493505b6119e76020826129b3565b9050611991565b508215611a0e576040516363df817160e01b815260040160405180910390fd5b949350505050565b60405180608001604052805f81526020015f8152602001611a4860405180604001604052805f81526020015f81525090565b8152602001606081525090565b6001600160a01b03811681146108f1575f5ffd5b5f60408284031215611a79575f5ffd5b50919050565b803561ffff81168114610a9a575f5ffd5b5f60a08284031215611a79575f5ffd5b5f5f5f5f5f60c08688031215611ab4575f5ffd5b8535611abf81611a55565b945060208601359350611ad58760408801611a69565b9250611ae360808701611a7f565b915060a08601356001600160401b03811115611afd575f5ffd5b611b0988828901611a90565b9150509295509295909350565b5f60208284031215611b26575f5ffd5b5035919050565b63ffffffff811681146108f1575f5ffd5b5f60208284031215611b4e575f5ffd5b813561099681611b2d565b80516001600160a01b0316825260209081015163ffffffff16910152565b60408101610ed58284611b59565b5f60208284031215611b95575f5ffd5b61099682611a7f565b5f5f5f60608486031215611bb0575f5ffd5b833592506020840135611bc281611b2d565b91506040840135611bd281611b2d565b809150509250925092565b634e487b7160e01b5f52604160045260245ffd5b604080519081016001600160401b0381118282101715611c1357611c13611bdd565b60405290565b604051608081016001600160401b0381118282101715611c1357611c13611bdd565b604051601f8201601f191681016001600160401b0381118282101715611c6357611c63611bdd565b604052919050565b5f6001600160401b03821115611c8357611c83611bdd565b5060051b60200190565b5f60208284031215611c9d575f5ffd5b81356001600160401b03811115611cb2575f5ffd5b82018084036060811215611cc4575f5ffd5b611ccc611bf1565b6040821215611cd9575f5ffd5b611ce1611bf1565b83358152602080850135908201528152604083013591506001600160401b03821115611d0b575f5ffd5b818301925085601f840112611d1e575f5ffd5b82359150611d33611d2e83611c6b565b611c3b565b8083825260208201915060208460051b860101935087841115611d54575f5ffd5b6020850194505b83851015611d76578435825260209485019490910190611d5b565b60208301525095945050505050565b5f60208284031215611d95575f5ffd5b813560ff81168114610996575f5ffd5b803560038110610a9a575f5ffd5b5f60208284031215611dc3575f5ffd5b61099682611da5565b5f5f83601f840112611ddc575f5ffd5b5081356001600160401b03811115611df2575f5ffd5b602083019150836020828501011115611e09575f5ffd5b9250929050565b5f5f5f5f5f5f5f60a0888a031215611e26575f5ffd5b8735611e3181611b2d565b9650602088013595506040880135611e4881611b2d565b945060608801356001600160401b03811115611e62575f5ffd5b611e6e8a828b01611dcc565b90955093505060808801356001600160401b03811115611e8c575f5ffd5b611e988a828b01611dcc565b989b979a50959850939692959293505050565b5f5f60608385031215611ebc575f5ffd5b611ec68484611a69565b915060408301356001600160401b03811115611ee0575f5ffd5b611eec85828601611a90565b9150509250929050565b5f5f60208385031215611f07575f5ffd5b82356001600160401b03811115611f1c575f5ffd5b611f2885828601611dcc565b90969095509350505050565b5f5f5f5f60808587031215611f47575f5ffd5b84356001600160401b03811115611f5c575f5ffd5b85016101208188031215611f6e575f5ffd5b9350602085013592506040850135611f8581611b2d565b91506060850135611f9581611b2d565b939692955090935050565b5f60208284031215611fb0575f5ffd5b813561099681611a55565b5f60208284031215611fcb575f5ffd5b5051919050565b5f8151808452602084019350602083015f5b82811015612002578151865260209586019590910190600101611fe4565b5093949350505050565b60208082528251805183830152015160408201525f6020830151606080840152611a0e6080840182611fd2565b60ff60f81b8360f81b1681525f82518060208501600185015e5f92016001019182525092915050565b634e487b7160e01b5f52602160045260245ffd5b60408101610ed58284546001600160a01b038116825260a01c63ffffffff16602090910152565b5f602082840312156120ad575f5ffd5b815161099681611b2d565b606081016120c68285611b59565b63ffffffff831660408301529392505050565b5f602082840312156120e9575f5ffd5b81518015158114610996575f5ffd5b6121028186611b59565b63ffffffff8416604082015260c06060820152825160c0820152602083015160e08201525f604084015161214461010084018280518252602090810151910152565b50606084015160a0610140840152612160610160840182611fd2565b9150506121706080830184611b59565b95945050505050565b5f60c082016121888388611b59565b63ffffffff8616604084015260c0606084015280855180835260e08501915060e08160051b8601019250602087015f5b828110156122095786850360df19018452815180516001600160a01b031686526020908101516040918701829052906121f390870182611fd2565b95505060209384019391909101906001016121b8565b50505050809150506121706080830184611b59565b60f884901b6001600160f81b0319168152818360018301375f910160010190815292915050565b634e487b7160e01b5f52603260045260245ffd5b5f5f8335601e1984360301811261226e575f5ffd5b83016020810192503590506001600160401b0381111561228c575f5ffd5b8060051b3603821315611e09575f5ffd5b81835281816020850137505f828201602090810191909152601f909101601f19169091010190565b5f8235605e198336030181126122d9575f5ffd5b90910192915050565b8183525f6001600160fb1b038311156122f9575f5ffd5b8260051b80836020870137939093016020019392505050565b80358252602080820135908301525f61232e6040830183612259565b606060408601526121706060860182846122e2565b5f8151808452602084019350602083015f5b8281101561200257815161ffff16865260209586019590910190600101612355565b61239a8185546001600160a01b038116825260a01c63ffffffff16602090910152565b608060408201525f6101a0820184356123b281611b2d565b63ffffffff166080840152602085013560a0840152604085013560c0840152606085013560e0840152604060808601610100850137604060c08601610140850137612401610100860186612259565b610120610180860152828184526101c0860190506101c08260051b8701019350825f5b838110156124e3578786036101bf1901835261244082866122c5565b803561244b81611b2d565b63ffffffff168752602081013536829003601e1901811261246a575f5ffd5b81016020810190356001600160401b03811115612485575f5ffd5b803603821315612493575f5ffd5b606060208a01526124a860608a01828461229d565b9150506124b860408301836122c5565b915087810360408901526124cc8183612312565b975050506020928301929190910190600101612424565b505050505082810360608401526124fa8185612343565b9695505050505050565b813561250f81611a55565b81546001600160a01b031981166001600160a01b03929092169182178355602084013561253b81611b2d565b6001600160c01b03199190911690911760a09190911b63ffffffff60a01b1617905550565b803561256b81611a55565b6001600160a01b03168252602081013561258481611b2d565b63ffffffff81166020840152505050565b60408101610ed58284612560565b6125ad8186612560565b63ffffffff841660408281019190915260c06060808401829052853591840191909152602085013560e0840152908401356101008301528301356101208201525f6125fb6080850185612259565b60a0610140850152612612610160850182846122e2565b925050506121706080830184546001600160a01b038116825260a01c63ffffffff16602090910152565b5f6040828403121561264c575f5ffd5b612654611bf1565b9050813561266181611a55565b8152602082013561267181611b2d565b602082015292915050565b5f5f5f5f60c0858703121561268f575f5ffd5b612699868661263c565b93506126a760408601611da5565b92506126b6866060870161263c565b915060a08501356001600160401b038111156126d0575f5ffd5b8501601f810187136126e0575f5ffd5b80356001600160401b038111156126f9576126f9611bdd565b61270c601f8201601f1916602001611c3b565b818152886020838501011115612720575f5ffd5b816020840160208301375f6020838301015280935050505092959194509250565b80516020808301519190811015611a79575f1960209190910360031b1b16919050565b5f82601f830112612773575f5ffd5b8151612781611d2e82611c6b565b8082825260208201915060208360051b8601019250858311156127a2575f5ffd5b602085015b838110156127bf5780518352602092830192016127a7565b5095945050505050565b5f602082840312156127d9575f5ffd5b81516001600160401b038111156127ee575f5ffd5b820180840360a0811215612800575f5ffd5b612808611c19565b82518152602080840151908201526040603f1983011215612827575f5ffd5b61282f611bf1565b604084810151825260608501516020830152820152608083015191506001600160401b0382111561285e575f5ffd5b61286a86838501612764565b606082015295945050505050565b5f60208284031215612888575f5ffd5b81516001600160401b0381111561289d575f5ffd5b8201601f810184136128ad575f5ffd5b80516128bb611d2e82611c6b565b8082825260208201915060208360051b8501019250868311156128dc575f5ffd5b602084015b8381101561296e5780516001600160401b038111156128fe575f5ffd5b85016040818a03601f19011215612913575f5ffd5b61291b611bf1565b602082015161292981611a55565b815260408201516001600160401b03811115612943575f5ffd5b6129528b602083860101612764565b60208301525080855250506020830192506020810190506128e1565b509695505050505050565b5f60208284031215612989575f5ffd5b815161099681611a55565b5f826129ae57634e487b7160e01b5f52601260045260245ffd5b500690565b80820180821115610ed557634e487b7160e01b5f52601160045260245ffdfea2646970667358221220240ad301da8b77f9c106ebe3947011bb74091956af5628b16f9becbfbcf9302864736f6c634300081e0033",
    "linkReferences": {}
  },
  "methodIdentifiers": {
    "GENERATOR_GLOBAL_TABLE_ROOT()": "1bdc0deb",
    "GENERATOR_MAX_STALENESS_PERIOD()": "790961ea",
    "GENERATOR_REFERENCE_TIMESTAMP()": "612abcb0",
    "GLOBAL_TABLE_ROOT_CERT_TYPEHASH()": "3ef6cd7a",
    "MAX_BPS()": "fd967f47",
    "OPERATOR_INFO_LEAF_SALT()": "a2c902f5",
    "OPERATOR_TABLE_LEAF_SALT()": "121409ea",
    "bn254CertificateVerifier()": "b8c14306",
    "calculateOperatorInfoLeaf(((uint256,uint256),uint256[]))": "538a3790",
    "calculateOperatorTableLeaf(bytes)": "a2f2e24d",
    "confirmGlobalTableRoot((uint32,bytes32,(uint256,uint256),(uint256[2],uint256[2]),(uint32,bytes,((uint256,uint256),uint256[]))[]),bytes32,uint32,uint32)": "eaaed9d5",
    "disableRoot(bytes32)": "c3621f0a",
    "ecdsaCertificateVerifier()": "ad0f9582",
    "getCertificateVerifier(uint8)": "6f728c50",
    "getCurrentGlobalTableRoot()": "28522d79",
    "getGenerator()": "1e2ca260",
    "getGeneratorConfig()": "b0cb3a24",
    "getGeneratorReferenceTimestamp()": "7551ba34",
    "getGlobalTableRootByTimestamp(uint32)": "c5916a39",
    "getGlobalTableUpdateMessageHash(bytes32,uint32,uint32)": "c3be1e33",
    "getGlobalTableUpdateSignableDigest(bytes32,uint32,uint32)": "401c370f",
    "getLatestReferenceBlockNumber()": "31a599d2",
    "getLatestReferenceTimestamp()": "4624e6a3",
    "getReferenceBlockNumberByTimestamp(uint32)": "23b7b5b2",
    "getReferenceTimestampByBlockNumber(uint32)": "193b79f3",
    "globalRootConfirmationThreshold()": "c252aa22",
    "initialize(address,uint256,(address,uint32),uint16,(bytes32,uint256,(uint256,uint256),uint256[]))": "06f51875",
    "isRootValid(bytes32)": "30ef41b4",
    "isRootValidByTimestamp(uint32)": "64e1df84",
    "owner()": "8da5cb5b",
    "pause(uint256)": "136439dd",
    "pauseAll()": "595c6a67",
    "paused()": "5c975abb",
    "paused(uint8)": "5ac86ab7",
    "pauserRegistry()": "886f1195",
    "renounceOwnership()": "715018a6",
    "setGlobalRootConfirmationThreshold(uint16)": "2370356c",
    "transferOwnership(address)": "f2fde38b",
    "unpause(uint256)": "fabc1cbc",
    "updateGenerator((address,uint32),(bytes32,uint256,(uint256,uint256),uint256[]))": "9f7e206f",
    "updateOperatorTable(uint32,bytes32,uint32,bytes,bytes)": "9ea94778"
  },
  "id": 178
}