{
  "abi": [
    {
      "type": "constructor",
      "inputs": [
        {
          "name": "params",
          "type": "tuple",
          "internalType": "struct IRewardsCoordinatorTypes.RewardsCoordinatorConstructorParams",
          "components": [
            {
              "name": "delegationManager",
              "type": "address",
              "internalType": "contract IDelegationManager"
            },
            {
              "name": "strategyManager",
              "type": "address",
              "internalType": "contract IStrategyManager"
            },
            {
              "name": "allocationManager",
              "type": "address",
              "internalType": "contract IAllocationManager"
            },
            {
              "name": "pauserRegistry",
              "type": "address",
              "internalType": "contract IPauserRegistry"
            },
            {
              "name": "permissionController",
              "type": "address",
              "internalType": "contract IPermissionController"
            },
            {
              "name": "CALCULATION_INTERVAL_SECONDS",
              "type": "uint32",
              "internalType": "uint32"
            },
            {
              "name": "MAX_REWARDS_DURATION",
              "type": "uint32",
              "internalType": "uint32"
            },
            {
              "name": "MAX_RETROACTIVE_LENGTH",
              "type": "uint32",
              "internalType": "uint32"
            },
            {
              "name": "MAX_FUTURE_LENGTH",
              "type": "uint32",
              "internalType": "uint32"
            },
            {
              "name": "GENESIS_REWARDS_TIMESTAMP",
              "type": "uint32",
              "internalType": "uint32"
            }
          ]
        }
      ],
      "stateMutability": "nonpayable"
    },
    {
      "type": "function",
      "name": "CALCULATION_INTERVAL_SECONDS",
      "inputs": [],
      "outputs": [
        {
          "name": "",
          "type": "uint32",
          "internalType": "uint32"
        }
      ],
      "stateMutability": "view"
    },
    {
      "type": "function",
      "name": "GENESIS_REWARDS_TIMESTAMP",
      "inputs": [],
      "outputs": [
        {
          "name": "",
          "type": "uint32",
          "internalType": "uint32"
        }
      ],
      "stateMutability": "view"
    },
    {
      "type": "function",
      "name": "MAX_FUTURE_LENGTH",
      "inputs": [],
      "outputs": [
        {
          "name": "",
          "type": "uint32",
          "internalType": "uint32"
        }
      ],
      "stateMutability": "view"
    },
    {
      "type": "function",
      "name": "MAX_RETROACTIVE_LENGTH",
      "inputs": [],
      "outputs": [
        {
          "name": "",
          "type": "uint32",
          "internalType": "uint32"
        }
      ],
      "stateMutability": "view"
    },
    {
      "type": "function",
      "name": "MAX_REWARDS_DURATION",
      "inputs": [],
      "outputs": [
        {
          "name": "",
          "type": "uint32",
          "internalType": "uint32"
        }
      ],
      "stateMutability": "view"
    },
    {
      "type": "function",
      "name": "activationDelay",
      "inputs": [],
      "outputs": [
        {
          "name": "",
          "type": "uint32",
          "internalType": "uint32"
        }
      ],
      "stateMutability": "view"
    },
    {
      "type": "function",
      "name": "allocationManager",
      "inputs": [],
      "outputs": [
        {
          "name": "",
          "type": "address",
          "internalType": "contract IAllocationManager"
        }
      ],
      "stateMutability": "view"
    },
    {
      "type": "function",
      "name": "beaconChainETHStrategy",
      "inputs": [],
      "outputs": [
        {
          "name": "",
          "type": "address",
          "internalType": "contract IStrategy"
        }
      ],
      "stateMutability": "view"
    },
    {
      "type": "function",
      "name": "calculateEarnerLeafHash",
      "inputs": [
        {
          "name": "leaf",
          "type": "tuple",
          "internalType": "struct IRewardsCoordinatorTypes.EarnerTreeMerkleLeaf",
          "components": [
            {
              "name": "earner",
              "type": "address",
              "internalType": "address"
            },
            {
              "name": "earnerTokenRoot",
              "type": "bytes32",
              "internalType": "bytes32"
            }
          ]
        }
      ],
      "outputs": [
        {
          "name": "",
          "type": "bytes32",
          "internalType": "bytes32"
        }
      ],
      "stateMutability": "pure"
    },
    {
      "type": "function",
      "name": "calculateTokenLeafHash",
      "inputs": [
        {
          "name": "leaf",
          "type": "tuple",
          "internalType": "struct IRewardsCoordinatorTypes.TokenTreeMerkleLeaf",
          "components": [
            {
              "name": "token",
              "type": "address",
              "internalType": "contract IERC20"
            },
            {
              "name": "cumulativeEarnings",
              "type": "uint256",
              "internalType": "uint256"
            }
          ]
        }
      ],
      "outputs": [
        {
          "name": "",
          "type": "bytes32",
          "internalType": "bytes32"
        }
      ],
      "stateMutability": "pure"
    },
    {
      "type": "function",
      "name": "checkClaim",
      "inputs": [
        {
          "name": "claim",
          "type": "tuple",
          "internalType": "struct IRewardsCoordinatorTypes.RewardsMerkleClaim",
          "components": [
            {
              "name": "rootIndex",
              "type": "uint32",
              "internalType": "uint32"
            },
            {
              "name": "earnerIndex",
              "type": "uint32",
              "internalType": "uint32"
            },
            {
              "name": "earnerTreeProof",
              "type": "bytes",
              "internalType": "bytes"
            },
            {
              "name": "earnerLeaf",
              "type": "tuple",
              "internalType": "struct IRewardsCoordinatorTypes.EarnerTreeMerkleLeaf",
              "components": [
                {
                  "name": "earner",
                  "type": "address",
                  "internalType": "address"
                },
                {
                  "name": "earnerTokenRoot",
                  "type": "bytes32",
                  "internalType": "bytes32"
                }
              ]
            },
            {
              "name": "tokenIndices",
              "type": "uint32[]",
              "internalType": "uint32[]"
            },
            {
              "name": "tokenTreeProofs",
              "type": "bytes[]",
              "internalType": "bytes[]"
            },
            {
              "name": "tokenLeaves",
              "type": "tuple[]",
              "internalType": "struct IRewardsCoordinatorTypes.TokenTreeMerkleLeaf[]",
              "components": [
                {
                  "name": "token",
                  "type": "address",
                  "internalType": "contract IERC20"
                },
                {
                  "name": "cumulativeEarnings",
                  "type": "uint256",
                  "internalType": "uint256"
                }
              ]
            }
          ]
        }
      ],
      "outputs": [
        {
          "name": "",
          "type": "bool",
          "internalType": "bool"
        }
      ],
      "stateMutability": "view"
    },
    {
      "type": "function",
      "name": "claimerFor",
      "inputs": [
        {
          "name": "earner",
          "type": "address",
          "internalType": "address"
        }
      ],
      "outputs": [
        {
          "name": "claimer",
          "type": "address",
          "internalType": "address"
        }
      ],
      "stateMutability": "view"
    },
    {
      "type": "function",
      "name": "createAVSRewardsSubmission",
      "inputs": [
        {
          "name": "rewardsSubmissions",
          "type": "tuple[]",
          "internalType": "struct IRewardsCoordinatorTypes.RewardsSubmission[]",
          "components": [
            {
              "name": "strategiesAndMultipliers",
              "type": "tuple[]",
              "internalType": "struct IRewardsCoordinatorTypes.StrategyAndMultiplier[]",
              "components": [
                {
                  "name": "strategy",
                  "type": "address",
                  "internalType": "contract IStrategy"
                },
                {
                  "name": "multiplier",
                  "type": "uint96",
                  "internalType": "uint96"
                }
              ]
            },
            {
              "name": "token",
              "type": "address",
              "internalType": "contract IERC20"
            },
            {
              "name": "amount",
              "type": "uint256",
              "internalType": "uint256"
            },
            {
              "name": "startTimestamp",
              "type": "uint32",
              "internalType": "uint32"
            },
            {
              "name": "duration",
              "type": "uint32",
              "internalType": "uint32"
            }
          ]
        }
      ],
      "outputs": [],
      "stateMutability": "nonpayable"
    },
    {
      "type": "function",
      "name": "createOperatorDirectedAVSRewardsSubmission",
      "inputs": [
        {
          "name": "avs",
          "type": "address",
          "internalType": "address"
        },
        {
          "name": "operatorDirectedRewardsSubmissions",
          "type": "tuple[]",
          "internalType": "struct IRewardsCoordinatorTypes.OperatorDirectedRewardsSubmission[]",
          "components": [
            {
              "name": "strategiesAndMultipliers",
              "type": "tuple[]",
              "internalType": "struct IRewardsCoordinatorTypes.StrategyAndMultiplier[]",
              "components": [
                {
                  "name": "strategy",
                  "type": "address",
                  "internalType": "contract IStrategy"
                },
                {
                  "name": "multiplier",
                  "type": "uint96",
                  "internalType": "uint96"
                }
              ]
            },
            {
              "name": "token",
              "type": "address",
              "internalType": "contract IERC20"
            },
            {
              "name": "operatorRewards",
              "type": "tuple[]",
              "internalType": "struct IRewardsCoordinatorTypes.OperatorReward[]",
              "components": [
                {
                  "name": "operator",
                  "type": "address",
                  "internalType": "address"
                },
                {
                  "name": "amount",
                  "type": "uint256",
                  "internalType": "uint256"
                }
              ]
            },
            {
              "name": "startTimestamp",
              "type": "uint32",
              "internalType": "uint32"
            },
            {
              "name": "duration",
              "type": "uint32",
              "internalType": "uint32"
            },
            {
              "name": "description",
              "type": "string",
              "internalType": "string"
            }
          ]
        }
      ],
      "outputs": [],
      "stateMutability": "nonpayable"
    },
    {
      "type": "function",
      "name": "createOperatorDirectedOperatorSetRewardsSubmission",
      "inputs": [
        {
          "name": "operatorSet",
          "type": "tuple",
          "internalType": "struct OperatorSet",
          "components": [
            {
              "name": "avs",
              "type": "address",
              "internalType": "address"
            },
            {
              "name": "id",
              "type": "uint32",
              "internalType": "uint32"
            }
          ]
        },
        {
          "name": "operatorDirectedRewardsSubmissions",
          "type": "tuple[]",
          "internalType": "struct IRewardsCoordinatorTypes.OperatorDirectedRewardsSubmission[]",
          "components": [
            {
              "name": "strategiesAndMultipliers",
              "type": "tuple[]",
              "internalType": "struct IRewardsCoordinatorTypes.StrategyAndMultiplier[]",
              "components": [
                {
                  "name": "strategy",
                  "type": "address",
                  "internalType": "contract IStrategy"
                },
                {
                  "name": "multiplier",
                  "type": "uint96",
                  "internalType": "uint96"
                }
              ]
            },
            {
              "name": "token",
              "type": "address",
              "internalType": "contract IERC20"
            },
            {
              "name": "operatorRewards",
              "type": "tuple[]",
              "internalType": "struct IRewardsCoordinatorTypes.OperatorReward[]",
              "components": [
                {
                  "name": "operator",
                  "type": "address",
                  "internalType": "address"
                },
                {
                  "name": "amount",
                  "type": "uint256",
                  "internalType": "uint256"
                }
              ]
            },
            {
              "name": "startTimestamp",
              "type": "uint32",
              "internalType": "uint32"
            },
            {
              "name": "duration",
              "type": "uint32",
              "internalType": "uint32"
            },
            {
              "name": "description",
              "type": "string",
              "internalType": "string"
            }
          ]
        }
      ],
      "outputs": [],
      "stateMutability": "nonpayable"
    },
    {
      "type": "function",
      "name": "createRewardsForAllEarners",
      "inputs": [
        {
          "name": "rewardsSubmissions",
          "type": "tuple[]",
          "internalType": "struct IRewardsCoordinatorTypes.RewardsSubmission[]",
          "components": [
            {
              "name": "strategiesAndMultipliers",
              "type": "tuple[]",
              "internalType": "struct IRewardsCoordinatorTypes.StrategyAndMultiplier[]",
              "components": [
                {
                  "name": "strategy",
                  "type": "address",
                  "internalType": "contract IStrategy"
                },
                {
                  "name": "multiplier",
                  "type": "uint96",
                  "internalType": "uint96"
                }
              ]
            },
            {
              "name": "token",
              "type": "address",
              "internalType": "contract IERC20"
            },
            {
              "name": "amount",
              "type": "uint256",
              "internalType": "uint256"
            },
            {
              "name": "startTimestamp",
              "type": "uint32",
              "internalType": "uint32"
            },
            {
              "name": "duration",
              "type": "uint32",
              "internalType": "uint32"
            }
          ]
        }
      ],
      "outputs": [],
      "stateMutability": "nonpayable"
    },
    {
      "type": "function",
      "name": "createRewardsForAllSubmission",
      "inputs": [
        {
          "name": "rewardsSubmissions",
          "type": "tuple[]",
          "internalType": "struct IRewardsCoordinatorTypes.RewardsSubmission[]",
          "components": [
            {
              "name": "strategiesAndMultipliers",
              "type": "tuple[]",
              "internalType": "struct IRewardsCoordinatorTypes.StrategyAndMultiplier[]",
              "components": [
                {
                  "name": "strategy",
                  "type": "address",
                  "internalType": "contract IStrategy"
                },
                {
                  "name": "multiplier",
                  "type": "uint96",
                  "internalType": "uint96"
                }
              ]
            },
            {
              "name": "token",
              "type": "address",
              "internalType": "contract IERC20"
            },
            {
              "name": "amount",
              "type": "uint256",
              "internalType": "uint256"
            },
            {
              "name": "startTimestamp",
              "type": "uint32",
              "internalType": "uint32"
            },
            {
              "name": "duration",
              "type": "uint32",
              "internalType": "uint32"
            }
          ]
        }
      ],
      "outputs": [],
      "stateMutability": "nonpayable"
    },
    {
      "type": "function",
      "name": "cumulativeClaimed",
      "inputs": [
        {
          "name": "earner",
          "type": "address",
          "internalType": "address"
        },
        {
          "name": "token",
          "type": "address",
          "internalType": "contract IERC20"
        }
      ],
      "outputs": [
        {
          "name": "totalClaimed",
          "type": "uint256",
          "internalType": "uint256"
        }
      ],
      "stateMutability": "view"
    },
    {
      "type": "function",
      "name": "currRewardsCalculationEndTimestamp",
      "inputs": [],
      "outputs": [
        {
          "name": "",
          "type": "uint32",
          "internalType": "uint32"
        }
      ],
      "stateMutability": "view"
    },
    {
      "type": "function",
      "name": "defaultOperatorSplitBips",
      "inputs": [],
      "outputs": [
        {
          "name": "",
          "type": "uint16",
          "internalType": "uint16"
        }
      ],
      "stateMutability": "view"
    },
    {
      "type": "function",
      "name": "delegationManager",
      "inputs": [],
      "outputs": [
        {
          "name": "",
          "type": "address",
          "internalType": "contract IDelegationManager"
        }
      ],
      "stateMutability": "view"
    },
    {
      "type": "function",
      "name": "disableRoot",
      "inputs": [
        {
          "name": "rootIndex",
          "type": "uint32",
          "internalType": "uint32"
        }
      ],
      "outputs": [],
      "stateMutability": "nonpayable"
    },
    {
      "type": "function",
      "name": "getCurrentClaimableDistributionRoot",
      "inputs": [],
      "outputs": [
        {
          "name": "",
          "type": "tuple",
          "internalType": "struct IRewardsCoordinatorTypes.DistributionRoot",
          "components": [
            {
              "name": "root",
              "type": "bytes32",
              "internalType": "bytes32"
            },
            {
              "name": "rewardsCalculationEndTimestamp",
              "type": "uint32",
              "internalType": "uint32"
            },
            {
              "name": "activatedAt",
              "type": "uint32",
              "internalType": "uint32"
            },
            {
              "name": "disabled",
              "type": "bool",
              "internalType": "bool"
            }
          ]
        }
      ],
      "stateMutability": "view"
    },
    {
      "type": "function",
      "name": "getCurrentDistributionRoot",
      "inputs": [],
      "outputs": [
        {
          "name": "",
          "type": "tuple",
          "internalType": "struct IRewardsCoordinatorTypes.DistributionRoot",
          "components": [
            {
              "name": "root",
              "type": "bytes32",
              "internalType": "bytes32"
            },
            {
              "name": "rewardsCalculationEndTimestamp",
              "type": "uint32",
              "internalType": "uint32"
            },
            {
              "name": "activatedAt",
              "type": "uint32",
              "internalType": "uint32"
            },
            {
              "name": "disabled",
              "type": "bool",
              "internalType": "bool"
            }
          ]
        }
      ],
      "stateMutability": "view"
    },
    {
      "type": "function",
      "name": "getDistributionRootAtIndex",
      "inputs": [
        {
          "name": "index",
          "type": "uint256",
          "internalType": "uint256"
        }
      ],
      "outputs": [
        {
          "name": "",
          "type": "tuple",
          "internalType": "struct IRewardsCoordinatorTypes.DistributionRoot",
          "components": [
            {
              "name": "root",
              "type": "bytes32",
              "internalType": "bytes32"
            },
            {
              "name": "rewardsCalculationEndTimestamp",
              "type": "uint32",
              "internalType": "uint32"
            },
            {
              "name": "activatedAt",
              "type": "uint32",
              "internalType": "uint32"
            },
            {
              "name": "disabled",
              "type": "bool",
              "internalType": "bool"
            }
          ]
        }
      ],
      "stateMutability": "view"
    },
    {
      "type": "function",
      "name": "getDistributionRootsLength",
      "inputs": [],
      "outputs": [
        {
          "name": "",
          "type": "uint256",
          "internalType": "uint256"
        }
      ],
      "stateMutability": "view"
    },
    {
      "type": "function",
      "name": "getOperatorAVSSplit",
      "inputs": [
        {
          "name": "operator",
          "type": "address",
          "internalType": "address"
        },
        {
          "name": "avs",
          "type": "address",
          "internalType": "address"
        }
      ],
      "outputs": [
        {
          "name": "",
          "type": "uint16",
          "internalType": "uint16"
        }
      ],
      "stateMutability": "view"
    },
    {
      "type": "function",
      "name": "getOperatorPISplit",
      "inputs": [
        {
          "name": "operator",
          "type": "address",
          "internalType": "address"
        }
      ],
      "outputs": [
        {
          "name": "",
          "type": "uint16",
          "internalType": "uint16"
        }
      ],
      "stateMutability": "view"
    },
    {
      "type": "function",
      "name": "getOperatorSetSplit",
      "inputs": [
        {
          "name": "operator",
          "type": "address",
          "internalType": "address"
        },
        {
          "name": "operatorSet",
          "type": "tuple",
          "internalType": "struct OperatorSet",
          "components": [
            {
              "name": "avs",
              "type": "address",
              "internalType": "address"
            },
            {
              "name": "id",
              "type": "uint32",
              "internalType": "uint32"
            }
          ]
        }
      ],
      "outputs": [
        {
          "name": "",
          "type": "uint16",
          "internalType": "uint16"
        }
      ],
      "stateMutability": "view"
    },
    {
      "type": "function",
      "name": "getRootIndexFromHash",
      "inputs": [
        {
          "name": "rootHash",
          "type": "bytes32",
          "internalType": "bytes32"
        }
      ],
      "outputs": [
        {
          "name": "",
          "type": "uint32",
          "internalType": "uint32"
        }
      ],
      "stateMutability": "view"
    },
    {
      "type": "function",
      "name": "initialize",
      "inputs": [
        {
          "name": "initialOwner",
          "type": "address",
          "internalType": "address"
        },
        {
          "name": "initialPausedStatus",
          "type": "uint256",
          "internalType": "uint256"
        },
        {
          "name": "_rewardsUpdater",
          "type": "address",
          "internalType": "address"
        },
        {
          "name": "_activationDelay",
          "type": "uint32",
          "internalType": "uint32"
        },
        {
          "name": "_defaultSplitBips",
          "type": "uint16",
          "internalType": "uint16"
        }
      ],
      "outputs": [],
      "stateMutability": "nonpayable"
    },
    {
      "type": "function",
      "name": "isAVSRewardsSubmissionHash",
      "inputs": [
        {
          "name": "avs",
          "type": "address",
          "internalType": "address"
        },
        {
          "name": "hash",
          "type": "bytes32",
          "internalType": "bytes32"
        }
      ],
      "outputs": [
        {
          "name": "valid",
          "type": "bool",
          "internalType": "bool"
        }
      ],
      "stateMutability": "view"
    },
    {
      "type": "function",
      "name": "isOperatorDirectedAVSRewardsSubmissionHash",
      "inputs": [
        {
          "name": "avs",
          "type": "address",
          "internalType": "address"
        },
        {
          "name": "hash",
          "type": "bytes32",
          "internalType": "bytes32"
        }
      ],
      "outputs": [
        {
          "name": "valid",
          "type": "bool",
          "internalType": "bool"
        }
      ],
      "stateMutability": "view"
    },
    {
      "type": "function",
      "name": "isOperatorDirectedOperatorSetRewardsSubmissionHash",
      "inputs": [
        {
          "name": "avs",
          "type": "address",
          "internalType": "address"
        },
        {
          "name": "hash",
          "type": "bytes32",
          "internalType": "bytes32"
        }
      ],
      "outputs": [
        {
          "name": "valid",
          "type": "bool",
          "internalType": "bool"
        }
      ],
      "stateMutability": "view"
    },
    {
      "type": "function",
      "name": "isRewardsForAllSubmitter",
      "inputs": [
        {
          "name": "submitter",
          "type": "address",
          "internalType": "address"
        }
      ],
      "outputs": [
        {
          "name": "valid",
          "type": "bool",
          "internalType": "bool"
        }
      ],
      "stateMutability": "view"
    },
    {
      "type": "function",
      "name": "isRewardsSubmissionForAllEarnersHash",
      "inputs": [
        {
          "name": "avs",
          "type": "address",
          "internalType": "address"
        },
        {
          "name": "hash",
          "type": "bytes32",
          "internalType": "bytes32"
        }
      ],
      "outputs": [
        {
          "name": "valid",
          "type": "bool",
          "internalType": "bool"
        }
      ],
      "stateMutability": "view"
    },
    {
      "type": "function",
      "name": "isRewardsSubmissionForAllHash",
      "inputs": [
        {
          "name": "avs",
          "type": "address",
          "internalType": "address"
        },
        {
          "name": "hash",
          "type": "bytes32",
          "internalType": "bytes32"
        }
      ],
      "outputs": [
        {
          "name": "valid",
          "type": "bool",
          "internalType": "bool"
        }
      ],
      "stateMutability": "view"
    },
    {
      "type": "function",
      "name": "owner",
      "inputs": [],
      "outputs": [
        {
          "name": "",
          "type": "address",
          "internalType": "address"
        }
      ],
      "stateMutability": "view"
    },
    {
      "type": "function",
      "name": "pause",
      "inputs": [
        {
          "name": "newPausedStatus",
          "type": "uint256",
          "internalType": "uint256"
        }
      ],
      "outputs": [],
      "stateMutability": "nonpayable"
    },
    {
      "type": "function",
      "name": "pauseAll",
      "inputs": [],
      "outputs": [],
      "stateMutability": "nonpayable"
    },
    {
      "type": "function",
      "name": "paused",
      "inputs": [
        {
          "name": "index",
          "type": "uint8",
          "internalType": "uint8"
        }
      ],
      "outputs": [
        {
          "name": "",
          "type": "bool",
          "internalType": "bool"
        }
      ],
      "stateMutability": "view"
    },
    {
      "type": "function",
      "name": "paused",
      "inputs": [],
      "outputs": [
        {
          "name": "",
          "type": "uint256",
          "internalType": "uint256"
        }
      ],
      "stateMutability": "view"
    },
    {
      "type": "function",
      "name": "pauserRegistry",
      "inputs": [],
      "outputs": [
        {
          "name": "",
          "type": "address",
          "internalType": "contract IPauserRegistry"
        }
      ],
      "stateMutability": "view"
    },
    {
      "type": "function",
      "name": "permissionController",
      "inputs": [],
      "outputs": [
        {
          "name": "",
          "type": "address",
          "internalType": "contract IPermissionController"
        }
      ],
      "stateMutability": "view"
    },
    {
      "type": "function",
      "name": "processClaim",
      "inputs": [
        {
          "name": "claim",
          "type": "tuple",
          "internalType": "struct IRewardsCoordinatorTypes.RewardsMerkleClaim",
          "components": [
            {
              "name": "rootIndex",
              "type": "uint32",
              "internalType": "uint32"
            },
            {
              "name": "earnerIndex",
              "type": "uint32",
              "internalType": "uint32"
            },
            {
              "name": "earnerTreeProof",
              "type": "bytes",
              "internalType": "bytes"
            },
            {
              "name": "earnerLeaf",
              "type": "tuple",
              "internalType": "struct IRewardsCoordinatorTypes.EarnerTreeMerkleLeaf",
              "components": [
                {
                  "name": "earner",
                  "type": "address",
                  "internalType": "address"
                },
                {
                  "name": "earnerTokenRoot",
                  "type": "bytes32",
                  "internalType": "bytes32"
                }
              ]
            },
            {
              "name": "tokenIndices",
              "type": "uint32[]",
              "internalType": "uint32[]"
            },
            {
              "name": "tokenTreeProofs",
              "type": "bytes[]",
              "internalType": "bytes[]"
            },
            {
              "name": "tokenLeaves",
              "type": "tuple[]",
              "internalType": "struct IRewardsCoordinatorTypes.TokenTreeMerkleLeaf[]",
              "components": [
                {
                  "name": "token",
                  "type": "address",
                  "internalType": "contract IERC20"
                },
                {
                  "name": "cumulativeEarnings",
                  "type": "uint256",
                  "internalType": "uint256"
                }
              ]
            }
          ]
        },
        {
          "name": "recipient",
          "type": "address",
          "internalType": "address"
        }
      ],
      "outputs": [],
      "stateMutability": "nonpayable"
    },
    {
      "type": "function",
      "name": "processClaims",
      "inputs": [
        {
          "name": "claims",
          "type": "tuple[]",
          "internalType": "struct IRewardsCoordinatorTypes.RewardsMerkleClaim[]",
          "components": [
            {
              "name": "rootIndex",
              "type": "uint32",
              "internalType": "uint32"
            },
            {
              "name": "earnerIndex",
              "type": "uint32",
              "internalType": "uint32"
            },
            {
              "name": "earnerTreeProof",
              "type": "bytes",
              "internalType": "bytes"
            },
            {
              "name": "earnerLeaf",
              "type": "tuple",
              "internalType": "struct IRewardsCoordinatorTypes.EarnerTreeMerkleLeaf",
              "components": [
                {
                  "name": "earner",
                  "type": "address",
                  "internalType": "address"
                },
                {
                  "name": "earnerTokenRoot",
                  "type": "bytes32",
                  "internalType": "bytes32"
                }
              ]
            },
            {
              "name": "tokenIndices",
              "type": "uint32[]",
              "internalType": "uint32[]"
            },
            {
              "name": "tokenTreeProofs",
              "type": "bytes[]",
              "internalType": "bytes[]"
            },
            {
              "name": "tokenLeaves",
              "type": "tuple[]",
              "internalType": "struct IRewardsCoordinatorTypes.TokenTreeMerkleLeaf[]",
              "components": [
                {
                  "name": "token",
                  "type": "address",
                  "internalType": "contract IERC20"
                },
                {
                  "name": "cumulativeEarnings",
                  "type": "uint256",
                  "internalType": "uint256"
                }
              ]
            }
          ]
        },
        {
          "name": "recipient",
          "type": "address",
          "internalType": "address"
        }
      ],
      "outputs": [],
      "stateMutability": "nonpayable"
    },
    {
      "type": "function",
      "name": "renounceOwnership",
      "inputs": [],
      "outputs": [],
      "stateMutability": "nonpayable"
    },
    {
      "type": "function",
      "name": "rewardsUpdater",
      "inputs": [],
      "outputs": [
        {
          "name": "",
          "type": "address",
          "internalType": "address"
        }
      ],
      "stateMutability": "view"
    },
    {
      "type": "function",
      "name": "setActivationDelay",
      "inputs": [
        {
          "name": "_activationDelay",
          "type": "uint32",
          "internalType": "uint32"
        }
      ],
      "outputs": [],
      "stateMutability": "nonpayable"
    },
    {
      "type": "function",
      "name": "setClaimerFor",
      "inputs": [
        {
          "name": "claimer",
          "type": "address",
          "internalType": "address"
        }
      ],
      "outputs": [],
      "stateMutability": "nonpayable"
    },
    {
      "type": "function",
      "name": "setClaimerFor",
      "inputs": [
        {
          "name": "earner",
          "type": "address",
          "internalType": "address"
        },
        {
          "name": "claimer",
          "type": "address",
          "internalType": "address"
        }
      ],
      "outputs": [],
      "stateMutability": "nonpayable"
    },
    {
      "type": "function",
      "name": "setDefaultOperatorSplit",
      "inputs": [
        {
          "name": "split",
          "type": "uint16",
          "internalType": "uint16"
        }
      ],
      "outputs": [],
      "stateMutability": "nonpayable"
    },
    {
      "type": "function",
      "name": "setOperatorAVSSplit",
      "inputs": [
        {
          "name": "operator",
          "type": "address",
          "internalType": "address"
        },
        {
          "name": "avs",
          "type": "address",
          "internalType": "address"
        },
        {
          "name": "split",
          "type": "uint16",
          "internalType": "uint16"
        }
      ],
      "outputs": [],
      "stateMutability": "nonpayable"
    },
    {
      "type": "function",
      "name": "setOperatorPISplit",
      "inputs": [
        {
          "name": "operator",
          "type": "address",
          "internalType": "address"
        },
        {
          "name": "split",
          "type": "uint16",
          "internalType": "uint16"
        }
      ],
      "outputs": [],
      "stateMutability": "nonpayable"
    },
    {
      "type": "function",
      "name": "setOperatorSetSplit",
      "inputs": [
        {
          "name": "operator",
          "type": "address",
          "internalType": "address"
        },
        {
          "name": "operatorSet",
          "type": "tuple",
          "internalType": "struct OperatorSet",
          "components": [
            {
              "name": "avs",
              "type": "address",
              "internalType": "address"
            },
            {
              "name": "id",
              "type": "uint32",
              "internalType": "uint32"
            }
          ]
        },
        {
          "name": "split",
          "type": "uint16",
          "internalType": "uint16"
        }
      ],
      "outputs": [],
      "stateMutability": "nonpayable"
    },
    {
      "type": "function",
      "name": "setRewardsForAllSubmitter",
      "inputs": [
        {
          "name": "_submitter",
          "type": "address",
          "internalType": "address"
        },
        {
          "name": "_newValue",
          "type": "bool",
          "internalType": "bool"
        }
      ],
      "outputs": [],
      "stateMutability": "nonpayable"
    },
    {
      "type": "function",
      "name": "setRewardsUpdater",
      "inputs": [
        {
          "name": "_rewardsUpdater",
          "type": "address",
          "internalType": "address"
        }
      ],
      "outputs": [],
      "stateMutability": "nonpayable"
    },
    {
      "type": "function",
      "name": "strategyManager",
      "inputs": [],
      "outputs": [
        {
          "name": "",
          "type": "address",
          "internalType": "contract IStrategyManager"
        }
      ],
      "stateMutability": "view"
    },
    {
      "type": "function",
      "name": "submissionNonce",
      "inputs": [
        {
          "name": "avs",
          "type": "address",
          "internalType": "address"
        }
      ],
      "outputs": [
        {
          "name": "nonce",
          "type": "uint256",
          "internalType": "uint256"
        }
      ],
      "stateMutability": "view"
    },
    {
      "type": "function",
      "name": "submitRoot",
      "inputs": [
        {
          "name": "root",
          "type": "bytes32",
          "internalType": "bytes32"
        },
        {
          "name": "rewardsCalculationEndTimestamp",
          "type": "uint32",
          "internalType": "uint32"
        }
      ],
      "outputs": [],
      "stateMutability": "nonpayable"
    },
    {
      "type": "function",
      "name": "transferOwnership",
      "inputs": [
        {
          "name": "newOwner",
          "type": "address",
          "internalType": "address"
        }
      ],
      "outputs": [],
      "stateMutability": "nonpayable"
    },
    {
      "type": "function",
      "name": "unpause",
      "inputs": [
        {
          "name": "newPausedStatus",
          "type": "uint256",
          "internalType": "uint256"
        }
      ],
      "outputs": [],
      "stateMutability": "nonpayable"
    },
    {
      "type": "event",
      "name": "AVSRewardsSubmissionCreated",
      "inputs": [
        {
          "name": "avs",
          "type": "address",
          "indexed": true,
          "internalType": "address"
        },
        {
          "name": "submissionNonce",
          "type": "uint256",
          "indexed": true,
          "internalType": "uint256"
        },
        {
          "name": "rewardsSubmissionHash",
          "type": "bytes32",
          "indexed": true,
          "internalType": "bytes32"
        },
        {
          "name": "rewardsSubmission",
          "type": "tuple",
          "indexed": false,
          "internalType": "struct IRewardsCoordinatorTypes.RewardsSubmission",
          "components": [
            {
              "name": "strategiesAndMultipliers",
              "type": "tuple[]",
              "internalType": "struct IRewardsCoordinatorTypes.StrategyAndMultiplier[]",
              "components": [
                {
                  "name": "strategy",
                  "type": "address",
                  "internalType": "contract IStrategy"
                },
                {
                  "name": "multiplier",
                  "type": "uint96",
                  "internalType": "uint96"
                }
              ]
            },
            {
              "name": "token",
              "type": "address",
              "internalType": "contract IERC20"
            },
            {
              "name": "amount",
              "type": "uint256",
              "internalType": "uint256"
            },
            {
              "name": "startTimestamp",
              "type": "uint32",
              "internalType": "uint32"
            },
            {
              "name": "duration",
              "type": "uint32",
              "internalType": "uint32"
            }
          ]
        }
      ],
      "anonymous": false
    },
    {
      "type": "event",
      "name": "ActivationDelaySet",
      "inputs": [
        {
          "name": "oldActivationDelay",
          "type": "uint32",
          "indexed": false,
          "internalType": "uint32"
        },
        {
          "name": "newActivationDelay",
          "type": "uint32",
          "indexed": false,
          "internalType": "uint32"
        }
      ],
      "anonymous": false
    },
    {
      "type": "event",
      "name": "ClaimerForSet",
      "inputs": [
        {
          "name": "earner",
          "type": "address",
          "indexed": true,
          "internalType": "address"
        },
        {
          "name": "oldClaimer",
          "type": "address",
          "indexed": true,
          "internalType": "address"
        },
        {
          "name": "claimer",
          "type": "address",
          "indexed": true,
          "internalType": "address"
        }
      ],
      "anonymous": false
    },
    {
      "type": "event",
      "name": "DefaultOperatorSplitBipsSet",
      "inputs": [
        {
          "name": "oldDefaultOperatorSplitBips",
          "type": "uint16",
          "indexed": false,
          "internalType": "uint16"
        },
        {
          "name": "newDefaultOperatorSplitBips",
          "type": "uint16",
          "indexed": false,
          "internalType": "uint16"
        }
      ],
      "anonymous": false
    },
    {
      "type": "event",
      "name": "DistributionRootDisabled",
      "inputs": [
        {
          "name": "rootIndex",
          "type": "uint32",
          "indexed": true,
          "internalType": "uint32"
        }
      ],
      "anonymous": false
    },
    {
      "type": "event",
      "name": "DistributionRootSubmitted",
      "inputs": [
        {
          "name": "rootIndex",
          "type": "uint32",
          "indexed": true,
          "internalType": "uint32"
        },
        {
          "name": "root",
          "type": "bytes32",
          "indexed": true,
          "internalType": "bytes32"
        },
        {
          "name": "rewardsCalculationEndTimestamp",
          "type": "uint32",
          "indexed": true,
          "internalType": "uint32"
        },
        {
          "name": "activatedAt",
          "type": "uint32",
          "indexed": false,
          "internalType": "uint32"
        }
      ],
      "anonymous": false
    },
    {
      "type": "event",
      "name": "Initialized",
      "inputs": [
        {
          "name": "version",
          "type": "uint8",
          "indexed": false,
          "internalType": "uint8"
        }
      ],
      "anonymous": false
    },
    {
      "type": "event",
      "name": "OperatorAVSSplitBipsSet",
      "inputs": [
        {
          "name": "caller",
          "type": "address",
          "indexed": true,
          "internalType": "address"
        },
        {
          "name": "operator",
          "type": "address",
          "indexed": true,
          "internalType": "address"
        },
        {
          "name": "avs",
          "type": "address",
          "indexed": true,
          "internalType": "address"
        },
        {
          "name": "activatedAt",
          "type": "uint32",
          "indexed": false,
          "internalType": "uint32"
        },
        {
          "name": "oldOperatorAVSSplitBips",
          "type": "uint16",
          "indexed": false,
          "internalType": "uint16"
        },
        {
          "name": "newOperatorAVSSplitBips",
          "type": "uint16",
          "indexed": false,
          "internalType": "uint16"
        }
      ],
      "anonymous": false
    },
    {
      "type": "event",
      "name": "OperatorDirectedAVSRewardsSubmissionCreated",
      "inputs": [
        {
          "name": "caller",
          "type": "address",
          "indexed": true,
          "internalType": "address"
        },
        {
          "name": "avs",
          "type": "address",
          "indexed": true,
          "internalType": "address"
        },
        {
          "name": "operatorDirectedRewardsSubmissionHash",
          "type": "bytes32",
          "indexed": true,
          "internalType": "bytes32"
        },
        {
          "name": "submissionNonce",
          "type": "uint256",
          "indexed": false,
          "internalType": "uint256"
        },
        {
          "name": "operatorDirectedRewardsSubmission",
          "type": "tuple",
          "indexed": false,
          "internalType": "struct IRewardsCoordinatorTypes.OperatorDirectedRewardsSubmission",
          "components": [
            {
              "name": "strategiesAndMultipliers",
              "type": "tuple[]",
              "internalType": "struct IRewardsCoordinatorTypes.StrategyAndMultiplier[]",
              "components": [
                {
                  "name": "strategy",
                  "type": "address",
                  "internalType": "contract IStrategy"
                },
                {
                  "name": "multiplier",
                  "type": "uint96",
                  "internalType": "uint96"
                }
              ]
            },
            {
              "name": "token",
              "type": "address",
              "internalType": "contract IERC20"
            },
            {
              "name": "operatorRewards",
              "type": "tuple[]",
              "internalType": "struct IRewardsCoordinatorTypes.OperatorReward[]",
              "components": [
                {
                  "name": "operator",
                  "type": "address",
                  "internalType": "address"
                },
                {
                  "name": "amount",
                  "type": "uint256",
                  "internalType": "uint256"
                }
              ]
            },
            {
              "name": "startTimestamp",
              "type": "uint32",
              "internalType": "uint32"
            },
            {
              "name": "duration",
              "type": "uint32",
              "internalType": "uint32"
            },
            {
              "name": "description",
              "type": "string",
              "internalType": "string"
            }
          ]
        }
      ],
      "anonymous": false
    },
    {
      "type": "event",
      "name": "OperatorDirectedOperatorSetRewardsSubmissionCreated",
      "inputs": [
        {
          "name": "caller",
          "type": "address",
          "indexed": true,
          "internalType": "address"
        },
        {
          "name": "operatorDirectedRewardsSubmissionHash",
          "type": "bytes32",
          "indexed": true,
          "internalType": "bytes32"
        },
        {
          "name": "operatorSet",
          "type": "tuple",
          "indexed": false,
          "internalType": "struct OperatorSet",
          "components": [
            {
              "name": "avs",
              "type": "address",
              "internalType": "address"
            },
            {
              "name": "id",
              "type": "uint32",
              "internalType": "uint32"
            }
          ]
        },
        {
          "name": "submissionNonce",
          "type": "uint256",
          "indexed": false,
          "internalType": "uint256"
        },
        {
          "name": "operatorDirectedRewardsSubmission",
          "type": "tuple",
          "indexed": false,
          "internalType": "struct IRewardsCoordinatorTypes.OperatorDirectedRewardsSubmission",
          "components": [
            {
              "name": "strategiesAndMultipliers",
              "type": "tuple[]",
              "internalType": "struct IRewardsCoordinatorTypes.StrategyAndMultiplier[]",
              "components": [
                {
                  "name": "strategy",
                  "type": "address",
                  "internalType": "contract IStrategy"
                },
                {
                  "name": "multiplier",
                  "type": "uint96",
                  "internalType": "uint96"
                }
              ]
            },
            {
              "name": "token",
              "type": "address",
              "internalType": "contract IERC20"
            },
            {
              "name": "operatorRewards",
              "type": "tuple[]",
              "internalType": "struct IRewardsCoordinatorTypes.OperatorReward[]",
              "components": [
                {
                  "name": "operator",
                  "type": "address",
                  "internalType": "address"
                },
                {
                  "name": "amount",
                  "type": "uint256",
                  "internalType": "uint256"
                }
              ]
            },
            {
              "name": "startTimestamp",
              "type": "uint32",
              "internalType": "uint32"
            },
            {
              "name": "duration",
              "type": "uint32",
              "internalType": "uint32"
            },
            {
              "name": "description",
              "type": "string",
              "internalType": "string"
            }
          ]
        }
      ],
      "anonymous": false
    },
    {
      "type": "event",
      "name": "OperatorPISplitBipsSet",
      "inputs": [
        {
          "name": "caller",
          "type": "address",
          "indexed": true,
          "internalType": "address"
        },
        {
          "name": "operator",
          "type": "address",
          "indexed": true,
          "internalType": "address"
        },
        {
          "name": "activatedAt",
          "type": "uint32",
          "indexed": false,
          "internalType": "uint32"
        },
        {
          "name": "oldOperatorPISplitBips",
          "type": "uint16",
          "indexed": false,
          "internalType": "uint16"
        },
        {
          "name": "newOperatorPISplitBips",
          "type": "uint16",
          "indexed": false,
          "internalType": "uint16"
        }
      ],
      "anonymous": false
    },
    {
      "type": "event",
      "name": "OperatorSetSplitBipsSet",
      "inputs": [
        {
          "name": "caller",
          "type": "address",
          "indexed": true,
          "internalType": "address"
        },
        {
          "name": "operator",
          "type": "address",
          "indexed": true,
          "internalType": "address"
        },
        {
          "name": "operatorSet",
          "type": "tuple",
          "indexed": false,
          "internalType": "struct OperatorSet",
          "components": [
            {
              "name": "avs",
              "type": "address",
              "internalType": "address"
            },
            {
              "name": "id",
              "type": "uint32",
              "internalType": "uint32"
            }
          ]
        },
        {
          "name": "activatedAt",
          "type": "uint32",
          "indexed": false,
          "internalType": "uint32"
        },
        {
          "name": "oldOperatorSetSplitBips",
          "type": "uint16",
          "indexed": false,
          "internalType": "uint16"
        },
        {
          "name": "newOperatorSetSplitBips",
          "type": "uint16",
          "indexed": false,
          "internalType": "uint16"
        }
      ],
      "anonymous": false
    },
    {
      "type": "event",
      "name": "OwnershipTransferred",
      "inputs": [
        {
          "name": "previousOwner",
          "type": "address",
          "indexed": true,
          "internalType": "address"
        },
        {
          "name": "newOwner",
          "type": "address",
          "indexed": true,
          "internalType": "address"
        }
      ],
      "anonymous": false
    },
    {
      "type": "event",
      "name": "Paused",
      "inputs": [
        {
          "name": "account",
          "type": "address",
          "indexed": true,
          "internalType": "address"
        },
        {
          "name": "newPausedStatus",
          "type": "uint256",
          "indexed": false,
          "internalType": "uint256"
        }
      ],
      "anonymous": false
    },
    {
      "type": "event",
      "name": "RewardsClaimed",
      "inputs": [
        {
          "name": "root",
          "type": "bytes32",
          "indexed": false,
          "internalType": "bytes32"
        },
        {
          "name": "earner",
          "type": "address",
          "indexed": true,
          "internalType": "address"
        },
        {
          "name": "claimer",
          "type": "address",
          "indexed": true,
          "internalType": "address"
        },
        {
          "name": "recipient",
          "type": "address",
          "indexed": true,
          "internalType": "address"
        },
        {
          "name": "token",
          "type": "address",
          "indexed": false,
          "internalType": "contract IERC20"
        },
        {
          "name": "claimedAmount",
          "type": "uint256",
          "indexed": false,
          "internalType": "uint256"
        }
      ],
      "anonymous": false
    },
    {
      "type": "event",
      "name": "RewardsForAllSubmitterSet",
      "inputs": [
        {
          "name": "rewardsForAllSubmitter",
          "type": "address",
          "indexed": true,
          "internalType": "address"
        },
        {
          "name": "oldValue",
          "type": "bool",
          "indexed": true,
          "internalType": "bool"
        },
        {
          "name": "newValue",
          "type": "bool",
          "indexed": true,
          "internalType": "bool"
        }
      ],
      "anonymous": false
    },
    {
      "type": "event",
      "name": "RewardsSubmissionForAllCreated",
      "inputs": [
        {
          "name": "submitter",
          "type": "address",
          "indexed": true,
          "internalType": "address"
        },
        {
          "name": "submissionNonce",
          "type": "uint256",
          "indexed": true,
          "internalType": "uint256"
        },
        {
          "name": "rewardsSubmissionHash",
          "type": "bytes32",
          "indexed": true,
          "internalType": "bytes32"
        },
        {
          "name": "rewardsSubmission",
          "type": "tuple",
          "indexed": false,
          "internalType": "struct IRewardsCoordinatorTypes.RewardsSubmission",
          "components": [
            {
              "name": "strategiesAndMultipliers",
              "type": "tuple[]",
              "internalType": "struct IRewardsCoordinatorTypes.StrategyAndMultiplier[]",
              "components": [
                {
                  "name": "strategy",
                  "type": "address",
                  "internalType": "contract IStrategy"
                },
                {
                  "name": "multiplier",
                  "type": "uint96",
                  "internalType": "uint96"
                }
              ]
            },
            {
              "name": "token",
              "type": "address",
              "internalType": "contract IERC20"
            },
            {
              "name": "amount",
              "type": "uint256",
              "internalType": "uint256"
            },
            {
              "name": "startTimestamp",
              "type": "uint32",
              "internalType": "uint32"
            },
            {
              "name": "duration",
              "type": "uint32",
              "internalType": "uint32"
            }
          ]
        }
      ],
      "anonymous": false
    },
    {
      "type": "event",
      "name": "RewardsSubmissionForAllEarnersCreated",
      "inputs": [
        {
          "name": "tokenHopper",
          "type": "address",
          "indexed": true,
          "internalType": "address"
        },
        {
          "name": "submissionNonce",
          "type": "uint256",
          "indexed": true,
          "internalType": "uint256"
        },
        {
          "name": "rewardsSubmissionHash",
          "type": "bytes32",
          "indexed": true,
          "internalType": "bytes32"
        },
        {
          "name": "rewardsSubmission",
          "type": "tuple",
          "indexed": false,
          "internalType": "struct IRewardsCoordinatorTypes.RewardsSubmission",
          "components": [
            {
              "name": "strategiesAndMultipliers",
              "type": "tuple[]",
              "internalType": "struct IRewardsCoordinatorTypes.StrategyAndMultiplier[]",
              "components": [
                {
                  "name": "strategy",
                  "type": "address",
                  "internalType": "contract IStrategy"
                },
                {
                  "name": "multiplier",
                  "type": "uint96",
                  "internalType": "uint96"
                }
              ]
            },
            {
              "name": "token",
              "type": "address",
              "internalType": "contract IERC20"
            },
            {
              "name": "amount",
              "type": "uint256",
              "internalType": "uint256"
            },
            {
              "name": "startTimestamp",
              "type": "uint32",
              "internalType": "uint32"
            },
            {
              "name": "duration",
              "type": "uint32",
              "internalType": "uint32"
            }
          ]
        }
      ],
      "anonymous": false
    },
    {
      "type": "event",
      "name": "RewardsUpdaterSet",
      "inputs": [
        {
          "name": "oldRewardsUpdater",
          "type": "address",
          "indexed": true,
          "internalType": "address"
        },
        {
          "name": "newRewardsUpdater",
          "type": "address",
          "indexed": true,
          "internalType": "address"
        }
      ],
      "anonymous": false
    },
    {
      "type": "event",
      "name": "Unpaused",
      "inputs": [
        {
          "name": "account",
          "type": "address",
          "indexed": true,
          "internalType": "address"
        },
        {
          "name": "newPausedStatus",
          "type": "uint256",
          "indexed": false,
          "internalType": "uint256"
        }
      ],
      "anonymous": false
    },
    {
      "type": "error",
      "name": "AmountExceedsMax",
      "inputs": []
    },
    {
      "type": "error",
      "name": "AmountIsZero",
      "inputs": []
    },
    {
      "type": "error",
      "name": "CurrentlyPaused",
      "inputs": []
    },
    {
      "type": "error",
      "name": "DurationExceedsMax",
      "inputs": []
    },
    {
      "type": "error",
      "name": "DurationIsZero",
      "inputs": []
    },
    {
      "type": "error",
      "name": "EarningsNotGreaterThanClaimed",
      "inputs": []
    },
    {
      "type": "error",
      "name": "EmptyRoot",
      "inputs": []
    },
    {
      "type": "error",
      "name": "InputAddressZero",
      "inputs": []
    },
    {
      "type": "error",
      "name": "InputArrayLengthMismatch",
      "inputs": []
    },
    {
      "type": "error",
      "name": "InputArrayLengthZero",
      "inputs": []
    },
    {
      "type": "error",
      "name": "InvalidAddressZero",
      "inputs": []
    },
    {
      "type": "error",
      "name": "InvalidCalculationIntervalSecondsRemainder",
      "inputs": []
    },
    {
      "type": "error",
      "name": "InvalidClaimProof",
      "inputs": []
    },
    {
      "type": "error",
      "name": "InvalidDurationRemainder",
      "inputs": []
    },
    {
      "type": "error",
      "name": "InvalidEarner",
      "inputs": []
    },
    {
      "type": "error",
      "name": "InvalidEarnerLeafIndex",
      "inputs": []
    },
    {
      "type": "error",
      "name": "InvalidGenesisRewardsTimestampRemainder",
      "inputs": []
    },
    {
      "type": "error",
      "name": "InvalidIndex",
      "inputs": []
    },
    {
      "type": "error",
      "name": "InvalidNewPausedStatus",
      "inputs": []
    },
    {
      "type": "error",
      "name": "InvalidOperatorSet",
      "inputs": []
    },
    {
      "type": "error",
      "name": "InvalidPermissions",
      "inputs": []
    },
    {
      "type": "error",
      "name": "InvalidProofLength",
      "inputs": []
    },
    {
      "type": "error",
      "name": "InvalidRoot",
      "inputs": []
    },
    {
      "type": "error",
      "name": "InvalidRootIndex",
      "inputs": []
    },
    {
      "type": "error",
      "name": "InvalidStartTimestampRemainder",
      "inputs": []
    },
    {
      "type": "error",
      "name": "InvalidTokenLeafIndex",
      "inputs": []
    },
    {
      "type": "error",
      "name": "NewRootMustBeForNewCalculatedPeriod",
      "inputs": []
    },
    {
      "type": "error",
      "name": "OnlyPauser",
      "inputs": []
    },
    {
      "type": "error",
      "name": "OnlyUnpauser",
      "inputs": []
    },
    {
      "type": "error",
      "name": "OperatorsNotInAscendingOrder",
      "inputs": []
    },
    {
      "type": "error",
      "name": "PreviousSplitPending",
      "inputs": []
    },
    {
      "type": "error",
      "name": "RewardsEndTimestampNotElapsed",
      "inputs": []
    },
    {
      "type": "error",
      "name": "RootAlreadyActivated",
      "inputs": []
    },
    {
      "type": "error",
      "name": "RootDisabled",
      "inputs": []
    },
    {
      "type": "error",
      "name": "RootNotActivated",
      "inputs": []
    },
    {
      "type": "error",
      "name": "SplitExceedsMax",
      "inputs": []
    },
    {
      "type": "error",
      "name": "StartTimestampTooFarInFuture",
      "inputs": []
    },
    {
      "type": "error",
      "name": "StartTimestampTooFarInPast",
      "inputs": []
    },
    {
      "type": "error",
      "name": "StrategiesNotInAscendingOrder",
      "inputs": []
    },
    {
      "type": "error",
      "name": "StrategyNotWhitelisted",
      "inputs": []
    },
    {
      "type": "error",
      "name": "SubmissionNotRetroactive",
      "inputs": []
    },
    {
      "type": "error",
      "name": "UnauthorizedCaller",
      "inputs": []
    }
  ],
  "bytecode": {
    "object": "0x6101c0604052348015610010575f5ffd5b506040516148fa3803806148fa83398101604081905261002f91610263565b608081015181516020830151604084015160a085015160c086015160e087015161010088015161012089015160608a01516001600160a01b038116610087576040516339b190bb60e11b815260040160405180910390fd5b6001600160a01b031660805261009d858261032d565b63ffffffff16156100c157604051630e06bd3160e01b815260040160405180910390fd5b6100ce620151808661032d565b63ffffffff16156100f25760405163223c7b3960e11b815260040160405180910390fd5b6001600160a01b0397881660a05295871660c05293861660e05263ffffffff9283166101005290821661012052811661014052908116610160521661018052166101a05261013e610144565b50610360565b5f54610100900460ff16156101af5760405162461bcd60e51b815260206004820152602760248201527f496e697469616c697a61626c653a20636f6e747261637420697320696e697469604482015266616c697a696e6760c81b606482015260840160405180910390fd5b5f5460ff908116146101fe575f805460ff191660ff9081179091556040519081527f7f26b83ff96e1f2b6a682f133852f6798a09c465da95921460cefb38474024989060200160405180910390a15b565b60405161014081016001600160401b038111828210171561022f57634e487b7160e01b5f52604160045260245ffd5b60405290565b80516001600160a01b038116811461024b575f5ffd5b919050565b805163ffffffff8116811461024b575f5ffd5b5f610140828403128015610275575f5ffd5b5061027e610200565b61028783610235565b815261029560208401610235565b60208201526102a660408401610235565b60408201526102b760608401610235565b60608201526102c860808401610235565b60808201526102d960a08401610250565b60a08201526102ea60c08401610250565b60c08201526102fb60e08401610250565b60e082015261030d6101008401610250565b6101008201526103206101208401610250565b6101208201529392505050565b5f63ffffffff83168061034e57634e487b7160e01b5f52601260045260245ffd5b8063ffffffff84160691505092915050565b60805160a05160c05160e05161010051610120516101405161016051610180516101a0516144c96104315f395f81816105e5015261311801525f818161049901526132fb01525f81816103e8015261281601525f818161054701526132b901525f818161085e01526131a301525f818161079f015281816131f3015261326701525f81816108b201528181610a9f01528181611b1e0152611d8e01525f818161056e015261339601525f81816109250152611a8e01525f8181610731015281816126bb015261302b01526144c95ff3fe608060405234801561000f575f5ffd5b50600436106103a8575f3560e01c80638da5cb5b116101ea578063de02e50311610114578063f6efbb59116100a9578063fabc1cbc11610079578063fabc1cbc14610a13578063fbf1e2c114610a26578063fce36c7d14610a39578063ff9f6cce14610a4c575f5ffd5b8063f6efbb59146109c7578063f74e8eac146109da578063f8cd8448146109ed578063f96abf2e14610a00575f5ffd5b8063ed71e6a2116100e4578063ed71e6a214610947578063f22cef8514610974578063f2f07ab414610987578063f2fde38b146109b4575f5ffd5b8063de02e503146108e7578063e063f81f146108fa578063e810ce211461090d578063ea4d3c9b14610920575f5ffd5b8063a50a1d9c1161018a578063bf21a8aa1161015a578063bf21a8aa14610859578063c46db60614610880578063ca8aa7c7146108ad578063dcbb03b3146108d4575f5ffd5b8063a50a1d9c146107e7578063aebd8bae146107fa578063b3dbb0e014610827578063bb7e451f1461083a575f5ffd5b80639cb9a5fa116101c55780639cb9a5fa146107875780639d45c2811461079a5780639de4b35f146107c1578063a0169ddd146107d4575f5ffd5b80638da5cb5b146107535780639104c319146107645780639be3d4e41461077f575f5ffd5b80634596021c116102d65780635e9d83481161026b5780637b8f8b051161023b5780637b8f8b05146106e7578063863cb9a9146106ef578063865c695314610702578063886f11951461072c575f5ffd5b80635e9d83481461068a57806363f6a7981461069d5780636d21117e146106b2578063715018a6146106df575f5ffd5b806358baaa3e116102a657806358baaa3e14610644578063595c6a67146106575780635ac86ab71461065f5780635c975abb14610682575f5ffd5b80634596021c146105cd5780634657e26a146105e05780634b943960146106075780634d18cc351461062d575f5ffd5b8063149bc8721161034c57806339b70e381161031c57806339b70e38146105695780633a8c0786146105905780633ccc861d146105a75780633efe1db6146105ba575f5ffd5b8063149bc872146104ce5780632b9f64a4146104ef57806336af41fa1461052f57806337838ed014610542575f5ffd5b80630e9a53cf116103875780630e9a53cf146104345780630eb3834514610481578063131433b414610494578063136439dd146104bb575f5ffd5b806218572c146103ac57806304a0c502146103e35780630ca298991461041f575b5f5ffd5b6103ce6103ba3660046138f6565b60d16020525f908152604090205460ff1681565b60405190151581526020015b60405180910390f35b61040a7f000000000000000000000000000000000000000000000000000000000000000081565b60405163ffffffff90911681526020016103da565b61043261042d36600461396e565b610a5f565b005b61043c610ce8565b6040516103da91905f6080820190508251825263ffffffff602084015116602083015263ffffffff604084015116604083015260608301511515606083015292915050565b61043261048f3660046139ca565b610de8565b61040a7f000000000000000000000000000000000000000000000000000000000000000081565b6104326104c9366004613a01565b610e68565b6104e16104dc366004613a18565b610ea2565b6040519081526020016103da565b6105176104fd3660046138f6565b60cc6020525f90815260409020546001600160a01b031681565b6040516001600160a01b0390911681526020016103da565b61043261053d366004613a32565b610f17565b61040a7f000000000000000000000000000000000000000000000000000000000000000081565b6105177f000000000000000000000000000000000000000000000000000000000000000081565b60cb5461040a90600160a01b900463ffffffff1681565b6104326105b5366004613a81565b611088565b6104326105c8366004613ad7565b6110af565b6104326105db366004613b01565b611285565b6105177f000000000000000000000000000000000000000000000000000000000000000081565b61061a6106153660046138f6565b6112e8565b60405161ffff90911681526020016103da565b60cb5461040a90600160c01b900463ffffffff1681565b610432610652366004613b53565b611343565b610432611357565b6103ce61066d366004613b6c565b606654600160ff9092169190911b9081161490565b6066546104e1565b6103ce610698366004613b8c565b61136b565b60cb5461061a90600160e01b900461ffff1681565b6103ce6106c0366004613bbd565b60cf60209081525f928352604080842090915290825290205460ff1681565b6104326113f6565b60ca546104e1565b6104326106fd3660046138f6565b611407565b6104e1610710366004613be7565b60cd60209081525f928352604080842090915290825290205481565b6105177f000000000000000000000000000000000000000000000000000000000000000081565b6033546001600160a01b0316610517565b61051773beac0eeeeeeeeeeeeeeeeeeeeeeeeeeeeeebeac081565b61043c611418565b610432610795366004613c13565b6114b4565b61040a7f000000000000000000000000000000000000000000000000000000000000000081565b61061a6107cf366004613c4a565b611612565b6104326107e23660046138f6565b611695565b6104326107f5366004613c86565b6116a0565b6103ce610808366004613bbd565b60d260209081525f928352604080842090915290825290205460ff1681565b610432610835366004613c9f565b6116b1565b6104e16108483660046138f6565b60ce6020525f908152604090205481565b61040a7f000000000000000000000000000000000000000000000000000000000000000081565b6103ce61088e366004613bbd565b60d060209081525f928352604080842090915290825290205460ff1681565b6105177f000000000000000000000000000000000000000000000000000000000000000081565b6104326108e2366004613cc9565b6117bf565b61043c6108f5366004613a01565b6118ef565b61061a610908366004613be7565b61197f565b61040a61091b366004613a01565b6119e4565b6105177f000000000000000000000000000000000000000000000000000000000000000081565b6103ce610955366004613bbd565b60d360209081525f928352604080842090915290825290205460ff1681565b610432610982366004613be7565b611a65565b6103ce610995366004613bbd565b60d760209081525f928352604080842090915290825290205460ff1681565b6104326109c23660046138f6565b611bb2565b6104326109d5366004613d0d565b611c2d565b6104326109e8366004613d6b565b611d62565b6104e16109fb366004613a18565b611f0c565b610432610a0e366004613b53565b611f1c565b610432610a21366004613a01565b61204d565b60cb54610517906001600160a01b031681565b610432610a47366004613a32565b6120ba565b610432610a5a366004613a32565b6121eb565b6009610a6a8161234c565b610a7760208501856138f6565b610a8081612377565b610a8861239d565b6040516304c1b8eb60e31b81526001600160a01b037f0000000000000000000000000000000000000000000000000000000000000000169063260dc75890610ad4908890600401613dd6565b602060405180830381865afa158015610aef573d5f5f3e3d5ffd5b505050506040513d601f19601f82011682018060405250810190610b139190613de4565b610b3057604051631fb1705560e21b815260040160405180910390fd5b5f5b83811015610cd65736858583818110610b4d57610b4d613dff565b9050602002810190610b5f9190613e13565b90505f60ce81610b7260208b018b6138f6565b6001600160a01b031681526020808201929092526040015f90812054925090610b9d908a018a6138f6565b8284604051602001610bb19392919061403b565b6040516020818303038152906040528051906020012090505f610bd3846123f6565b9050600160d75f610be760208e018e6138f6565b6001600160a01b0316815260208082019290925260409081015f9081208682529092529020805460ff1916911515919091179055610c2683600161407e565b60ce5f610c3660208e018e6138f6565b6001600160a01b03166001600160a01b031681526020019081526020015f208190555081336001600160a01b03167ffff0759ccb371dfb5691798724e70b4fa61cb3bfe730a33ac19fb86a48efc7568c8688604051610c9793929190614091565b60405180910390a3610cc6333083610cb56040890160208a016138f6565b6001600160a01b03169291906125e1565b505060019092019150610b329050565b50610ce16001609755565b5050505050565b604080516080810182525f80825260208201819052918101829052606081019190915260ca545b8015610dc0575f60ca610d236001846140b6565b81548110610d3357610d33613dff565b5f91825260209182902060408051608081018252600293909302909101805483526001015463ffffffff80821694840194909452600160201b810490931690820152600160401b90910460ff161580156060830181905291925090610da25750806040015163ffffffff164210155b15610dad5792915050565b5080610db8816140c9565b915050610d0f565b5050604080516080810182525f80825260208201819052918101829052606081019190915290565b610df061264c565b6001600160a01b0382165f81815260d1602052604080822054905160ff9091169284151592841515927f4de6293e668df1398422e1def12118052c1539a03cbfedc145895d48d7685f1c9190a4506001600160a01b03919091165f90815260d160205260409020805460ff1916911515919091179055565b610e706126a6565b6066548181168114610e955760405163c61dca5d60e01b815260040160405180910390fd5b610e9e82612749565b5050565b5f80610eb160208401846138f6565b8360200135604051602001610efa9392919060f89390931b6001600160f81b031916835260609190911b6bffffffffffffffffffffffff19166001830152601582015260350190565b604051602081830303815290604052805190602001209050919050565b6001610f228161234c565b335f90815260d1602052604090205460ff16610f5157604051635c427cd960e01b815260040160405180910390fd5b610f5961239d565b5f5b828110156110785736848483818110610f7657610f76613dff565b9050602002810190610f8891906140de565b335f81815260ce60209081526040808320549051949550939192610fb29290918591879101614170565b604051602081830303815290604052805190602001209050610fd383612786565b335f90815260d0602090815260408083208484529091529020805460ff1916600190811790915561100590839061407e565b335f81815260ce602052604090819020929092559051829184917f51088b8c89628df3a8174002c2a034d0152fce6af8415d651b2a4734bf2704829061104c908890614196565b60405180910390a461106d333060408601803590610cb590602089016138f6565b505050600101610f5b565b506110836001609755565b505050565b60026110938161234c565b61109b61239d565b6110a58383612871565b6110836001609755565b60036110ba8161234c565b60cb546001600160a01b031633146110e557604051635c427cd960e01b815260040160405180910390fd5b60cb5463ffffffff600160c01b90910481169083161161111857604051631ca7e50b60e21b815260040160405180910390fd5b428263ffffffff161061113e576040516306957c9160e11b815260040160405180910390fd5b60ca5460cb545f9061115d90600160a01b900463ffffffff16426141a8565b6040805160808101825287815263ffffffff87811660208084018281528684168587018181525f6060880181815260ca8054600181018255925297517f42d72674974f694b5f5159593243114d38a5c39c89d6b62fee061ff523240ee160029092029182015592517f42d72674974f694b5f5159593243114d38a5c39c89d6b62fee061ff523240ee290930180549151975193871667ffffffffffffffff1990921691909117600160201b978716979097029690961760ff60401b1916600160401b921515929092029190911790945560cb805463ffffffff60c01b1916600160c01b840217905593519283529394508892908616917fecd866c3c158fa00bf34d803d5f6023000b57080bcb48af004c2b4b46b3afd08910160405180910390a45050505050565b60026112908161234c565b61129861239d565b5f5b838110156112d7576112cf8585838181106112b7576112b7613dff565b90506020028101906112c991906141c4565b84612871565b60010161129a565b506112e26001609755565b50505050565b6001600160a01b0381165f90815260d5602090815260408083208151606081018352905461ffff80821683526201000082041693820193909352600160201b90920463ffffffff169082015261133d90612af9565b92915050565b61134b61264c565b61135481612b69565b50565b61135f6126a6565b6113695f19612749565b565b5f6113ee8260ca61137f6020830183613b53565b63ffffffff168154811061139557611395613dff565b5f91825260209182902060408051608081018252600293909302909101805483526001015463ffffffff80821694840194909452600160201b810490931690820152600160401b90910460ff1615156060820152612bda565b506001919050565b6113fe61264c565b6113695f612d7d565b61140f61264c565b61135481612dce565b604080516080810182525f80825260208201819052918101829052606081019190915260ca805461144b906001906140b6565b8154811061145b5761145b613dff565b5f91825260209182902060408051608081018252600293909302909101805483526001015463ffffffff80821694840194909452600160201b810490931690820152600160401b90910460ff1615156060820152919050565b60056114bf8161234c565b836114c981612377565b6114d161239d565b5f5b83811015610cd657368585838181106114ee576114ee613dff565b90506020028101906115009190613e13565b6001600160a01b0388165f90815260ce6020908152604080832054905193945092611531918b91859187910161403b565b6040516020818303038152906040528051906020012090505f611553846123f6565b6001600160a01b038b165f90815260d3602090815260408083208684529091529020805460ff1916600190811790915590915061159190849061407e565b6001600160a01b038b165f81815260ce60205260409081902092909255905183919033907ffc8888bffd711da60bc5092b33f677d81896fe80ecc677b84cfab8184462b6e0906115e49088908a906141d8565b60405180910390a4611602333083610cb56040890160208a016138f6565b5050600190920191506114d39050565b6001600160a01b0382165f90815260d66020526040812061168e9082611645611640368790038701876141f0565b612e29565b815260208082019290925260409081015f208151606081018352905461ffff80821683526201000082041693820193909352600160201b90920463ffffffff1690820152612af9565b9392505050565b33610e9e8183612e8c565b6116a861264c565b61135481612eef565b60076116bc8161234c565b826116c681612377565b60cb545f906116e290600160a01b900463ffffffff16426141a8565b6001600160a01b0386165f90815260d5602090815260408083208151606081018352905461ffff80821683526201000082041693820193909352600160201b90920463ffffffff16908201529192509061173b90612af9565b6001600160a01b0387165f90815260d560205260409020909150611760908684612f5a565b6040805163ffffffff8416815261ffff838116602083015287168183015290516001600160a01b0388169133917fd1e028bd664486a46ad26040e999cd2d22e1e9a094ee6afe19fcf64678f16f749181900360600190a3505050505050565b60066117ca8161234c565b836117d481612377565b60cb545f906117f090600160a01b900463ffffffff16426141a8565b6001600160a01b038781165f90815260d460209081526040808320938a1683529281528282208351606081018552905461ffff80821683526201000082041692820192909252600160201b90910463ffffffff169281019290925291925061185790612af9565b6001600160a01b038089165f90815260d460209081526040808320938b16835292905220909150611889908684612f5a565b6040805163ffffffff8416815261ffff838116602083015287168183015290516001600160a01b0388811692908a169133917f48e198b6ae357e529204ee53a8e514c470ff77d9cc8e4f7207f8b5d490ae6934919081900360600190a450505050505050565b604080516080810182525f80825260208201819052918101829052606081019190915260ca828154811061192557611925613dff565b5f91825260209182902060408051608081018252600293909302909101805483526001015463ffffffff80821694840194909452600160201b810490931690820152600160401b90910460ff161515606082015292915050565b6001600160a01b038281165f90815260d46020908152604080832093851683529281528282208351606081018552905461ffff80821683526201000082041692820192909252600160201b90910463ffffffff16928101929092529061168e90612af9565b60ca545f905b63ffffffff811615611a4b578260ca611a04600184614258565b63ffffffff1681548110611a1a57611a1a613dff565b905f5260205f2090600202015f015403611a395761168e600182614258565b80611a4381614274565b9150506119ea565b5060405163504570e360e01b815260040160405180910390fd5b81611a6f81612377565b6040516336b87bd760e11b81526001600160a01b0384811660048301527f00000000000000000000000000000000000000000000000000000000000000001690636d70f7ae90602401602060405180830381865afa158015611ad3573d5f5f3e3d5ffd5b505050506040513d601f19601f82011682018060405250810190611af79190613de4565b80611b8b575060405163ba1a84e560e01b81526001600160a01b0384811660048301525f917f00000000000000000000000000000000000000000000000000000000000000009091169063ba1a84e590602401602060405180830381865afa158015611b65573d5f5f3e3d5ffd5b505050506040513d601f19601f82011682018060405250810190611b899190614292565b115b611ba85760405163fb494ea160e01b815260040160405180910390fd5b6110838383612e8c565b611bba61264c565b6001600160a01b038116611c245760405162461bcd60e51b815260206004820152602660248201527f4f776e61626c653a206e6577206f776e657220697320746865207a65726f206160448201526564647265737360d01b60648201526084015b60405180910390fd5b61135481612d7d565b5f54610100900460ff1615808015611c4b57505f54600160ff909116105b80611c645750303b158015611c6457505f5460ff166001145b611cc75760405162461bcd60e51b815260206004820152602e60248201527f496e697469616c697a61626c653a20636f6e747261637420697320616c72656160448201526d191e481a5b9a5d1a585b1a5e995960921b6064820152608401611c1b565b5f805460ff191660011790558015611ce8575f805461ff0019166101001790555b611cf185612749565b611cfa86612d7d565b611d0384612dce565b611d0c83612b69565b611d1582612eef565b8015611d5a575f805461ff0019169055604051600181527f7f26b83ff96e1f2b6a682f133852f6798a09c465da95921460cefb38474024989060200160405180910390a15b505050505050565b6008611d6d8161234c565b83611d7781612377565b6040516304c1b8eb60e31b81526001600160a01b037f0000000000000000000000000000000000000000000000000000000000000000169063260dc75890611dc3908790600401613dd6565b602060405180830381865afa158015611dde573d5f5f3e3d5ffd5b505050506040513d601f19601f82011682018060405250810190611e029190613de4565b611e1f57604051631fb1705560e21b815260040160405180910390fd5b60cb545f90611e3b90600160a01b900463ffffffff16426141a8565b6001600160a01b0387165f90815260d66020526040812091925090611e6d9082611645611640368b90038b018b6141f0565b6001600160a01b0388165f90815260d660205260408120919250611eb29190611e9e611640368b90038b018b6141f0565b81526020019081526020015f208684612f5a565b866001600160a01b0316336001600160a01b03167f14918b3834ab6752eb2e1b489b6663a67810efb5f56f3944a97ede8ecf1fd9f18885858a604051611efb94939291906142a9565b60405180910390a350505050505050565b5f6001610eb160208401846138f6565b6003611f278161234c565b60cb546001600160a01b03163314611f5257604051635c427cd960e01b815260040160405180910390fd5b60ca5463ffffffff831610611f7a576040516394a8d38960e01b815260040160405180910390fd5b5f60ca8363ffffffff1681548110611f9457611f94613dff565b905f5260205f20906002020190508060010160089054906101000a900460ff1615611fd257604051631b14174b60e01b815260040160405180910390fd5b6001810154600160201b900463ffffffff16421061200357604051630c36f66560e21b815260040160405180910390fd5b60018101805460ff60401b1916600160401b17905560405163ffffffff8416907fd850e6e5dfa497b72661fa73df2923464eaed9dc2ff1d3cb82bccbfeabe5c41e905f90a2505050565b612055613029565b6066548019821981161461207c5760405163c61dca5d60e01b815260040160405180910390fd5b606682905560405182815233907f3582d1828e26bf56bd801502bc021ac0bc8afb57c826e4986b45593c8fad389c9060200160405180910390a25050565b5f6120c48161234c565b6120cc61239d565b5f5b8281101561107857368484838181106120e9576120e9613dff565b90506020028101906120fb91906140de565b335f81815260ce602090815260408083205490519495509391926121259290918591879101614170565b60405160208183030381529060405280519060200120905061214683612786565b335f90815260cf602090815260408083208484529091529020805460ff1916600190811790915561217890839061407e565b335f81815260ce602052604090819020929092559051829184917f450a367a380c4e339e5ae7340c8464ef27af7781ad9945cfe8abd828f89e6281906121bf908890614196565b60405180910390a46121e0333060408601803590610cb590602089016138f6565b5050506001016120ce565b60046121f68161234c565b335f90815260d1602052604090205460ff1661222557604051635c427cd960e01b815260040160405180910390fd5b61222d61239d565b5f5b82811015611078573684848381811061224a5761224a613dff565b905060200281019061225c91906140de565b335f81815260ce602090815260408083205490519495509391926122869290918591879101614170565b6040516020818303038152906040528051906020012090506122a783612786565b335f90815260d2602090815260408083208484529091529020805460ff191660019081179091556122d990839061407e565b335f81815260ce602052604090819020929092559051829184917f5251b6fdefcb5d81144e735f69ea4c695fd43b0289ca53dc075033f5fc80068b90612320908890614196565b60405180910390a4612341333060408601803590610cb590602089016138f6565b50505060010161222f565b606654600160ff83161b908116036113545760405163840a48d560e01b815260040160405180910390fd5b612380816130da565b6113545760405163932d94f760e01b815260040160405180910390fd5b6002609754036123ef5760405162461bcd60e51b815260206004820152601f60248201527f5265656e7472616e637947756172643a207265656e7472616e742063616c6c006044820152606401611c1b565b6002609755565b5f61242961240483806142dd565b6124146080860160608701613b53565b61242460a0870160808801613b53565b613183565b5f61243760408401846142dd565b9050116124575760405163796cc52560e01b815260040160405180910390fd5b4261246860a0840160808501613b53565b6124786080850160608601613b53565b61248291906141a8565b63ffffffff16106124a65760405163150358a160e21b815260040160405180910390fd5b5f80805b6124b760408601866142dd565b90508110156125a857366124ce60408701876142dd565b838181106124de576124de613dff565b6040029190910191505f90506124f760208301836138f6565b6001600160a01b03160361251e57604051630863a45360e11b815260040160405180910390fd5b61252b60208201826138f6565b6001600160a01b0316836001600160a01b03161061255c576040516310fb47f160e31b815260040160405180910390fd5b5f816020013511612580576040516310eb483f60e21b815260040160405180910390fd5b61258d60208201826138f6565b925061259d60208201358561407e565b9350506001016124aa565b506f4b3b4ca85a86c47a098a223fffffffff8211156125da5760405163070b5a6f60e21b815260040160405180910390fd5b5092915050565b6040516001600160a01b03808516602483015283166044820152606481018290526112e29085906323b872dd60e01b906084015b60408051601f198184030181529190526020810180516001600160e01b03166001600160e01b031990931692909217909152613481565b6033546001600160a01b031633146113695760405162461bcd60e51b815260206004820181905260248201527f4f776e61626c653a2063616c6c6572206973206e6f7420746865206f776e65726044820152606401611c1b565b60405163237dfb4760e11b81523360048201527f00000000000000000000000000000000000000000000000000000000000000006001600160a01b0316906346fbf68e90602401602060405180830381865afa158015612708573d5f5f3e3d5ffd5b505050506040513d601f19601f8201168201806040525081019061272c9190613de4565b61136957604051631d77d47760e21b815260040160405180910390fd5b606681905560405181815233907fab40a374bc51de372200a8bc981af8c9ecdc08dfdaef0bb6e09f88f3c616ef3d9060200160405180910390a250565b6127b361279382806142dd565b6127a36080850160608601613b53565b61242460a0860160808701613b53565b5f8160400135116127d7576040516310eb483f60e21b815260040160405180910390fd5b6f4b3b4ca85a86c47a098a223fffffffff8160400135111561280c5760405163070b5a6f60e21b815260040160405180910390fd5b61283c63ffffffff7f0000000000000000000000000000000000000000000000000000000000000000164261407e565b61284c6080830160608401613b53565b63ffffffff16111561135457604051637ee2b44360e01b815260040160405180910390fd5b5f60ca6128816020850185613b53565b63ffffffff168154811061289757612897613dff565b5f91825260209182902060408051608081018252600293909302909101805483526001015463ffffffff80821694840194909452600160201b810490931690820152600160401b90910460ff161515606082015290506128f78382612bda565b5f61290860808501606086016138f6565b6001600160a01b038082165f90815260cc6020526040902054919250168061292d5750805b336001600160a01b0382161461295657604051635c427cd960e01b815260040160405180910390fd5b5f5b61296560a0870187614322565b9050811015611d5a573661297c60e08801886142dd565b8381811061298c5761298c613dff565b6001600160a01b0387165f90815260cd6020908152604080832093029490940194509290915082906129c0908501856138f6565b6001600160a01b03166001600160a01b031681526020019081526020015f2054905080826020013511612a065760405163aa385e8160e01b815260040160405180910390fd5b5f612a158260208501356140b6565b6001600160a01b0387165f90815260cd60209081526040822092935085018035929190612a4290876138f6565b6001600160a01b031681526020808201929092526040015f2091909155612a839089908390612a73908701876138f6565b6001600160a01b03169190613554565b86516001600160a01b03808a1691878216918916907f9543dbd55580842586a951f0386e24d68a5df99ae29e3b216588b45fd684ce3190612ac760208901896138f6565b604080519283526001600160a01b039091166020830152810186905260600160405180910390a4505050600101612958565b5f816040015163ffffffff165f1480612b2b5750815161ffff908116148015612b2b5750816040015163ffffffff1642105b15612b4357505060cb54600160e01b900461ffff1690565b816040015163ffffffff16421015612b5c57815161133d565b506020015190565b919050565b60cb546040805163ffffffff600160a01b9093048316815291831660208301527faf557c6c02c208794817a705609cfa935f827312a1adfdd26494b6b95dd2b4b3910160405180910390a160cb805463ffffffff909216600160a01b0263ffffffff60a01b19909216919091179055565b806060015115612bfd57604051631b14174b60e01b815260040160405180910390fd5b806040015163ffffffff16421015612c2857604051631437a2bb60e31b815260040160405180910390fd5b612c3560c0830183614322565b9050612c4460a0840184614322565b905014612c64576040516343714afd60e01b815260040160405180910390fd5b612c7160e08301836142dd565b9050612c8060c0840184614322565b905014612ca0576040516343714afd60e01b815260040160405180910390fd5b8051612ccc90612cb66040850160208601613b53565b612cc36040860186614367565b86606001613584565b5f5b612cdb60a0840184614322565b905081101561108357612d756080840135612cf960a0860186614322565b84818110612d0957612d09613dff565b9050602002016020810190612d1e9190613b53565b612d2b60c0870187614322565b85818110612d3b57612d3b613dff565b9050602002810190612d4d9190614367565b612d5a60e08901896142dd565b87818110612d6a57612d6a613dff565b905060400201613628565b600101612cce565b603380546001600160a01b038381166001600160a01b0319831681179093556040519116919082907f8be0079c531659141344cd1fd0a4f28419497f9722a3daafe3b4186f6b6457e0905f90a35050565b60cb546040516001600160a01b038084169216907f237b82f438d75fc568ebab484b75b01d9287b9e98b490b7c23221623b6705dbb905f90a360cb80546001600160a01b0319166001600160a01b0392909216919091179055565b5f815f0151826020015163ffffffff16604051602001612e7492919060609290921b6bffffffffffffffffffffffff1916825260a01b6001600160a01b031916601482015260200190565b60405160208183030381529060405261133d906143a9565b6001600160a01b038083165f81815260cc602052604080822080548686166001600160a01b0319821681179092559151919094169392849290917fbab947934d42e0ad206f25c9cab18b5bb6ae144acfb00f40b4e3aa59590ca3129190a4505050565b60cb546040805161ffff600160e01b9093048316815291831660208301527fe6cd4edfdcc1f6d130ab35f73d72378f3a642944fb4ee5bd84b7807a81ea1c4e910160405180910390a160cb805461ffff909216600160e01b0261ffff60e01b19909216919091179055565b61271061ffff83161115612f815760405163891c63df60e01b815260040160405180910390fd5b8254600160201b900463ffffffff164211612faf57604051637b1e25c560e01b815260040160405180910390fd5b8254600160201b900463ffffffff165f03612fd657825461ffff191661ffff178355612fed565b825462010000810461ffff1661ffff199091161783555b825463ffffffff909116600160201b0267ffffffff000000001961ffff90931662010000029290921667ffffffffffff00001990911617179055565b7f00000000000000000000000000000000000000000000000000000000000000006001600160a01b031663eab66d7a6040518163ffffffff1660e01b8152600401602060405180830381865afa158015613085573d5f5f3e3d5ffd5b505050506040513d601f19601f820116820180604052508101906130a991906143cc565b6001600160a01b0316336001600160a01b0316146113695760405163794821ff60e01b815260040160405180910390fd5b604051631beb2b9760e31b81526001600160a01b0382811660048301523360248301523060448301525f80356001600160e01b0319166064840152917f00000000000000000000000000000000000000000000000000000000000000009091169063df595cb890608401602060405180830381865afa15801561315f573d5f5f3e3d5ffd5b505050506040513d601f19601f8201168201806040525081019061133d9190613de4565b826131a15760405163796cc52560e01b815260040160405180910390fd5b7f000000000000000000000000000000000000000000000000000000000000000063ffffffff168163ffffffff1611156131ee57604051630dd0b9f560e21b815260040160405180910390fd5b6132187f0000000000000000000000000000000000000000000000000000000000000000826143fb565b63ffffffff161561323c5760405163ee66470560e01b815260040160405180910390fd5b5f8163ffffffff16116132625760405163cb3f434d60e01b815260040160405180910390fd5b61328c7f0000000000000000000000000000000000000000000000000000000000000000836143fb565b63ffffffff16156132b057604051633c1a94f160e21b815260040160405180910390fd5b8163ffffffff167f000000000000000000000000000000000000000000000000000000000000000063ffffffff16426132e991906140b6565b1115801561332357508163ffffffff167f000000000000000000000000000000000000000000000000000000000000000063ffffffff1611155b6133405760405163041aa75760e11b815260040160405180910390fd5b5f805b84811015611d5a575f86868381811061335e5761335e613dff565b61337492602060409092020190810191506138f6565b60405163198f077960e21b81526001600160a01b0380831660048301529192507f00000000000000000000000000000000000000000000000000000000000000009091169063663c1de490602401602060405180830381865afa1580156133dd573d5f5f3e3d5ffd5b505050506040513d601f19601f820116820180604052508101906134019190613de4565b8061342857506001600160a01b03811673beac0eeeeeeeeeeeeeeeeeeeeeeeeeeeeeebeac0145b61344557604051632efd965160e11b815260040160405180910390fd5b806001600160a01b0316836001600160a01b0316106134775760405163dfad9ca160e01b815260040160405180910390fd5b9150600101613343565b5f6134d5826040518060400160405280602081526020017f5361666545524332303a206c6f772d6c6576656c2063616c6c206661696c6564815250856001600160a01b03166136669092919063ffffffff16565b905080515f14806134f55750808060200190518101906134f59190613de4565b6110835760405162461bcd60e51b815260206004820152602a60248201527f5361666545524332303a204552433230206f7065726174696f6e20646964206e6044820152691bdd081cdd58d8d9595960b21b6064820152608401611c1b565b6040516001600160a01b03831660248201526044810182905261108390849063a9059cbb60e01b90606401612615565b61358f602083614422565b6001901b8463ffffffff16106135b75760405162c6c39d60e71b815260040160405180910390fd5b5f6135c182610ea2565b905061360b84848080601f0160208091040260200160405190810160405280939291908181526020018383808284375f920191909152508a92508591505063ffffffff891661367c565b611d5a576040516369ca16c960e01b815260040160405180910390fd5b613633602083614422565b6001901b8463ffffffff161061365c5760405163054ff4df60e51b815260040160405180910390fd5b5f6135c182611f0c565b606061367484845f856136b1565b949350505050565b5f8361369b576040516329e7276760e11b815260040160405180910390fd5b836136a7868585613788565b1495945050505050565b6060824710156137125760405162461bcd60e51b815260206004820152602660248201527f416464726573733a20696e73756666696369656e742062616c616e636520666f6044820152651c8818d85b1b60d21b6064820152608401611c1b565b5f5f866001600160a01b0316858760405161372d9190614435565b5f6040518083038185875af1925050503d805f8114613767576040519150601f19603f3d011682016040523d82523d5f602084013e61376c565b606091505b509150915061377d87838387613845565b979650505050505050565b5f83515f0361379857508161168e565b602084516137a6919061444b565b156137c4576040516313717da960e21b815260040160405180910390fd5b8260205b85518111613825576137db60028561444b565b5f036137fc57815f528086015160205260405f209150600284049350613813565b808601515f528160205260405f2091506002840493505b61381e60208261407e565b90506137c8565b508215613674576040516363df817160e01b815260040160405180910390fd5b606083156138b35782515f036138ac576001600160a01b0385163b6138ac5760405162461bcd60e51b815260206004820152601d60248201527f416464726573733a2063616c6c20746f206e6f6e2d636f6e74726163740000006044820152606401611c1b565b5081613674565b61367483838151156138c85781518083602001fd5b8060405162461bcd60e51b8152600401611c1b919061445e565b6001600160a01b0381168114611354575f5ffd5b5f60208284031215613906575f5ffd5b813561168e816138e2565b5f60408284031215613921575f5ffd5b50919050565b5f5f83601f840112613937575f5ffd5b5081356001600160401b0381111561394d575f5ffd5b6020830191508360208260051b8501011115613967575f5ffd5b9250929050565b5f5f5f60608486031215613980575f5ffd5b61398a8585613911565b925060408401356001600160401b038111156139a4575f5ffd5b6139b086828701613927565b9497909650939450505050565b8015158114611354575f5ffd5b5f5f604083850312156139db575f5ffd5b82356139e6816138e2565b915060208301356139f6816139bd565b809150509250929050565b5f60208284031215613a11575f5ffd5b5035919050565b5f60408284031215613a28575f5ffd5b61168e8383613911565b5f5f60208385031215613a43575f5ffd5b82356001600160401b03811115613a58575f5ffd5b613a6485828601613927565b90969095509350505050565b5f6101008284031215613921575f5ffd5b5f5f60408385031215613a92575f5ffd5b82356001600160401b03811115613aa7575f5ffd5b613ab385828601613a70565b92505060208301356139f6816138e2565b803563ffffffff81168114612b64575f5ffd5b5f5f60408385031215613ae8575f5ffd5b82359150613af860208401613ac4565b90509250929050565b5f5f5f60408486031215613b13575f5ffd5b83356001600160401b03811115613b28575f5ffd5b613b3486828701613927565b9094509250506020840135613b48816138e2565b809150509250925092565b5f60208284031215613b63575f5ffd5b61168e82613ac4565b5f60208284031215613b7c575f5ffd5b813560ff8116811461168e575f5ffd5b5f60208284031215613b9c575f5ffd5b81356001600160401b03811115613bb1575f5ffd5b61367484828501613a70565b5f5f60408385031215613bce575f5ffd5b8235613bd9816138e2565b946020939093013593505050565b5f5f60408385031215613bf8575f5ffd5b8235613c03816138e2565b915060208301356139f6816138e2565b5f5f5f60408486031215613c25575f5ffd5b8335613c30816138e2565b925060208401356001600160401b038111156139a4575f5ffd5b5f5f60608385031215613c5b575f5ffd5b8235613c66816138e2565b9150613af88460208501613911565b803561ffff81168114612b64575f5ffd5b5f60208284031215613c96575f5ffd5b61168e82613c75565b5f5f60408385031215613cb0575f5ffd5b8235613cbb816138e2565b9150613af860208401613c75565b5f5f5f60608486031215613cdb575f5ffd5b8335613ce6816138e2565b92506020840135613cf6816138e2565b9150613d0460408501613c75565b90509250925092565b5f5f5f5f5f60a08688031215613d21575f5ffd5b8535613d2c816138e2565b9450602086013593506040860135613d43816138e2565b9250613d5160608701613ac4565b9150613d5f60808701613c75565b90509295509295909350565b5f5f5f60808486031215613d7d575f5ffd5b8335613d88816138e2565b9250613d978560208601613911565b9150613d0460608501613c75565b8035613db0816138e2565b6001600160a01b0316825263ffffffff613dcc60208301613ac4565b1660208301525050565b6040810161133d8284613da5565b5f60208284031215613df4575f5ffd5b815161168e816139bd565b634e487b7160e01b5f52603260045260245ffd5b5f823560be19833603018112613e27575f5ffd5b9190910192915050565b5f5f8335601e19843603018112613e46575f5ffd5b83016020810192503590506001600160401b03811115613e64575f5ffd5b8060061b3603821315613967575f5ffd5b8183526020830192505f815f5b84811015613ed8578135613e95816138e2565b6001600160a01b0316865260208201356bffffffffffffffffffffffff8116808214613ebf575f5ffd5b6020880152506040958601959190910190600101613e82565b5093949350505050565b5f5f8335601e19843603018112613ef7575f5ffd5b83016020810192503590506001600160401b03811115613f15575f5ffd5b803603821315613967575f5ffd5b81835281816020850137505f828201602090810191909152601f909101601f19169091010190565b5f613f568283613e31565b60c08552613f6860c086018284613e75565b9150506020830135613f79816138e2565b6001600160a01b03166020850152613f946040840184613e31565b858303604087015280835290915f91906020015b81831015613fe3578335613fbb816138e2565b6001600160a01b03168152602084810135908201526040938401936001939093019201613fa8565b613fef60608701613ac4565b63ffffffff81166060890152935061400960808701613ac4565b63ffffffff81166080890152935061402460a0870187613ee2565b9450925086810360a088015261377d818585613f23565b60018060a01b0384168152826020820152606060408201525f6140616060830184613f4b565b95945050505050565b634e487b7160e01b5f52601160045260245ffd5b8082018082111561133d5761133d61406a565b61409b8185613da5565b826040820152608060608201525f6140616080830184613f4b565b8181038181111561133d5761133d61406a565b5f816140d7576140d761406a565b505f190190565b5f8235609e19833603018112613e27575f5ffd5b5f6140fd8283613e31565b60a0855261410f60a086018284613e75565b9150506020830135614120816138e2565b6001600160a01b031660208501526040838101359085015263ffffffff61414960608501613ac4565b16606085015263ffffffff61416060808501613ac4565b1660808501528091505092915050565b60018060a01b0384168152826020820152606060408201525f61406160608301846140f2565b602081525f61168e60208301846140f2565b63ffffffff818116838216019081111561133d5761133d61406a565b5f823560fe19833603018112613e27575f5ffd5b828152604060208201525f6136746040830184613f4b565b5f6040828403128015614201575f5ffd5b50604080519081016001600160401b038111828210171561423057634e487b7160e01b5f52604160045260245ffd5b604052823561423e816138e2565b815261424c60208401613ac4565b60208201529392505050565b63ffffffff828116828216039081111561133d5761133d61406a565b5f63ffffffff8216806142895761428961406a565b5f190192915050565b5f602082840312156142a2575f5ffd5b5051919050565b60a081016142b78287613da5565b63ffffffff94909416604082015261ffff92831660608201529116608090910152919050565b5f5f8335601e198436030181126142f2575f5ffd5b8301803591506001600160401b0382111561430b575f5ffd5b6020019150600681901b3603821315613967575f5ffd5b5f5f8335601e19843603018112614337575f5ffd5b8301803591506001600160401b03821115614350575f5ffd5b6020019150600581901b3603821315613967575f5ffd5b5f5f8335601e1984360301811261437c575f5ffd5b8301803591506001600160401b03821115614395575f5ffd5b602001915036819003821315613967575f5ffd5b80516020808301519190811015613921575f1960209190910360031b1b16919050565b5f602082840312156143dc575f5ffd5b815161168e816138e2565b634e487b7160e01b5f52601260045260245ffd5b5f63ffffffff831680614410576144106143e7565b8063ffffffff84160691505092915050565b5f82614430576144306143e7565b500490565b5f82518060208501845e5f920191825250919050565b5f82614459576144596143e7565b500690565b602081525f82518060208401528060208501604085015e5f604082850101526040601f19601f8301168401019150509291505056fea2646970667358221220d74154a5987192079001f961cb188678649f5a8495724d2f2e0566c01ee733b664736f6c634300081e0033",
    "linkReferences": {}
  },
  "methodIdentifiers": {
    "CALCULATION_INTERVAL_SECONDS()": "9d45c281",
    "GENESIS_REWARDS_TIMESTAMP()": "131433b4",
    "MAX_FUTURE_LENGTH()": "04a0c502",
    "MAX_RETROACTIVE_LENGTH()": "37838ed0",
    "MAX_REWARDS_DURATION()": "bf21a8aa",
    "activationDelay()": "3a8c0786",
    "allocationManager()": "ca8aa7c7",
    "beaconChainETHStrategy()": "9104c319",
    "calculateEarnerLeafHash((address,bytes32))": "149bc872",
    "calculateTokenLeafHash((address,uint256))": "f8cd8448",
    "checkClaim((uint32,uint32,bytes,(address,bytes32),uint32[],bytes[],(address,uint256)[]))": "5e9d8348",
    "claimerFor(address)": "2b9f64a4",
    "createAVSRewardsSubmission(((address,uint96)[],address,uint256,uint32,uint32)[])": "fce36c7d",
    "createOperatorDirectedAVSRewardsSubmission(address,((address,uint96)[],address,(address,uint256)[],uint32,uint32,string)[])": "9cb9a5fa",
    "createOperatorDirectedOperatorSetRewardsSubmission((address,uint32),((address,uint96)[],address,(address,uint256)[],uint32,uint32,string)[])": "0ca29899",
    "createRewardsForAllEarners(((address,uint96)[],address,uint256,uint32,uint32)[])": "ff9f6cce",
    "createRewardsForAllSubmission(((address,uint96)[],address,uint256,uint32,uint32)[])": "36af41fa",
    "cumulativeClaimed(address,address)": "865c6953",
    "currRewardsCalculationEndTimestamp()": "4d18cc35",
    "defaultOperatorSplitBips()": "63f6a798",
    "delegationManager()": "ea4d3c9b",
    "disableRoot(uint32)": "f96abf2e",
    "getCurrentClaimableDistributionRoot()": "0e9a53cf",
    "getCurrentDistributionRoot()": "9be3d4e4",
    "getDistributionRootAtIndex(uint256)": "de02e503",
    "getDistributionRootsLength()": "7b8f8b05",
    "getOperatorAVSSplit(address,address)": "e063f81f",
    "getOperatorPISplit(address)": "4b943960",
    "getOperatorSetSplit(address,(address,uint32))": "9de4b35f",
    "getRootIndexFromHash(bytes32)": "e810ce21",
    "initialize(address,uint256,address,uint32,uint16)": "f6efbb59",
    "isAVSRewardsSubmissionHash(address,bytes32)": "6d21117e",
    "isOperatorDirectedAVSRewardsSubmissionHash(address,bytes32)": "ed71e6a2",
    "isOperatorDirectedOperatorSetRewardsSubmissionHash(address,bytes32)": "f2f07ab4",
    "isRewardsForAllSubmitter(address)": "0018572c",
    "isRewardsSubmissionForAllEarnersHash(address,bytes32)": "aebd8bae",
    "isRewardsSubmissionForAllHash(address,bytes32)": "c46db606",
    "owner()": "8da5cb5b",
    "pause(uint256)": "136439dd",
    "pauseAll()": "595c6a67",
    "paused()": "5c975abb",
    "paused(uint8)": "5ac86ab7",
    "pauserRegistry()": "886f1195",
    "permissionController()": "4657e26a",
    "processClaim((uint32,uint32,bytes,(address,bytes32),uint32[],bytes[],(address,uint256)[]),address)": "3ccc861d",
    "processClaims((uint32,uint32,bytes,(address,bytes32),uint32[],bytes[],(address,uint256)[])[],address)": "4596021c",
    "renounceOwnership()": "715018a6",
    "rewardsUpdater()": "fbf1e2c1",
    "setActivationDelay(uint32)": "58baaa3e",
    "setClaimerFor(address)": "a0169ddd",
    "setClaimerFor(address,address)": "f22cef85",
    "setDefaultOperatorSplit(uint16)": "a50a1d9c",
    "setOperatorAVSSplit(address,address,uint16)": "dcbb03b3",
    "setOperatorPISplit(address,uint16)": "b3dbb0e0",
    "setOperatorSetSplit(address,(address,uint32),uint16)": "f74e8eac",
    "setRewardsForAllSubmitter(address,bool)": "0eb38345",
    "setRewardsUpdater(address)": "863cb9a9",
    "strategyManager()": "39b70e38",
    "submissionNonce(address)": "bb7e451f",
    "submitRoot(bytes32,uint32)": "3efe1db6",
    "transferOwnership(address)": "f2fde38b",
    "unpause(uint256)": "fabc1cbc"
  },
  "id": 118
}