{
  "abi": [
    {
      "type": "constructor",
      "inputs": [
        {
          "name": "_strategyManager",
          "type": "address",
          "internalType": "contract IStrategyManager"
        },
        {
          "name": "_pauserRegistry",
          "type": "address",
          "internalType": "contract IPauserRegistry"
        }
      ],
      "stateMutability": "nonpayable"
    },
    {
      "type": "function",
      "name": "deposit",
      "inputs": [
        {
          "name": "token",
          "type": "address",
          "internalType": "contract IERC20"
        },
        {
          "name": "amount",
          "type": "uint256",
          "internalType": "uint256"
        }
      ],
      "outputs": [
        {
          "name": "newShares",
          "type": "uint256",
          "internalType": "uint256"
        }
      ],
      "stateMutability": "nonpayable"
    },
    {
      "type": "function",
      "name": "explanation",
      "inputs": [],
      "outputs": [
        {
          "name": "",
          "type": "string",
          "internalType": "string"
        }
      ],
      "stateMutability": "pure"
    },
    {
      "type": "function",
      "name": "initialize",
      "inputs": [
        {
          "name": "_underlyingToken",
          "type": "address",
          "internalType": "contract IERC20"
        }
      ],
      "outputs": [],
      "stateMutability": "nonpayable"
    },
    {
      "type": "function",
      "name": "pause",
      "inputs": [
        {
          "name": "newPausedStatus",
          "type": "uint256",
          "internalType": "uint256"
        }
      ],
      "outputs": [],
      "stateMutability": "nonpayable"
    },
    {
      "type": "function",
      "name": "pauseAll",
      "inputs": [],
      "outputs": [],
      "stateMutability": "nonpayable"
    },
    {
      "type": "function",
      "name": "paused",
      "inputs": [
        {
          "name": "index",
          "type": "uint8",
          "internalType": "uint8"
        }
      ],
      "outputs": [
        {
          "name": "",
          "type": "bool",
          "internalType": "bool"
        }
      ],
      "stateMutability": "view"
    },
    {
      "type": "function",
      "name": "paused",
      "inputs": [],
      "outputs": [
        {
          "name": "",
          "type": "uint256",
          "internalType": "uint256"
        }
      ],
      "stateMutability": "view"
    },
    {
      "type": "function",
      "name": "pauserRegistry",
      "inputs": [],
      "outputs": [
        {
          "name": "",
          "type": "address",
          "internalType": "contract IPauserRegistry"
        }
      ],
      "stateMutability": "view"
    },
    {
      "type": "function",
      "name": "shares",
      "inputs": [
        {
          "name": "user",
          "type": "address",
          "internalType": "address"
        }
      ],
      "outputs": [
        {
          "name": "",
          "type": "uint256",
          "internalType": "uint256"
        }
      ],
      "stateMutability": "view"
    },
    {
      "type": "function",
      "name": "sharesToUnderlying",
      "inputs": [
        {
          "name": "amountShares",
          "type": "uint256",
          "internalType": "uint256"
        }
      ],
      "outputs": [
        {
          "name": "",
          "type": "uint256",
          "internalType": "uint256"
        }
      ],
      "stateMutability": "view"
    },
    {
      "type": "function",
      "name": "sharesToUnderlyingView",
      "inputs": [
        {
          "name": "amountShares",
          "type": "uint256",
          "internalType": "uint256"
        }
      ],
      "outputs": [
        {
          "name": "",
          "type": "uint256",
          "internalType": "uint256"
        }
      ],
      "stateMutability": "view"
    },
    {
      "type": "function",
      "name": "strategyManager",
      "inputs": [],
      "outputs": [
        {
          "name": "",
          "type": "address",
          "internalType": "contract IStrategyManager"
        }
      ],
      "stateMutability": "view"
    },
    {
      "type": "function",
      "name": "totalShares",
      "inputs": [],
      "outputs": [
        {
          "name": "",
          "type": "uint256",
          "internalType": "uint256"
        }
      ],
      "stateMutability": "view"
    },
    {
      "type": "function",
      "name": "underlyingToShares",
      "inputs": [
        {
          "name": "amountUnderlying",
          "type": "uint256",
          "internalType": "uint256"
        }
      ],
      "outputs": [
        {
          "name": "",
          "type": "uint256",
          "internalType": "uint256"
        }
      ],
      "stateMutability": "view"
    },
    {
      "type": "function",
      "name": "underlyingToSharesView",
      "inputs": [
        {
          "name": "amountUnderlying",
          "type": "uint256",
          "internalType": "uint256"
        }
      ],
      "outputs": [
        {
          "name": "",
          "type": "uint256",
          "internalType": "uint256"
        }
      ],
      "stateMutability": "view"
    },
    {
      "type": "function",
      "name": "underlyingToken",
      "inputs": [],
      "outputs": [
        {
          "name": "",
          "type": "address",
          "internalType": "contract IERC20"
        }
      ],
      "stateMutability": "view"
    },
    {
      "type": "function",
      "name": "unpause",
      "inputs": [
        {
          "name": "newPausedStatus",
          "type": "uint256",
          "internalType": "uint256"
        }
      ],
      "outputs": [],
      "stateMutability": "nonpayable"
    },
    {
      "type": "function",
      "name": "userUnderlying",
      "inputs": [
        {
          "name": "user",
          "type": "address",
          "internalType": "address"
        }
      ],
      "outputs": [
        {
          "name": "",
          "type": "uint256",
          "internalType": "uint256"
        }
      ],
      "stateMutability": "nonpayable"
    },
    {
      "type": "function",
      "name": "userUnderlyingView",
      "inputs": [
        {
          "name": "user",
          "type": "address",
          "internalType": "address"
        }
      ],
      "outputs": [
        {
          "name": "",
          "type": "uint256",
          "internalType": "uint256"
        }
      ],
      "stateMutability": "view"
    },
    {
      "type": "function",
      "name": "withdraw",
      "inputs": [
        {
          "name": "recipient",
          "type": "address",
          "internalType": "address"
        },
        {
          "name": "token",
          "type": "address",
          "internalType": "contract IERC20"
        },
        {
          "name": "amountShares",
          "type": "uint256",
          "internalType": "uint256"
        }
      ],
      "outputs": [
        {
          "name": "amountOut",
          "type": "uint256",
          "internalType": "uint256"
        }
      ],
      "stateMutability": "nonpayable"
    },
    {
      "type": "event",
      "name": "ExchangeRateEmitted",
      "inputs": [
        {
          "name": "rate",
          "type": "uint256",
          "indexed": false,
          "internalType": "uint256"
        }
      ],
      "anonymous": false
    },
    {
      "type": "event",
      "name": "Initialized",
      "inputs": [
        {
          "name": "version",
          "type": "uint8",
          "indexed": false,
          "internalType": "uint8"
        }
      ],
      "anonymous": false
    },
    {
      "type": "event",
      "name": "Paused",
      "inputs": [
        {
          "name": "account",
          "type": "address",
          "indexed": true,
          "internalType": "address"
        },
        {
          "name": "newPausedStatus",
          "type": "uint256",
          "indexed": false,
          "internalType": "uint256"
        }
      ],
      "anonymous": false
    },
    {
      "type": "event",
      "name": "StrategyTokenSet",
      "inputs": [
        {
          "name": "token",
          "type": "address",
          "indexed": false,
          "internalType": "contract IERC20"
        },
        {
          "name": "decimals",
          "type": "uint8",
          "indexed": false,
          "internalType": "uint8"
        }
      ],
      "anonymous": false
    },
    {
      "type": "event",
      "name": "Unpaused",
      "inputs": [
        {
          "name": "account",
          "type": "address",
          "indexed": true,
          "internalType": "address"
        },
        {
          "name": "newPausedStatus",
          "type": "uint256",
          "indexed": false,
          "internalType": "uint256"
        }
      ],
      "anonymous": false
    },
    {
      "type": "error",
      "name": "BalanceExceedsMaxTotalDeposits",
      "inputs": []
    },
    {
      "type": "error",
      "name": "CurrentlyPaused",
      "inputs": []
    },
    {
      "type": "error",
      "name": "InputAddressZero",
      "inputs": []
    },
    {
      "type": "error",
      "name": "InvalidNewPausedStatus",
      "inputs": []
    },
    {
      "type": "error",
      "name": "MaxPerDepositExceedsMax",
      "inputs": []
    },
    {
      "type": "error",
      "name": "NewSharesZero",
      "inputs": []
    },
    {
      "type": "error",
      "name": "OnlyPauser",
      "inputs": []
    },
    {
      "type": "error",
      "name": "OnlyStrategyManager",
      "inputs": []
    },
    {
      "type": "error",
      "name": "OnlyUnderlyingToken",
      "inputs": []
    },
    {
      "type": "error",
      "name": "OnlyUnpauser",
      "inputs": []
    },
    {
      "type": "error",
      "name": "TotalSharesExceedsMax",
      "inputs": []
    },
    {
      "type": "error",
      "name": "WithdrawalAmountExceedsTotalDeposits",
      "inputs": []
    }
  ],
  "bytecode": {
    "object": "0x60c060405234801561000f575f5ffd5b5060405161131a38038061131a83398101604081905261002e9161014b565b806001600160a01b038116610056576040516339b190bb60e11b815260040160405180910390fd5b6001600160a01b03908116608052821660a052610071610078565b5050610183565b5f54610100900460ff16156100e35760405162461bcd60e51b815260206004820152602760248201527f496e697469616c697a61626c653a20636f6e747261637420697320696e697469604482015266616c697a696e6760c81b606482015260840160405180910390fd5b5f5460ff90811614610132575f805460ff191660ff9081179091556040519081527f7f26b83ff96e1f2b6a682f133852f6798a09c465da95921460cefb38474024989060200160405180910390a15b565b6001600160a01b0381168114610148575f5ffd5b50565b5f5f6040838503121561015c575f5ffd5b825161016781610134565b602084015190925061017881610134565b809150509250929050565b60805160a0516111536101c75f395f81816101750152818161034a0152818161064301526106c501525f818161022b015281816108730152610bf101526111535ff3fe608060405234801561000f575f5ffd5b5060043610610127575f3560e01c8063886f1195116100a9578063ce7c2ac21161006e578063ce7c2ac21461029b578063d9caed12146102ae578063e3dae51c146102c1578063f3e73875146102d4578063fabc1cbc146102e7575f5ffd5b8063886f1195146102265780638c8710191461024d5780638f6a624014610260578063ab5921e114610273578063c4d66de814610288575f5ffd5b8063553ca5f8116100ef578063553ca5f8146101c1578063595c6a67146101d45780635ac86ab7146101dc5780635c975abb1461020b5780637a8b263714610213575f5ffd5b8063136439dd1461012b5780632495a5991461014057806339b70e38146101705780633a98ef391461019757806347e7ef24146101ae575b5f5ffd5b61013e610139366004610ecb565b6102fa565b005b603254610153906001600160a01b031681565b6040516001600160a01b0390911681526020015b60405180910390f35b6101537f000000000000000000000000000000000000000000000000000000000000000081565b6101a060335481565b604051908152602001610167565b6101a06101bc366004610ef6565b610334565b6101a06101cf366004610f20565b610463565b61013e610476565b6101fb6101ea366004610f50565b6001805460ff9092161b9081161490565b6040519015158152602001610167565b6001546101a0565b6101a0610221366004610ecb565b61048a565b6101537f000000000000000000000000000000000000000000000000000000000000000081565b6101a061025b366004610ecb565b6104d3565b6101a061026e366004610f20565b6104dd565b61027b6104ea565b6040516101679190610f6b565b61013e610296366004610f20565b61050a565b6101a06102a9366004610f20565b61061c565b6101a06102bc366004610fa0565b6106ae565b6101a06102cf366004610ecb565b6107b0565b6101a06102e2366004610ecb565b6107e7565b61013e6102f5366004610ecb565b6107f1565b61030261085e565b60015481811681146103275760405163c61dca5d60e01b815260040160405180910390fd5b61033082610901565b5050565b5f5f61033f8161093e565b336001600160a01b037f00000000000000000000000000000000000000000000000000000000000000001614610388576040516348da714f60e01b815260040160405180910390fd5b6103928484610974565b6033545f6103a26103e883610ff2565b90505f6103e86103b06109a2565b6103ba9190610ff2565b90505f6103c78783611005565b9050806103d48489611018565b6103de919061102f565b9550855f0361040057604051630c392ed360e11b815260040160405180910390fd5b61040a8685610ff2565b60338190556f4b3b4ca85a86c47a098a223fffffffff101561043f57604051632f14e8a360e11b815260040160405180910390fd5b610458826103e86033546104539190610ff2565b610a11565b505050505092915050565b5f6104706102218361061c565b92915050565b61047e61085e565b6104885f19610901565b565b5f5f6103e860335461049c9190610ff2565b90505f6103e86104aa6109a2565b6104b49190610ff2565b9050816104c18583611018565b6104cb919061102f565b949350505050565b5f610470826107b0565b5f6104706102e28361061c565b60606040518060800160405280604d81526020016110d1604d9139905090565b5f54610100900460ff161580801561052857505f54600160ff909116105b806105415750303b15801561054157505f5460ff166001145b6105a95760405162461bcd60e51b815260206004820152602e60248201527f496e697469616c697a61626c653a20636f6e747261637420697320616c72656160448201526d191e481a5b9a5d1a585b1a5e995960921b60648201526084015b60405180910390fd5b5f805460ff1916600117905580156105ca575f805461ff0019166101001790555b6105d382610a5d565b8015610330575f805461ff0019169055604051600181527f7f26b83ff96e1f2b6a682f133852f6798a09c465da95921460cefb3847402498906020015b60405180910390a15050565b60405163fe243a1760e01b81526001600160a01b0382811660048301523060248301525f917f00000000000000000000000000000000000000000000000000000000000000009091169063fe243a1790604401602060405180830381865afa15801561068a573d5f5f3e3d5ffd5b505050506040513d601f19601f82011682018060405250810190610470919061104e565b5f60016106ba8161093e565b336001600160a01b037f00000000000000000000000000000000000000000000000000000000000000001614610703576040516348da714f60e01b815260040160405180910390fd5b61070e858585610ba8565b6033548084111561073257604051630b469df360e41b815260040160405180910390fd5b5f61073f6103e883610ff2565b90505f6103e861074d6109a2565b6107579190610ff2565b9050816107648783611018565b61076e919061102f565b945061077a8684611005565b60335561079a61078a8683611005565b6103e86033546104539190610ff2565b6107a5888887610bdb565b505050509392505050565b5f5f6103e86033546107c29190610ff2565b90505f6103e86107d06109a2565b6107da9190610ff2565b9050806104c18386611018565b5f6104708261048a565b6107f9610bef565b600154801982198116146108205760405163c61dca5d60e01b815260040160405180910390fd5b600182905560405182815233907f3582d1828e26bf56bd801502bc021ac0bc8afb57c826e4986b45593c8fad389c9060200160405180910390a25050565b60405163237dfb4760e11b81523360048201527f00000000000000000000000000000000000000000000000000000000000000006001600160a01b0316906346fbf68e90602401602060405180830381865afa1580156108c0573d5f5f3e3d5ffd5b505050506040513d601f19601f820116820180604052508101906108e49190611065565b61048857604051631d77d47760e21b815260040160405180910390fd5b600181905560405181815233907fab40a374bc51de372200a8bc981af8c9ecdc08dfdaef0bb6e09f88f3c616ef3d9060200160405180910390a250565b610953816001805460ff9092161b9081161490565b156109715760405163840a48d560e01b815260040160405180910390fd5b50565b6032546001600160a01b0383811691161461033057604051630312abdd60e61b815260040160405180910390fd5b6032546040516370a0823160e01b81523060048201525f916001600160a01b0316906370a0823190602401602060405180830381865afa1580156109e8573d5f5f3e3d5ffd5b505050506040513d601f19601f82011682018060405250810190610a0c919061104e565b905090565b7fd2494f3479e5da49d386657c292c610b5b01df313d07c62eb0cfa49924a31be881610a4584670de0b6b3a7640000611018565b610a4f919061102f565b604051908152602001610610565b5f54610100900460ff16610ac75760405162461bcd60e51b815260206004820152602b60248201527f496e697469616c697a61626c653a20636f6e7472616374206973206e6f74206960448201526a6e697469616c697a696e6760a81b60648201526084016105a0565b603280546001600160a01b0319166001600160a01b038316179055610aeb5f610901565b7f1c540707b00eb5427b6b774fc799d756516a54aee108b64b327acc55af55750760325f9054906101000a90046001600160a01b0316826001600160a01b031663313ce5676040518163ffffffff1660e01b8152600401602060405180830381865afa158015610b5d573d5f5f3e3d5ffd5b505050506040513d601f19601f82011682018060405250810190610b819190611084565b604080516001600160a01b03909316835260ff90911660208301520160405180910390a150565b6032546001600160a01b03838116911614610bd657604051630312abdd60e61b815260040160405180910390fd5b505050565b610bd66001600160a01b0383168483610ca0565b7f00000000000000000000000000000000000000000000000000000000000000006001600160a01b031663eab66d7a6040518163ffffffff1660e01b8152600401602060405180830381865afa158015610c4b573d5f5f3e3d5ffd5b505050506040513d601f19601f82011682018060405250810190610c6f919061109f565b6001600160a01b0316336001600160a01b0316146104885760405163794821ff60e01b815260040160405180910390fd5b604080516001600160a01b03848116602483015260448083018590528351808403909101815260649092018352602080830180516001600160e01b031663a9059cbb60e01b17905283518085019094528084527f5361666545524332303a206c6f772d6c6576656c2063616c6c206661696c656490840152610bd6928692915f91610d2f918516908490610dae565b905080515f1480610d4f575080806020019051810190610d4f9190611065565b610bd65760405162461bcd60e51b815260206004820152602a60248201527f5361666545524332303a204552433230206f7065726174696f6e20646964206e6044820152691bdd081cdd58d8d9595960b21b60648201526084016105a0565b60606104cb84845f85855f5f866001600160a01b03168587604051610dd391906110ba565b5f6040518083038185875af1925050503d805f8114610e0d576040519150601f19603f3d011682016040523d82523d5f602084013e610e12565b606091505b5091509150610e2387838387610e2e565b979650505050505050565b60608315610e9c5782515f03610e95576001600160a01b0385163b610e955760405162461bcd60e51b815260206004820152601d60248201527f416464726573733a2063616c6c20746f206e6f6e2d636f6e747261637400000060448201526064016105a0565b50816104cb565b6104cb8383815115610eb15781518083602001fd5b8060405162461bcd60e51b81526004016105a09190610f6b565b5f60208284031215610edb575f5ffd5b5035919050565b6001600160a01b0381168114610971575f5ffd5b5f5f60408385031215610f07575f5ffd5b8235610f1281610ee2565b946020939093013593505050565b5f60208284031215610f30575f5ffd5b8135610f3b81610ee2565b9392505050565b60ff81168114610971575f5ffd5b5f60208284031215610f60575f5ffd5b8135610f3b81610f42565b602081525f82518060208401528060208501604085015e5f604082850101526040601f19601f83011684010191505092915050565b5f5f5f60608486031215610fb2575f5ffd5b8335610fbd81610ee2565b92506020840135610fcd81610ee2565b929592945050506040919091013590565b634e487b7160e01b5f52601160045260245ffd5b8082018082111561047057610470610fde565b8181038181111561047057610470610fde565b808202811582820484141761047057610470610fde565b5f8261104957634e487b7160e01b5f52601260045260245ffd5b500490565b5f6020828403121561105e575f5ffd5b5051919050565b5f60208284031215611075575f5ffd5b81518015158114610f3b575f5ffd5b5f60208284031215611094575f5ffd5b8151610f3b81610f42565b5f602082840312156110af575f5ffd5b8151610f3b81610ee2565b5f82518060208501845e5f92019182525091905056fe4261736520537472617465677920696d706c656d656e746174696f6e20746f20696e68657269742066726f6d20666f72206d6f726520636f6d706c657820696d706c656d656e746174696f6e73a264697066735822122015c7439f87c69c5a56c6f6f48a60aaf56a0a25e2b656e3cc4d7ddb89b1f8655964736f6c634300081e0033",
    "linkReferences": {}
  },
  "methodIdentifiers": {
    "deposit(address,uint256)": "47e7ef24",
    "explanation()": "ab5921e1",
    "initialize(address)": "c4d66de8",
    "pause(uint256)": "136439dd",
    "pauseAll()": "595c6a67",
    "paused()": "5c975abb",
    "paused(uint8)": "5ac86ab7",
    "pauserRegistry()": "886f1195",
    "shares(address)": "ce7c2ac2",
    "sharesToUnderlying(uint256)": "f3e73875",
    "sharesToUnderlyingView(uint256)": "7a8b2637",
    "strategyManager()": "39b70e38",
    "totalShares()": "3a98ef39",
    "underlyingToShares(uint256)": "8c871019",
    "underlyingToSharesView(uint256)": "e3dae51c",
    "underlyingToken()": "2495a599",
    "unpause(uint256)": "fabc1cbc",
    "userUnderlying(address)": "8f6a6240",
    "userUnderlyingView(address)": "553ca5f8",
    "withdraw(address,address,uint256)": "d9caed12"
  },
  "id": 192
}