{
  "abi": [
    {
      "type": "constructor",
      "inputs": [
        {
          "name": "_permissionController",
          "type": "address",
          "internalType": "contract IPermissionController"
        },
        {
          "name": "_allocationManager",
          "type": "address",
          "internalType": "contract IAllocationManager"
        },
        {
          "name": "_version",
          "type": "string",
          "internalType": "string"
        }
      ],
      "stateMutability": "nonpayable"
    },
    {
      "type": "function",
      "name": "BN254_KEY_REGISTRATION_TYPEHASH",
      "inputs": [],
      "outputs": [
        {
          "name": "",
          "type": "bytes32",
          "internalType": "bytes32"
        }
      ],
      "stateMutability": "view"
    },
    {
      "type": "function",
      "name": "ECDSA_KEY_REGISTRATION_TYPEHASH",
      "inputs": [],
      "outputs": [
        {
          "name": "",
          "type": "bytes32",
          "internalType": "bytes32"
        }
      ],
      "stateMutability": "view"
    },
    {
      "type": "function",
      "name": "allocationManager",
      "inputs": [],
      "outputs": [
        {
          "name": "",
          "type": "address",
          "internalType": "contract IAllocationManager"
        }
      ],
      "stateMutability": "view"
    },
    {
      "type": "function",
      "name": "checkKey",
      "inputs": [
        {
          "name": "operatorSet",
          "type": "tuple",
          "internalType": "struct OperatorSet",
          "components": [
            {
              "name": "avs",
              "type": "address",
              "internalType": "address"
            },
            {
              "name": "id",
              "type": "uint32",
              "internalType": "uint32"
            }
          ]
        },
        {
          "name": "operator",
          "type": "address",
          "internalType": "address"
        }
      ],
      "outputs": [
        {
          "name": "",
          "type": "bool",
          "internalType": "bool"
        }
      ],
      "stateMutability": "view"
    },
    {
      "type": "function",
      "name": "configureOperatorSet",
      "inputs": [
        {
          "name": "operatorSet",
          "type": "tuple",
          "internalType": "struct OperatorSet",
          "components": [
            {
              "name": "avs",
              "type": "address",
              "internalType": "address"
            },
            {
              "name": "id",
              "type": "uint32",
              "internalType": "uint32"
            }
          ]
        },
        {
          "name": "curveType",
          "type": "uint8",
          "internalType": "enum IKeyRegistrarTypes.CurveType"
        }
      ],
      "outputs": [],
      "stateMutability": "nonpayable"
    },
    {
      "type": "function",
      "name": "deregisterKey",
      "inputs": [
        {
          "name": "operator",
          "type": "address",
          "internalType": "address"
        },
        {
          "name": "operatorSet",
          "type": "tuple",
          "internalType": "struct OperatorSet",
          "components": [
            {
              "name": "avs",
              "type": "address",
              "internalType": "address"
            },
            {
              "name": "id",
              "type": "uint32",
              "internalType": "uint32"
            }
          ]
        }
      ],
      "outputs": [],
      "stateMutability": "nonpayable"
    },
    {
      "type": "function",
      "name": "domainSeparator",
      "inputs": [],
      "outputs": [
        {
          "name": "",
          "type": "bytes32",
          "internalType": "bytes32"
        }
      ],
      "stateMutability": "view"
    },
    {
      "type": "function",
      "name": "encodeBN254KeyData",
      "inputs": [
        {
          "name": "g1Point",
          "type": "tuple",
          "internalType": "struct BN254.G1Point",
          "components": [
            {
              "name": "X",
              "type": "uint256",
              "internalType": "uint256"
            },
            {
              "name": "Y",
              "type": "uint256",
              "internalType": "uint256"
            }
          ]
        },
        {
          "name": "g2Point",
          "type": "tuple",
          "internalType": "struct BN254.G2Point",
          "components": [
            {
              "name": "X",
              "type": "uint256[2]",
              "internalType": "uint256[2]"
            },
            {
              "name": "Y",
              "type": "uint256[2]",
              "internalType": "uint256[2]"
            }
          ]
        }
      ],
      "outputs": [
        {
          "name": "",
          "type": "bytes",
          "internalType": "bytes"
        }
      ],
      "stateMutability": "pure"
    },
    {
      "type": "function",
      "name": "getBN254Key",
      "inputs": [
        {
          "name": "operatorSet",
          "type": "tuple",
          "internalType": "struct OperatorSet",
          "components": [
            {
              "name": "avs",
              "type": "address",
              "internalType": "address"
            },
            {
              "name": "id",
              "type": "uint32",
              "internalType": "uint32"
            }
          ]
        },
        {
          "name": "operator",
          "type": "address",
          "internalType": "address"
        }
      ],
      "outputs": [
        {
          "name": "g1Point",
          "type": "tuple",
          "internalType": "struct BN254.G1Point",
          "components": [
            {
              "name": "X",
              "type": "uint256",
              "internalType": "uint256"
            },
            {
              "name": "Y",
              "type": "uint256",
              "internalType": "uint256"
            }
          ]
        },
        {
          "name": "g2Point",
          "type": "tuple",
          "internalType": "struct BN254.G2Point",
          "components": [
            {
              "name": "X",
              "type": "uint256[2]",
              "internalType": "uint256[2]"
            },
            {
              "name": "Y",
              "type": "uint256[2]",
              "internalType": "uint256[2]"
            }
          ]
        }
      ],
      "stateMutability": "view"
    },
    {
      "type": "function",
      "name": "getBN254KeyRegistrationMessageHash",
      "inputs": [
        {
          "name": "operator",
          "type": "address",
          "internalType": "address"
        },
        {
          "name": "operatorSet",
          "type": "tuple",
          "internalType": "struct OperatorSet",
          "components": [
            {
              "name": "avs",
              "type": "address",
              "internalType": "address"
            },
            {
              "name": "id",
              "type": "uint32",
              "internalType": "uint32"
            }
          ]
        },
        {
          "name": "keyData",
          "type": "bytes",
          "internalType": "bytes"
        }
      ],
      "outputs": [
        {
          "name": "",
          "type": "bytes32",
          "internalType": "bytes32"
        }
      ],
      "stateMutability": "view"
    },
    {
      "type": "function",
      "name": "getECDSAAddress",
      "inputs": [
        {
          "name": "operatorSet",
          "type": "tuple",
          "internalType": "struct OperatorSet",
          "components": [
            {
              "name": "avs",
              "type": "address",
              "internalType": "address"
            },
            {
              "name": "id",
              "type": "uint32",
              "internalType": "uint32"
            }
          ]
        },
        {
          "name": "operator",
          "type": "address",
          "internalType": "address"
        }
      ],
      "outputs": [
        {
          "name": "",
          "type": "address",
          "internalType": "address"
        }
      ],
      "stateMutability": "view"
    },
    {
      "type": "function",
      "name": "getECDSAKey",
      "inputs": [
        {
          "name": "operatorSet",
          "type": "tuple",
          "internalType": "struct OperatorSet",
          "components": [
            {
              "name": "avs",
              "type": "address",
              "internalType": "address"
            },
            {
              "name": "id",
              "type": "uint32",
              "internalType": "uint32"
            }
          ]
        },
        {
          "name": "operator",
          "type": "address",
          "internalType": "address"
        }
      ],
      "outputs": [
        {
          "name": "",
          "type": "bytes",
          "internalType": "bytes"
        }
      ],
      "stateMutability": "view"
    },
    {
      "type": "function",
      "name": "getECDSAKeyRegistrationMessageHash",
      "inputs": [
        {
          "name": "operator",
          "type": "address",
          "internalType": "address"
        },
        {
          "name": "operatorSet",
          "type": "tuple",
          "internalType": "struct OperatorSet",
          "components": [
            {
              "name": "avs",
              "type": "address",
              "internalType": "address"
            },
            {
              "name": "id",
              "type": "uint32",
              "internalType": "uint32"
            }
          ]
        },
        {
          "name": "keyAddress",
          "type": "address",
          "internalType": "address"
        }
      ],
      "outputs": [
        {
          "name": "",
          "type": "bytes32",
          "internalType": "bytes32"
        }
      ],
      "stateMutability": "view"
    },
    {
      "type": "function",
      "name": "getKeyHash",
      "inputs": [
        {
          "name": "operatorSet",
          "type": "tuple",
          "internalType": "struct OperatorSet",
          "components": [
            {
              "name": "avs",
              "type": "address",
              "internalType": "address"
            },
            {
              "name": "id",
              "type": "uint32",
              "internalType": "uint32"
            }
          ]
        },
        {
          "name": "operator",
          "type": "address",
          "internalType": "address"
        }
      ],
      "outputs": [
        {
          "name": "",
          "type": "bytes32",
          "internalType": "bytes32"
        }
      ],
      "stateMutability": "view"
    },
    {
      "type": "function",
      "name": "getOperatorSetCurveType",
      "inputs": [
        {
          "name": "operatorSet",
          "type": "tuple",
          "internalType": "struct OperatorSet",
          "components": [
            {
              "name": "avs",
              "type": "address",
              "internalType": "address"
            },
            {
              "name": "id",
              "type": "uint32",
              "internalType": "uint32"
            }
          ]
        }
      ],
      "outputs": [
        {
          "name": "",
          "type": "uint8",
          "internalType": "enum IKeyRegistrarTypes.CurveType"
        }
      ],
      "stateMutability": "view"
    },
    {
      "type": "function",
      "name": "isKeyGloballyRegistered",
      "inputs": [
        {
          "name": "keyHash",
          "type": "bytes32",
          "internalType": "bytes32"
        }
      ],
      "outputs": [
        {
          "name": "",
          "type": "bool",
          "internalType": "bool"
        }
      ],
      "stateMutability": "view"
    },
    {
      "type": "function",
      "name": "isRegistered",
      "inputs": [
        {
          "name": "operatorSet",
          "type": "tuple",
          "internalType": "struct OperatorSet",
          "components": [
            {
              "name": "avs",
              "type": "address",
              "internalType": "address"
            },
            {
              "name": "id",
              "type": "uint32",
              "internalType": "uint32"
            }
          ]
        },
        {
          "name": "operator",
          "type": "address",
          "internalType": "address"
        }
      ],
      "outputs": [
        {
          "name": "",
          "type": "bool",
          "internalType": "bool"
        }
      ],
      "stateMutability": "view"
    },
    {
      "type": "function",
      "name": "permissionController",
      "inputs": [],
      "outputs": [
        {
          "name": "",
          "type": "address",
          "internalType": "contract IPermissionController"
        }
      ],
      "stateMutability": "view"
    },
    {
      "type": "function",
      "name": "registerKey",
      "inputs": [
        {
          "name": "operator",
          "type": "address",
          "internalType": "address"
        },
        {
          "name": "operatorSet",
          "type": "tuple",
          "internalType": "struct OperatorSet",
          "components": [
            {
              "name": "avs",
              "type": "address",
              "internalType": "address"
            },
            {
              "name": "id",
              "type": "uint32",
              "internalType": "uint32"
            }
          ]
        },
        {
          "name": "keyData",
          "type": "bytes",
          "internalType": "bytes"
        },
        {
          "name": "signature",
          "type": "bytes",
          "internalType": "bytes"
        }
      ],
      "outputs": [],
      "stateMutability": "nonpayable"
    },
    {
      "type": "function",
      "name": "version",
      "inputs": [],
      "outputs": [
        {
          "name": "",
          "type": "string",
          "internalType": "string"
        }
      ],
      "stateMutability": "view"
    },
    {
      "type": "event",
      "name": "AggregateBN254KeyUpdated",
      "inputs": [
        {
          "name": "operatorSet",
          "type": "tuple",
          "indexed": false,
          "internalType": "struct OperatorSet",
          "components": [
            {
              "name": "avs",
              "type": "address",
              "internalType": "address"
            },
            {
              "name": "id",
              "type": "uint32",
              "internalType": "uint32"
            }
          ]
        },
        {
          "name": "newAggregateKey",
          "type": "tuple",
          "indexed": false,
          "internalType": "struct BN254.G1Point",
          "components": [
            {
              "name": "X",
              "type": "uint256",
              "internalType": "uint256"
            },
            {
              "name": "Y",
              "type": "uint256",
              "internalType": "uint256"
            }
          ]
        }
      ],
      "anonymous": false
    },
    {
      "type": "event",
      "name": "KeyDeregistered",
      "inputs": [
        {
          "name": "operatorSet",
          "type": "tuple",
          "indexed": false,
          "internalType": "struct OperatorSet",
          "components": [
            {
              "name": "avs",
              "type": "address",
              "internalType": "address"
            },
            {
              "name": "id",
              "type": "uint32",
              "internalType": "uint32"
            }
          ]
        },
        {
          "name": "operator",
          "type": "address",
          "indexed": true,
          "internalType": "address"
        },
        {
          "name": "curveType",
          "type": "uint8",
          "indexed": false,
          "internalType": "enum IKeyRegistrarTypes.CurveType"
        }
      ],
      "anonymous": false
    },
    {
      "type": "event",
      "name": "KeyRegistered",
      "inputs": [
        {
          "name": "operatorSet",
          "type": "tuple",
          "indexed": false,
          "internalType": "struct OperatorSet",
          "components": [
            {
              "name": "avs",
              "type": "address",
              "internalType": "address"
            },
            {
              "name": "id",
              "type": "uint32",
              "internalType": "uint32"
            }
          ]
        },
        {
          "name": "operator",
          "type": "address",
          "indexed": true,
          "internalType": "address"
        },
        {
          "name": "curveType",
          "type": "uint8",
          "indexed": false,
          "internalType": "enum IKeyRegistrarTypes.CurveType"
        },
        {
          "name": "pubkey",
          "type": "bytes",
          "indexed": false,
          "internalType": "bytes"
        }
      ],
      "anonymous": false
    },
    {
      "type": "event",
      "name": "OperatorSetConfigured",
      "inputs": [
        {
          "name": "operatorSet",
          "type": "tuple",
          "indexed": false,
          "internalType": "struct OperatorSet",
          "components": [
            {
              "name": "avs",
              "type": "address",
              "internalType": "address"
            },
            {
              "name": "id",
              "type": "uint32",
              "internalType": "uint32"
            }
          ]
        },
        {
          "name": "curveType",
          "type": "uint8",
          "indexed": false,
          "internalType": "enum IKeyRegistrarTypes.CurveType"
        }
      ],
      "anonymous": false
    },
    {
      "type": "error",
      "name": "ConfigurationAlreadySet",
      "inputs": []
    },
    {
      "type": "error",
      "name": "ECAddFailed",
      "inputs": []
    },
    {
      "type": "error",
      "name": "ECMulFailed",
      "inputs": []
    },
    {
      "type": "error",
      "name": "ECPairingFailed",
      "inputs": []
    },
    {
      "type": "error",
      "name": "ExpModFailed",
      "inputs": []
    },
    {
      "type": "error",
      "name": "InvalidCurveType",
      "inputs": []
    },
    {
      "type": "error",
      "name": "InvalidKeyFormat",
      "inputs": []
    },
    {
      "type": "error",
      "name": "InvalidKeypair",
      "inputs": []
    },
    {
      "type": "error",
      "name": "InvalidPermissions",
      "inputs": []
    },
    {
      "type": "error",
      "name": "InvalidShortString",
      "inputs": []
    },
    {
      "type": "error",
      "name": "InvalidSignature",
      "inputs": []
    },
    {
      "type": "error",
      "name": "KeyAlreadyRegistered",
      "inputs": []
    },
    {
      "type": "error",
      "name": "KeyNotFound",
      "inputs": [
        {
          "name": "operatorSet",
          "type": "tuple",
          "internalType": "struct OperatorSet",
          "components": [
            {
              "name": "avs",
              "type": "address",
              "internalType": "address"
            },
            {
              "name": "id",
              "type": "uint32",
              "internalType": "uint32"
            }
          ]
        },
        {
          "name": "operator",
          "type": "address",
          "internalType": "address"
        }
      ]
    },
    {
      "type": "error",
      "name": "OperatorSetNotConfigured",
      "inputs": []
    },
    {
      "type": "error",
      "name": "OperatorStillSlashable",
      "inputs": [
        {
          "name": "operatorSet",
          "type": "tuple",
          "internalType": "struct OperatorSet",
          "components": [
            {
              "name": "avs",
              "type": "address",
              "internalType": "address"
            },
            {
              "name": "id",
              "type": "uint32",
              "internalType": "uint32"
            }
          ]
        },
        {
          "name": "operator",
          "type": "address",
          "internalType": "address"
        }
      ]
    },
    {
      "type": "error",
      "name": "SignatureExpired",
      "inputs": []
    },
    {
      "type": "error",
      "name": "StringTooLong",
      "inputs": [
        {
          "name": "str",
          "type": "string",
          "internalType": "string"
        }
      ]
    },
    {
      "type": "error",
      "name": "ZeroAddress",
      "inputs": []
    },
    {
      "type": "error",
      "name": "ZeroPubkey",
      "inputs": []
    }
  ],
  "bytecode": {
    "object": "0x60e060405234801561000f575f5ffd5b5060405161305f38038061305f83398101604081905261002e916100cb565b6001600160a01b03808316608052831660a052808061004c8161005a565b60c052506101fc9350505050565b5f5f829050601f8151111561008d578260405163305a27a960e01b815260040161008491906101a1565b60405180910390fd5b8051610098826101d6565b179392505050565b6001600160a01b03811681146100b4575f5ffd5b50565b634e487b7160e01b5f52604160045260245ffd5b5f5f5f606084860312156100dd575f5ffd5b83516100e8816100a0565b60208501519093506100f9816100a0565b60408501519092506001600160401b03811115610114575f5ffd5b8401601f81018613610124575f5ffd5b80516001600160401b0381111561013d5761013d6100b7565b604051601f8201601f19908116603f011681016001600160401b038111828210171561016b5761016b6100b7565b604052818152828201602001881015610182575f5ffd5b8160208401602083015e5f602083830101528093505050509250925092565b602081525f82518060208401528060208501604085015e5f604082850101526040601f19601f83011684010191505092915050565b805160208083015191908110156101f6575f198160200360031b1b821691505b50919050565b60805160a05160c051612e2461023b5f395f818161051501526116f601525f81816101b801526112e701525f818161031c015261064a0152612e245ff3fe608060405234801561000f575f5ffd5b5060043610610127575f3560e01c8063aa165c30116100a9578063d9f12db21161006e578063d9f12db214610351578063dab42d7e14610364578063ea0d814914610386578063ea194e2e14610399578063f698da25146103ac575f5ffd5b8063aa165c30146102ca578063b05c8f6d146102dd578063bd30a0b914610304578063ca8aa7c714610317578063d40cda161461033e575f5ffd5b806354fd4d50116100ef57806354fd4d50146102595780637690e395146102615780637cffe48c1461027457806387ab86f4146102945780639a43e3fb146102a9575f5ffd5b80630a6ac2641461012b578063166aa127146101535780633b32a7bd146101885780634657e26a146101b357806350435add146101da575b5f5ffd5b61013e610139366004612579565b6103b4565b60405190151581526020015b60405180910390f35b61017a7f991b0a3376ce87f8ecc5d70962279ac09cdce934e8b5b9683e73c8ff087c7f8181565b60405190815260200161014a565b61019b610196366004612579565b6104f0565b6040516001600160a01b03909116815260200161014a565b61019b7f000000000000000000000000000000000000000000000000000000000000000081565b61024c6101e83660046125fa565b8151602080840151835180519083015185840151805190850151604080519687019790975295850193909352606084810192909252608084015260a083019190915260c082019290925260e001604051602081830303815290604052905092915050565b60405161014a91906126a5565b61024c61050e565b61017a61026f3660046126f5565b61053e565b610287610282366004612753565b6105e6565b60405161014a91906127a1565b6102a76102a23660046127af565b61060c565b005b6102bc6102b7366004612579565b61091d565b60405161014a9291906127fa565b61024c6102d8366004612579565b610b07565b61017a7fda86e76deaed01641f80ff5f72c372a038fa5182697aeb967e8b1f9819d58d8181565b61013e610312366004612579565b610c44565b61019b7f000000000000000000000000000000000000000000000000000000000000000081565b6102a761034c366004612837565b610c81565b61017a61035f3660046128c8565b610e0b565b61013e610372366004612909565b5f9081526002602052604090205460ff1690565b6102a7610394366004612920565b610ea4565b61017a6103a7366004612579565b610fe7565b61017a61110f565b5f5f60015f6103c2866111c8565b815260208101919091526040015f9081205460ff1691508160028111156103eb576103eb61276d565b0361040957604051635cd3106d60e11b815260040160405180910390fd5b5f5f5f610415876111c8565b815260208082019290925260409081015f9081206001600160a01b038816825283528190208151808301909252805460ff1615158252600181018054929391929184019161046290612959565b80601f016020809104026020016040519081016040528092919081815260200182805461048e90612959565b80156104d95780601f106104b0576101008083540402835291602001916104d9565b820191905f5260205f20905b8154815290600101906020018083116104bc57829003601f168201915b505050919092525050905193505050505b92915050565b5f6104fb8383610b07565b61050490612991565b60601c9392505050565b60606105397f0000000000000000000000000000000000000000000000000000000000000000611226565b905090565b5f5f7fda86e76deaed01641f80ff5f72c372a038fa5182697aeb967e8b1f9819d58d8186865f01518760200151878760405161057b9291906129e9565b6040805191829003822060208301969096526001600160a01b039485169082015292909116606083015263ffffffff16608082015260a081019190915260c0016040516020818303038152906040528051906020012090506105dc81611263565b9695505050505050565b5f60015f6105f3846111c8565b815260208101919091526040015f205460ff1692915050565b81610616816112a9565b6106335760405163932d94f760e01b815260040160405180910390fd5b6040516309a961f360e11b81526001600160a01b037f00000000000000000000000000000000000000000000000000000000000000001690631352c3e69061068190869086906004016129f8565b602060405180830381865afa15801561069c573d5f5f3e3d5ffd5b505050506040513d601f19601f820116820180604052508101906106c09190612a2e565b158284909161070d57604051631070287960e01b815282516001600160a01b03908116600483015260209093015163ffffffff166024820152911660448201526064015b60405180910390fd5b50505f60015f61071c856111c8565b815260208101919091526040015f9081205460ff1691508160028111156107455761074561276d565b0361076357604051635cd3106d60e11b815260040160405180910390fd5b5f5f5f61076f866111c8565b815260208082019290925260409081015f9081206001600160a01b038916825283528190208151808301909252805460ff161515825260018101805492939192918401916107bc90612959565b80601f01602080910402602001604051908101604052809291908181526020018280546107e890612959565b80156108335780601f1061080a57610100808354040283529160200191610833565b820191905f5260205f20905b81548152906001019060200180831161081657829003601f168201915b5050505050815250509050805f01518486909161088957604051632e40e18760e01b815282516001600160a01b03908116600483015260209093015163ffffffff16602482015291166044820152606401610704565b50505f5f610896866111c8565b815260208082019290925260409081015f9081206001600160a01b03891682529092528120805460ff19168155906108d1600183018261237e565b5050846001600160a01b03167f28d3c3cee49478ec6fd219cfd685cd15cd01d95cabf69b4b7b57f9eaa3eb6442858460405161090e929190612a4d565b60405180910390a25050505050565b604080518082019091525f80825260208201526109386123b8565b5f60015f610945876111c8565b815260208101919091526040015f205460ff169050600281600281111561096e5761096e61276d565b1461098c5760405163fdea7c0960e01b815260040160405180910390fd5b5f5f5f610998886111c8565b815260208082019290925260409081015f9081206001600160a01b038916825283528190208151808301909252805460ff161515825260018101805492939192918401916109e590612959565b80601f0160208091040260200160405190810160405280929190818152602001828054610a1190612959565b8015610a5c5780601f10610a3357610100808354040283529160200191610a5c565b820191905f5260205f20905b815481529060010190602001808311610a3f57829003601f168201915b5050505050815250509050805f0151610ab15750506040805180820182525f80825260208083018290528351808501855282815280820192909252835180850190945282845283019190915292509050610b00565b5f5f5f5f8460200151806020019051810190610acd9190612abf565b60408051808201825294855260208086019490945280518082019091529182529181019190915290985096505050505050505b9250929050565b60605f60015f610b16866111c8565b815260208101919091526040015f205460ff1690506001816002811115610b3f57610b3f61276d565b14610b5d5760405163fdea7c0960e01b815260040160405180910390fd5b5f5f5f610b69876111c8565b815260208082019290925260409081015f9081206001600160a01b038816825283528190208151808301909252805460ff16151582526001810180549293919291840191610bb690612959565b80601f0160208091040260200160405190810160405280929190818152602001828054610be290612959565b8015610c2d5780601f10610c0457610100808354040283529160200191610c2d565b820191905f5260205f20905b815481529060010190602001808311610c1057829003601f168201915b505050919092525050506020015195945050505050565b5f5f5f610c50856111c8565b815260208082019290925260409081015f9081206001600160a01b038616825290925290205460ff16905092915050565b85610c8b816112a9565b610ca85760405163932d94f760e01b815260040160405180910390fd5b5f60015f610cb5896111c8565b815260208101919091526040015f9081205460ff169150816002811115610cde57610cde61276d565b03610cfc57604051635cd3106d60e11b815260040160405180910390fd5b5f5f610d07896111c8565b815260208082019290925260409081015f9081206001600160a01b038c16825290925290205460ff1615610d4e57604051630c7bc20160e11b815260040160405180910390fd5b6001816002811115610d6257610d6261276d565b03610d7a57610d75878988888888611353565b610dba565b6002816002811115610d8e57610d8e61276d565b03610da157610d758789888888886114b4565b60405163fdea7c0960e01b815260040160405180910390fd5b876001600160a01b03167f1201ce0c5e577111bce91e907fd99cb183da5edc1e3fb650ca40769e4e9176dd88838989604051610df99493929190612b05565b60405180910390a25050505050505050565b81516020808401516040515f938493610e78937f991b0a3376ce87f8ecc5d70962279ac09cdce934e8b5b9683e73c8ff087c7f81938a93928991019485526001600160a01b039384166020860152918316604085015263ffffffff16606084015216608082015260a00190565b604051602081830303815290604052805190602001209050610e9981611263565b9150505b9392505050565b8151610eaf816112a9565b610ecc5760405163932d94f760e01b815260040160405180910390fd5b6001826002811115610ee057610ee061276d565b1480610efd57506002826002811115610efb57610efb61276d565b145b610f1a5760405163fdea7c0960e01b815260040160405180910390fd5b5f60015f610f27866111c8565b815260208101919091526040015f9081205460ff169150816002811115610f5057610f5061276d565b14610f6d576040516281f09f60e01b815260040160405180910390fd5b8260015f610f7a876111c8565b815260208101919091526040015f20805460ff19166001836002811115610fa357610fa361276d565b02179055507fb2266cb118e57095fcdbedb24dabd9fc9f5127e2dbedf62ce6ee71696fb8b6e78484604051610fd9929190612a4d565b60405180910390a150505050565b5f5f5f5f610ff4866111c8565b815260208082019290925260409081015f9081206001600160a01b038716825283528190208151808301909252805460ff1615158252600181018054929391929184019161104190612959565b80601f016020809104026020016040519081016040528092919081815260200182805461106d90612959565b80156110b85780601f1061108f576101008083540402835291602001916110b8565b820191905f5260205f20905b81548152906001019060200180831161109b57829003601f168201915b50505050508152505090505f60015f6110d0876111c8565b815260208101919091526040015f2054825160ff90911691506110f857505f91506104ea9050565b61110682602001518261166d565b95945050505050565b60408051808201909152600a81526922b4b3b2b72630bcb2b960b11b6020909101525f7f8b73c3c69bb8fe3d512ecc4cf759cc79239f7b179b0ffacaa9a75d522b39400f7f71b625cfad44bac63b13dba07f2e1d6084ee04b6f8752101ece6126d584ee6ea61117c6116ee565b805160209182012060408051928301949094529281019190915260608101919091524660808201523060a082015260c00160405160208183030381529060405280519060200120905090565b5f815f0151826020015163ffffffff1660405160200161120e92919060609290921b6001600160601b031916825260a01b6001600160a01b031916601482015260200190565b6040516020818303038152906040526104ea90612b62565b60605f61123283611763565b6040805160208082528183019092529192505f91906020820181803683375050509182525060208101929092525090565b5f61126c61110f565b60405161190160f01b6020820152602281019190915260428101839052606201604051602081830303815290604052805190602001209050919050565b604051631beb2b9760e31b81526001600160a01b0382811660048301523360248301523060448301525f80356001600160e01b0319166064840152917f00000000000000000000000000000000000000000000000000000000000000009091169063df595cb8906084016020604051808303815f875af115801561132f573d5f5f3e3d5ffd5b505050506040513d601f19601f820116820180604052508101906104ea9190612a2e565b601483146113745760405163d109118160e01b815260040160405180910390fd5b5f61137f8486612b85565b60601c9050806113a257604051634935505f60e01b815260040160405180910390fd5b5f6113e486868080601f0160208091040260200160405190810160405280939291908181526020018383808284375f920191909152506001925061166d915050565b5f8181526002602052604090205490915060ff161561141657604051630c7bc20160e11b815260040160405180910390fd5b5f611422888a85610e0b565b9050611467838287878080601f0160208091040260200160405190810160405280939291908181526020018383808284375f920191909152505f19925061178a915050565b6114a9898989898080601f0160208091040260200160405190810160405280939291908181526020018383808284375f920191909152508892506117e2915050565b505050505050505050565b604080518082019091525f80825260208201526114cf6123b8565b5f8080806114df898b018b612bc3565b93509350935093506040518060400160405280858152602001848152509550835f14801561150b575082155b1561152957604051634935505f60e01b815260040160405180910390fd5b60408051808201909152918252602082015292505f915061154e9050888a898961053e565b90505f8061155e86880188612bfd565b604080518082019091528281526020810182905291935091505f611586858389898580611866565b915050806115a757604051638baa579f60e01b815260040160405180910390fd5b5f6115e98c8c8080601f0160208091040260200160405190810160405280939291908181526020018383808284375f920191909152506002925061166d915050565b5f8181526002602052604090205490915060ff161561161b57604051630c7bc20160e11b815260040160405180910390fd5b61165d8e8e8e8e8080601f0160208091040260200160405190810160405280939291908181526020018383808284375f920191909152508792506117e2915050565b5050505050505050505050505050565b5f60018260028111156116825761168261276d565b036116945750815160208301206104ea565b60028260028111156116a8576116a861276d565b03610da1575f5f848060200190518101906116c39190612abf565b505060408051808201825283815260209081019283525f9384529151909152902092506104ea915050565b60605f61171a7f0000000000000000000000000000000000000000000000000000000000000000611226565b9050805f8151811061172e5761172e6129d5565b016020908101516040516001600160f81b03199091169181019190915260210160405160208183030381529060405291505090565b5f60ff8216601f8111156104ea57604051632cd44ac360e21b815260040160405180910390fd5b428110156117ab57604051630819bdcd60e01b815260040160405180910390fd5b6117bf6001600160a01b038516848461192e565b6117dc57604051638baa579f60e01b815260040160405180910390fd5b50505050565b6040805180820190915260018152602081018390525f80611802876111c8565b815260208082019290925260409081015f9081206001600160a01b03881682528352208251815460ff19169015151781559082015160018201906118469082612c69565b5050505f908152600260205260409020805460ff19166001179055505050565b5f5f5f61187289611982565b90505f6118818a89898c611a0c565b90505f6118986118918a84611ab7565b8b90611b27565b90505f6118da6118d3846118cd6040805180820182525f80825260209182015281518083019092526001825260029082015290565b90611ab7565b8590611b27565b905087156118ff576118f6826118ee611b9b565b838c8b611c5b565b9650945061191f565b6119128261190b611b9b565b838c611e6f565b9550851561191f57600194505b50505050965096945050505050565b5f5f5f61193b85856120a6565b90925090505f8160048111156119535761195361276d565b1480156119715750856001600160a01b0316826001600160a01b0316145b806105dc57506105dc8686866120e5565b604080518082019091525f80825260208201525f80806119af5f516020612dcf5f395f51905f5286612d24565b90505b6119bb816121cc565b90935091505f516020612dcf5f395f51905f5282830983036119f3576040805180820190915290815260208101919091529392505050565b5f516020612dcf5f395f51905f526001820890506119b2565b8251602080850151845180519083015186840151805190850151875188870151604080519889018e90528801989098526060870195909552608086019390935260a085019190915260c084015260e08301526101008201526101208101919091525f907f30644e72e131a029b85045b68181585d2833e84879b9709143e1f593f00000019061014001604051602081830303815290604052805190602001205f1c6111069190612d24565b604080518082019091525f8082526020820152611ad26123dd565b835181526020808501519082015260408082018490525f908360608460076107d05a03fa90508080611b0057fe5b5080611b1f57604051632319df1960e11b815260040160405180910390fd5b505092915050565b604080518082019091525f8082526020820152611b426123fb565b835181526020808501518183015283516040808401919091529084015160608301525f908360808460066107d05a03fa90508080611b7c57fe5b5080611b1f5760405163d4b68fd760e01b815260040160405180910390fd5b611ba36123b8565b50604080516080810182527f198e9393920d483a7260bfb731fb5d25f1aa493335a9e71297e485b7aef312c28183019081527f1800deef121f1e76426a00665e5c4479674322d4f75edadd46debd5cd992f6ed6060830152815281518083019092527f275dc4a288d1afb3cbb1ac09187524c7db36395df7be3b99e673b13a075a65ec82527f1d9befcd05a5323e6da4d435f3b617cdb3af83285c2df711ef39c01571827f9d60208381019190915281019190915290565b6040805180820182528681526020808201869052825180840190935286835282018490525f91829190611c8c612419565b5f5b6002811015611e43575f611ca3826006612d57565b9050848260028110611cb757611cb76129d5565b60200201515183611cc8835f612d6e565b600c8110611cd857611cd86129d5565b6020020152848260028110611cef57611cef6129d5565b60200201516020015183826001611d069190612d6e565b600c8110611d1657611d166129d5565b6020020152838260028110611d2d57611d2d6129d5565b6020020151515183611d40836002612d6e565b600c8110611d5057611d506129d5565b6020020152838260028110611d6757611d676129d5565b6020020151516001602002015183611d80836003612d6e565b600c8110611d9057611d906129d5565b6020020152838260028110611da757611da76129d5565b6020020151602001515f60028110611dc157611dc16129d5565b602002015183611dd2836004612d6e565b600c8110611de257611de26129d5565b6020020152838260028110611df957611df96129d5565b602002015160200151600160028110611e1457611e146129d5565b602002015183611e25836005612d6e565b600c8110611e3557611e356129d5565b602002015250600101611c8e565b50611e4c612438565b5f6020826101808560088cfa9151919c9115159b50909950505050505050505050565b6040805180820182528581526020808201859052825180840190935285835282018390525f91611e9d612419565b5f5b6002811015612054575f611eb4826006612d57565b9050848260028110611ec857611ec86129d5565b60200201515183611ed9835f612d6e565b600c8110611ee957611ee96129d5565b6020020152848260028110611f0057611f006129d5565b60200201516020015183826001611f179190612d6e565b600c8110611f2757611f276129d5565b6020020152838260028110611f3e57611f3e6129d5565b6020020151515183611f51836002612d6e565b600c8110611f6157611f616129d5565b6020020152838260028110611f7857611f786129d5565b6020020151516001602002015183611f91836003612d6e565b600c8110611fa157611fa16129d5565b6020020152838260028110611fb857611fb86129d5565b6020020151602001515f60028110611fd257611fd26129d5565b602002015183611fe3836004612d6e565b600c8110611ff357611ff36129d5565b602002015283826002811061200a5761200a6129d5565b602002015160200151600160028110612025576120256129d5565b602002015183612036836005612d6e565b600c8110612046576120466129d5565b602002015250600101611e9f565b5061205d612438565b5f6020826101808560086107d05a03fa9050808061207757fe5b5080612096576040516324ccc79360e21b815260040160405180910390fd5b5051151598975050505050505050565b5f5f82516041036120da576020830151604084015160608501515f1a6120ce87828585612248565b94509450505050610b00565b505f90506002610b00565b5f5f5f856001600160a01b0316631626ba7e60e01b868660405160240161210d929190612d81565b60408051601f198184030181529181526020820180516001600160e01b03166001600160e01b031990941693909317909252905161214b9190612da1565b5f60405180830381855afa9150503d805f8114612183576040519150601f19603f3d011682016040523d82523d5f602084013e612188565b606091505b509150915081801561219c57506020815110155b80156105dc57508051630b135d3f60e11b906121c19083016020908101908401612db7565b149695505050505050565b5f80805f516020612dcf5f395f51905f5260035f516020612dcf5f395f51905f52865f516020612dcf5f395f51905f52888909090890505f61223c827f0c19139cb84c680a6e14116da060561765e05aa45a1c72a34f082305b61f3f525f516020612dcf5f395f51905f52612305565b91959194509092505050565b5f807f7fffffffffffffffffffffffffffffff5d576e7357a4501ddfe92f46681b20a083111561227d57505f905060036122fc565b604080515f8082526020820180845289905260ff881692820192909252606081018690526080810185905260019060a0016020604051602081039080840390855afa1580156122ce573d5f5f3e3d5ffd5b5050604051601f1901519150506001600160a01b0381166122f6575f600192509250506122fc565b91505f90505b94509492505050565b5f5f61230f612438565b612317612456565b602080825281810181905260408201819052606082018890526080820187905260a082018690528260c08360056107d05a03fa9250828061235457fe5b50826123735760405163d51edae360e01b815260040160405180910390fd5b505195945050505050565b50805461238a90612959565b5f825580601f10612399575050565b601f0160209004905f5260205f20908101906123b59190612474565b50565b60405180604001604052806123cb61248c565b81526020016123d861248c565b905290565b60405180606001604052806003906020820280368337509192915050565b60405180608001604052806004906020820280368337509192915050565b604051806101800160405280600c906020820280368337509192915050565b60405180602001604052806001906020820280368337509192915050565b6040518060c001604052806006906020820280368337509192915050565b5b80821115612488575f8155600101612475565b5090565b60405180604001604052806002906020820280368337509192915050565b634e487b7160e01b5f52604160045260245ffd5b6040805190810167ffffffffffffffff811182821017156124e1576124e16124aa565b60405290565b604051601f8201601f1916810167ffffffffffffffff81118282101715612510576125106124aa565b604052919050565b80356001600160a01b038116811461252e575f5ffd5b919050565b5f60408284031215612543575f5ffd5b61254b6124be565b905061255682612518565b8152602082013563ffffffff8116811461256e575f5ffd5b602082015292915050565b5f5f6060838503121561258a575f5ffd5b6125948484612533565b91506125a260408401612518565b90509250929050565b5f82601f8301126125ba575f5ffd5b6125c460406124e7565b8060408401858111156125d5575f5ffd5b845b818110156125ef5780358452602093840193016125d7565b509095945050505050565b5f5f82840360c081121561260c575f5ffd5b6040811215612619575f5ffd5b6126216124be565b843581526020808601359082015292506080603f1982011215612642575f5ffd5b5061264b6124be565b61265885604086016125ab565b815261266785608086016125ab565b6020820152809150509250929050565b5f81518084528060208401602086015e5f602082860101526020601f19601f83011685010191505092915050565b602081525f610e9d6020830184612677565b5f5f83601f8401126126c7575f5ffd5b50813567ffffffffffffffff8111156126de575f5ffd5b602083019150836020828501011115610b00575f5ffd5b5f5f5f5f60808587031215612708575f5ffd5b61271185612518565b93506127208660208701612533565b9250606085013567ffffffffffffffff81111561273b575f5ffd5b612747878288016126b7565b95989497509550505050565b5f60408284031215612763575f5ffd5b610e9d8383612533565b634e487b7160e01b5f52602160045260245ffd5b6003811061279d57634e487b7160e01b5f52602160045260245ffd5b9052565b602081016104ea8284612781565b5f5f606083850312156127c0575f5ffd5b6127c983612518565b91506125a28460208501612533565b805f5b60028110156117dc5781518452602093840193909101906001016127db565b5f60c082019050835182526020840151602083015261281d6040830184516127d8565b602083015161282f60808401826127d8565b509392505050565b5f5f5f5f5f5f60a0878903121561284c575f5ffd5b61285587612518565b95506128648860208901612533565b9450606087013567ffffffffffffffff81111561287f575f5ffd5b61288b89828a016126b7565b909550935050608087013567ffffffffffffffff8111156128aa575f5ffd5b6128b689828a016126b7565b979a9699509497509295939492505050565b5f5f5f608084860312156128da575f5ffd5b6128e384612518565b92506128f28560208601612533565b915061290060608501612518565b90509250925092565b5f60208284031215612919575f5ffd5b5035919050565b5f5f60608385031215612931575f5ffd5b61293b8484612533565b915060408301356003811061294e575f5ffd5b809150509250929050565b600181811c9082168061296d57607f821691505b60208210810361298b57634e487b7160e01b5f52602260045260245ffd5b50919050565b805160208201516001600160601b03198116919060148210156129ce576001600160601b03196001600160601b03198360140360031b1b82161692505b5050919050565b634e487b7160e01b5f52603260045260245ffd5b818382375f9101908152919050565b6001600160a01b038316815260608101610e9d602083018480516001600160a01b0316825260209081015163ffffffff16910152565b5f60208284031215612a3e575f5ffd5b81518015158114610e9d575f5ffd5b82516001600160a01b0316815260208084015163ffffffff169082015260608101610e9d6040830184612781565b5f82601f830112612a8a575f5ffd5b612a9460406124e7565b806040840185811115612aa5575f5ffd5b845b818110156125ef578051845260209384019301612aa7565b5f5f5f5f60c08587031215612ad2575f5ffd5b845160208601519094509250612aeb8660408701612a7b565b9150612afa8660808701612a7b565b905092959194509250565b84516001600160a01b0316815260208086015163ffffffff1690820152612b2f6040820185612781565b60806060820152816080820152818360a08301375f81830160a090810191909152601f909201601f191601019392505050565b8051602080830151919081101561298b575f1960209190910360031b1b16919050565b80356001600160601b03198116906014841015612bbc576001600160601b03196001600160601b03198560140360031b1b82161691505b5092915050565b5f5f5f5f60c08587031215612bd6575f5ffd5b8435935060208501359250612bee86604087016125ab565b9150612afa86608087016125ab565b5f5f60408385031215612c0e575f5ffd5b50508035926020909101359150565b601f821115612c6457805f5260205f20601f840160051c81016020851015612c425750805b601f840160051c820191505b81811015612c61575f8155600101612c4e565b50505b505050565b815167ffffffffffffffff811115612c8357612c836124aa565b612c9781612c918454612959565b84612c1d565b6020601f821160018114612cc9575f8315612cb25750848201515b5f19600385901b1c1916600184901b178455612c61565b5f84815260208120601f198516915b82811015612cf85787850151825560209485019460019092019101612cd8565b5084821015612d1557868401515f19600387901b60f8161c191681555b50505050600190811b01905550565b5f82612d3e57634e487b7160e01b5f52601260045260245ffd5b500690565b634e487b7160e01b5f52601160045260245ffd5b80820281158282048414176104ea576104ea612d43565b808201808211156104ea576104ea612d43565b828152604060208201525f612d996040830184612677565b949350505050565b5f82518060208501845e5f920191825250919050565b5f60208284031215612dc7575f5ffd5b505191905056fe30644e72e131a029b85045b68181585d97816a916871ca8d3c208c16d87cfd47a26469706673582212204a73b0e905ca69f8d4cb09eb724c73d09df6abae039ad3012f177bb6208d901e64736f6c634300081b0033",
    "linkReferences": {}
  },
  "methodIdentifiers": {
    "BN254_KEY_REGISTRATION_TYPEHASH()": "b05c8f6d",
    "ECDSA_KEY_REGISTRATION_TYPEHASH()": "166aa127",
    "allocationManager()": "ca8aa7c7",
    "checkKey((address,uint32),address)": "0a6ac264",
    "configureOperatorSet((address,uint32),uint8)": "ea0d8149",
    "deregisterKey(address,(address,uint32))": "87ab86f4",
    "domainSeparator()": "f698da25",
    "encodeBN254KeyData((uint256,uint256),(uint256[2],uint256[2]))": "50435add",
    "getBN254Key((address,uint32),address)": "9a43e3fb",
    "getBN254KeyRegistrationMessageHash(address,(address,uint32),bytes)": "7690e395",
    "getECDSAAddress((address,uint32),address)": "3b32a7bd",
    "getECDSAKey((address,uint32),address)": "aa165c30",
    "getECDSAKeyRegistrationMessageHash(address,(address,uint32),address)": "d9f12db2",
    "getKeyHash((address,uint32),address)": "ea194e2e",
    "getOperatorSetCurveType((address,uint32))": "7cffe48c",
    "isKeyGloballyRegistered(bytes32)": "dab42d7e",
    "isRegistered((address,uint32),address)": "bd30a0b9",
    "permissionController()": "4657e26a",
    "registerKey(address,(address,uint32),bytes,bytes)": "d40cda16",
    "version()": "54fd4d50"
  },
  "id": 182
}