{
  "abi": [
    {
      "type": "constructor",
      "inputs": [],
      "stateMutability": "nonpayable"
    },
    {
      "type": "function",
      "name": "DEFAULT_ADMIN_ROLE",
      "inputs": [],
      "outputs": [
        {
          "name": "",
          "type": "bytes32",
          "internalType": "bytes32"
        }
      ],
      "stateMutability": "view"
    },
    {
      "type": "function",
      "name": "PAUSER_ROLE",
      "inputs": [],
      "outputs": [
        {
          "name": "",
          "type": "bytes32",
          "internalType": "bytes32"
        }
      ],
      "stateMutability": "view"
    },
    {
      "type": "function",
      "name": "configure",
      "inputs": [
        {
          "name": "name",
          "type": "string",
          "internalType": "string"
        },
        {
          "name": "config",
          "type": "tuple",
          "internalType": "struct IProtocolRegistryTypes.DeploymentConfig",
          "components": [
            {
              "name": "pausable",
              "type": "bool",
              "internalType": "bool"
            },
            {
              "name": "deprecated",
              "type": "bool",
              "internalType": "bool"
            }
          ]
        }
      ],
      "outputs": [],
      "stateMutability": "nonpayable"
    },
    {
      "type": "function",
      "name": "getAddress",
      "inputs": [
        {
          "name": "name",
          "type": "string",
          "internalType": "string"
        }
      ],
      "outputs": [
        {
          "name": "",
          "type": "address",
          "internalType": "address"
        }
      ],
      "stateMutability": "view"
    },
    {
      "type": "function",
      "name": "getAllDeployments",
      "inputs": [],
      "outputs": [
        {
          "name": "names",
          "type": "string[]",
          "internalType": "string[]"
        },
        {
          "name": "addresses",
          "type": "address[]",
          "internalType": "address[]"
        },
        {
          "name": "configs",
          "type": "tuple[]",
          "internalType": "struct IProtocolRegistryTypes.DeploymentConfig[]",
          "components": [
            {
              "name": "pausable",
              "type": "bool",
              "internalType": "bool"
            },
            {
              "name": "deprecated",
              "type": "bool",
              "internalType": "bool"
            }
          ]
        }
      ],
      "stateMutability": "view"
    },
    {
      "type": "function",
      "name": "getDeployment",
      "inputs": [
        {
          "name": "name",
          "type": "string",
          "internalType": "string"
        }
      ],
      "outputs": [
        {
          "name": "addr",
          "type": "address",
          "internalType": "address"
        },
        {
          "name": "config",
          "type": "tuple",
          "internalType": "struct IProtocolRegistryTypes.DeploymentConfig",
          "components": [
            {
              "name": "pausable",
              "type": "bool",
              "internalType": "bool"
            },
            {
              "name": "deprecated",
              "type": "bool",
              "internalType": "bool"
            }
          ]
        }
      ],
      "stateMutability": "view"
    },
    {
      "type": "function",
      "name": "getRoleAdmin",
      "inputs": [
        {
          "name": "role",
          "type": "bytes32",
          "internalType": "bytes32"
        }
      ],
      "outputs": [
        {
          "name": "",
          "type": "bytes32",
          "internalType": "bytes32"
        }
      ],
      "stateMutability": "view"
    },
    {
      "type": "function",
      "name": "getRoleMember",
      "inputs": [
        {
          "name": "role",
          "type": "bytes32",
          "internalType": "bytes32"
        },
        {
          "name": "index",
          "type": "uint256",
          "internalType": "uint256"
        }
      ],
      "outputs": [
        {
          "name": "",
          "type": "address",
          "internalType": "address"
        }
      ],
      "stateMutability": "view"
    },
    {
      "type": "function",
      "name": "getRoleMemberCount",
      "inputs": [
        {
          "name": "role",
          "type": "bytes32",
          "internalType": "bytes32"
        }
      ],
      "outputs": [
        {
          "name": "",
          "type": "uint256",
          "internalType": "uint256"
        }
      ],
      "stateMutability": "view"
    },
    {
      "type": "function",
      "name": "grantRole",
      "inputs": [
        {
          "name": "role",
          "type": "bytes32",
          "internalType": "bytes32"
        },
        {
          "name": "account",
          "type": "address",
          "internalType": "address"
        }
      ],
      "outputs": [],
      "stateMutability": "nonpayable"
    },
    {
      "type": "function",
      "name": "hasRole",
      "inputs": [
        {
          "name": "role",
          "type": "bytes32",
          "internalType": "bytes32"
        },
        {
          "name": "account",
          "type": "address",
          "internalType": "address"
        }
      ],
      "outputs": [
        {
          "name": "",
          "type": "bool",
          "internalType": "bool"
        }
      ],
      "stateMutability": "view"
    },
    {
      "type": "function",
      "name": "initialize",
      "inputs": [
        {
          "name": "initialAdmin",
          "type": "address",
          "internalType": "address"
        },
        {
          "name": "pauserMultisig",
          "type": "address",
          "internalType": "address"
        }
      ],
      "outputs": [],
      "stateMutability": "nonpayable"
    },
    {
      "type": "function",
      "name": "majorVersion",
      "inputs": [],
      "outputs": [
        {
          "name": "",
          "type": "string",
          "internalType": "string"
        }
      ],
      "stateMutability": "view"
    },
    {
      "type": "function",
      "name": "pauseAll",
      "inputs": [],
      "outputs": [],
      "stateMutability": "nonpayable"
    },
    {
      "type": "function",
      "name": "renounceRole",
      "inputs": [
        {
          "name": "role",
          "type": "bytes32",
          "internalType": "bytes32"
        },
        {
          "name": "account",
          "type": "address",
          "internalType": "address"
        }
      ],
      "outputs": [],
      "stateMutability": "nonpayable"
    },
    {
      "type": "function",
      "name": "revokeRole",
      "inputs": [
        {
          "name": "role",
          "type": "bytes32",
          "internalType": "bytes32"
        },
        {
          "name": "account",
          "type": "address",
          "internalType": "address"
        }
      ],
      "outputs": [],
      "stateMutability": "nonpayable"
    },
    {
      "type": "function",
      "name": "ship",
      "inputs": [
        {
          "name": "addresses",
          "type": "address[]",
          "internalType": "address[]"
        },
        {
          "name": "configs",
          "type": "tuple[]",
          "internalType": "struct IProtocolRegistryTypes.DeploymentConfig[]",
          "components": [
            {
              "name": "pausable",
              "type": "bool",
              "internalType": "bool"
            },
            {
              "name": "deprecated",
              "type": "bool",
              "internalType": "bool"
            }
          ]
        },
        {
          "name": "names",
          "type": "string[]",
          "internalType": "string[]"
        },
        {
          "name": "semanticVersion",
          "type": "string",
          "internalType": "string"
        }
      ],
      "outputs": [],
      "stateMutability": "nonpayable"
    },
    {
      "type": "function",
      "name": "supportsInterface",
      "inputs": [
        {
          "name": "interfaceId",
          "type": "bytes4",
          "internalType": "bytes4"
        }
      ],
      "outputs": [
        {
          "name": "",
          "type": "bool",
          "internalType": "bool"
        }
      ],
      "stateMutability": "view"
    },
    {
      "type": "function",
      "name": "totalDeployments",
      "inputs": [],
      "outputs": [
        {
          "name": "",
          "type": "uint256",
          "internalType": "uint256"
        }
      ],
      "stateMutability": "view"
    },
    {
      "type": "function",
      "name": "version",
      "inputs": [],
      "outputs": [
        {
          "name": "",
          "type": "string",
          "internalType": "string"
        }
      ],
      "stateMutability": "view"
    },
    {
      "type": "event",
      "name": "DeploymentConfigDeleted",
      "inputs": [
        {
          "name": "addr",
          "type": "address",
          "indexed": true,
          "internalType": "address"
        }
      ],
      "anonymous": false
    },
    {
      "type": "event",
      "name": "DeploymentConfigured",
      "inputs": [
        {
          "name": "addr",
          "type": "address",
          "indexed": true,
          "internalType": "address"
        },
        {
          "name": "config",
          "type": "tuple",
          "indexed": false,
          "internalType": "struct IProtocolRegistryTypes.DeploymentConfig",
          "components": [
            {
              "name": "pausable",
              "type": "bool",
              "internalType": "bool"
            },
            {
              "name": "deprecated",
              "type": "bool",
              "internalType": "bool"
            }
          ]
        }
      ],
      "anonymous": false
    },
    {
      "type": "event",
      "name": "DeploymentShipped",
      "inputs": [
        {
          "name": "addr",
          "type": "address",
          "indexed": true,
          "internalType": "address"
        },
        {
          "name": "config",
          "type": "tuple",
          "indexed": false,
          "internalType": "struct IProtocolRegistryTypes.DeploymentConfig",
          "components": [
            {
              "name": "pausable",
              "type": "bool",
              "internalType": "bool"
            },
            {
              "name": "deprecated",
              "type": "bool",
              "internalType": "bool"
            }
          ]
        }
      ],
      "anonymous": false
    },
    {
      "type": "event",
      "name": "Initialized",
      "inputs": [
        {
          "name": "version",
          "type": "uint8",
          "indexed": false,
          "internalType": "uint8"
        }
      ],
      "anonymous": false
    },
    {
      "type": "event",
      "name": "RoleAdminChanged",
      "inputs": [
        {
          "name": "role",
          "type": "bytes32",
          "indexed": true,
          "internalType": "bytes32"
        },
        {
          "name": "previousAdminRole",
          "type": "bytes32",
          "indexed": true,
          "internalType": "bytes32"
        },
        {
          "name": "newAdminRole",
          "type": "bytes32",
          "indexed": true,
          "internalType": "bytes32"
        }
      ],
      "anonymous": false
    },
    {
      "type": "event",
      "name": "RoleGranted",
      "inputs": [
        {
          "name": "role",
          "type": "bytes32",
          "indexed": true,
          "internalType": "bytes32"
        },
        {
          "name": "account",
          "type": "address",
          "indexed": true,
          "internalType": "address"
        },
        {
          "name": "sender",
          "type": "address",
          "indexed": true,
          "internalType": "address"
        }
      ],
      "anonymous": false
    },
    {
      "type": "event",
      "name": "RoleRevoked",
      "inputs": [
        {
          "name": "role",
          "type": "bytes32",
          "indexed": true,
          "internalType": "bytes32"
        },
        {
          "name": "account",
          "type": "address",
          "indexed": true,
          "internalType": "address"
        },
        {
          "name": "sender",
          "type": "address",
          "indexed": true,
          "internalType": "address"
        }
      ],
      "anonymous": false
    },
    {
      "type": "event",
      "name": "SemanticVersionUpdated",
      "inputs": [
        {
          "name": "previousSemanticVersion",
          "type": "string",
          "indexed": false,
          "internalType": "string"
        },
        {
          "name": "semanticVersion",
          "type": "string",
          "indexed": false,
          "internalType": "string"
        }
      ],
      "anonymous": false
    },
    {
      "type": "error",
      "name": "ArrayLengthMismatch",
      "inputs": []
    },
    {
      "type": "error",
      "name": "DeploymentNotShipped",
      "inputs": []
    },
    {
      "type": "error",
      "name": "InputAddressZero",
      "inputs": []
    },
    {
      "type": "error",
      "name": "InputNameEmpty",
      "inputs": []
    },
    {
      "type": "error",
      "name": "InvalidShortString",
      "inputs": []
    },
    {
      "type": "error",
      "name": "StringTooLong",
      "inputs": [
        {
          "name": "str",
          "type": "string",
          "internalType": "string"
        }
      ]
    }
  ],
  "bytecode": {
    "object": "0x6080604052348015600e575f5ffd5b5060156019565b60d3565b5f54610100900460ff161560835760405162461bcd60e51b815260206004820152602760248201527f496e697469616c697a61626c653a20636f6e747261637420697320696e697469604482015266616c697a696e6760c81b606482015260840160405180910390fd5b5f5460ff9081161460d1575f805460ff191660ff9081179091556040519081527f7f26b83ff96e1f2b6a682f133852f6798a09c465da95921460cefb38474024989060200160405180910390a15b565b611b62806100e05f395ff3fe608060405234801561000f575f5ffd5b5060043610610127575f3560e01c806391d14854116100a9578063ca15c8731161006e578063ca15c87314610286578063d547741f14610299578063e63ab1e9146102ac578063fb35b4e4146102b7578063fc434a8a146102bf575f5ffd5b806391d1485414610230578063a217fddf14610243578063a8091d971461024a578063af05a5c51461026b578063bf40fac114610273575f5ffd5b8063485cc955116100ef578063485cc955146101be57806354fd4d50146101d1578063595c6a67146101e65780638eec00b8146101ee5780639010d07c14610205575f5ffd5b806301ffc9a71461012b5780630b6cc4f914610153578063248a9ca3146101685780632f2ff15d1461019857806336568abe146101ab575b5f5ffd5b61013e610139366004611478565b6102d2565b60405190151581526020015b60405180910390f35b6101666101613660046114dc565b6102fc565b005b61018a610176366004611535565b5f9081526065602052604090206001015490565b60405190815260200161014a565b6101666101a6366004611567565b6103e8565b6101666101b9366004611567565b610411565b6101666101cc366004611591565b610494565b6101d96105b1565b60405161014a91906115e7565b6101666105c3565b6101f66106a3565b60405161014a9392919061164c565b610218610213366004611709565b610876565b6040516001600160a01b03909116815260200161014a565b61013e61023e366004611567565b610894565b61018a5f81565b61025d610258366004611729565b6108be565b60405161014a929190611767565b6101d9610967565b610218610281366004611729565b6109be565b61018a610294366004611535565b610a03565b6101666102a7366004611567565b610a19565b61018a600160f81b81565b61018a610a3d565b6101666102cd3660046117d2565b610a48565b5f6001600160e01b03198216635a05180f60e01b14806102f657506102f682610ba4565b92915050565b5f61030681610bd8565b5f5f61035761034f61034c88888080601f0160208091040260200160405190810160405280939291908181526020018383808284375f92019190915250610be592505050565b90565b60ca90610c22565b91509150816103795760405163732e48b560e11b815260040160405180910390fd5b6001600160a01b0381165f90815260cd60205260409020849061039c82826118da565b905050806001600160a01b03167f6c5879ec82f910f6d12844857cfb8eb474dcecc9aa5b8257c7a77dcb42990e9d856040516103d89190611920565b60405180910390a2505050505050565b5f8281526065602052604090206001015461040281610bd8565b61040c8383610c3d565b505050565b6001600160a01b03811633146104865760405162461bcd60e51b815260206004820152602f60248201527f416363657373436f6e74726f6c3a2063616e206f6e6c792072656e6f756e636560448201526e103937b632b9903337b91039b2b63360891b60648201526084015b60405180910390fd5b6104908282610c5e565b5050565b5f54610100900460ff16158080156104b257505f54600160ff909116105b806104cb5750303b1580156104cb57505f5460ff166001145b61052e5760405162461bcd60e51b815260206004820152602e60248201527f496e697469616c697a61626c653a20636f6e747261637420697320616c72656160448201526d191e481a5b9a5d1a585b1a5e995960921b606482015260840161047d565b5f805460ff19166001179055801561054f575f805461ff0019166101001790555b6105595f84610c3d565b610567600160f81b83610c3d565b801561040c575f805461ff0019169055604051600181527f7f26b83ff96e1f2b6a682f133852f6798a09c465da95921460cefb3847402498906020015b60405180910390a1505050565b60606105be60c954610c7f565b905090565b600160f81b6105d181610bd8565b5f6105da610a3d565b90505f5b8181101561040c575f6105f260ca83610cbc565b6001600160a01b0381165f90815260cd602090815260409182902082518084019093525460ff80821615801580865261010090930490911615159284019290925292945090925061064557508060200151155b1561069957816001600160a01b031663595c6a676040518163ffffffff1660e01b81526004015f604051808303815f87803b158015610682575f5ffd5b505af1158015610694573d5f5f3e3d5ffd5b505050505b50506001016105de565b60608060605f6106b1610a3d565b9050806001600160401b038111156106cb576106cb611950565b6040519080825280602002602001820160405280156106fe57816020015b60608152602001906001900390816106e95790505b509350806001600160401b0381111561071957610719611950565b604051908082528060200260200182016040528015610742578160200160208202803683370190505b509250806001600160401b0381111561075d5761075d611950565b6040519080825280602002602001820160405280156107a157816020015b604080518082019091525f808252602082015281526020019060019003908161077b5790505b5091505f5b8181101561086f575f806107bb60ca84610cbc565b90925090506107c982610c7f565b8784815181106107db576107db611964565b6020026020010181905250808684815181106107f9576107f9611964565b6001600160a01b039283166020918202929092018101919091529082165f90815260cd825260409081902081518083019092525460ff8082161515835261010090910416151591810191909152855186908590811061085a5761085a611964565b602090810291909101015250506001016107a6565b5050909192565b5f82815260976020526040812061088d9083610cca565b9392505050565b5f9182526065602090815260408084206001600160a01b0393909316845291905290205460ff1690565b604080518082019091525f808252602082018190529061092061091861034c86868080601f0160208091040260200160405190810160405280939291908181526020018383808284375f92019190915250610be592505050565b60ca90610cd5565b6001600160a01b0381165f90815260cd602090815260409182902082518084019093525460ff808216151584526101009091041615159082015290925090505b9250929050565b60605f61097560c954610c7f565b9050805f8151811061098957610989611964565b016020908101516040516001600160f81b03199091169181019190915260210160405160208183030381529060405291505090565b5f61088d61091861034c85858080601f0160208091040260200160405190810160405280939291908181526020018383808284375f92019190915250610be592505050565b5f8181526097602052604081206102f690610ce0565b5f82815260656020526040902060010154610a3381610bd8565b61040c8383610c5e565b5f6105be60ca610ce9565b5f610a5281610bd8565b8786148015610a6057508584145b610a7d5760405163512509d360e11b815260040160405180910390fd5b610a878383610cf3565b5f5b88811015610b98575f8a8a83818110610aa457610aa4611964565b9050602002016020810190610ab99190611978565b6001600160a01b031603610ae0576040516339b190bb60e11b815260040160405180910390fd5b5f868683818110610af357610af3611964565b9050602002810190610b059190611991565b905011610b2557604051630866694d60e01b815260040160405180910390fd5b610b908a8a83818110610b3a57610b3a611964565b9050602002016020810190610b4f9190611978565b898984818110610b6157610b61611964565b905060400201888885818110610b7957610b79611964565b9050602002810190610b8b9190611991565b610d76565b600101610a89565b50505050505050505050565b5f6001600160e01b03198216637965db0b60e01b14806102f657506301ffc9a760e01b6001600160e01b03198316146102f6565b610be28133610eb3565b50565b5f5f829050601f81511115610c0f578260405163305a27a960e01b815260040161047d91906115e7565b8051610c1a826119d3565b179392505050565b5f808080610c308686610f0c565b9097909650945050505050565b610c478282610f44565b5f82815260976020526040902061040c9082610fc9565b610c688282610fdd565b5f82815260976020526040902061040c9082611043565b60605f610c8b83611057565b6040805160208082528183019092529192505f91906020820181803683375050509182525060208101929092525090565b5f808080610c30868661107e565b5f61088d83836110a7565b5f61088d83836110cd565b5f6102f6825490565b5f6102f68261113c565b5f610cff60c954610c7f565b9050610d3f83838080601f0160208091040260200160405190810160405280939291908181526020018383808284375f92019190915250610be592505050565b60c9556040517f769656e5cb3218f54758f85bd184d41e987639374d6cb9e244439cc9d1abe1e2906105a4908390869086906119f9565b5f610db861034c84848080601f0160208091040260200160405190810160405280939291908181526020018383808284375f92019190915250610be592505050565b90505f80610dc760ca84610c22565b91509150818015610dea5750866001600160a01b0316816001600160a01b031614155b15610e36576001600160a01b0381165f81815260cd6020526040808220805461ffff19169055517fa69cccaa8b056f2577aa7e06e1eb14ae0eb526356819b9403f5b31f41f3bc5099190a25b610e4260ca8489611146565b506001600160a01b0387165f90815260cd602052604090208690610e6682826118da565b905050866001600160a01b03167f4e81e5495dbc85919bf1b9c12a9a4bb6d546f75d3f92fa0a36867fc29a51467c87604051610ea29190611920565b60405180910390a250505050505050565b610ebd8282610894565b61049057610eca81611163565b610ed5836020611175565b604051602001610ee6929190611a54565b60408051601f198184030181529082905262461bcd60e51b825261047d916004016115e7565b5f818152600283016020526040812054819080610f3957610f2d858561130a565b92505f91506109609050565b600192509050610960565b610f4e8282610894565b610490575f8281526065602090815260408083206001600160a01b03851684529091529020805460ff19166001179055610f853390565b6001600160a01b0316816001600160a01b0316837f2f8788117e7eff1d82e926ec794901d17c78024a50270940304540a733656f0d60405160405180910390a45050565b5f61088d836001600160a01b038416611327565b610fe78282610894565b15610490575f8281526065602090815260408083206001600160a01b0385168085529252808320805460ff1916905551339285917ff6391f5c32d9c69d2a47ea670b442974b53935d1edc7fd64eb21e047a839171b9190a45050565b5f61088d836001600160a01b038416611373565b5f60ff8216601f8111156102f657604051632cd44ac360e21b815260040160405180910390fd5b5f808061108b8585610cca565b5f81815260029690960160205260409095205494959350505050565b5f825f0182815481106110bc576110bc611964565b905f5260205f200154905092915050565b5f818152600283016020526040812054801515806110f057506110f0848461130a565b61088d5760405162461bcd60e51b815260206004820152601e60248201527f456e756d657261626c654d61703a206e6f6e6578697374656e74206b65790000604482015260640161047d565b5f6102f682610ce0565b5f61115b84846001600160a01b038516611456565b949350505050565b60606102f66001600160a01b03831660145b60605f611183836002611ac6565b61118e906002611add565b6001600160401b038111156111a5576111a5611950565b6040519080825280601f01601f1916602001820160405280156111cf576020820181803683370190505b509050600360fc1b815f815181106111e9576111e9611964565b60200101906001600160f81b03191690815f1a905350600f60fb1b8160018151811061121757611217611964565b60200101906001600160f81b03191690815f1a9053505f611239846002611ac6565b611244906001611add565b90505b60018111156112bb576f181899199a1a9b1b9c1cb0b131b232b360811b85600f166010811061127857611278611964565b1a60f81b82828151811061128e5761128e611964565b60200101906001600160f81b03191690815f1a90535060049490941c936112b481611af0565b9050611247565b50831561088d5760405162461bcd60e51b815260206004820181905260248201527f537472696e67733a20686578206c656e67746820696e73756666696369656e74604482015260640161047d565b5f61088d83835f818152600183016020526040812054151561088d565b5f81815260018301602052604081205461136c57508154600181810184555f8481526020808220909301849055845484825282860190935260409020919091556102f6565b505f6102f6565b5f818152600183016020526040812054801561144d575f611395600183611b05565b85549091505f906113a890600190611b05565b9050818114611407575f865f0182815481106113c6576113c6611964565b905f5260205f200154905080875f0184815481106113e6576113e6611964565b5f918252602080832090910192909255918252600188019052604090208390555b855486908061141857611418611b18565b600190038181905f5260205f20015f90559055856001015f8681526020019081526020015f205f9055600193505050506102f6565b5f9150506102f6565b5f828152600284016020526040812082905561115b84845f61088d8383611327565b5f60208284031215611488575f5ffd5b81356001600160e01b03198116811461088d575f5ffd5b5f5f83601f8401126114af575f5ffd5b5081356001600160401b038111156114c5575f5ffd5b602083019150836020828501011115610960575f5ffd5b5f5f5f83850360608112156114ef575f5ffd5b84356001600160401b03811115611504575f5ffd5b6115108782880161149f565b9095509350506040601f1982011215611527575f5ffd5b506020840190509250925092565b5f60208284031215611545575f5ffd5b5035919050565b80356001600160a01b0381168114611562575f5ffd5b919050565b5f5f60408385031215611578575f5ffd5b823591506115886020840161154c565b90509250929050565b5f5f604083850312156115a2575f5ffd5b6115ab8361154c565b91506115886020840161154c565b5f81518084528060208401602086015e5f602082860101526020601f19601f83011685010191505092915050565b602081525f61088d60208301846115b9565b5f8151808452602084019350602083015f5b828110156116425761162c8683518051151582526020908101511515910152565b604095909501946020919091019060010161160b565b5093949350505050565b5f606082016060835280865180835260808501915060808160051b8601019250602088015f5b828110156116a357607f1987860301845261168e8583516115b9565b94506020938401939190910190600101611672565b5050505082810360208401528085518083526020830191506020870192505f5b818110156116ea5783516001600160a01b03168352602093840193909201916001016116c3565b505083810360408501526116fe81866115f9565b979650505050505050565b5f5f6040838503121561171a575f5ffd5b50508035926020909101359150565b5f5f6020838503121561173a575f5ffd5b82356001600160401b0381111561174f575f5ffd5b61175b8582860161149f565b90969095509350505050565b6001600160a01b03831681526060810161088d60208301848051151582526020908101511515910152565b5f5f83601f8401126117a2575f5ffd5b5081356001600160401b038111156117b8575f5ffd5b6020830191508360208260051b8501011115610960575f5ffd5b5f5f5f5f5f5f5f5f6080898b0312156117e9575f5ffd5b88356001600160401b038111156117fe575f5ffd5b61180a8b828c01611792565b90995097505060208901356001600160401b03811115611828575f5ffd5b8901601f81018b13611838575f5ffd5b80356001600160401b0381111561184d575f5ffd5b8b60208260061b8401011115611861575f5ffd5b6020919091019650945060408901356001600160401b03811115611883575f5ffd5b61188f8b828c01611792565b90955093505060608901356001600160401b038111156118ad575f5ffd5b6118b98b828c0161149f565b999c989b5096995094979396929594505050565b8015158114610be2575f5ffd5b81356118e5816118cd565b815460ff19811691151560ff1691821783556020840135611905816118cd565b61ffff199190911690911790151560081b61ff001617905550565b60408101823561192f816118cd565b151582526020830135611941816118cd565b80151560208401525092915050565b634e487b7160e01b5f52604160045260245ffd5b634e487b7160e01b5f52603260045260245ffd5b5f60208284031215611988575f5ffd5b61088d8261154c565b5f5f8335601e198436030181126119a6575f5ffd5b8301803591506001600160401b038211156119bf575f5ffd5b602001915036819003821315610960575f5ffd5b805160208083015191908110156119f3575f198160200360031b1b821691505b50919050565b604081525f611a0b60408301866115b9565b8281036020840152838152838560208301375f602085830101526020601f19601f860116820101915050949350505050565b5f81518060208401855e5f93019283525090919050565b7f416363657373436f6e74726f6c3a206163636f756e742000000000000000000081525f611a856017830185611a3d565b7001034b99036b4b9b9b4b733903937b6329607d1b8152611aa96011820185611a3d565b95945050505050565b634e487b7160e01b5f52601160045260245ffd5b80820281158282048414176102f6576102f6611ab2565b808201808211156102f6576102f6611ab2565b5f81611afe57611afe611ab2565b505f190190565b818103818111156102f6576102f6611ab2565b634e487b7160e01b5f52603160045260245ffdfea2646970667358221220774dcb259a40d82ca183e5df8ed92673ab82358dc5cd40c8edeaf12196e1f36864736f6c634300081e0033",
    "linkReferences": {}
  },
  "methodIdentifiers": {
    "DEFAULT_ADMIN_ROLE()": "a217fddf",
    "PAUSER_ROLE()": "e63ab1e9",
    "configure(string,(bool,bool))": "0b6cc4f9",
    "getAddress(string)": "bf40fac1",
    "getAllDeployments()": "8eec00b8",
    "getDeployment(string)": "a8091d97",
    "getRoleAdmin(bytes32)": "248a9ca3",
    "getRoleMember(bytes32,uint256)": "9010d07c",
    "getRoleMemberCount(bytes32)": "ca15c873",
    "grantRole(bytes32,address)": "2f2ff15d",
    "hasRole(bytes32,address)": "91d14854",
    "initialize(address,address)": "485cc955",
    "majorVersion()": "af05a5c5",
    "pauseAll()": "595c6a67",
    "renounceRole(bytes32,address)": "36568abe",
    "revokeRole(bytes32,address)": "d547741f",
    "ship(address[],(bool,bool)[],string[],string)": "fc434a8a",
    "supportsInterface(bytes4)": "01ffc9a7",
    "totalDeployments()": "fb35b4e4",
    "version()": "54fd4d50"
  },
  "id": 143
}