{
  "abi": [
    {
      "type": "constructor",
      "inputs": [
        {
          "name": "_bn254CertificateVerifier",
          "type": "address",
          "internalType": "contract IBN254CertificateVerifier"
        },
        {
          "name": "_ecdsaCertificateVerifier",
          "type": "address",
          "internalType": "contract IECDSACertificateVerifier"
        },
        {
          "name": "_pauserRegistry",
          "type": "address",
          "internalType": "contract IPauserRegistry"
        },
        {
          "name": "_version",
          "type": "string",
          "internalType": "string"
        }
      ],
      "stateMutability": "nonpayable"
    },
    {
      "type": "function",
      "name": "GENERATOR_GLOBAL_TABLE_ROOT",
      "inputs": [],
      "outputs": [
        {
          "name": "",
          "type": "bytes32",
          "internalType": "bytes32"
        }
      ],
      "stateMutability": "view"
    },
    {
      "type": "function",
      "name": "GENERATOR_MAX_STALENESS_PERIOD",
      "inputs": [],
      "outputs": [
        {
          "name": "",
          "type": "uint32",
          "internalType": "uint32"
        }
      ],
      "stateMutability": "view"
    },
    {
      "type": "function",
      "name": "GENERATOR_REFERENCE_TIMESTAMP",
      "inputs": [],
      "outputs": [
        {
          "name": "",
          "type": "uint32",
          "internalType": "uint32"
        }
      ],
      "stateMutability": "view"
    },
    {
      "type": "function",
      "name": "GLOBAL_TABLE_ROOT_CERT_TYPEHASH",
      "inputs": [],
      "outputs": [
        {
          "name": "",
          "type": "bytes32",
          "internalType": "bytes32"
        }
      ],
      "stateMutability": "view"
    },
    {
      "type": "function",
      "name": "MAX_BPS",
      "inputs": [],
      "outputs": [
        {
          "name": "",
          "type": "uint16",
          "internalType": "uint16"
        }
      ],
      "stateMutability": "view"
    },
    {
      "type": "function",
      "name": "bn254CertificateVerifier",
      "inputs": [],
      "outputs": [
        {
          "name": "",
          "type": "address",
          "internalType": "contract IBN254CertificateVerifier"
        }
      ],
      "stateMutability": "view"
    },
    {
      "type": "function",
      "name": "confirmGlobalTableRoot",
      "inputs": [
        {
          "name": "globalTableRootCert",
          "type": "tuple",
          "internalType": "struct IBN254CertificateVerifierTypes.BN254Certificate",
          "components": [
            {
              "name": "referenceTimestamp",
              "type": "uint32",
              "internalType": "uint32"
            },
            {
              "name": "messageHash",
              "type": "bytes32",
              "internalType": "bytes32"
            },
            {
              "name": "signature",
              "type": "tuple",
              "internalType": "struct BN254.G1Point",
              "components": [
                {
                  "name": "X",
                  "type": "uint256",
                  "internalType": "uint256"
                },
                {
                  "name": "Y",
                  "type": "uint256",
                  "internalType": "uint256"
                }
              ]
            },
            {
              "name": "apk",
              "type": "tuple",
              "internalType": "struct BN254.G2Point",
              "components": [
                {
                  "name": "X",
                  "type": "uint256[2]",
                  "internalType": "uint256[2]"
                },
                {
                  "name": "Y",
                  "type": "uint256[2]",
                  "internalType": "uint256[2]"
                }
              ]
            },
            {
              "name": "nonSignerWitnesses",
              "type": "tuple[]",
              "internalType": "struct IBN254CertificateVerifierTypes.BN254OperatorInfoWitness[]",
              "components": [
                {
                  "name": "operatorIndex",
                  "type": "uint32",
                  "internalType": "uint32"
                },
                {
                  "name": "operatorInfoProof",
                  "type": "bytes",
                  "internalType": "bytes"
                },
                {
                  "name": "operatorInfo",
                  "type": "tuple",
                  "internalType": "struct IOperatorTableCalculatorTypes.BN254OperatorInfo",
                  "components": [
                    {
                      "name": "pubkey",
                      "type": "tuple",
                      "internalType": "struct BN254.G1Point",
                      "components": [
                        {
                          "name": "X",
                          "type": "uint256",
                          "internalType": "uint256"
                        },
                        {
                          "name": "Y",
                          "type": "uint256",
                          "internalType": "uint256"
                        }
                      ]
                    },
                    {
                      "name": "weights",
                      "type": "uint256[]",
                      "internalType": "uint256[]"
                    }
                  ]
                }
              ]
            }
          ]
        },
        {
          "name": "globalTableRoot",
          "type": "bytes32",
          "internalType": "bytes32"
        },
        {
          "name": "referenceTimestamp",
          "type": "uint32",
          "internalType": "uint32"
        },
        {
          "name": "referenceBlockNumber",
          "type": "uint32",
          "internalType": "uint32"
        }
      ],
      "outputs": [],
      "stateMutability": "nonpayable"
    },
    {
      "type": "function",
      "name": "disableRoot",
      "inputs": [
        {
          "name": "globalTableRoot",
          "type": "bytes32",
          "internalType": "bytes32"
        }
      ],
      "outputs": [],
      "stateMutability": "nonpayable"
    },
    {
      "type": "function",
      "name": "ecdsaCertificateVerifier",
      "inputs": [],
      "outputs": [
        {
          "name": "",
          "type": "address",
          "internalType": "contract IECDSACertificateVerifier"
        }
      ],
      "stateMutability": "view"
    },
    {
      "type": "function",
      "name": "getCertificateVerifier",
      "inputs": [
        {
          "name": "curveType",
          "type": "uint8",
          "internalType": "enum IKeyRegistrarTypes.CurveType"
        }
      ],
      "outputs": [
        {
          "name": "",
          "type": "address",
          "internalType": "address"
        }
      ],
      "stateMutability": "view"
    },
    {
      "type": "function",
      "name": "getCurrentGlobalTableRoot",
      "inputs": [],
      "outputs": [
        {
          "name": "",
          "type": "bytes32",
          "internalType": "bytes32"
        }
      ],
      "stateMutability": "view"
    },
    {
      "type": "function",
      "name": "getGenerator",
      "inputs": [],
      "outputs": [
        {
          "name": "",
          "type": "tuple",
          "internalType": "struct OperatorSet",
          "components": [
            {
              "name": "avs",
              "type": "address",
              "internalType": "address"
            },
            {
              "name": "id",
              "type": "uint32",
              "internalType": "uint32"
            }
          ]
        }
      ],
      "stateMutability": "view"
    },
    {
      "type": "function",
      "name": "getGeneratorConfig",
      "inputs": [],
      "outputs": [
        {
          "name": "",
          "type": "tuple",
          "internalType": "struct ICrossChainRegistryTypes.OperatorSetConfig",
          "components": [
            {
              "name": "owner",
              "type": "address",
              "internalType": "address"
            },
            {
              "name": "maxStalenessPeriod",
              "type": "uint32",
              "internalType": "uint32"
            }
          ]
        }
      ],
      "stateMutability": "view"
    },
    {
      "type": "function",
      "name": "getGeneratorReferenceTimestamp",
      "inputs": [],
      "outputs": [
        {
          "name": "",
          "type": "uint32",
          "internalType": "uint32"
        }
      ],
      "stateMutability": "view"
    },
    {
      "type": "function",
      "name": "getGlobalTableRootByTimestamp",
      "inputs": [
        {
          "name": "referenceTimestamp",
          "type": "uint32",
          "internalType": "uint32"
        }
      ],
      "outputs": [
        {
          "name": "",
          "type": "bytes32",
          "internalType": "bytes32"
        }
      ],
      "stateMutability": "view"
    },
    {
      "type": "function",
      "name": "getGlobalTableUpdateMessageHash",
      "inputs": [
        {
          "name": "globalTableRoot",
          "type": "bytes32",
          "internalType": "bytes32"
        },
        {
          "name": "referenceTimestamp",
          "type": "uint32",
          "internalType": "uint32"
        },
        {
          "name": "referenceBlockNumber",
          "type": "uint32",
          "internalType": "uint32"
        }
      ],
      "outputs": [
        {
          "name": "",
          "type": "bytes32",
          "internalType": "bytes32"
        }
      ],
      "stateMutability": "pure"
    },
    {
      "type": "function",
      "name": "getLatestReferenceBlockNumber",
      "inputs": [],
      "outputs": [
        {
          "name": "",
          "type": "uint32",
          "internalType": "uint32"
        }
      ],
      "stateMutability": "view"
    },
    {
      "type": "function",
      "name": "getLatestReferenceTimestamp",
      "inputs": [],
      "outputs": [
        {
          "name": "",
          "type": "uint32",
          "internalType": "uint32"
        }
      ],
      "stateMutability": "view"
    },
    {
      "type": "function",
      "name": "getReferenceBlockNumberByTimestamp",
      "inputs": [
        {
          "name": "referenceTimestamp",
          "type": "uint32",
          "internalType": "uint32"
        }
      ],
      "outputs": [
        {
          "name": "",
          "type": "uint32",
          "internalType": "uint32"
        }
      ],
      "stateMutability": "view"
    },
    {
      "type": "function",
      "name": "getReferenceTimestampByBlockNumber",
      "inputs": [
        {
          "name": "referenceBlockNumber",
          "type": "uint32",
          "internalType": "uint32"
        }
      ],
      "outputs": [
        {
          "name": "",
          "type": "uint32",
          "internalType": "uint32"
        }
      ],
      "stateMutability": "view"
    },
    {
      "type": "function",
      "name": "globalRootConfirmationThreshold",
      "inputs": [],
      "outputs": [
        {
          "name": "",
          "type": "uint16",
          "internalType": "uint16"
        }
      ],
      "stateMutability": "view"
    },
    {
      "type": "function",
      "name": "initialize",
      "inputs": [
        {
          "name": "_owner",
          "type": "address",
          "internalType": "address"
        },
        {
          "name": "initialPausedStatus",
          "type": "uint256",
          "internalType": "uint256"
        },
        {
          "name": "_initialGenerator",
          "type": "tuple",
          "internalType": "struct OperatorSet",
          "components": [
            {
              "name": "avs",
              "type": "address",
              "internalType": "address"
            },
            {
              "name": "id",
              "type": "uint32",
              "internalType": "uint32"
            }
          ]
        },
        {
          "name": "_globalRootConfirmationThreshold",
          "type": "uint16",
          "internalType": "uint16"
        },
        {
          "name": "generatorInfo",
          "type": "tuple",
          "internalType": "struct IOperatorTableCalculatorTypes.BN254OperatorSetInfo",
          "components": [
            {
              "name": "operatorInfoTreeRoot",
              "type": "bytes32",
              "internalType": "bytes32"
            },
            {
              "name": "numOperators",
              "type": "uint256",
              "internalType": "uint256"
            },
            {
              "name": "aggregatePubkey",
              "type": "tuple",
              "internalType": "struct BN254.G1Point",
              "components": [
                {
                  "name": "X",
                  "type": "uint256",
                  "internalType": "uint256"
                },
                {
                  "name": "Y",
                  "type": "uint256",
                  "internalType": "uint256"
                }
              ]
            },
            {
              "name": "totalWeights",
              "type": "uint256[]",
              "internalType": "uint256[]"
            }
          ]
        }
      ],
      "outputs": [],
      "stateMutability": "nonpayable"
    },
    {
      "type": "function",
      "name": "isRootValid",
      "inputs": [
        {
          "name": "globalTableRoot",
          "type": "bytes32",
          "internalType": "bytes32"
        }
      ],
      "outputs": [
        {
          "name": "",
          "type": "bool",
          "internalType": "bool"
        }
      ],
      "stateMutability": "view"
    },
    {
      "type": "function",
      "name": "isRootValidByTimestamp",
      "inputs": [
        {
          "name": "referenceTimestamp",
          "type": "uint32",
          "internalType": "uint32"
        }
      ],
      "outputs": [
        {
          "name": "",
          "type": "bool",
          "internalType": "bool"
        }
      ],
      "stateMutability": "view"
    },
    {
      "type": "function",
      "name": "owner",
      "inputs": [],
      "outputs": [
        {
          "name": "",
          "type": "address",
          "internalType": "address"
        }
      ],
      "stateMutability": "view"
    },
    {
      "type": "function",
      "name": "pause",
      "inputs": [
        {
          "name": "newPausedStatus",
          "type": "uint256",
          "internalType": "uint256"
        }
      ],
      "outputs": [],
      "stateMutability": "nonpayable"
    },
    {
      "type": "function",
      "name": "pauseAll",
      "inputs": [],
      "outputs": [],
      "stateMutability": "nonpayable"
    },
    {
      "type": "function",
      "name": "paused",
      "inputs": [
        {
          "name": "index",
          "type": "uint8",
          "internalType": "uint8"
        }
      ],
      "outputs": [
        {
          "name": "",
          "type": "bool",
          "internalType": "bool"
        }
      ],
      "stateMutability": "view"
    },
    {
      "type": "function",
      "name": "paused",
      "inputs": [],
      "outputs": [
        {
          "name": "",
          "type": "uint256",
          "internalType": "uint256"
        }
      ],
      "stateMutability": "view"
    },
    {
      "type": "function",
      "name": "pauserRegistry",
      "inputs": [],
      "outputs": [
        {
          "name": "",
          "type": "address",
          "internalType": "contract IPauserRegistry"
        }
      ],
      "stateMutability": "view"
    },
    {
      "type": "function",
      "name": "renounceOwnership",
      "inputs": [],
      "outputs": [],
      "stateMutability": "nonpayable"
    },
    {
      "type": "function",
      "name": "setGlobalRootConfirmationThreshold",
      "inputs": [
        {
          "name": "bps",
          "type": "uint16",
          "internalType": "uint16"
        }
      ],
      "outputs": [],
      "stateMutability": "nonpayable"
    },
    {
      "type": "function",
      "name": "transferOwnership",
      "inputs": [
        {
          "name": "newOwner",
          "type": "address",
          "internalType": "address"
        }
      ],
      "outputs": [],
      "stateMutability": "nonpayable"
    },
    {
      "type": "function",
      "name": "unpause",
      "inputs": [
        {
          "name": "newPausedStatus",
          "type": "uint256",
          "internalType": "uint256"
        }
      ],
      "outputs": [],
      "stateMutability": "nonpayable"
    },
    {
      "type": "function",
      "name": "updateGenerator",
      "inputs": [
        {
          "name": "generator",
          "type": "tuple",
          "internalType": "struct OperatorSet",
          "components": [
            {
              "name": "avs",
              "type": "address",
              "internalType": "address"
            },
            {
              "name": "id",
              "type": "uint32",
              "internalType": "uint32"
            }
          ]
        },
        {
          "name": "generatorInfo",
          "type": "tuple",
          "internalType": "struct IOperatorTableCalculatorTypes.BN254OperatorSetInfo",
          "components": [
            {
              "name": "operatorInfoTreeRoot",
              "type": "bytes32",
              "internalType": "bytes32"
            },
            {
              "name": "numOperators",
              "type": "uint256",
              "internalType": "uint256"
            },
            {
              "name": "aggregatePubkey",
              "type": "tuple",
              "internalType": "struct BN254.G1Point",
              "components": [
                {
                  "name": "X",
                  "type": "uint256",
                  "internalType": "uint256"
                },
                {
                  "name": "Y",
                  "type": "uint256",
                  "internalType": "uint256"
                }
              ]
            },
            {
              "name": "totalWeights",
              "type": "uint256[]",
              "internalType": "uint256[]"
            }
          ]
        }
      ],
      "outputs": [],
      "stateMutability": "nonpayable"
    },
    {
      "type": "function",
      "name": "updateOperatorTable",
      "inputs": [
        {
          "name": "referenceTimestamp",
          "type": "uint32",
          "internalType": "uint32"
        },
        {
          "name": "globalTableRoot",
          "type": "bytes32",
          "internalType": "bytes32"
        },
        {
          "name": "operatorSetIndex",
          "type": "uint32",
          "internalType": "uint32"
        },
        {
          "name": "proof",
          "type": "bytes",
          "internalType": "bytes"
        },
        {
          "name": "operatorTableBytes",
          "type": "bytes",
          "internalType": "bytes"
        }
      ],
      "outputs": [],
      "stateMutability": "nonpayable"
    },
    {
      "type": "function",
      "name": "version",
      "inputs": [],
      "outputs": [
        {
          "name": "",
          "type": "string",
          "internalType": "string"
        }
      ],
      "stateMutability": "view"
    },
    {
      "type": "event",
      "name": "GeneratorUpdated",
      "inputs": [
        {
          "name": "operatorSet",
          "type": "tuple",
          "indexed": false,
          "internalType": "struct OperatorSet",
          "components": [
            {
              "name": "avs",
              "type": "address",
              "internalType": "address"
            },
            {
              "name": "id",
              "type": "uint32",
              "internalType": "uint32"
            }
          ]
        }
      ],
      "anonymous": false
    },
    {
      "type": "event",
      "name": "GlobalRootConfirmationThresholdUpdated",
      "inputs": [
        {
          "name": "bps",
          "type": "uint16",
          "indexed": false,
          "internalType": "uint16"
        }
      ],
      "anonymous": false
    },
    {
      "type": "event",
      "name": "GlobalRootDisabled",
      "inputs": [
        {
          "name": "globalTableRoot",
          "type": "bytes32",
          "indexed": true,
          "internalType": "bytes32"
        }
      ],
      "anonymous": false
    },
    {
      "type": "event",
      "name": "Initialized",
      "inputs": [
        {
          "name": "version",
          "type": "uint8",
          "indexed": false,
          "internalType": "uint8"
        }
      ],
      "anonymous": false
    },
    {
      "type": "event",
      "name": "NewGlobalTableRoot",
      "inputs": [
        {
          "name": "referenceTimestamp",
          "type": "uint32",
          "indexed": true,
          "internalType": "uint32"
        },
        {
          "name": "globalTableRoot",
          "type": "bytes32",
          "indexed": true,
          "internalType": "bytes32"
        }
      ],
      "anonymous": false
    },
    {
      "type": "event",
      "name": "OwnershipTransferred",
      "inputs": [
        {
          "name": "previousOwner",
          "type": "address",
          "indexed": true,
          "internalType": "address"
        },
        {
          "name": "newOwner",
          "type": "address",
          "indexed": true,
          "internalType": "address"
        }
      ],
      "anonymous": false
    },
    {
      "type": "event",
      "name": "Paused",
      "inputs": [
        {
          "name": "account",
          "type": "address",
          "indexed": true,
          "internalType": "address"
        },
        {
          "name": "newPausedStatus",
          "type": "uint256",
          "indexed": false,
          "internalType": "uint256"
        }
      ],
      "anonymous": false
    },
    {
      "type": "event",
      "name": "Unpaused",
      "inputs": [
        {
          "name": "account",
          "type": "address",
          "indexed": true,
          "internalType": "address"
        },
        {
          "name": "newPausedStatus",
          "type": "uint256",
          "indexed": false,
          "internalType": "uint256"
        }
      ],
      "anonymous": false
    },
    {
      "type": "error",
      "name": "CannotDisableGeneratorRoot",
      "inputs": []
    },
    {
      "type": "error",
      "name": "CertificateInvalid",
      "inputs": []
    },
    {
      "type": "error",
      "name": "CurrentlyPaused",
      "inputs": []
    },
    {
      "type": "error",
      "name": "GlobalTableRootInFuture",
      "inputs": []
    },
    {
      "type": "error",
      "name": "GlobalTableRootStale",
      "inputs": []
    },
    {
      "type": "error",
      "name": "InputAddressZero",
      "inputs": []
    },
    {
      "type": "error",
      "name": "InvalidConfirmationThreshold",
      "inputs": []
    },
    {
      "type": "error",
      "name": "InvalidCurveType",
      "inputs": []
    },
    {
      "type": "error",
      "name": "InvalidGenerator",
      "inputs": []
    },
    {
      "type": "error",
      "name": "InvalidGlobalTableRoot",
      "inputs": []
    },
    {
      "type": "error",
      "name": "InvalidMessageHash",
      "inputs": []
    },
    {
      "type": "error",
      "name": "InvalidNewPausedStatus",
      "inputs": []
    },
    {
      "type": "error",
      "name": "InvalidOperatorSet",
      "inputs": []
    },
    {
      "type": "error",
      "name": "InvalidOperatorSetProof",
      "inputs": []
    },
    {
      "type": "error",
      "name": "InvalidProofLength",
      "inputs": []
    },
    {
      "type": "error",
      "name": "InvalidRoot",
      "inputs": []
    },
    {
      "type": "error",
      "name": "InvalidShortString",
      "inputs": []
    },
    {
      "type": "error",
      "name": "OnlyPauser",
      "inputs": []
    },
    {
      "type": "error",
      "name": "OnlyUnpauser",
      "inputs": []
    },
    {
      "type": "error",
      "name": "StringTooLong",
      "inputs": [
        {
          "name": "str",
          "type": "string",
          "internalType": "string"
        }
      ]
    },
    {
      "type": "error",
      "name": "TableUpdateForPastTimestamp",
      "inputs": []
    }
  ],
  "bytecode": {
    "object": "0x610100604052348015610010575f5ffd5b50604051612a12380380612a1283398101604081905261002f916101b9565b808484846001600160a01b03811661005a576040516339b190bb60e11b815260040160405180910390fd5b6001600160a01b0390811660805291821660a0521660c05261007b81610090565b60e052506100876100d6565b505050506102fe565b5f5f829050601f815111156100c3578260405163305a27a960e01b81526004016100ba91906102a3565b60405180910390fd5b80516100ce826102d8565b179392505050565b5f54610100900460ff161561013d5760405162461bcd60e51b815260206004820152602760248201527f496e697469616c697a61626c653a20636f6e747261637420697320696e697469604482015266616c697a696e6760c81b60648201526084016100ba565b5f5460ff9081161461018c575f805460ff191660ff9081179091556040519081527f7f26b83ff96e1f2b6a682f133852f6798a09c465da95921460cefb38474024989060200160405180910390a15b565b6001600160a01b03811681146101a2575f5ffd5b50565b634e487b7160e01b5f52604160045260245ffd5b5f5f5f5f608085870312156101cc575f5ffd5b84516101d78161018e565b60208601519094506101e88161018e565b60408601519093506101f98161018e565b60608601519092506001600160401b03811115610214575f5ffd5b8501601f81018713610224575f5ffd5b80516001600160401b0381111561023d5761023d6101a5565b604051601f8201601f19908116603f011681016001600160401b038111828210171561026b5761026b6101a5565b604052818152828201602001891015610282575f5ffd5b8160208401602083015e5f6020838301015280935050505092959194509250565b602081525f82518060208401528060208501604085015e5f604082850101526040601f19601f83011684010191505092915050565b805160208083015191908110156102f8575f198160200360031b1b821691505b50919050565b60805160a05160c05160e05161269b6103775f395f61088901525f8181610523015281816109230152610c6e01525f818161058a015281816108e30152818161098f01528181610bc901528181610f0c015281816111f501526112a701525f81816104c5015281816113d301526116c5015261269b5ff3fe608060405234801561000f575f5ffd5b506004361061021e575f3560e01c80636f728c501161012a578063b0cb3a24116100b4578063c5916a3911610079578063c5916a39146105f3578063eaaed9d514610618578063f2fde38b1461062b578063fabc1cbc1461063e578063fd967f4714610651575f5ffd5b8063b0cb3a2414610545578063b8c1430614610585578063c252aa22146105ac578063c3621f0a146105cd578063c3be1e33146105e0575f5ffd5b8063886f1195116100fa578063886f1195146104c05780638da5cb5b146104e75780639ea94778146104f85780639f7e206f1461050b578063ad0f95821461051e575f5ffd5b80636f728c501461047e578063715018a6146104a95780637551ba34146104b1578063790961ea146104b9575f5ffd5b806331a599d2116101ab578063595c6a671161017b578063595c6a671461040e5780635ac86ab7146104165780635c975abb14610439578063612abcb01461044157806364e1df8414610449575f5ffd5b806331a599d2146103995780633ef6cd7a146103be5780634624e6a3146103e557806354fd4d50146103f9575f5ffd5b80631e2ca260116101f15780631e2ca260146102c15780632370356c1461030a57806323b7b5b21461031d57806328522d791461034557806330ef41b414610367575f5ffd5b806306f5187514610222578063136439dd14610237578063193b79f31461024a5780631bdc0deb1461028c575b5f5ffd5b6102356102303660046118d3565b61065a565b005b610235610245366004611949565b610834565b610272610258366004611971565b63ffffffff9081165f908152609b60205260409020541690565b60405163ffffffff90911681526020015b60405180910390f35b6102b37fcefe99cb2e240b5f07de5cd472a75fc6e345370b73588ab161cb25c4a259a86981565b604051908152602001610283565b6040805180820182525f80825260209182015281518083019092526098546001600160a01b0381168352600160a01b900463ffffffff16908201525b60405161028391906119b1565b6102356103183660046119bf565b61086e565b61027261032b366004611971565b63ffffffff9081165f908152609a60205260409020541690565b60975462010000900463ffffffff165f908152609960205260409020546102b3565b610389610375366004611949565b5f908152609c602052604090205460ff1690565b6040519015158152602001610283565b60975462010000900463ffffffff9081165f908152609a602052604090205416610272565b6102b37f4491f5ee91595f938885ef73c9a1fa8a6d14ff9b9dab4aa24b8802bbb9bfc1cc81565b60975462010000900463ffffffff16610272565b610401610882565b60405161028391906119d8565b6102356108b2565b610389610424366004611a0d565b606654600160ff9092169190911b9081161490565b6066546102b3565b610272600181565b610389610457366004611971565b63ffffffff165f908152609960209081526040808320548352609c90915290205460ff1690565b61049161048c366004611a3b565b6108c6565b6040516001600160a01b039091168152602001610283565b610235610965565b610272610976565b6102725f81565b6104917f000000000000000000000000000000000000000000000000000000000000000081565b6033546001600160a01b0316610491565b610235610506366004611a98565b610a04565b610235610519366004611b33565b610cde565b6104917f000000000000000000000000000000000000000000000000000000000000000081565b6040805180820182525f8082526020918201528151808301909252609d546001600160a01b0381168352600160a01b900463ffffffff16908201526102fd565b6104917f000000000000000000000000000000000000000000000000000000000000000081565b6097546105ba9061ffff1681565b60405161ffff9091168152602001610283565b6102356105db366004611949565b610cf0565b6102b36105ee366004611b7e565b610da5565b6102b3610601366004611971565b63ffffffff165f9081526099602052604090205490565b610235610626366004611bbd565b610e0d565b610235610639366004611c29565b61105c565b61023561064c366004611949565b6110d2565b6105ba61271081565b5f54610100900460ff161580801561067857505f54600160ff909116105b806106915750303b15801561069157505f5460ff166001145b6106f95760405162461bcd60e51b815260206004820152602e60248201527f496e697469616c697a61626c653a20636f6e747261637420697320616c72656160448201526d191e481a5b9a5d1a585b1a5e995960921b60648201526084015b60405180910390fd5b5f805460ff19166001179055801561071a575f805461ff0019166101001790555b6107238661113f565b61072c85611190565b61073684836111cd565b61073f8361134d565b7fcefe99cb2e240b5f07de5cd472a75fc6e345370b73588ab161cb25c4a259a8697fbb86fbc034f4e382929974bcd8419ed626b0ea647f962d89ba2fb6bd28785ab98190555f52609c6020527f38353ab40115e4013d688e07cff5857dde443bd05e72c49fcb5e684a9bb9efc4805460ff19166001179055609d80546001600160c01b03191630179055609780544263ffffffff16620100000265ffffffff000019909116179055801561082c575f805461ff0019169055604051600181527f7f26b83ff96e1f2b6a682f133852f6798a09c465da95921460cefb38474024989060200160405180910390a15b505050505050565b61083c6113be565b60665481811681146108615760405163c61dca5d60e01b815260040160405180910390fd5b61086a82611190565b5050565b610876611461565b61087f8161134d565b50565b60606108ad7f00000000000000000000000000000000000000000000000000000000000000006114bb565b905090565b6108ba6113be565b6108c45f19611190565b565b5f60028260028111156108db576108db611c44565b0361090757507f0000000000000000000000000000000000000000000000000000000000000000919050565b600182600281111561091b5761091b611c44565b0361094757507f0000000000000000000000000000000000000000000000000000000000000000919050565b60405163fdea7c0960e01b815260040160405180910390fd5b919050565b61096d611461565b6108c45f61113f565b604051635ddb9b5b60e01b81525f906001600160a01b037f00000000000000000000000000000000000000000000000000000000000000001690635ddb9b5b906109c590609890600401611c58565b602060405180830381865afa1580156109e0573d5f5f3e3d5ffd5b505050506040513d601f19601f820116820180604052508101906108ad9190611c7f565b6001610a0f816114f8565b610a17611523565b5f5f5f5f610a25878761157c565b5f8f8152609c60205260409020549397509195509350915060ff16610a5d5760405163504570e360e01b815260040160405180910390fd5b604080518082019091526098546001600160a01b0381168252600160a01b900463ffffffff166020820152610a91906115c3565b610a9a856115c3565b03610ab857604051631fb1705560e21b815260040160405180910390fd5b610ac1836108c6565b6001600160a01b0316635ddb9b5b856040518263ffffffff1660e01b8152600401610aec91906119b1565b602060405180830381865afa158015610b07573d5f5f3e3d5ffd5b505050506040513d601f19601f82011682018060405250810190610b2b9190611c7f565b63ffffffff168c63ffffffff1611610b565760405163207617df60e01b815260040160405180910390fd5b63ffffffff8c165f908152609960205260409020548b14610b8a5760405163639d09b560e11b815260040160405180910390fd5b610bae8b8b8b8b8b8b604051610ba1929190611c9a565b604051809103902061162c565b6002836002811115610bc257610bc2611c44565b03610c53577f00000000000000000000000000000000000000000000000000000000000000006001600160a01b0316636738c40b858e610c0185611691565b866040518563ffffffff1660e01b8152600401610c219493929190611ce3565b5f604051808303815f87803b158015610c38575f5ffd5b505af1158015610c4a573d5f5f3e3d5ffd5b50505050610cc6565b6001836002811115610c6757610c67611c44565b03610947577f00000000000000000000000000000000000000000000000000000000000000006001600160a01b03166356d482f5858e610ca6856116ad565b866040518563ffffffff1660e01b8152600401610c219493929190611d5f565b50505050610cd4600160c955565b5050505050505050565b610ce6611461565b61086a82826111cd565b610cf86113be565b5f818152609c602052604090205460ff16610d265760405163504570e360e01b815260040160405180910390fd5b7fcefe99cb2e240b5f07de5cd472a75fc6e345370b73588ab161cb25c4a259a8698103610d66576040516319920afd60e11b815260040160405180910390fd5b5f818152609c6020526040808220805460ff191690555182917f8bd43de1250f58fe6ec9a78671a8b78dba70f0018656d157a3aeaabec389df3491a250565b604080517f4491f5ee91595f938885ef73c9a1fa8a6d14ff9b9dab4aa24b8802bbb9bfc1cc602082015290810184905263ffffffff8084166060830152821660808201525f9060a0016040516020818303038152906040528051906020012090509392505050565b5f610e17816114f8565b610e1f611523565b428363ffffffff161115610e4657604051635a119db560e11b815260040160405180910390fd5b60975463ffffffff62010000909104811690841611610e785760405163037fa86b60e31b815260040160405180910390fd5b610e83848484610da5565b856020013514610ea657604051638b56642d60e01b815260040160405180910390fd5b6040805160018082528183019092525f91602080830190803683375050609754825192935061ffff16918391505f90610ee157610ee1611e18565b61ffff90921660209283029190910190910152604051625f5e5d60e21b81525f906001600160a01b037f0000000000000000000000000000000000000000000000000000000000000000169063017d797490610f46906098908b908790600401611f4a565b6020604051808303815f875af1158015610f62573d5f5f3e3d5ffd5b505050506040513d601f19601f82011682018060405250810190610f8691906120d7565b905080610fa657604051633042041f60e21b815260040160405180910390fd5b6097805463ffffffff80881662010000810265ffffffff000019909316929092179092555f818152609a602090815260408083208054958a1663ffffffff1996871681179091558352609b825280832080549095168417909455828252609981528382208a9055898252609c9052828120805460ff19166001179055915188927f010dcbe0d1e019c93357711f7bb6287d543b7ff7de74f29df3fb5ecceec8d36991a35050611055600160c955565b5050505050565b611064611461565b6001600160a01b0381166110c95760405162461bcd60e51b815260206004820152602660248201527f4f776e61626c653a206e6577206f776e657220697320746865207a65726f206160448201526564647265737360d01b60648201526084016106f0565b61087f8161113f565b6110da6116c3565b606654801982198116146111015760405163c61dca5d60e01b815260040160405180910390fd5b606682905560405182815233907f3582d1828e26bf56bd801502bc021ac0bc8afb57c826e4986b45593c8fad389c9060200160405180910390a25050565b603380546001600160a01b038381166001600160a01b0319831681179093556040519116919082907f8be0079c531659141344cd1fd0a4f28419497f9722a3daafe3b4186f6b6457e0905f90a35050565b606681905560405181815233907fab40a374bc51de372200a8bc981af8c9ecdc08dfdaef0bb6e09f88f3c616ef3d9060200160405180910390a250565b8160986111da82826120f6565b5050604051635ddb9b5b60e01b81525f906001600160a01b037f00000000000000000000000000000000000000000000000000000000000000001690635ddb9b5b9061122a908690600401612187565b602060405180830381865afa158015611245573d5f5f3e3d5ffd5b505050506040513d601f19601f820116820180604052508101906112699190611c7f565b905063ffffffff81161561129057604051636446f91760e01b815260040160405180910390fd5b604051636738c40b60e01b81526001600160a01b037f00000000000000000000000000000000000000000000000000000000000000001690636738c40b906112e49086906001908790609d90600401612195565b5f604051808303815f87803b1580156112fb575f5ffd5b505af115801561130d573d5f5f3e3d5ffd5b505050507f3463431b09dfd43dec7349f8f24acfa753fe4cf40a26235402d213373df15856836040516113409190612187565b60405180910390a1505050565b61271061ffff82161115611374576040516307336f0360e11b815260040160405180910390fd5b6097805461ffff191661ffff83169081179091556040519081527ff5d1836df8fcd7c1e54047e94ac8773d2855395603e2ef9ba5f5f16905f225929060200160405180910390a150565b60405163237dfb4760e11b81523360048201527f00000000000000000000000000000000000000000000000000000000000000006001600160a01b0316906346fbf68e90602401602060405180830381865afa158015611420573d5f5f3e3d5ffd5b505050506040513d601f19601f8201168201806040525081019061144491906120d7565b6108c457604051631d77d47760e21b815260040160405180910390fd5b6033546001600160a01b031633146108c45760405162461bcd60e51b815260206004820181905260248201527f4f776e61626c653a2063616c6c6572206973206e6f7420746865206f776e657260448201526064016106f0565b60605f6114c783611774565b6040805160208082528183019092529192505f91906020820181803683375050509182525060208101929092525090565b606654600160ff83161b9081160361087f5760405163840a48d560e01b815260040160405180910390fd5b600260c954036115755760405162461bcd60e51b815260206004820152601f60248201527f5265656e7472616e637947756172643a207265656e7472616e742063616c6c0060448201526064016106f0565b600260c955565b604080518082019091525f8082526020820152604080518082019091525f808252602082018190529060606115b3858701876122e8565b9299919850965090945092505050565b5f815f0151826020015163ffffffff1660405160200161160e92919060609290921b6bffffffffffffffffffffffff1916825260a01b6001600160a01b031916601482015260200190565b604051602081830303815290604052611626906123ad565b92915050565b61167483838080601f0160208091040260200160405190810160405280939291908181526020018383808284375f920191909152508992508591505063ffffffff881661179b565b6110555760405163afa42ca760e01b815260040160405180910390fd5b611699611849565b81806020019051810190611626919061245c565b606081806020019051810190611626919061250b565b7f00000000000000000000000000000000000000000000000000000000000000006001600160a01b031663eab66d7a6040518163ffffffff1660e01b8152600401602060405180830381865afa15801561171f573d5f5f3e3d5ffd5b505050506040513d601f19601f82011682018060405250810190611743919061260c565b6001600160a01b0316336001600160a01b0316146108c45760405163794821ff60e01b815260040160405180910390fd5b5f60ff8216601f81111561162657604051632cd44ac360e21b815260040160405180910390fd5b5f836117a88685856117b2565b1495945050505050565b5f602084516117c19190612627565b156117df576040516313717da960e21b815260040160405180910390fd5b8260205b85518111611840576117f6600285612627565b5f0361181757815f528086015160205260405f20915060028404935061182e565b808601515f528160205260405f2091506002840493505b611839602082612646565b90506117e3565b50949350505050565b60405180608001604052805f81526020015f815260200161187b60405180604001604052805f81526020015f81525090565b8152602001606081525090565b6001600160a01b038116811461087f575f5ffd5b5f604082840312156118ac575f5ffd5b50919050565b803561ffff81168114610960575f5ffd5b5f60a082840312156118ac575f5ffd5b5f5f5f5f5f60c086880312156118e7575f5ffd5b85356118f281611888565b945060208601359350611908876040880161189c565b9250611916608087016118b2565b915060a08601356001600160401b03811115611930575f5ffd5b61193c888289016118c3565b9150509295509295909350565b5f60208284031215611959575f5ffd5b5035919050565b63ffffffff8116811461087f575f5ffd5b5f60208284031215611981575f5ffd5b813561198c81611960565b9392505050565b80516001600160a01b0316825260209081015163ffffffff16910152565b604081016116268284611993565b5f602082840312156119cf575f5ffd5b61198c826118b2565b602081525f82518060208401528060208501604085015e5f604082850101526040601f19601f83011684010191505092915050565b5f60208284031215611a1d575f5ffd5b813560ff8116811461198c575f5ffd5b803560038110610960575f5ffd5b5f60208284031215611a4b575f5ffd5b61198c82611a2d565b5f5f83601f840112611a64575f5ffd5b5081356001600160401b03811115611a7a575f5ffd5b602083019150836020828501011115611a91575f5ffd5b9250929050565b5f5f5f5f5f5f5f60a0888a031215611aae575f5ffd5b8735611ab981611960565b9650602088013595506040880135611ad081611960565b945060608801356001600160401b03811115611aea575f5ffd5b611af68a828b01611a54565b90955093505060808801356001600160401b03811115611b14575f5ffd5b611b208a828b01611a54565b989b979a50959850939692959293505050565b5f5f60608385031215611b44575f5ffd5b611b4e848461189c565b915060408301356001600160401b03811115611b68575f5ffd5b611b74858286016118c3565b9150509250929050565b5f5f5f60608486031215611b90575f5ffd5b833592506020840135611ba281611960565b91506040840135611bb281611960565b809150509250925092565b5f5f5f5f60808587031215611bd0575f5ffd5b84356001600160401b03811115611be5575f5ffd5b85016101208188031215611bf7575f5ffd5b9350602085013592506040850135611c0e81611960565b91506060850135611c1e81611960565b939692955090935050565b5f60208284031215611c39575f5ffd5b813561198c81611888565b634e487b7160e01b5f52602160045260245ffd5b604081016116268284546001600160a01b038116825260a01c63ffffffff16602090910152565b5f60208284031215611c8f575f5ffd5b815161198c81611960565b818382375f9101908152919050565b5f8151808452602084019350602083015f5b82811015611cd9578151865260209586019590910190600101611cbb565b5093949350505050565b611ced8186611993565b63ffffffff8416604082015260c06060820152825160c0820152602083015160e08201525f60408401518051610100840152602081015161012084015250606084015160a0610140840152611d46610160840182611ca9565b915050611d566080830184611993565b95945050505050565b5f60c08201611d6e8388611993565b63ffffffff8616604084015260c0606084015280855180835260e08501915060e08160051b8601019250602087015f5b82811015611def5786850360df19018452815180516001600160a01b03168652602090810151604091870182905290611dd990870182611ca9565b9550506020938401939190910190600101611d9e565b5050505080915050611d566080830184611993565b634e487b7160e01b5f52604160045260245ffd5b634e487b7160e01b5f52603260045260245ffd5b5f5f8335601e19843603018112611e41575f5ffd5b83016020810192503590506001600160401b03811115611e5f575f5ffd5b8060051b3603821315611a91575f5ffd5b81835281816020850137505f828201602090810191909152601f909101601f19169091010190565b5f8235605e19833603018112611eac575f5ffd5b90910192915050565b8183525f6001600160fb1b03831115611ecc575f5ffd5b8260051b80836020870137939093016020019392505050565b80358252602080820135908301525f611f016040830183611e2c565b60606040860152611d56606086018284611eb5565b5f8151808452602084019350602083015f5b82811015611cd957815161ffff16865260209586019590910190600101611f28565b611f6d8185546001600160a01b038116825260a01c63ffffffff16602090910152565b608060408201525f6101a082018435611f8581611960565b63ffffffff166080840152602085013560a0840152604085013560c0840152606085013560e0840152604060808601610100850137604060c08601610140850137611fd4610100860186611e2c565b610120610180860152828184526101c0860190506101c08260051b8701019350825f5b838110156120b6578786036101bf190183526120138286611e98565b803561201e81611960565b63ffffffff168752602081013536829003601e1901811261203d575f5ffd5b81016020810190356001600160401b03811115612058575f5ffd5b803603821315612066575f5ffd5b606060208a015261207b60608a018284611e70565b91505061208b6040830183611e98565b9150878103604089015261209f8183611ee5565b975050506020928301929190910190600101611ff7565b505050505082810360608401526120cd8185611f16565b9695505050505050565b5f602082840312156120e7575f5ffd5b8151801515811461198c575f5ffd5b813561210181611888565b81546001600160a01b031981166001600160a01b03929092169182178355602084013561212d81611960565b6001600160c01b03199190911690911760a09190911b63ffffffff60a01b1617905550565b803561215d81611888565b6001600160a01b03168252602081013561217681611960565b63ffffffff81166020840152505050565b604081016116268284612152565b61219f8186612152565b63ffffffff841660408281019190915260c06060808401829052853591840191909152602085013560e0840152908401356101008301528301356101208201525f6121ed6080850185611e2c565b60a061014085015261220461016085018284611eb5565b92505050611d566080830184546001600160a01b038116825260a01c63ffffffff16602090910152565b604080519081016001600160401b038111828210171561225057612250611e04565b60405290565b604051608081016001600160401b038111828210171561225057612250611e04565b604051601f8201601f191681016001600160401b03811182821017156122a0576122a0611e04565b604052919050565b5f604082840312156122b8575f5ffd5b6122c061222e565b905081356122cd81611888565b815260208201356122dd81611960565b602082015292915050565b5f5f5f5f60c085870312156122fb575f5ffd5b61230586866122a8565b935061231360408601611a2d565b925061232286606087016122a8565b915060a08501356001600160401b0381111561233c575f5ffd5b8501601f8101871361234c575f5ffd5b80356001600160401b0381111561236557612365611e04565b612378601f8201601f1916602001612278565b81815288602083850101111561238c575f5ffd5b816020840160208301375f6020838301015280935050505092959194509250565b805160208083015191908110156118ac575f1960209190910360031b1b16919050565b5f6001600160401b038211156123e8576123e8611e04565b5060051b60200190565b5f82601f830112612401575f5ffd5b815161241461240f826123d0565b612278565b8082825260208201915060208360051b860101925085831115612435575f5ffd5b602085015b8381101561245257805183526020928301920161243a565b5095945050505050565b5f6020828403121561246c575f5ffd5b81516001600160401b03811115612481575f5ffd5b820180840360a0811215612493575f5ffd5b61249b612256565b82518152602080840151908201526040603f19830112156124ba575f5ffd5b6124c261222e565b604084810151825260608501516020830152820152608083015191506001600160401b038211156124f1575f5ffd5b6124fd868385016123f2565b606082015295945050505050565b5f6020828403121561251b575f5ffd5b81516001600160401b03811115612530575f5ffd5b8201601f81018413612540575f5ffd5b805161254e61240f826123d0565b8082825260208201915060208360051b85010192508683111561256f575f5ffd5b602084015b838110156126015780516001600160401b03811115612591575f5ffd5b85016040818a03601f190112156125a6575f5ffd5b6125ae61222e565b60208201516125bc81611888565b815260408201516001600160401b038111156125d6575f5ffd5b6125e58b6020838601016123f2565b6020830152508085525050602083019250602081019050612574565b509695505050505050565b5f6020828403121561261c575f5ffd5b815161198c81611888565b5f8261264157634e487b7160e01b5f52601260045260245ffd5b500690565b8082018082111561162657634e487b7160e01b5f52601160045260245ffdfea26469706673582212208dc47ac9863a6b893abcce651289eef70c5d07cb7d5972f7b52e0f79383697ea64736f6c634300081b0033",
    "linkReferences": {}
  },
  "methodIdentifiers": {
    "GENERATOR_GLOBAL_TABLE_ROOT()": "1bdc0deb",
    "GENERATOR_MAX_STALENESS_PERIOD()": "790961ea",
    "GENERATOR_REFERENCE_TIMESTAMP()": "612abcb0",
    "GLOBAL_TABLE_ROOT_CERT_TYPEHASH()": "3ef6cd7a",
    "MAX_BPS()": "fd967f47",
    "bn254CertificateVerifier()": "b8c14306",
    "confirmGlobalTableRoot((uint32,bytes32,(uint256,uint256),(uint256[2],uint256[2]),(uint32,bytes,((uint256,uint256),uint256[]))[]),bytes32,uint32,uint32)": "eaaed9d5",
    "disableRoot(bytes32)": "c3621f0a",
    "ecdsaCertificateVerifier()": "ad0f9582",
    "getCertificateVerifier(uint8)": "6f728c50",
    "getCurrentGlobalTableRoot()": "28522d79",
    "getGenerator()": "1e2ca260",
    "getGeneratorConfig()": "b0cb3a24",
    "getGeneratorReferenceTimestamp()": "7551ba34",
    "getGlobalTableRootByTimestamp(uint32)": "c5916a39",
    "getGlobalTableUpdateMessageHash(bytes32,uint32,uint32)": "c3be1e33",
    "getLatestReferenceBlockNumber()": "31a599d2",
    "getLatestReferenceTimestamp()": "4624e6a3",
    "getReferenceBlockNumberByTimestamp(uint32)": "23b7b5b2",
    "getReferenceTimestampByBlockNumber(uint32)": "193b79f3",
    "globalRootConfirmationThreshold()": "c252aa22",
    "initialize(address,uint256,(address,uint32),uint16,(bytes32,uint256,(uint256,uint256),uint256[]))": "06f51875",
    "isRootValid(bytes32)": "30ef41b4",
    "isRootValidByTimestamp(uint32)": "64e1df84",
    "owner()": "8da5cb5b",
    "pause(uint256)": "136439dd",
    "pauseAll()": "595c6a67",
    "paused()": "5c975abb",
    "paused(uint8)": "5ac86ab7",
    "pauserRegistry()": "886f1195",
    "renounceOwnership()": "715018a6",
    "setGlobalRootConfirmationThreshold(uint16)": "2370356c",
    "transferOwnership(address)": "f2fde38b",
    "unpause(uint256)": "fabc1cbc",
    "updateGenerator((address,uint32),(bytes32,uint256,(uint256,uint256),uint256[]))": "9f7e206f",
    "updateOperatorTable(uint32,bytes32,uint32,bytes,bytes)": "9ea94778",
    "version()": "54fd4d50"
  },
  "id": 175
}