{
  "abi": [
    {
      "type": "constructor",
      "inputs": [
        {
          "name": "_strategyManager",
          "type": "address",
          "internalType": "contract IStrategyManager"
        },
        {
          "name": "_pauserRegistry",
          "type": "address",
          "internalType": "contract IPauserRegistry"
        },
        {
          "name": "_version",
          "type": "string",
          "internalType": "string"
        }
      ],
      "stateMutability": "nonpayable"
    },
    {
      "type": "function",
      "name": "deposit",
      "inputs": [
        {
          "name": "token",
          "type": "address",
          "internalType": "contract IERC20"
        },
        {
          "name": "amount",
          "type": "uint256",
          "internalType": "uint256"
        }
      ],
      "outputs": [
        {
          "name": "newShares",
          "type": "uint256",
          "internalType": "uint256"
        }
      ],
      "stateMutability": "nonpayable"
    },
    {
      "type": "function",
      "name": "explanation",
      "inputs": [],
      "outputs": [
        {
          "name": "",
          "type": "string",
          "internalType": "string"
        }
      ],
      "stateMutability": "pure"
    },
    {
      "type": "function",
      "name": "initialize",
      "inputs": [
        {
          "name": "_underlyingToken",
          "type": "address",
          "internalType": "contract IERC20"
        }
      ],
      "outputs": [],
      "stateMutability": "nonpayable"
    },
    {
      "type": "function",
      "name": "pause",
      "inputs": [
        {
          "name": "newPausedStatus",
          "type": "uint256",
          "internalType": "uint256"
        }
      ],
      "outputs": [],
      "stateMutability": "nonpayable"
    },
    {
      "type": "function",
      "name": "pauseAll",
      "inputs": [],
      "outputs": [],
      "stateMutability": "nonpayable"
    },
    {
      "type": "function",
      "name": "paused",
      "inputs": [
        {
          "name": "index",
          "type": "uint8",
          "internalType": "uint8"
        }
      ],
      "outputs": [
        {
          "name": "",
          "type": "bool",
          "internalType": "bool"
        }
      ],
      "stateMutability": "view"
    },
    {
      "type": "function",
      "name": "paused",
      "inputs": [],
      "outputs": [
        {
          "name": "",
          "type": "uint256",
          "internalType": "uint256"
        }
      ],
      "stateMutability": "view"
    },
    {
      "type": "function",
      "name": "pauserRegistry",
      "inputs": [],
      "outputs": [
        {
          "name": "",
          "type": "address",
          "internalType": "contract IPauserRegistry"
        }
      ],
      "stateMutability": "view"
    },
    {
      "type": "function",
      "name": "shares",
      "inputs": [
        {
          "name": "user",
          "type": "address",
          "internalType": "address"
        }
      ],
      "outputs": [
        {
          "name": "",
          "type": "uint256",
          "internalType": "uint256"
        }
      ],
      "stateMutability": "view"
    },
    {
      "type": "function",
      "name": "sharesToUnderlying",
      "inputs": [
        {
          "name": "amountShares",
          "type": "uint256",
          "internalType": "uint256"
        }
      ],
      "outputs": [
        {
          "name": "",
          "type": "uint256",
          "internalType": "uint256"
        }
      ],
      "stateMutability": "view"
    },
    {
      "type": "function",
      "name": "sharesToUnderlyingView",
      "inputs": [
        {
          "name": "amountShares",
          "type": "uint256",
          "internalType": "uint256"
        }
      ],
      "outputs": [
        {
          "name": "",
          "type": "uint256",
          "internalType": "uint256"
        }
      ],
      "stateMutability": "view"
    },
    {
      "type": "function",
      "name": "strategyManager",
      "inputs": [],
      "outputs": [
        {
          "name": "",
          "type": "address",
          "internalType": "contract IStrategyManager"
        }
      ],
      "stateMutability": "view"
    },
    {
      "type": "function",
      "name": "totalShares",
      "inputs": [],
      "outputs": [
        {
          "name": "",
          "type": "uint256",
          "internalType": "uint256"
        }
      ],
      "stateMutability": "view"
    },
    {
      "type": "function",
      "name": "underlyingToShares",
      "inputs": [
        {
          "name": "amountUnderlying",
          "type": "uint256",
          "internalType": "uint256"
        }
      ],
      "outputs": [
        {
          "name": "",
          "type": "uint256",
          "internalType": "uint256"
        }
      ],
      "stateMutability": "view"
    },
    {
      "type": "function",
      "name": "underlyingToSharesView",
      "inputs": [
        {
          "name": "amountUnderlying",
          "type": "uint256",
          "internalType": "uint256"
        }
      ],
      "outputs": [
        {
          "name": "",
          "type": "uint256",
          "internalType": "uint256"
        }
      ],
      "stateMutability": "view"
    },
    {
      "type": "function",
      "name": "underlyingToken",
      "inputs": [],
      "outputs": [
        {
          "name": "",
          "type": "address",
          "internalType": "contract IERC20"
        }
      ],
      "stateMutability": "view"
    },
    {
      "type": "function",
      "name": "unpause",
      "inputs": [
        {
          "name": "newPausedStatus",
          "type": "uint256",
          "internalType": "uint256"
        }
      ],
      "outputs": [],
      "stateMutability": "nonpayable"
    },
    {
      "type": "function",
      "name": "userUnderlying",
      "inputs": [
        {
          "name": "user",
          "type": "address",
          "internalType": "address"
        }
      ],
      "outputs": [
        {
          "name": "",
          "type": "uint256",
          "internalType": "uint256"
        }
      ],
      "stateMutability": "nonpayable"
    },
    {
      "type": "function",
      "name": "userUnderlyingView",
      "inputs": [
        {
          "name": "user",
          "type": "address",
          "internalType": "address"
        }
      ],
      "outputs": [
        {
          "name": "",
          "type": "uint256",
          "internalType": "uint256"
        }
      ],
      "stateMutability": "view"
    },
    {
      "type": "function",
      "name": "version",
      "inputs": [],
      "outputs": [
        {
          "name": "",
          "type": "string",
          "internalType": "string"
        }
      ],
      "stateMutability": "view"
    },
    {
      "type": "function",
      "name": "withdraw",
      "inputs": [
        {
          "name": "recipient",
          "type": "address",
          "internalType": "address"
        },
        {
          "name": "token",
          "type": "address",
          "internalType": "contract IERC20"
        },
        {
          "name": "amountShares",
          "type": "uint256",
          "internalType": "uint256"
        }
      ],
      "outputs": [
        {
          "name": "amountOut",
          "type": "uint256",
          "internalType": "uint256"
        }
      ],
      "stateMutability": "nonpayable"
    },
    {
      "type": "event",
      "name": "ExchangeRateEmitted",
      "inputs": [
        {
          "name": "rate",
          "type": "uint256",
          "indexed": false,
          "internalType": "uint256"
        }
      ],
      "anonymous": false
    },
    {
      "type": "event",
      "name": "Initialized",
      "inputs": [
        {
          "name": "version",
          "type": "uint8",
          "indexed": false,
          "internalType": "uint8"
        }
      ],
      "anonymous": false
    },
    {
      "type": "event",
      "name": "Paused",
      "inputs": [
        {
          "name": "account",
          "type": "address",
          "indexed": true,
          "internalType": "address"
        },
        {
          "name": "newPausedStatus",
          "type": "uint256",
          "indexed": false,
          "internalType": "uint256"
        }
      ],
      "anonymous": false
    },
    {
      "type": "event",
      "name": "StrategyTokenSet",
      "inputs": [
        {
          "name": "token",
          "type": "address",
          "indexed": false,
          "internalType": "contract IERC20"
        },
        {
          "name": "decimals",
          "type": "uint8",
          "indexed": false,
          "internalType": "uint8"
        }
      ],
      "anonymous": false
    },
    {
      "type": "event",
      "name": "Unpaused",
      "inputs": [
        {
          "name": "account",
          "type": "address",
          "indexed": true,
          "internalType": "address"
        },
        {
          "name": "newPausedStatus",
          "type": "uint256",
          "indexed": false,
          "internalType": "uint256"
        }
      ],
      "anonymous": false
    },
    {
      "type": "error",
      "name": "BalanceExceedsMaxTotalDeposits",
      "inputs": []
    },
    {
      "type": "error",
      "name": "CurrentlyPaused",
      "inputs": []
    },
    {
      "type": "error",
      "name": "InputAddressZero",
      "inputs": []
    },
    {
      "type": "error",
      "name": "InvalidNewPausedStatus",
      "inputs": []
    },
    {
      "type": "error",
      "name": "InvalidShortString",
      "inputs": []
    },
    {
      "type": "error",
      "name": "MaxPerDepositExceedsMax",
      "inputs": []
    },
    {
      "type": "error",
      "name": "NewSharesZero",
      "inputs": []
    },
    {
      "type": "error",
      "name": "OnlyPauser",
      "inputs": []
    },
    {
      "type": "error",
      "name": "OnlyStrategyManager",
      "inputs": []
    },
    {
      "type": "error",
      "name": "OnlyUnderlyingToken",
      "inputs": []
    },
    {
      "type": "error",
      "name": "OnlyUnpauser",
      "inputs": []
    },
    {
      "type": "error",
      "name": "StringTooLong",
      "inputs": [
        {
          "name": "str",
          "type": "string",
          "internalType": "string"
        }
      ]
    },
    {
      "type": "error",
      "name": "TotalSharesExceedsMax",
      "inputs": []
    },
    {
      "type": "error",
      "name": "WithdrawalAmountExceedsTotalDeposits",
      "inputs": []
    }
  ],
  "bytecode": {
    "object": "0x60e060405234801561000f575f5ffd5b5060405161152938038061152983398101604081905261002e916101b6565b80826001600160a01b038116610057576040516339b190bb60e11b815260040160405180910390fd5b6001600160a01b031660805261006c8161008d565b60a052506001600160a01b03831660c0526100856100d3565b5050506102e7565b5f5f829050601f815111156100c0578260405163305a27a960e01b81526004016100b7919061028c565b60405180910390fd5b80516100cb826102c1565b179392505050565b5f54610100900460ff161561013a5760405162461bcd60e51b815260206004820152602760248201527f496e697469616c697a61626c653a20636f6e747261637420697320696e697469604482015266616c697a696e6760c81b60648201526084016100b7565b5f5460ff90811614610189575f805460ff191660ff9081179091556040519081527f7f26b83ff96e1f2b6a682f133852f6798a09c465da95921460cefb38474024989060200160405180910390a15b565b6001600160a01b038116811461019f575f5ffd5b50565b634e487b7160e01b5f52604160045260245ffd5b5f5f5f606084860312156101c8575f5ffd5b83516101d38161018b565b60208501519093506101e48161018b565b60408501519092506001600160401b038111156101ff575f5ffd5b8401601f8101861361020f575f5ffd5b80516001600160401b03811115610228576102286101a2565b604051601f8201601f19908116603f011681016001600160401b0381118282101715610256576102566101a2565b60405281815282820160200188101561026d575f5ffd5b8160208401602083015e5f602083830101528093505050509250925092565b602081525f82518060208401528060208501604085015e5f604082850101526040601f19601f83011684010191505092915050565b805160208083015191908110156102e1575f198160200360031b1b821691505b50919050565b60805160a05160c0516111f56103345f395f81816101800152818161035d01528181610686015261070801525f61047d01525f818161024b015281816108b60152610c6c01526111f55ff3fe608060405234801561000f575f5ffd5b5060043610610132575f3560e01c80637a8b2637116100b4578063c4d66de811610079578063c4d66de81461029b578063ce7c2ac2146102ae578063d9caed12146102c1578063e3dae51c146102d4578063f3e73875146102e7578063fabc1cbc146102fa575f5ffd5b80637a8b263714610233578063886f1195146102465780638c8710191461026d5780638f6a624014610280578063ab5921e114610293575f5ffd5b806354fd4d50116100fa57806354fd4d50146101cc578063553ca5f8146101e1578063595c6a67146101f45780635ac86ab7146101fc5780635c975abb1461022b575f5ffd5b8063136439dd146101365780632495a5991461014b57806339b70e381461017b5780633a98ef39146101a257806347e7ef24146101b9575b5f5ffd5b610149610144366004610f6d565b61030d565b005b60325461015e906001600160a01b031681565b6040516001600160a01b0390911681526020015b60405180910390f35b61015e7f000000000000000000000000000000000000000000000000000000000000000081565b6101ab60335481565b604051908152602001610172565b6101ab6101c7366004610f98565b610347565b6101d4610476565b6040516101729190610fc2565b6101ab6101ef366004610ff7565b6104a6565b6101496104b9565b61021b61020a366004611027565b6001805460ff9092161b9081161490565b6040519015158152602001610172565b6001546101ab565b6101ab610241366004610f6d565b6104cd565b61015e7f000000000000000000000000000000000000000000000000000000000000000081565b6101ab61027b366004610f6d565b610516565b6101ab61028e366004610ff7565b610520565b6101d461052d565b6101496102a9366004610ff7565b61054d565b6101ab6102bc366004610ff7565b61065f565b6101ab6102cf366004611042565b6106f1565b6101ab6102e2366004610f6d565b6107f3565b6101ab6102f5366004610f6d565b61082a565b610149610308366004610f6d565b610834565b6103156108a1565b600154818116811461033a5760405163c61dca5d60e01b815260040160405180910390fd5b61034382610944565b5050565b5f5f61035281610981565b336001600160a01b037f0000000000000000000000000000000000000000000000000000000000000000161461039b576040516348da714f60e01b815260040160405180910390fd5b6103a584846109b7565b6033545f6103b56103e883611094565b90505f6103e86103c36109e5565b6103cd9190611094565b90505f6103da87836110a7565b9050806103e784896110ba565b6103f191906110d1565b9550855f0361041357604051630c392ed360e11b815260040160405180910390fd5b61041d8685611094565b60338190556f4b3b4ca85a86c47a098a223fffffffff101561045257604051632f14e8a360e11b815260040160405180910390fd5b61046b826103e86033546104669190611094565b610a4f565b505050505092915050565b60606104a17f0000000000000000000000000000000000000000000000000000000000000000610a9b565b905090565b5f6104b36102418361065f565b92915050565b6104c16108a1565b6104cb5f19610944565b565b5f5f6103e86033546104df9190611094565b90505f6103e86104ed6109e5565b6104f79190611094565b90508161050485836110ba565b61050e91906110d1565b949350505050565b5f6104b3826107f3565b5f6104b36102f58361065f565b60606040518060800160405280604d8152602001611173604d9139905090565b5f54610100900460ff161580801561056b57505f54600160ff909116105b806105845750303b15801561058457505f5460ff166001145b6105ec5760405162461bcd60e51b815260206004820152602e60248201527f496e697469616c697a61626c653a20636f6e747261637420697320616c72656160448201526d191e481a5b9a5d1a585b1a5e995960921b60648201526084015b60405180910390fd5b5f805460ff19166001179055801561060d575f805461ff0019166101001790555b61061682610ad8565b8015610343575f805461ff0019169055604051600181527f7f26b83ff96e1f2b6a682f133852f6798a09c465da95921460cefb3847402498906020015b60405180910390a15050565b60405163fe243a1760e01b81526001600160a01b0382811660048301523060248301525f917f00000000000000000000000000000000000000000000000000000000000000009091169063fe243a1790604401602060405180830381865afa1580156106cd573d5f5f3e3d5ffd5b505050506040513d601f19601f820116820180604052508101906104b391906110f0565b5f60016106fd81610981565b336001600160a01b037f00000000000000000000000000000000000000000000000000000000000000001614610746576040516348da714f60e01b815260040160405180910390fd5b610751858585610c23565b6033548084111561077557604051630b469df360e41b815260040160405180910390fd5b5f6107826103e883611094565b90505f6103e86107906109e5565b61079a9190611094565b9050816107a787836110ba565b6107b191906110d1565b94506107bd86846110a7565b6033556107dd6107cd86836110a7565b6103e86033546104669190611094565b6107e8888887610c56565b505050509392505050565b5f5f6103e86033546108059190611094565b90505f6103e86108136109e5565b61081d9190611094565b90508061050483866110ba565b5f6104b3826104cd565b61083c610c6a565b600154801982198116146108635760405163c61dca5d60e01b815260040160405180910390fd5b600182905560405182815233907f3582d1828e26bf56bd801502bc021ac0bc8afb57c826e4986b45593c8fad389c9060200160405180910390a25050565b60405163237dfb4760e11b81523360048201527f00000000000000000000000000000000000000000000000000000000000000006001600160a01b0316906346fbf68e90602401602060405180830381865afa158015610903573d5f5f3e3d5ffd5b505050506040513d601f19601f820116820180604052508101906109279190611107565b6104cb57604051631d77d47760e21b815260040160405180910390fd5b600181905560405181815233907fab40a374bc51de372200a8bc981af8c9ecdc08dfdaef0bb6e09f88f3c616ef3d9060200160405180910390a250565b610996816001805460ff9092161b9081161490565b156109b45760405163840a48d560e01b815260040160405180910390fd5b50565b6032546001600160a01b0383811691161461034357604051630312abdd60e61b815260040160405180910390fd5b6032546040516370a0823160e01b81523060048201525f916001600160a01b0316906370a0823190602401602060405180830381865afa158015610a2b573d5f5f3e3d5ffd5b505050506040513d601f19601f820116820180604052508101906104a191906110f0565b7fd2494f3479e5da49d386657c292c610b5b01df313d07c62eb0cfa49924a31be881610a8384670de0b6b3a76400006110ba565b610a8d91906110d1565b604051908152602001610653565b60605f610aa783610d1b565b6040805160208082528183019092529192505f91906020820181803683375050509182525060208101929092525090565b5f54610100900460ff16610b425760405162461bcd60e51b815260206004820152602b60248201527f496e697469616c697a61626c653a20636f6e7472616374206973206e6f74206960448201526a6e697469616c697a696e6760a81b60648201526084016105e3565b603280546001600160a01b0319166001600160a01b038316179055610b665f610944565b7f1c540707b00eb5427b6b774fc799d756516a54aee108b64b327acc55af55750760325f9054906101000a90046001600160a01b0316826001600160a01b031663313ce5676040518163ffffffff1660e01b8152600401602060405180830381865afa158015610bd8573d5f5f3e3d5ffd5b505050506040513d601f19601f82011682018060405250810190610bfc9190611126565b604080516001600160a01b03909316835260ff90911660208301520160405180910390a150565b6032546001600160a01b03838116911614610c5157604051630312abdd60e61b815260040160405180910390fd5b505050565b610c516001600160a01b0383168483610d42565b7f00000000000000000000000000000000000000000000000000000000000000006001600160a01b031663eab66d7a6040518163ffffffff1660e01b8152600401602060405180830381865afa158015610cc6573d5f5f3e3d5ffd5b505050506040513d601f19601f82011682018060405250810190610cea9190611141565b6001600160a01b0316336001600160a01b0316146104cb5760405163794821ff60e01b815260040160405180910390fd5b5f60ff8216601f8111156104b357604051632cd44ac360e21b815260040160405180910390fd5b604080516001600160a01b03848116602483015260448083018590528351808403909101815260649092018352602080830180516001600160e01b031663a9059cbb60e01b17905283518085019094528084527f5361666545524332303a206c6f772d6c6576656c2063616c6c206661696c656490840152610c51928692915f91610dd1918516908490610e50565b905080515f1480610df1575080806020019051810190610df19190611107565b610c515760405162461bcd60e51b815260206004820152602a60248201527f5361666545524332303a204552433230206f7065726174696f6e20646964206e6044820152691bdd081cdd58d8d9595960b21b60648201526084016105e3565b606061050e84845f85855f5f866001600160a01b03168587604051610e75919061115c565b5f6040518083038185875af1925050503d805f8114610eaf576040519150601f19603f3d011682016040523d82523d5f602084013e610eb4565b606091505b5091509150610ec587838387610ed0565b979650505050505050565b60608315610f3e5782515f03610f37576001600160a01b0385163b610f375760405162461bcd60e51b815260206004820152601d60248201527f416464726573733a2063616c6c20746f206e6f6e2d636f6e747261637400000060448201526064016105e3565b508161050e565b61050e8383815115610f535781518083602001fd5b8060405162461bcd60e51b81526004016105e39190610fc2565b5f60208284031215610f7d575f5ffd5b5035919050565b6001600160a01b03811681146109b4575f5ffd5b5f5f60408385031215610fa9575f5ffd5b8235610fb481610f84565b946020939093013593505050565b602081525f82518060208401528060208501604085015e5f604082850101526040601f19601f83011684010191505092915050565b5f60208284031215611007575f5ffd5b813561101281610f84565b9392505050565b60ff811681146109b4575f5ffd5b5f60208284031215611037575f5ffd5b813561101281611019565b5f5f5f60608486031215611054575f5ffd5b833561105f81610f84565b9250602084013561106f81610f84565b929592945050506040919091013590565b634e487b7160e01b5f52601160045260245ffd5b808201808211156104b3576104b3611080565b818103818111156104b3576104b3611080565b80820281158282048414176104b3576104b3611080565b5f826110eb57634e487b7160e01b5f52601260045260245ffd5b500490565b5f60208284031215611100575f5ffd5b5051919050565b5f60208284031215611117575f5ffd5b81518015158114611012575f5ffd5b5f60208284031215611136575f5ffd5b815161101281611019565b5f60208284031215611151575f5ffd5b815161101281610f84565b5f82518060208501845e5f92019182525091905056fe4261736520537472617465677920696d706c656d656e746174696f6e20746f20696e68657269742066726f6d20666f72206d6f726520636f6d706c657820696d706c656d656e746174696f6e73a264697066735822122050e80a4b9c90f51ab0330e8a6c1e217825176cdf00ac10c34bd47d5b2b28334d64736f6c634300081b0033",
    "linkReferences": {}
  },
  "methodIdentifiers": {
    "deposit(address,uint256)": "47e7ef24",
    "explanation()": "ab5921e1",
    "initialize(address)": "c4d66de8",
    "pause(uint256)": "136439dd",
    "pauseAll()": "595c6a67",
    "paused()": "5c975abb",
    "paused(uint8)": "5ac86ab7",
    "pauserRegistry()": "886f1195",
    "shares(address)": "ce7c2ac2",
    "sharesToUnderlying(uint256)": "f3e73875",
    "sharesToUnderlyingView(uint256)": "7a8b2637",
    "strategyManager()": "39b70e38",
    "totalShares()": "3a98ef39",
    "underlyingToShares(uint256)": "8c871019",
    "underlyingToSharesView(uint256)": "e3dae51c",
    "underlyingToken()": "2495a599",
    "unpause(uint256)": "fabc1cbc",
    "userUnderlying(address)": "8f6a6240",
    "userUnderlyingView(address)": "553ca5f8",
    "version()": "54fd4d50",
    "withdraw(address,address,uint256)": "d9caed12"
  },
  "id": 164
}