{
  "abi": [
    {
      "type": "constructor",
      "inputs": [
        {
          "name": "_permissionController",
          "type": "address",
          "internalType": "contract IPermissionController"
        },
        {
          "name": "_allocationManager",
          "type": "address",
          "internalType": "contract IAllocationManager"
        },
        {
          "name": "_version",
          "type": "string",
          "internalType": "string"
        }
      ],
      "stateMutability": "nonpayable"
    },
    {
      "type": "function",
      "name": "BN254_KEY_REGISTRATION_TYPEHASH",
      "inputs": [],
      "outputs": [
        {
          "name": "",
          "type": "bytes32",
          "internalType": "bytes32"
        }
      ],
      "stateMutability": "view"
    },
    {
      "type": "function",
      "name": "ECDSA_KEY_REGISTRATION_TYPEHASH",
      "inputs": [],
      "outputs": [
        {
          "name": "",
          "type": "bytes32",
          "internalType": "bytes32"
        }
      ],
      "stateMutability": "view"
    },
    {
      "type": "function",
      "name": "allocationManager",
      "inputs": [],
      "outputs": [
        {
          "name": "",
          "type": "address",
          "internalType": "contract IAllocationManager"
        }
      ],
      "stateMutability": "view"
    },
    {
      "type": "function",
      "name": "configureOperatorSet",
      "inputs": [
        {
          "name": "operatorSet",
          "type": "tuple",
          "internalType": "struct OperatorSet",
          "components": [
            {
              "name": "avs",
              "type": "address",
              "internalType": "address"
            },
            {
              "name": "id",
              "type": "uint32",
              "internalType": "uint32"
            }
          ]
        },
        {
          "name": "curveType",
          "type": "uint8",
          "internalType": "enum IKeyRegistrarTypes.CurveType"
        }
      ],
      "outputs": [],
      "stateMutability": "nonpayable"
    },
    {
      "type": "function",
      "name": "deregisterKey",
      "inputs": [
        {
          "name": "operator",
          "type": "address",
          "internalType": "address"
        },
        {
          "name": "operatorSet",
          "type": "tuple",
          "internalType": "struct OperatorSet",
          "components": [
            {
              "name": "avs",
              "type": "address",
              "internalType": "address"
            },
            {
              "name": "id",
              "type": "uint32",
              "internalType": "uint32"
            }
          ]
        }
      ],
      "outputs": [],
      "stateMutability": "nonpayable"
    },
    {
      "type": "function",
      "name": "domainSeparator",
      "inputs": [],
      "outputs": [
        {
          "name": "",
          "type": "bytes32",
          "internalType": "bytes32"
        }
      ],
      "stateMutability": "view"
    },
    {
      "type": "function",
      "name": "encodeBN254KeyData",
      "inputs": [
        {
          "name": "g1Point",
          "type": "tuple",
          "internalType": "struct BN254.G1Point",
          "components": [
            {
              "name": "X",
              "type": "uint256",
              "internalType": "uint256"
            },
            {
              "name": "Y",
              "type": "uint256",
              "internalType": "uint256"
            }
          ]
        },
        {
          "name": "g2Point",
          "type": "tuple",
          "internalType": "struct BN254.G2Point",
          "components": [
            {
              "name": "X",
              "type": "uint256[2]",
              "internalType": "uint256[2]"
            },
            {
              "name": "Y",
              "type": "uint256[2]",
              "internalType": "uint256[2]"
            }
          ]
        }
      ],
      "outputs": [
        {
          "name": "",
          "type": "bytes",
          "internalType": "bytes"
        }
      ],
      "stateMutability": "pure"
    },
    {
      "type": "function",
      "name": "getBN254Key",
      "inputs": [
        {
          "name": "operatorSet",
          "type": "tuple",
          "internalType": "struct OperatorSet",
          "components": [
            {
              "name": "avs",
              "type": "address",
              "internalType": "address"
            },
            {
              "name": "id",
              "type": "uint32",
              "internalType": "uint32"
            }
          ]
        },
        {
          "name": "operator",
          "type": "address",
          "internalType": "address"
        }
      ],
      "outputs": [
        {
          "name": "g1Point",
          "type": "tuple",
          "internalType": "struct BN254.G1Point",
          "components": [
            {
              "name": "X",
              "type": "uint256",
              "internalType": "uint256"
            },
            {
              "name": "Y",
              "type": "uint256",
              "internalType": "uint256"
            }
          ]
        },
        {
          "name": "g2Point",
          "type": "tuple",
          "internalType": "struct BN254.G2Point",
          "components": [
            {
              "name": "X",
              "type": "uint256[2]",
              "internalType": "uint256[2]"
            },
            {
              "name": "Y",
              "type": "uint256[2]",
              "internalType": "uint256[2]"
            }
          ]
        }
      ],
      "stateMutability": "view"
    },
    {
      "type": "function",
      "name": "getBN254KeyRegistrationMessageHash",
      "inputs": [
        {
          "name": "operator",
          "type": "address",
          "internalType": "address"
        },
        {
          "name": "operatorSet",
          "type": "tuple",
          "internalType": "struct OperatorSet",
          "components": [
            {
              "name": "avs",
              "type": "address",
              "internalType": "address"
            },
            {
              "name": "id",
              "type": "uint32",
              "internalType": "uint32"
            }
          ]
        },
        {
          "name": "keyData",
          "type": "bytes",
          "internalType": "bytes"
        }
      ],
      "outputs": [
        {
          "name": "",
          "type": "bytes32",
          "internalType": "bytes32"
        }
      ],
      "stateMutability": "view"
    },
    {
      "type": "function",
      "name": "getECDSAAddress",
      "inputs": [
        {
          "name": "operatorSet",
          "type": "tuple",
          "internalType": "struct OperatorSet",
          "components": [
            {
              "name": "avs",
              "type": "address",
              "internalType": "address"
            },
            {
              "name": "id",
              "type": "uint32",
              "internalType": "uint32"
            }
          ]
        },
        {
          "name": "operator",
          "type": "address",
          "internalType": "address"
        }
      ],
      "outputs": [
        {
          "name": "",
          "type": "address",
          "internalType": "address"
        }
      ],
      "stateMutability": "view"
    },
    {
      "type": "function",
      "name": "getECDSAKey",
      "inputs": [
        {
          "name": "operatorSet",
          "type": "tuple",
          "internalType": "struct OperatorSet",
          "components": [
            {
              "name": "avs",
              "type": "address",
              "internalType": "address"
            },
            {
              "name": "id",
              "type": "uint32",
              "internalType": "uint32"
            }
          ]
        },
        {
          "name": "operator",
          "type": "address",
          "internalType": "address"
        }
      ],
      "outputs": [
        {
          "name": "",
          "type": "bytes",
          "internalType": "bytes"
        }
      ],
      "stateMutability": "view"
    },
    {
      "type": "function",
      "name": "getECDSAKeyRegistrationMessageHash",
      "inputs": [
        {
          "name": "operator",
          "type": "address",
          "internalType": "address"
        },
        {
          "name": "operatorSet",
          "type": "tuple",
          "internalType": "struct OperatorSet",
          "components": [
            {
              "name": "avs",
              "type": "address",
              "internalType": "address"
            },
            {
              "name": "id",
              "type": "uint32",
              "internalType": "uint32"
            }
          ]
        },
        {
          "name": "keyAddress",
          "type": "address",
          "internalType": "address"
        }
      ],
      "outputs": [
        {
          "name": "",
          "type": "bytes32",
          "internalType": "bytes32"
        }
      ],
      "stateMutability": "view"
    },
    {
      "type": "function",
      "name": "getKeyHash",
      "inputs": [
        {
          "name": "operatorSet",
          "type": "tuple",
          "internalType": "struct OperatorSet",
          "components": [
            {
              "name": "avs",
              "type": "address",
              "internalType": "address"
            },
            {
              "name": "id",
              "type": "uint32",
              "internalType": "uint32"
            }
          ]
        },
        {
          "name": "operator",
          "type": "address",
          "internalType": "address"
        }
      ],
      "outputs": [
        {
          "name": "",
          "type": "bytes32",
          "internalType": "bytes32"
        }
      ],
      "stateMutability": "view"
    },
    {
      "type": "function",
      "name": "getOperatorFromSigningKey",
      "inputs": [
        {
          "name": "operatorSet",
          "type": "tuple",
          "internalType": "struct OperatorSet",
          "components": [
            {
              "name": "avs",
              "type": "address",
              "internalType": "address"
            },
            {
              "name": "id",
              "type": "uint32",
              "internalType": "uint32"
            }
          ]
        },
        {
          "name": "keyData",
          "type": "bytes",
          "internalType": "bytes"
        }
      ],
      "outputs": [
        {
          "name": "",
          "type": "address",
          "internalType": "address"
        },
        {
          "name": "",
          "type": "bool",
          "internalType": "bool"
        }
      ],
      "stateMutability": "view"
    },
    {
      "type": "function",
      "name": "getOperatorSetCurveType",
      "inputs": [
        {
          "name": "operatorSet",
          "type": "tuple",
          "internalType": "struct OperatorSet",
          "components": [
            {
              "name": "avs",
              "type": "address",
              "internalType": "address"
            },
            {
              "name": "id",
              "type": "uint32",
              "internalType": "uint32"
            }
          ]
        }
      ],
      "outputs": [
        {
          "name": "",
          "type": "uint8",
          "internalType": "enum IKeyRegistrarTypes.CurveType"
        }
      ],
      "stateMutability": "view"
    },
    {
      "type": "function",
      "name": "isKeyGloballyRegistered",
      "inputs": [
        {
          "name": "keyHash",
          "type": "bytes32",
          "internalType": "bytes32"
        }
      ],
      "outputs": [
        {
          "name": "",
          "type": "bool",
          "internalType": "bool"
        }
      ],
      "stateMutability": "view"
    },
    {
      "type": "function",
      "name": "isRegistered",
      "inputs": [
        {
          "name": "operatorSet",
          "type": "tuple",
          "internalType": "struct OperatorSet",
          "components": [
            {
              "name": "avs",
              "type": "address",
              "internalType": "address"
            },
            {
              "name": "id",
              "type": "uint32",
              "internalType": "uint32"
            }
          ]
        },
        {
          "name": "operator",
          "type": "address",
          "internalType": "address"
        }
      ],
      "outputs": [
        {
          "name": "",
          "type": "bool",
          "internalType": "bool"
        }
      ],
      "stateMutability": "view"
    },
    {
      "type": "function",
      "name": "permissionController",
      "inputs": [],
      "outputs": [
        {
          "name": "",
          "type": "address",
          "internalType": "contract IPermissionController"
        }
      ],
      "stateMutability": "view"
    },
    {
      "type": "function",
      "name": "registerKey",
      "inputs": [
        {
          "name": "operator",
          "type": "address",
          "internalType": "address"
        },
        {
          "name": "operatorSet",
          "type": "tuple",
          "internalType": "struct OperatorSet",
          "components": [
            {
              "name": "avs",
              "type": "address",
              "internalType": "address"
            },
            {
              "name": "id",
              "type": "uint32",
              "internalType": "uint32"
            }
          ]
        },
        {
          "name": "keyData",
          "type": "bytes",
          "internalType": "bytes"
        },
        {
          "name": "signature",
          "type": "bytes",
          "internalType": "bytes"
        }
      ],
      "outputs": [],
      "stateMutability": "nonpayable"
    },
    {
      "type": "function",
      "name": "version",
      "inputs": [],
      "outputs": [
        {
          "name": "",
          "type": "string",
          "internalType": "string"
        }
      ],
      "stateMutability": "view"
    },
    {
      "type": "event",
      "name": "AggregateBN254KeyUpdated",
      "inputs": [
        {
          "name": "operatorSet",
          "type": "tuple",
          "indexed": false,
          "internalType": "struct OperatorSet",
          "components": [
            {
              "name": "avs",
              "type": "address",
              "internalType": "address"
            },
            {
              "name": "id",
              "type": "uint32",
              "internalType": "uint32"
            }
          ]
        },
        {
          "name": "newAggregateKey",
          "type": "tuple",
          "indexed": false,
          "internalType": "struct BN254.G1Point",
          "components": [
            {
              "name": "X",
              "type": "uint256",
              "internalType": "uint256"
            },
            {
              "name": "Y",
              "type": "uint256",
              "internalType": "uint256"
            }
          ]
        }
      ],
      "anonymous": false
    },
    {
      "type": "event",
      "name": "KeyDeregistered",
      "inputs": [
        {
          "name": "operatorSet",
          "type": "tuple",
          "indexed": false,
          "internalType": "struct OperatorSet",
          "components": [
            {
              "name": "avs",
              "type": "address",
              "internalType": "address"
            },
            {
              "name": "id",
              "type": "uint32",
              "internalType": "uint32"
            }
          ]
        },
        {
          "name": "operator",
          "type": "address",
          "indexed": true,
          "internalType": "address"
        },
        {
          "name": "curveType",
          "type": "uint8",
          "indexed": false,
          "internalType": "enum IKeyRegistrarTypes.CurveType"
        }
      ],
      "anonymous": false
    },
    {
      "type": "event",
      "name": "KeyRegistered",
      "inputs": [
        {
          "name": "operatorSet",
          "type": "tuple",
          "indexed": false,
          "internalType": "struct OperatorSet",
          "components": [
            {
              "name": "avs",
              "type": "address",
              "internalType": "address"
            },
            {
              "name": "id",
              "type": "uint32",
              "internalType": "uint32"
            }
          ]
        },
        {
          "name": "operator",
          "type": "address",
          "indexed": true,
          "internalType": "address"
        },
        {
          "name": "curveType",
          "type": "uint8",
          "indexed": false,
          "internalType": "enum IKeyRegistrarTypes.CurveType"
        },
        {
          "name": "pubkey",
          "type": "bytes",
          "indexed": false,
          "internalType": "bytes"
        }
      ],
      "anonymous": false
    },
    {
      "type": "event",
      "name": "OperatorSetConfigured",
      "inputs": [
        {
          "name": "operatorSet",
          "type": "tuple",
          "indexed": false,
          "internalType": "struct OperatorSet",
          "components": [
            {
              "name": "avs",
              "type": "address",
              "internalType": "address"
            },
            {
              "name": "id",
              "type": "uint32",
              "internalType": "uint32"
            }
          ]
        },
        {
          "name": "curveType",
          "type": "uint8",
          "indexed": false,
          "internalType": "enum IKeyRegistrarTypes.CurveType"
        }
      ],
      "anonymous": false
    },
    {
      "type": "error",
      "name": "ConfigurationAlreadySet",
      "inputs": []
    },
    {
      "type": "error",
      "name": "ECAddFailed",
      "inputs": []
    },
    {
      "type": "error",
      "name": "ECMulFailed",
      "inputs": []
    },
    {
      "type": "error",
      "name": "ECPairingFailed",
      "inputs": []
    },
    {
      "type": "error",
      "name": "ExpModFailed",
      "inputs": []
    },
    {
      "type": "error",
      "name": "InvalidCurveType",
      "inputs": []
    },
    {
      "type": "error",
      "name": "InvalidKeyFormat",
      "inputs": []
    },
    {
      "type": "error",
      "name": "InvalidKeypair",
      "inputs": []
    },
    {
      "type": "error",
      "name": "InvalidPermissions",
      "inputs": []
    },
    {
      "type": "error",
      "name": "InvalidShortString",
      "inputs": []
    },
    {
      "type": "error",
      "name": "InvalidSignature",
      "inputs": []
    },
    {
      "type": "error",
      "name": "KeyAlreadyRegistered",
      "inputs": []
    },
    {
      "type": "error",
      "name": "KeyNotFound",
      "inputs": [
        {
          "name": "operatorSet",
          "type": "tuple",
          "internalType": "struct OperatorSet",
          "components": [
            {
              "name": "avs",
              "type": "address",
              "internalType": "address"
            },
            {
              "name": "id",
              "type": "uint32",
              "internalType": "uint32"
            }
          ]
        },
        {
          "name": "operator",
          "type": "address",
          "internalType": "address"
        }
      ]
    },
    {
      "type": "error",
      "name": "OperatorSetNotConfigured",
      "inputs": []
    },
    {
      "type": "error",
      "name": "OperatorStillSlashable",
      "inputs": [
        {
          "name": "operatorSet",
          "type": "tuple",
          "internalType": "struct OperatorSet",
          "components": [
            {
              "name": "avs",
              "type": "address",
              "internalType": "address"
            },
            {
              "name": "id",
              "type": "uint32",
              "internalType": "uint32"
            }
          ]
        },
        {
          "name": "operator",
          "type": "address",
          "internalType": "address"
        }
      ]
    },
    {
      "type": "error",
      "name": "SignatureExpired",
      "inputs": []
    },
    {
      "type": "error",
      "name": "StringTooLong",
      "inputs": [
        {
          "name": "str",
          "type": "string",
          "internalType": "string"
        }
      ]
    },
    {
      "type": "error",
      "name": "ZeroAddress",
      "inputs": []
    },
    {
      "type": "error",
      "name": "ZeroPubkey",
      "inputs": []
    }
  ],
  "bytecode": {
    "object": "0x60e060405234801561000f575f5ffd5b5060405161310838038061310883398101604081905261002e916100cb565b6001600160a01b03808316608052831660a052808061004c8161005a565b60c052506101fc9350505050565b5f5f829050601f8151111561008d578260405163305a27a960e01b815260040161008491906101a1565b60405180910390fd5b8051610098826101d6565b179392505050565b6001600160a01b03811681146100b4575f5ffd5b50565b634e487b7160e01b5f52604160045260245ffd5b5f5f5f606084860312156100dd575f5ffd5b83516100e8816100a0565b60208501519093506100f9816100a0565b60408501519092506001600160401b03811115610114575f5ffd5b8401601f81018613610124575f5ffd5b80516001600160401b0381111561013d5761013d6100b7565b604051601f8201601f19908116603f011681016001600160401b038111828210171561016b5761016b6100b7565b604052818152828201602001881015610182575f5ffd5b8160208401602083015e5f602083830101528093505050509250925092565b602081525f82518060208401528060208501604085015e5f604082850101526040601f19601f83011684010191505092915050565b805160208083015191908110156101f6575f198160200360031b1b821691505b50919050565b60805160a05160c051612ecd61023b5f395f81816103fa01526116ae01525f8181610195015261129f01525f818161033b015261061d0152612ecd5ff3fe608060405234801561000f575f5ffd5b5060043610610127575f3560e01c8063aa165c30116100a9578063d9f12db21161006e578063d9f12db214610370578063dab42d7e14610383578063ea0d8149146103a5578063ea194e2e146103b8578063f698da25146103cb575f5ffd5b8063aa165c30146102d9578063b05c8f6d146102ec578063bd30a0b914610313578063ca8aa7c714610336578063d40cda161461035d575f5ffd5b80637690e395116100ef5780637690e3951461023e5780637cffe48c146102515780638256909c1461027157806387ab86f4146102a35780639a43e3fb146102b8575f5ffd5b8063166aa1271461012b5780633b32a7bd146101655780634657e26a1461019057806350435add146101b757806354fd4d5014610236575b5f5ffd5b6101527f991b0a3376ce87f8ecc5d70962279ac09cdce934e8b5b9683e73c8ff087c7f8181565b6040519081526020015b60405180910390f35b61017861017336600461255a565b6103d3565b6040516001600160a01b03909116815260200161015c565b6101787f000000000000000000000000000000000000000000000000000000000000000081565b6102296101c53660046125db565b8151602080840151835180519083015185840151805190850151604080519687019790975295850193909352606084810192909252608084015260a083019190915260c082019290925260e001604051602081830303815290604052905092915050565b60405161015c9190612686565b6102296103f3565b61015261024c3660046126d6565b610423565b61026461025f366004612734565b6104cb565b60405161015c9190612782565b61028461027f366004612790565b6104f1565b604080516001600160a01b03909316835290151560208301520161015c565b6102b66102b1366004612836565b6105df565b005b6102cb6102c636600461255a565b6108f0565b60405161015c929190612881565b6102296102e736600461255a565b610ad8565b6101527fda86e76deaed01641f80ff5f72c372a038fa5182697aeb967e8b1f9819d58d8181565b61032661032136600461255a565b610c15565b604051901515815260200161015c565b6101787f000000000000000000000000000000000000000000000000000000000000000081565b6102b661036b3660046128be565b610c52565b61015261037e36600461294f565b610dc3565b610326610391366004612990565b5f9081526002602052604090205460ff1690565b6102b66103b33660046129a7565b610e5c565b6101526103c636600461255a565b610f9f565b6101526110c7565b5f6103de8383610ad8565b6103e7906129e0565b60601c90505b92915050565b606061041e7f0000000000000000000000000000000000000000000000000000000000000000611180565b905090565b5f5f7fda86e76deaed01641f80ff5f72c372a038fa5182697aeb967e8b1f9819d58d8186865f015187602001518787604051610460929190612a38565b6040805191829003822060208301969096526001600160a01b039485169082015292909116606083015263ffffffff16608082015260a081019190915260c0016040516020818303038152906040528051906020012090506104c1816111bd565b9695505050505050565b5f60015f6104d884611203565b815260208101919091526040015f205460ff1692915050565b5f5f5f60015f61050087611203565b815260208101919091526040015f9081205460ff169150600182600281111561052b5761052b61274e565b0361053d5750835160208501206105ae565b60028260028111156105515761055161274e565b03610595575f5f8680602001905181019061056c9190612a47565b60408051808201825283815260209081019283525f9384529151909152902092506105ae915050565b60405163fdea7c0960e01b815260040160405180910390fd5b5f818152600360205260409020546001600160a01b0316806105d08882610c15565b945094505050505b9250929050565b816105e981611261565b6106065760405163932d94f760e01b815260040160405180910390fd5b6040516309a961f360e11b81526001600160a01b037f00000000000000000000000000000000000000000000000000000000000000001690631352c3e6906106549086908690600401612a69565b602060405180830381865afa15801561066f573d5f5f3e3d5ffd5b505050506040513d601f19601f820116820180604052508101906106939190612a9f565b15828490916106e057604051631070287960e01b815282516001600160a01b03908116600483015260209093015163ffffffff166024820152911660448201526064015b60405180910390fd5b50505f60015f6106ef85611203565b815260208101919091526040015f9081205460ff1691508160028111156107185761071861274e565b0361073657604051635cd3106d60e11b815260040160405180910390fd5b5f5f5f61074286611203565b815260208082019290925260409081015f9081206001600160a01b038916825283528190208151808301909252805460ff1615158252600181018054929391929184019161078f90612abe565b80601f01602080910402602001604051908101604052809291908181526020018280546107bb90612abe565b80156108065780601f106107dd57610100808354040283529160200191610806565b820191905f5260205f20905b8154815290600101906020018083116107e957829003601f168201915b5050505050815250509050805f01518486909161085c57604051632e40e18760e01b815282516001600160a01b03908116600483015260209093015163ffffffff166024820152911660448201526064016106d7565b50505f5f61086986611203565b815260208082019290925260409081015f9081206001600160a01b03891682529092528120805460ff19168155906108a4600183018261235f565b5050846001600160a01b03167f28d3c3cee49478ec6fd219cfd685cd15cd01d95cabf69b4b7b57f9eaa3eb644285846040516108e1929190612af6565b60405180910390a25050505050565b604080518082019091525f808252602082015261090b612399565b5f60015f61091887611203565b815260208101919091526040015f205460ff16905060028160028111156109415761094161274e565b1461095f5760405163fdea7c0960e01b815260040160405180910390fd5b5f5f5f61096b88611203565b815260208082019290925260409081015f9081206001600160a01b038916825283528190208151808301909252805460ff161515825260018101805492939192918401916109b890612abe565b80601f01602080910402602001604051908101604052809291908181526020018280546109e490612abe565b8015610a2f5780601f10610a0657610100808354040283529160200191610a2f565b820191905f5260205f20905b815481529060010190602001808311610a1257829003601f168201915b5050505050815250509050805f0151610a845750506040805180820182525f808252602080830182905283518085018552828152808201929092528351808501909452828452830191909152925090506105d8565b5f5f5f5f8460200151806020019051810190610aa09190612b68565b604080518082018252948552602080860194909452805180820190915291825291810191909152909b909a5098505050505050505050565b60605f60015f610ae786611203565b815260208101919091526040015f205460ff1690506001816002811115610b1057610b1061274e565b14610b2e5760405163fdea7c0960e01b815260040160405180910390fd5b5f5f5f610b3a87611203565b815260208082019290925260409081015f9081206001600160a01b038816825283528190208151808301909252805460ff16151582526001810180549293919291840191610b8790612abe565b80601f0160208091040260200160405190810160405280929190818152602001828054610bb390612abe565b8015610bfe5780601f10610bd557610100808354040283529160200191610bfe565b820191905f5260205f20905b815481529060010190602001808311610be157829003601f168201915b505050919092525050506020015195945050505050565b5f5f5f610c2185611203565b815260208082019290925260409081015f9081206001600160a01b038616825290925290205460ff16905092915050565b85610c5c81611261565b610c795760405163932d94f760e01b815260040160405180910390fd5b5f60015f610c8689611203565b815260208101919091526040015f9081205460ff169150816002811115610caf57610caf61274e565b03610ccd57604051635cd3106d60e11b815260040160405180910390fd5b5f5f610cd889611203565b815260208082019290925260409081015f9081206001600160a01b038c16825290925290205460ff1615610d1f57604051630c7bc20160e11b815260040160405180910390fd5b6001816002811115610d3357610d3361274e565b03610d4b57610d4687898888888861130b565b610d72565b6002816002811115610d5f57610d5f61274e565b0361059557610d4687898888888861146c565b876001600160a01b03167f1201ce0c5e577111bce91e907fd99cb183da5edc1e3fb650ca40769e4e9176dd88838989604051610db19493929190612bae565b60405180910390a25050505050505050565b81516020808401516040515f938493610e30937f991b0a3376ce87f8ecc5d70962279ac09cdce934e8b5b9683e73c8ff087c7f81938a93928991019485526001600160a01b039384166020860152918316604085015263ffffffff16606084015216608082015260a00190565b604051602081830303815290604052805190602001209050610e51816111bd565b9150505b9392505050565b8151610e6781611261565b610e845760405163932d94f760e01b815260040160405180910390fd5b6001826002811115610e9857610e9861274e565b1480610eb557506002826002811115610eb357610eb361274e565b145b610ed25760405163fdea7c0960e01b815260040160405180910390fd5b5f60015f610edf86611203565b815260208101919091526040015f9081205460ff169150816002811115610f0857610f0861274e565b14610f25576040516281f09f60e01b815260040160405180910390fd5b8260015f610f3287611203565b815260208101919091526040015f20805460ff19166001836002811115610f5b57610f5b61274e565b02179055507fb2266cb118e57095fcdbedb24dabd9fc9f5127e2dbedf62ce6ee71696fb8b6e78484604051610f91929190612af6565b60405180910390a150505050565b5f5f5f5f610fac86611203565b815260208082019290925260409081015f9081206001600160a01b038716825283528190208151808301909252805460ff16151582526001810180549293919291840191610ff990612abe565b80601f016020809104026020016040519081016040528092919081815260200182805461102590612abe565b80156110705780601f1061104757610100808354040283529160200191611070565b820191905f5260205f20905b81548152906001019060200180831161105357829003601f168201915b50505050508152505090505f60015f61108887611203565b815260208101919091526040015f2054825160ff90911691506110b057505f91506103ed9050565b6110be826020015182611625565b95945050505050565b60408051808201909152600a81526922b4b3b2b72630bcb2b960b11b6020909101525f7f8b73c3c69bb8fe3d512ecc4cf759cc79239f7b179b0ffacaa9a75d522b39400f7f71b625cfad44bac63b13dba07f2e1d6084ee04b6f8752101ece6126d584ee6ea6111346116a6565b805160209182012060408051928301949094529281019190915260608101919091524660808201523060a082015260c00160405160208183030381529060405280519060200120905090565b60605f61118c8361171b565b6040805160208082528183019092529192505f91906020820181803683375050509182525060208101929092525090565b5f6111c66110c7565b60405161190160f01b6020820152602281019190915260428101839052606201604051602081830303815290604052805190602001209050919050565b5f815f0151826020015163ffffffff1660405160200161124992919060609290921b6001600160601b031916825260a01b6001600160a01b031916601482015260200190565b6040516020818303038152906040526103ed90612c0b565b604051631beb2b9760e31b81526001600160a01b0382811660048301523360248301523060448301525f80356001600160e01b0319166064840152917f00000000000000000000000000000000000000000000000000000000000000009091169063df595cb8906084016020604051808303815f875af11580156112e7573d5f5f3e3d5ffd5b505050506040513d601f19601f820116820180604052508101906103ed9190612a9f565b6014831461132c5760405163d109118160e01b815260040160405180910390fd5b5f6113378486612c2e565b60601c90508061135a57604051634935505f60e01b815260040160405180910390fd5b5f61139c86868080601f0160208091040260200160405190810160405280939291908181526020018383808284375f9201919091525060019250611625915050565b5f8181526002602052604090205490915060ff16156113ce57604051630c7bc20160e11b815260040160405180910390fd5b5f6113da888a85610dc3565b905061141f838287878080601f0160208091040260200160405190810160405280939291908181526020018383808284375f920191909152505f199250611742915050565b611461898989898080601f0160208091040260200160405190810160405280939291908181526020018383808284375f9201919091525088925061179a915050565b505050505050505050565b604080518082019091525f8082526020820152611487612399565b5f808080611497898b018b612c6c565b93509350935093506040518060400160405280858152602001848152509550835f1480156114c3575082155b156114e157604051634935505f60e01b815260040160405180910390fd5b60408051808201909152918252602082015292505f91506115069050888a8989610423565b90505f8061151686880188612ca6565b604080518082019091528281526020810182905291935091505f61153e858389898580611847565b9150508061155f57604051638baa579f60e01b815260040160405180910390fd5b5f6115a18c8c8080601f0160208091040260200160405190810160405280939291908181526020018383808284375f9201919091525060029250611625915050565b5f8181526002602052604090205490915060ff16156115d357604051630c7bc20160e11b815260040160405180910390fd5b6116158e8e8e8e8080601f0160208091040260200160405190810160405280939291908181526020018383808284375f9201919091525087925061179a915050565b5050505050505050505050505050565b5f600182600281111561163a5761163a61274e565b0361164c5750815160208301206103ed565b60028260028111156116605761166061274e565b03610595575f5f8480602001905181019061167b9190612b68565b505060408051808201825283815260209081019283525f9384529151909152902092506103ed915050565b60605f6116d27f0000000000000000000000000000000000000000000000000000000000000000611180565b9050805f815181106116e6576116e6612a24565b016020908101516040516001600160f81b03199091169181019190915260210160405160208183030381529060405291505090565b5f60ff8216601f8111156103ed57604051632cd44ac360e21b815260040160405180910390fd5b4281101561176357604051630819bdcd60e01b815260040160405180910390fd5b6117776001600160a01b038516848461190f565b61179457604051638baa579f60e01b815260040160405180910390fd5b50505050565b6040805180820190915260018152602081018390525f806117ba87611203565b815260208082019290925260409081015f9081206001600160a01b03881682528352208251815460ff19169015151781559082015160018201906117fe9082612d12565b5050505f908152600260209081526040808320805460ff191660011790556003909152902080546001600160a01b039093166001600160a01b0319909316929092179091555050565b5f5f5f61185389611963565b90505f6118628a89898c6119ed565b90505f6118796118728a84611a98565b8b90611b08565b90505f6118bb6118b4846118ae6040805180820182525f80825260209182015281518083019092526001825260029082015290565b90611a98565b8590611b08565b905087156118e0576118d7826118cf611b7c565b838c8b611c3c565b96509450611900565b6118f3826118ec611b7c565b838c611e50565b9550851561190057600194505b50505050965096945050505050565b5f5f5f61191c8585612087565b90925090505f8160048111156119345761193461274e565b1480156119525750856001600160a01b0316826001600160a01b0316145b806104c157506104c18686866120c6565b604080518082019091525f80825260208201525f80806119905f516020612e785f395f51905f5286612dcd565b90505b61199c816121ad565b90935091505f516020612e785f395f51905f5282830983036119d4576040805180820190915290815260208101919091529392505050565b5f516020612e785f395f51905f52600182089050611993565b8251602080850151845180519083015186840151805190850151875188870151604080519889018e90528801989098526060870195909552608086019390935260a085019190915260c084015260e08301526101008201526101208101919091525f907f30644e72e131a029b85045b68181585d2833e84879b9709143e1f593f00000019061014001604051602081830303815290604052805190602001205f1c6110be9190612dcd565b604080518082019091525f8082526020820152611ab36123be565b835181526020808501519082015260408082018490525f908360608460076107d05a03fa90508080611ae157fe5b5080611b0057604051632319df1960e11b815260040160405180910390fd5b505092915050565b604080518082019091525f8082526020820152611b236123dc565b835181526020808501518183015283516040808401919091529084015160608301525f908360808460066107d05a03fa90508080611b5d57fe5b5080611b005760405163d4b68fd760e01b815260040160405180910390fd5b611b84612399565b50604080516080810182527f198e9393920d483a7260bfb731fb5d25f1aa493335a9e71297e485b7aef312c28183019081527f1800deef121f1e76426a00665e5c4479674322d4f75edadd46debd5cd992f6ed6060830152815281518083019092527f275dc4a288d1afb3cbb1ac09187524c7db36395df7be3b99e673b13a075a65ec82527f1d9befcd05a5323e6da4d435f3b617cdb3af83285c2df711ef39c01571827f9d60208381019190915281019190915290565b6040805180820182528681526020808201869052825180840190935286835282018490525f91829190611c6d6123fa565b5f5b6002811015611e24575f611c84826006612e00565b9050848260028110611c9857611c98612a24565b60200201515183611ca9835f612e17565b600c8110611cb957611cb9612a24565b6020020152848260028110611cd057611cd0612a24565b60200201516020015183826001611ce79190612e17565b600c8110611cf757611cf7612a24565b6020020152838260028110611d0e57611d0e612a24565b6020020151515183611d21836002612e17565b600c8110611d3157611d31612a24565b6020020152838260028110611d4857611d48612a24565b6020020151516001602002015183611d61836003612e17565b600c8110611d7157611d71612a24565b6020020152838260028110611d8857611d88612a24565b6020020151602001515f60028110611da257611da2612a24565b602002015183611db3836004612e17565b600c8110611dc357611dc3612a24565b6020020152838260028110611dda57611dda612a24565b602002015160200151600160028110611df557611df5612a24565b602002015183611e06836005612e17565b600c8110611e1657611e16612a24565b602002015250600101611c6f565b50611e2d612419565b5f6020826101808560088cfa9151919c9115159b50909950505050505050505050565b6040805180820182528581526020808201859052825180840190935285835282018390525f91611e7e6123fa565b5f5b6002811015612035575f611e95826006612e00565b9050848260028110611ea957611ea9612a24565b60200201515183611eba835f612e17565b600c8110611eca57611eca612a24565b6020020152848260028110611ee157611ee1612a24565b60200201516020015183826001611ef89190612e17565b600c8110611f0857611f08612a24565b6020020152838260028110611f1f57611f1f612a24565b6020020151515183611f32836002612e17565b600c8110611f4257611f42612a24565b6020020152838260028110611f5957611f59612a24565b6020020151516001602002015183611f72836003612e17565b600c8110611f8257611f82612a24565b6020020152838260028110611f9957611f99612a24565b6020020151602001515f60028110611fb357611fb3612a24565b602002015183611fc4836004612e17565b600c8110611fd457611fd4612a24565b6020020152838260028110611feb57611feb612a24565b60200201516020015160016002811061200657612006612a24565b602002015183612017836005612e17565b600c811061202757612027612a24565b602002015250600101611e80565b5061203e612419565b5f6020826101808560086107d05a03fa9050808061205857fe5b5080612077576040516324ccc79360e21b815260040160405180910390fd5b5051151598975050505050505050565b5f5f82516041036120bb576020830151604084015160608501515f1a6120af87828585612229565b945094505050506105d8565b505f905060026105d8565b5f5f5f856001600160a01b0316631626ba7e60e01b86866040516024016120ee929190612e2a565b60408051601f198184030181529181526020820180516001600160e01b03166001600160e01b031990941693909317909252905161212c9190612e4a565b5f60405180830381855afa9150503d805f8114612164576040519150601f19603f3d011682016040523d82523d5f602084013e612169565b606091505b509150915081801561217d57506020815110155b80156104c157508051630b135d3f60e11b906121a29083016020908101908401612e60565b149695505050505050565b5f80805f516020612e785f395f51905f5260035f516020612e785f395f51905f52865f516020612e785f395f51905f52888909090890505f61221d827f0c19139cb84c680a6e14116da060561765e05aa45a1c72a34f082305b61f3f525f516020612e785f395f51905f526122e6565b91959194509092505050565b5f807f7fffffffffffffffffffffffffffffff5d576e7357a4501ddfe92f46681b20a083111561225e57505f905060036122dd565b604080515f8082526020820180845289905260ff881692820192909252606081018690526080810185905260019060a0016020604051602081039080840390855afa1580156122af573d5f5f3e3d5ffd5b5050604051601f1901519150506001600160a01b0381166122d7575f600192509250506122dd565b91505f90505b94509492505050565b5f5f6122f0612419565b6122f8612437565b602080825281810181905260408201819052606082018890526080820187905260a082018690528260c08360056107d05a03fa9250828061233557fe5b50826123545760405163d51edae360e01b815260040160405180910390fd5b505195945050505050565b50805461236b90612abe565b5f825580601f1061237a575050565b601f0160209004905f5260205f20908101906123969190612455565b50565b60405180604001604052806123ac61246d565b81526020016123b961246d565b905290565b60405180606001604052806003906020820280368337509192915050565b60405180608001604052806004906020820280368337509192915050565b604051806101800160405280600c906020820280368337509192915050565b60405180602001604052806001906020820280368337509192915050565b6040518060c001604052806006906020820280368337509192915050565b5b80821115612469575f8155600101612456565b5090565b60405180604001604052806002906020820280368337509192915050565b634e487b7160e01b5f52604160045260245ffd5b6040805190810167ffffffffffffffff811182821017156124c2576124c261248b565b60405290565b604051601f8201601f1916810167ffffffffffffffff811182821017156124f1576124f161248b565b604052919050565b80356001600160a01b038116811461250f575f5ffd5b919050565b5f60408284031215612524575f5ffd5b61252c61249f565b9050612537826124f9565b8152602082013563ffffffff8116811461254f575f5ffd5b602082015292915050565b5f5f6060838503121561256b575f5ffd5b6125758484612514565b9150612583604084016124f9565b90509250929050565b5f82601f83011261259b575f5ffd5b6125a560406124c8565b8060408401858111156125b6575f5ffd5b845b818110156125d05780358452602093840193016125b8565b509095945050505050565b5f5f82840360c08112156125ed575f5ffd5b60408112156125fa575f5ffd5b61260261249f565b843581526020808601359082015292506080603f1982011215612623575f5ffd5b5061262c61249f565b612639856040860161258c565b8152612648856080860161258c565b6020820152809150509250929050565b5f81518084528060208401602086015e5f602082860101526020601f19601f83011685010191505092915050565b602081525f610e556020830184612658565b5f5f83601f8401126126a8575f5ffd5b50813567ffffffffffffffff8111156126bf575f5ffd5b6020830191508360208285010111156105d8575f5ffd5b5f5f5f5f608085870312156126e9575f5ffd5b6126f2856124f9565b93506127018660208701612514565b9250606085013567ffffffffffffffff81111561271c575f5ffd5b61272887828801612698565b95989497509550505050565b5f60408284031215612744575f5ffd5b610e558383612514565b634e487b7160e01b5f52602160045260245ffd5b6003811061277e57634e487b7160e01b5f52602160045260245ffd5b9052565b602081016103ed8284612762565b5f5f606083850312156127a1575f5ffd5b6127ab8484612514565b9150604083013567ffffffffffffffff8111156127c6575f5ffd5b8301601f810185136127d6575f5ffd5b803567ffffffffffffffff8111156127f0576127f061248b565b612803601f8201601f19166020016124c8565b818152866020838501011115612817575f5ffd5b816020840160208301375f602083830101528093505050509250929050565b5f5f60608385031215612847575f5ffd5b612850836124f9565b91506125838460208501612514565b805f5b6002811015611794578151845260209384019390910190600101612862565b5f60c08201905083518252602084015160208301526128a460408301845161285f565b60208301516128b6608084018261285f565b509392505050565b5f5f5f5f5f5f60a087890312156128d3575f5ffd5b6128dc876124f9565b95506128eb8860208901612514565b9450606087013567ffffffffffffffff811115612906575f5ffd5b61291289828a01612698565b909550935050608087013567ffffffffffffffff811115612931575f5ffd5b61293d89828a01612698565b979a9699509497509295939492505050565b5f5f5f60808486031215612961575f5ffd5b61296a846124f9565b92506129798560208601612514565b9150612987606085016124f9565b90509250925092565b5f602082840312156129a0575f5ffd5b5035919050565b5f5f606083850312156129b8575f5ffd5b6129c28484612514565b91506040830135600381106129d5575f5ffd5b809150509250929050565b805160208201516001600160601b0319811691906014821015612a1d576001600160601b03196001600160601b03198360140360031b1b82161692505b5050919050565b634e487b7160e01b5f52603260045260245ffd5b818382375f9101908152919050565b5f5f60408385031215612a58575f5ffd5b505080516020909101519092909150565b6001600160a01b038316815260608101610e55602083018480516001600160a01b0316825260209081015163ffffffff16910152565b5f60208284031215612aaf575f5ffd5b81518015158114610e55575f5ffd5b600181811c90821680612ad257607f821691505b602082108103612af057634e487b7160e01b5f52602260045260245ffd5b50919050565b82516001600160a01b0316815260208084015163ffffffff169082015260608101610e556040830184612762565b5f82601f830112612b33575f5ffd5b612b3d60406124c8565b806040840185811115612b4e575f5ffd5b845b818110156125d0578051845260209384019301612b50565b5f5f5f5f60c08587031215612b7b575f5ffd5b845160208601519094509250612b948660408701612b24565b9150612ba38660808701612b24565b905092959194509250565b84516001600160a01b0316815260208086015163ffffffff1690820152612bd86040820185612762565b60806060820152816080820152818360a08301375f81830160a090810191909152601f909201601f191601019392505050565b80516020808301519190811015612af0575f1960209190910360031b1b16919050565b80356001600160601b03198116906014841015612c65576001600160601b03196001600160601b03198560140360031b1b82161691505b5092915050565b5f5f5f5f60c08587031215612c7f575f5ffd5b8435935060208501359250612c97866040870161258c565b9150612ba3866080870161258c565b5f5f60408385031215612cb7575f5ffd5b50508035926020909101359150565b601f821115612d0d57805f5260205f20601f840160051c81016020851015612ceb5750805b601f840160051c820191505b81811015612d0a575f8155600101612cf7565b50505b505050565b815167ffffffffffffffff811115612d2c57612d2c61248b565b612d4081612d3a8454612abe565b84612cc6565b6020601f821160018114612d72575f8315612d5b5750848201515b5f19600385901b1c1916600184901b178455612d0a565b5f84815260208120601f198516915b82811015612da15787850151825560209485019460019092019101612d81565b5084821015612dbe57868401515f19600387901b60f8161c191681555b50505050600190811b01905550565b5f82612de757634e487b7160e01b5f52601260045260245ffd5b500690565b634e487b7160e01b5f52601160045260245ffd5b80820281158282048414176103ed576103ed612dec565b808201808211156103ed576103ed612dec565b828152604060208201525f612e426040830184612658565b949350505050565b5f82518060208501845e5f920191825250919050565b5f60208284031215612e70575f5ffd5b505191905056fe30644e72e131a029b85045b68181585d97816a916871ca8d3c208c16d87cfd47a2646970667358221220efab4d1dc0ddf7aa8382c58b38b2d29d0cf0358cc095354ebdead4dd0754378a64736f6c634300081b0033",
    "linkReferences": {}
  },
  "methodIdentifiers": {
    "BN254_KEY_REGISTRATION_TYPEHASH()": "b05c8f6d",
    "ECDSA_KEY_REGISTRATION_TYPEHASH()": "166aa127",
    "allocationManager()": "ca8aa7c7",
    "configureOperatorSet((address,uint32),uint8)": "ea0d8149",
    "deregisterKey(address,(address,uint32))": "87ab86f4",
    "domainSeparator()": "f698da25",
    "encodeBN254KeyData((uint256,uint256),(uint256[2],uint256[2]))": "50435add",
    "getBN254Key((address,uint32),address)": "9a43e3fb",
    "getBN254KeyRegistrationMessageHash(address,(address,uint32),bytes)": "7690e395",
    "getECDSAAddress((address,uint32),address)": "3b32a7bd",
    "getECDSAKey((address,uint32),address)": "aa165c30",
    "getECDSAKeyRegistrationMessageHash(address,(address,uint32),address)": "d9f12db2",
    "getKeyHash((address,uint32),address)": "ea194e2e",
    "getOperatorFromSigningKey((address,uint32),bytes)": "8256909c",
    "getOperatorSetCurveType((address,uint32))": "7cffe48c",
    "isKeyGloballyRegistered(bytes32)": "dab42d7e",
    "isRegistered((address,uint32),address)": "bd30a0b9",
    "permissionController()": "4657e26a",
    "registerKey(address,(address,uint32),bytes,bytes)": "d40cda16",
    "version()": "54fd4d50"
  },
  "id": 177
}