{
  "abi": [
    {
      "type": "constructor",
      "inputs": [
        {
          "name": "_operatorTableUpdater",
          "type": "address",
          "internalType": "contract IOperatorTableUpdater"
        },
        {
          "name": "_version",
          "type": "string",
          "internalType": "string"
        }
      ],
      "stateMutability": "nonpayable"
    },
    {
      "type": "function",
      "name": "getNonsignerOperatorInfo",
      "inputs": [
        {
          "name": "operatorSet",
          "type": "tuple",
          "internalType": "struct OperatorSet",
          "components": [
            {
              "name": "avs",
              "type": "address",
              "internalType": "address"
            },
            {
              "name": "id",
              "type": "uint32",
              "internalType": "uint32"
            }
          ]
        },
        {
          "name": "referenceTimestamp",
          "type": "uint32",
          "internalType": "uint32"
        },
        {
          "name": "operatorIndex",
          "type": "uint256",
          "internalType": "uint256"
        }
      ],
      "outputs": [
        {
          "name": "",
          "type": "tuple",
          "internalType": "struct IOperatorTableCalculatorTypes.BN254OperatorInfo",
          "components": [
            {
              "name": "pubkey",
              "type": "tuple",
              "internalType": "struct BN254.G1Point",
              "components": [
                {
                  "name": "X",
                  "type": "uint256",
                  "internalType": "uint256"
                },
                {
                  "name": "Y",
                  "type": "uint256",
                  "internalType": "uint256"
                }
              ]
            },
            {
              "name": "weights",
              "type": "uint256[]",
              "internalType": "uint256[]"
            }
          ]
        }
      ],
      "stateMutability": "view"
    },
    {
      "type": "function",
      "name": "getOperatorSetInfo",
      "inputs": [
        {
          "name": "operatorSet",
          "type": "tuple",
          "internalType": "struct OperatorSet",
          "components": [
            {
              "name": "avs",
              "type": "address",
              "internalType": "address"
            },
            {
              "name": "id",
              "type": "uint32",
              "internalType": "uint32"
            }
          ]
        },
        {
          "name": "referenceTimestamp",
          "type": "uint32",
          "internalType": "uint32"
        }
      ],
      "outputs": [
        {
          "name": "",
          "type": "tuple",
          "internalType": "struct IOperatorTableCalculatorTypes.BN254OperatorSetInfo",
          "components": [
            {
              "name": "operatorInfoTreeRoot",
              "type": "bytes32",
              "internalType": "bytes32"
            },
            {
              "name": "numOperators",
              "type": "uint256",
              "internalType": "uint256"
            },
            {
              "name": "aggregatePubkey",
              "type": "tuple",
              "internalType": "struct BN254.G1Point",
              "components": [
                {
                  "name": "X",
                  "type": "uint256",
                  "internalType": "uint256"
                },
                {
                  "name": "Y",
                  "type": "uint256",
                  "internalType": "uint256"
                }
              ]
            },
            {
              "name": "totalWeights",
              "type": "uint256[]",
              "internalType": "uint256[]"
            }
          ]
        }
      ],
      "stateMutability": "view"
    },
    {
      "type": "function",
      "name": "getOperatorSetOwner",
      "inputs": [
        {
          "name": "operatorSet",
          "type": "tuple",
          "internalType": "struct OperatorSet",
          "components": [
            {
              "name": "avs",
              "type": "address",
              "internalType": "address"
            },
            {
              "name": "id",
              "type": "uint32",
              "internalType": "uint32"
            }
          ]
        }
      ],
      "outputs": [
        {
          "name": "",
          "type": "address",
          "internalType": "address"
        }
      ],
      "stateMutability": "view"
    },
    {
      "type": "function",
      "name": "isNonsignerCached",
      "inputs": [
        {
          "name": "operatorSet",
          "type": "tuple",
          "internalType": "struct OperatorSet",
          "components": [
            {
              "name": "avs",
              "type": "address",
              "internalType": "address"
            },
            {
              "name": "id",
              "type": "uint32",
              "internalType": "uint32"
            }
          ]
        },
        {
          "name": "referenceTimestamp",
          "type": "uint32",
          "internalType": "uint32"
        },
        {
          "name": "operatorIndex",
          "type": "uint256",
          "internalType": "uint256"
        }
      ],
      "outputs": [
        {
          "name": "",
          "type": "bool",
          "internalType": "bool"
        }
      ],
      "stateMutability": "view"
    },
    {
      "type": "function",
      "name": "latestReferenceTimestamp",
      "inputs": [
        {
          "name": "operatorSet",
          "type": "tuple",
          "internalType": "struct OperatorSet",
          "components": [
            {
              "name": "avs",
              "type": "address",
              "internalType": "address"
            },
            {
              "name": "id",
              "type": "uint32",
              "internalType": "uint32"
            }
          ]
        }
      ],
      "outputs": [
        {
          "name": "",
          "type": "uint32",
          "internalType": "uint32"
        }
      ],
      "stateMutability": "view"
    },
    {
      "type": "function",
      "name": "maxOperatorTableStaleness",
      "inputs": [
        {
          "name": "operatorSet",
          "type": "tuple",
          "internalType": "struct OperatorSet",
          "components": [
            {
              "name": "avs",
              "type": "address",
              "internalType": "address"
            },
            {
              "name": "id",
              "type": "uint32",
              "internalType": "uint32"
            }
          ]
        }
      ],
      "outputs": [
        {
          "name": "",
          "type": "uint32",
          "internalType": "uint32"
        }
      ],
      "stateMutability": "view"
    },
    {
      "type": "function",
      "name": "operatorTableUpdater",
      "inputs": [],
      "outputs": [
        {
          "name": "",
          "type": "address",
          "internalType": "contract IOperatorTableUpdater"
        }
      ],
      "stateMutability": "view"
    },
    {
      "type": "function",
      "name": "trySignatureVerification",
      "inputs": [
        {
          "name": "msgHash",
          "type": "bytes32",
          "internalType": "bytes32"
        },
        {
          "name": "aggPubkey",
          "type": "tuple",
          "internalType": "struct BN254.G1Point",
          "components": [
            {
              "name": "X",
              "type": "uint256",
              "internalType": "uint256"
            },
            {
              "name": "Y",
              "type": "uint256",
              "internalType": "uint256"
            }
          ]
        },
        {
          "name": "apkG2",
          "type": "tuple",
          "internalType": "struct BN254.G2Point",
          "components": [
            {
              "name": "X",
              "type": "uint256[2]",
              "internalType": "uint256[2]"
            },
            {
              "name": "Y",
              "type": "uint256[2]",
              "internalType": "uint256[2]"
            }
          ]
        },
        {
          "name": "signature",
          "type": "tuple",
          "internalType": "struct BN254.G1Point",
          "components": [
            {
              "name": "X",
              "type": "uint256",
              "internalType": "uint256"
            },
            {
              "name": "Y",
              "type": "uint256",
              "internalType": "uint256"
            }
          ]
        }
      ],
      "outputs": [
        {
          "name": "pairingSuccessful",
          "type": "bool",
          "internalType": "bool"
        },
        {
          "name": "signatureValid",
          "type": "bool",
          "internalType": "bool"
        }
      ],
      "stateMutability": "view"
    },
    {
      "type": "function",
      "name": "updateOperatorTable",
      "inputs": [
        {
          "name": "operatorSet",
          "type": "tuple",
          "internalType": "struct OperatorSet",
          "components": [
            {
              "name": "avs",
              "type": "address",
              "internalType": "address"
            },
            {
              "name": "id",
              "type": "uint32",
              "internalType": "uint32"
            }
          ]
        },
        {
          "name": "referenceTimestamp",
          "type": "uint32",
          "internalType": "uint32"
        },
        {
          "name": "operatorSetInfo",
          "type": "tuple",
          "internalType": "struct IOperatorTableCalculatorTypes.BN254OperatorSetInfo",
          "components": [
            {
              "name": "operatorInfoTreeRoot",
              "type": "bytes32",
              "internalType": "bytes32"
            },
            {
              "name": "numOperators",
              "type": "uint256",
              "internalType": "uint256"
            },
            {
              "name": "aggregatePubkey",
              "type": "tuple",
              "internalType": "struct BN254.G1Point",
              "components": [
                {
                  "name": "X",
                  "type": "uint256",
                  "internalType": "uint256"
                },
                {
                  "name": "Y",
                  "type": "uint256",
                  "internalType": "uint256"
                }
              ]
            },
            {
              "name": "totalWeights",
              "type": "uint256[]",
              "internalType": "uint256[]"
            }
          ]
        },
        {
          "name": "operatorSetConfig",
          "type": "tuple",
          "internalType": "struct ICrossChainRegistryTypes.OperatorSetConfig",
          "components": [
            {
              "name": "owner",
              "type": "address",
              "internalType": "address"
            },
            {
              "name": "maxStalenessPeriod",
              "type": "uint32",
              "internalType": "uint32"
            }
          ]
        }
      ],
      "outputs": [],
      "stateMutability": "nonpayable"
    },
    {
      "type": "function",
      "name": "verifyCertificate",
      "inputs": [
        {
          "name": "operatorSet",
          "type": "tuple",
          "internalType": "struct OperatorSet",
          "components": [
            {
              "name": "avs",
              "type": "address",
              "internalType": "address"
            },
            {
              "name": "id",
              "type": "uint32",
              "internalType": "uint32"
            }
          ]
        },
        {
          "name": "cert",
          "type": "tuple",
          "internalType": "struct IBN254CertificateVerifierTypes.BN254Certificate",
          "components": [
            {
              "name": "referenceTimestamp",
              "type": "uint32",
              "internalType": "uint32"
            },
            {
              "name": "messageHash",
              "type": "bytes32",
              "internalType": "bytes32"
            },
            {
              "name": "signature",
              "type": "tuple",
              "internalType": "struct BN254.G1Point",
              "components": [
                {
                  "name": "X",
                  "type": "uint256",
                  "internalType": "uint256"
                },
                {
                  "name": "Y",
                  "type": "uint256",
                  "internalType": "uint256"
                }
              ]
            },
            {
              "name": "apk",
              "type": "tuple",
              "internalType": "struct BN254.G2Point",
              "components": [
                {
                  "name": "X",
                  "type": "uint256[2]",
                  "internalType": "uint256[2]"
                },
                {
                  "name": "Y",
                  "type": "uint256[2]",
                  "internalType": "uint256[2]"
                }
              ]
            },
            {
              "name": "nonSignerWitnesses",
              "type": "tuple[]",
              "internalType": "struct IBN254CertificateVerifierTypes.BN254OperatorInfoWitness[]",
              "components": [
                {
                  "name": "operatorIndex",
                  "type": "uint32",
                  "internalType": "uint32"
                },
                {
                  "name": "operatorInfoProof",
                  "type": "bytes",
                  "internalType": "bytes"
                },
                {
                  "name": "operatorInfo",
                  "type": "tuple",
                  "internalType": "struct IOperatorTableCalculatorTypes.BN254OperatorInfo",
                  "components": [
                    {
                      "name": "pubkey",
                      "type": "tuple",
                      "internalType": "struct BN254.G1Point",
                      "components": [
                        {
                          "name": "X",
                          "type": "uint256",
                          "internalType": "uint256"
                        },
                        {
                          "name": "Y",
                          "type": "uint256",
                          "internalType": "uint256"
                        }
                      ]
                    },
                    {
                      "name": "weights",
                      "type": "uint256[]",
                      "internalType": "uint256[]"
                    }
                  ]
                }
              ]
            }
          ]
        }
      ],
      "outputs": [
        {
          "name": "signedStakes",
          "type": "uint256[]",
          "internalType": "uint256[]"
        }
      ],
      "stateMutability": "nonpayable"
    },
    {
      "type": "function",
      "name": "verifyCertificateNominal",
      "inputs": [
        {
          "name": "operatorSet",
          "type": "tuple",
          "internalType": "struct OperatorSet",
          "components": [
            {
              "name": "avs",
              "type": "address",
              "internalType": "address"
            },
            {
              "name": "id",
              "type": "uint32",
              "internalType": "uint32"
            }
          ]
        },
        {
          "name": "cert",
          "type": "tuple",
          "internalType": "struct IBN254CertificateVerifierTypes.BN254Certificate",
          "components": [
            {
              "name": "referenceTimestamp",
              "type": "uint32",
              "internalType": "uint32"
            },
            {
              "name": "messageHash",
              "type": "bytes32",
              "internalType": "bytes32"
            },
            {
              "name": "signature",
              "type": "tuple",
              "internalType": "struct BN254.G1Point",
              "components": [
                {
                  "name": "X",
                  "type": "uint256",
                  "internalType": "uint256"
                },
                {
                  "name": "Y",
                  "type": "uint256",
                  "internalType": "uint256"
                }
              ]
            },
            {
              "name": "apk",
              "type": "tuple",
              "internalType": "struct BN254.G2Point",
              "components": [
                {
                  "name": "X",
                  "type": "uint256[2]",
                  "internalType": "uint256[2]"
                },
                {
                  "name": "Y",
                  "type": "uint256[2]",
                  "internalType": "uint256[2]"
                }
              ]
            },
            {
              "name": "nonSignerWitnesses",
              "type": "tuple[]",
              "internalType": "struct IBN254CertificateVerifierTypes.BN254OperatorInfoWitness[]",
              "components": [
                {
                  "name": "operatorIndex",
                  "type": "uint32",
                  "internalType": "uint32"
                },
                {
                  "name": "operatorInfoProof",
                  "type": "bytes",
                  "internalType": "bytes"
                },
                {
                  "name": "operatorInfo",
                  "type": "tuple",
                  "internalType": "struct IOperatorTableCalculatorTypes.BN254OperatorInfo",
                  "components": [
                    {
                      "name": "pubkey",
                      "type": "tuple",
                      "internalType": "struct BN254.G1Point",
                      "components": [
                        {
                          "name": "X",
                          "type": "uint256",
                          "internalType": "uint256"
                        },
                        {
                          "name": "Y",
                          "type": "uint256",
                          "internalType": "uint256"
                        }
                      ]
                    },
                    {
                      "name": "weights",
                      "type": "uint256[]",
                      "internalType": "uint256[]"
                    }
                  ]
                }
              ]
            }
          ]
        },
        {
          "name": "totalStakeNominalThresholds",
          "type": "uint256[]",
          "internalType": "uint256[]"
        }
      ],
      "outputs": [
        {
          "name": "",
          "type": "bool",
          "internalType": "bool"
        }
      ],
      "stateMutability": "nonpayable"
    },
    {
      "type": "function",
      "name": "verifyCertificateProportion",
      "inputs": [
        {
          "name": "operatorSet",
          "type": "tuple",
          "internalType": "struct OperatorSet",
          "components": [
            {
              "name": "avs",
              "type": "address",
              "internalType": "address"
            },
            {
              "name": "id",
              "type": "uint32",
              "internalType": "uint32"
            }
          ]
        },
        {
          "name": "cert",
          "type": "tuple",
          "internalType": "struct IBN254CertificateVerifierTypes.BN254Certificate",
          "components": [
            {
              "name": "referenceTimestamp",
              "type": "uint32",
              "internalType": "uint32"
            },
            {
              "name": "messageHash",
              "type": "bytes32",
              "internalType": "bytes32"
            },
            {
              "name": "signature",
              "type": "tuple",
              "internalType": "struct BN254.G1Point",
              "components": [
                {
                  "name": "X",
                  "type": "uint256",
                  "internalType": "uint256"
                },
                {
                  "name": "Y",
                  "type": "uint256",
                  "internalType": "uint256"
                }
              ]
            },
            {
              "name": "apk",
              "type": "tuple",
              "internalType": "struct BN254.G2Point",
              "components": [
                {
                  "name": "X",
                  "type": "uint256[2]",
                  "internalType": "uint256[2]"
                },
                {
                  "name": "Y",
                  "type": "uint256[2]",
                  "internalType": "uint256[2]"
                }
              ]
            },
            {
              "name": "nonSignerWitnesses",
              "type": "tuple[]",
              "internalType": "struct IBN254CertificateVerifierTypes.BN254OperatorInfoWitness[]",
              "components": [
                {
                  "name": "operatorIndex",
                  "type": "uint32",
                  "internalType": "uint32"
                },
                {
                  "name": "operatorInfoProof",
                  "type": "bytes",
                  "internalType": "bytes"
                },
                {
                  "name": "operatorInfo",
                  "type": "tuple",
                  "internalType": "struct IOperatorTableCalculatorTypes.BN254OperatorInfo",
                  "components": [
                    {
                      "name": "pubkey",
                      "type": "tuple",
                      "internalType": "struct BN254.G1Point",
                      "components": [
                        {
                          "name": "X",
                          "type": "uint256",
                          "internalType": "uint256"
                        },
                        {
                          "name": "Y",
                          "type": "uint256",
                          "internalType": "uint256"
                        }
                      ]
                    },
                    {
                      "name": "weights",
                      "type": "uint256[]",
                      "internalType": "uint256[]"
                    }
                  ]
                }
              ]
            }
          ]
        },
        {
          "name": "totalStakeProportionThresholds",
          "type": "uint16[]",
          "internalType": "uint16[]"
        }
      ],
      "outputs": [
        {
          "name": "",
          "type": "bool",
          "internalType": "bool"
        }
      ],
      "stateMutability": "nonpayable"
    },
    {
      "type": "function",
      "name": "version",
      "inputs": [],
      "outputs": [
        {
          "name": "",
          "type": "string",
          "internalType": "string"
        }
      ],
      "stateMutability": "view"
    },
    {
      "type": "event",
      "name": "Initialized",
      "inputs": [
        {
          "name": "version",
          "type": "uint8",
          "indexed": false,
          "internalType": "uint8"
        }
      ],
      "anonymous": false
    },
    {
      "type": "event",
      "name": "MaxStalenessPeriodUpdated",
      "inputs": [
        {
          "name": "operatorSet",
          "type": "tuple",
          "indexed": false,
          "internalType": "struct OperatorSet",
          "components": [
            {
              "name": "avs",
              "type": "address",
              "internalType": "address"
            },
            {
              "name": "id",
              "type": "uint32",
              "internalType": "uint32"
            }
          ]
        },
        {
          "name": "maxStalenessPeriod",
          "type": "uint32",
          "indexed": false,
          "internalType": "uint32"
        }
      ],
      "anonymous": false
    },
    {
      "type": "event",
      "name": "OperatorSetOwnerUpdated",
      "inputs": [
        {
          "name": "operatorSet",
          "type": "tuple",
          "indexed": false,
          "internalType": "struct OperatorSet",
          "components": [
            {
              "name": "avs",
              "type": "address",
              "internalType": "address"
            },
            {
              "name": "id",
              "type": "uint32",
              "internalType": "uint32"
            }
          ]
        },
        {
          "name": "owner",
          "type": "address",
          "indexed": false,
          "internalType": "address"
        }
      ],
      "anonymous": false
    },
    {
      "type": "event",
      "name": "TableUpdated",
      "inputs": [
        {
          "name": "operatorSet",
          "type": "tuple",
          "indexed": false,
          "internalType": "struct OperatorSet",
          "components": [
            {
              "name": "avs",
              "type": "address",
              "internalType": "address"
            },
            {
              "name": "id",
              "type": "uint32",
              "internalType": "uint32"
            }
          ]
        },
        {
          "name": "referenceTimestamp",
          "type": "uint32",
          "indexed": false,
          "internalType": "uint32"
        },
        {
          "name": "operatorSetInfo",
          "type": "tuple",
          "indexed": false,
          "internalType": "struct IOperatorTableCalculatorTypes.BN254OperatorSetInfo",
          "components": [
            {
              "name": "operatorInfoTreeRoot",
              "type": "bytes32",
              "internalType": "bytes32"
            },
            {
              "name": "numOperators",
              "type": "uint256",
              "internalType": "uint256"
            },
            {
              "name": "aggregatePubkey",
              "type": "tuple",
              "internalType": "struct BN254.G1Point",
              "components": [
                {
                  "name": "X",
                  "type": "uint256",
                  "internalType": "uint256"
                },
                {
                  "name": "Y",
                  "type": "uint256",
                  "internalType": "uint256"
                }
              ]
            },
            {
              "name": "totalWeights",
              "type": "uint256[]",
              "internalType": "uint256[]"
            }
          ]
        }
      ],
      "anonymous": false
    },
    {
      "type": "error",
      "name": "ArrayLengthMismatch",
      "inputs": []
    },
    {
      "type": "error",
      "name": "CertificateStale",
      "inputs": []
    },
    {
      "type": "error",
      "name": "ECAddFailed",
      "inputs": []
    },
    {
      "type": "error",
      "name": "ECMulFailed",
      "inputs": []
    },
    {
      "type": "error",
      "name": "ECPairingFailed",
      "inputs": []
    },
    {
      "type": "error",
      "name": "ExpModFailed",
      "inputs": []
    },
    {
      "type": "error",
      "name": "InvalidOperatorIndex",
      "inputs": []
    },
    {
      "type": "error",
      "name": "InvalidProofLength",
      "inputs": []
    },
    {
      "type": "error",
      "name": "InvalidShortString",
      "inputs": []
    },
    {
      "type": "error",
      "name": "OnlyTableUpdater",
      "inputs": []
    },
    {
      "type": "error",
      "name": "ReferenceTimestampDoesNotExist",
      "inputs": []
    },
    {
      "type": "error",
      "name": "RootDisabled",
      "inputs": []
    },
    {
      "type": "error",
      "name": "StringTooLong",
      "inputs": [
        {
          "name": "str",
          "type": "string",
          "internalType": "string"
        }
      ]
    },
    {
      "type": "error",
      "name": "TableUpdateStale",
      "inputs": []
    },
    {
      "type": "error",
      "name": "VerificationFailed",
      "inputs": []
    }
  ],
  "bytecode": {
    "object": "0x60c060405234801561000f575f5ffd5b50604051612a06380380612a0683398101604081905261002e9161016a565b6001600160a01b0382166080528061004581610058565b60a0525061005161009e565b5050610294565b5f5f829050601f8151111561008b578260405163305a27a960e01b81526004016100829190610239565b60405180910390fd5b80516100968261026e565b179392505050565b5f54610100900460ff16156101055760405162461bcd60e51b815260206004820152602760248201527f496e697469616c697a61626c653a20636f6e747261637420697320696e697469604482015266616c697a696e6760c81b6064820152608401610082565b5f5460ff90811614610154575f805460ff191660ff9081179091556040519081527f7f26b83ff96e1f2b6a682f133852f6798a09c465da95921460cefb38474024989060200160405180910390a15b565b634e487b7160e01b5f52604160045260245ffd5b5f5f6040838503121561017b575f5ffd5b82516001600160a01b0381168114610191575f5ffd5b60208401519092506001600160401b038111156101ac575f5ffd5b8301601f810185136101bc575f5ffd5b80516001600160401b038111156101d5576101d5610156565b604051601f8201601f19908116603f011681016001600160401b038111828210171561020357610203610156565b60405281815282820160200187101561021a575f5ffd5b8160208401602083015e5f602083830101528093505050509250929050565b602081525f82518060208401528060208501604085015e5f604082850101526040601f19601f83011684010191505092915050565b8051602080830151919081101561028e575f198160200360031b1b821691505b50919050565b60805160a0516127436102c35f395f6104e401525f81816101de0152818161062f0152610d0201526127435ff3fe608060405234801561000f575f5ffd5b50600436106100cb575f3560e01c80635ddb9b5b1161008857806368d6e0811161006357806368d6e081146101d95780638481892014610218578063dd2ae1b91461022b578063eb39e68f1461023e575f5ffd5b80635ddb9b5b146101895780636141879e146101b15780636738c40b146101c4575f5ffd5b8063017d7974146100cf578063080b7150146100f75780631a18746c1461011757806326af6a3c1461014157806354fd4d50146101615780635be8727414610176575b5f5ffd5b6100e26100dd366004612103565b61025e565b60405190151581526020015b60405180910390f35b61010a6101053660046121de565b6103ef565b6040516100ee9190612229565b61012a610125366004612260565b610404565b6040805192151583529015156020830152016100ee565b61015461014f3660046122ae565b610425565b6040516100ee9190612323565b6101696104dd565b6040516100ee9190612358565b6100e26101843660046122ae565b61050d565b61019c61019736600461238d565b6105d8565b60405163ffffffff90911681526020016100ee565b61019c6101bf36600461238d565b6105fe565b6101d76101d23660046123bd565b610624565b005b6102007f000000000000000000000000000000000000000000000000000000000000000081565b6040516001600160a01b0390911681526020016100ee565b61020061022636600461238d565b6107f1565b6100e2610239366004612476565b61081a565b61025161024c3660046124e9565b6108ad565b6040516100ee9190612560565b5f5f61026a8585610972565b90505f61027686610b32565b5f8181526004602081815260408084208a5163ffffffff16855282528084208151608081018352815481526001820154818501528251808401845260028301548152600383015481860152818401529381018054835181860281018601909452808452969750949593949093606086019383018282801561031457602002820191905f5260205f20905b815481526020019060010190808311610300575b50505050508152505090505f8160600151905085518451146103495760405163512509d360e11b815260040160405180910390fd5b5f5b84518110156103de575f61271088838151811061036a5761036a612572565b602002602001015161ffff1684848151811061038857610388612572565b602002602001015161039a919061259a565b6103a491906125c5565b9050808683815181106103b9576103b9612572565b602002602001015110156103d5575f96505050505050506103e8565b5060010161034b565b5060019450505050505b9392505050565b60606103fb8383610972565b90505b92915050565b5f5f61041886848787600162061a80610b95565b9150915094509492505050565b61042d611a9c565b5f61043785610b32565b5f81815260056020908152604080832063ffffffff8916845282528083208784528252918290208251608081018452815481850190815260018301546060830152815260028201805485518186028101860190965280865295965090949193858401939092908301828280156104ca57602002820191905f5260205f20905b8154815260200190600101908083116104b6575b5050505050815250509150509392505050565b60606105087f0000000000000000000000000000000000000000000000000000000000000000610c5d565b905090565b5f5f61051885610b32565b5f81815260056020908152604080832063ffffffff891684528252808320878452825280832081516080810183528154818401908152600183015460608301528152600282018054845181870281018701909552808552969750949590949193858101939291908301828280156105ac57602002820191905f5260205f20905b815481526020019060010190808311610598575b50505091909252505081515191925050158015906105ce575080516020015115155b9695505050505050565b5f5f6105e383610b32565b5f9081526003602052604090205463ffffffff169392505050565b5f5f61060983610b32565b5f9081526002602052604090205463ffffffff169392505050565b336001600160a01b037f0000000000000000000000000000000000000000000000000000000000000000161461066d5760405163030c1b6b60e11b815260040160405180910390fd5b5f6106856106803687900387018761238d565b610b32565b5f8181526003602052604090205490915063ffffffff908116908516116106bf57604051632f20889f60e01b815260040160405180910390fd5b5f81815260046020818152604080842063ffffffff8916855282529283902086518155818701516001820155928601518051600285015581015160038401556060860151805187949361071793908501920190611ac6565b5050505f818152600360209081526040909120805463ffffffff191663ffffffff8716179055610749908301836125d8565b5f8281526001602090815260409182902080546001600160a01b0319166001600160a01b039490941693909317909255610788919084019084016125f1565b5f8281526002602052604090819020805463ffffffff191663ffffffff9390931692909217909155517f93e6bea1c9b5dce4a5c07b00261e956df2a4a253d9ab6ca070ca2037d72ada9e906107e29087908790879061260a565b60405180910390a15050505050565b5f5f6107fc83610b32565b5f908152600160205260409020546001600160a01b03169392505050565b5f5f6108268585610972565b9050825181511461084a5760405163512509d360e11b815260040160405180910390fd5b5f5b81518110156108a15783818151811061086757610867612572565b602002602001015182828151811061088157610881612572565b60200260200101511015610899575f925050506103e8565b60010161084c565b50600195945050505050565b6108b5611b0f565b5f6108bf84610b32565b5f81815260046020818152604080842063ffffffff891685528252928390208351608081018552815481526001820154818401528451808601865260028301548152600383015481850152818601529281018054855181850281018501909652808652959650929490936060860193909290919083018282801561096057602002820191905f5260205f20905b81548152602001906001019080831161094c575b50505050508152505091505092915050565b606061097c611b41565b61098584610b32565b80825283516109949190610c9a565b80515f908152600460208181526040808420875163ffffffff1685528252928390208351608081018552815481526001820154818401528451808601865260028301548152600383015481850152818601529281018054855181850281018501909652808652939491936060860193830182828015610a3057602002820191905f5260205f20905b815481526020019060010190808311610a1c575b505050919092525050506020820181905251610a5f57604051630cad17b760e31b815260040160405180910390fd5b806020015160600151516001600160401b03811115610a8057610a80611c6f565b604051908082528060200260200182016040528015610aa9578160200160208202803683370190505b5060408201525f5b81602001516060015151811015610b0d578160200151606001518181518110610adc57610adc612572565b602002602001015182604001518281518110610afa57610afa612572565b6020908102919091010152600101610ab1565b50610b188184610d95565b6060820152610b278184610ebf565b604001519392505050565b5f815f0151826020015163ffffffff16604051602001610b7d92919060609290921b6bffffffffffffffffffffffff1916825260a01b6001600160a01b031916601482015260200190565b6040516020818303038152906040526103fe90612656565b5f5f5f610ba189610f2d565b90505f610bb08a89898c610fb7565b90505f610bc7610bc08a8461106b565b8b906110db565b90505f610c09610c0284610bfc6040805180820182525f80825260209182015281518083019092526001825260029082015290565b9061106b565b85906110db565b90508715610c2e57610c2582610c1d61114f565b838c8b61120f565b96509450610c4e565b610c4182610c3a61114f565b838c611423565b95508515610c4e57600194505b50505050965096945050505050565b60605f610c698361165a565b6040805160208082528183019092529192505f91906020820181803683375050509182525060208101929092525090565b5f8281526002602052604090205463ffffffff16801580610cca5750610cc08183612679565b63ffffffff164211155b610ce75760405163640fcd6b60e11b815260040160405180910390fd5b60405163193877e160e21b815263ffffffff831660048201527f00000000000000000000000000000000000000000000000000000000000000006001600160a01b0316906364e1df8490602401602060405180830381865afa158015610d4f573d5f5f3e3d5ffd5b505050506040513d601f19601f82011682018060405250810190610d739190612695565b610d9057604051631b14174b60e01b815260040160405180910390fd5b505050565b6040805180820182525f808252602091820181905282518084019093528083529082018190525b826080015151811015610eb8575f83608001518281518110610de057610de0612572565b60200260200101519050846020015160200151815f015163ffffffff1610610e1b576040516301fa53c760e11b815260040160405180910390fd5b845184515f91610e2b9184611681565b8051909150610e3b9085906110db565b93505f5b816020015151811015610ead57866040015151811015610ea55781602001518181518110610e6f57610e6f612572565b602002602001015187604001518281518110610e8d57610e8d612572565b60200260200101818151610ea191906126b4565b9052505b600101610e3f565b505050600101610dbc565b5092915050565b5f610edf610ed084606001516117f8565b602085015160400151906110db565b90505f5f610efb84602001518486606001518760400151610404565b91509150818015610f095750805b610f265760405163439cc0cd60e01b815260040160405180910390fd5b5050505050565b604080518082019091525f80825260208201525f8080610f5a5f5160206126ee5f395f51905f52866126c7565b90505b610f668161188e565b90935091505f5160206126ee5f395f51905f528283098303610f9e576040805180820190915290815260208101919091529392505050565b5f5160206126ee5f395f51905f52600182089050610f5d565b8251602080850151845180519083015186840151805190850151875188870151604080519889018e90528801989098526060870195909552608086019390935260a085019190915260c084015260e08301526101008201526101208101919091525f907f30644e72e131a029b85045b68181585d2833e84879b9709143e1f593f00000019061014001604051602081830303815290604052805190602001205f1c61106291906126c7565b95945050505050565b604080518082019091525f8082526020820152611086611b86565b835181526020808501519082015260408082018490525f908360608460076107d05a03fa905080806110b457fe5b50806110d357604051632319df1960e11b815260040160405180910390fd5b505092915050565b604080518082019091525f80825260208201526110f6611ba4565b835181526020808501518183015283516040808401919091529084015160608301525f908360808460066107d05a03fa9050808061113057fe5b50806110d35760405163d4b68fd760e01b815260040160405180910390fd5b611157611bc2565b50604080516080810182527f198e9393920d483a7260bfb731fb5d25f1aa493335a9e71297e485b7aef312c28183019081527f1800deef121f1e76426a00665e5c4479674322d4f75edadd46debd5cd992f6ed6060830152815281518083019092527f275dc4a288d1afb3cbb1ac09187524c7db36395df7be3b99e673b13a075a65ec82527f1d9befcd05a5323e6da4d435f3b617cdb3af83285c2df711ef39c01571827f9d60208381019190915281019190915290565b6040805180820182528681526020808201869052825180840190935286835282018490525f91829190611240611be2565b5f5b60028110156113f7575f61125782600661259a565b905084826002811061126b5761126b612572565b6020020151518361127c835f6126da565b600c811061128c5761128c612572565b60200201528482600281106112a3576112a3612572565b602002015160200151838260016112ba91906126da565b600c81106112ca576112ca612572565b60200201528382600281106112e1576112e1612572565b60200201515151836112f48360026126da565b600c811061130457611304612572565b602002015283826002811061131b5761131b612572565b60200201515160016020020151836113348360036126da565b600c811061134457611344612572565b602002015283826002811061135b5761135b612572565b6020020151602001515f6002811061137557611375612572565b6020020151836113868360046126da565b600c811061139657611396612572565b60200201528382600281106113ad576113ad612572565b6020020151602001516001600281106113c8576113c8612572565b6020020151836113d98360056126da565b600c81106113e9576113e9612572565b602002015250600101611242565b50611400611c01565b5f6020826101808560088cfa9151919c9115159b50909950505050505050505050565b6040805180820182528581526020808201859052825180840190935285835282018390525f91611451611be2565b5f5b6002811015611608575f61146882600661259a565b905084826002811061147c5761147c612572565b6020020151518361148d835f6126da565b600c811061149d5761149d612572565b60200201528482600281106114b4576114b4612572565b602002015160200151838260016114cb91906126da565b600c81106114db576114db612572565b60200201528382600281106114f2576114f2612572565b60200201515151836115058360026126da565b600c811061151557611515612572565b602002015283826002811061152c5761152c612572565b60200201515160016020020151836115458360036126da565b600c811061155557611555612572565b602002015283826002811061156c5761156c612572565b6020020151602001515f6002811061158657611586612572565b6020020151836115978360046126da565b600c81106115a7576115a7612572565b60200201528382600281106115be576115be612572565b6020020151602001516001600281106115d9576115d9612572565b6020020151836115ea8360056126da565b600c81106115fa576115fa612572565b602002015250600101611453565b50611611611c01565b5f6020826101808560086107d05a03fa9050808061162b57fe5b508061164a576040516324ccc79360e21b815260040160405180910390fd5b5051151598975050505050505050565b5f60ff8216601f8111156103fe57604051632cd44ac360e21b815260040160405180910390fd5b611689611a9c565b5f84815260056020908152604080832063ffffffff808816855290835281842086519091168452825280832081516080810183528154818401908152600183015460608301528152600282018054845181870281018701909552808552919492938584019390929083018282801561171e57602002820191905f5260205f20905b81548152602001906001019080831161170a575b5050509190925250508151519192505f911515905080611742575081516020015115155b9050806117eb575f6117628787875f01518860400151896020015161190a565b9050806117825760405163439cc0cd60e01b815260040160405180910390fd5b6040808601515f8981526005602090815283822063ffffffff808c1684529082528483208a51909116835281529290208151805182558301516001820155828201518051929391926117da9260028501920190611ac6565b5090505084604001519350506117ef565b8192505b50509392505050565b604080518082019091525f8082526020820152815115801561181c57506020820151155b15611839575050604080518082019091525f808252602082015290565b6040518060400160405280835f015181526020015f5160206126ee5f395f51905f52846020015161186a91906126c7565b611881905f5160206126ee5f395f51905f526126b4565b905292915050565b919050565b5f80805f5160206126ee5f395f51905f5260035f5160206126ee5f395f51905f52865f5160206126ee5f395f51905f52888909090890505f6118fe827f0c19139cb84c680a6e14116da060561765e05aa45a1c72a34f082305b61f3f525f5160206126ee5f395f51905f52611975565b91959194509092505050565b5f5f8360405160200161191d9190612323565b60408051601f1981840301815291815281516020928301205f8a81526004845282812063ffffffff808c1683529452919091205490925090611969908590839085908a8116906119ee16565b98975050505050505050565b5f5f61197f611c01565b611987611c1f565b602080825281810181905260408201819052606082018890526080820187905260a082018690528260c08360056107d05a03fa925082806119c457fe5b50826119e35760405163d51edae360e01b815260040160405180910390fd5b505195945050505050565b5f836119fb868585611a05565b1495945050505050565b5f60208451611a1491906126c7565b15611a32576040516313717da960e21b815260040160405180910390fd5b8260205b85518111611a9357611a496002856126c7565b5f03611a6a57815f528086015160205260405f209150600284049350611a81565b808601515f528160205260405f2091506002840493505b611a8c6020826126da565b9050611a36565b50949350505050565b604080516080810182525f91810182815260608201929092529081905b8152602001606081525090565b828054828255905f5260205f20908101928215611aff579160200282015b82811115611aff578251825591602001919060010190611ae4565b50611b0b929150611c3d565b5090565b60405180608001604052805f81526020015f8152602001611ab960405180604001604052805f81526020015f81525090565b60405180608001604052805f8152602001611b5a611b0f565b815260200160608152602001611b8160405180604001604052805f81526020015f81525090565b905290565b60405180606001604052806003906020820280368337509192915050565b60405180608001604052806004906020820280368337509192915050565b6040518060400160405280611bd5611c51565b8152602001611b81611c51565b604051806101800160405280600c906020820280368337509192915050565b60405180602001604052806001906020820280368337509192915050565b6040518060c001604052806006906020820280368337509192915050565b5b80821115611b0b575f8155600101611c3e565b60405180604001604052806002906020820280368337509192915050565b634e487b7160e01b5f52604160045260245ffd5b604080519081016001600160401b0381118282101715611ca557611ca5611c6f565b60405290565b60405160a081016001600160401b0381118282101715611ca557611ca5611c6f565b604051606081016001600160401b0381118282101715611ca557611ca5611c6f565b604051608081016001600160401b0381118282101715611ca557611ca5611c6f565b604051601f8201601f191681016001600160401b0381118282101715611d3957611d39611c6f565b604052919050565b80356001600160a01b0381168114611889575f5ffd5b803563ffffffff81168114611889575f5ffd5b5f60408284031215611d7a575f5ffd5b611d82611c83565b9050611d8d82611d41565b8152611d9b60208301611d57565b602082015292915050565b5f60408284031215611db6575f5ffd5b611dbe611c83565b823581526020928301359281019290925250919050565b5f82601f830112611de4575f5ffd5b611dec611c83565b806040840185811115611dfd575f5ffd5b845b81811015611e17578035845260209384019301611dff565b509095945050505050565b5f60808284031215611e32575f5ffd5b611e3a611c83565b9050611e468383611dd5565b8152611d9b8360408401611dd5565b5f6001600160401b03821115611e6d57611e6d611c6f565b5060051b60200190565b5f82601f830112611e86575f5ffd5b8135611e99611e9482611e55565b611d11565b8082825260208201915060208360051b860101925085831115611eba575f5ffd5b602085015b83811015611ed7578035835260209283019201611ebf565b5095945050505050565b5f60608284031215611ef1575f5ffd5b611ef9611c83565b9050611f058383611da6565b815260408201356001600160401b03811115611f1f575f5ffd5b611f2b84828501611e77565b60208301525092915050565b5f6101208284031215611f48575f5ffd5b611f50611cab565b9050611f5b82611d57565b815260208281013590820152611f748360408401611da6565b6040820152611f868360808401611e22565b60608201526101008201356001600160401b03811115611fa4575f5ffd5b8201601f81018413611fb4575f5ffd5b8035611fc2611e9482611e55565b8082825260208201915060208360051b850101925086831115611fe3575f5ffd5b602084015b838110156120f35780356001600160401b03811115612005575f5ffd5b85016060818a03601f1901121561201a575f5ffd5b612022611ccd565b61202e60208301611d57565b815260408201356001600160401b03811115612048575f5ffd5b82016020810190603f018b1361205c575f5ffd5b80356001600160401b0381111561207557612075611c6f565b612088601f8201601f1916602001611d11565b8181528c602083850101111561209c575f5ffd5b816020840160208301375f6020838301015280602085015250505060608201356001600160401b038111156120cf575f5ffd5b6120de8b602083860101611ee1565b60408301525084525060209283019201611fe8565b5060808501525091949350505050565b5f5f5f60808486031215612115575f5ffd5b61211f8585611d6a565b925060408401356001600160401b03811115612139575f5ffd5b61214586828701611f37565b92505060608401356001600160401b03811115612160575f5ffd5b8401601f81018613612170575f5ffd5b803561217e611e9482611e55565b8082825260208201915060208360051b85010192508883111561219f575f5ffd5b6020840193505b828410156121d057833561ffff811681146121bf575f5ffd5b8252602093840193909101906121a6565b809450505050509250925092565b5f5f606083850312156121ef575f5ffd5b6121f98484611d6a565b915060408301356001600160401b03811115612213575f5ffd5b61221f85828601611f37565b9150509250929050565b602080825282518282018190525f918401906040840190835b81811015611e17578351835260209384019390920191600101612242565b5f5f5f5f6101208587031215612274575f5ffd5b843593506122858660208701611da6565b92506122948660608701611e22565b91506122a38660e08701611da6565b905092959194509250565b5f5f5f608084860312156122c0575f5ffd5b6122ca8585611d6a565b92506122d860408501611d57565b929592945050506060919091013590565b5f8151808452602084019350602083015f5b828110156123195781518652602095860195909101906001016122fb565b5093949350505050565b60208082528251805183830152015160408201525f602083015160608084015261235060808401826122e9565b949350505050565b602081525f82518060208401528060208501604085015e5f604082850101526040601f19601f83011684010191505092915050565b5f6040828403121561239d575f5ffd5b6103fb8383611d6a565b5f604082840312156123b7575f5ffd5b50919050565b5f5f5f5f60c085870312156123d0575f5ffd5b6123da86866123a7565b93506123e860408601611d57565b925060608501356001600160401b03811115612402575f5ffd5b850160a08188031215612413575f5ffd5b61241b611cef565b81358152602080830135908201526124368860408401611da6565b604082015260808201356001600160401b03811115612453575f5ffd5b61245f89828501611e77565b60608301525092506122a3905086608087016123a7565b5f5f5f60808486031215612488575f5ffd5b6124928585611d6a565b925060408401356001600160401b038111156124ac575f5ffd5b6124b886828701611f37565b92505060608401356001600160401b038111156124d3575f5ffd5b6124df86828701611e77565b9150509250925092565b5f5f606083850312156124fa575f5ffd5b6125048484611d6a565b915061251260408401611d57565b90509250929050565b80518252602081015160208301525f6040820151612546604085018280518252602090810151910152565b50606082015160a0608085015261235060a08501826122e9565b602081525f6103fb602083018461251b565b634e487b7160e01b5f52603260045260245ffd5b634e487b7160e01b5f52601160045260245ffd5b80820281158282048414176103fe576103fe612586565b634e487b7160e01b5f52601260045260245ffd5b5f826125d3576125d36125b1565b500490565b5f602082840312156125e8575f5ffd5b6103fb82611d41565b5f60208284031215612601575f5ffd5b6103fb82611d57565b6001600160a01b0361261b85611d41565b16815263ffffffff61262f60208601611d57565b16602082015263ffffffff83166040820152608060608201525f611062608083018461251b565b805160208083015191908110156123b7575f1960209190910360031b1b16919050565b63ffffffff81811683821601908111156103fe576103fe612586565b5f602082840312156126a5575f5ffd5b815180151581146103e8575f5ffd5b818103818111156103fe576103fe612586565b5f826126d5576126d56125b1565b500690565b808201808211156103fe576103fe61258656fe30644e72e131a029b85045b68181585d97816a916871ca8d3c208c16d87cfd47a2646970667358221220ae3ee6d6ef3e2d7e8c4dee9d42778ff3f2e1cf91f23b45419fc4ece74a9afddf64736f6c634300081b0033",
    "linkReferences": {}
  },
  "methodIdentifiers": {
    "getNonsignerOperatorInfo((address,uint32),uint32,uint256)": "26af6a3c",
    "getOperatorSetInfo((address,uint32),uint32)": "eb39e68f",
    "getOperatorSetOwner((address,uint32))": "84818920",
    "isNonsignerCached((address,uint32),uint32,uint256)": "5be87274",
    "latestReferenceTimestamp((address,uint32))": "5ddb9b5b",
    "maxOperatorTableStaleness((address,uint32))": "6141879e",
    "operatorTableUpdater()": "68d6e081",
    "trySignatureVerification(bytes32,(uint256,uint256),(uint256[2],uint256[2]),(uint256,uint256))": "1a18746c",
    "updateOperatorTable((address,uint32),uint32,(bytes32,uint256,(uint256,uint256),uint256[]),(address,uint32))": "6738c40b",
    "verifyCertificate((address,uint32),(uint32,bytes32,(uint256,uint256),(uint256[2],uint256[2]),(uint32,bytes,((uint256,uint256),uint256[]))[]))": "080b7150",
    "verifyCertificateNominal((address,uint32),(uint32,bytes32,(uint256,uint256),(uint256[2],uint256[2]),(uint32,bytes,((uint256,uint256),uint256[]))[]),uint256[])": "dd2ae1b9",
    "verifyCertificateProportion((address,uint32),(uint32,bytes32,(uint256,uint256),(uint256[2],uint256[2]),(uint32,bytes,((uint256,uint256),uint256[]))[]),uint16[])": "017d7974",
    "version()": "54fd4d50"
  },
  "id": 174
}