{
  "abi": [
    {
      "type": "constructor",
      "inputs": [
        {
          "name": "_operatorTableUpdater",
          "type": "address",
          "internalType": "contract IOperatorTableUpdater"
        },
        {
          "name": "_version",
          "type": "string",
          "internalType": "string"
        }
      ],
      "stateMutability": "nonpayable"
    },
    {
      "type": "function",
      "name": "calculateCertificateDigest",
      "inputs": [
        {
          "name": "referenceTimestamp",
          "type": "uint32",
          "internalType": "uint32"
        },
        {
          "name": "messageHash",
          "type": "bytes32",
          "internalType": "bytes32"
        }
      ],
      "outputs": [
        {
          "name": "",
          "type": "bytes32",
          "internalType": "bytes32"
        }
      ],
      "stateMutability": "view"
    },
    {
      "type": "function",
      "name": "domainSeparator",
      "inputs": [],
      "outputs": [
        {
          "name": "",
          "type": "bytes32",
          "internalType": "bytes32"
        }
      ],
      "stateMutability": "view"
    },
    {
      "type": "function",
      "name": "getOperatorCount",
      "inputs": [
        {
          "name": "operatorSet",
          "type": "tuple",
          "internalType": "struct OperatorSet",
          "components": [
            {
              "name": "avs",
              "type": "address",
              "internalType": "address"
            },
            {
              "name": "id",
              "type": "uint32",
              "internalType": "uint32"
            }
          ]
        },
        {
          "name": "referenceTimestamp",
          "type": "uint32",
          "internalType": "uint32"
        }
      ],
      "outputs": [
        {
          "name": "",
          "type": "uint32",
          "internalType": "uint32"
        }
      ],
      "stateMutability": "view"
    },
    {
      "type": "function",
      "name": "getOperatorInfo",
      "inputs": [
        {
          "name": "operatorSet",
          "type": "tuple",
          "internalType": "struct OperatorSet",
          "components": [
            {
              "name": "avs",
              "type": "address",
              "internalType": "address"
            },
            {
              "name": "id",
              "type": "uint32",
              "internalType": "uint32"
            }
          ]
        },
        {
          "name": "referenceTimestamp",
          "type": "uint32",
          "internalType": "uint32"
        },
        {
          "name": "operatorIndex",
          "type": "uint32",
          "internalType": "uint32"
        }
      ],
      "outputs": [
        {
          "name": "",
          "type": "tuple",
          "internalType": "struct IOperatorTableCalculatorTypes.ECDSAOperatorInfo",
          "components": [
            {
              "name": "pubkey",
              "type": "address",
              "internalType": "address"
            },
            {
              "name": "weights",
              "type": "uint256[]",
              "internalType": "uint256[]"
            }
          ]
        }
      ],
      "stateMutability": "view"
    },
    {
      "type": "function",
      "name": "getOperatorInfos",
      "inputs": [
        {
          "name": "operatorSet",
          "type": "tuple",
          "internalType": "struct OperatorSet",
          "components": [
            {
              "name": "avs",
              "type": "address",
              "internalType": "address"
            },
            {
              "name": "id",
              "type": "uint32",
              "internalType": "uint32"
            }
          ]
        },
        {
          "name": "referenceTimestamp",
          "type": "uint32",
          "internalType": "uint32"
        }
      ],
      "outputs": [
        {
          "name": "",
          "type": "tuple[]",
          "internalType": "struct IOperatorTableCalculatorTypes.ECDSAOperatorInfo[]",
          "components": [
            {
              "name": "pubkey",
              "type": "address",
              "internalType": "address"
            },
            {
              "name": "weights",
              "type": "uint256[]",
              "internalType": "uint256[]"
            }
          ]
        }
      ],
      "stateMutability": "view"
    },
    {
      "type": "function",
      "name": "getOperatorSetOwner",
      "inputs": [
        {
          "name": "operatorSet",
          "type": "tuple",
          "internalType": "struct OperatorSet",
          "components": [
            {
              "name": "avs",
              "type": "address",
              "internalType": "address"
            },
            {
              "name": "id",
              "type": "uint32",
              "internalType": "uint32"
            }
          ]
        }
      ],
      "outputs": [
        {
          "name": "",
          "type": "address",
          "internalType": "address"
        }
      ],
      "stateMutability": "view"
    },
    {
      "type": "function",
      "name": "getTotalStakes",
      "inputs": [
        {
          "name": "operatorSet",
          "type": "tuple",
          "internalType": "struct OperatorSet",
          "components": [
            {
              "name": "avs",
              "type": "address",
              "internalType": "address"
            },
            {
              "name": "id",
              "type": "uint32",
              "internalType": "uint32"
            }
          ]
        },
        {
          "name": "referenceTimestamp",
          "type": "uint32",
          "internalType": "uint32"
        }
      ],
      "outputs": [
        {
          "name": "",
          "type": "uint256[]",
          "internalType": "uint256[]"
        }
      ],
      "stateMutability": "view"
    },
    {
      "type": "function",
      "name": "latestReferenceTimestamp",
      "inputs": [
        {
          "name": "operatorSet",
          "type": "tuple",
          "internalType": "struct OperatorSet",
          "components": [
            {
              "name": "avs",
              "type": "address",
              "internalType": "address"
            },
            {
              "name": "id",
              "type": "uint32",
              "internalType": "uint32"
            }
          ]
        }
      ],
      "outputs": [
        {
          "name": "",
          "type": "uint32",
          "internalType": "uint32"
        }
      ],
      "stateMutability": "view"
    },
    {
      "type": "function",
      "name": "maxOperatorTableStaleness",
      "inputs": [
        {
          "name": "operatorSet",
          "type": "tuple",
          "internalType": "struct OperatorSet",
          "components": [
            {
              "name": "avs",
              "type": "address",
              "internalType": "address"
            },
            {
              "name": "id",
              "type": "uint32",
              "internalType": "uint32"
            }
          ]
        }
      ],
      "outputs": [
        {
          "name": "",
          "type": "uint32",
          "internalType": "uint32"
        }
      ],
      "stateMutability": "view"
    },
    {
      "type": "function",
      "name": "operatorTableUpdater",
      "inputs": [],
      "outputs": [
        {
          "name": "",
          "type": "address",
          "internalType": "contract IOperatorTableUpdater"
        }
      ],
      "stateMutability": "view"
    },
    {
      "type": "function",
      "name": "updateOperatorTable",
      "inputs": [
        {
          "name": "operatorSet",
          "type": "tuple",
          "internalType": "struct OperatorSet",
          "components": [
            {
              "name": "avs",
              "type": "address",
              "internalType": "address"
            },
            {
              "name": "id",
              "type": "uint32",
              "internalType": "uint32"
            }
          ]
        },
        {
          "name": "referenceTimestamp",
          "type": "uint32",
          "internalType": "uint32"
        },
        {
          "name": "operatorInfos",
          "type": "tuple[]",
          "internalType": "struct IOperatorTableCalculatorTypes.ECDSAOperatorInfo[]",
          "components": [
            {
              "name": "pubkey",
              "type": "address",
              "internalType": "address"
            },
            {
              "name": "weights",
              "type": "uint256[]",
              "internalType": "uint256[]"
            }
          ]
        },
        {
          "name": "operatorSetConfig",
          "type": "tuple",
          "internalType": "struct ICrossChainRegistryTypes.OperatorSetConfig",
          "components": [
            {
              "name": "owner",
              "type": "address",
              "internalType": "address"
            },
            {
              "name": "maxStalenessPeriod",
              "type": "uint32",
              "internalType": "uint32"
            }
          ]
        }
      ],
      "outputs": [],
      "stateMutability": "nonpayable"
    },
    {
      "type": "function",
      "name": "verifyCertificate",
      "inputs": [
        {
          "name": "operatorSet",
          "type": "tuple",
          "internalType": "struct OperatorSet",
          "components": [
            {
              "name": "avs",
              "type": "address",
              "internalType": "address"
            },
            {
              "name": "id",
              "type": "uint32",
              "internalType": "uint32"
            }
          ]
        },
        {
          "name": "cert",
          "type": "tuple",
          "internalType": "struct IECDSACertificateVerifierTypes.ECDSACertificate",
          "components": [
            {
              "name": "referenceTimestamp",
              "type": "uint32",
              "internalType": "uint32"
            },
            {
              "name": "messageHash",
              "type": "bytes32",
              "internalType": "bytes32"
            },
            {
              "name": "sig",
              "type": "bytes",
              "internalType": "bytes"
            }
          ]
        }
      ],
      "outputs": [
        {
          "name": "",
          "type": "uint256[]",
          "internalType": "uint256[]"
        }
      ],
      "stateMutability": "view"
    },
    {
      "type": "function",
      "name": "verifyCertificateNominal",
      "inputs": [
        {
          "name": "operatorSet",
          "type": "tuple",
          "internalType": "struct OperatorSet",
          "components": [
            {
              "name": "avs",
              "type": "address",
              "internalType": "address"
            },
            {
              "name": "id",
              "type": "uint32",
              "internalType": "uint32"
            }
          ]
        },
        {
          "name": "cert",
          "type": "tuple",
          "internalType": "struct IECDSACertificateVerifierTypes.ECDSACertificate",
          "components": [
            {
              "name": "referenceTimestamp",
              "type": "uint32",
              "internalType": "uint32"
            },
            {
              "name": "messageHash",
              "type": "bytes32",
              "internalType": "bytes32"
            },
            {
              "name": "sig",
              "type": "bytes",
              "internalType": "bytes"
            }
          ]
        },
        {
          "name": "totalStakeNominalThresholds",
          "type": "uint256[]",
          "internalType": "uint256[]"
        }
      ],
      "outputs": [
        {
          "name": "",
          "type": "bool",
          "internalType": "bool"
        }
      ],
      "stateMutability": "view"
    },
    {
      "type": "function",
      "name": "verifyCertificateProportion",
      "inputs": [
        {
          "name": "operatorSet",
          "type": "tuple",
          "internalType": "struct OperatorSet",
          "components": [
            {
              "name": "avs",
              "type": "address",
              "internalType": "address"
            },
            {
              "name": "id",
              "type": "uint32",
              "internalType": "uint32"
            }
          ]
        },
        {
          "name": "cert",
          "type": "tuple",
          "internalType": "struct IECDSACertificateVerifierTypes.ECDSACertificate",
          "components": [
            {
              "name": "referenceTimestamp",
              "type": "uint32",
              "internalType": "uint32"
            },
            {
              "name": "messageHash",
              "type": "bytes32",
              "internalType": "bytes32"
            },
            {
              "name": "sig",
              "type": "bytes",
              "internalType": "bytes"
            }
          ]
        },
        {
          "name": "totalStakeProportionThresholds",
          "type": "uint16[]",
          "internalType": "uint16[]"
        }
      ],
      "outputs": [
        {
          "name": "",
          "type": "bool",
          "internalType": "bool"
        }
      ],
      "stateMutability": "view"
    },
    {
      "type": "function",
      "name": "version",
      "inputs": [],
      "outputs": [
        {
          "name": "",
          "type": "string",
          "internalType": "string"
        }
      ],
      "stateMutability": "view"
    },
    {
      "type": "event",
      "name": "Initialized",
      "inputs": [
        {
          "name": "version",
          "type": "uint8",
          "indexed": false,
          "internalType": "uint8"
        }
      ],
      "anonymous": false
    },
    {
      "type": "event",
      "name": "MaxStalenessPeriodUpdated",
      "inputs": [
        {
          "name": "operatorSet",
          "type": "tuple",
          "indexed": false,
          "internalType": "struct OperatorSet",
          "components": [
            {
              "name": "avs",
              "type": "address",
              "internalType": "address"
            },
            {
              "name": "id",
              "type": "uint32",
              "internalType": "uint32"
            }
          ]
        },
        {
          "name": "maxStalenessPeriod",
          "type": "uint32",
          "indexed": false,
          "internalType": "uint32"
        }
      ],
      "anonymous": false
    },
    {
      "type": "event",
      "name": "OperatorSetOwnerUpdated",
      "inputs": [
        {
          "name": "operatorSet",
          "type": "tuple",
          "indexed": false,
          "internalType": "struct OperatorSet",
          "components": [
            {
              "name": "avs",
              "type": "address",
              "internalType": "address"
            },
            {
              "name": "id",
              "type": "uint32",
              "internalType": "uint32"
            }
          ]
        },
        {
          "name": "owner",
          "type": "address",
          "indexed": false,
          "internalType": "address"
        }
      ],
      "anonymous": false
    },
    {
      "type": "event",
      "name": "TableUpdated",
      "inputs": [
        {
          "name": "operatorSet",
          "type": "tuple",
          "indexed": false,
          "internalType": "struct OperatorSet",
          "components": [
            {
              "name": "avs",
              "type": "address",
              "internalType": "address"
            },
            {
              "name": "id",
              "type": "uint32",
              "internalType": "uint32"
            }
          ]
        },
        {
          "name": "referenceTimestamp",
          "type": "uint32",
          "indexed": false,
          "internalType": "uint32"
        },
        {
          "name": "operatorInfos",
          "type": "tuple[]",
          "indexed": false,
          "internalType": "struct IOperatorTableCalculatorTypes.ECDSAOperatorInfo[]",
          "components": [
            {
              "name": "pubkey",
              "type": "address",
              "internalType": "address"
            },
            {
              "name": "weights",
              "type": "uint256[]",
              "internalType": "uint256[]"
            }
          ]
        }
      ],
      "anonymous": false
    },
    {
      "type": "error",
      "name": "ArrayLengthMismatch",
      "inputs": []
    },
    {
      "type": "error",
      "name": "CertificateStale",
      "inputs": []
    },
    {
      "type": "error",
      "name": "InvalidShortString",
      "inputs": []
    },
    {
      "type": "error",
      "name": "InvalidSignature",
      "inputs": []
    },
    {
      "type": "error",
      "name": "InvalidSignatureLength",
      "inputs": []
    },
    {
      "type": "error",
      "name": "OnlyTableUpdater",
      "inputs": []
    },
    {
      "type": "error",
      "name": "ReferenceTimestampDoesNotExist",
      "inputs": []
    },
    {
      "type": "error",
      "name": "RootDisabled",
      "inputs": []
    },
    {
      "type": "error",
      "name": "SignatureExpired",
      "inputs": []
    },
    {
      "type": "error",
      "name": "StringTooLong",
      "inputs": [
        {
          "name": "str",
          "type": "string",
          "internalType": "string"
        }
      ]
    },
    {
      "type": "error",
      "name": "TableUpdateStale",
      "inputs": []
    },
    {
      "type": "error",
      "name": "VerificationFailed",
      "inputs": []
    }
  ],
  "bytecode": {
    "object": "0x60c060405234801561000f575f5ffd5b5060405161244c38038061244c83398101604081905261002e9161016d565b6001600160a01b03821660805280806100468161005b565b60a0525061005490506100a1565b5050610297565b5f5f829050601f8151111561008e578260405163305a27a960e01b8152600401610085919061023c565b60405180910390fd5b805161009982610271565b179392505050565b5f54610100900460ff16156101085760405162461bcd60e51b815260206004820152602760248201527f496e697469616c697a61626c653a20636f6e747261637420697320696e697469604482015266616c697a696e6760c81b6064820152608401610085565b5f5460ff90811614610157575f805460ff191660ff9081179091556040519081527f7f26b83ff96e1f2b6a682f133852f6798a09c465da95921460cefb38474024989060200160405180910390a15b565b634e487b7160e01b5f52604160045260245ffd5b5f5f6040838503121561017e575f5ffd5b82516001600160a01b0381168114610194575f5ffd5b60208401519092506001600160401b038111156101af575f5ffd5b8301601f810185136101bf575f5ffd5b80516001600160401b038111156101d8576101d8610159565b604051601f8201601f19908116603f011681016001600160401b038111828210171561020657610206610159565b60405281815282820160200187101561021d575f5ffd5b8160208401602083015e5f602083830101528093505050509250929050565b602081525f82518060208401528060208501604085015e5f604082850101526040601f19601f83011684010191505092915050565b80516020808301519190811015610291575f198160200360031b1b821691505b50919050565b60805160a05161217f6102cd5f395f8181610679015261123f01525f81816101db015281816106ad0152610e74015261217f5ff3fe608060405234801561000f575f5ffd5b50600436106100f0575f3560e01c80636141879e1161009357806384818920116100635780638481892014610248578063be86e0b21461025b578063c0da24201461027e578063f698da2514610291575f5ffd5b80636141879e146101c357806368d6e081146101d65780637c85ac4c1461021557806380c7d3f314610235575f5ffd5b806323c2a3cb116100ce57806323c2a3cb1461015e57806354fd4d501461018657806356d482f51461019b5780635ddb9b5b146101b0575f5ffd5b806304cdbae4146100f4578063082ef73d1461011d578063184674341461013d575b5f5ffd5b6101076101023660046117b7565b610299565b60405161011491906117e9565b60405180910390f35b61013061012b3660046118e3565b61049d565b6040516101149190611979565b61015061014b36600461198b565b6105d0565b604051908152602001610114565b61017161016c3660046119b3565b61063f565b60405163ffffffff9091168152602001610114565b61018e610672565b60405161011491906119fc565b6101ae6101a9366004611a4e565b6106a2565b005b6101716101be366004611ac0565b61089f565b6101716101d1366004611ac0565b6108c5565b6101fd7f000000000000000000000000000000000000000000000000000000000000000081565b6040516001600160a01b039091168152602001610114565b6102286102233660046119b3565b6108eb565b6040516101149190611ada565b610107610243366004611b4d565b610a59565b6101fd610256366004611ac0565b610a65565b61026e610269366004611b98565b610a8e565b6040519015158152602001610114565b61026e61028c366004611c7a565b610b21565b610150610c13565b60605f6102b36102ae36869003860186611ac0565b610cd3565b5f8181526003602052604090205490915063ffffffff8481169116146102ec57604051630cad17b760e31b815260040160405180910390fd5b5f81815260046020908152604080832063ffffffff871684529091529020548061032957604051630cad17b760e31b815260040160405180910390fd5b5f82815260056020908152604080832063ffffffff88168452825280832083805290915281206001015490816001600160401b0381111561036c5761036c61182b565b604051908082528060200260200182016040528015610395578160200160208202803683370190505b5090505f5b83811015610490575f85815260056020908152604080832063ffffffff808c168552908352818420908516845282528083206001018054825181850281018501909352808352919290919083018282801561041257602002820191905f5260205f20905b8154815260200190600101908083116103fe575b509394505f93505050505b81518110801561042c57508481105b156104865781818151811061044357610443611cf0565b602002602001015184828151811061045d5761045d611cf0565b602002602001018181516104719190611d18565b9052508061047e81611d2b565b91505061041d565b505060010161039a565b5093505050505b92915050565b604080518082019091525f8152606060208201525f6104bb85610cd3565b5f81815260046020908152604080832063ffffffff808a1685529252909120549192508416106105315760405162461bcd60e51b815260206004820152601c60248201527f4f70657261746f7220696e646578206f7574206f6620626f756e647300000000604482015260640160405180910390fd5b5f81815260056020908152604080832063ffffffff808916855290835281842090871684528252918290208251808401845281546001600160a01b03168152600182018054855181860281018601909652808652919492938581019392908301828280156105bc57602002820191905f5260205f20905b8154815260200190600101908083116105a8575b5050505050815250509150505b9392505050565b604080517fda346acb3ce99e7c5132bf8cafb159ad8085970ebfdba78007ef0fe163063d14602082015263ffffffff841691810191909152606081018290525f90819060800160405160208183030381529060405280519060200120905061063781610d36565b949350505050565b5f5f61064a84610cd3565b5f90815260046020908152604080832063ffffffff8716845290915290205491505092915050565b606061069d7f0000000000000000000000000000000000000000000000000000000000000000610d7c565b905090565b336001600160a01b037f000000000000000000000000000000000000000000000000000000000000000016146106eb5760405163030c1b6b60e11b815260040160405180910390fd5b5f6106fe6102ae36889003880188611ac0565b5f8181526003602052604090205490915063ffffffff9081169086161161073857604051632f20889f60e01b815260040160405180910390fd5b5f81815260046020908152604080832063ffffffff8916845290915281208490555b838110156107c45784848281811061077457610774611cf0565b90506020028101906107869190611d43565b5f83815260056020908152604080832063ffffffff808c168552908352818420908616845290915290206107ba8282611d78565b505060010161075a565b505f818152600360209081526040909120805463ffffffff191663ffffffff88161790556107f490830183611e7b565b5f8281526001602090815260409182902080546001600160a01b0319166001600160a01b03949094169390931790925561083391908401908401611e96565b5f8281526002602052604090819020805463ffffffff191663ffffffff9390931692909217909155517f4f588da9ec57976194a79b5594f8f8782923d93013df2b9ed12fe125805011ef9061088f908890889088908890611eaf565b60405180910390a1505050505050565b5f5f6108aa83610cd3565b5f9081526003602052604090205463ffffffff169392505050565b5f5f6108d083610cd3565b5f9081526002602052604090205463ffffffff169392505050565b60605f6108f784610cd3565b5f81815260046020908152604080832063ffffffff8089168552925282205492935082166001600160401b038111156109325761093261182b565b60405190808252806020026020018201604052801561097757816020015b604080518082019091525f8152606060208201528152602001906001900390816109505790505b5090505f5b8263ffffffff168163ffffffff161015610a4f575f84815260056020908152604080832063ffffffff808b16855290835281842090851684528252918290208251808401845281546001600160a01b0316815260018201805485518186028101860190965280865291949293858101939290830182828015610a1b57602002820191905f5260205f20905b815481526020019060010190808311610a07575b505050505081525050828263ffffffff1681518110610a3c57610a3c611cf0565b602090810291909101015260010161097c565b5095945050505050565b60606105c98383610db9565b5f5f610a7083610cd3565b5f908152600160205260409020546001600160a01b03169392505050565b5f5f610a9a8585610db9565b90508251815114610abe5760405163512509d360e11b815260040160405180910390fd5b5f5b8151811015610b1557838181518110610adb57610adb611cf0565b6020026020010151828281518110610af557610af5611cf0565b60200260200101511015610b0d575f925050506105c9565b600101610ac0565b50600195945050505050565b5f5f610b2d8686610db9565b90505f610b41876101026020890189611e96565b82519091508414610b655760405163512509d360e11b815260040160405180910390fd5b5f5b8251811015610c05575f612710878784818110610b8657610b86611cf0565b9050602002016020810190610b9b9190611fe2565b61ffff16848481518110610bb157610bb1611cf0565b6020026020010151610bc39190611d61565b610bcd9190612017565b905080848381518110610be257610be2611cf0565b60200260200101511015610bfc575f945050505050610637565b50600101610b67565b506001979650505050505050565b60408051808201909152600a81526922b4b3b2b72630bcb2b960b11b6020909101525f7f91ab3d17e3a50a9d89e63fd30b92be7f5336b03b287bb946787a83a9d62a27667f71b625cfad44bac63b13dba07f2e1d6084ee04b6f8752101ece6126d584ee6ea610c80611237565b8051602091820120604051610cb8949392309101938452602084019290925260408301526001600160a01b0316606082015260800190565b60405160208183030381529060405280519060200120905090565b5f815f0151826020015163ffffffff16604051602001610d1e92919060609290921b6bffffffffffffffffffffffff1916825260a01b6001600160a01b031916601482015260200190565b6040516020818303038152906040526104979061202a565b5f610d3f610c13565b60405161190160f01b6020820152602281019190915260428101839052606201604051602081830303815290604052805190602001209050919050565b60605f610d88836112ac565b6040805160208082528183019092529192505f91906020820181803683375050509182525060208101929092525090565b60605f610dce6102ae36869003860186611ac0565b5f8181526002602090815260409091205491925063ffffffff90911690610df790850185611e96565b610e01919061204d565b63ffffffff16421115610e275760405163640fcd6b60e11b815260040160405180910390fd5b610e346020840184611e96565b5f8281526003602052604090205463ffffffff908116911614610e6a57604051630cad17b760e31b815260040160405180910390fd5b6001600160a01b037f0000000000000000000000000000000000000000000000000000000000000000166364e1df84610ea66020860186611e96565b6040516001600160e01b031960e084901b16815263ffffffff919091166004820152602401602060405180830381865afa158015610ee6573d5f5f3e3d5ffd5b505050506040513d601f19601f82011682018060405250810190610f0a9190612069565b610f2757604051631b14174b60e01b815260040160405180910390fd5b5f610f39856101026020870187611e96565b90505f81516001600160401b03811115610f5557610f5561182b565b604051908082528060200260200182016040528015610f7e578160200160208202803683370190505b5090505f610f9c610f926020880188611e96565b87602001356105d0565b90505f80610fea83610fb160408b018b612088565b8080601f0160208091040260200160405190810160405280939291908181526020018383808284375f920191909152506112d392505050565b915091508061100c5760405163439cc0cd60e01b815260040160405180910390fd5b5f5b8251811015611229575f83828151811061102a5761102a611cf0565b602002602001015190505f5f905061105d60405180604001604052805f6001600160a01b03168152602001606081525090565b5f5b60045f8c81526020019081526020015f205f8e5f0160208101906110839190611e96565b63ffffffff1663ffffffff1681526020019081526020015f20548110156111885760055f8c81526020019081526020015f205f8e5f0160208101906110c89190611e96565b63ffffffff908116825260208083019390935260409182015f90812091851681529083528190208151808301835281546001600160a01b03168152600182018054845181870281018701909552808552919492938584019390929083018282801561115057602002820191905f5260205f20905b81548152602001906001019080831161113c575b5050505050815250509150836001600160a01b0316825f01516001600160a01b0316036111805760019250611188565b60010161105f565b50816111a75760405163439cc0cd60e01b815260040160405180910390fd5b60208101515f5b8151811080156111be5750895181105b15611218578181815181106111d5576111d5611cf0565b60200260200101518a82815181106111ef576111ef611cf0565b602002602001018181516112039190611d18565b9052508061121081611d2b565b9150506111ae565b50506001909301925061100e915050565b509298975050505050505050565b60605f6112637f0000000000000000000000000000000000000000000000000000000000000000610d7c565b9050805f8151811061127757611277611cf0565b016020908101516040516001600160f81b03199091169181019190915260210160405160208183030381529060405291505090565b5f60ff8216601f81111561049757604051632cd44ac360e21b815260040160405180910390fd5b60605f5f83511180156112f15750604183516112ef91906120ca565b155b61130e57604051634be6321b60e01b815260040160405180910390fd5b5f6041845161131d9190612017565b9050806001600160401b038111156113375761133761182b565b604051908082528060200260200182016040528015611360578160200160208202803683370190505b5092505f5b818110156114e257604080516041808252608082019092525f916020820181803683370190505090505f5b60418110156113fb5786816113a6856041611d61565b6113b09190611d18565b815181106113c0576113c0611cf0565b602001015160f81c60f81b8282815181106113dd576113dd611cf0565b60200101906001600160f81b03191690815f1a905350600101611390565b505f5f61140889846114f0565b90925090505f816004811115611420576114206120dd565b14158061143457506001600160a01b038216155b1561144757505f94506114e99350505050565b5f8411801561148b57508661145d6001866120f1565b8151811061146d5761146d611cf0565b60200260200101516001600160a01b0316826001600160a01b031611155b1561149e57505f94506114e99350505050565b6114ab828a855f1961152f565b818785815181106114be576114be611cf0565b6001600160a01b039290921660209283029190910190910152505050600101611365565b5060019150505b9250929050565b5f5f8251604103611524576020830151604084015160608501515f1a61151887828585611587565b945094505050506114e9565b505f905060026114e9565b4281101561155057604051630819bdcd60e01b815260040160405180910390fd5b6115646001600160a01b0385168484611644565b61158157604051638baa579f60e01b815260040160405180910390fd5b50505050565b5f807f7fffffffffffffffffffffffffffffff5d576e7357a4501ddfe92f46681b20a08311156115bc57505f9050600361163b565b604080515f8082526020820180845289905260ff881692820192909252606081018690526080810185905260019060a0016020604051602081039080840390855afa15801561160d573d5f5f3e3d5ffd5b5050604051601f1901519150506001600160a01b038116611635575f6001925092505061163b565b91505f90505b94509492505050565b5f5f5f61165185856114f0565b90925090505f816004811115611669576116696120dd565b1480156116875750856001600160a01b0316826001600160a01b0316145b8061169857506116988686866116a2565b9695505050505050565b5f5f5f856001600160a01b0316631626ba7e60e01b86866040516024016116ca929190612104565b60408051601f198184030181529181526020820180516001600160e01b03166001600160e01b0319909416939093179092529051611708919061211c565b5f60405180830381855afa9150503d805f8114611740576040519150601f19603f3d011682016040523d82523d5f602084013e611745565b606091505b509150915081801561175957506020815110155b801561169857508051630b135d3f60e11b9061177e9083016020908101908401612132565b149695505050505050565b5f60408284031215611799575f5ffd5b50919050565b803563ffffffff811681146117b2575f5ffd5b919050565b5f5f606083850312156117c8575f5ffd5b6117d28484611789565b91506117e06040840161179f565b90509250929050565b602080825282518282018190525f918401906040840190835b81811015611820578351835260209384019390920191600101611802565b509095945050505050565b634e487b7160e01b5f52604160045260245ffd5b604051601f8201601f191681016001600160401b03811182821017156118675761186761182b565b604052919050565b6001600160a01b0381168114611883575f5ffd5b50565b5f60408284031215611896575f5ffd5b604080519081016001600160401b03811182821017156118b8576118b861182b565b60405290508082356118c98161186f565b81526118d76020840161179f565b60208201525092915050565b5f5f5f608084860312156118f5575f5ffd5b6118ff8585611886565b925061190d6040850161179f565b915061191b6060850161179f565b90509250925092565b80516001600160a01b03168252602080820151604082850181905281519085018190525f929190910190829060608601905b80831015610a4f5783518252602082019150602084019350600183019250611956565b602081525f6105c96020830184611924565b5f5f6040838503121561199c575f5ffd5b6119a58361179f565b946020939093013593505050565b5f5f606083850312156119c4575f5ffd5b6117d28484611886565b5f81518084528060208401602086015e5f602082860101526020601f19601f83011685010191505092915050565b602081525f6105c960208301846119ce565b5f5f83601f840112611a1e575f5ffd5b5081356001600160401b03811115611a34575f5ffd5b6020830191508360208260051b85010111156114e9575f5ffd5b5f5f5f5f5f60c08688031215611a62575f5ffd5b611a6c8787611789565b9450611a7a6040870161179f565b935060608601356001600160401b03811115611a94575f5ffd5b611aa088828901611a0e565b9094509250611ab490508760808801611789565b90509295509295909350565b5f60408284031215611ad0575f5ffd5b6105c98383611886565b5f602082016020835280845180835260408501915060408160051b8601019250602086015f5b82811015611b3157603f19878603018452611b1c858351611924565b94506020938401939190910190600101611b00565b50929695505050505050565b5f60608284031215611799575f5ffd5b5f5f60608385031215611b5e575f5ffd5b611b688484611789565b915060408301356001600160401b03811115611b82575f5ffd5b611b8e85828601611b3d565b9150509250929050565b5f5f5f60808486031215611baa575f5ffd5b611bb48585611789565b925060408401356001600160401b03811115611bce575f5ffd5b611bda86828701611b3d565b92505060608401356001600160401b03811115611bf5575f5ffd5b8401601f81018613611c05575f5ffd5b80356001600160401b03811115611c1e57611c1e61182b565b8060051b611c2e6020820161183f565b91825260208184018101929081019089841115611c49575f5ffd5b6020850194505b83851015611c6b578435825260209485019490910190611c50565b80955050505050509250925092565b5f5f5f5f60808587031215611c8d575f5ffd5b611c978686611789565b935060408501356001600160401b03811115611cb1575f5ffd5b611cbd87828801611b3d565b93505060608501356001600160401b03811115611cd8575f5ffd5b611ce487828801611a0e565b95989497509550505050565b634e487b7160e01b5f52603260045260245ffd5b634e487b7160e01b5f52601160045260245ffd5b8082018082111561049757610497611d04565b5f60018201611d3c57611d3c611d04565b5060010190565b5f8235603e19833603018112611d57575f5ffd5b9190910192915050565b808202811582820484141761049757610497611d04565b8135611d838161186f565b81546001600160a01b0319166001600160a01b0391909116178155602082013536839003601e19018112611db5575f5ffd5b820180356001600160401b03811115611dcc575f5ffd5b6020820191508060051b3603821315611de3575f5ffd5b600183016001600160401b03821115611dfe57611dfe61182b565b68010000000000000000821115611e1757611e1761182b565b805482825580831015611e4c575f828152602090208381019082015b80821015611e49575f8255600182019150611e33565b50505b505f90815260208120905b82811015611e7357833582820155602090930192600101611e57565b505050505050565b5f60208284031215611e8b575f5ffd5b81356105c98161186f565b5f60208284031215611ea6575f5ffd5b6105c98261179f565b5f608082018635611ebf8161186f565b6001600160a01b0316835263ffffffff611edb6020890161179f565b16602084015263ffffffff861660408401526080606084015283905260a0600584901b83018101908301855f603e1936839003015b87821015611fd357868503609f190184528235818112611f2e575f5ffd5b89018035611f3b8161186f565b6001600160a01b03168652602081013536829003601e19018112611f5d575f5ffd5b016020810190356001600160401b03811115611f77575f5ffd5b8060051b803603831315611f89575f5ffd5b60406020890181905288018290526001600160fb1b03821115611faa575f5ffd5b808360608a01376060818901019750505050602083019250602084019350600182019150611f10565b50929998505050505050505050565b5f60208284031215611ff2575f5ffd5b813561ffff811681146105c9575f5ffd5b634e487b7160e01b5f52601260045260245ffd5b5f8261202557612025612003565b500490565b80516020808301519190811015611799575f1960209190910360031b1b16919050565b63ffffffff818116838216019081111561049757610497611d04565b5f60208284031215612079575f5ffd5b815180151581146105c9575f5ffd5b5f5f8335601e1984360301811261209d575f5ffd5b8301803591506001600160401b038211156120b6575f5ffd5b6020019150368190038213156114e9575f5ffd5b5f826120d8576120d8612003565b500690565b634e487b7160e01b5f52602160045260245ffd5b8181038181111561049757610497611d04565b828152604060208201525f61063760408301846119ce565b5f82518060208501845e5f920191825250919050565b5f60208284031215612142575f5ffd5b505191905056fea2646970667358221220ff854521aed3fa42f72e0dbec14028754b09a83d79bc8b7d0b9ca7a3e78d463c64736f6c634300081b0033",
    "linkReferences": {}
  },
  "methodIdentifiers": {
    "calculateCertificateDigest(uint32,bytes32)": "18467434",
    "domainSeparator()": "f698da25",
    "getOperatorCount((address,uint32),uint32)": "23c2a3cb",
    "getOperatorInfo((address,uint32),uint32,uint32)": "082ef73d",
    "getOperatorInfos((address,uint32),uint32)": "7c85ac4c",
    "getOperatorSetOwner((address,uint32))": "84818920",
    "getTotalStakes((address,uint32),uint32)": "04cdbae4",
    "latestReferenceTimestamp((address,uint32))": "5ddb9b5b",
    "maxOperatorTableStaleness((address,uint32))": "6141879e",
    "operatorTableUpdater()": "68d6e081",
    "updateOperatorTable((address,uint32),uint32,(address,uint256[])[],(address,uint32))": "56d482f5",
    "verifyCertificate((address,uint32),(uint32,bytes32,bytes))": "80c7d3f3",
    "verifyCertificateNominal((address,uint32),(uint32,bytes32,bytes),uint256[])": "be86e0b2",
    "verifyCertificateProportion((address,uint32),(uint32,bytes32,bytes),uint16[])": "c0da2420",
    "version()": "54fd4d50"
  },
  "id": 178
}